{
  "contractName": "GnomesCollective",
  "abi": [
    {
      "inputs": [
        {
          "internalType": "bytes32",
          "name": "_root",
          "type": "bytes32"
        },
        {
          "internalType": "string",
          "name": "_notRevealedUri",
          "type": "string"
        },
        {
          "internalType": "string",
          "name": "_name",
          "type": "string"
        },
        {
          "internalType": "string",
          "name": "_symbol",
          "type": "string"
        }
      ],
      "stateMutability": "nonpayable",
      "type": "constructor"
    },
    {
      "inputs": [
        {
          "internalType": "address",
          "name": "operator",
          "type": "address"
        }
      ],
      "name": "OperatorNotAllowed",
      "type": "error"
    },
    {
      "anonymous": false,
      "inputs": [
        {
          "indexed": true,
          "internalType": "address",
          "name": "owner",
          "type": "address"
        },
        {
          "indexed": true,
          "internalType": "address",
          "name": "approved",
          "type": "address"
        },
        {
          "indexed": true,
          "internalType": "uint256",
          "name": "tokenId",
          "type": "uint256"
        }
      ],
      "name": "Approval",
      "type": "event"
    },
    {
      "anonymous": false,
      "inputs": [
        {
          "indexed": true,
          "internalType": "address",
          "name": "owner",
          "type": "address"
        },
        {
          "indexed": true,
          "internalType": "address",
          "name": "operator",
          "type": "address"
        },
        {
          "indexed": false,
          "internalType": "bool",
          "name": "approved",
          "type": "bool"
        }
      ],
      "name": "ApprovalForAll",
      "type": "event"
    },
    {
      "anonymous": false,
      "inputs": [
        {
          "indexed": true,
          "internalType": "address",
          "name": "previousOwner",
          "type": "address"
        },
        {
          "indexed": true,
          "internalType": "address",
          "name": "newOwner",
          "type": "address"
        }
      ],
      "name": "OwnershipTransferred",
      "type": "event"
    },
    {
      "anonymous": false,
      "inputs": [
        {
          "indexed": true,
          "internalType": "address",
          "name": "from",
          "type": "address"
        },
        {
          "indexed": true,
          "internalType": "address",
          "name": "to",
          "type": "address"
        },
        {
          "indexed": true,
          "internalType": "uint256",
          "name": "tokenId",
          "type": "uint256"
        }
      ],
      "name": "Transfer",
      "type": "event"
    },
    {
      "inputs": [],
      "name": "OPERATOR_FILTER_REGISTRY",
      "outputs": [
        {
          "internalType": "contract IOperatorFilterRegistry",
          "name": "",
          "type": "address"
        }
      ],
      "stateMutability": "view",
      "type": "function",
      "constant": true
    },
    {
      "inputs": [
        {
          "internalType": "address",
          "name": "to",
          "type": "address"
        },
        {
          "internalType": "uint256",
          "name": "tokenId",
          "type": "uint256"
        }
      ],
      "name": "approve",
      "outputs": [],
      "stateMutability": "nonpayable",
      "type": "function"
    },
    {
      "inputs": [
        {
          "internalType": "address",
          "name": "owner",
          "type": "address"
        }
      ],
      "name": "balanceOf",
      "outputs": [
        {
          "internalType": "uint256",
          "name": "",
          "type": "uint256"
        }
      ],
      "stateMutability": "view",
      "type": "function",
      "constant": true
    },
    {
      "inputs": [],
      "name": "cost",
      "outputs": [
        {
          "internalType": "uint256",
          "name": "",
          "type": "uint256"
        }
      ],
      "stateMutability": "view",
      "type": "function",
      "constant": true
    },
    {
      "inputs": [
        {
          "internalType": "uint256",
          "name": "tokenId",
          "type": "uint256"
        }
      ],
      "name": "getApproved",
      "outputs": [
        {
          "internalType": "address",
          "name": "",
          "type": "address"
        }
      ],
      "stateMutability": "view",
      "type": "function",
      "constant": true
    },
    {
      "inputs": [
        {
          "internalType": "address",
          "name": "owner",
          "type": "address"
        },
        {
          "internalType": "address",
          "name": "operator",
          "type": "address"
        }
      ],
      "name": "isApprovedForAll",
      "outputs": [
        {
          "internalType": "bool",
          "name": "",
          "type": "bool"
        }
      ],
      "stateMutability": "view",
      "type": "function",
      "constant": true
    },
    {
      "inputs": [],
      "name": "maxMintAmount",
      "outputs": [
        {
          "internalType": "uint256",
          "name": "",
          "type": "uint256"
        }
      ],
      "stateMutability": "view",
      "type": "function",
      "constant": true
    },
    {
      "inputs": [],
      "name": "maxSupply",
      "outputs": [
        {
          "internalType": "uint256",
          "name": "",
          "type": "uint256"
        }
      ],
      "stateMutability": "view",
      "type": "function",
      "constant": true
    },
    {
      "inputs": [],
      "name": "name",
      "outputs": [
        {
          "internalType": "string",
          "name": "",
          "type": "string"
        }
      ],
      "stateMutability": "view",
      "type": "function",
      "constant": true
    },
    {
      "inputs": [],
      "name": "notRevealedUri",
      "outputs": [
        {
          "internalType": "string",
          "name": "",
          "type": "string"
        }
      ],
      "stateMutability": "view",
      "type": "function",
      "constant": true
    },
    {
      "inputs": [],
      "name": "owner",
      "outputs": [
        {
          "internalType": "address",
          "name": "",
          "type": "address"
        }
      ],
      "stateMutability": "view",
      "type": "function",
      "constant": true
    },
    {
      "inputs": [
        {
          "internalType": "uint256",
          "name": "tokenId",
          "type": "uint256"
        }
      ],
      "name": "ownerOf",
      "outputs": [
        {
          "internalType": "address",
          "name": "",
          "type": "address"
        }
      ],
      "stateMutability": "view",
      "type": "function",
      "constant": true
    },
    {
      "inputs": [],
      "name": "paused",
      "outputs": [
        {
          "internalType": "bool",
          "name": "",
          "type": "bool"
        }
      ],
      "stateMutability": "view",
      "type": "function",
      "constant": true
    },
    {
      "inputs": [],
      "name": "publicMint",
      "outputs": [
        {
          "internalType": "bool",
          "name": "",
          "type": "bool"
        }
      ],
      "stateMutability": "view",
      "type": "function",
      "constant": true
    },
    {
      "inputs": [],
      "name": "publicPrice",
      "outputs": [
        {
          "internalType": "uint256",
          "name": "",
          "type": "uint256"
        }
      ],
      "stateMutability": "view",
      "type": "function",
      "constant": true
    },
    {
      "inputs": [],
      "name": "renounceOwnership",
      "outputs": [],
      "stateMutability": "nonpayable",
      "type": "function"
    },
    {
      "inputs": [],
      "name": "revealed",
      "outputs": [
        {
          "internalType": "bool",
          "name": "",
          "type": "bool"
        }
      ],
      "stateMutability": "view",
      "type": "function",
      "constant": true
    },
    {
      "inputs": [
        {
          "internalType": "address",
          "name": "operator",
          "type": "address"
        },
        {
          "internalType": "bool",
          "name": "approved",
          "type": "bool"
        }
      ],
      "name": "setApprovalForAll",
      "outputs": [],
      "stateMutability": "nonpayable",
      "type": "function"
    },
    {
      "inputs": [
        {
          "internalType": "bytes4",
          "name": "interfaceId",
          "type": "bytes4"
        }
      ],
      "name": "supportsInterface",
      "outputs": [
        {
          "internalType": "bool",
          "name": "",
          "type": "bool"
        }
      ],
      "stateMutability": "view",
      "type": "function",
      "constant": true
    },
    {
      "inputs": [],
      "name": "symbol",
      "outputs": [
        {
          "internalType": "string",
          "name": "",
          "type": "string"
        }
      ],
      "stateMutability": "view",
      "type": "function",
      "constant": true
    },
    {
      "inputs": [
        {
          "internalType": "uint256",
          "name": "index",
          "type": "uint256"
        }
      ],
      "name": "tokenByIndex",
      "outputs": [
        {
          "internalType": "uint256",
          "name": "",
          "type": "uint256"
        }
      ],
      "stateMutability": "view",
      "type": "function",
      "constant": true
    },
    {
      "inputs": [
        {
          "internalType": "address",
          "name": "owner",
          "type": "address"
        },
        {
          "internalType": "uint256",
          "name": "index",
          "type": "uint256"
        }
      ],
      "name": "tokenOfOwnerByIndex",
      "outputs": [
        {
          "internalType": "uint256",
          "name": "",
          "type": "uint256"
        }
      ],
      "stateMutability": "view",
      "type": "function",
      "constant": true
    },
    {
      "inputs": [],
      "name": "totalSupply",
      "outputs": [
        {
          "internalType": "uint256",
          "name": "",
          "type": "uint256"
        }
      ],
      "stateMutability": "view",
      "type": "function",
      "constant": true
    },
    {
      "inputs": [
        {
          "internalType": "address",
          "name": "newOwner",
          "type": "address"
        }
      ],
      "name": "transferOwnership",
      "outputs": [],
      "stateMutability": "nonpayable",
      "type": "function"
    },
    {
      "inputs": [
        {
          "internalType": "uint256",
          "name": "_mintAmount",
          "type": "uint256"
        },
        {
          "internalType": "bytes32[]",
          "name": "proof",
          "type": "bytes32[]"
        },
        {
          "internalType": "bytes32",
          "name": "leaf",
          "type": "bytes32"
        }
      ],
      "name": "mint",
      "outputs": [],
      "stateMutability": "payable",
      "type": "function",
      "payable": true
    },
    {
      "inputs": [
        {
          "internalType": "address",
          "name": "_owner",
          "type": "address"
        }
      ],
      "name": "walletOfOwner",
      "outputs": [
        {
          "internalType": "uint256[]",
          "name": "",
          "type": "uint256[]"
        }
      ],
      "stateMutability": "view",
      "type": "function",
      "constant": true
    },
    {
      "inputs": [
        {
          "internalType": "uint256",
          "name": "tokenId",
          "type": "uint256"
        }
      ],
      "name": "tokenURI",
      "outputs": [
        {
          "internalType": "string",
          "name": "",
          "type": "string"
        }
      ],
      "stateMutability": "view",
      "type": "function",
      "constant": true
    },
    {
      "inputs": [
        {
          "internalType": "bytes32",
          "name": "_root",
          "type": "bytes32"
        }
      ],
      "name": "_setroot",
      "outputs": [],
      "stateMutability": "nonpayable",
      "type": "function"
    },
    {
      "inputs": [],
      "name": "reveal",
      "outputs": [],
      "stateMutability": "nonpayable",
      "type": "function"
    },
    {
      "inputs": [
        {
          "internalType": "uint256",
          "name": "_newCost",
          "type": "uint256"
        }
      ],
      "name": "setCost",
      "outputs": [],
      "stateMutability": "nonpayable",
      "type": "function"
    },
    {
      "inputs": [
        {
          "internalType": "uint256",
          "name": "tokenId",
          "type": "uint256"
        },
        {
          "internalType": "string",
          "name": "_tokenURI",
          "type": "string"
        }
      ],
      "name": "setTokenURI",
      "outputs": [],
      "stateMutability": "nonpayable",
      "type": "function"
    },
    {
      "inputs": [],
      "name": "getRoot",
      "outputs": [
        {
          "internalType": "bytes32",
          "name": "",
          "type": "bytes32"
        }
      ],
      "stateMutability": "view",
      "type": "function",
      "constant": true
    },
    {
      "inputs": [
        {
          "internalType": "uint256",
          "name": "_newmaxMintAmount",
          "type": "uint256"
        }
      ],
      "name": "setmaxMintAmount",
      "outputs": [],
      "stateMutability": "nonpayable",
      "type": "function"
    },
    {
      "inputs": [
        {
          "internalType": "string",
          "name": "_notRevealedURI",
          "type": "string"
        }
      ],
      "name": "setNotRevealedURI",
      "outputs": [],
      "stateMutability": "nonpayable",
      "type": "function"
    },
    {
      "inputs": [
        {
          "internalType": "bool",
          "name": "_state",
          "type": "bool"
        }
      ],
      "name": "pause",
      "outputs": [],
      "stateMutability": "nonpayable",
      "type": "function"
    },
    {
      "inputs": [
        {
          "internalType": "bool",
          "name": "_state",
          "type": "bool"
        }
      ],
      "name": "_publicMint",
      "outputs": [],
      "stateMutability": "nonpayable",
      "type": "function"
    },
    {
      "inputs": [],
      "name": "withdraw",
      "outputs": [],
      "stateMutability": "payable",
      "type": "function",
      "payable": true
    },
    {
      "inputs": [
        {
          "internalType": "address",
          "name": "_user",
          "type": "address"
        },
        {
          "internalType": "uint256",
          "name": "_state",
          "type": "uint256"
        }
      ],
      "name": "setWalletMints",
      "outputs": [],
      "stateMutability": "nonpayable",
      "type": "function"
    },
    {
      "inputs": [
        {
          "internalType": "address",
          "name": "_user",
          "type": "address"
        }
      ],
      "name": "getWalletMints",
      "outputs": [
        {
          "internalType": "uint256",
          "name": "WalletMints",
          "type": "uint256"
        }
      ],
      "stateMutability": "view",
      "type": "function",
      "constant": true
    },
    {
      "inputs": [
        {
          "internalType": "address",
          "name": "from",
          "type": "address"
        },
        {
          "internalType": "address",
          "name": "to",
          "type": "address"
        },
        {
          "internalType": "uint256",
          "name": "tokenId",
          "type": "uint256"
        }
      ],
      "name": "transferFrom",
      "outputs": [],
      "stateMutability": "nonpayable",
      "type": "function"
    },
    {
      "inputs": [
        {
          "internalType": "address",
          "name": "from",
          "type": "address"
        },
        {
          "internalType": "address",
          "name": "to",
          "type": "address"
        },
        {
          "internalType": "uint256",
          "name": "tokenId",
          "type": "uint256"
        }
      ],
      "name": "safeTransferFrom",
      "outputs": [],
      "stateMutability": "nonpayable",
      "type": "function"
    },
    {
      "inputs": [
        {
          "internalType": "address",
          "name": "from",
          "type": "address"
        },
        {
          "internalType": "address",
          "name": "to",
          "type": "address"
        },
        {
          "internalType": "uint256",
          "name": "tokenId",
          "type": "uint256"
        },
        {
          "internalType": "bytes",
          "name": "data",
          "type": "bytes"
        }
      ],
      "name": "safeTransferFrom",
      "outputs": [],
      "stateMutability": "nonpayable",
      "type": "function"
    },
    {
      "inputs": [
        {
          "internalType": "bytes32[]",
          "name": "proof",
          "type": "bytes32[]"
        },
        {
          "internalType": "bytes32",
          "name": "leaf",
          "type": "bytes32"
        }
      ],
      "name": "LuckyGnomes",
      "outputs": [
        {
          "internalType": "bool",
          "name": "",
          "type": "bool"
        }
      ],
      "stateMutability": "view",
      "type": "function",
      "constant": true
    }
  ],
  "bytecode": "0x6080604052661f8c501d9b0000600c556607e3140766c000600d55610b48600e556001600f556010805462ffffff191690553480156200003e57600080fd5b5060405162002fd238038062002fd2833981016040819052620000619162000320565b8181733cc6cdda760b79bafa08df41ecfa224f810dceb6600162000085336200020b565b6daaeb6d7670e522a718067333cd4e3b15620001ca5780156200011857604051633e9f1edf60e11b81523060048201526001600160a01b03831660248201526daaeb6d7670e522a718067333cd4e90637d3e3dbe906044015b600060405180830381600087803b158015620000f957600080fd5b505af11580156200010e573d6000803e3d6000fd5b50505050620001ca565b6001600160a01b03821615620001695760405163a0af290360e01b81523060048201526001600160a01b03831660248201526daaeb6d7670e522a718067333cd4e9063a0af290390604401620000de565b604051632210724360e11b81523060048201526daaeb6d7670e522a718067333cd4e90634420e48690602401600060405180830381600087803b158015620001b057600080fd5b505af1158015620001c5573d6000803e3d6000fd5b505050505b5060019050620001db83826200044b565b506002620001ea82826200044b565b505050600b84905560116200020084826200044b565b505050505062000517565b600080546001600160a01b038381166001600160a01b0319831681178455604051919092169283917f8be0079c531659141344cd1fd0a4f28419497f9722a3daafe3b4186f6b6457e09190a35050565b634e487b7160e01b600052604160045260246000fd5b600082601f8301126200028357600080fd5b81516001600160401b0380821115620002a057620002a06200025b565b604051601f8301601f19908116603f01168101908282118183101715620002cb57620002cb6200025b565b81604052838152602092508683858801011115620002e857600080fd5b600091505b838210156200030c5785820183015181830184015290820190620002ed565b600093810190920192909252949350505050565b600080600080608085870312156200033757600080fd5b845160208601519094506001600160401b03808211156200035757600080fd5b620003658883890162000271565b945060408701519150808211156200037c57600080fd5b6200038a8883890162000271565b93506060870151915080821115620003a157600080fd5b50620003b08782880162000271565b91505092959194509250565b600181811c90821680620003d157607f821691505b602082108103620003f257634e487b7160e01b600052602260045260246000fd5b50919050565b601f8211156200044657600081815260208120601f850160051c81016020861015620004215750805b601f850160051c820191505b8181101562000442578281556001016200042d565b5050505b505050565b81516001600160401b038111156200046757620004676200025b565b6200047f81620004788454620003bc565b84620003f8565b602080601f831160018114620004b757600084156200049e5750858301515b600019600386901b1c1916600185901b17855562000442565b600085815260208120601f198616915b82811015620004e857888601518255948401946001909101908401620004c7565b5085821015620005075787850151600019600388901b60f8161c191681555b5050505050600190811b01905550565b612aab80620005276000396000f3fe60806040526004361061025c5760003560e01c80635c975abb11610144578063a3227ce2116100b6578063c87b56dd1161007a578063c87b56dd146106c1578063d5abeb01146106e1578063e985e9c5146106f7578063e9e3a53e14610740578063f2c4ce1e14610776578063f2fde38b1461079657600080fd5b8063a3227ce214610636578063a475b5dd14610656578063a945bf801461066b578063b88d4fde14610681578063c4e8dde1146106a157600080fd5b8063715018a611610108578063715018a61461058e5780637f00c7a6146105a35780638da5cb5b146105c3578063936b6164146105e157806395d89b4114610601578063a22cb4651461061657600080fd5b80635c975abb146104fa5780635ca1e165146105195780636352211e1461052e5780636ce4f7601461054e57806370a082311461056e57600080fd5b806323b872dd116101dd57806342842e0e116101a157806342842e0e1461043a578063438b63001461045a57806344a0d68a146104875780634f6ccce7146104a757806351830227146104c75780635b885ed7146104e757600080fd5b806323b872dd146103b657806326092b83146103d65780632f745c59146103f05780633ccfd60b1461041057806341f434341461041857600080fd5b8063095ea7b311610224578063095ea7b31461032757806313faede614610347578063162094c41461036b57806318160ddd1461038b578063239c70ae146103a057600080fd5b806301ffc9a71461026157806302329a291461029657806306fdde03146102b8578063081812fc146102da578063081c8c4414610312575b600080fd5b34801561026d57600080fd5b5061028161027c366004612258565b6107b6565b60405190151581526020015b60405180910390f35b3480156102a257600080fd5b506102b66102b1366004612283565b6107e1565b005b3480156102c457600080fd5b506102cd610803565b60405161028d91906122e6565b3480156102e657600080fd5b506102fa6102f53660046122f9565b610895565b6040516001600160a01b03909116815260200161028d565b34801561031e57600080fd5b506102cd6108bc565b34801561033357600080fd5b506102b661034236600461232e565b61094a565b34801561035357600080fd5b5061035d600c5481565b60405190815260200161028d565b34801561037757600080fd5b506102b6610386366004612417565b610a64565b34801561039757600080fd5b5060095461035d565b3480156103ac57600080fd5b5061035d600f5481565b3480156103c257600080fd5b506102b66103d136600461245e565b610ae0565b3480156103e257600080fd5b506010546102819060ff1681565b3480156103fc57600080fd5b5061035d61040b36600461232e565b610b0b565b6102b6610ba1565b34801561042457600080fd5b506102fa6daaeb6d7670e522a718067333cd4e81565b34801561044657600080fd5b506102b661045536600461245e565b610c38565b34801561046657600080fd5b5061047a61047536600461249a565b610c5d565b60405161028d91906124b5565b34801561049357600080fd5b506102b66104a23660046122f9565b610cff565b3480156104b357600080fd5b5061035d6104c23660046122f9565b610d0c565b3480156104d357600080fd5b506010546102819062010000900460ff1681565b6102b66104f5366004612579565b610d9f565b34801561050657600080fd5b5060105461028190610100900460ff1681565b34801561052557600080fd5b5061035d6111f8565b34801561053a57600080fd5b506102fa6105493660046122f9565b611209565b34801561055a57600080fd5b506102b661056936600461232e565b611269565b34801561057a57600080fd5b5061035d61058936600461249a565b61128d565b34801561059a57600080fd5b506102b6611313565b3480156105af57600080fd5b506102b66105be3660046122f9565b611327565b3480156105cf57600080fd5b506000546001600160a01b03166102fa565b3480156105ed57600080fd5b506102816105fc3660046125c9565b611334565b34801561060d57600080fd5b506102cd61134a565b34801561062257600080fd5b506102b661063136600461260e565b611359565b34801561064257600080fd5b506102b66106513660046122f9565b611368565b34801561066257600080fd5b506102b6611375565b34801561067757600080fd5b5061035d600d5481565b34801561068d57600080fd5b506102b661069c366004612645565b611390565b3480156106ad57600080fd5b506102b66106bc366004612283565b6113bd565b3480156106cd57600080fd5b506102cd6106dc3660046122f9565b6113d8565b3480156106ed57600080fd5b5061035d600e5481565b34801561070357600080fd5b506102816107123660046126c1565b6001600160a01b03918216600090815260066020908152604080832093909416825291909152205460ff1690565b34801561074c57600080fd5b5061035d61075b36600461249a565b6001600160a01b031660009081526014602052604090205490565b34801561078257600080fd5b506102b66107913660046126f4565b611507565b3480156107a257600080fd5b506102b66107b136600461249a565b61151b565b60006001600160e01b0319821663780e9d6360e01b14806107db57506107db82611591565b92915050565b6107e96115e1565b601080549115156101000261ff0019909216919091179055565b60606001805461081290612729565b80601f016020809104026020016040519081016040528092919081815260200182805461083e90612729565b801561088b5780601f106108605761010080835404028352916020019161088b565b820191906000526020600020905b81548152906001019060200180831161086e57829003601f168201915b5050505050905090565b60006108a08261163b565b506000908152600560205260409020546001600160a01b031690565b601180546108c990612729565b80601f01602080910402602001604051908101604052809291908181526020018280546108f590612729565b80156109425780601f1061091757610100808354040283529160200191610942565b820191906000526020600020905b81548152906001019060200180831161092557829003601f168201915b505050505081565b600061095582611209565b9050806001600160a01b0316836001600160a01b0316036109c75760405162461bcd60e51b815260206004820152602160248201527f4552433732313a20617070726f76616c20746f2063757272656e74206f776e656044820152603960f91b60648201526084015b60405180910390fd5b336001600160a01b03821614806109e357506109e38133610712565b610a555760405162461bcd60e51b815260206004820152603d60248201527f4552433732313a20617070726f76652063616c6c6572206973206e6f7420746f60448201527f6b656e206f776e6572206f7220617070726f76656420666f7220616c6c00000060648201526084016109be565b610a5f838361169a565b505050565b6000828152600360205260409020546001600160a01b0316610ac85760405162461bcd60e51b815260206004820152601c60248201527f55524920736574206f66206e6f6e6578697374656e7420746f6b656e0000000060448201526064016109be565b6000828152601360205260409020610a5f82826127b1565b826001600160a01b0381163314610afa57610afa33611708565b610b058484846117c1565b50505050565b6000610b168361128d565b8210610b785760405162461bcd60e51b815260206004820152602b60248201527f455243373231456e756d657261626c653a206f776e657220696e646578206f7560448201526a74206f6620626f756e647360a81b60648201526084016109be565b506001600160a01b03919091166000908152600760209081526040808320938352929052205490565b610ba96115e1565b600080546040516001600160a01b039091169047908381818185875af1925050503d8060008114610bf6576040519150601f19603f3d011682016040523d82523d6000602084013e610bfb565b606091505b5050905080610c355760405162461bcd60e51b81526020600482015260066024820152656e6f74206f7360d01b60448201526064016109be565b50565b826001600160a01b0381163314610c5257610c5233611708565b610b058484846117f2565b60606000610c6a8361128d565b905060008167ffffffffffffffff811115610c8757610c87612358565b604051908082528060200260200182016040528015610cb0578160200160208202803683370190505b50905060005b82811015610cf757610cc88582610b0b565b828281518110610cda57610cda612871565b602090810291909101015280610cef8161289d565b915050610cb6565b509392505050565b610d076115e1565b600c55565b6000610d1760095490565b8210610d7a5760405162461bcd60e51b815260206004820152602c60248201527f455243373231456e756d657261626c653a20676c6f62616c20696e646578206f60448201526b7574206f6620626f756e647360a01b60648201526084016109be565b60098281548110610d8d57610d8d612871565b90600052602060002001549050919050565b6000546001600160a01b03163314610e5c57601054610100900460ff1615610dfd5760405162461bcd60e51b8152602060048201526011602482015270135a5b9d1a5b99c81a5cc81c185d5cd959607a1b60448201526064016109be565b600f54610e0b9060016128b6565b3360009081526014602052604090205410610e5c5760405162461bcd60e51b8152602060048201526011602482015270115e18d95959081b585e081dd85b1b195d607a1b60448201526064016109be565b60008311610ea35760405162461bcd60e51b81526020600482015260146024820152730416d6f756e742068617320746f206265203e20360641b60448201526064016109be565b600e5483610eb060095490565b610eba91906128b6565b1115610ef35760405162461bcd60e51b815260206004820152600860248201526714d3d3110813d55560c21b60448201526064016109be565b610efd8282611334565b1515600114611062576000546001600160a01b03163314610fdb5760105460ff16610f545760405162461bcd60e51b8152602060048201526007602482015266215075626c696360c81b60448201526064016109be565b600f54831115610f985760405162461bcd60e51b815260206004820152600f60248201526e082dadeeadce840d2e6407c40dac2f608b1b60448201526064016109be565b600d54600c54610fa891906128b6565b341015610fc75760405162461bcd60e51b81526004016109be906128c9565b336000908152601460205260409020600290555b60005b83811015611060573360126000610ff460095490565b610fff9060016128b6565b815260200190815260200160002060006101000a8154816001600160a01b0302191690836001600160a01b0316021790555061104e3361103e60095490565b6110499060016128b6565b61180d565b806110588161289d565b915050610fde565b505b61106c8282611334565b1515600103610a5f5733600090815260146020526040902054600f546110939060016128b6565b61109d91906128f1565b8311156110de5760405162461bcd60e51b815260206004820152600f60248201526e082dadeeadce840d2e6407c40dac2f608b1b60448201526064016109be565b82600214806110fc5750336000908152601460205260409020546001145b156111625760105460ff161561114057600d54600c5461111c91906128b6565b34101561113b5760405162461bcd60e51b81526004016109be906128c9565b611162565b600c543410156111625760405162461bcd60e51b81526004016109be906128c9565b60005b83811015610b0557336012600061117b60095490565b6111869060016128b6565b815260200190815260200160002060006101000a8154816001600160a01b0302191690836001600160a01b031602179055506111c53361103e60095490565b3360009081526014602052604081208054916111e08361289d565b919050555080806111f09061289d565b915050611165565b60006112026115e1565b50600b5490565b6000818152600360205260408120546001600160a01b0316806107db5760405162461bcd60e51b8152602060048201526018602482015277115490cdcc8c4e881a5b9d985b1a59081d1bdad95b88125160421b60448201526064016109be565b6112716115e1565b6001600160a01b03909116600090815260146020526040902055565b60006001600160a01b0382166112f75760405162461bcd60e51b815260206004820152602960248201527f4552433732313a2061646472657373207a65726f206973206e6f7420612076616044820152683634b21037bbb732b960b91b60648201526084016109be565b506001600160a01b031660009081526004602052604090205490565b61131b6115e1565b6113256000611827565b565b61132f6115e1565b600f55565b600061134383600b5484611877565b9392505050565b60606002805461081290612729565b61136433838361188d565b5050565b6113706115e1565b600b55565b61137d6115e1565b6010805462ff0000191662010000179055565b836001600160a01b03811633146113aa576113aa33611708565b6113b68585858561195b565b5050505050565b6113c56115e1565b6010805460ff1916911515919091179055565b6000818152600360205260409020546060906001600160a01b03166114575760405162461bcd60e51b815260206004820152602f60248201527f4552433732314d657461646174613a2055524920717565727920666f72206e6f60448201526e3732bc34b9ba32b73a103a37b5b2b760891b60648201526084016109be565b60105462010000900460ff1615156000036114fe576011805461147990612729565b80601f01602080910402602001604051908101604052809291908181526020018280546114a590612729565b80156114f25780601f106114c7576101008083540402835291602001916114f2565b820191906000526020600020905b8154815290600101906020018083116114d557829003601f168201915b50505050509050919050565b6107db826113d8565b61150f6115e1565b601161136482826127b1565b6115236115e1565b6001600160a01b0381166115885760405162461bcd60e51b815260206004820152602660248201527f4f776e61626c653a206e6577206f776e657220697320746865207a65726f206160448201526564647265737360d01b60648201526084016109be565b610c3581611827565b60006001600160e01b031982166380ac58cd60e01b14806115c257506001600160e01b03198216635b5e139f60e01b145b806107db57506301ffc9a760e01b6001600160e01b03198316146107db565b6000546001600160a01b031633146113255760405162461bcd60e51b815260206004820181905260248201527f4f776e61626c653a2063616c6c6572206973206e6f7420746865206f776e657260448201526064016109be565b6000818152600360205260409020546001600160a01b0316610c355760405162461bcd60e51b8152602060048201526018602482015277115490cdcc8c4e881a5b9d985b1a59081d1bdad95b88125160421b60448201526064016109be565b600081815260056020526040902080546001600160a01b0319166001600160a01b03841690811790915581906116cf82611209565b6001600160a01b03167f8c5be1e5ebec7d5bd14f71427d1e84f3dd0314c0f7b2291e5b200ac8c7c3b92560405160405180910390a45050565b6daaeb6d7670e522a718067333cd4e3b15610c3557604051633185c44d60e21b81523060048201526001600160a01b03821660248201526daaeb6d7670e522a718067333cd4e9063c617113490604401602060405180830381865afa158015611775573d6000803e3d6000fd5b505050506040513d601f19601f820116820180604052508101906117999190612904565b610c3557604051633b79c77360e21b81526001600160a01b03821660048201526024016109be565b6117cb338261198d565b6117e75760405162461bcd60e51b81526004016109be90612921565b610a5f838383611a0c565b610a5f83838360405180602001604052806000815250611390565b611364828260405180602001604052806000815250611b7d565b600080546001600160a01b038381166001600160a01b0319831681178455604051919092169283917f8be0079c531659141344cd1fd0a4f28419497f9722a3daafe3b4186f6b6457e09190a35050565b6000826118848584611bb0565b14949350505050565b816001600160a01b0316836001600160a01b0316036118ee5760405162461bcd60e51b815260206004820152601960248201527f4552433732313a20617070726f766520746f2063616c6c65720000000000000060448201526064016109be565b6001600160a01b03838116600081815260066020908152604080832094871680845294825291829020805460ff191686151590811790915591519182527f17307eab39ab6107e8899845ad3d59bd9653f200f220920489ca2b5937696c31910160405180910390a3505050565b611965338361198d565b6119815760405162461bcd60e51b81526004016109be90612921565b610b0584848484611bf5565b60008061199983611209565b9050806001600160a01b0316846001600160a01b031614806119e057506001600160a01b0380821660009081526006602090815260408083209388168352929052205460ff165b80611a045750836001600160a01b03166119f984610895565b6001600160a01b0316145b949350505050565b826001600160a01b0316611a1f82611209565b6001600160a01b031614611a455760405162461bcd60e51b81526004016109be9061296e565b6001600160a01b038216611aa75760405162461bcd60e51b8152602060048201526024808201527f4552433732313a207472616e7366657220746f20746865207a65726f206164646044820152637265737360e01b60648201526084016109be565b611ab48383836001611c28565b826001600160a01b0316611ac782611209565b6001600160a01b031614611aed5760405162461bcd60e51b81526004016109be9061296e565b600081815260056020908152604080832080546001600160a01b03199081169091556001600160a01b0387811680865260048552838620805460001901905590871680865283862080546001019055868652600390945282852080549092168417909155905184937fddf252ad1be2c89b69c2b068fc378daa952ba7f163c4a11628f55a4df523b3ef91a4505050565b611b878383611d61565b611b946000848484611efa565b610a5f5760405162461bcd60e51b81526004016109be906129b3565b600081815b8451811015610cf757611be182868381518110611bd457611bd4612871565b6020026020010151611ffb565b915080611bed8161289d565b915050611bb5565b611c00848484611a0c565b611c0c84848484611efa565b610b055760405162461bcd60e51b81526004016109be906129b3565b611c348484848461202a565b6001811115611ca35760405162461bcd60e51b815260206004820152603560248201527f455243373231456e756d657261626c653a20636f6e7365637574697665207472604482015274185b9cd9995c9cc81b9bdd081cdd5c1c1bdc9d1959605a1b60648201526084016109be565b816001600160a01b038516611cff57611cfa81600980546000838152600a60205260408120829055600182018355919091527f6e1540171b6c0c960b71a7020d9f60077f6af931a8bbf590da0223dacf75c7af0155565b611d22565b836001600160a01b0316856001600160a01b031614611d2257611d2285826120b2565b6001600160a01b038416611d3e57611d398161214f565b6113b6565b846001600160a01b0316846001600160a01b0316146113b6576113b684826121fe565b6001600160a01b038216611db75760405162461bcd60e51b815260206004820181905260248201527f4552433732313a206d696e7420746f20746865207a65726f206164647265737360448201526064016109be565b6000818152600360205260409020546001600160a01b031615611e1c5760405162461bcd60e51b815260206004820152601c60248201527f4552433732313a20746f6b656e20616c7265616479206d696e7465640000000060448201526064016109be565b611e2a600083836001611c28565b6000818152600360205260409020546001600160a01b031615611e8f5760405162461bcd60e51b815260206004820152601c60248201527f4552433732313a20746f6b656e20616c7265616479206d696e7465640000000060448201526064016109be565b6001600160a01b038216600081815260046020908152604080832080546001019055848352600390915280822080546001600160a01b0319168417905551839291907fddf252ad1be2c89b69c2b068fc378daa952ba7f163c4a11628f55a4df523b3ef908290a45050565b60006001600160a01b0384163b15611ff057604051630a85bd0160e11b81526001600160a01b0385169063150b7a0290611f3e903390899088908890600401612a05565b6020604051808303816000875af1925050508015611f79575060408051601f3d908101601f19168201909252611f7691810190612a42565b60015b611fd6573d808015611fa7576040519150601f19603f3d011682016040523d82523d6000602084013e611fac565b606091505b508051600003611fce5760405162461bcd60e51b81526004016109be906129b3565b805181602001fd5b6001600160e01b031916630a85bd0160e11b149050611a04565b506001949350505050565b6000818310612017576000828152602084905260409020611343565b6000838152602083905260409020611343565b6001811115610b05576001600160a01b03841615612070576001600160a01b0384166000908152600460205260408120805483929061206a9084906128f1565b90915550505b6001600160a01b03831615610b05576001600160a01b038316600090815260046020526040812080548392906120a79084906128b6565b909155505050505050565b600060016120bf8461128d565b6120c991906128f1565b60008381526008602052604090205490915080821461211c576001600160a01b03841660009081526007602090815260408083208584528252808320548484528184208190558352600890915290208190555b5060009182526008602090815260408084208490556001600160a01b039094168352600781528383209183525290812055565b600954600090612161906001906128f1565b6000838152600a60205260408120546009805493945090928490811061218957612189612871565b9060005260206000200154905080600983815481106121aa576121aa612871565b6000918252602080832090910192909255828152600a909152604080822084905585825281205560098054806121e2576121e2612a5f565b6001900381819060005260206000200160009055905550505050565b60006122098361128d565b6001600160a01b039093166000908152600760209081526040808320868452825280832085905593825260089052919091209190915550565b6001600160e01b031981168114610c3557600080fd5b60006020828403121561226a57600080fd5b813561134381612242565b8015158114610c3557600080fd5b60006020828403121561229557600080fd5b813561134381612275565b6000815180845260005b818110156122c6576020818501810151868301820152016122aa565b506000602082860101526020601f19601f83011685010191505092915050565b60208152600061134360208301846122a0565b60006020828403121561230b57600080fd5b5035919050565b80356001600160a01b038116811461232957600080fd5b919050565b6000806040838503121561234157600080fd5b61234a83612312565b946020939093013593505050565b634e487b7160e01b600052604160045260246000fd5b604051601f8201601f1916810167ffffffffffffffff8111828210171561239757612397612358565b604052919050565b600067ffffffffffffffff8311156123b9576123b9612358565b6123cc601f8401601f191660200161236e565b90508281528383830111156123e057600080fd5b828260208301376000602084830101529392505050565b600082601f83011261240857600080fd5b6113438383356020850161239f565b6000806040838503121561242a57600080fd5b82359150602083013567ffffffffffffffff81111561244857600080fd5b612454858286016123f7565b9150509250929050565b60008060006060848603121561247357600080fd5b61247c84612312565b925061248a60208501612312565b9150604084013590509250925092565b6000602082840312156124ac57600080fd5b61134382612312565b6020808252825182820181905260009190848201906040850190845b818110156124ed578351835292840192918401916001016124d1565b50909695505050505050565b600082601f83011261250a57600080fd5b8135602067ffffffffffffffff82111561252657612526612358565b8160051b61253582820161236e565b928352848101820192828101908785111561254f57600080fd5b83870192505b8483101561256e57823582529183019190830190612555565b979650505050505050565b60008060006060848603121561258e57600080fd5b83359250602084013567ffffffffffffffff8111156125ac57600080fd5b6125b8868287016124f9565b925050604084013590509250925092565b600080604083850312156125dc57600080fd5b823567ffffffffffffffff8111156125f357600080fd5b6125ff858286016124f9565b95602094909401359450505050565b6000806040838503121561262157600080fd5b61262a83612312565b9150602083013561263a81612275565b809150509250929050565b6000806000806080858703121561265b57600080fd5b61266485612312565b935061267260208601612312565b925060408501359150606085013567ffffffffffffffff81111561269557600080fd5b8501601f810187136126a657600080fd5b6126b58782356020840161239f565b91505092959194509250565b600080604083850312156126d457600080fd5b6126dd83612312565b91506126eb60208401612312565b90509250929050565b60006020828403121561270657600080fd5b813567ffffffffffffffff81111561271d57600080fd5b611a04848285016123f7565b600181811c9082168061273d57607f821691505b60208210810361275d57634e487b7160e01b600052602260045260246000fd5b50919050565b601f821115610a5f57600081815260208120601f850160051c8101602086101561278a5750805b601f850160051c820191505b818110156127a957828155600101612796565b505050505050565b815167ffffffffffffffff8111156127cb576127cb612358565b6127df816127d98454612729565b84612763565b602080601f83116001811461281457600084156127fc5750858301515b600019600386901b1c1916600185901b1785556127a9565b600085815260208120601f198616915b8281101561284357888601518255948401946001909101908401612824565b50858210156128615787850151600019600388901b60f8161c191681555b5050505050600190811b01905550565b634e487b7160e01b600052603260045260246000fd5b634e487b7160e01b600052601160045260246000fd5b6000600182016128af576128af612887565b5060010190565b808201808211156107db576107db612887565b6020808252600e908201526d09cdee840cadcdeeaced0408aa8960931b604082015260600190565b818103818111156107db576107db612887565b60006020828403121561291657600080fd5b815161134381612275565b6020808252602d908201527f4552433732313a2063616c6c6572206973206e6f7420746f6b656e206f776e6560408201526c1c881bdc88185c1c1c9bdd9959609a1b606082015260800190565b60208082526025908201527f4552433732313a207472616e736665722066726f6d20696e636f72726563742060408201526437bbb732b960d91b606082015260800190565b60208082526032908201527f4552433732313a207472616e7366657220746f206e6f6e20455243373231526560408201527131b2b4bb32b91034b6b83632b6b2b73a32b960711b606082015260800190565b6001600160a01b0385811682528416602082015260408101839052608060608201819052600090612a38908301846122a0565b9695505050505050565b600060208284031215612a5457600080fd5b815161134381612242565b634e487b7160e01b600052603160045260246000fdfea26469706673582212208b462b77114bed7c538f630966191d5c27f291dfddf6691df185dd61fee92f4164736f6c63430008110033",
  "immutableReferences": {},
  "source": "// SPDX-License-Identifier: MIT\r\n\r\n//\r\n//\r\n//\r\n//\r\n//\r\n//\r\n\r\n//\r\n//\r\n//\r\n//\r\n//\r\n//\r\n\r\npragma solidity >=0.7.0 <0.9.0;\r\n\r\nimport \"@openzeppelin/contracts/access/Ownable.sol\";\r\nimport \"./DefaultOperatorFilterer.sol\";\r\nimport \"@openzeppelin/contracts/token/ERC721/extensions/ERC721Enumerable.sol\";\r\nimport \"@openzeppelin/contracts/utils/cryptography/MerkleProof.sol\";\r\n\r\ncontract GnomesCollective is Ownable, DefaultOperatorFilterer, ERC721Enumerable {\r\n  using Strings for uint256;\r\n  bytes32 root;\r\n  uint256 public cost = 0.00888 ether;\r\n  uint256 public publicPrice = 0.00222 ether;\r\n  uint256 public maxSupply = 2888;\r\n  uint256 public maxMintAmount = 1;\r\n  bool public publicMint = false;\r\n  bool public paused = false;\r\n  bool public revealed = false;\r\n  string public notRevealedUri;\r\n  mapping(uint256 => address) private requestToSender;\r\n  mapping(uint256 => string) private _tokenURIs;\r\n  mapping(address => uint256) private walletMints;\r\n  \r\n\r\n  constructor(\r\n    bytes32 _root,\r\n    string memory _notRevealedUri,\r\n    string memory _name,\r\n    string memory _symbol\r\n  ) ERC721(_name, _symbol) { \r\n    root = _root;\r\n    notRevealedUri = _notRevealedUri;\r\n  }\r\n\r\n  function mint(uint256 _mintAmount, bytes32[] memory proof, bytes32 leaf ) public payable {\r\n    if(msg.sender != owner()){                                                 //@dev Constructor call for Treasure\r\n    require(!paused, 'Minting is paused');\r\n    require(walletMints[msg.sender] < maxMintAmount + 1, 'Exceed max wallet'); //@dev Whitelist can mint again after Free mint and before public\r\n    }\r\n    require(_mintAmount > 0, 'Amount has to be > 0');\r\n    require(totalSupply() + _mintAmount <= maxSupply, 'SOLD OUT');\r\n\r\n    if(LuckyGnomes(proof, leaf) != true) {\r\n        if(msg.sender != owner()){\r\n          require(publicMint, '!Public');\r\n          require(_mintAmount <= maxMintAmount, 'Amount is > max');\r\n          require(msg.value >= (cost + publicPrice), 'Not enough ETH');\r\n          walletMints[msg.sender]=2;\r\n          }\r\n          for (uint256 i=0; i<(_mintAmount); i++){\r\n        requestToSender[totalSupply() + 1] = msg.sender;\r\n        _safeMint(msg.sender, totalSupply() + 1);\r\n      }\r\n    }\r\n    \r\n    if (LuckyGnomes(proof, leaf) == true) {\r\n      require(_mintAmount <= (maxMintAmount + 1 - walletMints[msg.sender]), 'Amount is > max');\r\n      if (_mintAmount == 2 || walletMints[msg.sender] == 1) {\r\n        if (publicMint){\r\n        require(msg.value >= cost + publicPrice, 'Not enough ETH');}\r\n        else {\r\n          require(msg.value >= cost, 'Not enough ETH');\r\n        }\r\n      }\r\n      for (uint256 i=0; i<(_mintAmount); i++){\r\n        requestToSender[totalSupply() + 1] = msg.sender;\r\n        _safeMint(msg.sender, totalSupply() + 1);\r\n        walletMints[msg.sender]++;\r\n      }\r\n      }\r\n  }\r\n  \r\n  function walletOfOwner(address _owner)\r\n    public\r\n    view\r\n    returns (uint256[] memory)\r\n  {\r\n    uint256 ownerTokenCount = balanceOf(_owner);\r\n    uint256[] memory tokenIds = new uint256[](ownerTokenCount);\r\n    for (uint256 i; i < ownerTokenCount; i++) {\r\n      tokenIds[i] = tokenOfOwnerByIndex(_owner, i);\r\n    }\r\n    return tokenIds;\r\n  }\r\n  \r\n  function tokenURI(uint256 tokenId)\r\n    public\r\n    view\r\n    virtual\r\n    override(ERC721)\r\n    returns (string memory)\r\n  {\r\n    require(\r\n      _exists(tokenId),\r\n      \"ERC721Metadata: URI query for nonexistent token\"\r\n    );\r\n    \r\n    if(revealed == false) {\r\n        return notRevealedUri;\r\n    }\r\n\r\n    return tokenURI(tokenId);\r\n  }\r\n\r\n  function _setroot(bytes32 _root)public onlyOwner {\r\n    root = _root;\r\n  }\r\n\r\n  function reveal() public onlyOwner {\r\n      revealed = true;\r\n  }\r\n  \r\n  function setCost(uint256 _newCost) public onlyOwner {\r\n    cost = _newCost;\r\n  }\r\n\r\n  function setTokenURI(uint256 tokenId, string memory _tokenURI) public {\r\n         require(_exists(tokenId), \"URI set of nonexistent token\");\r\n        _tokenURIs[tokenId] = _tokenURI;\r\n  }\r\n  function getRoot() public view onlyOwner returns(bytes32){\r\n    return root;\r\n  }\r\n  function setmaxMintAmount(uint256 _newmaxMintAmount) public onlyOwner {\r\n    maxMintAmount = _newmaxMintAmount;\r\n  }\r\n  \r\n  function setNotRevealedURI(string memory _notRevealedURI) public onlyOwner {\r\n    notRevealedUri = _notRevealedURI;\r\n  }\r\n\r\n  function pause(bool _state) public onlyOwner {\r\n    paused = _state;\r\n  }\r\n  \r\n  function _publicMint(bool _state) public onlyOwner {\r\n    publicMint = _state;\r\n  }\r\n\r\n  function withdraw() public payable onlyOwner {\r\n    (bool os, ) = payable(owner()).call{value: address(this).balance}(\"\");\r\n    require(os,'not os');\r\n  }\r\n\r\n  function setWalletMints (address _user, uint256 _state) public onlyOwner {\r\n    walletMints[_user] = _state;\r\n  }\r\n\r\n  function getWalletMints(address _user) view public returns (uint256 WalletMints) {\r\n    return walletMints[_user];\r\n  }\r\n\r\n    function transferFrom(\r\n        address from,\r\n        address to,\r\n        uint256 tokenId\r\n    ) public override(ERC721, IERC721) onlyAllowedOperator(from) {\r\n        super.transferFrom(from, to, tokenId);\r\n    }\r\n\r\n    function safeTransferFrom(\r\n        address from,\r\n        address to,\r\n        uint256 tokenId\r\n    ) public override(ERC721, IERC721) onlyAllowedOperator(from) {\r\n        super.safeTransferFrom(from, to, tokenId);\r\n    }\r\n\r\nfunction safeTransferFrom(\r\n    address from,\r\n    address to,\r\n    uint256 tokenId,\r\n    bytes memory data\r\n) public override(ERC721, IERC721) onlyAllowedOperator(from) {\r\n    super.safeTransferFrom(from, to, tokenId, data);\r\n}\r\n\r\n function LuckyGnomes(bytes32[] memory proof, bytes32 leaf) public view returns(bool) {  \r\n return MerkleProof.verify(proof, root, leaf);\r\n}\r\n}\r\n//\r\n//\r\n//\r\n//\r\n//\r\n",
  "sourcePath": "C:\\GnomesCollective\\contracts\\GnomesCollective.sol",
  "compiler": {
    "name": "solc",
    "version": "0.8.17+commit.8df45f5f.Emscripten.clang"
  },
  "schemaVersion": "3.4.11",
  "updatedAt": "2023-01-28T06:21:30.593Z",
  "networkType": "ethereum",
  "devdoc": {
    "kind": "dev",
    "methods": {
      "approve(address,uint256)": {
        "details": "See {IERC721-approve}."
      },
      "balanceOf(address)": {
        "details": "See {IERC721-balanceOf}."
      },
      "getApproved(uint256)": {
        "details": "See {IERC721-getApproved}."
      },
      "isApprovedForAll(address,address)": {
        "details": "See {IERC721-isApprovedForAll}."
      },
      "name()": {
        "details": "See {IERC721Metadata-name}."
      },
      "owner()": {
        "details": "Returns the address of the current owner."
      },
      "ownerOf(uint256)": {
        "details": "See {IERC721-ownerOf}."
      },
      "renounceOwnership()": {
        "details": "Leaves the contract without owner. It will not be possible to call `onlyOwner` functions anymore. Can only be called by the current owner. NOTE: Renouncing ownership will leave the contract without an owner, thereby removing any functionality that is only available to the owner."
      },
      "setApprovalForAll(address,bool)": {
        "details": "See {IERC721-setApprovalForAll}."
      },
      "supportsInterface(bytes4)": {
        "details": "See {IERC165-supportsInterface}."
      },
      "symbol()": {
        "details": "See {IERC721Metadata-symbol}."
      },
      "tokenByIndex(uint256)": {
        "details": "See {IERC721Enumerable-tokenByIndex}."
      },
      "tokenOfOwnerByIndex(address,uint256)": {
        "details": "See {IERC721Enumerable-tokenOfOwnerByIndex}."
      },
      "tokenURI(uint256)": {
        "details": "See {IERC721Metadata-tokenURI}."
      },
      "totalSupply()": {
        "details": "See {IERC721Enumerable-totalSupply}."
      },
      "transferOwnership(address)": {
        "details": "Transfers ownership of the contract to a new account (`newOwner`). Can only be called by the current owner."
      }
    },
    "version": 1
  },
  "userdoc": {
    "kind": "user",
    "methods": {},
    "version": 1
  }
}