{
    "contractName": "GnomesCollective",
    "abi": [
        {
            "inputs": [
                {
                    "internalType": "bytes32",
                    "name": "_root",
                    "type": "bytes32"
                },
                {
                    "internalType": "string",
                    "name": "_notRevealedUri",
                    "type": "string"
                },
                {
                    "internalType": "string",
                    "name": "_name",
                    "type": "string"
                },
                {
                    "internalType": "string",
                    "name": "_symbol",
                    "type": "string"
                }
            ],
            "stateMutability": "nonpayable",
            "type": "constructor"
        },
        {
            "inputs": [
                {
                    "internalType": "address",
                    "name": "operator",
                    "type": "address"
                }
            ],
            "name": "OperatorNotAllowed",
            "type": "error"
        },
        {
            "anonymous": false,
            "inputs": [
                {
                    "indexed": true,
                    "internalType": "address",
                    "name": "owner",
                    "type": "address"
                },
                {
                    "indexed": true,
                    "internalType": "address",
                    "name": "approved",
                    "type": "address"
                },
                {
                    "indexed": true,
                    "internalType": "uint256",
                    "name": "tokenId",
                    "type": "uint256"
                }
            ],
            "name": "Approval",
            "type": "event"
        },
        {
            "anonymous": false,
            "inputs": [
                {
                    "indexed": true,
                    "internalType": "address",
                    "name": "owner",
                    "type": "address"
                },
                {
                    "indexed": true,
                    "internalType": "address",
                    "name": "operator",
                    "type": "address"
                },
                {
                    "indexed": false,
                    "internalType": "bool",
                    "name": "approved",
                    "type": "bool"
                }
            ],
            "name": "ApprovalForAll",
            "type": "event"
        },
        {
            "anonymous": false,
            "inputs": [
                {
                    "indexed": true,
                    "internalType": "address",
                    "name": "previousOwner",
                    "type": "address"
                },
                {
                    "indexed": true,
                    "internalType": "address",
                    "name": "newOwner",
                    "type": "address"
                }
            ],
            "name": "OwnershipTransferred",
            "type": "event"
        },
        {
            "anonymous": false,
            "inputs": [
                {
                    "indexed": true,
                    "internalType": "address",
                    "name": "from",
                    "type": "address"
                },
                {
                    "indexed": true,
                    "internalType": "address",
                    "name": "to",
                    "type": "address"
                },
                {
                    "indexed": true,
                    "internalType": "uint256",
                    "name": "tokenId",
                    "type": "uint256"
                }
            ],
            "name": "Transfer",
            "type": "event"
        },
        {
            "inputs": [],
            "name": "OPERATOR_FILTER_REGISTRY",
            "outputs": [
                {
                    "internalType": "contract IOperatorFilterRegistry",
                    "name": "",
                    "type": "address"
                }
            ],
            "stateMutability": "view",
            "type": "function",
            "constant": true
        },
        {
            "inputs": [
                {
                    "internalType": "address",
                    "name": "to",
                    "type": "address"
                },
                {
                    "internalType": "uint256",
                    "name": "tokenId",
                    "type": "uint256"
                }
            ],
            "name": "approve",
            "outputs": [],
            "stateMutability": "nonpayable",
            "type": "function"
        },
        {
            "inputs": [
                {
                    "internalType": "address",
                    "name": "owner",
                    "type": "address"
                }
            ],
            "name": "balanceOf",
            "outputs": [
                {
                    "internalType": "uint256",
                    "name": "",
                    "type": "uint256"
                }
            ],
            "stateMutability": "view",
            "type": "function",
            "constant": true
        },
        {
            "inputs": [],
            "name": "cost",
            "outputs": [
                {
                    "internalType": "uint256",
                    "name": "",
                    "type": "uint256"
                }
            ],
            "stateMutability": "view",
            "type": "function",
            "constant": true
        },
        {
            "inputs": [
                {
                    "internalType": "uint256",
                    "name": "tokenId",
                    "type": "uint256"
                }
            ],
            "name": "getApproved",
            "outputs": [
                {
                    "internalType": "address",
                    "name": "",
                    "type": "address"
                }
            ],
            "stateMutability": "view",
            "type": "function",
            "constant": true
        },
        {
            "inputs": [
                {
                    "internalType": "address",
                    "name": "owner",
                    "type": "address"
                },
                {
                    "internalType": "address",
                    "name": "operator",
                    "type": "address"
                }
            ],
            "name": "isApprovedForAll",
            "outputs": [
                {
                    "internalType": "bool",
                    "name": "",
                    "type": "bool"
                }
            ],
            "stateMutability": "view",
            "type": "function",
            "constant": true
        },
        {
            "inputs": [],
            "name": "maxMintAmount",
            "outputs": [
                {
                    "internalType": "uint256",
                    "name": "",
                    "type": "uint256"
                }
            ],
            "stateMutability": "view",
            "type": "function",
            "constant": true
        },
        {
            "inputs": [],
            "name": "maxSupply",
            "outputs": [
                {
                    "internalType": "uint256",
                    "name": "",
                    "type": "uint256"
                }
            ],
            "stateMutability": "view",
            "type": "function",
            "constant": true
        },
        {
            "inputs": [],
            "name": "name",
            "outputs": [
                {
                    "internalType": "string",
                    "name": "",
                    "type": "string"
                }
            ],
            "stateMutability": "view",
            "type": "function",
            "constant": true
        },
        {
            "inputs": [],
            "name": "notRevealedUri",
            "outputs": [
                {
                    "internalType": "string",
                    "name": "",
                    "type": "string"
                }
            ],
            "stateMutability": "view",
            "type": "function",
            "constant": true
        },
        {
            "inputs": [],
            "name": "owner",
            "outputs": [
                {
                    "internalType": "address",
                    "name": "",
                    "type": "address"
                }
            ],
            "stateMutability": "view",
            "type": "function",
            "constant": true
        },
        {
            "inputs": [
                {
                    "internalType": "uint256",
                    "name": "tokenId",
                    "type": "uint256"
                }
            ],
            "name": "ownerOf",
            "outputs": [
                {
                    "internalType": "address",
                    "name": "",
                    "type": "address"
                }
            ],
            "stateMutability": "view",
            "type": "function",
            "constant": true
        },
        {
            "inputs": [],
            "name": "paused",
            "outputs": [
                {
                    "internalType": "bool",
                    "name": "",
                    "type": "bool"
                }
            ],
            "stateMutability": "view",
            "type": "function",
            "constant": true
        },
        {
            "inputs": [],
            "name": "publicMint",
            "outputs": [
                {
                    "internalType": "bool",
                    "name": "",
                    "type": "bool"
                }
            ],
            "stateMutability": "view",
            "type": "function",
            "constant": true
        },
        {
            "inputs": [],
            "name": "publicPrice",
            "outputs": [
                {
                    "internalType": "uint256",
                    "name": "",
                    "type": "uint256"
                }
            ],
            "stateMutability": "view",
            "type": "function",
            "constant": true
        },
        {
            "inputs": [],
            "name": "renounceOwnership",
            "outputs": [],
            "stateMutability": "nonpayable",
            "type": "function"
        },
        {
            "inputs": [],
            "name": "revealed",
            "outputs": [
                {
                    "internalType": "bool",
                    "name": "",
                    "type": "bool"
                }
            ],
            "stateMutability": "view",
            "type": "function",
            "constant": true
        },
        {
            "inputs": [
                {
                    "internalType": "address",
                    "name": "operator",
                    "type": "address"
                },
                {
                    "internalType": "bool",
                    "name": "approved",
                    "type": "bool"
                }
            ],
            "name": "setApprovalForAll",
            "outputs": [],
            "stateMutability": "nonpayable",
            "type": "function"
        },
        {
            "inputs": [
                {
                    "internalType": "bytes4",
                    "name": "interfaceId",
                    "type": "bytes4"
                }
            ],
            "name": "supportsInterface",
            "outputs": [
                {
                    "internalType": "bool",
                    "name": "",
                    "type": "bool"
                }
            ],
            "stateMutability": "view",
            "type": "function",
            "constant": true
        },
        {
            "inputs": [],
            "name": "symbol",
            "outputs": [
                {
                    "internalType": "string",
                    "name": "",
                    "type": "string"
                }
            ],
            "stateMutability": "view",
            "type": "function",
            "constant": true
        },
        {
            "inputs": [
                {
                    "internalType": "uint256",
                    "name": "index",
                    "type": "uint256"
                }
            ],
            "name": "tokenByIndex",
            "outputs": [
                {
                    "internalType": "uint256",
                    "name": "",
                    "type": "uint256"
                }
            ],
            "stateMutability": "view",
            "type": "function",
            "constant": true
        },
        {
            "inputs": [
                {
                    "internalType": "address",
                    "name": "owner",
                    "type": "address"
                },
                {
                    "internalType": "uint256",
                    "name": "index",
                    "type": "uint256"
                }
            ],
            "name": "tokenOfOwnerByIndex",
            "outputs": [
                {
                    "internalType": "uint256",
                    "name": "",
                    "type": "uint256"
                }
            ],
            "stateMutability": "view",
            "type": "function",
            "constant": true
        },
        {
            "inputs": [],
            "name": "totalSupply",
            "outputs": [
                {
                    "internalType": "uint256",
                    "name": "",
                    "type": "uint256"
                }
            ],
            "stateMutability": "view",
            "type": "function",
            "constant": true
        },
        {
            "inputs": [
                {
                    "internalType": "address",
                    "name": "newOwner",
                    "type": "address"
                }
            ],
            "name": "transferOwnership",
            "outputs": [],
            "stateMutability": "nonpayable",
            "type": "function"
        },
        {
            "inputs": [
                {
                    "internalType": "address",
                    "name": "",
                    "type": "address"
                }
            ],
            "name": "whitelisted",
            "outputs": [
                {
                    "internalType": "bool",
                    "name": "",
                    "type": "bool"
                }
            ],
            "stateMutability": "view",
            "type": "function",
            "constant": true
        },
        {
            "inputs": [
                {
                    "internalType": "uint256",
                    "name": "_mintAmount",
                    "type": "uint256"
                }
            ],
            "name": "mint",
            "outputs": [],
            "stateMutability": "payable",
            "type": "function",
            "payable": true
        },
        {
            "inputs": [
                {
                    "internalType": "address",
                    "name": "_owner",
                    "type": "address"
                }
            ],
            "name": "walletOfOwner",
            "outputs": [
                {
                    "internalType": "uint256[]",
                    "name": "",
                    "type": "uint256[]"
                }
            ],
            "stateMutability": "view",
            "type": "function",
            "constant": true
        },
        {
            "inputs": [
                {
                    "internalType": "uint256",
                    "name": "tokenId",
                    "type": "uint256"
                }
            ],
            "name": "tokenURI",
            "outputs": [
                {
                    "internalType": "string",
                    "name": "",
                    "type": "string"
                }
            ],
            "stateMutability": "view",
            "type": "function",
            "constant": true
        },
        {
            "inputs": [
                {
                    "internalType": "bytes32",
                    "name": "_root",
                    "type": "bytes32"
                }
            ],
            "name": "_setroot",
            "outputs": [],
            "stateMutability": "nonpayable",
            "type": "function"
        },
        {
            "inputs": [],
            "name": "reveal",
            "outputs": [],
            "stateMutability": "nonpayable",
            "type": "function"
        },
        {
            "inputs": [
                {
                    "internalType": "uint256",
                    "name": "_newCost",
                    "type": "uint256"
                }
            ],
            "name": "setCost",
            "outputs": [],
            "stateMutability": "nonpayable",
            "type": "function"
        },
        {
            "inputs": [
                {
                    "internalType": "uint256",
                    "name": "tokenId",
                    "type": "uint256"
                },
                {
                    "internalType": "string",
                    "name": "_tokenURI",
                    "type": "string"
                }
            ],
            "name": "setTokenURI",
            "outputs": [],
            "stateMutability": "nonpayable",
            "type": "function"
        },
        {
            "inputs": [],
            "name": "getRoot",
            "outputs": [
                {
                    "internalType": "bytes32",
                    "name": "",
                    "type": "bytes32"
                }
            ],
            "stateMutability": "view",
            "type": "function",
            "constant": true
        },
        {
            "inputs": [
                {
                    "internalType": "uint256",
                    "name": "_newmaxMintAmount",
                    "type": "uint256"
                }
            ],
            "name": "setmaxMintAmount",
            "outputs": [],
            "stateMutability": "nonpayable",
            "type": "function"
        },
        {
            "inputs": [
                {
                    "internalType": "string",
                    "name": "_notRevealedURI",
                    "type": "string"
                }
            ],
            "name": "setNotRevealedURI",
            "outputs": [],
            "stateMutability": "nonpayable",
            "type": "function"
        },
        {
            "inputs": [
                {
                    "internalType": "bool",
                    "name": "_state",
                    "type": "bool"
                }
            ],
            "name": "pause",
            "outputs": [],
            "stateMutability": "nonpayable",
            "type": "function"
        },
        {
            "inputs": [
                {
                    "internalType": "bool",
                    "name": "_state",
                    "type": "bool"
                }
            ],
            "name": "_publicMint",
            "outputs": [],
            "stateMutability": "nonpayable",
            "type": "function"
        },
        {
            "inputs": [
                {
                    "internalType": "address",
                    "name": "_user",
                    "type": "address"
                }
            ],
            "name": "whitelistUser",
            "outputs": [],
            "stateMutability": "nonpayable",
            "type": "function"
        },
        {
            "inputs": [
                {
                    "internalType": "address",
                    "name": "_user",
                    "type": "address"
                }
            ],
            "name": "removeWhitelistUser",
            "outputs": [],
            "stateMutability": "nonpayable",
            "type": "function"
        },
        {
            "inputs": [],
            "name": "withdraw",
            "outputs": [],
            "stateMutability": "payable",
            "type": "function",
            "payable": true
        },
        {
            "inputs": [
                {
                    "internalType": "address",
                    "name": "_user",
                    "type": "address"
                },
                {
                    "internalType": "uint256",
                    "name": "_state",
                    "type": "uint256"
                }
            ],
            "name": "setWalletMints",
            "outputs": [],
            "stateMutability": "nonpayable",
            "type": "function"
        },
        {
            "inputs": [
                {
                    "internalType": "address",
                    "name": "_user",
                    "type": "address"
                }
            ],
            "name": "getWalletMints",
            "outputs": [
                {
                    "internalType": "uint256",
                    "name": "WalletMints",
                    "type": "uint256"
                }
            ],
            "stateMutability": "view",
            "type": "function",
            "constant": true
        },
        {
            "inputs": [
                {
                    "internalType": "address",
                    "name": "from",
                    "type": "address"
                },
                {
                    "internalType": "address",
                    "name": "to",
                    "type": "address"
                },
                {
                    "internalType": "uint256",
                    "name": "tokenId",
                    "type": "uint256"
                }
            ],
            "name": "transferFrom",
            "outputs": [],
            "stateMutability": "nonpayable",
            "type": "function"
        },
        {
            "inputs": [
                {
                    "internalType": "address",
                    "name": "from",
                    "type": "address"
                },
                {
                    "internalType": "address",
                    "name": "to",
                    "type": "address"
                },
                {
                    "internalType": "uint256",
                    "name": "tokenId",
                    "type": "uint256"
                }
            ],
            "name": "safeTransferFrom",
            "outputs": [],
            "stateMutability": "nonpayable",
            "type": "function"
        },
        {
            "inputs": [
                {
                    "internalType": "address",
                    "name": "from",
                    "type": "address"
                },
                {
                    "internalType": "address",
                    "name": "to",
                    "type": "address"
                },
                {
                    "internalType": "uint256",
                    "name": "tokenId",
                    "type": "uint256"
                },
                {
                    "internalType": "bytes",
                    "name": "data",
                    "type": "bytes"
                }
            ],
            "name": "safeTransferFrom",
            "outputs": [],
            "stateMutability": "nonpayable",
            "type": "function"
        },
        {
            "inputs": [
                {
                    "internalType": "bytes32[]",
                    "name": "proof",
                    "type": "bytes32[]"
                },
                {
                    "internalType": "bytes32",
                    "name": "leaf",
                    "type": "bytes32"
                }
            ],
            "name": "LuckyGnomes",
            "outputs": [
                {
                    "internalType": "bool",
                    "name": "",
                    "type": "bool"
                }
            ],
            "stateMutability": "view",
            "type": "function",
            "constant": true
        }
    ],
    "bytecode": "0x6080604052661f8c501d9b0000600c556607e3140766c000600d55610b48600e556001600f556010805462ffffff191690553480156200003e57600080fd5b5060405162003ebb38038062003ebb833981016040819052620000619162001033565b8181733cc6cdda760b79bafa08df41ecfa224f810dceb6600162000085336200021d565b6daaeb6d7670e522a718067333cd4e3b15620001ca5780156200011857604051633e9f1edf60e11b81523060048201526001600160a01b03831660248201526daaeb6d7670e522a718067333cd4e90637d3e3dbe906044015b600060405180830381600087803b158015620000f957600080fd5b505af11580156200010e573d6000803e3d6000fd5b50505050620001ca565b6001600160a01b03821615620001695760405163a0af290360e01b81523060048201526001600160a01b03831660248201526daaeb6d7670e522a718067333cd4e9063a0af290390604401620000de565b604051632210724360e11b81523060048201526daaeb6d7670e522a718067333cd4e90634420e48690602401600060405180830381600087803b158015620001b057600080fd5b505af1158015620001c5573d6000803e3d6000fd5b505050505b5060019050620001db83826200115d565b506002620001ea82826200115d565b505050620001ff600a6200026d60201b60201c565b600b84905560116200021284826200115d565b505050505062001342565b600080546001600160a01b038381166001600160a01b0319831681178455604051919092169283917f8be0079c531659141344cd1fd0a4f28419497f9722a3daafe3b4186f6b6457e09190a35050565b6000546001600160a01b031633146200033557601054610100900460ff1615620002d25760405162461bcd60e51b8152602060048201526011602482015270135a5b9d1a5b99c81a5cc81c185d5cd959607a1b60448201526064015b60405180910390fd5b600f54620002e29060016200123f565b3360009081526015602052604090205410620003355760405162461bcd60e51b8152602060048201526011602482015270115e18d95959081b585e081dd85b1b195d607a1b6044820152606401620002c9565b60008111620003875760405162461bcd60e51b815260206004820152601460248201527f416d6f756e742068617320746f206265203e20300000000000000000000000006044820152606401620002c9565b600e54816200039560095490565b620003a191906200123f565b1115620003dc5760405162461bcd60e51b815260206004820152600860248201526714d3d3110813d55560c21b6044820152606401620002c9565b3360009081526012602052604090205460ff16151560011462000587576000546001600160a01b03163314620004f85760105460ff166200044a5760405162461bcd60e51b8152602060048201526007602482015266215075626c696360c81b6044820152606401620002c9565b600f54811115620004905760405162461bcd60e51b815260206004820152600f60248201526e082dadeeadce840d2e6407c40dac2f608b1b6044820152606401620002c9565b600d54600c54620004a291906200123f565b341015620004e45760405162461bcd60e51b815260206004820152600e60248201526d09cdee840cadcdeeaced0408aa8960931b6044820152606401620002c9565b336000908152601560205260409020600290555b60005b81811015620005855733601360006200051360095490565b620005209060016200123f565b8152602081019190915260400160002080546001600160a01b0319166001600160a01b039290921691909117905562000570336200055d60095490565b6200056a9060016200123f565b62000785565b806200057c816200125b565b915050620004fb565b505b3360009081526012602052604090205460ff161515600103620007825733600090815260156020526040902054600f54620005c49060016200123f565b620005d0919062001277565b811115620006135760405162461bcd60e51b815260206004820152600f60248201526e082dadeeadce840d2e6407c40dac2f608b1b6044820152606401620002c9565b8060021480620006325750336000908152601560205260409020546001145b15620006e35760105460ff16156200069e57600d54600c546200065691906200123f565b341015620006985760405162461bcd60e51b815260206004820152600e60248201526d09cdee840cadcdeeaced0408aa8960931b6044820152606401620002c9565b620006e3565b600c54341015620006e35760405162461bcd60e51b815260206004820152600e60248201526d09cdee840cadcdeeaced0408aa8960931b6044820152606401620002c9565b60005b8181101562000780573360136000620006fe60095490565b6200070b9060016200123f565b8152602081019190915260400160002080546001600160a01b0319166001600160a01b039290921691909117905562000748336200055d60095490565b33600090815260156020526040812080549162000765836200125b565b9190505550808062000777906200125b565b915050620006e6565b505b50565b62000780828260405180602001604052806000815250620007a760201b60201c565b620007b383836200081f565b620007c26000848484620009c2565b6200081a5760405162461bcd60e51b8152602060048201526032602482015260008051602062003e9b83398151915260448201527131b2b4bb32b91034b6b83632b6b2b73a32b960711b6064820152608401620002c9565b505050565b6001600160a01b038216620008775760405162461bcd60e51b815260206004820181905260248201527f4552433732313a206d696e7420746f20746865207a65726f20616464726573736044820152606401620002c9565b6000818152600360205260409020546001600160a01b031615620008de5760405162461bcd60e51b815260206004820152601c60248201527f4552433732313a20746f6b656e20616c7265616479206d696e746564000000006044820152606401620002c9565b620008ee60008383600162000b1e565b6000818152600360205260409020546001600160a01b031615620009555760405162461bcd60e51b815260206004820152601c60248201527f4552433732313a20746f6b656e20616c7265616479206d696e746564000000006044820152606401620002c9565b6001600160a01b038216600081815260046020908152604080832080546001019055848352600390915280822080546001600160a01b0319168417905551839291907fddf252ad1be2c89b69c2b068fc378daa952ba7f163c4a11628f55a4df523b3ef908290a462000780565b6000620009e3846001600160a01b031662000c8860201b620016891760201c565b1562000b1257604051630a85bd0160e11b81526001600160a01b0385169063150b7a029062000a1d9033908990889088906004016200128d565b6020604051808303816000875af192505050801562000a5b575060408051601f3d908101601f1916820190925262000a5891810190620012e3565b60015b62000af7573d80801562000a8c576040519150601f19603f3d011682016040523d82523d6000602084013e62000a91565b606091505b50805160000362000aef5760405162461bcd60e51b8152602060048201526032602482015260008051602062003e9b83398151915260448201527131b2b4bb32b91034b6b83632b6b2b73a32b960711b6064820152608401620002c9565b805181602001fd5b6001600160e01b031916630a85bd0160e11b14905062000b16565b5060015b949350505050565b62000b378484848462000c9760201b620016981760201c565b600181111562000bb05760405162461bcd60e51b815260206004820152603560248201527f455243373231456e756d657261626c653a20636f6e736563757469766520747260448201527f616e7366657273206e6f7420737570706f7274656400000000000000000000006064820152608401620002c9565b816001600160a01b03851662000c0f5762000c0981600980546000838152600a60205260408120829055600182018355919091527f6e1540171b6c0c960b71a7020d9f60077f6af931a8bbf590da0223dacf75c7af0155565b62000c35565b836001600160a01b0316856001600160a01b03161462000c355762000c35858262000d26565b6001600160a01b03841662000c555762000c4f8162000dd3565b62000c7b565b846001600160a01b0316846001600160a01b03161462000c7b5762000c7b848262000e8d565b5050505050565b50505050565b6001600160a01b03163b151590565b600181111562000c82576001600160a01b0384161562000ce1576001600160a01b0384166000908152600460205260408120805483929062000cdb90849062001277565b90915550505b6001600160a01b0383161562000c82576001600160a01b0383166000908152600460205260408120805483929062000d1b9084906200123f565b909155505050505050565b6000600162000d408462000ede60201b62000f1a1760201c565b62000d4c919062001277565b60008381526008602052604090205490915080821462000da0576001600160a01b03841660009081526007602090815260408083208584528252808320548484528184208190558352600890915290208190555b5060009182526008602090815260408084208490556001600160a01b039094168352600781528383209183525290812055565b60095460009062000de79060019062001277565b6000838152600a60205260408120546009805493945090928490811062000e125762000e1262001316565b90600052602060002001549050806009838154811062000e365762000e3662001316565b6000918252602080832090910192909255828152600a9091526040808220849055858252812055600980548062000e715762000e716200132c565b6001900381819060005260206000200160009055905550505050565b600062000ea58362000ede60201b62000f1a1760201c565b6001600160a01b039093166000908152600760209081526040808320868452825280832085905593825260089052919091209190915550565b60006001600160a01b03821662000f4a5760405162461bcd60e51b815260206004820152602960248201527f4552433732313a2061646472657373207a65726f206973206e6f7420612076616044820152683634b21037bbb732b960b91b6064820152608401620002c9565b506001600160a01b031660009081526004602052604090205490565b634e487b7160e01b600052604160045260246000fd5b60005b8381101562000f9957818101518382015260200162000f7f565b50506000910152565b600082601f83011262000fb457600080fd5b81516001600160401b038082111562000fd15762000fd162000f66565b604051601f8301601f19908116603f0116810190828211818310171562000ffc5762000ffc62000f66565b816040528381528660208588010111156200101657600080fd5b6200102984602083016020890162000f7c565b9695505050505050565b600080600080608085870312156200104a57600080fd5b845160208601519094506001600160401b03808211156200106a57600080fd5b620010788883890162000fa2565b945060408701519150808211156200108f57600080fd5b6200109d8883890162000fa2565b93506060870151915080821115620010b457600080fd5b50620010c38782880162000fa2565b91505092959194509250565b600181811c90821680620010e457607f821691505b6020821081036200110557634e487b7160e01b600052602260045260246000fd5b50919050565b601f8211156200081a57600081815260208120601f850160051c81016020861015620011345750805b601f850160051c820191505b81811015620011555782815560010162001140565b505050505050565b81516001600160401b0381111562001179576200117962000f66565b62001191816200118a8454620010cf565b846200110b565b602080601f831160018114620011c95760008415620011b05750858301515b600019600386901b1c1916600185901b17855562001155565b600085815260208120601f198616915b82811015620011fa57888601518255948401946001909101908401620011d9565b5085821015620012195787850151600019600388901b60f8161c191681555b5050505050600190811b01905550565b634e487b7160e01b600052601160045260246000fd5b8082018082111562001255576200125562001229565b92915050565b60006001820162001270576200127062001229565b5060010190565b8181038181111562001255576200125562001229565b600060018060a01b038087168352808616602084015250836040830152608060608301528251806080840152620012cc8160a085016020870162000f7c565b601f01601f19169190910160a00195945050505050565b600060208284031215620012f657600080fd5b81516001600160e01b0319811681146200130f57600080fd5b9392505050565b634e487b7160e01b600052603260045260246000fd5b634e487b7160e01b600052603160045260246000fd5b612b4980620013526000396000f3fe60806040526004361061027d5760003560e01c80635ca1e1651161014f578063a3227ce2116100c1578063d5abeb011161007a578063d5abeb0114610742578063d936547e14610758578063e985e9c514610788578063e9e3a53e146107d1578063f2c4ce1e14610807578063f2fde38b1461082757600080fd5b8063a3227ce214610697578063a475b5dd146106b7578063a945bf80146106cc578063b88d4fde146106e2578063c4e8dde114610702578063c87b56dd1461072257600080fd5b80637f00c7a6116101135780637f00c7a6146105f15780638da5cb5b14610611578063936b61641461062f57806395d89b411461064f578063a0712d6814610664578063a22cb4651461067757600080fd5b80635ca1e165146105675780636352211e1461057c5780636ce4f7601461059c57806370a08231146105bc578063715018a6146105dc57600080fd5b806326092b83116101f3578063438b6300116101ac578063438b63001461049b57806344a0d68a146104c85780634a4c560d146104e85780634f6ccce71461050857806351830227146105285780635c975abb1461054857600080fd5b806326092b83146103f75780632f745c591461041157806330cc7ae0146104315780633ccfd60b1461045157806341f434341461045957806342842e0e1461047b57600080fd5b8063095ea7b311610245578063095ea7b31461034857806313faede614610368578063162094c41461038c57806318160ddd146103ac578063239c70ae146103c157806323b872dd146103d757600080fd5b806301ffc9a71461028257806302329a29146102b757806306fdde03146102d9578063081812fc146102fb578063081c8c4414610333575b600080fd5b34801561028e57600080fd5b506102a261029d36600461235f565b610847565b60405190151581526020015b60405180910390f35b3480156102c357600080fd5b506102d76102d236600461238a565b610872565b005b3480156102e557600080fd5b506102ee610894565b6040516102ae91906123ed565b34801561030757600080fd5b5061031b610316366004612400565b610926565b6040516001600160a01b0390911681526020016102ae565b34801561033f57600080fd5b506102ee61094d565b34801561035457600080fd5b506102d7610363366004612435565b6109db565b34801561037457600080fd5b5061037e600c5481565b6040519081526020016102ae565b34801561039857600080fd5b506102d76103a736600461251e565b610af5565b3480156103b857600080fd5b5060095461037e565b3480156103cd57600080fd5b5061037e600f5481565b3480156103e357600080fd5b506102d76103f2366004612565565b610b71565b34801561040357600080fd5b506010546102a29060ff1681565b34801561041d57600080fd5b5061037e61042c366004612435565b610b9c565b34801561043d57600080fd5b506102d761044c3660046125a1565b610c32565b6102d7610c5b565b34801561046557600080fd5b5061031b6daaeb6d7670e522a718067333cd4e81565b34801561048757600080fd5b506102d7610496366004612565565b610cf2565b3480156104a757600080fd5b506104bb6104b63660046125a1565b610d17565b6040516102ae91906125bc565b3480156104d457600080fd5b506102d76104e3366004612400565b610db9565b3480156104f457600080fd5b506102d76105033660046125a1565b610dc6565b34801561051457600080fd5b5061037e610523366004612400565b610df2565b34801561053457600080fd5b506010546102a29062010000900460ff1681565b34801561055457600080fd5b506010546102a290610100900460ff1681565b34801561057357600080fd5b5061037e610e85565b34801561058857600080fd5b5061031b610597366004612400565b610e96565b3480156105a857600080fd5b506102d76105b7366004612435565b610ef6565b3480156105c857600080fd5b5061037e6105d73660046125a1565b610f1a565b3480156105e857600080fd5b506102d7610fa0565b3480156105fd57600080fd5b506102d761060c366004612400565b610fb4565b34801561061d57600080fd5b506000546001600160a01b031661031b565b34801561063b57600080fd5b506102a261064a366004612600565b610fc1565b34801561065b57600080fd5b506102ee610fd7565b6102d7610672366004612400565b610fe6565b34801561068357600080fd5b506102d76106923660046126ac565b611455565b3480156106a357600080fd5b506102d76106b2366004612400565b611460565b3480156106c357600080fd5b506102d761146d565b3480156106d857600080fd5b5061037e600d5481565b3480156106ee57600080fd5b506102d76106fd3660046126e3565b611488565b34801561070e57600080fd5b506102d761071d36600461238a565b6114b5565b34801561072e57600080fd5b506102ee61073d366004612400565b6114d0565b34801561074e57600080fd5b5061037e600e5481565b34801561076457600080fd5b506102a26107733660046125a1565b60126020526000908152604090205460ff1681565b34801561079457600080fd5b506102a26107a336600461275f565b6001600160a01b03918216600090815260066020908152604080832093909416825291909152205460ff1690565b3480156107dd57600080fd5b5061037e6107ec3660046125a1565b6001600160a01b031660009081526015602052604090205490565b34801561081357600080fd5b506102d7610822366004612792565b6115ff565b34801561083357600080fd5b506102d76108423660046125a1565b611613565b60006001600160e01b0319821663780e9d6360e01b148061086c575061086c82611720565b92915050565b61087a611770565b601080549115156101000261ff0019909216919091179055565b6060600180546108a3906127c7565b80601f01602080910402602001604051908101604052809291908181526020018280546108cf906127c7565b801561091c5780601f106108f15761010080835404028352916020019161091c565b820191906000526020600020905b8154815290600101906020018083116108ff57829003601f168201915b5050505050905090565b6000610931826117ca565b506000908152600560205260409020546001600160a01b031690565b6011805461095a906127c7565b80601f0160208091040260200160405190810160405280929190818152602001828054610986906127c7565b80156109d35780601f106109a8576101008083540402835291602001916109d3565b820191906000526020600020905b8154815290600101906020018083116109b657829003601f168201915b505050505081565b60006109e682610e96565b9050806001600160a01b0316836001600160a01b031603610a585760405162461bcd60e51b815260206004820152602160248201527f4552433732313a20617070726f76616c20746f2063757272656e74206f776e656044820152603960f91b60648201526084015b60405180910390fd5b336001600160a01b0382161480610a745750610a7481336107a3565b610ae65760405162461bcd60e51b815260206004820152603d60248201527f4552433732313a20617070726f76652063616c6c6572206973206e6f7420746f60448201527f6b656e206f776e6572206f7220617070726f76656420666f7220616c6c0000006064820152608401610a4f565b610af08383611829565b505050565b6000828152600360205260409020546001600160a01b0316610b595760405162461bcd60e51b815260206004820152601c60248201527f55524920736574206f66206e6f6e6578697374656e7420746f6b656e000000006044820152606401610a4f565b6000828152601460205260409020610af0828261284f565b826001600160a01b0381163314610b8b57610b8b33611897565b610b96848484611950565b50505050565b6000610ba783610f1a565b8210610c095760405162461bcd60e51b815260206004820152602b60248201527f455243373231456e756d657261626c653a206f776e657220696e646578206f7560448201526a74206f6620626f756e647360a81b6064820152608401610a4f565b506001600160a01b03919091166000908152600760209081526040808320938352929052205490565b610c3a611770565b6001600160a01b03166000908152601260205260409020805460ff19169055565b610c63611770565b600080546040516001600160a01b039091169047908381818185875af1925050503d8060008114610cb0576040519150601f19603f3d011682016040523d82523d6000602084013e610cb5565b606091505b5050905080610cef5760405162461bcd60e51b81526020600482015260066024820152656e6f74206f7360d01b6044820152606401610a4f565b50565b826001600160a01b0381163314610d0c57610d0c33611897565b610b96848484611981565b60606000610d2483610f1a565b905060008167ffffffffffffffff811115610d4157610d4161245f565b604051908082528060200260200182016040528015610d6a578160200160208202803683370190505b50905060005b82811015610db157610d828582610b9c565b828281518110610d9457610d9461290f565b602090810291909101015280610da98161293b565b915050610d70565b509392505050565b610dc1611770565b600c55565b610dce611770565b6001600160a01b03166000908152601260205260409020805460ff19166001179055565b6000610dfd60095490565b8210610e605760405162461bcd60e51b815260206004820152602c60248201527f455243373231456e756d657261626c653a20676c6f62616c20696e646578206f60448201526b7574206f6620626f756e647360a01b6064820152608401610a4f565b60098281548110610e7357610e7361290f565b90600052602060002001549050919050565b6000610e8f611770565b50600b5490565b6000818152600360205260408120546001600160a01b03168061086c5760405162461bcd60e51b8152602060048201526018602482015277115490cdcc8c4e881a5b9d985b1a59081d1bdad95b88125160421b6044820152606401610a4f565b610efe611770565b6001600160a01b03909116600090815260156020526040902055565b60006001600160a01b038216610f845760405162461bcd60e51b815260206004820152602960248201527f4552433732313a2061646472657373207a65726f206973206e6f7420612076616044820152683634b21037bbb732b960b91b6064820152608401610a4f565b506001600160a01b031660009081526004602052604090205490565b610fa8611770565b610fb2600061199c565b565b610fbc611770565b600f55565b6000610fd083600b54846119ec565b9392505050565b6060600280546108a3906127c7565b6000546001600160a01b031633146110a357601054610100900460ff16156110445760405162461bcd60e51b8152602060048201526011602482015270135a5b9d1a5b99c81a5cc81c185d5cd959607a1b6044820152606401610a4f565b600f54611052906001612954565b33600090815260156020526040902054106110a35760405162461bcd60e51b8152602060048201526011602482015270115e18d95959081b585e081dd85b1b195d607a1b6044820152606401610a4f565b600081116110ea5760405162461bcd60e51b81526020600482015260146024820152730416d6f756e742068617320746f206265203e20360641b6044820152606401610a4f565b600e54816110f760095490565b6111019190612954565b111561113a5760405162461bcd60e51b815260206004820152600860248201526714d3d3110813d55560c21b6044820152606401610a4f565b3360009081526012602052604090205460ff1615156001146112b2576000546001600160a01b0316331461122b5760105460ff166111a45760405162461bcd60e51b8152602060048201526007602482015266215075626c696360c81b6044820152606401610a4f565b600f548111156111e85760405162461bcd60e51b815260206004820152600f60248201526e082dadeeadce840d2e6407c40dac2f608b1b6044820152606401610a4f565b600d54600c546111f89190612954565b3410156112175760405162461bcd60e51b8152600401610a4f90612967565b336000908152601560205260409020600290555b60005b818110156112b057336013600061124460095490565b61124f906001612954565b815260200190815260200160002060006101000a8154816001600160a01b0302191690836001600160a01b0316021790555061129e3361128e60095490565b611299906001612954565b611a02565b806112a88161293b565b91505061122e565b505b3360009081526012602052604090205460ff161515600103610cef5733600090815260156020526040902054600f546112ec906001612954565b6112f6919061298f565b8111156113375760405162461bcd60e51b815260206004820152600f60248201526e082dadeeadce840d2e6407c40dac2f608b1b6044820152606401610a4f565b80600214806113555750336000908152601560205260409020546001145b156113bb5760105460ff161561139957600d54600c546113759190612954565b3410156113945760405162461bcd60e51b8152600401610a4f90612967565b6113bb565b600c543410156113bb5760405162461bcd60e51b8152600401610a4f90612967565b60005b818110156114515733601360006113d460095490565b6113df906001612954565b815260200190815260200160002060006101000a8154816001600160a01b0302191690836001600160a01b0316021790555061141e3361128e60095490565b3360009081526015602052604081208054916114398361293b565b919050555080806114499061293b565b9150506113be565b5050565b611451338383611a1c565b611468611770565b600b55565b611475611770565b6010805462ff0000191662010000179055565b836001600160a01b03811633146114a2576114a233611897565b6114ae85858585611aea565b5050505050565b6114bd611770565b6010805460ff1916911515919091179055565b6000818152600360205260409020546060906001600160a01b031661154f5760405162461bcd60e51b815260206004820152602f60248201527f4552433732314d657461646174613a2055524920717565727920666f72206e6f60448201526e3732bc34b9ba32b73a103a37b5b2b760891b6064820152608401610a4f565b60105462010000900460ff1615156000036115f65760118054611571906127c7565b80601f016020809104026020016040519081016040528092919081815260200182805461159d906127c7565b80156115ea5780601f106115bf576101008083540402835291602001916115ea565b820191906000526020600020905b8154815290600101906020018083116115cd57829003601f168201915b50505050509050919050565b61086c826114d0565b611607611770565b6011611451828261284f565b61161b611770565b6001600160a01b0381166116805760405162461bcd60e51b815260206004820152602660248201527f4f776e61626c653a206e6577206f776e657220697320746865207a65726f206160448201526564647265737360d01b6064820152608401610a4f565b610cef8161199c565b6001600160a01b03163b151590565b6001811115610b96576001600160a01b038416156116de576001600160a01b038416600090815260046020526040812080548392906116d890849061298f565b90915550505b6001600160a01b03831615610b96576001600160a01b03831660009081526004602052604081208054839290611715908490612954565b909155505050505050565b60006001600160e01b031982166380ac58cd60e01b148061175157506001600160e01b03198216635b5e139f60e01b145b8061086c57506301ffc9a760e01b6001600160e01b031983161461086c565b6000546001600160a01b03163314610fb25760405162461bcd60e51b815260206004820181905260248201527f4f776e61626c653a2063616c6c6572206973206e6f7420746865206f776e65726044820152606401610a4f565b6000818152600360205260409020546001600160a01b0316610cef5760405162461bcd60e51b8152602060048201526018602482015277115490cdcc8c4e881a5b9d985b1a59081d1bdad95b88125160421b6044820152606401610a4f565b600081815260056020526040902080546001600160a01b0319166001600160a01b038416908117909155819061185e82610e96565b6001600160a01b03167f8c5be1e5ebec7d5bd14f71427d1e84f3dd0314c0f7b2291e5b200ac8c7c3b92560405160405180910390a45050565b6daaeb6d7670e522a718067333cd4e3b15610cef57604051633185c44d60e21b81523060048201526001600160a01b03821660248201526daaeb6d7670e522a718067333cd4e9063c617113490604401602060405180830381865afa158015611904573d6000803e3d6000fd5b505050506040513d601f19601f8201168201806040525081019061192891906129a2565b610cef57604051633b79c77360e21b81526001600160a01b0382166004820152602401610a4f565b61195a3382611b1c565b6119765760405162461bcd60e51b8152600401610a4f906129bf565b610af0838383611b9b565b610af083838360405180602001604052806000815250611488565b600080546001600160a01b038381166001600160a01b0319831681178455604051919092169283917f8be0079c531659141344cd1fd0a4f28419497f9722a3daafe3b4186f6b6457e09190a35050565b6000826119f98584611d0c565b14949350505050565b611451828260405180602001604052806000815250611d51565b816001600160a01b0316836001600160a01b031603611a7d5760405162461bcd60e51b815260206004820152601960248201527f4552433732313a20617070726f766520746f2063616c6c6572000000000000006044820152606401610a4f565b6001600160a01b03838116600081815260066020908152604080832094871680845294825291829020805460ff191686151590811790915591519182527f17307eab39ab6107e8899845ad3d59bd9653f200f220920489ca2b5937696c31910160405180910390a3505050565b611af43383611b1c565b611b105760405162461bcd60e51b8152600401610a4f906129bf565b610b9684848484611d84565b600080611b2883610e96565b9050806001600160a01b0316846001600160a01b03161480611b6f57506001600160a01b0380821660009081526006602090815260408083209388168352929052205460ff165b80611b935750836001600160a01b0316611b8884610926565b6001600160a01b0316145b949350505050565b826001600160a01b0316611bae82610e96565b6001600160a01b031614611bd45760405162461bcd60e51b8152600401610a4f90612a0c565b6001600160a01b038216611c365760405162461bcd60e51b8152602060048201526024808201527f4552433732313a207472616e7366657220746f20746865207a65726f206164646044820152637265737360e01b6064820152608401610a4f565b611c438383836001611db7565b826001600160a01b0316611c5682610e96565b6001600160a01b031614611c7c5760405162461bcd60e51b8152600401610a4f90612a0c565b600081815260056020908152604080832080546001600160a01b03199081169091556001600160a01b0387811680865260048552838620805460001901905590871680865283862080546001019055868652600390945282852080549092168417909155905184937fddf252ad1be2c89b69c2b068fc378daa952ba7f163c4a11628f55a4df523b3ef91a4505050565b600081815b8451811015610db157611d3d82868381518110611d3057611d3061290f565b6020026020010151611ef0565b915080611d498161293b565b915050611d11565b611d5b8383611f1f565b611d6860008484846120b8565b610af05760405162461bcd60e51b8152600401610a4f90612a51565b611d8f848484611b9b565b611d9b848484846120b8565b610b965760405162461bcd60e51b8152600401610a4f90612a51565b611dc384848484611698565b6001811115611e325760405162461bcd60e51b815260206004820152603560248201527f455243373231456e756d657261626c653a20636f6e7365637574697665207472604482015274185b9cd9995c9cc81b9bdd081cdd5c1c1bdc9d1959605a1b6064820152608401610a4f565b816001600160a01b038516611e8e57611e8981600980546000838152600a60205260408120829055600182018355919091527f6e1540171b6c0c960b71a7020d9f60077f6af931a8bbf590da0223dacf75c7af0155565b611eb1565b836001600160a01b0316856001600160a01b031614611eb157611eb185826121b9565b6001600160a01b038416611ecd57611ec881612256565b6114ae565b846001600160a01b0316846001600160a01b0316146114ae576114ae8482612305565b6000818310611f0c576000828152602084905260409020610fd0565b6000838152602083905260409020610fd0565b6001600160a01b038216611f755760405162461bcd60e51b815260206004820181905260248201527f4552433732313a206d696e7420746f20746865207a65726f20616464726573736044820152606401610a4f565b6000818152600360205260409020546001600160a01b031615611fda5760405162461bcd60e51b815260206004820152601c60248201527f4552433732313a20746f6b656e20616c7265616479206d696e746564000000006044820152606401610a4f565b611fe8600083836001611db7565b6000818152600360205260409020546001600160a01b03161561204d5760405162461bcd60e51b815260206004820152601c60248201527f4552433732313a20746f6b656e20616c7265616479206d696e746564000000006044820152606401610a4f565b6001600160a01b038216600081815260046020908152604080832080546001019055848352600390915280822080546001600160a01b0319168417905551839291907fddf252ad1be2c89b69c2b068fc378daa952ba7f163c4a11628f55a4df523b3ef908290a45050565b60006001600160a01b0384163b156121ae57604051630a85bd0160e11b81526001600160a01b0385169063150b7a02906120fc903390899088908890600401612aa3565b6020604051808303816000875af1925050508015612137575060408051601f3d908101601f1916820190925261213491810190612ae0565b60015b612194573d808015612165576040519150601f19603f3d011682016040523d82523d6000602084013e61216a565b606091505b50805160000361218c5760405162461bcd60e51b8152600401610a4f90612a51565b805181602001fd5b6001600160e01b031916630a85bd0160e11b149050611b93565b506001949350505050565b600060016121c684610f1a565b6121d0919061298f565b600083815260086020526040902054909150808214612223576001600160a01b03841660009081526007602090815260408083208584528252808320548484528184208190558352600890915290208190555b5060009182526008602090815260408084208490556001600160a01b039094168352600781528383209183525290812055565b6009546000906122689060019061298f565b6000838152600a6020526040812054600980549394509092849081106122905761229061290f565b9060005260206000200154905080600983815481106122b1576122b161290f565b6000918252602080832090910192909255828152600a909152604080822084905585825281205560098054806122e9576122e9612afd565b6001900381819060005260206000200160009055905550505050565b600061231083610f1a565b6001600160a01b039093166000908152600760209081526040808320868452825280832085905593825260089052919091209190915550565b6001600160e01b031981168114610cef57600080fd5b60006020828403121561237157600080fd5b8135610fd081612349565b8015158114610cef57600080fd5b60006020828403121561239c57600080fd5b8135610fd08161237c565b6000815180845260005b818110156123cd576020818501810151868301820152016123b1565b506000602082860101526020601f19601f83011685010191505092915050565b602081526000610fd060208301846123a7565b60006020828403121561241257600080fd5b5035919050565b80356001600160a01b038116811461243057600080fd5b919050565b6000806040838503121561244857600080fd5b61245183612419565b946020939093013593505050565b634e487b7160e01b600052604160045260246000fd5b604051601f8201601f1916810167ffffffffffffffff8111828210171561249e5761249e61245f565b604052919050565b600067ffffffffffffffff8311156124c0576124c061245f565b6124d3601f8401601f1916602001612475565b90508281528383830111156124e757600080fd5b828260208301376000602084830101529392505050565b600082601f83011261250f57600080fd5b610fd0838335602085016124a6565b6000806040838503121561253157600080fd5b82359150602083013567ffffffffffffffff81111561254f57600080fd5b61255b858286016124fe565b9150509250929050565b60008060006060848603121561257a57600080fd5b61258384612419565b925061259160208501612419565b9150604084013590509250925092565b6000602082840312156125b357600080fd5b610fd082612419565b6020808252825182820181905260009190848201906040850190845b818110156125f4578351835292840192918401916001016125d8565b50909695505050505050565b6000806040838503121561261357600080fd5b823567ffffffffffffffff8082111561262b57600080fd5b818501915085601f83011261263f57600080fd5b81356020828211156126535761265361245f565b8160051b9250612664818401612475565b828152928401810192818101908985111561267e57600080fd5b948201945b8486101561269c57853582529482019490820190612683565b9997909101359750505050505050565b600080604083850312156126bf57600080fd5b6126c883612419565b915060208301356126d88161237c565b809150509250929050565b600080600080608085870312156126f957600080fd5b61270285612419565b935061271060208601612419565b925060408501359150606085013567ffffffffffffffff81111561273357600080fd5b8501601f8101871361274457600080fd5b612753878235602084016124a6565b91505092959194509250565b6000806040838503121561277257600080fd5b61277b83612419565b915061278960208401612419565b90509250929050565b6000602082840312156127a457600080fd5b813567ffffffffffffffff8111156127bb57600080fd5b611b93848285016124fe565b600181811c908216806127db57607f821691505b6020821081036127fb57634e487b7160e01b600052602260045260246000fd5b50919050565b601f821115610af057600081815260208120601f850160051c810160208610156128285750805b601f850160051c820191505b8181101561284757828155600101612834565b505050505050565b815167ffffffffffffffff8111156128695761286961245f565b61287d8161287784546127c7565b84612801565b602080601f8311600181146128b2576000841561289a5750858301515b600019600386901b1c1916600185901b178555612847565b600085815260208120601f198616915b828110156128e1578886015182559484019460019091019084016128c2565b50858210156128ff5787850151600019600388901b60f8161c191681555b5050505050600190811b01905550565b634e487b7160e01b600052603260045260246000fd5b634e487b7160e01b600052601160045260246000fd5b60006001820161294d5761294d612925565b5060010190565b8082018082111561086c5761086c612925565b6020808252600e908201526d09cdee840cadcdeeaced0408aa8960931b604082015260600190565b8181038181111561086c5761086c612925565b6000602082840312156129b457600080fd5b8151610fd08161237c565b6020808252602d908201527f4552433732313a2063616c6c6572206973206e6f7420746f6b656e206f776e6560408201526c1c881bdc88185c1c1c9bdd9959609a1b606082015260800190565b60208082526025908201527f4552433732313a207472616e736665722066726f6d20696e636f72726563742060408201526437bbb732b960d91b606082015260800190565b60208082526032908201527f4552433732313a207472616e7366657220746f206e6f6e20455243373231526560408201527131b2b4bb32b91034b6b83632b6b2b73a32b960711b606082015260800190565b6001600160a01b0385811682528416602082015260408101839052608060608201819052600090612ad6908301846123a7565b9695505050505050565b600060208284031215612af257600080fd5b8151610fd081612349565b634e487b7160e01b600052603160045260246000fdfea2646970667358221220d600f37b9be899955cb20b900ec3b58b30b460ebf155e2575a43e062a70ff55264736f6c634300081100334552433732313a207472616e7366657220746f206e6f6e204552433732315265",
    "immutableReferences": {},
    "source": "// SPDX-License-Identifier: MIT\r\n\r\n//\r\n//\r\n//\r\n//\r\n//\r\n//\r\n\r\n//\r\n//\r\n//\r\n//\r\n//\r\n//\r\n\r\npragma solidity >=0.7.0 <0.9.0;\r\n\r\nimport \"@openzeppelin/contracts/access/Ownable.sol\";\r\nimport \"./DefaultOperatorFilterer.sol\";\r\nimport \"@openzeppelin/contracts/token/ERC721/extensions/ERC721Enumerable.sol\";\r\nimport \"@openzeppelin/contracts/utils/cryptography/MerkleProof.sol\";\r\n\r\ncontract GnomesCollective is Ownable, DefaultOperatorFilterer, ERC721Enumerable {\r\n  using Strings for uint256;\r\n  bytes32 root;\r\n  uint256 public cost = 0.00888 ether;\r\n  uint256 public publicPrice = 0.00222 ether;\r\n  uint256 public maxSupply = 2888;\r\n  uint256 public maxMintAmount = 1;\r\n  bool public publicMint = false;\r\n  bool public paused = false;\r\n  bool public revealed = false;\r\n  string public notRevealedUri;\r\n  mapping(address => bool) public whitelisted;\r\n  mapping(uint256 => address) private requestToSender;\r\n  mapping(uint256 => string) private _tokenURIs;\r\n  mapping(address => uint256) private walletMints;\r\n\r\n  constructor(\r\n    bytes32 _root,\r\n    string memory _notRevealedUri,\r\n    string memory _name,\r\n    string memory _symbol\r\n  ) ERC721(_name, _symbol) { \r\n    mint(10);\r\n    root = _root;\r\n    notRevealedUri = _notRevealedUri;\r\n  }\r\n\r\n  function mint(uint256 _mintAmount) public payable {\r\n    if(msg.sender != owner()){                                                 //@dev Constructor call for Treasure\r\n    require(!paused, 'Minting is paused');\r\n    require(walletMints[msg.sender] < maxMintAmount + 1, 'Exceed max wallet'); //@dev Whitelist can mint again after Free mint and before public\r\n    }\r\n    require(_mintAmount > 0, 'Amount has to be > 0');\r\n    require(totalSupply() + _mintAmount <= maxSupply, 'SOLD OUT');\r\n\r\n    if(whitelisted[msg.sender] != true) {\r\n        if(msg.sender != owner()){\r\n          require(publicMint, '!Public');\r\n          require(_mintAmount <= maxMintAmount, 'Amount is > max');\r\n          require(msg.value >= (cost + publicPrice), 'Not enough ETH');\r\n          walletMints[msg.sender]=2;\r\n          }\r\n          for (uint256 i=0; i<(_mintAmount); i++){\r\n        requestToSender[totalSupply() + 1] = msg.sender;\r\n        _safeMint(msg.sender, totalSupply() + 1);\r\n      }\r\n    }\r\n    \r\n    if (whitelisted[msg.sender] == true) {\r\n      require(_mintAmount <= (maxMintAmount + 1 - walletMints[msg.sender]), 'Amount is > max');\r\n      if (_mintAmount == 2 || walletMints[msg.sender] == 1) {\r\n        if (publicMint){\r\n        require(msg.value >= cost + publicPrice, 'Not enough ETH');}\r\n        else {\r\n          require(msg.value >= cost, 'Not enough ETH');\r\n        }\r\n      }\r\n      for (uint256 i=0; i<(_mintAmount); i++){\r\n        requestToSender[totalSupply() + 1] = msg.sender;\r\n        _safeMint(msg.sender, totalSupply() + 1);\r\n        walletMints[msg.sender]++;\r\n      }\r\n      }\r\n  }\r\n  \r\n  function walletOfOwner(address _owner)\r\n    public\r\n    view\r\n    returns (uint256[] memory)\r\n  {\r\n    uint256 ownerTokenCount = balanceOf(_owner);\r\n    uint256[] memory tokenIds = new uint256[](ownerTokenCount);\r\n    for (uint256 i; i < ownerTokenCount; i++) {\r\n      tokenIds[i] = tokenOfOwnerByIndex(_owner, i);\r\n    }\r\n    return tokenIds;\r\n  }\r\n  \r\n  function tokenURI(uint256 tokenId)\r\n    public\r\n    view\r\n    virtual\r\n    override(ERC721)\r\n    returns (string memory)\r\n  {\r\n    require(\r\n      _exists(tokenId),\r\n      \"ERC721Metadata: URI query for nonexistent token\"\r\n    );\r\n    \r\n    if(revealed == false) {\r\n        return notRevealedUri;\r\n    }\r\n\r\n    return tokenURI(tokenId);\r\n  }\r\n\r\n  function _setroot(bytes32 _root)public onlyOwner {\r\n    root = _root;\r\n  }\r\n\r\n  function reveal() public onlyOwner {\r\n      revealed = true;\r\n  }\r\n  \r\n  function setCost(uint256 _newCost) public onlyOwner {\r\n    cost = _newCost;\r\n  }\r\n\r\n  function setTokenURI(uint256 tokenId, string memory _tokenURI) public {\r\n         require(_exists(tokenId), \"URI set of nonexistent token\");\r\n        _tokenURIs[tokenId] = _tokenURI;\r\n  }\r\n  function getRoot() public view onlyOwner returns(bytes32){\r\n    return root;\r\n  }\r\n  function setmaxMintAmount(uint256 _newmaxMintAmount) public onlyOwner {\r\n    maxMintAmount = _newmaxMintAmount;\r\n  }\r\n  \r\n  function setNotRevealedURI(string memory _notRevealedURI) public onlyOwner {\r\n    notRevealedUri = _notRevealedURI;\r\n  }\r\n\r\n  function pause(bool _state) public onlyOwner {\r\n    paused = _state;\r\n  }\r\n  \r\n  function _publicMint(bool _state) public onlyOwner {\r\n    publicMint = _state;\r\n  }\r\n\r\n function whitelistUser(address _user) public onlyOwner {\r\n    whitelisted[_user] = true;\r\n  }\r\n \r\n  function removeWhitelistUser(address _user) public onlyOwner {\r\n    whitelisted[_user] = false;\r\n  }\r\n\r\n  function withdraw() public payable onlyOwner {\r\n    (bool os, ) = payable(owner()).call{value: address(this).balance}(\"\");\r\n    require(os,'not os');\r\n  }\r\n\r\n  function setWalletMints (address _user, uint256 _state) public onlyOwner {\r\n    walletMints[_user] = _state;\r\n  }\r\n\r\n  function getWalletMints(address _user) view public returns (uint256 WalletMints) {\r\n    return walletMints[_user];\r\n  }\r\n\r\n    function transferFrom(\r\n        address from,\r\n        address to,\r\n        uint256 tokenId\r\n    ) public override(ERC721, IERC721) onlyAllowedOperator(from) {\r\n        super.transferFrom(from, to, tokenId);\r\n    }\r\n\r\n    function safeTransferFrom(\r\n        address from,\r\n        address to,\r\n        uint256 tokenId\r\n    ) public override(ERC721, IERC721) onlyAllowedOperator(from) {\r\n        super.safeTransferFrom(from, to, tokenId);\r\n    }\r\n\r\nfunction safeTransferFrom(\r\n    address from,\r\n    address to,\r\n    uint256 tokenId,\r\n    bytes memory data\r\n) public override(ERC721, IERC721) onlyAllowedOperator(from) {\r\n    super.safeTransferFrom(from, to, tokenId, data);\r\n}\r\n\r\n function LuckyGnomes(bytes32[] memory proof, bytes32 leaf) public view returns(bool) {  \r\n return MerkleProof.verify(proof, root, leaf);\r\n}\r\n}\r\n//\r\n//\r\n//\r\n//\r\n//\r\n",
    "sourcePath": "C:\\GnomesCollective\\contracts\\GnomesCollective.sol",
    "compiler": {
        "name": "solc",
        "version": "0.8.17+commit.8df45f5f.Emscripten.clang"
    },
    "schemaVersion": "3.4.11",
    "updatedAt": "2023-01-27T10:16:53.973Z",
    "networkType": "ethereum",
    "devdoc": {
        "kind": "dev",
        "methods": {
            "approve(address,uint256)": {
                "details": "See {IERC721-approve}."
            },
            "balanceOf(address)": {
                "details": "See {IERC721-balanceOf}."
            },
            "getApproved(uint256)": {
                "details": "See {IERC721-getApproved}."
            },
            "isApprovedForAll(address,address)": {
                "details": "See {IERC721-isApprovedForAll}."
            },
            "name()": {
                "details": "See {IERC721Metadata-name}."
            },
            "owner()": {
                "details": "Returns the address of the current owner."
            },
            "ownerOf(uint256)": {
                "details": "See {IERC721-ownerOf}."
            },
            "renounceOwnership()": {
                "details": "Leaves the contract without owner. It will not be possible to call `onlyOwner` functions anymore. Can only be called by the current owner. NOTE: Renouncing ownership will leave the contract without an owner, thereby removing any functionality that is only available to the owner."
            },
            "setApprovalForAll(address,bool)": {
                "details": "See {IERC721-setApprovalForAll}."
            },
            "supportsInterface(bytes4)": {
                "details": "See {IERC165-supportsInterface}."
            },
            "symbol()": {
                "details": "See {IERC721Metadata-symbol}."
            },
            "tokenByIndex(uint256)": {
                "details": "See {IERC721Enumerable-tokenByIndex}."
            },
            "tokenOfOwnerByIndex(address,uint256)": {
                "details": "See {IERC721Enumerable-tokenOfOwnerByIndex}."
            },
            "tokenURI(uint256)": {
                "details": "See {IERC721Metadata-tokenURI}."
            },
            "totalSupply()": {
                "details": "See {IERC721Enumerable-totalSupply}."
            },
            "transferOwnership(address)": {
                "details": "Transfers ownership of the contract to a new account (`newOwner`). Can only be called by the current owner."
            }
        },
        "version": 1
    },
    "userdoc": {
        "kind": "user",
        "methods": {},
        "version": 1
    }
}