{
  "contractName": "GnomesCollective",
  "abi": [
    {
      "inputs": [
        {
          "internalType": "bytes32",
          "name": "_root",
          "type": "bytes32"
        },
        {
          "internalType": "string",
          "name": "_notRevealedUri",
          "type": "string"
        },
        {
          "internalType": "string",
          "name": "_name",
          "type": "string"
        },
        {
          "internalType": "string",
          "name": "_symbol",
          "type": "string"
        }
      ],
      "stateMutability": "nonpayable",
      "type": "constructor"
    },
    {
      "inputs": [
        {
          "internalType": "address",
          "name": "operator",
          "type": "address"
        }
      ],
      "name": "OperatorNotAllowed",
      "type": "error"
    },
    {
      "anonymous": false,
      "inputs": [
        {
          "indexed": true,
          "internalType": "address",
          "name": "owner",
          "type": "address"
        },
        {
          "indexed": true,
          "internalType": "address",
          "name": "approved",
          "type": "address"
        },
        {
          "indexed": true,
          "internalType": "uint256",
          "name": "tokenId",
          "type": "uint256"
        }
      ],
      "name": "Approval",
      "type": "event"
    },
    {
      "anonymous": false,
      "inputs": [
        {
          "indexed": true,
          "internalType": "address",
          "name": "owner",
          "type": "address"
        },
        {
          "indexed": true,
          "internalType": "address",
          "name": "operator",
          "type": "address"
        },
        {
          "indexed": false,
          "internalType": "bool",
          "name": "approved",
          "type": "bool"
        }
      ],
      "name": "ApprovalForAll",
      "type": "event"
    },
    {
      "anonymous": false,
      "inputs": [
        {
          "indexed": true,
          "internalType": "address",
          "name": "previousOwner",
          "type": "address"
        },
        {
          "indexed": true,
          "internalType": "address",
          "name": "newOwner",
          "type": "address"
        }
      ],
      "name": "OwnershipTransferred",
      "type": "event"
    },
    {
      "anonymous": false,
      "inputs": [
        {
          "indexed": true,
          "internalType": "address",
          "name": "from",
          "type": "address"
        },
        {
          "indexed": true,
          "internalType": "address",
          "name": "to",
          "type": "address"
        },
        {
          "indexed": true,
          "internalType": "uint256",
          "name": "tokenId",
          "type": "uint256"
        }
      ],
      "name": "Transfer",
      "type": "event"
    },
    {
      "inputs": [],
      "name": "OPERATOR_FILTER_REGISTRY",
      "outputs": [
        {
          "internalType": "contract IOperatorFilterRegistry",
          "name": "",
          "type": "address"
        }
      ],
      "stateMutability": "view",
      "type": "function",
      "constant": true
    },
    {
      "inputs": [
        {
          "internalType": "address",
          "name": "to",
          "type": "address"
        },
        {
          "internalType": "uint256",
          "name": "tokenId",
          "type": "uint256"
        }
      ],
      "name": "approve",
      "outputs": [],
      "stateMutability": "nonpayable",
      "type": "function"
    },
    {
      "inputs": [
        {
          "internalType": "address",
          "name": "owner",
          "type": "address"
        }
      ],
      "name": "balanceOf",
      "outputs": [
        {
          "internalType": "uint256",
          "name": "",
          "type": "uint256"
        }
      ],
      "stateMutability": "view",
      "type": "function",
      "constant": true
    },
    {
      "inputs": [],
      "name": "cost",
      "outputs": [
        {
          "internalType": "uint256",
          "name": "",
          "type": "uint256"
        }
      ],
      "stateMutability": "view",
      "type": "function",
      "constant": true
    },
    {
      "inputs": [
        {
          "internalType": "uint256",
          "name": "tokenId",
          "type": "uint256"
        }
      ],
      "name": "getApproved",
      "outputs": [
        {
          "internalType": "address",
          "name": "",
          "type": "address"
        }
      ],
      "stateMutability": "view",
      "type": "function",
      "constant": true
    },
    {
      "inputs": [
        {
          "internalType": "address",
          "name": "owner",
          "type": "address"
        },
        {
          "internalType": "address",
          "name": "operator",
          "type": "address"
        }
      ],
      "name": "isApprovedForAll",
      "outputs": [
        {
          "internalType": "bool",
          "name": "",
          "type": "bool"
        }
      ],
      "stateMutability": "view",
      "type": "function",
      "constant": true
    },
    {
      "inputs": [],
      "name": "maxMintAmount",
      "outputs": [
        {
          "internalType": "uint256",
          "name": "",
          "type": "uint256"
        }
      ],
      "stateMutability": "view",
      "type": "function",
      "constant": true
    },
    {
      "inputs": [],
      "name": "maxSupply",
      "outputs": [
        {
          "internalType": "uint256",
          "name": "",
          "type": "uint256"
        }
      ],
      "stateMutability": "view",
      "type": "function",
      "constant": true
    },
    {
      "inputs": [],
      "name": "mintedAdditional",
      "outputs": [
        {
          "internalType": "uint256",
          "name": "",
          "type": "uint256"
        }
      ],
      "stateMutability": "view",
      "type": "function",
      "constant": true
    },
    {
      "inputs": [],
      "name": "mintedWL",
      "outputs": [
        {
          "internalType": "uint256",
          "name": "",
          "type": "uint256"
        }
      ],
      "stateMutability": "view",
      "type": "function",
      "constant": true
    },
    {
      "inputs": [],
      "name": "name",
      "outputs": [
        {
          "internalType": "string",
          "name": "",
          "type": "string"
        }
      ],
      "stateMutability": "view",
      "type": "function",
      "constant": true
    },
    {
      "inputs": [],
      "name": "notRevealedUri",
      "outputs": [
        {
          "internalType": "string",
          "name": "",
          "type": "string"
        }
      ],
      "stateMutability": "view",
      "type": "function",
      "constant": true
    },
    {
      "inputs": [],
      "name": "owner",
      "outputs": [
        {
          "internalType": "address",
          "name": "",
          "type": "address"
        }
      ],
      "stateMutability": "view",
      "type": "function",
      "constant": true
    },
    {
      "inputs": [
        {
          "internalType": "uint256",
          "name": "tokenId",
          "type": "uint256"
        }
      ],
      "name": "ownerOf",
      "outputs": [
        {
          "internalType": "address",
          "name": "",
          "type": "address"
        }
      ],
      "stateMutability": "view",
      "type": "function",
      "constant": true
    },
    {
      "inputs": [],
      "name": "paused",
      "outputs": [
        {
          "internalType": "bool",
          "name": "",
          "type": "bool"
        }
      ],
      "stateMutability": "view",
      "type": "function",
      "constant": true
    },
    {
      "inputs": [],
      "name": "publicMint",
      "outputs": [
        {
          "internalType": "bool",
          "name": "",
          "type": "bool"
        }
      ],
      "stateMutability": "view",
      "type": "function",
      "constant": true
    },
    {
      "inputs": [],
      "name": "publicPrice",
      "outputs": [
        {
          "internalType": "uint256",
          "name": "",
          "type": "uint256"
        }
      ],
      "stateMutability": "view",
      "type": "function",
      "constant": true
    },
    {
      "inputs": [],
      "name": "renounceOwnership",
      "outputs": [],
      "stateMutability": "nonpayable",
      "type": "function"
    },
    {
      "inputs": [],
      "name": "revealed",
      "outputs": [
        {
          "internalType": "bool",
          "name": "",
          "type": "bool"
        }
      ],
      "stateMutability": "view",
      "type": "function",
      "constant": true
    },
    {
      "inputs": [
        {
          "internalType": "address",
          "name": "operator",
          "type": "address"
        },
        {
          "internalType": "bool",
          "name": "approved",
          "type": "bool"
        }
      ],
      "name": "setApprovalForAll",
      "outputs": [],
      "stateMutability": "nonpayable",
      "type": "function"
    },
    {
      "inputs": [
        {
          "internalType": "bytes4",
          "name": "interfaceId",
          "type": "bytes4"
        }
      ],
      "name": "supportsInterface",
      "outputs": [
        {
          "internalType": "bool",
          "name": "",
          "type": "bool"
        }
      ],
      "stateMutability": "view",
      "type": "function",
      "constant": true
    },
    {
      "inputs": [],
      "name": "symbol",
      "outputs": [
        {
          "internalType": "string",
          "name": "",
          "type": "string"
        }
      ],
      "stateMutability": "view",
      "type": "function",
      "constant": true
    },
    {
      "inputs": [
        {
          "internalType": "uint256",
          "name": "index",
          "type": "uint256"
        }
      ],
      "name": "tokenByIndex",
      "outputs": [
        {
          "internalType": "uint256",
          "name": "",
          "type": "uint256"
        }
      ],
      "stateMutability": "view",
      "type": "function",
      "constant": true
    },
    {
      "inputs": [
        {
          "internalType": "address",
          "name": "owner",
          "type": "address"
        },
        {
          "internalType": "uint256",
          "name": "index",
          "type": "uint256"
        }
      ],
      "name": "tokenOfOwnerByIndex",
      "outputs": [
        {
          "internalType": "uint256",
          "name": "",
          "type": "uint256"
        }
      ],
      "stateMutability": "view",
      "type": "function",
      "constant": true
    },
    {
      "inputs": [],
      "name": "totalSupply",
      "outputs": [
        {
          "internalType": "uint256",
          "name": "",
          "type": "uint256"
        }
      ],
      "stateMutability": "view",
      "type": "function",
      "constant": true
    },
    {
      "inputs": [
        {
          "internalType": "address",
          "name": "newOwner",
          "type": "address"
        }
      ],
      "name": "transferOwnership",
      "outputs": [],
      "stateMutability": "nonpayable",
      "type": "function"
    },
    {
      "inputs": [
        {
          "internalType": "uint256",
          "name": "_mintAmount",
          "type": "uint256"
        },
        {
          "internalType": "bytes32[]",
          "name": "proof",
          "type": "bytes32[]"
        },
        {
          "internalType": "bytes32",
          "name": "leaf",
          "type": "bytes32"
        }
      ],
      "name": "mint",
      "outputs": [],
      "stateMutability": "payable",
      "type": "function",
      "payable": true
    },
    {
      "inputs": [
        {
          "internalType": "address",
          "name": "_owner",
          "type": "address"
        }
      ],
      "name": "walletOfOwner",
      "outputs": [
        {
          "internalType": "uint256[]",
          "name": "",
          "type": "uint256[]"
        }
      ],
      "stateMutability": "view",
      "type": "function",
      "constant": true
    },
    {
      "inputs": [
        {
          "internalType": "uint256",
          "name": "tokenId",
          "type": "uint256"
        }
      ],
      "name": "tokenURI",
      "outputs": [
        {
          "internalType": "string",
          "name": "",
          "type": "string"
        }
      ],
      "stateMutability": "view",
      "type": "function",
      "constant": true
    },
    {
      "inputs": [
        {
          "internalType": "bytes32",
          "name": "_root",
          "type": "bytes32"
        }
      ],
      "name": "_setroot",
      "outputs": [],
      "stateMutability": "nonpayable",
      "type": "function"
    },
    {
      "inputs": [],
      "name": "reveal",
      "outputs": [],
      "stateMutability": "nonpayable",
      "type": "function"
    },
    {
      "inputs": [
        {
          "internalType": "uint256",
          "name": "_newCost",
          "type": "uint256"
        }
      ],
      "name": "setCost",
      "outputs": [],
      "stateMutability": "nonpayable",
      "type": "function"
    },
    {
      "inputs": [
        {
          "internalType": "uint256",
          "name": "tokenId",
          "type": "uint256"
        },
        {
          "internalType": "string",
          "name": "_tokenURI",
          "type": "string"
        }
      ],
      "name": "setTokenURI",
      "outputs": [],
      "stateMutability": "nonpayable",
      "type": "function"
    },
    {
      "inputs": [],
      "name": "getRoot",
      "outputs": [
        {
          "internalType": "bytes32",
          "name": "",
          "type": "bytes32"
        }
      ],
      "stateMutability": "view",
      "type": "function",
      "constant": true
    },
    {
      "inputs": [
        {
          "internalType": "uint256",
          "name": "_newmaxMintAmount",
          "type": "uint256"
        }
      ],
      "name": "setmaxMintAmount",
      "outputs": [],
      "stateMutability": "nonpayable",
      "type": "function"
    },
    {
      "inputs": [
        {
          "internalType": "string",
          "name": "_notRevealedURI",
          "type": "string"
        }
      ],
      "name": "setNotRevealedURI",
      "outputs": [],
      "stateMutability": "nonpayable",
      "type": "function"
    },
    {
      "inputs": [
        {
          "internalType": "bool",
          "name": "_state",
          "type": "bool"
        }
      ],
      "name": "pause",
      "outputs": [],
      "stateMutability": "nonpayable",
      "type": "function"
    },
    {
      "inputs": [
        {
          "internalType": "bool",
          "name": "_state",
          "type": "bool"
        }
      ],
      "name": "_publicMint",
      "outputs": [],
      "stateMutability": "nonpayable",
      "type": "function"
    },
    {
      "inputs": [],
      "name": "withdraw",
      "outputs": [],
      "stateMutability": "payable",
      "type": "function",
      "payable": true
    },
    {
      "inputs": [
        {
          "internalType": "address",
          "name": "_user",
          "type": "address"
        },
        {
          "internalType": "uint256",
          "name": "_state",
          "type": "uint256"
        }
      ],
      "name": "setWalletMints",
      "outputs": [],
      "stateMutability": "nonpayable",
      "type": "function"
    },
    {
      "inputs": [
        {
          "internalType": "address",
          "name": "_user",
          "type": "address"
        }
      ],
      "name": "getWalletMints",
      "outputs": [
        {
          "internalType": "uint256",
          "name": "WalletMints",
          "type": "uint256"
        }
      ],
      "stateMutability": "view",
      "type": "function",
      "constant": true
    },
    {
      "inputs": [],
      "name": "getmintedWL",
      "outputs": [
        {
          "internalType": "uint256",
          "name": "",
          "type": "uint256"
        }
      ],
      "stateMutability": "view",
      "type": "function",
      "constant": true
    },
    {
      "inputs": [],
      "name": "getmintedAdditional",
      "outputs": [
        {
          "internalType": "uint256",
          "name": "",
          "type": "uint256"
        }
      ],
      "stateMutability": "view",
      "type": "function",
      "constant": true
    },
    {
      "inputs": [
        {
          "internalType": "address",
          "name": "from",
          "type": "address"
        },
        {
          "internalType": "address",
          "name": "to",
          "type": "address"
        },
        {
          "internalType": "uint256",
          "name": "tokenId",
          "type": "uint256"
        }
      ],
      "name": "transferFrom",
      "outputs": [],
      "stateMutability": "nonpayable",
      "type": "function"
    },
    {
      "inputs": [
        {
          "internalType": "address",
          "name": "from",
          "type": "address"
        },
        {
          "internalType": "address",
          "name": "to",
          "type": "address"
        },
        {
          "internalType": "uint256",
          "name": "tokenId",
          "type": "uint256"
        }
      ],
      "name": "safeTransferFrom",
      "outputs": [],
      "stateMutability": "nonpayable",
      "type": "function"
    },
    {
      "inputs": [
        {
          "internalType": "address",
          "name": "from",
          "type": "address"
        },
        {
          "internalType": "address",
          "name": "to",
          "type": "address"
        },
        {
          "internalType": "uint256",
          "name": "tokenId",
          "type": "uint256"
        },
        {
          "internalType": "bytes",
          "name": "data",
          "type": "bytes"
        }
      ],
      "name": "safeTransferFrom",
      "outputs": [],
      "stateMutability": "nonpayable",
      "type": "function"
    },
    {
      "inputs": [
        {
          "internalType": "bytes32[]",
          "name": "proof",
          "type": "bytes32[]"
        },
        {
          "internalType": "bytes32",
          "name": "leaf",
          "type": "bytes32"
        }
      ],
      "name": "LuckyGnomes",
      "outputs": [
        {
          "internalType": "bool",
          "name": "",
          "type": "bool"
        }
      ],
      "stateMutability": "view",
      "type": "function",
      "constant": true
    }
  ],
  "bytecode": "0x6000608081905260a06040527fc5d2460186f7233c927e7db2dcc703c0e500b653ca82273b7bfad8045d85a470600c55661f8c501d9b0000600d556607e3140766c000600e55610b48600f55601081905560115560016012556013805462ffffff191690553480156200007157600080fd5b506040516200439a3803806200439a833981016040819052620000949162001334565b8181733cc6cdda760b79bafa08df41ecfa224f810dceb66001620000b833620002c2565b6daaeb6d7670e522a718067333cd4e3b15620001fd5780156200014b57604051633e9f1edf60e11b81523060048201526001600160a01b03831660248201526daaeb6d7670e522a718067333cd4e90637d3e3dbe906044015b600060405180830381600087803b1580156200012c57600080fd5b505af115801562000141573d6000803e3d6000fd5b50505050620001fd565b6001600160a01b038216156200019c5760405163a0af290360e01b81523060048201526001600160a01b03831660248201526daaeb6d7670e522a718067333cd4e9063a0af29039060440162000111565b604051632210724360e11b81523060048201526daaeb6d7670e522a718067333cd4e90634420e48690602401600060405180830381600087803b158015620001e357600080fd5b505af1158015620001f8573d6000803e3d6000fd5b505050505b50600190506200020e83826200145e565b5060026200021d82826200145e565b5050604080516002808252606082018352600093509091602083019080368337019050509050600c54816000815181106200025c576200025c6200152a565b602002602001018181525050600c54816001815181106200028157620002816200152a565b602002602001018181525050620002a3600a82600c546200031260201b60201c565b600b8590556014620002b685826200145e565b5050505050506200167a565b600080546001600160a01b038381166001600160a01b0319831681178455604051919092169283917f8be0079c531659141344cd1fd0a4f28419497f9722a3daafe3b4186f6b6457e09190a35050565b6000546001600160a01b03163314620003da57601354610100900460ff1615620003775760405162461bcd60e51b8152602060048201526011602482015270135a5b9d1a5b99c81a5cc81c185d5cd959607a1b60448201526064015b60405180910390fd5b6012546200038790600162001556565b3360009081526017602052604090205410620003da5760405162461bcd60e51b8152602060048201526011602482015270115e18d95959081b585e081dd85b1b195d607a1b60448201526064016200036e565b600083116200042c5760405162461bcd60e51b815260206004820152601460248201527f416d6f756e742068617320746f206265203e203000000000000000000000000060448201526064016200036e565b600f54836200043a60095490565b62000446919062001556565b1115620004815760405162461bcd60e51b815260206004820152600860248201526714d3d3110813d55560c21b60448201526064016200036e565b6200048d8282620009b8565b151560011462000682576000546001600160a01b03163314620005965760135460ff16620004e85760405162461bcd60e51b8152602060048201526007602482015266215075626c696360c81b60448201526064016200036e565b6012548311156200052e5760405162461bcd60e51b815260206004820152600f60248201526e082dadeeadce840d2e6407c40dac2f608b1b60448201526064016200036e565b600e54600d5462000540919062001556565b341015620005825760405162461bcd60e51b815260206004820152600e60248201526d09cdee840cadcdeeaced0408aa8960931b60448201526064016200036e565b336000908152601760205260409020600290555b60005b8381101562000680573360156000620005b160095490565b620005be90600162001556565b8152602081019190915260400160002080546001600160a01b0319166001600160a01b03929092169190911790556200060e33620005fb60095490565b6200060890600162001556565b620009dd565b601e600f5460115460646200062491906200156c565b62000630919062001586565b106200065357601080549060006200064883620015a9565b91905055506200066b565b601180549060006200066583620015a9565b91905055505b806200067781620015a9565b91505062000599565b505b6200068e8282620009b8565b1515600103620009b35733600090815260176020526040902054601254620006b890600162001556565b620006c49190620015c5565b831115620007075760405162461bcd60e51b815260206004820152600f60248201526e082dadeeadce840d2e6407c40dac2f608b1b60448201526064016200036e565b8260021480620007265750336000908152601760205260409020546001145b15620008485760135460ff16156200079257600e54600d546200074a919062001556565b3410156200078c5760405162461bcd60e51b815260206004820152600e60248201526d09cdee840cadcdeeaced0408aa8960931b60448201526064016200036e565b620007d7565b600d54341015620007d75760405162461bcd60e51b815260206004820152600e60248201526d09cdee840cadcdeeaced0408aa8960931b60448201526064016200036e565b601e600f546011546064620007ed91906200156c565b620007f9919062001586565b10620008485760405162461bcd60e51b815260206004820181905260248201527f4164646974696f6e616c206d696e74696e67206c696d6974207265616368656460448201526064016200036e565b60005b83811015620009b15733601560006200086360095490565b6200087090600162001556565b8152602081019190915260400160002080546001600160a01b0319166001600160a01b0392909216919091179055620008ad33620005fb60095490565b33600090815260176020526040902054158015620008cb5750836001145b15620008ee5760108054906000620008e383620015a9565b919050555062000979565b336000908152601760205260409020541580156200090c5750836002145b156200093b57601080549060006200092483620015a9565b909155505060118054906000620008e383620015a9565b3360009081526017602052604090205460011480156200095b5750836001145b156200097957601180549060006200097383620015a9565b91905055505b3360009081526017602052604081208054916200099683620015a9565b91905055508080620009a890620015a9565b9150506200084b565b505b505050565b6000620009d483600b548462000a0360201b6200178e1760201c565b90505b92915050565b620009ff82826040518060200160405280600081525062000a1b60201b60201c565b5050565b60008262000a12858462000a8e565b14949350505050565b62000a27838362000aea565b62000a36600084848462000c97565b620009b35760405162461bcd60e51b815260206004820152603260248201526000805160206200437a83398151915260448201527131b2b4bb32b91034b6b83632b6b2b73a32b960711b60648201526084016200036e565b600081815b845181101562000ae25762000acb8286838151811062000ab75762000ab76200152a565b602002602001015162000df360201b60201c565b91508062000ad981620015a9565b91505062000a93565b509392505050565b6001600160a01b03821662000b425760405162461bcd60e51b815260206004820181905260248201527f4552433732313a206d696e7420746f20746865207a65726f206164647265737360448201526064016200036e565b6000818152600360205260409020546001600160a01b03161562000ba95760405162461bcd60e51b815260206004820152601c60248201527f4552433732313a20746f6b656e20616c7265616479206d696e7465640000000060448201526064016200036e565b62000bb960008383600162000e25565b6000818152600360205260409020546001600160a01b03161562000c205760405162461bcd60e51b815260206004820152601c60248201527f4552433732313a20746f6b656e20616c7265616479206d696e7465640000000060448201526064016200036e565b6001600160a01b038216600081815260046020908152604080832080546001019055848352600390915280822080546001600160a01b0319168417905551839291907fddf252ad1be2c89b69c2b068fc378daa952ba7f163c4a11628f55a4df523b3ef908290a4620009ff600083836001620009b1565b600062000cb8846001600160a01b031662000f8960201b620017a41760201c565b1562000de757604051630a85bd0160e11b81526001600160a01b0385169063150b7a029062000cf2903390899088908890600401620015db565b6020604051808303816000875af192505050801562000d30575060408051601f3d908101601f1916820190925262000d2d9181019062001631565b60015b62000dcc573d80801562000d61576040519150601f19603f3d011682016040523d82523d6000602084013e62000d66565b606091505b50805160000362000dc45760405162461bcd60e51b815260206004820152603260248201526000805160206200437a83398151915260448201527131b2b4bb32b91034b6b83632b6b2b73a32b960711b60648201526084016200036e565b805181602001fd5b6001600160e01b031916630a85bd0160e11b14905062000deb565b5060015b949350505050565b600081831062000e11576000828152602084905260409020620009d4565b6000838152602083905260409020620009d4565b62000e3e8484848462000f9860201b620017b31760201c565b600181111562000eb75760405162461bcd60e51b815260206004820152603560248201527f455243373231456e756d657261626c653a20636f6e736563757469766520747260448201527f616e7366657273206e6f7420737570706f72746564000000000000000000000060648201526084016200036e565b816001600160a01b03851662000f165762000f1081600980546000838152600a60205260408120829055600182018355919091527f6e1540171b6c0c960b71a7020d9f60077f6af931a8bbf590da0223dacf75c7af0155565b62000f3c565b836001600160a01b0316856001600160a01b03161462000f3c5762000f3c858262001027565b6001600160a01b03841662000f5c5762000f5681620010d4565b62000f82565b846001600160a01b0316846001600160a01b03161462000f825762000f8284826200118e565b5050505050565b6001600160a01b03163b151590565b6001811115620009b1576001600160a01b0384161562000fe2576001600160a01b0384166000908152600460205260408120805483929062000fdc908490620015c5565b90915550505b6001600160a01b03831615620009b1576001600160a01b038316600090815260046020526040812080548392906200101c90849062001556565b909155505050505050565b600060016200104184620011df60201b6200148a1760201c565b6200104d9190620015c5565b600083815260086020526040902054909150808214620010a1576001600160a01b03841660009081526007602090815260408083208584528252808320548484528184208190558352600890915290208190555b5060009182526008602090815260408084208490556001600160a01b039094168352600781528383209183525290812055565b600954600090620010e890600190620015c5565b6000838152600a6020526040812054600980549394509092849081106200111357620011136200152a565b9060005260206000200154905080600983815481106200113757620011376200152a565b6000918252602080832090910192909255828152600a9091526040808220849055858252812055600980548062001172576200117262001664565b6001900381819060005260206000200160009055905550505050565b6000620011a683620011df60201b6200148a1760201c565b6001600160a01b039093166000908152600760209081526040808320868452825280832085905593825260089052919091209190915550565b60006001600160a01b0382166200124b5760405162461bcd60e51b815260206004820152602960248201527f4552433732313a2061646472657373207a65726f206973206e6f7420612076616044820152683634b21037bbb732b960b91b60648201526084016200036e565b506001600160a01b031660009081526004602052604090205490565b634e487b7160e01b600052604160045260246000fd5b60005b838110156200129a57818101518382015260200162001280565b50506000910152565b600082601f830112620012b557600080fd5b81516001600160401b0380821115620012d257620012d262001267565b604051601f8301601f19908116603f01168101908282118183101715620012fd57620012fd62001267565b816040528381528660208588010111156200131757600080fd5b6200132a8460208301602089016200127d565b9695505050505050565b600080600080608085870312156200134b57600080fd5b845160208601519094506001600160401b03808211156200136b57600080fd5b6200137988838901620012a3565b945060408701519150808211156200139057600080fd5b6200139e88838901620012a3565b93506060870151915080821115620013b557600080fd5b50620013c487828801620012a3565b91505092959194509250565b600181811c90821680620013e557607f821691505b6020821081036200140657634e487b7160e01b600052602260045260246000fd5b50919050565b601f821115620009b357600081815260208120601f850160051c81016020861015620014355750805b601f850160051c820191505b81811015620014565782815560010162001441565b505050505050565b81516001600160401b038111156200147a576200147a62001267565b62001492816200148b8454620013d0565b846200140c565b602080601f831160018114620014ca5760008415620014b15750858301515b600019600386901b1c1916600185901b17855562001456565b600085815260208120601f198616915b82811015620014fb57888601518255948401946001909101908401620014da565b50858210156200151a5787850151600019600388901b60f8161c191681555b5050505050600190811b01905550565b634e487b7160e01b600052603260045260246000fd5b634e487b7160e01b600052601160045260246000fd5b80820180821115620009d757620009d762001540565b8082028115828204841417620009d757620009d762001540565b600082620015a457634e487b7160e01b600052601260045260246000fd5b500490565b600060018201620015be57620015be62001540565b5060010190565b81810381811115620009d757620009d762001540565b600060018060a01b0380871683528086166020840152508360408301526080606083015282518060808401526200161a8160a08501602087016200127d565b601f01601f19169190910160a00195945050505050565b6000602082840312156200164457600080fd5b81516001600160e01b0319811681146200165d57600080fd5b9392505050565b634e487b7160e01b600052603160045260246000fd5b612cf0806200168a6000396000f3fe6080604052600436106102885760003560e01c80635c975abb1161015a578063a3227ce2116100c1578063c87b56dd1161007a578063c87b56dd14610743578063d5abeb0114610763578063e985e9c514610779578063e9e3a53e146107c2578063f2c4ce1e146107f8578063f2fde38b1461081857600080fd5b8063a3227ce2146106a3578063a475b5dd146106c3578063a945bf80146106d8578063b28c20d6146106ee578063b88d4fde14610703578063c4e8dde11461072357600080fd5b80637ed07e22116101135780637ed07e22146105fa5780637f00c7a6146106105780638da5cb5b14610630578063936b61641461064e57806395d89b411461066e578063a22cb4651461068357600080fd5b80635c975abb146105515780635ca1e165146105705780636352211e146105855780636ce4f760146105a557806370a08231146105c5578063715018a6146105e557600080fd5b806326092b83116101fe57806342842e0e116101b757806342842e0e14610491578063438b6300146104b157806344a0d68a146104de5780634f6ccce7146104fe578063518302271461051e5780635b885ed71461053e57600080fd5b806326092b83146104025780632f745c591461041c57806334472fe71461043c5780633ccfd60b146104515780633dec30d41461045957806341f434341461046f57600080fd5b8063095ea7b311610250578063095ea7b31461035357806313faede614610373578063162094c41461039757806318160ddd146103b7578063239c70ae146103cc57806323b872dd146103e257600080fd5b806301ffc9a71461028d57806302329a29146102c257806306fdde03146102e4578063081812fc14610306578063081c8c441461033e575b600080fd5b34801561029957600080fd5b506102ad6102a8366004612464565b610838565b60405190151581526020015b60405180910390f35b3480156102ce57600080fd5b506102e26102dd36600461248f565b610863565b005b3480156102f057600080fd5b506102f9610885565b6040516102b991906124f2565b34801561031257600080fd5b50610326610321366004612505565b610917565b6040516001600160a01b0390911681526020016102b9565b34801561034a57600080fd5b506102f961093e565b34801561035f57600080fd5b506102e261036e36600461253a565b6109cc565b34801561037f57600080fd5b50610389600d5481565b6040519081526020016102b9565b3480156103a357600080fd5b506102e26103b2366004612623565b610ae6565b3480156103c357600080fd5b50600954610389565b3480156103d857600080fd5b5061038960125481565b3480156103ee57600080fd5b506102e26103fd36600461266a565b610b62565b34801561040e57600080fd5b506013546102ad9060ff1681565b34801561042857600080fd5b5061038961043736600461253a565b610b8d565b34801561044857600080fd5b50601054610389565b6102e2610c23565b34801561046557600080fd5b5061038960115481565b34801561047b57600080fd5b506103266daaeb6d7670e522a718067333cd4e81565b34801561049d57600080fd5b506102e26104ac36600461266a565b610cba565b3480156104bd57600080fd5b506104d16104cc3660046126a6565b610cdf565b6040516102b991906126c1565b3480156104ea57600080fd5b506102e26104f9366004612505565b610d81565b34801561050a57600080fd5b50610389610519366004612505565b610d8e565b34801561052a57600080fd5b506013546102ad9062010000900460ff1681565b6102e261054c366004612785565b610e21565b34801561055d57600080fd5b506013546102ad90610100900460ff1681565b34801561057c57600080fd5b506103896113f5565b34801561059157600080fd5b506103266105a0366004612505565b611406565b3480156105b157600080fd5b506102e26105c036600461253a565b611466565b3480156105d157600080fd5b506103896105e03660046126a6565b61148a565b3480156105f157600080fd5b506102e2611510565b34801561060657600080fd5b5061038960105481565b34801561061c57600080fd5b506102e261062b366004612505565b611524565b34801561063c57600080fd5b506000546001600160a01b0316610326565b34801561065a57600080fd5b506102ad6106693660046127d5565b611531565b34801561067a57600080fd5b506102f9611547565b34801561068f57600080fd5b506102e261069e36600461281a565b611556565b3480156106af57600080fd5b506102e26106be366004612505565b611565565b3480156106cf57600080fd5b506102e2611572565b3480156106e457600080fd5b50610389600e5481565b3480156106fa57600080fd5b50601154610389565b34801561070f57600080fd5b506102e261071e366004612851565b61158d565b34801561072f57600080fd5b506102e261073e36600461248f565b6115ba565b34801561074f57600080fd5b506102f961075e366004612505565b6115d5565b34801561076f57600080fd5b50610389600f5481565b34801561078557600080fd5b506102ad6107943660046128cd565b6001600160a01b03918216600090815260066020908152604080832093909416825291909152205460ff1690565b3480156107ce57600080fd5b506103896107dd3660046126a6565b6001600160a01b031660009081526017602052604090205490565b34801561080457600080fd5b506102e2610813366004612900565b611704565b34801561082457600080fd5b506102e26108333660046126a6565b611718565b60006001600160e01b0319821663780e9d6360e01b148061085d575061085d8261183b565b92915050565b61086b61188b565b601380549115156101000261ff0019909216919091179055565b60606001805461089490612935565b80601f01602080910402602001604051908101604052809291908181526020018280546108c090612935565b801561090d5780601f106108e25761010080835404028352916020019161090d565b820191906000526020600020905b8154815290600101906020018083116108f057829003601f168201915b5050505050905090565b6000610922826118e5565b506000908152600560205260409020546001600160a01b031690565b6014805461094b90612935565b80601f016020809104026020016040519081016040528092919081815260200182805461097790612935565b80156109c45780601f10610999576101008083540402835291602001916109c4565b820191906000526020600020905b8154815290600101906020018083116109a757829003601f168201915b505050505081565b60006109d782611406565b9050806001600160a01b0316836001600160a01b031603610a495760405162461bcd60e51b815260206004820152602160248201527f4552433732313a20617070726f76616c20746f2063757272656e74206f776e656044820152603960f91b60648201526084015b60405180910390fd5b336001600160a01b0382161480610a655750610a658133610794565b610ad75760405162461bcd60e51b815260206004820152603d60248201527f4552433732313a20617070726f76652063616c6c6572206973206e6f7420746f60448201527f6b656e206f776e6572206f7220617070726f76656420666f7220616c6c0000006064820152608401610a40565b610ae18383611944565b505050565b6000828152600360205260409020546001600160a01b0316610b4a5760405162461bcd60e51b815260206004820152601c60248201527f55524920736574206f66206e6f6e6578697374656e7420746f6b656e000000006044820152606401610a40565b6000828152601660205260409020610ae182826129bd565b826001600160a01b0381163314610b7c57610b7c336119b2565b610b87848484611a6b565b50505050565b6000610b988361148a565b8210610bfa5760405162461bcd60e51b815260206004820152602b60248201527f455243373231456e756d657261626c653a206f776e657220696e646578206f7560448201526a74206f6620626f756e647360a81b6064820152608401610a40565b506001600160a01b03919091166000908152600760209081526040808320938352929052205490565b610c2b61188b565b600080546040516001600160a01b039091169047908381818185875af1925050503d8060008114610c78576040519150601f19603f3d011682016040523d82523d6000602084013e610c7d565b606091505b5050905080610cb75760405162461bcd60e51b81526020600482015260066024820152656e6f74206f7360d01b6044820152606401610a40565b50565b826001600160a01b0381163314610cd457610cd4336119b2565b610b87848484611a9c565b60606000610cec8361148a565b905060008167ffffffffffffffff811115610d0957610d09612564565b604051908082528060200260200182016040528015610d32578160200160208202803683370190505b50905060005b82811015610d7957610d4a8582610b8d565b828281518110610d5c57610d5c612a7d565b602090810291909101015280610d7181612aa9565b915050610d38565b509392505050565b610d8961188b565b600d55565b6000610d9960095490565b8210610dfc5760405162461bcd60e51b815260206004820152602c60248201527f455243373231456e756d657261626c653a20676c6f62616c20696e646578206f60448201526b7574206f6620626f756e647360a01b6064820152608401610a40565b60098281548110610e0f57610e0f612a7d565b90600052602060002001549050919050565b6000546001600160a01b03163314610ede57601354610100900460ff1615610e7f5760405162461bcd60e51b8152602060048201526011602482015270135a5b9d1a5b99c81a5cc81c185d5cd959607a1b6044820152606401610a40565b601254610e8d906001612ac2565b3360009081526017602052604090205410610ede5760405162461bcd60e51b8152602060048201526011602482015270115e18d95959081b585e081dd85b1b195d607a1b6044820152606401610a40565b60008311610f255760405162461bcd60e51b81526020600482015260146024820152730416d6f756e742068617320746f206265203e20360641b6044820152606401610a40565b600f5483610f3260095490565b610f3c9190612ac2565b1115610f755760405162461bcd60e51b815260206004820152600860248201526714d3d3110813d55560c21b6044820152606401610a40565b610f7f8282611531565b1515600114611137576000546001600160a01b0316331461105d5760135460ff16610fd65760405162461bcd60e51b8152602060048201526007602482015266215075626c696360c81b6044820152606401610a40565b60125483111561101a5760405162461bcd60e51b815260206004820152600f60248201526e082dadeeadce840d2e6407c40dac2f608b1b6044820152606401610a40565b600e54600d5461102a9190612ac2565b3410156110495760405162461bcd60e51b8152600401610a4090612ad5565b336000908152601760205260409020600290555b60005b8381101561113557336015600061107660095490565b611081906001612ac2565b815260200190815260200160002060006101000a8154816001600160a01b0302191690836001600160a01b031602179055506110d0336110c060095490565b6110cb906001612ac2565b611ab7565b601e600f5460115460646110e49190612afd565b6110ee9190612b14565b1061110d576010805490600061110383612aa9565b9190505550611123565b6011805490600061111d83612aa9565b91905055505b8061112d81612aa9565b915050611060565b505b6111418282611531565b1515600103610ae15733600090815260176020526040902054601254611168906001612ac2565b6111729190612b36565b8311156111b35760405162461bcd60e51b815260206004820152600f60248201526e082dadeeadce840d2e6407c40dac2f608b1b6044820152606401610a40565b82600214806111d15750336000908152601760205260409020546001145b156112a25760135460ff161561121557600e54600d546111f19190612ac2565b3410156112105760405162461bcd60e51b8152600401610a4090612ad5565b611237565b600d543410156112375760405162461bcd60e51b8152600401610a4090612ad5565b601e600f54601154606461124b9190612afd565b6112559190612b14565b106112a25760405162461bcd60e51b815260206004820181905260248201527f4164646974696f6e616c206d696e74696e67206c696d697420726561636865646044820152606401610a40565b60005b83811015610b875733601560006112bb60095490565b6112c6906001612ac2565b815260200190815260200160002060006101000a8154816001600160a01b0302191690836001600160a01b03160217905550611305336110c060095490565b336000908152601760205260409020541580156113225750836001145b15611341576010805490600061133783612aa9565b91905055506113c2565b3360009081526017602052604090205415801561135e5750836002145b15611388576010805490600061137383612aa9565b90915550506011805490600061133783612aa9565b3360009081526017602052604090205460011480156113a75750836001145b156113c257601180549060006113bc83612aa9565b91905055505b3360009081526017602052604081208054916113dd83612aa9565b919050555080806113ed90612aa9565b9150506112a5565b60006113ff61188b565b50600b5490565b6000818152600360205260408120546001600160a01b03168061085d5760405162461bcd60e51b8152602060048201526018602482015277115490cdcc8c4e881a5b9d985b1a59081d1bdad95b88125160421b6044820152606401610a40565b61146e61188b565b6001600160a01b03909116600090815260176020526040902055565b60006001600160a01b0382166114f45760405162461bcd60e51b815260206004820152602960248201527f4552433732313a2061646472657373207a65726f206973206e6f7420612076616044820152683634b21037bbb732b960b91b6064820152608401610a40565b506001600160a01b031660009081526004602052604090205490565b61151861188b565b6115226000611ad1565b565b61152c61188b565b601255565b600061154083600b548461178e565b9392505050565b60606002805461089490612935565b611561338383611b21565b5050565b61156d61188b565b600b55565b61157a61188b565b6013805462ff0000191662010000179055565b836001600160a01b03811633146115a7576115a7336119b2565b6115b385858585611bef565b5050505050565b6115c261188b565b6013805460ff1916911515919091179055565b6000818152600360205260409020546060906001600160a01b03166116545760405162461bcd60e51b815260206004820152602f60248201527f4552433732314d657461646174613a2055524920717565727920666f72206e6f60448201526e3732bc34b9ba32b73a103a37b5b2b760891b6064820152608401610a40565b60135462010000900460ff1615156000036116fb576014805461167690612935565b80601f01602080910402602001604051908101604052809291908181526020018280546116a290612935565b80156116ef5780601f106116c4576101008083540402835291602001916116ef565b820191906000526020600020905b8154815290600101906020018083116116d257829003601f168201915b50505050509050919050565b61085d826115d5565b61170c61188b565b601461156182826129bd565b61172061188b565b6001600160a01b0381166117855760405162461bcd60e51b815260206004820152602660248201527f4f776e61626c653a206e6577206f776e657220697320746865207a65726f206160448201526564647265737360d01b6064820152608401610a40565b610cb781611ad1565b60008261179b8584611c21565b14949350505050565b6001600160a01b03163b151590565b6001811115610b87576001600160a01b038416156117f9576001600160a01b038416600090815260046020526040812080548392906117f3908490612b36565b90915550505b6001600160a01b03831615610b87576001600160a01b03831660009081526004602052604081208054839290611830908490612ac2565b909155505050505050565b60006001600160e01b031982166380ac58cd60e01b148061186c57506001600160e01b03198216635b5e139f60e01b145b8061085d57506301ffc9a760e01b6001600160e01b031983161461085d565b6000546001600160a01b031633146115225760405162461bcd60e51b815260206004820181905260248201527f4f776e61626c653a2063616c6c6572206973206e6f7420746865206f776e65726044820152606401610a40565b6000818152600360205260409020546001600160a01b0316610cb75760405162461bcd60e51b8152602060048201526018602482015277115490cdcc8c4e881a5b9d985b1a59081d1bdad95b88125160421b6044820152606401610a40565b600081815260056020526040902080546001600160a01b0319166001600160a01b038416908117909155819061197982611406565b6001600160a01b03167f8c5be1e5ebec7d5bd14f71427d1e84f3dd0314c0f7b2291e5b200ac8c7c3b92560405160405180910390a45050565b6daaeb6d7670e522a718067333cd4e3b15610cb757604051633185c44d60e21b81523060048201526001600160a01b03821660248201526daaeb6d7670e522a718067333cd4e9063c617113490604401602060405180830381865afa158015611a1f573d6000803e3d6000fd5b505050506040513d601f19601f82011682018060405250810190611a439190612b49565b610cb757604051633b79c77360e21b81526001600160a01b0382166004820152602401610a40565b611a753382611c66565b611a915760405162461bcd60e51b8152600401610a4090612b66565b610ae1838383611ce5565b610ae18383836040518060200160405280600081525061158d565b611561828260405180602001604052806000815250611e56565b600080546001600160a01b038381166001600160a01b0319831681178455604051919092169283917f8be0079c531659141344cd1fd0a4f28419497f9722a3daafe3b4186f6b6457e09190a35050565b816001600160a01b0316836001600160a01b031603611b825760405162461bcd60e51b815260206004820152601960248201527f4552433732313a20617070726f766520746f2063616c6c6572000000000000006044820152606401610a40565b6001600160a01b03838116600081815260066020908152604080832094871680845294825291829020805460ff191686151590811790915591519182527f17307eab39ab6107e8899845ad3d59bd9653f200f220920489ca2b5937696c31910160405180910390a3505050565b611bf93383611c66565b611c155760405162461bcd60e51b8152600401610a4090612b66565b610b8784848484611e89565b600081815b8451811015610d7957611c5282868381518110611c4557611c45612a7d565b6020026020010151611ebc565b915080611c5e81612aa9565b915050611c26565b600080611c7283611406565b9050806001600160a01b0316846001600160a01b03161480611cb957506001600160a01b0380821660009081526006602090815260408083209388168352929052205460ff165b80611cdd5750836001600160a01b0316611cd284610917565b6001600160a01b0316145b949350505050565b826001600160a01b0316611cf882611406565b6001600160a01b031614611d1e5760405162461bcd60e51b8152600401610a4090612bb3565b6001600160a01b038216611d805760405162461bcd60e51b8152602060048201526024808201527f4552433732313a207472616e7366657220746f20746865207a65726f206164646044820152637265737360e01b6064820152608401610a40565b611d8d8383836001611eeb565b826001600160a01b0316611da082611406565b6001600160a01b031614611dc65760405162461bcd60e51b8152600401610a4090612bb3565b600081815260056020908152604080832080546001600160a01b03199081169091556001600160a01b0387811680865260048552838620805460001901905590871680865283862080546001019055868652600390945282852080549092168417909155905184937fddf252ad1be2c89b69c2b068fc378daa952ba7f163c4a11628f55a4df523b3ef91a4505050565b611e608383612024565b611e6d60008484846121bd565b610ae15760405162461bcd60e51b8152600401610a4090612bf8565b611e94848484611ce5565b611ea0848484846121bd565b610b875760405162461bcd60e51b8152600401610a4090612bf8565b6000818310611ed8576000828152602084905260409020611540565b6000838152602083905260409020611540565b611ef7848484846117b3565b6001811115611f665760405162461bcd60e51b815260206004820152603560248201527f455243373231456e756d657261626c653a20636f6e7365637574697665207472604482015274185b9cd9995c9cc81b9bdd081cdd5c1c1bdc9d1959605a1b6064820152608401610a40565b816001600160a01b038516611fc257611fbd81600980546000838152600a60205260408120829055600182018355919091527f6e1540171b6c0c960b71a7020d9f60077f6af931a8bbf590da0223dacf75c7af0155565b611fe5565b836001600160a01b0316856001600160a01b031614611fe557611fe585826122be565b6001600160a01b03841661200157611ffc8161235b565b6115b3565b846001600160a01b0316846001600160a01b0316146115b3576115b3848261240a565b6001600160a01b03821661207a5760405162461bcd60e51b815260206004820181905260248201527f4552433732313a206d696e7420746f20746865207a65726f20616464726573736044820152606401610a40565b6000818152600360205260409020546001600160a01b0316156120df5760405162461bcd60e51b815260206004820152601c60248201527f4552433732313a20746f6b656e20616c7265616479206d696e746564000000006044820152606401610a40565b6120ed600083836001611eeb565b6000818152600360205260409020546001600160a01b0316156121525760405162461bcd60e51b815260206004820152601c60248201527f4552433732313a20746f6b656e20616c7265616479206d696e746564000000006044820152606401610a40565b6001600160a01b038216600081815260046020908152604080832080546001019055848352600390915280822080546001600160a01b0319168417905551839291907fddf252ad1be2c89b69c2b068fc378daa952ba7f163c4a11628f55a4df523b3ef908290a45050565b60006001600160a01b0384163b156122b357604051630a85bd0160e11b81526001600160a01b0385169063150b7a0290612201903390899088908890600401612c4a565b6020604051808303816000875af192505050801561223c575060408051601f3d908101601f1916820190925261223991810190612c87565b60015b612299573d80801561226a576040519150601f19603f3d011682016040523d82523d6000602084013e61226f565b606091505b5080516000036122915760405162461bcd60e51b8152600401610a4090612bf8565b805181602001fd5b6001600160e01b031916630a85bd0160e11b149050611cdd565b506001949350505050565b600060016122cb8461148a565b6122d59190612b36565b600083815260086020526040902054909150808214612328576001600160a01b03841660009081526007602090815260408083208584528252808320548484528184208190558352600890915290208190555b5060009182526008602090815260408084208490556001600160a01b039094168352600781528383209183525290812055565b60095460009061236d90600190612b36565b6000838152600a60205260408120546009805493945090928490811061239557612395612a7d565b9060005260206000200154905080600983815481106123b6576123b6612a7d565b6000918252602080832090910192909255828152600a909152604080822084905585825281205560098054806123ee576123ee612ca4565b6001900381819060005260206000200160009055905550505050565b60006124158361148a565b6001600160a01b039093166000908152600760209081526040808320868452825280832085905593825260089052919091209190915550565b6001600160e01b031981168114610cb757600080fd5b60006020828403121561247657600080fd5b81356115408161244e565b8015158114610cb757600080fd5b6000602082840312156124a157600080fd5b813561154081612481565b6000815180845260005b818110156124d2576020818501810151868301820152016124b6565b506000602082860101526020601f19601f83011685010191505092915050565b60208152600061154060208301846124ac565b60006020828403121561251757600080fd5b5035919050565b80356001600160a01b038116811461253557600080fd5b919050565b6000806040838503121561254d57600080fd5b6125568361251e565b946020939093013593505050565b634e487b7160e01b600052604160045260246000fd5b604051601f8201601f1916810167ffffffffffffffff811182821017156125a3576125a3612564565b604052919050565b600067ffffffffffffffff8311156125c5576125c5612564565b6125d8601f8401601f191660200161257a565b90508281528383830111156125ec57600080fd5b828260208301376000602084830101529392505050565b600082601f83011261261457600080fd5b611540838335602085016125ab565b6000806040838503121561263657600080fd5b82359150602083013567ffffffffffffffff81111561265457600080fd5b61266085828601612603565b9150509250929050565b60008060006060848603121561267f57600080fd5b6126888461251e565b92506126966020850161251e565b9150604084013590509250925092565b6000602082840312156126b857600080fd5b6115408261251e565b6020808252825182820181905260009190848201906040850190845b818110156126f9578351835292840192918401916001016126dd565b50909695505050505050565b600082601f83011261271657600080fd5b8135602067ffffffffffffffff82111561273257612732612564565b8160051b61274182820161257a565b928352848101820192828101908785111561275b57600080fd5b83870192505b8483101561277a57823582529183019190830190612761565b979650505050505050565b60008060006060848603121561279a57600080fd5b83359250602084013567ffffffffffffffff8111156127b857600080fd5b6127c486828701612705565b925050604084013590509250925092565b600080604083850312156127e857600080fd5b823567ffffffffffffffff8111156127ff57600080fd5b61280b85828601612705565b95602094909401359450505050565b6000806040838503121561282d57600080fd5b6128368361251e565b9150602083013561284681612481565b809150509250929050565b6000806000806080858703121561286757600080fd5b6128708561251e565b935061287e6020860161251e565b925060408501359150606085013567ffffffffffffffff8111156128a157600080fd5b8501601f810187136128b257600080fd5b6128c1878235602084016125ab565b91505092959194509250565b600080604083850312156128e057600080fd5b6128e98361251e565b91506128f76020840161251e565b90509250929050565b60006020828403121561291257600080fd5b813567ffffffffffffffff81111561292957600080fd5b611cdd84828501612603565b600181811c9082168061294957607f821691505b60208210810361296957634e487b7160e01b600052602260045260246000fd5b50919050565b601f821115610ae157600081815260208120601f850160051c810160208610156129965750805b601f850160051c820191505b818110156129b5578281556001016129a2565b505050505050565b815167ffffffffffffffff8111156129d7576129d7612564565b6129eb816129e58454612935565b8461296f565b602080601f831160018114612a205760008415612a085750858301515b600019600386901b1c1916600185901b1785556129b5565b600085815260208120601f198616915b82811015612a4f57888601518255948401946001909101908401612a30565b5085821015612a6d5787850151600019600388901b60f8161c191681555b5050505050600190811b01905550565b634e487b7160e01b600052603260045260246000fd5b634e487b7160e01b600052601160045260246000fd5b600060018201612abb57612abb612a93565b5060010190565b8082018082111561085d5761085d612a93565b6020808252600e908201526d09cdee840cadcdeeaced0408aa8960931b604082015260600190565b808202811582820484141761085d5761085d612a93565b600082612b3157634e487b7160e01b600052601260045260246000fd5b500490565b8181038181111561085d5761085d612a93565b600060208284031215612b5b57600080fd5b815161154081612481565b6020808252602d908201527f4552433732313a2063616c6c6572206973206e6f7420746f6b656e206f776e6560408201526c1c881bdc88185c1c1c9bdd9959609a1b606082015260800190565b60208082526025908201527f4552433732313a207472616e736665722066726f6d20696e636f72726563742060408201526437bbb732b960d91b606082015260800190565b60208082526032908201527f4552433732313a207472616e7366657220746f206e6f6e20455243373231526560408201527131b2b4bb32b91034b6b83632b6b2b73a32b960711b606082015260800190565b6001600160a01b0385811682528416602082015260408101839052608060608201819052600090612c7d908301846124ac565b9695505050505050565b600060208284031215612c9957600080fd5b81516115408161244e565b634e487b7160e01b600052603160045260246000fdfea2646970667358221220b10977d4bfff8356a223912e2c70932bb2ec3f6461d263057447051418d6475964736f6c634300081100334552433732313a207472616e7366657220746f206e6f6e204552433732315265",
  "immutableReferences": {},
  "source": "// SPDX-License-Identifier: MIT\r\n\r\n//\r\n//\r\n//\r\n//\r\n//\r\n//\r\n\r\n//\r\n//\r\n//\r\n//\r\n//\r\n//\r\n\r\npragma solidity >=0.7.0 <0.9.0;\r\n\r\nimport \"@openzeppelin/contracts/access/Ownable.sol\";\r\nimport \"./DefaultOperatorFilterer.sol\";\r\nimport \"@openzeppelin/contracts/token/ERC721/extensions/ERC721Enumerable.sol\";\r\nimport \"@openzeppelin/contracts/utils/cryptography/MerkleProof.sol\";\r\n\r\n\r\n\r\ncontract GnomesCollective is Ownable, DefaultOperatorFilterer, ERC721Enumerable {\r\n  using Strings for uint256;\r\n  bytes32 root;\r\n  bytes32 emptyBytes32 = keccak256(abi.encodePacked(''));\r\n  uint256 public cost = 0.00888 ether;\r\n  uint256 public publicPrice = 0.00222 ether;\r\n  uint256 public maxSupply = 2888;\r\n  uint256 public mintedWL = 0;\r\n  uint256 public mintedAdditional = 0;\r\n  uint256 public maxMintAmount = 1;\r\n  bool public publicMint = false;\r\n  bool public paused = false;\r\n  bool public revealed = false;\r\n  string public notRevealedUri;\r\n  mapping(uint256 => address) private requestToSender;\r\n  mapping(uint256 => string) private _tokenURIs;\r\n  mapping(address => uint256) private walletMints;\r\n  \r\n\r\n  constructor(\r\n    bytes32 _root,\r\n    string memory _notRevealedUri,\r\n    string memory _name,\r\n    string memory _symbol\r\n  ) ERC721(_name, _symbol) { \r\n   bytes32[] memory proof = new bytes32[](2);\r\n   proof[0] = emptyBytes32;\r\n   proof[1] = emptyBytes32;\r\n   mint(10, proof, emptyBytes32);\r\n\r\n    root = _root;\r\n    notRevealedUri = _notRevealedUri;\r\n  }\r\n\r\n  function mint(uint256 _mintAmount, bytes32[] memory proof, bytes32 leaf ) public payable {\r\n    if(msg.sender != owner()){                                                 //@dev Constructor call for Treasure\r\n    require(!paused, 'Minting is paused');\r\n    require(walletMints[msg.sender] < maxMintAmount + 1, 'Exceed max wallet'); //@dev Whitelist can mint again after Free mint and before public\r\n    }\r\n    require(_mintAmount > 0, 'Amount has to be > 0');\r\n    require(totalSupply() + _mintAmount <= maxSupply, 'SOLD OUT');\r\n\r\n    if(LuckyGnomes(proof, leaf) != true) {\r\n        if(msg.sender != owner()){\r\n          require(publicMint, '!Public');\r\n          require(_mintAmount <= maxMintAmount, 'Amount is > max');\r\n          require(msg.value >= (cost + publicPrice), 'Not enough ETH');\r\n          walletMints[msg.sender]=2;\r\n          }\r\n          for (uint256 i=0; i<(_mintAmount); i++){\r\n        requestToSender[totalSupply() + 1] = msg.sender;\r\n        _safeMint(msg.sender, totalSupply() + 1);\r\n        if((mintedAdditional*100)/maxSupply >= 30) {\r\n            mintedWL++;\r\n        }else{\r\n          mintedAdditional++;\r\n        }\r\n      }\r\n    }\r\n    \r\n    if (LuckyGnomes(proof, leaf) == true) {\r\n      require(_mintAmount <= (maxMintAmount + 1 - walletMints[msg.sender]), 'Amount is > max');\r\n      if (_mintAmount == 2 || walletMints[msg.sender] == 1) {\r\n        if (publicMint){\r\n        require(msg.value >= cost + publicPrice, 'Not enough ETH');}\r\n        else {\r\n        require(msg.value >= cost, 'Not enough ETH');\r\n        }\r\n        if((mintedAdditional*100)/maxSupply >= 30) {\r\n            revert(\"Additional minting limit reached\");\r\n        }\r\n      }\r\n      for (uint256 i=0; i<(_mintAmount); i++){\r\n        requestToSender[totalSupply() + 1] = msg.sender;\r\n        _safeMint(msg.sender, totalSupply() + 1);\r\n        if (walletMints[msg.sender] == 0 && _mintAmount == 1) {\r\n        mintedWL++;\r\n        } else if (walletMints[msg.sender] == 0 && _mintAmount == 2) {\r\n        mintedWL++;\r\n        mintedAdditional++;\r\n        } else if (walletMints[msg.sender] == 1 && _mintAmount == 1) {\r\n        mintedAdditional++;\r\n        }\r\n        walletMints[msg.sender]++;\r\n       }\r\n      }\r\n  }\r\n  \r\n  function walletOfOwner(address _owner)\r\n    public\r\n    view\r\n    returns (uint256[] memory)\r\n  {\r\n    uint256 ownerTokenCount = balanceOf(_owner);\r\n    uint256[] memory tokenIds = new uint256[](ownerTokenCount);\r\n    for (uint256 i; i < ownerTokenCount; i++) {\r\n      tokenIds[i] = tokenOfOwnerByIndex(_owner, i);\r\n    }\r\n    return tokenIds;\r\n  }\r\n  \r\n  function tokenURI(uint256 tokenId)\r\n    public\r\n    view\r\n    virtual\r\n    override(ERC721)\r\n    returns (string memory)\r\n  {\r\n    require(\r\n      _exists(tokenId),\r\n      \"ERC721Metadata: URI query for nonexistent token\"\r\n    );\r\n    \r\n    if(revealed == false) {\r\n        return notRevealedUri;\r\n    }\r\n\r\n    return tokenURI(tokenId);\r\n  }\r\n\r\n  function _setroot(bytes32 _root)public onlyOwner {\r\n    root = _root;\r\n  }\r\n\r\n  function reveal() public onlyOwner {\r\n      revealed = true;\r\n  }\r\n  \r\n  function setCost(uint256 _newCost) public onlyOwner {\r\n    cost = _newCost;\r\n  }\r\n\r\n  function setTokenURI(uint256 tokenId, string memory _tokenURI) public {\r\n         require(_exists(tokenId), \"URI set of nonexistent token\");\r\n        _tokenURIs[tokenId] = _tokenURI;\r\n  }\r\n  function getRoot() public view onlyOwner returns(bytes32){\r\n    return root;\r\n  }\r\n  function setmaxMintAmount(uint256 _newmaxMintAmount) public onlyOwner {\r\n    maxMintAmount = _newmaxMintAmount;\r\n  }\r\n  \r\n  function setNotRevealedURI(string memory _notRevealedURI) public onlyOwner {\r\n    notRevealedUri = _notRevealedURI;\r\n  }\r\n\r\n  function pause(bool _state) public onlyOwner {\r\n    paused = _state;\r\n  }\r\n  \r\n  function _publicMint(bool _state) public onlyOwner {\r\n    publicMint = _state;\r\n  }\r\n\r\n  function withdraw() public payable onlyOwner {\r\n    (bool os, ) = payable(owner()).call{value: address(this).balance}(\"\");\r\n    require(os,'not os');\r\n  }\r\n\r\n  function setWalletMints (address _user, uint256 _state) public onlyOwner {\r\n    walletMints[_user] = _state;\r\n  }\r\n\r\n  function getWalletMints(address _user) view public returns (uint256 WalletMints) {\r\n    return walletMints[_user];\r\n  }\r\n\r\n  function getmintedWL() view public returns (uint256) {\r\n    return mintedWL;\r\n  }\r\n  function getmintedAdditional() view public returns (uint256) {\r\n    return mintedAdditional;\r\n  }\r\n  function transferFrom(\r\n        address from,\r\n        address to,\r\n        uint256 tokenId\r\n  ) public override(ERC721, IERC721) onlyAllowedOperator(from) {\r\n        super.transferFrom(from, to, tokenId);\r\n  }\r\n  \r\n    function safeTransferFrom(\r\n        address from,\r\n        address to,\r\n        uint256 tokenId\r\n    ) public override(ERC721, IERC721) onlyAllowedOperator(from) {\r\n        super.safeTransferFrom(from, to, tokenId);\r\n    }\r\n\r\nfunction safeTransferFrom(\r\n    address from,\r\n    address to,\r\n    uint256 tokenId,\r\n    bytes memory data\r\n) public override(ERC721, IERC721) onlyAllowedOperator(from) {\r\n    super.safeTransferFrom(from, to, tokenId, data);\r\n}\r\n\r\n function LuckyGnomes(bytes32[] memory proof, bytes32 leaf) public view returns(bool) {  \r\n return MerkleProof.verify(proof, root, leaf);\r\n}\r\n}\r\n//\r\n//\r\n//\r\n//\r\n//\r\n",
  "sourcePath": "C:\\GnomesCollective\\contracts\\GnomesCollective.sol",
  "compiler": {
    "name": "solc",
    "version": "0.8.17+commit.8df45f5f.Emscripten.clang"
  },
  "schemaVersion": "3.4.11",
  "updatedAt": "2023-01-29T07:24:44.281Z",
  "networkType": "ethereum",
  "devdoc": {
    "kind": "dev",
    "methods": {
      "approve(address,uint256)": {
        "details": "See {IERC721-approve}."
      },
      "balanceOf(address)": {
        "details": "See {IERC721-balanceOf}."
      },
      "getApproved(uint256)": {
        "details": "See {IERC721-getApproved}."
      },
      "isApprovedForAll(address,address)": {
        "details": "See {IERC721-isApprovedForAll}."
      },
      "name()": {
        "details": "See {IERC721Metadata-name}."
      },
      "owner()": {
        "details": "Returns the address of the current owner."
      },
      "ownerOf(uint256)": {
        "details": "See {IERC721-ownerOf}."
      },
      "renounceOwnership()": {
        "details": "Leaves the contract without owner. It will not be possible to call `onlyOwner` functions anymore. Can only be called by the current owner. NOTE: Renouncing ownership will leave the contract without an owner, thereby removing any functionality that is only available to the owner."
      },
      "setApprovalForAll(address,bool)": {
        "details": "See {IERC721-setApprovalForAll}."
      },
      "supportsInterface(bytes4)": {
        "details": "See {IERC165-supportsInterface}."
      },
      "symbol()": {
        "details": "See {IERC721Metadata-symbol}."
      },
      "tokenByIndex(uint256)": {
        "details": "See {IERC721Enumerable-tokenByIndex}."
      },
      "tokenOfOwnerByIndex(address,uint256)": {
        "details": "See {IERC721Enumerable-tokenOfOwnerByIndex}."
      },
      "tokenURI(uint256)": {
        "details": "See {IERC721Metadata-tokenURI}."
      },
      "totalSupply()": {
        "details": "See {IERC721Enumerable-totalSupply}."
      },
      "transferOwnership(address)": {
        "details": "Transfers ownership of the contract to a new account (`newOwner`). Can only be called by the current owner."
      }
    },
    "version": 1
  },
  "userdoc": {
    "kind": "user",
    "methods": {},
    "version": 1
  }
}