{
  "contractName": "NFT0066FF",
  "abi": [
    {
      "inputs": [
        {
          "internalType": "string",
          "name": "baseURI_",
          "type": "string"
        },
        {
          "internalType": "uint256",
          "name": "maxSupply_",
          "type": "uint256"
        },
        {
          "internalType": "uint256",
          "name": "maxMint_",
          "type": "uint256"
        }
      ],
      "stateMutability": "nonpayable",
      "type": "constructor"
    },
    {
      "inputs": [
        {
          "internalType": "address",
          "name": "operator",
          "type": "address"
        }
      ],
      "name": "OperatorNotAllowed",
      "type": "error"
    },
    {
      "anonymous": false,
      "inputs": [
        {
          "indexed": true,
          "internalType": "address",
          "name": "owner",
          "type": "address"
        },
        {
          "indexed": true,
          "internalType": "address",
          "name": "approved",
          "type": "address"
        },
        {
          "indexed": true,
          "internalType": "uint256",
          "name": "tokenId",
          "type": "uint256"
        }
      ],
      "name": "Approval",
      "type": "event"
    },
    {
      "anonymous": false,
      "inputs": [
        {
          "indexed": true,
          "internalType": "address",
          "name": "owner",
          "type": "address"
        },
        {
          "indexed": true,
          "internalType": "address",
          "name": "operator",
          "type": "address"
        },
        {
          "indexed": false,
          "internalType": "bool",
          "name": "approved",
          "type": "bool"
        }
      ],
      "name": "ApprovalForAll",
      "type": "event"
    },
    {
      "anonymous": false,
      "inputs": [
        {
          "indexed": true,
          "internalType": "address",
          "name": "previousOwner",
          "type": "address"
        },
        {
          "indexed": true,
          "internalType": "address",
          "name": "newOwner",
          "type": "address"
        }
      ],
      "name": "OwnershipTransferred",
      "type": "event"
    },
    {
      "anonymous": false,
      "inputs": [
        {
          "indexed": true,
          "internalType": "address",
          "name": "from",
          "type": "address"
        },
        {
          "indexed": true,
          "internalType": "address",
          "name": "to",
          "type": "address"
        },
        {
          "indexed": true,
          "internalType": "uint256",
          "name": "tokenId",
          "type": "uint256"
        }
      ],
      "name": "Transfer",
      "type": "event"
    },
    {
      "inputs": [],
      "name": "OPERATOR_FILTER_REGISTRY",
      "outputs": [
        {
          "internalType": "contract IOperatorFilterRegistry",
          "name": "",
          "type": "address"
        }
      ],
      "stateMutability": "view",
      "type": "function",
      "constant": true
    },
    {
      "inputs": [
        {
          "internalType": "address",
          "name": "to",
          "type": "address"
        },
        {
          "internalType": "uint256",
          "name": "tokenId",
          "type": "uint256"
        }
      ],
      "name": "approve",
      "outputs": [],
      "stateMutability": "nonpayable",
      "type": "function"
    },
    {
      "inputs": [
        {
          "internalType": "address",
          "name": "owner",
          "type": "address"
        }
      ],
      "name": "balanceOf",
      "outputs": [
        {
          "internalType": "uint256",
          "name": "",
          "type": "uint256"
        }
      ],
      "stateMutability": "view",
      "type": "function",
      "constant": true
    },
    {
      "inputs": [
        {
          "internalType": "uint256",
          "name": "tokenId",
          "type": "uint256"
        }
      ],
      "name": "getApproved",
      "outputs": [
        {
          "internalType": "address",
          "name": "",
          "type": "address"
        }
      ],
      "stateMutability": "view",
      "type": "function",
      "constant": true
    },
    {
      "inputs": [
        {
          "internalType": "address",
          "name": "owner",
          "type": "address"
        },
        {
          "internalType": "address",
          "name": "operator",
          "type": "address"
        }
      ],
      "name": "isApprovedForAll",
      "outputs": [
        {
          "internalType": "bool",
          "name": "",
          "type": "bool"
        }
      ],
      "stateMutability": "view",
      "type": "function",
      "constant": true
    },
    {
      "inputs": [],
      "name": "maxMint",
      "outputs": [
        {
          "internalType": "uint256",
          "name": "",
          "type": "uint256"
        }
      ],
      "stateMutability": "view",
      "type": "function",
      "constant": true
    },
    {
      "inputs": [],
      "name": "maxSupply",
      "outputs": [
        {
          "internalType": "uint256",
          "name": "",
          "type": "uint256"
        }
      ],
      "stateMutability": "view",
      "type": "function",
      "constant": true
    },
    {
      "inputs": [],
      "name": "name",
      "outputs": [
        {
          "internalType": "string",
          "name": "",
          "type": "string"
        }
      ],
      "stateMutability": "view",
      "type": "function",
      "constant": true
    },
    {
      "inputs": [],
      "name": "owner",
      "outputs": [
        {
          "internalType": "address",
          "name": "",
          "type": "address"
        }
      ],
      "stateMutability": "view",
      "type": "function",
      "constant": true
    },
    {
      "inputs": [
        {
          "internalType": "uint256",
          "name": "tokenId",
          "type": "uint256"
        }
      ],
      "name": "ownerOf",
      "outputs": [
        {
          "internalType": "address",
          "name": "",
          "type": "address"
        }
      ],
      "stateMutability": "view",
      "type": "function",
      "constant": true
    },
    {
      "inputs": [],
      "name": "price",
      "outputs": [
        {
          "internalType": "uint256",
          "name": "",
          "type": "uint256"
        }
      ],
      "stateMutability": "view",
      "type": "function",
      "constant": true
    },
    {
      "inputs": [],
      "name": "renounceOwnership",
      "outputs": [],
      "stateMutability": "nonpayable",
      "type": "function"
    },
    {
      "inputs": [
        {
          "internalType": "address",
          "name": "operator",
          "type": "address"
        },
        {
          "internalType": "bool",
          "name": "approved",
          "type": "bool"
        }
      ],
      "name": "setApprovalForAll",
      "outputs": [],
      "stateMutability": "nonpayable",
      "type": "function"
    },
    {
      "inputs": [
        {
          "internalType": "bytes4",
          "name": "interfaceId",
          "type": "bytes4"
        }
      ],
      "name": "supportsInterface",
      "outputs": [
        {
          "internalType": "bool",
          "name": "",
          "type": "bool"
        }
      ],
      "stateMutability": "view",
      "type": "function",
      "constant": true
    },
    {
      "inputs": [],
      "name": "symbol",
      "outputs": [
        {
          "internalType": "string",
          "name": "",
          "type": "string"
        }
      ],
      "stateMutability": "view",
      "type": "function",
      "constant": true
    },
    {
      "inputs": [
        {
          "internalType": "uint256",
          "name": "index",
          "type": "uint256"
        }
      ],
      "name": "tokenByIndex",
      "outputs": [
        {
          "internalType": "uint256",
          "name": "",
          "type": "uint256"
        }
      ],
      "stateMutability": "view",
      "type": "function",
      "constant": true
    },
    {
      "inputs": [],
      "name": "tokenIdCounter",
      "outputs": [
        {
          "internalType": "uint256",
          "name": "",
          "type": "uint256"
        }
      ],
      "stateMutability": "view",
      "type": "function",
      "constant": true
    },
    {
      "inputs": [
        {
          "internalType": "address",
          "name": "owner",
          "type": "address"
        },
        {
          "internalType": "uint256",
          "name": "index",
          "type": "uint256"
        }
      ],
      "name": "tokenOfOwnerByIndex",
      "outputs": [
        {
          "internalType": "uint256",
          "name": "",
          "type": "uint256"
        }
      ],
      "stateMutability": "view",
      "type": "function",
      "constant": true
    },
    {
      "inputs": [],
      "name": "totalSupply",
      "outputs": [
        {
          "internalType": "uint256",
          "name": "",
          "type": "uint256"
        }
      ],
      "stateMutability": "view",
      "type": "function",
      "constant": true
    },
    {
      "inputs": [
        {
          "internalType": "address",
          "name": "newOwner",
          "type": "address"
        }
      ],
      "name": "transferOwnership",
      "outputs": [],
      "stateMutability": "nonpayable",
      "type": "function"
    },
    {
      "inputs": [
        {
          "internalType": "uint256",
          "name": "quantity",
          "type": "uint256"
        }
      ],
      "name": "mint",
      "outputs": [],
      "stateMutability": "payable",
      "type": "function",
      "payable": true
    },
    {
      "inputs": [
        {
          "internalType": "string",
          "name": "baseURI_",
          "type": "string"
        }
      ],
      "name": "setbaseURI",
      "outputs": [],
      "stateMutability": "nonpayable",
      "type": "function"
    },
    {
      "inputs": [
        {
          "internalType": "uint256",
          "name": "tokenId",
          "type": "uint256"
        }
      ],
      "name": "tokenURI",
      "outputs": [
        {
          "internalType": "string",
          "name": "",
          "type": "string"
        }
      ],
      "stateMutability": "view",
      "type": "function",
      "constant": true
    },
    {
      "inputs": [],
      "name": "withdraw",
      "outputs": [],
      "stateMutability": "payable",
      "type": "function",
      "payable": true
    },
    {
      "inputs": [
        {
          "internalType": "address",
          "name": "from",
          "type": "address"
        },
        {
          "internalType": "address",
          "name": "to",
          "type": "address"
        },
        {
          "internalType": "uint256",
          "name": "tokenId",
          "type": "uint256"
        }
      ],
      "name": "transferFrom",
      "outputs": [],
      "stateMutability": "nonpayable",
      "type": "function"
    },
    {
      "inputs": [
        {
          "internalType": "address",
          "name": "from",
          "type": "address"
        },
        {
          "internalType": "address",
          "name": "to",
          "type": "address"
        },
        {
          "internalType": "uint256",
          "name": "tokenId",
          "type": "uint256"
        }
      ],
      "name": "safeTransferFrom",
      "outputs": [],
      "stateMutability": "nonpayable",
      "type": "function"
    },
    {
      "inputs": [
        {
          "internalType": "address",
          "name": "from",
          "type": "address"
        },
        {
          "internalType": "address",
          "name": "to",
          "type": "address"
        },
        {
          "internalType": "uint256",
          "name": "tokenId",
          "type": "uint256"
        },
        {
          "internalType": "bytes",
          "name": "data",
          "type": "bytes"
        }
      ],
      "name": "safeTransferFrom",
      "outputs": [],
      "stateMutability": "nonpayable",
      "type": "function"
    }
  ],
  "bytecode": "0x6080604052662386f26fc10000600e553480156200001b575f80fd5b5060405162002f5438038062002f548339810160408190526200003e9162000b40565b6040518060400160405280600981526020016827232a18181b1b232360b91b8152506040518060400160405280600981526020016827232a18181b1b232360b91b815250733cc6cdda760b79bafa08df41ecfa224f810dceb66001620000b3620000ad6200023f60201b60201c565b62000243565b6daaeb6d7670e522a718067333cd4e3b15620001ee5780156200014157604051633e9f1edf60e11b81523060048201526001600160a01b03831660248201526daaeb6d7670e522a718067333cd4e90637d3e3dbe906044015b5f604051808303815f87803b15801562000124575f80fd5b505af115801562000137573d5f803e3d5ffd5b50505050620001ee565b6001600160a01b03821615620001925760405163a0af290360e01b81523060048201526001600160a01b03831660248201526daaeb6d7670e522a718067333cd4e9063a0af2903906044016200010c565b604051632210724360e11b81523060048201526daaeb6d7670e522a718067333cd4e90634420e486906024015f604051808303815f87803b158015620001d6575f80fd5b505af1158015620001e9573d5f803e3d5ffd5b505050505b5060019050620001ff838262000c90565b5060026200020e828262000c90565b505050600b829055600d819055600f62000229848262000c90565b5062000236600a62000292565b50505062000e80565b3390565b5f80546001600160a01b038381166001600160a01b0319831681178455604051919092169283917f8be0079c531659141344cd1fd0a4f28419497f9722a3daafe3b4186f6b6457e09190a35050565b5f546001600160a01b03163314620002f957600e54620002b3908262000d6c565b341015620002f95760405162461bcd60e51b815260206004820152600e60248201526d09cdee840cadcdeeaced0408aa8960931b60448201526064015b60405180910390fd5b5f81116200034a5760405162461bcd60e51b815260206004820152601460248201527f416d6f756e742068617320746f206265203e20300000000000000000000000006044820152606401620002f0565b600b54816200035860095490565b62000364919062000d8c565b11156200039f5760405162461bcd60e51b815260206004820152600860248201526714d3d3110813d55560c21b6044820152606401620002f0565b5f5b8181101562000429573360105f620003b860095490565b620003c590600162000d8c565b815260208101919091526040015f2080546001600160a01b0319166001600160a01b039290921691909117905562000414336200040160095490565b6200040e90600162000d8c565b6200042d565b80620004208162000da2565b915050620003a1565b5050565b62000429828260405180602001604052805f8152506200044e60201b60201c565b6200045a8383620004c4565b620004685f84848462000661565b620004bf5760405162461bcd60e51b815260206004820152603260248201525f8051602062002f3483398151915260448201527131b2b4bb32b91034b6b83632b6b2b73a32b960711b6064820152608401620002f0565b505050565b6001600160a01b0382166200051c5760405162461bcd60e51b815260206004820181905260248201527f4552433732313a206d696e7420746f20746865207a65726f20616464726573736044820152606401620002f0565b5f818152600360205260409020546001600160a01b031615620005825760405162461bcd60e51b815260206004820152601c60248201527f4552433732313a20746f6b656e20616c7265616479206d696e746564000000006044820152606401620002f0565b620005915f83836001620007a4565b5f818152600360205260409020546001600160a01b031615620005f75760405162461bcd60e51b815260206004820152601c60248201527f4552433732313a20746f6b656e20616c7265616479206d696e746564000000006044820152606401620002f0565b6001600160a01b0382165f81815260046020908152604080832080546001019055848352600390915280822080546001600160a01b0319168417905551839291907fddf252ad1be2c89b69c2b068fc378daa952ba7f163c4a11628f55a4df523b3ef908290a45050565b5f6001600160a01b0384163b156200079857604051630a85bd0160e11b81526001600160a01b0385169063150b7a0290620006a790339089908890889060040162000dbd565b6020604051808303815f875af1925050508015620006e4575060408051601f3d908101601f19168201909252620006e19181019062000e12565b60015b6200077d573d80801562000714576040519150601f19603f3d011682016040523d82523d5f602084013e62000719565b606091505b5080515f03620007755760405162461bcd60e51b815260206004820152603260248201525f8051602062002f3483398151915260448201527131b2b4bb32b91034b6b83632b6b2b73a32b960711b6064820152608401620002f0565b805181602001fd5b6001600160e01b031916630a85bd0160e11b1490506200079c565b5060015b949350505050565b60018111156200081d5760405162461bcd60e51b815260206004820152603560248201527f455243373231456e756d657261626c653a20636f6e736563757469766520747260448201527f616e7366657273206e6f7420737570706f7274656400000000000000000000006064820152608401620002f0565b816001600160a01b0385166200087b576200087581600980545f838152600a60205260408120829055600182018355919091527f6e1540171b6c0c960b71a7020d9f60077f6af931a8bbf590da0223dacf75c7af0155565b620008a1565b836001600160a01b0316856001600160a01b031614620008a157620008a18582620008ee565b6001600160a01b038416620008c157620008bb816200098c565b620008e7565b846001600160a01b0316846001600160a01b031614620008e757620008e7848262000a3e565b5050505050565b5f6001620008fc8462000a82565b62000908919062000e42565b5f838152600860205260409020549091508082146200095a576001600160a01b0384165f9081526007602090815260408083208584528252808320548484528184208190558352600890915290208190555b505f9182526008602090815260408084208490556001600160a01b039094168352600781528383209183525290812055565b6009545f906200099f9060019062000e42565b5f838152600a602052604081205460098054939450909284908110620009c957620009c962000e58565b905f5260205f20015490508060098381548110620009eb57620009eb62000e58565b5f918252602080832090910192909255828152600a9091526040808220849055858252812055600980548062000a255762000a2562000e6c565b600190038181905f5260205f20015f9055905550505050565b5f62000a4a8362000a82565b6001600160a01b039093165f908152600760209081526040808320868452825280832085905593825260089052919091209190915550565b5f6001600160a01b03821662000aed5760405162461bcd60e51b815260206004820152602960248201527f4552433732313a2061646472657373207a65726f206973206e6f7420612076616044820152683634b21037bbb732b960b91b6064820152608401620002f0565b506001600160a01b03165f9081526004602052604090205490565b634e487b7160e01b5f52604160045260245ffd5b5f5b8381101562000b3857818101518382015260200162000b1e565b50505f910152565b5f805f6060848603121562000b53575f80fd5b83516001600160401b038082111562000b6a575f80fd5b818601915086601f83011262000b7e575f80fd5b81518181111562000b935762000b9362000b08565b604051601f8201601f19908116603f0116810190838211818310171562000bbe5762000bbe62000b08565b8160405282815289602084870101111562000bd7575f80fd5b62000bea83602083016020880162000b1c565b6020890151604090990151909a989950979650505050505050565b600181811c9082168062000c1a57607f821691505b60208210810362000c3957634e487b7160e01b5f52602260045260245ffd5b50919050565b601f821115620004bf575f81815260208120601f850160051c8101602086101562000c675750805b601f850160051c820191505b8181101562000c885782815560010162000c73565b505050505050565b81516001600160401b0381111562000cac5762000cac62000b08565b62000cc48162000cbd845462000c05565b8462000c3f565b602080601f83116001811462000cfa575f841562000ce25750858301515b5f19600386901b1c1916600185901b17855562000c88565b5f85815260208120601f198616915b8281101562000d2a5788860151825594840194600190910190840162000d09565b508582101562000d4857878501515f19600388901b60f8161c191681555b5050505050600190811b01905550565b634e487b7160e01b5f52601160045260245ffd5b808202811582820484141762000d865762000d8662000d58565b92915050565b8082018082111562000d865762000d8662000d58565b5f6001820162000db65762000db662000d58565b5060010190565b5f60018060a01b03808716835280861660208401525083604083015260806060830152825180608084015262000dfb8160a085016020870162000b1c565b601f01601f19169190910160a00195945050505050565b5f6020828403121562000e23575f80fd5b81516001600160e01b03198116811462000e3b575f80fd5b9392505050565b8181038181111562000d865762000d8662000d58565b634e487b7160e01b5f52603260045260245ffd5b634e487b7160e01b5f52603160045260245ffd5b6120a68062000e8e5f395ff3fe608060405260043610610195575f3560e01c806370a08231116100e7578063a0712d6811610087578063c87b56dd11610062578063c87b56dd1461043a578063d5abeb0114610459578063e985e9c51461046e578063f2fde38b146104b5575f80fd5b8063a0712d68146103e9578063a22cb465146103fc578063b88d4fde1461041b575f80fd5b80638da5cb5b116100c25780638da5cb5b1461038f57806395d89b41146103ab57806398bdf6f5146103bf578063a035b1fe146103d4575f80fd5b806370a0823114610347578063715018a6146103665780637501f7411461037a575f80fd5b80632f745c591161015257806342842e0e1161012d57806342842e0e146102cb5780634a44f379146102ea5780634f6ccce7146103095780636352211e14610328575f80fd5b80632f745c59146102835780633ccfd60b146102a257806341f43434146102aa575f80fd5b806301ffc9a71461019957806306fdde03146101cd578063081812fc146101ee578063095ea7b31461022557806318160ddd1461024657806323b872dd14610264575b5f80fd5b3480156101a4575f80fd5b506101b86101b3366004611998565b6104d4565b60405190151581526020015b60405180910390f35b3480156101d8575f80fd5b506101e16104fe565b6040516101c49190611a07565b3480156101f9575f80fd5b5061020d610208366004611a19565b61058e565b6040516001600160a01b0390911681526020016101c4565b348015610230575f80fd5b5061024461023f366004611a4b565b6105b3565b005b348015610251575f80fd5b506009545b6040519081526020016101c4565b34801561026f575f80fd5b5061024461027e366004611a73565b6106cc565b34801561028e575f80fd5b5061025661029d366004611a4b565b6106f7565b61024461078b565b3480156102b5575f80fd5b5061020d6daaeb6d7670e522a718067333cd4e81565b3480156102d6575f80fd5b506102446102e5366004611a73565b61082b565b3480156102f5575f80fd5b50610244610304366004611b33565b610850565b348015610314575f80fd5b50610256610323366004611a19565b610868565b348015610333575f80fd5b5061020d610342366004611a19565b6108f8565b348015610352575f80fd5b50610256610361366004611b78565b610957565b348015610371575f80fd5b506102446109db565b348015610385575f80fd5b50610256600d5481565b34801561039a575f80fd5b505f546001600160a01b031661020d565b3480156103b6575f80fd5b506101e16109ee565b3480156103ca575f80fd5b50610256600c5481565b3480156103df575f80fd5b50610256600e5481565b6102446103f7366004611a19565b6109fd565b348015610407575f80fd5b50610244610416366004611b9e565b610b72565b348015610426575f80fd5b50610244610435366004611bd3565b610b7d565b348015610445575f80fd5b506101e1610454366004611a19565b610baf565b348015610464575f80fd5b50610256600b5481565b348015610479575f80fd5b506101b8610488366004611c4a565b6001600160a01b039182165f90815260066020908152604080832093909416825291909152205460ff1690565b3480156104c0575f80fd5b506102446104cf366004611b78565b610c64565b5f6001600160e01b0319821663780e9d6360e01b14806104f857506104f882610cda565b92915050565b60606001805461050d90611c7b565b80601f016020809104026020016040519081016040528092919081815260200182805461053990611c7b565b80156105845780601f1061055b57610100808354040283529160200191610584565b820191905f5260205f20905b81548152906001019060200180831161056757829003601f168201915b5050505050905090565b5f61059882610d29565b505f908152600560205260409020546001600160a01b031690565b5f6105bd826108f8565b9050806001600160a01b0316836001600160a01b03160361062f5760405162461bcd60e51b815260206004820152602160248201527f4552433732313a20617070726f76616c20746f2063757272656e74206f776e656044820152603960f91b60648201526084015b60405180910390fd5b336001600160a01b038216148061064b575061064b8133610488565b6106bd5760405162461bcd60e51b815260206004820152603d60248201527f4552433732313a20617070726f76652063616c6c6572206973206e6f7420746f60448201527f6b656e206f776e6572206f7220617070726f76656420666f7220616c6c0000006064820152608401610626565b6106c78383610d87565b505050565b826001600160a01b03811633146106e6576106e633610df4565b6106f1848484610eab565b50505050565b5f61070183610957565b82106107635760405162461bcd60e51b815260206004820152602b60248201527f455243373231456e756d657261626c653a206f776e657220696e646578206f7560448201526a74206f6620626f756e647360a81b6064820152608401610626565b506001600160a01b03919091165f908152600760209081526040808320938352929052205490565b610793610edc565b5f80546040516001600160a01b039091169047908381818185875af1925050503d805f81146107dd576040519150601f19603f3d011682016040523d82523d5f602084013e6107e2565b606091505b50509050806108285760405162461bcd60e51b81526020600482015260126024820152714661696c656420746f20776974686472617760701b6044820152606401610626565b50565b826001600160a01b03811633146108455761084533610df4565b6106f1848484610f35565b610858610edc565b600f6108648282611d00565b5050565b5f61087260095490565b82106108d55760405162461bcd60e51b815260206004820152602c60248201527f455243373231456e756d657261626c653a20676c6f62616c20696e646578206f60448201526b7574206f6620626f756e647360a01b6064820152608401610626565b600982815481106108e8576108e8611dbc565b905f5260205f2001549050919050565b5f818152600360205260408120546001600160a01b0316806104f85760405162461bcd60e51b8152602060048201526018602482015277115490cdcc8c4e881a5b9d985b1a59081d1bdad95b88125160421b6044820152606401610626565b5f6001600160a01b0382166109c05760405162461bcd60e51b815260206004820152602960248201527f4552433732313a2061646472657373207a65726f206973206e6f7420612076616044820152683634b21037bbb732b960b91b6064820152608401610626565b506001600160a01b03165f9081526004602052604090205490565b6109e3610edc565b6109ec5f610f4f565b565b60606002805461050d90611c7b565b5f546001600160a01b03163314610a5b57600e54610a1b9082611de4565b341015610a5b5760405162461bcd60e51b815260206004820152600e60248201526d09cdee840cadcdeeaced0408aa8960931b6044820152606401610626565b5f8111610aa15760405162461bcd60e51b81526020600482015260146024820152730416d6f756e742068617320746f206265203e20360641b6044820152606401610626565b600b5481610aae60095490565b610ab89190611dfb565b1115610af15760405162461bcd60e51b815260206004820152600860248201526714d3d3110813d55560c21b6044820152606401610626565b5f5b81811015610864573360105f610b0860095490565b610b13906001611dfb565b81526020019081526020015f205f6101000a8154816001600160a01b0302191690836001600160a01b03160217905550610b6033610b5060095490565b610b5b906001611dfb565b610f9e565b80610b6a81611e0e565b915050610af3565b610864338383610fb7565b610b873383611084565b610ba35760405162461bcd60e51b815260040161062690611e26565b6106f184848484611101565b5f818152600360205260409020546060906001600160a01b0316610c2d5760405162461bcd60e51b815260206004820152602f60248201527f4552433732314d657461646174613a2055524920717565727920666f72206e6f60448201526e3732bc34b9ba32b73a103a37b5b2b760891b6064820152608401610626565b5f610c3783611134565b9050600f81604051602001610c4d929190611e8e565b604051602081830303815290604052915050919050565b610c6c610edc565b6001600160a01b038116610cd15760405162461bcd60e51b815260206004820152602660248201527f4f776e61626c653a206e6577206f776e657220697320746865207a65726f206160448201526564647265737360d01b6064820152608401610626565b61082881610f4f565b5f6001600160e01b031982166380ac58cd60e01b1480610d0a57506001600160e01b03198216635b5e139f60e01b145b806104f857506301ffc9a760e01b6001600160e01b03198316146104f8565b5f818152600360205260409020546001600160a01b03166108285760405162461bcd60e51b8152602060048201526018602482015277115490cdcc8c4e881a5b9d985b1a59081d1bdad95b88125160421b6044820152606401610626565b5f81815260056020526040902080546001600160a01b0319166001600160a01b0384169081179091558190610dbb826108f8565b6001600160a01b03167f8c5be1e5ebec7d5bd14f71427d1e84f3dd0314c0f7b2291e5b200ac8c7c3b92560405160405180910390a45050565b6daaeb6d7670e522a718067333cd4e3b1561082857604051633185c44d60e21b81523060048201526001600160a01b03821660248201526daaeb6d7670e522a718067333cd4e9063c617113490604401602060405180830381865afa158015610e5f573d5f803e3d5ffd5b505050506040513d601f19601f82011682018060405250810190610e839190611f40565b61082857604051633b79c77360e21b81526001600160a01b0382166004820152602401610626565b610eb53382611084565b610ed15760405162461bcd60e51b815260040161062690611e26565b6106c78383836111c4565b5f546001600160a01b031633146109ec5760405162461bcd60e51b815260206004820181905260248201527f4f776e61626c653a2063616c6c6572206973206e6f7420746865206f776e65726044820152606401610626565b6106c783838360405180602001604052805f815250610b7d565b5f80546001600160a01b038381166001600160a01b0319831681178455604051919092169283917f8be0079c531659141344cd1fd0a4f28419497f9722a3daafe3b4186f6b6457e09190a35050565b610864828260405180602001604052805f815250611333565b816001600160a01b0316836001600160a01b0316036110185760405162461bcd60e51b815260206004820152601960248201527f4552433732313a20617070726f766520746f2063616c6c6572000000000000006044820152606401610626565b6001600160a01b038381165f81815260066020908152604080832094871680845294825291829020805460ff191686151590811790915591519182527f17307eab39ab6107e8899845ad3d59bd9653f200f220920489ca2b5937696c31910160405180910390a3505050565b5f8061108f836108f8565b9050806001600160a01b0316846001600160a01b031614806110d557506001600160a01b038082165f9081526006602090815260408083209388168352929052205460ff165b806110f95750836001600160a01b03166110ee8461058e565b6001600160a01b0316145b949350505050565b61110c8484846111c4565b61111884848484611365565b6106f15760405162461bcd60e51b815260040161062690611f5b565b60605f61114083611462565b60010190505f8167ffffffffffffffff81111561115f5761115f611aac565b6040519080825280601f01601f191660200182016040528015611189576020820181803683370190505b5090508181016020015b5f19016f181899199a1a9b1b9c1cb0b131b232b360811b600a86061a8153600a850494508461119357509392505050565b826001600160a01b03166111d7826108f8565b6001600160a01b0316146111fd5760405162461bcd60e51b815260040161062690611fad565b6001600160a01b03821661125f5760405162461bcd60e51b8152602060048201526024808201527f4552433732313a207472616e7366657220746f20746865207a65726f206164646044820152637265737360e01b6064820152608401610626565b61126c8383836001611539565b826001600160a01b031661127f826108f8565b6001600160a01b0316146112a55760405162461bcd60e51b815260040161062690611fad565b5f81815260056020908152604080832080546001600160a01b03199081169091556001600160a01b038781168086526004855283862080545f1901905590871680865283862080546001019055868652600390945282852080549092168417909155905184937fddf252ad1be2c89b69c2b068fc378daa952ba7f163c4a11628f55a4df523b3ef91a4505050565b61133d838361166c565b6113495f848484611365565b6106c75760405162461bcd60e51b815260040161062690611f5b565b5f6001600160a01b0384163b1561145757604051630a85bd0160e11b81526001600160a01b0385169063150b7a02906113a8903390899088908890600401611ff2565b6020604051808303815f875af19250505080156113e2575060408051601f3d908101601f191682019092526113df9181019061202e565b60015b61143d573d80801561140f576040519150601f19603f3d011682016040523d82523d5f602084013e611414565b606091505b5080515f036114355760405162461bcd60e51b815260040161062690611f5b565b805181602001fd5b6001600160e01b031916630a85bd0160e11b1490506110f9565b506001949350505050565b5f8072184f03e93ff9f4daa797ed6e38ed64bf6a1f0160401b83106114a05772184f03e93ff9f4daa797ed6e38ed64bf6a1f0160401b830492506040015b6d04ee2d6d415b85acef810000000083106114cc576d04ee2d6d415b85acef8100000000830492506020015b662386f26fc1000083106114ea57662386f26fc10000830492506010015b6305f5e1008310611502576305f5e100830492506008015b612710831061151657612710830492506004015b60648310611528576064830492506002015b600a83106104f85760010192915050565b60018111156115a85760405162461bcd60e51b815260206004820152603560248201527f455243373231456e756d657261626c653a20636f6e7365637574697665207472604482015274185b9cd9995c9cc81b9bdd081cdd5c1c1bdc9d1959605a1b6064820152608401610626565b816001600160a01b038516611603576115fe81600980545f838152600a60205260408120829055600182018355919091527f6e1540171b6c0c960b71a7020d9f60077f6af931a8bbf590da0223dacf75c7af0155565b611626565b836001600160a01b0316856001600160a01b031614611626576116268582611801565b6001600160a01b0384166116425761163d8161189a565b611665565b846001600160a01b0316846001600160a01b031614611665576116658482611941565b5050505050565b6001600160a01b0382166116c25760405162461bcd60e51b815260206004820181905260248201527f4552433732313a206d696e7420746f20746865207a65726f20616464726573736044820152606401610626565b5f818152600360205260409020546001600160a01b0316156117265760405162461bcd60e51b815260206004820152601c60248201527f4552433732313a20746f6b656e20616c7265616479206d696e746564000000006044820152606401610626565b6117335f83836001611539565b5f818152600360205260409020546001600160a01b0316156117975760405162461bcd60e51b815260206004820152601c60248201527f4552433732313a20746f6b656e20616c7265616479206d696e746564000000006044820152606401610626565b6001600160a01b0382165f81815260046020908152604080832080546001019055848352600390915280822080546001600160a01b0319168417905551839291907fddf252ad1be2c89b69c2b068fc378daa952ba7f163c4a11628f55a4df523b3ef908290a45050565b5f600161180d84610957565b6118179190612049565b5f83815260086020526040902054909150808214611868576001600160a01b0384165f9081526007602090815260408083208584528252808320548484528184208190558352600890915290208190555b505f9182526008602090815260408084208490556001600160a01b039094168352600781528383209183525290812055565b6009545f906118ab90600190612049565b5f838152600a6020526040812054600980549394509092849081106118d2576118d2611dbc565b905f5260205f200154905080600983815481106118f1576118f1611dbc565b5f918252602080832090910192909255828152600a909152604080822084905585825281205560098054806119285761192861205c565b600190038181905f5260205f20015f9055905550505050565b5f61194b83610957565b6001600160a01b039093165f908152600760209081526040808320868452825280832085905593825260089052919091209190915550565b6001600160e01b031981168114610828575f80fd5b5f602082840312156119a8575f80fd5b81356119b381611983565b9392505050565b5f5b838110156119d45781810151838201526020016119bc565b50505f910152565b5f81518084526119f38160208601602086016119ba565b601f01601f19169290920160200192915050565b602081525f6119b360208301846119dc565b5f60208284031215611a29575f80fd5b5035919050565b80356001600160a01b0381168114611a46575f80fd5b919050565b5f8060408385031215611a5c575f80fd5b611a6583611a30565b946020939093013593505050565b5f805f60608486031215611a85575f80fd5b611a8e84611a30565b9250611a9c60208501611a30565b9150604084013590509250925092565b634e487b7160e01b5f52604160045260245ffd5b5f67ffffffffffffffff80841115611ada57611ada611aac565b604051601f8501601f19908116603f01168101908282118183101715611b0257611b02611aac565b81604052809350858152868686011115611b1a575f80fd5b858560208301375f602087830101525050509392505050565b5f60208284031215611b43575f80fd5b813567ffffffffffffffff811115611b59575f80fd5b8201601f81018413611b69575f80fd5b6110f984823560208401611ac0565b5f60208284031215611b88575f80fd5b6119b382611a30565b8015158114610828575f80fd5b5f8060408385031215611baf575f80fd5b611bb883611a30565b91506020830135611bc881611b91565b809150509250929050565b5f805f8060808587031215611be6575f80fd5b611bef85611a30565b9350611bfd60208601611a30565b925060408501359150606085013567ffffffffffffffff811115611c1f575f80fd5b8501601f81018713611c2f575f80fd5b611c3e87823560208401611ac0565b91505092959194509250565b5f8060408385031215611c5b575f80fd5b611c6483611a30565b9150611c7260208401611a30565b90509250929050565b600181811c90821680611c8f57607f821691505b602082108103611cad57634e487b7160e01b5f52602260045260245ffd5b50919050565b601f8211156106c7575f81815260208120601f850160051c81016020861015611cd95750805b601f850160051c820191505b81811015611cf857828155600101611ce5565b505050505050565b815167ffffffffffffffff811115611d1a57611d1a611aac565b611d2e81611d288454611c7b565b84611cb3565b602080601f831160018114611d61575f8415611d4a5750858301515b5f19600386901b1c1916600185901b178555611cf8565b5f85815260208120601f198616915b82811015611d8f57888601518255948401946001909101908401611d70565b5085821015611dac57878501515f19600388901b60f8161c191681555b5050505050600190811b01905550565b634e487b7160e01b5f52603260045260245ffd5b634e487b7160e01b5f52601160045260245ffd5b80820281158282048414176104f8576104f8611dd0565b808201808211156104f8576104f8611dd0565b5f60018201611e1f57611e1f611dd0565b5060010190565b6020808252602d908201527f4552433732313a2063616c6c6572206973206e6f7420746f6b656e206f776e6560408201526c1c881bdc88185c1c1c9bdd9959609a1b606082015260800190565b5f8151611e848185602086016119ba565b9290920192915050565b66697066733a2f2f60c81b81525f60075f8554611eaa81611c7b565b60018281168015611ec25760018114611edb57611f0b565b60ff198416888701528215158302880186019450611f0b565b895f526020805f205f5b85811015611f005781548b82018a0152908401908201611ee5565b505050858389010194505b50602f60f81b8452611f33611f228286018a611e73565b64173539b7b760d91b815260050190565b9998505050505050505050565b5f60208284031215611f50575f80fd5b81516119b381611b91565b60208082526032908201527f4552433732313a207472616e7366657220746f206e6f6e20455243373231526560408201527131b2b4bb32b91034b6b83632b6b2b73a32b960711b606082015260800190565b60208082526025908201527f4552433732313a207472616e736665722066726f6d20696e636f72726563742060408201526437bbb732b960d91b606082015260800190565b6001600160a01b03858116825284166020820152604081018390526080606082018190525f90612024908301846119dc565b9695505050505050565b5f6020828403121561203e575f80fd5b81516119b381611983565b818103818111156104f8576104f8611dd0565b634e487b7160e01b5f52603160045260245ffdfea26469706673582212208763cac5d4111930836abf1d1cd3cbfc3938ab8ebfa9c7b7f2113333658fb84964736f6c634300081400334552433732313a207472616e7366657220746f206e6f6e204552433732315265",
  "immutableReferences": {},
  "source": "// SPDX-License-Identifier: MIT\r\n\r\npragma solidity >=0.7.0 <0.9.0;\r\n\r\nimport \"@openzeppelin/contracts/access/Ownable.sol\";\r\nimport \"@openzeppelin/contracts/utils/Strings.sol\";\r\nimport \"@openzeppelin/contracts/token/ERC721/extensions/ERC721Enumerable.sol\";\r\nimport \"./DefaultOperatorFilterer.sol\";\r\n\r\ncontract NFT0066FF is Ownable, DefaultOperatorFilterer, ERC721Enumerable {\r\n    uint256 public maxSupply;\r\n    uint256 public tokenIdCounter;\r\n    uint256 public maxMint;\r\n    uint256 public price = 0.01 ether;\r\n    string private baseTokenURI;\r\n    mapping(uint256 => address) private requestToSender;\r\n        \r\n    constructor(\r\n        string memory baseURI_,\r\n        uint256 maxSupply_,\r\n        uint256 maxMint_\r\n    ) ERC721(\"NFT0066FF\",\"NFT0066FF\") {\r\n        maxSupply = maxSupply_;\r\n        maxMint = maxMint_;\r\n        baseTokenURI = baseURI_;\r\n        mint(10);\r\n    }\r\n\r\n    function mint(uint256 quantity) public payable {\r\n        if(msg.sender != owner()) {\r\n            require(msg.value >= quantity*price, 'Not enough ETH');\r\n        }\r\n        require(quantity > 0, 'Amount has to be > 0');\r\n        require(totalSupply() + quantity <= maxSupply, 'SOLD OUT');\r\n        for (uint256 i = 0; i < quantity; i++) {\r\n            requestToSender[totalSupply() + 1] = msg.sender;\r\n            _safeMint(msg.sender, totalSupply() + 1);\r\n        }\r\n    }\r\n\r\n    function baseURI() internal view returns (string memory) {\r\n        return baseTokenURI;\r\n    }\r\n\r\n    function setbaseURI(string memory baseURI_) public onlyOwner {\r\n        baseTokenURI= baseURI_;\r\n    }\r\n\r\n    function tokenURI(uint256 tokenId) public view virtual override(ERC721) returns (string memory) {\r\n        require(_exists(tokenId), \"ERC721Metadata: URI query for nonexistent token\");\r\n        string memory tokenIdStr = Strings.toString(tokenId);\r\n        return string(abi.encodePacked(\"ipfs://\", baseTokenURI, \"/\", tokenIdStr, \".json\"));\r\n    }\r\n\r\n    function withdraw() public payable onlyOwner {\r\n        (bool os, ) = payable(owner()).call{value: address(this).balance}(\"\");\r\n        require(os, \"Failed to withdraw\");\r\n    }\r\n\r\n    function transferFrom(\r\n        address from,\r\n        address to,\r\n        uint256 tokenId\r\n    ) public override(ERC721, IERC721) onlyAllowedOperator(from) {\r\n        super.transferFrom(from, to, tokenId);\r\n    }\r\n\r\n    function safeTransferFrom(\r\n        address from,\r\n        address to,\r\n        uint256 tokenId\r\n    ) public override(ERC721, IERC721) onlyAllowedOperator(from) {\r\n        super.safeTransferFrom(from, to, tokenId);\r\n    }\r\n}\r\n",
  "sourcePath": "C:\\#0066FF\\contracts\\NFT0066FF.sol",
  "compiler": {
    "name": "solc",
    "version": "0.8.20+commit.a1b79de6.Emscripten.clang"
  },
  "schemaVersion": "3.4.11",
  "updatedAt": "2023-06-08T07:59:04.307Z",
  "networkType": "ethereum",
  "devdoc": {
    "events": {
      "Approval(address,address,uint256)": {
        "details": "Emitted when `owner` enables `approved` to manage the `tokenId` token."
      },
      "ApprovalForAll(address,address,bool)": {
        "details": "Emitted when `owner` enables or disables (`approved`) `operator` to manage all of its assets."
      },
      "Transfer(address,address,uint256)": {
        "details": "Emitted when `tokenId` token is transferred from `from` to `to`."
      }
    },
    "kind": "dev",
    "methods": {
      "approve(address,uint256)": {
        "details": "See {IERC721-approve}."
      },
      "balanceOf(address)": {
        "details": "See {IERC721-balanceOf}."
      },
      "getApproved(uint256)": {
        "details": "See {IERC721-getApproved}."
      },
      "isApprovedForAll(address,address)": {
        "details": "See {IERC721-isApprovedForAll}."
      },
      "name()": {
        "details": "See {IERC721Metadata-name}."
      },
      "owner()": {
        "details": "Returns the address of the current owner."
      },
      "ownerOf(uint256)": {
        "details": "See {IERC721-ownerOf}."
      },
      "renounceOwnership()": {
        "details": "Leaves the contract without owner. It will not be possible to call `onlyOwner` functions. Can only be called by the current owner. NOTE: Renouncing ownership will leave the contract without an owner, thereby disabling any functionality that is only available to the owner."
      },
      "safeTransferFrom(address,address,uint256,bytes)": {
        "details": "See {IERC721-safeTransferFrom}."
      },
      "setApprovalForAll(address,bool)": {
        "details": "See {IERC721-setApprovalForAll}."
      },
      "supportsInterface(bytes4)": {
        "details": "See {IERC165-supportsInterface}."
      },
      "symbol()": {
        "details": "See {IERC721Metadata-symbol}."
      },
      "tokenByIndex(uint256)": {
        "details": "See {IERC721Enumerable-tokenByIndex}."
      },
      "tokenOfOwnerByIndex(address,uint256)": {
        "details": "See {IERC721Enumerable-tokenOfOwnerByIndex}."
      },
      "tokenURI(uint256)": {
        "details": "See {IERC721Metadata-tokenURI}."
      },
      "totalSupply()": {
        "details": "See {IERC721Enumerable-totalSupply}."
      },
      "transferOwnership(address)": {
        "details": "Transfers ownership of the contract to a new account (`newOwner`). Can only be called by the current owner."
      }
    },
    "version": 1
  },
  "userdoc": {
    "kind": "user",
    "methods": {},
    "version": 1
  }
}