{
	"data": {
		"bytecode": {
			"linkReferences": {},
			"object": "6080604052600560028190556003555f600855600a805461ffff19166101001790553480156200002d575f80fd5b50604051620022ef380380620022ef833981016040819052620000509162000106565b5f80546001600160a01b031916339081178255604051909182917f8be0079c531659141344cd1fd0a4f28419497f9722a3daafe3b4186f6b6457e0908290a350600d80546001600160a01b039384166001600160a01b031991821617909155600e80549290931691811691909117909155600c8054909116737034990879d4e4c0f9dade892ad641bc45dedbbf1790555f6001556200013c565b80516001600160a01b038116811462000101575f80fd5b919050565b5f806040838503121562000118575f80fd5b6200012383620000ea565b91506200013360208401620000ea565b90509250929050565b6121a5806200014a5f395ff3fe608060405234801561000f575f80fd5b50600436106102e5575f3560e01c80637812c4f511610195578063d56d229d116100e4578063e77f7b4b1161009e578063ef561bf511610079578063ef561bf51461066d578063f3a395fc14610675578063f7cb789a14610697578063fdc06ccf1461069f575f80fd5b8063e77f7b4b1461063a578063ec8f2e4d1461065c578063eea0902814610664575f80fd5b8063d56d229d146105d8578063d65cb04a146105eb578063dd49c004146105f4578063dd888545146105fd578063ddf0b00914610610578063e472d7d314610632575f80fd5b80638efabae61161014f578063a39f74491161012a578063a39f744914610596578063a8995deb1461059e578063aa12a619146105a6578063c1ae5e72146105c5575f80fd5b80638efabae6146105785780639d670c6d146105855780639f5cfe031461058d575f80fd5b80637812c4f5146105045780637d03f5f31461050d5780637d55d3041461051f578063893e2bd1146105275780638a015e30146105465780638da5cb5b14610568575f80fd5b8063472a20da1161025157806359dbfde81161020b5780636573c787116101e65780636573c787146104b45780636e2ed3c4146104d6578063709fa8f8146104e957806376a4956c146104f1575f80fd5b806359dbfde81461047657806360592066146104985780636352211e146104a1575f80fd5b8063472a20da146103d95780634ea61992146103ec57806351a2f687146103f457806354ca45d81461041f57806355a373d614610441578063580a155a14610454575f80fd5b80632f4960ee116102a25780632f4960ee1461037b578063306648e81461038357806333057537146103985780633b32edd4146103a057806340978d42146103b35780634433c468146103c6575f80fd5b8063039aa9cf146102e957806311c9080d146103205780631e2b0586146103375780632a303c79146103565780632ace2af51461035e5780632b1fbdff14610371575b5f80fd5b61030b6102f7366004611e07565b60156020525f908152604090205460ff1681565b60405190151581526020015b60405180910390f35b61032960065481565b604051908152602001610317565b610329610345366004611e07565b601a6020525f908152604090205481565b600b54610329565b61030b61036c366004611e07565b6106a7565b610379610719565b005b610379610794565b61038b610886565b6040516103179190611e1e565b61030b6108dc565b61030b6103ae366004611e07565b61092e565b6103796103c1366004611e61565b61095f565b6103296103d4366004611e61565b611120565b6103296103e7366004611e07565b611142565b610379611161565b600c54610407906001600160a01b031681565b6040516001600160a01b039091168152602001610317565b61030b61042d366004611e07565b60176020525f908152604090205460ff1681565b600e54610407906001600160a01b031681565b61030b610462366004611e07565b60166020525f908152604090205460ff1681565b61030b610484366004611e95565b600f6020525f908152604090205460ff1681565b61032960025481565b6104076104af366004611e07565b6111f1565b61030b6104c2366004611e07565b60126020525f908152604090205460ff1681565b61030b6104e4366004611e07565b61125c565b61032961128d565b6104076104ff366004611e07565b611392565b61032960045481565b600a5461030b90610100900460ff1681565b6103796113ba565b610329610535366004611e07565b601b6020525f908152604090205481565b61030b610554366004611e07565b60136020525f908152604090205460ff1681565b5f546001600160a01b0316610407565b600a5461030b9060ff1681565b610379611420565b61032960055481565b6103796114c2565b610329611531565b6103296105b4366004611e07565b60196020525f908152604090205481565b61030b6105d3366004611e07565b6115a1565b600d54610407906001600160a01b031681565b61032960085481565b61032960015481565b61037961060b366004611f25565b6115d2565b61030b61061e366004611e07565b60106020525f908152604090205460ff1681565b610379611891565b61030b610648366004611e07565b60116020525f908152604090205460ff1681565b6103796118f6565b61032960035481565b610329611ac6565b61030b610683366004611e07565b60146020525f908152604090205460ff1681565b610329600a81565b610379611b0f565b600e54604051632ace2af560e01b8152600481018390525f916001600160a01b031690632ace2af5906024015b602060405180830381865afa1580156106ef573d5f803e3d5ffd5b505050506040513d601f19601f82011682018060405250810190610713919061201f565b92915050565b600c546001600160a01b0316331461074c5760405162461bcd60e51b81526004016107439061203e565b60405180910390fd5b6009545f5b8181101561079057600980548061076a5761076a61208d565b600190038181905f5260205f20015f905590558080610788906120b5565b915050610751565b5050565b600c546001600160a01b031633146107be5760405162461bcd60e51b81526004016107439061203e565b5f60015b6107ca611531565b8111610839575f8181526010602052604090205460ff161580156107fc57505f8181526011602052604090205460ff16155b15610827575f818152601060205260409020805460ff1916600117905581610823816120b5565b9250505b80610831816120b5565b9150506107c2565b508060015f82825461084b91906120cd565b9091555050600a805461ff00191690556040517fe045608e87eadd2f9961a089f4c933adb62f8cc3fcbc9d23119c595d95d05bf3905f90a150565b606060098054806020026020016040519081016040528092919081815260200182805480156108d257602002820191905f5260205f20905b8154815260200190600101908083116108be575b5050505050905090565b600a545f90610100900460ff161561090f576108fa600a60066120e0565b60045461090791906120cd565b421015905090565b600a5460ff161561092957600a60045461090791906120cd565b505f90565b600e54604051630eccbb7560e21b8152600481018390525f916001600160a01b031690633b32edd4906024016106d4565b600c546001600160a01b031633146109895760405162461bcd60e51b81526004016107439061203e565b5f8281526011602052604090205460ff161580156109b557505f8181526011602052604090205460ff16155b610a0b5760405162461bcd60e51b815260206004820152602160248201527f426f7468204e465473206d75737420626520616c69766520746f20626174746c6044820152606560f81b6064820152608401610743565b6003545f83905260186020526005148015610a3157506003545f82905260186020526005145b610a875760405162461bcd60e51b815260206004820152602160248201527f496e76616c696420737461747320666f72206f6e65206f6620746865204e46546044820152607360f81b6064820152608401610743565b610a908261125c565b8015610aa25750610aa0816115a1565b155b80610ac35750610ab18161125c565b8015610ac35750610ac1826115a1565b155b15610b0057610ad28282611bc7565b5f918252601260205260408083208054600160ff199182168117909255928452922080549091169091179055565b5f82815260186020526040808220815160a08101928390529160059082845b815481526020019060010190808311610b1f575050505f85815260186020526040808220815160a08101928390529596509194935090915060059082845b815481526020019060010190808311610b5d5750505050509050610b808461092e565b15610c7657604080514260208201529081018590525f90600590606001604051602081830303815290604052805190602001205f1c610bbf91906120f7565b90505f60054287604051602001610bf39291909182526020820152691cd958dbdb9914dd185d60b21b6040820152604a0190565b60408051601f198184030181529190528051602090910120610c168460016120cd565b610c2091906120cd565b610c2a91906120f7565b5f878152601860205260409020909150600a908360058110610c4e57610c4e612116565b01555f868152601860205260409020600a908260058110610c7157610c71612116565b015550505b610c7f8361092e565b15610d7557604080514260208201529081018490525f90600590606001604051602081830303815290604052805190602001205f1c610cbe91906120f7565b90505f60054286604051602001610cf29291909182526020820152691cd958dbdb9914dd185d60b21b6040820152604a0190565b60408051601f198184030181529190528051602090910120610d158460016120cd565b610d1f91906120cd565b610d2991906120f7565b5f868152601860205260409020909150600a908360058110610d4d57610d4d612116565b01555f858152601860205260409020600a908260058110610d7057610d70612116565b015550505b610d7e846115a1565b15610dc5575f5b6005811015610dc3575f858152601860205260409020600a908260058110610daf57610daf612116565b015580610dbb816120b5565b915050610d85565b505b610dce836115a1565b15610e15575f5b6005811015610e13575f848152601860205260409020600a908260058110610dff57610dff612116565b015580610e0b816120b5565b915050610dd5565b505b5f84815260186020526040812060048101546003820154600283015460018401549354929391929091610e47916120cd565b610e5191906120cd565b610e5b91906120cd565b610e6591906120cd565b5f858152601860205260408120600481015460038201546002830154600184015493549596509394919390929091610e9d91906120cd565b610ea791906120cd565b610eb191906120cd565b610ebb91906120cd565b90505f610ec882846120cd565b11610f235760405162461bcd60e51b815260206004820152602560248201527f546f74616c20706f776572206d7573742062652067726561746572207468616e604482015264207a65726f60d81b6064820152608401610743565b5f6064610f3044426120cd565b610f3a91906120f7565b90505f82841115610f4f575060468110610f68565b82841015610f625750601e811015610f68565b50603281105b801561101b57610f77876106a7565b610f94575f878152601160205260409020805460ff191660011790555b5f888152601260209081526040808320805460ff191660019081179091556009805491820190557f6e1540171b6c0c960b71a7020d9f60077f6af931a8bbf590da0223dacf75c7af018b905560199091528120805491610ff3836120b5565b90915550505f878152601a60205260408120805491611011836120b5565b91905055506110c4565b611024886106a7565b611041575f888152601160205260409020805460ff191660011790555b5f878152601260209081526040808320805460ff191660019081179091556009805491820190557f6e1540171b6c0c960b71a7020d9f60077f6af931a8bbf590da0223dacf75c7af018a9055601990915281208054916110a0836120b5565b90915550505f888152601a602052604081208054916110be836120b5565b91905055505b5f8881526018602052604090206110dd90876005611db5565b505f8781526018602052604090206110f790866005611db5565b506111028888611bc7565b60068054905f611111836120b5565b91905055505050505050505050565b6018602052815f5260405f208160058110611139575f80fd5b01549150829050565b60098181548110611151575f80fd5b5f91825260209091200154905081565b600c546001600160a01b0316331461118b5760405162461bcd60e51b81526004016107439061203e565b60015b611196611531565b81116111c6575f818152601060205260408120805460ff19169055600155806111be816120b5565b91505061118e565b506040517f3984c48732886b85c3609f4771c475531ed8e67132a3f30c3555a372b3edd6b3905f90a1565b600d546040516331a9108f60e11b8152600481018390525f916001600160a01b031690636352211e90602401602060405180830381865afa158015611238573d5f803e3d5ffd5b505050506040513d601f19601f82011682018060405250810190610713919061212a565b600e54604051631b8bb4f160e21b8152600481018390525f916001600160a01b031690636e2ed3c4906024016106d4565b600c545f906001600160a01b031633146112b95760405162461bcd60e51b81526004016107439061203e565b5f60015b6112c5611531565b811161133a575f6112d5826111f1565b6001600160a01b0381165f908152600f602052604090205490915060ff16611327576001600160a01b0381165f908152600f60205260409020805460ff1916600117905582611323816120b5565b9350505b5080611332816120b5565b9150506112bd565b5060015b611346611531565b8111611387575f611356826111f1565b6001600160a01b03165f908152600f60205260409020805460ff19169055508061137f816120b5565b91505061133e565b506008819055905090565b600b81815481106113a1575f80fd5b5f918252602090912001546001600160a01b0316905081565b600c546001600160a01b031633146113e45760405162461bcd60e51b81526004016107439061203e565b4260048190556040519081527fd1dbb2ce8081405078443ef34dae718285114121a39370b14ef01b9d2b0a2083906020015b60405180910390a1565b600c546001600160a01b0316331461144a5760405162461bcd60e51b81526004016107439061203e565b60015b611455611531565b8111611497575f818152601160209081526040808320805460ff199081169091556012909252909120805490911690558061148f816120b5565b91505061144d565b506040517fc0a4569bdaa5bae3dabcabe5ac5c590863cad4bad443b5d2051d1d200f9fa4da905f90a1565b600c546001600160a01b031633146114ec5760405162461bcd60e51b81526004016107439061203e565b600a805460ff191660011790554260048190556040517f90e4e1076e66d07aad698457e7a86b4425881ab1586d63c00ba753f88757e9a8916114169190815260200190565b600d546040805163a8995deb60e01b815290515f926001600160a01b03169163a8995deb9160048083019260209291908290030181865afa158015611578573d5f803e3d5ffd5b505050506040513d601f19601f8201168201806040525081019061159c9190612145565b905090565b600e546040516360d72f3960e11b8152600481018390525f916001600160a01b03169063c1ae5e72906024016106d4565b600c546001600160a01b031633146115fc5760405162461bcd60e51b81526004016107439061203e565b600183101580156116805750600d5f9054906101000a90046001600160a01b03166001600160a01b031663d5abeb016040518163ffffffff1660e01b8152600401602060405180830381865afa158015611658573d5f803e3d5ffd5b505050506040513d601f19601f8201168201806040525081019061167c9190612145565b8311155b6116c35760405162461bcd60e51b815260206004820152601460248201527324b73b30b634b21039ba30b93a1034b73232bc1760611b6044820152606401610743565b5f821161171d5760405162461bcd60e51b815260206004820152602260248201527f42617463682073697a65206d7573742062652067726561746572207468616e20604482015261181760f11b6064820152608401610743565b5f600161172a84866120cd565b611734919061215c565b9050600d5f9054906101000a90046001600160a01b03166001600160a01b031663d5abeb016040518163ffffffff1660e01b8152600401602060405180830381865afa158015611786573d5f803e3d5ffd5b505050506040513d601f19601f820116820180604052508101906117aa9190612145565b8111156117f95760405162461bcd60e51b815260206004820152601c60248201527f456e6420696e6465782065786365656473206d6178537570706c792e000000006044820152606401610743565b835b81811161188a575f8181526013602052604090205460ff16611878575f611822868361215c565b905083818151811061183657611836612116565b602002602001015160185f8481526020019081526020015f2090600561185d929190611db5565b50505f818152601360205260409020805460ff191660011790555b80611882816120b5565b9150506117fb565b5050505050565b600c546001600160a01b031633146118bb5760405162461bcd60e51b81526004016107439061203e565b60015b6118c6611531565b81116118f3575f818152601260205260409020805460ff19169055806118eb816120b5565b9150506118be565b50565b600c546001600160a01b031633146119205760405162461bcd60e51b81526004016107439061203e565b60026001541015801561193657506119366108dc565b61193e575f80fd5b60058054905f61194d836120b5565b919050555061195a610719565b5f60015b6001548111611a25575f8181526010602052604090205460ff16801561199257505f8181526012602052604090205460ff16155b80156119ac57505f8181526011602052604090205460ff16155b15611a1357815f036119c057809150611a13565b5f6119d3826119ce856111f1565b611c2b565b905080156119ee576119e5838261095f565b5f929150611a11565b5f6119f883611d3f565b90508015611a0f57611a0a848261095f565b5f9392505b505b505b80611a1d816120b5565b91505061195e565b50600254611a31611ac6565b11611a8b57611a3e611b0f565b611a46611420565b611a4e611161565b5f6005819055600a805461ff0019166101001790556040517f4957baacfccf45d9f54657dc86692b68bea7155d1951bea16f81d430c5864f879190a15b611a936113ba565b611a9b611891565b6040517f0f44cf147798f94c1025f83ff5a888484a8f7de8328f57e099895c0dc605924a905f90a150565b5f8060015b6001548111611b09575f8181526011602052604090205460ff16611af75781611af3816120b5565b9250505b80611b01816120b5565b915050611acb565b50919050565b600c546001600160a01b03163314611b395760405162461bcd60e51b81526004016107439061203e565b60015b60015481116118f3575f8181526011602052604090205460ff16611bb557600b611b65826111f1565b81546001810183555f928352602080842090910180546001600160a01b0319166001600160a01b039390931692909217909155828252601b905260408120805491611baf836120b5565b91905055505b80611bbf816120b5565b915050611b3c565b600e546040516309eadbf560e01b815260048101849052602481018390526001600160a01b03909116906309eadbf5906044015f604051808303815f87803b158015611c11575f80fd5b505af1158015611c23573d5f803e3d5ffd5b505050505050565b5f805b6005811015611d3657600154604080514260208201529081018690525f9190606001604051602081830303815290604052805190602001205f1c611c7291906120f7565b611c7d9060016120cd565b5f8181526010602052604090205490915060ff168015611cab57505f8181526012602052604090205460ff16155b8015611cc557505f8181526011602052604090205460ff16155b8015611ceb5750836001600160a01b0316611cdf826111f1565b6001600160a01b031614155b8015611d155750611cfd8560016120cd565b81141580611d155750611d1160018661215c565b8114155b15611d235791506107139050565b5080611d2e816120b5565b915050611c2e565b505f9392505050565b5f815b6001548111611dad575f8181526010602052604090205460ff168015611d7657505f8181526012602052604090205460ff16155b8015611d9057505f8181526011602052604090205460ff16155b15611d9b5792915050565b80611da5816120b5565b915050611d42565b505f92915050565b8260058101928215611de3579160200282015b82811115611de3578251825591602001919060010190611dc8565b50611def929150611df3565b5090565b5b80821115611def575f8155600101611df4565b5f60208284031215611e17575f80fd5b5035919050565b602080825282518282018190525f9190848201906040850190845b81811015611e5557835183529284019291840191600101611e39565b50909695505050505050565b5f8060408385031215611e72575f80fd5b50508035926020909101359150565b6001600160a01b03811681146118f3575f80fd5b5f60208284031215611ea5575f80fd5b8135611eb081611e81565b9392505050565b634e487b7160e01b5f52604160045260245ffd5b60405160a0810167ffffffffffffffff81118282101715611eee57611eee611eb7565b60405290565b604051601f8201601f1916810167ffffffffffffffff81118282101715611f1d57611f1d611eb7565b604052919050565b5f805f60608486031215611f37575f80fd5b833592506020808501359250604085013567ffffffffffffffff80821115611f5d575f80fd5b8187019150601f8881840112611f71575f80fd5b823582811115611f8357611f83611eb7565b611f91858260051b01611ef4565b818152858101935060a091820285018601918b831115611faf575f80fd5b948601945b8286101561200e578b84870112611fca575f8081fd5b611fd2611ecb565b808288018e811115611fe3575f8081fd5b885b81811015611ffc5780358452928a01928a01611fe5565b50508652509485019493860193611fb4565b508096505050505050509250925092565b5f6020828403121561202f575f80fd5b81518015158114611eb0575f80fd5b6020808252602f908201527f4f6e6c79206d61696e74656e616e63652077616c6c65742063616e207065726660408201526e37b936903a3434b99030b1ba34b7b760891b606082015260800190565b634e487b7160e01b5f52603160045260245ffd5b634e487b7160e01b5f52601160045260245ffd5b5f600182016120c6576120c66120a1565b5060010190565b80820180821115610713576107136120a1565b8082028115828204841417610713576107136120a1565b5f8261211157634e487b7160e01b5f52601260045260245ffd5b500690565b634e487b7160e01b5f52603260045260245ffd5b5f6020828403121561213a575f80fd5b8151611eb081611e81565b5f60208284031215612155575f80fd5b5051919050565b81810381811115610713576107136120a156fea264697066735822122087ff8d57b5dc567787996094a2918d386a411b12cd3530dce8e07be0b79264c364736f6c63430008150033",
			"opcodes": "PUSH1 0x80 PUSH1 0x40 MSTORE PUSH1 0x5 PUSH1 0x2 DUP2 SWAP1 SSTORE PUSH1 0x3 SSTORE PUSH0 PUSH1 0x8 SSTORE PUSH1 0xA DUP1 SLOAD PUSH2 0xFFFF NOT AND PUSH2 0x100 OR SWAP1 SSTORE CALLVALUE DUP1 ISZERO PUSH3 0x2D JUMPI PUSH0 DUP1 REVERT JUMPDEST POP PUSH1 0x40 MLOAD PUSH3 0x22EF CODESIZE SUB DUP1 PUSH3 0x22EF DUP4 CODECOPY DUP2 ADD PUSH1 0x40 DUP2 SWAP1 MSTORE PUSH3 0x50 SWAP2 PUSH3 0x106 JUMP JUMPDEST PUSH0 DUP1 SLOAD PUSH1 0x1 PUSH1 0x1 PUSH1 0xA0 SHL SUB NOT AND CALLER SWAP1 DUP2 OR DUP3 SSTORE PUSH1 0x40 MLOAD SWAP1 SWAP2 DUP3 SWAP2 PUSH32 0x8BE0079C531659141344CD1FD0A4F28419497F9722A3DAAFE3B4186F6B6457E0 SWAP1 DUP3 SWAP1 LOG3 POP PUSH1 0xD DUP1 SLOAD PUSH1 0x1 PUSH1 0x1 PUSH1 0xA0 SHL SUB SWAP4 DUP5 AND PUSH1 0x1 PUSH1 0x1 PUSH1 0xA0 SHL SUB NOT SWAP2 DUP3 AND OR SWAP1 SWAP2 SSTORE PUSH1 0xE DUP1 SLOAD SWAP3 SWAP1 SWAP4 AND SWAP2 DUP2 AND SWAP2 SWAP1 SWAP2 OR SWAP1 SWAP2 SSTORE PUSH1 0xC DUP1 SLOAD SWAP1 SWAP2 AND PUSH20 0x7034990879D4E4C0F9DADE892AD641BC45DEDBBF OR SWAP1 SSTORE PUSH0 PUSH1 0x1 SSTORE PUSH3 0x13C JUMP JUMPDEST DUP1 MLOAD PUSH1 0x1 PUSH1 0x1 PUSH1 0xA0 SHL SUB DUP2 AND DUP2 EQ PUSH3 0x101 JUMPI PUSH0 DUP1 REVERT JUMPDEST SWAP2 SWAP1 POP JUMP JUMPDEST PUSH0 DUP1 PUSH1 0x40 DUP4 DUP6 SUB SLT ISZERO PUSH3 0x118 JUMPI PUSH0 DUP1 REVERT JUMPDEST PUSH3 0x123 DUP4 PUSH3 0xEA JUMP JUMPDEST SWAP2 POP PUSH3 0x133 PUSH1 0x20 DUP5 ADD PUSH3 0xEA JUMP JUMPDEST SWAP1 POP SWAP3 POP SWAP3 SWAP1 POP JUMP JUMPDEST PUSH2 0x21A5 DUP1 PUSH3 0x14A PUSH0 CODECOPY PUSH0 RETURN INVALID PUSH1 0x80 PUSH1 0x40 MSTORE CALLVALUE DUP1 ISZERO PUSH2 0xF JUMPI PUSH0 DUP1 REVERT JUMPDEST POP PUSH1 0x4 CALLDATASIZE LT PUSH2 0x2E5 JUMPI PUSH0 CALLDATALOAD PUSH1 0xE0 SHR DUP1 PUSH4 0x7812C4F5 GT PUSH2 0x195 JUMPI DUP1 PUSH4 0xD56D229D GT PUSH2 0xE4 JUMPI DUP1 PUSH4 0xE77F7B4B GT PUSH2 0x9E JUMPI DUP1 PUSH4 0xEF561BF5 GT PUSH2 0x79 JUMPI DUP1 PUSH4 0xEF561BF5 EQ PUSH2 0x66D JUMPI DUP1 PUSH4 0xF3A395FC EQ PUSH2 0x675 JUMPI DUP1 PUSH4 0xF7CB789A EQ PUSH2 0x697 JUMPI DUP1 PUSH4 0xFDC06CCF EQ PUSH2 0x69F JUMPI PUSH0 DUP1 REVERT JUMPDEST DUP1 PUSH4 0xE77F7B4B EQ PUSH2 0x63A JUMPI DUP1 PUSH4 0xEC8F2E4D EQ PUSH2 0x65C JUMPI DUP1 PUSH4 0xEEA09028 EQ PUSH2 0x664 JUMPI PUSH0 DUP1 REVERT JUMPDEST DUP1 PUSH4 0xD56D229D EQ PUSH2 0x5D8 JUMPI DUP1 PUSH4 0xD65CB04A EQ PUSH2 0x5EB JUMPI DUP1 PUSH4 0xDD49C004 EQ PUSH2 0x5F4 JUMPI DUP1 PUSH4 0xDD888545 EQ PUSH2 0x5FD JUMPI DUP1 PUSH4 0xDDF0B009 EQ PUSH2 0x610 JUMPI DUP1 PUSH4 0xE472D7D3 EQ PUSH2 0x632 JUMPI PUSH0 DUP1 REVERT JUMPDEST DUP1 PUSH4 0x8EFABAE6 GT PUSH2 0x14F JUMPI DUP1 PUSH4 0xA39F7449 GT PUSH2 0x12A JUMPI DUP1 PUSH4 0xA39F7449 EQ PUSH2 0x596 JUMPI DUP1 PUSH4 0xA8995DEB EQ PUSH2 0x59E JUMPI DUP1 PUSH4 0xAA12A619 EQ PUSH2 0x5A6 JUMPI DUP1 PUSH4 0xC1AE5E72 EQ PUSH2 0x5C5 JUMPI PUSH0 DUP1 REVERT JUMPDEST DUP1 PUSH4 0x8EFABAE6 EQ PUSH2 0x578 JUMPI DUP1 PUSH4 0x9D670C6D EQ PUSH2 0x585 JUMPI DUP1 PUSH4 0x9F5CFE03 EQ PUSH2 0x58D JUMPI PUSH0 DUP1 REVERT JUMPDEST DUP1 PUSH4 0x7812C4F5 EQ PUSH2 0x504 JUMPI DUP1 PUSH4 0x7D03F5F3 EQ PUSH2 0x50D JUMPI DUP1 PUSH4 0x7D55D304 EQ PUSH2 0x51F JUMPI DUP1 PUSH4 0x893E2BD1 EQ PUSH2 0x527 JUMPI DUP1 PUSH4 0x8A015E30 EQ PUSH2 0x546 JUMPI DUP1 PUSH4 0x8DA5CB5B EQ PUSH2 0x568 JUMPI PUSH0 DUP1 REVERT JUMPDEST DUP1 PUSH4 0x472A20DA GT PUSH2 0x251 JUMPI DUP1 PUSH4 0x59DBFDE8 GT PUSH2 0x20B JUMPI DUP1 PUSH4 0x6573C787 GT PUSH2 0x1E6 JUMPI DUP1 PUSH4 0x6573C787 EQ PUSH2 0x4B4 JUMPI DUP1 PUSH4 0x6E2ED3C4 EQ PUSH2 0x4D6 JUMPI DUP1 PUSH4 0x709FA8F8 EQ PUSH2 0x4E9 JUMPI DUP1 PUSH4 0x76A4956C EQ PUSH2 0x4F1 JUMPI PUSH0 DUP1 REVERT JUMPDEST DUP1 PUSH4 0x59DBFDE8 EQ PUSH2 0x476 JUMPI DUP1 PUSH4 0x60592066 EQ PUSH2 0x498 JUMPI DUP1 PUSH4 0x6352211E EQ PUSH2 0x4A1 JUMPI PUSH0 DUP1 REVERT JUMPDEST DUP1 PUSH4 0x472A20DA EQ PUSH2 0x3D9 JUMPI DUP1 PUSH4 0x4EA61992 EQ PUSH2 0x3EC JUMPI DUP1 PUSH4 0x51A2F687 EQ PUSH2 0x3F4 JUMPI DUP1 PUSH4 0x54CA45D8 EQ PUSH2 0x41F JUMPI DUP1 PUSH4 0x55A373D6 EQ PUSH2 0x441 JUMPI DUP1 PUSH4 0x580A155A EQ PUSH2 0x454 JUMPI PUSH0 DUP1 REVERT JUMPDEST DUP1 PUSH4 0x2F4960EE GT PUSH2 0x2A2 JUMPI DUP1 PUSH4 0x2F4960EE EQ PUSH2 0x37B JUMPI DUP1 PUSH4 0x306648E8 EQ PUSH2 0x383 JUMPI DUP1 PUSH4 0x33057537 EQ PUSH2 0x398 JUMPI DUP1 PUSH4 0x3B32EDD4 EQ PUSH2 0x3A0 JUMPI DUP1 PUSH4 0x40978D42 EQ PUSH2 0x3B3 JUMPI DUP1 PUSH4 0x4433C468 EQ PUSH2 0x3C6 JUMPI PUSH0 DUP1 REVERT JUMPDEST DUP1 PUSH4 0x39AA9CF EQ PUSH2 0x2E9 JUMPI DUP1 PUSH4 0x11C9080D EQ PUSH2 0x320 JUMPI DUP1 PUSH4 0x1E2B0586 EQ PUSH2 0x337 JUMPI DUP1 PUSH4 0x2A303C79 EQ PUSH2 0x356 JUMPI DUP1 PUSH4 0x2ACE2AF5 EQ PUSH2 0x35E JUMPI DUP1 PUSH4 0x2B1FBDFF EQ PUSH2 0x371 JUMPI JUMPDEST PUSH0 DUP1 REVERT JUMPDEST PUSH2 0x30B PUSH2 0x2F7 CALLDATASIZE PUSH1 0x4 PUSH2 0x1E07 JUMP JUMPDEST PUSH1 0x15 PUSH1 0x20 MSTORE PUSH0 SWAP1 DUP2 MSTORE PUSH1 0x40 SWAP1 KECCAK256 SLOAD PUSH1 0xFF AND DUP2 JUMP JUMPDEST PUSH1 0x40 MLOAD SWAP1 ISZERO ISZERO DUP2 MSTORE PUSH1 0x20 ADD JUMPDEST PUSH1 0x40 MLOAD DUP1 SWAP2 SUB SWAP1 RETURN JUMPDEST PUSH2 0x329 PUSH1 0x6 SLOAD DUP2 JUMP JUMPDEST PUSH1 0x40 MLOAD SWAP1 DUP2 MSTORE PUSH1 0x20 ADD PUSH2 0x317 JUMP JUMPDEST PUSH2 0x329 PUSH2 0x345 CALLDATASIZE PUSH1 0x4 PUSH2 0x1E07 JUMP JUMPDEST PUSH1 0x1A PUSH1 0x20 MSTORE PUSH0 SWAP1 DUP2 MSTORE PUSH1 0x40 SWAP1 KECCAK256 SLOAD DUP2 JUMP JUMPDEST PUSH1 0xB SLOAD PUSH2 0x329 JUMP JUMPDEST PUSH2 0x30B PUSH2 0x36C CALLDATASIZE PUSH1 0x4 PUSH2 0x1E07 JUMP JUMPDEST PUSH2 0x6A7 JUMP JUMPDEST PUSH2 0x379 PUSH2 0x719 JUMP JUMPDEST STOP JUMPDEST PUSH2 0x379 PUSH2 0x794 JUMP JUMPDEST PUSH2 0x38B PUSH2 0x886 JUMP JUMPDEST PUSH1 0x40 MLOAD PUSH2 0x317 SWAP2 SWAP1 PUSH2 0x1E1E JUMP JUMPDEST PUSH2 0x30B PUSH2 0x8DC JUMP JUMPDEST PUSH2 0x30B PUSH2 0x3AE CALLDATASIZE PUSH1 0x4 PUSH2 0x1E07 JUMP JUMPDEST PUSH2 0x92E JUMP JUMPDEST PUSH2 0x379 PUSH2 0x3C1 CALLDATASIZE PUSH1 0x4 PUSH2 0x1E61 JUMP JUMPDEST PUSH2 0x95F JUMP JUMPDEST PUSH2 0x329 PUSH2 0x3D4 CALLDATASIZE PUSH1 0x4 PUSH2 0x1E61 JUMP JUMPDEST PUSH2 0x1120 JUMP JUMPDEST PUSH2 0x329 PUSH2 0x3E7 CALLDATASIZE PUSH1 0x4 PUSH2 0x1E07 JUMP JUMPDEST PUSH2 0x1142 JUMP JUMPDEST PUSH2 0x379 PUSH2 0x1161 JUMP JUMPDEST PUSH1 0xC SLOAD PUSH2 0x407 SWAP1 PUSH1 0x1 PUSH1 0x1 PUSH1 0xA0 SHL SUB AND DUP2 JUMP JUMPDEST PUSH1 0x40 MLOAD PUSH1 0x1 PUSH1 0x1 PUSH1 0xA0 SHL SUB SWAP1 SWAP2 AND DUP2 MSTORE PUSH1 0x20 ADD PUSH2 0x317 JUMP JUMPDEST PUSH2 0x30B PUSH2 0x42D CALLDATASIZE PUSH1 0x4 PUSH2 0x1E07 JUMP JUMPDEST PUSH1 0x17 PUSH1 0x20 MSTORE PUSH0 SWAP1 DUP2 MSTORE PUSH1 0x40 SWAP1 KECCAK256 SLOAD PUSH1 0xFF AND DUP2 JUMP JUMPDEST PUSH1 0xE SLOAD PUSH2 0x407 SWAP1 PUSH1 0x1 PUSH1 0x1 PUSH1 0xA0 SHL SUB AND DUP2 JUMP JUMPDEST PUSH2 0x30B PUSH2 0x462 CALLDATASIZE PUSH1 0x4 PUSH2 0x1E07 JUMP JUMPDEST PUSH1 0x16 PUSH1 0x20 MSTORE PUSH0 SWAP1 DUP2 MSTORE PUSH1 0x40 SWAP1 KECCAK256 SLOAD PUSH1 0xFF AND DUP2 JUMP JUMPDEST PUSH2 0x30B PUSH2 0x484 CALLDATASIZE PUSH1 0x4 PUSH2 0x1E95 JUMP JUMPDEST PUSH1 0xF PUSH1 0x20 MSTORE PUSH0 SWAP1 DUP2 MSTORE PUSH1 0x40 SWAP1 KECCAK256 SLOAD PUSH1 0xFF AND DUP2 JUMP JUMPDEST PUSH2 0x329 PUSH1 0x2 SLOAD DUP2 JUMP JUMPDEST PUSH2 0x407 PUSH2 0x4AF CALLDATASIZE PUSH1 0x4 PUSH2 0x1E07 JUMP JUMPDEST PUSH2 0x11F1 JUMP JUMPDEST PUSH2 0x30B PUSH2 0x4C2 CALLDATASIZE PUSH1 0x4 PUSH2 0x1E07 JUMP JUMPDEST PUSH1 0x12 PUSH1 0x20 MSTORE PUSH0 SWAP1 DUP2 MSTORE PUSH1 0x40 SWAP1 KECCAK256 SLOAD PUSH1 0xFF AND DUP2 JUMP JUMPDEST PUSH2 0x30B PUSH2 0x4E4 CALLDATASIZE PUSH1 0x4 PUSH2 0x1E07 JUMP JUMPDEST PUSH2 0x125C JUMP JUMPDEST PUSH2 0x329 PUSH2 0x128D JUMP JUMPDEST PUSH2 0x407 PUSH2 0x4FF CALLDATASIZE PUSH1 0x4 PUSH2 0x1E07 JUMP JUMPDEST PUSH2 0x1392 JUMP JUMPDEST PUSH2 0x329 PUSH1 0x4 SLOAD DUP2 JUMP JUMPDEST PUSH1 0xA SLOAD PUSH2 0x30B SWAP1 PUSH2 0x100 SWAP1 DIV PUSH1 0xFF AND DUP2 JUMP JUMPDEST PUSH2 0x379 PUSH2 0x13BA JUMP JUMPDEST PUSH2 0x329 PUSH2 0x535 CALLDATASIZE PUSH1 0x4 PUSH2 0x1E07 JUMP JUMPDEST PUSH1 0x1B PUSH1 0x20 MSTORE PUSH0 SWAP1 DUP2 MSTORE PUSH1 0x40 SWAP1 KECCAK256 SLOAD DUP2 JUMP JUMPDEST PUSH2 0x30B PUSH2 0x554 CALLDATASIZE PUSH1 0x4 PUSH2 0x1E07 JUMP JUMPDEST PUSH1 0x13 PUSH1 0x20 MSTORE PUSH0 SWAP1 DUP2 MSTORE PUSH1 0x40 SWAP1 KECCAK256 SLOAD PUSH1 0xFF AND DUP2 JUMP JUMPDEST PUSH0 SLOAD PUSH1 0x1 PUSH1 0x1 PUSH1 0xA0 SHL SUB AND PUSH2 0x407 JUMP JUMPDEST PUSH1 0xA SLOAD PUSH2 0x30B SWAP1 PUSH1 0xFF AND DUP2 JUMP JUMPDEST PUSH2 0x379 PUSH2 0x1420 JUMP JUMPDEST PUSH2 0x329 PUSH1 0x5 SLOAD DUP2 JUMP JUMPDEST PUSH2 0x379 PUSH2 0x14C2 JUMP JUMPDEST PUSH2 0x329 PUSH2 0x1531 JUMP JUMPDEST PUSH2 0x329 PUSH2 0x5B4 CALLDATASIZE PUSH1 0x4 PUSH2 0x1E07 JUMP JUMPDEST PUSH1 0x19 PUSH1 0x20 MSTORE PUSH0 SWAP1 DUP2 MSTORE PUSH1 0x40 SWAP1 KECCAK256 SLOAD DUP2 JUMP JUMPDEST PUSH2 0x30B PUSH2 0x5D3 CALLDATASIZE PUSH1 0x4 PUSH2 0x1E07 JUMP JUMPDEST PUSH2 0x15A1 JUMP JUMPDEST PUSH1 0xD SLOAD PUSH2 0x407 SWAP1 PUSH1 0x1 PUSH1 0x1 PUSH1 0xA0 SHL SUB AND DUP2 JUMP JUMPDEST PUSH2 0x329 PUSH1 0x8 SLOAD DUP2 JUMP JUMPDEST PUSH2 0x329 PUSH1 0x1 SLOAD DUP2 JUMP JUMPDEST PUSH2 0x379 PUSH2 0x60B CALLDATASIZE PUSH1 0x4 PUSH2 0x1F25 JUMP JUMPDEST PUSH2 0x15D2 JUMP JUMPDEST PUSH2 0x30B PUSH2 0x61E CALLDATASIZE PUSH1 0x4 PUSH2 0x1E07 JUMP JUMPDEST PUSH1 0x10 PUSH1 0x20 MSTORE PUSH0 SWAP1 DUP2 MSTORE PUSH1 0x40 SWAP1 KECCAK256 SLOAD PUSH1 0xFF AND DUP2 JUMP JUMPDEST PUSH2 0x379 PUSH2 0x1891 JUMP JUMPDEST PUSH2 0x30B PUSH2 0x648 CALLDATASIZE PUSH1 0x4 PUSH2 0x1E07 JUMP JUMPDEST PUSH1 0x11 PUSH1 0x20 MSTORE PUSH0 SWAP1 DUP2 MSTORE PUSH1 0x40 SWAP1 KECCAK256 SLOAD PUSH1 0xFF AND DUP2 JUMP JUMPDEST PUSH2 0x379 PUSH2 0x18F6 JUMP JUMPDEST PUSH2 0x329 PUSH1 0x3 SLOAD DUP2 JUMP JUMPDEST PUSH2 0x329 PUSH2 0x1AC6 JUMP JUMPDEST PUSH2 0x30B PUSH2 0x683 CALLDATASIZE PUSH1 0x4 PUSH2 0x1E07 JUMP JUMPDEST PUSH1 0x14 PUSH1 0x20 MSTORE PUSH0 SWAP1 DUP2 MSTORE PUSH1 0x40 SWAP1 KECCAK256 SLOAD PUSH1 0xFF AND DUP2 JUMP JUMPDEST PUSH2 0x329 PUSH1 0xA DUP2 JUMP JUMPDEST PUSH2 0x379 PUSH2 0x1B0F JUMP JUMPDEST PUSH1 0xE SLOAD PUSH1 0x40 MLOAD PUSH4 0x2ACE2AF5 PUSH1 0xE0 SHL DUP2 MSTORE PUSH1 0x4 DUP2 ADD DUP4 SWAP1 MSTORE PUSH0 SWAP2 PUSH1 0x1 PUSH1 0x1 PUSH1 0xA0 SHL SUB AND SWAP1 PUSH4 0x2ACE2AF5 SWAP1 PUSH1 0x24 ADD JUMPDEST PUSH1 0x20 PUSH1 0x40 MLOAD DUP1 DUP4 SUB DUP2 DUP7 GAS STATICCALL ISZERO DUP1 ISZERO PUSH2 0x6EF JUMPI RETURNDATASIZE PUSH0 DUP1 RETURNDATACOPY RETURNDATASIZE PUSH0 REVERT JUMPDEST POP POP POP POP PUSH1 0x40 MLOAD RETURNDATASIZE PUSH1 0x1F NOT PUSH1 0x1F DUP3 ADD AND DUP3 ADD DUP1 PUSH1 0x40 MSTORE POP DUP2 ADD SWAP1 PUSH2 0x713 SWAP2 SWAP1 PUSH2 0x201F JUMP JUMPDEST SWAP3 SWAP2 POP POP JUMP JUMPDEST PUSH1 0xC SLOAD PUSH1 0x1 PUSH1 0x1 PUSH1 0xA0 SHL SUB AND CALLER EQ PUSH2 0x74C JUMPI PUSH1 0x40 MLOAD PUSH3 0x461BCD PUSH1 0xE5 SHL DUP2 MSTORE PUSH1 0x4 ADD PUSH2 0x743 SWAP1 PUSH2 0x203E JUMP JUMPDEST PUSH1 0x40 MLOAD DUP1 SWAP2 SUB SWAP1 REVERT JUMPDEST PUSH1 0x9 SLOAD PUSH0 JUMPDEST DUP2 DUP2 LT ISZERO PUSH2 0x790 JUMPI PUSH1 0x9 DUP1 SLOAD DUP1 PUSH2 0x76A JUMPI PUSH2 0x76A PUSH2 0x208D JUMP JUMPDEST PUSH1 0x1 SWAP1 SUB DUP2 DUP2 SWAP1 PUSH0 MSTORE PUSH1 0x20 PUSH0 KECCAK256 ADD PUSH0 SWAP1 SSTORE SWAP1 SSTORE DUP1 DUP1 PUSH2 0x788 SWAP1 PUSH2 0x20B5 JUMP JUMPDEST SWAP2 POP POP PUSH2 0x751 JUMP JUMPDEST POP POP JUMP JUMPDEST PUSH1 0xC SLOAD PUSH1 0x1 PUSH1 0x1 PUSH1 0xA0 SHL SUB AND CALLER EQ PUSH2 0x7BE JUMPI PUSH1 0x40 MLOAD PUSH3 0x461BCD PUSH1 0xE5 SHL DUP2 MSTORE PUSH1 0x4 ADD PUSH2 0x743 SWAP1 PUSH2 0x203E JUMP JUMPDEST PUSH0 PUSH1 0x1 JUMPDEST PUSH2 0x7CA PUSH2 0x1531 JUMP JUMPDEST DUP2 GT PUSH2 0x839 JUMPI PUSH0 DUP2 DUP2 MSTORE PUSH1 0x10 PUSH1 0x20 MSTORE PUSH1 0x40 SWAP1 KECCAK256 SLOAD PUSH1 0xFF AND ISZERO DUP1 ISZERO PUSH2 0x7FC JUMPI POP PUSH0 DUP2 DUP2 MSTORE PUSH1 0x11 PUSH1 0x20 MSTORE PUSH1 0x40 SWAP1 KECCAK256 SLOAD PUSH1 0xFF AND ISZERO JUMPDEST ISZERO PUSH2 0x827 JUMPI PUSH0 DUP2 DUP2 MSTORE PUSH1 0x10 PUSH1 0x20 MSTORE PUSH1 0x40 SWAP1 KECCAK256 DUP1 SLOAD PUSH1 0xFF NOT AND PUSH1 0x1 OR SWAP1 SSTORE DUP2 PUSH2 0x823 DUP2 PUSH2 0x20B5 JUMP JUMPDEST SWAP3 POP POP JUMPDEST DUP1 PUSH2 0x831 DUP2 PUSH2 0x20B5 JUMP JUMPDEST SWAP2 POP POP PUSH2 0x7C2 JUMP JUMPDEST POP DUP1 PUSH1 0x1 PUSH0 DUP3 DUP3 SLOAD PUSH2 0x84B SWAP2 SWAP1 PUSH2 0x20CD JUMP JUMPDEST SWAP1 SWAP2 SSTORE POP POP PUSH1 0xA DUP1 SLOAD PUSH2 0xFF00 NOT AND SWAP1 SSTORE PUSH1 0x40 MLOAD PUSH32 0xE045608E87EADD2F9961A089F4C933ADB62F8CC3FCBC9D23119C595D95D05BF3 SWAP1 PUSH0 SWAP1 LOG1 POP JUMP JUMPDEST PUSH1 0x60 PUSH1 0x9 DUP1 SLOAD DUP1 PUSH1 0x20 MUL PUSH1 0x20 ADD PUSH1 0x40 MLOAD SWAP1 DUP2 ADD PUSH1 0x40 MSTORE DUP1 SWAP3 SWAP2 SWAP1 DUP2 DUP2 MSTORE PUSH1 0x20 ADD DUP3 DUP1 SLOAD DUP1 ISZERO PUSH2 0x8D2 JUMPI PUSH1 0x20 MUL DUP3 ADD SWAP2 SWAP1 PUSH0 MSTORE PUSH1 0x20 PUSH0 KECCAK256 SWAP1 JUMPDEST DUP2 SLOAD DUP2 MSTORE PUSH1 0x20 ADD SWAP1 PUSH1 0x1 ADD SWAP1 DUP1 DUP4 GT PUSH2 0x8BE JUMPI JUMPDEST POP POP POP POP POP SWAP1 POP SWAP1 JUMP JUMPDEST PUSH1 0xA SLOAD PUSH0 SWAP1 PUSH2 0x100 SWAP1 DIV PUSH1 0xFF AND ISZERO PUSH2 0x90F JUMPI PUSH2 0x8FA PUSH1 0xA PUSH1 0x6 PUSH2 0x20E0 JUMP JUMPDEST PUSH1 0x4 SLOAD PUSH2 0x907 SWAP2 SWAP1 PUSH2 0x20CD JUMP JUMPDEST TIMESTAMP LT ISZERO SWAP1 POP SWAP1 JUMP JUMPDEST PUSH1 0xA SLOAD PUSH1 0xFF AND ISZERO PUSH2 0x929 JUMPI PUSH1 0xA PUSH1 0x4 SLOAD PUSH2 0x907 SWAP2 SWAP1 PUSH2 0x20CD JUMP JUMPDEST POP PUSH0 SWAP1 JUMP JUMPDEST PUSH1 0xE SLOAD PUSH1 0x40 MLOAD PUSH4 0xECCBB75 PUSH1 0xE2 SHL DUP2 MSTORE PUSH1 0x4 DUP2 ADD DUP4 SWAP1 MSTORE PUSH0 SWAP2 PUSH1 0x1 PUSH1 0x1 PUSH1 0xA0 SHL SUB AND SWAP1 PUSH4 0x3B32EDD4 SWAP1 PUSH1 0x24 ADD PUSH2 0x6D4 JUMP JUMPDEST PUSH1 0xC SLOAD PUSH1 0x1 PUSH1 0x1 PUSH1 0xA0 SHL SUB AND CALLER EQ PUSH2 0x989 JUMPI PUSH1 0x40 MLOAD PUSH3 0x461BCD PUSH1 0xE5 SHL DUP2 MSTORE PUSH1 0x4 ADD PUSH2 0x743 SWAP1 PUSH2 0x203E JUMP JUMPDEST PUSH0 DUP3 DUP2 MSTORE PUSH1 0x11 PUSH1 0x20 MSTORE PUSH1 0x40 SWAP1 KECCAK256 SLOAD PUSH1 0xFF AND ISZERO DUP1 ISZERO PUSH2 0x9B5 JUMPI POP PUSH0 DUP2 DUP2 MSTORE PUSH1 0x11 PUSH1 0x20 MSTORE PUSH1 0x40 SWAP1 KECCAK256 SLOAD PUSH1 0xFF AND ISZERO JUMPDEST PUSH2 0xA0B JUMPI PUSH1 0x40 MLOAD PUSH3 0x461BCD PUSH1 0xE5 SHL DUP2 MSTORE PUSH1 0x20 PUSH1 0x4 DUP3 ADD MSTORE PUSH1 0x21 PUSH1 0x24 DUP3 ADD MSTORE PUSH32 0x426F7468204E465473206D75737420626520616C69766520746F20626174746C PUSH1 0x44 DUP3 ADD MSTORE PUSH1 0x65 PUSH1 0xF8 SHL PUSH1 0x64 DUP3 ADD MSTORE PUSH1 0x84 ADD PUSH2 0x743 JUMP JUMPDEST PUSH1 0x3 SLOAD PUSH0 DUP4 SWAP1 MSTORE PUSH1 0x18 PUSH1 0x20 MSTORE PUSH1 0x5 EQ DUP1 ISZERO PUSH2 0xA31 JUMPI POP PUSH1 0x3 SLOAD PUSH0 DUP3 SWAP1 MSTORE PUSH1 0x18 PUSH1 0x20 MSTORE PUSH1 0x5 EQ JUMPDEST PUSH2 0xA87 JUMPI PUSH1 0x40 MLOAD PUSH3 0x461BCD PUSH1 0xE5 SHL DUP2 MSTORE PUSH1 0x20 PUSH1 0x4 DUP3 ADD MSTORE PUSH1 0x21 PUSH1 0x24 DUP3 ADD MSTORE PUSH32 0x496E76616C696420737461747320666F72206F6E65206F6620746865204E4654 PUSH1 0x44 DUP3 ADD MSTORE PUSH1 0x73 PUSH1 0xF8 SHL PUSH1 0x64 DUP3 ADD MSTORE PUSH1 0x84 ADD PUSH2 0x743 JUMP JUMPDEST PUSH2 0xA90 DUP3 PUSH2 0x125C JUMP JUMPDEST DUP1 ISZERO PUSH2 0xAA2 JUMPI POP PUSH2 0xAA0 DUP2 PUSH2 0x15A1 JUMP JUMPDEST ISZERO JUMPDEST DUP1 PUSH2 0xAC3 JUMPI POP PUSH2 0xAB1 DUP2 PUSH2 0x125C JUMP JUMPDEST DUP1 ISZERO PUSH2 0xAC3 JUMPI POP PUSH2 0xAC1 DUP3 PUSH2 0x15A1 JUMP JUMPDEST ISZERO JUMPDEST ISZERO PUSH2 0xB00 JUMPI PUSH2 0xAD2 DUP3 DUP3 PUSH2 0x1BC7 JUMP JUMPDEST PUSH0 SWAP2 DUP3 MSTORE PUSH1 0x12 PUSH1 0x20 MSTORE PUSH1 0x40 DUP1 DUP4 KECCAK256 DUP1 SLOAD PUSH1 0x1 PUSH1 0xFF NOT SWAP2 DUP3 AND DUP2 OR SWAP1 SWAP3 SSTORE SWAP3 DUP5 MSTORE SWAP3 KECCAK256 DUP1 SLOAD SWAP1 SWAP2 AND SWAP1 SWAP2 OR SWAP1 SSTORE JUMP JUMPDEST PUSH0 DUP3 DUP2 MSTORE PUSH1 0x18 PUSH1 0x20 MSTORE PUSH1 0x40 DUP1 DUP3 KECCAK256 DUP2 MLOAD PUSH1 0xA0 DUP2 ADD SWAP3 DUP4 SWAP1 MSTORE SWAP2 PUSH1 0x5 SWAP1 DUP3 DUP5 JUMPDEST DUP2 SLOAD DUP2 MSTORE PUSH1 0x20 ADD SWAP1 PUSH1 0x1 ADD SWAP1 DUP1 DUP4 GT PUSH2 0xB1F JUMPI POP POP POP PUSH0 DUP6 DUP2 MSTORE PUSH1 0x18 PUSH1 0x20 MSTORE PUSH1 0x40 DUP1 DUP3 KECCAK256 DUP2 MLOAD PUSH1 0xA0 DUP2 ADD SWAP3 DUP4 SWAP1 MSTORE SWAP6 SWAP7 POP SWAP2 SWAP5 SWAP4 POP SWAP1 SWAP2 POP PUSH1 0x5 SWAP1 DUP3 DUP5 JUMPDEST DUP2 SLOAD DUP2 MSTORE PUSH1 0x20 ADD SWAP1 PUSH1 0x1 ADD SWAP1 DUP1 DUP4 GT PUSH2 0xB5D JUMPI POP POP POP POP POP SWAP1 POP PUSH2 0xB80 DUP5 PUSH2 0x92E JUMP JUMPDEST ISZERO PUSH2 0xC76 JUMPI PUSH1 0x40 DUP1 MLOAD TIMESTAMP PUSH1 0x20 DUP3 ADD MSTORE SWAP1 DUP2 ADD DUP6 SWAP1 MSTORE PUSH0 SWAP1 PUSH1 0x5 SWAP1 PUSH1 0x60 ADD PUSH1 0x40 MLOAD PUSH1 0x20 DUP2 DUP4 SUB SUB DUP2 MSTORE SWAP1 PUSH1 0x40 MSTORE DUP1 MLOAD SWAP1 PUSH1 0x20 ADD KECCAK256 PUSH0 SHR PUSH2 0xBBF SWAP2 SWAP1 PUSH2 0x20F7 JUMP JUMPDEST SWAP1 POP PUSH0 PUSH1 0x5 TIMESTAMP DUP8 PUSH1 0x40 MLOAD PUSH1 0x20 ADD PUSH2 0xBF3 SWAP3 SWAP2 SWAP1 SWAP2 DUP3 MSTORE PUSH1 0x20 DUP3 ADD MSTORE PUSH10 0x1CD958DBDB9914DD185D PUSH1 0xB2 SHL PUSH1 0x40 DUP3 ADD MSTORE PUSH1 0x4A ADD SWAP1 JUMP JUMPDEST PUSH1 0x40 DUP1 MLOAD PUSH1 0x1F NOT DUP2 DUP5 SUB ADD DUP2 MSTORE SWAP2 SWAP1 MSTORE DUP1 MLOAD PUSH1 0x20 SWAP1 SWAP2 ADD KECCAK256 PUSH2 0xC16 DUP5 PUSH1 0x1 PUSH2 0x20CD JUMP JUMPDEST PUSH2 0xC20 SWAP2 SWAP1 PUSH2 0x20CD JUMP JUMPDEST PUSH2 0xC2A SWAP2 SWAP1 PUSH2 0x20F7 JUMP JUMPDEST PUSH0 DUP8 DUP2 MSTORE PUSH1 0x18 PUSH1 0x20 MSTORE PUSH1 0x40 SWAP1 KECCAK256 SWAP1 SWAP2 POP PUSH1 0xA SWAP1 DUP4 PUSH1 0x5 DUP2 LT PUSH2 0xC4E JUMPI PUSH2 0xC4E PUSH2 0x2116 JUMP JUMPDEST ADD SSTORE PUSH0 DUP7 DUP2 MSTORE PUSH1 0x18 PUSH1 0x20 MSTORE PUSH1 0x40 SWAP1 KECCAK256 PUSH1 0xA SWAP1 DUP3 PUSH1 0x5 DUP2 LT PUSH2 0xC71 JUMPI PUSH2 0xC71 PUSH2 0x2116 JUMP JUMPDEST ADD SSTORE POP POP JUMPDEST PUSH2 0xC7F DUP4 PUSH2 0x92E JUMP JUMPDEST ISZERO PUSH2 0xD75 JUMPI PUSH1 0x40 DUP1 MLOAD TIMESTAMP PUSH1 0x20 DUP3 ADD MSTORE SWAP1 DUP2 ADD DUP5 SWAP1 MSTORE PUSH0 SWAP1 PUSH1 0x5 SWAP1 PUSH1 0x60 ADD PUSH1 0x40 MLOAD PUSH1 0x20 DUP2 DUP4 SUB SUB DUP2 MSTORE SWAP1 PUSH1 0x40 MSTORE DUP1 MLOAD SWAP1 PUSH1 0x20 ADD KECCAK256 PUSH0 SHR PUSH2 0xCBE SWAP2 SWAP1 PUSH2 0x20F7 JUMP JUMPDEST SWAP1 POP PUSH0 PUSH1 0x5 TIMESTAMP DUP7 PUSH1 0x40 MLOAD PUSH1 0x20 ADD PUSH2 0xCF2 SWAP3 SWAP2 SWAP1 SWAP2 DUP3 MSTORE PUSH1 0x20 DUP3 ADD MSTORE PUSH10 0x1CD958DBDB9914DD185D PUSH1 0xB2 SHL PUSH1 0x40 DUP3 ADD MSTORE PUSH1 0x4A ADD SWAP1 JUMP JUMPDEST PUSH1 0x40 DUP1 MLOAD PUSH1 0x1F NOT DUP2 DUP5 SUB ADD DUP2 MSTORE SWAP2 SWAP1 MSTORE DUP1 MLOAD PUSH1 0x20 SWAP1 SWAP2 ADD KECCAK256 PUSH2 0xD15 DUP5 PUSH1 0x1 PUSH2 0x20CD JUMP JUMPDEST PUSH2 0xD1F SWAP2 SWAP1 PUSH2 0x20CD JUMP JUMPDEST PUSH2 0xD29 SWAP2 SWAP1 PUSH2 0x20F7 JUMP JUMPDEST PUSH0 DUP7 DUP2 MSTORE PUSH1 0x18 PUSH1 0x20 MSTORE PUSH1 0x40 SWAP1 KECCAK256 SWAP1 SWAP2 POP PUSH1 0xA SWAP1 DUP4 PUSH1 0x5 DUP2 LT PUSH2 0xD4D JUMPI PUSH2 0xD4D PUSH2 0x2116 JUMP JUMPDEST ADD SSTORE PUSH0 DUP6 DUP2 MSTORE PUSH1 0x18 PUSH1 0x20 MSTORE PUSH1 0x40 SWAP1 KECCAK256 PUSH1 0xA SWAP1 DUP3 PUSH1 0x5 DUP2 LT PUSH2 0xD70 JUMPI PUSH2 0xD70 PUSH2 0x2116 JUMP JUMPDEST ADD SSTORE POP POP JUMPDEST PUSH2 0xD7E DUP5 PUSH2 0x15A1 JUMP JUMPDEST ISZERO PUSH2 0xDC5 JUMPI PUSH0 JUMPDEST PUSH1 0x5 DUP2 LT ISZERO PUSH2 0xDC3 JUMPI PUSH0 DUP6 DUP2 MSTORE PUSH1 0x18 PUSH1 0x20 MSTORE PUSH1 0x40 SWAP1 KECCAK256 PUSH1 0xA SWAP1 DUP3 PUSH1 0x5 DUP2 LT PUSH2 0xDAF JUMPI PUSH2 0xDAF PUSH2 0x2116 JUMP JUMPDEST ADD SSTORE DUP1 PUSH2 0xDBB DUP2 PUSH2 0x20B5 JUMP JUMPDEST SWAP2 POP POP PUSH2 0xD85 JUMP JUMPDEST POP JUMPDEST PUSH2 0xDCE DUP4 PUSH2 0x15A1 JUMP JUMPDEST ISZERO PUSH2 0xE15 JUMPI PUSH0 JUMPDEST PUSH1 0x5 DUP2 LT ISZERO PUSH2 0xE13 JUMPI PUSH0 DUP5 DUP2 MSTORE PUSH1 0x18 PUSH1 0x20 MSTORE PUSH1 0x40 SWAP1 KECCAK256 PUSH1 0xA SWAP1 DUP3 PUSH1 0x5 DUP2 LT PUSH2 0xDFF JUMPI PUSH2 0xDFF PUSH2 0x2116 JUMP JUMPDEST ADD SSTORE DUP1 PUSH2 0xE0B DUP2 PUSH2 0x20B5 JUMP JUMPDEST SWAP2 POP POP PUSH2 0xDD5 JUMP JUMPDEST POP JUMPDEST PUSH0 DUP5 DUP2 MSTORE PUSH1 0x18 PUSH1 0x20 MSTORE PUSH1 0x40 DUP2 KECCAK256 PUSH1 0x4 DUP2 ADD SLOAD PUSH1 0x3 DUP3 ADD SLOAD PUSH1 0x2 DUP4 ADD SLOAD PUSH1 0x1 DUP5 ADD SLOAD SWAP4 SLOAD SWAP3 SWAP4 SWAP2 SWAP3 SWAP1 SWAP2 PUSH2 0xE47 SWAP2 PUSH2 0x20CD JUMP JUMPDEST PUSH2 0xE51 SWAP2 SWAP1 PUSH2 0x20CD JUMP JUMPDEST PUSH2 0xE5B SWAP2 SWAP1 PUSH2 0x20CD JUMP JUMPDEST PUSH2 0xE65 SWAP2 SWAP1 PUSH2 0x20CD JUMP JUMPDEST PUSH0 DUP6 DUP2 MSTORE PUSH1 0x18 PUSH1 0x20 MSTORE PUSH1 0x40 DUP2 KECCAK256 PUSH1 0x4 DUP2 ADD SLOAD PUSH1 0x3 DUP3 ADD SLOAD PUSH1 0x2 DUP4 ADD SLOAD PUSH1 0x1 DUP5 ADD SLOAD SWAP4 SLOAD SWAP6 SWAP7 POP SWAP4 SWAP5 SWAP2 SWAP4 SWAP1 SWAP3 SWAP1 SWAP2 PUSH2 0xE9D SWAP2 SWAP1 PUSH2 0x20CD JUMP JUMPDEST PUSH2 0xEA7 SWAP2 SWAP1 PUSH2 0x20CD JUMP JUMPDEST PUSH2 0xEB1 SWAP2 SWAP1 PUSH2 0x20CD JUMP JUMPDEST PUSH2 0xEBB SWAP2 SWAP1 PUSH2 0x20CD JUMP JUMPDEST SWAP1 POP PUSH0 PUSH2 0xEC8 DUP3 DUP5 PUSH2 0x20CD JUMP JUMPDEST GT PUSH2 0xF23 JUMPI PUSH1 0x40 MLOAD PUSH3 0x461BCD PUSH1 0xE5 SHL DUP2 MSTORE PUSH1 0x20 PUSH1 0x4 DUP3 ADD MSTORE PUSH1 0x25 PUSH1 0x24 DUP3 ADD MSTORE PUSH32 0x546F74616C20706F776572206D7573742062652067726561746572207468616E PUSH1 0x44 DUP3 ADD MSTORE PUSH5 0x207A65726F PUSH1 0xD8 SHL PUSH1 0x64 DUP3 ADD MSTORE PUSH1 0x84 ADD PUSH2 0x743 JUMP JUMPDEST PUSH0 PUSH1 0x64 PUSH2 0xF30 PREVRANDAO TIMESTAMP PUSH2 0x20CD JUMP JUMPDEST PUSH2 0xF3A SWAP2 SWAP1 PUSH2 0x20F7 JUMP JUMPDEST SWAP1 POP PUSH0 DUP3 DUP5 GT ISZERO PUSH2 0xF4F JUMPI POP PUSH1 0x46 DUP2 LT PUSH2 0xF68 JUMP JUMPDEST DUP3 DUP5 LT ISZERO PUSH2 0xF62 JUMPI POP PUSH1 0x1E DUP2 LT ISZERO PUSH2 0xF68 JUMP JUMPDEST POP PUSH1 0x32 DUP2 LT JUMPDEST DUP1 ISZERO PUSH2 0x101B JUMPI PUSH2 0xF77 DUP8 PUSH2 0x6A7 JUMP JUMPDEST PUSH2 0xF94 JUMPI PUSH0 DUP8 DUP2 MSTORE PUSH1 0x11 PUSH1 0x20 MSTORE PUSH1 0x40 SWAP1 KECCAK256 DUP1 SLOAD PUSH1 0xFF NOT AND PUSH1 0x1 OR SWAP1 SSTORE JUMPDEST PUSH0 DUP9 DUP2 MSTORE PUSH1 0x12 PUSH1 0x20 SWAP1 DUP2 MSTORE PUSH1 0x40 DUP1 DUP4 KECCAK256 DUP1 SLOAD PUSH1 0xFF NOT AND PUSH1 0x1 SWAP1 DUP2 OR SWAP1 SWAP2 SSTORE PUSH1 0x9 DUP1 SLOAD SWAP2 DUP3 ADD SWAP1 SSTORE PUSH32 0x6E1540171B6C0C960B71A7020D9F60077F6AF931A8BBF590DA0223DACF75C7AF ADD DUP12 SWAP1 SSTORE PUSH1 0x19 SWAP1 SWAP2 MSTORE DUP2 KECCAK256 DUP1 SLOAD SWAP2 PUSH2 0xFF3 DUP4 PUSH2 0x20B5 JUMP JUMPDEST SWAP1 SWAP2 SSTORE POP POP PUSH0 DUP8 DUP2 MSTORE PUSH1 0x1A PUSH1 0x20 MSTORE PUSH1 0x40 DUP2 KECCAK256 DUP1 SLOAD SWAP2 PUSH2 0x1011 DUP4 PUSH2 0x20B5 JUMP JUMPDEST SWAP2 SWAP1 POP SSTORE POP PUSH2 0x10C4 JUMP JUMPDEST PUSH2 0x1024 DUP9 PUSH2 0x6A7 JUMP JUMPDEST PUSH2 0x1041 JUMPI PUSH0 DUP9 DUP2 MSTORE PUSH1 0x11 PUSH1 0x20 MSTORE PUSH1 0x40 SWAP1 KECCAK256 DUP1 SLOAD PUSH1 0xFF NOT AND PUSH1 0x1 OR SWAP1 SSTORE JUMPDEST PUSH0 DUP8 DUP2 MSTORE PUSH1 0x12 PUSH1 0x20 SWAP1 DUP2 MSTORE PUSH1 0x40 DUP1 DUP4 KECCAK256 DUP1 SLOAD PUSH1 0xFF NOT AND PUSH1 0x1 SWAP1 DUP2 OR SWAP1 SWAP2 SSTORE PUSH1 0x9 DUP1 SLOAD SWAP2 DUP3 ADD SWAP1 SSTORE PUSH32 0x6E1540171B6C0C960B71A7020D9F60077F6AF931A8BBF590DA0223DACF75C7AF ADD DUP11 SWAP1 SSTORE PUSH1 0x19 SWAP1 SWAP2 MSTORE DUP2 KECCAK256 DUP1 SLOAD SWAP2 PUSH2 0x10A0 DUP4 PUSH2 0x20B5 JUMP JUMPDEST SWAP1 SWAP2 SSTORE POP POP PUSH0 DUP9 DUP2 MSTORE PUSH1 0x1A PUSH1 0x20 MSTORE PUSH1 0x40 DUP2 KECCAK256 DUP1 SLOAD SWAP2 PUSH2 0x10BE DUP4 PUSH2 0x20B5 JUMP JUMPDEST SWAP2 SWAP1 POP SSTORE POP JUMPDEST PUSH0 DUP9 DUP2 MSTORE PUSH1 0x18 PUSH1 0x20 MSTORE PUSH1 0x40 SWAP1 KECCAK256 PUSH2 0x10DD SWAP1 DUP8 PUSH1 0x5 PUSH2 0x1DB5 JUMP JUMPDEST POP PUSH0 DUP8 DUP2 MSTORE PUSH1 0x18 PUSH1 0x20 MSTORE PUSH1 0x40 SWAP1 KECCAK256 PUSH2 0x10F7 SWAP1 DUP7 PUSH1 0x5 PUSH2 0x1DB5 JUMP JUMPDEST POP PUSH2 0x1102 DUP9 DUP9 PUSH2 0x1BC7 JUMP JUMPDEST PUSH1 0x6 DUP1 SLOAD SWAP1 PUSH0 PUSH2 0x1111 DUP4 PUSH2 0x20B5 JUMP JUMPDEST SWAP2 SWAP1 POP SSTORE POP POP POP POP POP POP POP POP POP JUMP JUMPDEST PUSH1 0x18 PUSH1 0x20 MSTORE DUP2 PUSH0 MSTORE PUSH1 0x40 PUSH0 KECCAK256 DUP2 PUSH1 0x5 DUP2 LT PUSH2 0x1139 JUMPI PUSH0 DUP1 REVERT JUMPDEST ADD SLOAD SWAP2 POP DUP3 SWAP1 POP JUMP JUMPDEST PUSH1 0x9 DUP2 DUP2 SLOAD DUP2 LT PUSH2 0x1151 JUMPI PUSH0 DUP1 REVERT JUMPDEST PUSH0 SWAP2 DUP3 MSTORE PUSH1 0x20 SWAP1 SWAP2 KECCAK256 ADD SLOAD SWAP1 POP DUP2 JUMP JUMPDEST PUSH1 0xC SLOAD PUSH1 0x1 PUSH1 0x1 PUSH1 0xA0 SHL SUB AND CALLER EQ PUSH2 0x118B JUMPI PUSH1 0x40 MLOAD PUSH3 0x461BCD PUSH1 0xE5 SHL DUP2 MSTORE PUSH1 0x4 ADD PUSH2 0x743 SWAP1 PUSH2 0x203E JUMP JUMPDEST PUSH1 0x1 JUMPDEST PUSH2 0x1196 PUSH2 0x1531 JUMP JUMPDEST DUP2 GT PUSH2 0x11C6 JUMPI PUSH0 DUP2 DUP2 MSTORE PUSH1 0x10 PUSH1 0x20 MSTORE PUSH1 0x40 DUP2 KECCAK256 DUP1 SLOAD PUSH1 0xFF NOT AND SWAP1 SSTORE PUSH1 0x1 SSTORE DUP1 PUSH2 0x11BE DUP2 PUSH2 0x20B5 JUMP JUMPDEST SWAP2 POP POP PUSH2 0x118E JUMP JUMPDEST POP PUSH1 0x40 MLOAD PUSH32 0x3984C48732886B85C3609F4771C475531ED8E67132A3F30C3555A372B3EDD6B3 SWAP1 PUSH0 SWAP1 LOG1 JUMP JUMPDEST PUSH1 0xD SLOAD PUSH1 0x40 MLOAD PUSH4 0x31A9108F PUSH1 0xE1 SHL DUP2 MSTORE PUSH1 0x4 DUP2 ADD DUP4 SWAP1 MSTORE PUSH0 SWAP2 PUSH1 0x1 PUSH1 0x1 PUSH1 0xA0 SHL SUB AND SWAP1 PUSH4 0x6352211E SWAP1 PUSH1 0x24 ADD PUSH1 0x20 PUSH1 0x40 MLOAD DUP1 DUP4 SUB DUP2 DUP7 GAS STATICCALL ISZERO DUP1 ISZERO PUSH2 0x1238 JUMPI RETURNDATASIZE PUSH0 DUP1 RETURNDATACOPY RETURNDATASIZE PUSH0 REVERT JUMPDEST POP POP POP POP PUSH1 0x40 MLOAD RETURNDATASIZE PUSH1 0x1F NOT PUSH1 0x1F DUP3 ADD AND DUP3 ADD DUP1 PUSH1 0x40 MSTORE POP DUP2 ADD SWAP1 PUSH2 0x713 SWAP2 SWAP1 PUSH2 0x212A JUMP JUMPDEST PUSH1 0xE SLOAD PUSH1 0x40 MLOAD PUSH4 0x1B8BB4F1 PUSH1 0xE2 SHL DUP2 MSTORE PUSH1 0x4 DUP2 ADD DUP4 SWAP1 MSTORE PUSH0 SWAP2 PUSH1 0x1 PUSH1 0x1 PUSH1 0xA0 SHL SUB AND SWAP1 PUSH4 0x6E2ED3C4 SWAP1 PUSH1 0x24 ADD PUSH2 0x6D4 JUMP JUMPDEST PUSH1 0xC SLOAD PUSH0 SWAP1 PUSH1 0x1 PUSH1 0x1 PUSH1 0xA0 SHL SUB AND CALLER EQ PUSH2 0x12B9 JUMPI PUSH1 0x40 MLOAD PUSH3 0x461BCD PUSH1 0xE5 SHL DUP2 MSTORE PUSH1 0x4 ADD PUSH2 0x743 SWAP1 PUSH2 0x203E JUMP JUMPDEST PUSH0 PUSH1 0x1 JUMPDEST PUSH2 0x12C5 PUSH2 0x1531 JUMP JUMPDEST DUP2 GT PUSH2 0x133A JUMPI PUSH0 PUSH2 0x12D5 DUP3 PUSH2 0x11F1 JUMP JUMPDEST PUSH1 0x1 PUSH1 0x1 PUSH1 0xA0 SHL SUB DUP2 AND PUSH0 SWAP1 DUP2 MSTORE PUSH1 0xF PUSH1 0x20 MSTORE PUSH1 0x40 SWAP1 KECCAK256 SLOAD SWAP1 SWAP2 POP PUSH1 0xFF AND PUSH2 0x1327 JUMPI PUSH1 0x1 PUSH1 0x1 PUSH1 0xA0 SHL SUB DUP2 AND PUSH0 SWAP1 DUP2 MSTORE PUSH1 0xF PUSH1 0x20 MSTORE PUSH1 0x40 SWAP1 KECCAK256 DUP1 SLOAD PUSH1 0xFF NOT AND PUSH1 0x1 OR SWAP1 SSTORE DUP3 PUSH2 0x1323 DUP2 PUSH2 0x20B5 JUMP JUMPDEST SWAP4 POP POP JUMPDEST POP DUP1 PUSH2 0x1332 DUP2 PUSH2 0x20B5 JUMP JUMPDEST SWAP2 POP POP PUSH2 0x12BD JUMP JUMPDEST POP PUSH1 0x1 JUMPDEST PUSH2 0x1346 PUSH2 0x1531 JUMP JUMPDEST DUP2 GT PUSH2 0x1387 JUMPI PUSH0 PUSH2 0x1356 DUP3 PUSH2 0x11F1 JUMP JUMPDEST PUSH1 0x1 PUSH1 0x1 PUSH1 0xA0 SHL SUB AND PUSH0 SWAP1 DUP2 MSTORE PUSH1 0xF PUSH1 0x20 MSTORE PUSH1 0x40 SWAP1 KECCAK256 DUP1 SLOAD PUSH1 0xFF NOT AND SWAP1 SSTORE POP DUP1 PUSH2 0x137F DUP2 PUSH2 0x20B5 JUMP JUMPDEST SWAP2 POP POP PUSH2 0x133E JUMP JUMPDEST POP PUSH1 0x8 DUP2 SWAP1 SSTORE SWAP1 POP SWAP1 JUMP JUMPDEST PUSH1 0xB DUP2 DUP2 SLOAD DUP2 LT PUSH2 0x13A1 JUMPI PUSH0 DUP1 REVERT JUMPDEST PUSH0 SWAP2 DUP3 MSTORE PUSH1 0x20 SWAP1 SWAP2 KECCAK256 ADD SLOAD PUSH1 0x1 PUSH1 0x1 PUSH1 0xA0 SHL SUB AND SWAP1 POP DUP2 JUMP JUMPDEST PUSH1 0xC SLOAD PUSH1 0x1 PUSH1 0x1 PUSH1 0xA0 SHL SUB AND CALLER EQ PUSH2 0x13E4 JUMPI PUSH1 0x40 MLOAD PUSH3 0x461BCD PUSH1 0xE5 SHL DUP2 MSTORE PUSH1 0x4 ADD PUSH2 0x743 SWAP1 PUSH2 0x203E JUMP JUMPDEST TIMESTAMP PUSH1 0x4 DUP2 SWAP1 SSTORE PUSH1 0x40 MLOAD SWAP1 DUP2 MSTORE PUSH32 0xD1DBB2CE8081405078443EF34DAE718285114121A39370B14EF01B9D2B0A2083 SWAP1 PUSH1 0x20 ADD JUMPDEST PUSH1 0x40 MLOAD DUP1 SWAP2 SUB SWAP1 LOG1 JUMP JUMPDEST PUSH1 0xC SLOAD PUSH1 0x1 PUSH1 0x1 PUSH1 0xA0 SHL SUB AND CALLER EQ PUSH2 0x144A JUMPI PUSH1 0x40 MLOAD PUSH3 0x461BCD PUSH1 0xE5 SHL DUP2 MSTORE PUSH1 0x4 ADD PUSH2 0x743 SWAP1 PUSH2 0x203E JUMP JUMPDEST PUSH1 0x1 JUMPDEST PUSH2 0x1455 PUSH2 0x1531 JUMP JUMPDEST DUP2 GT PUSH2 0x1497 JUMPI PUSH0 DUP2 DUP2 MSTORE PUSH1 0x11 PUSH1 0x20 SWAP1 DUP2 MSTORE PUSH1 0x40 DUP1 DUP4 KECCAK256 DUP1 SLOAD PUSH1 0xFF NOT SWAP1 DUP2 AND SWAP1 SWAP2 SSTORE PUSH1 0x12 SWAP1 SWAP3 MSTORE SWAP1 SWAP2 KECCAK256 DUP1 SLOAD SWAP1 SWAP2 AND SWAP1 SSTORE DUP1 PUSH2 0x148F DUP2 PUSH2 0x20B5 JUMP JUMPDEST SWAP2 POP POP PUSH2 0x144D JUMP JUMPDEST POP PUSH1 0x40 MLOAD PUSH32 0xC0A4569BDAA5BAE3DABCABE5AC5C590863CAD4BAD443B5D2051D1D200F9FA4DA SWAP1 PUSH0 SWAP1 LOG1 JUMP JUMPDEST PUSH1 0xC SLOAD PUSH1 0x1 PUSH1 0x1 PUSH1 0xA0 SHL SUB AND CALLER EQ PUSH2 0x14EC JUMPI PUSH1 0x40 MLOAD PUSH3 0x461BCD PUSH1 0xE5 SHL DUP2 MSTORE PUSH1 0x4 ADD PUSH2 0x743 SWAP1 PUSH2 0x203E JUMP JUMPDEST PUSH1 0xA DUP1 SLOAD PUSH1 0xFF NOT AND PUSH1 0x1 OR SWAP1 SSTORE TIMESTAMP PUSH1 0x4 DUP2 SWAP1 SSTORE PUSH1 0x40 MLOAD PUSH32 0x90E4E1076E66D07AAD698457E7A86B4425881AB1586D63C00BA753F88757E9A8 SWAP2 PUSH2 0x1416 SWAP2 SWAP1 DUP2 MSTORE PUSH1 0x20 ADD SWAP1 JUMP JUMPDEST PUSH1 0xD SLOAD PUSH1 0x40 DUP1 MLOAD PUSH4 0xA8995DEB PUSH1 0xE0 SHL DUP2 MSTORE SWAP1 MLOAD PUSH0 SWAP3 PUSH1 0x1 PUSH1 0x1 PUSH1 0xA0 SHL SUB AND SWAP2 PUSH4 0xA8995DEB SWAP2 PUSH1 0x4 DUP1 DUP4 ADD SWAP3 PUSH1 0x20 SWAP3 SWAP2 SWAP1 DUP3 SWAP1 SUB ADD DUP2 DUP7 GAS STATICCALL ISZERO DUP1 ISZERO PUSH2 0x1578 JUMPI RETURNDATASIZE PUSH0 DUP1 RETURNDATACOPY RETURNDATASIZE PUSH0 REVERT JUMPDEST POP POP POP POP PUSH1 0x40 MLOAD RETURNDATASIZE PUSH1 0x1F NOT PUSH1 0x1F DUP3 ADD AND DUP3 ADD DUP1 PUSH1 0x40 MSTORE POP DUP2 ADD SWAP1 PUSH2 0x159C SWAP2 SWAP1 PUSH2 0x2145 JUMP JUMPDEST SWAP1 POP SWAP1 JUMP JUMPDEST PUSH1 0xE SLOAD PUSH1 0x40 MLOAD PUSH4 0x60D72F39 PUSH1 0xE1 SHL DUP2 MSTORE PUSH1 0x4 DUP2 ADD DUP4 SWAP1 MSTORE PUSH0 SWAP2 PUSH1 0x1 PUSH1 0x1 PUSH1 0xA0 SHL SUB AND SWAP1 PUSH4 0xC1AE5E72 SWAP1 PUSH1 0x24 ADD PUSH2 0x6D4 JUMP JUMPDEST PUSH1 0xC SLOAD PUSH1 0x1 PUSH1 0x1 PUSH1 0xA0 SHL SUB AND CALLER EQ PUSH2 0x15FC JUMPI PUSH1 0x40 MLOAD PUSH3 0x461BCD PUSH1 0xE5 SHL DUP2 MSTORE PUSH1 0x4 ADD PUSH2 0x743 SWAP1 PUSH2 0x203E JUMP JUMPDEST PUSH1 0x1 DUP4 LT ISZERO DUP1 ISZERO PUSH2 0x1680 JUMPI POP PUSH1 0xD PUSH0 SWAP1 SLOAD SWAP1 PUSH2 0x100 EXP SWAP1 DIV PUSH1 0x1 PUSH1 0x1 PUSH1 0xA0 SHL SUB AND PUSH1 0x1 PUSH1 0x1 PUSH1 0xA0 SHL SUB AND PUSH4 0xD5ABEB01 PUSH1 0x40 MLOAD DUP2 PUSH4 0xFFFFFFFF AND PUSH1 0xE0 SHL DUP2 MSTORE PUSH1 0x4 ADD PUSH1 0x20 PUSH1 0x40 MLOAD DUP1 DUP4 SUB DUP2 DUP7 GAS STATICCALL ISZERO DUP1 ISZERO PUSH2 0x1658 JUMPI RETURNDATASIZE PUSH0 DUP1 RETURNDATACOPY RETURNDATASIZE PUSH0 REVERT JUMPDEST POP POP POP POP PUSH1 0x40 MLOAD RETURNDATASIZE PUSH1 0x1F NOT PUSH1 0x1F DUP3 ADD AND DUP3 ADD DUP1 PUSH1 0x40 MSTORE POP DUP2 ADD SWAP1 PUSH2 0x167C SWAP2 SWAP1 PUSH2 0x2145 JUMP JUMPDEST DUP4 GT ISZERO JUMPDEST PUSH2 0x16C3 JUMPI PUSH1 0x40 MLOAD PUSH3 0x461BCD PUSH1 0xE5 SHL DUP2 MSTORE PUSH1 0x20 PUSH1 0x4 DUP3 ADD MSTORE PUSH1 0x14 PUSH1 0x24 DUP3 ADD MSTORE PUSH20 0x24B73B30B634B21039BA30B93A1034B73232BC17 PUSH1 0x61 SHL PUSH1 0x44 DUP3 ADD MSTORE PUSH1 0x64 ADD PUSH2 0x743 JUMP JUMPDEST PUSH0 DUP3 GT PUSH2 0x171D JUMPI PUSH1 0x40 MLOAD PUSH3 0x461BCD PUSH1 0xE5 SHL DUP2 MSTORE PUSH1 0x20 PUSH1 0x4 DUP3 ADD MSTORE PUSH1 0x22 PUSH1 0x24 DUP3 ADD MSTORE PUSH32 0x42617463682073697A65206D7573742062652067726561746572207468616E20 PUSH1 0x44 DUP3 ADD MSTORE PUSH2 0x1817 PUSH1 0xF1 SHL PUSH1 0x64 DUP3 ADD MSTORE PUSH1 0x84 ADD PUSH2 0x743 JUMP JUMPDEST PUSH0 PUSH1 0x1 PUSH2 0x172A DUP5 DUP7 PUSH2 0x20CD JUMP JUMPDEST PUSH2 0x1734 SWAP2 SWAP1 PUSH2 0x215C JUMP JUMPDEST SWAP1 POP PUSH1 0xD PUSH0 SWAP1 SLOAD SWAP1 PUSH2 0x100 EXP SWAP1 DIV PUSH1 0x1 PUSH1 0x1 PUSH1 0xA0 SHL SUB AND PUSH1 0x1 PUSH1 0x1 PUSH1 0xA0 SHL SUB AND PUSH4 0xD5ABEB01 PUSH1 0x40 MLOAD DUP2 PUSH4 0xFFFFFFFF AND PUSH1 0xE0 SHL DUP2 MSTORE PUSH1 0x4 ADD PUSH1 0x20 PUSH1 0x40 MLOAD DUP1 DUP4 SUB DUP2 DUP7 GAS STATICCALL ISZERO DUP1 ISZERO PUSH2 0x1786 JUMPI RETURNDATASIZE PUSH0 DUP1 RETURNDATACOPY RETURNDATASIZE PUSH0 REVERT JUMPDEST POP POP POP POP PUSH1 0x40 MLOAD RETURNDATASIZE PUSH1 0x1F NOT PUSH1 0x1F DUP3 ADD AND DUP3 ADD DUP1 PUSH1 0x40 MSTORE POP DUP2 ADD SWAP1 PUSH2 0x17AA SWAP2 SWAP1 PUSH2 0x2145 JUMP JUMPDEST DUP2 GT ISZERO PUSH2 0x17F9 JUMPI PUSH1 0x40 MLOAD PUSH3 0x461BCD PUSH1 0xE5 SHL DUP2 MSTORE PUSH1 0x20 PUSH1 0x4 DUP3 ADD MSTORE PUSH1 0x1C PUSH1 0x24 DUP3 ADD MSTORE PUSH32 0x456E6420696E6465782065786365656473206D6178537570706C792E00000000 PUSH1 0x44 DUP3 ADD MSTORE PUSH1 0x64 ADD PUSH2 0x743 JUMP JUMPDEST DUP4 JUMPDEST DUP2 DUP2 GT PUSH2 0x188A JUMPI PUSH0 DUP2 DUP2 MSTORE PUSH1 0x13 PUSH1 0x20 MSTORE PUSH1 0x40 SWAP1 KECCAK256 SLOAD PUSH1 0xFF AND PUSH2 0x1878 JUMPI PUSH0 PUSH2 0x1822 DUP7 DUP4 PUSH2 0x215C JUMP JUMPDEST SWAP1 POP DUP4 DUP2 DUP2 MLOAD DUP2 LT PUSH2 0x1836 JUMPI PUSH2 0x1836 PUSH2 0x2116 JUMP JUMPDEST PUSH1 0x20 MUL PUSH1 0x20 ADD ADD MLOAD PUSH1 0x18 PUSH0 DUP5 DUP2 MSTORE PUSH1 0x20 ADD SWAP1 DUP2 MSTORE PUSH1 0x20 ADD PUSH0 KECCAK256 SWAP1 PUSH1 0x5 PUSH2 0x185D SWAP3 SWAP2 SWAP1 PUSH2 0x1DB5 JUMP JUMPDEST POP POP PUSH0 DUP2 DUP2 MSTORE PUSH1 0x13 PUSH1 0x20 MSTORE PUSH1 0x40 SWAP1 KECCAK256 DUP1 SLOAD PUSH1 0xFF NOT AND PUSH1 0x1 OR SWAP1 SSTORE JUMPDEST DUP1 PUSH2 0x1882 DUP2 PUSH2 0x20B5 JUMP JUMPDEST SWAP2 POP POP PUSH2 0x17FB JUMP JUMPDEST POP POP POP POP POP JUMP JUMPDEST PUSH1 0xC SLOAD PUSH1 0x1 PUSH1 0x1 PUSH1 0xA0 SHL SUB AND CALLER EQ PUSH2 0x18BB JUMPI PUSH1 0x40 MLOAD PUSH3 0x461BCD PUSH1 0xE5 SHL DUP2 MSTORE PUSH1 0x4 ADD PUSH2 0x743 SWAP1 PUSH2 0x203E JUMP JUMPDEST PUSH1 0x1 JUMPDEST PUSH2 0x18C6 PUSH2 0x1531 JUMP JUMPDEST DUP2 GT PUSH2 0x18F3 JUMPI PUSH0 DUP2 DUP2 MSTORE PUSH1 0x12 PUSH1 0x20 MSTORE PUSH1 0x40 SWAP1 KECCAK256 DUP1 SLOAD PUSH1 0xFF NOT AND SWAP1 SSTORE DUP1 PUSH2 0x18EB DUP2 PUSH2 0x20B5 JUMP JUMPDEST SWAP2 POP POP PUSH2 0x18BE JUMP JUMPDEST POP JUMP JUMPDEST PUSH1 0xC SLOAD PUSH1 0x1 PUSH1 0x1 PUSH1 0xA0 SHL SUB AND CALLER EQ PUSH2 0x1920 JUMPI PUSH1 0x40 MLOAD PUSH3 0x461BCD PUSH1 0xE5 SHL DUP2 MSTORE PUSH1 0x4 ADD PUSH2 0x743 SWAP1 PUSH2 0x203E JUMP JUMPDEST PUSH1 0x2 PUSH1 0x1 SLOAD LT ISZERO DUP1 ISZERO PUSH2 0x1936 JUMPI POP PUSH2 0x1936 PUSH2 0x8DC JUMP JUMPDEST PUSH2 0x193E JUMPI PUSH0 DUP1 REVERT JUMPDEST PUSH1 0x5 DUP1 SLOAD SWAP1 PUSH0 PUSH2 0x194D DUP4 PUSH2 0x20B5 JUMP JUMPDEST SWAP2 SWAP1 POP SSTORE POP PUSH2 0x195A PUSH2 0x719 JUMP JUMPDEST PUSH0 PUSH1 0x1 JUMPDEST PUSH1 0x1 SLOAD DUP2 GT PUSH2 0x1A25 JUMPI PUSH0 DUP2 DUP2 MSTORE PUSH1 0x10 PUSH1 0x20 MSTORE PUSH1 0x40 SWAP1 KECCAK256 SLOAD PUSH1 0xFF AND DUP1 ISZERO PUSH2 0x1992 JUMPI POP PUSH0 DUP2 DUP2 MSTORE PUSH1 0x12 PUSH1 0x20 MSTORE PUSH1 0x40 SWAP1 KECCAK256 SLOAD PUSH1 0xFF AND ISZERO JUMPDEST DUP1 ISZERO PUSH2 0x19AC JUMPI POP PUSH0 DUP2 DUP2 MSTORE PUSH1 0x11 PUSH1 0x20 MSTORE PUSH1 0x40 SWAP1 KECCAK256 SLOAD PUSH1 0xFF AND ISZERO JUMPDEST ISZERO PUSH2 0x1A13 JUMPI DUP2 PUSH0 SUB PUSH2 0x19C0 JUMPI DUP1 SWAP2 POP PUSH2 0x1A13 JUMP JUMPDEST PUSH0 PUSH2 0x19D3 DUP3 PUSH2 0x19CE DUP6 PUSH2 0x11F1 JUMP JUMPDEST PUSH2 0x1C2B JUMP JUMPDEST SWAP1 POP DUP1 ISZERO PUSH2 0x19EE JUMPI PUSH2 0x19E5 DUP4 DUP3 PUSH2 0x95F JUMP JUMPDEST PUSH0 SWAP3 SWAP2 POP PUSH2 0x1A11 JUMP JUMPDEST PUSH0 PUSH2 0x19F8 DUP4 PUSH2 0x1D3F JUMP JUMPDEST SWAP1 POP DUP1 ISZERO PUSH2 0x1A0F JUMPI PUSH2 0x1A0A DUP5 DUP3 PUSH2 0x95F JUMP JUMPDEST PUSH0 SWAP4 SWAP3 POP JUMPDEST POP JUMPDEST POP JUMPDEST DUP1 PUSH2 0x1A1D DUP2 PUSH2 0x20B5 JUMP JUMPDEST SWAP2 POP POP PUSH2 0x195E JUMP JUMPDEST POP PUSH1 0x2 SLOAD PUSH2 0x1A31 PUSH2 0x1AC6 JUMP JUMPDEST GT PUSH2 0x1A8B JUMPI PUSH2 0x1A3E PUSH2 0x1B0F JUMP JUMPDEST PUSH2 0x1A46 PUSH2 0x1420 JUMP JUMPDEST PUSH2 0x1A4E PUSH2 0x1161 JUMP JUMPDEST PUSH0 PUSH1 0x5 DUP2 SWAP1 SSTORE PUSH1 0xA DUP1 SLOAD PUSH2 0xFF00 NOT AND PUSH2 0x100 OR SWAP1 SSTORE PUSH1 0x40 MLOAD PUSH32 0x4957BAACFCCF45D9F54657DC86692B68BEA7155D1951BEA16F81D430C5864F87 SWAP2 SWAP1 LOG1 JUMPDEST PUSH2 0x1A93 PUSH2 0x13BA JUMP JUMPDEST PUSH2 0x1A9B PUSH2 0x1891 JUMP JUMPDEST PUSH1 0x40 MLOAD PUSH32 0xF44CF147798F94C1025F83FF5A888484A8F7DE8328F57E099895C0DC605924A SWAP1 PUSH0 SWAP1 LOG1 POP JUMP JUMPDEST PUSH0 DUP1 PUSH1 0x1 JUMPDEST PUSH1 0x1 SLOAD DUP2 GT PUSH2 0x1B09 JUMPI PUSH0 DUP2 DUP2 MSTORE PUSH1 0x11 PUSH1 0x20 MSTORE PUSH1 0x40 SWAP1 KECCAK256 SLOAD PUSH1 0xFF AND PUSH2 0x1AF7 JUMPI DUP2 PUSH2 0x1AF3 DUP2 PUSH2 0x20B5 JUMP JUMPDEST SWAP3 POP POP JUMPDEST DUP1 PUSH2 0x1B01 DUP2 PUSH2 0x20B5 JUMP JUMPDEST SWAP2 POP POP PUSH2 0x1ACB JUMP JUMPDEST POP SWAP2 SWAP1 POP JUMP JUMPDEST PUSH1 0xC SLOAD PUSH1 0x1 PUSH1 0x1 PUSH1 0xA0 SHL SUB AND CALLER EQ PUSH2 0x1B39 JUMPI PUSH1 0x40 MLOAD PUSH3 0x461BCD PUSH1 0xE5 SHL DUP2 MSTORE PUSH1 0x4 ADD PUSH2 0x743 SWAP1 PUSH2 0x203E JUMP JUMPDEST PUSH1 0x1 JUMPDEST PUSH1 0x1 SLOAD DUP2 GT PUSH2 0x18F3 JUMPI PUSH0 DUP2 DUP2 MSTORE PUSH1 0x11 PUSH1 0x20 MSTORE PUSH1 0x40 SWAP1 KECCAK256 SLOAD PUSH1 0xFF AND PUSH2 0x1BB5 JUMPI PUSH1 0xB PUSH2 0x1B65 DUP3 PUSH2 0x11F1 JUMP JUMPDEST DUP2 SLOAD PUSH1 0x1 DUP2 ADD DUP4 SSTORE PUSH0 SWAP3 DUP4 MSTORE PUSH1 0x20 DUP1 DUP5 KECCAK256 SWAP1 SWAP2 ADD DUP1 SLOAD PUSH1 0x1 PUSH1 0x1 PUSH1 0xA0 SHL SUB NOT AND PUSH1 0x1 PUSH1 0x1 PUSH1 0xA0 SHL SUB SWAP4 SWAP1 SWAP4 AND SWAP3 SWAP1 SWAP3 OR SWAP1 SWAP2 SSTORE DUP3 DUP3 MSTORE PUSH1 0x1B SWAP1 MSTORE PUSH1 0x40 DUP2 KECCAK256 DUP1 SLOAD SWAP2 PUSH2 0x1BAF DUP4 PUSH2 0x20B5 JUMP JUMPDEST SWAP2 SWAP1 POP SSTORE POP JUMPDEST DUP1 PUSH2 0x1BBF DUP2 PUSH2 0x20B5 JUMP JUMPDEST SWAP2 POP POP PUSH2 0x1B3C JUMP JUMPDEST PUSH1 0xE SLOAD PUSH1 0x40 MLOAD PUSH4 0x9EADBF5 PUSH1 0xE0 SHL DUP2 MSTORE PUSH1 0x4 DUP2 ADD DUP5 SWAP1 MSTORE PUSH1 0x24 DUP2 ADD DUP4 SWAP1 MSTORE PUSH1 0x1 PUSH1 0x1 PUSH1 0xA0 SHL SUB SWAP1 SWAP2 AND SWAP1 PUSH4 0x9EADBF5 SWAP1 PUSH1 0x44 ADD PUSH0 PUSH1 0x40 MLOAD DUP1 DUP4 SUB DUP2 PUSH0 DUP8 DUP1 EXTCODESIZE ISZERO DUP1 ISZERO PUSH2 0x1C11 JUMPI PUSH0 DUP1 REVERT JUMPDEST POP GAS CALL ISZERO DUP1 ISZERO PUSH2 0x1C23 JUMPI RETURNDATASIZE PUSH0 DUP1 RETURNDATACOPY RETURNDATASIZE PUSH0 REVERT JUMPDEST POP POP POP POP POP POP JUMP JUMPDEST PUSH0 DUP1 JUMPDEST PUSH1 0x5 DUP2 LT ISZERO PUSH2 0x1D36 JUMPI PUSH1 0x1 SLOAD PUSH1 0x40 DUP1 MLOAD TIMESTAMP PUSH1 0x20 DUP3 ADD MSTORE SWAP1 DUP2 ADD DUP7 SWAP1 MSTORE PUSH0 SWAP2 SWAP1 PUSH1 0x60 ADD PUSH1 0x40 MLOAD PUSH1 0x20 DUP2 DUP4 SUB SUB DUP2 MSTORE SWAP1 PUSH1 0x40 MSTORE DUP1 MLOAD SWAP1 PUSH1 0x20 ADD KECCAK256 PUSH0 SHR PUSH2 0x1C72 SWAP2 SWAP1 PUSH2 0x20F7 JUMP JUMPDEST PUSH2 0x1C7D SWAP1 PUSH1 0x1 PUSH2 0x20CD JUMP JUMPDEST PUSH0 DUP2 DUP2 MSTORE PUSH1 0x10 PUSH1 0x20 MSTORE PUSH1 0x40 SWAP1 KECCAK256 SLOAD SWAP1 SWAP2 POP PUSH1 0xFF AND DUP1 ISZERO PUSH2 0x1CAB JUMPI POP PUSH0 DUP2 DUP2 MSTORE PUSH1 0x12 PUSH1 0x20 MSTORE PUSH1 0x40 SWAP1 KECCAK256 SLOAD PUSH1 0xFF AND ISZERO JUMPDEST DUP1 ISZERO PUSH2 0x1CC5 JUMPI POP PUSH0 DUP2 DUP2 MSTORE PUSH1 0x11 PUSH1 0x20 MSTORE PUSH1 0x40 SWAP1 KECCAK256 SLOAD PUSH1 0xFF AND ISZERO JUMPDEST DUP1 ISZERO PUSH2 0x1CEB JUMPI POP DUP4 PUSH1 0x1 PUSH1 0x1 PUSH1 0xA0 SHL SUB AND PUSH2 0x1CDF DUP3 PUSH2 0x11F1 JUMP JUMPDEST PUSH1 0x1 PUSH1 0x1 PUSH1 0xA0 SHL SUB AND EQ ISZERO JUMPDEST DUP1 ISZERO PUSH2 0x1D15 JUMPI POP PUSH2 0x1CFD DUP6 PUSH1 0x1 PUSH2 0x20CD JUMP JUMPDEST DUP2 EQ ISZERO DUP1 PUSH2 0x1D15 JUMPI POP PUSH2 0x1D11 PUSH1 0x1 DUP7 PUSH2 0x215C JUMP JUMPDEST DUP2 EQ ISZERO JUMPDEST ISZERO PUSH2 0x1D23 JUMPI SWAP2 POP PUSH2 0x713 SWAP1 POP JUMP JUMPDEST POP DUP1 PUSH2 0x1D2E DUP2 PUSH2 0x20B5 JUMP JUMPDEST SWAP2 POP POP PUSH2 0x1C2E JUMP JUMPDEST POP PUSH0 SWAP4 SWAP3 POP POP POP JUMP JUMPDEST PUSH0 DUP2 JUMPDEST PUSH1 0x1 SLOAD DUP2 GT PUSH2 0x1DAD JUMPI PUSH0 DUP2 DUP2 MSTORE PUSH1 0x10 PUSH1 0x20 MSTORE PUSH1 0x40 SWAP1 KECCAK256 SLOAD PUSH1 0xFF AND DUP1 ISZERO PUSH2 0x1D76 JUMPI POP PUSH0 DUP2 DUP2 MSTORE PUSH1 0x12 PUSH1 0x20 MSTORE PUSH1 0x40 SWAP1 KECCAK256 SLOAD PUSH1 0xFF AND ISZERO JUMPDEST DUP1 ISZERO PUSH2 0x1D90 JUMPI POP PUSH0 DUP2 DUP2 MSTORE PUSH1 0x11 PUSH1 0x20 MSTORE PUSH1 0x40 SWAP1 KECCAK256 SLOAD PUSH1 0xFF AND ISZERO JUMPDEST ISZERO PUSH2 0x1D9B JUMPI SWAP3 SWAP2 POP POP JUMP JUMPDEST DUP1 PUSH2 0x1DA5 DUP2 PUSH2 0x20B5 JUMP JUMPDEST SWAP2 POP POP PUSH2 0x1D42 JUMP JUMPDEST POP PUSH0 SWAP3 SWAP2 POP POP JUMP JUMPDEST DUP3 PUSH1 0x5 DUP2 ADD SWAP3 DUP3 ISZERO PUSH2 0x1DE3 JUMPI SWAP2 PUSH1 0x20 MUL DUP3 ADD JUMPDEST DUP3 DUP2 GT ISZERO PUSH2 0x1DE3 JUMPI DUP3 MLOAD DUP3 SSTORE SWAP2 PUSH1 0x20 ADD SWAP2 SWAP1 PUSH1 0x1 ADD SWAP1 PUSH2 0x1DC8 JUMP JUMPDEST POP PUSH2 0x1DEF SWAP3 SWAP2 POP PUSH2 0x1DF3 JUMP JUMPDEST POP SWAP1 JUMP JUMPDEST JUMPDEST DUP1 DUP3 GT ISZERO PUSH2 0x1DEF JUMPI PUSH0 DUP2 SSTORE PUSH1 0x1 ADD PUSH2 0x1DF4 JUMP JUMPDEST PUSH0 PUSH1 0x20 DUP3 DUP5 SUB SLT ISZERO PUSH2 0x1E17 JUMPI PUSH0 DUP1 REVERT JUMPDEST POP CALLDATALOAD SWAP2 SWAP1 POP JUMP JUMPDEST PUSH1 0x20 DUP1 DUP3 MSTORE DUP3 MLOAD DUP3 DUP3 ADD DUP2 SWAP1 MSTORE PUSH0 SWAP2 SWAP1 DUP5 DUP3 ADD SWAP1 PUSH1 0x40 DUP6 ADD SWAP1 DUP5 JUMPDEST DUP2 DUP2 LT ISZERO PUSH2 0x1E55 JUMPI DUP4 MLOAD DUP4 MSTORE SWAP3 DUP5 ADD SWAP3 SWAP2 DUP5 ADD SWAP2 PUSH1 0x1 ADD PUSH2 0x1E39 JUMP JUMPDEST POP SWAP1 SWAP7 SWAP6 POP POP POP POP POP POP JUMP JUMPDEST PUSH0 DUP1 PUSH1 0x40 DUP4 DUP6 SUB SLT ISZERO PUSH2 0x1E72 JUMPI PUSH0 DUP1 REVERT JUMPDEST POP POP DUP1 CALLDATALOAD SWAP3 PUSH1 0x20 SWAP1 SWAP2 ADD CALLDATALOAD SWAP2 POP JUMP JUMPDEST PUSH1 0x1 PUSH1 0x1 PUSH1 0xA0 SHL SUB DUP2 AND DUP2 EQ PUSH2 0x18F3 JUMPI PUSH0 DUP1 REVERT JUMPDEST PUSH0 PUSH1 0x20 DUP3 DUP5 SUB SLT ISZERO PUSH2 0x1EA5 JUMPI PUSH0 DUP1 REVERT JUMPDEST DUP2 CALLDATALOAD PUSH2 0x1EB0 DUP2 PUSH2 0x1E81 JUMP JUMPDEST SWAP4 SWAP3 POP POP POP JUMP JUMPDEST PUSH4 0x4E487B71 PUSH1 0xE0 SHL PUSH0 MSTORE PUSH1 0x41 PUSH1 0x4 MSTORE PUSH1 0x24 PUSH0 REVERT JUMPDEST PUSH1 0x40 MLOAD PUSH1 0xA0 DUP2 ADD PUSH8 0xFFFFFFFFFFFFFFFF DUP2 GT DUP3 DUP3 LT OR ISZERO PUSH2 0x1EEE JUMPI PUSH2 0x1EEE PUSH2 0x1EB7 JUMP JUMPDEST PUSH1 0x40 MSTORE SWAP1 JUMP JUMPDEST PUSH1 0x40 MLOAD PUSH1 0x1F DUP3 ADD PUSH1 0x1F NOT AND DUP2 ADD PUSH8 0xFFFFFFFFFFFFFFFF DUP2 GT DUP3 DUP3 LT OR ISZERO PUSH2 0x1F1D JUMPI PUSH2 0x1F1D PUSH2 0x1EB7 JUMP JUMPDEST PUSH1 0x40 MSTORE SWAP2 SWAP1 POP JUMP JUMPDEST PUSH0 DUP1 PUSH0 PUSH1 0x60 DUP5 DUP7 SUB SLT ISZERO PUSH2 0x1F37 JUMPI PUSH0 DUP1 REVERT JUMPDEST DUP4 CALLDATALOAD SWAP3 POP PUSH1 0x20 DUP1 DUP6 ADD CALLDATALOAD SWAP3 POP PUSH1 0x40 DUP6 ADD CALLDATALOAD PUSH8 0xFFFFFFFFFFFFFFFF DUP1 DUP3 GT ISZERO PUSH2 0x1F5D JUMPI PUSH0 DUP1 REVERT JUMPDEST DUP2 DUP8 ADD SWAP2 POP PUSH1 0x1F DUP9 DUP2 DUP5 ADD SLT PUSH2 0x1F71 JUMPI PUSH0 DUP1 REVERT JUMPDEST DUP3 CALLDATALOAD DUP3 DUP2 GT ISZERO PUSH2 0x1F83 JUMPI PUSH2 0x1F83 PUSH2 0x1EB7 JUMP JUMPDEST PUSH2 0x1F91 DUP6 DUP3 PUSH1 0x5 SHL ADD PUSH2 0x1EF4 JUMP JUMPDEST DUP2 DUP2 MSTORE DUP6 DUP2 ADD SWAP4 POP PUSH1 0xA0 SWAP2 DUP3 MUL DUP6 ADD DUP7 ADD SWAP2 DUP12 DUP4 GT ISZERO PUSH2 0x1FAF JUMPI PUSH0 DUP1 REVERT JUMPDEST SWAP5 DUP7 ADD SWAP5 JUMPDEST DUP3 DUP7 LT ISZERO PUSH2 0x200E JUMPI DUP12 DUP5 DUP8 ADD SLT PUSH2 0x1FCA JUMPI PUSH0 DUP1 DUP2 REVERT JUMPDEST PUSH2 0x1FD2 PUSH2 0x1ECB JUMP JUMPDEST DUP1 DUP3 DUP9 ADD DUP15 DUP2 GT ISZERO PUSH2 0x1FE3 JUMPI PUSH0 DUP1 DUP2 REVERT JUMPDEST DUP9 JUMPDEST DUP2 DUP2 LT ISZERO PUSH2 0x1FFC JUMPI DUP1 CALLDATALOAD DUP5 MSTORE SWAP3 DUP11 ADD SWAP3 DUP11 ADD PUSH2 0x1FE5 JUMP JUMPDEST POP POP DUP7 MSTORE POP SWAP5 DUP6 ADD SWAP5 SWAP4 DUP7 ADD SWAP4 PUSH2 0x1FB4 JUMP JUMPDEST POP DUP1 SWAP7 POP POP POP POP POP POP POP SWAP3 POP SWAP3 POP SWAP3 JUMP JUMPDEST PUSH0 PUSH1 0x20 DUP3 DUP5 SUB SLT ISZERO PUSH2 0x202F JUMPI PUSH0 DUP1 REVERT JUMPDEST DUP2 MLOAD DUP1 ISZERO ISZERO DUP2 EQ PUSH2 0x1EB0 JUMPI PUSH0 DUP1 REVERT JUMPDEST PUSH1 0x20 DUP1 DUP3 MSTORE PUSH1 0x2F SWAP1 DUP3 ADD MSTORE PUSH32 0x4F6E6C79206D61696E74656E616E63652077616C6C65742063616E2070657266 PUSH1 0x40 DUP3 ADD MSTORE PUSH15 0x37B936903A3434B99030B1BA34B7B7 PUSH1 0x89 SHL PUSH1 0x60 DUP3 ADD MSTORE PUSH1 0x80 ADD SWAP1 JUMP JUMPDEST PUSH4 0x4E487B71 PUSH1 0xE0 SHL PUSH0 MSTORE PUSH1 0x31 PUSH1 0x4 MSTORE PUSH1 0x24 PUSH0 REVERT JUMPDEST PUSH4 0x4E487B71 PUSH1 0xE0 SHL PUSH0 MSTORE PUSH1 0x11 PUSH1 0x4 MSTORE PUSH1 0x24 PUSH0 REVERT JUMPDEST PUSH0 PUSH1 0x1 DUP3 ADD PUSH2 0x20C6 JUMPI PUSH2 0x20C6 PUSH2 0x20A1 JUMP JUMPDEST POP PUSH1 0x1 ADD SWAP1 JUMP JUMPDEST DUP1 DUP3 ADD DUP1 DUP3 GT ISZERO PUSH2 0x713 JUMPI PUSH2 0x713 PUSH2 0x20A1 JUMP JUMPDEST DUP1 DUP3 MUL DUP2 ISZERO DUP3 DUP3 DIV DUP5 EQ OR PUSH2 0x713 JUMPI PUSH2 0x713 PUSH2 0x20A1 JUMP JUMPDEST PUSH0 DUP3 PUSH2 0x2111 JUMPI PUSH4 0x4E487B71 PUSH1 0xE0 SHL PUSH0 MSTORE PUSH1 0x12 PUSH1 0x4 MSTORE PUSH1 0x24 PUSH0 REVERT JUMPDEST POP MOD SWAP1 JUMP JUMPDEST PUSH4 0x4E487B71 PUSH1 0xE0 SHL PUSH0 MSTORE PUSH1 0x32 PUSH1 0x4 MSTORE PUSH1 0x24 PUSH0 REVERT JUMPDEST PUSH0 PUSH1 0x20 DUP3 DUP5 SUB SLT ISZERO PUSH2 0x213A JUMPI PUSH0 DUP1 REVERT JUMPDEST DUP2 MLOAD PUSH2 0x1EB0 DUP2 PUSH2 0x1E81 JUMP JUMPDEST PUSH0 PUSH1 0x20 DUP3 DUP5 SUB SLT ISZERO PUSH2 0x2155 JUMPI PUSH0 DUP1 REVERT JUMPDEST POP MLOAD SWAP2 SWAP1 POP JUMP JUMPDEST DUP2 DUP2 SUB DUP2 DUP2 GT ISZERO PUSH2 0x713 JUMPI PUSH2 0x713 PUSH2 0x20A1 JUMP INVALID LOG2 PUSH5 0x6970667358 0x22 SLT KECCAK256 DUP8 SELFDESTRUCT DUP14 JUMPI 0xB5 0xDC JUMP PUSH24 0x87996094A2918D386A411B12CD3530DCE8E07BE0B79264C3 PUSH5 0x736F6C6343 STOP ADDMOD ISZERO STOP CALLER "
		},
		"gasEstimates": {
			"creation": {
				"codeDepositCost": "1722600",
				"executionCost": "infinite",
				"totalCost": "infinite"
			},
			"external": {
				"HungerGamesBegin()": "2366",
				"NFTBOOSTBalance(uint256)": "2483",
				"NFTSKIPBalance(uint256)": "2548",
				"NFTVBalance(uint256)": "2592",
				"NFTXTRABalance(uint256)": "2524",
				"StatsSize()": "2405",
				"_maintenanceWallet()": "2426",
				"_startTimer()": "2340",
				"alive(uint256)": "2503",
				"aliveByID(uint256)": "4618",
				"battleLossOfNFT(uint256)": "2526",
				"battleWinsOfNFT(uint256)": "2546",
				"battlesCount()": "2363",
				"dead(uint256)": "2503",
				"enterBattle(uint256,uint256)": "infinite",
				"getAliveByID()": "infinite",
				"getAmountOfNonDead()": "infinite",
				"getMintAmount()": "infinite",
				"getNFTBOOSTBalance(uint256)": "infinite",
				"getNFTSKIPBalance(uint256)": "infinite",
				"getNFTVBalance(uint256)": "infinite",
				"getNFTXTRABalance(uint256)": "infinite",
				"getRoundWinnersLength()": "2404",
				"getUniqueOwners()": "infinite",
				"hasTimerPassed()": "6749",
				"lookForOpponent()": "infinite",
				"maxAmountOfWinners()": "2384",
				"newGame()": "2377",
				"nftContract()": "2381",
				"owner()": "2485",
				"ownerExists(address)": "2579",
				"ownerOf(uint256)": "infinite",
				"queue(uint256)": "2569",
				"queuecounter()": "2383",
				"resetAlive()": "infinite",
				"resetAliveByID()": "infinite",
				"resetQueue()": "infinite",
				"resetTimer()": "25542",
				"reviveAll()": "infinite",
				"roundDuration()": "304",
				"roundWinners(uint256)": "4744",
				"roundWinsOfNFT(uint256)": "2547",
				"roundsCount()": "2406",
				"startHungerGames()": "infinite",
				"startTimer()": "49760",
				"stats(uint256,uint256)": "2661",
				"statsInitialized(uint256)": "2570",
				"storeRoundWinners()": "infinite",
				"tokenContract()": "2470",
				"uniqueOwnersCounter()": "2361",
				"updateStats(uint256,uint256,uint256[5][])": "infinite"
			},
			"internal": {
				"getNextAvailable(uint256)": "infinite",
				"getRandomOpponent(uint256,address)": "infinite",
				"removePotions(uint256,uint256)": "infinite"
			}
		},
		"methodIdentifiers": {
			"HungerGamesBegin()": "8efabae6",
			"NFTBOOSTBalance(uint256)": "039aa9cf",
			"NFTSKIPBalance(uint256)": "54ca45d8",
			"NFTVBalance(uint256)": "580a155a",
			"NFTXTRABalance(uint256)": "f3a395fc",
			"StatsSize()": "eea09028",
			"_maintenanceWallet()": "51a2f687",
			"_startTimer()": "7812c4f5",
			"alive(uint256)": "6573c787",
			"aliveByID(uint256)": "472a20da",
			"battleLossOfNFT(uint256)": "1e2b0586",
			"battleWinsOfNFT(uint256)": "aa12a619",
			"battlesCount()": "11c9080d",
			"dead(uint256)": "e77f7b4b",
			"enterBattle(uint256,uint256)": "40978d42",
			"getAliveByID()": "306648e8",
			"getAmountOfNonDead()": "ef561bf5",
			"getMintAmount()": "a8995deb",
			"getNFTBOOSTBalance(uint256)": "3b32edd4",
			"getNFTSKIPBalance(uint256)": "6e2ed3c4",
			"getNFTVBalance(uint256)": "c1ae5e72",
			"getNFTXTRABalance(uint256)": "2ace2af5",
			"getRoundWinnersLength()": "2a303c79",
			"getUniqueOwners()": "709fa8f8",
			"hasTimerPassed()": "33057537",
			"lookForOpponent()": "ec8f2e4d",
			"maxAmountOfWinners()": "60592066",
			"newGame()": "7d03f5f3",
			"nftContract()": "d56d229d",
			"owner()": "8da5cb5b",
			"ownerExists(address)": "59dbfde8",
			"ownerOf(uint256)": "6352211e",
			"queue(uint256)": "ddf0b009",
			"queuecounter()": "dd49c004",
			"resetAlive()": "e472d7d3",
			"resetAliveByID()": "2b1fbdff",
			"resetQueue()": "4ea61992",
			"resetTimer()": "7d55d304",
			"reviveAll()": "9d670c6d",
			"roundDuration()": "f7cb789a",
			"roundWinners(uint256)": "76a4956c",
			"roundWinsOfNFT(uint256)": "893e2bd1",
			"roundsCount()": "9f5cfe03",
			"startHungerGames()": "2f4960ee",
			"startTimer()": "a39f7449",
			"stats(uint256,uint256)": "4433c468",
			"statsInitialized(uint256)": "8a015e30",
			"storeRoundWinners()": "fdc06ccf",
			"tokenContract()": "55a373d6",
			"uniqueOwnersCounter()": "d65cb04a",
			"updateStats(uint256,uint256,uint256[5][])": "dd888545"
		}
	},
	"abi": [
		{
			"inputs": [
				{
					"internalType": "address",
					"name": "_nftAddress",
					"type": "address"
				},
				{
					"internalType": "address",
					"name": "_tokenAddress",
					"type": "address"
				}
			],
			"stateMutability": "nonpayable",
			"type": "constructor"
		},
		{
			"anonymous": false,
			"inputs": [],
			"name": "Enteredbattled",
			"type": "event"
		},
		{
			"anonymous": false,
			"inputs": [
				{
					"indexed": true,
					"internalType": "address",
					"name": "previousOwner",
					"type": "address"
				},
				{
					"indexed": true,
					"internalType": "address",
					"name": "newOwner",
					"type": "address"
				}
			],
			"name": "OwnershipTransferred",
			"type": "event"
		},
		{
			"anonymous": false,
			"inputs": [],
			"name": "QueueResettet",
			"type": "event"
		},
		{
			"anonymous": false,
			"inputs": [],
			"name": "RevivedAll",
			"type": "event"
		},
		{
			"anonymous": false,
			"inputs": [],
			"name": "StartedHungerGames",
			"type": "event"
		},
		{
			"anonymous": false,
			"inputs": [
				{
					"indexed": false,
					"internalType": "uint256",
					"name": "timestamp",
					"type": "uint256"
				}
			],
			"name": "TimerReset",
			"type": "event"
		},
		{
			"anonymous": false,
			"inputs": [
				{
					"indexed": false,
					"internalType": "uint256",
					"name": "timestamp",
					"type": "uint256"
				}
			],
			"name": "TimerStarted",
			"type": "event"
		},
		{
			"anonymous": false,
			"inputs": [],
			"name": "WinnersFound",
			"type": "event"
		},
		{
			"anonymous": false,
			"inputs": [],
			"name": "matchingOpponents",
			"type": "event"
		},
		{
			"inputs": [],
			"name": "HungerGamesBegin",
			"outputs": [
				{
					"internalType": "bool",
					"name": "",
					"type": "bool"
				}
			],
			"stateMutability": "view",
			"type": "function"
		},
		{
			"inputs": [
				{
					"internalType": "uint256",
					"name": "",
					"type": "uint256"
				}
			],
			"name": "NFTBOOSTBalance",
			"outputs": [
				{
					"internalType": "bool",
					"name": "",
					"type": "bool"
				}
			],
			"stateMutability": "view",
			"type": "function"
		},
		{
			"inputs": [
				{
					"internalType": "uint256",
					"name": "",
					"type": "uint256"
				}
			],
			"name": "NFTSKIPBalance",
			"outputs": [
				{
					"internalType": "bool",
					"name": "",
					"type": "bool"
				}
			],
			"stateMutability": "view",
			"type": "function"
		},
		{
			"inputs": [
				{
					"internalType": "uint256",
					"name": "",
					"type": "uint256"
				}
			],
			"name": "NFTVBalance",
			"outputs": [
				{
					"internalType": "bool",
					"name": "",
					"type": "bool"
				}
			],
			"stateMutability": "view",
			"type": "function"
		},
		{
			"inputs": [
				{
					"internalType": "uint256",
					"name": "",
					"type": "uint256"
				}
			],
			"name": "NFTXTRABalance",
			"outputs": [
				{
					"internalType": "bool",
					"name": "",
					"type": "bool"
				}
			],
			"stateMutability": "view",
			"type": "function"
		},
		{
			"inputs": [],
			"name": "StatsSize",
			"outputs": [
				{
					"internalType": "uint256",
					"name": "",
					"type": "uint256"
				}
			],
			"stateMutability": "view",
			"type": "function"
		},
		{
			"inputs": [],
			"name": "_maintenanceWallet",
			"outputs": [
				{
					"internalType": "address",
					"name": "",
					"type": "address"
				}
			],
			"stateMutability": "view",
			"type": "function"
		},
		{
			"inputs": [],
			"name": "_startTimer",
			"outputs": [
				{
					"internalType": "uint256",
					"name": "",
					"type": "uint256"
				}
			],
			"stateMutability": "view",
			"type": "function"
		},
		{
			"inputs": [
				{
					"internalType": "uint256",
					"name": "",
					"type": "uint256"
				}
			],
			"name": "alive",
			"outputs": [
				{
					"internalType": "bool",
					"name": "",
					"type": "bool"
				}
			],
			"stateMutability": "view",
			"type": "function"
		},
		{
			"inputs": [
				{
					"internalType": "uint256",
					"name": "",
					"type": "uint256"
				}
			],
			"name": "aliveByID",
			"outputs": [
				{
					"internalType": "uint256",
					"name": "",
					"type": "uint256"
				}
			],
			"stateMutability": "view",
			"type": "function"
		},
		{
			"inputs": [
				{
					"internalType": "uint256",
					"name": "",
					"type": "uint256"
				}
			],
			"name": "battleLossOfNFT",
			"outputs": [
				{
					"internalType": "uint256",
					"name": "",
					"type": "uint256"
				}
			],
			"stateMutability": "view",
			"type": "function"
		},
		{
			"inputs": [
				{
					"internalType": "uint256",
					"name": "",
					"type": "uint256"
				}
			],
			"name": "battleWinsOfNFT",
			"outputs": [
				{
					"internalType": "uint256",
					"name": "",
					"type": "uint256"
				}
			],
			"stateMutability": "view",
			"type": "function"
		},
		{
			"inputs": [],
			"name": "battlesCount",
			"outputs": [
				{
					"internalType": "uint256",
					"name": "",
					"type": "uint256"
				}
			],
			"stateMutability": "view",
			"type": "function"
		},
		{
			"inputs": [
				{
					"internalType": "uint256",
					"name": "",
					"type": "uint256"
				}
			],
			"name": "dead",
			"outputs": [
				{
					"internalType": "bool",
					"name": "",
					"type": "bool"
				}
			],
			"stateMutability": "view",
			"type": "function"
		},
		{
			"inputs": [
				{
					"internalType": "uint256",
					"name": "First",
					"type": "uint256"
				},
				{
					"internalType": "uint256",
					"name": "Second",
					"type": "uint256"
				}
			],
			"name": "enterBattle",
			"outputs": [],
			"stateMutability": "nonpayable",
			"type": "function"
		},
		{
			"inputs": [],
			"name": "getAliveByID",
			"outputs": [
				{
					"internalType": "uint256[]",
					"name": "",
					"type": "uint256[]"
				}
			],
			"stateMutability": "view",
			"type": "function"
		},
		{
			"inputs": [],
			"name": "getAmountOfNonDead",
			"outputs": [
				{
					"internalType": "uint256",
					"name": "",
					"type": "uint256"
				}
			],
			"stateMutability": "view",
			"type": "function"
		},
		{
			"inputs": [],
			"name": "getMintAmount",
			"outputs": [
				{
					"internalType": "uint256",
					"name": "",
					"type": "uint256"
				}
			],
			"stateMutability": "view",
			"type": "function"
		},
		{
			"inputs": [
				{
					"internalType": "uint256",
					"name": "NFTId",
					"type": "uint256"
				}
			],
			"name": "getNFTBOOSTBalance",
			"outputs": [
				{
					"internalType": "bool",
					"name": "",
					"type": "bool"
				}
			],
			"stateMutability": "view",
			"type": "function"
		},
		{
			"inputs": [
				{
					"internalType": "uint256",
					"name": "NFTId",
					"type": "uint256"
				}
			],
			"name": "getNFTSKIPBalance",
			"outputs": [
				{
					"internalType": "bool",
					"name": "",
					"type": "bool"
				}
			],
			"stateMutability": "view",
			"type": "function"
		},
		{
			"inputs": [
				{
					"internalType": "uint256",
					"name": "NFTId",
					"type": "uint256"
				}
			],
			"name": "getNFTVBalance",
			"outputs": [
				{
					"internalType": "bool",
					"name": "",
					"type": "bool"
				}
			],
			"stateMutability": "view",
			"type": "function"
		},
		{
			"inputs": [
				{
					"internalType": "uint256",
					"name": "NFTId",
					"type": "uint256"
				}
			],
			"name": "getNFTXTRABalance",
			"outputs": [
				{
					"internalType": "bool",
					"name": "",
					"type": "bool"
				}
			],
			"stateMutability": "view",
			"type": "function"
		},
		{
			"inputs": [],
			"name": "getRoundWinnersLength",
			"outputs": [
				{
					"internalType": "uint256",
					"name": "",
					"type": "uint256"
				}
			],
			"stateMutability": "view",
			"type": "function"
		},
		{
			"inputs": [],
			"name": "getUniqueOwners",
			"outputs": [
				{
					"internalType": "uint256",
					"name": "",
					"type": "uint256"
				}
			],
			"stateMutability": "nonpayable",
			"type": "function"
		},
		{
			"inputs": [],
			"name": "hasTimerPassed",
			"outputs": [
				{
					"internalType": "bool",
					"name": "",
					"type": "bool"
				}
			],
			"stateMutability": "view",
			"type": "function"
		},
		{
			"inputs": [],
			"name": "lookForOpponent",
			"outputs": [],
			"stateMutability": "nonpayable",
			"type": "function"
		},
		{
			"inputs": [],
			"name": "maxAmountOfWinners",
			"outputs": [
				{
					"internalType": "uint256",
					"name": "",
					"type": "uint256"
				}
			],
			"stateMutability": "view",
			"type": "function"
		},
		{
			"inputs": [],
			"name": "newGame",
			"outputs": [
				{
					"internalType": "bool",
					"name": "",
					"type": "bool"
				}
			],
			"stateMutability": "view",
			"type": "function"
		},
		{
			"inputs": [],
			"name": "nftContract",
			"outputs": [
				{
					"internalType": "contract IGnomesCollective",
					"name": "",
					"type": "address"
				}
			],
			"stateMutability": "view",
			"type": "function"
		},
		{
			"inputs": [],
			"name": "owner",
			"outputs": [
				{
					"internalType": "address",
					"name": "",
					"type": "address"
				}
			],
			"stateMutability": "view",
			"type": "function"
		},
		{
			"inputs": [
				{
					"internalType": "address",
					"name": "",
					"type": "address"
				}
			],
			"name": "ownerExists",
			"outputs": [
				{
					"internalType": "bool",
					"name": "",
					"type": "bool"
				}
			],
			"stateMutability": "view",
			"type": "function"
		},
		{
			"inputs": [
				{
					"internalType": "uint256",
					"name": "id",
					"type": "uint256"
				}
			],
			"name": "ownerOf",
			"outputs": [
				{
					"internalType": "address",
					"name": "",
					"type": "address"
				}
			],
			"stateMutability": "view",
			"type": "function"
		},
		{
			"inputs": [
				{
					"internalType": "uint256",
					"name": "",
					"type": "uint256"
				}
			],
			"name": "queue",
			"outputs": [
				{
					"internalType": "bool",
					"name": "",
					"type": "bool"
				}
			],
			"stateMutability": "view",
			"type": "function"
		},
		{
			"inputs": [],
			"name": "queuecounter",
			"outputs": [
				{
					"internalType": "uint256",
					"name": "",
					"type": "uint256"
				}
			],
			"stateMutability": "view",
			"type": "function"
		},
		{
			"inputs": [],
			"name": "resetAlive",
			"outputs": [],
			"stateMutability": "nonpayable",
			"type": "function"
		},
		{
			"inputs": [],
			"name": "resetAliveByID",
			"outputs": [],
			"stateMutability": "nonpayable",
			"type": "function"
		},
		{
			"inputs": [],
			"name": "resetQueue",
			"outputs": [],
			"stateMutability": "nonpayable",
			"type": "function"
		},
		{
			"inputs": [],
			"name": "resetTimer",
			"outputs": [],
			"stateMutability": "nonpayable",
			"type": "function"
		},
		{
			"inputs": [],
			"name": "reviveAll",
			"outputs": [],
			"stateMutability": "nonpayable",
			"type": "function"
		},
		{
			"inputs": [],
			"name": "roundDuration",
			"outputs": [
				{
					"internalType": "uint256",
					"name": "",
					"type": "uint256"
				}
			],
			"stateMutability": "view",
			"type": "function"
		},
		{
			"inputs": [
				{
					"internalType": "uint256",
					"name": "",
					"type": "uint256"
				}
			],
			"name": "roundWinners",
			"outputs": [
				{
					"internalType": "address",
					"name": "",
					"type": "address"
				}
			],
			"stateMutability": "view",
			"type": "function"
		},
		{
			"inputs": [
				{
					"internalType": "uint256",
					"name": "",
					"type": "uint256"
				}
			],
			"name": "roundWinsOfNFT",
			"outputs": [
				{
					"internalType": "uint256",
					"name": "",
					"type": "uint256"
				}
			],
			"stateMutability": "view",
			"type": "function"
		},
		{
			"inputs": [],
			"name": "roundsCount",
			"outputs": [
				{
					"internalType": "uint256",
					"name": "",
					"type": "uint256"
				}
			],
			"stateMutability": "view",
			"type": "function"
		},
		{
			"inputs": [],
			"name": "startHungerGames",
			"outputs": [],
			"stateMutability": "nonpayable",
			"type": "function"
		},
		{
			"inputs": [],
			"name": "startTimer",
			"outputs": [],
			"stateMutability": "nonpayable",
			"type": "function"
		},
		{
			"inputs": [
				{
					"internalType": "uint256",
					"name": "",
					"type": "uint256"
				},
				{
					"internalType": "uint256",
					"name": "",
					"type": "uint256"
				}
			],
			"name": "stats",
			"outputs": [
				{
					"internalType": "uint256",
					"name": "",
					"type": "uint256"
				}
			],
			"stateMutability": "view",
			"type": "function"
		},
		{
			"inputs": [
				{
					"internalType": "uint256",
					"name": "",
					"type": "uint256"
				}
			],
			"name": "statsInitialized",
			"outputs": [
				{
					"internalType": "bool",
					"name": "",
					"type": "bool"
				}
			],
			"stateMutability": "view",
			"type": "function"
		},
		{
			"inputs": [],
			"name": "storeRoundWinners",
			"outputs": [],
			"stateMutability": "nonpayable",
			"type": "function"
		},
		{
			"inputs": [],
			"name": "tokenContract",
			"outputs": [
				{
					"internalType": "contract IHungerGames",
					"name": "",
					"type": "address"
				}
			],
			"stateMutability": "view",
			"type": "function"
		},
		{
			"inputs": [],
			"name": "uniqueOwnersCounter",
			"outputs": [
				{
					"internalType": "uint256",
					"name": "",
					"type": "uint256"
				}
			],
			"stateMutability": "view",
			"type": "function"
		},
		{
			"inputs": [
				{
					"internalType": "uint256",
					"name": "startIdx",
					"type": "uint256"
				},
				{
					"internalType": "uint256",
					"name": "batchSize",
					"type": "uint256"
				},
				{
					"internalType": "uint256[5][]",
					"name": "idStats",
					"type": "uint256[5][]"
				}
			],
			"name": "updateStats",
			"outputs": [],
			"stateMutability": "nonpayable",
			"type": "function"
		}
	]
}