{
	"data": {
		"bytecode": {
			"linkReferences": {},
			"object": "608060405260056002819055600381905561016890555f600955600b805461ffff191661010017905534801562000034575f80fd5b5060405162002a0738038062002a0783398101604081905262000057916200010d565b5f80546001600160a01b031916339081178255604051909182917f8be0079c531659141344cd1fd0a4f28419497f9722a3daafe3b4186f6b6457e0908290a350600e80546001600160a01b039384166001600160a01b031991821617909155600f80549290931691811691909117909155600d8054909116737034990879d4e4c0f9dade892ad641bc45dedbbf1790555f60015562000143565b80516001600160a01b038116811462000108575f80fd5b919050565b5f80604083850312156200011f575f80fd5b6200012a83620000f1565b91506200013a60208401620000f1565b90509250929050565b6128b680620001515f395ff3fe608060405234801561000f575f80fd5b5060043610610333575f3560e01c80637d55d304116101af578063c1ae5e72116100fe578063ec8f2e4d1161009e578063f3a395fc11610079578063f3a395fc14610741578063f6be71d114610763578063f7cb789a14610776578063fdc06ccf1461077f575f80fd5b8063ec8f2e4d14610728578063eea0902814610730578063ef561bf514610739575f80fd5b8063dd49c004116100d9578063dd49c004146106d3578063ddf0b009146106dc578063e472d7d3146106fe578063e77f7b4b14610706575f80fd5b8063c1ae5e72146106a4578063d56d229d146106b7578063d65cb04a146106ca575f80fd5b80639d670c6d11610169578063a39f744911610144578063a39f744914610612578063a8995deb1461061a578063aa12a61914610622578063c1428bfa14610641575f80fd5b80639d670c6d146105f15780639f5cfe03146105f9578063a2b946aa14610602575f80fd5b80637d55d3041461057857806383d0089014610580578063893e2bd1146105935780638a015e30146105b25780638da5cb5b146105d45780638efabae6146105e4575f80fd5b806349d2631a1161028557806360592066116102255780636e2ed3c4116102005780636e2ed3c41461053757806376a4956c1461054a5780637812c4f51461055d5780637d03f5f314610566575f80fd5b806360592066146104f95780636352211e146105025780636573c78714610515575f80fd5b806354ca45d81161026057806354ca45d81461048057806355a373d6146104a2578063580a155a146104b557806359dbfde8146104d7575f80fd5b806349d2631a1461043a5780634ea619921461044d57806351a2f68714610455575f80fd5b80632f4960ee116102f05780633b32edd4116102cb5780633b32edd4146103ee57806340978d42146104015780634433c46814610414578063472a20da14610427575f80fd5b80632f4960ee146103c9578063306648e8146103d157806333057537146103e6575f80fd5b8063039aa9cf1461033757806311c9080d1461036e5780631e2b0586146103855780632a303c79146103a45780632ace2af5146103ac5780632b1fbdff146103bf575b5f80fd5b6103596103453660046123b4565b60176020525f908152604090205460ff1681565b60405190151581526020015b60405180910390f35b61037760075481565b604051908152602001610365565b6103776103933660046123b4565b601c6020525f908152604090205481565b600c54610377565b6103596103ba3660046123b4565b610787565b6103c76107f9565b005b6103c7610874565b6103d961099a565b60405161036591906123cb565b6103596109f0565b6103596103fc3660046123b4565b610a45565b6103c761040f36600461240e565b610a76565b61037761042236600461240e565b61125a565b6103776104353660046123b4565b61127c565b6103c761044836600461249c565b61129b565b6103c7611560565b600d54610468906001600160a01b031681565b6040516001600160a01b039091168152602001610365565b61035961048e3660046123b4565b60196020525f908152604090205460ff1681565b600f54610468906001600160a01b031681565b6103596104c33660046123b4565b60186020525f908152604090205460ff1681565b6103596104e53660046125a2565b60116020525f908152604090205460ff1681565b61037760025481565b6104686105103660046123b4565b6115f0565b6103596105233660046123b4565b60146020525f908152604090205460ff1681565b6103596105453660046123b4565b61165b565b6104686105583660046123b4565b61168c565b61037760045481565b600b5461035990610100900460ff1681565b6103c76116b4565b6103c761058e3660046123b4565b61171a565b6103776105a13660046123b4565b601d6020525f908152604090205481565b6103596105c03660046123b4565b60156020525f908152604090205460ff1681565b5f546001600160a01b0316610468565b600b546103599060ff1681565b6103c761184d565b61037760065481565b600b54610100900460ff16610359565b6103c76118ef565b61037761195e565b6103776106303660046123b4565b601b6020525f908152604090205481565b61069261064f3660046123b4565b60106020525f90815260409020805460019091015460ff808216916101008104821691620100008204811691630100000081048216916401000000009091041686565b604051610365969594939291906125d8565b6103596106b23660046123b4565b6119ce565b600e54610468906001600160a01b031681565b61037760095481565b61037760015481565b6103596106ea3660046123b4565b60126020525f908152604090205460ff1681565b6103c76119ff565b6103596107143660046123b4565b60136020525f908152604090205460ff1681565b6103c7611a61565b61037760035481565b610377611dbc565b61035961074f3660046123b4565b60166020525f908152604090205460ff1681565b6103c76107713660046123b4565b611e39565b61037760055481565b6103c7611e68565b600f54604051632ace2af560e01b8152600481018390525f916001600160a01b031690632ace2af5906024015b602060405180830381865afa1580156107cf573d5f803e3d5ffd5b505050506040513d601f19601f820116820180604052508101906107f39190612627565b92915050565b600d546001600160a01b0316331461082c5760405162461bcd60e51b815260040161082390612646565b60405180910390fd5b600a545f5b8181101561087057600a80548061084a5761084a612695565b600190038181905f5260205f20015f905590558080610868906126bd565b915050610831565b5050565b600d546001600160a01b0316331461089e5760405162461bcd60e51b815260040161082390612646565b5f60015b6108aa61195e565b811161094d575f8181526012602052604090205460ff161580156108dc57505f8181526013602052604090205460ff16155b1561093b575f818152601260205260408120805460ff19166001908117909155600a805491820181559091527fc65a7bb8d6351c1cf70c95a316cc6a92839c986682d98bc35f958f4883f9d2a80181905581610937816126bd565b9250505b80610945816126bd565b9150506108a2565b508060015f82825461095f91906126d5565b9091555050600b805461ff00191690556040517fe045608e87eadd2f9961a089f4c933adb62f8cc3fcbc9d23119c595d95d05bf3905f90a150565b6060600a8054806020026020016040519081016040528092919081815260200182805480156109e657602002820191905f5260205f20905b8154815260200190600101908083116109d2575b5050505050905090565b600b545f90610100900460ff1615610a2557600554610a109060066126e8565b600454610a1d91906126d5565b421015905090565b600b5460ff1615610a4057600554600454610a1d91906126d5565b505f90565b600f54604051630eccbb7560e21b8152600481018390525f916001600160a01b031690633b32edd4906024016107b4565b600d546001600160a01b03163314610aa05760405162461bcd60e51b815260040161082390612646565b5f8281526013602052604090205460ff16158015610acc57505f8181526013602052604090205460ff16155b610b225760405162461bcd60e51b815260206004820152602160248201527f426f7468204e465473206d75737420626520616c69766520746f20626174746c6044820152606560f81b6064820152608401610823565b6003545f839052601a6020526005148015610b4857506003545f829052601a6020526005145b610b9e5760405162461bcd60e51b815260206004820152602160248201527f496e76616c696420737461747320666f72206f6e65206f6620746865204e46546044820152607360f81b6064820152608401610823565b610ba78261165b565b8015610bb95750610bb7816119ce565b155b80610bda5750610bc88161165b565b8015610bda5750610bd8826119ce565b155b15610c2357610beb82826002611f20565b610bf5828261219e565b5f918252601460205260408083208054600160ff199182168117909255928452922080549091169091179055565b5f828152601a6020526040808220815160a08101928390529160059082845b815481526020019060010190808311610c42575050505f858152601a6020526040808220815160a08101928390529596509194935090915060059082845b815481526020019060010190808311610c805750505050509050610ca384610a45565b15610d9957604080514260208201529081018590525f90600590606001604051602081830303815290604052805190602001205f1c610ce29190612713565b90505f60054287604051602001610d169291909182526020820152691cd958dbdb9914dd185d60b21b6040820152604a0190565b60408051601f198184030181529190528051602090910120610d398460016126d5565b610d4391906126d5565b610d4d9190612713565b5f878152601a60205260409020909150600a908360058110610d7157610d71612726565b01555f868152601a60205260409020600a908260058110610d9457610d94612726565b015550505b610da283610a45565b15610e9857604080514260208201529081018490525f90600590606001604051602081830303815290604052805190602001205f1c610de19190612713565b90505f60054286604051602001610e159291909182526020820152691cd958dbdb9914dd185d60b21b6040820152604a0190565b60408051601f198184030181529190528051602090910120610e388460016126d5565b610e4291906126d5565b610e4c9190612713565b5f868152601a60205260409020909150600a908360058110610e7057610e70612726565b01555f858152601a60205260409020600a908260058110610e9357610e93612726565b015550505b610ea1846119ce565b15610ee8575f5b6005811015610ee6575f858152601a60205260409020600a908260058110610ed257610ed2612726565b015580610ede816126bd565b915050610ea8565b505b610ef1836119ce565b15610f38575f5b6005811015610f36575f848152601a60205260409020600a908260058110610f2257610f22612726565b015580610f2e816126bd565b915050610ef8565b505b5f848152601a6020526040812060048101546003820154600283015460018401549354929391929091610f6a916126d5565b610f7491906126d5565b610f7e91906126d5565b610f8891906126d5565b5f858152601a60205260408120600481015460038201546002830154600184015493549596509394919390929091610fc091906126d5565b610fca91906126d5565b610fd491906126d5565b610fde91906126d5565b90505f610feb82846126d5565b116110465760405162461bcd60e51b815260206004820152602560248201527f546f74616c20706f776572206d7573742062652067726561746572207468616e604482015264207a65726f60d81b6064820152608401610823565b5f606461105344426126d5565b61105d9190612713565b90505f8284111561107257506046811061108b565b828410156110855750601e81101561108b565b50603281105b80156111485761109a87610787565b6110bb575f878152601360205260409020805460ff191660011790556110e2565b6110c487610787565b156110e2575f878152601460205260409020805460ff191660011790555b5f888152601460205260408120805460ff191660011790556111079089908990611f20565b5f888152601b60205260408120805491611120836126bd565b90915550505f878152601c6020526040812080549161113e836126bd565b91905055506111fe565b61115188610787565b611172575f888152601360205260409020805460ff19166001179055611199565b61117b88610787565b15611199575f888152601460205260409020805460ff191660011790555b5f878152601460205260409020805460ff191660019081179091556111c19089908990611f20565b5f878152601b602052604081208054916111da836126bd565b90915550505f888152601c602052604081208054916111f8836126bd565b91905055505b5f888152601a6020526040902061121790876005612362565b505f878152601a6020526040902061123190866005612362565b5061123c888861219e565b60078054905f61124b836126bd565b91905055505050505050505050565b601a602052815f5260405f208160058110611273575f80fd5b01549150829050565b600a818154811061128b575f80fd5b5f91825260209091200154905081565b600d546001600160a01b031633146112c55760405162461bcd60e51b815260040161082390612646565b600182101580156113495750600e5f9054906101000a90046001600160a01b03166001600160a01b031663d5abeb016040518163ffffffff1660e01b8152600401602060405180830381865afa158015611321573d5f803e3d5ffd5b505050506040513d601f19601f82011682018060405250810190611345919061273a565b8211155b61138c5760405162461bcd60e51b815260206004820152601460248201527324b73b30b634b21039ba30b93a1034b73232bc1760611b6044820152606401610823565b5f8151116113e75760405162461bcd60e51b815260206004820152602260248201527f696453746174732061727261792073686f756c64206e6f7420626520656d70746044820152613c9760f11b6064820152608401610823565b5f60018251846113f791906126d5565b6114019190612751565b9050600e5f9054906101000a90046001600160a01b03166001600160a01b031663d5abeb016040518163ffffffff1660e01b8152600401602060405180830381865afa158015611453573d5f803e3d5ffd5b505050506040513d601f19601f82011682018060405250810190611477919061273a565b8111156114c65760405162461bcd60e51b815260206004820152601c60248201527f456e6420696e6465782065786365656473206d6178537570706c792e000000006044820152606401610823565b5f5b825181101561155a575f6114dc82866126d5565b5f8181526015602052604090205490915060ff166115475783828151811061150657611506612726565b6020026020010151601a5f8381526020019081526020015f2090600561152d929190612362565b505f818152601560205260409020805460ff191660011790555b5080611552816126bd565b9150506114c8565b50505050565b600d546001600160a01b0316331461158a5760405162461bcd60e51b815260040161082390612646565b60015b61159561195e565b81116115c5575f818152601260205260408120805460ff19169055600155806115bd816126bd565b91505061158d565b506040517f3984c48732886b85c3609f4771c475531ed8e67132a3f30c3555a372b3edd6b3905f90a1565b600e546040516331a9108f60e11b8152600481018390525f916001600160a01b031690636352211e90602401602060405180830381865afa158015611637573d5f803e3d5ffd5b505050506040513d601f19601f820116820180604052508101906107f39190612764565b600f54604051631b8bb4f160e21b8152600481018390525f916001600160a01b031690636e2ed3c4906024016107b4565b600c818154811061169b575f80fd5b5f918252602090912001546001600160a01b0316905081565b600d546001600160a01b031633146116de5760405162461bcd60e51b815260040161082390612646565b4260048190556040519081527fd1dbb2ce8081405078443ef34dae718285114121a39370b14ef01b9d2b0a2083906020015b60405180910390a1565b600d546001600160a01b031633146117445760405162461bcd60e51b815260040161082390612646565b801561184a575f816117586009600a61285f565b600f5461176f91906001600160a01b0316316126e8565b611779919061286d565b90505f5b8281101561184757600f54600c80546001600160a01b039092169163af95d4d3919084906117ad90600190612751565b6117b79190612751565b815481106117c7576117c7612726565b5f9182526020909120015460405160e083901b6001600160e01b03191681526001600160a01b039091166004820152602481018590526044015f604051808303815f87803b158015611817575f80fd5b505af1158015611829573d5f803e3d5ffd5b50505050805f0315611847578061183f816126bd565b91505061177d565b50505b50565b600d546001600160a01b031633146118775760405162461bcd60e51b815260040161082390612646565b60015b61188261195e565b81116118c4575f818152601360209081526040808320805460ff19908116909155601490925290912080549091169055806118bc816126bd565b91505061187a565b506040517fc0a4569bdaa5bae3dabcabe5ac5c590863cad4bad443b5d2051d1d200f9fa4da905f90a1565b600d546001600160a01b031633146119195760405162461bcd60e51b815260040161082390612646565b600b805460ff191660011790554260048190556040517f90e4e1076e66d07aad698457e7a86b4425881ab1586d63c00ba753f88757e9a8916117109190815260200190565b600e546040805163a8995deb60e01b815290515f926001600160a01b03169163a8995deb9160048083019260209291908290030181865afa1580156119a5573d5f803e3d5ffd5b505050506040513d601f19601f820116820180604052508101906119c9919061273a565b905090565b600f546040516360d72f3960e11b8152600481018390525f916001600160a01b03169063c1ae5e72906024016107b4565b600d546001600160a01b03163314611a295760405162461bcd60e51b815260040161082390612646565b60015b611a3461195e565b811161184a575f818152601460205260409020805460ff1916905580611a59816126bd565b915050611a2c565b600d546001600160a01b03163314611a8b5760405162461bcd60e51b815260040161082390612646565b60026001541015611af35760405162461bcd60e51b815260206004820152602c60248201527f496e73756666696369656e74206e756d626572206f662070617274696369706160448201526b6e747320696e20717565756560a01b6064820152608401610823565b611afb6109f0565b611b475760405162461bcd60e51b815260206004820152601760248201527f54696d6572206861736e277420706173736564207965740000000000000000006044820152606401610823565b611b4f6107f9565b5f60015b6001548111611cf9575f8181526012602052604090205460ff168015611b8757505f8181526014602052604090205460ff16155b8015611ba157505f8181526013602052604090205460ff16155b15611ce757815f03611bb557809150611ce7565b5f611bc882611bc3856115f0565b612202565b9050828103611c345760405162461bcd60e51b815260206004820152603260248201527f5365636f6e64206f70706f6e656e742073686f756c646e277420626520746865604482015271081cd85b5948185cc81d1a1948199a5c9cdd60721b6064820152608401610823565b8015611c4d57611c448382610a76565b5f929150611ce5565b5f611c57836122ec565b9050838103611cce5760405162461bcd60e51b815260206004820152603a60248201527f4e65787420617661696c61626c65206f70706f6e656e742073686f756c646e2760448201527f74206265207468652073616d65206173207468652066697273740000000000006064820152608401610823565b8015611ce357611cde8482610a76565b5f9392505b505b505b80611cf1816126bd565b915050611b53565b505f611d03611dbc565b90506002548111611d6c57611d16611e68565b611d1f8161171a565b611d2761184d565b611d2f611560565b5f6006819055600b805461ff0019166101001790556040517f4957baacfccf45d9f54657dc86692b68bea7155d1951bea16f81d430c5864f879190a15b60068054905f611d7b836126bd565b9190505550611d886116b4565b611d906119ff565b6040517f0f44cf147798f94c1025f83ff5a888484a8f7de8328f57e099895c0dc605924a905f90a15050565b5f8060015b6001548111611e33575f8181526013602052604090205460ff16611e215781611de9816126bd565b600a80546001810182555f919091527fc65a7bb8d6351c1cf70c95a316cc6a92839c986682d98bc35f958f4883f9d2a8018390559250505b80611e2b816126bd565b915050611dc1565b50919050565b600d546001600160a01b03163314611e635760405162461bcd60e51b815260040161082390612646565b600555565b600d546001600160a01b03163314611e925760405162461bcd60e51b815260040161082390612646565b60015b600154811161184a575f8181526013602052604090205460ff16611f0e57600c611ebe826115f0565b81546001810183555f928352602080842090910180546001600160a01b0319166001600160a01b039390931692909217909155828252601d905260408120805491611f08836126bd565b91905055505b80611f18816126bd565b915050611e95565b6040518060c00160405280838152602001826002811115611f4357611f436125c4565b8152602001611f5185610787565b15158152602001611f6185610a45565b15158152602001611f71856119ce565b15158152602001611f818561165b565b151590525f848152601060209081526040909120825181559082015160018083018054909160ff1990911690836002811115611fbf57611fbf6125c4565b02179055506040820151600190910180546060840151608085015160a09095015115156401000000000264ff00000000199515156301000000029590951664ffff00000019911515620100000262ff000019951515610100029590951662ffff0019909316929092179390931792909216919091179190911790555f8082600281111561204e5761204e6125c4565b14612079576001826002811115612067576120676125c4565b1461207357600261207c565b5f61207c565b60015b90506040518060c001604052808581526020018260028111156120a1576120a16125c4565b81526020016120af85610787565b151581526020016120bf85610a45565b151581526020016120cf856119ce565b151581526020016120df8561165b565b151590525f848152601060209081526040909120825181559082015160018083018054909160ff199091169083600281111561211d5761211d6125c4565b02179055506040820151600190910180546060840151608085015160a09095015115156401000000000264ff00000000199515156301000000029590951664ffff00000019911515620100000262ff000019951515610100029590951662ffff00199093169290921793909317929092169190911791909117905550505050565b600f546040516309eadbf560e01b815260048101849052602481018390526001600160a01b03909116906309eadbf5906044015f604051808303815f87803b1580156121e8575f80fd5b505af11580156121fa573d5f803e3d5ffd5b505050505050565b5f805b60058110156122e357600154604080514260208201529081018690525f9190606001604051602081830303815290604052805190602001205f1c6122499190612713565b6122549060016126d5565b5f8181526012602052604090205490915060ff16801561228257505f8181526014602052604090205460ff16155b801561229c57505f8181526013602052604090205460ff16155b80156122c25750836001600160a01b03166122b6826115f0565b6001600160a01b031614155b156122d05791506107f39050565b50806122db816126bd565b915050612205565b505f9392505050565b5f815b600154811161235a575f8181526012602052604090205460ff16801561232357505f8181526014602052604090205460ff16155b801561233d57505f8181526013602052604090205460ff16155b156123485792915050565b80612352816126bd565b9150506122ef565b505f92915050565b8260058101928215612390579160200282015b82811115612390578251825591602001919060010190612375565b5061239c9291506123a0565b5090565b5b8082111561239c575f81556001016123a1565b5f602082840312156123c4575f80fd5b5035919050565b602080825282518282018190525f9190848201906040850190845b81811015612402578351835292840192918401916001016123e6565b50909695505050505050565b5f806040838503121561241f575f80fd5b50508035926020909101359150565b634e487b7160e01b5f52604160045260245ffd5b60405160a0810167ffffffffffffffff811182821017156124655761246561242e565b60405290565b604051601f8201601f1916810167ffffffffffffffff811182821017156124945761249461242e565b604052919050565b5f80604083850312156124ad575f80fd5b8235915060208084013567ffffffffffffffff808211156124cc575f80fd5b8186019150601f87818401126124e0575f80fd5b8235828111156124f2576124f261242e565b612500858260051b0161246b565b818152858101935060a091820285018601918a83111561251e575f80fd5b948601945b8286101561257d578a84870112612539575f8081fd5b612541612442565b808288018d811115612552575f8081fd5b885b8181101561256b5780358452928a01928a01612554565b50508652509485019493860193612523565b508096505050505050509250929050565b6001600160a01b038116811461184a575f80fd5b5f602082840312156125b2575f80fd5b81356125bd8161258e565b9392505050565b634e487b7160e01b5f52602160045260245ffd5b86815260c08101600387106125fb57634e487b7160e01b5f52602160045260245ffd5b60208201969096529315156040850152911515606084015215156080830152151560a090910152919050565b5f60208284031215612637575f80fd5b815180151581146125bd575f80fd5b6020808252602f908201527f4f6e6c79206d61696e74656e616e63652077616c6c65742063616e207065726660408201526e37b936903a3434b99030b1ba34b7b760891b606082015260800190565b634e487b7160e01b5f52603160045260245ffd5b634e487b7160e01b5f52601160045260245ffd5b5f600182016126ce576126ce6126a9565b5060010190565b808201808211156107f3576107f36126a9565b80820281158282048414176107f3576107f36126a9565b634e487b7160e01b5f52601260045260245ffd5b5f82612721576127216126ff565b500690565b634e487b7160e01b5f52603260045260245ffd5b5f6020828403121561274a575f80fd5b5051919050565b818103818111156107f3576107f36126a9565b5f60208284031215612774575f80fd5b81516125bd8161258e565b600181815b808511156127b957815f190482111561279f5761279f6126a9565b808516156127ac57918102915b93841c9390800290612784565b509250929050565b5f826127cf575060016107f3565b816127db57505f6107f3565b81600181146127f157600281146127fb57612817565b60019150506107f3565b60ff84111561280c5761280c6126a9565b50506001821b6107f3565b5060208310610133831016604e8410600b841016171561283a575081810a6107f3565b612844838361277f565b805f1904821115612857576128576126a9565b029392505050565b5f6125bd60ff8416836127c1565b5f8261287b5761287b6126ff565b50049056fea2646970667358221220131e36d17fedbb1a33b98f22c4023ec0b2f39d38d35036414303ae76ce7dcd0264736f6c63430008150033",
			"opcodes": "PUSH1 0x80 PUSH1 0x40 MSTORE PUSH1 0x5 PUSH1 0x2 DUP2 SWAP1 SSTORE PUSH1 0x3 DUP2 SWAP1 SSTORE PUSH2 0x168 SWAP1 SSTORE PUSH0 PUSH1 0x9 SSTORE PUSH1 0xB DUP1 SLOAD PUSH2 0xFFFF NOT AND PUSH2 0x100 OR SWAP1 SSTORE CALLVALUE DUP1 ISZERO PUSH3 0x34 JUMPI PUSH0 DUP1 REVERT JUMPDEST POP PUSH1 0x40 MLOAD PUSH3 0x2A07 CODESIZE SUB DUP1 PUSH3 0x2A07 DUP4 CODECOPY DUP2 ADD PUSH1 0x40 DUP2 SWAP1 MSTORE PUSH3 0x57 SWAP2 PUSH3 0x10D JUMP JUMPDEST PUSH0 DUP1 SLOAD PUSH1 0x1 PUSH1 0x1 PUSH1 0xA0 SHL SUB NOT AND CALLER SWAP1 DUP2 OR DUP3 SSTORE PUSH1 0x40 MLOAD SWAP1 SWAP2 DUP3 SWAP2 PUSH32 0x8BE0079C531659141344CD1FD0A4F28419497F9722A3DAAFE3B4186F6B6457E0 SWAP1 DUP3 SWAP1 LOG3 POP PUSH1 0xE DUP1 SLOAD PUSH1 0x1 PUSH1 0x1 PUSH1 0xA0 SHL SUB SWAP4 DUP5 AND PUSH1 0x1 PUSH1 0x1 PUSH1 0xA0 SHL SUB NOT SWAP2 DUP3 AND OR SWAP1 SWAP2 SSTORE PUSH1 0xF DUP1 SLOAD SWAP3 SWAP1 SWAP4 AND SWAP2 DUP2 AND SWAP2 SWAP1 SWAP2 OR SWAP1 SWAP2 SSTORE PUSH1 0xD DUP1 SLOAD SWAP1 SWAP2 AND PUSH20 0x7034990879D4E4C0F9DADE892AD641BC45DEDBBF OR SWAP1 SSTORE PUSH0 PUSH1 0x1 SSTORE PUSH3 0x143 JUMP JUMPDEST DUP1 MLOAD PUSH1 0x1 PUSH1 0x1 PUSH1 0xA0 SHL SUB DUP2 AND DUP2 EQ PUSH3 0x108 JUMPI PUSH0 DUP1 REVERT JUMPDEST SWAP2 SWAP1 POP JUMP JUMPDEST PUSH0 DUP1 PUSH1 0x40 DUP4 DUP6 SUB SLT ISZERO PUSH3 0x11F JUMPI PUSH0 DUP1 REVERT JUMPDEST PUSH3 0x12A DUP4 PUSH3 0xF1 JUMP JUMPDEST SWAP2 POP PUSH3 0x13A PUSH1 0x20 DUP5 ADD PUSH3 0xF1 JUMP JUMPDEST SWAP1 POP SWAP3 POP SWAP3 SWAP1 POP JUMP JUMPDEST PUSH2 0x28B6 DUP1 PUSH3 0x151 PUSH0 CODECOPY PUSH0 RETURN INVALID PUSH1 0x80 PUSH1 0x40 MSTORE CALLVALUE DUP1 ISZERO PUSH2 0xF JUMPI PUSH0 DUP1 REVERT JUMPDEST POP PUSH1 0x4 CALLDATASIZE LT PUSH2 0x333 JUMPI PUSH0 CALLDATALOAD PUSH1 0xE0 SHR DUP1 PUSH4 0x7D55D304 GT PUSH2 0x1AF JUMPI DUP1 PUSH4 0xC1AE5E72 GT PUSH2 0xFE JUMPI DUP1 PUSH4 0xEC8F2E4D GT PUSH2 0x9E JUMPI DUP1 PUSH4 0xF3A395FC GT PUSH2 0x79 JUMPI DUP1 PUSH4 0xF3A395FC EQ PUSH2 0x741 JUMPI DUP1 PUSH4 0xF6BE71D1 EQ PUSH2 0x763 JUMPI DUP1 PUSH4 0xF7CB789A EQ PUSH2 0x776 JUMPI DUP1 PUSH4 0xFDC06CCF EQ PUSH2 0x77F JUMPI PUSH0 DUP1 REVERT JUMPDEST DUP1 PUSH4 0xEC8F2E4D EQ PUSH2 0x728 JUMPI DUP1 PUSH4 0xEEA09028 EQ PUSH2 0x730 JUMPI DUP1 PUSH4 0xEF561BF5 EQ PUSH2 0x739 JUMPI PUSH0 DUP1 REVERT JUMPDEST DUP1 PUSH4 0xDD49C004 GT PUSH2 0xD9 JUMPI DUP1 PUSH4 0xDD49C004 EQ PUSH2 0x6D3 JUMPI DUP1 PUSH4 0xDDF0B009 EQ PUSH2 0x6DC JUMPI DUP1 PUSH4 0xE472D7D3 EQ PUSH2 0x6FE JUMPI DUP1 PUSH4 0xE77F7B4B EQ PUSH2 0x706 JUMPI PUSH0 DUP1 REVERT JUMPDEST DUP1 PUSH4 0xC1AE5E72 EQ PUSH2 0x6A4 JUMPI DUP1 PUSH4 0xD56D229D EQ PUSH2 0x6B7 JUMPI DUP1 PUSH4 0xD65CB04A EQ PUSH2 0x6CA JUMPI PUSH0 DUP1 REVERT JUMPDEST DUP1 PUSH4 0x9D670C6D GT PUSH2 0x169 JUMPI DUP1 PUSH4 0xA39F7449 GT PUSH2 0x144 JUMPI DUP1 PUSH4 0xA39F7449 EQ PUSH2 0x612 JUMPI DUP1 PUSH4 0xA8995DEB EQ PUSH2 0x61A JUMPI DUP1 PUSH4 0xAA12A619 EQ PUSH2 0x622 JUMPI DUP1 PUSH4 0xC1428BFA EQ PUSH2 0x641 JUMPI PUSH0 DUP1 REVERT JUMPDEST DUP1 PUSH4 0x9D670C6D EQ PUSH2 0x5F1 JUMPI DUP1 PUSH4 0x9F5CFE03 EQ PUSH2 0x5F9 JUMPI DUP1 PUSH4 0xA2B946AA EQ PUSH2 0x602 JUMPI PUSH0 DUP1 REVERT JUMPDEST DUP1 PUSH4 0x7D55D304 EQ PUSH2 0x578 JUMPI DUP1 PUSH4 0x83D00890 EQ PUSH2 0x580 JUMPI DUP1 PUSH4 0x893E2BD1 EQ PUSH2 0x593 JUMPI DUP1 PUSH4 0x8A015E30 EQ PUSH2 0x5B2 JUMPI DUP1 PUSH4 0x8DA5CB5B EQ PUSH2 0x5D4 JUMPI DUP1 PUSH4 0x8EFABAE6 EQ PUSH2 0x5E4 JUMPI PUSH0 DUP1 REVERT JUMPDEST DUP1 PUSH4 0x49D2631A GT PUSH2 0x285 JUMPI DUP1 PUSH4 0x60592066 GT PUSH2 0x225 JUMPI DUP1 PUSH4 0x6E2ED3C4 GT PUSH2 0x200 JUMPI DUP1 PUSH4 0x6E2ED3C4 EQ PUSH2 0x537 JUMPI DUP1 PUSH4 0x76A4956C EQ PUSH2 0x54A JUMPI DUP1 PUSH4 0x7812C4F5 EQ PUSH2 0x55D JUMPI DUP1 PUSH4 0x7D03F5F3 EQ PUSH2 0x566 JUMPI PUSH0 DUP1 REVERT JUMPDEST DUP1 PUSH4 0x60592066 EQ PUSH2 0x4F9 JUMPI DUP1 PUSH4 0x6352211E EQ PUSH2 0x502 JUMPI DUP1 PUSH4 0x6573C787 EQ PUSH2 0x515 JUMPI PUSH0 DUP1 REVERT JUMPDEST DUP1 PUSH4 0x54CA45D8 GT PUSH2 0x260 JUMPI DUP1 PUSH4 0x54CA45D8 EQ PUSH2 0x480 JUMPI DUP1 PUSH4 0x55A373D6 EQ PUSH2 0x4A2 JUMPI DUP1 PUSH4 0x580A155A EQ PUSH2 0x4B5 JUMPI DUP1 PUSH4 0x59DBFDE8 EQ PUSH2 0x4D7 JUMPI PUSH0 DUP1 REVERT JUMPDEST DUP1 PUSH4 0x49D2631A EQ PUSH2 0x43A JUMPI DUP1 PUSH4 0x4EA61992 EQ PUSH2 0x44D JUMPI DUP1 PUSH4 0x51A2F687 EQ PUSH2 0x455 JUMPI PUSH0 DUP1 REVERT JUMPDEST DUP1 PUSH4 0x2F4960EE GT PUSH2 0x2F0 JUMPI DUP1 PUSH4 0x3B32EDD4 GT PUSH2 0x2CB JUMPI DUP1 PUSH4 0x3B32EDD4 EQ PUSH2 0x3EE JUMPI DUP1 PUSH4 0x40978D42 EQ PUSH2 0x401 JUMPI DUP1 PUSH4 0x4433C468 EQ PUSH2 0x414 JUMPI DUP1 PUSH4 0x472A20DA EQ PUSH2 0x427 JUMPI PUSH0 DUP1 REVERT JUMPDEST DUP1 PUSH4 0x2F4960EE EQ PUSH2 0x3C9 JUMPI DUP1 PUSH4 0x306648E8 EQ PUSH2 0x3D1 JUMPI DUP1 PUSH4 0x33057537 EQ PUSH2 0x3E6 JUMPI PUSH0 DUP1 REVERT JUMPDEST DUP1 PUSH4 0x39AA9CF EQ PUSH2 0x337 JUMPI DUP1 PUSH4 0x11C9080D EQ PUSH2 0x36E JUMPI DUP1 PUSH4 0x1E2B0586 EQ PUSH2 0x385 JUMPI DUP1 PUSH4 0x2A303C79 EQ PUSH2 0x3A4 JUMPI DUP1 PUSH4 0x2ACE2AF5 EQ PUSH2 0x3AC JUMPI DUP1 PUSH4 0x2B1FBDFF EQ PUSH2 0x3BF JUMPI JUMPDEST PUSH0 DUP1 REVERT JUMPDEST PUSH2 0x359 PUSH2 0x345 CALLDATASIZE PUSH1 0x4 PUSH2 0x23B4 JUMP JUMPDEST PUSH1 0x17 PUSH1 0x20 MSTORE PUSH0 SWAP1 DUP2 MSTORE PUSH1 0x40 SWAP1 KECCAK256 SLOAD PUSH1 0xFF AND DUP2 JUMP JUMPDEST PUSH1 0x40 MLOAD SWAP1 ISZERO ISZERO DUP2 MSTORE PUSH1 0x20 ADD JUMPDEST PUSH1 0x40 MLOAD DUP1 SWAP2 SUB SWAP1 RETURN JUMPDEST PUSH2 0x377 PUSH1 0x7 SLOAD DUP2 JUMP JUMPDEST PUSH1 0x40 MLOAD SWAP1 DUP2 MSTORE PUSH1 0x20 ADD PUSH2 0x365 JUMP JUMPDEST PUSH2 0x377 PUSH2 0x393 CALLDATASIZE PUSH1 0x4 PUSH2 0x23B4 JUMP JUMPDEST PUSH1 0x1C PUSH1 0x20 MSTORE PUSH0 SWAP1 DUP2 MSTORE PUSH1 0x40 SWAP1 KECCAK256 SLOAD DUP2 JUMP JUMPDEST PUSH1 0xC SLOAD PUSH2 0x377 JUMP JUMPDEST PUSH2 0x359 PUSH2 0x3BA CALLDATASIZE PUSH1 0x4 PUSH2 0x23B4 JUMP JUMPDEST PUSH2 0x787 JUMP JUMPDEST PUSH2 0x3C7 PUSH2 0x7F9 JUMP JUMPDEST STOP JUMPDEST PUSH2 0x3C7 PUSH2 0x874 JUMP JUMPDEST PUSH2 0x3D9 PUSH2 0x99A JUMP JUMPDEST PUSH1 0x40 MLOAD PUSH2 0x365 SWAP2 SWAP1 PUSH2 0x23CB JUMP JUMPDEST PUSH2 0x359 PUSH2 0x9F0 JUMP JUMPDEST PUSH2 0x359 PUSH2 0x3FC CALLDATASIZE PUSH1 0x4 PUSH2 0x23B4 JUMP JUMPDEST PUSH2 0xA45 JUMP JUMPDEST PUSH2 0x3C7 PUSH2 0x40F CALLDATASIZE PUSH1 0x4 PUSH2 0x240E JUMP JUMPDEST PUSH2 0xA76 JUMP JUMPDEST PUSH2 0x377 PUSH2 0x422 CALLDATASIZE PUSH1 0x4 PUSH2 0x240E JUMP JUMPDEST PUSH2 0x125A JUMP JUMPDEST PUSH2 0x377 PUSH2 0x435 CALLDATASIZE PUSH1 0x4 PUSH2 0x23B4 JUMP JUMPDEST PUSH2 0x127C JUMP JUMPDEST PUSH2 0x3C7 PUSH2 0x448 CALLDATASIZE PUSH1 0x4 PUSH2 0x249C JUMP JUMPDEST PUSH2 0x129B JUMP JUMPDEST PUSH2 0x3C7 PUSH2 0x1560 JUMP JUMPDEST PUSH1 0xD SLOAD PUSH2 0x468 SWAP1 PUSH1 0x1 PUSH1 0x1 PUSH1 0xA0 SHL SUB AND DUP2 JUMP JUMPDEST PUSH1 0x40 MLOAD PUSH1 0x1 PUSH1 0x1 PUSH1 0xA0 SHL SUB SWAP1 SWAP2 AND DUP2 MSTORE PUSH1 0x20 ADD PUSH2 0x365 JUMP JUMPDEST PUSH2 0x359 PUSH2 0x48E CALLDATASIZE PUSH1 0x4 PUSH2 0x23B4 JUMP JUMPDEST PUSH1 0x19 PUSH1 0x20 MSTORE PUSH0 SWAP1 DUP2 MSTORE PUSH1 0x40 SWAP1 KECCAK256 SLOAD PUSH1 0xFF AND DUP2 JUMP JUMPDEST PUSH1 0xF SLOAD PUSH2 0x468 SWAP1 PUSH1 0x1 PUSH1 0x1 PUSH1 0xA0 SHL SUB AND DUP2 JUMP JUMPDEST PUSH2 0x359 PUSH2 0x4C3 CALLDATASIZE PUSH1 0x4 PUSH2 0x23B4 JUMP JUMPDEST PUSH1 0x18 PUSH1 0x20 MSTORE PUSH0 SWAP1 DUP2 MSTORE PUSH1 0x40 SWAP1 KECCAK256 SLOAD PUSH1 0xFF AND DUP2 JUMP JUMPDEST PUSH2 0x359 PUSH2 0x4E5 CALLDATASIZE PUSH1 0x4 PUSH2 0x25A2 JUMP JUMPDEST PUSH1 0x11 PUSH1 0x20 MSTORE PUSH0 SWAP1 DUP2 MSTORE PUSH1 0x40 SWAP1 KECCAK256 SLOAD PUSH1 0xFF AND DUP2 JUMP JUMPDEST PUSH2 0x377 PUSH1 0x2 SLOAD DUP2 JUMP JUMPDEST PUSH2 0x468 PUSH2 0x510 CALLDATASIZE PUSH1 0x4 PUSH2 0x23B4 JUMP JUMPDEST PUSH2 0x15F0 JUMP JUMPDEST PUSH2 0x359 PUSH2 0x523 CALLDATASIZE PUSH1 0x4 PUSH2 0x23B4 JUMP JUMPDEST PUSH1 0x14 PUSH1 0x20 MSTORE PUSH0 SWAP1 DUP2 MSTORE PUSH1 0x40 SWAP1 KECCAK256 SLOAD PUSH1 0xFF AND DUP2 JUMP JUMPDEST PUSH2 0x359 PUSH2 0x545 CALLDATASIZE PUSH1 0x4 PUSH2 0x23B4 JUMP JUMPDEST PUSH2 0x165B JUMP JUMPDEST PUSH2 0x468 PUSH2 0x558 CALLDATASIZE PUSH1 0x4 PUSH2 0x23B4 JUMP JUMPDEST PUSH2 0x168C JUMP JUMPDEST PUSH2 0x377 PUSH1 0x4 SLOAD DUP2 JUMP JUMPDEST PUSH1 0xB SLOAD PUSH2 0x359 SWAP1 PUSH2 0x100 SWAP1 DIV PUSH1 0xFF AND DUP2 JUMP JUMPDEST PUSH2 0x3C7 PUSH2 0x16B4 JUMP JUMPDEST PUSH2 0x3C7 PUSH2 0x58E CALLDATASIZE PUSH1 0x4 PUSH2 0x23B4 JUMP JUMPDEST PUSH2 0x171A JUMP JUMPDEST PUSH2 0x377 PUSH2 0x5A1 CALLDATASIZE PUSH1 0x4 PUSH2 0x23B4 JUMP JUMPDEST PUSH1 0x1D PUSH1 0x20 MSTORE PUSH0 SWAP1 DUP2 MSTORE PUSH1 0x40 SWAP1 KECCAK256 SLOAD DUP2 JUMP JUMPDEST PUSH2 0x359 PUSH2 0x5C0 CALLDATASIZE PUSH1 0x4 PUSH2 0x23B4 JUMP JUMPDEST PUSH1 0x15 PUSH1 0x20 MSTORE PUSH0 SWAP1 DUP2 MSTORE PUSH1 0x40 SWAP1 KECCAK256 SLOAD PUSH1 0xFF AND DUP2 JUMP JUMPDEST PUSH0 SLOAD PUSH1 0x1 PUSH1 0x1 PUSH1 0xA0 SHL SUB AND PUSH2 0x468 JUMP JUMPDEST PUSH1 0xB SLOAD PUSH2 0x359 SWAP1 PUSH1 0xFF AND DUP2 JUMP JUMPDEST PUSH2 0x3C7 PUSH2 0x184D JUMP JUMPDEST PUSH2 0x377 PUSH1 0x6 SLOAD DUP2 JUMP JUMPDEST PUSH1 0xB SLOAD PUSH2 0x100 SWAP1 DIV PUSH1 0xFF AND PUSH2 0x359 JUMP JUMPDEST PUSH2 0x3C7 PUSH2 0x18EF JUMP JUMPDEST PUSH2 0x377 PUSH2 0x195E JUMP JUMPDEST PUSH2 0x377 PUSH2 0x630 CALLDATASIZE PUSH1 0x4 PUSH2 0x23B4 JUMP JUMPDEST PUSH1 0x1B PUSH1 0x20 MSTORE PUSH0 SWAP1 DUP2 MSTORE PUSH1 0x40 SWAP1 KECCAK256 SLOAD DUP2 JUMP JUMPDEST PUSH2 0x692 PUSH2 0x64F CALLDATASIZE PUSH1 0x4 PUSH2 0x23B4 JUMP JUMPDEST PUSH1 0x10 PUSH1 0x20 MSTORE PUSH0 SWAP1 DUP2 MSTORE PUSH1 0x40 SWAP1 KECCAK256 DUP1 SLOAD PUSH1 0x1 SWAP1 SWAP2 ADD SLOAD PUSH1 0xFF DUP1 DUP3 AND SWAP2 PUSH2 0x100 DUP2 DIV DUP3 AND SWAP2 PUSH3 0x10000 DUP3 DIV DUP2 AND SWAP2 PUSH4 0x1000000 DUP2 DIV DUP3 AND SWAP2 PUSH5 0x100000000 SWAP1 SWAP2 DIV AND DUP7 JUMP JUMPDEST PUSH1 0x40 MLOAD PUSH2 0x365 SWAP7 SWAP6 SWAP5 SWAP4 SWAP3 SWAP2 SWAP1 PUSH2 0x25D8 JUMP JUMPDEST PUSH2 0x359 PUSH2 0x6B2 CALLDATASIZE PUSH1 0x4 PUSH2 0x23B4 JUMP JUMPDEST PUSH2 0x19CE JUMP JUMPDEST PUSH1 0xE SLOAD PUSH2 0x468 SWAP1 PUSH1 0x1 PUSH1 0x1 PUSH1 0xA0 SHL SUB AND DUP2 JUMP JUMPDEST PUSH2 0x377 PUSH1 0x9 SLOAD DUP2 JUMP JUMPDEST PUSH2 0x377 PUSH1 0x1 SLOAD DUP2 JUMP JUMPDEST PUSH2 0x359 PUSH2 0x6EA CALLDATASIZE PUSH1 0x4 PUSH2 0x23B4 JUMP JUMPDEST PUSH1 0x12 PUSH1 0x20 MSTORE PUSH0 SWAP1 DUP2 MSTORE PUSH1 0x40 SWAP1 KECCAK256 SLOAD PUSH1 0xFF AND DUP2 JUMP JUMPDEST PUSH2 0x3C7 PUSH2 0x19FF JUMP JUMPDEST PUSH2 0x359 PUSH2 0x714 CALLDATASIZE PUSH1 0x4 PUSH2 0x23B4 JUMP JUMPDEST PUSH1 0x13 PUSH1 0x20 MSTORE PUSH0 SWAP1 DUP2 MSTORE PUSH1 0x40 SWAP1 KECCAK256 SLOAD PUSH1 0xFF AND DUP2 JUMP JUMPDEST PUSH2 0x3C7 PUSH2 0x1A61 JUMP JUMPDEST PUSH2 0x377 PUSH1 0x3 SLOAD DUP2 JUMP JUMPDEST PUSH2 0x377 PUSH2 0x1DBC JUMP JUMPDEST PUSH2 0x359 PUSH2 0x74F CALLDATASIZE PUSH1 0x4 PUSH2 0x23B4 JUMP JUMPDEST PUSH1 0x16 PUSH1 0x20 MSTORE PUSH0 SWAP1 DUP2 MSTORE PUSH1 0x40 SWAP1 KECCAK256 SLOAD PUSH1 0xFF AND DUP2 JUMP JUMPDEST PUSH2 0x3C7 PUSH2 0x771 CALLDATASIZE PUSH1 0x4 PUSH2 0x23B4 JUMP JUMPDEST PUSH2 0x1E39 JUMP JUMPDEST PUSH2 0x377 PUSH1 0x5 SLOAD DUP2 JUMP JUMPDEST PUSH2 0x3C7 PUSH2 0x1E68 JUMP JUMPDEST PUSH1 0xF SLOAD PUSH1 0x40 MLOAD PUSH4 0x2ACE2AF5 PUSH1 0xE0 SHL DUP2 MSTORE PUSH1 0x4 DUP2 ADD DUP4 SWAP1 MSTORE PUSH0 SWAP2 PUSH1 0x1 PUSH1 0x1 PUSH1 0xA0 SHL SUB AND SWAP1 PUSH4 0x2ACE2AF5 SWAP1 PUSH1 0x24 ADD JUMPDEST PUSH1 0x20 PUSH1 0x40 MLOAD DUP1 DUP4 SUB DUP2 DUP7 GAS STATICCALL ISZERO DUP1 ISZERO PUSH2 0x7CF JUMPI RETURNDATASIZE PUSH0 DUP1 RETURNDATACOPY RETURNDATASIZE PUSH0 REVERT JUMPDEST POP POP POP POP PUSH1 0x40 MLOAD RETURNDATASIZE PUSH1 0x1F NOT PUSH1 0x1F DUP3 ADD AND DUP3 ADD DUP1 PUSH1 0x40 MSTORE POP DUP2 ADD SWAP1 PUSH2 0x7F3 SWAP2 SWAP1 PUSH2 0x2627 JUMP JUMPDEST SWAP3 SWAP2 POP POP JUMP JUMPDEST PUSH1 0xD SLOAD PUSH1 0x1 PUSH1 0x1 PUSH1 0xA0 SHL SUB AND CALLER EQ PUSH2 0x82C JUMPI PUSH1 0x40 MLOAD PUSH3 0x461BCD PUSH1 0xE5 SHL DUP2 MSTORE PUSH1 0x4 ADD PUSH2 0x823 SWAP1 PUSH2 0x2646 JUMP JUMPDEST PUSH1 0x40 MLOAD DUP1 SWAP2 SUB SWAP1 REVERT JUMPDEST PUSH1 0xA SLOAD PUSH0 JUMPDEST DUP2 DUP2 LT ISZERO PUSH2 0x870 JUMPI PUSH1 0xA DUP1 SLOAD DUP1 PUSH2 0x84A JUMPI PUSH2 0x84A PUSH2 0x2695 JUMP JUMPDEST PUSH1 0x1 SWAP1 SUB DUP2 DUP2 SWAP1 PUSH0 MSTORE PUSH1 0x20 PUSH0 KECCAK256 ADD PUSH0 SWAP1 SSTORE SWAP1 SSTORE DUP1 DUP1 PUSH2 0x868 SWAP1 PUSH2 0x26BD JUMP JUMPDEST SWAP2 POP POP PUSH2 0x831 JUMP JUMPDEST POP POP JUMP JUMPDEST PUSH1 0xD SLOAD PUSH1 0x1 PUSH1 0x1 PUSH1 0xA0 SHL SUB AND CALLER EQ PUSH2 0x89E JUMPI PUSH1 0x40 MLOAD PUSH3 0x461BCD PUSH1 0xE5 SHL DUP2 MSTORE PUSH1 0x4 ADD PUSH2 0x823 SWAP1 PUSH2 0x2646 JUMP JUMPDEST PUSH0 PUSH1 0x1 JUMPDEST PUSH2 0x8AA PUSH2 0x195E JUMP JUMPDEST DUP2 GT PUSH2 0x94D JUMPI PUSH0 DUP2 DUP2 MSTORE PUSH1 0x12 PUSH1 0x20 MSTORE PUSH1 0x40 SWAP1 KECCAK256 SLOAD PUSH1 0xFF AND ISZERO DUP1 ISZERO PUSH2 0x8DC JUMPI POP PUSH0 DUP2 DUP2 MSTORE PUSH1 0x13 PUSH1 0x20 MSTORE PUSH1 0x40 SWAP1 KECCAK256 SLOAD PUSH1 0xFF AND ISZERO JUMPDEST ISZERO PUSH2 0x93B JUMPI PUSH0 DUP2 DUP2 MSTORE PUSH1 0x12 PUSH1 0x20 MSTORE PUSH1 0x40 DUP2 KECCAK256 DUP1 SLOAD PUSH1 0xFF NOT AND PUSH1 0x1 SWAP1 DUP2 OR SWAP1 SWAP2 SSTORE PUSH1 0xA DUP1 SLOAD SWAP2 DUP3 ADD DUP2 SSTORE SWAP1 SWAP2 MSTORE PUSH32 0xC65A7BB8D6351C1CF70C95A316CC6A92839C986682D98BC35F958F4883F9D2A8 ADD DUP2 SWAP1 SSTORE DUP2 PUSH2 0x937 DUP2 PUSH2 0x26BD JUMP JUMPDEST SWAP3 POP POP JUMPDEST DUP1 PUSH2 0x945 DUP2 PUSH2 0x26BD JUMP JUMPDEST SWAP2 POP POP PUSH2 0x8A2 JUMP JUMPDEST POP DUP1 PUSH1 0x1 PUSH0 DUP3 DUP3 SLOAD PUSH2 0x95F SWAP2 SWAP1 PUSH2 0x26D5 JUMP JUMPDEST SWAP1 SWAP2 SSTORE POP POP PUSH1 0xB DUP1 SLOAD PUSH2 0xFF00 NOT AND SWAP1 SSTORE PUSH1 0x40 MLOAD PUSH32 0xE045608E87EADD2F9961A089F4C933ADB62F8CC3FCBC9D23119C595D95D05BF3 SWAP1 PUSH0 SWAP1 LOG1 POP JUMP JUMPDEST PUSH1 0x60 PUSH1 0xA DUP1 SLOAD DUP1 PUSH1 0x20 MUL PUSH1 0x20 ADD PUSH1 0x40 MLOAD SWAP1 DUP2 ADD PUSH1 0x40 MSTORE DUP1 SWAP3 SWAP2 SWAP1 DUP2 DUP2 MSTORE PUSH1 0x20 ADD DUP3 DUP1 SLOAD DUP1 ISZERO PUSH2 0x9E6 JUMPI PUSH1 0x20 MUL DUP3 ADD SWAP2 SWAP1 PUSH0 MSTORE PUSH1 0x20 PUSH0 KECCAK256 SWAP1 JUMPDEST DUP2 SLOAD DUP2 MSTORE PUSH1 0x20 ADD SWAP1 PUSH1 0x1 ADD SWAP1 DUP1 DUP4 GT PUSH2 0x9D2 JUMPI JUMPDEST POP POP POP POP POP SWAP1 POP SWAP1 JUMP JUMPDEST PUSH1 0xB SLOAD PUSH0 SWAP1 PUSH2 0x100 SWAP1 DIV PUSH1 0xFF AND ISZERO PUSH2 0xA25 JUMPI PUSH1 0x5 SLOAD PUSH2 0xA10 SWAP1 PUSH1 0x6 PUSH2 0x26E8 JUMP JUMPDEST PUSH1 0x4 SLOAD PUSH2 0xA1D SWAP2 SWAP1 PUSH2 0x26D5 JUMP JUMPDEST TIMESTAMP LT ISZERO SWAP1 POP SWAP1 JUMP JUMPDEST PUSH1 0xB SLOAD PUSH1 0xFF AND ISZERO PUSH2 0xA40 JUMPI PUSH1 0x5 SLOAD PUSH1 0x4 SLOAD PUSH2 0xA1D SWAP2 SWAP1 PUSH2 0x26D5 JUMP JUMPDEST POP PUSH0 SWAP1 JUMP JUMPDEST PUSH1 0xF SLOAD PUSH1 0x40 MLOAD PUSH4 0xECCBB75 PUSH1 0xE2 SHL DUP2 MSTORE PUSH1 0x4 DUP2 ADD DUP4 SWAP1 MSTORE PUSH0 SWAP2 PUSH1 0x1 PUSH1 0x1 PUSH1 0xA0 SHL SUB AND SWAP1 PUSH4 0x3B32EDD4 SWAP1 PUSH1 0x24 ADD PUSH2 0x7B4 JUMP JUMPDEST PUSH1 0xD SLOAD PUSH1 0x1 PUSH1 0x1 PUSH1 0xA0 SHL SUB AND CALLER EQ PUSH2 0xAA0 JUMPI PUSH1 0x40 MLOAD PUSH3 0x461BCD PUSH1 0xE5 SHL DUP2 MSTORE PUSH1 0x4 ADD PUSH2 0x823 SWAP1 PUSH2 0x2646 JUMP JUMPDEST PUSH0 DUP3 DUP2 MSTORE PUSH1 0x13 PUSH1 0x20 MSTORE PUSH1 0x40 SWAP1 KECCAK256 SLOAD PUSH1 0xFF AND ISZERO DUP1 ISZERO PUSH2 0xACC JUMPI POP PUSH0 DUP2 DUP2 MSTORE PUSH1 0x13 PUSH1 0x20 MSTORE PUSH1 0x40 SWAP1 KECCAK256 SLOAD PUSH1 0xFF AND ISZERO JUMPDEST PUSH2 0xB22 JUMPI PUSH1 0x40 MLOAD PUSH3 0x461BCD PUSH1 0xE5 SHL DUP2 MSTORE PUSH1 0x20 PUSH1 0x4 DUP3 ADD MSTORE PUSH1 0x21 PUSH1 0x24 DUP3 ADD MSTORE PUSH32 0x426F7468204E465473206D75737420626520616C69766520746F20626174746C PUSH1 0x44 DUP3 ADD MSTORE PUSH1 0x65 PUSH1 0xF8 SHL PUSH1 0x64 DUP3 ADD MSTORE PUSH1 0x84 ADD PUSH2 0x823 JUMP JUMPDEST PUSH1 0x3 SLOAD PUSH0 DUP4 SWAP1 MSTORE PUSH1 0x1A PUSH1 0x20 MSTORE PUSH1 0x5 EQ DUP1 ISZERO PUSH2 0xB48 JUMPI POP PUSH1 0x3 SLOAD PUSH0 DUP3 SWAP1 MSTORE PUSH1 0x1A PUSH1 0x20 MSTORE PUSH1 0x5 EQ JUMPDEST PUSH2 0xB9E JUMPI PUSH1 0x40 MLOAD PUSH3 0x461BCD PUSH1 0xE5 SHL DUP2 MSTORE PUSH1 0x20 PUSH1 0x4 DUP3 ADD MSTORE PUSH1 0x21 PUSH1 0x24 DUP3 ADD MSTORE PUSH32 0x496E76616C696420737461747320666F72206F6E65206F6620746865204E4654 PUSH1 0x44 DUP3 ADD MSTORE PUSH1 0x73 PUSH1 0xF8 SHL PUSH1 0x64 DUP3 ADD MSTORE PUSH1 0x84 ADD PUSH2 0x823 JUMP JUMPDEST PUSH2 0xBA7 DUP3 PUSH2 0x165B JUMP JUMPDEST DUP1 ISZERO PUSH2 0xBB9 JUMPI POP PUSH2 0xBB7 DUP2 PUSH2 0x19CE JUMP JUMPDEST ISZERO JUMPDEST DUP1 PUSH2 0xBDA JUMPI POP PUSH2 0xBC8 DUP2 PUSH2 0x165B JUMP JUMPDEST DUP1 ISZERO PUSH2 0xBDA JUMPI POP PUSH2 0xBD8 DUP3 PUSH2 0x19CE JUMP JUMPDEST ISZERO JUMPDEST ISZERO PUSH2 0xC23 JUMPI PUSH2 0xBEB DUP3 DUP3 PUSH1 0x2 PUSH2 0x1F20 JUMP JUMPDEST PUSH2 0xBF5 DUP3 DUP3 PUSH2 0x219E JUMP JUMPDEST PUSH0 SWAP2 DUP3 MSTORE PUSH1 0x14 PUSH1 0x20 MSTORE PUSH1 0x40 DUP1 DUP4 KECCAK256 DUP1 SLOAD PUSH1 0x1 PUSH1 0xFF NOT SWAP2 DUP3 AND DUP2 OR SWAP1 SWAP3 SSTORE SWAP3 DUP5 MSTORE SWAP3 KECCAK256 DUP1 SLOAD SWAP1 SWAP2 AND SWAP1 SWAP2 OR SWAP1 SSTORE JUMP JUMPDEST PUSH0 DUP3 DUP2 MSTORE PUSH1 0x1A PUSH1 0x20 MSTORE PUSH1 0x40 DUP1 DUP3 KECCAK256 DUP2 MLOAD PUSH1 0xA0 DUP2 ADD SWAP3 DUP4 SWAP1 MSTORE SWAP2 PUSH1 0x5 SWAP1 DUP3 DUP5 JUMPDEST DUP2 SLOAD DUP2 MSTORE PUSH1 0x20 ADD SWAP1 PUSH1 0x1 ADD SWAP1 DUP1 DUP4 GT PUSH2 0xC42 JUMPI POP POP POP PUSH0 DUP6 DUP2 MSTORE PUSH1 0x1A PUSH1 0x20 MSTORE PUSH1 0x40 DUP1 DUP3 KECCAK256 DUP2 MLOAD PUSH1 0xA0 DUP2 ADD SWAP3 DUP4 SWAP1 MSTORE SWAP6 SWAP7 POP SWAP2 SWAP5 SWAP4 POP SWAP1 SWAP2 POP PUSH1 0x5 SWAP1 DUP3 DUP5 JUMPDEST DUP2 SLOAD DUP2 MSTORE PUSH1 0x20 ADD SWAP1 PUSH1 0x1 ADD SWAP1 DUP1 DUP4 GT PUSH2 0xC80 JUMPI POP POP POP POP POP SWAP1 POP PUSH2 0xCA3 DUP5 PUSH2 0xA45 JUMP JUMPDEST ISZERO PUSH2 0xD99 JUMPI PUSH1 0x40 DUP1 MLOAD TIMESTAMP PUSH1 0x20 DUP3 ADD MSTORE SWAP1 DUP2 ADD DUP6 SWAP1 MSTORE PUSH0 SWAP1 PUSH1 0x5 SWAP1 PUSH1 0x60 ADD PUSH1 0x40 MLOAD PUSH1 0x20 DUP2 DUP4 SUB SUB DUP2 MSTORE SWAP1 PUSH1 0x40 MSTORE DUP1 MLOAD SWAP1 PUSH1 0x20 ADD KECCAK256 PUSH0 SHR PUSH2 0xCE2 SWAP2 SWAP1 PUSH2 0x2713 JUMP JUMPDEST SWAP1 POP PUSH0 PUSH1 0x5 TIMESTAMP DUP8 PUSH1 0x40 MLOAD PUSH1 0x20 ADD PUSH2 0xD16 SWAP3 SWAP2 SWAP1 SWAP2 DUP3 MSTORE PUSH1 0x20 DUP3 ADD MSTORE PUSH10 0x1CD958DBDB9914DD185D PUSH1 0xB2 SHL PUSH1 0x40 DUP3 ADD MSTORE PUSH1 0x4A ADD SWAP1 JUMP JUMPDEST PUSH1 0x40 DUP1 MLOAD PUSH1 0x1F NOT DUP2 DUP5 SUB ADD DUP2 MSTORE SWAP2 SWAP1 MSTORE DUP1 MLOAD PUSH1 0x20 SWAP1 SWAP2 ADD KECCAK256 PUSH2 0xD39 DUP5 PUSH1 0x1 PUSH2 0x26D5 JUMP JUMPDEST PUSH2 0xD43 SWAP2 SWAP1 PUSH2 0x26D5 JUMP JUMPDEST PUSH2 0xD4D SWAP2 SWAP1 PUSH2 0x2713 JUMP JUMPDEST PUSH0 DUP8 DUP2 MSTORE PUSH1 0x1A PUSH1 0x20 MSTORE PUSH1 0x40 SWAP1 KECCAK256 SWAP1 SWAP2 POP PUSH1 0xA SWAP1 DUP4 PUSH1 0x5 DUP2 LT PUSH2 0xD71 JUMPI PUSH2 0xD71 PUSH2 0x2726 JUMP JUMPDEST ADD SSTORE PUSH0 DUP7 DUP2 MSTORE PUSH1 0x1A PUSH1 0x20 MSTORE PUSH1 0x40 SWAP1 KECCAK256 PUSH1 0xA SWAP1 DUP3 PUSH1 0x5 DUP2 LT PUSH2 0xD94 JUMPI PUSH2 0xD94 PUSH2 0x2726 JUMP JUMPDEST ADD SSTORE POP POP JUMPDEST PUSH2 0xDA2 DUP4 PUSH2 0xA45 JUMP JUMPDEST ISZERO PUSH2 0xE98 JUMPI PUSH1 0x40 DUP1 MLOAD TIMESTAMP PUSH1 0x20 DUP3 ADD MSTORE SWAP1 DUP2 ADD DUP5 SWAP1 MSTORE PUSH0 SWAP1 PUSH1 0x5 SWAP1 PUSH1 0x60 ADD PUSH1 0x40 MLOAD PUSH1 0x20 DUP2 DUP4 SUB SUB DUP2 MSTORE SWAP1 PUSH1 0x40 MSTORE DUP1 MLOAD SWAP1 PUSH1 0x20 ADD KECCAK256 PUSH0 SHR PUSH2 0xDE1 SWAP2 SWAP1 PUSH2 0x2713 JUMP JUMPDEST SWAP1 POP PUSH0 PUSH1 0x5 TIMESTAMP DUP7 PUSH1 0x40 MLOAD PUSH1 0x20 ADD PUSH2 0xE15 SWAP3 SWAP2 SWAP1 SWAP2 DUP3 MSTORE PUSH1 0x20 DUP3 ADD MSTORE PUSH10 0x1CD958DBDB9914DD185D PUSH1 0xB2 SHL PUSH1 0x40 DUP3 ADD MSTORE PUSH1 0x4A ADD SWAP1 JUMP JUMPDEST PUSH1 0x40 DUP1 MLOAD PUSH1 0x1F NOT DUP2 DUP5 SUB ADD DUP2 MSTORE SWAP2 SWAP1 MSTORE DUP1 MLOAD PUSH1 0x20 SWAP1 SWAP2 ADD KECCAK256 PUSH2 0xE38 DUP5 PUSH1 0x1 PUSH2 0x26D5 JUMP JUMPDEST PUSH2 0xE42 SWAP2 SWAP1 PUSH2 0x26D5 JUMP JUMPDEST PUSH2 0xE4C SWAP2 SWAP1 PUSH2 0x2713 JUMP JUMPDEST PUSH0 DUP7 DUP2 MSTORE PUSH1 0x1A PUSH1 0x20 MSTORE PUSH1 0x40 SWAP1 KECCAK256 SWAP1 SWAP2 POP PUSH1 0xA SWAP1 DUP4 PUSH1 0x5 DUP2 LT PUSH2 0xE70 JUMPI PUSH2 0xE70 PUSH2 0x2726 JUMP JUMPDEST ADD SSTORE PUSH0 DUP6 DUP2 MSTORE PUSH1 0x1A PUSH1 0x20 MSTORE PUSH1 0x40 SWAP1 KECCAK256 PUSH1 0xA SWAP1 DUP3 PUSH1 0x5 DUP2 LT PUSH2 0xE93 JUMPI PUSH2 0xE93 PUSH2 0x2726 JUMP JUMPDEST ADD SSTORE POP POP JUMPDEST PUSH2 0xEA1 DUP5 PUSH2 0x19CE JUMP JUMPDEST ISZERO PUSH2 0xEE8 JUMPI PUSH0 JUMPDEST PUSH1 0x5 DUP2 LT ISZERO PUSH2 0xEE6 JUMPI PUSH0 DUP6 DUP2 MSTORE PUSH1 0x1A PUSH1 0x20 MSTORE PUSH1 0x40 SWAP1 KECCAK256 PUSH1 0xA SWAP1 DUP3 PUSH1 0x5 DUP2 LT PUSH2 0xED2 JUMPI PUSH2 0xED2 PUSH2 0x2726 JUMP JUMPDEST ADD SSTORE DUP1 PUSH2 0xEDE DUP2 PUSH2 0x26BD JUMP JUMPDEST SWAP2 POP POP PUSH2 0xEA8 JUMP JUMPDEST POP JUMPDEST PUSH2 0xEF1 DUP4 PUSH2 0x19CE JUMP JUMPDEST ISZERO PUSH2 0xF38 JUMPI PUSH0 JUMPDEST PUSH1 0x5 DUP2 LT ISZERO PUSH2 0xF36 JUMPI PUSH0 DUP5 DUP2 MSTORE PUSH1 0x1A PUSH1 0x20 MSTORE PUSH1 0x40 SWAP1 KECCAK256 PUSH1 0xA SWAP1 DUP3 PUSH1 0x5 DUP2 LT PUSH2 0xF22 JUMPI PUSH2 0xF22 PUSH2 0x2726 JUMP JUMPDEST ADD SSTORE DUP1 PUSH2 0xF2E DUP2 PUSH2 0x26BD JUMP JUMPDEST SWAP2 POP POP PUSH2 0xEF8 JUMP JUMPDEST POP JUMPDEST PUSH0 DUP5 DUP2 MSTORE PUSH1 0x1A PUSH1 0x20 MSTORE PUSH1 0x40 DUP2 KECCAK256 PUSH1 0x4 DUP2 ADD SLOAD PUSH1 0x3 DUP3 ADD SLOAD PUSH1 0x2 DUP4 ADD SLOAD PUSH1 0x1 DUP5 ADD SLOAD SWAP4 SLOAD SWAP3 SWAP4 SWAP2 SWAP3 SWAP1 SWAP2 PUSH2 0xF6A SWAP2 PUSH2 0x26D5 JUMP JUMPDEST PUSH2 0xF74 SWAP2 SWAP1 PUSH2 0x26D5 JUMP JUMPDEST PUSH2 0xF7E SWAP2 SWAP1 PUSH2 0x26D5 JUMP JUMPDEST PUSH2 0xF88 SWAP2 SWAP1 PUSH2 0x26D5 JUMP JUMPDEST PUSH0 DUP6 DUP2 MSTORE PUSH1 0x1A PUSH1 0x20 MSTORE PUSH1 0x40 DUP2 KECCAK256 PUSH1 0x4 DUP2 ADD SLOAD PUSH1 0x3 DUP3 ADD SLOAD PUSH1 0x2 DUP4 ADD SLOAD PUSH1 0x1 DUP5 ADD SLOAD SWAP4 SLOAD SWAP6 SWAP7 POP SWAP4 SWAP5 SWAP2 SWAP4 SWAP1 SWAP3 SWAP1 SWAP2 PUSH2 0xFC0 SWAP2 SWAP1 PUSH2 0x26D5 JUMP JUMPDEST PUSH2 0xFCA SWAP2 SWAP1 PUSH2 0x26D5 JUMP JUMPDEST PUSH2 0xFD4 SWAP2 SWAP1 PUSH2 0x26D5 JUMP JUMPDEST PUSH2 0xFDE SWAP2 SWAP1 PUSH2 0x26D5 JUMP JUMPDEST SWAP1 POP PUSH0 PUSH2 0xFEB DUP3 DUP5 PUSH2 0x26D5 JUMP JUMPDEST GT PUSH2 0x1046 JUMPI PUSH1 0x40 MLOAD PUSH3 0x461BCD PUSH1 0xE5 SHL DUP2 MSTORE PUSH1 0x20 PUSH1 0x4 DUP3 ADD MSTORE PUSH1 0x25 PUSH1 0x24 DUP3 ADD MSTORE PUSH32 0x546F74616C20706F776572206D7573742062652067726561746572207468616E PUSH1 0x44 DUP3 ADD MSTORE PUSH5 0x207A65726F PUSH1 0xD8 SHL PUSH1 0x64 DUP3 ADD MSTORE PUSH1 0x84 ADD PUSH2 0x823 JUMP JUMPDEST PUSH0 PUSH1 0x64 PUSH2 0x1053 PREVRANDAO TIMESTAMP PUSH2 0x26D5 JUMP JUMPDEST PUSH2 0x105D SWAP2 SWAP1 PUSH2 0x2713 JUMP JUMPDEST SWAP1 POP PUSH0 DUP3 DUP5 GT ISZERO PUSH2 0x1072 JUMPI POP PUSH1 0x46 DUP2 LT PUSH2 0x108B JUMP JUMPDEST DUP3 DUP5 LT ISZERO PUSH2 0x1085 JUMPI POP PUSH1 0x1E DUP2 LT ISZERO PUSH2 0x108B JUMP JUMPDEST POP PUSH1 0x32 DUP2 LT JUMPDEST DUP1 ISZERO PUSH2 0x1148 JUMPI PUSH2 0x109A DUP8 PUSH2 0x787 JUMP JUMPDEST PUSH2 0x10BB JUMPI PUSH0 DUP8 DUP2 MSTORE PUSH1 0x13 PUSH1 0x20 MSTORE PUSH1 0x40 SWAP1 KECCAK256 DUP1 SLOAD PUSH1 0xFF NOT AND PUSH1 0x1 OR SWAP1 SSTORE PUSH2 0x10E2 JUMP JUMPDEST PUSH2 0x10C4 DUP8 PUSH2 0x787 JUMP JUMPDEST ISZERO PUSH2 0x10E2 JUMPI PUSH0 DUP8 DUP2 MSTORE PUSH1 0x14 PUSH1 0x20 MSTORE PUSH1 0x40 SWAP1 KECCAK256 DUP1 SLOAD PUSH1 0xFF NOT AND PUSH1 0x1 OR SWAP1 SSTORE JUMPDEST PUSH0 DUP9 DUP2 MSTORE PUSH1 0x14 PUSH1 0x20 MSTORE PUSH1 0x40 DUP2 KECCAK256 DUP1 SLOAD PUSH1 0xFF NOT AND PUSH1 0x1 OR SWAP1 SSTORE PUSH2 0x1107 SWAP1 DUP10 SWAP1 DUP10 SWAP1 PUSH2 0x1F20 JUMP JUMPDEST PUSH0 DUP9 DUP2 MSTORE PUSH1 0x1B PUSH1 0x20 MSTORE PUSH1 0x40 DUP2 KECCAK256 DUP1 SLOAD SWAP2 PUSH2 0x1120 DUP4 PUSH2 0x26BD JUMP JUMPDEST SWAP1 SWAP2 SSTORE POP POP PUSH0 DUP8 DUP2 MSTORE PUSH1 0x1C PUSH1 0x20 MSTORE PUSH1 0x40 DUP2 KECCAK256 DUP1 SLOAD SWAP2 PUSH2 0x113E DUP4 PUSH2 0x26BD JUMP JUMPDEST SWAP2 SWAP1 POP SSTORE POP PUSH2 0x11FE JUMP JUMPDEST PUSH2 0x1151 DUP9 PUSH2 0x787 JUMP JUMPDEST PUSH2 0x1172 JUMPI PUSH0 DUP9 DUP2 MSTORE PUSH1 0x13 PUSH1 0x20 MSTORE PUSH1 0x40 SWAP1 KECCAK256 DUP1 SLOAD PUSH1 0xFF NOT AND PUSH1 0x1 OR SWAP1 SSTORE PUSH2 0x1199 JUMP JUMPDEST PUSH2 0x117B DUP9 PUSH2 0x787 JUMP JUMPDEST ISZERO PUSH2 0x1199 JUMPI PUSH0 DUP9 DUP2 MSTORE PUSH1 0x14 PUSH1 0x20 MSTORE PUSH1 0x40 SWAP1 KECCAK256 DUP1 SLOAD PUSH1 0xFF NOT AND PUSH1 0x1 OR SWAP1 SSTORE JUMPDEST PUSH0 DUP8 DUP2 MSTORE PUSH1 0x14 PUSH1 0x20 MSTORE PUSH1 0x40 SWAP1 KECCAK256 DUP1 SLOAD PUSH1 0xFF NOT AND PUSH1 0x1 SWAP1 DUP2 OR SWAP1 SWAP2 SSTORE PUSH2 0x11C1 SWAP1 DUP10 SWAP1 DUP10 SWAP1 PUSH2 0x1F20 JUMP JUMPDEST PUSH0 DUP8 DUP2 MSTORE PUSH1 0x1B PUSH1 0x20 MSTORE PUSH1 0x40 DUP2 KECCAK256 DUP1 SLOAD SWAP2 PUSH2 0x11DA DUP4 PUSH2 0x26BD JUMP JUMPDEST SWAP1 SWAP2 SSTORE POP POP PUSH0 DUP9 DUP2 MSTORE PUSH1 0x1C PUSH1 0x20 MSTORE PUSH1 0x40 DUP2 KECCAK256 DUP1 SLOAD SWAP2 PUSH2 0x11F8 DUP4 PUSH2 0x26BD JUMP JUMPDEST SWAP2 SWAP1 POP SSTORE POP JUMPDEST PUSH0 DUP9 DUP2 MSTORE PUSH1 0x1A PUSH1 0x20 MSTORE PUSH1 0x40 SWAP1 KECCAK256 PUSH2 0x1217 SWAP1 DUP8 PUSH1 0x5 PUSH2 0x2362 JUMP JUMPDEST POP PUSH0 DUP8 DUP2 MSTORE PUSH1 0x1A PUSH1 0x20 MSTORE PUSH1 0x40 SWAP1 KECCAK256 PUSH2 0x1231 SWAP1 DUP7 PUSH1 0x5 PUSH2 0x2362 JUMP JUMPDEST POP PUSH2 0x123C DUP9 DUP9 PUSH2 0x219E JUMP JUMPDEST PUSH1 0x7 DUP1 SLOAD SWAP1 PUSH0 PUSH2 0x124B DUP4 PUSH2 0x26BD JUMP JUMPDEST SWAP2 SWAP1 POP SSTORE POP POP POP POP POP POP POP POP POP JUMP JUMPDEST PUSH1 0x1A PUSH1 0x20 MSTORE DUP2 PUSH0 MSTORE PUSH1 0x40 PUSH0 KECCAK256 DUP2 PUSH1 0x5 DUP2 LT PUSH2 0x1273 JUMPI PUSH0 DUP1 REVERT JUMPDEST ADD SLOAD SWAP2 POP DUP3 SWAP1 POP JUMP JUMPDEST PUSH1 0xA DUP2 DUP2 SLOAD DUP2 LT PUSH2 0x128B JUMPI PUSH0 DUP1 REVERT JUMPDEST PUSH0 SWAP2 DUP3 MSTORE PUSH1 0x20 SWAP1 SWAP2 KECCAK256 ADD SLOAD SWAP1 POP DUP2 JUMP JUMPDEST PUSH1 0xD SLOAD PUSH1 0x1 PUSH1 0x1 PUSH1 0xA0 SHL SUB AND CALLER EQ PUSH2 0x12C5 JUMPI PUSH1 0x40 MLOAD PUSH3 0x461BCD PUSH1 0xE5 SHL DUP2 MSTORE PUSH1 0x4 ADD PUSH2 0x823 SWAP1 PUSH2 0x2646 JUMP JUMPDEST PUSH1 0x1 DUP3 LT ISZERO DUP1 ISZERO PUSH2 0x1349 JUMPI POP PUSH1 0xE PUSH0 SWAP1 SLOAD SWAP1 PUSH2 0x100 EXP SWAP1 DIV PUSH1 0x1 PUSH1 0x1 PUSH1 0xA0 SHL SUB AND PUSH1 0x1 PUSH1 0x1 PUSH1 0xA0 SHL SUB AND PUSH4 0xD5ABEB01 PUSH1 0x40 MLOAD DUP2 PUSH4 0xFFFFFFFF AND PUSH1 0xE0 SHL DUP2 MSTORE PUSH1 0x4 ADD PUSH1 0x20 PUSH1 0x40 MLOAD DUP1 DUP4 SUB DUP2 DUP7 GAS STATICCALL ISZERO DUP1 ISZERO PUSH2 0x1321 JUMPI RETURNDATASIZE PUSH0 DUP1 RETURNDATACOPY RETURNDATASIZE PUSH0 REVERT JUMPDEST POP POP POP POP PUSH1 0x40 MLOAD RETURNDATASIZE PUSH1 0x1F NOT PUSH1 0x1F DUP3 ADD AND DUP3 ADD DUP1 PUSH1 0x40 MSTORE POP DUP2 ADD SWAP1 PUSH2 0x1345 SWAP2 SWAP1 PUSH2 0x273A JUMP JUMPDEST DUP3 GT ISZERO JUMPDEST PUSH2 0x138C JUMPI PUSH1 0x40 MLOAD PUSH3 0x461BCD PUSH1 0xE5 SHL DUP2 MSTORE PUSH1 0x20 PUSH1 0x4 DUP3 ADD MSTORE PUSH1 0x14 PUSH1 0x24 DUP3 ADD MSTORE PUSH20 0x24B73B30B634B21039BA30B93A1034B73232BC17 PUSH1 0x61 SHL PUSH1 0x44 DUP3 ADD MSTORE PUSH1 0x64 ADD PUSH2 0x823 JUMP JUMPDEST PUSH0 DUP2 MLOAD GT PUSH2 0x13E7 JUMPI PUSH1 0x40 MLOAD PUSH3 0x461BCD PUSH1 0xE5 SHL DUP2 MSTORE PUSH1 0x20 PUSH1 0x4 DUP3 ADD MSTORE PUSH1 0x22 PUSH1 0x24 DUP3 ADD MSTORE PUSH32 0x696453746174732061727261792073686F756C64206E6F7420626520656D7074 PUSH1 0x44 DUP3 ADD MSTORE PUSH2 0x3C97 PUSH1 0xF1 SHL PUSH1 0x64 DUP3 ADD MSTORE PUSH1 0x84 ADD PUSH2 0x823 JUMP JUMPDEST PUSH0 PUSH1 0x1 DUP3 MLOAD DUP5 PUSH2 0x13F7 SWAP2 SWAP1 PUSH2 0x26D5 JUMP JUMPDEST PUSH2 0x1401 SWAP2 SWAP1 PUSH2 0x2751 JUMP JUMPDEST SWAP1 POP PUSH1 0xE PUSH0 SWAP1 SLOAD SWAP1 PUSH2 0x100 EXP SWAP1 DIV PUSH1 0x1 PUSH1 0x1 PUSH1 0xA0 SHL SUB AND PUSH1 0x1 PUSH1 0x1 PUSH1 0xA0 SHL SUB AND PUSH4 0xD5ABEB01 PUSH1 0x40 MLOAD DUP2 PUSH4 0xFFFFFFFF AND PUSH1 0xE0 SHL DUP2 MSTORE PUSH1 0x4 ADD PUSH1 0x20 PUSH1 0x40 MLOAD DUP1 DUP4 SUB DUP2 DUP7 GAS STATICCALL ISZERO DUP1 ISZERO PUSH2 0x1453 JUMPI RETURNDATASIZE PUSH0 DUP1 RETURNDATACOPY RETURNDATASIZE PUSH0 REVERT JUMPDEST POP POP POP POP PUSH1 0x40 MLOAD RETURNDATASIZE PUSH1 0x1F NOT PUSH1 0x1F DUP3 ADD AND DUP3 ADD DUP1 PUSH1 0x40 MSTORE POP DUP2 ADD SWAP1 PUSH2 0x1477 SWAP2 SWAP1 PUSH2 0x273A JUMP JUMPDEST DUP2 GT ISZERO PUSH2 0x14C6 JUMPI PUSH1 0x40 MLOAD PUSH3 0x461BCD PUSH1 0xE5 SHL DUP2 MSTORE PUSH1 0x20 PUSH1 0x4 DUP3 ADD MSTORE PUSH1 0x1C PUSH1 0x24 DUP3 ADD MSTORE PUSH32 0x456E6420696E6465782065786365656473206D6178537570706C792E00000000 PUSH1 0x44 DUP3 ADD MSTORE PUSH1 0x64 ADD PUSH2 0x823 JUMP JUMPDEST PUSH0 JUMPDEST DUP3 MLOAD DUP2 LT ISZERO PUSH2 0x155A JUMPI PUSH0 PUSH2 0x14DC DUP3 DUP7 PUSH2 0x26D5 JUMP JUMPDEST PUSH0 DUP2 DUP2 MSTORE PUSH1 0x15 PUSH1 0x20 MSTORE PUSH1 0x40 SWAP1 KECCAK256 SLOAD SWAP1 SWAP2 POP PUSH1 0xFF AND PUSH2 0x1547 JUMPI DUP4 DUP3 DUP2 MLOAD DUP2 LT PUSH2 0x1506 JUMPI PUSH2 0x1506 PUSH2 0x2726 JUMP JUMPDEST PUSH1 0x20 MUL PUSH1 0x20 ADD ADD MLOAD PUSH1 0x1A PUSH0 DUP4 DUP2 MSTORE PUSH1 0x20 ADD SWAP1 DUP2 MSTORE PUSH1 0x20 ADD PUSH0 KECCAK256 SWAP1 PUSH1 0x5 PUSH2 0x152D SWAP3 SWAP2 SWAP1 PUSH2 0x2362 JUMP JUMPDEST POP PUSH0 DUP2 DUP2 MSTORE PUSH1 0x15 PUSH1 0x20 MSTORE PUSH1 0x40 SWAP1 KECCAK256 DUP1 SLOAD PUSH1 0xFF NOT AND PUSH1 0x1 OR SWAP1 SSTORE JUMPDEST POP DUP1 PUSH2 0x1552 DUP2 PUSH2 0x26BD JUMP JUMPDEST SWAP2 POP POP PUSH2 0x14C8 JUMP JUMPDEST POP POP POP POP JUMP JUMPDEST PUSH1 0xD SLOAD PUSH1 0x1 PUSH1 0x1 PUSH1 0xA0 SHL SUB AND CALLER EQ PUSH2 0x158A JUMPI PUSH1 0x40 MLOAD PUSH3 0x461BCD PUSH1 0xE5 SHL DUP2 MSTORE PUSH1 0x4 ADD PUSH2 0x823 SWAP1 PUSH2 0x2646 JUMP JUMPDEST PUSH1 0x1 JUMPDEST PUSH2 0x1595 PUSH2 0x195E JUMP JUMPDEST DUP2 GT PUSH2 0x15C5 JUMPI PUSH0 DUP2 DUP2 MSTORE PUSH1 0x12 PUSH1 0x20 MSTORE PUSH1 0x40 DUP2 KECCAK256 DUP1 SLOAD PUSH1 0xFF NOT AND SWAP1 SSTORE PUSH1 0x1 SSTORE DUP1 PUSH2 0x15BD DUP2 PUSH2 0x26BD JUMP JUMPDEST SWAP2 POP POP PUSH2 0x158D JUMP JUMPDEST POP PUSH1 0x40 MLOAD PUSH32 0x3984C48732886B85C3609F4771C475531ED8E67132A3F30C3555A372B3EDD6B3 SWAP1 PUSH0 SWAP1 LOG1 JUMP JUMPDEST PUSH1 0xE SLOAD PUSH1 0x40 MLOAD PUSH4 0x31A9108F PUSH1 0xE1 SHL DUP2 MSTORE PUSH1 0x4 DUP2 ADD DUP4 SWAP1 MSTORE PUSH0 SWAP2 PUSH1 0x1 PUSH1 0x1 PUSH1 0xA0 SHL SUB AND SWAP1 PUSH4 0x6352211E SWAP1 PUSH1 0x24 ADD PUSH1 0x20 PUSH1 0x40 MLOAD DUP1 DUP4 SUB DUP2 DUP7 GAS STATICCALL ISZERO DUP1 ISZERO PUSH2 0x1637 JUMPI RETURNDATASIZE PUSH0 DUP1 RETURNDATACOPY RETURNDATASIZE PUSH0 REVERT JUMPDEST POP POP POP POP PUSH1 0x40 MLOAD RETURNDATASIZE PUSH1 0x1F NOT PUSH1 0x1F DUP3 ADD AND DUP3 ADD DUP1 PUSH1 0x40 MSTORE POP DUP2 ADD SWAP1 PUSH2 0x7F3 SWAP2 SWAP1 PUSH2 0x2764 JUMP JUMPDEST PUSH1 0xF SLOAD PUSH1 0x40 MLOAD PUSH4 0x1B8BB4F1 PUSH1 0xE2 SHL DUP2 MSTORE PUSH1 0x4 DUP2 ADD DUP4 SWAP1 MSTORE PUSH0 SWAP2 PUSH1 0x1 PUSH1 0x1 PUSH1 0xA0 SHL SUB AND SWAP1 PUSH4 0x6E2ED3C4 SWAP1 PUSH1 0x24 ADD PUSH2 0x7B4 JUMP JUMPDEST PUSH1 0xC DUP2 DUP2 SLOAD DUP2 LT PUSH2 0x169B JUMPI PUSH0 DUP1 REVERT JUMPDEST PUSH0 SWAP2 DUP3 MSTORE PUSH1 0x20 SWAP1 SWAP2 KECCAK256 ADD SLOAD PUSH1 0x1 PUSH1 0x1 PUSH1 0xA0 SHL SUB AND SWAP1 POP DUP2 JUMP JUMPDEST PUSH1 0xD SLOAD PUSH1 0x1 PUSH1 0x1 PUSH1 0xA0 SHL SUB AND CALLER EQ PUSH2 0x16DE JUMPI PUSH1 0x40 MLOAD PUSH3 0x461BCD PUSH1 0xE5 SHL DUP2 MSTORE PUSH1 0x4 ADD PUSH2 0x823 SWAP1 PUSH2 0x2646 JUMP JUMPDEST TIMESTAMP PUSH1 0x4 DUP2 SWAP1 SSTORE PUSH1 0x40 MLOAD SWAP1 DUP2 MSTORE PUSH32 0xD1DBB2CE8081405078443EF34DAE718285114121A39370B14EF01B9D2B0A2083 SWAP1 PUSH1 0x20 ADD JUMPDEST PUSH1 0x40 MLOAD DUP1 SWAP2 SUB SWAP1 LOG1 JUMP JUMPDEST PUSH1 0xD SLOAD PUSH1 0x1 PUSH1 0x1 PUSH1 0xA0 SHL SUB AND CALLER EQ PUSH2 0x1744 JUMPI PUSH1 0x40 MLOAD PUSH3 0x461BCD PUSH1 0xE5 SHL DUP2 MSTORE PUSH1 0x4 ADD PUSH2 0x823 SWAP1 PUSH2 0x2646 JUMP JUMPDEST DUP1 ISZERO PUSH2 0x184A JUMPI PUSH0 DUP2 PUSH2 0x1758 PUSH1 0x9 PUSH1 0xA PUSH2 0x285F JUMP JUMPDEST PUSH1 0xF SLOAD PUSH2 0x176F SWAP2 SWAP1 PUSH1 0x1 PUSH1 0x1 PUSH1 0xA0 SHL SUB AND BALANCE PUSH2 0x26E8 JUMP JUMPDEST PUSH2 0x1779 SWAP2 SWAP1 PUSH2 0x286D JUMP JUMPDEST SWAP1 POP PUSH0 JUMPDEST DUP3 DUP2 LT ISZERO PUSH2 0x1847 JUMPI PUSH1 0xF SLOAD PUSH1 0xC DUP1 SLOAD PUSH1 0x1 PUSH1 0x1 PUSH1 0xA0 SHL SUB SWAP1 SWAP3 AND SWAP2 PUSH4 0xAF95D4D3 SWAP2 SWAP1 DUP5 SWAP1 PUSH2 0x17AD SWAP1 PUSH1 0x1 SWAP1 PUSH2 0x2751 JUMP JUMPDEST PUSH2 0x17B7 SWAP2 SWAP1 PUSH2 0x2751 JUMP JUMPDEST DUP2 SLOAD DUP2 LT PUSH2 0x17C7 JUMPI PUSH2 0x17C7 PUSH2 0x2726 JUMP JUMPDEST PUSH0 SWAP2 DUP3 MSTORE PUSH1 0x20 SWAP1 SWAP2 KECCAK256 ADD SLOAD PUSH1 0x40 MLOAD PUSH1 0xE0 DUP4 SWAP1 SHL PUSH1 0x1 PUSH1 0x1 PUSH1 0xE0 SHL SUB NOT AND DUP2 MSTORE PUSH1 0x1 PUSH1 0x1 PUSH1 0xA0 SHL SUB SWAP1 SWAP2 AND PUSH1 0x4 DUP3 ADD MSTORE PUSH1 0x24 DUP2 ADD DUP6 SWAP1 MSTORE PUSH1 0x44 ADD PUSH0 PUSH1 0x40 MLOAD DUP1 DUP4 SUB DUP2 PUSH0 DUP8 DUP1 EXTCODESIZE ISZERO DUP1 ISZERO PUSH2 0x1817 JUMPI PUSH0 DUP1 REVERT JUMPDEST POP GAS CALL ISZERO DUP1 ISZERO PUSH2 0x1829 JUMPI RETURNDATASIZE PUSH0 DUP1 RETURNDATACOPY RETURNDATASIZE PUSH0 REVERT JUMPDEST POP POP POP POP DUP1 PUSH0 SUB ISZERO PUSH2 0x1847 JUMPI DUP1 PUSH2 0x183F DUP2 PUSH2 0x26BD JUMP JUMPDEST SWAP2 POP POP PUSH2 0x177D JUMP JUMPDEST POP POP JUMPDEST POP JUMP JUMPDEST PUSH1 0xD SLOAD PUSH1 0x1 PUSH1 0x1 PUSH1 0xA0 SHL SUB AND CALLER EQ PUSH2 0x1877 JUMPI PUSH1 0x40 MLOAD PUSH3 0x461BCD PUSH1 0xE5 SHL DUP2 MSTORE PUSH1 0x4 ADD PUSH2 0x823 SWAP1 PUSH2 0x2646 JUMP JUMPDEST PUSH1 0x1 JUMPDEST PUSH2 0x1882 PUSH2 0x195E JUMP JUMPDEST DUP2 GT PUSH2 0x18C4 JUMPI PUSH0 DUP2 DUP2 MSTORE PUSH1 0x13 PUSH1 0x20 SWAP1 DUP2 MSTORE PUSH1 0x40 DUP1 DUP4 KECCAK256 DUP1 SLOAD PUSH1 0xFF NOT SWAP1 DUP2 AND SWAP1 SWAP2 SSTORE PUSH1 0x14 SWAP1 SWAP3 MSTORE SWAP1 SWAP2 KECCAK256 DUP1 SLOAD SWAP1 SWAP2 AND SWAP1 SSTORE DUP1 PUSH2 0x18BC DUP2 PUSH2 0x26BD JUMP JUMPDEST SWAP2 POP POP PUSH2 0x187A JUMP JUMPDEST POP PUSH1 0x40 MLOAD PUSH32 0xC0A4569BDAA5BAE3DABCABE5AC5C590863CAD4BAD443B5D2051D1D200F9FA4DA SWAP1 PUSH0 SWAP1 LOG1 JUMP JUMPDEST PUSH1 0xD SLOAD PUSH1 0x1 PUSH1 0x1 PUSH1 0xA0 SHL SUB AND CALLER EQ PUSH2 0x1919 JUMPI PUSH1 0x40 MLOAD PUSH3 0x461BCD PUSH1 0xE5 SHL DUP2 MSTORE PUSH1 0x4 ADD PUSH2 0x823 SWAP1 PUSH2 0x2646 JUMP JUMPDEST PUSH1 0xB DUP1 SLOAD PUSH1 0xFF NOT AND PUSH1 0x1 OR SWAP1 SSTORE TIMESTAMP PUSH1 0x4 DUP2 SWAP1 SSTORE PUSH1 0x40 MLOAD PUSH32 0x90E4E1076E66D07AAD698457E7A86B4425881AB1586D63C00BA753F88757E9A8 SWAP2 PUSH2 0x1710 SWAP2 SWAP1 DUP2 MSTORE PUSH1 0x20 ADD SWAP1 JUMP JUMPDEST PUSH1 0xE SLOAD PUSH1 0x40 DUP1 MLOAD PUSH4 0xA8995DEB PUSH1 0xE0 SHL DUP2 MSTORE SWAP1 MLOAD PUSH0 SWAP3 PUSH1 0x1 PUSH1 0x1 PUSH1 0xA0 SHL SUB AND SWAP2 PUSH4 0xA8995DEB SWAP2 PUSH1 0x4 DUP1 DUP4 ADD SWAP3 PUSH1 0x20 SWAP3 SWAP2 SWAP1 DUP3 SWAP1 SUB ADD DUP2 DUP7 GAS STATICCALL ISZERO DUP1 ISZERO PUSH2 0x19A5 JUMPI RETURNDATASIZE PUSH0 DUP1 RETURNDATACOPY RETURNDATASIZE PUSH0 REVERT JUMPDEST POP POP POP POP PUSH1 0x40 MLOAD RETURNDATASIZE PUSH1 0x1F NOT PUSH1 0x1F DUP3 ADD AND DUP3 ADD DUP1 PUSH1 0x40 MSTORE POP DUP2 ADD SWAP1 PUSH2 0x19C9 SWAP2 SWAP1 PUSH2 0x273A JUMP JUMPDEST SWAP1 POP SWAP1 JUMP JUMPDEST PUSH1 0xF SLOAD PUSH1 0x40 MLOAD PUSH4 0x60D72F39 PUSH1 0xE1 SHL DUP2 MSTORE PUSH1 0x4 DUP2 ADD DUP4 SWAP1 MSTORE PUSH0 SWAP2 PUSH1 0x1 PUSH1 0x1 PUSH1 0xA0 SHL SUB AND SWAP1 PUSH4 0xC1AE5E72 SWAP1 PUSH1 0x24 ADD PUSH2 0x7B4 JUMP JUMPDEST PUSH1 0xD SLOAD PUSH1 0x1 PUSH1 0x1 PUSH1 0xA0 SHL SUB AND CALLER EQ PUSH2 0x1A29 JUMPI PUSH1 0x40 MLOAD PUSH3 0x461BCD PUSH1 0xE5 SHL DUP2 MSTORE PUSH1 0x4 ADD PUSH2 0x823 SWAP1 PUSH2 0x2646 JUMP JUMPDEST PUSH1 0x1 JUMPDEST PUSH2 0x1A34 PUSH2 0x195E JUMP JUMPDEST DUP2 GT PUSH2 0x184A JUMPI PUSH0 DUP2 DUP2 MSTORE PUSH1 0x14 PUSH1 0x20 MSTORE PUSH1 0x40 SWAP1 KECCAK256 DUP1 SLOAD PUSH1 0xFF NOT AND SWAP1 SSTORE DUP1 PUSH2 0x1A59 DUP2 PUSH2 0x26BD JUMP JUMPDEST SWAP2 POP POP PUSH2 0x1A2C JUMP JUMPDEST PUSH1 0xD SLOAD PUSH1 0x1 PUSH1 0x1 PUSH1 0xA0 SHL SUB AND CALLER EQ PUSH2 0x1A8B JUMPI PUSH1 0x40 MLOAD PUSH3 0x461BCD PUSH1 0xE5 SHL DUP2 MSTORE PUSH1 0x4 ADD PUSH2 0x823 SWAP1 PUSH2 0x2646 JUMP JUMPDEST PUSH1 0x2 PUSH1 0x1 SLOAD LT ISZERO PUSH2 0x1AF3 JUMPI PUSH1 0x40 MLOAD PUSH3 0x461BCD PUSH1 0xE5 SHL DUP2 MSTORE PUSH1 0x20 PUSH1 0x4 DUP3 ADD MSTORE PUSH1 0x2C PUSH1 0x24 DUP3 ADD MSTORE PUSH32 0x496E73756666696369656E74206E756D626572206F6620706172746963697061 PUSH1 0x44 DUP3 ADD MSTORE PUSH12 0x6E747320696E207175657565 PUSH1 0xA0 SHL PUSH1 0x64 DUP3 ADD MSTORE PUSH1 0x84 ADD PUSH2 0x823 JUMP JUMPDEST PUSH2 0x1AFB PUSH2 0x9F0 JUMP JUMPDEST PUSH2 0x1B47 JUMPI PUSH1 0x40 MLOAD PUSH3 0x461BCD PUSH1 0xE5 SHL DUP2 MSTORE PUSH1 0x20 PUSH1 0x4 DUP3 ADD MSTORE PUSH1 0x17 PUSH1 0x24 DUP3 ADD MSTORE PUSH32 0x54696D6572206861736E27742070617373656420796574000000000000000000 PUSH1 0x44 DUP3 ADD MSTORE PUSH1 0x64 ADD PUSH2 0x823 JUMP JUMPDEST PUSH2 0x1B4F PUSH2 0x7F9 JUMP JUMPDEST PUSH0 PUSH1 0x1 JUMPDEST PUSH1 0x1 SLOAD DUP2 GT PUSH2 0x1CF9 JUMPI PUSH0 DUP2 DUP2 MSTORE PUSH1 0x12 PUSH1 0x20 MSTORE PUSH1 0x40 SWAP1 KECCAK256 SLOAD PUSH1 0xFF AND DUP1 ISZERO PUSH2 0x1B87 JUMPI POP PUSH0 DUP2 DUP2 MSTORE PUSH1 0x14 PUSH1 0x20 MSTORE PUSH1 0x40 SWAP1 KECCAK256 SLOAD PUSH1 0xFF AND ISZERO JUMPDEST DUP1 ISZERO PUSH2 0x1BA1 JUMPI POP PUSH0 DUP2 DUP2 MSTORE PUSH1 0x13 PUSH1 0x20 MSTORE PUSH1 0x40 SWAP1 KECCAK256 SLOAD PUSH1 0xFF AND ISZERO JUMPDEST ISZERO PUSH2 0x1CE7 JUMPI DUP2 PUSH0 SUB PUSH2 0x1BB5 JUMPI DUP1 SWAP2 POP PUSH2 0x1CE7 JUMP JUMPDEST PUSH0 PUSH2 0x1BC8 DUP3 PUSH2 0x1BC3 DUP6 PUSH2 0x15F0 JUMP JUMPDEST PUSH2 0x2202 JUMP JUMPDEST SWAP1 POP DUP3 DUP2 SUB PUSH2 0x1C34 JUMPI PUSH1 0x40 MLOAD PUSH3 0x461BCD PUSH1 0xE5 SHL DUP2 MSTORE PUSH1 0x20 PUSH1 0x4 DUP3 ADD MSTORE PUSH1 0x32 PUSH1 0x24 DUP3 ADD MSTORE PUSH32 0x5365636F6E64206F70706F6E656E742073686F756C646E277420626520746865 PUSH1 0x44 DUP3 ADD MSTORE PUSH18 0x81CD85B5948185CC81D1A1948199A5C9CDD PUSH1 0x72 SHL PUSH1 0x64 DUP3 ADD MSTORE PUSH1 0x84 ADD PUSH2 0x823 JUMP JUMPDEST DUP1 ISZERO PUSH2 0x1C4D JUMPI PUSH2 0x1C44 DUP4 DUP3 PUSH2 0xA76 JUMP JUMPDEST PUSH0 SWAP3 SWAP2 POP PUSH2 0x1CE5 JUMP JUMPDEST PUSH0 PUSH2 0x1C57 DUP4 PUSH2 0x22EC JUMP JUMPDEST SWAP1 POP DUP4 DUP2 SUB PUSH2 0x1CCE JUMPI PUSH1 0x40 MLOAD PUSH3 0x461BCD PUSH1 0xE5 SHL DUP2 MSTORE PUSH1 0x20 PUSH1 0x4 DUP3 ADD MSTORE PUSH1 0x3A PUSH1 0x24 DUP3 ADD MSTORE PUSH32 0x4E65787420617661696C61626C65206F70706F6E656E742073686F756C646E27 PUSH1 0x44 DUP3 ADD MSTORE PUSH32 0x74206265207468652073616D6520617320746865206669727374000000000000 PUSH1 0x64 DUP3 ADD MSTORE PUSH1 0x84 ADD PUSH2 0x823 JUMP JUMPDEST DUP1 ISZERO PUSH2 0x1CE3 JUMPI PUSH2 0x1CDE DUP5 DUP3 PUSH2 0xA76 JUMP JUMPDEST PUSH0 SWAP4 SWAP3 POP JUMPDEST POP JUMPDEST POP JUMPDEST DUP1 PUSH2 0x1CF1 DUP2 PUSH2 0x26BD JUMP JUMPDEST SWAP2 POP POP PUSH2 0x1B53 JUMP JUMPDEST POP PUSH0 PUSH2 0x1D03 PUSH2 0x1DBC JUMP JUMPDEST SWAP1 POP PUSH1 0x2 SLOAD DUP2 GT PUSH2 0x1D6C JUMPI PUSH2 0x1D16 PUSH2 0x1E68 JUMP JUMPDEST PUSH2 0x1D1F DUP2 PUSH2 0x171A JUMP JUMPDEST PUSH2 0x1D27 PUSH2 0x184D JUMP JUMPDEST PUSH2 0x1D2F PUSH2 0x1560 JUMP JUMPDEST PUSH0 PUSH1 0x6 DUP2 SWAP1 SSTORE PUSH1 0xB DUP1 SLOAD PUSH2 0xFF00 NOT AND PUSH2 0x100 OR SWAP1 SSTORE PUSH1 0x40 MLOAD PUSH32 0x4957BAACFCCF45D9F54657DC86692B68BEA7155D1951BEA16F81D430C5864F87 SWAP2 SWAP1 LOG1 JUMPDEST PUSH1 0x6 DUP1 SLOAD SWAP1 PUSH0 PUSH2 0x1D7B DUP4 PUSH2 0x26BD JUMP JUMPDEST SWAP2 SWAP1 POP SSTORE POP PUSH2 0x1D88 PUSH2 0x16B4 JUMP JUMPDEST PUSH2 0x1D90 PUSH2 0x19FF JUMP JUMPDEST PUSH1 0x40 MLOAD PUSH32 0xF44CF147798F94C1025F83FF5A888484A8F7DE8328F57E099895C0DC605924A SWAP1 PUSH0 SWAP1 LOG1 POP POP JUMP JUMPDEST PUSH0 DUP1 PUSH1 0x1 JUMPDEST PUSH1 0x1 SLOAD DUP2 GT PUSH2 0x1E33 JUMPI PUSH0 DUP2 DUP2 MSTORE PUSH1 0x13 PUSH1 0x20 MSTORE PUSH1 0x40 SWAP1 KECCAK256 SLOAD PUSH1 0xFF AND PUSH2 0x1E21 JUMPI DUP2 PUSH2 0x1DE9 DUP2 PUSH2 0x26BD JUMP JUMPDEST PUSH1 0xA DUP1 SLOAD PUSH1 0x1 DUP2 ADD DUP3 SSTORE PUSH0 SWAP2 SWAP1 SWAP2 MSTORE PUSH32 0xC65A7BB8D6351C1CF70C95A316CC6A92839C986682D98BC35F958F4883F9D2A8 ADD DUP4 SWAP1 SSTORE SWAP3 POP POP JUMPDEST DUP1 PUSH2 0x1E2B DUP2 PUSH2 0x26BD JUMP JUMPDEST SWAP2 POP POP PUSH2 0x1DC1 JUMP JUMPDEST POP SWAP2 SWAP1 POP JUMP JUMPDEST PUSH1 0xD SLOAD PUSH1 0x1 PUSH1 0x1 PUSH1 0xA0 SHL SUB AND CALLER EQ PUSH2 0x1E63 JUMPI PUSH1 0x40 MLOAD PUSH3 0x461BCD PUSH1 0xE5 SHL DUP2 MSTORE PUSH1 0x4 ADD PUSH2 0x823 SWAP1 PUSH2 0x2646 JUMP JUMPDEST PUSH1 0x5 SSTORE JUMP JUMPDEST PUSH1 0xD SLOAD PUSH1 0x1 PUSH1 0x1 PUSH1 0xA0 SHL SUB AND CALLER EQ PUSH2 0x1E92 JUMPI PUSH1 0x40 MLOAD PUSH3 0x461BCD PUSH1 0xE5 SHL DUP2 MSTORE PUSH1 0x4 ADD PUSH2 0x823 SWAP1 PUSH2 0x2646 JUMP JUMPDEST PUSH1 0x1 JUMPDEST PUSH1 0x1 SLOAD DUP2 GT PUSH2 0x184A JUMPI PUSH0 DUP2 DUP2 MSTORE PUSH1 0x13 PUSH1 0x20 MSTORE PUSH1 0x40 SWAP1 KECCAK256 SLOAD PUSH1 0xFF AND PUSH2 0x1F0E JUMPI PUSH1 0xC PUSH2 0x1EBE DUP3 PUSH2 0x15F0 JUMP JUMPDEST DUP2 SLOAD PUSH1 0x1 DUP2 ADD DUP4 SSTORE PUSH0 SWAP3 DUP4 MSTORE PUSH1 0x20 DUP1 DUP5 KECCAK256 SWAP1 SWAP2 ADD DUP1 SLOAD PUSH1 0x1 PUSH1 0x1 PUSH1 0xA0 SHL SUB NOT AND PUSH1 0x1 PUSH1 0x1 PUSH1 0xA0 SHL SUB SWAP4 SWAP1 SWAP4 AND SWAP3 SWAP1 SWAP3 OR SWAP1 SWAP2 SSTORE DUP3 DUP3 MSTORE PUSH1 0x1D SWAP1 MSTORE PUSH1 0x40 DUP2 KECCAK256 DUP1 SLOAD SWAP2 PUSH2 0x1F08 DUP4 PUSH2 0x26BD JUMP JUMPDEST SWAP2 SWAP1 POP SSTORE POP JUMPDEST DUP1 PUSH2 0x1F18 DUP2 PUSH2 0x26BD JUMP JUMPDEST SWAP2 POP POP PUSH2 0x1E95 JUMP JUMPDEST PUSH1 0x40 MLOAD DUP1 PUSH1 0xC0 ADD PUSH1 0x40 MSTORE DUP1 DUP4 DUP2 MSTORE PUSH1 0x20 ADD DUP3 PUSH1 0x2 DUP2 GT ISZERO PUSH2 0x1F43 JUMPI PUSH2 0x1F43 PUSH2 0x25C4 JUMP JUMPDEST DUP2 MSTORE PUSH1 0x20 ADD PUSH2 0x1F51 DUP6 PUSH2 0x787 JUMP JUMPDEST ISZERO ISZERO DUP2 MSTORE PUSH1 0x20 ADD PUSH2 0x1F61 DUP6 PUSH2 0xA45 JUMP JUMPDEST ISZERO ISZERO DUP2 MSTORE PUSH1 0x20 ADD PUSH2 0x1F71 DUP6 PUSH2 0x19CE JUMP JUMPDEST ISZERO ISZERO DUP2 MSTORE PUSH1 0x20 ADD PUSH2 0x1F81 DUP6 PUSH2 0x165B JUMP JUMPDEST ISZERO ISZERO SWAP1 MSTORE PUSH0 DUP5 DUP2 MSTORE PUSH1 0x10 PUSH1 0x20 SWAP1 DUP2 MSTORE PUSH1 0x40 SWAP1 SWAP2 KECCAK256 DUP3 MLOAD DUP2 SSTORE SWAP1 DUP3 ADD MLOAD PUSH1 0x1 DUP1 DUP4 ADD DUP1 SLOAD SWAP1 SWAP2 PUSH1 0xFF NOT SWAP1 SWAP2 AND SWAP1 DUP4 PUSH1 0x2 DUP2 GT ISZERO PUSH2 0x1FBF JUMPI PUSH2 0x1FBF PUSH2 0x25C4 JUMP JUMPDEST MUL OR SWAP1 SSTORE POP PUSH1 0x40 DUP3 ADD MLOAD PUSH1 0x1 SWAP1 SWAP2 ADD DUP1 SLOAD PUSH1 0x60 DUP5 ADD MLOAD PUSH1 0x80 DUP6 ADD MLOAD PUSH1 0xA0 SWAP1 SWAP6 ADD MLOAD ISZERO ISZERO PUSH5 0x100000000 MUL PUSH5 0xFF00000000 NOT SWAP6 ISZERO ISZERO PUSH4 0x1000000 MUL SWAP6 SWAP1 SWAP6 AND PUSH5 0xFFFF000000 NOT SWAP2 ISZERO ISZERO PUSH3 0x10000 MUL PUSH3 0xFF0000 NOT SWAP6 ISZERO ISZERO PUSH2 0x100 MUL SWAP6 SWAP1 SWAP6 AND PUSH3 0xFFFF00 NOT SWAP1 SWAP4 AND SWAP3 SWAP1 SWAP3 OR SWAP4 SWAP1 SWAP4 OR SWAP3 SWAP1 SWAP3 AND SWAP2 SWAP1 SWAP2 OR SWAP2 SWAP1 SWAP2 OR SWAP1 SSTORE PUSH0 DUP1 DUP3 PUSH1 0x2 DUP2 GT ISZERO PUSH2 0x204E JUMPI PUSH2 0x204E PUSH2 0x25C4 JUMP JUMPDEST EQ PUSH2 0x2079 JUMPI PUSH1 0x1 DUP3 PUSH1 0x2 DUP2 GT ISZERO PUSH2 0x2067 JUMPI PUSH2 0x2067 PUSH2 0x25C4 JUMP JUMPDEST EQ PUSH2 0x2073 JUMPI PUSH1 0x2 PUSH2 0x207C JUMP JUMPDEST PUSH0 PUSH2 0x207C JUMP JUMPDEST PUSH1 0x1 JUMPDEST SWAP1 POP PUSH1 0x40 MLOAD DUP1 PUSH1 0xC0 ADD PUSH1 0x40 MSTORE DUP1 DUP6 DUP2 MSTORE PUSH1 0x20 ADD DUP3 PUSH1 0x2 DUP2 GT ISZERO PUSH2 0x20A1 JUMPI PUSH2 0x20A1 PUSH2 0x25C4 JUMP JUMPDEST DUP2 MSTORE PUSH1 0x20 ADD PUSH2 0x20AF DUP6 PUSH2 0x787 JUMP JUMPDEST ISZERO ISZERO DUP2 MSTORE PUSH1 0x20 ADD PUSH2 0x20BF DUP6 PUSH2 0xA45 JUMP JUMPDEST ISZERO ISZERO DUP2 MSTORE PUSH1 0x20 ADD PUSH2 0x20CF DUP6 PUSH2 0x19CE JUMP JUMPDEST ISZERO ISZERO DUP2 MSTORE PUSH1 0x20 ADD PUSH2 0x20DF DUP6 PUSH2 0x165B JUMP JUMPDEST ISZERO ISZERO SWAP1 MSTORE PUSH0 DUP5 DUP2 MSTORE PUSH1 0x10 PUSH1 0x20 SWAP1 DUP2 MSTORE PUSH1 0x40 SWAP1 SWAP2 KECCAK256 DUP3 MLOAD DUP2 SSTORE SWAP1 DUP3 ADD MLOAD PUSH1 0x1 DUP1 DUP4 ADD DUP1 SLOAD SWAP1 SWAP2 PUSH1 0xFF NOT SWAP1 SWAP2 AND SWAP1 DUP4 PUSH1 0x2 DUP2 GT ISZERO PUSH2 0x211D JUMPI PUSH2 0x211D PUSH2 0x25C4 JUMP JUMPDEST MUL OR SWAP1 SSTORE POP PUSH1 0x40 DUP3 ADD MLOAD PUSH1 0x1 SWAP1 SWAP2 ADD DUP1 SLOAD PUSH1 0x60 DUP5 ADD MLOAD PUSH1 0x80 DUP6 ADD MLOAD PUSH1 0xA0 SWAP1 SWAP6 ADD MLOAD ISZERO ISZERO PUSH5 0x100000000 MUL PUSH5 0xFF00000000 NOT SWAP6 ISZERO ISZERO PUSH4 0x1000000 MUL SWAP6 SWAP1 SWAP6 AND PUSH5 0xFFFF000000 NOT SWAP2 ISZERO ISZERO PUSH3 0x10000 MUL PUSH3 0xFF0000 NOT SWAP6 ISZERO ISZERO PUSH2 0x100 MUL SWAP6 SWAP1 SWAP6 AND PUSH3 0xFFFF00 NOT SWAP1 SWAP4 AND SWAP3 SWAP1 SWAP3 OR SWAP4 SWAP1 SWAP4 OR SWAP3 SWAP1 SWAP3 AND SWAP2 SWAP1 SWAP2 OR SWAP2 SWAP1 SWAP2 OR SWAP1 SSTORE POP POP POP POP JUMP JUMPDEST PUSH1 0xF SLOAD PUSH1 0x40 MLOAD PUSH4 0x9EADBF5 PUSH1 0xE0 SHL DUP2 MSTORE PUSH1 0x4 DUP2 ADD DUP5 SWAP1 MSTORE PUSH1 0x24 DUP2 ADD DUP4 SWAP1 MSTORE PUSH1 0x1 PUSH1 0x1 PUSH1 0xA0 SHL SUB SWAP1 SWAP2 AND SWAP1 PUSH4 0x9EADBF5 SWAP1 PUSH1 0x44 ADD PUSH0 PUSH1 0x40 MLOAD DUP1 DUP4 SUB DUP2 PUSH0 DUP8 DUP1 EXTCODESIZE ISZERO DUP1 ISZERO PUSH2 0x21E8 JUMPI PUSH0 DUP1 REVERT JUMPDEST POP GAS CALL ISZERO DUP1 ISZERO PUSH2 0x21FA JUMPI RETURNDATASIZE PUSH0 DUP1 RETURNDATACOPY RETURNDATASIZE PUSH0 REVERT JUMPDEST POP POP POP POP POP POP JUMP JUMPDEST PUSH0 DUP1 JUMPDEST PUSH1 0x5 DUP2 LT ISZERO PUSH2 0x22E3 JUMPI PUSH1 0x1 SLOAD PUSH1 0x40 DUP1 MLOAD TIMESTAMP PUSH1 0x20 DUP3 ADD MSTORE SWAP1 DUP2 ADD DUP7 SWAP1 MSTORE PUSH0 SWAP2 SWAP1 PUSH1 0x60 ADD PUSH1 0x40 MLOAD PUSH1 0x20 DUP2 DUP4 SUB SUB DUP2 MSTORE SWAP1 PUSH1 0x40 MSTORE DUP1 MLOAD SWAP1 PUSH1 0x20 ADD KECCAK256 PUSH0 SHR PUSH2 0x2249 SWAP2 SWAP1 PUSH2 0x2713 JUMP JUMPDEST PUSH2 0x2254 SWAP1 PUSH1 0x1 PUSH2 0x26D5 JUMP JUMPDEST PUSH0 DUP2 DUP2 MSTORE PUSH1 0x12 PUSH1 0x20 MSTORE PUSH1 0x40 SWAP1 KECCAK256 SLOAD SWAP1 SWAP2 POP PUSH1 0xFF AND DUP1 ISZERO PUSH2 0x2282 JUMPI POP PUSH0 DUP2 DUP2 MSTORE PUSH1 0x14 PUSH1 0x20 MSTORE PUSH1 0x40 SWAP1 KECCAK256 SLOAD PUSH1 0xFF AND ISZERO JUMPDEST DUP1 ISZERO PUSH2 0x229C JUMPI POP PUSH0 DUP2 DUP2 MSTORE PUSH1 0x13 PUSH1 0x20 MSTORE PUSH1 0x40 SWAP1 KECCAK256 SLOAD PUSH1 0xFF AND ISZERO JUMPDEST DUP1 ISZERO PUSH2 0x22C2 JUMPI POP DUP4 PUSH1 0x1 PUSH1 0x1 PUSH1 0xA0 SHL SUB AND PUSH2 0x22B6 DUP3 PUSH2 0x15F0 JUMP JUMPDEST PUSH1 0x1 PUSH1 0x1 PUSH1 0xA0 SHL SUB AND EQ ISZERO JUMPDEST ISZERO PUSH2 0x22D0 JUMPI SWAP2 POP PUSH2 0x7F3 SWAP1 POP JUMP JUMPDEST POP DUP1 PUSH2 0x22DB DUP2 PUSH2 0x26BD JUMP JUMPDEST SWAP2 POP POP PUSH2 0x2205 JUMP JUMPDEST POP PUSH0 SWAP4 SWAP3 POP POP POP JUMP JUMPDEST PUSH0 DUP2 JUMPDEST PUSH1 0x1 SLOAD DUP2 GT PUSH2 0x235A JUMPI PUSH0 DUP2 DUP2 MSTORE PUSH1 0x12 PUSH1 0x20 MSTORE PUSH1 0x40 SWAP1 KECCAK256 SLOAD PUSH1 0xFF AND DUP1 ISZERO PUSH2 0x2323 JUMPI POP PUSH0 DUP2 DUP2 MSTORE PUSH1 0x14 PUSH1 0x20 MSTORE PUSH1 0x40 SWAP1 KECCAK256 SLOAD PUSH1 0xFF AND ISZERO JUMPDEST DUP1 ISZERO PUSH2 0x233D JUMPI POP PUSH0 DUP2 DUP2 MSTORE PUSH1 0x13 PUSH1 0x20 MSTORE PUSH1 0x40 SWAP1 KECCAK256 SLOAD PUSH1 0xFF AND ISZERO JUMPDEST ISZERO PUSH2 0x2348 JUMPI SWAP3 SWAP2 POP POP JUMP JUMPDEST DUP1 PUSH2 0x2352 DUP2 PUSH2 0x26BD JUMP JUMPDEST SWAP2 POP POP PUSH2 0x22EF JUMP JUMPDEST POP PUSH0 SWAP3 SWAP2 POP POP JUMP JUMPDEST DUP3 PUSH1 0x5 DUP2 ADD SWAP3 DUP3 ISZERO PUSH2 0x2390 JUMPI SWAP2 PUSH1 0x20 MUL DUP3 ADD JUMPDEST DUP3 DUP2 GT ISZERO PUSH2 0x2390 JUMPI DUP3 MLOAD DUP3 SSTORE SWAP2 PUSH1 0x20 ADD SWAP2 SWAP1 PUSH1 0x1 ADD SWAP1 PUSH2 0x2375 JUMP JUMPDEST POP PUSH2 0x239C SWAP3 SWAP2 POP PUSH2 0x23A0 JUMP JUMPDEST POP SWAP1 JUMP JUMPDEST JUMPDEST DUP1 DUP3 GT ISZERO PUSH2 0x239C JUMPI PUSH0 DUP2 SSTORE PUSH1 0x1 ADD PUSH2 0x23A1 JUMP JUMPDEST PUSH0 PUSH1 0x20 DUP3 DUP5 SUB SLT ISZERO PUSH2 0x23C4 JUMPI PUSH0 DUP1 REVERT JUMPDEST POP CALLDATALOAD SWAP2 SWAP1 POP JUMP JUMPDEST PUSH1 0x20 DUP1 DUP3 MSTORE DUP3 MLOAD DUP3 DUP3 ADD DUP2 SWAP1 MSTORE PUSH0 SWAP2 SWAP1 DUP5 DUP3 ADD SWAP1 PUSH1 0x40 DUP6 ADD SWAP1 DUP5 JUMPDEST DUP2 DUP2 LT ISZERO PUSH2 0x2402 JUMPI DUP4 MLOAD DUP4 MSTORE SWAP3 DUP5 ADD SWAP3 SWAP2 DUP5 ADD SWAP2 PUSH1 0x1 ADD PUSH2 0x23E6 JUMP JUMPDEST POP SWAP1 SWAP7 SWAP6 POP POP POP POP POP POP JUMP JUMPDEST PUSH0 DUP1 PUSH1 0x40 DUP4 DUP6 SUB SLT ISZERO PUSH2 0x241F JUMPI PUSH0 DUP1 REVERT JUMPDEST POP POP DUP1 CALLDATALOAD SWAP3 PUSH1 0x20 SWAP1 SWAP2 ADD CALLDATALOAD SWAP2 POP JUMP JUMPDEST PUSH4 0x4E487B71 PUSH1 0xE0 SHL PUSH0 MSTORE PUSH1 0x41 PUSH1 0x4 MSTORE PUSH1 0x24 PUSH0 REVERT JUMPDEST PUSH1 0x40 MLOAD PUSH1 0xA0 DUP2 ADD PUSH8 0xFFFFFFFFFFFFFFFF DUP2 GT DUP3 DUP3 LT OR ISZERO PUSH2 0x2465 JUMPI PUSH2 0x2465 PUSH2 0x242E JUMP JUMPDEST PUSH1 0x40 MSTORE SWAP1 JUMP JUMPDEST PUSH1 0x40 MLOAD PUSH1 0x1F DUP3 ADD PUSH1 0x1F NOT AND DUP2 ADD PUSH8 0xFFFFFFFFFFFFFFFF DUP2 GT DUP3 DUP3 LT OR ISZERO PUSH2 0x2494 JUMPI PUSH2 0x2494 PUSH2 0x242E JUMP JUMPDEST PUSH1 0x40 MSTORE SWAP2 SWAP1 POP JUMP JUMPDEST PUSH0 DUP1 PUSH1 0x40 DUP4 DUP6 SUB SLT ISZERO PUSH2 0x24AD JUMPI PUSH0 DUP1 REVERT JUMPDEST DUP3 CALLDATALOAD SWAP2 POP PUSH1 0x20 DUP1 DUP5 ADD CALLDATALOAD PUSH8 0xFFFFFFFFFFFFFFFF DUP1 DUP3 GT ISZERO PUSH2 0x24CC JUMPI PUSH0 DUP1 REVERT JUMPDEST DUP2 DUP7 ADD SWAP2 POP PUSH1 0x1F DUP8 DUP2 DUP5 ADD SLT PUSH2 0x24E0 JUMPI PUSH0 DUP1 REVERT JUMPDEST DUP3 CALLDATALOAD DUP3 DUP2 GT ISZERO PUSH2 0x24F2 JUMPI PUSH2 0x24F2 PUSH2 0x242E JUMP JUMPDEST PUSH2 0x2500 DUP6 DUP3 PUSH1 0x5 SHL ADD PUSH2 0x246B JUMP JUMPDEST DUP2 DUP2 MSTORE DUP6 DUP2 ADD SWAP4 POP PUSH1 0xA0 SWAP2 DUP3 MUL DUP6 ADD DUP7 ADD SWAP2 DUP11 DUP4 GT ISZERO PUSH2 0x251E JUMPI PUSH0 DUP1 REVERT JUMPDEST SWAP5 DUP7 ADD SWAP5 JUMPDEST DUP3 DUP7 LT ISZERO PUSH2 0x257D JUMPI DUP11 DUP5 DUP8 ADD SLT PUSH2 0x2539 JUMPI PUSH0 DUP1 DUP2 REVERT JUMPDEST PUSH2 0x2541 PUSH2 0x2442 JUMP JUMPDEST DUP1 DUP3 DUP9 ADD DUP14 DUP2 GT ISZERO PUSH2 0x2552 JUMPI PUSH0 DUP1 DUP2 REVERT JUMPDEST DUP9 JUMPDEST DUP2 DUP2 LT ISZERO PUSH2 0x256B JUMPI DUP1 CALLDATALOAD DUP5 MSTORE SWAP3 DUP11 ADD SWAP3 DUP11 ADD PUSH2 0x2554 JUMP JUMPDEST POP POP DUP7 MSTORE POP SWAP5 DUP6 ADD SWAP5 SWAP4 DUP7 ADD SWAP4 PUSH2 0x2523 JUMP JUMPDEST POP DUP1 SWAP7 POP POP POP POP POP POP POP SWAP3 POP SWAP3 SWAP1 POP JUMP JUMPDEST PUSH1 0x1 PUSH1 0x1 PUSH1 0xA0 SHL SUB DUP2 AND DUP2 EQ PUSH2 0x184A JUMPI PUSH0 DUP1 REVERT JUMPDEST PUSH0 PUSH1 0x20 DUP3 DUP5 SUB SLT ISZERO PUSH2 0x25B2 JUMPI PUSH0 DUP1 REVERT JUMPDEST DUP2 CALLDATALOAD PUSH2 0x25BD DUP2 PUSH2 0x258E JUMP JUMPDEST SWAP4 SWAP3 POP POP POP JUMP JUMPDEST PUSH4 0x4E487B71 PUSH1 0xE0 SHL PUSH0 MSTORE PUSH1 0x21 PUSH1 0x4 MSTORE PUSH1 0x24 PUSH0 REVERT JUMPDEST DUP7 DUP2 MSTORE PUSH1 0xC0 DUP2 ADD PUSH1 0x3 DUP8 LT PUSH2 0x25FB JUMPI PUSH4 0x4E487B71 PUSH1 0xE0 SHL PUSH0 MSTORE PUSH1 0x21 PUSH1 0x4 MSTORE PUSH1 0x24 PUSH0 REVERT JUMPDEST PUSH1 0x20 DUP3 ADD SWAP7 SWAP1 SWAP7 MSTORE SWAP4 ISZERO ISZERO PUSH1 0x40 DUP6 ADD MSTORE SWAP2 ISZERO ISZERO PUSH1 0x60 DUP5 ADD MSTORE ISZERO ISZERO PUSH1 0x80 DUP4 ADD MSTORE ISZERO ISZERO PUSH1 0xA0 SWAP1 SWAP2 ADD MSTORE SWAP2 SWAP1 POP JUMP JUMPDEST PUSH0 PUSH1 0x20 DUP3 DUP5 SUB SLT ISZERO PUSH2 0x2637 JUMPI PUSH0 DUP1 REVERT JUMPDEST DUP2 MLOAD DUP1 ISZERO ISZERO DUP2 EQ PUSH2 0x25BD JUMPI PUSH0 DUP1 REVERT JUMPDEST PUSH1 0x20 DUP1 DUP3 MSTORE PUSH1 0x2F SWAP1 DUP3 ADD MSTORE PUSH32 0x4F6E6C79206D61696E74656E616E63652077616C6C65742063616E2070657266 PUSH1 0x40 DUP3 ADD MSTORE PUSH15 0x37B936903A3434B99030B1BA34B7B7 PUSH1 0x89 SHL PUSH1 0x60 DUP3 ADD MSTORE PUSH1 0x80 ADD SWAP1 JUMP JUMPDEST PUSH4 0x4E487B71 PUSH1 0xE0 SHL PUSH0 MSTORE PUSH1 0x31 PUSH1 0x4 MSTORE PUSH1 0x24 PUSH0 REVERT JUMPDEST PUSH4 0x4E487B71 PUSH1 0xE0 SHL PUSH0 MSTORE PUSH1 0x11 PUSH1 0x4 MSTORE PUSH1 0x24 PUSH0 REVERT JUMPDEST PUSH0 PUSH1 0x1 DUP3 ADD PUSH2 0x26CE JUMPI PUSH2 0x26CE PUSH2 0x26A9 JUMP JUMPDEST POP PUSH1 0x1 ADD SWAP1 JUMP JUMPDEST DUP1 DUP3 ADD DUP1 DUP3 GT ISZERO PUSH2 0x7F3 JUMPI PUSH2 0x7F3 PUSH2 0x26A9 JUMP JUMPDEST DUP1 DUP3 MUL DUP2 ISZERO DUP3 DUP3 DIV DUP5 EQ OR PUSH2 0x7F3 JUMPI PUSH2 0x7F3 PUSH2 0x26A9 JUMP JUMPDEST PUSH4 0x4E487B71 PUSH1 0xE0 SHL PUSH0 MSTORE PUSH1 0x12 PUSH1 0x4 MSTORE PUSH1 0x24 PUSH0 REVERT JUMPDEST PUSH0 DUP3 PUSH2 0x2721 JUMPI PUSH2 0x2721 PUSH2 0x26FF JUMP JUMPDEST POP MOD SWAP1 JUMP JUMPDEST PUSH4 0x4E487B71 PUSH1 0xE0 SHL PUSH0 MSTORE PUSH1 0x32 PUSH1 0x4 MSTORE PUSH1 0x24 PUSH0 REVERT JUMPDEST PUSH0 PUSH1 0x20 DUP3 DUP5 SUB SLT ISZERO PUSH2 0x274A JUMPI PUSH0 DUP1 REVERT JUMPDEST POP MLOAD SWAP2 SWAP1 POP JUMP JUMPDEST DUP2 DUP2 SUB DUP2 DUP2 GT ISZERO PUSH2 0x7F3 JUMPI PUSH2 0x7F3 PUSH2 0x26A9 JUMP JUMPDEST PUSH0 PUSH1 0x20 DUP3 DUP5 SUB SLT ISZERO PUSH2 0x2774 JUMPI PUSH0 DUP1 REVERT JUMPDEST DUP2 MLOAD PUSH2 0x25BD DUP2 PUSH2 0x258E JUMP JUMPDEST PUSH1 0x1 DUP2 DUP2 JUMPDEST DUP1 DUP6 GT ISZERO PUSH2 0x27B9 JUMPI DUP2 PUSH0 NOT DIV DUP3 GT ISZERO PUSH2 0x279F JUMPI PUSH2 0x279F PUSH2 0x26A9 JUMP JUMPDEST DUP1 DUP6 AND ISZERO PUSH2 0x27AC JUMPI SWAP2 DUP2 MUL SWAP2 JUMPDEST SWAP4 DUP5 SHR SWAP4 SWAP1 DUP1 MUL SWAP1 PUSH2 0x2784 JUMP JUMPDEST POP SWAP3 POP SWAP3 SWAP1 POP JUMP JUMPDEST PUSH0 DUP3 PUSH2 0x27CF JUMPI POP PUSH1 0x1 PUSH2 0x7F3 JUMP JUMPDEST DUP2 PUSH2 0x27DB JUMPI POP PUSH0 PUSH2 0x7F3 JUMP JUMPDEST DUP2 PUSH1 0x1 DUP2 EQ PUSH2 0x27F1 JUMPI PUSH1 0x2 DUP2 EQ PUSH2 0x27FB JUMPI PUSH2 0x2817 JUMP JUMPDEST PUSH1 0x1 SWAP2 POP POP PUSH2 0x7F3 JUMP JUMPDEST PUSH1 0xFF DUP5 GT ISZERO PUSH2 0x280C JUMPI PUSH2 0x280C PUSH2 0x26A9 JUMP JUMPDEST POP POP PUSH1 0x1 DUP3 SHL PUSH2 0x7F3 JUMP JUMPDEST POP PUSH1 0x20 DUP4 LT PUSH2 0x133 DUP4 LT AND PUSH1 0x4E DUP5 LT PUSH1 0xB DUP5 LT AND OR ISZERO PUSH2 0x283A JUMPI POP DUP2 DUP2 EXP PUSH2 0x7F3 JUMP JUMPDEST PUSH2 0x2844 DUP4 DUP4 PUSH2 0x277F JUMP JUMPDEST DUP1 PUSH0 NOT DIV DUP3 GT ISZERO PUSH2 0x2857 JUMPI PUSH2 0x2857 PUSH2 0x26A9 JUMP JUMPDEST MUL SWAP4 SWAP3 POP POP POP JUMP JUMPDEST PUSH0 PUSH2 0x25BD PUSH1 0xFF DUP5 AND DUP4 PUSH2 0x27C1 JUMP JUMPDEST PUSH0 DUP3 PUSH2 0x287B JUMPI PUSH2 0x287B PUSH2 0x26FF JUMP JUMPDEST POP DIV SWAP1 JUMP INVALID LOG2 PUSH5 0x6970667358 0x22 SLT KECCAK256 SGT 0x1E CALLDATASIZE 0xD1 PUSH32 0xEDBB1A33B98F22C4023EC0B2F39D38D35036414303AE76CE7DCD0264736F6C63 NUMBER STOP ADDMOD ISZERO STOP CALLER "
		},
		"gasEstimates": {
			"creation": {
				"codeDepositCost": "2084400",
				"executionCost": "infinite",
				"totalCost": "infinite"
			},
			"external": {
				"HungerGamesBegin()": "2454",
				"NFTBOOSTBalance(uint256)": "2483",
				"NFTSKIPBalance(uint256)": "2504",
				"NFTVBalance(uint256)": "2548",
				"NFTXTRABalance(uint256)": "2502",
				"StatsSize()": "2383",
				"_maintenanceWallet()": "2449",
				"_startTimer()": "2405",
				"alive(uint256)": "2548",
				"aliveByID(uint256)": "4706",
				"battleLossOfNFT(uint256)": "2526",
				"battleWinsOfNFT(uint256)": "2546",
				"battlesCount()": "2363",
				"dead(uint256)": "2569",
				"enterBattle(uint256,uint256)": "infinite",
				"getAliveByID()": "infinite",
				"getAmountOfNonDead()": "infinite",
				"getMintAmount()": "infinite",
				"getNFTBOOSTBalance(uint256)": "infinite",
				"getNFTSKIPBalance(uint256)": "infinite",
				"getNFTVBalance(uint256)": "infinite",
				"getNFTXTRABalance(uint256)": "infinite",
				"getNewGame()": "2415",
				"getRoundWinnersLength()": "2404",
				"hasTimerPassed()": "8872",
				"lastBattleDetails(uint256)": "4959",
				"lookForOpponent()": "infinite",
				"maxAmountOfWinners()": "2362",
				"newGame()": "2442",
				"nftContract()": "2426",
				"owner()": "2463",
				"ownerExists(address)": "2645",
				"ownerOf(uint256)": "infinite",
				"payoutWinners(uint256)": "infinite",
				"queue(uint256)": "2525",
				"queuecounter()": "2361",
				"resetAlive()": "infinite",
				"resetAliveByID()": "infinite",
				"resetQueue()": "infinite",
				"resetTimer()": "25498",
				"reviveAll()": "infinite",
				"roundDuration()": "2404",
				"roundWinners(uint256)": "4700",
				"roundWinsOfNFT(uint256)": "2525",
				"roundsCount()": "2384",
				"setDuration(uint256)": "24550",
				"startHungerGames()": "infinite",
				"startTimer()": "49760",
				"stats(uint256,uint256)": "2617",
				"statsInitialized(uint256)": "2548",
				"storeRoundWinners()": "infinite",
				"tokenContract()": "2426",
				"uniqueOwnersCounter()": "2406",
				"updateStats(uint256,uint256[5][])": "infinite"
			},
			"internal": {
				"fillLastBattle(uint256,uint256,enum BattleContract.BattleResult)": "infinite",
				"getNextAvailable(uint256)": "infinite",
				"getRandomOpponent(uint256,address)": "infinite",
				"removePotions(uint256,uint256)": "infinite"
			}
		},
		"methodIdentifiers": {
			"HungerGamesBegin()": "8efabae6",
			"NFTBOOSTBalance(uint256)": "039aa9cf",
			"NFTSKIPBalance(uint256)": "54ca45d8",
			"NFTVBalance(uint256)": "580a155a",
			"NFTXTRABalance(uint256)": "f3a395fc",
			"StatsSize()": "eea09028",
			"_maintenanceWallet()": "51a2f687",
			"_startTimer()": "7812c4f5",
			"alive(uint256)": "6573c787",
			"aliveByID(uint256)": "472a20da",
			"battleLossOfNFT(uint256)": "1e2b0586",
			"battleWinsOfNFT(uint256)": "aa12a619",
			"battlesCount()": "11c9080d",
			"dead(uint256)": "e77f7b4b",
			"enterBattle(uint256,uint256)": "40978d42",
			"getAliveByID()": "306648e8",
			"getAmountOfNonDead()": "ef561bf5",
			"getMintAmount()": "a8995deb",
			"getNFTBOOSTBalance(uint256)": "3b32edd4",
			"getNFTSKIPBalance(uint256)": "6e2ed3c4",
			"getNFTVBalance(uint256)": "c1ae5e72",
			"getNFTXTRABalance(uint256)": "2ace2af5",
			"getNewGame()": "a2b946aa",
			"getRoundWinnersLength()": "2a303c79",
			"hasTimerPassed()": "33057537",
			"lastBattleDetails(uint256)": "c1428bfa",
			"lookForOpponent()": "ec8f2e4d",
			"maxAmountOfWinners()": "60592066",
			"newGame()": "7d03f5f3",
			"nftContract()": "d56d229d",
			"owner()": "8da5cb5b",
			"ownerExists(address)": "59dbfde8",
			"ownerOf(uint256)": "6352211e",
			"payoutWinners(uint256)": "83d00890",
			"queue(uint256)": "ddf0b009",
			"queuecounter()": "dd49c004",
			"resetAlive()": "e472d7d3",
			"resetAliveByID()": "2b1fbdff",
			"resetQueue()": "4ea61992",
			"resetTimer()": "7d55d304",
			"reviveAll()": "9d670c6d",
			"roundDuration()": "f7cb789a",
			"roundWinners(uint256)": "76a4956c",
			"roundWinsOfNFT(uint256)": "893e2bd1",
			"roundsCount()": "9f5cfe03",
			"setDuration(uint256)": "f6be71d1",
			"startHungerGames()": "2f4960ee",
			"startTimer()": "a39f7449",
			"stats(uint256,uint256)": "4433c468",
			"statsInitialized(uint256)": "8a015e30",
			"storeRoundWinners()": "fdc06ccf",
			"tokenContract()": "55a373d6",
			"uniqueOwnersCounter()": "d65cb04a",
			"updateStats(uint256,uint256[5][])": "49d2631a"
		}
	},
	"abi": [
		{
			"inputs": [
				{
					"internalType": "address",
					"name": "_nftAddress",
					"type": "address"
				},
				{
					"internalType": "address",
					"name": "_tokenAddress",
					"type": "address"
				}
			],
			"stateMutability": "nonpayable",
			"type": "constructor"
		},
		{
			"anonymous": false,
			"inputs": [],
			"name": "Enteredbattled",
			"type": "event"
		},
		{
			"anonymous": false,
			"inputs": [
				{
					"indexed": true,
					"internalType": "address",
					"name": "previousOwner",
					"type": "address"
				},
				{
					"indexed": true,
					"internalType": "address",
					"name": "newOwner",
					"type": "address"
				}
			],
			"name": "OwnershipTransferred",
			"type": "event"
		},
		{
			"anonymous": false,
			"inputs": [],
			"name": "QueueResettet",
			"type": "event"
		},
		{
			"anonymous": false,
			"inputs": [],
			"name": "RevivedAll",
			"type": "event"
		},
		{
			"anonymous": false,
			"inputs": [],
			"name": "StartedHungerGames",
			"type": "event"
		},
		{
			"anonymous": false,
			"inputs": [
				{
					"indexed": false,
					"internalType": "uint256",
					"name": "timestamp",
					"type": "uint256"
				}
			],
			"name": "TimerReset",
			"type": "event"
		},
		{
			"anonymous": false,
			"inputs": [
				{
					"indexed": false,
					"internalType": "uint256",
					"name": "timestamp",
					"type": "uint256"
				}
			],
			"name": "TimerStarted",
			"type": "event"
		},
		{
			"anonymous": false,
			"inputs": [],
			"name": "WinnersFound",
			"type": "event"
		},
		{
			"anonymous": false,
			"inputs": [],
			"name": "matchingOpponents",
			"type": "event"
		},
		{
			"inputs": [],
			"name": "HungerGamesBegin",
			"outputs": [
				{
					"internalType": "bool",
					"name": "",
					"type": "bool"
				}
			],
			"stateMutability": "view",
			"type": "function"
		},
		{
			"inputs": [
				{
					"internalType": "uint256",
					"name": "",
					"type": "uint256"
				}
			],
			"name": "NFTBOOSTBalance",
			"outputs": [
				{
					"internalType": "bool",
					"name": "",
					"type": "bool"
				}
			],
			"stateMutability": "view",
			"type": "function"
		},
		{
			"inputs": [
				{
					"internalType": "uint256",
					"name": "",
					"type": "uint256"
				}
			],
			"name": "NFTSKIPBalance",
			"outputs": [
				{
					"internalType": "bool",
					"name": "",
					"type": "bool"
				}
			],
			"stateMutability": "view",
			"type": "function"
		},
		{
			"inputs": [
				{
					"internalType": "uint256",
					"name": "",
					"type": "uint256"
				}
			],
			"name": "NFTVBalance",
			"outputs": [
				{
					"internalType": "bool",
					"name": "",
					"type": "bool"
				}
			],
			"stateMutability": "view",
			"type": "function"
		},
		{
			"inputs": [
				{
					"internalType": "uint256",
					"name": "",
					"type": "uint256"
				}
			],
			"name": "NFTXTRABalance",
			"outputs": [
				{
					"internalType": "bool",
					"name": "",
					"type": "bool"
				}
			],
			"stateMutability": "view",
			"type": "function"
		},
		{
			"inputs": [],
			"name": "StatsSize",
			"outputs": [
				{
					"internalType": "uint256",
					"name": "",
					"type": "uint256"
				}
			],
			"stateMutability": "view",
			"type": "function"
		},
		{
			"inputs": [],
			"name": "_maintenanceWallet",
			"outputs": [
				{
					"internalType": "address",
					"name": "",
					"type": "address"
				}
			],
			"stateMutability": "view",
			"type": "function"
		},
		{
			"inputs": [],
			"name": "_startTimer",
			"outputs": [
				{
					"internalType": "uint256",
					"name": "",
					"type": "uint256"
				}
			],
			"stateMutability": "view",
			"type": "function"
		},
		{
			"inputs": [
				{
					"internalType": "uint256",
					"name": "",
					"type": "uint256"
				}
			],
			"name": "alive",
			"outputs": [
				{
					"internalType": "bool",
					"name": "",
					"type": "bool"
				}
			],
			"stateMutability": "view",
			"type": "function"
		},
		{
			"inputs": [
				{
					"internalType": "uint256",
					"name": "",
					"type": "uint256"
				}
			],
			"name": "aliveByID",
			"outputs": [
				{
					"internalType": "uint256",
					"name": "",
					"type": "uint256"
				}
			],
			"stateMutability": "view",
			"type": "function"
		},
		{
			"inputs": [
				{
					"internalType": "uint256",
					"name": "",
					"type": "uint256"
				}
			],
			"name": "battleLossOfNFT",
			"outputs": [
				{
					"internalType": "uint256",
					"name": "",
					"type": "uint256"
				}
			],
			"stateMutability": "view",
			"type": "function"
		},
		{
			"inputs": [
				{
					"internalType": "uint256",
					"name": "",
					"type": "uint256"
				}
			],
			"name": "battleWinsOfNFT",
			"outputs": [
				{
					"internalType": "uint256",
					"name": "",
					"type": "uint256"
				}
			],
			"stateMutability": "view",
			"type": "function"
		},
		{
			"inputs": [],
			"name": "battlesCount",
			"outputs": [
				{
					"internalType": "uint256",
					"name": "",
					"type": "uint256"
				}
			],
			"stateMutability": "view",
			"type": "function"
		},
		{
			"inputs": [
				{
					"internalType": "uint256",
					"name": "",
					"type": "uint256"
				}
			],
			"name": "dead",
			"outputs": [
				{
					"internalType": "bool",
					"name": "",
					"type": "bool"
				}
			],
			"stateMutability": "view",
			"type": "function"
		},
		{
			"inputs": [
				{
					"internalType": "uint256",
					"name": "First",
					"type": "uint256"
				},
				{
					"internalType": "uint256",
					"name": "Second",
					"type": "uint256"
				}
			],
			"name": "enterBattle",
			"outputs": [],
			"stateMutability": "nonpayable",
			"type": "function"
		},
		{
			"inputs": [],
			"name": "getAliveByID",
			"outputs": [
				{
					"internalType": "uint256[]",
					"name": "",
					"type": "uint256[]"
				}
			],
			"stateMutability": "view",
			"type": "function"
		},
		{
			"inputs": [],
			"name": "getAmountOfNonDead",
			"outputs": [
				{
					"internalType": "uint256",
					"name": "",
					"type": "uint256"
				}
			],
			"stateMutability": "nonpayable",
			"type": "function"
		},
		{
			"inputs": [],
			"name": "getMintAmount",
			"outputs": [
				{
					"internalType": "uint256",
					"name": "",
					"type": "uint256"
				}
			],
			"stateMutability": "view",
			"type": "function"
		},
		{
			"inputs": [
				{
					"internalType": "uint256",
					"name": "NFTId",
					"type": "uint256"
				}
			],
			"name": "getNFTBOOSTBalance",
			"outputs": [
				{
					"internalType": "bool",
					"name": "",
					"type": "bool"
				}
			],
			"stateMutability": "view",
			"type": "function"
		},
		{
			"inputs": [
				{
					"internalType": "uint256",
					"name": "NFTId",
					"type": "uint256"
				}
			],
			"name": "getNFTSKIPBalance",
			"outputs": [
				{
					"internalType": "bool",
					"name": "",
					"type": "bool"
				}
			],
			"stateMutability": "view",
			"type": "function"
		},
		{
			"inputs": [
				{
					"internalType": "uint256",
					"name": "NFTId",
					"type": "uint256"
				}
			],
			"name": "getNFTVBalance",
			"outputs": [
				{
					"internalType": "bool",
					"name": "",
					"type": "bool"
				}
			],
			"stateMutability": "view",
			"type": "function"
		},
		{
			"inputs": [
				{
					"internalType": "uint256",
					"name": "NFTId",
					"type": "uint256"
				}
			],
			"name": "getNFTXTRABalance",
			"outputs": [
				{
					"internalType": "bool",
					"name": "",
					"type": "bool"
				}
			],
			"stateMutability": "view",
			"type": "function"
		},
		{
			"inputs": [],
			"name": "getNewGame",
			"outputs": [
				{
					"internalType": "bool",
					"name": "",
					"type": "bool"
				}
			],
			"stateMutability": "view",
			"type": "function"
		},
		{
			"inputs": [],
			"name": "getRoundWinnersLength",
			"outputs": [
				{
					"internalType": "uint256",
					"name": "",
					"type": "uint256"
				}
			],
			"stateMutability": "view",
			"type": "function"
		},
		{
			"inputs": [],
			"name": "hasTimerPassed",
			"outputs": [
				{
					"internalType": "bool",
					"name": "",
					"type": "bool"
				}
			],
			"stateMutability": "view",
			"type": "function"
		},
		{
			"inputs": [
				{
					"internalType": "uint256",
					"name": "",
					"type": "uint256"
				}
			],
			"name": "lastBattleDetails",
			"outputs": [
				{
					"internalType": "uint256",
					"name": "opponentId",
					"type": "uint256"
				},
				{
					"internalType": "enum BattleContract.BattleResult",
					"name": "result",
					"type": "uint8"
				},
				{
					"internalType": "bool",
					"name": "usedXTRA",
					"type": "bool"
				},
				{
					"internalType": "bool",
					"name": "usedBOOST",
					"type": "bool"
				},
				{
					"internalType": "bool",
					"name": "usedV",
					"type": "bool"
				},
				{
					"internalType": "bool",
					"name": "usedSKIP",
					"type": "bool"
				}
			],
			"stateMutability": "view",
			"type": "function"
		},
		{
			"inputs": [],
			"name": "lookForOpponent",
			"outputs": [],
			"stateMutability": "nonpayable",
			"type": "function"
		},
		{
			"inputs": [],
			"name": "maxAmountOfWinners",
			"outputs": [
				{
					"internalType": "uint256",
					"name": "",
					"type": "uint256"
				}
			],
			"stateMutability": "view",
			"type": "function"
		},
		{
			"inputs": [],
			"name": "newGame",
			"outputs": [
				{
					"internalType": "bool",
					"name": "",
					"type": "bool"
				}
			],
			"stateMutability": "view",
			"type": "function"
		},
		{
			"inputs": [],
			"name": "nftContract",
			"outputs": [
				{
					"internalType": "contract IGnomesCollective",
					"name": "",
					"type": "address"
				}
			],
			"stateMutability": "view",
			"type": "function"
		},
		{
			"inputs": [],
			"name": "owner",
			"outputs": [
				{
					"internalType": "address",
					"name": "",
					"type": "address"
				}
			],
			"stateMutability": "view",
			"type": "function"
		},
		{
			"inputs": [
				{
					"internalType": "address",
					"name": "",
					"type": "address"
				}
			],
			"name": "ownerExists",
			"outputs": [
				{
					"internalType": "bool",
					"name": "",
					"type": "bool"
				}
			],
			"stateMutability": "view",
			"type": "function"
		},
		{
			"inputs": [
				{
					"internalType": "uint256",
					"name": "id",
					"type": "uint256"
				}
			],
			"name": "ownerOf",
			"outputs": [
				{
					"internalType": "address",
					"name": "",
					"type": "address"
				}
			],
			"stateMutability": "view",
			"type": "function"
		},
		{
			"inputs": [
				{
					"internalType": "uint256",
					"name": "nonDeads",
					"type": "uint256"
				}
			],
			"name": "payoutWinners",
			"outputs": [],
			"stateMutability": "nonpayable",
			"type": "function"
		},
		{
			"inputs": [
				{
					"internalType": "uint256",
					"name": "",
					"type": "uint256"
				}
			],
			"name": "queue",
			"outputs": [
				{
					"internalType": "bool",
					"name": "",
					"type": "bool"
				}
			],
			"stateMutability": "view",
			"type": "function"
		},
		{
			"inputs": [],
			"name": "queuecounter",
			"outputs": [
				{
					"internalType": "uint256",
					"name": "",
					"type": "uint256"
				}
			],
			"stateMutability": "view",
			"type": "function"
		},
		{
			"inputs": [],
			"name": "resetAlive",
			"outputs": [],
			"stateMutability": "nonpayable",
			"type": "function"
		},
		{
			"inputs": [],
			"name": "resetAliveByID",
			"outputs": [],
			"stateMutability": "nonpayable",
			"type": "function"
		},
		{
			"inputs": [],
			"name": "resetQueue",
			"outputs": [],
			"stateMutability": "nonpayable",
			"type": "function"
		},
		{
			"inputs": [],
			"name": "resetTimer",
			"outputs": [],
			"stateMutability": "nonpayable",
			"type": "function"
		},
		{
			"inputs": [],
			"name": "reviveAll",
			"outputs": [],
			"stateMutability": "nonpayable",
			"type": "function"
		},
		{
			"inputs": [],
			"name": "roundDuration",
			"outputs": [
				{
					"internalType": "uint256",
					"name": "",
					"type": "uint256"
				}
			],
			"stateMutability": "view",
			"type": "function"
		},
		{
			"inputs": [
				{
					"internalType": "uint256",
					"name": "",
					"type": "uint256"
				}
			],
			"name": "roundWinners",
			"outputs": [
				{
					"internalType": "address",
					"name": "",
					"type": "address"
				}
			],
			"stateMutability": "view",
			"type": "function"
		},
		{
			"inputs": [
				{
					"internalType": "uint256",
					"name": "",
					"type": "uint256"
				}
			],
			"name": "roundWinsOfNFT",
			"outputs": [
				{
					"internalType": "uint256",
					"name": "",
					"type": "uint256"
				}
			],
			"stateMutability": "view",
			"type": "function"
		},
		{
			"inputs": [],
			"name": "roundsCount",
			"outputs": [
				{
					"internalType": "uint256",
					"name": "",
					"type": "uint256"
				}
			],
			"stateMutability": "view",
			"type": "function"
		},
		{
			"inputs": [
				{
					"internalType": "uint256",
					"name": "_roundDuration",
					"type": "uint256"
				}
			],
			"name": "setDuration",
			"outputs": [],
			"stateMutability": "nonpayable",
			"type": "function"
		},
		{
			"inputs": [],
			"name": "startHungerGames",
			"outputs": [],
			"stateMutability": "nonpayable",
			"type": "function"
		},
		{
			"inputs": [],
			"name": "startTimer",
			"outputs": [],
			"stateMutability": "nonpayable",
			"type": "function"
		},
		{
			"inputs": [
				{
					"internalType": "uint256",
					"name": "",
					"type": "uint256"
				},
				{
					"internalType": "uint256",
					"name": "",
					"type": "uint256"
				}
			],
			"name": "stats",
			"outputs": [
				{
					"internalType": "uint256",
					"name": "",
					"type": "uint256"
				}
			],
			"stateMutability": "view",
			"type": "function"
		},
		{
			"inputs": [
				{
					"internalType": "uint256",
					"name": "",
					"type": "uint256"
				}
			],
			"name": "statsInitialized",
			"outputs": [
				{
					"internalType": "bool",
					"name": "",
					"type": "bool"
				}
			],
			"stateMutability": "view",
			"type": "function"
		},
		{
			"inputs": [],
			"name": "storeRoundWinners",
			"outputs": [],
			"stateMutability": "nonpayable",
			"type": "function"
		},
		{
			"inputs": [],
			"name": "tokenContract",
			"outputs": [
				{
					"internalType": "contract IHungerGames",
					"name": "",
					"type": "address"
				}
			],
			"stateMutability": "view",
			"type": "function"
		},
		{
			"inputs": [],
			"name": "uniqueOwnersCounter",
			"outputs": [
				{
					"internalType": "uint256",
					"name": "",
					"type": "uint256"
				}
			],
			"stateMutability": "view",
			"type": "function"
		},
		{
			"inputs": [
				{
					"internalType": "uint256",
					"name": "startIdx",
					"type": "uint256"
				},
				{
					"internalType": "uint256[5][]",
					"name": "idStats",
					"type": "uint256[5][]"
				}
			],
			"name": "updateStats",
			"outputs": [],
			"stateMutability": "nonpayable",
			"type": "function"
		}
	]
}