{
	"data": {
		"bytecode": {
			"linkReferences": {},
			"object": "6080604052600560028190556003555f6008556009805461ffff19166101001790553480156200002d575f80fd5b50604051620020ca380380620020ca833981016040819052620000509162000106565b5f80546001600160a01b031916339081178255604051909182917f8be0079c531659141344cd1fd0a4f28419497f9722a3daafe3b4186f6b6457e0908290a350600c80546001600160a01b039384166001600160a01b031991821617909155600d80549290931691811691909117909155600b8054909116737034990879d4e4c0f9dade892ad641bc45dedbbf1790555f6001556200013c565b80516001600160a01b038116811462000101575f80fd5b919050565b5f806040838503121562000118575f80fd5b6200012383620000ea565b91506200013360208401620000ea565b90509250929050565b611f80806200014a5f395ff3fe608060405234801561000f575f80fd5b5060043610610297575f3560e01c80637d55d30411610161578063d65cb04a116100ca578063ec8f2e4d11610084578063ec8f2e4d146105de578063eea09028146105e6578063ef561bf5146105ef578063f3a395fc146105f7578063f7cb789a14610619578063fdc06ccf14610621575f80fd5b8063d65cb04a1461056d578063dd49c00414610576578063dd8885451461057f578063ddf0b00914610592578063e472d7d3146105b4578063e77f7b4b146105bc575f80fd5b80639f5cfe031161011b5780639f5cfe031461050f578063a39f744914610518578063a8995deb14610520578063aa12a61914610528578063c1ae5e7214610547578063d56d229d1461055a575f80fd5b80637d55d304146104a1578063893e2bd1146104a95780638a015e30146104c85780638da5cb5b146104ea5780638efabae6146104fa5780639d670c6d14610507575f80fd5b806354ca45d8116102035780636573c787116101bd5780636573c787146104365780636e2ed3c414610458578063709fa8f81461046b57806376a4956c146104735780637812c4f5146104865780637d03f5f31461048f575f80fd5b806354ca45d8146103a157806355a373d6146103c3578063580a155a146103d657806359dbfde8146103f8578063605920661461041a5780636352211e14610423575f80fd5b80633305753711610254578063330575371461032d5780633b32edd41461033557806340978d42146103485780634433c4681461035b5780634ea619921461036e57806351a2f68714610376575f80fd5b8063039aa9cf1461029b57806311c9080d146102d25780631e2b0586146102e95780632a303c79146103085780632ace2af5146103105780632f4960ee14610323575b5f80fd5b6102bd6102a9366004611c39565b60146020525f908152604090205460ff1681565b60405190151581526020015b60405180910390f35b6102db60065481565b6040519081526020016102c9565b6102db6102f7366004611c39565b60196020525f908152604090205481565b600a546102db565b6102bd61031e366004611c39565b610629565b61032b61069b565b005b6102bd610796565b6102bd610343366004611c39565b6107e8565b61032b610356366004611c50565b610819565b6102db610369366004611c50565b610f78565b61032b610f9a565b600b54610389906001600160a01b031681565b6040516001600160a01b0390911681526020016102c9565b6102bd6103af366004611c39565b60166020525f908152604090205460ff1681565b600d54610389906001600160a01b031681565b6102bd6103e4366004611c39565b60156020525f908152604090205460ff1681565b6102bd610406366004611c84565b600e6020525f908152604090205460ff1681565b6102db60025481565b610389610431366004611c39565b61102a565b6102bd610444366004611c39565b60116020525f908152604090205460ff1681565b6102bd610466366004611c39565b611095565b6102db6110c6565b610389610481366004611c39565b6111cb565b6102db60045481565b6009546102bd90610100900460ff1681565b61032b6111f3565b6102db6104b7366004611c39565b601a6020525f908152604090205481565b6102bd6104d6366004611c39565b60126020525f908152604090205460ff1681565b5f546001600160a01b0316610389565b6009546102bd9060ff1681565b61032b611259565b6102db60055481565b61032b6112fb565b6102db61136a565b6102db610536366004611c39565b60186020525f908152604090205481565b6102bd610555366004611c39565b6113da565b600c54610389906001600160a01b031681565b6102db60085481565b6102db60015481565b61032b61058d366004611d14565b61140b565b6102bd6105a0366004611c39565b600f6020525f908152604090205460ff1681565b61032b6116ca565b6102bd6105ca366004611c39565b60106020525f908152604090205460ff1681565b61032b61172f565b6102db60035481565b6102db6118f8565b6102bd610605366004611c39565b60136020525f908152604090205460ff1681565b6102db600a81565b61032b611941565b600d54604051632ace2af560e01b8152600481018390525f916001600160a01b031690632ace2af5906024015b602060405180830381865afa158015610671573d5f803e3d5ffd5b505050506040513d601f19601f820116820180604052508101906106959190611e0e565b92915050565b600b546001600160a01b031633146106ce5760405162461bcd60e51b81526004016106c590611e2d565b60405180910390fd5b5f60015b6106da61136a565b8111610749575f818152600f602052604090205460ff1615801561070c57505f8181526010602052604090205460ff16155b15610737575f818152600f60205260409020805460ff191660011790558161073381611e90565b9250505b8061074181611e90565b9150506106d2565b508060015f82825461075b9190611ea8565b90915550506009805461ff00191690556040517fe045608e87eadd2f9961a089f4c933adb62f8cc3fcbc9d23119c595d95d05bf3905f90a150565b6009545f90610100900460ff16156107c9576107b4600a6006611ebb565b6004546107c19190611ea8565b421015905090565b60095460ff16156107e357600a6004546107c19190611ea8565b505f90565b600d54604051630eccbb7560e21b8152600481018390525f916001600160a01b031690633b32edd490602401610656565b600b546001600160a01b031633146108435760405162461bcd60e51b81526004016106c590611e2d565b5f8281526010602052604090205460ff1615801561086f57505f8181526010602052604090205460ff16155b6108c55760405162461bcd60e51b815260206004820152602160248201527f426f7468204e465473206d75737420626520616c69766520746f20626174746c6044820152606560f81b60648201526084016106c5565b6003545f839052601760205260051480156108eb57506003545f82905260176020526005145b6109415760405162461bcd60e51b815260206004820152602160248201527f496e76616c696420737461747320666f72206f6e65206f6620746865204e46546044820152607360f81b60648201526084016106c5565b61094a82611095565b801561095c575061095a816113da565b155b8061097d575061096b81611095565b801561097d575061097b826113da565b155b156109ba5761098c82826119f9565b5f918252601160205260408083208054600160ff199182168117909255928452922080549091169091179055565b5f82815260176020526040808220815160a08101928390529160059082845b8154815260200190600101908083116109d9575050505f85815260176020526040808220815160a08101928390529596509194935090915060059082845b815481526020019060010190808311610a175750505050509050610a3a846107e8565b15610b3057604080514260208201529081018590525f90600590606001604051602081830303815290604052805190602001205f1c610a799190611ed2565b90505f60054287604051602001610aad9291909182526020820152691cd958dbdb9914dd185d60b21b6040820152604a0190565b60408051601f198184030181529190528051602090910120610ad0846001611ea8565b610ada9190611ea8565b610ae49190611ed2565b5f878152601760205260409020909150600a908360058110610b0857610b08611ef1565b01555f868152601760205260409020600a908260058110610b2b57610b2b611ef1565b015550505b610b39836107e8565b15610c2f57604080514260208201529081018490525f90600590606001604051602081830303815290604052805190602001205f1c610b789190611ed2565b90505f60054286604051602001610bac9291909182526020820152691cd958dbdb9914dd185d60b21b6040820152604a0190565b60408051601f198184030181529190528051602090910120610bcf846001611ea8565b610bd99190611ea8565b610be39190611ed2565b5f868152601760205260409020909150600a908360058110610c0757610c07611ef1565b01555f858152601760205260409020600a908260058110610c2a57610c2a611ef1565b015550505b610c38846113da565b15610c7f575f5b6005811015610c7d575f858152601760205260409020600a908260058110610c6957610c69611ef1565b015580610c7581611e90565b915050610c3f565b505b610c88836113da565b15610ccf575f5b6005811015610ccd575f848152601760205260409020600a908260058110610cb957610cb9611ef1565b015580610cc581611e90565b915050610c8f565b505b5f84815260176020526040812060048101546003820154600283015460018401549354929391929091610d0191611ea8565b610d0b9190611ea8565b610d159190611ea8565b610d1f9190611ea8565b5f858152601760205260408120600481015460038201546002830154600184015493549596509394919390929091610d579190611ea8565b610d619190611ea8565b610d6b9190611ea8565b610d759190611ea8565b90505f610d828284611ea8565b11610ddd5760405162461bcd60e51b815260206004820152602560248201527f546f74616c20706f776572206d7573742062652067726561746572207468616e604482015264207a65726f60d81b60648201526084016106c5565b5f6064610dea4442611ea8565b610df49190611ed2565b90505f82841115610e09575060468110610e22565b82841015610e1c5750601e811015610e22565b50603281105b8015610ea457610e3187610629565b610e4e575f878152601060205260409020805460ff191660011790555b5f888152601160209081526040808320805460ff1916600117905560189091528120805491610e7c83611e90565b90915550505f878152601960205260408120805491610e9a83611e90565b9190505550610f1c565b610ead88610629565b610eca575f888152601060205260409020805460ff191660011790555b5f878152601160209081526040808320805460ff1916600117905560189091528120805491610ef883611e90565b90915550505f888152601960205260408120805491610f1683611e90565b91905055505b5f888152601760205260409020610f3590876005611be7565b505f878152601760205260409020610f4f90866005611be7565b50610f5a88886119f9565b60068054905f610f6983611e90565b91905055505050505050505050565b6017602052815f5260405f208160058110610f91575f80fd5b01549150829050565b600b546001600160a01b03163314610fc45760405162461bcd60e51b81526004016106c590611e2d565b60015b610fcf61136a565b8111610fff575f818152600f60205260408120805460ff1916905560015580610ff781611e90565b915050610fc7565b506040517f3984c48732886b85c3609f4771c475531ed8e67132a3f30c3555a372b3edd6b3905f90a1565b600c546040516331a9108f60e11b8152600481018390525f916001600160a01b031690636352211e90602401602060405180830381865afa158015611071573d5f803e3d5ffd5b505050506040513d601f19601f820116820180604052508101906106959190611f05565b600d54604051631b8bb4f160e21b8152600481018390525f916001600160a01b031690636e2ed3c490602401610656565b600b545f906001600160a01b031633146110f25760405162461bcd60e51b81526004016106c590611e2d565b5f60015b6110fe61136a565b8111611173575f61110e8261102a565b6001600160a01b0381165f908152600e602052604090205490915060ff16611160576001600160a01b0381165f908152600e60205260409020805460ff191660011790558261115c81611e90565b9350505b508061116b81611e90565b9150506110f6565b5060015b61117f61136a565b81116111c0575f61118f8261102a565b6001600160a01b03165f908152600e60205260409020805460ff1916905550806111b881611e90565b915050611177565b506008819055905090565b600a81815481106111da575f80fd5b5f918252602090912001546001600160a01b0316905081565b600b546001600160a01b0316331461121d5760405162461bcd60e51b81526004016106c590611e2d565b4260048190556040519081527fd1dbb2ce8081405078443ef34dae718285114121a39370b14ef01b9d2b0a2083906020015b60405180910390a1565b600b546001600160a01b031633146112835760405162461bcd60e51b81526004016106c590611e2d565b60015b61128e61136a565b81116112d0575f818152601060209081526040808320805460ff19908116909155601190925290912080549091169055806112c881611e90565b915050611286565b506040517fc0a4569bdaa5bae3dabcabe5ac5c590863cad4bad443b5d2051d1d200f9fa4da905f90a1565b600b546001600160a01b031633146113255760405162461bcd60e51b81526004016106c590611e2d565b6009805460ff191660011790554260048190556040517f90e4e1076e66d07aad698457e7a86b4425881ab1586d63c00ba753f88757e9a89161124f9190815260200190565b600c546040805163a8995deb60e01b815290515f926001600160a01b03169163a8995deb9160048083019260209291908290030181865afa1580156113b1573d5f803e3d5ffd5b505050506040513d601f19601f820116820180604052508101906113d59190611f20565b905090565b600d546040516360d72f3960e11b8152600481018390525f916001600160a01b03169063c1ae5e7290602401610656565b600b546001600160a01b031633146114355760405162461bcd60e51b81526004016106c590611e2d565b600183101580156114b95750600c5f9054906101000a90046001600160a01b03166001600160a01b031663d5abeb016040518163ffffffff1660e01b8152600401602060405180830381865afa158015611491573d5f803e3d5ffd5b505050506040513d601f19601f820116820180604052508101906114b59190611f20565b8311155b6114fc5760405162461bcd60e51b815260206004820152601460248201527324b73b30b634b21039ba30b93a1034b73232bc1760611b60448201526064016106c5565b5f82116115565760405162461bcd60e51b815260206004820152602260248201527f42617463682073697a65206d7573742062652067726561746572207468616e20604482015261181760f11b60648201526084016106c5565b5f60016115638486611ea8565b61156d9190611f37565b9050600c5f9054906101000a90046001600160a01b03166001600160a01b031663d5abeb016040518163ffffffff1660e01b8152600401602060405180830381865afa1580156115bf573d5f803e3d5ffd5b505050506040513d601f19601f820116820180604052508101906115e39190611f20565b8111156116325760405162461bcd60e51b815260206004820152601c60248201527f456e6420696e6465782065786365656473206d6178537570706c792e0000000060448201526064016106c5565b835b8181116116c3575f8181526012602052604090205460ff166116b1575f61165b8683611f37565b905083818151811061166f5761166f611ef1565b602002602001015160175f8481526020019081526020015f20906005611696929190611be7565b50505f818152601260205260409020805460ff191660011790555b806116bb81611e90565b915050611634565b5050505050565b600b546001600160a01b031633146116f45760405162461bcd60e51b81526004016106c590611e2d565b60015b6116ff61136a565b811161172c575f818152601160205260409020805460ff191690558061172481611e90565b9150506116f7565b50565b600b546001600160a01b031633146117595760405162461bcd60e51b81526004016106c590611e2d565b60026001541015801561176f575061176f610796565b611777575f80fd5b60058054905f61178683611e90565b909155505f905060015b6001548111611857575f818152600f602052604090205460ff1680156117c457505f8181526011602052604090205460ff16155b80156117de57505f8181526010602052604090205460ff16155b1561184557815f036117f257809150611845565b5f611805826118008561102a565b611a5d565b90508015611820576118178382610819565b5f929150611843565b5f61182a83611b71565b905080156118415761183c8482610819565b5f9392505b505b505b8061184f81611e90565b915050611790565b506002546118636118f8565b116118bd57611870611941565b611878611259565b611880610f9a565b5f60058190556009805461ff0019166101001790556040517f4957baacfccf45d9f54657dc86692b68bea7155d1951bea16f81d430c5864f879190a15b6118c56111f3565b6118cd6116ca565b6040517f0f44cf147798f94c1025f83ff5a888484a8f7de8328f57e099895c0dc605924a905f90a150565b5f8060015b600154811161193b575f8181526010602052604090205460ff16611929578161192581611e90565b9250505b8061193381611e90565b9150506118fd565b50919050565b600b546001600160a01b0316331461196b5760405162461bcd60e51b81526004016106c590611e2d565b60015b600154811161172c575f8181526010602052604090205460ff166119e757600a6119978261102a565b81546001810183555f928352602080842090910180546001600160a01b0319166001600160a01b039390931692909217909155828252601a9052604081208054916119e183611e90565b91905055505b806119f181611e90565b91505061196e565b600d546040516309eadbf560e01b815260048101849052602481018390526001600160a01b03909116906309eadbf5906044015f604051808303815f87803b158015611a43575f80fd5b505af1158015611a55573d5f803e3d5ffd5b505050505050565b5f805b6005811015611b6857600154604080514260208201529081018690525f9190606001604051602081830303815290604052805190602001205f1c611aa49190611ed2565b611aaf906001611ea8565b5f818152600f602052604090205490915060ff168015611add57505f8181526011602052604090205460ff16155b8015611af757505f8181526010602052604090205460ff16155b8015611b1d5750836001600160a01b0316611b118261102a565b6001600160a01b031614155b8015611b475750611b2f856001611ea8565b81141580611b475750611b43600186611f37565b8114155b15611b555791506106959050565b5080611b6081611e90565b915050611a60565b505f9392505050565b5f815b6001548111611bdf575f818152600f602052604090205460ff168015611ba857505f8181526011602052604090205460ff16155b8015611bc257505f8181526010602052604090205460ff16155b15611bcd5792915050565b80611bd781611e90565b915050611b74565b505f92915050565b8260058101928215611c15579160200282015b82811115611c15578251825591602001919060010190611bfa565b50611c21929150611c25565b5090565b5b80821115611c21575f8155600101611c26565b5f60208284031215611c49575f80fd5b5035919050565b5f8060408385031215611c61575f80fd5b50508035926020909101359150565b6001600160a01b038116811461172c575f80fd5b5f60208284031215611c94575f80fd5b8135611c9f81611c70565b9392505050565b634e487b7160e01b5f52604160045260245ffd5b60405160a0810167ffffffffffffffff81118282101715611cdd57611cdd611ca6565b60405290565b604051601f8201601f1916810167ffffffffffffffff81118282101715611d0c57611d0c611ca6565b604052919050565b5f805f60608486031215611d26575f80fd5b833592506020808501359250604085013567ffffffffffffffff80821115611d4c575f80fd5b8187019150601f8881840112611d60575f80fd5b823582811115611d7257611d72611ca6565b611d80858260051b01611ce3565b818152858101935060a091820285018601918b831115611d9e575f80fd5b948601945b82861015611dfd578b84870112611db9575f8081fd5b611dc1611cba565b808288018e811115611dd2575f8081fd5b885b81811015611deb5780358452928a01928a01611dd4565b50508652509485019493860193611da3565b508096505050505050509250925092565b5f60208284031215611e1e575f80fd5b81518015158114611c9f575f80fd5b6020808252602f908201527f4f6e6c79206d61696e74656e616e63652077616c6c65742063616e207065726660408201526e37b936903a3434b99030b1ba34b7b760891b606082015260800190565b634e487b7160e01b5f52601160045260245ffd5b5f60018201611ea157611ea1611e7c565b5060010190565b8082018082111561069557610695611e7c565b808202811582820484141761069557610695611e7c565b5f82611eec57634e487b7160e01b5f52601260045260245ffd5b500690565b634e487b7160e01b5f52603260045260245ffd5b5f60208284031215611f15575f80fd5b8151611c9f81611c70565b5f60208284031215611f30575f80fd5b5051919050565b8181038181111561069557610695611e7c56fea2646970667358221220746bebcfa73df7310fd1f889c48da5ed2d4aa358b9b9c174eec616592809d53f64736f6c63430008150033",
			"opcodes": "PUSH1 0x80 PUSH1 0x40 MSTORE PUSH1 0x5 PUSH1 0x2 DUP2 SWAP1 SSTORE PUSH1 0x3 SSTORE PUSH0 PUSH1 0x8 SSTORE PUSH1 0x9 DUP1 SLOAD PUSH2 0xFFFF NOT AND PUSH2 0x100 OR SWAP1 SSTORE CALLVALUE DUP1 ISZERO PUSH3 0x2D JUMPI PUSH0 DUP1 REVERT JUMPDEST POP PUSH1 0x40 MLOAD PUSH3 0x20CA CODESIZE SUB DUP1 PUSH3 0x20CA DUP4 CODECOPY DUP2 ADD PUSH1 0x40 DUP2 SWAP1 MSTORE PUSH3 0x50 SWAP2 PUSH3 0x106 JUMP JUMPDEST PUSH0 DUP1 SLOAD PUSH1 0x1 PUSH1 0x1 PUSH1 0xA0 SHL SUB NOT AND CALLER SWAP1 DUP2 OR DUP3 SSTORE PUSH1 0x40 MLOAD SWAP1 SWAP2 DUP3 SWAP2 PUSH32 0x8BE0079C531659141344CD1FD0A4F28419497F9722A3DAAFE3B4186F6B6457E0 SWAP1 DUP3 SWAP1 LOG3 POP PUSH1 0xC DUP1 SLOAD PUSH1 0x1 PUSH1 0x1 PUSH1 0xA0 SHL SUB SWAP4 DUP5 AND PUSH1 0x1 PUSH1 0x1 PUSH1 0xA0 SHL SUB NOT SWAP2 DUP3 AND OR SWAP1 SWAP2 SSTORE PUSH1 0xD DUP1 SLOAD SWAP3 SWAP1 SWAP4 AND SWAP2 DUP2 AND SWAP2 SWAP1 SWAP2 OR SWAP1 SWAP2 SSTORE PUSH1 0xB DUP1 SLOAD SWAP1 SWAP2 AND PUSH20 0x7034990879D4E4C0F9DADE892AD641BC45DEDBBF OR SWAP1 SSTORE PUSH0 PUSH1 0x1 SSTORE PUSH3 0x13C JUMP JUMPDEST DUP1 MLOAD PUSH1 0x1 PUSH1 0x1 PUSH1 0xA0 SHL SUB DUP2 AND DUP2 EQ PUSH3 0x101 JUMPI PUSH0 DUP1 REVERT JUMPDEST SWAP2 SWAP1 POP JUMP JUMPDEST PUSH0 DUP1 PUSH1 0x40 DUP4 DUP6 SUB SLT ISZERO PUSH3 0x118 JUMPI PUSH0 DUP1 REVERT JUMPDEST PUSH3 0x123 DUP4 PUSH3 0xEA JUMP JUMPDEST SWAP2 POP PUSH3 0x133 PUSH1 0x20 DUP5 ADD PUSH3 0xEA JUMP JUMPDEST SWAP1 POP SWAP3 POP SWAP3 SWAP1 POP JUMP JUMPDEST PUSH2 0x1F80 DUP1 PUSH3 0x14A PUSH0 CODECOPY PUSH0 RETURN INVALID PUSH1 0x80 PUSH1 0x40 MSTORE CALLVALUE DUP1 ISZERO PUSH2 0xF JUMPI PUSH0 DUP1 REVERT JUMPDEST POP PUSH1 0x4 CALLDATASIZE LT PUSH2 0x297 JUMPI PUSH0 CALLDATALOAD PUSH1 0xE0 SHR DUP1 PUSH4 0x7D55D304 GT PUSH2 0x161 JUMPI DUP1 PUSH4 0xD65CB04A GT PUSH2 0xCA JUMPI DUP1 PUSH4 0xEC8F2E4D GT PUSH2 0x84 JUMPI DUP1 PUSH4 0xEC8F2E4D EQ PUSH2 0x5DE JUMPI DUP1 PUSH4 0xEEA09028 EQ PUSH2 0x5E6 JUMPI DUP1 PUSH4 0xEF561BF5 EQ PUSH2 0x5EF JUMPI DUP1 PUSH4 0xF3A395FC EQ PUSH2 0x5F7 JUMPI DUP1 PUSH4 0xF7CB789A EQ PUSH2 0x619 JUMPI DUP1 PUSH4 0xFDC06CCF EQ PUSH2 0x621 JUMPI PUSH0 DUP1 REVERT JUMPDEST DUP1 PUSH4 0xD65CB04A EQ PUSH2 0x56D JUMPI DUP1 PUSH4 0xDD49C004 EQ PUSH2 0x576 JUMPI DUP1 PUSH4 0xDD888545 EQ PUSH2 0x57F JUMPI DUP1 PUSH4 0xDDF0B009 EQ PUSH2 0x592 JUMPI DUP1 PUSH4 0xE472D7D3 EQ PUSH2 0x5B4 JUMPI DUP1 PUSH4 0xE77F7B4B EQ PUSH2 0x5BC JUMPI PUSH0 DUP1 REVERT JUMPDEST DUP1 PUSH4 0x9F5CFE03 GT PUSH2 0x11B JUMPI DUP1 PUSH4 0x9F5CFE03 EQ PUSH2 0x50F JUMPI DUP1 PUSH4 0xA39F7449 EQ PUSH2 0x518 JUMPI DUP1 PUSH4 0xA8995DEB EQ PUSH2 0x520 JUMPI DUP1 PUSH4 0xAA12A619 EQ PUSH2 0x528 JUMPI DUP1 PUSH4 0xC1AE5E72 EQ PUSH2 0x547 JUMPI DUP1 PUSH4 0xD56D229D EQ PUSH2 0x55A JUMPI PUSH0 DUP1 REVERT JUMPDEST DUP1 PUSH4 0x7D55D304 EQ PUSH2 0x4A1 JUMPI DUP1 PUSH4 0x893E2BD1 EQ PUSH2 0x4A9 JUMPI DUP1 PUSH4 0x8A015E30 EQ PUSH2 0x4C8 JUMPI DUP1 PUSH4 0x8DA5CB5B EQ PUSH2 0x4EA JUMPI DUP1 PUSH4 0x8EFABAE6 EQ PUSH2 0x4FA JUMPI DUP1 PUSH4 0x9D670C6D EQ PUSH2 0x507 JUMPI PUSH0 DUP1 REVERT JUMPDEST DUP1 PUSH4 0x54CA45D8 GT PUSH2 0x203 JUMPI DUP1 PUSH4 0x6573C787 GT PUSH2 0x1BD JUMPI DUP1 PUSH4 0x6573C787 EQ PUSH2 0x436 JUMPI DUP1 PUSH4 0x6E2ED3C4 EQ PUSH2 0x458 JUMPI DUP1 PUSH4 0x709FA8F8 EQ PUSH2 0x46B JUMPI DUP1 PUSH4 0x76A4956C EQ PUSH2 0x473 JUMPI DUP1 PUSH4 0x7812C4F5 EQ PUSH2 0x486 JUMPI DUP1 PUSH4 0x7D03F5F3 EQ PUSH2 0x48F JUMPI PUSH0 DUP1 REVERT JUMPDEST DUP1 PUSH4 0x54CA45D8 EQ PUSH2 0x3A1 JUMPI DUP1 PUSH4 0x55A373D6 EQ PUSH2 0x3C3 JUMPI DUP1 PUSH4 0x580A155A EQ PUSH2 0x3D6 JUMPI DUP1 PUSH4 0x59DBFDE8 EQ PUSH2 0x3F8 JUMPI DUP1 PUSH4 0x60592066 EQ PUSH2 0x41A JUMPI DUP1 PUSH4 0x6352211E EQ PUSH2 0x423 JUMPI PUSH0 DUP1 REVERT JUMPDEST DUP1 PUSH4 0x33057537 GT PUSH2 0x254 JUMPI DUP1 PUSH4 0x33057537 EQ PUSH2 0x32D JUMPI DUP1 PUSH4 0x3B32EDD4 EQ PUSH2 0x335 JUMPI DUP1 PUSH4 0x40978D42 EQ PUSH2 0x348 JUMPI DUP1 PUSH4 0x4433C468 EQ PUSH2 0x35B JUMPI DUP1 PUSH4 0x4EA61992 EQ PUSH2 0x36E JUMPI DUP1 PUSH4 0x51A2F687 EQ PUSH2 0x376 JUMPI PUSH0 DUP1 REVERT JUMPDEST DUP1 PUSH4 0x39AA9CF EQ PUSH2 0x29B JUMPI DUP1 PUSH4 0x11C9080D EQ PUSH2 0x2D2 JUMPI DUP1 PUSH4 0x1E2B0586 EQ PUSH2 0x2E9 JUMPI DUP1 PUSH4 0x2A303C79 EQ PUSH2 0x308 JUMPI DUP1 PUSH4 0x2ACE2AF5 EQ PUSH2 0x310 JUMPI DUP1 PUSH4 0x2F4960EE EQ PUSH2 0x323 JUMPI JUMPDEST PUSH0 DUP1 REVERT JUMPDEST PUSH2 0x2BD PUSH2 0x2A9 CALLDATASIZE PUSH1 0x4 PUSH2 0x1C39 JUMP JUMPDEST PUSH1 0x14 PUSH1 0x20 MSTORE PUSH0 SWAP1 DUP2 MSTORE PUSH1 0x40 SWAP1 KECCAK256 SLOAD PUSH1 0xFF AND DUP2 JUMP JUMPDEST PUSH1 0x40 MLOAD SWAP1 ISZERO ISZERO DUP2 MSTORE PUSH1 0x20 ADD JUMPDEST PUSH1 0x40 MLOAD DUP1 SWAP2 SUB SWAP1 RETURN JUMPDEST PUSH2 0x2DB PUSH1 0x6 SLOAD DUP2 JUMP JUMPDEST PUSH1 0x40 MLOAD SWAP1 DUP2 MSTORE PUSH1 0x20 ADD PUSH2 0x2C9 JUMP JUMPDEST PUSH2 0x2DB PUSH2 0x2F7 CALLDATASIZE PUSH1 0x4 PUSH2 0x1C39 JUMP JUMPDEST PUSH1 0x19 PUSH1 0x20 MSTORE PUSH0 SWAP1 DUP2 MSTORE PUSH1 0x40 SWAP1 KECCAK256 SLOAD DUP2 JUMP JUMPDEST PUSH1 0xA SLOAD PUSH2 0x2DB JUMP JUMPDEST PUSH2 0x2BD PUSH2 0x31E CALLDATASIZE PUSH1 0x4 PUSH2 0x1C39 JUMP JUMPDEST PUSH2 0x629 JUMP JUMPDEST PUSH2 0x32B PUSH2 0x69B JUMP JUMPDEST STOP JUMPDEST PUSH2 0x2BD PUSH2 0x796 JUMP JUMPDEST PUSH2 0x2BD PUSH2 0x343 CALLDATASIZE PUSH1 0x4 PUSH2 0x1C39 JUMP JUMPDEST PUSH2 0x7E8 JUMP JUMPDEST PUSH2 0x32B PUSH2 0x356 CALLDATASIZE PUSH1 0x4 PUSH2 0x1C50 JUMP JUMPDEST PUSH2 0x819 JUMP JUMPDEST PUSH2 0x2DB PUSH2 0x369 CALLDATASIZE PUSH1 0x4 PUSH2 0x1C50 JUMP JUMPDEST PUSH2 0xF78 JUMP JUMPDEST PUSH2 0x32B PUSH2 0xF9A JUMP JUMPDEST PUSH1 0xB SLOAD PUSH2 0x389 SWAP1 PUSH1 0x1 PUSH1 0x1 PUSH1 0xA0 SHL SUB AND DUP2 JUMP JUMPDEST PUSH1 0x40 MLOAD PUSH1 0x1 PUSH1 0x1 PUSH1 0xA0 SHL SUB SWAP1 SWAP2 AND DUP2 MSTORE PUSH1 0x20 ADD PUSH2 0x2C9 JUMP JUMPDEST PUSH2 0x2BD PUSH2 0x3AF CALLDATASIZE PUSH1 0x4 PUSH2 0x1C39 JUMP JUMPDEST PUSH1 0x16 PUSH1 0x20 MSTORE PUSH0 SWAP1 DUP2 MSTORE PUSH1 0x40 SWAP1 KECCAK256 SLOAD PUSH1 0xFF AND DUP2 JUMP JUMPDEST PUSH1 0xD SLOAD PUSH2 0x389 SWAP1 PUSH1 0x1 PUSH1 0x1 PUSH1 0xA0 SHL SUB AND DUP2 JUMP JUMPDEST PUSH2 0x2BD PUSH2 0x3E4 CALLDATASIZE PUSH1 0x4 PUSH2 0x1C39 JUMP JUMPDEST PUSH1 0x15 PUSH1 0x20 MSTORE PUSH0 SWAP1 DUP2 MSTORE PUSH1 0x40 SWAP1 KECCAK256 SLOAD PUSH1 0xFF AND DUP2 JUMP JUMPDEST PUSH2 0x2BD PUSH2 0x406 CALLDATASIZE PUSH1 0x4 PUSH2 0x1C84 JUMP JUMPDEST PUSH1 0xE PUSH1 0x20 MSTORE PUSH0 SWAP1 DUP2 MSTORE PUSH1 0x40 SWAP1 KECCAK256 SLOAD PUSH1 0xFF AND DUP2 JUMP JUMPDEST PUSH2 0x2DB PUSH1 0x2 SLOAD DUP2 JUMP JUMPDEST PUSH2 0x389 PUSH2 0x431 CALLDATASIZE PUSH1 0x4 PUSH2 0x1C39 JUMP JUMPDEST PUSH2 0x102A JUMP JUMPDEST PUSH2 0x2BD PUSH2 0x444 CALLDATASIZE PUSH1 0x4 PUSH2 0x1C39 JUMP JUMPDEST PUSH1 0x11 PUSH1 0x20 MSTORE PUSH0 SWAP1 DUP2 MSTORE PUSH1 0x40 SWAP1 KECCAK256 SLOAD PUSH1 0xFF AND DUP2 JUMP JUMPDEST PUSH2 0x2BD PUSH2 0x466 CALLDATASIZE PUSH1 0x4 PUSH2 0x1C39 JUMP JUMPDEST PUSH2 0x1095 JUMP JUMPDEST PUSH2 0x2DB PUSH2 0x10C6 JUMP JUMPDEST PUSH2 0x389 PUSH2 0x481 CALLDATASIZE PUSH1 0x4 PUSH2 0x1C39 JUMP JUMPDEST PUSH2 0x11CB JUMP JUMPDEST PUSH2 0x2DB PUSH1 0x4 SLOAD DUP2 JUMP JUMPDEST PUSH1 0x9 SLOAD PUSH2 0x2BD SWAP1 PUSH2 0x100 SWAP1 DIV PUSH1 0xFF AND DUP2 JUMP JUMPDEST PUSH2 0x32B PUSH2 0x11F3 JUMP JUMPDEST PUSH2 0x2DB PUSH2 0x4B7 CALLDATASIZE PUSH1 0x4 PUSH2 0x1C39 JUMP JUMPDEST PUSH1 0x1A PUSH1 0x20 MSTORE PUSH0 SWAP1 DUP2 MSTORE PUSH1 0x40 SWAP1 KECCAK256 SLOAD DUP2 JUMP JUMPDEST PUSH2 0x2BD PUSH2 0x4D6 CALLDATASIZE PUSH1 0x4 PUSH2 0x1C39 JUMP JUMPDEST PUSH1 0x12 PUSH1 0x20 MSTORE PUSH0 SWAP1 DUP2 MSTORE PUSH1 0x40 SWAP1 KECCAK256 SLOAD PUSH1 0xFF AND DUP2 JUMP JUMPDEST PUSH0 SLOAD PUSH1 0x1 PUSH1 0x1 PUSH1 0xA0 SHL SUB AND PUSH2 0x389 JUMP JUMPDEST PUSH1 0x9 SLOAD PUSH2 0x2BD SWAP1 PUSH1 0xFF AND DUP2 JUMP JUMPDEST PUSH2 0x32B PUSH2 0x1259 JUMP JUMPDEST PUSH2 0x2DB PUSH1 0x5 SLOAD DUP2 JUMP JUMPDEST PUSH2 0x32B PUSH2 0x12FB JUMP JUMPDEST PUSH2 0x2DB PUSH2 0x136A JUMP JUMPDEST PUSH2 0x2DB PUSH2 0x536 CALLDATASIZE PUSH1 0x4 PUSH2 0x1C39 JUMP JUMPDEST PUSH1 0x18 PUSH1 0x20 MSTORE PUSH0 SWAP1 DUP2 MSTORE PUSH1 0x40 SWAP1 KECCAK256 SLOAD DUP2 JUMP JUMPDEST PUSH2 0x2BD PUSH2 0x555 CALLDATASIZE PUSH1 0x4 PUSH2 0x1C39 JUMP JUMPDEST PUSH2 0x13DA JUMP JUMPDEST PUSH1 0xC SLOAD PUSH2 0x389 SWAP1 PUSH1 0x1 PUSH1 0x1 PUSH1 0xA0 SHL SUB AND DUP2 JUMP JUMPDEST PUSH2 0x2DB PUSH1 0x8 SLOAD DUP2 JUMP JUMPDEST PUSH2 0x2DB PUSH1 0x1 SLOAD DUP2 JUMP JUMPDEST PUSH2 0x32B PUSH2 0x58D CALLDATASIZE PUSH1 0x4 PUSH2 0x1D14 JUMP JUMPDEST PUSH2 0x140B JUMP JUMPDEST PUSH2 0x2BD PUSH2 0x5A0 CALLDATASIZE PUSH1 0x4 PUSH2 0x1C39 JUMP JUMPDEST PUSH1 0xF PUSH1 0x20 MSTORE PUSH0 SWAP1 DUP2 MSTORE PUSH1 0x40 SWAP1 KECCAK256 SLOAD PUSH1 0xFF AND DUP2 JUMP JUMPDEST PUSH2 0x32B PUSH2 0x16CA JUMP JUMPDEST PUSH2 0x2BD PUSH2 0x5CA CALLDATASIZE PUSH1 0x4 PUSH2 0x1C39 JUMP JUMPDEST PUSH1 0x10 PUSH1 0x20 MSTORE PUSH0 SWAP1 DUP2 MSTORE PUSH1 0x40 SWAP1 KECCAK256 SLOAD PUSH1 0xFF AND DUP2 JUMP JUMPDEST PUSH2 0x32B PUSH2 0x172F JUMP JUMPDEST PUSH2 0x2DB PUSH1 0x3 SLOAD DUP2 JUMP JUMPDEST PUSH2 0x2DB PUSH2 0x18F8 JUMP JUMPDEST PUSH2 0x2BD PUSH2 0x605 CALLDATASIZE PUSH1 0x4 PUSH2 0x1C39 JUMP JUMPDEST PUSH1 0x13 PUSH1 0x20 MSTORE PUSH0 SWAP1 DUP2 MSTORE PUSH1 0x40 SWAP1 KECCAK256 SLOAD PUSH1 0xFF AND DUP2 JUMP JUMPDEST PUSH2 0x2DB PUSH1 0xA DUP2 JUMP JUMPDEST PUSH2 0x32B PUSH2 0x1941 JUMP JUMPDEST PUSH1 0xD SLOAD PUSH1 0x40 MLOAD PUSH4 0x2ACE2AF5 PUSH1 0xE0 SHL DUP2 MSTORE PUSH1 0x4 DUP2 ADD DUP4 SWAP1 MSTORE PUSH0 SWAP2 PUSH1 0x1 PUSH1 0x1 PUSH1 0xA0 SHL SUB AND SWAP1 PUSH4 0x2ACE2AF5 SWAP1 PUSH1 0x24 ADD JUMPDEST PUSH1 0x20 PUSH1 0x40 MLOAD DUP1 DUP4 SUB DUP2 DUP7 GAS STATICCALL ISZERO DUP1 ISZERO PUSH2 0x671 JUMPI RETURNDATASIZE PUSH0 DUP1 RETURNDATACOPY RETURNDATASIZE PUSH0 REVERT JUMPDEST POP POP POP POP PUSH1 0x40 MLOAD RETURNDATASIZE PUSH1 0x1F NOT PUSH1 0x1F DUP3 ADD AND DUP3 ADD DUP1 PUSH1 0x40 MSTORE POP DUP2 ADD SWAP1 PUSH2 0x695 SWAP2 SWAP1 PUSH2 0x1E0E JUMP JUMPDEST SWAP3 SWAP2 POP POP JUMP JUMPDEST PUSH1 0xB SLOAD PUSH1 0x1 PUSH1 0x1 PUSH1 0xA0 SHL SUB AND CALLER EQ PUSH2 0x6CE JUMPI PUSH1 0x40 MLOAD PUSH3 0x461BCD PUSH1 0xE5 SHL DUP2 MSTORE PUSH1 0x4 ADD PUSH2 0x6C5 SWAP1 PUSH2 0x1E2D JUMP JUMPDEST PUSH1 0x40 MLOAD DUP1 SWAP2 SUB SWAP1 REVERT JUMPDEST PUSH0 PUSH1 0x1 JUMPDEST PUSH2 0x6DA PUSH2 0x136A JUMP JUMPDEST DUP2 GT PUSH2 0x749 JUMPI PUSH0 DUP2 DUP2 MSTORE PUSH1 0xF PUSH1 0x20 MSTORE PUSH1 0x40 SWAP1 KECCAK256 SLOAD PUSH1 0xFF AND ISZERO DUP1 ISZERO PUSH2 0x70C JUMPI POP PUSH0 DUP2 DUP2 MSTORE PUSH1 0x10 PUSH1 0x20 MSTORE PUSH1 0x40 SWAP1 KECCAK256 SLOAD PUSH1 0xFF AND ISZERO JUMPDEST ISZERO PUSH2 0x737 JUMPI PUSH0 DUP2 DUP2 MSTORE PUSH1 0xF PUSH1 0x20 MSTORE PUSH1 0x40 SWAP1 KECCAK256 DUP1 SLOAD PUSH1 0xFF NOT AND PUSH1 0x1 OR SWAP1 SSTORE DUP2 PUSH2 0x733 DUP2 PUSH2 0x1E90 JUMP JUMPDEST SWAP3 POP POP JUMPDEST DUP1 PUSH2 0x741 DUP2 PUSH2 0x1E90 JUMP JUMPDEST SWAP2 POP POP PUSH2 0x6D2 JUMP JUMPDEST POP DUP1 PUSH1 0x1 PUSH0 DUP3 DUP3 SLOAD PUSH2 0x75B SWAP2 SWAP1 PUSH2 0x1EA8 JUMP JUMPDEST SWAP1 SWAP2 SSTORE POP POP PUSH1 0x9 DUP1 SLOAD PUSH2 0xFF00 NOT AND SWAP1 SSTORE PUSH1 0x40 MLOAD PUSH32 0xE045608E87EADD2F9961A089F4C933ADB62F8CC3FCBC9D23119C595D95D05BF3 SWAP1 PUSH0 SWAP1 LOG1 POP JUMP JUMPDEST PUSH1 0x9 SLOAD PUSH0 SWAP1 PUSH2 0x100 SWAP1 DIV PUSH1 0xFF AND ISZERO PUSH2 0x7C9 JUMPI PUSH2 0x7B4 PUSH1 0xA PUSH1 0x6 PUSH2 0x1EBB JUMP JUMPDEST PUSH1 0x4 SLOAD PUSH2 0x7C1 SWAP2 SWAP1 PUSH2 0x1EA8 JUMP JUMPDEST TIMESTAMP LT ISZERO SWAP1 POP SWAP1 JUMP JUMPDEST PUSH1 0x9 SLOAD PUSH1 0xFF AND ISZERO PUSH2 0x7E3 JUMPI PUSH1 0xA PUSH1 0x4 SLOAD PUSH2 0x7C1 SWAP2 SWAP1 PUSH2 0x1EA8 JUMP JUMPDEST POP PUSH0 SWAP1 JUMP JUMPDEST PUSH1 0xD SLOAD PUSH1 0x40 MLOAD PUSH4 0xECCBB75 PUSH1 0xE2 SHL DUP2 MSTORE PUSH1 0x4 DUP2 ADD DUP4 SWAP1 MSTORE PUSH0 SWAP2 PUSH1 0x1 PUSH1 0x1 PUSH1 0xA0 SHL SUB AND SWAP1 PUSH4 0x3B32EDD4 SWAP1 PUSH1 0x24 ADD PUSH2 0x656 JUMP JUMPDEST PUSH1 0xB SLOAD PUSH1 0x1 PUSH1 0x1 PUSH1 0xA0 SHL SUB AND CALLER EQ PUSH2 0x843 JUMPI PUSH1 0x40 MLOAD PUSH3 0x461BCD PUSH1 0xE5 SHL DUP2 MSTORE PUSH1 0x4 ADD PUSH2 0x6C5 SWAP1 PUSH2 0x1E2D JUMP JUMPDEST PUSH0 DUP3 DUP2 MSTORE PUSH1 0x10 PUSH1 0x20 MSTORE PUSH1 0x40 SWAP1 KECCAK256 SLOAD PUSH1 0xFF AND ISZERO DUP1 ISZERO PUSH2 0x86F JUMPI POP PUSH0 DUP2 DUP2 MSTORE PUSH1 0x10 PUSH1 0x20 MSTORE PUSH1 0x40 SWAP1 KECCAK256 SLOAD PUSH1 0xFF AND ISZERO JUMPDEST PUSH2 0x8C5 JUMPI PUSH1 0x40 MLOAD PUSH3 0x461BCD PUSH1 0xE5 SHL DUP2 MSTORE PUSH1 0x20 PUSH1 0x4 DUP3 ADD MSTORE PUSH1 0x21 PUSH1 0x24 DUP3 ADD MSTORE PUSH32 0x426F7468204E465473206D75737420626520616C69766520746F20626174746C PUSH1 0x44 DUP3 ADD MSTORE PUSH1 0x65 PUSH1 0xF8 SHL PUSH1 0x64 DUP3 ADD MSTORE PUSH1 0x84 ADD PUSH2 0x6C5 JUMP JUMPDEST PUSH1 0x3 SLOAD PUSH0 DUP4 SWAP1 MSTORE PUSH1 0x17 PUSH1 0x20 MSTORE PUSH1 0x5 EQ DUP1 ISZERO PUSH2 0x8EB JUMPI POP PUSH1 0x3 SLOAD PUSH0 DUP3 SWAP1 MSTORE PUSH1 0x17 PUSH1 0x20 MSTORE PUSH1 0x5 EQ JUMPDEST PUSH2 0x941 JUMPI PUSH1 0x40 MLOAD PUSH3 0x461BCD PUSH1 0xE5 SHL DUP2 MSTORE PUSH1 0x20 PUSH1 0x4 DUP3 ADD MSTORE PUSH1 0x21 PUSH1 0x24 DUP3 ADD MSTORE PUSH32 0x496E76616C696420737461747320666F72206F6E65206F6620746865204E4654 PUSH1 0x44 DUP3 ADD MSTORE PUSH1 0x73 PUSH1 0xF8 SHL PUSH1 0x64 DUP3 ADD MSTORE PUSH1 0x84 ADD PUSH2 0x6C5 JUMP JUMPDEST PUSH2 0x94A DUP3 PUSH2 0x1095 JUMP JUMPDEST DUP1 ISZERO PUSH2 0x95C JUMPI POP PUSH2 0x95A DUP2 PUSH2 0x13DA JUMP JUMPDEST ISZERO JUMPDEST DUP1 PUSH2 0x97D JUMPI POP PUSH2 0x96B DUP2 PUSH2 0x1095 JUMP JUMPDEST DUP1 ISZERO PUSH2 0x97D JUMPI POP PUSH2 0x97B DUP3 PUSH2 0x13DA JUMP JUMPDEST ISZERO JUMPDEST ISZERO PUSH2 0x9BA JUMPI PUSH2 0x98C DUP3 DUP3 PUSH2 0x19F9 JUMP JUMPDEST PUSH0 SWAP2 DUP3 MSTORE PUSH1 0x11 PUSH1 0x20 MSTORE PUSH1 0x40 DUP1 DUP4 KECCAK256 DUP1 SLOAD PUSH1 0x1 PUSH1 0xFF NOT SWAP2 DUP3 AND DUP2 OR SWAP1 SWAP3 SSTORE SWAP3 DUP5 MSTORE SWAP3 KECCAK256 DUP1 SLOAD SWAP1 SWAP2 AND SWAP1 SWAP2 OR SWAP1 SSTORE JUMP JUMPDEST PUSH0 DUP3 DUP2 MSTORE PUSH1 0x17 PUSH1 0x20 MSTORE PUSH1 0x40 DUP1 DUP3 KECCAK256 DUP2 MLOAD PUSH1 0xA0 DUP2 ADD SWAP3 DUP4 SWAP1 MSTORE SWAP2 PUSH1 0x5 SWAP1 DUP3 DUP5 JUMPDEST DUP2 SLOAD DUP2 MSTORE PUSH1 0x20 ADD SWAP1 PUSH1 0x1 ADD SWAP1 DUP1 DUP4 GT PUSH2 0x9D9 JUMPI POP POP POP PUSH0 DUP6 DUP2 MSTORE PUSH1 0x17 PUSH1 0x20 MSTORE PUSH1 0x40 DUP1 DUP3 KECCAK256 DUP2 MLOAD PUSH1 0xA0 DUP2 ADD SWAP3 DUP4 SWAP1 MSTORE SWAP6 SWAP7 POP SWAP2 SWAP5 SWAP4 POP SWAP1 SWAP2 POP PUSH1 0x5 SWAP1 DUP3 DUP5 JUMPDEST DUP2 SLOAD DUP2 MSTORE PUSH1 0x20 ADD SWAP1 PUSH1 0x1 ADD SWAP1 DUP1 DUP4 GT PUSH2 0xA17 JUMPI POP POP POP POP POP SWAP1 POP PUSH2 0xA3A DUP5 PUSH2 0x7E8 JUMP JUMPDEST ISZERO PUSH2 0xB30 JUMPI PUSH1 0x40 DUP1 MLOAD TIMESTAMP PUSH1 0x20 DUP3 ADD MSTORE SWAP1 DUP2 ADD DUP6 SWAP1 MSTORE PUSH0 SWAP1 PUSH1 0x5 SWAP1 PUSH1 0x60 ADD PUSH1 0x40 MLOAD PUSH1 0x20 DUP2 DUP4 SUB SUB DUP2 MSTORE SWAP1 PUSH1 0x40 MSTORE DUP1 MLOAD SWAP1 PUSH1 0x20 ADD KECCAK256 PUSH0 SHR PUSH2 0xA79 SWAP2 SWAP1 PUSH2 0x1ED2 JUMP JUMPDEST SWAP1 POP PUSH0 PUSH1 0x5 TIMESTAMP DUP8 PUSH1 0x40 MLOAD PUSH1 0x20 ADD PUSH2 0xAAD SWAP3 SWAP2 SWAP1 SWAP2 DUP3 MSTORE PUSH1 0x20 DUP3 ADD MSTORE PUSH10 0x1CD958DBDB9914DD185D PUSH1 0xB2 SHL PUSH1 0x40 DUP3 ADD MSTORE PUSH1 0x4A ADD SWAP1 JUMP JUMPDEST PUSH1 0x40 DUP1 MLOAD PUSH1 0x1F NOT DUP2 DUP5 SUB ADD DUP2 MSTORE SWAP2 SWAP1 MSTORE DUP1 MLOAD PUSH1 0x20 SWAP1 SWAP2 ADD KECCAK256 PUSH2 0xAD0 DUP5 PUSH1 0x1 PUSH2 0x1EA8 JUMP JUMPDEST PUSH2 0xADA SWAP2 SWAP1 PUSH2 0x1EA8 JUMP JUMPDEST PUSH2 0xAE4 SWAP2 SWAP1 PUSH2 0x1ED2 JUMP JUMPDEST PUSH0 DUP8 DUP2 MSTORE PUSH1 0x17 PUSH1 0x20 MSTORE PUSH1 0x40 SWAP1 KECCAK256 SWAP1 SWAP2 POP PUSH1 0xA SWAP1 DUP4 PUSH1 0x5 DUP2 LT PUSH2 0xB08 JUMPI PUSH2 0xB08 PUSH2 0x1EF1 JUMP JUMPDEST ADD SSTORE PUSH0 DUP7 DUP2 MSTORE PUSH1 0x17 PUSH1 0x20 MSTORE PUSH1 0x40 SWAP1 KECCAK256 PUSH1 0xA SWAP1 DUP3 PUSH1 0x5 DUP2 LT PUSH2 0xB2B JUMPI PUSH2 0xB2B PUSH2 0x1EF1 JUMP JUMPDEST ADD SSTORE POP POP JUMPDEST PUSH2 0xB39 DUP4 PUSH2 0x7E8 JUMP JUMPDEST ISZERO PUSH2 0xC2F JUMPI PUSH1 0x40 DUP1 MLOAD TIMESTAMP PUSH1 0x20 DUP3 ADD MSTORE SWAP1 DUP2 ADD DUP5 SWAP1 MSTORE PUSH0 SWAP1 PUSH1 0x5 SWAP1 PUSH1 0x60 ADD PUSH1 0x40 MLOAD PUSH1 0x20 DUP2 DUP4 SUB SUB DUP2 MSTORE SWAP1 PUSH1 0x40 MSTORE DUP1 MLOAD SWAP1 PUSH1 0x20 ADD KECCAK256 PUSH0 SHR PUSH2 0xB78 SWAP2 SWAP1 PUSH2 0x1ED2 JUMP JUMPDEST SWAP1 POP PUSH0 PUSH1 0x5 TIMESTAMP DUP7 PUSH1 0x40 MLOAD PUSH1 0x20 ADD PUSH2 0xBAC SWAP3 SWAP2 SWAP1 SWAP2 DUP3 MSTORE PUSH1 0x20 DUP3 ADD MSTORE PUSH10 0x1CD958DBDB9914DD185D PUSH1 0xB2 SHL PUSH1 0x40 DUP3 ADD MSTORE PUSH1 0x4A ADD SWAP1 JUMP JUMPDEST PUSH1 0x40 DUP1 MLOAD PUSH1 0x1F NOT DUP2 DUP5 SUB ADD DUP2 MSTORE SWAP2 SWAP1 MSTORE DUP1 MLOAD PUSH1 0x20 SWAP1 SWAP2 ADD KECCAK256 PUSH2 0xBCF DUP5 PUSH1 0x1 PUSH2 0x1EA8 JUMP JUMPDEST PUSH2 0xBD9 SWAP2 SWAP1 PUSH2 0x1EA8 JUMP JUMPDEST PUSH2 0xBE3 SWAP2 SWAP1 PUSH2 0x1ED2 JUMP JUMPDEST PUSH0 DUP7 DUP2 MSTORE PUSH1 0x17 PUSH1 0x20 MSTORE PUSH1 0x40 SWAP1 KECCAK256 SWAP1 SWAP2 POP PUSH1 0xA SWAP1 DUP4 PUSH1 0x5 DUP2 LT PUSH2 0xC07 JUMPI PUSH2 0xC07 PUSH2 0x1EF1 JUMP JUMPDEST ADD SSTORE PUSH0 DUP6 DUP2 MSTORE PUSH1 0x17 PUSH1 0x20 MSTORE PUSH1 0x40 SWAP1 KECCAK256 PUSH1 0xA SWAP1 DUP3 PUSH1 0x5 DUP2 LT PUSH2 0xC2A JUMPI PUSH2 0xC2A PUSH2 0x1EF1 JUMP JUMPDEST ADD SSTORE POP POP JUMPDEST PUSH2 0xC38 DUP5 PUSH2 0x13DA JUMP JUMPDEST ISZERO PUSH2 0xC7F JUMPI PUSH0 JUMPDEST PUSH1 0x5 DUP2 LT ISZERO PUSH2 0xC7D JUMPI PUSH0 DUP6 DUP2 MSTORE PUSH1 0x17 PUSH1 0x20 MSTORE PUSH1 0x40 SWAP1 KECCAK256 PUSH1 0xA SWAP1 DUP3 PUSH1 0x5 DUP2 LT PUSH2 0xC69 JUMPI PUSH2 0xC69 PUSH2 0x1EF1 JUMP JUMPDEST ADD SSTORE DUP1 PUSH2 0xC75 DUP2 PUSH2 0x1E90 JUMP JUMPDEST SWAP2 POP POP PUSH2 0xC3F JUMP JUMPDEST POP JUMPDEST PUSH2 0xC88 DUP4 PUSH2 0x13DA JUMP JUMPDEST ISZERO PUSH2 0xCCF JUMPI PUSH0 JUMPDEST PUSH1 0x5 DUP2 LT ISZERO PUSH2 0xCCD JUMPI PUSH0 DUP5 DUP2 MSTORE PUSH1 0x17 PUSH1 0x20 MSTORE PUSH1 0x40 SWAP1 KECCAK256 PUSH1 0xA SWAP1 DUP3 PUSH1 0x5 DUP2 LT PUSH2 0xCB9 JUMPI PUSH2 0xCB9 PUSH2 0x1EF1 JUMP JUMPDEST ADD SSTORE DUP1 PUSH2 0xCC5 DUP2 PUSH2 0x1E90 JUMP JUMPDEST SWAP2 POP POP PUSH2 0xC8F JUMP JUMPDEST POP JUMPDEST PUSH0 DUP5 DUP2 MSTORE PUSH1 0x17 PUSH1 0x20 MSTORE PUSH1 0x40 DUP2 KECCAK256 PUSH1 0x4 DUP2 ADD SLOAD PUSH1 0x3 DUP3 ADD SLOAD PUSH1 0x2 DUP4 ADD SLOAD PUSH1 0x1 DUP5 ADD SLOAD SWAP4 SLOAD SWAP3 SWAP4 SWAP2 SWAP3 SWAP1 SWAP2 PUSH2 0xD01 SWAP2 PUSH2 0x1EA8 JUMP JUMPDEST PUSH2 0xD0B SWAP2 SWAP1 PUSH2 0x1EA8 JUMP JUMPDEST PUSH2 0xD15 SWAP2 SWAP1 PUSH2 0x1EA8 JUMP JUMPDEST PUSH2 0xD1F SWAP2 SWAP1 PUSH2 0x1EA8 JUMP JUMPDEST PUSH0 DUP6 DUP2 MSTORE PUSH1 0x17 PUSH1 0x20 MSTORE PUSH1 0x40 DUP2 KECCAK256 PUSH1 0x4 DUP2 ADD SLOAD PUSH1 0x3 DUP3 ADD SLOAD PUSH1 0x2 DUP4 ADD SLOAD PUSH1 0x1 DUP5 ADD SLOAD SWAP4 SLOAD SWAP6 SWAP7 POP SWAP4 SWAP5 SWAP2 SWAP4 SWAP1 SWAP3 SWAP1 SWAP2 PUSH2 0xD57 SWAP2 SWAP1 PUSH2 0x1EA8 JUMP JUMPDEST PUSH2 0xD61 SWAP2 SWAP1 PUSH2 0x1EA8 JUMP JUMPDEST PUSH2 0xD6B SWAP2 SWAP1 PUSH2 0x1EA8 JUMP JUMPDEST PUSH2 0xD75 SWAP2 SWAP1 PUSH2 0x1EA8 JUMP JUMPDEST SWAP1 POP PUSH0 PUSH2 0xD82 DUP3 DUP5 PUSH2 0x1EA8 JUMP JUMPDEST GT PUSH2 0xDDD JUMPI PUSH1 0x40 MLOAD PUSH3 0x461BCD PUSH1 0xE5 SHL DUP2 MSTORE PUSH1 0x20 PUSH1 0x4 DUP3 ADD MSTORE PUSH1 0x25 PUSH1 0x24 DUP3 ADD MSTORE PUSH32 0x546F74616C20706F776572206D7573742062652067726561746572207468616E PUSH1 0x44 DUP3 ADD MSTORE PUSH5 0x207A65726F PUSH1 0xD8 SHL PUSH1 0x64 DUP3 ADD MSTORE PUSH1 0x84 ADD PUSH2 0x6C5 JUMP JUMPDEST PUSH0 PUSH1 0x64 PUSH2 0xDEA PREVRANDAO TIMESTAMP PUSH2 0x1EA8 JUMP JUMPDEST PUSH2 0xDF4 SWAP2 SWAP1 PUSH2 0x1ED2 JUMP JUMPDEST SWAP1 POP PUSH0 DUP3 DUP5 GT ISZERO PUSH2 0xE09 JUMPI POP PUSH1 0x46 DUP2 LT PUSH2 0xE22 JUMP JUMPDEST DUP3 DUP5 LT ISZERO PUSH2 0xE1C JUMPI POP PUSH1 0x1E DUP2 LT ISZERO PUSH2 0xE22 JUMP JUMPDEST POP PUSH1 0x32 DUP2 LT JUMPDEST DUP1 ISZERO PUSH2 0xEA4 JUMPI PUSH2 0xE31 DUP8 PUSH2 0x629 JUMP JUMPDEST PUSH2 0xE4E JUMPI PUSH0 DUP8 DUP2 MSTORE PUSH1 0x10 PUSH1 0x20 MSTORE PUSH1 0x40 SWAP1 KECCAK256 DUP1 SLOAD PUSH1 0xFF NOT AND PUSH1 0x1 OR SWAP1 SSTORE JUMPDEST PUSH0 DUP9 DUP2 MSTORE PUSH1 0x11 PUSH1 0x20 SWAP1 DUP2 MSTORE PUSH1 0x40 DUP1 DUP4 KECCAK256 DUP1 SLOAD PUSH1 0xFF NOT AND PUSH1 0x1 OR SWAP1 SSTORE PUSH1 0x18 SWAP1 SWAP2 MSTORE DUP2 KECCAK256 DUP1 SLOAD SWAP2 PUSH2 0xE7C DUP4 PUSH2 0x1E90 JUMP JUMPDEST SWAP1 SWAP2 SSTORE POP POP PUSH0 DUP8 DUP2 MSTORE PUSH1 0x19 PUSH1 0x20 MSTORE PUSH1 0x40 DUP2 KECCAK256 DUP1 SLOAD SWAP2 PUSH2 0xE9A DUP4 PUSH2 0x1E90 JUMP JUMPDEST SWAP2 SWAP1 POP SSTORE POP PUSH2 0xF1C JUMP JUMPDEST PUSH2 0xEAD DUP9 PUSH2 0x629 JUMP JUMPDEST PUSH2 0xECA JUMPI PUSH0 DUP9 DUP2 MSTORE PUSH1 0x10 PUSH1 0x20 MSTORE PUSH1 0x40 SWAP1 KECCAK256 DUP1 SLOAD PUSH1 0xFF NOT AND PUSH1 0x1 OR SWAP1 SSTORE JUMPDEST PUSH0 DUP8 DUP2 MSTORE PUSH1 0x11 PUSH1 0x20 SWAP1 DUP2 MSTORE PUSH1 0x40 DUP1 DUP4 KECCAK256 DUP1 SLOAD PUSH1 0xFF NOT AND PUSH1 0x1 OR SWAP1 SSTORE PUSH1 0x18 SWAP1 SWAP2 MSTORE DUP2 KECCAK256 DUP1 SLOAD SWAP2 PUSH2 0xEF8 DUP4 PUSH2 0x1E90 JUMP JUMPDEST SWAP1 SWAP2 SSTORE POP POP PUSH0 DUP9 DUP2 MSTORE PUSH1 0x19 PUSH1 0x20 MSTORE PUSH1 0x40 DUP2 KECCAK256 DUP1 SLOAD SWAP2 PUSH2 0xF16 DUP4 PUSH2 0x1E90 JUMP JUMPDEST SWAP2 SWAP1 POP SSTORE POP JUMPDEST PUSH0 DUP9 DUP2 MSTORE PUSH1 0x17 PUSH1 0x20 MSTORE PUSH1 0x40 SWAP1 KECCAK256 PUSH2 0xF35 SWAP1 DUP8 PUSH1 0x5 PUSH2 0x1BE7 JUMP JUMPDEST POP PUSH0 DUP8 DUP2 MSTORE PUSH1 0x17 PUSH1 0x20 MSTORE PUSH1 0x40 SWAP1 KECCAK256 PUSH2 0xF4F SWAP1 DUP7 PUSH1 0x5 PUSH2 0x1BE7 JUMP JUMPDEST POP PUSH2 0xF5A DUP9 DUP9 PUSH2 0x19F9 JUMP JUMPDEST PUSH1 0x6 DUP1 SLOAD SWAP1 PUSH0 PUSH2 0xF69 DUP4 PUSH2 0x1E90 JUMP JUMPDEST SWAP2 SWAP1 POP SSTORE POP POP POP POP POP POP POP POP POP JUMP JUMPDEST PUSH1 0x17 PUSH1 0x20 MSTORE DUP2 PUSH0 MSTORE PUSH1 0x40 PUSH0 KECCAK256 DUP2 PUSH1 0x5 DUP2 LT PUSH2 0xF91 JUMPI PUSH0 DUP1 REVERT JUMPDEST ADD SLOAD SWAP2 POP DUP3 SWAP1 POP JUMP JUMPDEST PUSH1 0xB SLOAD PUSH1 0x1 PUSH1 0x1 PUSH1 0xA0 SHL SUB AND CALLER EQ PUSH2 0xFC4 JUMPI PUSH1 0x40 MLOAD PUSH3 0x461BCD PUSH1 0xE5 SHL DUP2 MSTORE PUSH1 0x4 ADD PUSH2 0x6C5 SWAP1 PUSH2 0x1E2D JUMP JUMPDEST PUSH1 0x1 JUMPDEST PUSH2 0xFCF PUSH2 0x136A JUMP JUMPDEST DUP2 GT PUSH2 0xFFF JUMPI PUSH0 DUP2 DUP2 MSTORE PUSH1 0xF PUSH1 0x20 MSTORE PUSH1 0x40 DUP2 KECCAK256 DUP1 SLOAD PUSH1 0xFF NOT AND SWAP1 SSTORE PUSH1 0x1 SSTORE DUP1 PUSH2 0xFF7 DUP2 PUSH2 0x1E90 JUMP JUMPDEST SWAP2 POP POP PUSH2 0xFC7 JUMP JUMPDEST POP PUSH1 0x40 MLOAD PUSH32 0x3984C48732886B85C3609F4771C475531ED8E67132A3F30C3555A372B3EDD6B3 SWAP1 PUSH0 SWAP1 LOG1 JUMP JUMPDEST PUSH1 0xC SLOAD PUSH1 0x40 MLOAD PUSH4 0x31A9108F PUSH1 0xE1 SHL DUP2 MSTORE PUSH1 0x4 DUP2 ADD DUP4 SWAP1 MSTORE PUSH0 SWAP2 PUSH1 0x1 PUSH1 0x1 PUSH1 0xA0 SHL SUB AND SWAP1 PUSH4 0x6352211E SWAP1 PUSH1 0x24 ADD PUSH1 0x20 PUSH1 0x40 MLOAD DUP1 DUP4 SUB DUP2 DUP7 GAS STATICCALL ISZERO DUP1 ISZERO PUSH2 0x1071 JUMPI RETURNDATASIZE PUSH0 DUP1 RETURNDATACOPY RETURNDATASIZE PUSH0 REVERT JUMPDEST POP POP POP POP PUSH1 0x40 MLOAD RETURNDATASIZE PUSH1 0x1F NOT PUSH1 0x1F DUP3 ADD AND DUP3 ADD DUP1 PUSH1 0x40 MSTORE POP DUP2 ADD SWAP1 PUSH2 0x695 SWAP2 SWAP1 PUSH2 0x1F05 JUMP JUMPDEST PUSH1 0xD SLOAD PUSH1 0x40 MLOAD PUSH4 0x1B8BB4F1 PUSH1 0xE2 SHL DUP2 MSTORE PUSH1 0x4 DUP2 ADD DUP4 SWAP1 MSTORE PUSH0 SWAP2 PUSH1 0x1 PUSH1 0x1 PUSH1 0xA0 SHL SUB AND SWAP1 PUSH4 0x6E2ED3C4 SWAP1 PUSH1 0x24 ADD PUSH2 0x656 JUMP JUMPDEST PUSH1 0xB SLOAD PUSH0 SWAP1 PUSH1 0x1 PUSH1 0x1 PUSH1 0xA0 SHL SUB AND CALLER EQ PUSH2 0x10F2 JUMPI PUSH1 0x40 MLOAD PUSH3 0x461BCD PUSH1 0xE5 SHL DUP2 MSTORE PUSH1 0x4 ADD PUSH2 0x6C5 SWAP1 PUSH2 0x1E2D JUMP JUMPDEST PUSH0 PUSH1 0x1 JUMPDEST PUSH2 0x10FE PUSH2 0x136A JUMP JUMPDEST DUP2 GT PUSH2 0x1173 JUMPI PUSH0 PUSH2 0x110E DUP3 PUSH2 0x102A JUMP JUMPDEST PUSH1 0x1 PUSH1 0x1 PUSH1 0xA0 SHL SUB DUP2 AND PUSH0 SWAP1 DUP2 MSTORE PUSH1 0xE PUSH1 0x20 MSTORE PUSH1 0x40 SWAP1 KECCAK256 SLOAD SWAP1 SWAP2 POP PUSH1 0xFF AND PUSH2 0x1160 JUMPI PUSH1 0x1 PUSH1 0x1 PUSH1 0xA0 SHL SUB DUP2 AND PUSH0 SWAP1 DUP2 MSTORE PUSH1 0xE PUSH1 0x20 MSTORE PUSH1 0x40 SWAP1 KECCAK256 DUP1 SLOAD PUSH1 0xFF NOT AND PUSH1 0x1 OR SWAP1 SSTORE DUP3 PUSH2 0x115C DUP2 PUSH2 0x1E90 JUMP JUMPDEST SWAP4 POP POP JUMPDEST POP DUP1 PUSH2 0x116B DUP2 PUSH2 0x1E90 JUMP JUMPDEST SWAP2 POP POP PUSH2 0x10F6 JUMP JUMPDEST POP PUSH1 0x1 JUMPDEST PUSH2 0x117F PUSH2 0x136A JUMP JUMPDEST DUP2 GT PUSH2 0x11C0 JUMPI PUSH0 PUSH2 0x118F DUP3 PUSH2 0x102A JUMP JUMPDEST PUSH1 0x1 PUSH1 0x1 PUSH1 0xA0 SHL SUB AND PUSH0 SWAP1 DUP2 MSTORE PUSH1 0xE PUSH1 0x20 MSTORE PUSH1 0x40 SWAP1 KECCAK256 DUP1 SLOAD PUSH1 0xFF NOT AND SWAP1 SSTORE POP DUP1 PUSH2 0x11B8 DUP2 PUSH2 0x1E90 JUMP JUMPDEST SWAP2 POP POP PUSH2 0x1177 JUMP JUMPDEST POP PUSH1 0x8 DUP2 SWAP1 SSTORE SWAP1 POP SWAP1 JUMP JUMPDEST PUSH1 0xA DUP2 DUP2 SLOAD DUP2 LT PUSH2 0x11DA JUMPI PUSH0 DUP1 REVERT JUMPDEST PUSH0 SWAP2 DUP3 MSTORE PUSH1 0x20 SWAP1 SWAP2 KECCAK256 ADD SLOAD PUSH1 0x1 PUSH1 0x1 PUSH1 0xA0 SHL SUB AND SWAP1 POP DUP2 JUMP JUMPDEST PUSH1 0xB SLOAD PUSH1 0x1 PUSH1 0x1 PUSH1 0xA0 SHL SUB AND CALLER EQ PUSH2 0x121D JUMPI PUSH1 0x40 MLOAD PUSH3 0x461BCD PUSH1 0xE5 SHL DUP2 MSTORE PUSH1 0x4 ADD PUSH2 0x6C5 SWAP1 PUSH2 0x1E2D JUMP JUMPDEST TIMESTAMP PUSH1 0x4 DUP2 SWAP1 SSTORE PUSH1 0x40 MLOAD SWAP1 DUP2 MSTORE PUSH32 0xD1DBB2CE8081405078443EF34DAE718285114121A39370B14EF01B9D2B0A2083 SWAP1 PUSH1 0x20 ADD JUMPDEST PUSH1 0x40 MLOAD DUP1 SWAP2 SUB SWAP1 LOG1 JUMP JUMPDEST PUSH1 0xB SLOAD PUSH1 0x1 PUSH1 0x1 PUSH1 0xA0 SHL SUB AND CALLER EQ PUSH2 0x1283 JUMPI PUSH1 0x40 MLOAD PUSH3 0x461BCD PUSH1 0xE5 SHL DUP2 MSTORE PUSH1 0x4 ADD PUSH2 0x6C5 SWAP1 PUSH2 0x1E2D JUMP JUMPDEST PUSH1 0x1 JUMPDEST PUSH2 0x128E PUSH2 0x136A JUMP JUMPDEST DUP2 GT PUSH2 0x12D0 JUMPI PUSH0 DUP2 DUP2 MSTORE PUSH1 0x10 PUSH1 0x20 SWAP1 DUP2 MSTORE PUSH1 0x40 DUP1 DUP4 KECCAK256 DUP1 SLOAD PUSH1 0xFF NOT SWAP1 DUP2 AND SWAP1 SWAP2 SSTORE PUSH1 0x11 SWAP1 SWAP3 MSTORE SWAP1 SWAP2 KECCAK256 DUP1 SLOAD SWAP1 SWAP2 AND SWAP1 SSTORE DUP1 PUSH2 0x12C8 DUP2 PUSH2 0x1E90 JUMP JUMPDEST SWAP2 POP POP PUSH2 0x1286 JUMP JUMPDEST POP PUSH1 0x40 MLOAD PUSH32 0xC0A4569BDAA5BAE3DABCABE5AC5C590863CAD4BAD443B5D2051D1D200F9FA4DA SWAP1 PUSH0 SWAP1 LOG1 JUMP JUMPDEST PUSH1 0xB SLOAD PUSH1 0x1 PUSH1 0x1 PUSH1 0xA0 SHL SUB AND CALLER EQ PUSH2 0x1325 JUMPI PUSH1 0x40 MLOAD PUSH3 0x461BCD PUSH1 0xE5 SHL DUP2 MSTORE PUSH1 0x4 ADD PUSH2 0x6C5 SWAP1 PUSH2 0x1E2D JUMP JUMPDEST PUSH1 0x9 DUP1 SLOAD PUSH1 0xFF NOT AND PUSH1 0x1 OR SWAP1 SSTORE TIMESTAMP PUSH1 0x4 DUP2 SWAP1 SSTORE PUSH1 0x40 MLOAD PUSH32 0x90E4E1076E66D07AAD698457E7A86B4425881AB1586D63C00BA753F88757E9A8 SWAP2 PUSH2 0x124F SWAP2 SWAP1 DUP2 MSTORE PUSH1 0x20 ADD SWAP1 JUMP JUMPDEST PUSH1 0xC SLOAD PUSH1 0x40 DUP1 MLOAD PUSH4 0xA8995DEB PUSH1 0xE0 SHL DUP2 MSTORE SWAP1 MLOAD PUSH0 SWAP3 PUSH1 0x1 PUSH1 0x1 PUSH1 0xA0 SHL SUB AND SWAP2 PUSH4 0xA8995DEB SWAP2 PUSH1 0x4 DUP1 DUP4 ADD SWAP3 PUSH1 0x20 SWAP3 SWAP2 SWAP1 DUP3 SWAP1 SUB ADD DUP2 DUP7 GAS STATICCALL ISZERO DUP1 ISZERO PUSH2 0x13B1 JUMPI RETURNDATASIZE PUSH0 DUP1 RETURNDATACOPY RETURNDATASIZE PUSH0 REVERT JUMPDEST POP POP POP POP PUSH1 0x40 MLOAD RETURNDATASIZE PUSH1 0x1F NOT PUSH1 0x1F DUP3 ADD AND DUP3 ADD DUP1 PUSH1 0x40 MSTORE POP DUP2 ADD SWAP1 PUSH2 0x13D5 SWAP2 SWAP1 PUSH2 0x1F20 JUMP JUMPDEST SWAP1 POP SWAP1 JUMP JUMPDEST PUSH1 0xD SLOAD PUSH1 0x40 MLOAD PUSH4 0x60D72F39 PUSH1 0xE1 SHL DUP2 MSTORE PUSH1 0x4 DUP2 ADD DUP4 SWAP1 MSTORE PUSH0 SWAP2 PUSH1 0x1 PUSH1 0x1 PUSH1 0xA0 SHL SUB AND SWAP1 PUSH4 0xC1AE5E72 SWAP1 PUSH1 0x24 ADD PUSH2 0x656 JUMP JUMPDEST PUSH1 0xB SLOAD PUSH1 0x1 PUSH1 0x1 PUSH1 0xA0 SHL SUB AND CALLER EQ PUSH2 0x1435 JUMPI PUSH1 0x40 MLOAD PUSH3 0x461BCD PUSH1 0xE5 SHL DUP2 MSTORE PUSH1 0x4 ADD PUSH2 0x6C5 SWAP1 PUSH2 0x1E2D JUMP JUMPDEST PUSH1 0x1 DUP4 LT ISZERO DUP1 ISZERO PUSH2 0x14B9 JUMPI POP PUSH1 0xC PUSH0 SWAP1 SLOAD SWAP1 PUSH2 0x100 EXP SWAP1 DIV PUSH1 0x1 PUSH1 0x1 PUSH1 0xA0 SHL SUB AND PUSH1 0x1 PUSH1 0x1 PUSH1 0xA0 SHL SUB AND PUSH4 0xD5ABEB01 PUSH1 0x40 MLOAD DUP2 PUSH4 0xFFFFFFFF AND PUSH1 0xE0 SHL DUP2 MSTORE PUSH1 0x4 ADD PUSH1 0x20 PUSH1 0x40 MLOAD DUP1 DUP4 SUB DUP2 DUP7 GAS STATICCALL ISZERO DUP1 ISZERO PUSH2 0x1491 JUMPI RETURNDATASIZE PUSH0 DUP1 RETURNDATACOPY RETURNDATASIZE PUSH0 REVERT JUMPDEST POP POP POP POP PUSH1 0x40 MLOAD RETURNDATASIZE PUSH1 0x1F NOT PUSH1 0x1F DUP3 ADD AND DUP3 ADD DUP1 PUSH1 0x40 MSTORE POP DUP2 ADD SWAP1 PUSH2 0x14B5 SWAP2 SWAP1 PUSH2 0x1F20 JUMP JUMPDEST DUP4 GT ISZERO JUMPDEST PUSH2 0x14FC JUMPI PUSH1 0x40 MLOAD PUSH3 0x461BCD PUSH1 0xE5 SHL DUP2 MSTORE PUSH1 0x20 PUSH1 0x4 DUP3 ADD MSTORE PUSH1 0x14 PUSH1 0x24 DUP3 ADD MSTORE PUSH20 0x24B73B30B634B21039BA30B93A1034B73232BC17 PUSH1 0x61 SHL PUSH1 0x44 DUP3 ADD MSTORE PUSH1 0x64 ADD PUSH2 0x6C5 JUMP JUMPDEST PUSH0 DUP3 GT PUSH2 0x1556 JUMPI PUSH1 0x40 MLOAD PUSH3 0x461BCD PUSH1 0xE5 SHL DUP2 MSTORE PUSH1 0x20 PUSH1 0x4 DUP3 ADD MSTORE PUSH1 0x22 PUSH1 0x24 DUP3 ADD MSTORE PUSH32 0x42617463682073697A65206D7573742062652067726561746572207468616E20 PUSH1 0x44 DUP3 ADD MSTORE PUSH2 0x1817 PUSH1 0xF1 SHL PUSH1 0x64 DUP3 ADD MSTORE PUSH1 0x84 ADD PUSH2 0x6C5 JUMP JUMPDEST PUSH0 PUSH1 0x1 PUSH2 0x1563 DUP5 DUP7 PUSH2 0x1EA8 JUMP JUMPDEST PUSH2 0x156D SWAP2 SWAP1 PUSH2 0x1F37 JUMP JUMPDEST SWAP1 POP PUSH1 0xC PUSH0 SWAP1 SLOAD SWAP1 PUSH2 0x100 EXP SWAP1 DIV PUSH1 0x1 PUSH1 0x1 PUSH1 0xA0 SHL SUB AND PUSH1 0x1 PUSH1 0x1 PUSH1 0xA0 SHL SUB AND PUSH4 0xD5ABEB01 PUSH1 0x40 MLOAD DUP2 PUSH4 0xFFFFFFFF AND PUSH1 0xE0 SHL DUP2 MSTORE PUSH1 0x4 ADD PUSH1 0x20 PUSH1 0x40 MLOAD DUP1 DUP4 SUB DUP2 DUP7 GAS STATICCALL ISZERO DUP1 ISZERO PUSH2 0x15BF JUMPI RETURNDATASIZE PUSH0 DUP1 RETURNDATACOPY RETURNDATASIZE PUSH0 REVERT JUMPDEST POP POP POP POP PUSH1 0x40 MLOAD RETURNDATASIZE PUSH1 0x1F NOT PUSH1 0x1F DUP3 ADD AND DUP3 ADD DUP1 PUSH1 0x40 MSTORE POP DUP2 ADD SWAP1 PUSH2 0x15E3 SWAP2 SWAP1 PUSH2 0x1F20 JUMP JUMPDEST DUP2 GT ISZERO PUSH2 0x1632 JUMPI PUSH1 0x40 MLOAD PUSH3 0x461BCD PUSH1 0xE5 SHL DUP2 MSTORE PUSH1 0x20 PUSH1 0x4 DUP3 ADD MSTORE PUSH1 0x1C PUSH1 0x24 DUP3 ADD MSTORE PUSH32 0x456E6420696E6465782065786365656473206D6178537570706C792E00000000 PUSH1 0x44 DUP3 ADD MSTORE PUSH1 0x64 ADD PUSH2 0x6C5 JUMP JUMPDEST DUP4 JUMPDEST DUP2 DUP2 GT PUSH2 0x16C3 JUMPI PUSH0 DUP2 DUP2 MSTORE PUSH1 0x12 PUSH1 0x20 MSTORE PUSH1 0x40 SWAP1 KECCAK256 SLOAD PUSH1 0xFF AND PUSH2 0x16B1 JUMPI PUSH0 PUSH2 0x165B DUP7 DUP4 PUSH2 0x1F37 JUMP JUMPDEST SWAP1 POP DUP4 DUP2 DUP2 MLOAD DUP2 LT PUSH2 0x166F JUMPI PUSH2 0x166F PUSH2 0x1EF1 JUMP JUMPDEST PUSH1 0x20 MUL PUSH1 0x20 ADD ADD MLOAD PUSH1 0x17 PUSH0 DUP5 DUP2 MSTORE PUSH1 0x20 ADD SWAP1 DUP2 MSTORE PUSH1 0x20 ADD PUSH0 KECCAK256 SWAP1 PUSH1 0x5 PUSH2 0x1696 SWAP3 SWAP2 SWAP1 PUSH2 0x1BE7 JUMP JUMPDEST POP POP PUSH0 DUP2 DUP2 MSTORE PUSH1 0x12 PUSH1 0x20 MSTORE PUSH1 0x40 SWAP1 KECCAK256 DUP1 SLOAD PUSH1 0xFF NOT AND PUSH1 0x1 OR SWAP1 SSTORE JUMPDEST DUP1 PUSH2 0x16BB DUP2 PUSH2 0x1E90 JUMP JUMPDEST SWAP2 POP POP PUSH2 0x1634 JUMP JUMPDEST POP POP POP POP POP JUMP JUMPDEST PUSH1 0xB SLOAD PUSH1 0x1 PUSH1 0x1 PUSH1 0xA0 SHL SUB AND CALLER EQ PUSH2 0x16F4 JUMPI PUSH1 0x40 MLOAD PUSH3 0x461BCD PUSH1 0xE5 SHL DUP2 MSTORE PUSH1 0x4 ADD PUSH2 0x6C5 SWAP1 PUSH2 0x1E2D JUMP JUMPDEST PUSH1 0x1 JUMPDEST PUSH2 0x16FF PUSH2 0x136A JUMP JUMPDEST DUP2 GT PUSH2 0x172C JUMPI PUSH0 DUP2 DUP2 MSTORE PUSH1 0x11 PUSH1 0x20 MSTORE PUSH1 0x40 SWAP1 KECCAK256 DUP1 SLOAD PUSH1 0xFF NOT AND SWAP1 SSTORE DUP1 PUSH2 0x1724 DUP2 PUSH2 0x1E90 JUMP JUMPDEST SWAP2 POP POP PUSH2 0x16F7 JUMP JUMPDEST POP JUMP JUMPDEST PUSH1 0xB SLOAD PUSH1 0x1 PUSH1 0x1 PUSH1 0xA0 SHL SUB AND CALLER EQ PUSH2 0x1759 JUMPI PUSH1 0x40 MLOAD PUSH3 0x461BCD PUSH1 0xE5 SHL DUP2 MSTORE PUSH1 0x4 ADD PUSH2 0x6C5 SWAP1 PUSH2 0x1E2D JUMP JUMPDEST PUSH1 0x2 PUSH1 0x1 SLOAD LT ISZERO DUP1 ISZERO PUSH2 0x176F JUMPI POP PUSH2 0x176F PUSH2 0x796 JUMP JUMPDEST PUSH2 0x1777 JUMPI PUSH0 DUP1 REVERT JUMPDEST PUSH1 0x5 DUP1 SLOAD SWAP1 PUSH0 PUSH2 0x1786 DUP4 PUSH2 0x1E90 JUMP JUMPDEST SWAP1 SWAP2 SSTORE POP PUSH0 SWAP1 POP PUSH1 0x1 JUMPDEST PUSH1 0x1 SLOAD DUP2 GT PUSH2 0x1857 JUMPI PUSH0 DUP2 DUP2 MSTORE PUSH1 0xF PUSH1 0x20 MSTORE PUSH1 0x40 SWAP1 KECCAK256 SLOAD PUSH1 0xFF AND DUP1 ISZERO PUSH2 0x17C4 JUMPI POP PUSH0 DUP2 DUP2 MSTORE PUSH1 0x11 PUSH1 0x20 MSTORE PUSH1 0x40 SWAP1 KECCAK256 SLOAD PUSH1 0xFF AND ISZERO JUMPDEST DUP1 ISZERO PUSH2 0x17DE JUMPI POP PUSH0 DUP2 DUP2 MSTORE PUSH1 0x10 PUSH1 0x20 MSTORE PUSH1 0x40 SWAP1 KECCAK256 SLOAD PUSH1 0xFF AND ISZERO JUMPDEST ISZERO PUSH2 0x1845 JUMPI DUP2 PUSH0 SUB PUSH2 0x17F2 JUMPI DUP1 SWAP2 POP PUSH2 0x1845 JUMP JUMPDEST PUSH0 PUSH2 0x1805 DUP3 PUSH2 0x1800 DUP6 PUSH2 0x102A JUMP JUMPDEST PUSH2 0x1A5D JUMP JUMPDEST SWAP1 POP DUP1 ISZERO PUSH2 0x1820 JUMPI PUSH2 0x1817 DUP4 DUP3 PUSH2 0x819 JUMP JUMPDEST PUSH0 SWAP3 SWAP2 POP PUSH2 0x1843 JUMP JUMPDEST PUSH0 PUSH2 0x182A DUP4 PUSH2 0x1B71 JUMP JUMPDEST SWAP1 POP DUP1 ISZERO PUSH2 0x1841 JUMPI PUSH2 0x183C DUP5 DUP3 PUSH2 0x819 JUMP JUMPDEST PUSH0 SWAP4 SWAP3 POP JUMPDEST POP JUMPDEST POP JUMPDEST DUP1 PUSH2 0x184F DUP2 PUSH2 0x1E90 JUMP JUMPDEST SWAP2 POP POP PUSH2 0x1790 JUMP JUMPDEST POP PUSH1 0x2 SLOAD PUSH2 0x1863 PUSH2 0x18F8 JUMP JUMPDEST GT PUSH2 0x18BD JUMPI PUSH2 0x1870 PUSH2 0x1941 JUMP JUMPDEST PUSH2 0x1878 PUSH2 0x1259 JUMP JUMPDEST PUSH2 0x1880 PUSH2 0xF9A JUMP JUMPDEST PUSH0 PUSH1 0x5 DUP2 SWAP1 SSTORE PUSH1 0x9 DUP1 SLOAD PUSH2 0xFF00 NOT AND PUSH2 0x100 OR SWAP1 SSTORE PUSH1 0x40 MLOAD PUSH32 0x4957BAACFCCF45D9F54657DC86692B68BEA7155D1951BEA16F81D430C5864F87 SWAP2 SWAP1 LOG1 JUMPDEST PUSH2 0x18C5 PUSH2 0x11F3 JUMP JUMPDEST PUSH2 0x18CD PUSH2 0x16CA JUMP JUMPDEST PUSH1 0x40 MLOAD PUSH32 0xF44CF147798F94C1025F83FF5A888484A8F7DE8328F57E099895C0DC605924A SWAP1 PUSH0 SWAP1 LOG1 POP JUMP JUMPDEST PUSH0 DUP1 PUSH1 0x1 JUMPDEST PUSH1 0x1 SLOAD DUP2 GT PUSH2 0x193B JUMPI PUSH0 DUP2 DUP2 MSTORE PUSH1 0x10 PUSH1 0x20 MSTORE PUSH1 0x40 SWAP1 KECCAK256 SLOAD PUSH1 0xFF AND PUSH2 0x1929 JUMPI DUP2 PUSH2 0x1925 DUP2 PUSH2 0x1E90 JUMP JUMPDEST SWAP3 POP POP JUMPDEST DUP1 PUSH2 0x1933 DUP2 PUSH2 0x1E90 JUMP JUMPDEST SWAP2 POP POP PUSH2 0x18FD JUMP JUMPDEST POP SWAP2 SWAP1 POP JUMP JUMPDEST PUSH1 0xB SLOAD PUSH1 0x1 PUSH1 0x1 PUSH1 0xA0 SHL SUB AND CALLER EQ PUSH2 0x196B JUMPI PUSH1 0x40 MLOAD PUSH3 0x461BCD PUSH1 0xE5 SHL DUP2 MSTORE PUSH1 0x4 ADD PUSH2 0x6C5 SWAP1 PUSH2 0x1E2D JUMP JUMPDEST PUSH1 0x1 JUMPDEST PUSH1 0x1 SLOAD DUP2 GT PUSH2 0x172C JUMPI PUSH0 DUP2 DUP2 MSTORE PUSH1 0x10 PUSH1 0x20 MSTORE PUSH1 0x40 SWAP1 KECCAK256 SLOAD PUSH1 0xFF AND PUSH2 0x19E7 JUMPI PUSH1 0xA PUSH2 0x1997 DUP3 PUSH2 0x102A JUMP JUMPDEST DUP2 SLOAD PUSH1 0x1 DUP2 ADD DUP4 SSTORE PUSH0 SWAP3 DUP4 MSTORE PUSH1 0x20 DUP1 DUP5 KECCAK256 SWAP1 SWAP2 ADD DUP1 SLOAD PUSH1 0x1 PUSH1 0x1 PUSH1 0xA0 SHL SUB NOT AND PUSH1 0x1 PUSH1 0x1 PUSH1 0xA0 SHL SUB SWAP4 SWAP1 SWAP4 AND SWAP3 SWAP1 SWAP3 OR SWAP1 SWAP2 SSTORE DUP3 DUP3 MSTORE PUSH1 0x1A SWAP1 MSTORE PUSH1 0x40 DUP2 KECCAK256 DUP1 SLOAD SWAP2 PUSH2 0x19E1 DUP4 PUSH2 0x1E90 JUMP JUMPDEST SWAP2 SWAP1 POP SSTORE POP JUMPDEST DUP1 PUSH2 0x19F1 DUP2 PUSH2 0x1E90 JUMP JUMPDEST SWAP2 POP POP PUSH2 0x196E JUMP JUMPDEST PUSH1 0xD SLOAD PUSH1 0x40 MLOAD PUSH4 0x9EADBF5 PUSH1 0xE0 SHL DUP2 MSTORE PUSH1 0x4 DUP2 ADD DUP5 SWAP1 MSTORE PUSH1 0x24 DUP2 ADD DUP4 SWAP1 MSTORE PUSH1 0x1 PUSH1 0x1 PUSH1 0xA0 SHL SUB SWAP1 SWAP2 AND SWAP1 PUSH4 0x9EADBF5 SWAP1 PUSH1 0x44 ADD PUSH0 PUSH1 0x40 MLOAD DUP1 DUP4 SUB DUP2 PUSH0 DUP8 DUP1 EXTCODESIZE ISZERO DUP1 ISZERO PUSH2 0x1A43 JUMPI PUSH0 DUP1 REVERT JUMPDEST POP GAS CALL ISZERO DUP1 ISZERO PUSH2 0x1A55 JUMPI RETURNDATASIZE PUSH0 DUP1 RETURNDATACOPY RETURNDATASIZE PUSH0 REVERT JUMPDEST POP POP POP POP POP POP JUMP JUMPDEST PUSH0 DUP1 JUMPDEST PUSH1 0x5 DUP2 LT ISZERO PUSH2 0x1B68 JUMPI PUSH1 0x1 SLOAD PUSH1 0x40 DUP1 MLOAD TIMESTAMP PUSH1 0x20 DUP3 ADD MSTORE SWAP1 DUP2 ADD DUP7 SWAP1 MSTORE PUSH0 SWAP2 SWAP1 PUSH1 0x60 ADD PUSH1 0x40 MLOAD PUSH1 0x20 DUP2 DUP4 SUB SUB DUP2 MSTORE SWAP1 PUSH1 0x40 MSTORE DUP1 MLOAD SWAP1 PUSH1 0x20 ADD KECCAK256 PUSH0 SHR PUSH2 0x1AA4 SWAP2 SWAP1 PUSH2 0x1ED2 JUMP JUMPDEST PUSH2 0x1AAF SWAP1 PUSH1 0x1 PUSH2 0x1EA8 JUMP JUMPDEST PUSH0 DUP2 DUP2 MSTORE PUSH1 0xF PUSH1 0x20 MSTORE PUSH1 0x40 SWAP1 KECCAK256 SLOAD SWAP1 SWAP2 POP PUSH1 0xFF AND DUP1 ISZERO PUSH2 0x1ADD JUMPI POP PUSH0 DUP2 DUP2 MSTORE PUSH1 0x11 PUSH1 0x20 MSTORE PUSH1 0x40 SWAP1 KECCAK256 SLOAD PUSH1 0xFF AND ISZERO JUMPDEST DUP1 ISZERO PUSH2 0x1AF7 JUMPI POP PUSH0 DUP2 DUP2 MSTORE PUSH1 0x10 PUSH1 0x20 MSTORE PUSH1 0x40 SWAP1 KECCAK256 SLOAD PUSH1 0xFF AND ISZERO JUMPDEST DUP1 ISZERO PUSH2 0x1B1D JUMPI POP DUP4 PUSH1 0x1 PUSH1 0x1 PUSH1 0xA0 SHL SUB AND PUSH2 0x1B11 DUP3 PUSH2 0x102A JUMP JUMPDEST PUSH1 0x1 PUSH1 0x1 PUSH1 0xA0 SHL SUB AND EQ ISZERO JUMPDEST DUP1 ISZERO PUSH2 0x1B47 JUMPI POP PUSH2 0x1B2F DUP6 PUSH1 0x1 PUSH2 0x1EA8 JUMP JUMPDEST DUP2 EQ ISZERO DUP1 PUSH2 0x1B47 JUMPI POP PUSH2 0x1B43 PUSH1 0x1 DUP7 PUSH2 0x1F37 JUMP JUMPDEST DUP2 EQ ISZERO JUMPDEST ISZERO PUSH2 0x1B55 JUMPI SWAP2 POP PUSH2 0x695 SWAP1 POP JUMP JUMPDEST POP DUP1 PUSH2 0x1B60 DUP2 PUSH2 0x1E90 JUMP JUMPDEST SWAP2 POP POP PUSH2 0x1A60 JUMP JUMPDEST POP PUSH0 SWAP4 SWAP3 POP POP POP JUMP JUMPDEST PUSH0 DUP2 JUMPDEST PUSH1 0x1 SLOAD DUP2 GT PUSH2 0x1BDF JUMPI PUSH0 DUP2 DUP2 MSTORE PUSH1 0xF PUSH1 0x20 MSTORE PUSH1 0x40 SWAP1 KECCAK256 SLOAD PUSH1 0xFF AND DUP1 ISZERO PUSH2 0x1BA8 JUMPI POP PUSH0 DUP2 DUP2 MSTORE PUSH1 0x11 PUSH1 0x20 MSTORE PUSH1 0x40 SWAP1 KECCAK256 SLOAD PUSH1 0xFF AND ISZERO JUMPDEST DUP1 ISZERO PUSH2 0x1BC2 JUMPI POP PUSH0 DUP2 DUP2 MSTORE PUSH1 0x10 PUSH1 0x20 MSTORE PUSH1 0x40 SWAP1 KECCAK256 SLOAD PUSH1 0xFF AND ISZERO JUMPDEST ISZERO PUSH2 0x1BCD JUMPI SWAP3 SWAP2 POP POP JUMP JUMPDEST DUP1 PUSH2 0x1BD7 DUP2 PUSH2 0x1E90 JUMP JUMPDEST SWAP2 POP POP PUSH2 0x1B74 JUMP JUMPDEST POP PUSH0 SWAP3 SWAP2 POP POP JUMP JUMPDEST DUP3 PUSH1 0x5 DUP2 ADD SWAP3 DUP3 ISZERO PUSH2 0x1C15 JUMPI SWAP2 PUSH1 0x20 MUL DUP3 ADD JUMPDEST DUP3 DUP2 GT ISZERO PUSH2 0x1C15 JUMPI DUP3 MLOAD DUP3 SSTORE SWAP2 PUSH1 0x20 ADD SWAP2 SWAP1 PUSH1 0x1 ADD SWAP1 PUSH2 0x1BFA JUMP JUMPDEST POP PUSH2 0x1C21 SWAP3 SWAP2 POP PUSH2 0x1C25 JUMP JUMPDEST POP SWAP1 JUMP JUMPDEST JUMPDEST DUP1 DUP3 GT ISZERO PUSH2 0x1C21 JUMPI PUSH0 DUP2 SSTORE PUSH1 0x1 ADD PUSH2 0x1C26 JUMP JUMPDEST PUSH0 PUSH1 0x20 DUP3 DUP5 SUB SLT ISZERO PUSH2 0x1C49 JUMPI PUSH0 DUP1 REVERT JUMPDEST POP CALLDATALOAD SWAP2 SWAP1 POP JUMP JUMPDEST PUSH0 DUP1 PUSH1 0x40 DUP4 DUP6 SUB SLT ISZERO PUSH2 0x1C61 JUMPI PUSH0 DUP1 REVERT JUMPDEST POP POP DUP1 CALLDATALOAD SWAP3 PUSH1 0x20 SWAP1 SWAP2 ADD CALLDATALOAD SWAP2 POP JUMP JUMPDEST PUSH1 0x1 PUSH1 0x1 PUSH1 0xA0 SHL SUB DUP2 AND DUP2 EQ PUSH2 0x172C JUMPI PUSH0 DUP1 REVERT JUMPDEST PUSH0 PUSH1 0x20 DUP3 DUP5 SUB SLT ISZERO PUSH2 0x1C94 JUMPI PUSH0 DUP1 REVERT JUMPDEST DUP2 CALLDATALOAD PUSH2 0x1C9F DUP2 PUSH2 0x1C70 JUMP JUMPDEST SWAP4 SWAP3 POP POP POP JUMP JUMPDEST PUSH4 0x4E487B71 PUSH1 0xE0 SHL PUSH0 MSTORE PUSH1 0x41 PUSH1 0x4 MSTORE PUSH1 0x24 PUSH0 REVERT JUMPDEST PUSH1 0x40 MLOAD PUSH1 0xA0 DUP2 ADD PUSH8 0xFFFFFFFFFFFFFFFF DUP2 GT DUP3 DUP3 LT OR ISZERO PUSH2 0x1CDD JUMPI PUSH2 0x1CDD PUSH2 0x1CA6 JUMP JUMPDEST PUSH1 0x40 MSTORE SWAP1 JUMP JUMPDEST PUSH1 0x40 MLOAD PUSH1 0x1F DUP3 ADD PUSH1 0x1F NOT AND DUP2 ADD PUSH8 0xFFFFFFFFFFFFFFFF DUP2 GT DUP3 DUP3 LT OR ISZERO PUSH2 0x1D0C JUMPI PUSH2 0x1D0C PUSH2 0x1CA6 JUMP JUMPDEST PUSH1 0x40 MSTORE SWAP2 SWAP1 POP JUMP JUMPDEST PUSH0 DUP1 PUSH0 PUSH1 0x60 DUP5 DUP7 SUB SLT ISZERO PUSH2 0x1D26 JUMPI PUSH0 DUP1 REVERT JUMPDEST DUP4 CALLDATALOAD SWAP3 POP PUSH1 0x20 DUP1 DUP6 ADD CALLDATALOAD SWAP3 POP PUSH1 0x40 DUP6 ADD CALLDATALOAD PUSH8 0xFFFFFFFFFFFFFFFF DUP1 DUP3 GT ISZERO PUSH2 0x1D4C JUMPI PUSH0 DUP1 REVERT JUMPDEST DUP2 DUP8 ADD SWAP2 POP PUSH1 0x1F DUP9 DUP2 DUP5 ADD SLT PUSH2 0x1D60 JUMPI PUSH0 DUP1 REVERT JUMPDEST DUP3 CALLDATALOAD DUP3 DUP2 GT ISZERO PUSH2 0x1D72 JUMPI PUSH2 0x1D72 PUSH2 0x1CA6 JUMP JUMPDEST PUSH2 0x1D80 DUP6 DUP3 PUSH1 0x5 SHL ADD PUSH2 0x1CE3 JUMP JUMPDEST DUP2 DUP2 MSTORE DUP6 DUP2 ADD SWAP4 POP PUSH1 0xA0 SWAP2 DUP3 MUL DUP6 ADD DUP7 ADD SWAP2 DUP12 DUP4 GT ISZERO PUSH2 0x1D9E JUMPI PUSH0 DUP1 REVERT JUMPDEST SWAP5 DUP7 ADD SWAP5 JUMPDEST DUP3 DUP7 LT ISZERO PUSH2 0x1DFD JUMPI DUP12 DUP5 DUP8 ADD SLT PUSH2 0x1DB9 JUMPI PUSH0 DUP1 DUP2 REVERT JUMPDEST PUSH2 0x1DC1 PUSH2 0x1CBA JUMP JUMPDEST DUP1 DUP3 DUP9 ADD DUP15 DUP2 GT ISZERO PUSH2 0x1DD2 JUMPI PUSH0 DUP1 DUP2 REVERT JUMPDEST DUP9 JUMPDEST DUP2 DUP2 LT ISZERO PUSH2 0x1DEB JUMPI DUP1 CALLDATALOAD DUP5 MSTORE SWAP3 DUP11 ADD SWAP3 DUP11 ADD PUSH2 0x1DD4 JUMP JUMPDEST POP POP DUP7 MSTORE POP SWAP5 DUP6 ADD SWAP5 SWAP4 DUP7 ADD SWAP4 PUSH2 0x1DA3 JUMP JUMPDEST POP DUP1 SWAP7 POP POP POP POP POP POP POP SWAP3 POP SWAP3 POP SWAP3 JUMP JUMPDEST PUSH0 PUSH1 0x20 DUP3 DUP5 SUB SLT ISZERO PUSH2 0x1E1E JUMPI PUSH0 DUP1 REVERT JUMPDEST DUP2 MLOAD DUP1 ISZERO ISZERO DUP2 EQ PUSH2 0x1C9F JUMPI PUSH0 DUP1 REVERT JUMPDEST PUSH1 0x20 DUP1 DUP3 MSTORE PUSH1 0x2F SWAP1 DUP3 ADD MSTORE PUSH32 0x4F6E6C79206D61696E74656E616E63652077616C6C65742063616E2070657266 PUSH1 0x40 DUP3 ADD MSTORE PUSH15 0x37B936903A3434B99030B1BA34B7B7 PUSH1 0x89 SHL PUSH1 0x60 DUP3 ADD MSTORE PUSH1 0x80 ADD SWAP1 JUMP JUMPDEST PUSH4 0x4E487B71 PUSH1 0xE0 SHL PUSH0 MSTORE PUSH1 0x11 PUSH1 0x4 MSTORE PUSH1 0x24 PUSH0 REVERT JUMPDEST PUSH0 PUSH1 0x1 DUP3 ADD PUSH2 0x1EA1 JUMPI PUSH2 0x1EA1 PUSH2 0x1E7C JUMP JUMPDEST POP PUSH1 0x1 ADD SWAP1 JUMP JUMPDEST DUP1 DUP3 ADD DUP1 DUP3 GT ISZERO PUSH2 0x695 JUMPI PUSH2 0x695 PUSH2 0x1E7C JUMP JUMPDEST DUP1 DUP3 MUL DUP2 ISZERO DUP3 DUP3 DIV DUP5 EQ OR PUSH2 0x695 JUMPI PUSH2 0x695 PUSH2 0x1E7C JUMP JUMPDEST PUSH0 DUP3 PUSH2 0x1EEC JUMPI PUSH4 0x4E487B71 PUSH1 0xE0 SHL PUSH0 MSTORE PUSH1 0x12 PUSH1 0x4 MSTORE PUSH1 0x24 PUSH0 REVERT JUMPDEST POP MOD SWAP1 JUMP JUMPDEST PUSH4 0x4E487B71 PUSH1 0xE0 SHL PUSH0 MSTORE PUSH1 0x32 PUSH1 0x4 MSTORE PUSH1 0x24 PUSH0 REVERT JUMPDEST PUSH0 PUSH1 0x20 DUP3 DUP5 SUB SLT ISZERO PUSH2 0x1F15 JUMPI PUSH0 DUP1 REVERT JUMPDEST DUP2 MLOAD PUSH2 0x1C9F DUP2 PUSH2 0x1C70 JUMP JUMPDEST PUSH0 PUSH1 0x20 DUP3 DUP5 SUB SLT ISZERO PUSH2 0x1F30 JUMPI PUSH0 DUP1 REVERT JUMPDEST POP MLOAD SWAP2 SWAP1 POP JUMP JUMPDEST DUP2 DUP2 SUB DUP2 DUP2 GT ISZERO PUSH2 0x695 JUMPI PUSH2 0x695 PUSH2 0x1E7C JUMP INVALID LOG2 PUSH5 0x6970667358 0x22 SLT KECCAK256 PUSH21 0x6BEBCFA73DF7310FD1F889C48DA5ED2D4AA358B9B9 0xC1 PUSH21 0xEEC616592809D53F64736F6C634300081500330000 "
		},
		"gasEstimates": {
			"creation": {
				"codeDepositCost": "1612800",
				"executionCost": "infinite",
				"totalCost": "infinite"
			},
			"external": {
				"HungerGamesBegin()": "2432",
				"NFTBOOSTBalance(uint256)": "2483",
				"NFTSKIPBalance(uint256)": "2482",
				"NFTVBalance(uint256)": "2526",
				"NFTXTRABalance(uint256)": "2546",
				"StatsSize()": "2360",
				"_maintenanceWallet()": "2492",
				"_startTimer()": "2427",
				"alive(uint256)": "2481",
				"battleLossOfNFT(uint256)": "2526",
				"battleWinsOfNFT(uint256)": "2546",
				"battlesCount()": "2363",
				"dead(uint256)": "2591",
				"enterBattle(uint256,uint256)": "infinite",
				"getAmountOfNonDead()": "infinite",
				"getMintAmount()": "infinite",
				"getNFTBOOSTBalance(uint256)": "infinite",
				"getNFTSKIPBalance(uint256)": "infinite",
				"getNFTVBalance(uint256)": "infinite",
				"getNFTXTRABalance(uint256)": "infinite",
				"getRoundWinnersLength()": "2404",
				"getUniqueOwners()": "infinite",
				"hasTimerPassed()": "6705",
				"lookForOpponent()": "infinite",
				"maxAmountOfWinners()": "2428",
				"newGame()": "2464",
				"nftContract()": "2491",
				"owner()": "2441",
				"ownerExists(address)": "2623",
				"ownerOf(uint256)": "infinite",
				"queue(uint256)": "2547",
				"queuecounter()": "2361",
				"resetAlive()": "infinite",
				"resetQueue()": "infinite",
				"resetTimer()": "25498",
				"reviveAll()": "infinite",
				"roundDuration()": "326",
				"roundWinners(uint256)": "4722",
				"roundWinsOfNFT(uint256)": "2503",
				"roundsCount()": "2339",
				"startHungerGames()": "infinite",
				"startTimer()": "49760",
				"stats(uint256,uint256)": "2617",
				"statsInitialized(uint256)": "2526",
				"storeRoundWinners()": "infinite",
				"tokenContract()": "2404",
				"uniqueOwnersCounter()": "2339",
				"updateStats(uint256,uint256,uint256[5][])": "infinite"
			},
			"internal": {
				"getNextAvailable(uint256)": "infinite",
				"getRandomOpponent(uint256,address)": "infinite",
				"removePotions(uint256,uint256)": "infinite"
			}
		},
		"methodIdentifiers": {
			"HungerGamesBegin()": "8efabae6",
			"NFTBOOSTBalance(uint256)": "039aa9cf",
			"NFTSKIPBalance(uint256)": "54ca45d8",
			"NFTVBalance(uint256)": "580a155a",
			"NFTXTRABalance(uint256)": "f3a395fc",
			"StatsSize()": "eea09028",
			"_maintenanceWallet()": "51a2f687",
			"_startTimer()": "7812c4f5",
			"alive(uint256)": "6573c787",
			"battleLossOfNFT(uint256)": "1e2b0586",
			"battleWinsOfNFT(uint256)": "aa12a619",
			"battlesCount()": "11c9080d",
			"dead(uint256)": "e77f7b4b",
			"enterBattle(uint256,uint256)": "40978d42",
			"getAmountOfNonDead()": "ef561bf5",
			"getMintAmount()": "a8995deb",
			"getNFTBOOSTBalance(uint256)": "3b32edd4",
			"getNFTSKIPBalance(uint256)": "6e2ed3c4",
			"getNFTVBalance(uint256)": "c1ae5e72",
			"getNFTXTRABalance(uint256)": "2ace2af5",
			"getRoundWinnersLength()": "2a303c79",
			"getUniqueOwners()": "709fa8f8",
			"hasTimerPassed()": "33057537",
			"lookForOpponent()": "ec8f2e4d",
			"maxAmountOfWinners()": "60592066",
			"newGame()": "7d03f5f3",
			"nftContract()": "d56d229d",
			"owner()": "8da5cb5b",
			"ownerExists(address)": "59dbfde8",
			"ownerOf(uint256)": "6352211e",
			"queue(uint256)": "ddf0b009",
			"queuecounter()": "dd49c004",
			"resetAlive()": "e472d7d3",
			"resetQueue()": "4ea61992",
			"resetTimer()": "7d55d304",
			"reviveAll()": "9d670c6d",
			"roundDuration()": "f7cb789a",
			"roundWinners(uint256)": "76a4956c",
			"roundWinsOfNFT(uint256)": "893e2bd1",
			"roundsCount()": "9f5cfe03",
			"startHungerGames()": "2f4960ee",
			"startTimer()": "a39f7449",
			"stats(uint256,uint256)": "4433c468",
			"statsInitialized(uint256)": "8a015e30",
			"storeRoundWinners()": "fdc06ccf",
			"tokenContract()": "55a373d6",
			"uniqueOwnersCounter()": "d65cb04a",
			"updateStats(uint256,uint256,uint256[5][])": "dd888545"
		}
	},
	"abi": [
		{
			"inputs": [
				{
					"internalType": "address",
					"name": "_nftAddress",
					"type": "address"
				},
				{
					"internalType": "address",
					"name": "_tokenAddress",
					"type": "address"
				}
			],
			"stateMutability": "nonpayable",
			"type": "constructor"
		},
		{
			"anonymous": false,
			"inputs": [],
			"name": "Enteredbattled",
			"type": "event"
		},
		{
			"anonymous": false,
			"inputs": [
				{
					"indexed": true,
					"internalType": "address",
					"name": "previousOwner",
					"type": "address"
				},
				{
					"indexed": true,
					"internalType": "address",
					"name": "newOwner",
					"type": "address"
				}
			],
			"name": "OwnershipTransferred",
			"type": "event"
		},
		{
			"anonymous": false,
			"inputs": [],
			"name": "QueueResettet",
			"type": "event"
		},
		{
			"anonymous": false,
			"inputs": [],
			"name": "RevivedAll",
			"type": "event"
		},
		{
			"anonymous": false,
			"inputs": [],
			"name": "StartedHungerGames",
			"type": "event"
		},
		{
			"anonymous": false,
			"inputs": [
				{
					"indexed": false,
					"internalType": "uint256",
					"name": "timestamp",
					"type": "uint256"
				}
			],
			"name": "TimerReset",
			"type": "event"
		},
		{
			"anonymous": false,
			"inputs": [
				{
					"indexed": false,
					"internalType": "uint256",
					"name": "timestamp",
					"type": "uint256"
				}
			],
			"name": "TimerStarted",
			"type": "event"
		},
		{
			"anonymous": false,
			"inputs": [],
			"name": "WinnersFound",
			"type": "event"
		},
		{
			"anonymous": false,
			"inputs": [],
			"name": "matchingOpponents",
			"type": "event"
		},
		{
			"inputs": [],
			"name": "HungerGamesBegin",
			"outputs": [
				{
					"internalType": "bool",
					"name": "",
					"type": "bool"
				}
			],
			"stateMutability": "view",
			"type": "function"
		},
		{
			"inputs": [
				{
					"internalType": "uint256",
					"name": "",
					"type": "uint256"
				}
			],
			"name": "NFTBOOSTBalance",
			"outputs": [
				{
					"internalType": "bool",
					"name": "",
					"type": "bool"
				}
			],
			"stateMutability": "view",
			"type": "function"
		},
		{
			"inputs": [
				{
					"internalType": "uint256",
					"name": "",
					"type": "uint256"
				}
			],
			"name": "NFTSKIPBalance",
			"outputs": [
				{
					"internalType": "bool",
					"name": "",
					"type": "bool"
				}
			],
			"stateMutability": "view",
			"type": "function"
		},
		{
			"inputs": [
				{
					"internalType": "uint256",
					"name": "",
					"type": "uint256"
				}
			],
			"name": "NFTVBalance",
			"outputs": [
				{
					"internalType": "bool",
					"name": "",
					"type": "bool"
				}
			],
			"stateMutability": "view",
			"type": "function"
		},
		{
			"inputs": [
				{
					"internalType": "uint256",
					"name": "",
					"type": "uint256"
				}
			],
			"name": "NFTXTRABalance",
			"outputs": [
				{
					"internalType": "bool",
					"name": "",
					"type": "bool"
				}
			],
			"stateMutability": "view",
			"type": "function"
		},
		{
			"inputs": [],
			"name": "StatsSize",
			"outputs": [
				{
					"internalType": "uint256",
					"name": "",
					"type": "uint256"
				}
			],
			"stateMutability": "view",
			"type": "function"
		},
		{
			"inputs": [],
			"name": "_maintenanceWallet",
			"outputs": [
				{
					"internalType": "address",
					"name": "",
					"type": "address"
				}
			],
			"stateMutability": "view",
			"type": "function"
		},
		{
			"inputs": [],
			"name": "_startTimer",
			"outputs": [
				{
					"internalType": "uint256",
					"name": "",
					"type": "uint256"
				}
			],
			"stateMutability": "view",
			"type": "function"
		},
		{
			"inputs": [
				{
					"internalType": "uint256",
					"name": "",
					"type": "uint256"
				}
			],
			"name": "alive",
			"outputs": [
				{
					"internalType": "bool",
					"name": "",
					"type": "bool"
				}
			],
			"stateMutability": "view",
			"type": "function"
		},
		{
			"inputs": [
				{
					"internalType": "uint256",
					"name": "",
					"type": "uint256"
				}
			],
			"name": "battleLossOfNFT",
			"outputs": [
				{
					"internalType": "uint256",
					"name": "",
					"type": "uint256"
				}
			],
			"stateMutability": "view",
			"type": "function"
		},
		{
			"inputs": [
				{
					"internalType": "uint256",
					"name": "",
					"type": "uint256"
				}
			],
			"name": "battleWinsOfNFT",
			"outputs": [
				{
					"internalType": "uint256",
					"name": "",
					"type": "uint256"
				}
			],
			"stateMutability": "view",
			"type": "function"
		},
		{
			"inputs": [],
			"name": "battlesCount",
			"outputs": [
				{
					"internalType": "uint256",
					"name": "",
					"type": "uint256"
				}
			],
			"stateMutability": "view",
			"type": "function"
		},
		{
			"inputs": [
				{
					"internalType": "uint256",
					"name": "",
					"type": "uint256"
				}
			],
			"name": "dead",
			"outputs": [
				{
					"internalType": "bool",
					"name": "",
					"type": "bool"
				}
			],
			"stateMutability": "view",
			"type": "function"
		},
		{
			"inputs": [
				{
					"internalType": "uint256",
					"name": "First",
					"type": "uint256"
				},
				{
					"internalType": "uint256",
					"name": "Second",
					"type": "uint256"
				}
			],
			"name": "enterBattle",
			"outputs": [],
			"stateMutability": "nonpayable",
			"type": "function"
		},
		{
			"inputs": [],
			"name": "getAmountOfNonDead",
			"outputs": [
				{
					"internalType": "uint256",
					"name": "",
					"type": "uint256"
				}
			],
			"stateMutability": "view",
			"type": "function"
		},
		{
			"inputs": [],
			"name": "getMintAmount",
			"outputs": [
				{
					"internalType": "uint256",
					"name": "",
					"type": "uint256"
				}
			],
			"stateMutability": "view",
			"type": "function"
		},
		{
			"inputs": [
				{
					"internalType": "uint256",
					"name": "NFTId",
					"type": "uint256"
				}
			],
			"name": "getNFTBOOSTBalance",
			"outputs": [
				{
					"internalType": "bool",
					"name": "",
					"type": "bool"
				}
			],
			"stateMutability": "view",
			"type": "function"
		},
		{
			"inputs": [
				{
					"internalType": "uint256",
					"name": "NFTId",
					"type": "uint256"
				}
			],
			"name": "getNFTSKIPBalance",
			"outputs": [
				{
					"internalType": "bool",
					"name": "",
					"type": "bool"
				}
			],
			"stateMutability": "view",
			"type": "function"
		},
		{
			"inputs": [
				{
					"internalType": "uint256",
					"name": "NFTId",
					"type": "uint256"
				}
			],
			"name": "getNFTVBalance",
			"outputs": [
				{
					"internalType": "bool",
					"name": "",
					"type": "bool"
				}
			],
			"stateMutability": "view",
			"type": "function"
		},
		{
			"inputs": [
				{
					"internalType": "uint256",
					"name": "NFTId",
					"type": "uint256"
				}
			],
			"name": "getNFTXTRABalance",
			"outputs": [
				{
					"internalType": "bool",
					"name": "",
					"type": "bool"
				}
			],
			"stateMutability": "view",
			"type": "function"
		},
		{
			"inputs": [],
			"name": "getRoundWinnersLength",
			"outputs": [
				{
					"internalType": "uint256",
					"name": "",
					"type": "uint256"
				}
			],
			"stateMutability": "view",
			"type": "function"
		},
		{
			"inputs": [],
			"name": "getUniqueOwners",
			"outputs": [
				{
					"internalType": "uint256",
					"name": "",
					"type": "uint256"
				}
			],
			"stateMutability": "nonpayable",
			"type": "function"
		},
		{
			"inputs": [],
			"name": "hasTimerPassed",
			"outputs": [
				{
					"internalType": "bool",
					"name": "",
					"type": "bool"
				}
			],
			"stateMutability": "view",
			"type": "function"
		},
		{
			"inputs": [],
			"name": "lookForOpponent",
			"outputs": [],
			"stateMutability": "nonpayable",
			"type": "function"
		},
		{
			"inputs": [],
			"name": "maxAmountOfWinners",
			"outputs": [
				{
					"internalType": "uint256",
					"name": "",
					"type": "uint256"
				}
			],
			"stateMutability": "view",
			"type": "function"
		},
		{
			"inputs": [],
			"name": "newGame",
			"outputs": [
				{
					"internalType": "bool",
					"name": "",
					"type": "bool"
				}
			],
			"stateMutability": "view",
			"type": "function"
		},
		{
			"inputs": [],
			"name": "nftContract",
			"outputs": [
				{
					"internalType": "contract IGnomesCollective",
					"name": "",
					"type": "address"
				}
			],
			"stateMutability": "view",
			"type": "function"
		},
		{
			"inputs": [],
			"name": "owner",
			"outputs": [
				{
					"internalType": "address",
					"name": "",
					"type": "address"
				}
			],
			"stateMutability": "view",
			"type": "function"
		},
		{
			"inputs": [
				{
					"internalType": "address",
					"name": "",
					"type": "address"
				}
			],
			"name": "ownerExists",
			"outputs": [
				{
					"internalType": "bool",
					"name": "",
					"type": "bool"
				}
			],
			"stateMutability": "view",
			"type": "function"
		},
		{
			"inputs": [
				{
					"internalType": "uint256",
					"name": "id",
					"type": "uint256"
				}
			],
			"name": "ownerOf",
			"outputs": [
				{
					"internalType": "address",
					"name": "",
					"type": "address"
				}
			],
			"stateMutability": "view",
			"type": "function"
		},
		{
			"inputs": [
				{
					"internalType": "uint256",
					"name": "",
					"type": "uint256"
				}
			],
			"name": "queue",
			"outputs": [
				{
					"internalType": "bool",
					"name": "",
					"type": "bool"
				}
			],
			"stateMutability": "view",
			"type": "function"
		},
		{
			"inputs": [],
			"name": "queuecounter",
			"outputs": [
				{
					"internalType": "uint256",
					"name": "",
					"type": "uint256"
				}
			],
			"stateMutability": "view",
			"type": "function"
		},
		{
			"inputs": [],
			"name": "resetAlive",
			"outputs": [],
			"stateMutability": "nonpayable",
			"type": "function"
		},
		{
			"inputs": [],
			"name": "resetQueue",
			"outputs": [],
			"stateMutability": "nonpayable",
			"type": "function"
		},
		{
			"inputs": [],
			"name": "resetTimer",
			"outputs": [],
			"stateMutability": "nonpayable",
			"type": "function"
		},
		{
			"inputs": [],
			"name": "reviveAll",
			"outputs": [],
			"stateMutability": "nonpayable",
			"type": "function"
		},
		{
			"inputs": [],
			"name": "roundDuration",
			"outputs": [
				{
					"internalType": "uint256",
					"name": "",
					"type": "uint256"
				}
			],
			"stateMutability": "view",
			"type": "function"
		},
		{
			"inputs": [
				{
					"internalType": "uint256",
					"name": "",
					"type": "uint256"
				}
			],
			"name": "roundWinners",
			"outputs": [
				{
					"internalType": "address",
					"name": "",
					"type": "address"
				}
			],
			"stateMutability": "view",
			"type": "function"
		},
		{
			"inputs": [
				{
					"internalType": "uint256",
					"name": "",
					"type": "uint256"
				}
			],
			"name": "roundWinsOfNFT",
			"outputs": [
				{
					"internalType": "uint256",
					"name": "",
					"type": "uint256"
				}
			],
			"stateMutability": "view",
			"type": "function"
		},
		{
			"inputs": [],
			"name": "roundsCount",
			"outputs": [
				{
					"internalType": "uint256",
					"name": "",
					"type": "uint256"
				}
			],
			"stateMutability": "view",
			"type": "function"
		},
		{
			"inputs": [],
			"name": "startHungerGames",
			"outputs": [],
			"stateMutability": "nonpayable",
			"type": "function"
		},
		{
			"inputs": [],
			"name": "startTimer",
			"outputs": [],
			"stateMutability": "nonpayable",
			"type": "function"
		},
		{
			"inputs": [
				{
					"internalType": "uint256",
					"name": "",
					"type": "uint256"
				},
				{
					"internalType": "uint256",
					"name": "",
					"type": "uint256"
				}
			],
			"name": "stats",
			"outputs": [
				{
					"internalType": "uint256",
					"name": "",
					"type": "uint256"
				}
			],
			"stateMutability": "view",
			"type": "function"
		},
		{
			"inputs": [
				{
					"internalType": "uint256",
					"name": "",
					"type": "uint256"
				}
			],
			"name": "statsInitialized",
			"outputs": [
				{
					"internalType": "bool",
					"name": "",
					"type": "bool"
				}
			],
			"stateMutability": "view",
			"type": "function"
		},
		{
			"inputs": [],
			"name": "storeRoundWinners",
			"outputs": [],
			"stateMutability": "nonpayable",
			"type": "function"
		},
		{
			"inputs": [],
			"name": "tokenContract",
			"outputs": [
				{
					"internalType": "contract IHungerGames",
					"name": "",
					"type": "address"
				}
			],
			"stateMutability": "view",
			"type": "function"
		},
		{
			"inputs": [],
			"name": "uniqueOwnersCounter",
			"outputs": [
				{
					"internalType": "uint256",
					"name": "",
					"type": "uint256"
				}
			],
			"stateMutability": "view",
			"type": "function"
		},
		{
			"inputs": [
				{
					"internalType": "uint256",
					"name": "startIdx",
					"type": "uint256"
				},
				{
					"internalType": "uint256",
					"name": "batchSize",
					"type": "uint256"
				},
				{
					"internalType": "uint256[5][]",
					"name": "idStats",
					"type": "uint256[5][]"
				}
			],
			"name": "updateStats",
			"outputs": [],
			"stateMutability": "nonpayable",
			"type": "function"
		}
	]
}