{
	"data": {
		"bytecode": {
			"linkReferences": {},
			"object": "608060405260056002819055600381905561016890555f600955600b805461ffff191661010017905534801562000034575f80fd5b50604051620029fb380380620029fb83398101604081905262000057916200010d565b5f80546001600160a01b031916339081178255604051909182917f8be0079c531659141344cd1fd0a4f28419497f9722a3daafe3b4186f6b6457e0908290a350600e80546001600160a01b039384166001600160a01b031991821617909155600f80549290931691811691909117909155600d8054909116737034990879d4e4c0f9dade892ad641bc45dedbbf1790555f60015562000143565b80516001600160a01b038116811462000108575f80fd5b919050565b5f80604083850312156200011f575f80fd5b6200012a83620000f1565b91506200013a60208401620000f1565b90509250929050565b6128aa80620001515f395ff3fe608060405234801561000f575f80fd5b506004361061034d575f3560e01c80637d55d304116101c9578063d56d229d116100fe578063ec8f2e4d1161009e578063f3a395fc11610079578063f3a395fc14610770578063f6be71d114610792578063f7cb789a146107a5578063fdc06ccf146107ae575f80fd5b8063ec8f2e4d14610757578063eea090281461075f578063ef561bf514610768575f80fd5b8063dd888545116100d9578063dd888545146106f8578063ddf0b0091461070b578063e472d7d31461072d578063e77f7b4b14610735575f80fd5b8063d56d229d146106d3578063d65cb04a146106e6578063dd49c004146106ef575f80fd5b80639f7c94aa11610169578063a8995deb11610144578063a8995deb14610636578063aa12a6191461063e578063c1428bfa1461065d578063c1ae5e72146106c0575f80fd5b80639f7c94aa14610616578063a2b946aa1461061e578063a39f74491461062e575f80fd5b80638da5cb5b116101a45780638da5cb5b146105e85780638efabae6146105f85780639d670c6d146106055780639f5cfe031461060d575f80fd5b80637d55d3041461059f578063893e2bd1146105a75780638a015e30146105c6575f80fd5b8063472a20da1161029f578063605920661161023f5780636e2ed3c41161021a5780636e2ed3c41461055e57806376a4956c146105715780637812c4f5146105845780637d03f5f31461058d575f80fd5b806360592066146105205780636352211e146105295780636573c7871461053c575f80fd5b806354ca45d81161027a57806354ca45d8146104a757806355a373d6146104c9578063580a155a146104dc57806359dbfde8146104fe575f80fd5b8063472a20da146104615780634ea619921461047457806351a2f6871461047c575f80fd5b80632b1fbdff1161030a57806333057537116102e557806333057537146104205780633b32edd41461042857806340978d421461043b5780634433c4681461044e575f80fd5b80632b1fbdff146103f95780632f4960ee14610403578063306648e81461040b575f80fd5b8063039aa9cf1461035157806303b3d8c01461038857806311c9080d146103a85780631e2b0586146103bf5780632a303c79146103de5780632ace2af5146103e6575b5f80fd5b61037361035f36600461230e565b60176020525f908152604090205460ff1681565b60405190151581526020015b60405180910390f35b61039b61039636600461230e565b6107b6565b60405161037f9190612359565b6103b160075481565b60405190815260200161037f565b6103b16103cd36600461230e565b601c6020525f908152604090205481565b600c546103b1565b6103736103f436600461230e565b610884565b6104016108f6565b005b610401610971565b610413610a84565b60405161037f91906123ab565b610373610ada565b61037361043636600461230e565b610b2f565b6104016104493660046123ee565b610b60565b6103b161045c3660046123ee565b611343565b6103b161046f36600461230e565b611365565b610401611384565b600d5461048f906001600160a01b031681565b6040516001600160a01b03909116815260200161037f565b6103736104b536600461230e565b60196020525f908152604090205460ff1681565b600f5461048f906001600160a01b031681565b6103736104ea36600461230e565b60186020525f908152604090205460ff1681565b61037361050c366004612422565b60116020525f908152604090205460ff1681565b6103b160025481565b61048f61053736600461230e565b611414565b61037361054a36600461230e565b60146020525f908152604090205460ff1681565b61037361056c36600461230e565b61147f565b61048f61057f36600461230e565b6114b0565b6103b160045481565b600b5461037390610100900460ff1681565b6104016114d8565b6103b16105b536600461230e565b601d6020525f908152604090205481565b6103736105d436600461230e565b60156020525f908152604090205460ff1681565b5f546001600160a01b031661048f565b600b546103739060ff1681565b61040161153e565b6103b160065481565b6104016115e0565b600b54610100900460ff16610373565b610401611714565b6103b1611783565b6103b161064c36600461230e565b601b6020525f908152604090205481565b6106ae61066b36600461230e565b60106020525f90815260409020805460019091015460ff808216916101008104821691620100008204811691630100000081048216916401000000009091041686565b60405161037f96959493929190612444565b6103736106ce36600461230e565b6117f3565b600e5461048f906001600160a01b031681565b6103b160095481565b6103b160015481565b6104016107063660046124ec565b611824565b61037361071936600461230e565b60126020525f908152604090205460ff1681565b610401611ae3565b61037361074336600461230e565b60136020525f908152604090205460ff1681565b610401611b48565b6103b160035481565b6103b1611d20565b61037361077e36600461230e565b60166020525f908152604090205460ff1681565b6104016107a036600461230e565b611d69565b6103b160055481565b610401611d98565b6040805160c0810182525f80825260208201819052918101829052606081018290526080810182905260a08101919091525f82815260106020908152604091829020825160c08101909352805483526001810154909183019060ff16600281111561082357610823612325565b600281111561083457610834612325565b81526001919091015460ff61010082048116151560208401526201000082048116151560408401526301000000820481161515606084015264010000000090910416151560809091015292915050565b600f54604051632ace2af560e01b8152600481018390525f916001600160a01b031690632ace2af5906024015b602060405180830381865afa1580156108cc573d5f803e3d5ffd5b505050506040513d601f19601f820116820180604052508101906108f091906125e6565b92915050565b600d546001600160a01b031633146109295760405162461bcd60e51b815260040161092090612605565b60405180910390fd5b600a545f5b8181101561096d57600a80548061094757610947612654565b600190038181905f5260205f20015f9055905580806109659061267c565b91505061092e565b5050565b600d546001600160a01b0316331461099b5760405162461bcd60e51b815260040161092090612605565b5f60015b6109a7611783565b8111610a37575f8181526012602052604090205460ff161580156109d957505f8181526013602052604090205460ff16155b15610a25575f818152601260205260408120805460ff19166001908117909155600a805491820181559091525f805160206128558339815191520181905581610a218161267c565b9250505b80610a2f8161267c565b91505061099f565b508060015f828254610a499190612694565b9091555050600b805461ff00191690556040517fe045608e87eadd2f9961a089f4c933adb62f8cc3fcbc9d23119c595d95d05bf3905f90a150565b6060600a805480602002602001604051908101604052809291908181526020018280548015610ad057602002820191905f5260205f20905b815481526020019060010190808311610abc575b5050505050905090565b600b545f90610100900460ff1615610b0f57600554610afa9060066126a7565b600454610b079190612694565b421015905090565b600b5460ff1615610b2a57600554600454610b079190612694565b505f90565b600f54604051630eccbb7560e21b8152600481018390525f916001600160a01b031690633b32edd4906024016108b1565b600d546001600160a01b03163314610b8a5760405162461bcd60e51b815260040161092090612605565b5f8281526013602052604090205460ff16158015610bb657505f8181526013602052604090205460ff16155b610c0c5760405162461bcd60e51b815260206004820152602160248201527f426f7468204e465473206d75737420626520616c69766520746f20626174746c6044820152606560f81b6064820152608401610920565b6003545f839052601a6020526005148015610c3257506003545f829052601a6020526005145b610c885760405162461bcd60e51b815260206004820152602160248201527f496e76616c696420737461747320666f72206f6e65206f6620746865204e46546044820152607360f81b6064820152608401610920565b610c918261147f565b8015610ca35750610ca1816117f3565b155b80610cc45750610cb28161147f565b8015610cc45750610cc2826117f3565b155b15610d3d57610cd582826002611e50565b610cdf82826120ce565b5f82815260146020526040808220805460ff19908116600190811790925584845291832080549092168117909155600a80548083018255928190525f8051602061285583398151915292830185905580549182019055018190555050565b5f828152601a6020526040808220815160a08101928390529160059082845b815481526020019060010190808311610d5c575050505f858152601a6020526040808220815160a08101928390529596509194935090915060059082845b815481526020019060010190808311610d9a5750505050509050610dbd84610b2f565b15610eb357604080514260208201529081018590525f90600590606001604051602081830303815290604052805190602001205f1c610dfc91906126d2565b90505f60054287604051602001610e309291909182526020820152691cd958dbdb9914dd185d60b21b6040820152604a0190565b60408051601f198184030181529190528051602090910120610e53846001612694565b610e5d9190612694565b610e6791906126d2565b5f878152601a60205260409020909150600a908360058110610e8b57610e8b6126e5565b01555f868152601a60205260409020600a908260058110610eae57610eae6126e5565b015550505b610ebc83610b2f565b15610fb257604080514260208201529081018490525f90600590606001604051602081830303815290604052805190602001205f1c610efb91906126d2565b90505f60054286604051602001610f2f9291909182526020820152691cd958dbdb9914dd185d60b21b6040820152604a0190565b60408051601f198184030181529190528051602090910120610f52846001612694565b610f5c9190612694565b610f6691906126d2565b5f868152601a60205260409020909150600a908360058110610f8a57610f8a6126e5565b01555f858152601a60205260409020600a908260058110610fad57610fad6126e5565b015550505b610fbb846117f3565b15611002575f5b6005811015611000575f858152601a60205260409020600a908260058110610fec57610fec6126e5565b015580610ff88161267c565b915050610fc2565b505b61100b836117f3565b15611052575f5b6005811015611050575f848152601a60205260409020600a90826005811061103c5761103c6126e5565b0155806110488161267c565b915050611012565b505b5f848152601a602052604081206004810154600382015460028301546001840154935492939192909161108491612694565b61108e9190612694565b6110989190612694565b6110a29190612694565b5f858152601a602052604081206004810154600382015460028301546001840154935495965093949193909290916110da9190612694565b6110e49190612694565b6110ee9190612694565b6110f89190612694565b90505f6111058284612694565b116111605760405162461bcd60e51b815260206004820152602560248201527f546f74616c20706f776572206d7573742062652067726561746572207468616e604482015264207a65726f60d81b6064820152608401610920565b5f606461116d4442612694565b61117791906126d2565b90505f8284111561118c5750604681106111a5565b8284101561119f5750601e8110156111a5565b50603281105b8015611245576111b487610884565b6111d1575f878152601360205260409020805460ff191660011790555b5f888152601460209081526040808320805460ff19166001908117909155600a805491820190555f80516020612855833981519152018b9055601b909152812080549161121d8361267c565b90915550505f878152601c6020526040812080549161123b8361267c565b91905055506112db565b61124e88610884565b61126b575f888152601360205260409020805460ff191660011790555b5f878152601460209081526040808320805460ff19166001908117909155600a805491820190555f80516020612855833981519152018a9055601b90915281208054916112b78361267c565b90915550505f888152601c602052604081208054916112d58361267c565b91905055505b6112e788886002611e50565b5f888152601a60205260409020611300908760056122bc565b505f878152601a6020526040902061131a908660056122bc565b5061132588886120ce565b60078054905f6113348361267c565b91905055505050505050505050565b601a602052815f5260405f20816005811061135c575f80fd5b01549150829050565b600a8181548110611374575f80fd5b5f91825260209091200154905081565b600d546001600160a01b031633146113ae5760405162461bcd60e51b815260040161092090612605565b60015b6113b9611783565b81116113e9575f818152601260205260408120805460ff19169055600155806113e18161267c565b9150506113b1565b506040517f3984c48732886b85c3609f4771c475531ed8e67132a3f30c3555a372b3edd6b3905f90a1565b600e546040516331a9108f60e11b8152600481018390525f916001600160a01b031690636352211e90602401602060405180830381865afa15801561145b573d5f803e3d5ffd5b505050506040513d601f19601f820116820180604052508101906108f091906126f9565b600f54604051631b8bb4f160e21b8152600481018390525f916001600160a01b031690636e2ed3c4906024016108b1565b600c81815481106114bf575f80fd5b5f918252602090912001546001600160a01b0316905081565b600d546001600160a01b031633146115025760405162461bcd60e51b815260040161092090612605565b4260048190556040519081527fd1dbb2ce8081405078443ef34dae718285114121a39370b14ef01b9d2b0a2083906020015b60405180910390a1565b600d546001600160a01b031633146115685760405162461bcd60e51b815260040161092090612605565b60015b611573611783565b81116115b5575f818152601360209081526040808320805460ff19908116909155601490925290912080549091169055806115ad8161267c565b91505061156b565b506040517fc0a4569bdaa5bae3dabcabe5ac5c590863cad4bad443b5d2051d1d200f9fa4da905f90a1565b600d546001600160a01b0316331461160a5760405162461bcd60e51b815260040161092090612605565b5f611613611d20565b9050805f0361161f5750565b5f8161162d6009600a6127f4565b600f5461164491906001600160a01b0316316126a7565b61164e9190612802565b600c549091505f9061166290600190612815565b90505b600f54600c80546001600160a01b039092169163af95d4d391908490811061168f5761168f6126e5565b5f9182526020909120015460405160e083901b6001600160e01b03191681526001600160a01b039091166004820152602481018590526044015f604051808303815f87803b1580156116df575f80fd5b505af11580156116f1573d5f803e3d5ffd5b50505050805f031561170f578061170781612828565b915050611665565b505050565b600d546001600160a01b0316331461173e5760405162461bcd60e51b815260040161092090612605565b600b805460ff191660011790554260048190556040517f90e4e1076e66d07aad698457e7a86b4425881ab1586d63c00ba753f88757e9a8916115349190815260200190565b600e546040805163a8995deb60e01b815290515f926001600160a01b03169163a8995deb9160048083019260209291908290030181865afa1580156117ca573d5f803e3d5ffd5b505050506040513d601f19601f820116820180604052508101906117ee919061283d565b905090565b600f546040516360d72f3960e11b8152600481018390525f916001600160a01b03169063c1ae5e72906024016108b1565b600d546001600160a01b0316331461184e5760405162461bcd60e51b815260040161092090612605565b600183101580156118d25750600e5f9054906101000a90046001600160a01b03166001600160a01b031663d5abeb016040518163ffffffff1660e01b8152600401602060405180830381865afa1580156118aa573d5f803e3d5ffd5b505050506040513d601f19601f820116820180604052508101906118ce919061283d565b8311155b6119155760405162461bcd60e51b815260206004820152601460248201527324b73b30b634b21039ba30b93a1034b73232bc1760611b6044820152606401610920565b5f821161196f5760405162461bcd60e51b815260206004820152602260248201527f42617463682073697a65206d7573742062652067726561746572207468616e20604482015261181760f11b6064820152608401610920565b5f600161197c8486612694565b6119869190612815565b9050600e5f9054906101000a90046001600160a01b03166001600160a01b031663d5abeb016040518163ffffffff1660e01b8152600401602060405180830381865afa1580156119d8573d5f803e3d5ffd5b505050506040513d601f19601f820116820180604052508101906119fc919061283d565b811115611a4b5760405162461bcd60e51b815260206004820152601c60248201527f456e6420696e6465782065786365656473206d6178537570706c792e000000006044820152606401610920565b835b818111611adc575f8181526015602052604090205460ff16611aca575f611a748683612815565b9050838181518110611a8857611a886126e5565b6020026020010151601a5f8481526020019081526020015f20906005611aaf9291906122bc565b50505f818152601560205260409020805460ff191660011790555b80611ad48161267c565b915050611a4d565b5050505050565b600d546001600160a01b03163314611b0d5760405162461bcd60e51b815260040161092090612605565b60015b611b18611783565b8111611b45575f818152601460205260409020805460ff1916905580611b3d8161267c565b915050611b10565b50565b600d546001600160a01b03163314611b725760405162461bcd60e51b815260040161092090612605565b600260015410158015611b885750611b88610ada565b611b90575f80fd5b611b986108f6565b5f60015b6001548111611c63575f8181526012602052604090205460ff168015611bd057505f8181526014602052604090205460ff16155b8015611bea57505f8181526013602052604090205460ff16155b15611c5157815f03611bfe57809150611c51565b5f611c1182611c0c85611414565b612132565b90508015611c2c57611c238382610b60565b5f929150611c4f565b5f611c3683612246565b90508015611c4d57611c488482610b60565b5f9392505b505b505b80611c5b8161267c565b915050611b9c565b50600254611c6f611d20565b11611cd157611c7c611d98565b611c846115e0565b611c8c61153e565b611c94611384565b5f6006819055600b805461ff0019166101001790556040517f4957baacfccf45d9f54657dc86692b68bea7155d1951bea16f81d430c5864f879190a15b60068054905f611ce08361267c565b9190505550611ced6114d8565b611cf5611ae3565b6040517f0f44cf147798f94c1025f83ff5a888484a8f7de8328f57e099895c0dc605924a905f90a150565b5f8060015b6001548111611d63575f8181526013602052604090205460ff16611d515781611d4d8161267c565b9250505b80611d5b8161267c565b915050611d25565b50919050565b600d546001600160a01b03163314611d935760405162461bcd60e51b815260040161092090612605565b600555565b600d546001600160a01b03163314611dc25760405162461bcd60e51b815260040161092090612605565b60015b6001548111611b45575f8181526013602052604090205460ff16611e3e57600c611dee82611414565b81546001810183555f928352602080842090910180546001600160a01b0319166001600160a01b039390931692909217909155828252601d905260408120805491611e388361267c565b91905055505b80611e488161267c565b915050611dc5565b6040518060c00160405280838152602001826002811115611e7357611e73612325565b8152602001611e8185610884565b15158152602001611e9185610b2f565b15158152602001611ea1856117f3565b15158152602001611eb18561147f565b151590525f848152601060209081526040909120825181559082015160018083018054909160ff1990911690836002811115611eef57611eef612325565b02179055506040820151600190910180546060840151608085015160a09095015115156401000000000264ff00000000199515156301000000029590951664ffff00000019911515620100000262ff000019951515610100029590951662ffff0019909316929092179390931792909216919091179190911790555f80826002811115611f7e57611f7e612325565b14611fa9576001826002811115611f9757611f97612325565b14611fa3576002611fac565b5f611fac565b60015b90506040518060c00160405280858152602001826002811115611fd157611fd1612325565b8152602001611fdf85610884565b15158152602001611fef85610b2f565b15158152602001611fff856117f3565b1515815260200161200f8561147f565b151590525f848152601060209081526040909120825181559082015160018083018054909160ff199091169083600281111561204d5761204d612325565b02179055506040820151600190910180546060840151608085015160a09095015115156401000000000264ff00000000199515156301000000029590951664ffff00000019911515620100000262ff000019951515610100029590951662ffff00199093169290921793909317929092169190911791909117905550505050565b600f546040516309eadbf560e01b815260048101849052602481018390526001600160a01b03909116906309eadbf5906044015f604051808303815f87803b158015612118575f80fd5b505af115801561212a573d5f803e3d5ffd5b505050505050565b5f805b600581101561223d57600154604080514260208201529081018690525f9190606001604051602081830303815290604052805190602001205f1c61217991906126d2565b612184906001612694565b5f8181526012602052604090205490915060ff1680156121b257505f8181526014602052604090205460ff16155b80156121cc57505f8181526013602052604090205460ff16155b80156121f25750836001600160a01b03166121e682611414565b6001600160a01b031614155b801561221c5750612204856001612694565b8114158061221c5750612218600186612815565b8114155b1561222a5791506108f09050565b50806122358161267c565b915050612135565b505f9392505050565b5f815b60015481116122b4575f8181526012602052604090205460ff16801561227d57505f8181526014602052604090205460ff16155b801561229757505f8181526013602052604090205460ff16155b156122a25792915050565b806122ac8161267c565b915050612249565b505f92915050565b82600581019282156122ea579160200282015b828111156122ea5782518255916020019190600101906122cf565b506122f69291506122fa565b5090565b5b808211156122f6575f81556001016122fb565b5f6020828403121561231e575f80fd5b5035919050565b634e487b7160e01b5f52602160045260245ffd5b6003811061235557634e487b7160e01b5f52602160045260245ffd5b9052565b8151815260208083015160c083019161237490840182612339565b5060408301511515604083015260608301511515606083015260808301511515608083015260a0830151151560a083015292915050565b602080825282518282018190525f9190848201906040850190845b818110156123e2578351835292840192918401916001016123c6565b50909695505050505050565b5f80604083850312156123ff575f80fd5b50508035926020909101359150565b6001600160a01b0381168114611b45575f80fd5b5f60208284031215612432575f80fd5b813561243d8161240e565b9392505050565b86815260c081016124586020830188612339565b941515604082015292151560608401529015156080830152151560a09091015292915050565b634e487b7160e01b5f52604160045260245ffd5b60405160a0810167ffffffffffffffff811182821017156124b5576124b561247e565b60405290565b604051601f8201601f1916810167ffffffffffffffff811182821017156124e4576124e461247e565b604052919050565b5f805f606084860312156124fe575f80fd5b833592506020808501359250604085013567ffffffffffffffff80821115612524575f80fd5b8187019150601f8881840112612538575f80fd5b82358281111561254a5761254a61247e565b612558858260051b016124bb565b818152858101935060a091820285018601918b831115612576575f80fd5b948601945b828610156125d5578b84870112612591575f8081fd5b612599612492565b808288018e8111156125aa575f8081fd5b885b818110156125c35780358452928a01928a016125ac565b5050865250948501949386019361257b565b508096505050505050509250925092565b5f602082840312156125f6575f80fd5b8151801515811461243d575f80fd5b6020808252602f908201527f4f6e6c79206d61696e74656e616e63652077616c6c65742063616e207065726660408201526e37b936903a3434b99030b1ba34b7b760891b606082015260800190565b634e487b7160e01b5f52603160045260245ffd5b634e487b7160e01b5f52601160045260245ffd5b5f6001820161268d5761268d612668565b5060010190565b808201808211156108f0576108f0612668565b80820281158282048414176108f0576108f0612668565b634e487b7160e01b5f52601260045260245ffd5b5f826126e0576126e06126be565b500690565b634e487b7160e01b5f52603260045260245ffd5b5f60208284031215612709575f80fd5b815161243d8161240e565b600181815b8085111561274e57815f190482111561273457612734612668565b8085161561274157918102915b93841c9390800290612719565b509250929050565b5f82612764575060016108f0565b8161277057505f6108f0565b81600181146127865760028114612790576127ac565b60019150506108f0565b60ff8411156127a1576127a1612668565b50506001821b6108f0565b5060208310610133831016604e8410600b84101617156127cf575081810a6108f0565b6127d98383612714565b805f19048211156127ec576127ec612668565b029392505050565b5f61243d60ff841683612756565b5f82612810576128106126be565b500490565b818103818111156108f0576108f0612668565b5f8161283657612836612668565b505f190190565b5f6020828403121561284d575f80fd5b505191905056fec65a7bb8d6351c1cf70c95a316cc6a92839c986682d98bc35f958f4883f9d2a8a2646970667358221220e392c5670df605f59c37e7624a35211b244306476f5f1c69a64941cfaada13c664736f6c63430008150033",
			"opcodes": "PUSH1 0x80 PUSH1 0x40 MSTORE PUSH1 0x5 PUSH1 0x2 DUP2 SWAP1 SSTORE PUSH1 0x3 DUP2 SWAP1 SSTORE PUSH2 0x168 SWAP1 SSTORE PUSH0 PUSH1 0x9 SSTORE PUSH1 0xB DUP1 SLOAD PUSH2 0xFFFF NOT AND PUSH2 0x100 OR SWAP1 SSTORE CALLVALUE DUP1 ISZERO PUSH3 0x34 JUMPI PUSH0 DUP1 REVERT JUMPDEST POP PUSH1 0x40 MLOAD PUSH3 0x29FB CODESIZE SUB DUP1 PUSH3 0x29FB DUP4 CODECOPY DUP2 ADD PUSH1 0x40 DUP2 SWAP1 MSTORE PUSH3 0x57 SWAP2 PUSH3 0x10D JUMP JUMPDEST PUSH0 DUP1 SLOAD PUSH1 0x1 PUSH1 0x1 PUSH1 0xA0 SHL SUB NOT AND CALLER SWAP1 DUP2 OR DUP3 SSTORE PUSH1 0x40 MLOAD SWAP1 SWAP2 DUP3 SWAP2 PUSH32 0x8BE0079C531659141344CD1FD0A4F28419497F9722A3DAAFE3B4186F6B6457E0 SWAP1 DUP3 SWAP1 LOG3 POP PUSH1 0xE DUP1 SLOAD PUSH1 0x1 PUSH1 0x1 PUSH1 0xA0 SHL SUB SWAP4 DUP5 AND PUSH1 0x1 PUSH1 0x1 PUSH1 0xA0 SHL SUB NOT SWAP2 DUP3 AND OR SWAP1 SWAP2 SSTORE PUSH1 0xF DUP1 SLOAD SWAP3 SWAP1 SWAP4 AND SWAP2 DUP2 AND SWAP2 SWAP1 SWAP2 OR SWAP1 SWAP2 SSTORE PUSH1 0xD DUP1 SLOAD SWAP1 SWAP2 AND PUSH20 0x7034990879D4E4C0F9DADE892AD641BC45DEDBBF OR SWAP1 SSTORE PUSH0 PUSH1 0x1 SSTORE PUSH3 0x143 JUMP JUMPDEST DUP1 MLOAD PUSH1 0x1 PUSH1 0x1 PUSH1 0xA0 SHL SUB DUP2 AND DUP2 EQ PUSH3 0x108 JUMPI PUSH0 DUP1 REVERT JUMPDEST SWAP2 SWAP1 POP JUMP JUMPDEST PUSH0 DUP1 PUSH1 0x40 DUP4 DUP6 SUB SLT ISZERO PUSH3 0x11F JUMPI PUSH0 DUP1 REVERT JUMPDEST PUSH3 0x12A DUP4 PUSH3 0xF1 JUMP JUMPDEST SWAP2 POP PUSH3 0x13A PUSH1 0x20 DUP5 ADD PUSH3 0xF1 JUMP JUMPDEST SWAP1 POP SWAP3 POP SWAP3 SWAP1 POP JUMP JUMPDEST PUSH2 0x28AA DUP1 PUSH3 0x151 PUSH0 CODECOPY PUSH0 RETURN INVALID PUSH1 0x80 PUSH1 0x40 MSTORE CALLVALUE DUP1 ISZERO PUSH2 0xF JUMPI PUSH0 DUP1 REVERT JUMPDEST POP PUSH1 0x4 CALLDATASIZE LT PUSH2 0x34D JUMPI PUSH0 CALLDATALOAD PUSH1 0xE0 SHR DUP1 PUSH4 0x7D55D304 GT PUSH2 0x1C9 JUMPI DUP1 PUSH4 0xD56D229D GT PUSH2 0xFE JUMPI DUP1 PUSH4 0xEC8F2E4D GT PUSH2 0x9E JUMPI DUP1 PUSH4 0xF3A395FC GT PUSH2 0x79 JUMPI DUP1 PUSH4 0xF3A395FC EQ PUSH2 0x770 JUMPI DUP1 PUSH4 0xF6BE71D1 EQ PUSH2 0x792 JUMPI DUP1 PUSH4 0xF7CB789A EQ PUSH2 0x7A5 JUMPI DUP1 PUSH4 0xFDC06CCF EQ PUSH2 0x7AE JUMPI PUSH0 DUP1 REVERT JUMPDEST DUP1 PUSH4 0xEC8F2E4D EQ PUSH2 0x757 JUMPI DUP1 PUSH4 0xEEA09028 EQ PUSH2 0x75F JUMPI DUP1 PUSH4 0xEF561BF5 EQ PUSH2 0x768 JUMPI PUSH0 DUP1 REVERT JUMPDEST DUP1 PUSH4 0xDD888545 GT PUSH2 0xD9 JUMPI DUP1 PUSH4 0xDD888545 EQ PUSH2 0x6F8 JUMPI DUP1 PUSH4 0xDDF0B009 EQ PUSH2 0x70B JUMPI DUP1 PUSH4 0xE472D7D3 EQ PUSH2 0x72D JUMPI DUP1 PUSH4 0xE77F7B4B EQ PUSH2 0x735 JUMPI PUSH0 DUP1 REVERT JUMPDEST DUP1 PUSH4 0xD56D229D EQ PUSH2 0x6D3 JUMPI DUP1 PUSH4 0xD65CB04A EQ PUSH2 0x6E6 JUMPI DUP1 PUSH4 0xDD49C004 EQ PUSH2 0x6EF JUMPI PUSH0 DUP1 REVERT JUMPDEST DUP1 PUSH4 0x9F7C94AA GT PUSH2 0x169 JUMPI DUP1 PUSH4 0xA8995DEB GT PUSH2 0x144 JUMPI DUP1 PUSH4 0xA8995DEB EQ PUSH2 0x636 JUMPI DUP1 PUSH4 0xAA12A619 EQ PUSH2 0x63E JUMPI DUP1 PUSH4 0xC1428BFA EQ PUSH2 0x65D JUMPI DUP1 PUSH4 0xC1AE5E72 EQ PUSH2 0x6C0 JUMPI PUSH0 DUP1 REVERT JUMPDEST DUP1 PUSH4 0x9F7C94AA EQ PUSH2 0x616 JUMPI DUP1 PUSH4 0xA2B946AA EQ PUSH2 0x61E JUMPI DUP1 PUSH4 0xA39F7449 EQ PUSH2 0x62E JUMPI PUSH0 DUP1 REVERT JUMPDEST DUP1 PUSH4 0x8DA5CB5B GT PUSH2 0x1A4 JUMPI DUP1 PUSH4 0x8DA5CB5B EQ PUSH2 0x5E8 JUMPI DUP1 PUSH4 0x8EFABAE6 EQ PUSH2 0x5F8 JUMPI DUP1 PUSH4 0x9D670C6D EQ PUSH2 0x605 JUMPI DUP1 PUSH4 0x9F5CFE03 EQ PUSH2 0x60D JUMPI PUSH0 DUP1 REVERT JUMPDEST DUP1 PUSH4 0x7D55D304 EQ PUSH2 0x59F JUMPI DUP1 PUSH4 0x893E2BD1 EQ PUSH2 0x5A7 JUMPI DUP1 PUSH4 0x8A015E30 EQ PUSH2 0x5C6 JUMPI PUSH0 DUP1 REVERT JUMPDEST DUP1 PUSH4 0x472A20DA GT PUSH2 0x29F JUMPI DUP1 PUSH4 0x60592066 GT PUSH2 0x23F JUMPI DUP1 PUSH4 0x6E2ED3C4 GT PUSH2 0x21A JUMPI DUP1 PUSH4 0x6E2ED3C4 EQ PUSH2 0x55E JUMPI DUP1 PUSH4 0x76A4956C EQ PUSH2 0x571 JUMPI DUP1 PUSH4 0x7812C4F5 EQ PUSH2 0x584 JUMPI DUP1 PUSH4 0x7D03F5F3 EQ PUSH2 0x58D JUMPI PUSH0 DUP1 REVERT JUMPDEST DUP1 PUSH4 0x60592066 EQ PUSH2 0x520 JUMPI DUP1 PUSH4 0x6352211E EQ PUSH2 0x529 JUMPI DUP1 PUSH4 0x6573C787 EQ PUSH2 0x53C JUMPI PUSH0 DUP1 REVERT JUMPDEST DUP1 PUSH4 0x54CA45D8 GT PUSH2 0x27A JUMPI DUP1 PUSH4 0x54CA45D8 EQ PUSH2 0x4A7 JUMPI DUP1 PUSH4 0x55A373D6 EQ PUSH2 0x4C9 JUMPI DUP1 PUSH4 0x580A155A EQ PUSH2 0x4DC JUMPI DUP1 PUSH4 0x59DBFDE8 EQ PUSH2 0x4FE JUMPI PUSH0 DUP1 REVERT JUMPDEST DUP1 PUSH4 0x472A20DA EQ PUSH2 0x461 JUMPI DUP1 PUSH4 0x4EA61992 EQ PUSH2 0x474 JUMPI DUP1 PUSH4 0x51A2F687 EQ PUSH2 0x47C JUMPI PUSH0 DUP1 REVERT JUMPDEST DUP1 PUSH4 0x2B1FBDFF GT PUSH2 0x30A JUMPI DUP1 PUSH4 0x33057537 GT PUSH2 0x2E5 JUMPI DUP1 PUSH4 0x33057537 EQ PUSH2 0x420 JUMPI DUP1 PUSH4 0x3B32EDD4 EQ PUSH2 0x428 JUMPI DUP1 PUSH4 0x40978D42 EQ PUSH2 0x43B JUMPI DUP1 PUSH4 0x4433C468 EQ PUSH2 0x44E JUMPI PUSH0 DUP1 REVERT JUMPDEST DUP1 PUSH4 0x2B1FBDFF EQ PUSH2 0x3F9 JUMPI DUP1 PUSH4 0x2F4960EE EQ PUSH2 0x403 JUMPI DUP1 PUSH4 0x306648E8 EQ PUSH2 0x40B JUMPI PUSH0 DUP1 REVERT JUMPDEST DUP1 PUSH4 0x39AA9CF EQ PUSH2 0x351 JUMPI DUP1 PUSH4 0x3B3D8C0 EQ PUSH2 0x388 JUMPI DUP1 PUSH4 0x11C9080D EQ PUSH2 0x3A8 JUMPI DUP1 PUSH4 0x1E2B0586 EQ PUSH2 0x3BF JUMPI DUP1 PUSH4 0x2A303C79 EQ PUSH2 0x3DE JUMPI DUP1 PUSH4 0x2ACE2AF5 EQ PUSH2 0x3E6 JUMPI JUMPDEST PUSH0 DUP1 REVERT JUMPDEST PUSH2 0x373 PUSH2 0x35F CALLDATASIZE PUSH1 0x4 PUSH2 0x230E JUMP JUMPDEST PUSH1 0x17 PUSH1 0x20 MSTORE PUSH0 SWAP1 DUP2 MSTORE PUSH1 0x40 SWAP1 KECCAK256 SLOAD PUSH1 0xFF AND DUP2 JUMP JUMPDEST PUSH1 0x40 MLOAD SWAP1 ISZERO ISZERO DUP2 MSTORE PUSH1 0x20 ADD JUMPDEST PUSH1 0x40 MLOAD DUP1 SWAP2 SUB SWAP1 RETURN JUMPDEST PUSH2 0x39B PUSH2 0x396 CALLDATASIZE PUSH1 0x4 PUSH2 0x230E JUMP JUMPDEST PUSH2 0x7B6 JUMP JUMPDEST PUSH1 0x40 MLOAD PUSH2 0x37F SWAP2 SWAP1 PUSH2 0x2359 JUMP JUMPDEST PUSH2 0x3B1 PUSH1 0x7 SLOAD DUP2 JUMP JUMPDEST PUSH1 0x40 MLOAD SWAP1 DUP2 MSTORE PUSH1 0x20 ADD PUSH2 0x37F JUMP JUMPDEST PUSH2 0x3B1 PUSH2 0x3CD CALLDATASIZE PUSH1 0x4 PUSH2 0x230E JUMP JUMPDEST PUSH1 0x1C PUSH1 0x20 MSTORE PUSH0 SWAP1 DUP2 MSTORE PUSH1 0x40 SWAP1 KECCAK256 SLOAD DUP2 JUMP JUMPDEST PUSH1 0xC SLOAD PUSH2 0x3B1 JUMP JUMPDEST PUSH2 0x373 PUSH2 0x3F4 CALLDATASIZE PUSH1 0x4 PUSH2 0x230E JUMP JUMPDEST PUSH2 0x884 JUMP JUMPDEST PUSH2 0x401 PUSH2 0x8F6 JUMP JUMPDEST STOP JUMPDEST PUSH2 0x401 PUSH2 0x971 JUMP JUMPDEST PUSH2 0x413 PUSH2 0xA84 JUMP JUMPDEST PUSH1 0x40 MLOAD PUSH2 0x37F SWAP2 SWAP1 PUSH2 0x23AB JUMP JUMPDEST PUSH2 0x373 PUSH2 0xADA JUMP JUMPDEST PUSH2 0x373 PUSH2 0x436 CALLDATASIZE PUSH1 0x4 PUSH2 0x230E JUMP JUMPDEST PUSH2 0xB2F JUMP JUMPDEST PUSH2 0x401 PUSH2 0x449 CALLDATASIZE PUSH1 0x4 PUSH2 0x23EE JUMP JUMPDEST PUSH2 0xB60 JUMP JUMPDEST PUSH2 0x3B1 PUSH2 0x45C CALLDATASIZE PUSH1 0x4 PUSH2 0x23EE JUMP JUMPDEST PUSH2 0x1343 JUMP JUMPDEST PUSH2 0x3B1 PUSH2 0x46F CALLDATASIZE PUSH1 0x4 PUSH2 0x230E JUMP JUMPDEST PUSH2 0x1365 JUMP JUMPDEST PUSH2 0x401 PUSH2 0x1384 JUMP JUMPDEST PUSH1 0xD SLOAD PUSH2 0x48F SWAP1 PUSH1 0x1 PUSH1 0x1 PUSH1 0xA0 SHL SUB AND DUP2 JUMP JUMPDEST PUSH1 0x40 MLOAD PUSH1 0x1 PUSH1 0x1 PUSH1 0xA0 SHL SUB SWAP1 SWAP2 AND DUP2 MSTORE PUSH1 0x20 ADD PUSH2 0x37F JUMP JUMPDEST PUSH2 0x373 PUSH2 0x4B5 CALLDATASIZE PUSH1 0x4 PUSH2 0x230E JUMP JUMPDEST PUSH1 0x19 PUSH1 0x20 MSTORE PUSH0 SWAP1 DUP2 MSTORE PUSH1 0x40 SWAP1 KECCAK256 SLOAD PUSH1 0xFF AND DUP2 JUMP JUMPDEST PUSH1 0xF SLOAD PUSH2 0x48F SWAP1 PUSH1 0x1 PUSH1 0x1 PUSH1 0xA0 SHL SUB AND DUP2 JUMP JUMPDEST PUSH2 0x373 PUSH2 0x4EA CALLDATASIZE PUSH1 0x4 PUSH2 0x230E JUMP JUMPDEST PUSH1 0x18 PUSH1 0x20 MSTORE PUSH0 SWAP1 DUP2 MSTORE PUSH1 0x40 SWAP1 KECCAK256 SLOAD PUSH1 0xFF AND DUP2 JUMP JUMPDEST PUSH2 0x373 PUSH2 0x50C CALLDATASIZE PUSH1 0x4 PUSH2 0x2422 JUMP JUMPDEST PUSH1 0x11 PUSH1 0x20 MSTORE PUSH0 SWAP1 DUP2 MSTORE PUSH1 0x40 SWAP1 KECCAK256 SLOAD PUSH1 0xFF AND DUP2 JUMP JUMPDEST PUSH2 0x3B1 PUSH1 0x2 SLOAD DUP2 JUMP JUMPDEST PUSH2 0x48F PUSH2 0x537 CALLDATASIZE PUSH1 0x4 PUSH2 0x230E JUMP JUMPDEST PUSH2 0x1414 JUMP JUMPDEST PUSH2 0x373 PUSH2 0x54A CALLDATASIZE PUSH1 0x4 PUSH2 0x230E JUMP JUMPDEST PUSH1 0x14 PUSH1 0x20 MSTORE PUSH0 SWAP1 DUP2 MSTORE PUSH1 0x40 SWAP1 KECCAK256 SLOAD PUSH1 0xFF AND DUP2 JUMP JUMPDEST PUSH2 0x373 PUSH2 0x56C CALLDATASIZE PUSH1 0x4 PUSH2 0x230E JUMP JUMPDEST PUSH2 0x147F JUMP JUMPDEST PUSH2 0x48F PUSH2 0x57F CALLDATASIZE PUSH1 0x4 PUSH2 0x230E JUMP JUMPDEST PUSH2 0x14B0 JUMP JUMPDEST PUSH2 0x3B1 PUSH1 0x4 SLOAD DUP2 JUMP JUMPDEST PUSH1 0xB SLOAD PUSH2 0x373 SWAP1 PUSH2 0x100 SWAP1 DIV PUSH1 0xFF AND DUP2 JUMP JUMPDEST PUSH2 0x401 PUSH2 0x14D8 JUMP JUMPDEST PUSH2 0x3B1 PUSH2 0x5B5 CALLDATASIZE PUSH1 0x4 PUSH2 0x230E JUMP JUMPDEST PUSH1 0x1D PUSH1 0x20 MSTORE PUSH0 SWAP1 DUP2 MSTORE PUSH1 0x40 SWAP1 KECCAK256 SLOAD DUP2 JUMP JUMPDEST PUSH2 0x373 PUSH2 0x5D4 CALLDATASIZE PUSH1 0x4 PUSH2 0x230E JUMP JUMPDEST PUSH1 0x15 PUSH1 0x20 MSTORE PUSH0 SWAP1 DUP2 MSTORE PUSH1 0x40 SWAP1 KECCAK256 SLOAD PUSH1 0xFF AND DUP2 JUMP JUMPDEST PUSH0 SLOAD PUSH1 0x1 PUSH1 0x1 PUSH1 0xA0 SHL SUB AND PUSH2 0x48F JUMP JUMPDEST PUSH1 0xB SLOAD PUSH2 0x373 SWAP1 PUSH1 0xFF AND DUP2 JUMP JUMPDEST PUSH2 0x401 PUSH2 0x153E JUMP JUMPDEST PUSH2 0x3B1 PUSH1 0x6 SLOAD DUP2 JUMP JUMPDEST PUSH2 0x401 PUSH2 0x15E0 JUMP JUMPDEST PUSH1 0xB SLOAD PUSH2 0x100 SWAP1 DIV PUSH1 0xFF AND PUSH2 0x373 JUMP JUMPDEST PUSH2 0x401 PUSH2 0x1714 JUMP JUMPDEST PUSH2 0x3B1 PUSH2 0x1783 JUMP JUMPDEST PUSH2 0x3B1 PUSH2 0x64C CALLDATASIZE PUSH1 0x4 PUSH2 0x230E JUMP JUMPDEST PUSH1 0x1B PUSH1 0x20 MSTORE PUSH0 SWAP1 DUP2 MSTORE PUSH1 0x40 SWAP1 KECCAK256 SLOAD DUP2 JUMP JUMPDEST PUSH2 0x6AE PUSH2 0x66B CALLDATASIZE PUSH1 0x4 PUSH2 0x230E JUMP JUMPDEST PUSH1 0x10 PUSH1 0x20 MSTORE PUSH0 SWAP1 DUP2 MSTORE PUSH1 0x40 SWAP1 KECCAK256 DUP1 SLOAD PUSH1 0x1 SWAP1 SWAP2 ADD SLOAD PUSH1 0xFF DUP1 DUP3 AND SWAP2 PUSH2 0x100 DUP2 DIV DUP3 AND SWAP2 PUSH3 0x10000 DUP3 DIV DUP2 AND SWAP2 PUSH4 0x1000000 DUP2 DIV DUP3 AND SWAP2 PUSH5 0x100000000 SWAP1 SWAP2 DIV AND DUP7 JUMP JUMPDEST PUSH1 0x40 MLOAD PUSH2 0x37F SWAP7 SWAP6 SWAP5 SWAP4 SWAP3 SWAP2 SWAP1 PUSH2 0x2444 JUMP JUMPDEST PUSH2 0x373 PUSH2 0x6CE CALLDATASIZE PUSH1 0x4 PUSH2 0x230E JUMP JUMPDEST PUSH2 0x17F3 JUMP JUMPDEST PUSH1 0xE SLOAD PUSH2 0x48F SWAP1 PUSH1 0x1 PUSH1 0x1 PUSH1 0xA0 SHL SUB AND DUP2 JUMP JUMPDEST PUSH2 0x3B1 PUSH1 0x9 SLOAD DUP2 JUMP JUMPDEST PUSH2 0x3B1 PUSH1 0x1 SLOAD DUP2 JUMP JUMPDEST PUSH2 0x401 PUSH2 0x706 CALLDATASIZE PUSH1 0x4 PUSH2 0x24EC JUMP JUMPDEST PUSH2 0x1824 JUMP JUMPDEST PUSH2 0x373 PUSH2 0x719 CALLDATASIZE PUSH1 0x4 PUSH2 0x230E JUMP JUMPDEST PUSH1 0x12 PUSH1 0x20 MSTORE PUSH0 SWAP1 DUP2 MSTORE PUSH1 0x40 SWAP1 KECCAK256 SLOAD PUSH1 0xFF AND DUP2 JUMP JUMPDEST PUSH2 0x401 PUSH2 0x1AE3 JUMP JUMPDEST PUSH2 0x373 PUSH2 0x743 CALLDATASIZE PUSH1 0x4 PUSH2 0x230E JUMP JUMPDEST PUSH1 0x13 PUSH1 0x20 MSTORE PUSH0 SWAP1 DUP2 MSTORE PUSH1 0x40 SWAP1 KECCAK256 SLOAD PUSH1 0xFF AND DUP2 JUMP JUMPDEST PUSH2 0x401 PUSH2 0x1B48 JUMP JUMPDEST PUSH2 0x3B1 PUSH1 0x3 SLOAD DUP2 JUMP JUMPDEST PUSH2 0x3B1 PUSH2 0x1D20 JUMP JUMPDEST PUSH2 0x373 PUSH2 0x77E CALLDATASIZE PUSH1 0x4 PUSH2 0x230E JUMP JUMPDEST PUSH1 0x16 PUSH1 0x20 MSTORE PUSH0 SWAP1 DUP2 MSTORE PUSH1 0x40 SWAP1 KECCAK256 SLOAD PUSH1 0xFF AND DUP2 JUMP JUMPDEST PUSH2 0x401 PUSH2 0x7A0 CALLDATASIZE PUSH1 0x4 PUSH2 0x230E JUMP JUMPDEST PUSH2 0x1D69 JUMP JUMPDEST PUSH2 0x3B1 PUSH1 0x5 SLOAD DUP2 JUMP JUMPDEST PUSH2 0x401 PUSH2 0x1D98 JUMP JUMPDEST PUSH1 0x40 DUP1 MLOAD PUSH1 0xC0 DUP2 ADD DUP3 MSTORE PUSH0 DUP1 DUP3 MSTORE PUSH1 0x20 DUP3 ADD DUP2 SWAP1 MSTORE SWAP2 DUP2 ADD DUP3 SWAP1 MSTORE PUSH1 0x60 DUP2 ADD DUP3 SWAP1 MSTORE PUSH1 0x80 DUP2 ADD DUP3 SWAP1 MSTORE PUSH1 0xA0 DUP2 ADD SWAP2 SWAP1 SWAP2 MSTORE PUSH0 DUP3 DUP2 MSTORE PUSH1 0x10 PUSH1 0x20 SWAP1 DUP2 MSTORE PUSH1 0x40 SWAP2 DUP3 SWAP1 KECCAK256 DUP3 MLOAD PUSH1 0xC0 DUP2 ADD SWAP1 SWAP4 MSTORE DUP1 SLOAD DUP4 MSTORE PUSH1 0x1 DUP2 ADD SLOAD SWAP1 SWAP2 DUP4 ADD SWAP1 PUSH1 0xFF AND PUSH1 0x2 DUP2 GT ISZERO PUSH2 0x823 JUMPI PUSH2 0x823 PUSH2 0x2325 JUMP JUMPDEST PUSH1 0x2 DUP2 GT ISZERO PUSH2 0x834 JUMPI PUSH2 0x834 PUSH2 0x2325 JUMP JUMPDEST DUP2 MSTORE PUSH1 0x1 SWAP2 SWAP1 SWAP2 ADD SLOAD PUSH1 0xFF PUSH2 0x100 DUP3 DIV DUP2 AND ISZERO ISZERO PUSH1 0x20 DUP5 ADD MSTORE PUSH3 0x10000 DUP3 DIV DUP2 AND ISZERO ISZERO PUSH1 0x40 DUP5 ADD MSTORE PUSH4 0x1000000 DUP3 DIV DUP2 AND ISZERO ISZERO PUSH1 0x60 DUP5 ADD MSTORE PUSH5 0x100000000 SWAP1 SWAP2 DIV AND ISZERO ISZERO PUSH1 0x80 SWAP1 SWAP2 ADD MSTORE SWAP3 SWAP2 POP POP JUMP JUMPDEST PUSH1 0xF SLOAD PUSH1 0x40 MLOAD PUSH4 0x2ACE2AF5 PUSH1 0xE0 SHL DUP2 MSTORE PUSH1 0x4 DUP2 ADD DUP4 SWAP1 MSTORE PUSH0 SWAP2 PUSH1 0x1 PUSH1 0x1 PUSH1 0xA0 SHL SUB AND SWAP1 PUSH4 0x2ACE2AF5 SWAP1 PUSH1 0x24 ADD JUMPDEST PUSH1 0x20 PUSH1 0x40 MLOAD DUP1 DUP4 SUB DUP2 DUP7 GAS STATICCALL ISZERO DUP1 ISZERO PUSH2 0x8CC JUMPI RETURNDATASIZE PUSH0 DUP1 RETURNDATACOPY RETURNDATASIZE PUSH0 REVERT JUMPDEST POP POP POP POP PUSH1 0x40 MLOAD RETURNDATASIZE PUSH1 0x1F NOT PUSH1 0x1F DUP3 ADD AND DUP3 ADD DUP1 PUSH1 0x40 MSTORE POP DUP2 ADD SWAP1 PUSH2 0x8F0 SWAP2 SWAP1 PUSH2 0x25E6 JUMP JUMPDEST SWAP3 SWAP2 POP POP JUMP JUMPDEST PUSH1 0xD SLOAD PUSH1 0x1 PUSH1 0x1 PUSH1 0xA0 SHL SUB AND CALLER EQ PUSH2 0x929 JUMPI PUSH1 0x40 MLOAD PUSH3 0x461BCD PUSH1 0xE5 SHL DUP2 MSTORE PUSH1 0x4 ADD PUSH2 0x920 SWAP1 PUSH2 0x2605 JUMP JUMPDEST PUSH1 0x40 MLOAD DUP1 SWAP2 SUB SWAP1 REVERT JUMPDEST PUSH1 0xA SLOAD PUSH0 JUMPDEST DUP2 DUP2 LT ISZERO PUSH2 0x96D JUMPI PUSH1 0xA DUP1 SLOAD DUP1 PUSH2 0x947 JUMPI PUSH2 0x947 PUSH2 0x2654 JUMP JUMPDEST PUSH1 0x1 SWAP1 SUB DUP2 DUP2 SWAP1 PUSH0 MSTORE PUSH1 0x20 PUSH0 KECCAK256 ADD PUSH0 SWAP1 SSTORE SWAP1 SSTORE DUP1 DUP1 PUSH2 0x965 SWAP1 PUSH2 0x267C JUMP JUMPDEST SWAP2 POP POP PUSH2 0x92E JUMP JUMPDEST POP POP JUMP JUMPDEST PUSH1 0xD SLOAD PUSH1 0x1 PUSH1 0x1 PUSH1 0xA0 SHL SUB AND CALLER EQ PUSH2 0x99B JUMPI PUSH1 0x40 MLOAD PUSH3 0x461BCD PUSH1 0xE5 SHL DUP2 MSTORE PUSH1 0x4 ADD PUSH2 0x920 SWAP1 PUSH2 0x2605 JUMP JUMPDEST PUSH0 PUSH1 0x1 JUMPDEST PUSH2 0x9A7 PUSH2 0x1783 JUMP JUMPDEST DUP2 GT PUSH2 0xA37 JUMPI PUSH0 DUP2 DUP2 MSTORE PUSH1 0x12 PUSH1 0x20 MSTORE PUSH1 0x40 SWAP1 KECCAK256 SLOAD PUSH1 0xFF AND ISZERO DUP1 ISZERO PUSH2 0x9D9 JUMPI POP PUSH0 DUP2 DUP2 MSTORE PUSH1 0x13 PUSH1 0x20 MSTORE PUSH1 0x40 SWAP1 KECCAK256 SLOAD PUSH1 0xFF AND ISZERO JUMPDEST ISZERO PUSH2 0xA25 JUMPI PUSH0 DUP2 DUP2 MSTORE PUSH1 0x12 PUSH1 0x20 MSTORE PUSH1 0x40 DUP2 KECCAK256 DUP1 SLOAD PUSH1 0xFF NOT AND PUSH1 0x1 SWAP1 DUP2 OR SWAP1 SWAP2 SSTORE PUSH1 0xA DUP1 SLOAD SWAP2 DUP3 ADD DUP2 SSTORE SWAP1 SWAP2 MSTORE PUSH0 DUP1 MLOAD PUSH1 0x20 PUSH2 0x2855 DUP4 CODECOPY DUP2 MLOAD SWAP2 MSTORE ADD DUP2 SWAP1 SSTORE DUP2 PUSH2 0xA21 DUP2 PUSH2 0x267C JUMP JUMPDEST SWAP3 POP POP JUMPDEST DUP1 PUSH2 0xA2F DUP2 PUSH2 0x267C JUMP JUMPDEST SWAP2 POP POP PUSH2 0x99F JUMP JUMPDEST POP DUP1 PUSH1 0x1 PUSH0 DUP3 DUP3 SLOAD PUSH2 0xA49 SWAP2 SWAP1 PUSH2 0x2694 JUMP JUMPDEST SWAP1 SWAP2 SSTORE POP POP PUSH1 0xB DUP1 SLOAD PUSH2 0xFF00 NOT AND SWAP1 SSTORE PUSH1 0x40 MLOAD PUSH32 0xE045608E87EADD2F9961A089F4C933ADB62F8CC3FCBC9D23119C595D95D05BF3 SWAP1 PUSH0 SWAP1 LOG1 POP JUMP JUMPDEST PUSH1 0x60 PUSH1 0xA DUP1 SLOAD DUP1 PUSH1 0x20 MUL PUSH1 0x20 ADD PUSH1 0x40 MLOAD SWAP1 DUP2 ADD PUSH1 0x40 MSTORE DUP1 SWAP3 SWAP2 SWAP1 DUP2 DUP2 MSTORE PUSH1 0x20 ADD DUP3 DUP1 SLOAD DUP1 ISZERO PUSH2 0xAD0 JUMPI PUSH1 0x20 MUL DUP3 ADD SWAP2 SWAP1 PUSH0 MSTORE PUSH1 0x20 PUSH0 KECCAK256 SWAP1 JUMPDEST DUP2 SLOAD DUP2 MSTORE PUSH1 0x20 ADD SWAP1 PUSH1 0x1 ADD SWAP1 DUP1 DUP4 GT PUSH2 0xABC JUMPI JUMPDEST POP POP POP POP POP SWAP1 POP SWAP1 JUMP JUMPDEST PUSH1 0xB SLOAD PUSH0 SWAP1 PUSH2 0x100 SWAP1 DIV PUSH1 0xFF AND ISZERO PUSH2 0xB0F JUMPI PUSH1 0x5 SLOAD PUSH2 0xAFA SWAP1 PUSH1 0x6 PUSH2 0x26A7 JUMP JUMPDEST PUSH1 0x4 SLOAD PUSH2 0xB07 SWAP2 SWAP1 PUSH2 0x2694 JUMP JUMPDEST TIMESTAMP LT ISZERO SWAP1 POP SWAP1 JUMP JUMPDEST PUSH1 0xB SLOAD PUSH1 0xFF AND ISZERO PUSH2 0xB2A JUMPI PUSH1 0x5 SLOAD PUSH1 0x4 SLOAD PUSH2 0xB07 SWAP2 SWAP1 PUSH2 0x2694 JUMP JUMPDEST POP PUSH0 SWAP1 JUMP JUMPDEST PUSH1 0xF SLOAD PUSH1 0x40 MLOAD PUSH4 0xECCBB75 PUSH1 0xE2 SHL DUP2 MSTORE PUSH1 0x4 DUP2 ADD DUP4 SWAP1 MSTORE PUSH0 SWAP2 PUSH1 0x1 PUSH1 0x1 PUSH1 0xA0 SHL SUB AND SWAP1 PUSH4 0x3B32EDD4 SWAP1 PUSH1 0x24 ADD PUSH2 0x8B1 JUMP JUMPDEST PUSH1 0xD SLOAD PUSH1 0x1 PUSH1 0x1 PUSH1 0xA0 SHL SUB AND CALLER EQ PUSH2 0xB8A JUMPI PUSH1 0x40 MLOAD PUSH3 0x461BCD PUSH1 0xE5 SHL DUP2 MSTORE PUSH1 0x4 ADD PUSH2 0x920 SWAP1 PUSH2 0x2605 JUMP JUMPDEST PUSH0 DUP3 DUP2 MSTORE PUSH1 0x13 PUSH1 0x20 MSTORE PUSH1 0x40 SWAP1 KECCAK256 SLOAD PUSH1 0xFF AND ISZERO DUP1 ISZERO PUSH2 0xBB6 JUMPI POP PUSH0 DUP2 DUP2 MSTORE PUSH1 0x13 PUSH1 0x20 MSTORE PUSH1 0x40 SWAP1 KECCAK256 SLOAD PUSH1 0xFF AND ISZERO JUMPDEST PUSH2 0xC0C JUMPI PUSH1 0x40 MLOAD PUSH3 0x461BCD PUSH1 0xE5 SHL DUP2 MSTORE PUSH1 0x20 PUSH1 0x4 DUP3 ADD MSTORE PUSH1 0x21 PUSH1 0x24 DUP3 ADD MSTORE PUSH32 0x426F7468204E465473206D75737420626520616C69766520746F20626174746C PUSH1 0x44 DUP3 ADD MSTORE PUSH1 0x65 PUSH1 0xF8 SHL PUSH1 0x64 DUP3 ADD MSTORE PUSH1 0x84 ADD PUSH2 0x920 JUMP JUMPDEST PUSH1 0x3 SLOAD PUSH0 DUP4 SWAP1 MSTORE PUSH1 0x1A PUSH1 0x20 MSTORE PUSH1 0x5 EQ DUP1 ISZERO PUSH2 0xC32 JUMPI POP PUSH1 0x3 SLOAD PUSH0 DUP3 SWAP1 MSTORE PUSH1 0x1A PUSH1 0x20 MSTORE PUSH1 0x5 EQ JUMPDEST PUSH2 0xC88 JUMPI PUSH1 0x40 MLOAD PUSH3 0x461BCD PUSH1 0xE5 SHL DUP2 MSTORE PUSH1 0x20 PUSH1 0x4 DUP3 ADD MSTORE PUSH1 0x21 PUSH1 0x24 DUP3 ADD MSTORE PUSH32 0x496E76616C696420737461747320666F72206F6E65206F6620746865204E4654 PUSH1 0x44 DUP3 ADD MSTORE PUSH1 0x73 PUSH1 0xF8 SHL PUSH1 0x64 DUP3 ADD MSTORE PUSH1 0x84 ADD PUSH2 0x920 JUMP JUMPDEST PUSH2 0xC91 DUP3 PUSH2 0x147F JUMP JUMPDEST DUP1 ISZERO PUSH2 0xCA3 JUMPI POP PUSH2 0xCA1 DUP2 PUSH2 0x17F3 JUMP JUMPDEST ISZERO JUMPDEST DUP1 PUSH2 0xCC4 JUMPI POP PUSH2 0xCB2 DUP2 PUSH2 0x147F JUMP JUMPDEST DUP1 ISZERO PUSH2 0xCC4 JUMPI POP PUSH2 0xCC2 DUP3 PUSH2 0x17F3 JUMP JUMPDEST ISZERO JUMPDEST ISZERO PUSH2 0xD3D JUMPI PUSH2 0xCD5 DUP3 DUP3 PUSH1 0x2 PUSH2 0x1E50 JUMP JUMPDEST PUSH2 0xCDF DUP3 DUP3 PUSH2 0x20CE JUMP JUMPDEST PUSH0 DUP3 DUP2 MSTORE PUSH1 0x14 PUSH1 0x20 MSTORE PUSH1 0x40 DUP1 DUP3 KECCAK256 DUP1 SLOAD PUSH1 0xFF NOT SWAP1 DUP2 AND PUSH1 0x1 SWAP1 DUP2 OR SWAP1 SWAP3 SSTORE DUP5 DUP5 MSTORE SWAP2 DUP4 KECCAK256 DUP1 SLOAD SWAP1 SWAP3 AND DUP2 OR SWAP1 SWAP2 SSTORE PUSH1 0xA DUP1 SLOAD DUP1 DUP4 ADD DUP3 SSTORE SWAP3 DUP2 SWAP1 MSTORE PUSH0 DUP1 MLOAD PUSH1 0x20 PUSH2 0x2855 DUP4 CODECOPY DUP2 MLOAD SWAP2 MSTORE SWAP3 DUP4 ADD DUP6 SWAP1 SSTORE DUP1 SLOAD SWAP2 DUP3 ADD SWAP1 SSTORE ADD DUP2 SWAP1 SSTORE POP POP JUMP JUMPDEST PUSH0 DUP3 DUP2 MSTORE PUSH1 0x1A PUSH1 0x20 MSTORE PUSH1 0x40 DUP1 DUP3 KECCAK256 DUP2 MLOAD PUSH1 0xA0 DUP2 ADD SWAP3 DUP4 SWAP1 MSTORE SWAP2 PUSH1 0x5 SWAP1 DUP3 DUP5 JUMPDEST DUP2 SLOAD DUP2 MSTORE PUSH1 0x20 ADD SWAP1 PUSH1 0x1 ADD SWAP1 DUP1 DUP4 GT PUSH2 0xD5C JUMPI POP POP POP PUSH0 DUP6 DUP2 MSTORE PUSH1 0x1A PUSH1 0x20 MSTORE PUSH1 0x40 DUP1 DUP3 KECCAK256 DUP2 MLOAD PUSH1 0xA0 DUP2 ADD SWAP3 DUP4 SWAP1 MSTORE SWAP6 SWAP7 POP SWAP2 SWAP5 SWAP4 POP SWAP1 SWAP2 POP PUSH1 0x5 SWAP1 DUP3 DUP5 JUMPDEST DUP2 SLOAD DUP2 MSTORE PUSH1 0x20 ADD SWAP1 PUSH1 0x1 ADD SWAP1 DUP1 DUP4 GT PUSH2 0xD9A JUMPI POP POP POP POP POP SWAP1 POP PUSH2 0xDBD DUP5 PUSH2 0xB2F JUMP JUMPDEST ISZERO PUSH2 0xEB3 JUMPI PUSH1 0x40 DUP1 MLOAD TIMESTAMP PUSH1 0x20 DUP3 ADD MSTORE SWAP1 DUP2 ADD DUP6 SWAP1 MSTORE PUSH0 SWAP1 PUSH1 0x5 SWAP1 PUSH1 0x60 ADD PUSH1 0x40 MLOAD PUSH1 0x20 DUP2 DUP4 SUB SUB DUP2 MSTORE SWAP1 PUSH1 0x40 MSTORE DUP1 MLOAD SWAP1 PUSH1 0x20 ADD KECCAK256 PUSH0 SHR PUSH2 0xDFC SWAP2 SWAP1 PUSH2 0x26D2 JUMP JUMPDEST SWAP1 POP PUSH0 PUSH1 0x5 TIMESTAMP DUP8 PUSH1 0x40 MLOAD PUSH1 0x20 ADD PUSH2 0xE30 SWAP3 SWAP2 SWAP1 SWAP2 DUP3 MSTORE PUSH1 0x20 DUP3 ADD MSTORE PUSH10 0x1CD958DBDB9914DD185D PUSH1 0xB2 SHL PUSH1 0x40 DUP3 ADD MSTORE PUSH1 0x4A ADD SWAP1 JUMP JUMPDEST PUSH1 0x40 DUP1 MLOAD PUSH1 0x1F NOT DUP2 DUP5 SUB ADD DUP2 MSTORE SWAP2 SWAP1 MSTORE DUP1 MLOAD PUSH1 0x20 SWAP1 SWAP2 ADD KECCAK256 PUSH2 0xE53 DUP5 PUSH1 0x1 PUSH2 0x2694 JUMP JUMPDEST PUSH2 0xE5D SWAP2 SWAP1 PUSH2 0x2694 JUMP JUMPDEST PUSH2 0xE67 SWAP2 SWAP1 PUSH2 0x26D2 JUMP JUMPDEST PUSH0 DUP8 DUP2 MSTORE PUSH1 0x1A PUSH1 0x20 MSTORE PUSH1 0x40 SWAP1 KECCAK256 SWAP1 SWAP2 POP PUSH1 0xA SWAP1 DUP4 PUSH1 0x5 DUP2 LT PUSH2 0xE8B JUMPI PUSH2 0xE8B PUSH2 0x26E5 JUMP JUMPDEST ADD SSTORE PUSH0 DUP7 DUP2 MSTORE PUSH1 0x1A PUSH1 0x20 MSTORE PUSH1 0x40 SWAP1 KECCAK256 PUSH1 0xA SWAP1 DUP3 PUSH1 0x5 DUP2 LT PUSH2 0xEAE JUMPI PUSH2 0xEAE PUSH2 0x26E5 JUMP JUMPDEST ADD SSTORE POP POP JUMPDEST PUSH2 0xEBC DUP4 PUSH2 0xB2F JUMP JUMPDEST ISZERO PUSH2 0xFB2 JUMPI PUSH1 0x40 DUP1 MLOAD TIMESTAMP PUSH1 0x20 DUP3 ADD MSTORE SWAP1 DUP2 ADD DUP5 SWAP1 MSTORE PUSH0 SWAP1 PUSH1 0x5 SWAP1 PUSH1 0x60 ADD PUSH1 0x40 MLOAD PUSH1 0x20 DUP2 DUP4 SUB SUB DUP2 MSTORE SWAP1 PUSH1 0x40 MSTORE DUP1 MLOAD SWAP1 PUSH1 0x20 ADD KECCAK256 PUSH0 SHR PUSH2 0xEFB SWAP2 SWAP1 PUSH2 0x26D2 JUMP JUMPDEST SWAP1 POP PUSH0 PUSH1 0x5 TIMESTAMP DUP7 PUSH1 0x40 MLOAD PUSH1 0x20 ADD PUSH2 0xF2F SWAP3 SWAP2 SWAP1 SWAP2 DUP3 MSTORE PUSH1 0x20 DUP3 ADD MSTORE PUSH10 0x1CD958DBDB9914DD185D PUSH1 0xB2 SHL PUSH1 0x40 DUP3 ADD MSTORE PUSH1 0x4A ADD SWAP1 JUMP JUMPDEST PUSH1 0x40 DUP1 MLOAD PUSH1 0x1F NOT DUP2 DUP5 SUB ADD DUP2 MSTORE SWAP2 SWAP1 MSTORE DUP1 MLOAD PUSH1 0x20 SWAP1 SWAP2 ADD KECCAK256 PUSH2 0xF52 DUP5 PUSH1 0x1 PUSH2 0x2694 JUMP JUMPDEST PUSH2 0xF5C SWAP2 SWAP1 PUSH2 0x2694 JUMP JUMPDEST PUSH2 0xF66 SWAP2 SWAP1 PUSH2 0x26D2 JUMP JUMPDEST PUSH0 DUP7 DUP2 MSTORE PUSH1 0x1A PUSH1 0x20 MSTORE PUSH1 0x40 SWAP1 KECCAK256 SWAP1 SWAP2 POP PUSH1 0xA SWAP1 DUP4 PUSH1 0x5 DUP2 LT PUSH2 0xF8A JUMPI PUSH2 0xF8A PUSH2 0x26E5 JUMP JUMPDEST ADD SSTORE PUSH0 DUP6 DUP2 MSTORE PUSH1 0x1A PUSH1 0x20 MSTORE PUSH1 0x40 SWAP1 KECCAK256 PUSH1 0xA SWAP1 DUP3 PUSH1 0x5 DUP2 LT PUSH2 0xFAD JUMPI PUSH2 0xFAD PUSH2 0x26E5 JUMP JUMPDEST ADD SSTORE POP POP JUMPDEST PUSH2 0xFBB DUP5 PUSH2 0x17F3 JUMP JUMPDEST ISZERO PUSH2 0x1002 JUMPI PUSH0 JUMPDEST PUSH1 0x5 DUP2 LT ISZERO PUSH2 0x1000 JUMPI PUSH0 DUP6 DUP2 MSTORE PUSH1 0x1A PUSH1 0x20 MSTORE PUSH1 0x40 SWAP1 KECCAK256 PUSH1 0xA SWAP1 DUP3 PUSH1 0x5 DUP2 LT PUSH2 0xFEC JUMPI PUSH2 0xFEC PUSH2 0x26E5 JUMP JUMPDEST ADD SSTORE DUP1 PUSH2 0xFF8 DUP2 PUSH2 0x267C JUMP JUMPDEST SWAP2 POP POP PUSH2 0xFC2 JUMP JUMPDEST POP JUMPDEST PUSH2 0x100B DUP4 PUSH2 0x17F3 JUMP JUMPDEST ISZERO PUSH2 0x1052 JUMPI PUSH0 JUMPDEST PUSH1 0x5 DUP2 LT ISZERO PUSH2 0x1050 JUMPI PUSH0 DUP5 DUP2 MSTORE PUSH1 0x1A PUSH1 0x20 MSTORE PUSH1 0x40 SWAP1 KECCAK256 PUSH1 0xA SWAP1 DUP3 PUSH1 0x5 DUP2 LT PUSH2 0x103C JUMPI PUSH2 0x103C PUSH2 0x26E5 JUMP JUMPDEST ADD SSTORE DUP1 PUSH2 0x1048 DUP2 PUSH2 0x267C JUMP JUMPDEST SWAP2 POP POP PUSH2 0x1012 JUMP JUMPDEST POP JUMPDEST PUSH0 DUP5 DUP2 MSTORE PUSH1 0x1A PUSH1 0x20 MSTORE PUSH1 0x40 DUP2 KECCAK256 PUSH1 0x4 DUP2 ADD SLOAD PUSH1 0x3 DUP3 ADD SLOAD PUSH1 0x2 DUP4 ADD SLOAD PUSH1 0x1 DUP5 ADD SLOAD SWAP4 SLOAD SWAP3 SWAP4 SWAP2 SWAP3 SWAP1 SWAP2 PUSH2 0x1084 SWAP2 PUSH2 0x2694 JUMP JUMPDEST PUSH2 0x108E SWAP2 SWAP1 PUSH2 0x2694 JUMP JUMPDEST PUSH2 0x1098 SWAP2 SWAP1 PUSH2 0x2694 JUMP JUMPDEST PUSH2 0x10A2 SWAP2 SWAP1 PUSH2 0x2694 JUMP JUMPDEST PUSH0 DUP6 DUP2 MSTORE PUSH1 0x1A PUSH1 0x20 MSTORE PUSH1 0x40 DUP2 KECCAK256 PUSH1 0x4 DUP2 ADD SLOAD PUSH1 0x3 DUP3 ADD SLOAD PUSH1 0x2 DUP4 ADD SLOAD PUSH1 0x1 DUP5 ADD SLOAD SWAP4 SLOAD SWAP6 SWAP7 POP SWAP4 SWAP5 SWAP2 SWAP4 SWAP1 SWAP3 SWAP1 SWAP2 PUSH2 0x10DA SWAP2 SWAP1 PUSH2 0x2694 JUMP JUMPDEST PUSH2 0x10E4 SWAP2 SWAP1 PUSH2 0x2694 JUMP JUMPDEST PUSH2 0x10EE SWAP2 SWAP1 PUSH2 0x2694 JUMP JUMPDEST PUSH2 0x10F8 SWAP2 SWAP1 PUSH2 0x2694 JUMP JUMPDEST SWAP1 POP PUSH0 PUSH2 0x1105 DUP3 DUP5 PUSH2 0x2694 JUMP JUMPDEST GT PUSH2 0x1160 JUMPI PUSH1 0x40 MLOAD PUSH3 0x461BCD PUSH1 0xE5 SHL DUP2 MSTORE PUSH1 0x20 PUSH1 0x4 DUP3 ADD MSTORE PUSH1 0x25 PUSH1 0x24 DUP3 ADD MSTORE PUSH32 0x546F74616C20706F776572206D7573742062652067726561746572207468616E PUSH1 0x44 DUP3 ADD MSTORE PUSH5 0x207A65726F PUSH1 0xD8 SHL PUSH1 0x64 DUP3 ADD MSTORE PUSH1 0x84 ADD PUSH2 0x920 JUMP JUMPDEST PUSH0 PUSH1 0x64 PUSH2 0x116D PREVRANDAO TIMESTAMP PUSH2 0x2694 JUMP JUMPDEST PUSH2 0x1177 SWAP2 SWAP1 PUSH2 0x26D2 JUMP JUMPDEST SWAP1 POP PUSH0 DUP3 DUP5 GT ISZERO PUSH2 0x118C JUMPI POP PUSH1 0x46 DUP2 LT PUSH2 0x11A5 JUMP JUMPDEST DUP3 DUP5 LT ISZERO PUSH2 0x119F JUMPI POP PUSH1 0x1E DUP2 LT ISZERO PUSH2 0x11A5 JUMP JUMPDEST POP PUSH1 0x32 DUP2 LT JUMPDEST DUP1 ISZERO PUSH2 0x1245 JUMPI PUSH2 0x11B4 DUP8 PUSH2 0x884 JUMP JUMPDEST PUSH2 0x11D1 JUMPI PUSH0 DUP8 DUP2 MSTORE PUSH1 0x13 PUSH1 0x20 MSTORE PUSH1 0x40 SWAP1 KECCAK256 DUP1 SLOAD PUSH1 0xFF NOT AND PUSH1 0x1 OR SWAP1 SSTORE JUMPDEST PUSH0 DUP9 DUP2 MSTORE PUSH1 0x14 PUSH1 0x20 SWAP1 DUP2 MSTORE PUSH1 0x40 DUP1 DUP4 KECCAK256 DUP1 SLOAD PUSH1 0xFF NOT AND PUSH1 0x1 SWAP1 DUP2 OR SWAP1 SWAP2 SSTORE PUSH1 0xA DUP1 SLOAD SWAP2 DUP3 ADD SWAP1 SSTORE PUSH0 DUP1 MLOAD PUSH1 0x20 PUSH2 0x2855 DUP4 CODECOPY DUP2 MLOAD SWAP2 MSTORE ADD DUP12 SWAP1 SSTORE PUSH1 0x1B SWAP1 SWAP2 MSTORE DUP2 KECCAK256 DUP1 SLOAD SWAP2 PUSH2 0x121D DUP4 PUSH2 0x267C JUMP JUMPDEST SWAP1 SWAP2 SSTORE POP POP PUSH0 DUP8 DUP2 MSTORE PUSH1 0x1C PUSH1 0x20 MSTORE PUSH1 0x40 DUP2 KECCAK256 DUP1 SLOAD SWAP2 PUSH2 0x123B DUP4 PUSH2 0x267C JUMP JUMPDEST SWAP2 SWAP1 POP SSTORE POP PUSH2 0x12DB JUMP JUMPDEST PUSH2 0x124E DUP9 PUSH2 0x884 JUMP JUMPDEST PUSH2 0x126B JUMPI PUSH0 DUP9 DUP2 MSTORE PUSH1 0x13 PUSH1 0x20 MSTORE PUSH1 0x40 SWAP1 KECCAK256 DUP1 SLOAD PUSH1 0xFF NOT AND PUSH1 0x1 OR SWAP1 SSTORE JUMPDEST PUSH0 DUP8 DUP2 MSTORE PUSH1 0x14 PUSH1 0x20 SWAP1 DUP2 MSTORE PUSH1 0x40 DUP1 DUP4 KECCAK256 DUP1 SLOAD PUSH1 0xFF NOT AND PUSH1 0x1 SWAP1 DUP2 OR SWAP1 SWAP2 SSTORE PUSH1 0xA DUP1 SLOAD SWAP2 DUP3 ADD SWAP1 SSTORE PUSH0 DUP1 MLOAD PUSH1 0x20 PUSH2 0x2855 DUP4 CODECOPY DUP2 MLOAD SWAP2 MSTORE ADD DUP11 SWAP1 SSTORE PUSH1 0x1B SWAP1 SWAP2 MSTORE DUP2 KECCAK256 DUP1 SLOAD SWAP2 PUSH2 0x12B7 DUP4 PUSH2 0x267C JUMP JUMPDEST SWAP1 SWAP2 SSTORE POP POP PUSH0 DUP9 DUP2 MSTORE PUSH1 0x1C PUSH1 0x20 MSTORE PUSH1 0x40 DUP2 KECCAK256 DUP1 SLOAD SWAP2 PUSH2 0x12D5 DUP4 PUSH2 0x267C JUMP JUMPDEST SWAP2 SWAP1 POP SSTORE POP JUMPDEST PUSH2 0x12E7 DUP9 DUP9 PUSH1 0x2 PUSH2 0x1E50 JUMP JUMPDEST PUSH0 DUP9 DUP2 MSTORE PUSH1 0x1A PUSH1 0x20 MSTORE PUSH1 0x40 SWAP1 KECCAK256 PUSH2 0x1300 SWAP1 DUP8 PUSH1 0x5 PUSH2 0x22BC JUMP JUMPDEST POP PUSH0 DUP8 DUP2 MSTORE PUSH1 0x1A PUSH1 0x20 MSTORE PUSH1 0x40 SWAP1 KECCAK256 PUSH2 0x131A SWAP1 DUP7 PUSH1 0x5 PUSH2 0x22BC JUMP JUMPDEST POP PUSH2 0x1325 DUP9 DUP9 PUSH2 0x20CE JUMP JUMPDEST PUSH1 0x7 DUP1 SLOAD SWAP1 PUSH0 PUSH2 0x1334 DUP4 PUSH2 0x267C JUMP JUMPDEST SWAP2 SWAP1 POP SSTORE POP POP POP POP POP POP POP POP POP JUMP JUMPDEST PUSH1 0x1A PUSH1 0x20 MSTORE DUP2 PUSH0 MSTORE PUSH1 0x40 PUSH0 KECCAK256 DUP2 PUSH1 0x5 DUP2 LT PUSH2 0x135C JUMPI PUSH0 DUP1 REVERT JUMPDEST ADD SLOAD SWAP2 POP DUP3 SWAP1 POP JUMP JUMPDEST PUSH1 0xA DUP2 DUP2 SLOAD DUP2 LT PUSH2 0x1374 JUMPI PUSH0 DUP1 REVERT JUMPDEST PUSH0 SWAP2 DUP3 MSTORE PUSH1 0x20 SWAP1 SWAP2 KECCAK256 ADD SLOAD SWAP1 POP DUP2 JUMP JUMPDEST PUSH1 0xD SLOAD PUSH1 0x1 PUSH1 0x1 PUSH1 0xA0 SHL SUB AND CALLER EQ PUSH2 0x13AE JUMPI PUSH1 0x40 MLOAD PUSH3 0x461BCD PUSH1 0xE5 SHL DUP2 MSTORE PUSH1 0x4 ADD PUSH2 0x920 SWAP1 PUSH2 0x2605 JUMP JUMPDEST PUSH1 0x1 JUMPDEST PUSH2 0x13B9 PUSH2 0x1783 JUMP JUMPDEST DUP2 GT PUSH2 0x13E9 JUMPI PUSH0 DUP2 DUP2 MSTORE PUSH1 0x12 PUSH1 0x20 MSTORE PUSH1 0x40 DUP2 KECCAK256 DUP1 SLOAD PUSH1 0xFF NOT AND SWAP1 SSTORE PUSH1 0x1 SSTORE DUP1 PUSH2 0x13E1 DUP2 PUSH2 0x267C JUMP JUMPDEST SWAP2 POP POP PUSH2 0x13B1 JUMP JUMPDEST POP PUSH1 0x40 MLOAD PUSH32 0x3984C48732886B85C3609F4771C475531ED8E67132A3F30C3555A372B3EDD6B3 SWAP1 PUSH0 SWAP1 LOG1 JUMP JUMPDEST PUSH1 0xE SLOAD PUSH1 0x40 MLOAD PUSH4 0x31A9108F PUSH1 0xE1 SHL DUP2 MSTORE PUSH1 0x4 DUP2 ADD DUP4 SWAP1 MSTORE PUSH0 SWAP2 PUSH1 0x1 PUSH1 0x1 PUSH1 0xA0 SHL SUB AND SWAP1 PUSH4 0x6352211E SWAP1 PUSH1 0x24 ADD PUSH1 0x20 PUSH1 0x40 MLOAD DUP1 DUP4 SUB DUP2 DUP7 GAS STATICCALL ISZERO DUP1 ISZERO PUSH2 0x145B JUMPI RETURNDATASIZE PUSH0 DUP1 RETURNDATACOPY RETURNDATASIZE PUSH0 REVERT JUMPDEST POP POP POP POP PUSH1 0x40 MLOAD RETURNDATASIZE PUSH1 0x1F NOT PUSH1 0x1F DUP3 ADD AND DUP3 ADD DUP1 PUSH1 0x40 MSTORE POP DUP2 ADD SWAP1 PUSH2 0x8F0 SWAP2 SWAP1 PUSH2 0x26F9 JUMP JUMPDEST PUSH1 0xF SLOAD PUSH1 0x40 MLOAD PUSH4 0x1B8BB4F1 PUSH1 0xE2 SHL DUP2 MSTORE PUSH1 0x4 DUP2 ADD DUP4 SWAP1 MSTORE PUSH0 SWAP2 PUSH1 0x1 PUSH1 0x1 PUSH1 0xA0 SHL SUB AND SWAP1 PUSH4 0x6E2ED3C4 SWAP1 PUSH1 0x24 ADD PUSH2 0x8B1 JUMP JUMPDEST PUSH1 0xC DUP2 DUP2 SLOAD DUP2 LT PUSH2 0x14BF JUMPI PUSH0 DUP1 REVERT JUMPDEST PUSH0 SWAP2 DUP3 MSTORE PUSH1 0x20 SWAP1 SWAP2 KECCAK256 ADD SLOAD PUSH1 0x1 PUSH1 0x1 PUSH1 0xA0 SHL SUB AND SWAP1 POP DUP2 JUMP JUMPDEST PUSH1 0xD SLOAD PUSH1 0x1 PUSH1 0x1 PUSH1 0xA0 SHL SUB AND CALLER EQ PUSH2 0x1502 JUMPI PUSH1 0x40 MLOAD PUSH3 0x461BCD PUSH1 0xE5 SHL DUP2 MSTORE PUSH1 0x4 ADD PUSH2 0x920 SWAP1 PUSH2 0x2605 JUMP JUMPDEST TIMESTAMP PUSH1 0x4 DUP2 SWAP1 SSTORE PUSH1 0x40 MLOAD SWAP1 DUP2 MSTORE PUSH32 0xD1DBB2CE8081405078443EF34DAE718285114121A39370B14EF01B9D2B0A2083 SWAP1 PUSH1 0x20 ADD JUMPDEST PUSH1 0x40 MLOAD DUP1 SWAP2 SUB SWAP1 LOG1 JUMP JUMPDEST PUSH1 0xD SLOAD PUSH1 0x1 PUSH1 0x1 PUSH1 0xA0 SHL SUB AND CALLER EQ PUSH2 0x1568 JUMPI PUSH1 0x40 MLOAD PUSH3 0x461BCD PUSH1 0xE5 SHL DUP2 MSTORE PUSH1 0x4 ADD PUSH2 0x920 SWAP1 PUSH2 0x2605 JUMP JUMPDEST PUSH1 0x1 JUMPDEST PUSH2 0x1573 PUSH2 0x1783 JUMP JUMPDEST DUP2 GT PUSH2 0x15B5 JUMPI PUSH0 DUP2 DUP2 MSTORE PUSH1 0x13 PUSH1 0x20 SWAP1 DUP2 MSTORE PUSH1 0x40 DUP1 DUP4 KECCAK256 DUP1 SLOAD PUSH1 0xFF NOT SWAP1 DUP2 AND SWAP1 SWAP2 SSTORE PUSH1 0x14 SWAP1 SWAP3 MSTORE SWAP1 SWAP2 KECCAK256 DUP1 SLOAD SWAP1 SWAP2 AND SWAP1 SSTORE DUP1 PUSH2 0x15AD DUP2 PUSH2 0x267C JUMP JUMPDEST SWAP2 POP POP PUSH2 0x156B JUMP JUMPDEST POP PUSH1 0x40 MLOAD PUSH32 0xC0A4569BDAA5BAE3DABCABE5AC5C590863CAD4BAD443B5D2051D1D200F9FA4DA SWAP1 PUSH0 SWAP1 LOG1 JUMP JUMPDEST PUSH1 0xD SLOAD PUSH1 0x1 PUSH1 0x1 PUSH1 0xA0 SHL SUB AND CALLER EQ PUSH2 0x160A JUMPI PUSH1 0x40 MLOAD PUSH3 0x461BCD PUSH1 0xE5 SHL DUP2 MSTORE PUSH1 0x4 ADD PUSH2 0x920 SWAP1 PUSH2 0x2605 JUMP JUMPDEST PUSH0 PUSH2 0x1613 PUSH2 0x1D20 JUMP JUMPDEST SWAP1 POP DUP1 PUSH0 SUB PUSH2 0x161F JUMPI POP JUMP JUMPDEST PUSH0 DUP2 PUSH2 0x162D PUSH1 0x9 PUSH1 0xA PUSH2 0x27F4 JUMP JUMPDEST PUSH1 0xF SLOAD PUSH2 0x1644 SWAP2 SWAP1 PUSH1 0x1 PUSH1 0x1 PUSH1 0xA0 SHL SUB AND BALANCE PUSH2 0x26A7 JUMP JUMPDEST PUSH2 0x164E SWAP2 SWAP1 PUSH2 0x2802 JUMP JUMPDEST PUSH1 0xC SLOAD SWAP1 SWAP2 POP PUSH0 SWAP1 PUSH2 0x1662 SWAP1 PUSH1 0x1 SWAP1 PUSH2 0x2815 JUMP JUMPDEST SWAP1 POP JUMPDEST PUSH1 0xF SLOAD PUSH1 0xC DUP1 SLOAD PUSH1 0x1 PUSH1 0x1 PUSH1 0xA0 SHL SUB SWAP1 SWAP3 AND SWAP2 PUSH4 0xAF95D4D3 SWAP2 SWAP1 DUP5 SWAP1 DUP2 LT PUSH2 0x168F JUMPI PUSH2 0x168F PUSH2 0x26E5 JUMP JUMPDEST PUSH0 SWAP2 DUP3 MSTORE PUSH1 0x20 SWAP1 SWAP2 KECCAK256 ADD SLOAD PUSH1 0x40 MLOAD PUSH1 0xE0 DUP4 SWAP1 SHL PUSH1 0x1 PUSH1 0x1 PUSH1 0xE0 SHL SUB NOT AND DUP2 MSTORE PUSH1 0x1 PUSH1 0x1 PUSH1 0xA0 SHL SUB SWAP1 SWAP2 AND PUSH1 0x4 DUP3 ADD MSTORE PUSH1 0x24 DUP2 ADD DUP6 SWAP1 MSTORE PUSH1 0x44 ADD PUSH0 PUSH1 0x40 MLOAD DUP1 DUP4 SUB DUP2 PUSH0 DUP8 DUP1 EXTCODESIZE ISZERO DUP1 ISZERO PUSH2 0x16DF JUMPI PUSH0 DUP1 REVERT JUMPDEST POP GAS CALL ISZERO DUP1 ISZERO PUSH2 0x16F1 JUMPI RETURNDATASIZE PUSH0 DUP1 RETURNDATACOPY RETURNDATASIZE PUSH0 REVERT JUMPDEST POP POP POP POP DUP1 PUSH0 SUB ISZERO PUSH2 0x170F JUMPI DUP1 PUSH2 0x1707 DUP2 PUSH2 0x2828 JUMP JUMPDEST SWAP2 POP POP PUSH2 0x1665 JUMP JUMPDEST POP POP POP JUMP JUMPDEST PUSH1 0xD SLOAD PUSH1 0x1 PUSH1 0x1 PUSH1 0xA0 SHL SUB AND CALLER EQ PUSH2 0x173E JUMPI PUSH1 0x40 MLOAD PUSH3 0x461BCD PUSH1 0xE5 SHL DUP2 MSTORE PUSH1 0x4 ADD PUSH2 0x920 SWAP1 PUSH2 0x2605 JUMP JUMPDEST PUSH1 0xB DUP1 SLOAD PUSH1 0xFF NOT AND PUSH1 0x1 OR SWAP1 SSTORE TIMESTAMP PUSH1 0x4 DUP2 SWAP1 SSTORE PUSH1 0x40 MLOAD PUSH32 0x90E4E1076E66D07AAD698457E7A86B4425881AB1586D63C00BA753F88757E9A8 SWAP2 PUSH2 0x1534 SWAP2 SWAP1 DUP2 MSTORE PUSH1 0x20 ADD SWAP1 JUMP JUMPDEST PUSH1 0xE SLOAD PUSH1 0x40 DUP1 MLOAD PUSH4 0xA8995DEB PUSH1 0xE0 SHL DUP2 MSTORE SWAP1 MLOAD PUSH0 SWAP3 PUSH1 0x1 PUSH1 0x1 PUSH1 0xA0 SHL SUB AND SWAP2 PUSH4 0xA8995DEB SWAP2 PUSH1 0x4 DUP1 DUP4 ADD SWAP3 PUSH1 0x20 SWAP3 SWAP2 SWAP1 DUP3 SWAP1 SUB ADD DUP2 DUP7 GAS STATICCALL ISZERO DUP1 ISZERO PUSH2 0x17CA JUMPI RETURNDATASIZE PUSH0 DUP1 RETURNDATACOPY RETURNDATASIZE PUSH0 REVERT JUMPDEST POP POP POP POP PUSH1 0x40 MLOAD RETURNDATASIZE PUSH1 0x1F NOT PUSH1 0x1F DUP3 ADD AND DUP3 ADD DUP1 PUSH1 0x40 MSTORE POP DUP2 ADD SWAP1 PUSH2 0x17EE SWAP2 SWAP1 PUSH2 0x283D JUMP JUMPDEST SWAP1 POP SWAP1 JUMP JUMPDEST PUSH1 0xF SLOAD PUSH1 0x40 MLOAD PUSH4 0x60D72F39 PUSH1 0xE1 SHL DUP2 MSTORE PUSH1 0x4 DUP2 ADD DUP4 SWAP1 MSTORE PUSH0 SWAP2 PUSH1 0x1 PUSH1 0x1 PUSH1 0xA0 SHL SUB AND SWAP1 PUSH4 0xC1AE5E72 SWAP1 PUSH1 0x24 ADD PUSH2 0x8B1 JUMP JUMPDEST PUSH1 0xD SLOAD PUSH1 0x1 PUSH1 0x1 PUSH1 0xA0 SHL SUB AND CALLER EQ PUSH2 0x184E JUMPI PUSH1 0x40 MLOAD PUSH3 0x461BCD PUSH1 0xE5 SHL DUP2 MSTORE PUSH1 0x4 ADD PUSH2 0x920 SWAP1 PUSH2 0x2605 JUMP JUMPDEST PUSH1 0x1 DUP4 LT ISZERO DUP1 ISZERO PUSH2 0x18D2 JUMPI POP PUSH1 0xE PUSH0 SWAP1 SLOAD SWAP1 PUSH2 0x100 EXP SWAP1 DIV PUSH1 0x1 PUSH1 0x1 PUSH1 0xA0 SHL SUB AND PUSH1 0x1 PUSH1 0x1 PUSH1 0xA0 SHL SUB AND PUSH4 0xD5ABEB01 PUSH1 0x40 MLOAD DUP2 PUSH4 0xFFFFFFFF AND PUSH1 0xE0 SHL DUP2 MSTORE PUSH1 0x4 ADD PUSH1 0x20 PUSH1 0x40 MLOAD DUP1 DUP4 SUB DUP2 DUP7 GAS STATICCALL ISZERO DUP1 ISZERO PUSH2 0x18AA JUMPI RETURNDATASIZE PUSH0 DUP1 RETURNDATACOPY RETURNDATASIZE PUSH0 REVERT JUMPDEST POP POP POP POP PUSH1 0x40 MLOAD RETURNDATASIZE PUSH1 0x1F NOT PUSH1 0x1F DUP3 ADD AND DUP3 ADD DUP1 PUSH1 0x40 MSTORE POP DUP2 ADD SWAP1 PUSH2 0x18CE SWAP2 SWAP1 PUSH2 0x283D JUMP JUMPDEST DUP4 GT ISZERO JUMPDEST PUSH2 0x1915 JUMPI PUSH1 0x40 MLOAD PUSH3 0x461BCD PUSH1 0xE5 SHL DUP2 MSTORE PUSH1 0x20 PUSH1 0x4 DUP3 ADD MSTORE PUSH1 0x14 PUSH1 0x24 DUP3 ADD MSTORE PUSH20 0x24B73B30B634B21039BA30B93A1034B73232BC17 PUSH1 0x61 SHL PUSH1 0x44 DUP3 ADD MSTORE PUSH1 0x64 ADD PUSH2 0x920 JUMP JUMPDEST PUSH0 DUP3 GT PUSH2 0x196F JUMPI PUSH1 0x40 MLOAD PUSH3 0x461BCD PUSH1 0xE5 SHL DUP2 MSTORE PUSH1 0x20 PUSH1 0x4 DUP3 ADD MSTORE PUSH1 0x22 PUSH1 0x24 DUP3 ADD MSTORE PUSH32 0x42617463682073697A65206D7573742062652067726561746572207468616E20 PUSH1 0x44 DUP3 ADD MSTORE PUSH2 0x1817 PUSH1 0xF1 SHL PUSH1 0x64 DUP3 ADD MSTORE PUSH1 0x84 ADD PUSH2 0x920 JUMP JUMPDEST PUSH0 PUSH1 0x1 PUSH2 0x197C DUP5 DUP7 PUSH2 0x2694 JUMP JUMPDEST PUSH2 0x1986 SWAP2 SWAP1 PUSH2 0x2815 JUMP JUMPDEST SWAP1 POP PUSH1 0xE PUSH0 SWAP1 SLOAD SWAP1 PUSH2 0x100 EXP SWAP1 DIV PUSH1 0x1 PUSH1 0x1 PUSH1 0xA0 SHL SUB AND PUSH1 0x1 PUSH1 0x1 PUSH1 0xA0 SHL SUB AND PUSH4 0xD5ABEB01 PUSH1 0x40 MLOAD DUP2 PUSH4 0xFFFFFFFF AND PUSH1 0xE0 SHL DUP2 MSTORE PUSH1 0x4 ADD PUSH1 0x20 PUSH1 0x40 MLOAD DUP1 DUP4 SUB DUP2 DUP7 GAS STATICCALL ISZERO DUP1 ISZERO PUSH2 0x19D8 JUMPI RETURNDATASIZE PUSH0 DUP1 RETURNDATACOPY RETURNDATASIZE PUSH0 REVERT JUMPDEST POP POP POP POP PUSH1 0x40 MLOAD RETURNDATASIZE PUSH1 0x1F NOT PUSH1 0x1F DUP3 ADD AND DUP3 ADD DUP1 PUSH1 0x40 MSTORE POP DUP2 ADD SWAP1 PUSH2 0x19FC SWAP2 SWAP1 PUSH2 0x283D JUMP JUMPDEST DUP2 GT ISZERO PUSH2 0x1A4B JUMPI PUSH1 0x40 MLOAD PUSH3 0x461BCD PUSH1 0xE5 SHL DUP2 MSTORE PUSH1 0x20 PUSH1 0x4 DUP3 ADD MSTORE PUSH1 0x1C PUSH1 0x24 DUP3 ADD MSTORE PUSH32 0x456E6420696E6465782065786365656473206D6178537570706C792E00000000 PUSH1 0x44 DUP3 ADD MSTORE PUSH1 0x64 ADD PUSH2 0x920 JUMP JUMPDEST DUP4 JUMPDEST DUP2 DUP2 GT PUSH2 0x1ADC JUMPI PUSH0 DUP2 DUP2 MSTORE PUSH1 0x15 PUSH1 0x20 MSTORE PUSH1 0x40 SWAP1 KECCAK256 SLOAD PUSH1 0xFF AND PUSH2 0x1ACA JUMPI PUSH0 PUSH2 0x1A74 DUP7 DUP4 PUSH2 0x2815 JUMP JUMPDEST SWAP1 POP DUP4 DUP2 DUP2 MLOAD DUP2 LT PUSH2 0x1A88 JUMPI PUSH2 0x1A88 PUSH2 0x26E5 JUMP JUMPDEST PUSH1 0x20 MUL PUSH1 0x20 ADD ADD MLOAD PUSH1 0x1A PUSH0 DUP5 DUP2 MSTORE PUSH1 0x20 ADD SWAP1 DUP2 MSTORE PUSH1 0x20 ADD PUSH0 KECCAK256 SWAP1 PUSH1 0x5 PUSH2 0x1AAF SWAP3 SWAP2 SWAP1 PUSH2 0x22BC JUMP JUMPDEST POP POP PUSH0 DUP2 DUP2 MSTORE PUSH1 0x15 PUSH1 0x20 MSTORE PUSH1 0x40 SWAP1 KECCAK256 DUP1 SLOAD PUSH1 0xFF NOT AND PUSH1 0x1 OR SWAP1 SSTORE JUMPDEST DUP1 PUSH2 0x1AD4 DUP2 PUSH2 0x267C JUMP JUMPDEST SWAP2 POP POP PUSH2 0x1A4D JUMP JUMPDEST POP POP POP POP POP JUMP JUMPDEST PUSH1 0xD SLOAD PUSH1 0x1 PUSH1 0x1 PUSH1 0xA0 SHL SUB AND CALLER EQ PUSH2 0x1B0D JUMPI PUSH1 0x40 MLOAD PUSH3 0x461BCD PUSH1 0xE5 SHL DUP2 MSTORE PUSH1 0x4 ADD PUSH2 0x920 SWAP1 PUSH2 0x2605 JUMP JUMPDEST PUSH1 0x1 JUMPDEST PUSH2 0x1B18 PUSH2 0x1783 JUMP JUMPDEST DUP2 GT PUSH2 0x1B45 JUMPI PUSH0 DUP2 DUP2 MSTORE PUSH1 0x14 PUSH1 0x20 MSTORE PUSH1 0x40 SWAP1 KECCAK256 DUP1 SLOAD PUSH1 0xFF NOT AND SWAP1 SSTORE DUP1 PUSH2 0x1B3D DUP2 PUSH2 0x267C JUMP JUMPDEST SWAP2 POP POP PUSH2 0x1B10 JUMP JUMPDEST POP JUMP JUMPDEST PUSH1 0xD SLOAD PUSH1 0x1 PUSH1 0x1 PUSH1 0xA0 SHL SUB AND CALLER EQ PUSH2 0x1B72 JUMPI PUSH1 0x40 MLOAD PUSH3 0x461BCD PUSH1 0xE5 SHL DUP2 MSTORE PUSH1 0x4 ADD PUSH2 0x920 SWAP1 PUSH2 0x2605 JUMP JUMPDEST PUSH1 0x2 PUSH1 0x1 SLOAD LT ISZERO DUP1 ISZERO PUSH2 0x1B88 JUMPI POP PUSH2 0x1B88 PUSH2 0xADA JUMP JUMPDEST PUSH2 0x1B90 JUMPI PUSH0 DUP1 REVERT JUMPDEST PUSH2 0x1B98 PUSH2 0x8F6 JUMP JUMPDEST PUSH0 PUSH1 0x1 JUMPDEST PUSH1 0x1 SLOAD DUP2 GT PUSH2 0x1C63 JUMPI PUSH0 DUP2 DUP2 MSTORE PUSH1 0x12 PUSH1 0x20 MSTORE PUSH1 0x40 SWAP1 KECCAK256 SLOAD PUSH1 0xFF AND DUP1 ISZERO PUSH2 0x1BD0 JUMPI POP PUSH0 DUP2 DUP2 MSTORE PUSH1 0x14 PUSH1 0x20 MSTORE PUSH1 0x40 SWAP1 KECCAK256 SLOAD PUSH1 0xFF AND ISZERO JUMPDEST DUP1 ISZERO PUSH2 0x1BEA JUMPI POP PUSH0 DUP2 DUP2 MSTORE PUSH1 0x13 PUSH1 0x20 MSTORE PUSH1 0x40 SWAP1 KECCAK256 SLOAD PUSH1 0xFF AND ISZERO JUMPDEST ISZERO PUSH2 0x1C51 JUMPI DUP2 PUSH0 SUB PUSH2 0x1BFE JUMPI DUP1 SWAP2 POP PUSH2 0x1C51 JUMP JUMPDEST PUSH0 PUSH2 0x1C11 DUP3 PUSH2 0x1C0C DUP6 PUSH2 0x1414 JUMP JUMPDEST PUSH2 0x2132 JUMP JUMPDEST SWAP1 POP DUP1 ISZERO PUSH2 0x1C2C JUMPI PUSH2 0x1C23 DUP4 DUP3 PUSH2 0xB60 JUMP JUMPDEST PUSH0 SWAP3 SWAP2 POP PUSH2 0x1C4F JUMP JUMPDEST PUSH0 PUSH2 0x1C36 DUP4 PUSH2 0x2246 JUMP JUMPDEST SWAP1 POP DUP1 ISZERO PUSH2 0x1C4D JUMPI PUSH2 0x1C48 DUP5 DUP3 PUSH2 0xB60 JUMP JUMPDEST PUSH0 SWAP4 SWAP3 POP JUMPDEST POP JUMPDEST POP JUMPDEST DUP1 PUSH2 0x1C5B DUP2 PUSH2 0x267C JUMP JUMPDEST SWAP2 POP POP PUSH2 0x1B9C JUMP JUMPDEST POP PUSH1 0x2 SLOAD PUSH2 0x1C6F PUSH2 0x1D20 JUMP JUMPDEST GT PUSH2 0x1CD1 JUMPI PUSH2 0x1C7C PUSH2 0x1D98 JUMP JUMPDEST PUSH2 0x1C84 PUSH2 0x15E0 JUMP JUMPDEST PUSH2 0x1C8C PUSH2 0x153E JUMP JUMPDEST PUSH2 0x1C94 PUSH2 0x1384 JUMP JUMPDEST PUSH0 PUSH1 0x6 DUP2 SWAP1 SSTORE PUSH1 0xB DUP1 SLOAD PUSH2 0xFF00 NOT AND PUSH2 0x100 OR SWAP1 SSTORE PUSH1 0x40 MLOAD PUSH32 0x4957BAACFCCF45D9F54657DC86692B68BEA7155D1951BEA16F81D430C5864F87 SWAP2 SWAP1 LOG1 JUMPDEST PUSH1 0x6 DUP1 SLOAD SWAP1 PUSH0 PUSH2 0x1CE0 DUP4 PUSH2 0x267C JUMP JUMPDEST SWAP2 SWAP1 POP SSTORE POP PUSH2 0x1CED PUSH2 0x14D8 JUMP JUMPDEST PUSH2 0x1CF5 PUSH2 0x1AE3 JUMP JUMPDEST PUSH1 0x40 MLOAD PUSH32 0xF44CF147798F94C1025F83FF5A888484A8F7DE8328F57E099895C0DC605924A SWAP1 PUSH0 SWAP1 LOG1 POP JUMP JUMPDEST PUSH0 DUP1 PUSH1 0x1 JUMPDEST PUSH1 0x1 SLOAD DUP2 GT PUSH2 0x1D63 JUMPI PUSH0 DUP2 DUP2 MSTORE PUSH1 0x13 PUSH1 0x20 MSTORE PUSH1 0x40 SWAP1 KECCAK256 SLOAD PUSH1 0xFF AND PUSH2 0x1D51 JUMPI DUP2 PUSH2 0x1D4D DUP2 PUSH2 0x267C JUMP JUMPDEST SWAP3 POP POP JUMPDEST DUP1 PUSH2 0x1D5B DUP2 PUSH2 0x267C JUMP JUMPDEST SWAP2 POP POP PUSH2 0x1D25 JUMP JUMPDEST POP SWAP2 SWAP1 POP JUMP JUMPDEST PUSH1 0xD SLOAD PUSH1 0x1 PUSH1 0x1 PUSH1 0xA0 SHL SUB AND CALLER EQ PUSH2 0x1D93 JUMPI PUSH1 0x40 MLOAD PUSH3 0x461BCD PUSH1 0xE5 SHL DUP2 MSTORE PUSH1 0x4 ADD PUSH2 0x920 SWAP1 PUSH2 0x2605 JUMP JUMPDEST PUSH1 0x5 SSTORE JUMP JUMPDEST PUSH1 0xD SLOAD PUSH1 0x1 PUSH1 0x1 PUSH1 0xA0 SHL SUB AND CALLER EQ PUSH2 0x1DC2 JUMPI PUSH1 0x40 MLOAD PUSH3 0x461BCD PUSH1 0xE5 SHL DUP2 MSTORE PUSH1 0x4 ADD PUSH2 0x920 SWAP1 PUSH2 0x2605 JUMP JUMPDEST PUSH1 0x1 JUMPDEST PUSH1 0x1 SLOAD DUP2 GT PUSH2 0x1B45 JUMPI PUSH0 DUP2 DUP2 MSTORE PUSH1 0x13 PUSH1 0x20 MSTORE PUSH1 0x40 SWAP1 KECCAK256 SLOAD PUSH1 0xFF AND PUSH2 0x1E3E JUMPI PUSH1 0xC PUSH2 0x1DEE DUP3 PUSH2 0x1414 JUMP JUMPDEST DUP2 SLOAD PUSH1 0x1 DUP2 ADD DUP4 SSTORE PUSH0 SWAP3 DUP4 MSTORE PUSH1 0x20 DUP1 DUP5 KECCAK256 SWAP1 SWAP2 ADD DUP1 SLOAD PUSH1 0x1 PUSH1 0x1 PUSH1 0xA0 SHL SUB NOT AND PUSH1 0x1 PUSH1 0x1 PUSH1 0xA0 SHL SUB SWAP4 SWAP1 SWAP4 AND SWAP3 SWAP1 SWAP3 OR SWAP1 SWAP2 SSTORE DUP3 DUP3 MSTORE PUSH1 0x1D SWAP1 MSTORE PUSH1 0x40 DUP2 KECCAK256 DUP1 SLOAD SWAP2 PUSH2 0x1E38 DUP4 PUSH2 0x267C JUMP JUMPDEST SWAP2 SWAP1 POP SSTORE POP JUMPDEST DUP1 PUSH2 0x1E48 DUP2 PUSH2 0x267C JUMP JUMPDEST SWAP2 POP POP PUSH2 0x1DC5 JUMP JUMPDEST PUSH1 0x40 MLOAD DUP1 PUSH1 0xC0 ADD PUSH1 0x40 MSTORE DUP1 DUP4 DUP2 MSTORE PUSH1 0x20 ADD DUP3 PUSH1 0x2 DUP2 GT ISZERO PUSH2 0x1E73 JUMPI PUSH2 0x1E73 PUSH2 0x2325 JUMP JUMPDEST DUP2 MSTORE PUSH1 0x20 ADD PUSH2 0x1E81 DUP6 PUSH2 0x884 JUMP JUMPDEST ISZERO ISZERO DUP2 MSTORE PUSH1 0x20 ADD PUSH2 0x1E91 DUP6 PUSH2 0xB2F JUMP JUMPDEST ISZERO ISZERO DUP2 MSTORE PUSH1 0x20 ADD PUSH2 0x1EA1 DUP6 PUSH2 0x17F3 JUMP JUMPDEST ISZERO ISZERO DUP2 MSTORE PUSH1 0x20 ADD PUSH2 0x1EB1 DUP6 PUSH2 0x147F JUMP JUMPDEST ISZERO ISZERO SWAP1 MSTORE PUSH0 DUP5 DUP2 MSTORE PUSH1 0x10 PUSH1 0x20 SWAP1 DUP2 MSTORE PUSH1 0x40 SWAP1 SWAP2 KECCAK256 DUP3 MLOAD DUP2 SSTORE SWAP1 DUP3 ADD MLOAD PUSH1 0x1 DUP1 DUP4 ADD DUP1 SLOAD SWAP1 SWAP2 PUSH1 0xFF NOT SWAP1 SWAP2 AND SWAP1 DUP4 PUSH1 0x2 DUP2 GT ISZERO PUSH2 0x1EEF JUMPI PUSH2 0x1EEF PUSH2 0x2325 JUMP JUMPDEST MUL OR SWAP1 SSTORE POP PUSH1 0x40 DUP3 ADD MLOAD PUSH1 0x1 SWAP1 SWAP2 ADD DUP1 SLOAD PUSH1 0x60 DUP5 ADD MLOAD PUSH1 0x80 DUP6 ADD MLOAD PUSH1 0xA0 SWAP1 SWAP6 ADD MLOAD ISZERO ISZERO PUSH5 0x100000000 MUL PUSH5 0xFF00000000 NOT SWAP6 ISZERO ISZERO PUSH4 0x1000000 MUL SWAP6 SWAP1 SWAP6 AND PUSH5 0xFFFF000000 NOT SWAP2 ISZERO ISZERO PUSH3 0x10000 MUL PUSH3 0xFF0000 NOT SWAP6 ISZERO ISZERO PUSH2 0x100 MUL SWAP6 SWAP1 SWAP6 AND PUSH3 0xFFFF00 NOT SWAP1 SWAP4 AND SWAP3 SWAP1 SWAP3 OR SWAP4 SWAP1 SWAP4 OR SWAP3 SWAP1 SWAP3 AND SWAP2 SWAP1 SWAP2 OR SWAP2 SWAP1 SWAP2 OR SWAP1 SSTORE PUSH0 DUP1 DUP3 PUSH1 0x2 DUP2 GT ISZERO PUSH2 0x1F7E JUMPI PUSH2 0x1F7E PUSH2 0x2325 JUMP JUMPDEST EQ PUSH2 0x1FA9 JUMPI PUSH1 0x1 DUP3 PUSH1 0x2 DUP2 GT ISZERO PUSH2 0x1F97 JUMPI PUSH2 0x1F97 PUSH2 0x2325 JUMP JUMPDEST EQ PUSH2 0x1FA3 JUMPI PUSH1 0x2 PUSH2 0x1FAC JUMP JUMPDEST PUSH0 PUSH2 0x1FAC JUMP JUMPDEST PUSH1 0x1 JUMPDEST SWAP1 POP PUSH1 0x40 MLOAD DUP1 PUSH1 0xC0 ADD PUSH1 0x40 MSTORE DUP1 DUP6 DUP2 MSTORE PUSH1 0x20 ADD DUP3 PUSH1 0x2 DUP2 GT ISZERO PUSH2 0x1FD1 JUMPI PUSH2 0x1FD1 PUSH2 0x2325 JUMP JUMPDEST DUP2 MSTORE PUSH1 0x20 ADD PUSH2 0x1FDF DUP6 PUSH2 0x884 JUMP JUMPDEST ISZERO ISZERO DUP2 MSTORE PUSH1 0x20 ADD PUSH2 0x1FEF DUP6 PUSH2 0xB2F JUMP JUMPDEST ISZERO ISZERO DUP2 MSTORE PUSH1 0x20 ADD PUSH2 0x1FFF DUP6 PUSH2 0x17F3 JUMP JUMPDEST ISZERO ISZERO DUP2 MSTORE PUSH1 0x20 ADD PUSH2 0x200F DUP6 PUSH2 0x147F JUMP JUMPDEST ISZERO ISZERO SWAP1 MSTORE PUSH0 DUP5 DUP2 MSTORE PUSH1 0x10 PUSH1 0x20 SWAP1 DUP2 MSTORE PUSH1 0x40 SWAP1 SWAP2 KECCAK256 DUP3 MLOAD DUP2 SSTORE SWAP1 DUP3 ADD MLOAD PUSH1 0x1 DUP1 DUP4 ADD DUP1 SLOAD SWAP1 SWAP2 PUSH1 0xFF NOT SWAP1 SWAP2 AND SWAP1 DUP4 PUSH1 0x2 DUP2 GT ISZERO PUSH2 0x204D JUMPI PUSH2 0x204D PUSH2 0x2325 JUMP JUMPDEST MUL OR SWAP1 SSTORE POP PUSH1 0x40 DUP3 ADD MLOAD PUSH1 0x1 SWAP1 SWAP2 ADD DUP1 SLOAD PUSH1 0x60 DUP5 ADD MLOAD PUSH1 0x80 DUP6 ADD MLOAD PUSH1 0xA0 SWAP1 SWAP6 ADD MLOAD ISZERO ISZERO PUSH5 0x100000000 MUL PUSH5 0xFF00000000 NOT SWAP6 ISZERO ISZERO PUSH4 0x1000000 MUL SWAP6 SWAP1 SWAP6 AND PUSH5 0xFFFF000000 NOT SWAP2 ISZERO ISZERO PUSH3 0x10000 MUL PUSH3 0xFF0000 NOT SWAP6 ISZERO ISZERO PUSH2 0x100 MUL SWAP6 SWAP1 SWAP6 AND PUSH3 0xFFFF00 NOT SWAP1 SWAP4 AND SWAP3 SWAP1 SWAP3 OR SWAP4 SWAP1 SWAP4 OR SWAP3 SWAP1 SWAP3 AND SWAP2 SWAP1 SWAP2 OR SWAP2 SWAP1 SWAP2 OR SWAP1 SSTORE POP POP POP POP JUMP JUMPDEST PUSH1 0xF SLOAD PUSH1 0x40 MLOAD PUSH4 0x9EADBF5 PUSH1 0xE0 SHL DUP2 MSTORE PUSH1 0x4 DUP2 ADD DUP5 SWAP1 MSTORE PUSH1 0x24 DUP2 ADD DUP4 SWAP1 MSTORE PUSH1 0x1 PUSH1 0x1 PUSH1 0xA0 SHL SUB SWAP1 SWAP2 AND SWAP1 PUSH4 0x9EADBF5 SWAP1 PUSH1 0x44 ADD PUSH0 PUSH1 0x40 MLOAD DUP1 DUP4 SUB DUP2 PUSH0 DUP8 DUP1 EXTCODESIZE ISZERO DUP1 ISZERO PUSH2 0x2118 JUMPI PUSH0 DUP1 REVERT JUMPDEST POP GAS CALL ISZERO DUP1 ISZERO PUSH2 0x212A JUMPI RETURNDATASIZE PUSH0 DUP1 RETURNDATACOPY RETURNDATASIZE PUSH0 REVERT JUMPDEST POP POP POP POP POP POP JUMP JUMPDEST PUSH0 DUP1 JUMPDEST PUSH1 0x5 DUP2 LT ISZERO PUSH2 0x223D JUMPI PUSH1 0x1 SLOAD PUSH1 0x40 DUP1 MLOAD TIMESTAMP PUSH1 0x20 DUP3 ADD MSTORE SWAP1 DUP2 ADD DUP7 SWAP1 MSTORE PUSH0 SWAP2 SWAP1 PUSH1 0x60 ADD PUSH1 0x40 MLOAD PUSH1 0x20 DUP2 DUP4 SUB SUB DUP2 MSTORE SWAP1 PUSH1 0x40 MSTORE DUP1 MLOAD SWAP1 PUSH1 0x20 ADD KECCAK256 PUSH0 SHR PUSH2 0x2179 SWAP2 SWAP1 PUSH2 0x26D2 JUMP JUMPDEST PUSH2 0x2184 SWAP1 PUSH1 0x1 PUSH2 0x2694 JUMP JUMPDEST PUSH0 DUP2 DUP2 MSTORE PUSH1 0x12 PUSH1 0x20 MSTORE PUSH1 0x40 SWAP1 KECCAK256 SLOAD SWAP1 SWAP2 POP PUSH1 0xFF AND DUP1 ISZERO PUSH2 0x21B2 JUMPI POP PUSH0 DUP2 DUP2 MSTORE PUSH1 0x14 PUSH1 0x20 MSTORE PUSH1 0x40 SWAP1 KECCAK256 SLOAD PUSH1 0xFF AND ISZERO JUMPDEST DUP1 ISZERO PUSH2 0x21CC JUMPI POP PUSH0 DUP2 DUP2 MSTORE PUSH1 0x13 PUSH1 0x20 MSTORE PUSH1 0x40 SWAP1 KECCAK256 SLOAD PUSH1 0xFF AND ISZERO JUMPDEST DUP1 ISZERO PUSH2 0x21F2 JUMPI POP DUP4 PUSH1 0x1 PUSH1 0x1 PUSH1 0xA0 SHL SUB AND PUSH2 0x21E6 DUP3 PUSH2 0x1414 JUMP JUMPDEST PUSH1 0x1 PUSH1 0x1 PUSH1 0xA0 SHL SUB AND EQ ISZERO JUMPDEST DUP1 ISZERO PUSH2 0x221C JUMPI POP PUSH2 0x2204 DUP6 PUSH1 0x1 PUSH2 0x2694 JUMP JUMPDEST DUP2 EQ ISZERO DUP1 PUSH2 0x221C JUMPI POP PUSH2 0x2218 PUSH1 0x1 DUP7 PUSH2 0x2815 JUMP JUMPDEST DUP2 EQ ISZERO JUMPDEST ISZERO PUSH2 0x222A JUMPI SWAP2 POP PUSH2 0x8F0 SWAP1 POP JUMP JUMPDEST POP DUP1 PUSH2 0x2235 DUP2 PUSH2 0x267C JUMP JUMPDEST SWAP2 POP POP PUSH2 0x2135 JUMP JUMPDEST POP PUSH0 SWAP4 SWAP3 POP POP POP JUMP JUMPDEST PUSH0 DUP2 JUMPDEST PUSH1 0x1 SLOAD DUP2 GT PUSH2 0x22B4 JUMPI PUSH0 DUP2 DUP2 MSTORE PUSH1 0x12 PUSH1 0x20 MSTORE PUSH1 0x40 SWAP1 KECCAK256 SLOAD PUSH1 0xFF AND DUP1 ISZERO PUSH2 0x227D JUMPI POP PUSH0 DUP2 DUP2 MSTORE PUSH1 0x14 PUSH1 0x20 MSTORE PUSH1 0x40 SWAP1 KECCAK256 SLOAD PUSH1 0xFF AND ISZERO JUMPDEST DUP1 ISZERO PUSH2 0x2297 JUMPI POP PUSH0 DUP2 DUP2 MSTORE PUSH1 0x13 PUSH1 0x20 MSTORE PUSH1 0x40 SWAP1 KECCAK256 SLOAD PUSH1 0xFF AND ISZERO JUMPDEST ISZERO PUSH2 0x22A2 JUMPI SWAP3 SWAP2 POP POP JUMP JUMPDEST DUP1 PUSH2 0x22AC DUP2 PUSH2 0x267C JUMP JUMPDEST SWAP2 POP POP PUSH2 0x2249 JUMP JUMPDEST POP PUSH0 SWAP3 SWAP2 POP POP JUMP JUMPDEST DUP3 PUSH1 0x5 DUP2 ADD SWAP3 DUP3 ISZERO PUSH2 0x22EA JUMPI SWAP2 PUSH1 0x20 MUL DUP3 ADD JUMPDEST DUP3 DUP2 GT ISZERO PUSH2 0x22EA JUMPI DUP3 MLOAD DUP3 SSTORE SWAP2 PUSH1 0x20 ADD SWAP2 SWAP1 PUSH1 0x1 ADD SWAP1 PUSH2 0x22CF JUMP JUMPDEST POP PUSH2 0x22F6 SWAP3 SWAP2 POP PUSH2 0x22FA JUMP JUMPDEST POP SWAP1 JUMP JUMPDEST JUMPDEST DUP1 DUP3 GT ISZERO PUSH2 0x22F6 JUMPI PUSH0 DUP2 SSTORE PUSH1 0x1 ADD PUSH2 0x22FB JUMP JUMPDEST PUSH0 PUSH1 0x20 DUP3 DUP5 SUB SLT ISZERO PUSH2 0x231E JUMPI PUSH0 DUP1 REVERT JUMPDEST POP CALLDATALOAD SWAP2 SWAP1 POP JUMP JUMPDEST PUSH4 0x4E487B71 PUSH1 0xE0 SHL PUSH0 MSTORE PUSH1 0x21 PUSH1 0x4 MSTORE PUSH1 0x24 PUSH0 REVERT JUMPDEST PUSH1 0x3 DUP2 LT PUSH2 0x2355 JUMPI PUSH4 0x4E487B71 PUSH1 0xE0 SHL PUSH0 MSTORE PUSH1 0x21 PUSH1 0x4 MSTORE PUSH1 0x24 PUSH0 REVERT JUMPDEST SWAP1 MSTORE JUMP JUMPDEST DUP2 MLOAD DUP2 MSTORE PUSH1 0x20 DUP1 DUP4 ADD MLOAD PUSH1 0xC0 DUP4 ADD SWAP2 PUSH2 0x2374 SWAP1 DUP5 ADD DUP3 PUSH2 0x2339 JUMP JUMPDEST POP PUSH1 0x40 DUP4 ADD MLOAD ISZERO ISZERO PUSH1 0x40 DUP4 ADD MSTORE PUSH1 0x60 DUP4 ADD MLOAD ISZERO ISZERO PUSH1 0x60 DUP4 ADD MSTORE PUSH1 0x80 DUP4 ADD MLOAD ISZERO ISZERO PUSH1 0x80 DUP4 ADD MSTORE PUSH1 0xA0 DUP4 ADD MLOAD ISZERO ISZERO PUSH1 0xA0 DUP4 ADD MSTORE SWAP3 SWAP2 POP POP JUMP JUMPDEST PUSH1 0x20 DUP1 DUP3 MSTORE DUP3 MLOAD DUP3 DUP3 ADD DUP2 SWAP1 MSTORE PUSH0 SWAP2 SWAP1 DUP5 DUP3 ADD SWAP1 PUSH1 0x40 DUP6 ADD SWAP1 DUP5 JUMPDEST DUP2 DUP2 LT ISZERO PUSH2 0x23E2 JUMPI DUP4 MLOAD DUP4 MSTORE SWAP3 DUP5 ADD SWAP3 SWAP2 DUP5 ADD SWAP2 PUSH1 0x1 ADD PUSH2 0x23C6 JUMP JUMPDEST POP SWAP1 SWAP7 SWAP6 POP POP POP POP POP POP JUMP JUMPDEST PUSH0 DUP1 PUSH1 0x40 DUP4 DUP6 SUB SLT ISZERO PUSH2 0x23FF JUMPI PUSH0 DUP1 REVERT JUMPDEST POP POP DUP1 CALLDATALOAD SWAP3 PUSH1 0x20 SWAP1 SWAP2 ADD CALLDATALOAD SWAP2 POP JUMP JUMPDEST PUSH1 0x1 PUSH1 0x1 PUSH1 0xA0 SHL SUB DUP2 AND DUP2 EQ PUSH2 0x1B45 JUMPI PUSH0 DUP1 REVERT JUMPDEST PUSH0 PUSH1 0x20 DUP3 DUP5 SUB SLT ISZERO PUSH2 0x2432 JUMPI PUSH0 DUP1 REVERT JUMPDEST DUP2 CALLDATALOAD PUSH2 0x243D DUP2 PUSH2 0x240E JUMP JUMPDEST SWAP4 SWAP3 POP POP POP JUMP JUMPDEST DUP7 DUP2 MSTORE PUSH1 0xC0 DUP2 ADD PUSH2 0x2458 PUSH1 0x20 DUP4 ADD DUP9 PUSH2 0x2339 JUMP JUMPDEST SWAP5 ISZERO ISZERO PUSH1 0x40 DUP3 ADD MSTORE SWAP3 ISZERO ISZERO PUSH1 0x60 DUP5 ADD MSTORE SWAP1 ISZERO ISZERO PUSH1 0x80 DUP4 ADD MSTORE ISZERO ISZERO PUSH1 0xA0 SWAP1 SWAP2 ADD MSTORE SWAP3 SWAP2 POP POP JUMP JUMPDEST PUSH4 0x4E487B71 PUSH1 0xE0 SHL PUSH0 MSTORE PUSH1 0x41 PUSH1 0x4 MSTORE PUSH1 0x24 PUSH0 REVERT JUMPDEST PUSH1 0x40 MLOAD PUSH1 0xA0 DUP2 ADD PUSH8 0xFFFFFFFFFFFFFFFF DUP2 GT DUP3 DUP3 LT OR ISZERO PUSH2 0x24B5 JUMPI PUSH2 0x24B5 PUSH2 0x247E JUMP JUMPDEST PUSH1 0x40 MSTORE SWAP1 JUMP JUMPDEST PUSH1 0x40 MLOAD PUSH1 0x1F DUP3 ADD PUSH1 0x1F NOT AND DUP2 ADD PUSH8 0xFFFFFFFFFFFFFFFF DUP2 GT DUP3 DUP3 LT OR ISZERO PUSH2 0x24E4 JUMPI PUSH2 0x24E4 PUSH2 0x247E JUMP JUMPDEST PUSH1 0x40 MSTORE SWAP2 SWAP1 POP JUMP JUMPDEST PUSH0 DUP1 PUSH0 PUSH1 0x60 DUP5 DUP7 SUB SLT ISZERO PUSH2 0x24FE JUMPI PUSH0 DUP1 REVERT JUMPDEST DUP4 CALLDATALOAD SWAP3 POP PUSH1 0x20 DUP1 DUP6 ADD CALLDATALOAD SWAP3 POP PUSH1 0x40 DUP6 ADD CALLDATALOAD PUSH8 0xFFFFFFFFFFFFFFFF DUP1 DUP3 GT ISZERO PUSH2 0x2524 JUMPI PUSH0 DUP1 REVERT JUMPDEST DUP2 DUP8 ADD SWAP2 POP PUSH1 0x1F DUP9 DUP2 DUP5 ADD SLT PUSH2 0x2538 JUMPI PUSH0 DUP1 REVERT JUMPDEST DUP3 CALLDATALOAD DUP3 DUP2 GT ISZERO PUSH2 0x254A JUMPI PUSH2 0x254A PUSH2 0x247E JUMP JUMPDEST PUSH2 0x2558 DUP6 DUP3 PUSH1 0x5 SHL ADD PUSH2 0x24BB JUMP JUMPDEST DUP2 DUP2 MSTORE DUP6 DUP2 ADD SWAP4 POP PUSH1 0xA0 SWAP2 DUP3 MUL DUP6 ADD DUP7 ADD SWAP2 DUP12 DUP4 GT ISZERO PUSH2 0x2576 JUMPI PUSH0 DUP1 REVERT JUMPDEST SWAP5 DUP7 ADD SWAP5 JUMPDEST DUP3 DUP7 LT ISZERO PUSH2 0x25D5 JUMPI DUP12 DUP5 DUP8 ADD SLT PUSH2 0x2591 JUMPI PUSH0 DUP1 DUP2 REVERT JUMPDEST PUSH2 0x2599 PUSH2 0x2492 JUMP JUMPDEST DUP1 DUP3 DUP9 ADD DUP15 DUP2 GT ISZERO PUSH2 0x25AA JUMPI PUSH0 DUP1 DUP2 REVERT JUMPDEST DUP9 JUMPDEST DUP2 DUP2 LT ISZERO PUSH2 0x25C3 JUMPI DUP1 CALLDATALOAD DUP5 MSTORE SWAP3 DUP11 ADD SWAP3 DUP11 ADD PUSH2 0x25AC JUMP JUMPDEST POP POP DUP7 MSTORE POP SWAP5 DUP6 ADD SWAP5 SWAP4 DUP7 ADD SWAP4 PUSH2 0x257B JUMP JUMPDEST POP DUP1 SWAP7 POP POP POP POP POP POP POP SWAP3 POP SWAP3 POP SWAP3 JUMP JUMPDEST PUSH0 PUSH1 0x20 DUP3 DUP5 SUB SLT ISZERO PUSH2 0x25F6 JUMPI PUSH0 DUP1 REVERT JUMPDEST DUP2 MLOAD DUP1 ISZERO ISZERO DUP2 EQ PUSH2 0x243D JUMPI PUSH0 DUP1 REVERT JUMPDEST PUSH1 0x20 DUP1 DUP3 MSTORE PUSH1 0x2F SWAP1 DUP3 ADD MSTORE PUSH32 0x4F6E6C79206D61696E74656E616E63652077616C6C65742063616E2070657266 PUSH1 0x40 DUP3 ADD MSTORE PUSH15 0x37B936903A3434B99030B1BA34B7B7 PUSH1 0x89 SHL PUSH1 0x60 DUP3 ADD MSTORE PUSH1 0x80 ADD SWAP1 JUMP JUMPDEST PUSH4 0x4E487B71 PUSH1 0xE0 SHL PUSH0 MSTORE PUSH1 0x31 PUSH1 0x4 MSTORE PUSH1 0x24 PUSH0 REVERT JUMPDEST PUSH4 0x4E487B71 PUSH1 0xE0 SHL PUSH0 MSTORE PUSH1 0x11 PUSH1 0x4 MSTORE PUSH1 0x24 PUSH0 REVERT JUMPDEST PUSH0 PUSH1 0x1 DUP3 ADD PUSH2 0x268D JUMPI PUSH2 0x268D PUSH2 0x2668 JUMP JUMPDEST POP PUSH1 0x1 ADD SWAP1 JUMP JUMPDEST DUP1 DUP3 ADD DUP1 DUP3 GT ISZERO PUSH2 0x8F0 JUMPI PUSH2 0x8F0 PUSH2 0x2668 JUMP JUMPDEST DUP1 DUP3 MUL DUP2 ISZERO DUP3 DUP3 DIV DUP5 EQ OR PUSH2 0x8F0 JUMPI PUSH2 0x8F0 PUSH2 0x2668 JUMP JUMPDEST PUSH4 0x4E487B71 PUSH1 0xE0 SHL PUSH0 MSTORE PUSH1 0x12 PUSH1 0x4 MSTORE PUSH1 0x24 PUSH0 REVERT JUMPDEST PUSH0 DUP3 PUSH2 0x26E0 JUMPI PUSH2 0x26E0 PUSH2 0x26BE JUMP JUMPDEST POP MOD SWAP1 JUMP JUMPDEST PUSH4 0x4E487B71 PUSH1 0xE0 SHL PUSH0 MSTORE PUSH1 0x32 PUSH1 0x4 MSTORE PUSH1 0x24 PUSH0 REVERT JUMPDEST PUSH0 PUSH1 0x20 DUP3 DUP5 SUB SLT ISZERO PUSH2 0x2709 JUMPI PUSH0 DUP1 REVERT JUMPDEST DUP2 MLOAD PUSH2 0x243D DUP2 PUSH2 0x240E JUMP JUMPDEST PUSH1 0x1 DUP2 DUP2 JUMPDEST DUP1 DUP6 GT ISZERO PUSH2 0x274E JUMPI DUP2 PUSH0 NOT DIV DUP3 GT ISZERO PUSH2 0x2734 JUMPI PUSH2 0x2734 PUSH2 0x2668 JUMP JUMPDEST DUP1 DUP6 AND ISZERO PUSH2 0x2741 JUMPI SWAP2 DUP2 MUL SWAP2 JUMPDEST SWAP4 DUP5 SHR SWAP4 SWAP1 DUP1 MUL SWAP1 PUSH2 0x2719 JUMP JUMPDEST POP SWAP3 POP SWAP3 SWAP1 POP JUMP JUMPDEST PUSH0 DUP3 PUSH2 0x2764 JUMPI POP PUSH1 0x1 PUSH2 0x8F0 JUMP JUMPDEST DUP2 PUSH2 0x2770 JUMPI POP PUSH0 PUSH2 0x8F0 JUMP JUMPDEST DUP2 PUSH1 0x1 DUP2 EQ PUSH2 0x2786 JUMPI PUSH1 0x2 DUP2 EQ PUSH2 0x2790 JUMPI PUSH2 0x27AC JUMP JUMPDEST PUSH1 0x1 SWAP2 POP POP PUSH2 0x8F0 JUMP JUMPDEST PUSH1 0xFF DUP5 GT ISZERO PUSH2 0x27A1 JUMPI PUSH2 0x27A1 PUSH2 0x2668 JUMP JUMPDEST POP POP PUSH1 0x1 DUP3 SHL PUSH2 0x8F0 JUMP JUMPDEST POP PUSH1 0x20 DUP4 LT PUSH2 0x133 DUP4 LT AND PUSH1 0x4E DUP5 LT PUSH1 0xB DUP5 LT AND OR ISZERO PUSH2 0x27CF JUMPI POP DUP2 DUP2 EXP PUSH2 0x8F0 JUMP JUMPDEST PUSH2 0x27D9 DUP4 DUP4 PUSH2 0x2714 JUMP JUMPDEST DUP1 PUSH0 NOT DIV DUP3 GT ISZERO PUSH2 0x27EC JUMPI PUSH2 0x27EC PUSH2 0x2668 JUMP JUMPDEST MUL SWAP4 SWAP3 POP POP POP JUMP JUMPDEST PUSH0 PUSH2 0x243D PUSH1 0xFF DUP5 AND DUP4 PUSH2 0x2756 JUMP JUMPDEST PUSH0 DUP3 PUSH2 0x2810 JUMPI PUSH2 0x2810 PUSH2 0x26BE JUMP JUMPDEST POP DIV SWAP1 JUMP JUMPDEST DUP2 DUP2 SUB DUP2 DUP2 GT ISZERO PUSH2 0x8F0 JUMPI PUSH2 0x8F0 PUSH2 0x2668 JUMP JUMPDEST PUSH0 DUP2 PUSH2 0x2836 JUMPI PUSH2 0x2836 PUSH2 0x2668 JUMP JUMPDEST POP PUSH0 NOT ADD SWAP1 JUMP JUMPDEST PUSH0 PUSH1 0x20 DUP3 DUP5 SUB SLT ISZERO PUSH2 0x284D JUMPI PUSH0 DUP1 REVERT JUMPDEST POP MLOAD SWAP2 SWAP1 POP JUMP INVALID 0xC6 GAS PUSH28 0xB8D6351C1CF70C95A316CC6A92839C986682D98BC35F958F4883F9D2 0xA8 LOG2 PUSH5 0x6970667358 0x22 SLT KECCAK256 0xE3 SWAP3 0xC5 PUSH8 0xDF605F59C37E762 0x4A CALLDATALOAD 0x21 SHL 0x24 NUMBER MOD SELFBALANCE PUSH16 0x5F1C69A64941CFAADA13C664736F6C63 NUMBER STOP ADDMOD ISZERO STOP CALLER "
		},
		"gasEstimates": {
			"creation": {
				"codeDepositCost": "2082000",
				"executionCost": "infinite",
				"totalCost": "infinite"
			},
			"external": {
				"HungerGamesBegin()": "2388",
				"NFTBOOSTBalance(uint256)": "2483",
				"NFTSKIPBalance(uint256)": "2504",
				"NFTVBalance(uint256)": "2548",
				"NFTXTRABalance(uint256)": "2502",
				"StatsSize()": "2383",
				"_maintenanceWallet()": "2449",
				"_startTimer()": "2405",
				"alive(uint256)": "2548",
				"aliveByID(uint256)": "4641",
				"battleLossOfNFT(uint256)": "2548",
				"battleWinsOfNFT(uint256)": "2524",
				"battlesCount()": "2385",
				"dead(uint256)": "2569",
				"enterBattle(uint256,uint256)": "infinite",
				"getAliveByID()": "infinite",
				"getAmountOfNonDead()": "infinite",
				"getBattleDetail(uint256)": "7435",
				"getMintAmount()": "infinite",
				"getNFTBOOSTBalance(uint256)": "infinite",
				"getNFTSKIPBalance(uint256)": "infinite",
				"getNFTVBalance(uint256)": "infinite",
				"getNFTXTRABalance(uint256)": "infinite",
				"getNewGame()": "2393",
				"getRoundWinnersLength()": "2426",
				"hasTimerPassed()": "8827",
				"lastBattleDetails(uint256)": "4963",
				"lookForOpponent()": "infinite",
				"maxAmountOfWinners()": "2362",
				"newGame()": "2442",
				"nftContract()": "2404",
				"owner()": "2397",
				"ownerExists(address)": "2645",
				"ownerOf(uint256)": "infinite",
				"payoutWinners()": "infinite",
				"queue(uint256)": "2525",
				"queuecounter()": "2406",
				"resetAlive()": "infinite",
				"resetAliveByID()": "infinite",
				"resetQueue()": "infinite",
				"resetTimer()": "25521",
				"reviveAll()": "infinite",
				"roundDuration()": "2404",
				"roundWinners(uint256)": "4700",
				"roundWinsOfNFT(uint256)": "2526",
				"roundsCount()": "2428",
				"setDuration(uint256)": "24550",
				"startHungerGames()": "infinite",
				"startTimer()": "49805",
				"stats(uint256,uint256)": "2639",
				"statsInitialized(uint256)": "2549",
				"storeRoundWinners()": "infinite",
				"tokenContract()": "2426",
				"uniqueOwnersCounter()": "2384",
				"updateStats(uint256,uint256,uint256[5][])": "infinite"
			},
			"internal": {
				"fillLastBattle(uint256,uint256,enum BattleContract.BattleResult)": "infinite",
				"getNextAvailable(uint256)": "infinite",
				"getRandomOpponent(uint256,address)": "infinite",
				"removePotions(uint256,uint256)": "infinite"
			}
		},
		"methodIdentifiers": {
			"HungerGamesBegin()": "8efabae6",
			"NFTBOOSTBalance(uint256)": "039aa9cf",
			"NFTSKIPBalance(uint256)": "54ca45d8",
			"NFTVBalance(uint256)": "580a155a",
			"NFTXTRABalance(uint256)": "f3a395fc",
			"StatsSize()": "eea09028",
			"_maintenanceWallet()": "51a2f687",
			"_startTimer()": "7812c4f5",
			"alive(uint256)": "6573c787",
			"aliveByID(uint256)": "472a20da",
			"battleLossOfNFT(uint256)": "1e2b0586",
			"battleWinsOfNFT(uint256)": "aa12a619",
			"battlesCount()": "11c9080d",
			"dead(uint256)": "e77f7b4b",
			"enterBattle(uint256,uint256)": "40978d42",
			"getAliveByID()": "306648e8",
			"getAmountOfNonDead()": "ef561bf5",
			"getBattleDetail(uint256)": "03b3d8c0",
			"getMintAmount()": "a8995deb",
			"getNFTBOOSTBalance(uint256)": "3b32edd4",
			"getNFTSKIPBalance(uint256)": "6e2ed3c4",
			"getNFTVBalance(uint256)": "c1ae5e72",
			"getNFTXTRABalance(uint256)": "2ace2af5",
			"getNewGame()": "a2b946aa",
			"getRoundWinnersLength()": "2a303c79",
			"hasTimerPassed()": "33057537",
			"lastBattleDetails(uint256)": "c1428bfa",
			"lookForOpponent()": "ec8f2e4d",
			"maxAmountOfWinners()": "60592066",
			"newGame()": "7d03f5f3",
			"nftContract()": "d56d229d",
			"owner()": "8da5cb5b",
			"ownerExists(address)": "59dbfde8",
			"ownerOf(uint256)": "6352211e",
			"payoutWinners()": "9f7c94aa",
			"queue(uint256)": "ddf0b009",
			"queuecounter()": "dd49c004",
			"resetAlive()": "e472d7d3",
			"resetAliveByID()": "2b1fbdff",
			"resetQueue()": "4ea61992",
			"resetTimer()": "7d55d304",
			"reviveAll()": "9d670c6d",
			"roundDuration()": "f7cb789a",
			"roundWinners(uint256)": "76a4956c",
			"roundWinsOfNFT(uint256)": "893e2bd1",
			"roundsCount()": "9f5cfe03",
			"setDuration(uint256)": "f6be71d1",
			"startHungerGames()": "2f4960ee",
			"startTimer()": "a39f7449",
			"stats(uint256,uint256)": "4433c468",
			"statsInitialized(uint256)": "8a015e30",
			"storeRoundWinners()": "fdc06ccf",
			"tokenContract()": "55a373d6",
			"uniqueOwnersCounter()": "d65cb04a",
			"updateStats(uint256,uint256,uint256[5][])": "dd888545"
		}
	},
	"abi": [
		{
			"inputs": [
				{
					"internalType": "address",
					"name": "_nftAddress",
					"type": "address"
				},
				{
					"internalType": "address",
					"name": "_tokenAddress",
					"type": "address"
				}
			],
			"stateMutability": "nonpayable",
			"type": "constructor"
		},
		{
			"anonymous": false,
			"inputs": [],
			"name": "Enteredbattled",
			"type": "event"
		},
		{
			"anonymous": false,
			"inputs": [
				{
					"indexed": true,
					"internalType": "address",
					"name": "previousOwner",
					"type": "address"
				},
				{
					"indexed": true,
					"internalType": "address",
					"name": "newOwner",
					"type": "address"
				}
			],
			"name": "OwnershipTransferred",
			"type": "event"
		},
		{
			"anonymous": false,
			"inputs": [],
			"name": "QueueResettet",
			"type": "event"
		},
		{
			"anonymous": false,
			"inputs": [],
			"name": "RevivedAll",
			"type": "event"
		},
		{
			"anonymous": false,
			"inputs": [],
			"name": "StartedHungerGames",
			"type": "event"
		},
		{
			"anonymous": false,
			"inputs": [
				{
					"indexed": false,
					"internalType": "uint256",
					"name": "timestamp",
					"type": "uint256"
				}
			],
			"name": "TimerReset",
			"type": "event"
		},
		{
			"anonymous": false,
			"inputs": [
				{
					"indexed": false,
					"internalType": "uint256",
					"name": "timestamp",
					"type": "uint256"
				}
			],
			"name": "TimerStarted",
			"type": "event"
		},
		{
			"anonymous": false,
			"inputs": [],
			"name": "WinnersFound",
			"type": "event"
		},
		{
			"anonymous": false,
			"inputs": [],
			"name": "matchingOpponents",
			"type": "event"
		},
		{
			"inputs": [],
			"name": "HungerGamesBegin",
			"outputs": [
				{
					"internalType": "bool",
					"name": "",
					"type": "bool"
				}
			],
			"stateMutability": "view",
			"type": "function"
		},
		{
			"inputs": [
				{
					"internalType": "uint256",
					"name": "",
					"type": "uint256"
				}
			],
			"name": "NFTBOOSTBalance",
			"outputs": [
				{
					"internalType": "bool",
					"name": "",
					"type": "bool"
				}
			],
			"stateMutability": "view",
			"type": "function"
		},
		{
			"inputs": [
				{
					"internalType": "uint256",
					"name": "",
					"type": "uint256"
				}
			],
			"name": "NFTSKIPBalance",
			"outputs": [
				{
					"internalType": "bool",
					"name": "",
					"type": "bool"
				}
			],
			"stateMutability": "view",
			"type": "function"
		},
		{
			"inputs": [
				{
					"internalType": "uint256",
					"name": "",
					"type": "uint256"
				}
			],
			"name": "NFTVBalance",
			"outputs": [
				{
					"internalType": "bool",
					"name": "",
					"type": "bool"
				}
			],
			"stateMutability": "view",
			"type": "function"
		},
		{
			"inputs": [
				{
					"internalType": "uint256",
					"name": "",
					"type": "uint256"
				}
			],
			"name": "NFTXTRABalance",
			"outputs": [
				{
					"internalType": "bool",
					"name": "",
					"type": "bool"
				}
			],
			"stateMutability": "view",
			"type": "function"
		},
		{
			"inputs": [],
			"name": "StatsSize",
			"outputs": [
				{
					"internalType": "uint256",
					"name": "",
					"type": "uint256"
				}
			],
			"stateMutability": "view",
			"type": "function"
		},
		{
			"inputs": [],
			"name": "_maintenanceWallet",
			"outputs": [
				{
					"internalType": "address",
					"name": "",
					"type": "address"
				}
			],
			"stateMutability": "view",
			"type": "function"
		},
		{
			"inputs": [],
			"name": "_startTimer",
			"outputs": [
				{
					"internalType": "uint256",
					"name": "",
					"type": "uint256"
				}
			],
			"stateMutability": "view",
			"type": "function"
		},
		{
			"inputs": [
				{
					"internalType": "uint256",
					"name": "",
					"type": "uint256"
				}
			],
			"name": "alive",
			"outputs": [
				{
					"internalType": "bool",
					"name": "",
					"type": "bool"
				}
			],
			"stateMutability": "view",
			"type": "function"
		},
		{
			"inputs": [
				{
					"internalType": "uint256",
					"name": "",
					"type": "uint256"
				}
			],
			"name": "aliveByID",
			"outputs": [
				{
					"internalType": "uint256",
					"name": "",
					"type": "uint256"
				}
			],
			"stateMutability": "view",
			"type": "function"
		},
		{
			"inputs": [
				{
					"internalType": "uint256",
					"name": "",
					"type": "uint256"
				}
			],
			"name": "battleLossOfNFT",
			"outputs": [
				{
					"internalType": "uint256",
					"name": "",
					"type": "uint256"
				}
			],
			"stateMutability": "view",
			"type": "function"
		},
		{
			"inputs": [
				{
					"internalType": "uint256",
					"name": "",
					"type": "uint256"
				}
			],
			"name": "battleWinsOfNFT",
			"outputs": [
				{
					"internalType": "uint256",
					"name": "",
					"type": "uint256"
				}
			],
			"stateMutability": "view",
			"type": "function"
		},
		{
			"inputs": [],
			"name": "battlesCount",
			"outputs": [
				{
					"internalType": "uint256",
					"name": "",
					"type": "uint256"
				}
			],
			"stateMutability": "view",
			"type": "function"
		},
		{
			"inputs": [
				{
					"internalType": "uint256",
					"name": "",
					"type": "uint256"
				}
			],
			"name": "dead",
			"outputs": [
				{
					"internalType": "bool",
					"name": "",
					"type": "bool"
				}
			],
			"stateMutability": "view",
			"type": "function"
		},
		{
			"inputs": [
				{
					"internalType": "uint256",
					"name": "First",
					"type": "uint256"
				},
				{
					"internalType": "uint256",
					"name": "Second",
					"type": "uint256"
				}
			],
			"name": "enterBattle",
			"outputs": [],
			"stateMutability": "nonpayable",
			"type": "function"
		},
		{
			"inputs": [],
			"name": "getAliveByID",
			"outputs": [
				{
					"internalType": "uint256[]",
					"name": "",
					"type": "uint256[]"
				}
			],
			"stateMutability": "view",
			"type": "function"
		},
		{
			"inputs": [],
			"name": "getAmountOfNonDead",
			"outputs": [
				{
					"internalType": "uint256",
					"name": "",
					"type": "uint256"
				}
			],
			"stateMutability": "view",
			"type": "function"
		},
		{
			"inputs": [
				{
					"internalType": "uint256",
					"name": "nftId",
					"type": "uint256"
				}
			],
			"name": "getBattleDetail",
			"outputs": [
				{
					"components": [
						{
							"internalType": "uint256",
							"name": "opponentId",
							"type": "uint256"
						},
						{
							"internalType": "enum BattleContract.BattleResult",
							"name": "result",
							"type": "uint8"
						},
						{
							"internalType": "bool",
							"name": "usedXTRA",
							"type": "bool"
						},
						{
							"internalType": "bool",
							"name": "usedBOOST",
							"type": "bool"
						},
						{
							"internalType": "bool",
							"name": "usedV",
							"type": "bool"
						},
						{
							"internalType": "bool",
							"name": "usedSKIP",
							"type": "bool"
						}
					],
					"internalType": "struct BattleContract.BattleDetail",
					"name": "",
					"type": "tuple"
				}
			],
			"stateMutability": "view",
			"type": "function"
		},
		{
			"inputs": [],
			"name": "getMintAmount",
			"outputs": [
				{
					"internalType": "uint256",
					"name": "",
					"type": "uint256"
				}
			],
			"stateMutability": "view",
			"type": "function"
		},
		{
			"inputs": [
				{
					"internalType": "uint256",
					"name": "NFTId",
					"type": "uint256"
				}
			],
			"name": "getNFTBOOSTBalance",
			"outputs": [
				{
					"internalType": "bool",
					"name": "",
					"type": "bool"
				}
			],
			"stateMutability": "view",
			"type": "function"
		},
		{
			"inputs": [
				{
					"internalType": "uint256",
					"name": "NFTId",
					"type": "uint256"
				}
			],
			"name": "getNFTSKIPBalance",
			"outputs": [
				{
					"internalType": "bool",
					"name": "",
					"type": "bool"
				}
			],
			"stateMutability": "view",
			"type": "function"
		},
		{
			"inputs": [
				{
					"internalType": "uint256",
					"name": "NFTId",
					"type": "uint256"
				}
			],
			"name": "getNFTVBalance",
			"outputs": [
				{
					"internalType": "bool",
					"name": "",
					"type": "bool"
				}
			],
			"stateMutability": "view",
			"type": "function"
		},
		{
			"inputs": [
				{
					"internalType": "uint256",
					"name": "NFTId",
					"type": "uint256"
				}
			],
			"name": "getNFTXTRABalance",
			"outputs": [
				{
					"internalType": "bool",
					"name": "",
					"type": "bool"
				}
			],
			"stateMutability": "view",
			"type": "function"
		},
		{
			"inputs": [],
			"name": "getNewGame",
			"outputs": [
				{
					"internalType": "bool",
					"name": "",
					"type": "bool"
				}
			],
			"stateMutability": "view",
			"type": "function"
		},
		{
			"inputs": [],
			"name": "getRoundWinnersLength",
			"outputs": [
				{
					"internalType": "uint256",
					"name": "",
					"type": "uint256"
				}
			],
			"stateMutability": "view",
			"type": "function"
		},
		{
			"inputs": [],
			"name": "hasTimerPassed",
			"outputs": [
				{
					"internalType": "bool",
					"name": "",
					"type": "bool"
				}
			],
			"stateMutability": "view",
			"type": "function"
		},
		{
			"inputs": [
				{
					"internalType": "uint256",
					"name": "",
					"type": "uint256"
				}
			],
			"name": "lastBattleDetails",
			"outputs": [
				{
					"internalType": "uint256",
					"name": "opponentId",
					"type": "uint256"
				},
				{
					"internalType": "enum BattleContract.BattleResult",
					"name": "result",
					"type": "uint8"
				},
				{
					"internalType": "bool",
					"name": "usedXTRA",
					"type": "bool"
				},
				{
					"internalType": "bool",
					"name": "usedBOOST",
					"type": "bool"
				},
				{
					"internalType": "bool",
					"name": "usedV",
					"type": "bool"
				},
				{
					"internalType": "bool",
					"name": "usedSKIP",
					"type": "bool"
				}
			],
			"stateMutability": "view",
			"type": "function"
		},
		{
			"inputs": [],
			"name": "lookForOpponent",
			"outputs": [],
			"stateMutability": "nonpayable",
			"type": "function"
		},
		{
			"inputs": [],
			"name": "maxAmountOfWinners",
			"outputs": [
				{
					"internalType": "uint256",
					"name": "",
					"type": "uint256"
				}
			],
			"stateMutability": "view",
			"type": "function"
		},
		{
			"inputs": [],
			"name": "newGame",
			"outputs": [
				{
					"internalType": "bool",
					"name": "",
					"type": "bool"
				}
			],
			"stateMutability": "view",
			"type": "function"
		},
		{
			"inputs": [],
			"name": "nftContract",
			"outputs": [
				{
					"internalType": "contract IGnomesCollective",
					"name": "",
					"type": "address"
				}
			],
			"stateMutability": "view",
			"type": "function"
		},
		{
			"inputs": [],
			"name": "owner",
			"outputs": [
				{
					"internalType": "address",
					"name": "",
					"type": "address"
				}
			],
			"stateMutability": "view",
			"type": "function"
		},
		{
			"inputs": [
				{
					"internalType": "address",
					"name": "",
					"type": "address"
				}
			],
			"name": "ownerExists",
			"outputs": [
				{
					"internalType": "bool",
					"name": "",
					"type": "bool"
				}
			],
			"stateMutability": "view",
			"type": "function"
		},
		{
			"inputs": [
				{
					"internalType": "uint256",
					"name": "id",
					"type": "uint256"
				}
			],
			"name": "ownerOf",
			"outputs": [
				{
					"internalType": "address",
					"name": "",
					"type": "address"
				}
			],
			"stateMutability": "view",
			"type": "function"
		},
		{
			"inputs": [],
			"name": "payoutWinners",
			"outputs": [],
			"stateMutability": "nonpayable",
			"type": "function"
		},
		{
			"inputs": [
				{
					"internalType": "uint256",
					"name": "",
					"type": "uint256"
				}
			],
			"name": "queue",
			"outputs": [
				{
					"internalType": "bool",
					"name": "",
					"type": "bool"
				}
			],
			"stateMutability": "view",
			"type": "function"
		},
		{
			"inputs": [],
			"name": "queuecounter",
			"outputs": [
				{
					"internalType": "uint256",
					"name": "",
					"type": "uint256"
				}
			],
			"stateMutability": "view",
			"type": "function"
		},
		{
			"inputs": [],
			"name": "resetAlive",
			"outputs": [],
			"stateMutability": "nonpayable",
			"type": "function"
		},
		{
			"inputs": [],
			"name": "resetAliveByID",
			"outputs": [],
			"stateMutability": "nonpayable",
			"type": "function"
		},
		{
			"inputs": [],
			"name": "resetQueue",
			"outputs": [],
			"stateMutability": "nonpayable",
			"type": "function"
		},
		{
			"inputs": [],
			"name": "resetTimer",
			"outputs": [],
			"stateMutability": "nonpayable",
			"type": "function"
		},
		{
			"inputs": [],
			"name": "reviveAll",
			"outputs": [],
			"stateMutability": "nonpayable",
			"type": "function"
		},
		{
			"inputs": [],
			"name": "roundDuration",
			"outputs": [
				{
					"internalType": "uint256",
					"name": "",
					"type": "uint256"
				}
			],
			"stateMutability": "view",
			"type": "function"
		},
		{
			"inputs": [
				{
					"internalType": "uint256",
					"name": "",
					"type": "uint256"
				}
			],
			"name": "roundWinners",
			"outputs": [
				{
					"internalType": "address",
					"name": "",
					"type": "address"
				}
			],
			"stateMutability": "view",
			"type": "function"
		},
		{
			"inputs": [
				{
					"internalType": "uint256",
					"name": "",
					"type": "uint256"
				}
			],
			"name": "roundWinsOfNFT",
			"outputs": [
				{
					"internalType": "uint256",
					"name": "",
					"type": "uint256"
				}
			],
			"stateMutability": "view",
			"type": "function"
		},
		{
			"inputs": [],
			"name": "roundsCount",
			"outputs": [
				{
					"internalType": "uint256",
					"name": "",
					"type": "uint256"
				}
			],
			"stateMutability": "view",
			"type": "function"
		},
		{
			"inputs": [
				{
					"internalType": "uint256",
					"name": "_roundDuration",
					"type": "uint256"
				}
			],
			"name": "setDuration",
			"outputs": [],
			"stateMutability": "nonpayable",
			"type": "function"
		},
		{
			"inputs": [],
			"name": "startHungerGames",
			"outputs": [],
			"stateMutability": "nonpayable",
			"type": "function"
		},
		{
			"inputs": [],
			"name": "startTimer",
			"outputs": [],
			"stateMutability": "nonpayable",
			"type": "function"
		},
		{
			"inputs": [
				{
					"internalType": "uint256",
					"name": "",
					"type": "uint256"
				},
				{
					"internalType": "uint256",
					"name": "",
					"type": "uint256"
				}
			],
			"name": "stats",
			"outputs": [
				{
					"internalType": "uint256",
					"name": "",
					"type": "uint256"
				}
			],
			"stateMutability": "view",
			"type": "function"
		},
		{
			"inputs": [
				{
					"internalType": "uint256",
					"name": "",
					"type": "uint256"
				}
			],
			"name": "statsInitialized",
			"outputs": [
				{
					"internalType": "bool",
					"name": "",
					"type": "bool"
				}
			],
			"stateMutability": "view",
			"type": "function"
		},
		{
			"inputs": [],
			"name": "storeRoundWinners",
			"outputs": [],
			"stateMutability": "nonpayable",
			"type": "function"
		},
		{
			"inputs": [],
			"name": "tokenContract",
			"outputs": [
				{
					"internalType": "contract IHungerGames",
					"name": "",
					"type": "address"
				}
			],
			"stateMutability": "view",
			"type": "function"
		},
		{
			"inputs": [],
			"name": "uniqueOwnersCounter",
			"outputs": [
				{
					"internalType": "uint256",
					"name": "",
					"type": "uint256"
				}
			],
			"stateMutability": "view",
			"type": "function"
		},
		{
			"inputs": [
				{
					"internalType": "uint256",
					"name": "startIdx",
					"type": "uint256"
				},
				{
					"internalType": "uint256",
					"name": "batchSize",
					"type": "uint256"
				},
				{
					"internalType": "uint256[5][]",
					"name": "idStats",
					"type": "uint256[5][]"
				}
			],
			"name": "updateStats",
			"outputs": [],
			"stateMutability": "nonpayable",
			"type": "function"
		}
	]
}