{
	"data": {
		"bytecode": {
			"linkReferences": {},
			"object": "5f60805260a06040527fc5d2460186f7233c927e7db2dcc703c0e500b653ca82273b7bfad8045d85a470600c55660dd01d8ae30000600d55610b48600e55600a600f556011805461ffff191660011790553480156200005c575f80fd5b50604051620031fc380380620031fc8339810160408190526200007f9162000bc9565b8181733cc6cdda760b79bafa08df41ecfa224f810dceb66001620000a33362000249565b6daaeb6d7670e522a718067333cd4e3b15620001de5780156200013157604051633e9f1edf60e11b81523060048201526001600160a01b03831660248201526daaeb6d7670e522a718067333cd4e90637d3e3dbe906044015b5f604051808303815f87803b15801562000114575f80fd5b505af115801562000127573d5f803e3d5ffd5b50505050620001de565b6001600160a01b03821615620001825760405163a0af290360e01b81523060048201526001600160a01b03831660248201526daaeb6d7670e522a718067333cd4e9063a0af290390604401620000fc565b604051632210724360e11b81523060048201526daaeb6d7670e522a718067333cd4e90634420e486906024015f604051808303815f87803b158015620001c6575f80fd5b505af1158015620001d9573d5f803e3d5ffd5b505050505b5060019050620001ef838262000d2c565b506002620001fe828262000d2c565b50505f6010555062000211600a62000298565b60126200021f868262000d2c565b5060136200022e858262000d2c565b5060146200023d848262000d2c565b50505050505062000f1c565b5f80546001600160a01b038381166001600160a01b0319831681178455604051919092169283917f8be0079c531659141344cd1fd0a4f28419497f9722a3daafe3b4186f6b6457e09190a35050565b5f546001600160a01b03163314620003225760115460ff1615620002f75760405162461bcd60e51b8152602060048201526011602482015270135a5b9d1a5b99c81a5cc81c185d5cd959607a1b60448201526064015b60405180910390fd5b600f5481111562000306575f80fd5b80600d5462000316919062000e08565b34101562000322575f80fd5b5f81116200032e575f80fd5b600e54816200033c60095490565b62000348919062000e28565b1115620003835760405162461bcd60e51b815260206004820152600860248201526714d3d3110813d55560c21b6044820152606401620002ee565b5f5b8181101562000424573360155f6200039c60095490565b620003a990600162000e28565b815260208101919091526040015f2080546001600160a01b0319166001600160a01b0392909216919091179055620003f833620003e560095490565b620003f290600162000e28565b62000428565b60108054905f620004098362000e3e565b919050555080806200041b9062000e3e565b91505062000385565b5050565b62000424828260405180602001604052805f8152506200044960201b60201c565b620004558383620004bf565b620004635f8484846200065c565b620004ba5760405162461bcd60e51b815260206004820152603260248201525f80516020620031dc83398151915260448201527131b2b4bb32b91034b6b83632b6b2b73a32b960711b6064820152608401620002ee565b505050565b6001600160a01b038216620005175760405162461bcd60e51b815260206004820181905260248201527f4552433732313a206d696e7420746f20746865207a65726f20616464726573736044820152606401620002ee565b5f818152600360205260409020546001600160a01b0316156200057d5760405162461bcd60e51b815260206004820152601c60248201527f4552433732313a20746f6b656e20616c7265616479206d696e746564000000006044820152606401620002ee565b6200058c5f838360016200079f565b5f818152600360205260409020546001600160a01b031615620005f25760405162461bcd60e51b815260206004820152601c60248201527f4552433732313a20746f6b656e20616c7265616479206d696e746564000000006044820152606401620002ee565b6001600160a01b0382165f81815260046020908152604080832080546001019055848352600390915280822080546001600160a01b0319168417905551839291907fddf252ad1be2c89b69c2b068fc378daa952ba7f163c4a11628f55a4df523b3ef908290a45050565b5f6001600160a01b0384163b156200079357604051630a85bd0160e11b81526001600160a01b0385169063150b7a0290620006a290339089908890889060040162000e59565b6020604051808303815f875af1925050508015620006df575060408051601f3d908101601f19168201909252620006dc9181019062000eae565b60015b62000778573d8080156200070f576040519150601f19603f3d011682016040523d82523d5f602084013e62000714565b606091505b5080515f03620007705760405162461bcd60e51b815260206004820152603260248201525f80516020620031dc83398151915260448201527131b2b4bb32b91034b6b83632b6b2b73a32b960711b6064820152608401620002ee565b805181602001fd5b6001600160e01b031916630a85bd0160e11b14905062000797565b5060015b949350505050565b6001811115620008185760405162461bcd60e51b815260206004820152603560248201527f455243373231456e756d657261626c653a20636f6e736563757469766520747260448201527f616e7366657273206e6f7420737570706f7274656400000000000000000000006064820152608401620002ee565b816001600160a01b03851662000876576200087081600980545f838152600a60205260408120829055600182018355919091527f6e1540171b6c0c960b71a7020d9f60077f6af931a8bbf590da0223dacf75c7af0155565b6200089c565b836001600160a01b0316856001600160a01b0316146200089c576200089c8582620008e9565b6001600160a01b038416620008bc57620008b68162000987565b620008e2565b846001600160a01b0316846001600160a01b031614620008e257620008e2848262000a39565b5050505050565b5f6001620008f78462000a7d565b62000903919062000ede565b5f8381526008602052604090205490915080821462000955576001600160a01b0384165f9081526007602090815260408083208584528252808320548484528184208190558352600890915290208190555b505f9182526008602090815260408084208490556001600160a01b039094168352600781528383209183525290812055565b6009545f906200099a9060019062000ede565b5f838152600a602052604081205460098054939450909284908110620009c457620009c462000ef4565b905f5260205f20015490508060098381548110620009e657620009e662000ef4565b5f918252602080832090910192909255828152600a9091526040808220849055858252812055600980548062000a205762000a2062000f08565b600190038181905f5260205f20015f9055905550505050565b5f62000a458362000a7d565b6001600160a01b039093165f908152600760209081526040808320868452825280832085905593825260089052919091209190915550565b5f6001600160a01b03821662000ae85760405162461bcd60e51b815260206004820152602960248201527f4552433732313a2061646472657373207a65726f206973206e6f7420612076616044820152683634b21037bbb732b960b91b6064820152608401620002ee565b506001600160a01b03165f9081526004602052604090205490565b634e487b7160e01b5f52604160045260245ffd5b5f5b8381101562000b3357818101518382015260200162000b19565b50505f910152565b5f82601f83011262000b4b575f80fd5b81516001600160401b038082111562000b685762000b6862000b03565b604051601f8301601f19908116603f0116810190828211818310171562000b935762000b9362000b03565b8160405283815286602085880101111562000bac575f80fd5b62000bbf84602083016020890162000b17565b9695505050505050565b5f805f805f60a0868803121562000bde575f80fd5b85516001600160401b038082111562000bf5575f80fd5b62000c0389838a0162000b3b565b9650602088015191508082111562000c19575f80fd5b62000c2789838a0162000b3b565b9550604088015191508082111562000c3d575f80fd5b62000c4b89838a0162000b3b565b9450606088015191508082111562000c61575f80fd5b62000c6f89838a0162000b3b565b9350608088015191508082111562000c85575f80fd5b5062000c948882890162000b3b565b9150509295509295909350565b600181811c9082168062000cb657607f821691505b60208210810362000cd557634e487b7160e01b5f52602260045260245ffd5b50919050565b601f821115620004ba575f81815260208120601f850160051c8101602086101562000d035750805b601f850160051c820191505b8181101562000d245782815560010162000d0f565b505050505050565b81516001600160401b0381111562000d485762000d4862000b03565b62000d608162000d59845462000ca1565b8462000cdb565b602080601f83116001811462000d96575f841562000d7e5750858301515b5f19600386901b1c1916600185901b17855562000d24565b5f85815260208120601f198616915b8281101562000dc65788860151825594840194600190910190840162000da5565b508582101562000de457878501515f19600388901b60f8161c191681555b5050505050600190811b01905550565b634e487b7160e01b5f52601160045260245ffd5b808202811582820484141762000e225762000e2262000df4565b92915050565b8082018082111562000e225762000e2262000df4565b5f6001820162000e525762000e5262000df4565b5060010190565b5f60018060a01b03808716835280861660208401525083604083015260806060830152825180608084015262000e978160a085016020870162000b17565b601f01601f19169190910160a00195945050505050565b5f6020828403121562000ebf575f80fd5b81516001600160e01b03198116811462000ed7575f80fd5b9392505050565b8181038181111562000e225762000e2262000df4565b634e487b7160e01b5f52603260045260245ffd5b634e487b7160e01b5f52603160045260245ffd5b6122b28062000f2a5f395ff3fe6080604052600436106101f1575f3560e01c80635a2bcc1811610108578063a0712d681161009d578063b88d4fde1161006d578063b88d4fde14610539578063c87b56dd14610558578063d5abeb0114610577578063e985e9c51461058c578063f2fde38b146105d3575f80fd5b8063a0712d68146104df578063a22cb465146104f2578063a475b5dd14610511578063a8995deb14610525575f80fd5b806370a08231116100d857806370a082311461047c578063715018a61461049b5780638da5cb5b146104af57806395d89b41146104cb575f80fd5b80635a2bcc181461041b5780635c975abb146104305780635ca1e165146104495780636352211e1461045d575f80fd5b806323b872dd1161018957806342842e0e1161015957806342842e0e14610374578063438b63001461039357806344a0d68a146103bf5780634f6ccce7146103de57806351830227146103fd575f80fd5b806323b872dd1461030d5780632f745c591461032c5780633ccfd60b1461034b57806341f4343414610353575f80fd5b8063095ea7b3116101c4578063095ea7b3146102a257806313faede6146102c157806318160ddd146102e4578063239c70ae146102f8575f80fd5b806301ffc9a7146101f557806302329a291461022957806306fdde031461024a578063081812fc1461026b575b5f80fd5b348015610200575f80fd5b5061021461020f366004611c63565b6105f2565b60405190151581526020015b60405180910390f35b348015610234575f80fd5b50610248610243366004611c92565b61061c565b005b348015610255575f80fd5b5061025e610637565b6040516102209190611cfa565b348015610276575f80fd5b5061028a610285366004611d0c565b6106c7565b6040516001600160a01b039091168152602001610220565b3480156102ad575f80fd5b506102486102bc366004611d3e565b6106ec565b3480156102cc575f80fd5b506102d6600d5481565b604051908152602001610220565b3480156102ef575f80fd5b506009546102d6565b348015610303575f80fd5b506102d6600f5481565b348015610318575f80fd5b50610248610327366004611d66565b610805565b348015610337575f80fd5b506102d6610346366004611d3e565b610830565b6102486108c4565b34801561035e575f80fd5b5061028a6daaeb6d7670e522a718067333cd4e81565b34801561037f575f80fd5b5061024861038e366004611d66565b610958565b34801561039e575f80fd5b506103b26103ad366004611d9f565b61097d565b6040516102209190611db8565b3480156103ca575f80fd5b506102486103d9366004611d0c565b610a1c565b3480156103e9575f80fd5b506102d66103f8366004611d0c565b610a29565b348015610408575f80fd5b5060115461021490610100900460ff1681565b348015610426575f80fd5b506102d660105481565b34801561043b575f80fd5b506011546102149060ff1681565b348015610454575f80fd5b506102d6610ab9565b348015610468575f80fd5b5061028a610477366004611d0c565b610ac9565b348015610487575f80fd5b506102d6610496366004611d9f565b610b28565b3480156104a6575f80fd5b50610248610bac565b3480156104ba575f80fd5b505f546001600160a01b031661028a565b3480156104d6575f80fd5b5061025e610bbf565b6102486104ed366004611d0c565b610bce565b3480156104fd575f80fd5b5061024861050c366004611dfb565b610d42565b34801561051c575f80fd5b50610248610d4d565b348015610530575f80fd5b506010546102d6565b348015610544575f80fd5b50610248610553366004611e44565b610d66565b348015610563575f80fd5b5061025e610572366004611d0c565b610d93565b348015610582575f80fd5b506102d6600e5481565b348015610597575f80fd5b506102146105a6366004611f19565b6001600160a01b039182165f90815260066020908152604080832093909416825291909152205460ff1690565b3480156105de575f80fd5b506102486105ed366004611d9f565b610f04565b5f6001600160e01b0319821663780e9d6360e01b1480610616575061061682610f7a565b92915050565b610624610fc9565b6011805460ff1916911515919091179055565b60606001805461064690611f4a565b80601f016020809104026020016040519081016040528092919081815260200182805461067290611f4a565b80156106bd5780601f10610694576101008083540402835291602001916106bd565b820191905f5260205f20905b8154815290600101906020018083116106a057829003601f168201915b5050505050905090565b5f6106d182611022565b505f908152600560205260409020546001600160a01b031690565b5f6106f682610ac9565b9050806001600160a01b0316836001600160a01b0316036107685760405162461bcd60e51b815260206004820152602160248201527f4552433732313a20617070726f76616c20746f2063757272656e74206f776e656044820152603960f91b60648201526084015b60405180910390fd5b336001600160a01b0382161480610784575061078481336105a6565b6107f65760405162461bcd60e51b815260206004820152603d60248201527f4552433732313a20617070726f76652063616c6c6572206973206e6f7420746f60448201527f6b656e206f776e6572206f7220617070726f76656420666f7220616c6c000000606482015260840161075f565b6108008383611080565b505050565b826001600160a01b038116331461081f5761081f336110ed565b61082a8484846111a4565b50505050565b5f61083a83610b28565b821061089c5760405162461bcd60e51b815260206004820152602b60248201527f455243373231456e756d657261626c653a206f776e657220696e646578206f7560448201526a74206f6620626f756e647360a81b606482015260840161075f565b506001600160a01b03919091165f908152600760209081526040808320938352929052205490565b6108cc610fc9565b5f80546040516001600160a01b039091169047908381818185875af1925050503d805f8114610916576040519150601f19603f3d011682016040523d82523d5f602084013e61091b565b606091505b50509050806109555760405162461bcd60e51b81526020600482015260066024820152656e6f74206f7360d01b604482015260640161075f565b50565b826001600160a01b038116331461097257610972336110ed565b61082a8484846111d5565b60605f61098983610b28565b90505f8167ffffffffffffffff8111156109a5576109a5611e30565b6040519080825280602002602001820160405280156109ce578160200160208202803683370190505b5090505f5b82811015610a14576109e58582610830565b8282815181106109f7576109f7611f82565b602090810291909101015280610a0c81611faa565b9150506109d3565b509392505050565b610a24610fc9565b600d55565b5f610a3360095490565b8210610a965760405162461bcd60e51b815260206004820152602c60248201527f455243373231456e756d657261626c653a20676c6f62616c20696e646578206f60448201526b7574206f6620626f756e647360a01b606482015260840161075f565b60098281548110610aa957610aa9611f82565b905f5260205f2001549050919050565b5f610ac2610fc9565b50600b5490565b5f818152600360205260408120546001600160a01b0316806106165760405162461bcd60e51b8152602060048201526018602482015277115490cdcc8c4e881a5b9d985b1a59081d1bdad95b88125160421b604482015260640161075f565b5f6001600160a01b038216610b915760405162461bcd60e51b815260206004820152602960248201527f4552433732313a2061646472657373207a65726f206973206e6f7420612076616044820152683634b21037bbb732b960b91b606482015260840161075f565b506001600160a01b03165f9081526004602052604090205490565b610bb4610fc9565b610bbd5f6111ef565b565b60606002805461064690611f4a565b5f546001600160a01b03163314610c4d5760115460ff1615610c265760405162461bcd60e51b8152602060048201526011602482015270135a5b9d1a5b99c81a5cc81c185d5cd959607a1b604482015260640161075f565b600f54811115610c34575f80fd5b80600d54610c429190611fc2565b341015610c4d575f80fd5b5f8111610c58575f80fd5b600e5481610c6560095490565b610c6f9190611fd9565b1115610ca85760405162461bcd60e51b815260206004820152600860248201526714d3d3110813d55560c21b604482015260640161075f565b5f5b81811015610d3e573360155f610cbf60095490565b610cca906001611fd9565b81526020019081526020015f205f6101000a8154816001600160a01b0302191690836001600160a01b03160217905550610d1733610d0760095490565b610d12906001611fd9565b61123e565b60108054905f610d2683611faa565b91905055508080610d3690611faa565b915050610caa565b5050565b610d3e338383611257565b610d55610fc9565b6011805461ff001916610100179055565b836001600160a01b0381163314610d8057610d80336110ed565b610d8c85858585611324565b5050505050565b5f818152600360205260409020546060906001600160a01b0316610e115760405162461bcd60e51b815260206004820152602f60248201527f4552433732314d657461646174613a2055524920717565727920666f72206e6f60448201526e3732bc34b9ba32b73a103a37b5b2b760891b606482015260840161075f565b601154610100900460ff1615155f03610ed257610e2f600283611fec565b5f03610ec55760128054610e4290611f4a565b80601f0160208091040260200160405190810160405280929190818152602001828054610e6e90611f4a565b8015610eb95780601f10610e9057610100808354040283529160200191610eb9565b820191905f5260205f20905b815481529060010190602001808311610e9c57829003601f168201915b50505050509050919050565b60138054610e4290611f4a565b6014610edd83611356565b604051602001610eee929190612026565b6040516020818303038152906040529050919050565b610f0c610fc9565b6001600160a01b038116610f715760405162461bcd60e51b815260206004820152602660248201527f4f776e61626c653a206e6577206f776e657220697320746865207a65726f206160448201526564647265737360d01b606482015260840161075f565b610955816111ef565b5f6001600160e01b031982166380ac58cd60e01b1480610faa57506001600160e01b03198216635b5e139f60e01b145b8061061657506301ffc9a760e01b6001600160e01b0319831614610616565b5f546001600160a01b03163314610bbd5760405162461bcd60e51b815260206004820181905260248201527f4f776e61626c653a2063616c6c6572206973206e6f7420746865206f776e6572604482015260640161075f565b5f818152600360205260409020546001600160a01b03166109555760405162461bcd60e51b8152602060048201526018602482015277115490cdcc8c4e881a5b9d985b1a59081d1bdad95b88125160421b604482015260640161075f565b5f81815260056020526040902080546001600160a01b0319166001600160a01b03841690811790915581906110b482610ac9565b6001600160a01b03167f8c5be1e5ebec7d5bd14f71427d1e84f3dd0314c0f7b2291e5b200ac8c7c3b92560405160405180910390a45050565b6daaeb6d7670e522a718067333cd4e3b1561095557604051633185c44d60e21b81523060048201526001600160a01b03821660248201526daaeb6d7670e522a718067333cd4e9063c617113490604401602060405180830381865afa158015611158573d5f803e3d5ffd5b505050506040513d601f19601f8201168201806040525081019061117c9190612109565b61095557604051633b79c77360e21b81526001600160a01b038216600482015260240161075f565b6111ae33826113e6565b6111ca5760405162461bcd60e51b815260040161075f90612124565b610800838383611463565b61080083838360405180602001604052805f815250610d66565b5f80546001600160a01b038381166001600160a01b0319831681178455604051919092169283917f8be0079c531659141344cd1fd0a4f28419497f9722a3daafe3b4186f6b6457e09190a35050565b610d3e828260405180602001604052805f8152506115d2565b816001600160a01b0316836001600160a01b0316036112b85760405162461bcd60e51b815260206004820152601960248201527f4552433732313a20617070726f766520746f2063616c6c657200000000000000604482015260640161075f565b6001600160a01b038381165f81815260066020908152604080832094871680845294825291829020805460ff191686151590811790915591519182527f17307eab39ab6107e8899845ad3d59bd9653f200f220920489ca2b5937696c31910160405180910390a3505050565b61132e33836113e6565b61134a5760405162461bcd60e51b815260040161075f90612124565b61082a84848484611604565b60605f61136283611637565b60010190505f8167ffffffffffffffff81111561138157611381611e30565b6040519080825280601f01601f1916602001820160405280156113ab576020820181803683370190505b5090508181016020015b5f19016f181899199a1a9b1b9c1cb0b131b232b360811b600a86061a8153600a85049450846113b557509392505050565b5f806113f183610ac9565b9050806001600160a01b0316846001600160a01b0316148061143757506001600160a01b038082165f9081526006602090815260408083209388168352929052205460ff165b8061145b5750836001600160a01b0316611450846106c7565b6001600160a01b0316145b949350505050565b826001600160a01b031661147682610ac9565b6001600160a01b03161461149c5760405162461bcd60e51b815260040161075f90612171565b6001600160a01b0382166114fe5760405162461bcd60e51b8152602060048201526024808201527f4552433732313a207472616e7366657220746f20746865207a65726f206164646044820152637265737360e01b606482015260840161075f565b61150b838383600161170e565b826001600160a01b031661151e82610ac9565b6001600160a01b0316146115445760405162461bcd60e51b815260040161075f90612171565b5f81815260056020908152604080832080546001600160a01b03199081169091556001600160a01b038781168086526004855283862080545f1901905590871680865283862080546001019055868652600390945282852080549092168417909155905184937fddf252ad1be2c89b69c2b068fc378daa952ba7f163c4a11628f55a4df523b3ef91a4505050565b6115dc838361183a565b6115e85f8484846119cf565b6108005760405162461bcd60e51b815260040161075f906121b6565b61160f848484611463565b61161b848484846119cf565b61082a5760405162461bcd60e51b815260040161075f906121b6565b5f8072184f03e93ff9f4daa797ed6e38ed64bf6a1f0160401b83106116755772184f03e93ff9f4daa797ed6e38ed64bf6a1f0160401b830492506040015b6d04ee2d6d415b85acef810000000083106116a1576d04ee2d6d415b85acef8100000000830492506020015b662386f26fc1000083106116bf57662386f26fc10000830492506010015b6305f5e10083106116d7576305f5e100830492506008015b61271083106116eb57612710830492506004015b606483106116fd576064830492506002015b600a83106106165760010192915050565b600181111561177d5760405162461bcd60e51b815260206004820152603560248201527f455243373231456e756d657261626c653a20636f6e7365637574697665207472604482015274185b9cd9995c9cc81b9bdd081cdd5c1c1bdc9d1959605a1b606482015260840161075f565b816001600160a01b0385166117d8576117d381600980545f838152600a60205260408120829055600182018355919091527f6e1540171b6c0c960b71a7020d9f60077f6af931a8bbf590da0223dacf75c7af0155565b6117fb565b836001600160a01b0316856001600160a01b0316146117fb576117fb8582611acc565b6001600160a01b0384166118175761181281611b65565b610d8c565b846001600160a01b0316846001600160a01b031614610d8c57610d8c8482611c0c565b6001600160a01b0382166118905760405162461bcd60e51b815260206004820181905260248201527f4552433732313a206d696e7420746f20746865207a65726f2061646472657373604482015260640161075f565b5f818152600360205260409020546001600160a01b0316156118f45760405162461bcd60e51b815260206004820152601c60248201527f4552433732313a20746f6b656e20616c7265616479206d696e74656400000000604482015260640161075f565b6119015f8383600161170e565b5f818152600360205260409020546001600160a01b0316156119655760405162461bcd60e51b815260206004820152601c60248201527f4552433732313a20746f6b656e20616c7265616479206d696e74656400000000604482015260640161075f565b6001600160a01b0382165f81815260046020908152604080832080546001019055848352600390915280822080546001600160a01b0319168417905551839291907fddf252ad1be2c89b69c2b068fc378daa952ba7f163c4a11628f55a4df523b3ef908290a45050565b5f6001600160a01b0384163b15611ac157604051630a85bd0160e11b81526001600160a01b0385169063150b7a0290611a12903390899088908890600401612208565b6020604051808303815f875af1925050508015611a4c575060408051601f3d908101601f19168201909252611a499181019061223a565b60015b611aa7573d808015611a79576040519150601f19603f3d011682016040523d82523d5f602084013e611a7e565b606091505b5080515f03611a9f5760405162461bcd60e51b815260040161075f906121b6565b805181602001fd5b6001600160e01b031916630a85bd0160e11b14905061145b565b506001949350505050565b5f6001611ad884610b28565b611ae29190612255565b5f83815260086020526040902054909150808214611b33576001600160a01b0384165f9081526007602090815260408083208584528252808320548484528184208190558352600890915290208190555b505f9182526008602090815260408084208490556001600160a01b039094168352600781528383209183525290812055565b6009545f90611b7690600190612255565b5f838152600a602052604081205460098054939450909284908110611b9d57611b9d611f82565b905f5260205f20015490508060098381548110611bbc57611bbc611f82565b5f918252602080832090910192909255828152600a90915260408082208490558582528120556009805480611bf357611bf3612268565b600190038181905f5260205f20015f9055905550505050565b5f611c1683610b28565b6001600160a01b039093165f908152600760209081526040808320868452825280832085905593825260089052919091209190915550565b6001600160e01b031981168114610955575f80fd5b5f60208284031215611c73575f80fd5b8135611c7e81611c4e565b9392505050565b8015158114610955575f80fd5b5f60208284031215611ca2575f80fd5b8135611c7e81611c85565b5f5b83811015611cc7578181015183820152602001611caf565b50505f910152565b5f8151808452611ce6816020860160208601611cad565b601f01601f19169290920160200192915050565b602081525f611c7e6020830184611ccf565b5f60208284031215611d1c575f80fd5b5035919050565b80356001600160a01b0381168114611d39575f80fd5b919050565b5f8060408385031215611d4f575f80fd5b611d5883611d23565b946020939093013593505050565b5f805f60608486031215611d78575f80fd5b611d8184611d23565b9250611d8f60208501611d23565b9150604084013590509250925092565b5f60208284031215611daf575f80fd5b611c7e82611d23565b602080825282518282018190525f9190848201906040850190845b81811015611def57835183529284019291840191600101611dd3565b50909695505050505050565b5f8060408385031215611e0c575f80fd5b611e1583611d23565b91506020830135611e2581611c85565b809150509250929050565b634e487b7160e01b5f52604160045260245ffd5b5f805f8060808587031215611e57575f80fd5b611e6085611d23565b9350611e6e60208601611d23565b925060408501359150606085013567ffffffffffffffff80821115611e91575f80fd5b818701915087601f830112611ea4575f80fd5b813581811115611eb657611eb6611e30565b604051601f8201601f19908116603f01168101908382118183101715611ede57611ede611e30565b816040528281528a6020848701011115611ef6575f80fd5b826020860160208301375f60208483010152809550505050505092959194509250565b5f8060408385031215611f2a575f80fd5b611f3383611d23565b9150611f4160208401611d23565b90509250929050565b600181811c90821680611f5e57607f821691505b602082108103611f7c57634e487b7160e01b5f52602260045260245ffd5b50919050565b634e487b7160e01b5f52603260045260245ffd5b634e487b7160e01b5f52601160045260245ffd5b5f60018201611fbb57611fbb611f96565b5060010190565b808202811582820484141761061657610616611f96565b8082018082111561061657610616611f96565b5f8261200657634e487b7160e01b5f52601260045260245ffd5b500690565b5f815161201c818560208601611cad565b9290920192915050565b66697066733a2f2f60c81b81525f60075f855481600182811c91508083168061205057607f831692505b6020808410820361206f57634e487b7160e01b86526022600452602486fd5b818015612083576001811461209c576120cb565b60ff1986168a89015284151585028a01880196506120cb565b5f8c8152602090205f5b868110156120c15781548c82018b01529085019083016120a6565b505087858b010196505b5050505050506120ff6120ee6120e883602f60f81b815260010190565b8761200b565b64173539b7b760d91b815260050190565b9695505050505050565b5f60208284031215612119575f80fd5b8151611c7e81611c85565b6020808252602d908201527f4552433732313a2063616c6c6572206973206e6f7420746f6b656e206f776e6560408201526c1c881bdc88185c1c1c9bdd9959609a1b606082015260800190565b60208082526025908201527f4552433732313a207472616e736665722066726f6d20696e636f72726563742060408201526437bbb732b960d91b606082015260800190565b60208082526032908201527f4552433732313a207472616e7366657220746f206e6f6e20455243373231526560408201527131b2b4bb32b91034b6b83632b6b2b73a32b960711b606082015260800190565b6001600160a01b03858116825284166020820152604081018390526080606082018190525f906120ff90830184611ccf565b5f6020828403121561224a575f80fd5b8151611c7e81611c4e565b8181038181111561061657610616611f96565b634e487b7160e01b5f52603160045260245ffdfea2646970667358221220af0e962255621c212ac9c82176ca2dc33afe25197a82d4e7243a5b40af2861a364736f6c634300081500334552433732313a207472616e7366657220746f206e6f6e204552433732315265",
			"opcodes": "PUSH0 PUSH1 0x80 MSTORE PUSH1 0xA0 PUSH1 0x40 MSTORE PUSH32 0xC5D2460186F7233C927E7DB2DCC703C0E500B653CA82273B7BFAD8045D85A470 PUSH1 0xC SSTORE PUSH7 0xDD01D8AE30000 PUSH1 0xD SSTORE PUSH2 0xB48 PUSH1 0xE SSTORE PUSH1 0xA PUSH1 0xF SSTORE PUSH1 0x11 DUP1 SLOAD PUSH2 0xFFFF NOT AND PUSH1 0x1 OR SWAP1 SSTORE CALLVALUE DUP1 ISZERO PUSH3 0x5C JUMPI PUSH0 DUP1 REVERT JUMPDEST POP PUSH1 0x40 MLOAD PUSH3 0x31FC CODESIZE SUB DUP1 PUSH3 0x31FC DUP4 CODECOPY DUP2 ADD PUSH1 0x40 DUP2 SWAP1 MSTORE PUSH3 0x7F SWAP2 PUSH3 0xBC9 JUMP JUMPDEST DUP2 DUP2 PUSH20 0x3CC6CDDA760B79BAFA08DF41ECFA224F810DCEB6 PUSH1 0x1 PUSH3 0xA3 CALLER PUSH3 0x249 JUMP JUMPDEST PUSH14 0xAAEB6D7670E522A718067333CD4E EXTCODESIZE ISZERO PUSH3 0x1DE JUMPI DUP1 ISZERO PUSH3 0x131 JUMPI PUSH1 0x40 MLOAD PUSH4 0x3E9F1EDF PUSH1 0xE1 SHL DUP2 MSTORE ADDRESS PUSH1 0x4 DUP3 ADD MSTORE PUSH1 0x1 PUSH1 0x1 PUSH1 0xA0 SHL SUB DUP4 AND PUSH1 0x24 DUP3 ADD MSTORE PUSH14 0xAAEB6D7670E522A718067333CD4E SWAP1 PUSH4 0x7D3E3DBE SWAP1 PUSH1 0x44 ADD JUMPDEST PUSH0 PUSH1 0x40 MLOAD DUP1 DUP4 SUB DUP2 PUSH0 DUP8 DUP1 EXTCODESIZE ISZERO DUP1 ISZERO PUSH3 0x114 JUMPI PUSH0 DUP1 REVERT JUMPDEST POP GAS CALL ISZERO DUP1 ISZERO PUSH3 0x127 JUMPI RETURNDATASIZE PUSH0 DUP1 RETURNDATACOPY RETURNDATASIZE PUSH0 REVERT JUMPDEST POP POP POP POP PUSH3 0x1DE JUMP JUMPDEST PUSH1 0x1 PUSH1 0x1 PUSH1 0xA0 SHL SUB DUP3 AND ISZERO PUSH3 0x182 JUMPI PUSH1 0x40 MLOAD PUSH4 0xA0AF2903 PUSH1 0xE0 SHL DUP2 MSTORE ADDRESS PUSH1 0x4 DUP3 ADD MSTORE PUSH1 0x1 PUSH1 0x1 PUSH1 0xA0 SHL SUB DUP4 AND PUSH1 0x24 DUP3 ADD MSTORE PUSH14 0xAAEB6D7670E522A718067333CD4E SWAP1 PUSH4 0xA0AF2903 SWAP1 PUSH1 0x44 ADD PUSH3 0xFC JUMP JUMPDEST PUSH1 0x40 MLOAD PUSH4 0x22107243 PUSH1 0xE1 SHL DUP2 MSTORE ADDRESS PUSH1 0x4 DUP3 ADD MSTORE PUSH14 0xAAEB6D7670E522A718067333CD4E SWAP1 PUSH4 0x4420E486 SWAP1 PUSH1 0x24 ADD PUSH0 PUSH1 0x40 MLOAD DUP1 DUP4 SUB DUP2 PUSH0 DUP8 DUP1 EXTCODESIZE ISZERO DUP1 ISZERO PUSH3 0x1C6 JUMPI PUSH0 DUP1 REVERT JUMPDEST POP GAS CALL ISZERO DUP1 ISZERO PUSH3 0x1D9 JUMPI RETURNDATASIZE PUSH0 DUP1 RETURNDATACOPY RETURNDATASIZE PUSH0 REVERT JUMPDEST POP POP POP POP JUMPDEST POP PUSH1 0x1 SWAP1 POP PUSH3 0x1EF DUP4 DUP3 PUSH3 0xD2C JUMP JUMPDEST POP PUSH1 0x2 PUSH3 0x1FE DUP3 DUP3 PUSH3 0xD2C JUMP JUMPDEST POP POP PUSH0 PUSH1 0x10 SSTORE POP PUSH3 0x211 PUSH1 0xA PUSH3 0x298 JUMP JUMPDEST PUSH1 0x12 PUSH3 0x21F DUP7 DUP3 PUSH3 0xD2C JUMP JUMPDEST POP PUSH1 0x13 PUSH3 0x22E DUP6 DUP3 PUSH3 0xD2C JUMP JUMPDEST POP PUSH1 0x14 PUSH3 0x23D DUP5 DUP3 PUSH3 0xD2C JUMP JUMPDEST POP POP POP POP POP POP PUSH3 0xF1C JUMP JUMPDEST PUSH0 DUP1 SLOAD PUSH1 0x1 PUSH1 0x1 PUSH1 0xA0 SHL SUB DUP4 DUP2 AND PUSH1 0x1 PUSH1 0x1 PUSH1 0xA0 SHL SUB NOT DUP4 AND DUP2 OR DUP5 SSTORE PUSH1 0x40 MLOAD SWAP2 SWAP1 SWAP3 AND SWAP3 DUP4 SWAP2 PUSH32 0x8BE0079C531659141344CD1FD0A4F28419497F9722A3DAAFE3B4186F6B6457E0 SWAP2 SWAP1 LOG3 POP POP JUMP JUMPDEST PUSH0 SLOAD PUSH1 0x1 PUSH1 0x1 PUSH1 0xA0 SHL SUB AND CALLER EQ PUSH3 0x322 JUMPI PUSH1 0x11 SLOAD PUSH1 0xFF AND ISZERO PUSH3 0x2F7 JUMPI PUSH1 0x40 MLOAD PUSH3 0x461BCD PUSH1 0xE5 SHL DUP2 MSTORE PUSH1 0x20 PUSH1 0x4 DUP3 ADD MSTORE PUSH1 0x11 PUSH1 0x24 DUP3 ADD MSTORE PUSH17 0x135A5B9D1A5B99C81A5CC81C185D5CD959 PUSH1 0x7A SHL PUSH1 0x44 DUP3 ADD MSTORE PUSH1 0x64 ADD JUMPDEST PUSH1 0x40 MLOAD DUP1 SWAP2 SUB SWAP1 REVERT JUMPDEST PUSH1 0xF SLOAD DUP2 GT ISZERO PUSH3 0x306 JUMPI PUSH0 DUP1 REVERT JUMPDEST DUP1 PUSH1 0xD SLOAD PUSH3 0x316 SWAP2 SWAP1 PUSH3 0xE08 JUMP JUMPDEST CALLVALUE LT ISZERO PUSH3 0x322 JUMPI PUSH0 DUP1 REVERT JUMPDEST PUSH0 DUP2 GT PUSH3 0x32E JUMPI PUSH0 DUP1 REVERT JUMPDEST PUSH1 0xE SLOAD DUP2 PUSH3 0x33C PUSH1 0x9 SLOAD SWAP1 JUMP JUMPDEST PUSH3 0x348 SWAP2 SWAP1 PUSH3 0xE28 JUMP JUMPDEST GT ISZERO PUSH3 0x383 JUMPI PUSH1 0x40 MLOAD PUSH3 0x461BCD PUSH1 0xE5 SHL DUP2 MSTORE PUSH1 0x20 PUSH1 0x4 DUP3 ADD MSTORE PUSH1 0x8 PUSH1 0x24 DUP3 ADD MSTORE PUSH8 0x14D3D3110813D555 PUSH1 0xC2 SHL PUSH1 0x44 DUP3 ADD MSTORE PUSH1 0x64 ADD PUSH3 0x2EE JUMP JUMPDEST PUSH0 JUMPDEST DUP2 DUP2 LT ISZERO PUSH3 0x424 JUMPI CALLER PUSH1 0x15 PUSH0 PUSH3 0x39C PUSH1 0x9 SLOAD SWAP1 JUMP JUMPDEST PUSH3 0x3A9 SWAP1 PUSH1 0x1 PUSH3 0xE28 JUMP JUMPDEST DUP2 MSTORE PUSH1 0x20 DUP2 ADD SWAP2 SWAP1 SWAP2 MSTORE PUSH1 0x40 ADD PUSH0 KECCAK256 DUP1 SLOAD PUSH1 0x1 PUSH1 0x1 PUSH1 0xA0 SHL SUB NOT AND PUSH1 0x1 PUSH1 0x1 PUSH1 0xA0 SHL SUB SWAP3 SWAP1 SWAP3 AND SWAP2 SWAP1 SWAP2 OR SWAP1 SSTORE PUSH3 0x3F8 CALLER PUSH3 0x3E5 PUSH1 0x9 SLOAD SWAP1 JUMP JUMPDEST PUSH3 0x3F2 SWAP1 PUSH1 0x1 PUSH3 0xE28 JUMP JUMPDEST PUSH3 0x428 JUMP JUMPDEST PUSH1 0x10 DUP1 SLOAD SWAP1 PUSH0 PUSH3 0x409 DUP4 PUSH3 0xE3E JUMP JUMPDEST SWAP2 SWAP1 POP SSTORE POP DUP1 DUP1 PUSH3 0x41B SWAP1 PUSH3 0xE3E JUMP JUMPDEST SWAP2 POP POP PUSH3 0x385 JUMP JUMPDEST POP POP JUMP JUMPDEST PUSH3 0x424 DUP3 DUP3 PUSH1 0x40 MLOAD DUP1 PUSH1 0x20 ADD PUSH1 0x40 MSTORE DUP1 PUSH0 DUP2 MSTORE POP PUSH3 0x449 PUSH1 0x20 SHL PUSH1 0x20 SHR JUMP JUMPDEST PUSH3 0x455 DUP4 DUP4 PUSH3 0x4BF JUMP JUMPDEST PUSH3 0x463 PUSH0 DUP5 DUP5 DUP5 PUSH3 0x65C JUMP JUMPDEST PUSH3 0x4BA JUMPI PUSH1 0x40 MLOAD PUSH3 0x461BCD PUSH1 0xE5 SHL DUP2 MSTORE PUSH1 0x20 PUSH1 0x4 DUP3 ADD MSTORE PUSH1 0x32 PUSH1 0x24 DUP3 ADD MSTORE PUSH0 DUP1 MLOAD PUSH1 0x20 PUSH3 0x31DC DUP4 CODECOPY DUP2 MLOAD SWAP2 MSTORE PUSH1 0x44 DUP3 ADD MSTORE PUSH18 0x31B2B4BB32B91034B6B83632B6B2B73A32B9 PUSH1 0x71 SHL PUSH1 0x64 DUP3 ADD MSTORE PUSH1 0x84 ADD PUSH3 0x2EE JUMP JUMPDEST POP POP POP JUMP JUMPDEST PUSH1 0x1 PUSH1 0x1 PUSH1 0xA0 SHL SUB DUP3 AND PUSH3 0x517 JUMPI PUSH1 0x40 MLOAD PUSH3 0x461BCD PUSH1 0xE5 SHL DUP2 MSTORE PUSH1 0x20 PUSH1 0x4 DUP3 ADD DUP2 SWAP1 MSTORE PUSH1 0x24 DUP3 ADD MSTORE PUSH32 0x4552433732313A206D696E7420746F20746865207A65726F2061646472657373 PUSH1 0x44 DUP3 ADD MSTORE PUSH1 0x64 ADD PUSH3 0x2EE JUMP JUMPDEST PUSH0 DUP2 DUP2 MSTORE PUSH1 0x3 PUSH1 0x20 MSTORE PUSH1 0x40 SWAP1 KECCAK256 SLOAD PUSH1 0x1 PUSH1 0x1 PUSH1 0xA0 SHL SUB AND ISZERO PUSH3 0x57D JUMPI PUSH1 0x40 MLOAD PUSH3 0x461BCD PUSH1 0xE5 SHL DUP2 MSTORE PUSH1 0x20 PUSH1 0x4 DUP3 ADD MSTORE PUSH1 0x1C PUSH1 0x24 DUP3 ADD MSTORE PUSH32 0x4552433732313A20746F6B656E20616C7265616479206D696E74656400000000 PUSH1 0x44 DUP3 ADD MSTORE PUSH1 0x64 ADD PUSH3 0x2EE JUMP JUMPDEST PUSH3 0x58C PUSH0 DUP4 DUP4 PUSH1 0x1 PUSH3 0x79F JUMP JUMPDEST PUSH0 DUP2 DUP2 MSTORE PUSH1 0x3 PUSH1 0x20 MSTORE PUSH1 0x40 SWAP1 KECCAK256 SLOAD PUSH1 0x1 PUSH1 0x1 PUSH1 0xA0 SHL SUB AND ISZERO PUSH3 0x5F2 JUMPI PUSH1 0x40 MLOAD PUSH3 0x461BCD PUSH1 0xE5 SHL DUP2 MSTORE PUSH1 0x20 PUSH1 0x4 DUP3 ADD MSTORE PUSH1 0x1C PUSH1 0x24 DUP3 ADD MSTORE PUSH32 0x4552433732313A20746F6B656E20616C7265616479206D696E74656400000000 PUSH1 0x44 DUP3 ADD MSTORE PUSH1 0x64 ADD PUSH3 0x2EE JUMP JUMPDEST PUSH1 0x1 PUSH1 0x1 PUSH1 0xA0 SHL SUB DUP3 AND PUSH0 DUP2 DUP2 MSTORE PUSH1 0x4 PUSH1 0x20 SWAP1 DUP2 MSTORE PUSH1 0x40 DUP1 DUP4 KECCAK256 DUP1 SLOAD PUSH1 0x1 ADD SWAP1 SSTORE DUP5 DUP4 MSTORE PUSH1 0x3 SWAP1 SWAP2 MSTORE DUP1 DUP3 KECCAK256 DUP1 SLOAD PUSH1 0x1 PUSH1 0x1 PUSH1 0xA0 SHL SUB NOT AND DUP5 OR SWAP1 SSTORE MLOAD DUP4 SWAP3 SWAP2 SWAP1 PUSH32 0xDDF252AD1BE2C89B69C2B068FC378DAA952BA7F163C4A11628F55A4DF523B3EF SWAP1 DUP3 SWAP1 LOG4 POP POP JUMP JUMPDEST PUSH0 PUSH1 0x1 PUSH1 0x1 PUSH1 0xA0 SHL SUB DUP5 AND EXTCODESIZE ISZERO PUSH3 0x793 JUMPI PUSH1 0x40 MLOAD PUSH4 0xA85BD01 PUSH1 0xE1 SHL DUP2 MSTORE PUSH1 0x1 PUSH1 0x1 PUSH1 0xA0 SHL SUB DUP6 AND SWAP1 PUSH4 0x150B7A02 SWAP1 PUSH3 0x6A2 SWAP1 CALLER SWAP1 DUP10 SWAP1 DUP9 SWAP1 DUP9 SWAP1 PUSH1 0x4 ADD PUSH3 0xE59 JUMP JUMPDEST PUSH1 0x20 PUSH1 0x40 MLOAD DUP1 DUP4 SUB DUP2 PUSH0 DUP8 GAS CALL SWAP3 POP POP POP DUP1 ISZERO PUSH3 0x6DF JUMPI POP PUSH1 0x40 DUP1 MLOAD PUSH1 0x1F RETURNDATASIZE SWAP1 DUP2 ADD PUSH1 0x1F NOT AND DUP3 ADD SWAP1 SWAP3 MSTORE PUSH3 0x6DC SWAP2 DUP2 ADD SWAP1 PUSH3 0xEAE JUMP JUMPDEST PUSH1 0x1 JUMPDEST PUSH3 0x778 JUMPI RETURNDATASIZE DUP1 DUP1 ISZERO PUSH3 0x70F JUMPI PUSH1 0x40 MLOAD SWAP2 POP PUSH1 0x1F NOT PUSH1 0x3F RETURNDATASIZE ADD AND DUP3 ADD PUSH1 0x40 MSTORE RETURNDATASIZE DUP3 MSTORE RETURNDATASIZE PUSH0 PUSH1 0x20 DUP5 ADD RETURNDATACOPY PUSH3 0x714 JUMP JUMPDEST PUSH1 0x60 SWAP2 POP JUMPDEST POP DUP1 MLOAD PUSH0 SUB PUSH3 0x770 JUMPI PUSH1 0x40 MLOAD PUSH3 0x461BCD PUSH1 0xE5 SHL DUP2 MSTORE PUSH1 0x20 PUSH1 0x4 DUP3 ADD MSTORE PUSH1 0x32 PUSH1 0x24 DUP3 ADD MSTORE PUSH0 DUP1 MLOAD PUSH1 0x20 PUSH3 0x31DC DUP4 CODECOPY DUP2 MLOAD SWAP2 MSTORE PUSH1 0x44 DUP3 ADD MSTORE PUSH18 0x31B2B4BB32B91034B6B83632B6B2B73A32B9 PUSH1 0x71 SHL PUSH1 0x64 DUP3 ADD MSTORE PUSH1 0x84 ADD PUSH3 0x2EE JUMP JUMPDEST DUP1 MLOAD DUP2 PUSH1 0x20 ADD REVERT JUMPDEST PUSH1 0x1 PUSH1 0x1 PUSH1 0xE0 SHL SUB NOT AND PUSH4 0xA85BD01 PUSH1 0xE1 SHL EQ SWAP1 POP PUSH3 0x797 JUMP JUMPDEST POP PUSH1 0x1 JUMPDEST SWAP5 SWAP4 POP POP POP POP JUMP JUMPDEST PUSH1 0x1 DUP2 GT ISZERO PUSH3 0x818 JUMPI PUSH1 0x40 MLOAD PUSH3 0x461BCD PUSH1 0xE5 SHL DUP2 MSTORE PUSH1 0x20 PUSH1 0x4 DUP3 ADD MSTORE PUSH1 0x35 PUSH1 0x24 DUP3 ADD MSTORE PUSH32 0x455243373231456E756D657261626C653A20636F6E7365637574697665207472 PUSH1 0x44 DUP3 ADD MSTORE PUSH32 0x616E7366657273206E6F7420737570706F727465640000000000000000000000 PUSH1 0x64 DUP3 ADD MSTORE PUSH1 0x84 ADD PUSH3 0x2EE JUMP JUMPDEST DUP2 PUSH1 0x1 PUSH1 0x1 PUSH1 0xA0 SHL SUB DUP6 AND PUSH3 0x876 JUMPI PUSH3 0x870 DUP2 PUSH1 0x9 DUP1 SLOAD PUSH0 DUP4 DUP2 MSTORE PUSH1 0xA PUSH1 0x20 MSTORE PUSH1 0x40 DUP2 KECCAK256 DUP3 SWAP1 SSTORE PUSH1 0x1 DUP3 ADD DUP4 SSTORE SWAP2 SWAP1 SWAP2 MSTORE PUSH32 0x6E1540171B6C0C960B71A7020D9F60077F6AF931A8BBF590DA0223DACF75C7AF ADD SSTORE JUMP JUMPDEST PUSH3 0x89C JUMP JUMPDEST DUP4 PUSH1 0x1 PUSH1 0x1 PUSH1 0xA0 SHL SUB AND DUP6 PUSH1 0x1 PUSH1 0x1 PUSH1 0xA0 SHL SUB AND EQ PUSH3 0x89C JUMPI PUSH3 0x89C DUP6 DUP3 PUSH3 0x8E9 JUMP JUMPDEST PUSH1 0x1 PUSH1 0x1 PUSH1 0xA0 SHL SUB DUP5 AND PUSH3 0x8BC JUMPI PUSH3 0x8B6 DUP2 PUSH3 0x987 JUMP JUMPDEST PUSH3 0x8E2 JUMP JUMPDEST DUP5 PUSH1 0x1 PUSH1 0x1 PUSH1 0xA0 SHL SUB AND DUP5 PUSH1 0x1 PUSH1 0x1 PUSH1 0xA0 SHL SUB AND EQ PUSH3 0x8E2 JUMPI PUSH3 0x8E2 DUP5 DUP3 PUSH3 0xA39 JUMP JUMPDEST POP POP POP POP POP JUMP JUMPDEST PUSH0 PUSH1 0x1 PUSH3 0x8F7 DUP5 PUSH3 0xA7D JUMP JUMPDEST PUSH3 0x903 SWAP2 SWAP1 PUSH3 0xEDE JUMP JUMPDEST PUSH0 DUP4 DUP2 MSTORE PUSH1 0x8 PUSH1 0x20 MSTORE PUSH1 0x40 SWAP1 KECCAK256 SLOAD SWAP1 SWAP2 POP DUP1 DUP3 EQ PUSH3 0x955 JUMPI PUSH1 0x1 PUSH1 0x1 PUSH1 0xA0 SHL SUB DUP5 AND PUSH0 SWAP1 DUP2 MSTORE PUSH1 0x7 PUSH1 0x20 SWAP1 DUP2 MSTORE PUSH1 0x40 DUP1 DUP4 KECCAK256 DUP6 DUP5 MSTORE DUP3 MSTORE DUP1 DUP4 KECCAK256 SLOAD DUP5 DUP5 MSTORE DUP2 DUP5 KECCAK256 DUP2 SWAP1 SSTORE DUP4 MSTORE PUSH1 0x8 SWAP1 SWAP2 MSTORE SWAP1 KECCAK256 DUP2 SWAP1 SSTORE JUMPDEST POP PUSH0 SWAP2 DUP3 MSTORE PUSH1 0x8 PUSH1 0x20 SWAP1 DUP2 MSTORE PUSH1 0x40 DUP1 DUP5 KECCAK256 DUP5 SWAP1 SSTORE PUSH1 0x1 PUSH1 0x1 PUSH1 0xA0 SHL SUB SWAP1 SWAP5 AND DUP4 MSTORE PUSH1 0x7 DUP2 MSTORE DUP4 DUP4 KECCAK256 SWAP2 DUP4 MSTORE MSTORE SWAP1 DUP2 KECCAK256 SSTORE JUMP JUMPDEST PUSH1 0x9 SLOAD PUSH0 SWAP1 PUSH3 0x99A SWAP1 PUSH1 0x1 SWAP1 PUSH3 0xEDE JUMP JUMPDEST PUSH0 DUP4 DUP2 MSTORE PUSH1 0xA PUSH1 0x20 MSTORE PUSH1 0x40 DUP2 KECCAK256 SLOAD PUSH1 0x9 DUP1 SLOAD SWAP4 SWAP5 POP SWAP1 SWAP3 DUP5 SWAP1 DUP2 LT PUSH3 0x9C4 JUMPI PUSH3 0x9C4 PUSH3 0xEF4 JUMP JUMPDEST SWAP1 PUSH0 MSTORE PUSH1 0x20 PUSH0 KECCAK256 ADD SLOAD SWAP1 POP DUP1 PUSH1 0x9 DUP4 DUP2 SLOAD DUP2 LT PUSH3 0x9E6 JUMPI PUSH3 0x9E6 PUSH3 0xEF4 JUMP JUMPDEST PUSH0 SWAP2 DUP3 MSTORE PUSH1 0x20 DUP1 DUP4 KECCAK256 SWAP1 SWAP2 ADD SWAP3 SWAP1 SWAP3 SSTORE DUP3 DUP2 MSTORE PUSH1 0xA SWAP1 SWAP2 MSTORE PUSH1 0x40 DUP1 DUP3 KECCAK256 DUP5 SWAP1 SSTORE DUP6 DUP3 MSTORE DUP2 KECCAK256 SSTORE PUSH1 0x9 DUP1 SLOAD DUP1 PUSH3 0xA20 JUMPI PUSH3 0xA20 PUSH3 0xF08 JUMP JUMPDEST PUSH1 0x1 SWAP1 SUB DUP2 DUP2 SWAP1 PUSH0 MSTORE PUSH1 0x20 PUSH0 KECCAK256 ADD PUSH0 SWAP1 SSTORE SWAP1 SSTORE POP POP POP POP JUMP JUMPDEST PUSH0 PUSH3 0xA45 DUP4 PUSH3 0xA7D JUMP JUMPDEST PUSH1 0x1 PUSH1 0x1 PUSH1 0xA0 SHL SUB SWAP1 SWAP4 AND PUSH0 SWAP1 DUP2 MSTORE PUSH1 0x7 PUSH1 0x20 SWAP1 DUP2 MSTORE PUSH1 0x40 DUP1 DUP4 KECCAK256 DUP7 DUP5 MSTORE DUP3 MSTORE DUP1 DUP4 KECCAK256 DUP6 SWAP1 SSTORE SWAP4 DUP3 MSTORE PUSH1 0x8 SWAP1 MSTORE SWAP2 SWAP1 SWAP2 KECCAK256 SWAP2 SWAP1 SWAP2 SSTORE POP JUMP JUMPDEST PUSH0 PUSH1 0x1 PUSH1 0x1 PUSH1 0xA0 SHL SUB DUP3 AND PUSH3 0xAE8 JUMPI PUSH1 0x40 MLOAD PUSH3 0x461BCD PUSH1 0xE5 SHL DUP2 MSTORE PUSH1 0x20 PUSH1 0x4 DUP3 ADD MSTORE PUSH1 0x29 PUSH1 0x24 DUP3 ADD MSTORE PUSH32 0x4552433732313A2061646472657373207A65726F206973206E6F742061207661 PUSH1 0x44 DUP3 ADD MSTORE PUSH9 0x3634B21037BBB732B9 PUSH1 0xB9 SHL PUSH1 0x64 DUP3 ADD MSTORE PUSH1 0x84 ADD PUSH3 0x2EE JUMP JUMPDEST POP PUSH1 0x1 PUSH1 0x1 PUSH1 0xA0 SHL SUB AND PUSH0 SWAP1 DUP2 MSTORE PUSH1 0x4 PUSH1 0x20 MSTORE PUSH1 0x40 SWAP1 KECCAK256 SLOAD SWAP1 JUMP JUMPDEST PUSH4 0x4E487B71 PUSH1 0xE0 SHL PUSH0 MSTORE PUSH1 0x41 PUSH1 0x4 MSTORE PUSH1 0x24 PUSH0 REVERT JUMPDEST PUSH0 JUMPDEST DUP4 DUP2 LT ISZERO PUSH3 0xB33 JUMPI DUP2 DUP2 ADD MLOAD DUP4 DUP3 ADD MSTORE PUSH1 0x20 ADD PUSH3 0xB19 JUMP JUMPDEST POP POP PUSH0 SWAP2 ADD MSTORE JUMP JUMPDEST PUSH0 DUP3 PUSH1 0x1F DUP4 ADD SLT PUSH3 0xB4B JUMPI PUSH0 DUP1 REVERT JUMPDEST DUP2 MLOAD PUSH1 0x1 PUSH1 0x1 PUSH1 0x40 SHL SUB DUP1 DUP3 GT ISZERO PUSH3 0xB68 JUMPI PUSH3 0xB68 PUSH3 0xB03 JUMP JUMPDEST PUSH1 0x40 MLOAD PUSH1 0x1F DUP4 ADD PUSH1 0x1F NOT SWAP1 DUP2 AND PUSH1 0x3F ADD AND DUP2 ADD SWAP1 DUP3 DUP3 GT DUP2 DUP4 LT OR ISZERO PUSH3 0xB93 JUMPI PUSH3 0xB93 PUSH3 0xB03 JUMP JUMPDEST DUP2 PUSH1 0x40 MSTORE DUP4 DUP2 MSTORE DUP7 PUSH1 0x20 DUP6 DUP9 ADD ADD GT ISZERO PUSH3 0xBAC JUMPI PUSH0 DUP1 REVERT JUMPDEST PUSH3 0xBBF DUP5 PUSH1 0x20 DUP4 ADD PUSH1 0x20 DUP10 ADD PUSH3 0xB17 JUMP JUMPDEST SWAP7 SWAP6 POP POP POP POP POP POP JUMP JUMPDEST PUSH0 DUP1 PUSH0 DUP1 PUSH0 PUSH1 0xA0 DUP7 DUP9 SUB SLT ISZERO PUSH3 0xBDE JUMPI PUSH0 DUP1 REVERT JUMPDEST DUP6 MLOAD PUSH1 0x1 PUSH1 0x1 PUSH1 0x40 SHL SUB DUP1 DUP3 GT ISZERO PUSH3 0xBF5 JUMPI PUSH0 DUP1 REVERT JUMPDEST PUSH3 0xC03 DUP10 DUP4 DUP11 ADD PUSH3 0xB3B JUMP JUMPDEST SWAP7 POP PUSH1 0x20 DUP9 ADD MLOAD SWAP2 POP DUP1 DUP3 GT ISZERO PUSH3 0xC19 JUMPI PUSH0 DUP1 REVERT JUMPDEST PUSH3 0xC27 DUP10 DUP4 DUP11 ADD PUSH3 0xB3B JUMP JUMPDEST SWAP6 POP PUSH1 0x40 DUP9 ADD MLOAD SWAP2 POP DUP1 DUP3 GT ISZERO PUSH3 0xC3D JUMPI PUSH0 DUP1 REVERT JUMPDEST PUSH3 0xC4B DUP10 DUP4 DUP11 ADD PUSH3 0xB3B JUMP JUMPDEST SWAP5 POP PUSH1 0x60 DUP9 ADD MLOAD SWAP2 POP DUP1 DUP3 GT ISZERO PUSH3 0xC61 JUMPI PUSH0 DUP1 REVERT JUMPDEST PUSH3 0xC6F DUP10 DUP4 DUP11 ADD PUSH3 0xB3B JUMP JUMPDEST SWAP4 POP PUSH1 0x80 DUP9 ADD MLOAD SWAP2 POP DUP1 DUP3 GT ISZERO PUSH3 0xC85 JUMPI PUSH0 DUP1 REVERT JUMPDEST POP PUSH3 0xC94 DUP9 DUP3 DUP10 ADD PUSH3 0xB3B JUMP JUMPDEST SWAP2 POP POP SWAP3 SWAP6 POP SWAP3 SWAP6 SWAP1 SWAP4 POP JUMP JUMPDEST PUSH1 0x1 DUP2 DUP2 SHR SWAP1 DUP3 AND DUP1 PUSH3 0xCB6 JUMPI PUSH1 0x7F DUP3 AND SWAP2 POP JUMPDEST PUSH1 0x20 DUP3 LT DUP2 SUB PUSH3 0xCD5 JUMPI PUSH4 0x4E487B71 PUSH1 0xE0 SHL PUSH0 MSTORE PUSH1 0x22 PUSH1 0x4 MSTORE PUSH1 0x24 PUSH0 REVERT JUMPDEST POP SWAP2 SWAP1 POP JUMP JUMPDEST PUSH1 0x1F DUP3 GT ISZERO PUSH3 0x4BA JUMPI PUSH0 DUP2 DUP2 MSTORE PUSH1 0x20 DUP2 KECCAK256 PUSH1 0x1F DUP6 ADD PUSH1 0x5 SHR DUP2 ADD PUSH1 0x20 DUP7 LT ISZERO PUSH3 0xD03 JUMPI POP DUP1 JUMPDEST PUSH1 0x1F DUP6 ADD PUSH1 0x5 SHR DUP3 ADD SWAP2 POP JUMPDEST DUP2 DUP2 LT ISZERO PUSH3 0xD24 JUMPI DUP3 DUP2 SSTORE PUSH1 0x1 ADD PUSH3 0xD0F JUMP JUMPDEST POP POP POP POP POP POP JUMP JUMPDEST DUP2 MLOAD PUSH1 0x1 PUSH1 0x1 PUSH1 0x40 SHL SUB DUP2 GT ISZERO PUSH3 0xD48 JUMPI PUSH3 0xD48 PUSH3 0xB03 JUMP JUMPDEST PUSH3 0xD60 DUP2 PUSH3 0xD59 DUP5 SLOAD PUSH3 0xCA1 JUMP JUMPDEST DUP5 PUSH3 0xCDB JUMP JUMPDEST PUSH1 0x20 DUP1 PUSH1 0x1F DUP4 GT PUSH1 0x1 DUP2 EQ PUSH3 0xD96 JUMPI PUSH0 DUP5 ISZERO PUSH3 0xD7E JUMPI POP DUP6 DUP4 ADD MLOAD JUMPDEST PUSH0 NOT PUSH1 0x3 DUP7 SWAP1 SHL SHR NOT AND PUSH1 0x1 DUP6 SWAP1 SHL OR DUP6 SSTORE PUSH3 0xD24 JUMP JUMPDEST PUSH0 DUP6 DUP2 MSTORE PUSH1 0x20 DUP2 KECCAK256 PUSH1 0x1F NOT DUP7 AND SWAP2 JUMPDEST DUP3 DUP2 LT ISZERO PUSH3 0xDC6 JUMPI DUP9 DUP7 ADD MLOAD DUP3 SSTORE SWAP5 DUP5 ADD SWAP5 PUSH1 0x1 SWAP1 SWAP2 ADD SWAP1 DUP5 ADD PUSH3 0xDA5 JUMP JUMPDEST POP DUP6 DUP3 LT ISZERO PUSH3 0xDE4 JUMPI DUP8 DUP6 ADD MLOAD PUSH0 NOT PUSH1 0x3 DUP9 SWAP1 SHL PUSH1 0xF8 AND SHR NOT AND DUP2 SSTORE JUMPDEST POP POP POP POP POP PUSH1 0x1 SWAP1 DUP2 SHL ADD SWAP1 SSTORE POP JUMP JUMPDEST PUSH4 0x4E487B71 PUSH1 0xE0 SHL PUSH0 MSTORE PUSH1 0x11 PUSH1 0x4 MSTORE PUSH1 0x24 PUSH0 REVERT JUMPDEST DUP1 DUP3 MUL DUP2 ISZERO DUP3 DUP3 DIV DUP5 EQ OR PUSH3 0xE22 JUMPI PUSH3 0xE22 PUSH3 0xDF4 JUMP JUMPDEST SWAP3 SWAP2 POP POP JUMP JUMPDEST DUP1 DUP3 ADD DUP1 DUP3 GT ISZERO PUSH3 0xE22 JUMPI PUSH3 0xE22 PUSH3 0xDF4 JUMP JUMPDEST PUSH0 PUSH1 0x1 DUP3 ADD PUSH3 0xE52 JUMPI PUSH3 0xE52 PUSH3 0xDF4 JUMP JUMPDEST POP PUSH1 0x1 ADD SWAP1 JUMP JUMPDEST PUSH0 PUSH1 0x1 DUP1 PUSH1 0xA0 SHL SUB DUP1 DUP8 AND DUP4 MSTORE DUP1 DUP7 AND PUSH1 0x20 DUP5 ADD MSTORE POP DUP4 PUSH1 0x40 DUP4 ADD MSTORE PUSH1 0x80 PUSH1 0x60 DUP4 ADD MSTORE DUP3 MLOAD DUP1 PUSH1 0x80 DUP5 ADD MSTORE PUSH3 0xE97 DUP2 PUSH1 0xA0 DUP6 ADD PUSH1 0x20 DUP8 ADD PUSH3 0xB17 JUMP JUMPDEST PUSH1 0x1F ADD PUSH1 0x1F NOT AND SWAP2 SWAP1 SWAP2 ADD PUSH1 0xA0 ADD SWAP6 SWAP5 POP POP POP POP POP JUMP JUMPDEST PUSH0 PUSH1 0x20 DUP3 DUP5 SUB SLT ISZERO PUSH3 0xEBF JUMPI PUSH0 DUP1 REVERT JUMPDEST DUP2 MLOAD PUSH1 0x1 PUSH1 0x1 PUSH1 0xE0 SHL SUB NOT DUP2 AND DUP2 EQ PUSH3 0xED7 JUMPI PUSH0 DUP1 REVERT JUMPDEST SWAP4 SWAP3 POP POP POP JUMP JUMPDEST DUP2 DUP2 SUB DUP2 DUP2 GT ISZERO PUSH3 0xE22 JUMPI PUSH3 0xE22 PUSH3 0xDF4 JUMP JUMPDEST PUSH4 0x4E487B71 PUSH1 0xE0 SHL PUSH0 MSTORE PUSH1 0x32 PUSH1 0x4 MSTORE PUSH1 0x24 PUSH0 REVERT JUMPDEST PUSH4 0x4E487B71 PUSH1 0xE0 SHL PUSH0 MSTORE PUSH1 0x31 PUSH1 0x4 MSTORE PUSH1 0x24 PUSH0 REVERT JUMPDEST PUSH2 0x22B2 DUP1 PUSH3 0xF2A PUSH0 CODECOPY PUSH0 RETURN INVALID PUSH1 0x80 PUSH1 0x40 MSTORE PUSH1 0x4 CALLDATASIZE LT PUSH2 0x1F1 JUMPI PUSH0 CALLDATALOAD PUSH1 0xE0 SHR DUP1 PUSH4 0x5A2BCC18 GT PUSH2 0x108 JUMPI DUP1 PUSH4 0xA0712D68 GT PUSH2 0x9D JUMPI DUP1 PUSH4 0xB88D4FDE GT PUSH2 0x6D JUMPI DUP1 PUSH4 0xB88D4FDE EQ PUSH2 0x539 JUMPI DUP1 PUSH4 0xC87B56DD EQ PUSH2 0x558 JUMPI DUP1 PUSH4 0xD5ABEB01 EQ PUSH2 0x577 JUMPI DUP1 PUSH4 0xE985E9C5 EQ PUSH2 0x58C JUMPI DUP1 PUSH4 0xF2FDE38B EQ PUSH2 0x5D3 JUMPI PUSH0 DUP1 REVERT JUMPDEST DUP1 PUSH4 0xA0712D68 EQ PUSH2 0x4DF JUMPI DUP1 PUSH4 0xA22CB465 EQ PUSH2 0x4F2 JUMPI DUP1 PUSH4 0xA475B5DD EQ PUSH2 0x511 JUMPI DUP1 PUSH4 0xA8995DEB EQ PUSH2 0x525 JUMPI PUSH0 DUP1 REVERT JUMPDEST DUP1 PUSH4 0x70A08231 GT PUSH2 0xD8 JUMPI DUP1 PUSH4 0x70A08231 EQ PUSH2 0x47C JUMPI DUP1 PUSH4 0x715018A6 EQ PUSH2 0x49B JUMPI DUP1 PUSH4 0x8DA5CB5B EQ PUSH2 0x4AF JUMPI DUP1 PUSH4 0x95D89B41 EQ PUSH2 0x4CB JUMPI PUSH0 DUP1 REVERT JUMPDEST DUP1 PUSH4 0x5A2BCC18 EQ PUSH2 0x41B JUMPI DUP1 PUSH4 0x5C975ABB EQ PUSH2 0x430 JUMPI DUP1 PUSH4 0x5CA1E165 EQ PUSH2 0x449 JUMPI DUP1 PUSH4 0x6352211E EQ PUSH2 0x45D JUMPI PUSH0 DUP1 REVERT JUMPDEST DUP1 PUSH4 0x23B872DD GT PUSH2 0x189 JUMPI DUP1 PUSH4 0x42842E0E GT PUSH2 0x159 JUMPI DUP1 PUSH4 0x42842E0E EQ PUSH2 0x374 JUMPI DUP1 PUSH4 0x438B6300 EQ PUSH2 0x393 JUMPI DUP1 PUSH4 0x44A0D68A EQ PUSH2 0x3BF JUMPI DUP1 PUSH4 0x4F6CCCE7 EQ PUSH2 0x3DE JUMPI DUP1 PUSH4 0x51830227 EQ PUSH2 0x3FD JUMPI PUSH0 DUP1 REVERT JUMPDEST DUP1 PUSH4 0x23B872DD EQ PUSH2 0x30D JUMPI DUP1 PUSH4 0x2F745C59 EQ PUSH2 0x32C JUMPI DUP1 PUSH4 0x3CCFD60B EQ PUSH2 0x34B JUMPI DUP1 PUSH4 0x41F43434 EQ PUSH2 0x353 JUMPI PUSH0 DUP1 REVERT JUMPDEST DUP1 PUSH4 0x95EA7B3 GT PUSH2 0x1C4 JUMPI DUP1 PUSH4 0x95EA7B3 EQ PUSH2 0x2A2 JUMPI DUP1 PUSH4 0x13FAEDE6 EQ PUSH2 0x2C1 JUMPI DUP1 PUSH4 0x18160DDD EQ PUSH2 0x2E4 JUMPI DUP1 PUSH4 0x239C70AE EQ PUSH2 0x2F8 JUMPI PUSH0 DUP1 REVERT JUMPDEST DUP1 PUSH4 0x1FFC9A7 EQ PUSH2 0x1F5 JUMPI DUP1 PUSH4 0x2329A29 EQ PUSH2 0x229 JUMPI DUP1 PUSH4 0x6FDDE03 EQ PUSH2 0x24A JUMPI DUP1 PUSH4 0x81812FC EQ PUSH2 0x26B JUMPI JUMPDEST PUSH0 DUP1 REVERT JUMPDEST CALLVALUE DUP1 ISZERO PUSH2 0x200 JUMPI PUSH0 DUP1 REVERT JUMPDEST POP PUSH2 0x214 PUSH2 0x20F CALLDATASIZE PUSH1 0x4 PUSH2 0x1C63 JUMP JUMPDEST PUSH2 0x5F2 JUMP JUMPDEST PUSH1 0x40 MLOAD SWAP1 ISZERO ISZERO DUP2 MSTORE PUSH1 0x20 ADD JUMPDEST PUSH1 0x40 MLOAD DUP1 SWAP2 SUB SWAP1 RETURN JUMPDEST CALLVALUE DUP1 ISZERO PUSH2 0x234 JUMPI PUSH0 DUP1 REVERT JUMPDEST POP PUSH2 0x248 PUSH2 0x243 CALLDATASIZE PUSH1 0x4 PUSH2 0x1C92 JUMP JUMPDEST PUSH2 0x61C JUMP JUMPDEST STOP JUMPDEST CALLVALUE DUP1 ISZERO PUSH2 0x255 JUMPI PUSH0 DUP1 REVERT JUMPDEST POP PUSH2 0x25E PUSH2 0x637 JUMP JUMPDEST PUSH1 0x40 MLOAD PUSH2 0x220 SWAP2 SWAP1 PUSH2 0x1CFA JUMP JUMPDEST CALLVALUE DUP1 ISZERO PUSH2 0x276 JUMPI PUSH0 DUP1 REVERT JUMPDEST POP PUSH2 0x28A PUSH2 0x285 CALLDATASIZE PUSH1 0x4 PUSH2 0x1D0C JUMP JUMPDEST PUSH2 0x6C7 JUMP JUMPDEST PUSH1 0x40 MLOAD PUSH1 0x1 PUSH1 0x1 PUSH1 0xA0 SHL SUB SWAP1 SWAP2 AND DUP2 MSTORE PUSH1 0x20 ADD PUSH2 0x220 JUMP JUMPDEST CALLVALUE DUP1 ISZERO PUSH2 0x2AD JUMPI PUSH0 DUP1 REVERT JUMPDEST POP PUSH2 0x248 PUSH2 0x2BC CALLDATASIZE PUSH1 0x4 PUSH2 0x1D3E JUMP JUMPDEST PUSH2 0x6EC JUMP JUMPDEST CALLVALUE DUP1 ISZERO PUSH2 0x2CC JUMPI PUSH0 DUP1 REVERT JUMPDEST POP PUSH2 0x2D6 PUSH1 0xD SLOAD DUP2 JUMP JUMPDEST PUSH1 0x40 MLOAD SWAP1 DUP2 MSTORE PUSH1 0x20 ADD PUSH2 0x220 JUMP JUMPDEST CALLVALUE DUP1 ISZERO PUSH2 0x2EF JUMPI PUSH0 DUP1 REVERT JUMPDEST POP PUSH1 0x9 SLOAD PUSH2 0x2D6 JUMP JUMPDEST CALLVALUE DUP1 ISZERO PUSH2 0x303 JUMPI PUSH0 DUP1 REVERT JUMPDEST POP PUSH2 0x2D6 PUSH1 0xF SLOAD DUP2 JUMP JUMPDEST CALLVALUE DUP1 ISZERO PUSH2 0x318 JUMPI PUSH0 DUP1 REVERT JUMPDEST POP PUSH2 0x248 PUSH2 0x327 CALLDATASIZE PUSH1 0x4 PUSH2 0x1D66 JUMP JUMPDEST PUSH2 0x805 JUMP JUMPDEST CALLVALUE DUP1 ISZERO PUSH2 0x337 JUMPI PUSH0 DUP1 REVERT JUMPDEST POP PUSH2 0x2D6 PUSH2 0x346 CALLDATASIZE PUSH1 0x4 PUSH2 0x1D3E JUMP JUMPDEST PUSH2 0x830 JUMP JUMPDEST PUSH2 0x248 PUSH2 0x8C4 JUMP JUMPDEST CALLVALUE DUP1 ISZERO PUSH2 0x35E JUMPI PUSH0 DUP1 REVERT JUMPDEST POP PUSH2 0x28A PUSH14 0xAAEB6D7670E522A718067333CD4E DUP2 JUMP JUMPDEST CALLVALUE DUP1 ISZERO PUSH2 0x37F JUMPI PUSH0 DUP1 REVERT JUMPDEST POP PUSH2 0x248 PUSH2 0x38E CALLDATASIZE PUSH1 0x4 PUSH2 0x1D66 JUMP JUMPDEST PUSH2 0x958 JUMP JUMPDEST CALLVALUE DUP1 ISZERO PUSH2 0x39E JUMPI PUSH0 DUP1 REVERT JUMPDEST POP PUSH2 0x3B2 PUSH2 0x3AD CALLDATASIZE PUSH1 0x4 PUSH2 0x1D9F JUMP JUMPDEST PUSH2 0x97D JUMP JUMPDEST PUSH1 0x40 MLOAD PUSH2 0x220 SWAP2 SWAP1 PUSH2 0x1DB8 JUMP JUMPDEST CALLVALUE DUP1 ISZERO PUSH2 0x3CA JUMPI PUSH0 DUP1 REVERT JUMPDEST POP PUSH2 0x248 PUSH2 0x3D9 CALLDATASIZE PUSH1 0x4 PUSH2 0x1D0C JUMP JUMPDEST PUSH2 0xA1C JUMP JUMPDEST CALLVALUE DUP1 ISZERO PUSH2 0x3E9 JUMPI PUSH0 DUP1 REVERT JUMPDEST POP PUSH2 0x2D6 PUSH2 0x3F8 CALLDATASIZE PUSH1 0x4 PUSH2 0x1D0C JUMP JUMPDEST PUSH2 0xA29 JUMP JUMPDEST CALLVALUE DUP1 ISZERO PUSH2 0x408 JUMPI PUSH0 DUP1 REVERT JUMPDEST POP PUSH1 0x11 SLOAD PUSH2 0x214 SWAP1 PUSH2 0x100 SWAP1 DIV PUSH1 0xFF AND DUP2 JUMP JUMPDEST CALLVALUE DUP1 ISZERO PUSH2 0x426 JUMPI PUSH0 DUP1 REVERT JUMPDEST POP PUSH2 0x2D6 PUSH1 0x10 SLOAD DUP2 JUMP JUMPDEST CALLVALUE DUP1 ISZERO PUSH2 0x43B JUMPI PUSH0 DUP1 REVERT JUMPDEST POP PUSH1 0x11 SLOAD PUSH2 0x214 SWAP1 PUSH1 0xFF AND DUP2 JUMP JUMPDEST CALLVALUE DUP1 ISZERO PUSH2 0x454 JUMPI PUSH0 DUP1 REVERT JUMPDEST POP PUSH2 0x2D6 PUSH2 0xAB9 JUMP JUMPDEST CALLVALUE DUP1 ISZERO PUSH2 0x468 JUMPI PUSH0 DUP1 REVERT JUMPDEST POP PUSH2 0x28A PUSH2 0x477 CALLDATASIZE PUSH1 0x4 PUSH2 0x1D0C JUMP JUMPDEST PUSH2 0xAC9 JUMP JUMPDEST CALLVALUE DUP1 ISZERO PUSH2 0x487 JUMPI PUSH0 DUP1 REVERT JUMPDEST POP PUSH2 0x2D6 PUSH2 0x496 CALLDATASIZE PUSH1 0x4 PUSH2 0x1D9F JUMP JUMPDEST PUSH2 0xB28 JUMP JUMPDEST CALLVALUE DUP1 ISZERO PUSH2 0x4A6 JUMPI PUSH0 DUP1 REVERT JUMPDEST POP PUSH2 0x248 PUSH2 0xBAC JUMP JUMPDEST CALLVALUE DUP1 ISZERO PUSH2 0x4BA JUMPI PUSH0 DUP1 REVERT JUMPDEST POP PUSH0 SLOAD PUSH1 0x1 PUSH1 0x1 PUSH1 0xA0 SHL SUB AND PUSH2 0x28A JUMP JUMPDEST CALLVALUE DUP1 ISZERO PUSH2 0x4D6 JUMPI PUSH0 DUP1 REVERT JUMPDEST POP PUSH2 0x25E PUSH2 0xBBF JUMP JUMPDEST PUSH2 0x248 PUSH2 0x4ED CALLDATASIZE PUSH1 0x4 PUSH2 0x1D0C JUMP JUMPDEST PUSH2 0xBCE JUMP JUMPDEST CALLVALUE DUP1 ISZERO PUSH2 0x4FD JUMPI PUSH0 DUP1 REVERT JUMPDEST POP PUSH2 0x248 PUSH2 0x50C CALLDATASIZE PUSH1 0x4 PUSH2 0x1DFB JUMP JUMPDEST PUSH2 0xD42 JUMP JUMPDEST CALLVALUE DUP1 ISZERO PUSH2 0x51C JUMPI PUSH0 DUP1 REVERT JUMPDEST POP PUSH2 0x248 PUSH2 0xD4D JUMP JUMPDEST CALLVALUE DUP1 ISZERO PUSH2 0x530 JUMPI PUSH0 DUP1 REVERT JUMPDEST POP PUSH1 0x10 SLOAD PUSH2 0x2D6 JUMP JUMPDEST CALLVALUE DUP1 ISZERO PUSH2 0x544 JUMPI PUSH0 DUP1 REVERT JUMPDEST POP PUSH2 0x248 PUSH2 0x553 CALLDATASIZE PUSH1 0x4 PUSH2 0x1E44 JUMP JUMPDEST PUSH2 0xD66 JUMP JUMPDEST CALLVALUE DUP1 ISZERO PUSH2 0x563 JUMPI PUSH0 DUP1 REVERT JUMPDEST POP PUSH2 0x25E PUSH2 0x572 CALLDATASIZE PUSH1 0x4 PUSH2 0x1D0C JUMP JUMPDEST PUSH2 0xD93 JUMP JUMPDEST CALLVALUE DUP1 ISZERO PUSH2 0x582 JUMPI PUSH0 DUP1 REVERT JUMPDEST POP PUSH2 0x2D6 PUSH1 0xE SLOAD DUP2 JUMP JUMPDEST CALLVALUE DUP1 ISZERO PUSH2 0x597 JUMPI PUSH0 DUP1 REVERT JUMPDEST POP PUSH2 0x214 PUSH2 0x5A6 CALLDATASIZE PUSH1 0x4 PUSH2 0x1F19 JUMP JUMPDEST PUSH1 0x1 PUSH1 0x1 PUSH1 0xA0 SHL SUB SWAP2 DUP3 AND PUSH0 SWAP1 DUP2 MSTORE PUSH1 0x6 PUSH1 0x20 SWAP1 DUP2 MSTORE PUSH1 0x40 DUP1 DUP4 KECCAK256 SWAP4 SWAP1 SWAP5 AND DUP3 MSTORE SWAP2 SWAP1 SWAP2 MSTORE KECCAK256 SLOAD PUSH1 0xFF AND SWAP1 JUMP JUMPDEST CALLVALUE DUP1 ISZERO PUSH2 0x5DE JUMPI PUSH0 DUP1 REVERT JUMPDEST POP PUSH2 0x248 PUSH2 0x5ED CALLDATASIZE PUSH1 0x4 PUSH2 0x1D9F JUMP JUMPDEST PUSH2 0xF04 JUMP JUMPDEST PUSH0 PUSH1 0x1 PUSH1 0x1 PUSH1 0xE0 SHL SUB NOT DUP3 AND PUSH4 0x780E9D63 PUSH1 0xE0 SHL EQ DUP1 PUSH2 0x616 JUMPI POP PUSH2 0x616 DUP3 PUSH2 0xF7A JUMP JUMPDEST SWAP3 SWAP2 POP POP JUMP JUMPDEST PUSH2 0x624 PUSH2 0xFC9 JUMP JUMPDEST PUSH1 0x11 DUP1 SLOAD PUSH1 0xFF NOT AND SWAP2 ISZERO ISZERO SWAP2 SWAP1 SWAP2 OR SWAP1 SSTORE JUMP JUMPDEST PUSH1 0x60 PUSH1 0x1 DUP1 SLOAD PUSH2 0x646 SWAP1 PUSH2 0x1F4A JUMP JUMPDEST DUP1 PUSH1 0x1F ADD PUSH1 0x20 DUP1 SWAP2 DIV MUL PUSH1 0x20 ADD PUSH1 0x40 MLOAD SWAP1 DUP2 ADD PUSH1 0x40 MSTORE DUP1 SWAP3 SWAP2 SWAP1 DUP2 DUP2 MSTORE PUSH1 0x20 ADD DUP3 DUP1 SLOAD PUSH2 0x672 SWAP1 PUSH2 0x1F4A JUMP JUMPDEST DUP1 ISZERO PUSH2 0x6BD JUMPI DUP1 PUSH1 0x1F LT PUSH2 0x694 JUMPI PUSH2 0x100 DUP1 DUP4 SLOAD DIV MUL DUP4 MSTORE SWAP2 PUSH1 0x20 ADD SWAP2 PUSH2 0x6BD JUMP JUMPDEST DUP3 ADD SWAP2 SWAP1 PUSH0 MSTORE PUSH1 0x20 PUSH0 KECCAK256 SWAP1 JUMPDEST DUP2 SLOAD DUP2 MSTORE SWAP1 PUSH1 0x1 ADD SWAP1 PUSH1 0x20 ADD DUP1 DUP4 GT PUSH2 0x6A0 JUMPI DUP3 SWAP1 SUB PUSH1 0x1F AND DUP3 ADD SWAP2 JUMPDEST POP POP POP POP POP SWAP1 POP SWAP1 JUMP JUMPDEST PUSH0 PUSH2 0x6D1 DUP3 PUSH2 0x1022 JUMP JUMPDEST POP PUSH0 SWAP1 DUP2 MSTORE PUSH1 0x5 PUSH1 0x20 MSTORE PUSH1 0x40 SWAP1 KECCAK256 SLOAD PUSH1 0x1 PUSH1 0x1 PUSH1 0xA0 SHL SUB AND SWAP1 JUMP JUMPDEST PUSH0 PUSH2 0x6F6 DUP3 PUSH2 0xAC9 JUMP JUMPDEST SWAP1 POP DUP1 PUSH1 0x1 PUSH1 0x1 PUSH1 0xA0 SHL SUB AND DUP4 PUSH1 0x1 PUSH1 0x1 PUSH1 0xA0 SHL SUB AND SUB PUSH2 0x768 JUMPI PUSH1 0x40 MLOAD PUSH3 0x461BCD PUSH1 0xE5 SHL DUP2 MSTORE PUSH1 0x20 PUSH1 0x4 DUP3 ADD MSTORE PUSH1 0x21 PUSH1 0x24 DUP3 ADD MSTORE PUSH32 0x4552433732313A20617070726F76616C20746F2063757272656E74206F776E65 PUSH1 0x44 DUP3 ADD MSTORE PUSH1 0x39 PUSH1 0xF9 SHL PUSH1 0x64 DUP3 ADD MSTORE PUSH1 0x84 ADD JUMPDEST PUSH1 0x40 MLOAD DUP1 SWAP2 SUB SWAP1 REVERT JUMPDEST CALLER PUSH1 0x1 PUSH1 0x1 PUSH1 0xA0 SHL SUB DUP3 AND EQ DUP1 PUSH2 0x784 JUMPI POP PUSH2 0x784 DUP2 CALLER PUSH2 0x5A6 JUMP JUMPDEST PUSH2 0x7F6 JUMPI PUSH1 0x40 MLOAD PUSH3 0x461BCD PUSH1 0xE5 SHL DUP2 MSTORE PUSH1 0x20 PUSH1 0x4 DUP3 ADD MSTORE PUSH1 0x3D PUSH1 0x24 DUP3 ADD MSTORE PUSH32 0x4552433732313A20617070726F76652063616C6C6572206973206E6F7420746F PUSH1 0x44 DUP3 ADD MSTORE PUSH32 0x6B656E206F776E6572206F7220617070726F76656420666F7220616C6C000000 PUSH1 0x64 DUP3 ADD MSTORE PUSH1 0x84 ADD PUSH2 0x75F JUMP JUMPDEST PUSH2 0x800 DUP4 DUP4 PUSH2 0x1080 JUMP JUMPDEST POP POP POP JUMP JUMPDEST DUP3 PUSH1 0x1 PUSH1 0x1 PUSH1 0xA0 SHL SUB DUP2 AND CALLER EQ PUSH2 0x81F JUMPI PUSH2 0x81F CALLER PUSH2 0x10ED JUMP JUMPDEST PUSH2 0x82A DUP5 DUP5 DUP5 PUSH2 0x11A4 JUMP JUMPDEST POP POP POP POP JUMP JUMPDEST PUSH0 PUSH2 0x83A DUP4 PUSH2 0xB28 JUMP JUMPDEST DUP3 LT PUSH2 0x89C JUMPI PUSH1 0x40 MLOAD PUSH3 0x461BCD PUSH1 0xE5 SHL DUP2 MSTORE PUSH1 0x20 PUSH1 0x4 DUP3 ADD MSTORE PUSH1 0x2B PUSH1 0x24 DUP3 ADD MSTORE PUSH32 0x455243373231456E756D657261626C653A206F776E657220696E646578206F75 PUSH1 0x44 DUP3 ADD MSTORE PUSH11 0x74206F6620626F756E6473 PUSH1 0xA8 SHL PUSH1 0x64 DUP3 ADD MSTORE PUSH1 0x84 ADD PUSH2 0x75F JUMP JUMPDEST POP PUSH1 0x1 PUSH1 0x1 PUSH1 0xA0 SHL SUB SWAP2 SWAP1 SWAP2 AND PUSH0 SWAP1 DUP2 MSTORE PUSH1 0x7 PUSH1 0x20 SWAP1 DUP2 MSTORE PUSH1 0x40 DUP1 DUP4 KECCAK256 SWAP4 DUP4 MSTORE SWAP3 SWAP1 MSTORE KECCAK256 SLOAD SWAP1 JUMP JUMPDEST PUSH2 0x8CC PUSH2 0xFC9 JUMP JUMPDEST PUSH0 DUP1 SLOAD PUSH1 0x40 MLOAD PUSH1 0x1 PUSH1 0x1 PUSH1 0xA0 SHL SUB SWAP1 SWAP2 AND SWAP1 SELFBALANCE SWAP1 DUP4 DUP2 DUP2 DUP2 DUP6 DUP8 GAS CALL SWAP3 POP POP POP RETURNDATASIZE DUP1 PUSH0 DUP2 EQ PUSH2 0x916 JUMPI PUSH1 0x40 MLOAD SWAP2 POP PUSH1 0x1F NOT PUSH1 0x3F RETURNDATASIZE ADD AND DUP3 ADD PUSH1 0x40 MSTORE RETURNDATASIZE DUP3 MSTORE RETURNDATASIZE PUSH0 PUSH1 0x20 DUP5 ADD RETURNDATACOPY PUSH2 0x91B JUMP JUMPDEST PUSH1 0x60 SWAP2 POP JUMPDEST POP POP SWAP1 POP DUP1 PUSH2 0x955 JUMPI PUSH1 0x40 MLOAD PUSH3 0x461BCD PUSH1 0xE5 SHL DUP2 MSTORE PUSH1 0x20 PUSH1 0x4 DUP3 ADD MSTORE PUSH1 0x6 PUSH1 0x24 DUP3 ADD MSTORE PUSH6 0x6E6F74206F73 PUSH1 0xD0 SHL PUSH1 0x44 DUP3 ADD MSTORE PUSH1 0x64 ADD PUSH2 0x75F JUMP JUMPDEST POP JUMP JUMPDEST DUP3 PUSH1 0x1 PUSH1 0x1 PUSH1 0xA0 SHL SUB DUP2 AND CALLER EQ PUSH2 0x972 JUMPI PUSH2 0x972 CALLER PUSH2 0x10ED JUMP JUMPDEST PUSH2 0x82A DUP5 DUP5 DUP5 PUSH2 0x11D5 JUMP JUMPDEST PUSH1 0x60 PUSH0 PUSH2 0x989 DUP4 PUSH2 0xB28 JUMP JUMPDEST SWAP1 POP PUSH0 DUP2 PUSH8 0xFFFFFFFFFFFFFFFF DUP2 GT ISZERO PUSH2 0x9A5 JUMPI PUSH2 0x9A5 PUSH2 0x1E30 JUMP JUMPDEST PUSH1 0x40 MLOAD SWAP1 DUP1 DUP3 MSTORE DUP1 PUSH1 0x20 MUL PUSH1 0x20 ADD DUP3 ADD PUSH1 0x40 MSTORE DUP1 ISZERO PUSH2 0x9CE JUMPI DUP2 PUSH1 0x20 ADD PUSH1 0x20 DUP3 MUL DUP1 CALLDATASIZE DUP4 CALLDATACOPY ADD SWAP1 POP JUMPDEST POP SWAP1 POP PUSH0 JUMPDEST DUP3 DUP2 LT ISZERO PUSH2 0xA14 JUMPI PUSH2 0x9E5 DUP6 DUP3 PUSH2 0x830 JUMP JUMPDEST DUP3 DUP3 DUP2 MLOAD DUP2 LT PUSH2 0x9F7 JUMPI PUSH2 0x9F7 PUSH2 0x1F82 JUMP JUMPDEST PUSH1 0x20 SWAP1 DUP2 MUL SWAP2 SWAP1 SWAP2 ADD ADD MSTORE DUP1 PUSH2 0xA0C DUP2 PUSH2 0x1FAA JUMP JUMPDEST SWAP2 POP POP PUSH2 0x9D3 JUMP JUMPDEST POP SWAP4 SWAP3 POP POP POP JUMP JUMPDEST PUSH2 0xA24 PUSH2 0xFC9 JUMP JUMPDEST PUSH1 0xD SSTORE JUMP JUMPDEST PUSH0 PUSH2 0xA33 PUSH1 0x9 SLOAD SWAP1 JUMP JUMPDEST DUP3 LT PUSH2 0xA96 JUMPI PUSH1 0x40 MLOAD PUSH3 0x461BCD PUSH1 0xE5 SHL DUP2 MSTORE PUSH1 0x20 PUSH1 0x4 DUP3 ADD MSTORE PUSH1 0x2C PUSH1 0x24 DUP3 ADD MSTORE PUSH32 0x455243373231456E756D657261626C653A20676C6F62616C20696E646578206F PUSH1 0x44 DUP3 ADD MSTORE PUSH12 0x7574206F6620626F756E6473 PUSH1 0xA0 SHL PUSH1 0x64 DUP3 ADD MSTORE PUSH1 0x84 ADD PUSH2 0x75F JUMP JUMPDEST PUSH1 0x9 DUP3 DUP2 SLOAD DUP2 LT PUSH2 0xAA9 JUMPI PUSH2 0xAA9 PUSH2 0x1F82 JUMP JUMPDEST SWAP1 PUSH0 MSTORE PUSH1 0x20 PUSH0 KECCAK256 ADD SLOAD SWAP1 POP SWAP2 SWAP1 POP JUMP JUMPDEST PUSH0 PUSH2 0xAC2 PUSH2 0xFC9 JUMP JUMPDEST POP PUSH1 0xB SLOAD SWAP1 JUMP JUMPDEST PUSH0 DUP2 DUP2 MSTORE PUSH1 0x3 PUSH1 0x20 MSTORE PUSH1 0x40 DUP2 KECCAK256 SLOAD PUSH1 0x1 PUSH1 0x1 PUSH1 0xA0 SHL SUB AND DUP1 PUSH2 0x616 JUMPI PUSH1 0x40 MLOAD PUSH3 0x461BCD PUSH1 0xE5 SHL DUP2 MSTORE PUSH1 0x20 PUSH1 0x4 DUP3 ADD MSTORE PUSH1 0x18 PUSH1 0x24 DUP3 ADD MSTORE PUSH24 0x115490CDCC8C4E881A5B9D985B1A59081D1BDAD95B881251 PUSH1 0x42 SHL PUSH1 0x44 DUP3 ADD MSTORE PUSH1 0x64 ADD PUSH2 0x75F JUMP JUMPDEST PUSH0 PUSH1 0x1 PUSH1 0x1 PUSH1 0xA0 SHL SUB DUP3 AND PUSH2 0xB91 JUMPI PUSH1 0x40 MLOAD PUSH3 0x461BCD PUSH1 0xE5 SHL DUP2 MSTORE PUSH1 0x20 PUSH1 0x4 DUP3 ADD MSTORE PUSH1 0x29 PUSH1 0x24 DUP3 ADD MSTORE PUSH32 0x4552433732313A2061646472657373207A65726F206973206E6F742061207661 PUSH1 0x44 DUP3 ADD MSTORE PUSH9 0x3634B21037BBB732B9 PUSH1 0xB9 SHL PUSH1 0x64 DUP3 ADD MSTORE PUSH1 0x84 ADD PUSH2 0x75F JUMP JUMPDEST POP PUSH1 0x1 PUSH1 0x1 PUSH1 0xA0 SHL SUB AND PUSH0 SWAP1 DUP2 MSTORE PUSH1 0x4 PUSH1 0x20 MSTORE PUSH1 0x40 SWAP1 KECCAK256 SLOAD SWAP1 JUMP JUMPDEST PUSH2 0xBB4 PUSH2 0xFC9 JUMP JUMPDEST PUSH2 0xBBD PUSH0 PUSH2 0x11EF JUMP JUMPDEST JUMP JUMPDEST PUSH1 0x60 PUSH1 0x2 DUP1 SLOAD PUSH2 0x646 SWAP1 PUSH2 0x1F4A JUMP JUMPDEST PUSH0 SLOAD PUSH1 0x1 PUSH1 0x1 PUSH1 0xA0 SHL SUB AND CALLER EQ PUSH2 0xC4D JUMPI PUSH1 0x11 SLOAD PUSH1 0xFF AND ISZERO PUSH2 0xC26 JUMPI PUSH1 0x40 MLOAD PUSH3 0x461BCD PUSH1 0xE5 SHL DUP2 MSTORE PUSH1 0x20 PUSH1 0x4 DUP3 ADD MSTORE PUSH1 0x11 PUSH1 0x24 DUP3 ADD MSTORE PUSH17 0x135A5B9D1A5B99C81A5CC81C185D5CD959 PUSH1 0x7A SHL PUSH1 0x44 DUP3 ADD MSTORE PUSH1 0x64 ADD PUSH2 0x75F JUMP JUMPDEST PUSH1 0xF SLOAD DUP2 GT ISZERO PUSH2 0xC34 JUMPI PUSH0 DUP1 REVERT JUMPDEST DUP1 PUSH1 0xD SLOAD PUSH2 0xC42 SWAP2 SWAP1 PUSH2 0x1FC2 JUMP JUMPDEST CALLVALUE LT ISZERO PUSH2 0xC4D JUMPI PUSH0 DUP1 REVERT JUMPDEST PUSH0 DUP2 GT PUSH2 0xC58 JUMPI PUSH0 DUP1 REVERT JUMPDEST PUSH1 0xE SLOAD DUP2 PUSH2 0xC65 PUSH1 0x9 SLOAD SWAP1 JUMP JUMPDEST PUSH2 0xC6F SWAP2 SWAP1 PUSH2 0x1FD9 JUMP JUMPDEST GT ISZERO PUSH2 0xCA8 JUMPI PUSH1 0x40 MLOAD PUSH3 0x461BCD PUSH1 0xE5 SHL DUP2 MSTORE PUSH1 0x20 PUSH1 0x4 DUP3 ADD MSTORE PUSH1 0x8 PUSH1 0x24 DUP3 ADD MSTORE PUSH8 0x14D3D3110813D555 PUSH1 0xC2 SHL PUSH1 0x44 DUP3 ADD MSTORE PUSH1 0x64 ADD PUSH2 0x75F JUMP JUMPDEST PUSH0 JUMPDEST DUP2 DUP2 LT ISZERO PUSH2 0xD3E JUMPI CALLER PUSH1 0x15 PUSH0 PUSH2 0xCBF PUSH1 0x9 SLOAD SWAP1 JUMP JUMPDEST PUSH2 0xCCA SWAP1 PUSH1 0x1 PUSH2 0x1FD9 JUMP JUMPDEST DUP2 MSTORE PUSH1 0x20 ADD SWAP1 DUP2 MSTORE PUSH1 0x20 ADD PUSH0 KECCAK256 PUSH0 PUSH2 0x100 EXP DUP2 SLOAD DUP2 PUSH1 0x1 PUSH1 0x1 PUSH1 0xA0 SHL SUB MUL NOT AND SWAP1 DUP4 PUSH1 0x1 PUSH1 0x1 PUSH1 0xA0 SHL SUB AND MUL OR SWAP1 SSTORE POP PUSH2 0xD17 CALLER PUSH2 0xD07 PUSH1 0x9 SLOAD SWAP1 JUMP JUMPDEST PUSH2 0xD12 SWAP1 PUSH1 0x1 PUSH2 0x1FD9 JUMP JUMPDEST PUSH2 0x123E JUMP JUMPDEST PUSH1 0x10 DUP1 SLOAD SWAP1 PUSH0 PUSH2 0xD26 DUP4 PUSH2 0x1FAA JUMP JUMPDEST SWAP2 SWAP1 POP SSTORE POP DUP1 DUP1 PUSH2 0xD36 SWAP1 PUSH2 0x1FAA JUMP JUMPDEST SWAP2 POP POP PUSH2 0xCAA JUMP JUMPDEST POP POP JUMP JUMPDEST PUSH2 0xD3E CALLER DUP4 DUP4 PUSH2 0x1257 JUMP JUMPDEST PUSH2 0xD55 PUSH2 0xFC9 JUMP JUMPDEST PUSH1 0x11 DUP1 SLOAD PUSH2 0xFF00 NOT AND PUSH2 0x100 OR SWAP1 SSTORE JUMP JUMPDEST DUP4 PUSH1 0x1 PUSH1 0x1 PUSH1 0xA0 SHL SUB DUP2 AND CALLER EQ PUSH2 0xD80 JUMPI PUSH2 0xD80 CALLER PUSH2 0x10ED JUMP JUMPDEST PUSH2 0xD8C DUP6 DUP6 DUP6 DUP6 PUSH2 0x1324 JUMP JUMPDEST POP POP POP POP POP JUMP JUMPDEST PUSH0 DUP2 DUP2 MSTORE PUSH1 0x3 PUSH1 0x20 MSTORE PUSH1 0x40 SWAP1 KECCAK256 SLOAD PUSH1 0x60 SWAP1 PUSH1 0x1 PUSH1 0x1 PUSH1 0xA0 SHL SUB AND PUSH2 0xE11 JUMPI PUSH1 0x40 MLOAD PUSH3 0x461BCD PUSH1 0xE5 SHL DUP2 MSTORE PUSH1 0x20 PUSH1 0x4 DUP3 ADD MSTORE PUSH1 0x2F PUSH1 0x24 DUP3 ADD MSTORE PUSH32 0x4552433732314D657461646174613A2055524920717565727920666F72206E6F PUSH1 0x44 DUP3 ADD MSTORE PUSH15 0x3732BC34B9BA32B73A103A37B5B2B7 PUSH1 0x89 SHL PUSH1 0x64 DUP3 ADD MSTORE PUSH1 0x84 ADD PUSH2 0x75F JUMP JUMPDEST PUSH1 0x11 SLOAD PUSH2 0x100 SWAP1 DIV PUSH1 0xFF AND ISZERO ISZERO PUSH0 SUB PUSH2 0xED2 JUMPI PUSH2 0xE2F PUSH1 0x2 DUP4 PUSH2 0x1FEC JUMP JUMPDEST PUSH0 SUB PUSH2 0xEC5 JUMPI PUSH1 0x12 DUP1 SLOAD PUSH2 0xE42 SWAP1 PUSH2 0x1F4A JUMP JUMPDEST DUP1 PUSH1 0x1F ADD PUSH1 0x20 DUP1 SWAP2 DIV MUL PUSH1 0x20 ADD PUSH1 0x40 MLOAD SWAP1 DUP2 ADD PUSH1 0x40 MSTORE DUP1 SWAP3 SWAP2 SWAP1 DUP2 DUP2 MSTORE PUSH1 0x20 ADD DUP3 DUP1 SLOAD PUSH2 0xE6E SWAP1 PUSH2 0x1F4A JUMP JUMPDEST DUP1 ISZERO PUSH2 0xEB9 JUMPI DUP1 PUSH1 0x1F LT PUSH2 0xE90 JUMPI PUSH2 0x100 DUP1 DUP4 SLOAD DIV MUL DUP4 MSTORE SWAP2 PUSH1 0x20 ADD SWAP2 PUSH2 0xEB9 JUMP JUMPDEST DUP3 ADD SWAP2 SWAP1 PUSH0 MSTORE PUSH1 0x20 PUSH0 KECCAK256 SWAP1 JUMPDEST DUP2 SLOAD DUP2 MSTORE SWAP1 PUSH1 0x1 ADD SWAP1 PUSH1 0x20 ADD DUP1 DUP4 GT PUSH2 0xE9C JUMPI DUP3 SWAP1 SUB PUSH1 0x1F AND DUP3 ADD SWAP2 JUMPDEST POP POP POP POP POP SWAP1 POP SWAP2 SWAP1 POP JUMP JUMPDEST PUSH1 0x13 DUP1 SLOAD PUSH2 0xE42 SWAP1 PUSH2 0x1F4A JUMP JUMPDEST PUSH1 0x14 PUSH2 0xEDD DUP4 PUSH2 0x1356 JUMP JUMPDEST PUSH1 0x40 MLOAD PUSH1 0x20 ADD PUSH2 0xEEE SWAP3 SWAP2 SWAP1 PUSH2 0x2026 JUMP JUMPDEST PUSH1 0x40 MLOAD PUSH1 0x20 DUP2 DUP4 SUB SUB DUP2 MSTORE SWAP1 PUSH1 0x40 MSTORE SWAP1 POP SWAP2 SWAP1 POP JUMP JUMPDEST PUSH2 0xF0C PUSH2 0xFC9 JUMP JUMPDEST PUSH1 0x1 PUSH1 0x1 PUSH1 0xA0 SHL SUB DUP2 AND PUSH2 0xF71 JUMPI PUSH1 0x40 MLOAD PUSH3 0x461BCD PUSH1 0xE5 SHL DUP2 MSTORE PUSH1 0x20 PUSH1 0x4 DUP3 ADD MSTORE PUSH1 0x26 PUSH1 0x24 DUP3 ADD MSTORE PUSH32 0x4F776E61626C653A206E6577206F776E657220697320746865207A65726F2061 PUSH1 0x44 DUP3 ADD MSTORE PUSH6 0x646472657373 PUSH1 0xD0 SHL PUSH1 0x64 DUP3 ADD MSTORE PUSH1 0x84 ADD PUSH2 0x75F JUMP JUMPDEST PUSH2 0x955 DUP2 PUSH2 0x11EF JUMP JUMPDEST PUSH0 PUSH1 0x1 PUSH1 0x1 PUSH1 0xE0 SHL SUB NOT DUP3 AND PUSH4 0x80AC58CD PUSH1 0xE0 SHL EQ DUP1 PUSH2 0xFAA JUMPI POP PUSH1 0x1 PUSH1 0x1 PUSH1 0xE0 SHL SUB NOT DUP3 AND PUSH4 0x5B5E139F PUSH1 0xE0 SHL EQ JUMPDEST DUP1 PUSH2 0x616 JUMPI POP PUSH4 0x1FFC9A7 PUSH1 0xE0 SHL PUSH1 0x1 PUSH1 0x1 PUSH1 0xE0 SHL SUB NOT DUP4 AND EQ PUSH2 0x616 JUMP JUMPDEST PUSH0 SLOAD PUSH1 0x1 PUSH1 0x1 PUSH1 0xA0 SHL SUB AND CALLER EQ PUSH2 0xBBD JUMPI PUSH1 0x40 MLOAD PUSH3 0x461BCD PUSH1 0xE5 SHL DUP2 MSTORE PUSH1 0x20 PUSH1 0x4 DUP3 ADD DUP2 SWAP1 MSTORE PUSH1 0x24 DUP3 ADD MSTORE PUSH32 0x4F776E61626C653A2063616C6C6572206973206E6F7420746865206F776E6572 PUSH1 0x44 DUP3 ADD MSTORE PUSH1 0x64 ADD PUSH2 0x75F JUMP JUMPDEST PUSH0 DUP2 DUP2 MSTORE PUSH1 0x3 PUSH1 0x20 MSTORE PUSH1 0x40 SWAP1 KECCAK256 SLOAD PUSH1 0x1 PUSH1 0x1 PUSH1 0xA0 SHL SUB AND PUSH2 0x955 JUMPI PUSH1 0x40 MLOAD PUSH3 0x461BCD PUSH1 0xE5 SHL DUP2 MSTORE PUSH1 0x20 PUSH1 0x4 DUP3 ADD MSTORE PUSH1 0x18 PUSH1 0x24 DUP3 ADD MSTORE PUSH24 0x115490CDCC8C4E881A5B9D985B1A59081D1BDAD95B881251 PUSH1 0x42 SHL PUSH1 0x44 DUP3 ADD MSTORE PUSH1 0x64 ADD PUSH2 0x75F JUMP JUMPDEST PUSH0 DUP2 DUP2 MSTORE PUSH1 0x5 PUSH1 0x20 MSTORE PUSH1 0x40 SWAP1 KECCAK256 DUP1 SLOAD PUSH1 0x1 PUSH1 0x1 PUSH1 0xA0 SHL SUB NOT AND PUSH1 0x1 PUSH1 0x1 PUSH1 0xA0 SHL SUB DUP5 AND SWAP1 DUP2 OR SWAP1 SWAP2 SSTORE DUP2 SWAP1 PUSH2 0x10B4 DUP3 PUSH2 0xAC9 JUMP JUMPDEST PUSH1 0x1 PUSH1 0x1 PUSH1 0xA0 SHL SUB AND PUSH32 0x8C5BE1E5EBEC7D5BD14F71427D1E84F3DD0314C0F7B2291E5B200AC8C7C3B925 PUSH1 0x40 MLOAD PUSH1 0x40 MLOAD DUP1 SWAP2 SUB SWAP1 LOG4 POP POP JUMP JUMPDEST PUSH14 0xAAEB6D7670E522A718067333CD4E EXTCODESIZE ISZERO PUSH2 0x955 JUMPI PUSH1 0x40 MLOAD PUSH4 0x3185C44D PUSH1 0xE2 SHL DUP2 MSTORE ADDRESS PUSH1 0x4 DUP3 ADD MSTORE PUSH1 0x1 PUSH1 0x1 PUSH1 0xA0 SHL SUB DUP3 AND PUSH1 0x24 DUP3 ADD MSTORE PUSH14 0xAAEB6D7670E522A718067333CD4E SWAP1 PUSH4 0xC6171134 SWAP1 PUSH1 0x44 ADD PUSH1 0x20 PUSH1 0x40 MLOAD DUP1 DUP4 SUB DUP2 DUP7 GAS STATICCALL ISZERO DUP1 ISZERO PUSH2 0x1158 JUMPI RETURNDATASIZE PUSH0 DUP1 RETURNDATACOPY RETURNDATASIZE PUSH0 REVERT JUMPDEST POP POP POP POP PUSH1 0x40 MLOAD RETURNDATASIZE PUSH1 0x1F NOT PUSH1 0x1F DUP3 ADD AND DUP3 ADD DUP1 PUSH1 0x40 MSTORE POP DUP2 ADD SWAP1 PUSH2 0x117C SWAP2 SWAP1 PUSH2 0x2109 JUMP JUMPDEST PUSH2 0x955 JUMPI PUSH1 0x40 MLOAD PUSH4 0x3B79C773 PUSH1 0xE2 SHL DUP2 MSTORE PUSH1 0x1 PUSH1 0x1 PUSH1 0xA0 SHL SUB DUP3 AND PUSH1 0x4 DUP3 ADD MSTORE PUSH1 0x24 ADD PUSH2 0x75F JUMP JUMPDEST PUSH2 0x11AE CALLER DUP3 PUSH2 0x13E6 JUMP JUMPDEST PUSH2 0x11CA JUMPI PUSH1 0x40 MLOAD PUSH3 0x461BCD PUSH1 0xE5 SHL DUP2 MSTORE PUSH1 0x4 ADD PUSH2 0x75F SWAP1 PUSH2 0x2124 JUMP JUMPDEST PUSH2 0x800 DUP4 DUP4 DUP4 PUSH2 0x1463 JUMP JUMPDEST PUSH2 0x800 DUP4 DUP4 DUP4 PUSH1 0x40 MLOAD DUP1 PUSH1 0x20 ADD PUSH1 0x40 MSTORE DUP1 PUSH0 DUP2 MSTORE POP PUSH2 0xD66 JUMP JUMPDEST PUSH0 DUP1 SLOAD PUSH1 0x1 PUSH1 0x1 PUSH1 0xA0 SHL SUB DUP4 DUP2 AND PUSH1 0x1 PUSH1 0x1 PUSH1 0xA0 SHL SUB NOT DUP4 AND DUP2 OR DUP5 SSTORE PUSH1 0x40 MLOAD SWAP2 SWAP1 SWAP3 AND SWAP3 DUP4 SWAP2 PUSH32 0x8BE0079C531659141344CD1FD0A4F28419497F9722A3DAAFE3B4186F6B6457E0 SWAP2 SWAP1 LOG3 POP POP JUMP JUMPDEST PUSH2 0xD3E DUP3 DUP3 PUSH1 0x40 MLOAD DUP1 PUSH1 0x20 ADD PUSH1 0x40 MSTORE DUP1 PUSH0 DUP2 MSTORE POP PUSH2 0x15D2 JUMP JUMPDEST DUP2 PUSH1 0x1 PUSH1 0x1 PUSH1 0xA0 SHL SUB AND DUP4 PUSH1 0x1 PUSH1 0x1 PUSH1 0xA0 SHL SUB AND SUB PUSH2 0x12B8 JUMPI PUSH1 0x40 MLOAD PUSH3 0x461BCD PUSH1 0xE5 SHL DUP2 MSTORE PUSH1 0x20 PUSH1 0x4 DUP3 ADD MSTORE PUSH1 0x19 PUSH1 0x24 DUP3 ADD MSTORE PUSH32 0x4552433732313A20617070726F766520746F2063616C6C657200000000000000 PUSH1 0x44 DUP3 ADD MSTORE PUSH1 0x64 ADD PUSH2 0x75F JUMP JUMPDEST PUSH1 0x1 PUSH1 0x1 PUSH1 0xA0 SHL SUB DUP4 DUP2 AND PUSH0 DUP2 DUP2 MSTORE PUSH1 0x6 PUSH1 0x20 SWAP1 DUP2 MSTORE PUSH1 0x40 DUP1 DUP4 KECCAK256 SWAP5 DUP8 AND DUP1 DUP5 MSTORE SWAP5 DUP3 MSTORE SWAP2 DUP3 SWAP1 KECCAK256 DUP1 SLOAD PUSH1 0xFF NOT AND DUP7 ISZERO ISZERO SWAP1 DUP2 OR SWAP1 SWAP2 SSTORE SWAP2 MLOAD SWAP2 DUP3 MSTORE PUSH32 0x17307EAB39AB6107E8899845AD3D59BD9653F200F220920489CA2B5937696C31 SWAP2 ADD PUSH1 0x40 MLOAD DUP1 SWAP2 SUB SWAP1 LOG3 POP POP POP JUMP JUMPDEST PUSH2 0x132E CALLER DUP4 PUSH2 0x13E6 JUMP JUMPDEST PUSH2 0x134A JUMPI PUSH1 0x40 MLOAD PUSH3 0x461BCD PUSH1 0xE5 SHL DUP2 MSTORE PUSH1 0x4 ADD PUSH2 0x75F SWAP1 PUSH2 0x2124 JUMP JUMPDEST PUSH2 0x82A DUP5 DUP5 DUP5 DUP5 PUSH2 0x1604 JUMP JUMPDEST PUSH1 0x60 PUSH0 PUSH2 0x1362 DUP4 PUSH2 0x1637 JUMP JUMPDEST PUSH1 0x1 ADD SWAP1 POP PUSH0 DUP2 PUSH8 0xFFFFFFFFFFFFFFFF DUP2 GT ISZERO PUSH2 0x1381 JUMPI PUSH2 0x1381 PUSH2 0x1E30 JUMP JUMPDEST PUSH1 0x40 MLOAD SWAP1 DUP1 DUP3 MSTORE DUP1 PUSH1 0x1F ADD PUSH1 0x1F NOT AND PUSH1 0x20 ADD DUP3 ADD PUSH1 0x40 MSTORE DUP1 ISZERO PUSH2 0x13AB JUMPI PUSH1 0x20 DUP3 ADD DUP2 DUP1 CALLDATASIZE DUP4 CALLDATACOPY ADD SWAP1 POP JUMPDEST POP SWAP1 POP DUP2 DUP2 ADD PUSH1 0x20 ADD JUMPDEST PUSH0 NOT ADD PUSH16 0x181899199A1A9B1B9C1CB0B131B232B3 PUSH1 0x81 SHL PUSH1 0xA DUP7 MOD BYTE DUP2 MSTORE8 PUSH1 0xA DUP6 DIV SWAP5 POP DUP5 PUSH2 0x13B5 JUMPI POP SWAP4 SWAP3 POP POP POP JUMP JUMPDEST PUSH0 DUP1 PUSH2 0x13F1 DUP4 PUSH2 0xAC9 JUMP JUMPDEST SWAP1 POP DUP1 PUSH1 0x1 PUSH1 0x1 PUSH1 0xA0 SHL SUB AND DUP5 PUSH1 0x1 PUSH1 0x1 PUSH1 0xA0 SHL SUB AND EQ DUP1 PUSH2 0x1437 JUMPI POP PUSH1 0x1 PUSH1 0x1 PUSH1 0xA0 SHL SUB DUP1 DUP3 AND PUSH0 SWAP1 DUP2 MSTORE PUSH1 0x6 PUSH1 0x20 SWAP1 DUP2 MSTORE PUSH1 0x40 DUP1 DUP4 KECCAK256 SWAP4 DUP9 AND DUP4 MSTORE SWAP3 SWAP1 MSTORE KECCAK256 SLOAD PUSH1 0xFF AND JUMPDEST DUP1 PUSH2 0x145B JUMPI POP DUP4 PUSH1 0x1 PUSH1 0x1 PUSH1 0xA0 SHL SUB AND PUSH2 0x1450 DUP5 PUSH2 0x6C7 JUMP JUMPDEST PUSH1 0x1 PUSH1 0x1 PUSH1 0xA0 SHL SUB AND EQ JUMPDEST SWAP5 SWAP4 POP POP POP POP JUMP JUMPDEST DUP3 PUSH1 0x1 PUSH1 0x1 PUSH1 0xA0 SHL SUB AND PUSH2 0x1476 DUP3 PUSH2 0xAC9 JUMP JUMPDEST PUSH1 0x1 PUSH1 0x1 PUSH1 0xA0 SHL SUB AND EQ PUSH2 0x149C JUMPI PUSH1 0x40 MLOAD PUSH3 0x461BCD PUSH1 0xE5 SHL DUP2 MSTORE PUSH1 0x4 ADD PUSH2 0x75F SWAP1 PUSH2 0x2171 JUMP JUMPDEST PUSH1 0x1 PUSH1 0x1 PUSH1 0xA0 SHL SUB DUP3 AND PUSH2 0x14FE JUMPI PUSH1 0x40 MLOAD PUSH3 0x461BCD PUSH1 0xE5 SHL DUP2 MSTORE PUSH1 0x20 PUSH1 0x4 DUP3 ADD MSTORE PUSH1 0x24 DUP1 DUP3 ADD MSTORE PUSH32 0x4552433732313A207472616E7366657220746F20746865207A65726F20616464 PUSH1 0x44 DUP3 ADD MSTORE PUSH4 0x72657373 PUSH1 0xE0 SHL PUSH1 0x64 DUP3 ADD MSTORE PUSH1 0x84 ADD PUSH2 0x75F JUMP JUMPDEST PUSH2 0x150B DUP4 DUP4 DUP4 PUSH1 0x1 PUSH2 0x170E JUMP JUMPDEST DUP3 PUSH1 0x1 PUSH1 0x1 PUSH1 0xA0 SHL SUB AND PUSH2 0x151E DUP3 PUSH2 0xAC9 JUMP JUMPDEST PUSH1 0x1 PUSH1 0x1 PUSH1 0xA0 SHL SUB AND EQ PUSH2 0x1544 JUMPI PUSH1 0x40 MLOAD PUSH3 0x461BCD PUSH1 0xE5 SHL DUP2 MSTORE PUSH1 0x4 ADD PUSH2 0x75F SWAP1 PUSH2 0x2171 JUMP JUMPDEST PUSH0 DUP2 DUP2 MSTORE PUSH1 0x5 PUSH1 0x20 SWAP1 DUP2 MSTORE PUSH1 0x40 DUP1 DUP4 KECCAK256 DUP1 SLOAD PUSH1 0x1 PUSH1 0x1 PUSH1 0xA0 SHL SUB NOT SWAP1 DUP2 AND SWAP1 SWAP2 SSTORE PUSH1 0x1 PUSH1 0x1 PUSH1 0xA0 SHL SUB DUP8 DUP2 AND DUP1 DUP7 MSTORE PUSH1 0x4 DUP6 MSTORE DUP4 DUP7 KECCAK256 DUP1 SLOAD PUSH0 NOT ADD SWAP1 SSTORE SWAP1 DUP8 AND DUP1 DUP7 MSTORE DUP4 DUP7 KECCAK256 DUP1 SLOAD PUSH1 0x1 ADD SWAP1 SSTORE DUP7 DUP7 MSTORE PUSH1 0x3 SWAP1 SWAP5 MSTORE DUP3 DUP6 KECCAK256 DUP1 SLOAD SWAP1 SWAP3 AND DUP5 OR SWAP1 SWAP2 SSTORE SWAP1 MLOAD DUP5 SWAP4 PUSH32 0xDDF252AD1BE2C89B69C2B068FC378DAA952BA7F163C4A11628F55A4DF523B3EF SWAP2 LOG4 POP POP POP JUMP JUMPDEST PUSH2 0x15DC DUP4 DUP4 PUSH2 0x183A JUMP JUMPDEST PUSH2 0x15E8 PUSH0 DUP5 DUP5 DUP5 PUSH2 0x19CF JUMP JUMPDEST PUSH2 0x800 JUMPI PUSH1 0x40 MLOAD PUSH3 0x461BCD PUSH1 0xE5 SHL DUP2 MSTORE PUSH1 0x4 ADD PUSH2 0x75F SWAP1 PUSH2 0x21B6 JUMP JUMPDEST PUSH2 0x160F DUP5 DUP5 DUP5 PUSH2 0x1463 JUMP JUMPDEST PUSH2 0x161B DUP5 DUP5 DUP5 DUP5 PUSH2 0x19CF JUMP JUMPDEST PUSH2 0x82A JUMPI PUSH1 0x40 MLOAD PUSH3 0x461BCD PUSH1 0xE5 SHL DUP2 MSTORE PUSH1 0x4 ADD PUSH2 0x75F SWAP1 PUSH2 0x21B6 JUMP JUMPDEST PUSH0 DUP1 PUSH19 0x184F03E93FF9F4DAA797ED6E38ED64BF6A1F01 PUSH1 0x40 SHL DUP4 LT PUSH2 0x1675 JUMPI PUSH19 0x184F03E93FF9F4DAA797ED6E38ED64BF6A1F01 PUSH1 0x40 SHL DUP4 DIV SWAP3 POP PUSH1 0x40 ADD JUMPDEST PUSH14 0x4EE2D6D415B85ACEF8100000000 DUP4 LT PUSH2 0x16A1 JUMPI PUSH14 0x4EE2D6D415B85ACEF8100000000 DUP4 DIV SWAP3 POP PUSH1 0x20 ADD JUMPDEST PUSH7 0x2386F26FC10000 DUP4 LT PUSH2 0x16BF JUMPI PUSH7 0x2386F26FC10000 DUP4 DIV SWAP3 POP PUSH1 0x10 ADD JUMPDEST PUSH4 0x5F5E100 DUP4 LT PUSH2 0x16D7 JUMPI PUSH4 0x5F5E100 DUP4 DIV SWAP3 POP PUSH1 0x8 ADD JUMPDEST PUSH2 0x2710 DUP4 LT PUSH2 0x16EB JUMPI PUSH2 0x2710 DUP4 DIV SWAP3 POP PUSH1 0x4 ADD JUMPDEST PUSH1 0x64 DUP4 LT PUSH2 0x16FD JUMPI PUSH1 0x64 DUP4 DIV SWAP3 POP PUSH1 0x2 ADD JUMPDEST PUSH1 0xA DUP4 LT PUSH2 0x616 JUMPI PUSH1 0x1 ADD SWAP3 SWAP2 POP POP JUMP JUMPDEST PUSH1 0x1 DUP2 GT ISZERO PUSH2 0x177D JUMPI PUSH1 0x40 MLOAD PUSH3 0x461BCD PUSH1 0xE5 SHL DUP2 MSTORE PUSH1 0x20 PUSH1 0x4 DUP3 ADD MSTORE PUSH1 0x35 PUSH1 0x24 DUP3 ADD MSTORE PUSH32 0x455243373231456E756D657261626C653A20636F6E7365637574697665207472 PUSH1 0x44 DUP3 ADD MSTORE PUSH21 0x185B9CD9995C9CC81B9BDD081CDD5C1C1BDC9D1959 PUSH1 0x5A SHL PUSH1 0x64 DUP3 ADD MSTORE PUSH1 0x84 ADD PUSH2 0x75F JUMP JUMPDEST DUP2 PUSH1 0x1 PUSH1 0x1 PUSH1 0xA0 SHL SUB DUP6 AND PUSH2 0x17D8 JUMPI PUSH2 0x17D3 DUP2 PUSH1 0x9 DUP1 SLOAD PUSH0 DUP4 DUP2 MSTORE PUSH1 0xA PUSH1 0x20 MSTORE PUSH1 0x40 DUP2 KECCAK256 DUP3 SWAP1 SSTORE PUSH1 0x1 DUP3 ADD DUP4 SSTORE SWAP2 SWAP1 SWAP2 MSTORE PUSH32 0x6E1540171B6C0C960B71A7020D9F60077F6AF931A8BBF590DA0223DACF75C7AF ADD SSTORE JUMP JUMPDEST PUSH2 0x17FB JUMP JUMPDEST DUP4 PUSH1 0x1 PUSH1 0x1 PUSH1 0xA0 SHL SUB AND DUP6 PUSH1 0x1 PUSH1 0x1 PUSH1 0xA0 SHL SUB AND EQ PUSH2 0x17FB JUMPI PUSH2 0x17FB DUP6 DUP3 PUSH2 0x1ACC JUMP JUMPDEST PUSH1 0x1 PUSH1 0x1 PUSH1 0xA0 SHL SUB DUP5 AND PUSH2 0x1817 JUMPI PUSH2 0x1812 DUP2 PUSH2 0x1B65 JUMP JUMPDEST PUSH2 0xD8C JUMP JUMPDEST DUP5 PUSH1 0x1 PUSH1 0x1 PUSH1 0xA0 SHL SUB AND DUP5 PUSH1 0x1 PUSH1 0x1 PUSH1 0xA0 SHL SUB AND EQ PUSH2 0xD8C JUMPI PUSH2 0xD8C DUP5 DUP3 PUSH2 0x1C0C JUMP JUMPDEST PUSH1 0x1 PUSH1 0x1 PUSH1 0xA0 SHL SUB DUP3 AND PUSH2 0x1890 JUMPI PUSH1 0x40 MLOAD PUSH3 0x461BCD PUSH1 0xE5 SHL DUP2 MSTORE PUSH1 0x20 PUSH1 0x4 DUP3 ADD DUP2 SWAP1 MSTORE PUSH1 0x24 DUP3 ADD MSTORE PUSH32 0x4552433732313A206D696E7420746F20746865207A65726F2061646472657373 PUSH1 0x44 DUP3 ADD MSTORE PUSH1 0x64 ADD PUSH2 0x75F JUMP JUMPDEST PUSH0 DUP2 DUP2 MSTORE PUSH1 0x3 PUSH1 0x20 MSTORE PUSH1 0x40 SWAP1 KECCAK256 SLOAD PUSH1 0x1 PUSH1 0x1 PUSH1 0xA0 SHL SUB AND ISZERO PUSH2 0x18F4 JUMPI PUSH1 0x40 MLOAD PUSH3 0x461BCD PUSH1 0xE5 SHL DUP2 MSTORE PUSH1 0x20 PUSH1 0x4 DUP3 ADD MSTORE PUSH1 0x1C PUSH1 0x24 DUP3 ADD MSTORE PUSH32 0x4552433732313A20746F6B656E20616C7265616479206D696E74656400000000 PUSH1 0x44 DUP3 ADD MSTORE PUSH1 0x64 ADD PUSH2 0x75F JUMP JUMPDEST PUSH2 0x1901 PUSH0 DUP4 DUP4 PUSH1 0x1 PUSH2 0x170E JUMP JUMPDEST PUSH0 DUP2 DUP2 MSTORE PUSH1 0x3 PUSH1 0x20 MSTORE PUSH1 0x40 SWAP1 KECCAK256 SLOAD PUSH1 0x1 PUSH1 0x1 PUSH1 0xA0 SHL SUB AND ISZERO PUSH2 0x1965 JUMPI PUSH1 0x40 MLOAD PUSH3 0x461BCD PUSH1 0xE5 SHL DUP2 MSTORE PUSH1 0x20 PUSH1 0x4 DUP3 ADD MSTORE PUSH1 0x1C PUSH1 0x24 DUP3 ADD MSTORE PUSH32 0x4552433732313A20746F6B656E20616C7265616479206D696E74656400000000 PUSH1 0x44 DUP3 ADD MSTORE PUSH1 0x64 ADD PUSH2 0x75F JUMP JUMPDEST PUSH1 0x1 PUSH1 0x1 PUSH1 0xA0 SHL SUB DUP3 AND PUSH0 DUP2 DUP2 MSTORE PUSH1 0x4 PUSH1 0x20 SWAP1 DUP2 MSTORE PUSH1 0x40 DUP1 DUP4 KECCAK256 DUP1 SLOAD PUSH1 0x1 ADD SWAP1 SSTORE DUP5 DUP4 MSTORE PUSH1 0x3 SWAP1 SWAP2 MSTORE DUP1 DUP3 KECCAK256 DUP1 SLOAD PUSH1 0x1 PUSH1 0x1 PUSH1 0xA0 SHL SUB NOT AND DUP5 OR SWAP1 SSTORE MLOAD DUP4 SWAP3 SWAP2 SWAP1 PUSH32 0xDDF252AD1BE2C89B69C2B068FC378DAA952BA7F163C4A11628F55A4DF523B3EF SWAP1 DUP3 SWAP1 LOG4 POP POP JUMP JUMPDEST PUSH0 PUSH1 0x1 PUSH1 0x1 PUSH1 0xA0 SHL SUB DUP5 AND EXTCODESIZE ISZERO PUSH2 0x1AC1 JUMPI PUSH1 0x40 MLOAD PUSH4 0xA85BD01 PUSH1 0xE1 SHL DUP2 MSTORE PUSH1 0x1 PUSH1 0x1 PUSH1 0xA0 SHL SUB DUP6 AND SWAP1 PUSH4 0x150B7A02 SWAP1 PUSH2 0x1A12 SWAP1 CALLER SWAP1 DUP10 SWAP1 DUP9 SWAP1 DUP9 SWAP1 PUSH1 0x4 ADD PUSH2 0x2208 JUMP JUMPDEST PUSH1 0x20 PUSH1 0x40 MLOAD DUP1 DUP4 SUB DUP2 PUSH0 DUP8 GAS CALL SWAP3 POP POP POP DUP1 ISZERO PUSH2 0x1A4C JUMPI POP PUSH1 0x40 DUP1 MLOAD PUSH1 0x1F RETURNDATASIZE SWAP1 DUP2 ADD PUSH1 0x1F NOT AND DUP3 ADD SWAP1 SWAP3 MSTORE PUSH2 0x1A49 SWAP2 DUP2 ADD SWAP1 PUSH2 0x223A JUMP JUMPDEST PUSH1 0x1 JUMPDEST PUSH2 0x1AA7 JUMPI RETURNDATASIZE DUP1 DUP1 ISZERO PUSH2 0x1A79 JUMPI PUSH1 0x40 MLOAD SWAP2 POP PUSH1 0x1F NOT PUSH1 0x3F RETURNDATASIZE ADD AND DUP3 ADD PUSH1 0x40 MSTORE RETURNDATASIZE DUP3 MSTORE RETURNDATASIZE PUSH0 PUSH1 0x20 DUP5 ADD RETURNDATACOPY PUSH2 0x1A7E JUMP JUMPDEST PUSH1 0x60 SWAP2 POP JUMPDEST POP DUP1 MLOAD PUSH0 SUB PUSH2 0x1A9F JUMPI PUSH1 0x40 MLOAD PUSH3 0x461BCD PUSH1 0xE5 SHL DUP2 MSTORE PUSH1 0x4 ADD PUSH2 0x75F SWAP1 PUSH2 0x21B6 JUMP JUMPDEST DUP1 MLOAD DUP2 PUSH1 0x20 ADD REVERT JUMPDEST PUSH1 0x1 PUSH1 0x1 PUSH1 0xE0 SHL SUB NOT AND PUSH4 0xA85BD01 PUSH1 0xE1 SHL EQ SWAP1 POP PUSH2 0x145B JUMP JUMPDEST POP PUSH1 0x1 SWAP5 SWAP4 POP POP POP POP JUMP JUMPDEST PUSH0 PUSH1 0x1 PUSH2 0x1AD8 DUP5 PUSH2 0xB28 JUMP JUMPDEST PUSH2 0x1AE2 SWAP2 SWAP1 PUSH2 0x2255 JUMP JUMPDEST PUSH0 DUP4 DUP2 MSTORE PUSH1 0x8 PUSH1 0x20 MSTORE PUSH1 0x40 SWAP1 KECCAK256 SLOAD SWAP1 SWAP2 POP DUP1 DUP3 EQ PUSH2 0x1B33 JUMPI PUSH1 0x1 PUSH1 0x1 PUSH1 0xA0 SHL SUB DUP5 AND PUSH0 SWAP1 DUP2 MSTORE PUSH1 0x7 PUSH1 0x20 SWAP1 DUP2 MSTORE PUSH1 0x40 DUP1 DUP4 KECCAK256 DUP6 DUP5 MSTORE DUP3 MSTORE DUP1 DUP4 KECCAK256 SLOAD DUP5 DUP5 MSTORE DUP2 DUP5 KECCAK256 DUP2 SWAP1 SSTORE DUP4 MSTORE PUSH1 0x8 SWAP1 SWAP2 MSTORE SWAP1 KECCAK256 DUP2 SWAP1 SSTORE JUMPDEST POP PUSH0 SWAP2 DUP3 MSTORE PUSH1 0x8 PUSH1 0x20 SWAP1 DUP2 MSTORE PUSH1 0x40 DUP1 DUP5 KECCAK256 DUP5 SWAP1 SSTORE PUSH1 0x1 PUSH1 0x1 PUSH1 0xA0 SHL SUB SWAP1 SWAP5 AND DUP4 MSTORE PUSH1 0x7 DUP2 MSTORE DUP4 DUP4 KECCAK256 SWAP2 DUP4 MSTORE MSTORE SWAP1 DUP2 KECCAK256 SSTORE JUMP JUMPDEST PUSH1 0x9 SLOAD PUSH0 SWAP1 PUSH2 0x1B76 SWAP1 PUSH1 0x1 SWAP1 PUSH2 0x2255 JUMP JUMPDEST PUSH0 DUP4 DUP2 MSTORE PUSH1 0xA PUSH1 0x20 MSTORE PUSH1 0x40 DUP2 KECCAK256 SLOAD PUSH1 0x9 DUP1 SLOAD SWAP4 SWAP5 POP SWAP1 SWAP3 DUP5 SWAP1 DUP2 LT PUSH2 0x1B9D JUMPI PUSH2 0x1B9D PUSH2 0x1F82 JUMP JUMPDEST SWAP1 PUSH0 MSTORE PUSH1 0x20 PUSH0 KECCAK256 ADD SLOAD SWAP1 POP DUP1 PUSH1 0x9 DUP4 DUP2 SLOAD DUP2 LT PUSH2 0x1BBC JUMPI PUSH2 0x1BBC PUSH2 0x1F82 JUMP JUMPDEST PUSH0 SWAP2 DUP3 MSTORE PUSH1 0x20 DUP1 DUP4 KECCAK256 SWAP1 SWAP2 ADD SWAP3 SWAP1 SWAP3 SSTORE DUP3 DUP2 MSTORE PUSH1 0xA SWAP1 SWAP2 MSTORE PUSH1 0x40 DUP1 DUP3 KECCAK256 DUP5 SWAP1 SSTORE DUP6 DUP3 MSTORE DUP2 KECCAK256 SSTORE PUSH1 0x9 DUP1 SLOAD DUP1 PUSH2 0x1BF3 JUMPI PUSH2 0x1BF3 PUSH2 0x2268 JUMP JUMPDEST PUSH1 0x1 SWAP1 SUB DUP2 DUP2 SWAP1 PUSH0 MSTORE PUSH1 0x20 PUSH0 KECCAK256 ADD PUSH0 SWAP1 SSTORE SWAP1 SSTORE POP POP POP POP JUMP JUMPDEST PUSH0 PUSH2 0x1C16 DUP4 PUSH2 0xB28 JUMP JUMPDEST PUSH1 0x1 PUSH1 0x1 PUSH1 0xA0 SHL SUB SWAP1 SWAP4 AND PUSH0 SWAP1 DUP2 MSTORE PUSH1 0x7 PUSH1 0x20 SWAP1 DUP2 MSTORE PUSH1 0x40 DUP1 DUP4 KECCAK256 DUP7 DUP5 MSTORE DUP3 MSTORE DUP1 DUP4 KECCAK256 DUP6 SWAP1 SSTORE SWAP4 DUP3 MSTORE PUSH1 0x8 SWAP1 MSTORE SWAP2 SWAP1 SWAP2 KECCAK256 SWAP2 SWAP1 SWAP2 SSTORE POP JUMP JUMPDEST PUSH1 0x1 PUSH1 0x1 PUSH1 0xE0 SHL SUB NOT DUP2 AND DUP2 EQ PUSH2 0x955 JUMPI PUSH0 DUP1 REVERT JUMPDEST PUSH0 PUSH1 0x20 DUP3 DUP5 SUB SLT ISZERO PUSH2 0x1C73 JUMPI PUSH0 DUP1 REVERT JUMPDEST DUP2 CALLDATALOAD PUSH2 0x1C7E DUP2 PUSH2 0x1C4E JUMP JUMPDEST SWAP4 SWAP3 POP POP POP JUMP JUMPDEST DUP1 ISZERO ISZERO DUP2 EQ PUSH2 0x955 JUMPI PUSH0 DUP1 REVERT JUMPDEST PUSH0 PUSH1 0x20 DUP3 DUP5 SUB SLT ISZERO PUSH2 0x1CA2 JUMPI PUSH0 DUP1 REVERT JUMPDEST DUP2 CALLDATALOAD PUSH2 0x1C7E DUP2 PUSH2 0x1C85 JUMP JUMPDEST PUSH0 JUMPDEST DUP4 DUP2 LT ISZERO PUSH2 0x1CC7 JUMPI DUP2 DUP2 ADD MLOAD DUP4 DUP3 ADD MSTORE PUSH1 0x20 ADD PUSH2 0x1CAF JUMP JUMPDEST POP POP PUSH0 SWAP2 ADD MSTORE JUMP JUMPDEST PUSH0 DUP2 MLOAD DUP1 DUP5 MSTORE PUSH2 0x1CE6 DUP2 PUSH1 0x20 DUP7 ADD PUSH1 0x20 DUP7 ADD PUSH2 0x1CAD JUMP JUMPDEST PUSH1 0x1F ADD PUSH1 0x1F NOT AND SWAP3 SWAP1 SWAP3 ADD PUSH1 0x20 ADD SWAP3 SWAP2 POP POP JUMP JUMPDEST PUSH1 0x20 DUP2 MSTORE PUSH0 PUSH2 0x1C7E PUSH1 0x20 DUP4 ADD DUP5 PUSH2 0x1CCF JUMP JUMPDEST PUSH0 PUSH1 0x20 DUP3 DUP5 SUB SLT ISZERO PUSH2 0x1D1C JUMPI PUSH0 DUP1 REVERT JUMPDEST POP CALLDATALOAD SWAP2 SWAP1 POP JUMP JUMPDEST DUP1 CALLDATALOAD PUSH1 0x1 PUSH1 0x1 PUSH1 0xA0 SHL SUB DUP2 AND DUP2 EQ PUSH2 0x1D39 JUMPI PUSH0 DUP1 REVERT JUMPDEST SWAP2 SWAP1 POP JUMP JUMPDEST PUSH0 DUP1 PUSH1 0x40 DUP4 DUP6 SUB SLT ISZERO PUSH2 0x1D4F JUMPI PUSH0 DUP1 REVERT JUMPDEST PUSH2 0x1D58 DUP4 PUSH2 0x1D23 JUMP JUMPDEST SWAP5 PUSH1 0x20 SWAP4 SWAP1 SWAP4 ADD CALLDATALOAD SWAP4 POP POP POP JUMP JUMPDEST PUSH0 DUP1 PUSH0 PUSH1 0x60 DUP5 DUP7 SUB SLT ISZERO PUSH2 0x1D78 JUMPI PUSH0 DUP1 REVERT JUMPDEST PUSH2 0x1D81 DUP5 PUSH2 0x1D23 JUMP JUMPDEST SWAP3 POP PUSH2 0x1D8F PUSH1 0x20 DUP6 ADD PUSH2 0x1D23 JUMP JUMPDEST SWAP2 POP PUSH1 0x40 DUP5 ADD CALLDATALOAD SWAP1 POP SWAP3 POP SWAP3 POP SWAP3 JUMP JUMPDEST PUSH0 PUSH1 0x20 DUP3 DUP5 SUB SLT ISZERO PUSH2 0x1DAF JUMPI PUSH0 DUP1 REVERT JUMPDEST PUSH2 0x1C7E DUP3 PUSH2 0x1D23 JUMP JUMPDEST PUSH1 0x20 DUP1 DUP3 MSTORE DUP3 MLOAD DUP3 DUP3 ADD DUP2 SWAP1 MSTORE PUSH0 SWAP2 SWAP1 DUP5 DUP3 ADD SWAP1 PUSH1 0x40 DUP6 ADD SWAP1 DUP5 JUMPDEST DUP2 DUP2 LT ISZERO PUSH2 0x1DEF JUMPI DUP4 MLOAD DUP4 MSTORE SWAP3 DUP5 ADD SWAP3 SWAP2 DUP5 ADD SWAP2 PUSH1 0x1 ADD PUSH2 0x1DD3 JUMP JUMPDEST POP SWAP1 SWAP7 SWAP6 POP POP POP POP POP POP JUMP JUMPDEST PUSH0 DUP1 PUSH1 0x40 DUP4 DUP6 SUB SLT ISZERO PUSH2 0x1E0C JUMPI PUSH0 DUP1 REVERT JUMPDEST PUSH2 0x1E15 DUP4 PUSH2 0x1D23 JUMP JUMPDEST SWAP2 POP PUSH1 0x20 DUP4 ADD CALLDATALOAD PUSH2 0x1E25 DUP2 PUSH2 0x1C85 JUMP JUMPDEST DUP1 SWAP2 POP POP SWAP3 POP SWAP3 SWAP1 POP JUMP JUMPDEST PUSH4 0x4E487B71 PUSH1 0xE0 SHL PUSH0 MSTORE PUSH1 0x41 PUSH1 0x4 MSTORE PUSH1 0x24 PUSH0 REVERT JUMPDEST PUSH0 DUP1 PUSH0 DUP1 PUSH1 0x80 DUP6 DUP8 SUB SLT ISZERO PUSH2 0x1E57 JUMPI PUSH0 DUP1 REVERT JUMPDEST PUSH2 0x1E60 DUP6 PUSH2 0x1D23 JUMP JUMPDEST SWAP4 POP PUSH2 0x1E6E PUSH1 0x20 DUP7 ADD PUSH2 0x1D23 JUMP JUMPDEST SWAP3 POP PUSH1 0x40 DUP6 ADD CALLDATALOAD SWAP2 POP PUSH1 0x60 DUP6 ADD CALLDATALOAD PUSH8 0xFFFFFFFFFFFFFFFF DUP1 DUP3 GT ISZERO PUSH2 0x1E91 JUMPI PUSH0 DUP1 REVERT JUMPDEST DUP2 DUP8 ADD SWAP2 POP DUP8 PUSH1 0x1F DUP4 ADD SLT PUSH2 0x1EA4 JUMPI PUSH0 DUP1 REVERT JUMPDEST DUP2 CALLDATALOAD DUP2 DUP2 GT ISZERO PUSH2 0x1EB6 JUMPI PUSH2 0x1EB6 PUSH2 0x1E30 JUMP JUMPDEST PUSH1 0x40 MLOAD PUSH1 0x1F DUP3 ADD PUSH1 0x1F NOT SWAP1 DUP2 AND PUSH1 0x3F ADD AND DUP2 ADD SWAP1 DUP4 DUP3 GT DUP2 DUP4 LT OR ISZERO PUSH2 0x1EDE JUMPI PUSH2 0x1EDE PUSH2 0x1E30 JUMP JUMPDEST DUP2 PUSH1 0x40 MSTORE DUP3 DUP2 MSTORE DUP11 PUSH1 0x20 DUP5 DUP8 ADD ADD GT ISZERO PUSH2 0x1EF6 JUMPI PUSH0 DUP1 REVERT JUMPDEST DUP3 PUSH1 0x20 DUP7 ADD PUSH1 0x20 DUP4 ADD CALLDATACOPY PUSH0 PUSH1 0x20 DUP5 DUP4 ADD ADD MSTORE DUP1 SWAP6 POP POP POP POP POP POP SWAP3 SWAP6 SWAP2 SWAP5 POP SWAP3 POP JUMP JUMPDEST PUSH0 DUP1 PUSH1 0x40 DUP4 DUP6 SUB SLT ISZERO PUSH2 0x1F2A JUMPI PUSH0 DUP1 REVERT JUMPDEST PUSH2 0x1F33 DUP4 PUSH2 0x1D23 JUMP JUMPDEST SWAP2 POP PUSH2 0x1F41 PUSH1 0x20 DUP5 ADD PUSH2 0x1D23 JUMP JUMPDEST SWAP1 POP SWAP3 POP SWAP3 SWAP1 POP JUMP JUMPDEST PUSH1 0x1 DUP2 DUP2 SHR SWAP1 DUP3 AND DUP1 PUSH2 0x1F5E JUMPI PUSH1 0x7F DUP3 AND SWAP2 POP JUMPDEST PUSH1 0x20 DUP3 LT DUP2 SUB PUSH2 0x1F7C JUMPI PUSH4 0x4E487B71 PUSH1 0xE0 SHL PUSH0 MSTORE PUSH1 0x22 PUSH1 0x4 MSTORE PUSH1 0x24 PUSH0 REVERT JUMPDEST POP SWAP2 SWAP1 POP JUMP JUMPDEST PUSH4 0x4E487B71 PUSH1 0xE0 SHL PUSH0 MSTORE PUSH1 0x32 PUSH1 0x4 MSTORE PUSH1 0x24 PUSH0 REVERT JUMPDEST PUSH4 0x4E487B71 PUSH1 0xE0 SHL PUSH0 MSTORE PUSH1 0x11 PUSH1 0x4 MSTORE PUSH1 0x24 PUSH0 REVERT JUMPDEST PUSH0 PUSH1 0x1 DUP3 ADD PUSH2 0x1FBB JUMPI PUSH2 0x1FBB PUSH2 0x1F96 JUMP JUMPDEST POP PUSH1 0x1 ADD SWAP1 JUMP JUMPDEST DUP1 DUP3 MUL DUP2 ISZERO DUP3 DUP3 DIV DUP5 EQ OR PUSH2 0x616 JUMPI PUSH2 0x616 PUSH2 0x1F96 JUMP JUMPDEST DUP1 DUP3 ADD DUP1 DUP3 GT ISZERO PUSH2 0x616 JUMPI PUSH2 0x616 PUSH2 0x1F96 JUMP JUMPDEST PUSH0 DUP3 PUSH2 0x2006 JUMPI PUSH4 0x4E487B71 PUSH1 0xE0 SHL PUSH0 MSTORE PUSH1 0x12 PUSH1 0x4 MSTORE PUSH1 0x24 PUSH0 REVERT JUMPDEST POP MOD SWAP1 JUMP JUMPDEST PUSH0 DUP2 MLOAD PUSH2 0x201C DUP2 DUP6 PUSH1 0x20 DUP7 ADD PUSH2 0x1CAD JUMP JUMPDEST SWAP3 SWAP1 SWAP3 ADD SWAP3 SWAP2 POP POP JUMP JUMPDEST PUSH7 0x697066733A2F2F PUSH1 0xC8 SHL DUP2 MSTORE PUSH0 PUSH1 0x7 PUSH0 DUP6 SLOAD DUP2 PUSH1 0x1 DUP3 DUP2 SHR SWAP2 POP DUP1 DUP4 AND DUP1 PUSH2 0x2050 JUMPI PUSH1 0x7F DUP4 AND SWAP3 POP JUMPDEST PUSH1 0x20 DUP1 DUP5 LT DUP3 SUB PUSH2 0x206F JUMPI PUSH4 0x4E487B71 PUSH1 0xE0 SHL DUP7 MSTORE PUSH1 0x22 PUSH1 0x4 MSTORE PUSH1 0x24 DUP7 REVERT JUMPDEST DUP2 DUP1 ISZERO PUSH2 0x2083 JUMPI PUSH1 0x1 DUP2 EQ PUSH2 0x209C JUMPI PUSH2 0x20CB JUMP JUMPDEST PUSH1 0xFF NOT DUP7 AND DUP11 DUP10 ADD MSTORE DUP5 ISZERO ISZERO DUP6 MUL DUP11 ADD DUP9 ADD SWAP7 POP PUSH2 0x20CB JUMP JUMPDEST PUSH0 DUP13 DUP2 MSTORE PUSH1 0x20 SWAP1 KECCAK256 PUSH0 JUMPDEST DUP7 DUP2 LT ISZERO PUSH2 0x20C1 JUMPI DUP2 SLOAD DUP13 DUP3 ADD DUP12 ADD MSTORE SWAP1 DUP6 ADD SWAP1 DUP4 ADD PUSH2 0x20A6 JUMP JUMPDEST POP POP DUP8 DUP6 DUP12 ADD ADD SWAP7 POP JUMPDEST POP POP POP POP POP POP PUSH2 0x20FF PUSH2 0x20EE PUSH2 0x20E8 DUP4 PUSH1 0x2F PUSH1 0xF8 SHL DUP2 MSTORE PUSH1 0x1 ADD SWAP1 JUMP JUMPDEST DUP8 PUSH2 0x200B JUMP JUMPDEST PUSH5 0x173539B7B7 PUSH1 0xD9 SHL DUP2 MSTORE PUSH1 0x5 ADD SWAP1 JUMP JUMPDEST SWAP7 SWAP6 POP POP POP POP POP POP JUMP JUMPDEST PUSH0 PUSH1 0x20 DUP3 DUP5 SUB SLT ISZERO PUSH2 0x2119 JUMPI PUSH0 DUP1 REVERT JUMPDEST DUP2 MLOAD PUSH2 0x1C7E DUP2 PUSH2 0x1C85 JUMP JUMPDEST PUSH1 0x20 DUP1 DUP3 MSTORE PUSH1 0x2D SWAP1 DUP3 ADD MSTORE PUSH32 0x4552433732313A2063616C6C6572206973206E6F7420746F6B656E206F776E65 PUSH1 0x40 DUP3 ADD MSTORE PUSH13 0x1C881BDC88185C1C1C9BDD9959 PUSH1 0x9A SHL PUSH1 0x60 DUP3 ADD MSTORE PUSH1 0x80 ADD SWAP1 JUMP JUMPDEST PUSH1 0x20 DUP1 DUP3 MSTORE PUSH1 0x25 SWAP1 DUP3 ADD MSTORE PUSH32 0x4552433732313A207472616E736665722066726F6D20696E636F727265637420 PUSH1 0x40 DUP3 ADD MSTORE PUSH5 0x37BBB732B9 PUSH1 0xD9 SHL PUSH1 0x60 DUP3 ADD MSTORE PUSH1 0x80 ADD SWAP1 JUMP JUMPDEST PUSH1 0x20 DUP1 DUP3 MSTORE PUSH1 0x32 SWAP1 DUP3 ADD MSTORE PUSH32 0x4552433732313A207472616E7366657220746F206E6F6E204552433732315265 PUSH1 0x40 DUP3 ADD MSTORE PUSH18 0x31B2B4BB32B91034B6B83632B6B2B73A32B9 PUSH1 0x71 SHL PUSH1 0x60 DUP3 ADD MSTORE PUSH1 0x80 ADD SWAP1 JUMP JUMPDEST PUSH1 0x1 PUSH1 0x1 PUSH1 0xA0 SHL SUB DUP6 DUP2 AND DUP3 MSTORE DUP5 AND PUSH1 0x20 DUP3 ADD MSTORE PUSH1 0x40 DUP2 ADD DUP4 SWAP1 MSTORE PUSH1 0x80 PUSH1 0x60 DUP3 ADD DUP2 SWAP1 MSTORE PUSH0 SWAP1 PUSH2 0x20FF SWAP1 DUP4 ADD DUP5 PUSH2 0x1CCF JUMP JUMPDEST PUSH0 PUSH1 0x20 DUP3 DUP5 SUB SLT ISZERO PUSH2 0x224A JUMPI PUSH0 DUP1 REVERT JUMPDEST DUP2 MLOAD PUSH2 0x1C7E DUP2 PUSH2 0x1C4E JUMP JUMPDEST DUP2 DUP2 SUB DUP2 DUP2 GT ISZERO PUSH2 0x616 JUMPI PUSH2 0x616 PUSH2 0x1F96 JUMP JUMPDEST PUSH4 0x4E487B71 PUSH1 0xE0 SHL PUSH0 MSTORE PUSH1 0x31 PUSH1 0x4 MSTORE PUSH1 0x24 PUSH0 REVERT INVALID LOG2 PUSH5 0x6970667358 0x22 SLT KECCAK256 0xAF 0xE SWAP7 0x22 SSTORE PUSH3 0x1C212A 0xC9 0xC8 0x21 PUSH23 0xCA2DC33AFE25197A82D4E7243A5B40AF2861A364736F6C PUSH4 0x43000815 STOP CALLER GASLIMIT MSTORE NUMBER CALLDATACOPY ORIGIN BALANCE GASPRICE KECCAK256 PUSH21 0x72616E7366657220746F206E6F6E20455243373231 MSTORE PUSH6 0x0 "
		},
		"gasEstimates": {
			"creation": {
				"codeDepositCost": "1776400",
				"executionCost": "infinite",
				"totalCost": "infinite"
			},
			"external": {
				"OPERATOR_FILTER_REGISTRY()": "327",
				"approve(address,uint256)": "infinite",
				"balanceOf(address)": "2630",
				"cost()": "2362",
				"getApproved(uint256)": "4832",
				"getMintAmount()": "2402",
				"getRoot()": "4563",
				"isApprovedForAll(address,address)": "infinite",
				"maxMintAmount()": "2406",
				"maxSupply()": "2382",
				"mint(uint256)": "infinite",
				"mintAmount()": "2340",
				"name()": "infinite",
				"owner()": "2418",
				"ownerOf(uint256)": "2647",
				"pause(bool)": "26753",
				"paused()": "2366",
				"renounceOwnership()": "infinite",
				"reveal()": "26619",
				"revealed()": "2442",
				"safeTransferFrom(address,address,uint256)": "infinite",
				"safeTransferFrom(address,address,uint256,bytes)": "infinite",
				"setApprovalForAll(address,bool)": "26776",
				"setCost(uint256)": "24574",
				"supportsInterface(bytes4)": "infinite",
				"symbol()": "infinite",
				"tokenByIndex(uint256)": "6821",
				"tokenOfOwnerByIndex(address,uint256)": "4992",
				"tokenURI(uint256)": "infinite",
				"totalSupply()": "2381",
				"transferFrom(address,address,uint256)": "infinite",
				"transferOwnership(address)": "28461",
				"walletOfOwner(address)": "infinite",
				"withdraw()": "infinite"
			}
		},
		"methodIdentifiers": {
			"OPERATOR_FILTER_REGISTRY()": "41f43434",
			"approve(address,uint256)": "095ea7b3",
			"balanceOf(address)": "70a08231",
			"cost()": "13faede6",
			"getApproved(uint256)": "081812fc",
			"getMintAmount()": "a8995deb",
			"getRoot()": "5ca1e165",
			"isApprovedForAll(address,address)": "e985e9c5",
			"maxMintAmount()": "239c70ae",
			"maxSupply()": "d5abeb01",
			"mint(uint256)": "a0712d68",
			"mintAmount()": "5a2bcc18",
			"name()": "06fdde03",
			"owner()": "8da5cb5b",
			"ownerOf(uint256)": "6352211e",
			"pause(bool)": "02329a29",
			"paused()": "5c975abb",
			"renounceOwnership()": "715018a6",
			"reveal()": "a475b5dd",
			"revealed()": "51830227",
			"safeTransferFrom(address,address,uint256)": "42842e0e",
			"safeTransferFrom(address,address,uint256,bytes)": "b88d4fde",
			"setApprovalForAll(address,bool)": "a22cb465",
			"setCost(uint256)": "44a0d68a",
			"supportsInterface(bytes4)": "01ffc9a7",
			"symbol()": "95d89b41",
			"tokenByIndex(uint256)": "4f6ccce7",
			"tokenOfOwnerByIndex(address,uint256)": "2f745c59",
			"tokenURI(uint256)": "c87b56dd",
			"totalSupply()": "18160ddd",
			"transferFrom(address,address,uint256)": "23b872dd",
			"transferOwnership(address)": "f2fde38b",
			"walletOfOwner(address)": "438b6300",
			"withdraw()": "3ccfd60b"
		}
	},
	"abi": [
		{
			"inputs": [
				{
					"internalType": "string",
					"name": "_notRevealedUri",
					"type": "string"
				},
				{
					"internalType": "string",
					"name": "_notRevealedUri2",
					"type": "string"
				},
				{
					"internalType": "string",
					"name": "_CID",
					"type": "string"
				},
				{
					"internalType": "string",
					"name": "_name",
					"type": "string"
				},
				{
					"internalType": "string",
					"name": "_symbol",
					"type": "string"
				}
			],
			"stateMutability": "nonpayable",
			"type": "constructor"
		},
		{
			"inputs": [
				{
					"internalType": "address",
					"name": "operator",
					"type": "address"
				}
			],
			"name": "OperatorNotAllowed",
			"type": "error"
		},
		{
			"anonymous": false,
			"inputs": [
				{
					"indexed": true,
					"internalType": "address",
					"name": "owner",
					"type": "address"
				},
				{
					"indexed": true,
					"internalType": "address",
					"name": "approved",
					"type": "address"
				},
				{
					"indexed": true,
					"internalType": "uint256",
					"name": "tokenId",
					"type": "uint256"
				}
			],
			"name": "Approval",
			"type": "event"
		},
		{
			"anonymous": false,
			"inputs": [
				{
					"indexed": true,
					"internalType": "address",
					"name": "owner",
					"type": "address"
				},
				{
					"indexed": true,
					"internalType": "address",
					"name": "operator",
					"type": "address"
				},
				{
					"indexed": false,
					"internalType": "bool",
					"name": "approved",
					"type": "bool"
				}
			],
			"name": "ApprovalForAll",
			"type": "event"
		},
		{
			"anonymous": false,
			"inputs": [
				{
					"indexed": true,
					"internalType": "address",
					"name": "previousOwner",
					"type": "address"
				},
				{
					"indexed": true,
					"internalType": "address",
					"name": "newOwner",
					"type": "address"
				}
			],
			"name": "OwnershipTransferred",
			"type": "event"
		},
		{
			"anonymous": false,
			"inputs": [
				{
					"indexed": true,
					"internalType": "address",
					"name": "from",
					"type": "address"
				},
				{
					"indexed": true,
					"internalType": "address",
					"name": "to",
					"type": "address"
				},
				{
					"indexed": true,
					"internalType": "uint256",
					"name": "tokenId",
					"type": "uint256"
				}
			],
			"name": "Transfer",
			"type": "event"
		},
		{
			"inputs": [],
			"name": "OPERATOR_FILTER_REGISTRY",
			"outputs": [
				{
					"internalType": "contract IOperatorFilterRegistry",
					"name": "",
					"type": "address"
				}
			],
			"stateMutability": "view",
			"type": "function"
		},
		{
			"inputs": [
				{
					"internalType": "address",
					"name": "to",
					"type": "address"
				},
				{
					"internalType": "uint256",
					"name": "tokenId",
					"type": "uint256"
				}
			],
			"name": "approve",
			"outputs": [],
			"stateMutability": "nonpayable",
			"type": "function"
		},
		{
			"inputs": [
				{
					"internalType": "address",
					"name": "owner",
					"type": "address"
				}
			],
			"name": "balanceOf",
			"outputs": [
				{
					"internalType": "uint256",
					"name": "",
					"type": "uint256"
				}
			],
			"stateMutability": "view",
			"type": "function"
		},
		{
			"inputs": [],
			"name": "cost",
			"outputs": [
				{
					"internalType": "uint256",
					"name": "",
					"type": "uint256"
				}
			],
			"stateMutability": "view",
			"type": "function"
		},
		{
			"inputs": [
				{
					"internalType": "uint256",
					"name": "tokenId",
					"type": "uint256"
				}
			],
			"name": "getApproved",
			"outputs": [
				{
					"internalType": "address",
					"name": "",
					"type": "address"
				}
			],
			"stateMutability": "view",
			"type": "function"
		},
		{
			"inputs": [],
			"name": "getMintAmount",
			"outputs": [
				{
					"internalType": "uint256",
					"name": "",
					"type": "uint256"
				}
			],
			"stateMutability": "view",
			"type": "function"
		},
		{
			"inputs": [],
			"name": "getRoot",
			"outputs": [
				{
					"internalType": "bytes32",
					"name": "",
					"type": "bytes32"
				}
			],
			"stateMutability": "view",
			"type": "function"
		},
		{
			"inputs": [
				{
					"internalType": "address",
					"name": "owner",
					"type": "address"
				},
				{
					"internalType": "address",
					"name": "operator",
					"type": "address"
				}
			],
			"name": "isApprovedForAll",
			"outputs": [
				{
					"internalType": "bool",
					"name": "",
					"type": "bool"
				}
			],
			"stateMutability": "view",
			"type": "function"
		},
		{
			"inputs": [],
			"name": "maxMintAmount",
			"outputs": [
				{
					"internalType": "uint256",
					"name": "",
					"type": "uint256"
				}
			],
			"stateMutability": "view",
			"type": "function"
		},
		{
			"inputs": [],
			"name": "maxSupply",
			"outputs": [
				{
					"internalType": "uint256",
					"name": "",
					"type": "uint256"
				}
			],
			"stateMutability": "view",
			"type": "function"
		},
		{
			"inputs": [
				{
					"internalType": "uint256",
					"name": "_mintAmount",
					"type": "uint256"
				}
			],
			"name": "mint",
			"outputs": [],
			"stateMutability": "payable",
			"type": "function"
		},
		{
			"inputs": [],
			"name": "mintAmount",
			"outputs": [
				{
					"internalType": "uint256",
					"name": "",
					"type": "uint256"
				}
			],
			"stateMutability": "view",
			"type": "function"
		},
		{
			"inputs": [],
			"name": "name",
			"outputs": [
				{
					"internalType": "string",
					"name": "",
					"type": "string"
				}
			],
			"stateMutability": "view",
			"type": "function"
		},
		{
			"inputs": [],
			"name": "owner",
			"outputs": [
				{
					"internalType": "address",
					"name": "",
					"type": "address"
				}
			],
			"stateMutability": "view",
			"type": "function"
		},
		{
			"inputs": [
				{
					"internalType": "uint256",
					"name": "tokenId",
					"type": "uint256"
				}
			],
			"name": "ownerOf",
			"outputs": [
				{
					"internalType": "address",
					"name": "",
					"type": "address"
				}
			],
			"stateMutability": "view",
			"type": "function"
		},
		{
			"inputs": [
				{
					"internalType": "bool",
					"name": "_state",
					"type": "bool"
				}
			],
			"name": "pause",
			"outputs": [],
			"stateMutability": "nonpayable",
			"type": "function"
		},
		{
			"inputs": [],
			"name": "paused",
			"outputs": [
				{
					"internalType": "bool",
					"name": "",
					"type": "bool"
				}
			],
			"stateMutability": "view",
			"type": "function"
		},
		{
			"inputs": [],
			"name": "renounceOwnership",
			"outputs": [],
			"stateMutability": "nonpayable",
			"type": "function"
		},
		{
			"inputs": [],
			"name": "reveal",
			"outputs": [],
			"stateMutability": "nonpayable",
			"type": "function"
		},
		{
			"inputs": [],
			"name": "revealed",
			"outputs": [
				{
					"internalType": "bool",
					"name": "",
					"type": "bool"
				}
			],
			"stateMutability": "view",
			"type": "function"
		},
		{
			"inputs": [
				{
					"internalType": "address",
					"name": "from",
					"type": "address"
				},
				{
					"internalType": "address",
					"name": "to",
					"type": "address"
				},
				{
					"internalType": "uint256",
					"name": "tokenId",
					"type": "uint256"
				}
			],
			"name": "safeTransferFrom",
			"outputs": [],
			"stateMutability": "nonpayable",
			"type": "function"
		},
		{
			"inputs": [
				{
					"internalType": "address",
					"name": "from",
					"type": "address"
				},
				{
					"internalType": "address",
					"name": "to",
					"type": "address"
				},
				{
					"internalType": "uint256",
					"name": "tokenId",
					"type": "uint256"
				},
				{
					"internalType": "bytes",
					"name": "data",
					"type": "bytes"
				}
			],
			"name": "safeTransferFrom",
			"outputs": [],
			"stateMutability": "nonpayable",
			"type": "function"
		},
		{
			"inputs": [
				{
					"internalType": "address",
					"name": "operator",
					"type": "address"
				},
				{
					"internalType": "bool",
					"name": "approved",
					"type": "bool"
				}
			],
			"name": "setApprovalForAll",
			"outputs": [],
			"stateMutability": "nonpayable",
			"type": "function"
		},
		{
			"inputs": [
				{
					"internalType": "uint256",
					"name": "_newCost",
					"type": "uint256"
				}
			],
			"name": "setCost",
			"outputs": [],
			"stateMutability": "nonpayable",
			"type": "function"
		},
		{
			"inputs": [
				{
					"internalType": "bytes4",
					"name": "interfaceId",
					"type": "bytes4"
				}
			],
			"name": "supportsInterface",
			"outputs": [
				{
					"internalType": "bool",
					"name": "",
					"type": "bool"
				}
			],
			"stateMutability": "view",
			"type": "function"
		},
		{
			"inputs": [],
			"name": "symbol",
			"outputs": [
				{
					"internalType": "string",
					"name": "",
					"type": "string"
				}
			],
			"stateMutability": "view",
			"type": "function"
		},
		{
			"inputs": [
				{
					"internalType": "uint256",
					"name": "index",
					"type": "uint256"
				}
			],
			"name": "tokenByIndex",
			"outputs": [
				{
					"internalType": "uint256",
					"name": "",
					"type": "uint256"
				}
			],
			"stateMutability": "view",
			"type": "function"
		},
		{
			"inputs": [
				{
					"internalType": "address",
					"name": "owner",
					"type": "address"
				},
				{
					"internalType": "uint256",
					"name": "index",
					"type": "uint256"
				}
			],
			"name": "tokenOfOwnerByIndex",
			"outputs": [
				{
					"internalType": "uint256",
					"name": "",
					"type": "uint256"
				}
			],
			"stateMutability": "view",
			"type": "function"
		},
		{
			"inputs": [
				{
					"internalType": "uint256",
					"name": "tokenId",
					"type": "uint256"
				}
			],
			"name": "tokenURI",
			"outputs": [
				{
					"internalType": "string",
					"name": "",
					"type": "string"
				}
			],
			"stateMutability": "view",
			"type": "function"
		},
		{
			"inputs": [],
			"name": "totalSupply",
			"outputs": [
				{
					"internalType": "uint256",
					"name": "",
					"type": "uint256"
				}
			],
			"stateMutability": "view",
			"type": "function"
		},
		{
			"inputs": [
				{
					"internalType": "address",
					"name": "from",
					"type": "address"
				},
				{
					"internalType": "address",
					"name": "to",
					"type": "address"
				},
				{
					"internalType": "uint256",
					"name": "tokenId",
					"type": "uint256"
				}
			],
			"name": "transferFrom",
			"outputs": [],
			"stateMutability": "nonpayable",
			"type": "function"
		},
		{
			"inputs": [
				{
					"internalType": "address",
					"name": "newOwner",
					"type": "address"
				}
			],
			"name": "transferOwnership",
			"outputs": [],
			"stateMutability": "nonpayable",
			"type": "function"
		},
		{
			"inputs": [
				{
					"internalType": "address",
					"name": "_owner",
					"type": "address"
				}
			],
			"name": "walletOfOwner",
			"outputs": [
				{
					"internalType": "uint256[]",
					"name": "",
					"type": "uint256[]"
				}
			],
			"stateMutability": "view",
			"type": "function"
		},
		{
			"inputs": [],
			"name": "withdraw",
			"outputs": [],
			"stateMutability": "payable",
			"type": "function"
		}
	]
}