{
	"data": {
		"bytecode": {
			"linkReferences": {},
			"object": "6080604052601480546001600160a01b0319169055601360158190556019601681905560056017819055601855908155601a819055601b555f601c55620000496009600a6200045b565b6200005990633b9aca0062000472565b601d556200006a6009600a6200045b565b62000079906298968062000472565b601e556200008a6009600a6200045b565b6200009a906301312d0062000472565b601f55620000ab6009600a6200045b565b620000ba90620f424062000472565b602055620000cb6009600a6200045b565b620000da906298968062000472565b6021556161a86026556161a86027556161a86028556161a8602955600360096200010591906200048c565b6200011290600a6200045b565b6200011f90601462000472565b602a555f602b5562000134600360096200048c565b6200014190600a6200045b565b6200014e90600962000472565b602c556200015f600360096200048c565b6200016c90600a6200045b565b6200017990600c62000472565b602d55602f805463ffffffff60a81b1916600160b81b1790553480156200019e575f80fd5b505f80546001600160a01b031916339081178255604051909182917f8be0079c531659141344cd1fd0a4f28419497f9722a3daafe3b4186f6b6457e0908290a35033601280546001600160a01b03929092166001600160a01b031992831617905560138054821673d53c9795a9daf24fbcab45cf2df0d37145f7e0e0179055601180548216736f1f797f35ef003c3b89257971a80208c61f797617905560108054909116737034990879d4e4c0f9dade892ad641bc45dedbbf179055601d54305f908152600160208190526040822092909255600390620002865f546001600160a01b031690565b6001600160a01b03908116825260208083019390935260409182015f908120805495151560ff19968716179055308082526003855283822080548716600190811790915560135484168352848320805488168217905560115484168352848320805488168217905560105490931682528382208054909616831790955584815292528082205490517fddf252ad1be2c89b69c2b068fc378daa952ba7f163c4a11628f55a4df523b3ef916200033e9190815260200190565b60405180910390a3620004a8565b634e487b7160e01b5f52601160045260245ffd5b600181815b80851115620003a057815f19048211156200038457620003846200034c565b808516156200039257918102915b93841c939080029062000365565b509250929050565b5f82620003b85750600162000455565b81620003c657505f62000455565b8160018114620003df5760028114620003ea576200040a565b600191505062000455565b60ff841115620003fe57620003fe6200034c565b50506001821b62000455565b5060208310610133831016604e8410600b84101617156200042f575081810a62000455565b6200043b838362000360565b805f19048211156200045157620004516200034c565b0290505b92915050565b5f6200046b60ff841683620003a8565b9392505050565b80820281158282048414176200045557620004556200034c565b60ff82811682821603908111156200045557620004556200034c565b61415580620004b65f395ff3fe6080604052600436106103cc575f3560e01c80636e9fa864116101f4578063bf474bed11610113578063e8078d94116100a8578063f2b4c32511610078578063f2b4c32514610bad578063f3a395fc14610bc2578063f429389014610bf0578063f5648a4f14610c04578063f7685a0214610c18575f80fd5b8063e8078d9414610b2e578063eb429bf814610b42578063eb77dbb114610b6d578063f2a6227f14610b82575f80fd5b8063c9567bf9116100e3578063c9567bf914610a8c578063ce9dc80514610aa0578063d677d03e14610abf578063dd62ed3e14610aea575f80fd5b8063bf474bed146109fe578063c1ae5e7214610a13578063c232ae4d14610a41578063c876d0b914610a6c575f80fd5b80638fbd8f2711610189578063abb284e911610159578063abb284e914610976578063af95d4d314610995578063bbab0ff1146109b4578063be68e027146109d3575f80fd5b80638fbd8f27146108f857806395d89b4114610917578063a1780c1814610943578063a9059cbb14610957575f80fd5b80637d1db4a5116101c45780637d1db4a51461089357806381cd58e5146108a85780638da5cb5b146108c75780638f9a55c0146108e3575f80fd5b80636e9fa8641461081857806370a0823114610837578063715018a61461086b578063751039fc1461087f575f80fd5b806323b872dd116102eb5780633b32edd41161028057806354ca45d81161025057806354ca45d81461075a578063580a155a1461078857806366b6090f146107b65780636a4d84f9146107cb5780636e2ed3c4146107ea575f80fd5b80633b32edd4146106cd5780633e713060146106fb57806351a2f6871461071057806352d3c14e1461072f575f80fd5b80632d4bbb05116102bb5780632d4bbb051461066b578063313ce5671461067e5780633520b3a41461069957806337e294d5146106ae575f80fd5b806323b872dd146105f457806324aede5214610613578063298a8328146106285780632ace2af51461063d575f80fd5b80630d2d697a1161036157806318160ddd1161033157806318160ddd146105a157806319dde7b7146105b55780631cc34b98146105ca57806321e09b34146105df575f80fd5b80630d2d697a1461050b5780630db6dff7146105365780630faee56f1461055557806311a63e171461056a575f80fd5b8063081501331161039c578063081501331461048b578063095ea7b3146104ae57806309eadbf5146104cd5780630c0e3d4a146104ec575f80fd5b8063039aa9cf146103d75780630634087d1461041a57806306b091f91461043057806306fdde031461044f575f80fd5b366103d357005b5f80fd5b3480156103e2575f80fd5b506104056103f136600461396c565b60066020525f908152604090205460ff1681565b60405190151581526020015b60405180910390f35b348015610425575f80fd5b5061042e610c2d565b005b34801561043b575f80fd5b5061042e61044a3660046139a7565b610c6f565b34801561045a575f80fd5b5060408051808201909152600b81526a48756e67657247616d657360a81b60208201525b6040516104119190613a1e565b348015610496575f80fd5b506104a060235481565b604051908152602001610411565b3480156104b9575f80fd5b506104056104c83660046139a7565b610cf7565b3480156104d8575f80fd5b5061042e6104e7366004613a30565b610d0d565b3480156104f7575f80fd5b5061042e610506366004613a30565b610e30565b348015610516575f80fd5b506104a0610525366004613a50565b60096020525f908152604090205481565b348015610541575f80fd5b5061042e610550366004613a50565b610e73565b348015610560575f80fd5b506104a060215481565b348015610575575f80fd5b50601254610589906001600160a01b031681565b6040516001600160a01b039091168152602001610411565b3480156105ac575f80fd5b50601d546104a0565b3480156105c0575f80fd5b506104a060265481565b3480156105d5575f80fd5b506104a060245481565b3480156105ea575f80fd5b506104a0602d5481565b3480156105ff575f80fd5b5061040561060e366004613a6b565b610eab565b34801561061e575f80fd5b506104a0602a5481565b348015610633575f80fd5b506104a0602c5481565b348015610648575f80fd5b5061040561065736600461396c565b5f9081526004602052604090205460ff1690565b61042e610679366004613a30565b610f12565b348015610689575f80fd5b5060405160098152602001610411565b3480156106a4575f80fd5b506104a060225481565b3480156106b9575f80fd5b50601154610589906001600160a01b031681565b3480156106d8575f80fd5b506104056106e736600461396c565b5f9081526006602052604090205460ff1690565b348015610706575f80fd5b506104a060255481565b34801561071b575f80fd5b50601054610589906001600160a01b031681565b34801561073a575f80fd5b506104a0610749366004613a50565b600b6020525f908152604090205481565b348015610765575f80fd5b5061040561077436600461396c565b60076020525f908152604090205460ff1681565b348015610793575f80fd5b506104056107a236600461396c565b60056020525f908152604090205460ff1681565b3480156107c1575f80fd5b506104a060295481565b3480156107d6575f80fd5b5061042e6107e5366004613a30565b6110ba565b3480156107f5575f80fd5b5061040561080436600461396c565b5f9081526007602052604090205460ff1690565b348015610823575f80fd5b5061042e610832366004613be5565b6110fd565b348015610842575f80fd5b506104a0610851366004613a50565b6001600160a01b03165f9081526001602052604090205490565b348015610876575f80fd5b5061042e611375565b34801561088a575f80fd5b5061042e6113e6565b34801561089e575f80fd5b506104a0601e5481565b3480156108b3575f80fd5b5061042e6108c2366004613cc9565b611419565b3480156108d2575f80fd5b505f546001600160a01b0316610589565b3480156108ee575f80fd5b506104a0601f5481565b348015610903575f80fd5b5061042e610912366004613a30565b611bde565b348015610922575f80fd5b5060408051808201909152600481526348474d5360e01b602082015261047e565b34801561094e575f80fd5b5061042e611c21565b348015610962575f80fd5b506104056109713660046139a7565b611c6e565b348015610981575f80fd5b5061042e610990366004613a30565b611c7a565b3480156109a0575f80fd5b5061042e6109af3660046139a7565b611cbd565b3480156109bf575f80fd5b50601354610589906001600160a01b031681565b3480156109de575f80fd5b506104a06109ed366004613a50565b600a6020525f908152604090205481565b348015610a09575f80fd5b506104a060205481565b348015610a1e575f80fd5b50610405610a2d36600461396c565b5f9081526005602052604090205460ff1690565b348015610a4c575f80fd5b506104a0610a5b366004613a50565b600d6020525f908152604090205481565b348015610a77575f80fd5b50602f5461040590600160b81b900460ff1681565b348015610a97575f80fd5b5061042e611d50565b348015610aab575f80fd5b50601454610589906001600160a01b031681565b348015610aca575f80fd5b506104a0610ad9366004613a50565b600c6020525f908152604090205481565b348015610af5575f80fd5b506104a0610b04366004613d3a565b6001600160a01b039182165f90815260026020908152604080832093909416825291909152205490565b348015610b39575f80fd5b5061042e611de8565b348015610b4d575f80fd5b506104a0610b5c36600461396c565b600f6020525f908152604090205481565b348015610b78575f80fd5b506104a060285481565b348015610b8d575f80fd5b506104a0610b9c366004613a50565b600e6020525f908152604090205481565b348015610bb8575f80fd5b506104a0602b5481565b348015610bcd575f80fd5b50610405610bdc36600461396c565b60046020525f908152604090205460ff1681565b348015610bfb575f80fd5b5061042e6120d2565b348015610c0f575f80fd5b5061042e61210e565b348015610c23575f80fd5b506104a060275481565b6010546001600160a01b03163314610c43575f80fd5b60198054905f610c538380613d85565b9091555050601a8054905f610c688380613d85565b9091555050565b6010546001600160a01b03163314610c85575f80fd5b305f90815260016020526040902054811115610ce85760405162461bcd60e51b815260206004820152601d60248201527f4e6f7420656e6f75676820746f6b656e7320696e20636f6e747261637400000060448201526064015b60405180910390fd5b610cf330838361215a565b5050565b5f610d0333848461279f565b5060015b92915050565b6014546001600160a01b03163314610d7b5760405162461bcd60e51b815260206004820152602b60248201527f4f6e6c792074686520626174746c6520636f6e74726163742063616e2072656d60448201526a6f766520706f74696f6e7360a81b6064820152608401610cdf565b5f828152600460208181526040808420805460ff19908116909155600580845282862080548316905560068085528387208054841690556007808652848820805485169055888852958552838720805484169055908452828620805483169055835281852080548216905592825292839020805490921690915581518481529081018390527f16552dc0eeaa5453189ca1b57f62bf76590b234053b60bd7120b6a49977d637f91015b60405180910390a15050565b6010546001600160a01b03163314610e46575f80fd5b6029829055610e5760036009613d98565b610e6290600a613e91565b610e6c9082613e9f565b602d555050565b6010546001600160a01b03163314610e89575f80fd5b601480546001600160a01b0319166001600160a01b0392909216919091179055565b5f610eb784848461215a565b610f088433610f03856040518060600160405280602881526020016140f8602891396001600160a01b038a165f90815260026020908152604080832033845290915290205491906128c3565b61279f565b5060019392505050565b5f821180610f1f57505f81115b610f6b5760405162461bcd60e51b815260206004820152601f60248201527f416d6f756e742073686f756c642062652067726561746572207468616e2030006044820152606401610cdf565b610f776009600a613e91565b610f819082613e9f565b341015610fd05760405162461bcd60e51b815260206004820152601960248201527f496e636f72726563742045544820616d6f756e742073656e74000000000000006044820152606401610cdf565b811561105b57335f9081526001602052604090205482111561102d5760405162461bcd60e51b81526020600482015260166024820152754e6f7420656e6f7567682048474d5320746f6b656e7360501b6044820152606401610cdf565b61103733836128fb565b335f9081526009602052604081208054849290611055908490613eb6565b90915550505b801561108e57335f908152600a60205260408120805483929061107f908490613eb6565b9091555061108e905034612a76565b6040517fed21248cb703b524cc0029bb8669df941baca560163a3bc6ad184e7e9c268070905f90a15050565b6010546001600160a01b031633146110d0575f80fd5b60278290556110e160036009613d98565b6110ec90600a613e91565b6110f69082613e9f565b602b555050565b6010546001600160a01b0316331461116d5760405162461bcd60e51b815260206004820152602d60248201527f4f6e6c79206d61696e74656e616e636557616c6c65742063616e2063616c6c2060448201526c3a3434b990333ab731ba34b7b760991b6064820152608401610cdf565b82518451146111d75760405162461bcd60e51b815260206004820152603060248201527f4d69736d61746368656420706f74696f6e4e616d657320616e6420616d6f756e60448201526f0e8e640c2e4e4c2f2e640d8cadccee8d60831b6064820152608401610cdf565b83515f6022819055602381905560248190556025556111f68282613d85565b90505f5b818110156112505761123e86828151811061121757611217613ec9565b602002602001015186838151811061123157611231613ec9565b6020026020010151612bc9565b8061124881613edd565b9150506111fa565b50805b85518110156112ab5761129986828151811061127157611271613ec9565b602002602001015186838151811061128b5761128b613ec9565b602002602001015186612d73565b806112a381613edd565b915050611253565b50602254156112dd576112dd604051806040016040528060048152602001635854524160e01b81525060225485612ff1565b6023541561130f5761130f604051806040016040528060058152602001641093d3d4d560da1b81525060235485612ff1565b6024541561133d5761133d604051806040016040528060018152602001602b60f91b81525060245485612ff1565b6025541561136e5761136e604051806040016040528060048152602001630534b49560e41b81525060255485612ff1565b5050505050565b5f546001600160a01b0316331461139e5760405162461bcd60e51b8152600401610cdf90613ef5565b5f80546040516001600160a01b03909116907f8be0079c531659141344cd1fd0a4f28419497f9722a3daafe3b4186f6b6457e0908390a35f80546001600160a01b0319169055565b5f546001600160a01b0316331461140f5760405162461bcd60e51b8152600401610cdf90613ef5565b6114176135df565b565b6010546001600160a01b0316331461142f575f80fd5b604051635854524160e01b602082015260240160405160208183030381529060405280519060200120816040516020016114699190613f2a565b60405160208183030381529060405280519060200120036116105781516001600160a01b0384165f908152600b602052604090205410156114bc5760405162461bcd60e51b8152600401610cdf90613f45565b5f5b825181101561160a5760045f8483815181106114dc576114dc613ec9565b60209081029190910181015182528101919091526040015f205460ff161561153c5760405162461bcd60e51b8152602060048201526013602482015272416c726561647920616374697665205854524160681b6044820152606401610cdf565b600160045f85848151811061155357611553613ec9565b602002602001015181526020019081526020015f205f6101000a81548160ff0219169083151502179055506001600b5f866001600160a01b03166001600160a01b031681526020019081526020015f205f8282546115b19190613d85565b925050819055506001600f5f8584815181106115cf576115cf613ec9565b602002602001015181526020019081526020015f205f8282546115f29190613eb6565b9091555081905061160281613edd565b9150506114be565b50505050565b604051641093d3d4d560da1b6020820152602501604051602081830303815290604052805190602001208160405160200161164b9190613f2a565b60405160208183030381529060405280519060200120036117ed5781516001600160a01b0384165f908152600c6020526040902054101561169e5760405162461bcd60e51b8152600401610cdf90613f45565b5f5b825181101561160a5760065f8483815181106116be576116be613ec9565b60209081029190910181015182528101919091526040015f205460ff161561171f5760405162461bcd60e51b8152602060048201526014602482015273105b1c9958591e481858dd1a5d99481093d3d4d560621b6044820152606401610cdf565b600160065f85848151811061173657611736613ec9565b602002602001015181526020019081526020015f205f6101000a81548160ff0219169083151502179055506001600c5f866001600160a01b03166001600160a01b031681526020019081526020015f205f8282546117949190613d85565b925050819055506001600f5f8584815181106117b2576117b2613ec9565b602002602001015181526020019081526020015f205f8282546117d59190613eb6565b909155508190506117e581613edd565b9150506116a0565b604051602b60f91b602082015260210160405160208183030381529060405280519060200120816040516020016118249190613f2a565b60405160208183030381529060405280519060200120036119c25781516001600160a01b0384165f908152600d602052604090205410156118775760405162461bcd60e51b8152600401610cdf90613f45565b5f5b825181101561160a5760055f84838151811061189757611897613ec9565b60209081029190910181015182528101919091526040015f205460ff16156118f45760405162461bcd60e51b815260206004820152601060248201526f20b63932b0b23c9030b1ba34bb32902b60811b6044820152606401610cdf565b600160055f85848151811061190b5761190b613ec9565b602002602001015181526020019081526020015f205f6101000a81548160ff0219169083151502179055506001600d5f866001600160a01b03166001600160a01b031681526020019081526020015f205f8282546119699190613d85565b925050819055506001600f5f85848151811061198757611987613ec9565b602002602001015181526020019081526020015f205f8282546119aa9190613eb6565b909155508190506119ba81613edd565b915050611879565b604051630534b49560e41b602082015260240160405160208183030381529060405280519060200120816040516020016119fc9190613f2a565b6040516020818303038152906040528051906020012003611b9d5781516001600160a01b0384165f908152600e60205260409020541015611a4f5760405162461bcd60e51b8152600401610cdf90613f45565b5f5b825181101561160a5760075f848381518110611a6f57611a6f613ec9565b60209081029190910181015182528101919091526040015f205460ff1615611acf5760405162461bcd60e51b81526020600482015260136024820152720416c72656164792061637469766520534b495606c1b6044820152606401610cdf565b600160075f858481518110611ae657611ae6613ec9565b602002602001015181526020019081526020015f205f6101000a81548160ff0219169083151502179055506001600e5f866001600160a01b03166001600160a01b031681526020019081526020015f205f828254611b449190613d85565b925050819055506001600f5f858481518110611b6257611b62613ec9565b602002602001015181526020019081526020015f205f828254611b859190613eb6565b90915550819050611b9581613edd565b915050611a51565b60405162461bcd60e51b815260206004820152601160248201527057726f6e6720506f74696f6e204e616d6560781b6044820152606401610cdf565b505050565b6010546001600160a01b03163314611bf4575f80fd5b6026829055611c0560036009613d98565b611c1090600a613e91565b611c1a9082613e9f565b602a555050565b6012546001600160a01b0316336001600160a01b031614611c40575f80fd5b305f908152600160205260409020548015611c5e57611c5e81613657565b478015610cf357610cf381612a76565b5f610d0333848461215a565b6010546001600160a01b03163314611c90575f80fd5b6028829055611ca160036009613d98565b611cac90600a613e91565b611cb69082613e9f565b602c555050565b6014546001600160a01b03163314611d085760405162461bcd60e51b815260206004820152600e60248201526d139bdd08185d5d1a1bdc9a5e995960921b6044820152606401610cdf565b6001600160a01b0382166108fc611d2b611d246009600a613e91565b84906137c7565b6040518115909202915f818181858888f19350505050158015611bd9573d5f803e3d5ffd5b5f546001600160a01b03163314611d795760405162461bcd60e51b8152600401610cdf90613ef5565b602f54600160a01b900460ff1615611dd35760405162461bcd60e51b815260206004820152601760248201527f74726164696e6720697320616c7265616479206f70656e0000000000000000006044820152606401610cdf565b602f805460ff60a01b1916600160a01b179055565b5f546001600160a01b03163314611e115760405162461bcd60e51b8152600401610cdf90613ef5565b602f805460ff60c01b1916600160c01b179055602e546001600160a01b0316611e5b57602e80546001600160a01b031916737a250d5630b4cf539739df2c5dacb4c659f2488d1790555b602f546001600160a01b0316611ff157602e5f9054906101000a90046001600160a01b03166001600160a01b031663c45a01556040518163ffffffff1660e01b8152600401602060405180830381865afa158015611ebb573d5f803e3d5ffd5b505050506040513d601f19601f82011682018060405250810190611edf9190613f89565b6001600160a01b031663c9c6539630602e5f9054906101000a90046001600160a01b03166001600160a01b031663ad5c46486040518163ffffffff1660e01b8152600401602060405180830381865afa158015611f3e573d5f803e3d5ffd5b505050506040513d601f19601f82011682018060405250810190611f629190613f89565b6040516001600160e01b031960e085901b1681526001600160a01b039283166004820152911660248201526044016020604051808303815f875af1158015611fac573d5f803e3d5ffd5b505050506040513d601f19601f82011682018060405250810190611fd09190613f89565b602f80546001600160a01b0319166001600160a01b03929092169190911790555b305f81815260016020526040902054602e549091612018916001600160a01b03168361279f565b602e54601d545f80546040805163f305d71960e01b815230600482015260248101879052604481019490945260648401929092526001600160a01b0390811660848401524260a4840152905192169163f305d71991479160c4808301926060929190829003018185885af1158015612092573d5f803e3d5ffd5b50505050506040513d601f19601f820116820180604052508101906120b79190613fa4565b5050602f805462ff00ff60b01b1916600160b01b1790555050565b5f546001600160a01b031633146120fb5760405162461bcd60e51b8152600401610cdf90613ef5565b47801561210b5761210b81612a76565b50565b6010546001600160a01b03163314612124575f80fd5b6012546040516001600160a01b03909116904780156108fc02915f818181858888f1935050505015801561210b573d5f803e3d5ffd5b6001600160a01b0383166121be5760405162461bcd60e51b815260206004820152602560248201527f45524332303a207472616e736665722066726f6d20746865207a65726f206164604482015264647265737360d81b6064820152608401610cdf565b6001600160a01b0382166122205760405162461bcd60e51b815260206004820152602360248201527f45524332303a207472616e7366657220746f20746865207a65726f206164647260448201526265737360e81b6064820152608401610cdf565b5f81116122815760405162461bcd60e51b815260206004820152602960248201527f5472616e7366657220616d6f756e74206d7573742062652067726561746572206044820152687468616e207a65726f60b81b6064820152608401610cdf565b602f545f90600160c01b900460ff166122e457602f54600160a01b900460ff166122e45760405162461bcd60e51b8152602060048201526014602482015273151c98591a5b99c81b9bdd081bdc195b881e595d60621b6044820152606401610cdf565b5f546001600160a01b0385811691161480159061230e57505f546001600160a01b03848116911614155b156126625761233f6064612339601954601c541161232e57601554612332565b6017545b859061380f565b906137c7565b602f54909150600160b81b900460ff161561242c57602e546001600160a01b038481169116148015906123805750602f546001600160a01b03848116911614155b1561242c57325f90815260086020526040902054431161241a5760405162461bcd60e51b815260206004820152604960248201527f5f7472616e736665723a3a205472616e736665722044656c617920656e61626c60448201527f65642e20204f6e6c79206f6e652070757263686173652070657220626c6f636b6064820152681030b63637bbb2b21760b91b608482015260a401610cdf565b325f9081526008602052604090204390555b602f546001600160a01b0385811691161480156124575750602e546001600160a01b03848116911614155b801561247b57506001600160a01b0383165f9081526003602052604090205460ff16155b1561256157601e548211156124d25760405162461bcd60e51b815260206004820152601960248201527f4578636565647320746865205f6d61785478416d6f756e742e000000000000006044820152606401610cdf565b601f54826124f4856001600160a01b03165f9081526001602052604090205490565b6124fe9190613eb6565b111561254c5760405162461bcd60e51b815260206004820152601a60248201527f4578636565647320746865206d617857616c6c657453697a652e0000000000006044820152606401610cdf565b601c8054905f61255b83613edd565b91905055505b602f546001600160a01b03848116911614801561258757506001600160a01b0384163014155b156125b4576125b16064612339601a54601c54116125a757601654612332565b601854859061380f565b90505b305f90815260016020526040902054602f54600160a81b900460ff161580156125ea5750602f546001600160a01b038581169116145b80156125ff5750602f54600160b01b900460ff165b801561260c575060205481115b801561261b5750601b54601c54115b15612660575f47905061264161263c856126378560215461388d565b61388d565b613657565b5f61264c47836138a1565b9050801561265d5761265d81612a76565b50505b505b80156126da57305f9081526001602052604090205461268190826138e2565b305f81815260016020526040908190209290925590516001600160a01b038616907fddf252ad1be2c89b69c2b068fc378daa952ba7f163c4a11628f55a4df523b3ef906126d19085815260200190565b60405180910390a35b6001600160a01b0384165f908152600160205260409020546126fc90836138a1565b6001600160a01b0385165f9081526001602052604090205561273f61272183836138a1565b6001600160a01b0385165f90815260016020526040902054906138e2565b6001600160a01b038085165f8181526001602052604090209290925585167fddf252ad1be2c89b69c2b068fc378daa952ba7f163c4a11628f55a4df523b3ef61278885856138a1565b60405190815260200160405180910390a350505050565b6001600160a01b0383166128015760405162461bcd60e51b8152602060048201526024808201527f45524332303a20617070726f76652066726f6d20746865207a65726f206164646044820152637265737360e01b6064820152608401610cdf565b6001600160a01b0382166128625760405162461bcd60e51b815260206004820152602260248201527f45524332303a20617070726f766520746f20746865207a65726f206164647265604482015261737360f01b6064820152608401610cdf565b6001600160a01b038381165f8181526002602090815260408083209487168084529482529182902085905590518481527f8c5be1e5ebec7d5bd14f71427d1e84f3dd0314c0f7b2291e5b200ac8c7c3b92591015b60405180910390a3505050565b5f81848411156128e65760405162461bcd60e51b8152600401610cdf9190613a1e565b505f6128f28486613d85565b95945050505050565b6001600160a01b03821661295b5760405162461bcd60e51b815260206004820152602160248201527f43616e6e6f74206275726e2066726f6d20746865207a65726f206164647265736044820152607360f81b6064820152608401610cdf565b6129676009600a613e91565b6129719082613e9f565b6001600160a01b0383165f9081526001602052604081208054929350839290919061299d908490613d85565b9250508190555080601d5f8282546129b59190613d85565b9091555050601d54601e819055601f556040518181526001600160a01b038316907fcc16f5dbb4873280815c1ee09dbd06736cffcc184412cf7a71a0fdb75d397ca59060200160405180910390a26040518181525f906001600160a01b038416907fddf252ad1be2c89b69c2b068fc378daa952ba7f163c4a11628f55a4df523b3ef9060200160405180910390a37f947f344d56e1e8c70dc492fb94c4ddddd490c016aab685f5e7e47b2e85cb44cf601d54604051610e2491815260200190565b5f8111612ac55760405162461bcd60e51b815260206004820181905260248201527f416d6f756e74206d7573742062652067726561746572207468616e207a65726f6044820152606401610cdf565b80471015612b155760405162461bcd60e51b815260206004820152601d60248201527f496e73756666696369656e7420636f6e74726163742062616c616e63650000006044820152606401610cdf565b5f612b21600583613fcf565b6013546040519192506001600160a01b03169082156108fc029083905f818181858888f19350505050158015612b59573d5f803e3d5ffd5b506011546040516001600160a01b039091169082156108fc029083905f818181858888f19350505050158015612b91573d5f803e3d5ffd5b506010546040516001600160a01b039091169082156108fc029083905f818181858888f19350505050158015611bd9573d5f803e3d5ffd5b604051635854524160e01b60208201526024016040516020818303038152906040528051906020012082604051602001612c039190613f2a565b6040516020818303038152906040528051906020012003612c3a578060225f828254612c2f9190613eb6565b90915550610cf39050565b604051641093d3d4d560da1b60208201526025016040516020818303038152906040528051906020012082604051602001612c759190613f2a565b6040516020818303038152906040528051906020012003612ca1578060235f828254612c2f9190613eb6565b604051602b60f91b60208201526021016040516020818303038152906040528051906020012082604051602001612cd89190613f2a565b6040516020818303038152906040528051906020012003612d04578060245f828254612c2f9190613eb6565b604051630534b49560e41b60208201526024016040516020818303038152906040528051906020012082604051602001612d3e9190613f2a565b6040516020818303038152906040528051906020012003610cf3578060255f828254612d6a9190613eb6565b90915550505050565b604051635854524160e01b60208201526024016040516020818303038152906040528051906020012083604051602001612dad9190613f2a565b6040516020818303038152906040528051906020012003612dfa576001600160a01b0381165f908152600b602052604081208054849290612def908490613eb6565b90915550612faa9050565b604051641093d3d4d560da1b60208201526025016040516020818303038152906040528051906020012083604051602001612e359190613f2a565b6040516020818303038152906040528051906020012003612e77576001600160a01b0381165f908152600c602052604081208054849290612def908490613eb6565b604051602b60f91b60208201526021016040516020818303038152906040528051906020012083604051602001612eae9190613f2a565b6040516020818303038152906040528051906020012003612ef0576001600160a01b0381165f908152600d602052604081208054849290612def908490613eb6565b604051630534b49560e41b60208201526024016040516020818303038152906040528051906020012083604051602001612f2a9190613f2a565b6040516020818303038152906040528051906020012003612f6c576001600160a01b0381165f908152600e602052604081208054849290612def908490613eb6565b60405162461bcd60e51b8152602060048201526013602482015272496e76616c696420506f74696f6e204e616d6560681b6044820152606401610cdf565b806001600160a01b0316336001600160a01b03167f3d57eec5ab68ae7c8f1ed6299a36d8e6f61253e0f24ac6aba38bc3fcbe7bc7ae855f806040516128b693929190613fee565b815f03612ffd57505050565b5f8060405160200161301990635854524160e01b815260040190565b60405160208183030381529060405280519060200120856040516020016130409190613f2a565b60405160208183030381529060405280519060200120036131bb57602654613068908561380f565b602a54909250613078908561380f565b6001600160a01b0384165f908152600960205260409020549091508211156130b25760405162461bcd60e51b8152600401610cdf90614012565b6001600160a01b0383165f908152600a60205260409020548111156130e95760405162461bcd60e51b8152600401610cdf90614053565b6001600160a01b0383165f9081526009602052604081208054849290613110908490613d85565b90915550506001600160a01b0383165f908152600a60205260408120805483929061313c908490613d85565b90915550506001600160a01b0383165f908152600b602052604081208054869290613168908490613eb6565b90915550506040516001600160a01b0384169033907f3d57eec5ab68ae7c8f1ed6299a36d8e6f61253e0f24ac6aba38bc3fcbe7bc7ae906131ae90899086908890613fee565b60405180910390a361136e565b604051641093d3d4d560da1b602082015260250160405160208183030381529060405280519060200120856040516020016131f69190613f2a565b604051602081830303815290604052805190602001200361331e5760275461321e908561380f565b602b5490925061322e908561380f565b6001600160a01b0384165f908152600960205260409020549091508211156132685760405162461bcd60e51b8152600401610cdf90614012565b6001600160a01b0383165f908152600a602052604090205481111561329f5760405162461bcd60e51b8152600401610cdf90614053565b6001600160a01b0383165f90815260096020526040812080548492906132c6908490613d85565b90915550506001600160a01b0383165f908152600a6020526040812080548392906132f2908490613d85565b90915550506001600160a01b0383165f908152600c602052604081208054869290613168908490613eb6565b604051602b60f91b602082015260210160405160208183030381529060405280519060200120856040516020016133559190613f2a565b604051602081830303815290604052805190602001200361347d5760285461337d908561380f565b602c5490925061338d908561380f565b6001600160a01b0384165f908152600960205260409020549091508211156133c75760405162461bcd60e51b8152600401610cdf90614012565b6001600160a01b0383165f908152600a60205260409020548111156133fe5760405162461bcd60e51b8152600401610cdf90614053565b6001600160a01b0383165f9081526009602052604081208054849290613425908490613d85565b90915550506001600160a01b0383165f908152600a602052604081208054839290613451908490613d85565b90915550506001600160a01b0383165f908152600d602052604081208054869290613168908490613eb6565b604051630534b49560e41b602082015260240160405160208183030381529060405280519060200120856040516020016134b79190613f2a565b6040516020818303038152906040528051906020012003612f6c576029546134df908561380f565b602d549092506134ef908561380f565b6001600160a01b0384165f908152600960205260409020549091508211156135295760405162461bcd60e51b8152600401610cdf90614012565b6001600160a01b0383165f908152600a60205260409020548111156135605760405162461bcd60e51b8152600401610cdf90614053565b6001600160a01b0383165f9081526009602052604081208054849290613587908490613d85565b90915550506001600160a01b0383165f908152600a6020526040812080548392906135b3908490613d85565b90915550506001600160a01b0383165f908152600e602052604081208054869290613168908490613eb6565b5f546001600160a01b031633146136085760405162461bcd60e51b8152600401610cdf90613ef5565b601d54601e819055601f819055602f805460ff60b81b191690556040519081527f947f344d56e1e8c70dc492fb94c4ddddd490c016aab685f5e7e47b2e85cb44cf9060200160405180910390a1565b602f805460ff60a81b1916600160a81b1790556040805160028082526060820183525f9260208301908036833701905050905030815f8151811061369d5761369d613ec9565b6001600160a01b03928316602091820292909201810191909152602e54604080516315ab88c960e31b81529051919093169263ad5c46489260048083019391928290030181865afa1580156136f4573d5f803e3d5ffd5b505050506040513d601f19601f820116820180604052508101906137189190613f89565b8160018151811061372b5761372b613ec9565b6001600160a01b039283166020918202929092010152602e54613751913091168461279f565b602e5460405163791ac94760e01b81526001600160a01b039091169063791ac947906137899085905f90869030904290600401614088565b5f604051808303815f87803b1580156137a0575f80fd5b505af11580156137b2573d5f803e3d5ffd5b5050602f805460ff60a81b1916905550505050565b5f61380883836040518060400160405280601a81526020017f536166654d6174683a206469766973696f6e206279207a65726f000000000000815250613940565b9392505050565b5f825f0361381e57505f610d07565b5f6138298385613e9f565b9050826138368583613fcf565b146138085760405162461bcd60e51b815260206004820152602160248201527f536166654d6174683a206d756c7469706c69636174696f6e206f766572666c6f6044820152607760f81b6064820152608401610cdf565b5f81831161389b5782613808565b50919050565b5f61380883836040518060400160405280601e81526020017f536166654d6174683a207375627472616374696f6e206f766572666c6f7700008152506128c3565b5f806138ee8385613eb6565b9050838110156138085760405162461bcd60e51b815260206004820152601b60248201527f536166654d6174683a206164646974696f6e206f766572666c6f7700000000006044820152606401610cdf565b5f81836139605760405162461bcd60e51b8152600401610cdf9190613a1e565b505f6128f28486613fcf565b5f6020828403121561397c575f80fd5b5035919050565b6001600160a01b038116811461210b575f80fd5b80356139a281613983565b919050565b5f80604083850312156139b8575f80fd5b82356139c381613983565b946020939093013593505050565b5f5b838110156139eb5781810151838201526020016139d3565b50505f910152565b5f8151808452613a0a8160208601602086016139d1565b601f01601f19169290920160200192915050565b602081525f61380860208301846139f3565b5f8060408385031215613a41575f80fd5b50508035926020909101359150565b5f60208284031215613a60575f80fd5b813561380881613983565b5f805f60608486031215613a7d575f80fd5b8335613a8881613983565b92506020840135613a9881613983565b929592945050506040919091013590565b634e487b7160e01b5f52604160045260245ffd5b604051601f8201601f1916810167ffffffffffffffff81118282101715613ae657613ae6613aa9565b604052919050565b5f67ffffffffffffffff821115613b0757613b07613aa9565b5060051b60200190565b5f82601f830112613b20575f80fd5b813567ffffffffffffffff811115613b3a57613b3a613aa9565b613b4d601f8201601f1916602001613abd565b818152846020838601011115613b61575f80fd5b816020850160208301375f918101602001919091529392505050565b5f82601f830112613b8c575f80fd5b81356020613ba1613b9c83613aee565b613abd565b82815260059290921b84018101918181019086841115613bbf575f80fd5b8286015b84811015613bda5780358352918301918301613bc3565b509695505050505050565b5f805f8060808587031215613bf8575f80fd5b843567ffffffffffffffff80821115613c0f575f80fd5b818701915087601f830112613c22575f80fd5b81356020613c32613b9c83613aee565b82815260059290921b8401810191818101908b841115613c50575f80fd5b8286015b84811015613c8757803586811115613c6b575f8081fd5b613c798e86838b0101613b11565b845250918301918301613c54565b5098505088013592505080821115613c9d575f80fd5b50613caa87828801613b7d565b935050613cb960408601613997565b9396929550929360600135925050565b5f805f60608486031215613cdb575f80fd5b8335613ce681613983565b9250602084013567ffffffffffffffff80821115613d02575f80fd5b613d0e87838801613b7d565b93506040860135915080821115613d23575f80fd5b50613d3086828701613b11565b9150509250925092565b5f8060408385031215613d4b575f80fd5b8235613d5681613983565b91506020830135613d6681613983565b809150509250929050565b634e487b7160e01b5f52601160045260245ffd5b81810381811115610d0757610d07613d71565b60ff8281168282160390811115610d0757610d07613d71565b600181815b80851115613deb57815f1904821115613dd157613dd1613d71565b80851615613dde57918102915b93841c9390800290613db6565b509250929050565b5f82613e0157506001610d07565b81613e0d57505f610d07565b8160018114613e235760028114613e2d57613e49565b6001915050610d07565b60ff841115613e3e57613e3e613d71565b50506001821b610d07565b5060208310610133831016604e8410600b8410161715613e6c575081810a610d07565b613e768383613db1565b805f1904821115613e8957613e89613d71565b029392505050565b5f61380860ff841683613df3565b8082028115828204841417610d0757610d07613d71565b80820180821115610d0757610d07613d71565b634e487b7160e01b5f52603260045260245ffd5b5f60018201613eee57613eee613d71565b5060010190565b6020808252818101527f4f776e61626c653a2063616c6c6572206973206e6f7420746865206f776e6572604082015260600190565b5f8251613f3b8184602087016139d1565b9190910192915050565b60208082526024908201527f42616c616e636520646f6573206e6f74206861766520656e6f75676820506f74604082015263696f6e7360e01b606082015260800190565b5f60208284031215613f99575f80fd5b815161380881613983565b5f805f60608486031215613fb6575f80fd5b8351925060208401519150604084015190509250925092565b5f82613fe957634e487b7160e01b5f52601260045260245ffd5b500490565b606081525f61400060608301866139f3565b60208301949094525060400152919050565b60208082526021908201527f42616c616e636520646f6573206e6f74206861766520656e6f7567682048474d6040820152605360f81b606082015260800190565b6020808252818101527f42616c616e636520646f6573206e6f74206861766520656e6f75676820455448604082015260600190565b5f60a082018783526020878185015260a0604085015281875180845260c08601915082890193505f5b818110156140d65784516001600160a01b0316835293830193918301916001016140b1565b50506001600160a01b0396909616606085015250505060800152939250505056fe45524332303a207472616e7366657220616d6f756e74206578636565647320616c6c6f77616e6365a2646970667358221220ff380c298c9e609918e0df573e0873b0a47f3b50ad0de2c442a2467dae02ec9164736f6c63430008150033",
			"opcodes": "PUSH1 0x80 PUSH1 0x40 MSTORE PUSH1 0x14 DUP1 SLOAD PUSH1 0x1 PUSH1 0x1 PUSH1 0xA0 SHL SUB NOT AND SWAP1 SSTORE PUSH1 0x13 PUSH1 0x15 DUP2 SWAP1 SSTORE PUSH1 0x19 PUSH1 0x16 DUP2 SWAP1 SSTORE PUSH1 0x5 PUSH1 0x17 DUP2 SWAP1 SSTORE PUSH1 0x18 SSTORE SWAP1 DUP2 SSTORE PUSH1 0x1A DUP2 SWAP1 SSTORE PUSH1 0x1B SSTORE PUSH0 PUSH1 0x1C SSTORE PUSH3 0x49 PUSH1 0x9 PUSH1 0xA PUSH3 0x45B JUMP JUMPDEST PUSH3 0x59 SWAP1 PUSH4 0x3B9ACA00 PUSH3 0x472 JUMP JUMPDEST PUSH1 0x1D SSTORE PUSH3 0x6A PUSH1 0x9 PUSH1 0xA PUSH3 0x45B JUMP JUMPDEST PUSH3 0x79 SWAP1 PUSH3 0x989680 PUSH3 0x472 JUMP JUMPDEST PUSH1 0x1E SSTORE PUSH3 0x8A PUSH1 0x9 PUSH1 0xA PUSH3 0x45B JUMP JUMPDEST PUSH3 0x9A SWAP1 PUSH4 0x1312D00 PUSH3 0x472 JUMP JUMPDEST PUSH1 0x1F SSTORE PUSH3 0xAB PUSH1 0x9 PUSH1 0xA PUSH3 0x45B JUMP JUMPDEST PUSH3 0xBA SWAP1 PUSH3 0xF4240 PUSH3 0x472 JUMP JUMPDEST PUSH1 0x20 SSTORE PUSH3 0xCB PUSH1 0x9 PUSH1 0xA PUSH3 0x45B JUMP JUMPDEST PUSH3 0xDA SWAP1 PUSH3 0x989680 PUSH3 0x472 JUMP JUMPDEST PUSH1 0x21 SSTORE PUSH2 0x61A8 PUSH1 0x26 SSTORE PUSH2 0x61A8 PUSH1 0x27 SSTORE PUSH2 0x61A8 PUSH1 0x28 SSTORE PUSH2 0x61A8 PUSH1 0x29 SSTORE PUSH1 0x3 PUSH1 0x9 PUSH3 0x105 SWAP2 SWAP1 PUSH3 0x48C JUMP JUMPDEST PUSH3 0x112 SWAP1 PUSH1 0xA PUSH3 0x45B JUMP JUMPDEST PUSH3 0x11F SWAP1 PUSH1 0x14 PUSH3 0x472 JUMP JUMPDEST PUSH1 0x2A SSTORE PUSH0 PUSH1 0x2B SSTORE PUSH3 0x134 PUSH1 0x3 PUSH1 0x9 PUSH3 0x48C JUMP JUMPDEST PUSH3 0x141 SWAP1 PUSH1 0xA PUSH3 0x45B JUMP JUMPDEST PUSH3 0x14E SWAP1 PUSH1 0x9 PUSH3 0x472 JUMP JUMPDEST PUSH1 0x2C SSTORE PUSH3 0x15F PUSH1 0x3 PUSH1 0x9 PUSH3 0x48C JUMP JUMPDEST PUSH3 0x16C SWAP1 PUSH1 0xA PUSH3 0x45B JUMP JUMPDEST PUSH3 0x179 SWAP1 PUSH1 0xC PUSH3 0x472 JUMP JUMPDEST PUSH1 0x2D SSTORE PUSH1 0x2F DUP1 SLOAD PUSH4 0xFFFFFFFF PUSH1 0xA8 SHL NOT AND PUSH1 0x1 PUSH1 0xB8 SHL OR SWAP1 SSTORE CALLVALUE DUP1 ISZERO PUSH3 0x19E JUMPI PUSH0 DUP1 REVERT JUMPDEST POP PUSH0 DUP1 SLOAD PUSH1 0x1 PUSH1 0x1 PUSH1 0xA0 SHL SUB NOT AND CALLER SWAP1 DUP2 OR DUP3 SSTORE PUSH1 0x40 MLOAD SWAP1 SWAP2 DUP3 SWAP2 PUSH32 0x8BE0079C531659141344CD1FD0A4F28419497F9722A3DAAFE3B4186F6B6457E0 SWAP1 DUP3 SWAP1 LOG3 POP CALLER PUSH1 0x12 DUP1 SLOAD PUSH1 0x1 PUSH1 0x1 PUSH1 0xA0 SHL SUB SWAP3 SWAP1 SWAP3 AND PUSH1 0x1 PUSH1 0x1 PUSH1 0xA0 SHL SUB NOT SWAP3 DUP4 AND OR SWAP1 SSTORE PUSH1 0x13 DUP1 SLOAD DUP3 AND PUSH20 0xD53C9795A9DAF24FBCAB45CF2DF0D37145F7E0E0 OR SWAP1 SSTORE PUSH1 0x11 DUP1 SLOAD DUP3 AND PUSH20 0x6F1F797F35EF003C3B89257971A80208C61F7976 OR SWAP1 SSTORE PUSH1 0x10 DUP1 SLOAD SWAP1 SWAP2 AND PUSH20 0x7034990879D4E4C0F9DADE892AD641BC45DEDBBF OR SWAP1 SSTORE PUSH1 0x1D SLOAD ADDRESS PUSH0 SWAP1 DUP2 MSTORE PUSH1 0x1 PUSH1 0x20 DUP2 SWAP1 MSTORE PUSH1 0x40 DUP3 KECCAK256 SWAP3 SWAP1 SWAP3 SSTORE PUSH1 0x3 SWAP1 PUSH3 0x286 PUSH0 SLOAD PUSH1 0x1 PUSH1 0x1 PUSH1 0xA0 SHL SUB AND SWAP1 JUMP JUMPDEST PUSH1 0x1 PUSH1 0x1 PUSH1 0xA0 SHL SUB SWAP1 DUP2 AND DUP3 MSTORE PUSH1 0x20 DUP1 DUP4 ADD SWAP4 SWAP1 SWAP4 MSTORE PUSH1 0x40 SWAP2 DUP3 ADD PUSH0 SWAP1 DUP2 KECCAK256 DUP1 SLOAD SWAP6 ISZERO ISZERO PUSH1 0xFF NOT SWAP7 DUP8 AND OR SWAP1 SSTORE ADDRESS DUP1 DUP3 MSTORE PUSH1 0x3 DUP6 MSTORE DUP4 DUP3 KECCAK256 DUP1 SLOAD DUP8 AND PUSH1 0x1 SWAP1 DUP2 OR SWAP1 SWAP2 SSTORE PUSH1 0x13 SLOAD DUP5 AND DUP4 MSTORE DUP5 DUP4 KECCAK256 DUP1 SLOAD DUP9 AND DUP3 OR SWAP1 SSTORE PUSH1 0x11 SLOAD DUP5 AND DUP4 MSTORE DUP5 DUP4 KECCAK256 DUP1 SLOAD DUP9 AND DUP3 OR SWAP1 SSTORE PUSH1 0x10 SLOAD SWAP1 SWAP4 AND DUP3 MSTORE DUP4 DUP3 KECCAK256 DUP1 SLOAD SWAP1 SWAP7 AND DUP4 OR SWAP1 SWAP6 SSTORE DUP5 DUP2 MSTORE SWAP3 MSTORE DUP1 DUP3 KECCAK256 SLOAD SWAP1 MLOAD PUSH32 0xDDF252AD1BE2C89B69C2B068FC378DAA952BA7F163C4A11628F55A4DF523B3EF SWAP2 PUSH3 0x33E SWAP2 SWAP1 DUP2 MSTORE PUSH1 0x20 ADD SWAP1 JUMP JUMPDEST PUSH1 0x40 MLOAD DUP1 SWAP2 SUB SWAP1 LOG3 PUSH3 0x4A8 JUMP JUMPDEST PUSH4 0x4E487B71 PUSH1 0xE0 SHL PUSH0 MSTORE PUSH1 0x11 PUSH1 0x4 MSTORE PUSH1 0x24 PUSH0 REVERT JUMPDEST PUSH1 0x1 DUP2 DUP2 JUMPDEST DUP1 DUP6 GT ISZERO PUSH3 0x3A0 JUMPI DUP2 PUSH0 NOT DIV DUP3 GT ISZERO PUSH3 0x384 JUMPI PUSH3 0x384 PUSH3 0x34C JUMP JUMPDEST DUP1 DUP6 AND ISZERO PUSH3 0x392 JUMPI SWAP2 DUP2 MUL SWAP2 JUMPDEST SWAP4 DUP5 SHR SWAP4 SWAP1 DUP1 MUL SWAP1 PUSH3 0x365 JUMP JUMPDEST POP SWAP3 POP SWAP3 SWAP1 POP JUMP JUMPDEST PUSH0 DUP3 PUSH3 0x3B8 JUMPI POP PUSH1 0x1 PUSH3 0x455 JUMP JUMPDEST DUP2 PUSH3 0x3C6 JUMPI POP PUSH0 PUSH3 0x455 JUMP JUMPDEST DUP2 PUSH1 0x1 DUP2 EQ PUSH3 0x3DF JUMPI PUSH1 0x2 DUP2 EQ PUSH3 0x3EA JUMPI PUSH3 0x40A JUMP JUMPDEST PUSH1 0x1 SWAP2 POP POP PUSH3 0x455 JUMP JUMPDEST PUSH1 0xFF DUP5 GT ISZERO PUSH3 0x3FE JUMPI PUSH3 0x3FE PUSH3 0x34C JUMP JUMPDEST POP POP PUSH1 0x1 DUP3 SHL PUSH3 0x455 JUMP JUMPDEST POP PUSH1 0x20 DUP4 LT PUSH2 0x133 DUP4 LT AND PUSH1 0x4E DUP5 LT PUSH1 0xB DUP5 LT AND OR ISZERO PUSH3 0x42F JUMPI POP DUP2 DUP2 EXP PUSH3 0x455 JUMP JUMPDEST PUSH3 0x43B DUP4 DUP4 PUSH3 0x360 JUMP JUMPDEST DUP1 PUSH0 NOT DIV DUP3 GT ISZERO PUSH3 0x451 JUMPI PUSH3 0x451 PUSH3 0x34C JUMP JUMPDEST MUL SWAP1 POP JUMPDEST SWAP3 SWAP2 POP POP JUMP JUMPDEST PUSH0 PUSH3 0x46B PUSH1 0xFF DUP5 AND DUP4 PUSH3 0x3A8 JUMP JUMPDEST SWAP4 SWAP3 POP POP POP JUMP JUMPDEST DUP1 DUP3 MUL DUP2 ISZERO DUP3 DUP3 DIV DUP5 EQ OR PUSH3 0x455 JUMPI PUSH3 0x455 PUSH3 0x34C JUMP JUMPDEST PUSH1 0xFF DUP3 DUP2 AND DUP3 DUP3 AND SUB SWAP1 DUP2 GT ISZERO PUSH3 0x455 JUMPI PUSH3 0x455 PUSH3 0x34C JUMP JUMPDEST PUSH2 0x4155 DUP1 PUSH3 0x4B6 PUSH0 CODECOPY PUSH0 RETURN INVALID PUSH1 0x80 PUSH1 0x40 MSTORE PUSH1 0x4 CALLDATASIZE LT PUSH2 0x3CC JUMPI PUSH0 CALLDATALOAD PUSH1 0xE0 SHR DUP1 PUSH4 0x6E9FA864 GT PUSH2 0x1F4 JUMPI DUP1 PUSH4 0xBF474BED GT PUSH2 0x113 JUMPI DUP1 PUSH4 0xE8078D94 GT PUSH2 0xA8 JUMPI DUP1 PUSH4 0xF2B4C325 GT PUSH2 0x78 JUMPI DUP1 PUSH4 0xF2B4C325 EQ PUSH2 0xBAD JUMPI DUP1 PUSH4 0xF3A395FC EQ PUSH2 0xBC2 JUMPI DUP1 PUSH4 0xF4293890 EQ PUSH2 0xBF0 JUMPI DUP1 PUSH4 0xF5648A4F EQ PUSH2 0xC04 JUMPI DUP1 PUSH4 0xF7685A02 EQ PUSH2 0xC18 JUMPI PUSH0 DUP1 REVERT JUMPDEST DUP1 PUSH4 0xE8078D94 EQ PUSH2 0xB2E JUMPI DUP1 PUSH4 0xEB429BF8 EQ PUSH2 0xB42 JUMPI DUP1 PUSH4 0xEB77DBB1 EQ PUSH2 0xB6D JUMPI DUP1 PUSH4 0xF2A6227F EQ PUSH2 0xB82 JUMPI PUSH0 DUP1 REVERT JUMPDEST DUP1 PUSH4 0xC9567BF9 GT PUSH2 0xE3 JUMPI DUP1 PUSH4 0xC9567BF9 EQ PUSH2 0xA8C JUMPI DUP1 PUSH4 0xCE9DC805 EQ PUSH2 0xAA0 JUMPI DUP1 PUSH4 0xD677D03E EQ PUSH2 0xABF JUMPI DUP1 PUSH4 0xDD62ED3E EQ PUSH2 0xAEA JUMPI PUSH0 DUP1 REVERT JUMPDEST DUP1 PUSH4 0xBF474BED EQ PUSH2 0x9FE JUMPI DUP1 PUSH4 0xC1AE5E72 EQ PUSH2 0xA13 JUMPI DUP1 PUSH4 0xC232AE4D EQ PUSH2 0xA41 JUMPI DUP1 PUSH4 0xC876D0B9 EQ PUSH2 0xA6C JUMPI PUSH0 DUP1 REVERT JUMPDEST DUP1 PUSH4 0x8FBD8F27 GT PUSH2 0x189 JUMPI DUP1 PUSH4 0xABB284E9 GT PUSH2 0x159 JUMPI DUP1 PUSH4 0xABB284E9 EQ PUSH2 0x976 JUMPI DUP1 PUSH4 0xAF95D4D3 EQ PUSH2 0x995 JUMPI DUP1 PUSH4 0xBBAB0FF1 EQ PUSH2 0x9B4 JUMPI DUP1 PUSH4 0xBE68E027 EQ PUSH2 0x9D3 JUMPI PUSH0 DUP1 REVERT JUMPDEST DUP1 PUSH4 0x8FBD8F27 EQ PUSH2 0x8F8 JUMPI DUP1 PUSH4 0x95D89B41 EQ PUSH2 0x917 JUMPI DUP1 PUSH4 0xA1780C18 EQ PUSH2 0x943 JUMPI DUP1 PUSH4 0xA9059CBB EQ PUSH2 0x957 JUMPI PUSH0 DUP1 REVERT JUMPDEST DUP1 PUSH4 0x7D1DB4A5 GT PUSH2 0x1C4 JUMPI DUP1 PUSH4 0x7D1DB4A5 EQ PUSH2 0x893 JUMPI DUP1 PUSH4 0x81CD58E5 EQ PUSH2 0x8A8 JUMPI DUP1 PUSH4 0x8DA5CB5B EQ PUSH2 0x8C7 JUMPI DUP1 PUSH4 0x8F9A55C0 EQ PUSH2 0x8E3 JUMPI PUSH0 DUP1 REVERT JUMPDEST DUP1 PUSH4 0x6E9FA864 EQ PUSH2 0x818 JUMPI DUP1 PUSH4 0x70A08231 EQ PUSH2 0x837 JUMPI DUP1 PUSH4 0x715018A6 EQ PUSH2 0x86B JUMPI DUP1 PUSH4 0x751039FC EQ PUSH2 0x87F JUMPI PUSH0 DUP1 REVERT JUMPDEST DUP1 PUSH4 0x23B872DD GT PUSH2 0x2EB JUMPI DUP1 PUSH4 0x3B32EDD4 GT PUSH2 0x280 JUMPI DUP1 PUSH4 0x54CA45D8 GT PUSH2 0x250 JUMPI DUP1 PUSH4 0x54CA45D8 EQ PUSH2 0x75A JUMPI DUP1 PUSH4 0x580A155A EQ PUSH2 0x788 JUMPI DUP1 PUSH4 0x66B6090F EQ PUSH2 0x7B6 JUMPI DUP1 PUSH4 0x6A4D84F9 EQ PUSH2 0x7CB JUMPI DUP1 PUSH4 0x6E2ED3C4 EQ PUSH2 0x7EA JUMPI PUSH0 DUP1 REVERT JUMPDEST DUP1 PUSH4 0x3B32EDD4 EQ PUSH2 0x6CD JUMPI DUP1 PUSH4 0x3E713060 EQ PUSH2 0x6FB JUMPI DUP1 PUSH4 0x51A2F687 EQ PUSH2 0x710 JUMPI DUP1 PUSH4 0x52D3C14E EQ PUSH2 0x72F JUMPI PUSH0 DUP1 REVERT JUMPDEST DUP1 PUSH4 0x2D4BBB05 GT PUSH2 0x2BB JUMPI DUP1 PUSH4 0x2D4BBB05 EQ PUSH2 0x66B JUMPI DUP1 PUSH4 0x313CE567 EQ PUSH2 0x67E JUMPI DUP1 PUSH4 0x3520B3A4 EQ PUSH2 0x699 JUMPI DUP1 PUSH4 0x37E294D5 EQ PUSH2 0x6AE JUMPI PUSH0 DUP1 REVERT JUMPDEST DUP1 PUSH4 0x23B872DD EQ PUSH2 0x5F4 JUMPI DUP1 PUSH4 0x24AEDE52 EQ PUSH2 0x613 JUMPI DUP1 PUSH4 0x298A8328 EQ PUSH2 0x628 JUMPI DUP1 PUSH4 0x2ACE2AF5 EQ PUSH2 0x63D JUMPI PUSH0 DUP1 REVERT JUMPDEST DUP1 PUSH4 0xD2D697A GT PUSH2 0x361 JUMPI DUP1 PUSH4 0x18160DDD GT PUSH2 0x331 JUMPI DUP1 PUSH4 0x18160DDD EQ PUSH2 0x5A1 JUMPI DUP1 PUSH4 0x19DDE7B7 EQ PUSH2 0x5B5 JUMPI DUP1 PUSH4 0x1CC34B98 EQ PUSH2 0x5CA JUMPI DUP1 PUSH4 0x21E09B34 EQ PUSH2 0x5DF JUMPI PUSH0 DUP1 REVERT JUMPDEST DUP1 PUSH4 0xD2D697A EQ PUSH2 0x50B JUMPI DUP1 PUSH4 0xDB6DFF7 EQ PUSH2 0x536 JUMPI DUP1 PUSH4 0xFAEE56F EQ PUSH2 0x555 JUMPI DUP1 PUSH4 0x11A63E17 EQ PUSH2 0x56A JUMPI PUSH0 DUP1 REVERT JUMPDEST DUP1 PUSH4 0x8150133 GT PUSH2 0x39C JUMPI DUP1 PUSH4 0x8150133 EQ PUSH2 0x48B JUMPI DUP1 PUSH4 0x95EA7B3 EQ PUSH2 0x4AE JUMPI DUP1 PUSH4 0x9EADBF5 EQ PUSH2 0x4CD JUMPI DUP1 PUSH4 0xC0E3D4A EQ PUSH2 0x4EC JUMPI PUSH0 DUP1 REVERT JUMPDEST DUP1 PUSH4 0x39AA9CF EQ PUSH2 0x3D7 JUMPI DUP1 PUSH4 0x634087D EQ PUSH2 0x41A JUMPI DUP1 PUSH4 0x6B091F9 EQ PUSH2 0x430 JUMPI DUP1 PUSH4 0x6FDDE03 EQ PUSH2 0x44F JUMPI PUSH0 DUP1 REVERT JUMPDEST CALLDATASIZE PUSH2 0x3D3 JUMPI STOP JUMPDEST PUSH0 DUP1 REVERT JUMPDEST CALLVALUE DUP1 ISZERO PUSH2 0x3E2 JUMPI PUSH0 DUP1 REVERT JUMPDEST POP PUSH2 0x405 PUSH2 0x3F1 CALLDATASIZE PUSH1 0x4 PUSH2 0x396C JUMP JUMPDEST PUSH1 0x6 PUSH1 0x20 MSTORE PUSH0 SWAP1 DUP2 MSTORE PUSH1 0x40 SWAP1 KECCAK256 SLOAD PUSH1 0xFF AND DUP2 JUMP JUMPDEST PUSH1 0x40 MLOAD SWAP1 ISZERO ISZERO DUP2 MSTORE PUSH1 0x20 ADD JUMPDEST PUSH1 0x40 MLOAD DUP1 SWAP2 SUB SWAP1 RETURN JUMPDEST CALLVALUE DUP1 ISZERO PUSH2 0x425 JUMPI PUSH0 DUP1 REVERT JUMPDEST POP PUSH2 0x42E PUSH2 0xC2D JUMP JUMPDEST STOP JUMPDEST CALLVALUE DUP1 ISZERO PUSH2 0x43B JUMPI PUSH0 DUP1 REVERT JUMPDEST POP PUSH2 0x42E PUSH2 0x44A CALLDATASIZE PUSH1 0x4 PUSH2 0x39A7 JUMP JUMPDEST PUSH2 0xC6F JUMP JUMPDEST CALLVALUE DUP1 ISZERO PUSH2 0x45A JUMPI PUSH0 DUP1 REVERT JUMPDEST POP PUSH1 0x40 DUP1 MLOAD DUP1 DUP3 ADD SWAP1 SWAP2 MSTORE PUSH1 0xB DUP2 MSTORE PUSH11 0x48756E67657247616D6573 PUSH1 0xA8 SHL PUSH1 0x20 DUP3 ADD MSTORE JUMPDEST PUSH1 0x40 MLOAD PUSH2 0x411 SWAP2 SWAP1 PUSH2 0x3A1E JUMP JUMPDEST CALLVALUE DUP1 ISZERO PUSH2 0x496 JUMPI PUSH0 DUP1 REVERT JUMPDEST POP PUSH2 0x4A0 PUSH1 0x23 SLOAD DUP2 JUMP JUMPDEST PUSH1 0x40 MLOAD SWAP1 DUP2 MSTORE PUSH1 0x20 ADD PUSH2 0x411 JUMP JUMPDEST CALLVALUE DUP1 ISZERO PUSH2 0x4B9 JUMPI PUSH0 DUP1 REVERT JUMPDEST POP PUSH2 0x405 PUSH2 0x4C8 CALLDATASIZE PUSH1 0x4 PUSH2 0x39A7 JUMP JUMPDEST PUSH2 0xCF7 JUMP JUMPDEST CALLVALUE DUP1 ISZERO PUSH2 0x4D8 JUMPI PUSH0 DUP1 REVERT JUMPDEST POP PUSH2 0x42E PUSH2 0x4E7 CALLDATASIZE PUSH1 0x4 PUSH2 0x3A30 JUMP JUMPDEST PUSH2 0xD0D JUMP JUMPDEST CALLVALUE DUP1 ISZERO PUSH2 0x4F7 JUMPI PUSH0 DUP1 REVERT JUMPDEST POP PUSH2 0x42E PUSH2 0x506 CALLDATASIZE PUSH1 0x4 PUSH2 0x3A30 JUMP JUMPDEST PUSH2 0xE30 JUMP JUMPDEST CALLVALUE DUP1 ISZERO PUSH2 0x516 JUMPI PUSH0 DUP1 REVERT JUMPDEST POP PUSH2 0x4A0 PUSH2 0x525 CALLDATASIZE PUSH1 0x4 PUSH2 0x3A50 JUMP JUMPDEST PUSH1 0x9 PUSH1 0x20 MSTORE PUSH0 SWAP1 DUP2 MSTORE PUSH1 0x40 SWAP1 KECCAK256 SLOAD DUP2 JUMP JUMPDEST CALLVALUE DUP1 ISZERO PUSH2 0x541 JUMPI PUSH0 DUP1 REVERT JUMPDEST POP PUSH2 0x42E PUSH2 0x550 CALLDATASIZE PUSH1 0x4 PUSH2 0x3A50 JUMP JUMPDEST PUSH2 0xE73 JUMP JUMPDEST CALLVALUE DUP1 ISZERO PUSH2 0x560 JUMPI PUSH0 DUP1 REVERT JUMPDEST POP PUSH2 0x4A0 PUSH1 0x21 SLOAD DUP2 JUMP JUMPDEST CALLVALUE DUP1 ISZERO PUSH2 0x575 JUMPI PUSH0 DUP1 REVERT JUMPDEST POP PUSH1 0x12 SLOAD PUSH2 0x589 SWAP1 PUSH1 0x1 PUSH1 0x1 PUSH1 0xA0 SHL SUB AND DUP2 JUMP JUMPDEST PUSH1 0x40 MLOAD PUSH1 0x1 PUSH1 0x1 PUSH1 0xA0 SHL SUB SWAP1 SWAP2 AND DUP2 MSTORE PUSH1 0x20 ADD PUSH2 0x411 JUMP JUMPDEST CALLVALUE DUP1 ISZERO PUSH2 0x5AC JUMPI PUSH0 DUP1 REVERT JUMPDEST POP PUSH1 0x1D SLOAD PUSH2 0x4A0 JUMP JUMPDEST CALLVALUE DUP1 ISZERO PUSH2 0x5C0 JUMPI PUSH0 DUP1 REVERT JUMPDEST POP PUSH2 0x4A0 PUSH1 0x26 SLOAD DUP2 JUMP JUMPDEST CALLVALUE DUP1 ISZERO PUSH2 0x5D5 JUMPI PUSH0 DUP1 REVERT JUMPDEST POP PUSH2 0x4A0 PUSH1 0x24 SLOAD DUP2 JUMP JUMPDEST CALLVALUE DUP1 ISZERO PUSH2 0x5EA JUMPI PUSH0 DUP1 REVERT JUMPDEST POP PUSH2 0x4A0 PUSH1 0x2D SLOAD DUP2 JUMP JUMPDEST CALLVALUE DUP1 ISZERO PUSH2 0x5FF JUMPI PUSH0 DUP1 REVERT JUMPDEST POP PUSH2 0x405 PUSH2 0x60E CALLDATASIZE PUSH1 0x4 PUSH2 0x3A6B JUMP JUMPDEST PUSH2 0xEAB JUMP JUMPDEST CALLVALUE DUP1 ISZERO PUSH2 0x61E JUMPI PUSH0 DUP1 REVERT JUMPDEST POP PUSH2 0x4A0 PUSH1 0x2A SLOAD DUP2 JUMP JUMPDEST CALLVALUE DUP1 ISZERO PUSH2 0x633 JUMPI PUSH0 DUP1 REVERT JUMPDEST POP PUSH2 0x4A0 PUSH1 0x2C SLOAD DUP2 JUMP JUMPDEST CALLVALUE DUP1 ISZERO PUSH2 0x648 JUMPI PUSH0 DUP1 REVERT JUMPDEST POP PUSH2 0x405 PUSH2 0x657 CALLDATASIZE PUSH1 0x4 PUSH2 0x396C JUMP JUMPDEST PUSH0 SWAP1 DUP2 MSTORE PUSH1 0x4 PUSH1 0x20 MSTORE PUSH1 0x40 SWAP1 KECCAK256 SLOAD PUSH1 0xFF AND SWAP1 JUMP JUMPDEST PUSH2 0x42E PUSH2 0x679 CALLDATASIZE PUSH1 0x4 PUSH2 0x3A30 JUMP JUMPDEST PUSH2 0xF12 JUMP JUMPDEST CALLVALUE DUP1 ISZERO PUSH2 0x689 JUMPI PUSH0 DUP1 REVERT JUMPDEST POP PUSH1 0x40 MLOAD PUSH1 0x9 DUP2 MSTORE PUSH1 0x20 ADD PUSH2 0x411 JUMP JUMPDEST CALLVALUE DUP1 ISZERO PUSH2 0x6A4 JUMPI PUSH0 DUP1 REVERT JUMPDEST POP PUSH2 0x4A0 PUSH1 0x22 SLOAD DUP2 JUMP JUMPDEST CALLVALUE DUP1 ISZERO PUSH2 0x6B9 JUMPI PUSH0 DUP1 REVERT JUMPDEST POP PUSH1 0x11 SLOAD PUSH2 0x589 SWAP1 PUSH1 0x1 PUSH1 0x1 PUSH1 0xA0 SHL SUB AND DUP2 JUMP JUMPDEST CALLVALUE DUP1 ISZERO PUSH2 0x6D8 JUMPI PUSH0 DUP1 REVERT JUMPDEST POP PUSH2 0x405 PUSH2 0x6E7 CALLDATASIZE PUSH1 0x4 PUSH2 0x396C JUMP JUMPDEST PUSH0 SWAP1 DUP2 MSTORE PUSH1 0x6 PUSH1 0x20 MSTORE PUSH1 0x40 SWAP1 KECCAK256 SLOAD PUSH1 0xFF AND SWAP1 JUMP JUMPDEST CALLVALUE DUP1 ISZERO PUSH2 0x706 JUMPI PUSH0 DUP1 REVERT JUMPDEST POP PUSH2 0x4A0 PUSH1 0x25 SLOAD DUP2 JUMP JUMPDEST CALLVALUE DUP1 ISZERO PUSH2 0x71B JUMPI PUSH0 DUP1 REVERT JUMPDEST POP PUSH1 0x10 SLOAD PUSH2 0x589 SWAP1 PUSH1 0x1 PUSH1 0x1 PUSH1 0xA0 SHL SUB AND DUP2 JUMP JUMPDEST CALLVALUE DUP1 ISZERO PUSH2 0x73A JUMPI PUSH0 DUP1 REVERT JUMPDEST POP PUSH2 0x4A0 PUSH2 0x749 CALLDATASIZE PUSH1 0x4 PUSH2 0x3A50 JUMP JUMPDEST PUSH1 0xB PUSH1 0x20 MSTORE PUSH0 SWAP1 DUP2 MSTORE PUSH1 0x40 SWAP1 KECCAK256 SLOAD DUP2 JUMP JUMPDEST CALLVALUE DUP1 ISZERO PUSH2 0x765 JUMPI PUSH0 DUP1 REVERT JUMPDEST POP PUSH2 0x405 PUSH2 0x774 CALLDATASIZE PUSH1 0x4 PUSH2 0x396C JUMP JUMPDEST PUSH1 0x7 PUSH1 0x20 MSTORE PUSH0 SWAP1 DUP2 MSTORE PUSH1 0x40 SWAP1 KECCAK256 SLOAD PUSH1 0xFF AND DUP2 JUMP JUMPDEST CALLVALUE DUP1 ISZERO PUSH2 0x793 JUMPI PUSH0 DUP1 REVERT JUMPDEST POP PUSH2 0x405 PUSH2 0x7A2 CALLDATASIZE PUSH1 0x4 PUSH2 0x396C JUMP JUMPDEST PUSH1 0x5 PUSH1 0x20 MSTORE PUSH0 SWAP1 DUP2 MSTORE PUSH1 0x40 SWAP1 KECCAK256 SLOAD PUSH1 0xFF AND DUP2 JUMP JUMPDEST CALLVALUE DUP1 ISZERO PUSH2 0x7C1 JUMPI PUSH0 DUP1 REVERT JUMPDEST POP PUSH2 0x4A0 PUSH1 0x29 SLOAD DUP2 JUMP JUMPDEST CALLVALUE DUP1 ISZERO PUSH2 0x7D6 JUMPI PUSH0 DUP1 REVERT JUMPDEST POP PUSH2 0x42E PUSH2 0x7E5 CALLDATASIZE PUSH1 0x4 PUSH2 0x3A30 JUMP JUMPDEST PUSH2 0x10BA JUMP JUMPDEST CALLVALUE DUP1 ISZERO PUSH2 0x7F5 JUMPI PUSH0 DUP1 REVERT JUMPDEST POP PUSH2 0x405 PUSH2 0x804 CALLDATASIZE PUSH1 0x4 PUSH2 0x396C JUMP JUMPDEST PUSH0 SWAP1 DUP2 MSTORE PUSH1 0x7 PUSH1 0x20 MSTORE PUSH1 0x40 SWAP1 KECCAK256 SLOAD PUSH1 0xFF AND SWAP1 JUMP JUMPDEST CALLVALUE DUP1 ISZERO PUSH2 0x823 JUMPI PUSH0 DUP1 REVERT JUMPDEST POP PUSH2 0x42E PUSH2 0x832 CALLDATASIZE PUSH1 0x4 PUSH2 0x3BE5 JUMP JUMPDEST PUSH2 0x10FD JUMP JUMPDEST CALLVALUE DUP1 ISZERO PUSH2 0x842 JUMPI PUSH0 DUP1 REVERT JUMPDEST POP PUSH2 0x4A0 PUSH2 0x851 CALLDATASIZE PUSH1 0x4 PUSH2 0x3A50 JUMP JUMPDEST PUSH1 0x1 PUSH1 0x1 PUSH1 0xA0 SHL SUB AND PUSH0 SWAP1 DUP2 MSTORE PUSH1 0x1 PUSH1 0x20 MSTORE PUSH1 0x40 SWAP1 KECCAK256 SLOAD SWAP1 JUMP JUMPDEST CALLVALUE DUP1 ISZERO PUSH2 0x876 JUMPI PUSH0 DUP1 REVERT JUMPDEST POP PUSH2 0x42E PUSH2 0x1375 JUMP JUMPDEST CALLVALUE DUP1 ISZERO PUSH2 0x88A JUMPI PUSH0 DUP1 REVERT JUMPDEST POP PUSH2 0x42E PUSH2 0x13E6 JUMP JUMPDEST CALLVALUE DUP1 ISZERO PUSH2 0x89E JUMPI PUSH0 DUP1 REVERT JUMPDEST POP PUSH2 0x4A0 PUSH1 0x1E SLOAD DUP2 JUMP JUMPDEST CALLVALUE DUP1 ISZERO PUSH2 0x8B3 JUMPI PUSH0 DUP1 REVERT JUMPDEST POP PUSH2 0x42E PUSH2 0x8C2 CALLDATASIZE PUSH1 0x4 PUSH2 0x3CC9 JUMP JUMPDEST PUSH2 0x1419 JUMP JUMPDEST CALLVALUE DUP1 ISZERO PUSH2 0x8D2 JUMPI PUSH0 DUP1 REVERT JUMPDEST POP PUSH0 SLOAD PUSH1 0x1 PUSH1 0x1 PUSH1 0xA0 SHL SUB AND PUSH2 0x589 JUMP JUMPDEST CALLVALUE DUP1 ISZERO PUSH2 0x8EE JUMPI PUSH0 DUP1 REVERT JUMPDEST POP PUSH2 0x4A0 PUSH1 0x1F SLOAD DUP2 JUMP JUMPDEST CALLVALUE DUP1 ISZERO PUSH2 0x903 JUMPI PUSH0 DUP1 REVERT JUMPDEST POP PUSH2 0x42E PUSH2 0x912 CALLDATASIZE PUSH1 0x4 PUSH2 0x3A30 JUMP JUMPDEST PUSH2 0x1BDE JUMP JUMPDEST CALLVALUE DUP1 ISZERO PUSH2 0x922 JUMPI PUSH0 DUP1 REVERT JUMPDEST POP PUSH1 0x40 DUP1 MLOAD DUP1 DUP3 ADD SWAP1 SWAP2 MSTORE PUSH1 0x4 DUP2 MSTORE PUSH4 0x48474D53 PUSH1 0xE0 SHL PUSH1 0x20 DUP3 ADD MSTORE PUSH2 0x47E JUMP JUMPDEST CALLVALUE DUP1 ISZERO PUSH2 0x94E JUMPI PUSH0 DUP1 REVERT JUMPDEST POP PUSH2 0x42E PUSH2 0x1C21 JUMP JUMPDEST CALLVALUE DUP1 ISZERO PUSH2 0x962 JUMPI PUSH0 DUP1 REVERT JUMPDEST POP PUSH2 0x405 PUSH2 0x971 CALLDATASIZE PUSH1 0x4 PUSH2 0x39A7 JUMP JUMPDEST PUSH2 0x1C6E JUMP JUMPDEST CALLVALUE DUP1 ISZERO PUSH2 0x981 JUMPI PUSH0 DUP1 REVERT JUMPDEST POP PUSH2 0x42E PUSH2 0x990 CALLDATASIZE PUSH1 0x4 PUSH2 0x3A30 JUMP JUMPDEST PUSH2 0x1C7A JUMP JUMPDEST CALLVALUE DUP1 ISZERO PUSH2 0x9A0 JUMPI PUSH0 DUP1 REVERT JUMPDEST POP PUSH2 0x42E PUSH2 0x9AF CALLDATASIZE PUSH1 0x4 PUSH2 0x39A7 JUMP JUMPDEST PUSH2 0x1CBD JUMP JUMPDEST CALLVALUE DUP1 ISZERO PUSH2 0x9BF JUMPI PUSH0 DUP1 REVERT JUMPDEST POP PUSH1 0x13 SLOAD PUSH2 0x589 SWAP1 PUSH1 0x1 PUSH1 0x1 PUSH1 0xA0 SHL SUB AND DUP2 JUMP JUMPDEST CALLVALUE DUP1 ISZERO PUSH2 0x9DE JUMPI PUSH0 DUP1 REVERT JUMPDEST POP PUSH2 0x4A0 PUSH2 0x9ED CALLDATASIZE PUSH1 0x4 PUSH2 0x3A50 JUMP JUMPDEST PUSH1 0xA PUSH1 0x20 MSTORE PUSH0 SWAP1 DUP2 MSTORE PUSH1 0x40 SWAP1 KECCAK256 SLOAD DUP2 JUMP JUMPDEST CALLVALUE DUP1 ISZERO PUSH2 0xA09 JUMPI PUSH0 DUP1 REVERT JUMPDEST POP PUSH2 0x4A0 PUSH1 0x20 SLOAD DUP2 JUMP JUMPDEST CALLVALUE DUP1 ISZERO PUSH2 0xA1E JUMPI PUSH0 DUP1 REVERT JUMPDEST POP PUSH2 0x405 PUSH2 0xA2D CALLDATASIZE PUSH1 0x4 PUSH2 0x396C JUMP JUMPDEST PUSH0 SWAP1 DUP2 MSTORE PUSH1 0x5 PUSH1 0x20 MSTORE PUSH1 0x40 SWAP1 KECCAK256 SLOAD PUSH1 0xFF AND SWAP1 JUMP JUMPDEST CALLVALUE DUP1 ISZERO PUSH2 0xA4C JUMPI PUSH0 DUP1 REVERT JUMPDEST POP PUSH2 0x4A0 PUSH2 0xA5B CALLDATASIZE PUSH1 0x4 PUSH2 0x3A50 JUMP JUMPDEST PUSH1 0xD PUSH1 0x20 MSTORE PUSH0 SWAP1 DUP2 MSTORE PUSH1 0x40 SWAP1 KECCAK256 SLOAD DUP2 JUMP JUMPDEST CALLVALUE DUP1 ISZERO PUSH2 0xA77 JUMPI PUSH0 DUP1 REVERT JUMPDEST POP PUSH1 0x2F SLOAD PUSH2 0x405 SWAP1 PUSH1 0x1 PUSH1 0xB8 SHL SWAP1 DIV PUSH1 0xFF AND DUP2 JUMP JUMPDEST CALLVALUE DUP1 ISZERO PUSH2 0xA97 JUMPI PUSH0 DUP1 REVERT JUMPDEST POP PUSH2 0x42E PUSH2 0x1D50 JUMP JUMPDEST CALLVALUE DUP1 ISZERO PUSH2 0xAAB JUMPI PUSH0 DUP1 REVERT JUMPDEST POP PUSH1 0x14 SLOAD PUSH2 0x589 SWAP1 PUSH1 0x1 PUSH1 0x1 PUSH1 0xA0 SHL SUB AND DUP2 JUMP JUMPDEST CALLVALUE DUP1 ISZERO PUSH2 0xACA JUMPI PUSH0 DUP1 REVERT JUMPDEST POP PUSH2 0x4A0 PUSH2 0xAD9 CALLDATASIZE PUSH1 0x4 PUSH2 0x3A50 JUMP JUMPDEST PUSH1 0xC PUSH1 0x20 MSTORE PUSH0 SWAP1 DUP2 MSTORE PUSH1 0x40 SWAP1 KECCAK256 SLOAD DUP2 JUMP JUMPDEST CALLVALUE DUP1 ISZERO PUSH2 0xAF5 JUMPI PUSH0 DUP1 REVERT JUMPDEST POP PUSH2 0x4A0 PUSH2 0xB04 CALLDATASIZE PUSH1 0x4 PUSH2 0x3D3A JUMP JUMPDEST PUSH1 0x1 PUSH1 0x1 PUSH1 0xA0 SHL SUB SWAP2 DUP3 AND PUSH0 SWAP1 DUP2 MSTORE PUSH1 0x2 PUSH1 0x20 SWAP1 DUP2 MSTORE PUSH1 0x40 DUP1 DUP4 KECCAK256 SWAP4 SWAP1 SWAP5 AND DUP3 MSTORE SWAP2 SWAP1 SWAP2 MSTORE KECCAK256 SLOAD SWAP1 JUMP JUMPDEST CALLVALUE DUP1 ISZERO PUSH2 0xB39 JUMPI PUSH0 DUP1 REVERT JUMPDEST POP PUSH2 0x42E PUSH2 0x1DE8 JUMP JUMPDEST CALLVALUE DUP1 ISZERO PUSH2 0xB4D JUMPI PUSH0 DUP1 REVERT JUMPDEST POP PUSH2 0x4A0 PUSH2 0xB5C CALLDATASIZE PUSH1 0x4 PUSH2 0x396C JUMP JUMPDEST PUSH1 0xF PUSH1 0x20 MSTORE PUSH0 SWAP1 DUP2 MSTORE PUSH1 0x40 SWAP1 KECCAK256 SLOAD DUP2 JUMP JUMPDEST CALLVALUE DUP1 ISZERO PUSH2 0xB78 JUMPI PUSH0 DUP1 REVERT JUMPDEST POP PUSH2 0x4A0 PUSH1 0x28 SLOAD DUP2 JUMP JUMPDEST CALLVALUE DUP1 ISZERO PUSH2 0xB8D JUMPI PUSH0 DUP1 REVERT JUMPDEST POP PUSH2 0x4A0 PUSH2 0xB9C CALLDATASIZE PUSH1 0x4 PUSH2 0x3A50 JUMP JUMPDEST PUSH1 0xE PUSH1 0x20 MSTORE PUSH0 SWAP1 DUP2 MSTORE PUSH1 0x40 SWAP1 KECCAK256 SLOAD DUP2 JUMP JUMPDEST CALLVALUE DUP1 ISZERO PUSH2 0xBB8 JUMPI PUSH0 DUP1 REVERT JUMPDEST POP PUSH2 0x4A0 PUSH1 0x2B SLOAD DUP2 JUMP JUMPDEST CALLVALUE DUP1 ISZERO PUSH2 0xBCD JUMPI PUSH0 DUP1 REVERT JUMPDEST POP PUSH2 0x405 PUSH2 0xBDC CALLDATASIZE PUSH1 0x4 PUSH2 0x396C JUMP JUMPDEST PUSH1 0x4 PUSH1 0x20 MSTORE PUSH0 SWAP1 DUP2 MSTORE PUSH1 0x40 SWAP1 KECCAK256 SLOAD PUSH1 0xFF AND DUP2 JUMP JUMPDEST CALLVALUE DUP1 ISZERO PUSH2 0xBFB JUMPI PUSH0 DUP1 REVERT JUMPDEST POP PUSH2 0x42E PUSH2 0x20D2 JUMP JUMPDEST CALLVALUE DUP1 ISZERO PUSH2 0xC0F JUMPI PUSH0 DUP1 REVERT JUMPDEST POP PUSH2 0x42E PUSH2 0x210E JUMP JUMPDEST CALLVALUE DUP1 ISZERO PUSH2 0xC23 JUMPI PUSH0 DUP1 REVERT JUMPDEST POP PUSH2 0x4A0 PUSH1 0x27 SLOAD DUP2 JUMP JUMPDEST PUSH1 0x10 SLOAD PUSH1 0x1 PUSH1 0x1 PUSH1 0xA0 SHL SUB AND CALLER EQ PUSH2 0xC43 JUMPI PUSH0 DUP1 REVERT JUMPDEST PUSH1 0x19 DUP1 SLOAD SWAP1 PUSH0 PUSH2 0xC53 DUP4 DUP1 PUSH2 0x3D85 JUMP JUMPDEST SWAP1 SWAP2 SSTORE POP POP PUSH1 0x1A DUP1 SLOAD SWAP1 PUSH0 PUSH2 0xC68 DUP4 DUP1 PUSH2 0x3D85 JUMP JUMPDEST SWAP1 SWAP2 SSTORE POP POP JUMP JUMPDEST PUSH1 0x10 SLOAD PUSH1 0x1 PUSH1 0x1 PUSH1 0xA0 SHL SUB AND CALLER EQ PUSH2 0xC85 JUMPI PUSH0 DUP1 REVERT JUMPDEST ADDRESS PUSH0 SWAP1 DUP2 MSTORE PUSH1 0x1 PUSH1 0x20 MSTORE PUSH1 0x40 SWAP1 KECCAK256 SLOAD DUP2 GT ISZERO PUSH2 0xCE8 JUMPI PUSH1 0x40 MLOAD PUSH3 0x461BCD PUSH1 0xE5 SHL DUP2 MSTORE PUSH1 0x20 PUSH1 0x4 DUP3 ADD MSTORE PUSH1 0x1D PUSH1 0x24 DUP3 ADD MSTORE PUSH32 0x4E6F7420656E6F75676820746F6B656E7320696E20636F6E7472616374000000 PUSH1 0x44 DUP3 ADD MSTORE PUSH1 0x64 ADD JUMPDEST PUSH1 0x40 MLOAD DUP1 SWAP2 SUB SWAP1 REVERT JUMPDEST PUSH2 0xCF3 ADDRESS DUP4 DUP4 PUSH2 0x215A JUMP JUMPDEST POP POP JUMP JUMPDEST PUSH0 PUSH2 0xD03 CALLER DUP5 DUP5 PUSH2 0x279F JUMP JUMPDEST POP PUSH1 0x1 JUMPDEST SWAP3 SWAP2 POP POP JUMP JUMPDEST PUSH1 0x14 SLOAD PUSH1 0x1 PUSH1 0x1 PUSH1 0xA0 SHL SUB AND CALLER EQ PUSH2 0xD7B JUMPI PUSH1 0x40 MLOAD PUSH3 0x461BCD PUSH1 0xE5 SHL DUP2 MSTORE PUSH1 0x20 PUSH1 0x4 DUP3 ADD MSTORE PUSH1 0x2B PUSH1 0x24 DUP3 ADD MSTORE PUSH32 0x4F6E6C792074686520626174746C6520636F6E74726163742063616E2072656D PUSH1 0x44 DUP3 ADD MSTORE PUSH11 0x6F766520706F74696F6E73 PUSH1 0xA8 SHL PUSH1 0x64 DUP3 ADD MSTORE PUSH1 0x84 ADD PUSH2 0xCDF JUMP JUMPDEST PUSH0 DUP3 DUP2 MSTORE PUSH1 0x4 PUSH1 0x20 DUP2 DUP2 MSTORE PUSH1 0x40 DUP1 DUP5 KECCAK256 DUP1 SLOAD PUSH1 0xFF NOT SWAP1 DUP2 AND SWAP1 SWAP2 SSTORE PUSH1 0x5 DUP1 DUP5 MSTORE DUP3 DUP7 KECCAK256 DUP1 SLOAD DUP4 AND SWAP1 SSTORE PUSH1 0x6 DUP1 DUP6 MSTORE DUP4 DUP8 KECCAK256 DUP1 SLOAD DUP5 AND SWAP1 SSTORE PUSH1 0x7 DUP1 DUP7 MSTORE DUP5 DUP9 KECCAK256 DUP1 SLOAD DUP6 AND SWAP1 SSTORE DUP9 DUP9 MSTORE SWAP6 DUP6 MSTORE DUP4 DUP8 KECCAK256 DUP1 SLOAD DUP5 AND SWAP1 SSTORE SWAP1 DUP5 MSTORE DUP3 DUP7 KECCAK256 DUP1 SLOAD DUP4 AND SWAP1 SSTORE DUP4 MSTORE DUP2 DUP6 KECCAK256 DUP1 SLOAD DUP3 AND SWAP1 SSTORE SWAP3 DUP3 MSTORE SWAP3 DUP4 SWAP1 KECCAK256 DUP1 SLOAD SWAP1 SWAP3 AND SWAP1 SWAP2 SSTORE DUP2 MLOAD DUP5 DUP2 MSTORE SWAP1 DUP2 ADD DUP4 SWAP1 MSTORE PUSH32 0x16552DC0EEAA5453189CA1B57F62BF76590B234053B60BD7120B6A49977D637F SWAP2 ADD JUMPDEST PUSH1 0x40 MLOAD DUP1 SWAP2 SUB SWAP1 LOG1 POP POP JUMP JUMPDEST PUSH1 0x10 SLOAD PUSH1 0x1 PUSH1 0x1 PUSH1 0xA0 SHL SUB AND CALLER EQ PUSH2 0xE46 JUMPI PUSH0 DUP1 REVERT JUMPDEST PUSH1 0x29 DUP3 SWAP1 SSTORE PUSH2 0xE57 PUSH1 0x3 PUSH1 0x9 PUSH2 0x3D98 JUMP JUMPDEST PUSH2 0xE62 SWAP1 PUSH1 0xA PUSH2 0x3E91 JUMP JUMPDEST PUSH2 0xE6C SWAP1 DUP3 PUSH2 0x3E9F JUMP JUMPDEST PUSH1 0x2D SSTORE POP POP JUMP JUMPDEST PUSH1 0x10 SLOAD PUSH1 0x1 PUSH1 0x1 PUSH1 0xA0 SHL SUB AND CALLER EQ PUSH2 0xE89 JUMPI PUSH0 DUP1 REVERT JUMPDEST PUSH1 0x14 DUP1 SLOAD PUSH1 0x1 PUSH1 0x1 PUSH1 0xA0 SHL SUB NOT AND PUSH1 0x1 PUSH1 0x1 PUSH1 0xA0 SHL SUB SWAP3 SWAP1 SWAP3 AND SWAP2 SWAP1 SWAP2 OR SWAP1 SSTORE JUMP JUMPDEST PUSH0 PUSH2 0xEB7 DUP5 DUP5 DUP5 PUSH2 0x215A JUMP JUMPDEST PUSH2 0xF08 DUP5 CALLER PUSH2 0xF03 DUP6 PUSH1 0x40 MLOAD DUP1 PUSH1 0x60 ADD PUSH1 0x40 MSTORE DUP1 PUSH1 0x28 DUP2 MSTORE PUSH1 0x20 ADD PUSH2 0x40F8 PUSH1 0x28 SWAP2 CODECOPY PUSH1 0x1 PUSH1 0x1 PUSH1 0xA0 SHL SUB DUP11 AND PUSH0 SWAP1 DUP2 MSTORE PUSH1 0x2 PUSH1 0x20 SWAP1 DUP2 MSTORE PUSH1 0x40 DUP1 DUP4 KECCAK256 CALLER DUP5 MSTORE SWAP1 SWAP2 MSTORE SWAP1 KECCAK256 SLOAD SWAP2 SWAP1 PUSH2 0x28C3 JUMP JUMPDEST PUSH2 0x279F JUMP JUMPDEST POP PUSH1 0x1 SWAP4 SWAP3 POP POP POP JUMP JUMPDEST PUSH0 DUP3 GT DUP1 PUSH2 0xF1F JUMPI POP PUSH0 DUP2 GT JUMPDEST PUSH2 0xF6B JUMPI PUSH1 0x40 MLOAD PUSH3 0x461BCD PUSH1 0xE5 SHL DUP2 MSTORE PUSH1 0x20 PUSH1 0x4 DUP3 ADD MSTORE PUSH1 0x1F PUSH1 0x24 DUP3 ADD MSTORE PUSH32 0x416D6F756E742073686F756C642062652067726561746572207468616E203000 PUSH1 0x44 DUP3 ADD MSTORE PUSH1 0x64 ADD PUSH2 0xCDF JUMP JUMPDEST PUSH2 0xF77 PUSH1 0x9 PUSH1 0xA PUSH2 0x3E91 JUMP JUMPDEST PUSH2 0xF81 SWAP1 DUP3 PUSH2 0x3E9F JUMP JUMPDEST CALLVALUE LT ISZERO PUSH2 0xFD0 JUMPI PUSH1 0x40 MLOAD PUSH3 0x461BCD PUSH1 0xE5 SHL DUP2 MSTORE PUSH1 0x20 PUSH1 0x4 DUP3 ADD MSTORE PUSH1 0x19 PUSH1 0x24 DUP3 ADD MSTORE PUSH32 0x496E636F72726563742045544820616D6F756E742073656E7400000000000000 PUSH1 0x44 DUP3 ADD MSTORE PUSH1 0x64 ADD PUSH2 0xCDF JUMP JUMPDEST DUP2 ISZERO PUSH2 0x105B JUMPI CALLER PUSH0 SWAP1 DUP2 MSTORE PUSH1 0x1 PUSH1 0x20 MSTORE PUSH1 0x40 SWAP1 KECCAK256 SLOAD DUP3 GT ISZERO PUSH2 0x102D JUMPI PUSH1 0x40 MLOAD PUSH3 0x461BCD PUSH1 0xE5 SHL DUP2 MSTORE PUSH1 0x20 PUSH1 0x4 DUP3 ADD MSTORE PUSH1 0x16 PUSH1 0x24 DUP3 ADD MSTORE PUSH22 0x4E6F7420656E6F7567682048474D5320746F6B656E73 PUSH1 0x50 SHL PUSH1 0x44 DUP3 ADD MSTORE PUSH1 0x64 ADD PUSH2 0xCDF JUMP JUMPDEST PUSH2 0x1037 CALLER DUP4 PUSH2 0x28FB JUMP JUMPDEST CALLER PUSH0 SWAP1 DUP2 MSTORE PUSH1 0x9 PUSH1 0x20 MSTORE PUSH1 0x40 DUP2 KECCAK256 DUP1 SLOAD DUP5 SWAP3 SWAP1 PUSH2 0x1055 SWAP1 DUP5 SWAP1 PUSH2 0x3EB6 JUMP JUMPDEST SWAP1 SWAP2 SSTORE POP POP JUMPDEST DUP1 ISZERO PUSH2 0x108E JUMPI CALLER PUSH0 SWAP1 DUP2 MSTORE PUSH1 0xA PUSH1 0x20 MSTORE PUSH1 0x40 DUP2 KECCAK256 DUP1 SLOAD DUP4 SWAP3 SWAP1 PUSH2 0x107F SWAP1 DUP5 SWAP1 PUSH2 0x3EB6 JUMP JUMPDEST SWAP1 SWAP2 SSTORE POP PUSH2 0x108E SWAP1 POP CALLVALUE PUSH2 0x2A76 JUMP JUMPDEST PUSH1 0x40 MLOAD PUSH32 0xED21248CB703B524CC0029BB8669DF941BACA560163A3BC6AD184E7E9C268070 SWAP1 PUSH0 SWAP1 LOG1 POP POP JUMP JUMPDEST PUSH1 0x10 SLOAD PUSH1 0x1 PUSH1 0x1 PUSH1 0xA0 SHL SUB AND CALLER EQ PUSH2 0x10D0 JUMPI PUSH0 DUP1 REVERT JUMPDEST PUSH1 0x27 DUP3 SWAP1 SSTORE PUSH2 0x10E1 PUSH1 0x3 PUSH1 0x9 PUSH2 0x3D98 JUMP JUMPDEST PUSH2 0x10EC SWAP1 PUSH1 0xA PUSH2 0x3E91 JUMP JUMPDEST PUSH2 0x10F6 SWAP1 DUP3 PUSH2 0x3E9F JUMP JUMPDEST PUSH1 0x2B SSTORE POP POP JUMP JUMPDEST PUSH1 0x10 SLOAD PUSH1 0x1 PUSH1 0x1 PUSH1 0xA0 SHL SUB AND CALLER EQ PUSH2 0x116D JUMPI PUSH1 0x40 MLOAD PUSH3 0x461BCD PUSH1 0xE5 SHL DUP2 MSTORE PUSH1 0x20 PUSH1 0x4 DUP3 ADD MSTORE PUSH1 0x2D PUSH1 0x24 DUP3 ADD MSTORE PUSH32 0x4F6E6C79206D61696E74656E616E636557616C6C65742063616E2063616C6C20 PUSH1 0x44 DUP3 ADD MSTORE PUSH13 0x3A3434B990333AB731BA34B7B7 PUSH1 0x99 SHL PUSH1 0x64 DUP3 ADD MSTORE PUSH1 0x84 ADD PUSH2 0xCDF JUMP JUMPDEST DUP3 MLOAD DUP5 MLOAD EQ PUSH2 0x11D7 JUMPI PUSH1 0x40 MLOAD PUSH3 0x461BCD PUSH1 0xE5 SHL DUP2 MSTORE PUSH1 0x20 PUSH1 0x4 DUP3 ADD MSTORE PUSH1 0x30 PUSH1 0x24 DUP3 ADD MSTORE PUSH32 0x4D69736D61746368656420706F74696F6E4E616D657320616E6420616D6F756E PUSH1 0x44 DUP3 ADD MSTORE PUSH16 0xE8E640C2E4E4C2F2E640D8CADCCEE8D PUSH1 0x83 SHL PUSH1 0x64 DUP3 ADD MSTORE PUSH1 0x84 ADD PUSH2 0xCDF JUMP JUMPDEST DUP4 MLOAD PUSH0 PUSH1 0x22 DUP2 SWAP1 SSTORE PUSH1 0x23 DUP2 SWAP1 SSTORE PUSH1 0x24 DUP2 SWAP1 SSTORE PUSH1 0x25 SSTORE PUSH2 0x11F6 DUP3 DUP3 PUSH2 0x3D85 JUMP JUMPDEST SWAP1 POP PUSH0 JUMPDEST DUP2 DUP2 LT ISZERO PUSH2 0x1250 JUMPI PUSH2 0x123E DUP7 DUP3 DUP2 MLOAD DUP2 LT PUSH2 0x1217 JUMPI PUSH2 0x1217 PUSH2 0x3EC9 JUMP JUMPDEST PUSH1 0x20 MUL PUSH1 0x20 ADD ADD MLOAD DUP7 DUP4 DUP2 MLOAD DUP2 LT PUSH2 0x1231 JUMPI PUSH2 0x1231 PUSH2 0x3EC9 JUMP JUMPDEST PUSH1 0x20 MUL PUSH1 0x20 ADD ADD MLOAD PUSH2 0x2BC9 JUMP JUMPDEST DUP1 PUSH2 0x1248 DUP2 PUSH2 0x3EDD JUMP JUMPDEST SWAP2 POP POP PUSH2 0x11FA JUMP JUMPDEST POP DUP1 JUMPDEST DUP6 MLOAD DUP2 LT ISZERO PUSH2 0x12AB JUMPI PUSH2 0x1299 DUP7 DUP3 DUP2 MLOAD DUP2 LT PUSH2 0x1271 JUMPI PUSH2 0x1271 PUSH2 0x3EC9 JUMP JUMPDEST PUSH1 0x20 MUL PUSH1 0x20 ADD ADD MLOAD DUP7 DUP4 DUP2 MLOAD DUP2 LT PUSH2 0x128B JUMPI PUSH2 0x128B PUSH2 0x3EC9 JUMP JUMPDEST PUSH1 0x20 MUL PUSH1 0x20 ADD ADD MLOAD DUP7 PUSH2 0x2D73 JUMP JUMPDEST DUP1 PUSH2 0x12A3 DUP2 PUSH2 0x3EDD JUMP JUMPDEST SWAP2 POP POP PUSH2 0x1253 JUMP JUMPDEST POP PUSH1 0x22 SLOAD ISZERO PUSH2 0x12DD JUMPI PUSH2 0x12DD PUSH1 0x40 MLOAD DUP1 PUSH1 0x40 ADD PUSH1 0x40 MSTORE DUP1 PUSH1 0x4 DUP2 MSTORE PUSH1 0x20 ADD PUSH4 0x58545241 PUSH1 0xE0 SHL DUP2 MSTORE POP PUSH1 0x22 SLOAD DUP6 PUSH2 0x2FF1 JUMP JUMPDEST PUSH1 0x23 SLOAD ISZERO PUSH2 0x130F JUMPI PUSH2 0x130F PUSH1 0x40 MLOAD DUP1 PUSH1 0x40 ADD PUSH1 0x40 MSTORE DUP1 PUSH1 0x5 DUP2 MSTORE PUSH1 0x20 ADD PUSH5 0x1093D3D4D5 PUSH1 0xDA SHL DUP2 MSTORE POP PUSH1 0x23 SLOAD DUP6 PUSH2 0x2FF1 JUMP JUMPDEST PUSH1 0x24 SLOAD ISZERO PUSH2 0x133D JUMPI PUSH2 0x133D PUSH1 0x40 MLOAD DUP1 PUSH1 0x40 ADD PUSH1 0x40 MSTORE DUP1 PUSH1 0x1 DUP2 MSTORE PUSH1 0x20 ADD PUSH1 0x2B PUSH1 0xF9 SHL DUP2 MSTORE POP PUSH1 0x24 SLOAD DUP6 PUSH2 0x2FF1 JUMP JUMPDEST PUSH1 0x25 SLOAD ISZERO PUSH2 0x136E JUMPI PUSH2 0x136E PUSH1 0x40 MLOAD DUP1 PUSH1 0x40 ADD PUSH1 0x40 MSTORE DUP1 PUSH1 0x4 DUP2 MSTORE PUSH1 0x20 ADD PUSH4 0x534B495 PUSH1 0xE4 SHL DUP2 MSTORE POP PUSH1 0x25 SLOAD DUP6 PUSH2 0x2FF1 JUMP JUMPDEST POP POP POP POP POP JUMP JUMPDEST PUSH0 SLOAD PUSH1 0x1 PUSH1 0x1 PUSH1 0xA0 SHL SUB AND CALLER EQ PUSH2 0x139E JUMPI PUSH1 0x40 MLOAD PUSH3 0x461BCD PUSH1 0xE5 SHL DUP2 MSTORE PUSH1 0x4 ADD PUSH2 0xCDF SWAP1 PUSH2 0x3EF5 JUMP JUMPDEST PUSH0 DUP1 SLOAD PUSH1 0x40 MLOAD PUSH1 0x1 PUSH1 0x1 PUSH1 0xA0 SHL SUB SWAP1 SWAP2 AND SWAP1 PUSH32 0x8BE0079C531659141344CD1FD0A4F28419497F9722A3DAAFE3B4186F6B6457E0 SWAP1 DUP4 SWAP1 LOG3 PUSH0 DUP1 SLOAD PUSH1 0x1 PUSH1 0x1 PUSH1 0xA0 SHL SUB NOT AND SWAP1 SSTORE JUMP JUMPDEST PUSH0 SLOAD PUSH1 0x1 PUSH1 0x1 PUSH1 0xA0 SHL SUB AND CALLER EQ PUSH2 0x140F JUMPI PUSH1 0x40 MLOAD PUSH3 0x461BCD PUSH1 0xE5 SHL DUP2 MSTORE PUSH1 0x4 ADD PUSH2 0xCDF SWAP1 PUSH2 0x3EF5 JUMP JUMPDEST PUSH2 0x1417 PUSH2 0x35DF JUMP JUMPDEST JUMP JUMPDEST PUSH1 0x10 SLOAD PUSH1 0x1 PUSH1 0x1 PUSH1 0xA0 SHL SUB AND CALLER EQ PUSH2 0x142F JUMPI PUSH0 DUP1 REVERT JUMPDEST PUSH1 0x40 MLOAD PUSH4 0x58545241 PUSH1 0xE0 SHL PUSH1 0x20 DUP3 ADD MSTORE PUSH1 0x24 ADD PUSH1 0x40 MLOAD PUSH1 0x20 DUP2 DUP4 SUB SUB DUP2 MSTORE SWAP1 PUSH1 0x40 MSTORE DUP1 MLOAD SWAP1 PUSH1 0x20 ADD KECCAK256 DUP2 PUSH1 0x40 MLOAD PUSH1 0x20 ADD PUSH2 0x1469 SWAP2 SWAP1 PUSH2 0x3F2A JUMP JUMPDEST PUSH1 0x40 MLOAD PUSH1 0x20 DUP2 DUP4 SUB SUB DUP2 MSTORE SWAP1 PUSH1 0x40 MSTORE DUP1 MLOAD SWAP1 PUSH1 0x20 ADD KECCAK256 SUB PUSH2 0x1610 JUMPI DUP2 MLOAD PUSH1 0x1 PUSH1 0x1 PUSH1 0xA0 SHL SUB DUP5 AND PUSH0 SWAP1 DUP2 MSTORE PUSH1 0xB PUSH1 0x20 MSTORE PUSH1 0x40 SWAP1 KECCAK256 SLOAD LT ISZERO PUSH2 0x14BC JUMPI PUSH1 0x40 MLOAD PUSH3 0x461BCD PUSH1 0xE5 SHL DUP2 MSTORE PUSH1 0x4 ADD PUSH2 0xCDF SWAP1 PUSH2 0x3F45 JUMP JUMPDEST PUSH0 JUMPDEST DUP3 MLOAD DUP2 LT ISZERO PUSH2 0x160A JUMPI PUSH1 0x4 PUSH0 DUP5 DUP4 DUP2 MLOAD DUP2 LT PUSH2 0x14DC JUMPI PUSH2 0x14DC PUSH2 0x3EC9 JUMP JUMPDEST PUSH1 0x20 SWAP1 DUP2 MUL SWAP2 SWAP1 SWAP2 ADD DUP2 ADD MLOAD DUP3 MSTORE DUP2 ADD SWAP2 SWAP1 SWAP2 MSTORE PUSH1 0x40 ADD PUSH0 KECCAK256 SLOAD PUSH1 0xFF AND ISZERO PUSH2 0x153C JUMPI PUSH1 0x40 MLOAD PUSH3 0x461BCD PUSH1 0xE5 SHL DUP2 MSTORE PUSH1 0x20 PUSH1 0x4 DUP3 ADD MSTORE PUSH1 0x13 PUSH1 0x24 DUP3 ADD MSTORE PUSH19 0x416C7265616479206163746976652058545241 PUSH1 0x68 SHL PUSH1 0x44 DUP3 ADD MSTORE PUSH1 0x64 ADD PUSH2 0xCDF JUMP JUMPDEST PUSH1 0x1 PUSH1 0x4 PUSH0 DUP6 DUP5 DUP2 MLOAD DUP2 LT PUSH2 0x1553 JUMPI PUSH2 0x1553 PUSH2 0x3EC9 JUMP JUMPDEST PUSH1 0x20 MUL PUSH1 0x20 ADD ADD MLOAD DUP2 MSTORE PUSH1 0x20 ADD SWAP1 DUP2 MSTORE PUSH1 0x20 ADD PUSH0 KECCAK256 PUSH0 PUSH2 0x100 EXP DUP2 SLOAD DUP2 PUSH1 0xFF MUL NOT AND SWAP1 DUP4 ISZERO ISZERO MUL OR SWAP1 SSTORE POP PUSH1 0x1 PUSH1 0xB PUSH0 DUP7 PUSH1 0x1 PUSH1 0x1 PUSH1 0xA0 SHL SUB AND PUSH1 0x1 PUSH1 0x1 PUSH1 0xA0 SHL SUB AND DUP2 MSTORE PUSH1 0x20 ADD SWAP1 DUP2 MSTORE PUSH1 0x20 ADD PUSH0 KECCAK256 PUSH0 DUP3 DUP3 SLOAD PUSH2 0x15B1 SWAP2 SWAP1 PUSH2 0x3D85 JUMP JUMPDEST SWAP3 POP POP DUP2 SWAP1 SSTORE POP PUSH1 0x1 PUSH1 0xF PUSH0 DUP6 DUP5 DUP2 MLOAD DUP2 LT PUSH2 0x15CF JUMPI PUSH2 0x15CF PUSH2 0x3EC9 JUMP JUMPDEST PUSH1 0x20 MUL PUSH1 0x20 ADD ADD MLOAD DUP2 MSTORE PUSH1 0x20 ADD SWAP1 DUP2 MSTORE PUSH1 0x20 ADD PUSH0 KECCAK256 PUSH0 DUP3 DUP3 SLOAD PUSH2 0x15F2 SWAP2 SWAP1 PUSH2 0x3EB6 JUMP JUMPDEST SWAP1 SWAP2 SSTORE POP DUP2 SWAP1 POP PUSH2 0x1602 DUP2 PUSH2 0x3EDD JUMP JUMPDEST SWAP2 POP POP PUSH2 0x14BE JUMP JUMPDEST POP POP POP POP JUMP JUMPDEST PUSH1 0x40 MLOAD PUSH5 0x1093D3D4D5 PUSH1 0xDA SHL PUSH1 0x20 DUP3 ADD MSTORE PUSH1 0x25 ADD PUSH1 0x40 MLOAD PUSH1 0x20 DUP2 DUP4 SUB SUB DUP2 MSTORE SWAP1 PUSH1 0x40 MSTORE DUP1 MLOAD SWAP1 PUSH1 0x20 ADD KECCAK256 DUP2 PUSH1 0x40 MLOAD PUSH1 0x20 ADD PUSH2 0x164B SWAP2 SWAP1 PUSH2 0x3F2A JUMP JUMPDEST PUSH1 0x40 MLOAD PUSH1 0x20 DUP2 DUP4 SUB SUB DUP2 MSTORE SWAP1 PUSH1 0x40 MSTORE DUP1 MLOAD SWAP1 PUSH1 0x20 ADD KECCAK256 SUB PUSH2 0x17ED JUMPI DUP2 MLOAD PUSH1 0x1 PUSH1 0x1 PUSH1 0xA0 SHL SUB DUP5 AND PUSH0 SWAP1 DUP2 MSTORE PUSH1 0xC PUSH1 0x20 MSTORE PUSH1 0x40 SWAP1 KECCAK256 SLOAD LT ISZERO PUSH2 0x169E JUMPI PUSH1 0x40 MLOAD PUSH3 0x461BCD PUSH1 0xE5 SHL DUP2 MSTORE PUSH1 0x4 ADD PUSH2 0xCDF SWAP1 PUSH2 0x3F45 JUMP JUMPDEST PUSH0 JUMPDEST DUP3 MLOAD DUP2 LT ISZERO PUSH2 0x160A JUMPI PUSH1 0x6 PUSH0 DUP5 DUP4 DUP2 MLOAD DUP2 LT PUSH2 0x16BE JUMPI PUSH2 0x16BE PUSH2 0x3EC9 JUMP JUMPDEST PUSH1 0x20 SWAP1 DUP2 MUL SWAP2 SWAP1 SWAP2 ADD DUP2 ADD MLOAD DUP3 MSTORE DUP2 ADD SWAP2 SWAP1 SWAP2 MSTORE PUSH1 0x40 ADD PUSH0 KECCAK256 SLOAD PUSH1 0xFF AND ISZERO PUSH2 0x171F JUMPI PUSH1 0x40 MLOAD PUSH3 0x461BCD PUSH1 0xE5 SHL DUP2 MSTORE PUSH1 0x20 PUSH1 0x4 DUP3 ADD MSTORE PUSH1 0x14 PUSH1 0x24 DUP3 ADD MSTORE PUSH20 0x105B1C9958591E481858DD1A5D99481093D3D4D5 PUSH1 0x62 SHL PUSH1 0x44 DUP3 ADD MSTORE PUSH1 0x64 ADD PUSH2 0xCDF JUMP JUMPDEST PUSH1 0x1 PUSH1 0x6 PUSH0 DUP6 DUP5 DUP2 MLOAD DUP2 LT PUSH2 0x1736 JUMPI PUSH2 0x1736 PUSH2 0x3EC9 JUMP JUMPDEST PUSH1 0x20 MUL PUSH1 0x20 ADD ADD MLOAD DUP2 MSTORE PUSH1 0x20 ADD SWAP1 DUP2 MSTORE PUSH1 0x20 ADD PUSH0 KECCAK256 PUSH0 PUSH2 0x100 EXP DUP2 SLOAD DUP2 PUSH1 0xFF MUL NOT AND SWAP1 DUP4 ISZERO ISZERO MUL OR SWAP1 SSTORE POP PUSH1 0x1 PUSH1 0xC PUSH0 DUP7 PUSH1 0x1 PUSH1 0x1 PUSH1 0xA0 SHL SUB AND PUSH1 0x1 PUSH1 0x1 PUSH1 0xA0 SHL SUB AND DUP2 MSTORE PUSH1 0x20 ADD SWAP1 DUP2 MSTORE PUSH1 0x20 ADD PUSH0 KECCAK256 PUSH0 DUP3 DUP3 SLOAD PUSH2 0x1794 SWAP2 SWAP1 PUSH2 0x3D85 JUMP JUMPDEST SWAP3 POP POP DUP2 SWAP1 SSTORE POP PUSH1 0x1 PUSH1 0xF PUSH0 DUP6 DUP5 DUP2 MLOAD DUP2 LT PUSH2 0x17B2 JUMPI PUSH2 0x17B2 PUSH2 0x3EC9 JUMP JUMPDEST PUSH1 0x20 MUL PUSH1 0x20 ADD ADD MLOAD DUP2 MSTORE PUSH1 0x20 ADD SWAP1 DUP2 MSTORE PUSH1 0x20 ADD PUSH0 KECCAK256 PUSH0 DUP3 DUP3 SLOAD PUSH2 0x17D5 SWAP2 SWAP1 PUSH2 0x3EB6 JUMP JUMPDEST SWAP1 SWAP2 SSTORE POP DUP2 SWAP1 POP PUSH2 0x17E5 DUP2 PUSH2 0x3EDD JUMP JUMPDEST SWAP2 POP POP PUSH2 0x16A0 JUMP JUMPDEST PUSH1 0x40 MLOAD PUSH1 0x2B PUSH1 0xF9 SHL PUSH1 0x20 DUP3 ADD MSTORE PUSH1 0x21 ADD PUSH1 0x40 MLOAD PUSH1 0x20 DUP2 DUP4 SUB SUB DUP2 MSTORE SWAP1 PUSH1 0x40 MSTORE DUP1 MLOAD SWAP1 PUSH1 0x20 ADD KECCAK256 DUP2 PUSH1 0x40 MLOAD PUSH1 0x20 ADD PUSH2 0x1824 SWAP2 SWAP1 PUSH2 0x3F2A JUMP JUMPDEST PUSH1 0x40 MLOAD PUSH1 0x20 DUP2 DUP4 SUB SUB DUP2 MSTORE SWAP1 PUSH1 0x40 MSTORE DUP1 MLOAD SWAP1 PUSH1 0x20 ADD KECCAK256 SUB PUSH2 0x19C2 JUMPI DUP2 MLOAD PUSH1 0x1 PUSH1 0x1 PUSH1 0xA0 SHL SUB DUP5 AND PUSH0 SWAP1 DUP2 MSTORE PUSH1 0xD PUSH1 0x20 MSTORE PUSH1 0x40 SWAP1 KECCAK256 SLOAD LT ISZERO PUSH2 0x1877 JUMPI PUSH1 0x40 MLOAD PUSH3 0x461BCD PUSH1 0xE5 SHL DUP2 MSTORE PUSH1 0x4 ADD PUSH2 0xCDF SWAP1 PUSH2 0x3F45 JUMP JUMPDEST PUSH0 JUMPDEST DUP3 MLOAD DUP2 LT ISZERO PUSH2 0x160A JUMPI PUSH1 0x5 PUSH0 DUP5 DUP4 DUP2 MLOAD DUP2 LT PUSH2 0x1897 JUMPI PUSH2 0x1897 PUSH2 0x3EC9 JUMP JUMPDEST PUSH1 0x20 SWAP1 DUP2 MUL SWAP2 SWAP1 SWAP2 ADD DUP2 ADD MLOAD DUP3 MSTORE DUP2 ADD SWAP2 SWAP1 SWAP2 MSTORE PUSH1 0x40 ADD PUSH0 KECCAK256 SLOAD PUSH1 0xFF AND ISZERO PUSH2 0x18F4 JUMPI PUSH1 0x40 MLOAD PUSH3 0x461BCD PUSH1 0xE5 SHL DUP2 MSTORE PUSH1 0x20 PUSH1 0x4 DUP3 ADD MSTORE PUSH1 0x10 PUSH1 0x24 DUP3 ADD MSTORE PUSH16 0x20B63932B0B23C9030B1BA34BB32902B PUSH1 0x81 SHL PUSH1 0x44 DUP3 ADD MSTORE PUSH1 0x64 ADD PUSH2 0xCDF JUMP JUMPDEST PUSH1 0x1 PUSH1 0x5 PUSH0 DUP6 DUP5 DUP2 MLOAD DUP2 LT PUSH2 0x190B JUMPI PUSH2 0x190B PUSH2 0x3EC9 JUMP JUMPDEST PUSH1 0x20 MUL PUSH1 0x20 ADD ADD MLOAD DUP2 MSTORE PUSH1 0x20 ADD SWAP1 DUP2 MSTORE PUSH1 0x20 ADD PUSH0 KECCAK256 PUSH0 PUSH2 0x100 EXP DUP2 SLOAD DUP2 PUSH1 0xFF MUL NOT AND SWAP1 DUP4 ISZERO ISZERO MUL OR SWAP1 SSTORE POP PUSH1 0x1 PUSH1 0xD PUSH0 DUP7 PUSH1 0x1 PUSH1 0x1 PUSH1 0xA0 SHL SUB AND PUSH1 0x1 PUSH1 0x1 PUSH1 0xA0 SHL SUB AND DUP2 MSTORE PUSH1 0x20 ADD SWAP1 DUP2 MSTORE PUSH1 0x20 ADD PUSH0 KECCAK256 PUSH0 DUP3 DUP3 SLOAD PUSH2 0x1969 SWAP2 SWAP1 PUSH2 0x3D85 JUMP JUMPDEST SWAP3 POP POP DUP2 SWAP1 SSTORE POP PUSH1 0x1 PUSH1 0xF PUSH0 DUP6 DUP5 DUP2 MLOAD DUP2 LT PUSH2 0x1987 JUMPI PUSH2 0x1987 PUSH2 0x3EC9 JUMP JUMPDEST PUSH1 0x20 MUL PUSH1 0x20 ADD ADD MLOAD DUP2 MSTORE PUSH1 0x20 ADD SWAP1 DUP2 MSTORE PUSH1 0x20 ADD PUSH0 KECCAK256 PUSH0 DUP3 DUP3 SLOAD PUSH2 0x19AA SWAP2 SWAP1 PUSH2 0x3EB6 JUMP JUMPDEST SWAP1 SWAP2 SSTORE POP DUP2 SWAP1 POP PUSH2 0x19BA DUP2 PUSH2 0x3EDD JUMP JUMPDEST SWAP2 POP POP PUSH2 0x1879 JUMP JUMPDEST PUSH1 0x40 MLOAD PUSH4 0x534B495 PUSH1 0xE4 SHL PUSH1 0x20 DUP3 ADD MSTORE PUSH1 0x24 ADD PUSH1 0x40 MLOAD PUSH1 0x20 DUP2 DUP4 SUB SUB DUP2 MSTORE SWAP1 PUSH1 0x40 MSTORE DUP1 MLOAD SWAP1 PUSH1 0x20 ADD KECCAK256 DUP2 PUSH1 0x40 MLOAD PUSH1 0x20 ADD PUSH2 0x19FC SWAP2 SWAP1 PUSH2 0x3F2A JUMP JUMPDEST PUSH1 0x40 MLOAD PUSH1 0x20 DUP2 DUP4 SUB SUB DUP2 MSTORE SWAP1 PUSH1 0x40 MSTORE DUP1 MLOAD SWAP1 PUSH1 0x20 ADD KECCAK256 SUB PUSH2 0x1B9D JUMPI DUP2 MLOAD PUSH1 0x1 PUSH1 0x1 PUSH1 0xA0 SHL SUB DUP5 AND PUSH0 SWAP1 DUP2 MSTORE PUSH1 0xE PUSH1 0x20 MSTORE PUSH1 0x40 SWAP1 KECCAK256 SLOAD LT ISZERO PUSH2 0x1A4F JUMPI PUSH1 0x40 MLOAD PUSH3 0x461BCD PUSH1 0xE5 SHL DUP2 MSTORE PUSH1 0x4 ADD PUSH2 0xCDF SWAP1 PUSH2 0x3F45 JUMP JUMPDEST PUSH0 JUMPDEST DUP3 MLOAD DUP2 LT ISZERO PUSH2 0x160A JUMPI PUSH1 0x7 PUSH0 DUP5 DUP4 DUP2 MLOAD DUP2 LT PUSH2 0x1A6F JUMPI PUSH2 0x1A6F PUSH2 0x3EC9 JUMP JUMPDEST PUSH1 0x20 SWAP1 DUP2 MUL SWAP2 SWAP1 SWAP2 ADD DUP2 ADD MLOAD DUP3 MSTORE DUP2 ADD SWAP2 SWAP1 SWAP2 MSTORE PUSH1 0x40 ADD PUSH0 KECCAK256 SLOAD PUSH1 0xFF AND ISZERO PUSH2 0x1ACF JUMPI PUSH1 0x40 MLOAD PUSH3 0x461BCD PUSH1 0xE5 SHL DUP2 MSTORE PUSH1 0x20 PUSH1 0x4 DUP3 ADD MSTORE PUSH1 0x13 PUSH1 0x24 DUP3 ADD MSTORE PUSH19 0x416C72656164792061637469766520534B495 PUSH1 0x6C SHL PUSH1 0x44 DUP3 ADD MSTORE PUSH1 0x64 ADD PUSH2 0xCDF JUMP JUMPDEST PUSH1 0x1 PUSH1 0x7 PUSH0 DUP6 DUP5 DUP2 MLOAD DUP2 LT PUSH2 0x1AE6 JUMPI PUSH2 0x1AE6 PUSH2 0x3EC9 JUMP JUMPDEST PUSH1 0x20 MUL PUSH1 0x20 ADD ADD MLOAD DUP2 MSTORE PUSH1 0x20 ADD SWAP1 DUP2 MSTORE PUSH1 0x20 ADD PUSH0 KECCAK256 PUSH0 PUSH2 0x100 EXP DUP2 SLOAD DUP2 PUSH1 0xFF MUL NOT AND SWAP1 DUP4 ISZERO ISZERO MUL OR SWAP1 SSTORE POP PUSH1 0x1 PUSH1 0xE PUSH0 DUP7 PUSH1 0x1 PUSH1 0x1 PUSH1 0xA0 SHL SUB AND PUSH1 0x1 PUSH1 0x1 PUSH1 0xA0 SHL SUB AND DUP2 MSTORE PUSH1 0x20 ADD SWAP1 DUP2 MSTORE PUSH1 0x20 ADD PUSH0 KECCAK256 PUSH0 DUP3 DUP3 SLOAD PUSH2 0x1B44 SWAP2 SWAP1 PUSH2 0x3D85 JUMP JUMPDEST SWAP3 POP POP DUP2 SWAP1 SSTORE POP PUSH1 0x1 PUSH1 0xF PUSH0 DUP6 DUP5 DUP2 MLOAD DUP2 LT PUSH2 0x1B62 JUMPI PUSH2 0x1B62 PUSH2 0x3EC9 JUMP JUMPDEST PUSH1 0x20 MUL PUSH1 0x20 ADD ADD MLOAD DUP2 MSTORE PUSH1 0x20 ADD SWAP1 DUP2 MSTORE PUSH1 0x20 ADD PUSH0 KECCAK256 PUSH0 DUP3 DUP3 SLOAD PUSH2 0x1B85 SWAP2 SWAP1 PUSH2 0x3EB6 JUMP JUMPDEST SWAP1 SWAP2 SSTORE POP DUP2 SWAP1 POP PUSH2 0x1B95 DUP2 PUSH2 0x3EDD JUMP JUMPDEST SWAP2 POP POP PUSH2 0x1A51 JUMP JUMPDEST PUSH1 0x40 MLOAD PUSH3 0x461BCD PUSH1 0xE5 SHL DUP2 MSTORE PUSH1 0x20 PUSH1 0x4 DUP3 ADD MSTORE PUSH1 0x11 PUSH1 0x24 DUP3 ADD MSTORE PUSH17 0x57726F6E6720506F74696F6E204E616D65 PUSH1 0x78 SHL PUSH1 0x44 DUP3 ADD MSTORE PUSH1 0x64 ADD PUSH2 0xCDF JUMP JUMPDEST POP POP POP JUMP JUMPDEST PUSH1 0x10 SLOAD PUSH1 0x1 PUSH1 0x1 PUSH1 0xA0 SHL SUB AND CALLER EQ PUSH2 0x1BF4 JUMPI PUSH0 DUP1 REVERT JUMPDEST PUSH1 0x26 DUP3 SWAP1 SSTORE PUSH2 0x1C05 PUSH1 0x3 PUSH1 0x9 PUSH2 0x3D98 JUMP JUMPDEST PUSH2 0x1C10 SWAP1 PUSH1 0xA PUSH2 0x3E91 JUMP JUMPDEST PUSH2 0x1C1A SWAP1 DUP3 PUSH2 0x3E9F JUMP JUMPDEST PUSH1 0x2A SSTORE POP POP JUMP JUMPDEST PUSH1 0x12 SLOAD PUSH1 0x1 PUSH1 0x1 PUSH1 0xA0 SHL SUB AND CALLER PUSH1 0x1 PUSH1 0x1 PUSH1 0xA0 SHL SUB AND EQ PUSH2 0x1C40 JUMPI PUSH0 DUP1 REVERT JUMPDEST ADDRESS PUSH0 SWAP1 DUP2 MSTORE PUSH1 0x1 PUSH1 0x20 MSTORE PUSH1 0x40 SWAP1 KECCAK256 SLOAD DUP1 ISZERO PUSH2 0x1C5E JUMPI PUSH2 0x1C5E DUP2 PUSH2 0x3657 JUMP JUMPDEST SELFBALANCE DUP1 ISZERO PUSH2 0xCF3 JUMPI PUSH2 0xCF3 DUP2 PUSH2 0x2A76 JUMP JUMPDEST PUSH0 PUSH2 0xD03 CALLER DUP5 DUP5 PUSH2 0x215A JUMP JUMPDEST PUSH1 0x10 SLOAD PUSH1 0x1 PUSH1 0x1 PUSH1 0xA0 SHL SUB AND CALLER EQ PUSH2 0x1C90 JUMPI PUSH0 DUP1 REVERT JUMPDEST PUSH1 0x28 DUP3 SWAP1 SSTORE PUSH2 0x1CA1 PUSH1 0x3 PUSH1 0x9 PUSH2 0x3D98 JUMP JUMPDEST PUSH2 0x1CAC SWAP1 PUSH1 0xA PUSH2 0x3E91 JUMP JUMPDEST PUSH2 0x1CB6 SWAP1 DUP3 PUSH2 0x3E9F JUMP JUMPDEST PUSH1 0x2C SSTORE POP POP JUMP JUMPDEST PUSH1 0x14 SLOAD PUSH1 0x1 PUSH1 0x1 PUSH1 0xA0 SHL SUB AND CALLER EQ PUSH2 0x1D08 JUMPI PUSH1 0x40 MLOAD PUSH3 0x461BCD PUSH1 0xE5 SHL DUP2 MSTORE PUSH1 0x20 PUSH1 0x4 DUP3 ADD MSTORE PUSH1 0xE PUSH1 0x24 DUP3 ADD MSTORE PUSH14 0x139BDD08185D5D1A1BDC9A5E9959 PUSH1 0x92 SHL PUSH1 0x44 DUP3 ADD MSTORE PUSH1 0x64 ADD PUSH2 0xCDF JUMP JUMPDEST PUSH1 0x1 PUSH1 0x1 PUSH1 0xA0 SHL SUB DUP3 AND PUSH2 0x8FC PUSH2 0x1D2B PUSH2 0x1D24 PUSH1 0x9 PUSH1 0xA PUSH2 0x3E91 JUMP JUMPDEST DUP5 SWAP1 PUSH2 0x37C7 JUMP JUMPDEST PUSH1 0x40 MLOAD DUP2 ISZERO SWAP1 SWAP3 MUL SWAP2 PUSH0 DUP2 DUP2 DUP2 DUP6 DUP9 DUP9 CALL SWAP4 POP POP POP POP ISZERO DUP1 ISZERO PUSH2 0x1BD9 JUMPI RETURNDATASIZE PUSH0 DUP1 RETURNDATACOPY RETURNDATASIZE PUSH0 REVERT JUMPDEST PUSH0 SLOAD PUSH1 0x1 PUSH1 0x1 PUSH1 0xA0 SHL SUB AND CALLER EQ PUSH2 0x1D79 JUMPI PUSH1 0x40 MLOAD PUSH3 0x461BCD PUSH1 0xE5 SHL DUP2 MSTORE PUSH1 0x4 ADD PUSH2 0xCDF SWAP1 PUSH2 0x3EF5 JUMP JUMPDEST PUSH1 0x2F SLOAD PUSH1 0x1 PUSH1 0xA0 SHL SWAP1 DIV PUSH1 0xFF AND ISZERO PUSH2 0x1DD3 JUMPI PUSH1 0x40 MLOAD PUSH3 0x461BCD PUSH1 0xE5 SHL DUP2 MSTORE PUSH1 0x20 PUSH1 0x4 DUP3 ADD MSTORE PUSH1 0x17 PUSH1 0x24 DUP3 ADD MSTORE PUSH32 0x74726164696E6720697320616C7265616479206F70656E000000000000000000 PUSH1 0x44 DUP3 ADD MSTORE PUSH1 0x64 ADD PUSH2 0xCDF JUMP JUMPDEST PUSH1 0x2F DUP1 SLOAD PUSH1 0xFF PUSH1 0xA0 SHL NOT AND PUSH1 0x1 PUSH1 0xA0 SHL OR SWAP1 SSTORE JUMP JUMPDEST PUSH0 SLOAD PUSH1 0x1 PUSH1 0x1 PUSH1 0xA0 SHL SUB AND CALLER EQ PUSH2 0x1E11 JUMPI PUSH1 0x40 MLOAD PUSH3 0x461BCD PUSH1 0xE5 SHL DUP2 MSTORE PUSH1 0x4 ADD PUSH2 0xCDF SWAP1 PUSH2 0x3EF5 JUMP JUMPDEST PUSH1 0x2F DUP1 SLOAD PUSH1 0xFF PUSH1 0xC0 SHL NOT AND PUSH1 0x1 PUSH1 0xC0 SHL OR SWAP1 SSTORE PUSH1 0x2E SLOAD PUSH1 0x1 PUSH1 0x1 PUSH1 0xA0 SHL SUB AND PUSH2 0x1E5B JUMPI PUSH1 0x2E DUP1 SLOAD PUSH1 0x1 PUSH1 0x1 PUSH1 0xA0 SHL SUB NOT AND PUSH20 0x7A250D5630B4CF539739DF2C5DACB4C659F2488D OR SWAP1 SSTORE JUMPDEST PUSH1 0x2F SLOAD PUSH1 0x1 PUSH1 0x1 PUSH1 0xA0 SHL SUB AND PUSH2 0x1FF1 JUMPI PUSH1 0x2E PUSH0 SWAP1 SLOAD SWAP1 PUSH2 0x100 EXP SWAP1 DIV PUSH1 0x1 PUSH1 0x1 PUSH1 0xA0 SHL SUB AND PUSH1 0x1 PUSH1 0x1 PUSH1 0xA0 SHL SUB AND PUSH4 0xC45A0155 PUSH1 0x40 MLOAD DUP2 PUSH4 0xFFFFFFFF AND PUSH1 0xE0 SHL DUP2 MSTORE PUSH1 0x4 ADD PUSH1 0x20 PUSH1 0x40 MLOAD DUP1 DUP4 SUB DUP2 DUP7 GAS STATICCALL ISZERO DUP1 ISZERO PUSH2 0x1EBB JUMPI RETURNDATASIZE PUSH0 DUP1 RETURNDATACOPY RETURNDATASIZE PUSH0 REVERT JUMPDEST POP POP POP POP PUSH1 0x40 MLOAD RETURNDATASIZE PUSH1 0x1F NOT PUSH1 0x1F DUP3 ADD AND DUP3 ADD DUP1 PUSH1 0x40 MSTORE POP DUP2 ADD SWAP1 PUSH2 0x1EDF SWAP2 SWAP1 PUSH2 0x3F89 JUMP JUMPDEST PUSH1 0x1 PUSH1 0x1 PUSH1 0xA0 SHL SUB AND PUSH4 0xC9C65396 ADDRESS PUSH1 0x2E PUSH0 SWAP1 SLOAD SWAP1 PUSH2 0x100 EXP SWAP1 DIV PUSH1 0x1 PUSH1 0x1 PUSH1 0xA0 SHL SUB AND PUSH1 0x1 PUSH1 0x1 PUSH1 0xA0 SHL SUB AND PUSH4 0xAD5C4648 PUSH1 0x40 MLOAD DUP2 PUSH4 0xFFFFFFFF AND PUSH1 0xE0 SHL DUP2 MSTORE PUSH1 0x4 ADD PUSH1 0x20 PUSH1 0x40 MLOAD DUP1 DUP4 SUB DUP2 DUP7 GAS STATICCALL ISZERO DUP1 ISZERO PUSH2 0x1F3E JUMPI RETURNDATASIZE PUSH0 DUP1 RETURNDATACOPY RETURNDATASIZE PUSH0 REVERT JUMPDEST POP POP POP POP PUSH1 0x40 MLOAD RETURNDATASIZE PUSH1 0x1F NOT PUSH1 0x1F DUP3 ADD AND DUP3 ADD DUP1 PUSH1 0x40 MSTORE POP DUP2 ADD SWAP1 PUSH2 0x1F62 SWAP2 SWAP1 PUSH2 0x3F89 JUMP JUMPDEST PUSH1 0x40 MLOAD PUSH1 0x1 PUSH1 0x1 PUSH1 0xE0 SHL SUB NOT PUSH1 0xE0 DUP6 SWAP1 SHL AND DUP2 MSTORE PUSH1 0x1 PUSH1 0x1 PUSH1 0xA0 SHL SUB SWAP3 DUP4 AND PUSH1 0x4 DUP3 ADD MSTORE SWAP2 AND PUSH1 0x24 DUP3 ADD MSTORE PUSH1 0x44 ADD PUSH1 0x20 PUSH1 0x40 MLOAD DUP1 DUP4 SUB DUP2 PUSH0 DUP8 GAS CALL ISZERO DUP1 ISZERO PUSH2 0x1FAC JUMPI RETURNDATASIZE PUSH0 DUP1 RETURNDATACOPY RETURNDATASIZE PUSH0 REVERT JUMPDEST POP POP POP POP PUSH1 0x40 MLOAD RETURNDATASIZE PUSH1 0x1F NOT PUSH1 0x1F DUP3 ADD AND DUP3 ADD DUP1 PUSH1 0x40 MSTORE POP DUP2 ADD SWAP1 PUSH2 0x1FD0 SWAP2 SWAP1 PUSH2 0x3F89 JUMP JUMPDEST PUSH1 0x2F DUP1 SLOAD PUSH1 0x1 PUSH1 0x1 PUSH1 0xA0 SHL SUB NOT AND PUSH1 0x1 PUSH1 0x1 PUSH1 0xA0 SHL SUB SWAP3 SWAP1 SWAP3 AND SWAP2 SWAP1 SWAP2 OR SWAP1 SSTORE JUMPDEST ADDRESS PUSH0 DUP2 DUP2 MSTORE PUSH1 0x1 PUSH1 0x20 MSTORE PUSH1 0x40 SWAP1 KECCAK256 SLOAD PUSH1 0x2E SLOAD SWAP1 SWAP2 PUSH2 0x2018 SWAP2 PUSH1 0x1 PUSH1 0x1 PUSH1 0xA0 SHL SUB AND DUP4 PUSH2 0x279F JUMP JUMPDEST PUSH1 0x2E SLOAD PUSH1 0x1D SLOAD PUSH0 DUP1 SLOAD PUSH1 0x40 DUP1 MLOAD PUSH4 0xF305D719 PUSH1 0xE0 SHL DUP2 MSTORE ADDRESS PUSH1 0x4 DUP3 ADD MSTORE PUSH1 0x24 DUP2 ADD DUP8 SWAP1 MSTORE PUSH1 0x44 DUP2 ADD SWAP5 SWAP1 SWAP5 MSTORE PUSH1 0x64 DUP5 ADD SWAP3 SWAP1 SWAP3 MSTORE PUSH1 0x1 PUSH1 0x1 PUSH1 0xA0 SHL SUB SWAP1 DUP2 AND PUSH1 0x84 DUP5 ADD MSTORE TIMESTAMP PUSH1 0xA4 DUP5 ADD MSTORE SWAP1 MLOAD SWAP3 AND SWAP2 PUSH4 0xF305D719 SWAP2 SELFBALANCE SWAP2 PUSH1 0xC4 DUP1 DUP4 ADD SWAP3 PUSH1 0x60 SWAP3 SWAP2 SWAP1 DUP3 SWAP1 SUB ADD DUP2 DUP6 DUP9 GAS CALL ISZERO DUP1 ISZERO PUSH2 0x2092 JUMPI RETURNDATASIZE PUSH0 DUP1 RETURNDATACOPY RETURNDATASIZE PUSH0 REVERT JUMPDEST POP POP POP POP POP PUSH1 0x40 MLOAD RETURNDATASIZE PUSH1 0x1F NOT PUSH1 0x1F DUP3 ADD AND DUP3 ADD DUP1 PUSH1 0x40 MSTORE POP DUP2 ADD SWAP1 PUSH2 0x20B7 SWAP2 SWAP1 PUSH2 0x3FA4 JUMP JUMPDEST POP POP PUSH1 0x2F DUP1 SLOAD PUSH3 0xFF00FF PUSH1 0xB0 SHL NOT AND PUSH1 0x1 PUSH1 0xB0 SHL OR SWAP1 SSTORE POP POP JUMP JUMPDEST PUSH0 SLOAD PUSH1 0x1 PUSH1 0x1 PUSH1 0xA0 SHL SUB AND CALLER EQ PUSH2 0x20FB JUMPI PUSH1 0x40 MLOAD PUSH3 0x461BCD PUSH1 0xE5 SHL DUP2 MSTORE PUSH1 0x4 ADD PUSH2 0xCDF SWAP1 PUSH2 0x3EF5 JUMP JUMPDEST SELFBALANCE DUP1 ISZERO PUSH2 0x210B JUMPI PUSH2 0x210B DUP2 PUSH2 0x2A76 JUMP JUMPDEST POP JUMP JUMPDEST PUSH1 0x10 SLOAD PUSH1 0x1 PUSH1 0x1 PUSH1 0xA0 SHL SUB AND CALLER EQ PUSH2 0x2124 JUMPI PUSH0 DUP1 REVERT JUMPDEST PUSH1 0x12 SLOAD PUSH1 0x40 MLOAD PUSH1 0x1 PUSH1 0x1 PUSH1 0xA0 SHL SUB SWAP1 SWAP2 AND SWAP1 SELFBALANCE DUP1 ISZERO PUSH2 0x8FC MUL SWAP2 PUSH0 DUP2 DUP2 DUP2 DUP6 DUP9 DUP9 CALL SWAP4 POP POP POP POP ISZERO DUP1 ISZERO PUSH2 0x210B JUMPI RETURNDATASIZE PUSH0 DUP1 RETURNDATACOPY RETURNDATASIZE PUSH0 REVERT JUMPDEST PUSH1 0x1 PUSH1 0x1 PUSH1 0xA0 SHL SUB DUP4 AND PUSH2 0x21BE JUMPI PUSH1 0x40 MLOAD PUSH3 0x461BCD PUSH1 0xE5 SHL DUP2 MSTORE PUSH1 0x20 PUSH1 0x4 DUP3 ADD MSTORE PUSH1 0x25 PUSH1 0x24 DUP3 ADD MSTORE PUSH32 0x45524332303A207472616E736665722066726F6D20746865207A65726F206164 PUSH1 0x44 DUP3 ADD MSTORE PUSH5 0x6472657373 PUSH1 0xD8 SHL PUSH1 0x64 DUP3 ADD MSTORE PUSH1 0x84 ADD PUSH2 0xCDF JUMP JUMPDEST PUSH1 0x1 PUSH1 0x1 PUSH1 0xA0 SHL SUB DUP3 AND PUSH2 0x2220 JUMPI PUSH1 0x40 MLOAD PUSH3 0x461BCD PUSH1 0xE5 SHL DUP2 MSTORE PUSH1 0x20 PUSH1 0x4 DUP3 ADD MSTORE PUSH1 0x23 PUSH1 0x24 DUP3 ADD MSTORE PUSH32 0x45524332303A207472616E7366657220746F20746865207A65726F2061646472 PUSH1 0x44 DUP3 ADD MSTORE PUSH3 0x657373 PUSH1 0xE8 SHL PUSH1 0x64 DUP3 ADD MSTORE PUSH1 0x84 ADD PUSH2 0xCDF JUMP JUMPDEST PUSH0 DUP2 GT PUSH2 0x2281 JUMPI PUSH1 0x40 MLOAD PUSH3 0x461BCD PUSH1 0xE5 SHL DUP2 MSTORE PUSH1 0x20 PUSH1 0x4 DUP3 ADD MSTORE PUSH1 0x29 PUSH1 0x24 DUP3 ADD MSTORE PUSH32 0x5472616E7366657220616D6F756E74206D757374206265206772656174657220 PUSH1 0x44 DUP3 ADD MSTORE PUSH9 0x7468616E207A65726F PUSH1 0xB8 SHL PUSH1 0x64 DUP3 ADD MSTORE PUSH1 0x84 ADD PUSH2 0xCDF JUMP JUMPDEST PUSH1 0x2F SLOAD PUSH0 SWAP1 PUSH1 0x1 PUSH1 0xC0 SHL SWAP1 DIV PUSH1 0xFF AND PUSH2 0x22E4 JUMPI PUSH1 0x2F SLOAD PUSH1 0x1 PUSH1 0xA0 SHL SWAP1 DIV PUSH1 0xFF AND PUSH2 0x22E4 JUMPI PUSH1 0x40 MLOAD PUSH3 0x461BCD PUSH1 0xE5 SHL DUP2 MSTORE PUSH1 0x20 PUSH1 0x4 DUP3 ADD MSTORE PUSH1 0x14 PUSH1 0x24 DUP3 ADD MSTORE PUSH20 0x151C98591A5B99C81B9BDD081BDC195B881E595D PUSH1 0x62 SHL PUSH1 0x44 DUP3 ADD MSTORE PUSH1 0x64 ADD PUSH2 0xCDF JUMP JUMPDEST PUSH0 SLOAD PUSH1 0x1 PUSH1 0x1 PUSH1 0xA0 SHL SUB DUP6 DUP2 AND SWAP2 AND EQ DUP1 ISZERO SWAP1 PUSH2 0x230E JUMPI POP PUSH0 SLOAD PUSH1 0x1 PUSH1 0x1 PUSH1 0xA0 SHL SUB DUP5 DUP2 AND SWAP2 AND EQ ISZERO JUMPDEST ISZERO PUSH2 0x2662 JUMPI PUSH2 0x233F PUSH1 0x64 PUSH2 0x2339 PUSH1 0x19 SLOAD PUSH1 0x1C SLOAD GT PUSH2 0x232E JUMPI PUSH1 0x15 SLOAD PUSH2 0x2332 JUMP JUMPDEST PUSH1 0x17 SLOAD JUMPDEST DUP6 SWAP1 PUSH2 0x380F JUMP JUMPDEST SWAP1 PUSH2 0x37C7 JUMP JUMPDEST PUSH1 0x2F SLOAD SWAP1 SWAP2 POP PUSH1 0x1 PUSH1 0xB8 SHL SWAP1 DIV PUSH1 0xFF AND ISZERO PUSH2 0x242C JUMPI PUSH1 0x2E SLOAD PUSH1 0x1 PUSH1 0x1 PUSH1 0xA0 SHL SUB DUP5 DUP2 AND SWAP2 AND EQ DUP1 ISZERO SWAP1 PUSH2 0x2380 JUMPI POP PUSH1 0x2F SLOAD PUSH1 0x1 PUSH1 0x1 PUSH1 0xA0 SHL SUB DUP5 DUP2 AND SWAP2 AND EQ ISZERO JUMPDEST ISZERO PUSH2 0x242C JUMPI ORIGIN PUSH0 SWAP1 DUP2 MSTORE PUSH1 0x8 PUSH1 0x20 MSTORE PUSH1 0x40 SWAP1 KECCAK256 SLOAD NUMBER GT PUSH2 0x241A JUMPI PUSH1 0x40 MLOAD PUSH3 0x461BCD PUSH1 0xE5 SHL DUP2 MSTORE PUSH1 0x20 PUSH1 0x4 DUP3 ADD MSTORE PUSH1 0x49 PUSH1 0x24 DUP3 ADD MSTORE PUSH32 0x5F7472616E736665723A3A205472616E736665722044656C617920656E61626C PUSH1 0x44 DUP3 ADD MSTORE PUSH32 0x65642E20204F6E6C79206F6E652070757263686173652070657220626C6F636B PUSH1 0x64 DUP3 ADD MSTORE PUSH9 0x1030B63637BBB2B217 PUSH1 0xB9 SHL PUSH1 0x84 DUP3 ADD MSTORE PUSH1 0xA4 ADD PUSH2 0xCDF JUMP JUMPDEST ORIGIN PUSH0 SWAP1 DUP2 MSTORE PUSH1 0x8 PUSH1 0x20 MSTORE PUSH1 0x40 SWAP1 KECCAK256 NUMBER SWAP1 SSTORE JUMPDEST PUSH1 0x2F SLOAD PUSH1 0x1 PUSH1 0x1 PUSH1 0xA0 SHL SUB DUP6 DUP2 AND SWAP2 AND EQ DUP1 ISZERO PUSH2 0x2457 JUMPI POP PUSH1 0x2E SLOAD PUSH1 0x1 PUSH1 0x1 PUSH1 0xA0 SHL SUB DUP5 DUP2 AND SWAP2 AND EQ ISZERO JUMPDEST DUP1 ISZERO PUSH2 0x247B JUMPI POP PUSH1 0x1 PUSH1 0x1 PUSH1 0xA0 SHL SUB DUP4 AND PUSH0 SWAP1 DUP2 MSTORE PUSH1 0x3 PUSH1 0x20 MSTORE PUSH1 0x40 SWAP1 KECCAK256 SLOAD PUSH1 0xFF AND ISZERO JUMPDEST ISZERO PUSH2 0x2561 JUMPI PUSH1 0x1E SLOAD DUP3 GT ISZERO PUSH2 0x24D2 JUMPI PUSH1 0x40 MLOAD PUSH3 0x461BCD PUSH1 0xE5 SHL DUP2 MSTORE PUSH1 0x20 PUSH1 0x4 DUP3 ADD MSTORE PUSH1 0x19 PUSH1 0x24 DUP3 ADD MSTORE PUSH32 0x4578636565647320746865205F6D61785478416D6F756E742E00000000000000 PUSH1 0x44 DUP3 ADD MSTORE PUSH1 0x64 ADD PUSH2 0xCDF JUMP JUMPDEST PUSH1 0x1F SLOAD DUP3 PUSH2 0x24F4 DUP6 PUSH1 0x1 PUSH1 0x1 PUSH1 0xA0 SHL SUB AND PUSH0 SWAP1 DUP2 MSTORE PUSH1 0x1 PUSH1 0x20 MSTORE PUSH1 0x40 SWAP1 KECCAK256 SLOAD SWAP1 JUMP JUMPDEST PUSH2 0x24FE SWAP2 SWAP1 PUSH2 0x3EB6 JUMP JUMPDEST GT ISZERO PUSH2 0x254C JUMPI PUSH1 0x40 MLOAD PUSH3 0x461BCD PUSH1 0xE5 SHL DUP2 MSTORE PUSH1 0x20 PUSH1 0x4 DUP3 ADD MSTORE PUSH1 0x1A PUSH1 0x24 DUP3 ADD MSTORE PUSH32 0x4578636565647320746865206D617857616C6C657453697A652E000000000000 PUSH1 0x44 DUP3 ADD MSTORE PUSH1 0x64 ADD PUSH2 0xCDF JUMP JUMPDEST PUSH1 0x1C DUP1 SLOAD SWAP1 PUSH0 PUSH2 0x255B DUP4 PUSH2 0x3EDD JUMP JUMPDEST SWAP2 SWAP1 POP SSTORE POP JUMPDEST PUSH1 0x2F SLOAD PUSH1 0x1 PUSH1 0x1 PUSH1 0xA0 SHL SUB DUP5 DUP2 AND SWAP2 AND EQ DUP1 ISZERO PUSH2 0x2587 JUMPI POP PUSH1 0x1 PUSH1 0x1 PUSH1 0xA0 SHL SUB DUP5 AND ADDRESS EQ ISZERO JUMPDEST ISZERO PUSH2 0x25B4 JUMPI PUSH2 0x25B1 PUSH1 0x64 PUSH2 0x2339 PUSH1 0x1A SLOAD PUSH1 0x1C SLOAD GT PUSH2 0x25A7 JUMPI PUSH1 0x16 SLOAD PUSH2 0x2332 JUMP JUMPDEST PUSH1 0x18 SLOAD DUP6 SWAP1 PUSH2 0x380F JUMP JUMPDEST SWAP1 POP JUMPDEST ADDRESS PUSH0 SWAP1 DUP2 MSTORE PUSH1 0x1 PUSH1 0x20 MSTORE PUSH1 0x40 SWAP1 KECCAK256 SLOAD PUSH1 0x2F SLOAD PUSH1 0x1 PUSH1 0xA8 SHL SWAP1 DIV PUSH1 0xFF AND ISZERO DUP1 ISZERO PUSH2 0x25EA JUMPI POP PUSH1 0x2F SLOAD PUSH1 0x1 PUSH1 0x1 PUSH1 0xA0 SHL SUB DUP6 DUP2 AND SWAP2 AND EQ JUMPDEST DUP1 ISZERO PUSH2 0x25FF JUMPI POP PUSH1 0x2F SLOAD PUSH1 0x1 PUSH1 0xB0 SHL SWAP1 DIV PUSH1 0xFF AND JUMPDEST DUP1 ISZERO PUSH2 0x260C JUMPI POP PUSH1 0x20 SLOAD DUP2 GT JUMPDEST DUP1 ISZERO PUSH2 0x261B JUMPI POP PUSH1 0x1B SLOAD PUSH1 0x1C SLOAD GT JUMPDEST ISZERO PUSH2 0x2660 JUMPI PUSH0 SELFBALANCE SWAP1 POP PUSH2 0x2641 PUSH2 0x263C DUP6 PUSH2 0x2637 DUP6 PUSH1 0x21 SLOAD PUSH2 0x388D JUMP JUMPDEST PUSH2 0x388D JUMP JUMPDEST PUSH2 0x3657 JUMP JUMPDEST PUSH0 PUSH2 0x264C SELFBALANCE DUP4 PUSH2 0x38A1 JUMP JUMPDEST SWAP1 POP DUP1 ISZERO PUSH2 0x265D JUMPI PUSH2 0x265D DUP2 PUSH2 0x2A76 JUMP JUMPDEST POP POP JUMPDEST POP JUMPDEST DUP1 ISZERO PUSH2 0x26DA JUMPI ADDRESS PUSH0 SWAP1 DUP2 MSTORE PUSH1 0x1 PUSH1 0x20 MSTORE PUSH1 0x40 SWAP1 KECCAK256 SLOAD PUSH2 0x2681 SWAP1 DUP3 PUSH2 0x38E2 JUMP JUMPDEST ADDRESS PUSH0 DUP2 DUP2 MSTORE PUSH1 0x1 PUSH1 0x20 MSTORE PUSH1 0x40 SWAP1 DUP2 SWAP1 KECCAK256 SWAP3 SWAP1 SWAP3 SSTORE SWAP1 MLOAD PUSH1 0x1 PUSH1 0x1 PUSH1 0xA0 SHL SUB DUP7 AND SWAP1 PUSH32 0xDDF252AD1BE2C89B69C2B068FC378DAA952BA7F163C4A11628F55A4DF523B3EF SWAP1 PUSH2 0x26D1 SWAP1 DUP6 DUP2 MSTORE PUSH1 0x20 ADD SWAP1 JUMP JUMPDEST PUSH1 0x40 MLOAD DUP1 SWAP2 SUB SWAP1 LOG3 JUMPDEST PUSH1 0x1 PUSH1 0x1 PUSH1 0xA0 SHL SUB DUP5 AND PUSH0 SWAP1 DUP2 MSTORE PUSH1 0x1 PUSH1 0x20 MSTORE PUSH1 0x40 SWAP1 KECCAK256 SLOAD PUSH2 0x26FC SWAP1 DUP4 PUSH2 0x38A1 JUMP JUMPDEST PUSH1 0x1 PUSH1 0x1 PUSH1 0xA0 SHL SUB DUP6 AND PUSH0 SWAP1 DUP2 MSTORE PUSH1 0x1 PUSH1 0x20 MSTORE PUSH1 0x40 SWAP1 KECCAK256 SSTORE PUSH2 0x273F PUSH2 0x2721 DUP4 DUP4 PUSH2 0x38A1 JUMP JUMPDEST PUSH1 0x1 PUSH1 0x1 PUSH1 0xA0 SHL SUB DUP6 AND PUSH0 SWAP1 DUP2 MSTORE PUSH1 0x1 PUSH1 0x20 MSTORE PUSH1 0x40 SWAP1 KECCAK256 SLOAD SWAP1 PUSH2 0x38E2 JUMP JUMPDEST PUSH1 0x1 PUSH1 0x1 PUSH1 0xA0 SHL SUB DUP1 DUP6 AND PUSH0 DUP2 DUP2 MSTORE PUSH1 0x1 PUSH1 0x20 MSTORE PUSH1 0x40 SWAP1 KECCAK256 SWAP3 SWAP1 SWAP3 SSTORE DUP6 AND PUSH32 0xDDF252AD1BE2C89B69C2B068FC378DAA952BA7F163C4A11628F55A4DF523B3EF PUSH2 0x2788 DUP6 DUP6 PUSH2 0x38A1 JUMP JUMPDEST PUSH1 0x40 MLOAD SWAP1 DUP2 MSTORE PUSH1 0x20 ADD PUSH1 0x40 MLOAD DUP1 SWAP2 SUB SWAP1 LOG3 POP POP POP POP JUMP JUMPDEST PUSH1 0x1 PUSH1 0x1 PUSH1 0xA0 SHL SUB DUP4 AND PUSH2 0x2801 JUMPI PUSH1 0x40 MLOAD PUSH3 0x461BCD PUSH1 0xE5 SHL DUP2 MSTORE PUSH1 0x20 PUSH1 0x4 DUP3 ADD MSTORE PUSH1 0x24 DUP1 DUP3 ADD MSTORE PUSH32 0x45524332303A20617070726F76652066726F6D20746865207A65726F20616464 PUSH1 0x44 DUP3 ADD MSTORE PUSH4 0x72657373 PUSH1 0xE0 SHL PUSH1 0x64 DUP3 ADD MSTORE PUSH1 0x84 ADD PUSH2 0xCDF JUMP JUMPDEST PUSH1 0x1 PUSH1 0x1 PUSH1 0xA0 SHL SUB DUP3 AND PUSH2 0x2862 JUMPI PUSH1 0x40 MLOAD PUSH3 0x461BCD PUSH1 0xE5 SHL DUP2 MSTORE PUSH1 0x20 PUSH1 0x4 DUP3 ADD MSTORE PUSH1 0x22 PUSH1 0x24 DUP3 ADD MSTORE PUSH32 0x45524332303A20617070726F766520746F20746865207A65726F206164647265 PUSH1 0x44 DUP3 ADD MSTORE PUSH2 0x7373 PUSH1 0xF0 SHL PUSH1 0x64 DUP3 ADD MSTORE PUSH1 0x84 ADD PUSH2 0xCDF JUMP JUMPDEST PUSH1 0x1 PUSH1 0x1 PUSH1 0xA0 SHL SUB DUP4 DUP2 AND PUSH0 DUP2 DUP2 MSTORE PUSH1 0x2 PUSH1 0x20 SWAP1 DUP2 MSTORE PUSH1 0x40 DUP1 DUP4 KECCAK256 SWAP5 DUP8 AND DUP1 DUP5 MSTORE SWAP5 DUP3 MSTORE SWAP2 DUP3 SWAP1 KECCAK256 DUP6 SWAP1 SSTORE SWAP1 MLOAD DUP5 DUP2 MSTORE PUSH32 0x8C5BE1E5EBEC7D5BD14F71427D1E84F3DD0314C0F7B2291E5B200AC8C7C3B925 SWAP2 ADD JUMPDEST PUSH1 0x40 MLOAD DUP1 SWAP2 SUB SWAP1 LOG3 POP POP POP JUMP JUMPDEST PUSH0 DUP2 DUP5 DUP5 GT ISZERO PUSH2 0x28E6 JUMPI PUSH1 0x40 MLOAD PUSH3 0x461BCD PUSH1 0xE5 SHL DUP2 MSTORE PUSH1 0x4 ADD PUSH2 0xCDF SWAP2 SWAP1 PUSH2 0x3A1E JUMP JUMPDEST POP PUSH0 PUSH2 0x28F2 DUP5 DUP7 PUSH2 0x3D85 JUMP JUMPDEST SWAP6 SWAP5 POP POP POP POP POP JUMP JUMPDEST PUSH1 0x1 PUSH1 0x1 PUSH1 0xA0 SHL SUB DUP3 AND PUSH2 0x295B JUMPI PUSH1 0x40 MLOAD PUSH3 0x461BCD PUSH1 0xE5 SHL DUP2 MSTORE PUSH1 0x20 PUSH1 0x4 DUP3 ADD MSTORE PUSH1 0x21 PUSH1 0x24 DUP3 ADD MSTORE PUSH32 0x43616E6E6F74206275726E2066726F6D20746865207A65726F20616464726573 PUSH1 0x44 DUP3 ADD MSTORE PUSH1 0x73 PUSH1 0xF8 SHL PUSH1 0x64 DUP3 ADD MSTORE PUSH1 0x84 ADD PUSH2 0xCDF JUMP JUMPDEST PUSH2 0x2967 PUSH1 0x9 PUSH1 0xA PUSH2 0x3E91 JUMP JUMPDEST PUSH2 0x2971 SWAP1 DUP3 PUSH2 0x3E9F JUMP JUMPDEST PUSH1 0x1 PUSH1 0x1 PUSH1 0xA0 SHL SUB DUP4 AND PUSH0 SWAP1 DUP2 MSTORE PUSH1 0x1 PUSH1 0x20 MSTORE PUSH1 0x40 DUP2 KECCAK256 DUP1 SLOAD SWAP3 SWAP4 POP DUP4 SWAP3 SWAP1 SWAP2 SWAP1 PUSH2 0x299D SWAP1 DUP5 SWAP1 PUSH2 0x3D85 JUMP JUMPDEST SWAP3 POP POP DUP2 SWAP1 SSTORE POP DUP1 PUSH1 0x1D PUSH0 DUP3 DUP3 SLOAD PUSH2 0x29B5 SWAP2 SWAP1 PUSH2 0x3D85 JUMP JUMPDEST SWAP1 SWAP2 SSTORE POP POP PUSH1 0x1D SLOAD PUSH1 0x1E DUP2 SWAP1 SSTORE PUSH1 0x1F SSTORE PUSH1 0x40 MLOAD DUP2 DUP2 MSTORE PUSH1 0x1 PUSH1 0x1 PUSH1 0xA0 SHL SUB DUP4 AND SWAP1 PUSH32 0xCC16F5DBB4873280815C1EE09DBD06736CFFCC184412CF7A71A0FDB75D397CA5 SWAP1 PUSH1 0x20 ADD PUSH1 0x40 MLOAD DUP1 SWAP2 SUB SWAP1 LOG2 PUSH1 0x40 MLOAD DUP2 DUP2 MSTORE PUSH0 SWAP1 PUSH1 0x1 PUSH1 0x1 PUSH1 0xA0 SHL SUB DUP5 AND SWAP1 PUSH32 0xDDF252AD1BE2C89B69C2B068FC378DAA952BA7F163C4A11628F55A4DF523B3EF SWAP1 PUSH1 0x20 ADD PUSH1 0x40 MLOAD DUP1 SWAP2 SUB SWAP1 LOG3 PUSH32 0x947F344D56E1E8C70DC492FB94C4DDDDD490C016AAB685F5E7E47B2E85CB44CF PUSH1 0x1D SLOAD PUSH1 0x40 MLOAD PUSH2 0xE24 SWAP2 DUP2 MSTORE PUSH1 0x20 ADD SWAP1 JUMP JUMPDEST PUSH0 DUP2 GT PUSH2 0x2AC5 JUMPI PUSH1 0x40 MLOAD PUSH3 0x461BCD PUSH1 0xE5 SHL DUP2 MSTORE PUSH1 0x20 PUSH1 0x4 DUP3 ADD DUP2 SWAP1 MSTORE PUSH1 0x24 DUP3 ADD MSTORE PUSH32 0x416D6F756E74206D7573742062652067726561746572207468616E207A65726F PUSH1 0x44 DUP3 ADD MSTORE PUSH1 0x64 ADD PUSH2 0xCDF JUMP JUMPDEST DUP1 SELFBALANCE LT ISZERO PUSH2 0x2B15 JUMPI PUSH1 0x40 MLOAD PUSH3 0x461BCD PUSH1 0xE5 SHL DUP2 MSTORE PUSH1 0x20 PUSH1 0x4 DUP3 ADD MSTORE PUSH1 0x1D PUSH1 0x24 DUP3 ADD MSTORE PUSH32 0x496E73756666696369656E7420636F6E74726163742062616C616E6365000000 PUSH1 0x44 DUP3 ADD MSTORE PUSH1 0x64 ADD PUSH2 0xCDF JUMP JUMPDEST PUSH0 PUSH2 0x2B21 PUSH1 0x5 DUP4 PUSH2 0x3FCF JUMP JUMPDEST PUSH1 0x13 SLOAD PUSH1 0x40 MLOAD SWAP2 SWAP3 POP PUSH1 0x1 PUSH1 0x1 PUSH1 0xA0 SHL SUB AND SWAP1 DUP3 ISZERO PUSH2 0x8FC MUL SWAP1 DUP4 SWAP1 PUSH0 DUP2 DUP2 DUP2 DUP6 DUP9 DUP9 CALL SWAP4 POP POP POP POP ISZERO DUP1 ISZERO PUSH2 0x2B59 JUMPI RETURNDATASIZE PUSH0 DUP1 RETURNDATACOPY RETURNDATASIZE PUSH0 REVERT JUMPDEST POP PUSH1 0x11 SLOAD PUSH1 0x40 MLOAD PUSH1 0x1 PUSH1 0x1 PUSH1 0xA0 SHL SUB SWAP1 SWAP2 AND SWAP1 DUP3 ISZERO PUSH2 0x8FC MUL SWAP1 DUP4 SWAP1 PUSH0 DUP2 DUP2 DUP2 DUP6 DUP9 DUP9 CALL SWAP4 POP POP POP POP ISZERO DUP1 ISZERO PUSH2 0x2B91 JUMPI RETURNDATASIZE PUSH0 DUP1 RETURNDATACOPY RETURNDATASIZE PUSH0 REVERT JUMPDEST POP PUSH1 0x10 SLOAD PUSH1 0x40 MLOAD PUSH1 0x1 PUSH1 0x1 PUSH1 0xA0 SHL SUB SWAP1 SWAP2 AND SWAP1 DUP3 ISZERO PUSH2 0x8FC MUL SWAP1 DUP4 SWAP1 PUSH0 DUP2 DUP2 DUP2 DUP6 DUP9 DUP9 CALL SWAP4 POP POP POP POP ISZERO DUP1 ISZERO PUSH2 0x1BD9 JUMPI RETURNDATASIZE PUSH0 DUP1 RETURNDATACOPY RETURNDATASIZE PUSH0 REVERT JUMPDEST PUSH1 0x40 MLOAD PUSH4 0x58545241 PUSH1 0xE0 SHL PUSH1 0x20 DUP3 ADD MSTORE PUSH1 0x24 ADD PUSH1 0x40 MLOAD PUSH1 0x20 DUP2 DUP4 SUB SUB DUP2 MSTORE SWAP1 PUSH1 0x40 MSTORE DUP1 MLOAD SWAP1 PUSH1 0x20 ADD KECCAK256 DUP3 PUSH1 0x40 MLOAD PUSH1 0x20 ADD PUSH2 0x2C03 SWAP2 SWAP1 PUSH2 0x3F2A JUMP JUMPDEST PUSH1 0x40 MLOAD PUSH1 0x20 DUP2 DUP4 SUB SUB DUP2 MSTORE SWAP1 PUSH1 0x40 MSTORE DUP1 MLOAD SWAP1 PUSH1 0x20 ADD KECCAK256 SUB PUSH2 0x2C3A JUMPI DUP1 PUSH1 0x22 PUSH0 DUP3 DUP3 SLOAD PUSH2 0x2C2F SWAP2 SWAP1 PUSH2 0x3EB6 JUMP JUMPDEST SWAP1 SWAP2 SSTORE POP PUSH2 0xCF3 SWAP1 POP JUMP JUMPDEST PUSH1 0x40 MLOAD PUSH5 0x1093D3D4D5 PUSH1 0xDA SHL PUSH1 0x20 DUP3 ADD MSTORE PUSH1 0x25 ADD PUSH1 0x40 MLOAD PUSH1 0x20 DUP2 DUP4 SUB SUB DUP2 MSTORE SWAP1 PUSH1 0x40 MSTORE DUP1 MLOAD SWAP1 PUSH1 0x20 ADD KECCAK256 DUP3 PUSH1 0x40 MLOAD PUSH1 0x20 ADD PUSH2 0x2C75 SWAP2 SWAP1 PUSH2 0x3F2A JUMP JUMPDEST PUSH1 0x40 MLOAD PUSH1 0x20 DUP2 DUP4 SUB SUB DUP2 MSTORE SWAP1 PUSH1 0x40 MSTORE DUP1 MLOAD SWAP1 PUSH1 0x20 ADD KECCAK256 SUB PUSH2 0x2CA1 JUMPI DUP1 PUSH1 0x23 PUSH0 DUP3 DUP3 SLOAD PUSH2 0x2C2F SWAP2 SWAP1 PUSH2 0x3EB6 JUMP JUMPDEST PUSH1 0x40 MLOAD PUSH1 0x2B PUSH1 0xF9 SHL PUSH1 0x20 DUP3 ADD MSTORE PUSH1 0x21 ADD PUSH1 0x40 MLOAD PUSH1 0x20 DUP2 DUP4 SUB SUB DUP2 MSTORE SWAP1 PUSH1 0x40 MSTORE DUP1 MLOAD SWAP1 PUSH1 0x20 ADD KECCAK256 DUP3 PUSH1 0x40 MLOAD PUSH1 0x20 ADD PUSH2 0x2CD8 SWAP2 SWAP1 PUSH2 0x3F2A JUMP JUMPDEST PUSH1 0x40 MLOAD PUSH1 0x20 DUP2 DUP4 SUB SUB DUP2 MSTORE SWAP1 PUSH1 0x40 MSTORE DUP1 MLOAD SWAP1 PUSH1 0x20 ADD KECCAK256 SUB PUSH2 0x2D04 JUMPI DUP1 PUSH1 0x24 PUSH0 DUP3 DUP3 SLOAD PUSH2 0x2C2F SWAP2 SWAP1 PUSH2 0x3EB6 JUMP JUMPDEST PUSH1 0x40 MLOAD PUSH4 0x534B495 PUSH1 0xE4 SHL PUSH1 0x20 DUP3 ADD MSTORE PUSH1 0x24 ADD PUSH1 0x40 MLOAD PUSH1 0x20 DUP2 DUP4 SUB SUB DUP2 MSTORE SWAP1 PUSH1 0x40 MSTORE DUP1 MLOAD SWAP1 PUSH1 0x20 ADD KECCAK256 DUP3 PUSH1 0x40 MLOAD PUSH1 0x20 ADD PUSH2 0x2D3E SWAP2 SWAP1 PUSH2 0x3F2A JUMP JUMPDEST PUSH1 0x40 MLOAD PUSH1 0x20 DUP2 DUP4 SUB SUB DUP2 MSTORE SWAP1 PUSH1 0x40 MSTORE DUP1 MLOAD SWAP1 PUSH1 0x20 ADD KECCAK256 SUB PUSH2 0xCF3 JUMPI DUP1 PUSH1 0x25 PUSH0 DUP3 DUP3 SLOAD PUSH2 0x2D6A SWAP2 SWAP1 PUSH2 0x3EB6 JUMP JUMPDEST SWAP1 SWAP2 SSTORE POP POP POP POP JUMP JUMPDEST PUSH1 0x40 MLOAD PUSH4 0x58545241 PUSH1 0xE0 SHL PUSH1 0x20 DUP3 ADD MSTORE PUSH1 0x24 ADD PUSH1 0x40 MLOAD PUSH1 0x20 DUP2 DUP4 SUB SUB DUP2 MSTORE SWAP1 PUSH1 0x40 MSTORE DUP1 MLOAD SWAP1 PUSH1 0x20 ADD KECCAK256 DUP4 PUSH1 0x40 MLOAD PUSH1 0x20 ADD PUSH2 0x2DAD SWAP2 SWAP1 PUSH2 0x3F2A JUMP JUMPDEST PUSH1 0x40 MLOAD PUSH1 0x20 DUP2 DUP4 SUB SUB DUP2 MSTORE SWAP1 PUSH1 0x40 MSTORE DUP1 MLOAD SWAP1 PUSH1 0x20 ADD KECCAK256 SUB PUSH2 0x2DFA JUMPI PUSH1 0x1 PUSH1 0x1 PUSH1 0xA0 SHL SUB DUP2 AND PUSH0 SWAP1 DUP2 MSTORE PUSH1 0xB PUSH1 0x20 MSTORE PUSH1 0x40 DUP2 KECCAK256 DUP1 SLOAD DUP5 SWAP3 SWAP1 PUSH2 0x2DEF SWAP1 DUP5 SWAP1 PUSH2 0x3EB6 JUMP JUMPDEST SWAP1 SWAP2 SSTORE POP PUSH2 0x2FAA SWAP1 POP JUMP JUMPDEST PUSH1 0x40 MLOAD PUSH5 0x1093D3D4D5 PUSH1 0xDA SHL PUSH1 0x20 DUP3 ADD MSTORE PUSH1 0x25 ADD PUSH1 0x40 MLOAD PUSH1 0x20 DUP2 DUP4 SUB SUB DUP2 MSTORE SWAP1 PUSH1 0x40 MSTORE DUP1 MLOAD SWAP1 PUSH1 0x20 ADD KECCAK256 DUP4 PUSH1 0x40 MLOAD PUSH1 0x20 ADD PUSH2 0x2E35 SWAP2 SWAP1 PUSH2 0x3F2A JUMP JUMPDEST PUSH1 0x40 MLOAD PUSH1 0x20 DUP2 DUP4 SUB SUB DUP2 MSTORE SWAP1 PUSH1 0x40 MSTORE DUP1 MLOAD SWAP1 PUSH1 0x20 ADD KECCAK256 SUB PUSH2 0x2E77 JUMPI PUSH1 0x1 PUSH1 0x1 PUSH1 0xA0 SHL SUB DUP2 AND PUSH0 SWAP1 DUP2 MSTORE PUSH1 0xC PUSH1 0x20 MSTORE PUSH1 0x40 DUP2 KECCAK256 DUP1 SLOAD DUP5 SWAP3 SWAP1 PUSH2 0x2DEF SWAP1 DUP5 SWAP1 PUSH2 0x3EB6 JUMP JUMPDEST PUSH1 0x40 MLOAD PUSH1 0x2B PUSH1 0xF9 SHL PUSH1 0x20 DUP3 ADD MSTORE PUSH1 0x21 ADD PUSH1 0x40 MLOAD PUSH1 0x20 DUP2 DUP4 SUB SUB DUP2 MSTORE SWAP1 PUSH1 0x40 MSTORE DUP1 MLOAD SWAP1 PUSH1 0x20 ADD KECCAK256 DUP4 PUSH1 0x40 MLOAD PUSH1 0x20 ADD PUSH2 0x2EAE SWAP2 SWAP1 PUSH2 0x3F2A JUMP JUMPDEST PUSH1 0x40 MLOAD PUSH1 0x20 DUP2 DUP4 SUB SUB DUP2 MSTORE SWAP1 PUSH1 0x40 MSTORE DUP1 MLOAD SWAP1 PUSH1 0x20 ADD KECCAK256 SUB PUSH2 0x2EF0 JUMPI PUSH1 0x1 PUSH1 0x1 PUSH1 0xA0 SHL SUB DUP2 AND PUSH0 SWAP1 DUP2 MSTORE PUSH1 0xD PUSH1 0x20 MSTORE PUSH1 0x40 DUP2 KECCAK256 DUP1 SLOAD DUP5 SWAP3 SWAP1 PUSH2 0x2DEF SWAP1 DUP5 SWAP1 PUSH2 0x3EB6 JUMP JUMPDEST PUSH1 0x40 MLOAD PUSH4 0x534B495 PUSH1 0xE4 SHL PUSH1 0x20 DUP3 ADD MSTORE PUSH1 0x24 ADD PUSH1 0x40 MLOAD PUSH1 0x20 DUP2 DUP4 SUB SUB DUP2 MSTORE SWAP1 PUSH1 0x40 MSTORE DUP1 MLOAD SWAP1 PUSH1 0x20 ADD KECCAK256 DUP4 PUSH1 0x40 MLOAD PUSH1 0x20 ADD PUSH2 0x2F2A SWAP2 SWAP1 PUSH2 0x3F2A JUMP JUMPDEST PUSH1 0x40 MLOAD PUSH1 0x20 DUP2 DUP4 SUB SUB DUP2 MSTORE SWAP1 PUSH1 0x40 MSTORE DUP1 MLOAD SWAP1 PUSH1 0x20 ADD KECCAK256 SUB PUSH2 0x2F6C JUMPI PUSH1 0x1 PUSH1 0x1 PUSH1 0xA0 SHL SUB DUP2 AND PUSH0 SWAP1 DUP2 MSTORE PUSH1 0xE PUSH1 0x20 MSTORE PUSH1 0x40 DUP2 KECCAK256 DUP1 SLOAD DUP5 SWAP3 SWAP1 PUSH2 0x2DEF SWAP1 DUP5 SWAP1 PUSH2 0x3EB6 JUMP JUMPDEST PUSH1 0x40 MLOAD PUSH3 0x461BCD PUSH1 0xE5 SHL DUP2 MSTORE PUSH1 0x20 PUSH1 0x4 DUP3 ADD MSTORE PUSH1 0x13 PUSH1 0x24 DUP3 ADD MSTORE PUSH19 0x496E76616C696420506F74696F6E204E616D65 PUSH1 0x68 SHL PUSH1 0x44 DUP3 ADD MSTORE PUSH1 0x64 ADD PUSH2 0xCDF JUMP JUMPDEST DUP1 PUSH1 0x1 PUSH1 0x1 PUSH1 0xA0 SHL SUB AND CALLER PUSH1 0x1 PUSH1 0x1 PUSH1 0xA0 SHL SUB AND PUSH32 0x3D57EEC5AB68AE7C8F1ED6299A36D8E6F61253E0F24AC6ABA38BC3FCBE7BC7AE DUP6 PUSH0 DUP1 PUSH1 0x40 MLOAD PUSH2 0x28B6 SWAP4 SWAP3 SWAP2 SWAP1 PUSH2 0x3FEE JUMP JUMPDEST DUP2 PUSH0 SUB PUSH2 0x2FFD JUMPI POP POP POP JUMP JUMPDEST PUSH0 DUP1 PUSH1 0x40 MLOAD PUSH1 0x20 ADD PUSH2 0x3019 SWAP1 PUSH4 0x58545241 PUSH1 0xE0 SHL DUP2 MSTORE PUSH1 0x4 ADD SWAP1 JUMP JUMPDEST PUSH1 0x40 MLOAD PUSH1 0x20 DUP2 DUP4 SUB SUB DUP2 MSTORE SWAP1 PUSH1 0x40 MSTORE DUP1 MLOAD SWAP1 PUSH1 0x20 ADD KECCAK256 DUP6 PUSH1 0x40 MLOAD PUSH1 0x20 ADD PUSH2 0x3040 SWAP2 SWAP1 PUSH2 0x3F2A JUMP JUMPDEST PUSH1 0x40 MLOAD PUSH1 0x20 DUP2 DUP4 SUB SUB DUP2 MSTORE SWAP1 PUSH1 0x40 MSTORE DUP1 MLOAD SWAP1 PUSH1 0x20 ADD KECCAK256 SUB PUSH2 0x31BB JUMPI PUSH1 0x26 SLOAD PUSH2 0x3068 SWAP1 DUP6 PUSH2 0x380F JUMP JUMPDEST PUSH1 0x2A SLOAD SWAP1 SWAP3 POP PUSH2 0x3078 SWAP1 DUP6 PUSH2 0x380F JUMP JUMPDEST PUSH1 0x1 PUSH1 0x1 PUSH1 0xA0 SHL SUB DUP5 AND PUSH0 SWAP1 DUP2 MSTORE PUSH1 0x9 PUSH1 0x20 MSTORE PUSH1 0x40 SWAP1 KECCAK256 SLOAD SWAP1 SWAP2 POP DUP3 GT ISZERO PUSH2 0x30B2 JUMPI PUSH1 0x40 MLOAD PUSH3 0x461BCD PUSH1 0xE5 SHL DUP2 MSTORE PUSH1 0x4 ADD PUSH2 0xCDF SWAP1 PUSH2 0x4012 JUMP JUMPDEST PUSH1 0x1 PUSH1 0x1 PUSH1 0xA0 SHL SUB DUP4 AND PUSH0 SWAP1 DUP2 MSTORE PUSH1 0xA PUSH1 0x20 MSTORE PUSH1 0x40 SWAP1 KECCAK256 SLOAD DUP2 GT ISZERO PUSH2 0x30E9 JUMPI PUSH1 0x40 MLOAD PUSH3 0x461BCD PUSH1 0xE5 SHL DUP2 MSTORE PUSH1 0x4 ADD PUSH2 0xCDF SWAP1 PUSH2 0x4053 JUMP JUMPDEST PUSH1 0x1 PUSH1 0x1 PUSH1 0xA0 SHL SUB DUP4 AND PUSH0 SWAP1 DUP2 MSTORE PUSH1 0x9 PUSH1 0x20 MSTORE PUSH1 0x40 DUP2 KECCAK256 DUP1 SLOAD DUP5 SWAP3 SWAP1 PUSH2 0x3110 SWAP1 DUP5 SWAP1 PUSH2 0x3D85 JUMP JUMPDEST SWAP1 SWAP2 SSTORE POP POP PUSH1 0x1 PUSH1 0x1 PUSH1 0xA0 SHL SUB DUP4 AND PUSH0 SWAP1 DUP2 MSTORE PUSH1 0xA PUSH1 0x20 MSTORE PUSH1 0x40 DUP2 KECCAK256 DUP1 SLOAD DUP4 SWAP3 SWAP1 PUSH2 0x313C SWAP1 DUP5 SWAP1 PUSH2 0x3D85 JUMP JUMPDEST SWAP1 SWAP2 SSTORE POP POP PUSH1 0x1 PUSH1 0x1 PUSH1 0xA0 SHL SUB DUP4 AND PUSH0 SWAP1 DUP2 MSTORE PUSH1 0xB PUSH1 0x20 MSTORE PUSH1 0x40 DUP2 KECCAK256 DUP1 SLOAD DUP7 SWAP3 SWAP1 PUSH2 0x3168 SWAP1 DUP5 SWAP1 PUSH2 0x3EB6 JUMP JUMPDEST SWAP1 SWAP2 SSTORE POP POP PUSH1 0x40 MLOAD PUSH1 0x1 PUSH1 0x1 PUSH1 0xA0 SHL SUB DUP5 AND SWAP1 CALLER SWAP1 PUSH32 0x3D57EEC5AB68AE7C8F1ED6299A36D8E6F61253E0F24AC6ABA38BC3FCBE7BC7AE SWAP1 PUSH2 0x31AE SWAP1 DUP10 SWAP1 DUP7 SWAP1 DUP9 SWAP1 PUSH2 0x3FEE JUMP JUMPDEST PUSH1 0x40 MLOAD DUP1 SWAP2 SUB SWAP1 LOG3 PUSH2 0x136E JUMP JUMPDEST PUSH1 0x40 MLOAD PUSH5 0x1093D3D4D5 PUSH1 0xDA SHL PUSH1 0x20 DUP3 ADD MSTORE PUSH1 0x25 ADD PUSH1 0x40 MLOAD PUSH1 0x20 DUP2 DUP4 SUB SUB DUP2 MSTORE SWAP1 PUSH1 0x40 MSTORE DUP1 MLOAD SWAP1 PUSH1 0x20 ADD KECCAK256 DUP6 PUSH1 0x40 MLOAD PUSH1 0x20 ADD PUSH2 0x31F6 SWAP2 SWAP1 PUSH2 0x3F2A JUMP JUMPDEST PUSH1 0x40 MLOAD PUSH1 0x20 DUP2 DUP4 SUB SUB DUP2 MSTORE SWAP1 PUSH1 0x40 MSTORE DUP1 MLOAD SWAP1 PUSH1 0x20 ADD KECCAK256 SUB PUSH2 0x331E JUMPI PUSH1 0x27 SLOAD PUSH2 0x321E SWAP1 DUP6 PUSH2 0x380F JUMP JUMPDEST PUSH1 0x2B SLOAD SWAP1 SWAP3 POP PUSH2 0x322E SWAP1 DUP6 PUSH2 0x380F JUMP JUMPDEST PUSH1 0x1 PUSH1 0x1 PUSH1 0xA0 SHL SUB DUP5 AND PUSH0 SWAP1 DUP2 MSTORE PUSH1 0x9 PUSH1 0x20 MSTORE PUSH1 0x40 SWAP1 KECCAK256 SLOAD SWAP1 SWAP2 POP DUP3 GT ISZERO PUSH2 0x3268 JUMPI PUSH1 0x40 MLOAD PUSH3 0x461BCD PUSH1 0xE5 SHL DUP2 MSTORE PUSH1 0x4 ADD PUSH2 0xCDF SWAP1 PUSH2 0x4012 JUMP JUMPDEST PUSH1 0x1 PUSH1 0x1 PUSH1 0xA0 SHL SUB DUP4 AND PUSH0 SWAP1 DUP2 MSTORE PUSH1 0xA PUSH1 0x20 MSTORE PUSH1 0x40 SWAP1 KECCAK256 SLOAD DUP2 GT ISZERO PUSH2 0x329F JUMPI PUSH1 0x40 MLOAD PUSH3 0x461BCD PUSH1 0xE5 SHL DUP2 MSTORE PUSH1 0x4 ADD PUSH2 0xCDF SWAP1 PUSH2 0x4053 JUMP JUMPDEST PUSH1 0x1 PUSH1 0x1 PUSH1 0xA0 SHL SUB DUP4 AND PUSH0 SWAP1 DUP2 MSTORE PUSH1 0x9 PUSH1 0x20 MSTORE PUSH1 0x40 DUP2 KECCAK256 DUP1 SLOAD DUP5 SWAP3 SWAP1 PUSH2 0x32C6 SWAP1 DUP5 SWAP1 PUSH2 0x3D85 JUMP JUMPDEST SWAP1 SWAP2 SSTORE POP POP PUSH1 0x1 PUSH1 0x1 PUSH1 0xA0 SHL SUB DUP4 AND PUSH0 SWAP1 DUP2 MSTORE PUSH1 0xA PUSH1 0x20 MSTORE PUSH1 0x40 DUP2 KECCAK256 DUP1 SLOAD DUP4 SWAP3 SWAP1 PUSH2 0x32F2 SWAP1 DUP5 SWAP1 PUSH2 0x3D85 JUMP JUMPDEST SWAP1 SWAP2 SSTORE POP POP PUSH1 0x1 PUSH1 0x1 PUSH1 0xA0 SHL SUB DUP4 AND PUSH0 SWAP1 DUP2 MSTORE PUSH1 0xC PUSH1 0x20 MSTORE PUSH1 0x40 DUP2 KECCAK256 DUP1 SLOAD DUP7 SWAP3 SWAP1 PUSH2 0x3168 SWAP1 DUP5 SWAP1 PUSH2 0x3EB6 JUMP JUMPDEST PUSH1 0x40 MLOAD PUSH1 0x2B PUSH1 0xF9 SHL PUSH1 0x20 DUP3 ADD MSTORE PUSH1 0x21 ADD PUSH1 0x40 MLOAD PUSH1 0x20 DUP2 DUP4 SUB SUB DUP2 MSTORE SWAP1 PUSH1 0x40 MSTORE DUP1 MLOAD SWAP1 PUSH1 0x20 ADD KECCAK256 DUP6 PUSH1 0x40 MLOAD PUSH1 0x20 ADD PUSH2 0x3355 SWAP2 SWAP1 PUSH2 0x3F2A JUMP JUMPDEST PUSH1 0x40 MLOAD PUSH1 0x20 DUP2 DUP4 SUB SUB DUP2 MSTORE SWAP1 PUSH1 0x40 MSTORE DUP1 MLOAD SWAP1 PUSH1 0x20 ADD KECCAK256 SUB PUSH2 0x347D JUMPI PUSH1 0x28 SLOAD PUSH2 0x337D SWAP1 DUP6 PUSH2 0x380F JUMP JUMPDEST PUSH1 0x2C SLOAD SWAP1 SWAP3 POP PUSH2 0x338D SWAP1 DUP6 PUSH2 0x380F JUMP JUMPDEST PUSH1 0x1 PUSH1 0x1 PUSH1 0xA0 SHL SUB DUP5 AND PUSH0 SWAP1 DUP2 MSTORE PUSH1 0x9 PUSH1 0x20 MSTORE PUSH1 0x40 SWAP1 KECCAK256 SLOAD SWAP1 SWAP2 POP DUP3 GT ISZERO PUSH2 0x33C7 JUMPI PUSH1 0x40 MLOAD PUSH3 0x461BCD PUSH1 0xE5 SHL DUP2 MSTORE PUSH1 0x4 ADD PUSH2 0xCDF SWAP1 PUSH2 0x4012 JUMP JUMPDEST PUSH1 0x1 PUSH1 0x1 PUSH1 0xA0 SHL SUB DUP4 AND PUSH0 SWAP1 DUP2 MSTORE PUSH1 0xA PUSH1 0x20 MSTORE PUSH1 0x40 SWAP1 KECCAK256 SLOAD DUP2 GT ISZERO PUSH2 0x33FE JUMPI PUSH1 0x40 MLOAD PUSH3 0x461BCD PUSH1 0xE5 SHL DUP2 MSTORE PUSH1 0x4 ADD PUSH2 0xCDF SWAP1 PUSH2 0x4053 JUMP JUMPDEST PUSH1 0x1 PUSH1 0x1 PUSH1 0xA0 SHL SUB DUP4 AND PUSH0 SWAP1 DUP2 MSTORE PUSH1 0x9 PUSH1 0x20 MSTORE PUSH1 0x40 DUP2 KECCAK256 DUP1 SLOAD DUP5 SWAP3 SWAP1 PUSH2 0x3425 SWAP1 DUP5 SWAP1 PUSH2 0x3D85 JUMP JUMPDEST SWAP1 SWAP2 SSTORE POP POP PUSH1 0x1 PUSH1 0x1 PUSH1 0xA0 SHL SUB DUP4 AND PUSH0 SWAP1 DUP2 MSTORE PUSH1 0xA PUSH1 0x20 MSTORE PUSH1 0x40 DUP2 KECCAK256 DUP1 SLOAD DUP4 SWAP3 SWAP1 PUSH2 0x3451 SWAP1 DUP5 SWAP1 PUSH2 0x3D85 JUMP JUMPDEST SWAP1 SWAP2 SSTORE POP POP PUSH1 0x1 PUSH1 0x1 PUSH1 0xA0 SHL SUB DUP4 AND PUSH0 SWAP1 DUP2 MSTORE PUSH1 0xD PUSH1 0x20 MSTORE PUSH1 0x40 DUP2 KECCAK256 DUP1 SLOAD DUP7 SWAP3 SWAP1 PUSH2 0x3168 SWAP1 DUP5 SWAP1 PUSH2 0x3EB6 JUMP JUMPDEST PUSH1 0x40 MLOAD PUSH4 0x534B495 PUSH1 0xE4 SHL PUSH1 0x20 DUP3 ADD MSTORE PUSH1 0x24 ADD PUSH1 0x40 MLOAD PUSH1 0x20 DUP2 DUP4 SUB SUB DUP2 MSTORE SWAP1 PUSH1 0x40 MSTORE DUP1 MLOAD SWAP1 PUSH1 0x20 ADD KECCAK256 DUP6 PUSH1 0x40 MLOAD PUSH1 0x20 ADD PUSH2 0x34B7 SWAP2 SWAP1 PUSH2 0x3F2A JUMP JUMPDEST PUSH1 0x40 MLOAD PUSH1 0x20 DUP2 DUP4 SUB SUB DUP2 MSTORE SWAP1 PUSH1 0x40 MSTORE DUP1 MLOAD SWAP1 PUSH1 0x20 ADD KECCAK256 SUB PUSH2 0x2F6C JUMPI PUSH1 0x29 SLOAD PUSH2 0x34DF SWAP1 DUP6 PUSH2 0x380F JUMP JUMPDEST PUSH1 0x2D SLOAD SWAP1 SWAP3 POP PUSH2 0x34EF SWAP1 DUP6 PUSH2 0x380F JUMP JUMPDEST PUSH1 0x1 PUSH1 0x1 PUSH1 0xA0 SHL SUB DUP5 AND PUSH0 SWAP1 DUP2 MSTORE PUSH1 0x9 PUSH1 0x20 MSTORE PUSH1 0x40 SWAP1 KECCAK256 SLOAD SWAP1 SWAP2 POP DUP3 GT ISZERO PUSH2 0x3529 JUMPI PUSH1 0x40 MLOAD PUSH3 0x461BCD PUSH1 0xE5 SHL DUP2 MSTORE PUSH1 0x4 ADD PUSH2 0xCDF SWAP1 PUSH2 0x4012 JUMP JUMPDEST PUSH1 0x1 PUSH1 0x1 PUSH1 0xA0 SHL SUB DUP4 AND PUSH0 SWAP1 DUP2 MSTORE PUSH1 0xA PUSH1 0x20 MSTORE PUSH1 0x40 SWAP1 KECCAK256 SLOAD DUP2 GT ISZERO PUSH2 0x3560 JUMPI PUSH1 0x40 MLOAD PUSH3 0x461BCD PUSH1 0xE5 SHL DUP2 MSTORE PUSH1 0x4 ADD PUSH2 0xCDF SWAP1 PUSH2 0x4053 JUMP JUMPDEST PUSH1 0x1 PUSH1 0x1 PUSH1 0xA0 SHL SUB DUP4 AND PUSH0 SWAP1 DUP2 MSTORE PUSH1 0x9 PUSH1 0x20 MSTORE PUSH1 0x40 DUP2 KECCAK256 DUP1 SLOAD DUP5 SWAP3 SWAP1 PUSH2 0x3587 SWAP1 DUP5 SWAP1 PUSH2 0x3D85 JUMP JUMPDEST SWAP1 SWAP2 SSTORE POP POP PUSH1 0x1 PUSH1 0x1 PUSH1 0xA0 SHL SUB DUP4 AND PUSH0 SWAP1 DUP2 MSTORE PUSH1 0xA PUSH1 0x20 MSTORE PUSH1 0x40 DUP2 KECCAK256 DUP1 SLOAD DUP4 SWAP3 SWAP1 PUSH2 0x35B3 SWAP1 DUP5 SWAP1 PUSH2 0x3D85 JUMP JUMPDEST SWAP1 SWAP2 SSTORE POP POP PUSH1 0x1 PUSH1 0x1 PUSH1 0xA0 SHL SUB DUP4 AND PUSH0 SWAP1 DUP2 MSTORE PUSH1 0xE PUSH1 0x20 MSTORE PUSH1 0x40 DUP2 KECCAK256 DUP1 SLOAD DUP7 SWAP3 SWAP1 PUSH2 0x3168 SWAP1 DUP5 SWAP1 PUSH2 0x3EB6 JUMP JUMPDEST PUSH0 SLOAD PUSH1 0x1 PUSH1 0x1 PUSH1 0xA0 SHL SUB AND CALLER EQ PUSH2 0x3608 JUMPI PUSH1 0x40 MLOAD PUSH3 0x461BCD PUSH1 0xE5 SHL DUP2 MSTORE PUSH1 0x4 ADD PUSH2 0xCDF SWAP1 PUSH2 0x3EF5 JUMP JUMPDEST PUSH1 0x1D SLOAD PUSH1 0x1E DUP2 SWAP1 SSTORE PUSH1 0x1F DUP2 SWAP1 SSTORE PUSH1 0x2F DUP1 SLOAD PUSH1 0xFF PUSH1 0xB8 SHL NOT AND SWAP1 SSTORE PUSH1 0x40 MLOAD SWAP1 DUP2 MSTORE PUSH32 0x947F344D56E1E8C70DC492FB94C4DDDDD490C016AAB685F5E7E47B2E85CB44CF SWAP1 PUSH1 0x20 ADD PUSH1 0x40 MLOAD DUP1 SWAP2 SUB SWAP1 LOG1 JUMP JUMPDEST PUSH1 0x2F DUP1 SLOAD PUSH1 0xFF PUSH1 0xA8 SHL NOT AND PUSH1 0x1 PUSH1 0xA8 SHL OR SWAP1 SSTORE PUSH1 0x40 DUP1 MLOAD PUSH1 0x2 DUP1 DUP3 MSTORE PUSH1 0x60 DUP3 ADD DUP4 MSTORE PUSH0 SWAP3 PUSH1 0x20 DUP4 ADD SWAP1 DUP1 CALLDATASIZE DUP4 CALLDATACOPY ADD SWAP1 POP POP SWAP1 POP ADDRESS DUP2 PUSH0 DUP2 MLOAD DUP2 LT PUSH2 0x369D JUMPI PUSH2 0x369D PUSH2 0x3EC9 JUMP JUMPDEST PUSH1 0x1 PUSH1 0x1 PUSH1 0xA0 SHL SUB SWAP3 DUP4 AND PUSH1 0x20 SWAP2 DUP3 MUL SWAP3 SWAP1 SWAP3 ADD DUP2 ADD SWAP2 SWAP1 SWAP2 MSTORE PUSH1 0x2E SLOAD PUSH1 0x40 DUP1 MLOAD PUSH4 0x15AB88C9 PUSH1 0xE3 SHL DUP2 MSTORE SWAP1 MLOAD SWAP2 SWAP1 SWAP4 AND SWAP3 PUSH4 0xAD5C4648 SWAP3 PUSH1 0x4 DUP1 DUP4 ADD SWAP4 SWAP2 SWAP3 DUP3 SWAP1 SUB ADD DUP2 DUP7 GAS STATICCALL ISZERO DUP1 ISZERO PUSH2 0x36F4 JUMPI RETURNDATASIZE PUSH0 DUP1 RETURNDATACOPY RETURNDATASIZE PUSH0 REVERT JUMPDEST POP POP POP POP PUSH1 0x40 MLOAD RETURNDATASIZE PUSH1 0x1F NOT PUSH1 0x1F DUP3 ADD AND DUP3 ADD DUP1 PUSH1 0x40 MSTORE POP DUP2 ADD SWAP1 PUSH2 0x3718 SWAP2 SWAP1 PUSH2 0x3F89 JUMP JUMPDEST DUP2 PUSH1 0x1 DUP2 MLOAD DUP2 LT PUSH2 0x372B JUMPI PUSH2 0x372B PUSH2 0x3EC9 JUMP JUMPDEST PUSH1 0x1 PUSH1 0x1 PUSH1 0xA0 SHL SUB SWAP3 DUP4 AND PUSH1 0x20 SWAP2 DUP3 MUL SWAP3 SWAP1 SWAP3 ADD ADD MSTORE PUSH1 0x2E SLOAD PUSH2 0x3751 SWAP2 ADDRESS SWAP2 AND DUP5 PUSH2 0x279F JUMP JUMPDEST PUSH1 0x2E SLOAD PUSH1 0x40 MLOAD PUSH4 0x791AC947 PUSH1 0xE0 SHL DUP2 MSTORE PUSH1 0x1 PUSH1 0x1 PUSH1 0xA0 SHL SUB SWAP1 SWAP2 AND SWAP1 PUSH4 0x791AC947 SWAP1 PUSH2 0x3789 SWAP1 DUP6 SWAP1 PUSH0 SWAP1 DUP7 SWAP1 ADDRESS SWAP1 TIMESTAMP SWAP1 PUSH1 0x4 ADD PUSH2 0x4088 JUMP JUMPDEST PUSH0 PUSH1 0x40 MLOAD DUP1 DUP4 SUB DUP2 PUSH0 DUP8 DUP1 EXTCODESIZE ISZERO DUP1 ISZERO PUSH2 0x37A0 JUMPI PUSH0 DUP1 REVERT JUMPDEST POP GAS CALL ISZERO DUP1 ISZERO PUSH2 0x37B2 JUMPI RETURNDATASIZE PUSH0 DUP1 RETURNDATACOPY RETURNDATASIZE PUSH0 REVERT JUMPDEST POP POP PUSH1 0x2F DUP1 SLOAD PUSH1 0xFF PUSH1 0xA8 SHL NOT AND SWAP1 SSTORE POP POP POP POP JUMP JUMPDEST PUSH0 PUSH2 0x3808 DUP4 DUP4 PUSH1 0x40 MLOAD DUP1 PUSH1 0x40 ADD PUSH1 0x40 MSTORE DUP1 PUSH1 0x1A DUP2 MSTORE PUSH1 0x20 ADD PUSH32 0x536166654D6174683A206469766973696F6E206279207A65726F000000000000 DUP2 MSTORE POP PUSH2 0x3940 JUMP JUMPDEST SWAP4 SWAP3 POP POP POP JUMP JUMPDEST PUSH0 DUP3 PUSH0 SUB PUSH2 0x381E JUMPI POP PUSH0 PUSH2 0xD07 JUMP JUMPDEST PUSH0 PUSH2 0x3829 DUP4 DUP6 PUSH2 0x3E9F JUMP JUMPDEST SWAP1 POP DUP3 PUSH2 0x3836 DUP6 DUP4 PUSH2 0x3FCF JUMP JUMPDEST EQ PUSH2 0x3808 JUMPI PUSH1 0x40 MLOAD PUSH3 0x461BCD PUSH1 0xE5 SHL DUP2 MSTORE PUSH1 0x20 PUSH1 0x4 DUP3 ADD MSTORE PUSH1 0x21 PUSH1 0x24 DUP3 ADD MSTORE PUSH32 0x536166654D6174683A206D756C7469706C69636174696F6E206F766572666C6F PUSH1 0x44 DUP3 ADD MSTORE PUSH1 0x77 PUSH1 0xF8 SHL PUSH1 0x64 DUP3 ADD MSTORE PUSH1 0x84 ADD PUSH2 0xCDF JUMP JUMPDEST PUSH0 DUP2 DUP4 GT PUSH2 0x389B JUMPI DUP3 PUSH2 0x3808 JUMP JUMPDEST POP SWAP2 SWAP1 POP JUMP JUMPDEST PUSH0 PUSH2 0x3808 DUP4 DUP4 PUSH1 0x40 MLOAD DUP1 PUSH1 0x40 ADD PUSH1 0x40 MSTORE DUP1 PUSH1 0x1E DUP2 MSTORE PUSH1 0x20 ADD PUSH32 0x536166654D6174683A207375627472616374696F6E206F766572666C6F770000 DUP2 MSTORE POP PUSH2 0x28C3 JUMP JUMPDEST PUSH0 DUP1 PUSH2 0x38EE DUP4 DUP6 PUSH2 0x3EB6 JUMP JUMPDEST SWAP1 POP DUP4 DUP2 LT ISZERO PUSH2 0x3808 JUMPI PUSH1 0x40 MLOAD PUSH3 0x461BCD PUSH1 0xE5 SHL DUP2 MSTORE PUSH1 0x20 PUSH1 0x4 DUP3 ADD MSTORE PUSH1 0x1B PUSH1 0x24 DUP3 ADD MSTORE PUSH32 0x536166654D6174683A206164646974696F6E206F766572666C6F770000000000 PUSH1 0x44 DUP3 ADD MSTORE PUSH1 0x64 ADD PUSH2 0xCDF JUMP JUMPDEST PUSH0 DUP2 DUP4 PUSH2 0x3960 JUMPI PUSH1 0x40 MLOAD PUSH3 0x461BCD PUSH1 0xE5 SHL DUP2 MSTORE PUSH1 0x4 ADD PUSH2 0xCDF SWAP2 SWAP1 PUSH2 0x3A1E JUMP JUMPDEST POP PUSH0 PUSH2 0x28F2 DUP5 DUP7 PUSH2 0x3FCF JUMP JUMPDEST PUSH0 PUSH1 0x20 DUP3 DUP5 SUB SLT ISZERO PUSH2 0x397C JUMPI PUSH0 DUP1 REVERT JUMPDEST POP CALLDATALOAD SWAP2 SWAP1 POP JUMP JUMPDEST PUSH1 0x1 PUSH1 0x1 PUSH1 0xA0 SHL SUB DUP2 AND DUP2 EQ PUSH2 0x210B JUMPI PUSH0 DUP1 REVERT JUMPDEST DUP1 CALLDATALOAD PUSH2 0x39A2 DUP2 PUSH2 0x3983 JUMP JUMPDEST SWAP2 SWAP1 POP JUMP JUMPDEST PUSH0 DUP1 PUSH1 0x40 DUP4 DUP6 SUB SLT ISZERO PUSH2 0x39B8 JUMPI PUSH0 DUP1 REVERT JUMPDEST DUP3 CALLDATALOAD PUSH2 0x39C3 DUP2 PUSH2 0x3983 JUMP JUMPDEST SWAP5 PUSH1 0x20 SWAP4 SWAP1 SWAP4 ADD CALLDATALOAD SWAP4 POP POP POP JUMP JUMPDEST PUSH0 JUMPDEST DUP4 DUP2 LT ISZERO PUSH2 0x39EB JUMPI DUP2 DUP2 ADD MLOAD DUP4 DUP3 ADD MSTORE PUSH1 0x20 ADD PUSH2 0x39D3 JUMP JUMPDEST POP POP PUSH0 SWAP2 ADD MSTORE JUMP JUMPDEST PUSH0 DUP2 MLOAD DUP1 DUP5 MSTORE PUSH2 0x3A0A DUP2 PUSH1 0x20 DUP7 ADD PUSH1 0x20 DUP7 ADD PUSH2 0x39D1 JUMP JUMPDEST PUSH1 0x1F ADD PUSH1 0x1F NOT AND SWAP3 SWAP1 SWAP3 ADD PUSH1 0x20 ADD SWAP3 SWAP2 POP POP JUMP JUMPDEST PUSH1 0x20 DUP2 MSTORE PUSH0 PUSH2 0x3808 PUSH1 0x20 DUP4 ADD DUP5 PUSH2 0x39F3 JUMP JUMPDEST PUSH0 DUP1 PUSH1 0x40 DUP4 DUP6 SUB SLT ISZERO PUSH2 0x3A41 JUMPI PUSH0 DUP1 REVERT JUMPDEST POP POP DUP1 CALLDATALOAD SWAP3 PUSH1 0x20 SWAP1 SWAP2 ADD CALLDATALOAD SWAP2 POP JUMP JUMPDEST PUSH0 PUSH1 0x20 DUP3 DUP5 SUB SLT ISZERO PUSH2 0x3A60 JUMPI PUSH0 DUP1 REVERT JUMPDEST DUP2 CALLDATALOAD PUSH2 0x3808 DUP2 PUSH2 0x3983 JUMP JUMPDEST PUSH0 DUP1 PUSH0 PUSH1 0x60 DUP5 DUP7 SUB SLT ISZERO PUSH2 0x3A7D JUMPI PUSH0 DUP1 REVERT JUMPDEST DUP4 CALLDATALOAD PUSH2 0x3A88 DUP2 PUSH2 0x3983 JUMP JUMPDEST SWAP3 POP PUSH1 0x20 DUP5 ADD CALLDATALOAD PUSH2 0x3A98 DUP2 PUSH2 0x3983 JUMP JUMPDEST SWAP3 SWAP6 SWAP3 SWAP5 POP POP POP PUSH1 0x40 SWAP2 SWAP1 SWAP2 ADD CALLDATALOAD SWAP1 JUMP JUMPDEST PUSH4 0x4E487B71 PUSH1 0xE0 SHL PUSH0 MSTORE PUSH1 0x41 PUSH1 0x4 MSTORE PUSH1 0x24 PUSH0 REVERT JUMPDEST PUSH1 0x40 MLOAD PUSH1 0x1F DUP3 ADD PUSH1 0x1F NOT AND DUP2 ADD PUSH8 0xFFFFFFFFFFFFFFFF DUP2 GT DUP3 DUP3 LT OR ISZERO PUSH2 0x3AE6 JUMPI PUSH2 0x3AE6 PUSH2 0x3AA9 JUMP JUMPDEST PUSH1 0x40 MSTORE SWAP2 SWAP1 POP JUMP JUMPDEST PUSH0 PUSH8 0xFFFFFFFFFFFFFFFF DUP3 GT ISZERO PUSH2 0x3B07 JUMPI PUSH2 0x3B07 PUSH2 0x3AA9 JUMP JUMPDEST POP PUSH1 0x5 SHL PUSH1 0x20 ADD SWAP1 JUMP JUMPDEST PUSH0 DUP3 PUSH1 0x1F DUP4 ADD SLT PUSH2 0x3B20 JUMPI PUSH0 DUP1 REVERT JUMPDEST DUP2 CALLDATALOAD PUSH8 0xFFFFFFFFFFFFFFFF DUP2 GT ISZERO PUSH2 0x3B3A JUMPI PUSH2 0x3B3A PUSH2 0x3AA9 JUMP JUMPDEST PUSH2 0x3B4D PUSH1 0x1F DUP3 ADD PUSH1 0x1F NOT AND PUSH1 0x20 ADD PUSH2 0x3ABD JUMP JUMPDEST DUP2 DUP2 MSTORE DUP5 PUSH1 0x20 DUP4 DUP7 ADD ADD GT ISZERO PUSH2 0x3B61 JUMPI PUSH0 DUP1 REVERT JUMPDEST DUP2 PUSH1 0x20 DUP6 ADD PUSH1 0x20 DUP4 ADD CALLDATACOPY PUSH0 SWAP2 DUP2 ADD PUSH1 0x20 ADD SWAP2 SWAP1 SWAP2 MSTORE SWAP4 SWAP3 POP POP POP JUMP JUMPDEST PUSH0 DUP3 PUSH1 0x1F DUP4 ADD SLT PUSH2 0x3B8C JUMPI PUSH0 DUP1 REVERT JUMPDEST DUP2 CALLDATALOAD PUSH1 0x20 PUSH2 0x3BA1 PUSH2 0x3B9C DUP4 PUSH2 0x3AEE JUMP JUMPDEST PUSH2 0x3ABD JUMP JUMPDEST DUP3 DUP2 MSTORE PUSH1 0x5 SWAP3 SWAP1 SWAP3 SHL DUP5 ADD DUP2 ADD SWAP2 DUP2 DUP2 ADD SWAP1 DUP7 DUP5 GT ISZERO PUSH2 0x3BBF JUMPI PUSH0 DUP1 REVERT JUMPDEST DUP3 DUP7 ADD JUMPDEST DUP5 DUP2 LT ISZERO PUSH2 0x3BDA JUMPI DUP1 CALLDATALOAD DUP4 MSTORE SWAP2 DUP4 ADD SWAP2 DUP4 ADD PUSH2 0x3BC3 JUMP JUMPDEST POP SWAP7 SWAP6 POP POP POP POP POP POP JUMP JUMPDEST PUSH0 DUP1 PUSH0 DUP1 PUSH1 0x80 DUP6 DUP8 SUB SLT ISZERO PUSH2 0x3BF8 JUMPI PUSH0 DUP1 REVERT JUMPDEST DUP5 CALLDATALOAD PUSH8 0xFFFFFFFFFFFFFFFF DUP1 DUP3 GT ISZERO PUSH2 0x3C0F JUMPI PUSH0 DUP1 REVERT JUMPDEST DUP2 DUP8 ADD SWAP2 POP DUP8 PUSH1 0x1F DUP4 ADD SLT PUSH2 0x3C22 JUMPI PUSH0 DUP1 REVERT JUMPDEST DUP2 CALLDATALOAD PUSH1 0x20 PUSH2 0x3C32 PUSH2 0x3B9C DUP4 PUSH2 0x3AEE JUMP JUMPDEST DUP3 DUP2 MSTORE PUSH1 0x5 SWAP3 SWAP1 SWAP3 SHL DUP5 ADD DUP2 ADD SWAP2 DUP2 DUP2 ADD SWAP1 DUP12 DUP5 GT ISZERO PUSH2 0x3C50 JUMPI PUSH0 DUP1 REVERT JUMPDEST DUP3 DUP7 ADD JUMPDEST DUP5 DUP2 LT ISZERO PUSH2 0x3C87 JUMPI DUP1 CALLDATALOAD DUP7 DUP2 GT ISZERO PUSH2 0x3C6B JUMPI PUSH0 DUP1 DUP2 REVERT JUMPDEST PUSH2 0x3C79 DUP15 DUP7 DUP4 DUP12 ADD ADD PUSH2 0x3B11 JUMP JUMPDEST DUP5 MSTORE POP SWAP2 DUP4 ADD SWAP2 DUP4 ADD PUSH2 0x3C54 JUMP JUMPDEST POP SWAP9 POP POP DUP9 ADD CALLDATALOAD SWAP3 POP POP DUP1 DUP3 GT ISZERO PUSH2 0x3C9D JUMPI PUSH0 DUP1 REVERT JUMPDEST POP PUSH2 0x3CAA DUP8 DUP3 DUP9 ADD PUSH2 0x3B7D JUMP JUMPDEST SWAP4 POP POP PUSH2 0x3CB9 PUSH1 0x40 DUP7 ADD PUSH2 0x3997 JUMP JUMPDEST SWAP4 SWAP7 SWAP3 SWAP6 POP SWAP3 SWAP4 PUSH1 0x60 ADD CALLDATALOAD SWAP3 POP POP JUMP JUMPDEST PUSH0 DUP1 PUSH0 PUSH1 0x60 DUP5 DUP7 SUB SLT ISZERO PUSH2 0x3CDB JUMPI PUSH0 DUP1 REVERT JUMPDEST DUP4 CALLDATALOAD PUSH2 0x3CE6 DUP2 PUSH2 0x3983 JUMP JUMPDEST SWAP3 POP PUSH1 0x20 DUP5 ADD CALLDATALOAD PUSH8 0xFFFFFFFFFFFFFFFF DUP1 DUP3 GT ISZERO PUSH2 0x3D02 JUMPI PUSH0 DUP1 REVERT JUMPDEST PUSH2 0x3D0E DUP8 DUP4 DUP9 ADD PUSH2 0x3B7D JUMP JUMPDEST SWAP4 POP PUSH1 0x40 DUP7 ADD CALLDATALOAD SWAP2 POP DUP1 DUP3 GT ISZERO PUSH2 0x3D23 JUMPI PUSH0 DUP1 REVERT JUMPDEST POP PUSH2 0x3D30 DUP7 DUP3 DUP8 ADD PUSH2 0x3B11 JUMP JUMPDEST SWAP2 POP POP SWAP3 POP SWAP3 POP SWAP3 JUMP JUMPDEST PUSH0 DUP1 PUSH1 0x40 DUP4 DUP6 SUB SLT ISZERO PUSH2 0x3D4B JUMPI PUSH0 DUP1 REVERT JUMPDEST DUP3 CALLDATALOAD PUSH2 0x3D56 DUP2 PUSH2 0x3983 JUMP JUMPDEST SWAP2 POP PUSH1 0x20 DUP4 ADD CALLDATALOAD PUSH2 0x3D66 DUP2 PUSH2 0x3983 JUMP JUMPDEST DUP1 SWAP2 POP POP SWAP3 POP SWAP3 SWAP1 POP JUMP JUMPDEST PUSH4 0x4E487B71 PUSH1 0xE0 SHL PUSH0 MSTORE PUSH1 0x11 PUSH1 0x4 MSTORE PUSH1 0x24 PUSH0 REVERT JUMPDEST DUP2 DUP2 SUB DUP2 DUP2 GT ISZERO PUSH2 0xD07 JUMPI PUSH2 0xD07 PUSH2 0x3D71 JUMP JUMPDEST PUSH1 0xFF DUP3 DUP2 AND DUP3 DUP3 AND SUB SWAP1 DUP2 GT ISZERO PUSH2 0xD07 JUMPI PUSH2 0xD07 PUSH2 0x3D71 JUMP JUMPDEST PUSH1 0x1 DUP2 DUP2 JUMPDEST DUP1 DUP6 GT ISZERO PUSH2 0x3DEB JUMPI DUP2 PUSH0 NOT DIV DUP3 GT ISZERO PUSH2 0x3DD1 JUMPI PUSH2 0x3DD1 PUSH2 0x3D71 JUMP JUMPDEST DUP1 DUP6 AND ISZERO PUSH2 0x3DDE JUMPI SWAP2 DUP2 MUL SWAP2 JUMPDEST SWAP4 DUP5 SHR SWAP4 SWAP1 DUP1 MUL SWAP1 PUSH2 0x3DB6 JUMP JUMPDEST POP SWAP3 POP SWAP3 SWAP1 POP JUMP JUMPDEST PUSH0 DUP3 PUSH2 0x3E01 JUMPI POP PUSH1 0x1 PUSH2 0xD07 JUMP JUMPDEST DUP2 PUSH2 0x3E0D JUMPI POP PUSH0 PUSH2 0xD07 JUMP JUMPDEST DUP2 PUSH1 0x1 DUP2 EQ PUSH2 0x3E23 JUMPI PUSH1 0x2 DUP2 EQ PUSH2 0x3E2D JUMPI PUSH2 0x3E49 JUMP JUMPDEST PUSH1 0x1 SWAP2 POP POP PUSH2 0xD07 JUMP JUMPDEST PUSH1 0xFF DUP5 GT ISZERO PUSH2 0x3E3E JUMPI PUSH2 0x3E3E PUSH2 0x3D71 JUMP JUMPDEST POP POP PUSH1 0x1 DUP3 SHL PUSH2 0xD07 JUMP JUMPDEST POP PUSH1 0x20 DUP4 LT PUSH2 0x133 DUP4 LT AND PUSH1 0x4E DUP5 LT PUSH1 0xB DUP5 LT AND OR ISZERO PUSH2 0x3E6C JUMPI POP DUP2 DUP2 EXP PUSH2 0xD07 JUMP JUMPDEST PUSH2 0x3E76 DUP4 DUP4 PUSH2 0x3DB1 JUMP JUMPDEST DUP1 PUSH0 NOT DIV DUP3 GT ISZERO PUSH2 0x3E89 JUMPI PUSH2 0x3E89 PUSH2 0x3D71 JUMP JUMPDEST MUL SWAP4 SWAP3 POP POP POP JUMP JUMPDEST PUSH0 PUSH2 0x3808 PUSH1 0xFF DUP5 AND DUP4 PUSH2 0x3DF3 JUMP JUMPDEST DUP1 DUP3 MUL DUP2 ISZERO DUP3 DUP3 DIV DUP5 EQ OR PUSH2 0xD07 JUMPI PUSH2 0xD07 PUSH2 0x3D71 JUMP JUMPDEST DUP1 DUP3 ADD DUP1 DUP3 GT ISZERO PUSH2 0xD07 JUMPI PUSH2 0xD07 PUSH2 0x3D71 JUMP JUMPDEST PUSH4 0x4E487B71 PUSH1 0xE0 SHL PUSH0 MSTORE PUSH1 0x32 PUSH1 0x4 MSTORE PUSH1 0x24 PUSH0 REVERT JUMPDEST PUSH0 PUSH1 0x1 DUP3 ADD PUSH2 0x3EEE JUMPI PUSH2 0x3EEE PUSH2 0x3D71 JUMP JUMPDEST POP PUSH1 0x1 ADD SWAP1 JUMP JUMPDEST PUSH1 0x20 DUP1 DUP3 MSTORE DUP2 DUP2 ADD MSTORE PUSH32 0x4F776E61626C653A2063616C6C6572206973206E6F7420746865206F776E6572 PUSH1 0x40 DUP3 ADD MSTORE PUSH1 0x60 ADD SWAP1 JUMP JUMPDEST PUSH0 DUP3 MLOAD PUSH2 0x3F3B DUP2 DUP5 PUSH1 0x20 DUP8 ADD PUSH2 0x39D1 JUMP JUMPDEST SWAP2 SWAP1 SWAP2 ADD SWAP3 SWAP2 POP POP JUMP JUMPDEST PUSH1 0x20 DUP1 DUP3 MSTORE PUSH1 0x24 SWAP1 DUP3 ADD MSTORE PUSH32 0x42616C616E636520646F6573206E6F74206861766520656E6F75676820506F74 PUSH1 0x40 DUP3 ADD MSTORE PUSH4 0x696F6E73 PUSH1 0xE0 SHL PUSH1 0x60 DUP3 ADD MSTORE PUSH1 0x80 ADD SWAP1 JUMP JUMPDEST PUSH0 PUSH1 0x20 DUP3 DUP5 SUB SLT ISZERO PUSH2 0x3F99 JUMPI PUSH0 DUP1 REVERT JUMPDEST DUP2 MLOAD PUSH2 0x3808 DUP2 PUSH2 0x3983 JUMP JUMPDEST PUSH0 DUP1 PUSH0 PUSH1 0x60 DUP5 DUP7 SUB SLT ISZERO PUSH2 0x3FB6 JUMPI PUSH0 DUP1 REVERT JUMPDEST DUP4 MLOAD SWAP3 POP PUSH1 0x20 DUP5 ADD MLOAD SWAP2 POP PUSH1 0x40 DUP5 ADD MLOAD SWAP1 POP SWAP3 POP SWAP3 POP SWAP3 JUMP JUMPDEST PUSH0 DUP3 PUSH2 0x3FE9 JUMPI PUSH4 0x4E487B71 PUSH1 0xE0 SHL PUSH0 MSTORE PUSH1 0x12 PUSH1 0x4 MSTORE PUSH1 0x24 PUSH0 REVERT JUMPDEST POP DIV SWAP1 JUMP JUMPDEST PUSH1 0x60 DUP2 MSTORE PUSH0 PUSH2 0x4000 PUSH1 0x60 DUP4 ADD DUP7 PUSH2 0x39F3 JUMP JUMPDEST PUSH1 0x20 DUP4 ADD SWAP5 SWAP1 SWAP5 MSTORE POP PUSH1 0x40 ADD MSTORE SWAP2 SWAP1 POP JUMP JUMPDEST PUSH1 0x20 DUP1 DUP3 MSTORE PUSH1 0x21 SWAP1 DUP3 ADD MSTORE PUSH32 0x42616C616E636520646F6573206E6F74206861766520656E6F7567682048474D PUSH1 0x40 DUP3 ADD MSTORE PUSH1 0x53 PUSH1 0xF8 SHL PUSH1 0x60 DUP3 ADD MSTORE PUSH1 0x80 ADD SWAP1 JUMP JUMPDEST PUSH1 0x20 DUP1 DUP3 MSTORE DUP2 DUP2 ADD MSTORE PUSH32 0x42616C616E636520646F6573206E6F74206861766520656E6F75676820455448 PUSH1 0x40 DUP3 ADD MSTORE PUSH1 0x60 ADD SWAP1 JUMP JUMPDEST PUSH0 PUSH1 0xA0 DUP3 ADD DUP8 DUP4 MSTORE PUSH1 0x20 DUP8 DUP2 DUP6 ADD MSTORE PUSH1 0xA0 PUSH1 0x40 DUP6 ADD MSTORE DUP2 DUP8 MLOAD DUP1 DUP5 MSTORE PUSH1 0xC0 DUP7 ADD SWAP2 POP DUP3 DUP10 ADD SWAP4 POP PUSH0 JUMPDEST DUP2 DUP2 LT ISZERO PUSH2 0x40D6 JUMPI DUP5 MLOAD PUSH1 0x1 PUSH1 0x1 PUSH1 0xA0 SHL SUB AND DUP4 MSTORE SWAP4 DUP4 ADD SWAP4 SWAP2 DUP4 ADD SWAP2 PUSH1 0x1 ADD PUSH2 0x40B1 JUMP JUMPDEST POP POP PUSH1 0x1 PUSH1 0x1 PUSH1 0xA0 SHL SUB SWAP7 SWAP1 SWAP7 AND PUSH1 0x60 DUP6 ADD MSTORE POP POP POP PUSH1 0x80 ADD MSTORE SWAP4 SWAP3 POP POP POP JUMP INVALID GASLIMIT MSTORE NUMBER ORIGIN ADDRESS GASPRICE KECCAK256 PUSH21 0x72616E7366657220616D6F756E7420657863656564 PUSH20 0x20616C6C6F77616E6365A2646970667358221220 SELFDESTRUCT CODESIZE 0xC 0x29 DUP13 SWAP15 PUSH1 0x99 XOR 0xE0 0xDF JUMPI RETURNDATACOPY ADDMOD PUSH20 0xB0A47F3B50AD0DE2C442A2467DAE02EC9164736F PUSH13 0x63430008150033000000000000 "
		},
		"gasEstimates": {
			"creation": {
				"codeDepositCost": "3345000",
				"executionCost": "infinite",
				"totalCost": "infinite"
			},
			"external": {
				"BOOSTPriceETH()": "2360",
				"BOOSTPriceHGMS()": "2448",
				"BOOSTShopBalances(address)": "2621",
				"ManualSwap()": "infinite",
				"NFTBOOSTBalance(uint256)": "2506",
				"NFTSKIPBalance(uint256)": "2503",
				"NFTVBalance(uint256)": "2525",
				"NFTXTRABalance(uint256)": "2524",
				"SKIPPriceETH()": "2428",
				"SKIPPriceHGMS()": "2405",
				"SKIPShopBalances(address)": "2643",
				"VPriceETH()": "2407",
				"VPriceHGMS()": "2405",
				"VShopBalances(address)": "2622",
				"XTRAPriceETH()": "2385",
				"XTRAPriceHGMS()": "2384",
				"XTRAShopBalances(address)": "2644",
				"_battleContract()": "2425",
				"_devWallet()": "2471",
				"_maintenanceWallet()": "2448",
				"_marketWallet()": "2447",
				"_maxTaxSwap()": "2407",
				"_maxTxAmount()": "2362",
				"_maxWalletSize()": "2428",
				"_taxSwapThreshold()": "2362",
				"_teamWallet()": "2470",
				"addLiquidity()": "infinite",
				"allowance(address,address)": "infinite",
				"applyPotion(address,uint256[],string)": "infinite",
				"approve(address,uint256)": "24668",
				"balanceOf(address)": "2619",
				"buyPotion(string[],uint256[],address,uint256)": "infinite",
				"decimals()": "266",
				"depositToShop(uint256,uint256)": "infinite",
				"emergencyTaxAt()": "infinite",
				"ethShopBalances(address)": "2643",
				"getNFTBOOSTBalance(uint256)": "2504",
				"getNFTSKIPBalance(uint256)": "2591",
				"getNFTVBalance(uint256)": "2526",
				"getNFTXTRABalance(uint256)": "2571",
				"hgmsShopBalances(address)": "2579",
				"manualSend()": "infinite",
				"name()": "infinite",
				"openTrading()": "28728",
				"owner()": "2441",
				"payoutWinners(address,uint256)": "infinite",
				"potionsUsed(uint256)": "2524",
				"removeLimits()": "76182",
				"removePotions(uint256,uint256)": "198039",
				"renounceOwnership()": "30274",
				"setBOOSTPrice(uint256,uint256)": "infinite",
				"setBattleContract(address)": "26794",
				"setSKIPPrice(uint256,uint256)": "infinite",
				"setVPrice(uint256,uint256)": "infinite",
				"setXTRAPrice(uint256,uint256)": "infinite",
				"symbol()": "infinite",
				"totalBOOST()": "2363",
				"totalSKIP()": "2384",
				"totalSupply()": "2359",
				"totalV()": "2406",
				"totalXTRA()": "2406",
				"transfer(address,uint256)": "infinite",
				"transferDelayEnabled()": "2449",
				"transferFrom(address,address,uint256)": "infinite",
				"withdrawStuckETH()": "infinite",
				"withdrawTokens(address,uint256)": "infinite"
			},
			"internal": {
				"_approve(address,address,uint256)": "infinite",
				"_burn(address,uint256)": "infinite",
				"_removeLimits()": "infinite",
				"_transfer(address,address,uint256)": "infinite",
				"min(uint256,uint256)": "60",
				"processOrder(string memory,uint256,address)": "infinite",
				"processOrderWithoutCharges(string memory,uint256,address)": "infinite",
				"processPotionCounts(string memory,uint256)": "infinite",
				"sendETHToFee(uint256)": "infinite",
				"swapTokensForEth(uint256)": "infinite"
			}
		},
		"methodIdentifiers": {
			"BOOSTPriceETH()": "f2b4c325",
			"BOOSTPriceHGMS()": "f7685a02",
			"BOOSTShopBalances(address)": "d677d03e",
			"ManualSwap()": "a1780c18",
			"NFTBOOSTBalance(uint256)": "039aa9cf",
			"NFTSKIPBalance(uint256)": "54ca45d8",
			"NFTVBalance(uint256)": "580a155a",
			"NFTXTRABalance(uint256)": "f3a395fc",
			"SKIPPriceETH()": "21e09b34",
			"SKIPPriceHGMS()": "66b6090f",
			"SKIPShopBalances(address)": "f2a6227f",
			"VPriceETH()": "298a8328",
			"VPriceHGMS()": "eb77dbb1",
			"VShopBalances(address)": "c232ae4d",
			"XTRAPriceETH()": "24aede52",
			"XTRAPriceHGMS()": "19dde7b7",
			"XTRAShopBalances(address)": "52d3c14e",
			"_battleContract()": "ce9dc805",
			"_devWallet()": "11a63e17",
			"_maintenanceWallet()": "51a2f687",
			"_marketWallet()": "bbab0ff1",
			"_maxTaxSwap()": "0faee56f",
			"_maxTxAmount()": "7d1db4a5",
			"_maxWalletSize()": "8f9a55c0",
			"_taxSwapThreshold()": "bf474bed",
			"_teamWallet()": "37e294d5",
			"addLiquidity()": "e8078d94",
			"allowance(address,address)": "dd62ed3e",
			"applyPotion(address,uint256[],string)": "81cd58e5",
			"approve(address,uint256)": "095ea7b3",
			"balanceOf(address)": "70a08231",
			"buyPotion(string[],uint256[],address,uint256)": "6e9fa864",
			"decimals()": "313ce567",
			"depositToShop(uint256,uint256)": "2d4bbb05",
			"emergencyTaxAt()": "0634087d",
			"ethShopBalances(address)": "be68e027",
			"getNFTBOOSTBalance(uint256)": "3b32edd4",
			"getNFTSKIPBalance(uint256)": "6e2ed3c4",
			"getNFTVBalance(uint256)": "c1ae5e72",
			"getNFTXTRABalance(uint256)": "2ace2af5",
			"hgmsShopBalances(address)": "0d2d697a",
			"manualSend()": "f4293890",
			"name()": "06fdde03",
			"openTrading()": "c9567bf9",
			"owner()": "8da5cb5b",
			"payoutWinners(address,uint256)": "af95d4d3",
			"potionsUsed(uint256)": "eb429bf8",
			"removeLimits()": "751039fc",
			"removePotions(uint256,uint256)": "09eadbf5",
			"renounceOwnership()": "715018a6",
			"setBOOSTPrice(uint256,uint256)": "6a4d84f9",
			"setBattleContract(address)": "0db6dff7",
			"setSKIPPrice(uint256,uint256)": "0c0e3d4a",
			"setVPrice(uint256,uint256)": "abb284e9",
			"setXTRAPrice(uint256,uint256)": "8fbd8f27",
			"symbol()": "95d89b41",
			"totalBOOST()": "08150133",
			"totalSKIP()": "3e713060",
			"totalSupply()": "18160ddd",
			"totalV()": "1cc34b98",
			"totalXTRA()": "3520b3a4",
			"transfer(address,uint256)": "a9059cbb",
			"transferDelayEnabled()": "c876d0b9",
			"transferFrom(address,address,uint256)": "23b872dd",
			"withdrawStuckETH()": "f5648a4f",
			"withdrawTokens(address,uint256)": "06b091f9"
		}
	},
	"abi": [
		{
			"inputs": [],
			"stateMutability": "nonpayable",
			"type": "constructor"
		},
		{
			"anonymous": false,
			"inputs": [
				{
					"indexed": true,
					"internalType": "address",
					"name": "owner",
					"type": "address"
				},
				{
					"indexed": true,
					"internalType": "address",
					"name": "spender",
					"type": "address"
				},
				{
					"indexed": false,
					"internalType": "uint256",
					"name": "value",
					"type": "uint256"
				}
			],
			"name": "Approval",
			"type": "event"
		},
		{
			"anonymous": false,
			"inputs": [
				{
					"indexed": true,
					"internalType": "address",
					"name": "account",
					"type": "address"
				},
				{
					"indexed": false,
					"internalType": "uint256",
					"name": "amount",
					"type": "uint256"
				}
			],
			"name": "Burn",
			"type": "event"
		},
		{
			"anonymous": false,
			"inputs": [],
			"name": "Deposit",
			"type": "event"
		},
		{
			"anonymous": false,
			"inputs": [
				{
					"indexed": false,
					"internalType": "uint256",
					"name": "_maxTxAmount",
					"type": "uint256"
				}
			],
			"name": "MaxTxAmountUpdated",
			"type": "event"
		},
		{
			"anonymous": false,
			"inputs": [
				{
					"indexed": true,
					"internalType": "address",
					"name": "previousOwner",
					"type": "address"
				},
				{
					"indexed": true,
					"internalType": "address",
					"name": "newOwner",
					"type": "address"
				}
			],
			"name": "OwnershipTransferred",
			"type": "event"
		},
		{
			"anonymous": false,
			"inputs": [
				{
					"indexed": true,
					"internalType": "address",
					"name": "buyer",
					"type": "address"
				},
				{
					"indexed": true,
					"internalType": "address",
					"name": "shopOwner",
					"type": "address"
				},
				{
					"indexed": false,
					"internalType": "string",
					"name": "potionName",
					"type": "string"
				},
				{
					"indexed": false,
					"internalType": "uint256",
					"name": "ethAmount",
					"type": "uint256"
				},
				{
					"indexed": false,
					"internalType": "uint256",
					"name": "hgmsAmount",
					"type": "uint256"
				}
			],
			"name": "PotionPurchased",
			"type": "event"
		},
		{
			"anonymous": false,
			"inputs": [
				{
					"indexed": false,
					"internalType": "uint256",
					"name": "nftId1",
					"type": "uint256"
				},
				{
					"indexed": false,
					"internalType": "uint256",
					"name": "nftId2",
					"type": "uint256"
				}
			],
			"name": "PotionsRemoved",
			"type": "event"
		},
		{
			"anonymous": false,
			"inputs": [
				{
					"indexed": true,
					"internalType": "address",
					"name": "from",
					"type": "address"
				},
				{
					"indexed": true,
					"internalType": "address",
					"name": "to",
					"type": "address"
				},
				{
					"indexed": false,
					"internalType": "uint256",
					"name": "value",
					"type": "uint256"
				}
			],
			"name": "Transfer",
			"type": "event"
		},
		{
			"inputs": [],
			"name": "BOOSTPriceETH",
			"outputs": [
				{
					"internalType": "uint256",
					"name": "",
					"type": "uint256"
				}
			],
			"stateMutability": "view",
			"type": "function"
		},
		{
			"inputs": [],
			"name": "BOOSTPriceHGMS",
			"outputs": [
				{
					"internalType": "uint256",
					"name": "",
					"type": "uint256"
				}
			],
			"stateMutability": "view",
			"type": "function"
		},
		{
			"inputs": [
				{
					"internalType": "address",
					"name": "",
					"type": "address"
				}
			],
			"name": "BOOSTShopBalances",
			"outputs": [
				{
					"internalType": "uint256",
					"name": "",
					"type": "uint256"
				}
			],
			"stateMutability": "view",
			"type": "function"
		},
		{
			"inputs": [],
			"name": "ManualSwap",
			"outputs": [],
			"stateMutability": "nonpayable",
			"type": "function"
		},
		{
			"inputs": [
				{
					"internalType": "uint256",
					"name": "",
					"type": "uint256"
				}
			],
			"name": "NFTBOOSTBalance",
			"outputs": [
				{
					"internalType": "bool",
					"name": "",
					"type": "bool"
				}
			],
			"stateMutability": "view",
			"type": "function"
		},
		{
			"inputs": [
				{
					"internalType": "uint256",
					"name": "",
					"type": "uint256"
				}
			],
			"name": "NFTSKIPBalance",
			"outputs": [
				{
					"internalType": "bool",
					"name": "",
					"type": "bool"
				}
			],
			"stateMutability": "view",
			"type": "function"
		},
		{
			"inputs": [
				{
					"internalType": "uint256",
					"name": "",
					"type": "uint256"
				}
			],
			"name": "NFTVBalance",
			"outputs": [
				{
					"internalType": "bool",
					"name": "",
					"type": "bool"
				}
			],
			"stateMutability": "view",
			"type": "function"
		},
		{
			"inputs": [
				{
					"internalType": "uint256",
					"name": "",
					"type": "uint256"
				}
			],
			"name": "NFTXTRABalance",
			"outputs": [
				{
					"internalType": "bool",
					"name": "",
					"type": "bool"
				}
			],
			"stateMutability": "view",
			"type": "function"
		},
		{
			"inputs": [],
			"name": "SKIPPriceETH",
			"outputs": [
				{
					"internalType": "uint256",
					"name": "",
					"type": "uint256"
				}
			],
			"stateMutability": "view",
			"type": "function"
		},
		{
			"inputs": [],
			"name": "SKIPPriceHGMS",
			"outputs": [
				{
					"internalType": "uint256",
					"name": "",
					"type": "uint256"
				}
			],
			"stateMutability": "view",
			"type": "function"
		},
		{
			"inputs": [
				{
					"internalType": "address",
					"name": "",
					"type": "address"
				}
			],
			"name": "SKIPShopBalances",
			"outputs": [
				{
					"internalType": "uint256",
					"name": "",
					"type": "uint256"
				}
			],
			"stateMutability": "view",
			"type": "function"
		},
		{
			"inputs": [],
			"name": "VPriceETH",
			"outputs": [
				{
					"internalType": "uint256",
					"name": "",
					"type": "uint256"
				}
			],
			"stateMutability": "view",
			"type": "function"
		},
		{
			"inputs": [],
			"name": "VPriceHGMS",
			"outputs": [
				{
					"internalType": "uint256",
					"name": "",
					"type": "uint256"
				}
			],
			"stateMutability": "view",
			"type": "function"
		},
		{
			"inputs": [
				{
					"internalType": "address",
					"name": "",
					"type": "address"
				}
			],
			"name": "VShopBalances",
			"outputs": [
				{
					"internalType": "uint256",
					"name": "",
					"type": "uint256"
				}
			],
			"stateMutability": "view",
			"type": "function"
		},
		{
			"inputs": [],
			"name": "XTRAPriceETH",
			"outputs": [
				{
					"internalType": "uint256",
					"name": "",
					"type": "uint256"
				}
			],
			"stateMutability": "view",
			"type": "function"
		},
		{
			"inputs": [],
			"name": "XTRAPriceHGMS",
			"outputs": [
				{
					"internalType": "uint256",
					"name": "",
					"type": "uint256"
				}
			],
			"stateMutability": "view",
			"type": "function"
		},
		{
			"inputs": [
				{
					"internalType": "address",
					"name": "",
					"type": "address"
				}
			],
			"name": "XTRAShopBalances",
			"outputs": [
				{
					"internalType": "uint256",
					"name": "",
					"type": "uint256"
				}
			],
			"stateMutability": "view",
			"type": "function"
		},
		{
			"inputs": [],
			"name": "_battleContract",
			"outputs": [
				{
					"internalType": "address",
					"name": "",
					"type": "address"
				}
			],
			"stateMutability": "view",
			"type": "function"
		},
		{
			"inputs": [],
			"name": "_devWallet",
			"outputs": [
				{
					"internalType": "address payable",
					"name": "",
					"type": "address"
				}
			],
			"stateMutability": "view",
			"type": "function"
		},
		{
			"inputs": [],
			"name": "_maintenanceWallet",
			"outputs": [
				{
					"internalType": "address payable",
					"name": "",
					"type": "address"
				}
			],
			"stateMutability": "view",
			"type": "function"
		},
		{
			"inputs": [],
			"name": "_marketWallet",
			"outputs": [
				{
					"internalType": "address payable",
					"name": "",
					"type": "address"
				}
			],
			"stateMutability": "view",
			"type": "function"
		},
		{
			"inputs": [],
			"name": "_maxTaxSwap",
			"outputs": [
				{
					"internalType": "uint256",
					"name": "",
					"type": "uint256"
				}
			],
			"stateMutability": "view",
			"type": "function"
		},
		{
			"inputs": [],
			"name": "_maxTxAmount",
			"outputs": [
				{
					"internalType": "uint256",
					"name": "",
					"type": "uint256"
				}
			],
			"stateMutability": "view",
			"type": "function"
		},
		{
			"inputs": [],
			"name": "_maxWalletSize",
			"outputs": [
				{
					"internalType": "uint256",
					"name": "",
					"type": "uint256"
				}
			],
			"stateMutability": "view",
			"type": "function"
		},
		{
			"inputs": [],
			"name": "_taxSwapThreshold",
			"outputs": [
				{
					"internalType": "uint256",
					"name": "",
					"type": "uint256"
				}
			],
			"stateMutability": "view",
			"type": "function"
		},
		{
			"inputs": [],
			"name": "_teamWallet",
			"outputs": [
				{
					"internalType": "address payable",
					"name": "",
					"type": "address"
				}
			],
			"stateMutability": "view",
			"type": "function"
		},
		{
			"inputs": [],
			"name": "addLiquidity",
			"outputs": [],
			"stateMutability": "nonpayable",
			"type": "function"
		},
		{
			"inputs": [
				{
					"internalType": "address",
					"name": "owner",
					"type": "address"
				},
				{
					"internalType": "address",
					"name": "spender",
					"type": "address"
				}
			],
			"name": "allowance",
			"outputs": [
				{
					"internalType": "uint256",
					"name": "",
					"type": "uint256"
				}
			],
			"stateMutability": "view",
			"type": "function"
		},
		{
			"inputs": [
				{
					"internalType": "address",
					"name": "shopOwner",
					"type": "address"
				},
				{
					"internalType": "uint256[]",
					"name": "NFTId",
					"type": "uint256[]"
				},
				{
					"internalType": "string",
					"name": "potionName",
					"type": "string"
				}
			],
			"name": "applyPotion",
			"outputs": [],
			"stateMutability": "nonpayable",
			"type": "function"
		},
		{
			"inputs": [
				{
					"internalType": "address",
					"name": "spender",
					"type": "address"
				},
				{
					"internalType": "uint256",
					"name": "amount",
					"type": "uint256"
				}
			],
			"name": "approve",
			"outputs": [
				{
					"internalType": "bool",
					"name": "",
					"type": "bool"
				}
			],
			"stateMutability": "nonpayable",
			"type": "function"
		},
		{
			"inputs": [
				{
					"internalType": "address",
					"name": "account",
					"type": "address"
				}
			],
			"name": "balanceOf",
			"outputs": [
				{
					"internalType": "uint256",
					"name": "",
					"type": "uint256"
				}
			],
			"stateMutability": "view",
			"type": "function"
		},
		{
			"inputs": [
				{
					"internalType": "string[]",
					"name": "potionNames",
					"type": "string[]"
				},
				{
					"internalType": "uint256[]",
					"name": "amounts",
					"type": "uint256[]"
				},
				{
					"internalType": "address",
					"name": "shopOwner",
					"type": "address"
				},
				{
					"internalType": "uint256",
					"name": "bonusLength",
					"type": "uint256"
				}
			],
			"name": "buyPotion",
			"outputs": [],
			"stateMutability": "nonpayable",
			"type": "function"
		},
		{
			"inputs": [],
			"name": "decimals",
			"outputs": [
				{
					"internalType": "uint8",
					"name": "",
					"type": "uint8"
				}
			],
			"stateMutability": "pure",
			"type": "function"
		},
		{
			"inputs": [
				{
					"internalType": "uint256",
					"name": "hgmsAmount",
					"type": "uint256"
				},
				{
					"internalType": "uint256",
					"name": "ethAmount",
					"type": "uint256"
				}
			],
			"name": "depositToShop",
			"outputs": [],
			"stateMutability": "payable",
			"type": "function"
		},
		{
			"inputs": [],
			"name": "emergencyTaxAt",
			"outputs": [],
			"stateMutability": "nonpayable",
			"type": "function"
		},
		{
			"inputs": [
				{
					"internalType": "address",
					"name": "",
					"type": "address"
				}
			],
			"name": "ethShopBalances",
			"outputs": [
				{
					"internalType": "uint256",
					"name": "",
					"type": "uint256"
				}
			],
			"stateMutability": "view",
			"type": "function"
		},
		{
			"inputs": [
				{
					"internalType": "uint256",
					"name": "NFTId",
					"type": "uint256"
				}
			],
			"name": "getNFTBOOSTBalance",
			"outputs": [
				{
					"internalType": "bool",
					"name": "",
					"type": "bool"
				}
			],
			"stateMutability": "view",
			"type": "function"
		},
		{
			"inputs": [
				{
					"internalType": "uint256",
					"name": "NFTId",
					"type": "uint256"
				}
			],
			"name": "getNFTSKIPBalance",
			"outputs": [
				{
					"internalType": "bool",
					"name": "",
					"type": "bool"
				}
			],
			"stateMutability": "view",
			"type": "function"
		},
		{
			"inputs": [
				{
					"internalType": "uint256",
					"name": "NFTId",
					"type": "uint256"
				}
			],
			"name": "getNFTVBalance",
			"outputs": [
				{
					"internalType": "bool",
					"name": "",
					"type": "bool"
				}
			],
			"stateMutability": "view",
			"type": "function"
		},
		{
			"inputs": [
				{
					"internalType": "uint256",
					"name": "NFTId",
					"type": "uint256"
				}
			],
			"name": "getNFTXTRABalance",
			"outputs": [
				{
					"internalType": "bool",
					"name": "",
					"type": "bool"
				}
			],
			"stateMutability": "view",
			"type": "function"
		},
		{
			"inputs": [
				{
					"internalType": "address",
					"name": "",
					"type": "address"
				}
			],
			"name": "hgmsShopBalances",
			"outputs": [
				{
					"internalType": "uint256",
					"name": "",
					"type": "uint256"
				}
			],
			"stateMutability": "view",
			"type": "function"
		},
		{
			"inputs": [],
			"name": "manualSend",
			"outputs": [],
			"stateMutability": "nonpayable",
			"type": "function"
		},
		{
			"inputs": [],
			"name": "name",
			"outputs": [
				{
					"internalType": "string",
					"name": "",
					"type": "string"
				}
			],
			"stateMutability": "pure",
			"type": "function"
		},
		{
			"inputs": [],
			"name": "openTrading",
			"outputs": [],
			"stateMutability": "nonpayable",
			"type": "function"
		},
		{
			"inputs": [],
			"name": "owner",
			"outputs": [
				{
					"internalType": "address",
					"name": "",
					"type": "address"
				}
			],
			"stateMutability": "view",
			"type": "function"
		},
		{
			"inputs": [
				{
					"internalType": "address payable",
					"name": "winner",
					"type": "address"
				},
				{
					"internalType": "uint256",
					"name": "share",
					"type": "uint256"
				}
			],
			"name": "payoutWinners",
			"outputs": [],
			"stateMutability": "nonpayable",
			"type": "function"
		},
		{
			"inputs": [
				{
					"internalType": "uint256",
					"name": "",
					"type": "uint256"
				}
			],
			"name": "potionsUsed",
			"outputs": [
				{
					"internalType": "uint256",
					"name": "",
					"type": "uint256"
				}
			],
			"stateMutability": "view",
			"type": "function"
		},
		{
			"inputs": [],
			"name": "removeLimits",
			"outputs": [],
			"stateMutability": "nonpayable",
			"type": "function"
		},
		{
			"inputs": [
				{
					"internalType": "uint256",
					"name": "First",
					"type": "uint256"
				},
				{
					"internalType": "uint256",
					"name": "Second",
					"type": "uint256"
				}
			],
			"name": "removePotions",
			"outputs": [],
			"stateMutability": "nonpayable",
			"type": "function"
		},
		{
			"inputs": [],
			"name": "renounceOwnership",
			"outputs": [],
			"stateMutability": "nonpayable",
			"type": "function"
		},
		{
			"inputs": [
				{
					"internalType": "uint256",
					"name": "hgmsAmount",
					"type": "uint256"
				},
				{
					"internalType": "uint256",
					"name": "ethAmount",
					"type": "uint256"
				}
			],
			"name": "setBOOSTPrice",
			"outputs": [],
			"stateMutability": "nonpayable",
			"type": "function"
		},
		{
			"inputs": [
				{
					"internalType": "address",
					"name": "BattleContractAddress",
					"type": "address"
				}
			],
			"name": "setBattleContract",
			"outputs": [],
			"stateMutability": "nonpayable",
			"type": "function"
		},
		{
			"inputs": [
				{
					"internalType": "uint256",
					"name": "hgmsAmount",
					"type": "uint256"
				},
				{
					"internalType": "uint256",
					"name": "ethAmount",
					"type": "uint256"
				}
			],
			"name": "setSKIPPrice",
			"outputs": [],
			"stateMutability": "nonpayable",
			"type": "function"
		},
		{
			"inputs": [
				{
					"internalType": "uint256",
					"name": "hgmsAmount",
					"type": "uint256"
				},
				{
					"internalType": "uint256",
					"name": "ethAmount",
					"type": "uint256"
				}
			],
			"name": "setVPrice",
			"outputs": [],
			"stateMutability": "nonpayable",
			"type": "function"
		},
		{
			"inputs": [
				{
					"internalType": "uint256",
					"name": "hgmsAmount",
					"type": "uint256"
				},
				{
					"internalType": "uint256",
					"name": "ethAmount",
					"type": "uint256"
				}
			],
			"name": "setXTRAPrice",
			"outputs": [],
			"stateMutability": "nonpayable",
			"type": "function"
		},
		{
			"inputs": [],
			"name": "symbol",
			"outputs": [
				{
					"internalType": "string",
					"name": "",
					"type": "string"
				}
			],
			"stateMutability": "pure",
			"type": "function"
		},
		{
			"inputs": [],
			"name": "totalBOOST",
			"outputs": [
				{
					"internalType": "uint256",
					"name": "",
					"type": "uint256"
				}
			],
			"stateMutability": "view",
			"type": "function"
		},
		{
			"inputs": [],
			"name": "totalSKIP",
			"outputs": [
				{
					"internalType": "uint256",
					"name": "",
					"type": "uint256"
				}
			],
			"stateMutability": "view",
			"type": "function"
		},
		{
			"inputs": [],
			"name": "totalSupply",
			"outputs": [
				{
					"internalType": "uint256",
					"name": "",
					"type": "uint256"
				}
			],
			"stateMutability": "view",
			"type": "function"
		},
		{
			"inputs": [],
			"name": "totalV",
			"outputs": [
				{
					"internalType": "uint256",
					"name": "",
					"type": "uint256"
				}
			],
			"stateMutability": "view",
			"type": "function"
		},
		{
			"inputs": [],
			"name": "totalXTRA",
			"outputs": [
				{
					"internalType": "uint256",
					"name": "",
					"type": "uint256"
				}
			],
			"stateMutability": "view",
			"type": "function"
		},
		{
			"inputs": [
				{
					"internalType": "address",
					"name": "recipient",
					"type": "address"
				},
				{
					"internalType": "uint256",
					"name": "amount",
					"type": "uint256"
				}
			],
			"name": "transfer",
			"outputs": [
				{
					"internalType": "bool",
					"name": "",
					"type": "bool"
				}
			],
			"stateMutability": "nonpayable",
			"type": "function"
		},
		{
			"inputs": [],
			"name": "transferDelayEnabled",
			"outputs": [
				{
					"internalType": "bool",
					"name": "",
					"type": "bool"
				}
			],
			"stateMutability": "view",
			"type": "function"
		},
		{
			"inputs": [
				{
					"internalType": "address",
					"name": "sender",
					"type": "address"
				},
				{
					"internalType": "address",
					"name": "recipient",
					"type": "address"
				},
				{
					"internalType": "uint256",
					"name": "amount",
					"type": "uint256"
				}
			],
			"name": "transferFrom",
			"outputs": [
				{
					"internalType": "bool",
					"name": "",
					"type": "bool"
				}
			],
			"stateMutability": "nonpayable",
			"type": "function"
		},
		{
			"inputs": [],
			"name": "withdrawStuckETH",
			"outputs": [],
			"stateMutability": "nonpayable",
			"type": "function"
		},
		{
			"inputs": [
				{
					"internalType": "address",
					"name": "to",
					"type": "address"
				},
				{
					"internalType": "uint256",
					"name": "amount",
					"type": "uint256"
				}
			],
			"name": "withdrawTokens",
			"outputs": [],
			"stateMutability": "nonpayable",
			"type": "function"
		},
		{
			"stateMutability": "payable",
			"type": "receive"
		}
	]
}