{
	"data": {
		"bytecode": {
			"linkReferences": {},
			"object": "6080604052601480546001600160a01b03191690556019601581905560276016556005601781905560185560238155601a555f601b819055601c55620000486009600a62000432565b6200005890633b9aca0062000449565b601d55620000696009600a62000432565b62000078906298968062000449565b601e55620000896009600a62000432565b62000099906301312d0062000449565b601f55620000aa6009600a62000432565b620000b990620f424062000449565b602055620000ca6009600a62000432565b620000d9906298968062000449565b6021556127106022556127106023556127106024556127106025556003600962000104919062000463565b6200011190600a62000432565b6200011e90600262000449565b6026555f602755620001336003600962000463565b6200014090600a62000432565b6200014d90600262000449565b6028555f602955602b805462ffffff60a81b1916600160b81b17905534801562000175575f80fd5b505f80546001600160a01b031916339081178255604051909182917f8be0079c531659141344cd1fd0a4f28419497f9722a3daafe3b4186f6b6457e0908290a35033601280546001600160a01b03929092166001600160a01b031992831617905560138054821673d53c9795a9daf24fbcab45cf2df0d37145f7e0e0179055601180548216736f1f797f35ef003c3b89257971a80208c61f797617905560108054909116737034990879d4e4c0f9dade892ad641bc45dedbbf179055601d54305f9081526001602081905260408220929092556003906200025d5f546001600160a01b031690565b6001600160a01b03908116825260208083019390935260409182015f908120805495151560ff19968716179055308082526003855283822080548716600190811790915560135484168352848320805488168217905560115484168352848320805488168217905560105490931682528382208054909616831790955584815292528082205490517fddf252ad1be2c89b69c2b068fc378daa952ba7f163c4a11628f55a4df523b3ef91620003159190815260200190565b60405180910390a36200047f565b634e487b7160e01b5f52601160045260245ffd5b600181815b808511156200037757815f19048211156200035b576200035b62000323565b808516156200036957918102915b93841c93908002906200033c565b509250929050565b5f826200038f575060016200042c565b816200039d57505f6200042c565b8160018114620003b65760028114620003c157620003e1565b60019150506200042c565b60ff841115620003d557620003d562000323565b50506001821b6200042c565b5060208310610133831016604e8410600b841016171562000406575081810a6200042c565b62000412838362000337565b805f190482111562000428576200042862000323565b0290505b92915050565b5f6200044260ff8416836200037f565b9392505050565b80820281158282048414176200042c576200042c62000323565b60ff82811682821603908111156200042c576200042c62000323565b6135d2806200048d5f395ff3fe608060405260043610610373575f3560e01c8063715018a6116101c8578063bf474bed116100fd578063dd62ed3e1161009d578063f2b4c3251161006d578063f2b4c32514610ab9578063f3a395fc14610ace578063f429389014610afc578063f7685a0214610b10575f80fd5b8063dd62ed3e14610a0a578063eb429bf814610a4e578063eb77dbb114610a79578063f2a6227f14610a8e575f80fd5b8063c876d0b9116100d8578063c876d0b91461098c578063c9567bf9146109ac578063ce9dc805146109c0578063d677d03e146109df575f80fd5b8063bf474bed1461091e578063c1ae5e7214610933578063c232ae4d14610961575f80fd5b806395d89b4111610168578063a9059cbb11610143578063a9059cbb14610896578063abb284e9146108b5578063bbab0ff1146108d4578063be68e027146108f3575f80fd5b806395d89b4114610837578063a1780c1814610863578063a233900f14610877575f80fd5b806381cd58e5116101a357806381cd58e5146107c85780638da5cb5b146107e75780638f9a55c0146108035780638fbd8f2714610818575f80fd5b8063715018a61461078b578063751039fc1461079f5780637d1db4a5146107b3575f80fd5b806324aede52116102a957806351a2f6871161024957806366b6090f1161021957806366b6090f146106f55780636a4d84f91461070a5780636e2ed3c41461072957806370a0823114610757575f80fd5b806351a2f6871461064f57806352d3c14e1461066e57806354ca45d814610699578063580a155a146106c7575f80fd5b80632d4bbb05116102845780632d4bbb05146105d4578063313ce567146105e757806337e294d5146106025780633b32edd414610621575f80fd5b806324aede521461057c578063298a8328146105915780632ace2af5146105a6575f80fd5b80630db6dff71161031457806318160ddd116102ef57806318160ddd1461051f57806319dde7b71461053357806321e09b341461054857806323b872dd1461055d575f80fd5b80630db6dff7146104b45780630faee56f146104d357806311a63e17146104e8575f80fd5b806306fdde031161034f57806306fdde0314610401578063095ea7b31461043d57806309eadbf51461045c5780630d2d697a1461047b575f80fd5b80628b81851461037e578063039aa9cf1461039f57806306b091f9146103e2575f80fd5b3661037a57005b5f80fd5b348015610389575f80fd5b5061039d610398366004612ea0565b610b25565b005b3480156103aa575f80fd5b506103cd6103b9366004612ec0565b60066020525f908152604090205460ff1681565b60405190151581526020015b60405180910390f35b3480156103ed575f80fd5b5061039d6103fc366004612eeb565b610b68565b34801561040c575f80fd5b5060408051808201909152600b81526a48756e67657247616d657360a81b60208201525b6040516103d99190612f62565b348015610448575f80fd5b506103cd610457366004612eeb565b610c07565b348015610467575f80fd5b5061039d610476366004612ea0565b610c1d565b348015610486575f80fd5b506104a6610495366004612f74565b60096020525f908152604090205481565b6040519081526020016103d9565b3480156104bf575f80fd5b5061039d6104ce366004612f74565b610d40565b3480156104de575f80fd5b506104a660215481565b3480156104f3575f80fd5b50601254610507906001600160a01b031681565b6040516001600160a01b0390911681526020016103d9565b34801561052a575f80fd5b50601d546104a6565b34801561053e575f80fd5b506104a660225481565b348015610553575f80fd5b506104a660295481565b348015610568575f80fd5b506103cd610577366004612f8f565b610d8b565b348015610587575f80fd5b506104a660265481565b34801561059c575f80fd5b506104a660285481565b3480156105b1575f80fd5b506103cd6105c0366004612ec0565b5f9081526004602052604090205460ff1690565b61039d6105e2366004612ea0565b610df2565b3480156105f2575f80fd5b50604051600981526020016103d9565b34801561060d575f80fd5b50601154610507906001600160a01b031681565b34801561062c575f80fd5b506103cd61063b366004612ec0565b5f9081526006602052604090205460ff1690565b34801561065a575f80fd5b50601054610507906001600160a01b031681565b348015610679575f80fd5b506104a6610688366004612f74565b600b6020525f908152604090205481565b3480156106a4575f80fd5b506103cd6106b3366004612ec0565b60076020525f908152604090205460ff1681565b3480156106d2575f80fd5b506103cd6106e1366004612ec0565b60056020525f908152604090205460ff1681565b348015610700575f80fd5b506104a660255481565b348015610715575f80fd5b5061039d610724366004612ea0565b610f9a565b348015610734575f80fd5b506103cd610743366004612ec0565b5f9081526007602052604090205460ff1690565b348015610762575f80fd5b506104a6610771366004612f74565b6001600160a01b03165f9081526001602052604090205490565b348015610796575f80fd5b5061039d610fdd565b3480156107aa575f80fd5b5061039d61104e565b3480156107be575f80fd5b506104a6601e5481565b3480156107d3575f80fd5b5061039d6107e236600461307e565b611081565b3480156107f2575f80fd5b505f546001600160a01b0316610507565b34801561080e575f80fd5b506104a6601f5481565b348015610823575f80fd5b5061039d610832366004612ea0565b61166f565b348015610842575f80fd5b5060408051808201909152600481526348474d5360e01b6020820152610430565b34801561086e575f80fd5b5061039d6116b2565b348015610882575f80fd5b5061039d610891366004613153565b6116ff565b3480156108a1575f80fd5b506103cd6108b0366004612eeb565b611d56565b3480156108c0575f80fd5b5061039d6108cf366004612ea0565b611d62565b3480156108df575f80fd5b50601354610507906001600160a01b031681565b3480156108fe575f80fd5b506104a661090d366004612f74565b600a6020525f908152604090205481565b348015610929575f80fd5b506104a660205481565b34801561093e575f80fd5b506103cd61094d366004612ec0565b5f9081526005602052604090205460ff1690565b34801561096c575f80fd5b506104a661097b366004612f74565b600d6020525f908152604090205481565b348015610997575f80fd5b50602b546103cd90600160b81b900460ff1681565b3480156109b7575f80fd5b5061039d611da5565b3480156109cb575f80fd5b50601454610507906001600160a01b031681565b3480156109ea575f80fd5b506104a66109f9366004612f74565b600c6020525f908152604090205481565b348015610a15575f80fd5b506104a6610a24366004613198565b6001600160a01b039182165f90815260026020908152604080832093909416825291909152205490565b348015610a59575f80fd5b506104a6610a68366004612ec0565b600f6020525f908152604090205481565b348015610a84575f80fd5b506104a660245481565b348015610a99575f80fd5b506104a6610aa8366004612f74565b600e6020525f908152604090205481565b348015610ac4575f80fd5b506104a660275481565b348015610ad9575f80fd5b506103cd610ae8366004612ec0565b60046020525f908152604090205460ff1681565b348015610b07575f80fd5b5061039d61215f565b348015610b1b575f80fd5b506104a660235481565b6010546001600160a01b03163314610b3b575f80fd5b6025829055610b4c600360096131e3565b610b5790600a6132dc565b610b6190826132ea565b6029555050565b5f546001600160a01b03163314610b9a5760405162461bcd60e51b8152600401610b9190613301565b60405180910390fd5b305f90815260016020526040902054811115610bf85760405162461bcd60e51b815260206004820152601d60248201527f4e6f7420656e6f75676820746f6b656e7320696e20636f6e74726163740000006044820152606401610b91565b610c0330838361219b565b5050565b5f610c1333848461277e565b5060015b92915050565b6014546001600160a01b03163314610c8b5760405162461bcd60e51b815260206004820152602b60248201527f4f6e6c792074686520626174746c6520636f6e74726163742063616e2072656d60448201526a6f766520706f74696f6e7360a81b6064820152608401610b91565b5f828152600460208181526040808420805460ff19908116909155600580845282862080548316905560068085528387208054841690556007808652848820805485169055888852958552838720805484169055908452828620805483169055835281852080548216905592825292839020805490921690915581518481529081018390527f16552dc0eeaa5453189ca1b57f62bf76590b234053b60bd7120b6a49977d637f91015b60405180910390a15050565b5f546001600160a01b03163314610d695760405162461bcd60e51b8152600401610b9190613301565b601480546001600160a01b0319166001600160a01b0392909216919091179055565b5f610d9784848461219b565b610de88433610de385604051806060016040528060288152602001613575602891396001600160a01b038a165f90815260026020908152604080832033845290915290205491906128a1565b61277e565b5060019392505050565b5f821180610dff57505f81115b610e4b5760405162461bcd60e51b815260206004820152601f60248201527f416d6f756e742073686f756c642062652067726561746572207468616e2030006044820152606401610b91565b610e576009600a6132dc565b610e6190826132ea565b341015610eb05760405162461bcd60e51b815260206004820152601960248201527f496e636f72726563742045544820616d6f756e742073656e74000000000000006044820152606401610b91565b8115610f3b57335f90815260016020526040902054821115610f0d5760405162461bcd60e51b81526020600482015260166024820152754e6f7420656e6f7567682048474d5320746f6b656e7360501b6044820152606401610b91565b610f1733836128d9565b335f9081526009602052604081208054849290610f35908490613336565b90915550505b8015610f6e57335f908152600a602052604081208054839290610f5f908490613336565b90915550610f6e905034612a54565b6040517fed21248cb703b524cc0029bb8669df941baca560163a3bc6ad184e7e9c268070905f90a15050565b6010546001600160a01b03163314610fb0575f80fd5b6023829055610fc1600360096131e3565b610fcc90600a6132dc565b610fd690826132ea565b6027555050565b5f546001600160a01b031633146110065760405162461bcd60e51b8152600401610b9190613301565b5f80546040516001600160a01b03909116907f8be0079c531659141344cd1fd0a4f28419497f9722a3daafe3b4186f6b6457e0908390a35f80546001600160a01b0319169055565b5f546001600160a01b031633146110775760405162461bcd60e51b8152600401610b9190613301565b61107f612b13565b565b6010546001600160a01b03163314611097575f80fd5b604051635854524160e01b602082015260240160405160208183030381529060405280519060200120816040516020016110d19190613349565b60405160208183030381529060405280519060200120036112035781516001600160a01b0384165f908152600b602052604090205410156111245760405162461bcd60e51b8152600401610b9190613364565b5f5b82518110156111fd57600160045f858481518110611146576111466133a8565b602002602001015181526020019081526020015f205f6101000a81548160ff0219169083151502179055506001600b5f866001600160a01b03166001600160a01b031681526020019081526020015f205f8282546111a491906133bc565b925050819055506001600f5f8584815181106111c2576111c26133a8565b602002602001015181526020019081526020015f205f8282546111e59190613336565b909155508190506111f5816133cf565b915050611126565b50505050565b604051641093d3d4d560da1b6020820152602501604051602081830303815290604052805190602001208160405160200161123e9190613349565b604051602081830303815290604052805190602001200361136a5781516001600160a01b0384165f908152600c602052604090205410156112915760405162461bcd60e51b8152600401610b9190613364565b5f5b82518110156111fd57600160065f8584815181106112b3576112b36133a8565b602002602001015181526020019081526020015f205f6101000a81548160ff0219169083151502179055506001600c5f866001600160a01b03166001600160a01b031681526020019081526020015f205f82825461131191906133bc565b925050819055506001600f5f85848151811061132f5761132f6133a8565b602002602001015181526020019081526020015f205f8282546113529190613336565b90915550819050611362816133cf565b915050611293565b604051602b60f91b602082015260210160405160208183030381529060405280519060200120816040516020016113a19190613349565b60405160208183030381529060405280519060200120036114cd5781516001600160a01b0384165f908152600d602052604090205410156113f45760405162461bcd60e51b8152600401610b9190613364565b5f5b82518110156111fd57600160055f858481518110611416576114166133a8565b602002602001015181526020019081526020015f205f6101000a81548160ff0219169083151502179055506001600d5f866001600160a01b03166001600160a01b031681526020019081526020015f205f82825461147491906133bc565b925050819055506001600f5f858481518110611492576114926133a8565b602002602001015181526020019081526020015f205f8282546114b59190613336565b909155508190506114c5816133cf565b9150506113f6565b604051630534b49560e41b602082015260240160405160208183030381529060405280519060200120816040516020016115079190613349565b60405160208183030381529060405280519060200120036116335781516001600160a01b0384165f908152600e6020526040902054101561155a5760405162461bcd60e51b8152600401610b9190613364565b5f5b82518110156111fd57600160075f85848151811061157c5761157c6133a8565b602002602001015181526020019081526020015f205f6101000a81548160ff0219169083151502179055506001600e5f866001600160a01b03166001600160a01b031681526020019081526020015f205f8282546115da91906133bc565b925050819055506001600f5f8584815181106115f8576115f86133a8565b602002602001015181526020019081526020015f205f82825461161b9190613336565b9091555081905061162b816133cf565b91505061155c565b60405162461bcd60e51b815260206004820152601160248201527057726f6e6720506f74696f6e204e616d6560781b6044820152606401610b91565b6010546001600160a01b03163314611685575f80fd5b6022829055611696600360096131e3565b6116a190600a6132dc565b6116ab90826132ea565b6026555050565b6012546001600160a01b0316336001600160a01b0316146116d1575f80fd5b305f9081526001602052604090205480156116ef576116ef81612b8b565b478015610c0357610c0381612a54565b6010546001600160a01b03163314611715575f80fd5b604051635854524160e01b6020820152602401604051602081830303815290604052805190602001208360405160200161174f9190613349565b60405160208183030381529060405280519060200120036118d6576022545f906117799083612cfb565b90505f61179183602654612cfb90919063ffffffff16565b6001600160a01b0385165f908152600960205260409020549091508211156117cb5760405162461bcd60e51b8152600401610b91906133e7565b6001600160a01b0384165f908152600a60205260409020548111156118025760405162461bcd60e51b8152600401610b9190613428565b6001600160a01b0384165f90815260096020526040812080548492906118299084906133bc565b90915550506001600160a01b0384165f908152600a6020526040812080548392906118559084906133bc565b90915550506001600160a01b0384165f908152600b602052604081208054859290611881908490613336565b90915550506040516001600160a01b0385169033907f3d57eec5ab68ae7c8f1ed6299a36d8e6f61253e0f24ac6aba38bc3fcbe7bc7ae906118c79089908690889061345d565b60405180910390a35050505050565b604051641093d3d4d560da1b602082015260250160405160208183030381529060405280519060200120836040516020016119119190613349565b6040516020818303038152906040528051906020012003611a43576023545f9061193b9083612cfb565b90505f61195383602754612cfb90919063ffffffff16565b6001600160a01b0385165f9081526009602052604090205490915082111561198d5760405162461bcd60e51b8152600401610b91906133e7565b6001600160a01b0384165f908152600a60205260409020548111156119c45760405162461bcd60e51b8152600401610b9190613428565b6001600160a01b0384165f90815260096020526040812080548492906119eb9084906133bc565b90915550506001600160a01b0384165f908152600a602052604081208054839290611a179084906133bc565b90915550506001600160a01b0384165f908152600c602052604081208054859290611881908490613336565b604051602b60f91b60208201526021016040516020818303038152906040528051906020012083604051602001611a7a9190613349565b6040516020818303038152906040528051906020012003611bac576024545f90611aa49083612cfb565b90505f611abc83602854612cfb90919063ffffffff16565b6001600160a01b0385165f90815260096020526040902054909150821115611af65760405162461bcd60e51b8152600401610b91906133e7565b6001600160a01b0384165f908152600a6020526040902054811115611b2d5760405162461bcd60e51b8152600401610b9190613428565b6001600160a01b0384165f9081526009602052604081208054849290611b549084906133bc565b90915550506001600160a01b0384165f908152600a602052604081208054839290611b809084906133bc565b90915550506001600160a01b0384165f908152600d602052604081208054859290611881908490613336565b604051630534b49560e41b60208201526024016040516020818303038152906040528051906020012083604051602001611be69190613349565b6040516020818303038152906040528051906020012003611d18576025545f90611c109083612cfb565b90505f611c2883602954612cfb90919063ffffffff16565b6001600160a01b0385165f90815260096020526040902054909150821115611c625760405162461bcd60e51b8152600401610b91906133e7565b6001600160a01b0384165f908152600a6020526040902054811115611c995760405162461bcd60e51b8152600401610b9190613428565b6001600160a01b0384165f9081526009602052604081208054849290611cc09084906133bc565b90915550506001600160a01b0384165f908152600a602052604081208054839290611cec9084906133bc565b90915550506001600160a01b0384165f908152600e602052604081208054859290611881908490613336565b60405162461bcd60e51b8152602060048201526013602482015272496e76616c696420506f74696f6e204e616d6560681b6044820152606401610b91565b5f610c1333848461219b565b6010546001600160a01b03163314611d78575f80fd5b6024829055611d89600360096131e3565b611d9490600a6132dc565b611d9e90826132ea565b6028555050565b5f546001600160a01b03163314611dce5760405162461bcd60e51b8152600401610b9190613301565b602b54600160a01b900460ff1615611e285760405162461bcd60e51b815260206004820152601760248201527f74726164696e6720697320616c7265616479206f70656e0000000000000000006044820152606401610b91565b602a80546001600160a01b031916737a250d5630b4cf539739df2c5dacb4c659f2488d908117909155601d54611e5f91309161277e565b602a5f9054906101000a90046001600160a01b03166001600160a01b031663c45a01556040518163ffffffff1660e01b8152600401602060405180830381865afa158015611eaf573d5f803e3d5ffd5b505050506040513d601f19601f82011682018060405250810190611ed39190613481565b6001600160a01b031663c9c6539630602a5f9054906101000a90046001600160a01b03166001600160a01b031663ad5c46486040518163ffffffff1660e01b8152600401602060405180830381865afa158015611f32573d5f803e3d5ffd5b505050506040513d601f19601f82011682018060405250810190611f569190613481565b6040516001600160e01b031960e085901b1681526001600160a01b039283166004820152911660248201526044016020604051808303815f875af1158015611fa0573d5f803e3d5ffd5b505050506040513d601f19601f82011682018060405250810190611fc49190613481565b602b80546001600160a01b039283166001600160a01b0319909116179055602a541663f305d719473061200b816001600160a01b03165f9081526001602052604090205490565b5f8061201e5f546001600160a01b031690565b60405160e088901b6001600160e01b03191681526001600160a01b03958616600482015260248101949094526044840192909252606483015290911660848201524260a482015260c40160606040518083038185885af1158015612084573d5f803e3d5ffd5b50505050506040513d601f19601f820116820180604052508101906120a9919061349c565b5050602b54602a5460405163095ea7b360e01b81526001600160a01b0391821660048201525f1960248201529116915063095ea7b3906044016020604051808303815f875af11580156120fe573d5f803e3d5ffd5b505050506040513d601f19601f8201168201806040525081019061212291906134c7565b50602b805462ff00ff60a01b19166201000160a01b179055601254305f8181526001602052604090205461107f926001600160a01b03169061219b565b5f546001600160a01b031633146121885760405162461bcd60e51b8152600401610b9190613301565b4780156121985761219881612a54565b50565b6001600160a01b0383166121ff5760405162461bcd60e51b815260206004820152602560248201527f45524332303a207472616e736665722066726f6d20746865207a65726f206164604482015264647265737360d81b6064820152608401610b91565b6001600160a01b0382166122615760405162461bcd60e51b815260206004820152602360248201527f45524332303a207472616e7366657220746f20746865207a65726f206164647260448201526265737360e81b6064820152608401610b91565b5f81116122c25760405162461bcd60e51b815260206004820152602960248201527f5472616e7366657220616d6f756e74206d7573742062652067726561746572206044820152687468616e207a65726f60b81b6064820152608401610b91565b5f80546001600160a01b038581169116148015906122ed57505f546001600160a01b03848116911614155b156126415761231e6064612318601954601c541161230d57601554612311565b6017545b8590612cfb565b90612d80565b602b54909150600160b81b900460ff161561240b57602a546001600160a01b0384811691161480159061235f5750602b546001600160a01b03848116911614155b1561240b57325f9081526008602052604090205443116123f95760405162461bcd60e51b815260206004820152604960248201527f5f7472616e736665723a3a205472616e736665722044656c617920656e61626c60448201527f65642e20204f6e6c79206f6e652070757263686173652070657220626c6f636b6064820152681030b63637bbb2b21760b91b608482015260a401610b91565b325f9081526008602052604090204390555b602b546001600160a01b0385811691161480156124365750602a546001600160a01b03848116911614155b801561245a57506001600160a01b0383165f9081526003602052604090205460ff16155b1561254057601e548211156124b15760405162461bcd60e51b815260206004820152601960248201527f4578636565647320746865205f6d61785478416d6f756e742e000000000000006044820152606401610b91565b601f54826124d3856001600160a01b03165f9081526001602052604090205490565b6124dd9190613336565b111561252b5760405162461bcd60e51b815260206004820152601a60248201527f4578636565647320746865206d617857616c6c657453697a652e0000000000006044820152606401610b91565b601c8054905f61253a836133cf565b91905055505b602b546001600160a01b03848116911614801561256657506001600160a01b0384163014155b15612593576125906064612318601a54601c541161258657601654612311565b6018548590612cfb565b90505b305f90815260016020526040902054602b54600160a81b900460ff161580156125c95750602b546001600160a01b038581169116145b80156125de5750602b54600160b01b900460ff165b80156125eb575060205481115b80156125fa5750601b54601c54115b1561263f575f47905061262061261b8561261685602154612dc1565b612dc1565b612b8b565b5f61262b4783612dd5565b9050801561263c5761263c81612a54565b50505b505b80156126b957305f908152600160205260409020546126609082612e16565b305f81815260016020526040908190209290925590516001600160a01b038616907fddf252ad1be2c89b69c2b068fc378daa952ba7f163c4a11628f55a4df523b3ef906126b09085815260200190565b60405180910390a35b6001600160a01b0384165f908152600160205260409020546126db9083612dd5565b6001600160a01b0385165f9081526001602052604090205561271e6127008383612dd5565b6001600160a01b0385165f9081526001602052604090205490612e16565b6001600160a01b038085165f8181526001602052604090209290925585167fddf252ad1be2c89b69c2b068fc378daa952ba7f163c4a11628f55a4df523b3ef6127678585612dd5565b60405190815260200160405180910390a350505050565b6001600160a01b0383166127e05760405162461bcd60e51b8152602060048201526024808201527f45524332303a20617070726f76652066726f6d20746865207a65726f206164646044820152637265737360e01b6064820152608401610b91565b6001600160a01b0382166128415760405162461bcd60e51b815260206004820152602260248201527f45524332303a20617070726f766520746f20746865207a65726f206164647265604482015261737360f01b6064820152608401610b91565b6001600160a01b038381165f8181526002602090815260408083209487168084529482529182902085905590518481527f8c5be1e5ebec7d5bd14f71427d1e84f3dd0314c0f7b2291e5b200ac8c7c3b925910160405180910390a3505050565b5f81848411156128c45760405162461bcd60e51b8152600401610b919190612f62565b505f6128d084866133bc565b95945050505050565b6001600160a01b0382166129395760405162461bcd60e51b815260206004820152602160248201527f43616e6e6f74206275726e2066726f6d20746865207a65726f206164647265736044820152607360f81b6064820152608401610b91565b6129456009600a6132dc565b61294f90826132ea565b6001600160a01b0383165f9081526001602052604081208054929350839290919061297b9084906133bc565b9250508190555080601d5f82825461299391906133bc565b9091555050601d54601e819055601f556040518181526001600160a01b038316907fcc16f5dbb4873280815c1ee09dbd06736cffcc184412cf7a71a0fdb75d397ca59060200160405180910390a26040518181525f906001600160a01b038416907fddf252ad1be2c89b69c2b068fc378daa952ba7f163c4a11628f55a4df523b3ef9060200160405180910390a37f947f344d56e1e8c70dc492fb94c4ddddd490c016aab685f5e7e47b2e85cb44cf601d54604051610d3491815260200190565b6013546001600160a01b03166108fc612a6e6005846134e6565b6040518115909202915f818181858888f19350505050158015612a93573d5f803e3d5ffd5b506012546001600160a01b03166108fc612aae6005846134e6565b6040518115909202915f818181858888f19350505050158015612ad3573d5f803e3d5ffd5b506010546001600160a01b03166108fc612aee6005846134e6565b6040518115909202915f818181858888f19350505050158015610c03573d5f803e3d5ffd5b5f546001600160a01b03163314612b3c5760405162461bcd60e51b8152600401610b9190613301565b601d54601e819055601f819055602b805460ff60b81b191690556040519081527f947f344d56e1e8c70dc492fb94c4ddddd490c016aab685f5e7e47b2e85cb44cf9060200160405180910390a1565b602b805460ff60a81b1916600160a81b1790556040805160028082526060820183525f9260208301908036833701905050905030815f81518110612bd157612bd16133a8565b6001600160a01b03928316602091820292909201810191909152602a54604080516315ab88c960e31b81529051919093169263ad5c46489260048083019391928290030181865afa158015612c28573d5f803e3d5ffd5b505050506040513d601f19601f82011682018060405250810190612c4c9190613481565b81600181518110612c5f57612c5f6133a8565b6001600160a01b039283166020918202929092010152602a54612c85913091168461277e565b602a5460405163791ac94760e01b81526001600160a01b039091169063791ac94790612cbd9085905f90869030904290600401613505565b5f604051808303815f87803b158015612cd4575f80fd5b505af1158015612ce6573d5f803e3d5ffd5b5050602b805460ff60a81b1916905550505050565b5f825f03612d0a57505f610c17565b5f612d1583856132ea565b905082612d2285836134e6565b14612d795760405162461bcd60e51b815260206004820152602160248201527f536166654d6174683a206d756c7469706c69636174696f6e206f766572666c6f6044820152607760f81b6064820152608401610b91565b9392505050565b5f612d7983836040518060400160405280601a81526020017f536166654d6174683a206469766973696f6e206279207a65726f000000000000815250612e74565b5f818311612dcf5782612d79565b50919050565b5f612d7983836040518060400160405280601e81526020017f536166654d6174683a207375627472616374696f6e206f766572666c6f7700008152506128a1565b5f80612e228385613336565b905083811015612d795760405162461bcd60e51b815260206004820152601b60248201527f536166654d6174683a206164646974696f6e206f766572666c6f7700000000006044820152606401610b91565b5f8183612e945760405162461bcd60e51b8152600401610b919190612f62565b505f6128d084866134e6565b5f8060408385031215612eb1575f80fd5b50508035926020909101359150565b5f60208284031215612ed0575f80fd5b5035919050565b6001600160a01b0381168114612198575f80fd5b5f8060408385031215612efc575f80fd5b8235612f0781612ed7565b946020939093013593505050565b5f5b83811015612f2f578181015183820152602001612f17565b50505f910152565b5f8151808452612f4e816020860160208601612f15565b601f01601f19169290920160200192915050565b602081525f612d796020830184612f37565b5f60208284031215612f84575f80fd5b8135612d7981612ed7565b5f805f60608486031215612fa1575f80fd5b8335612fac81612ed7565b92506020840135612fbc81612ed7565b929592945050506040919091013590565b634e487b7160e01b5f52604160045260245ffd5b604051601f8201601f1916810167ffffffffffffffff8111828210171561300a5761300a612fcd565b604052919050565b5f82601f830112613021575f80fd5b813567ffffffffffffffff81111561303b5761303b612fcd565b61304e601f8201601f1916602001612fe1565b818152846020838601011115613062575f80fd5b816020850160208301375f918101602001919091529392505050565b5f805f60608486031215613090575f80fd5b833561309b81612ed7565b925060208481013567ffffffffffffffff808211156130b8575f80fd5b818701915087601f8301126130cb575f80fd5b8135818111156130dd576130dd612fcd565b8060051b6130ec858201612fe1565b918252838101850191858101908b841115613105575f80fd5b948601945b838610156131235785358252948601949086019061310a565b9750505050604087013592508083111561313b575f80fd5b505061314986828701613012565b9150509250925092565b5f805f60608486031215613165575f80fd5b833567ffffffffffffffff81111561317b575f80fd5b61318786828701613012565b9350506020840135612fbc81612ed7565b5f80604083850312156131a9575f80fd5b82356131b481612ed7565b915060208301356131c481612ed7565b809150509250929050565b634e487b7160e01b5f52601160045260245ffd5b60ff8281168282160390811115610c1757610c176131cf565b600181815b8085111561323657815f190482111561321c5761321c6131cf565b8085161561322957918102915b93841c9390800290613201565b509250929050565b5f8261324c57506001610c17565b8161325857505f610c17565b816001811461326e576002811461327857613294565b6001915050610c17565b60ff841115613289576132896131cf565b50506001821b610c17565b5060208310610133831016604e8410600b84101617156132b7575081810a610c17565b6132c183836131fc565b805f19048211156132d4576132d46131cf565b029392505050565b5f612d7960ff84168361323e565b8082028115828204841417610c1757610c176131cf565b6020808252818101527f4f776e61626c653a2063616c6c6572206973206e6f7420746865206f776e6572604082015260600190565b80820180821115610c1757610c176131cf565b5f825161335a818460208701612f15565b9190910192915050565b60208082526024908201527f42616c616e636520646f6573206e6f74206861766520656e6f75676820506f74604082015263696f6e7360e01b606082015260800190565b634e487b7160e01b5f52603260045260245ffd5b81810381811115610c1757610c176131cf565b5f600182016133e0576133e06131cf565b5060010190565b60208082526021908201527f42616c616e636520646f6573206e6f74206861766520656e6f7567682048474d6040820152605360f81b606082015260800190565b6020808252818101527f42616c616e636520646f6573206e6f74206861766520656e6f75676820455448604082015260600190565b606081525f61346f6060830186612f37565b60208301949094525060400152919050565b5f60208284031215613491575f80fd5b8151612d7981612ed7565b5f805f606084860312156134ae575f80fd5b8351925060208401519150604084015190509250925092565b5f602082840312156134d7575f80fd5b81518015158114612d79575f80fd5b5f8261350057634e487b7160e01b5f52601260045260245ffd5b500490565b5f60a082018783526020878185015260a0604085015281875180845260c08601915082890193505f5b818110156135535784516001600160a01b03168352938301939183019160010161352e565b50506001600160a01b0396909616606085015250505060800152939250505056fe45524332303a207472616e7366657220616d6f756e74206578636565647320616c6c6f77616e6365a26469706673582212200e1df22cbae97cbac484f9286e6b9089dc7c2aecd3c8489ee60cfb4f9757257a64736f6c63430008150033",
			"opcodes": "PUSH1 0x80 PUSH1 0x40 MSTORE PUSH1 0x14 DUP1 SLOAD PUSH1 0x1 PUSH1 0x1 PUSH1 0xA0 SHL SUB NOT AND SWAP1 SSTORE PUSH1 0x19 PUSH1 0x15 DUP2 SWAP1 SSTORE PUSH1 0x27 PUSH1 0x16 SSTORE PUSH1 0x5 PUSH1 0x17 DUP2 SWAP1 SSTORE PUSH1 0x18 SSTORE PUSH1 0x23 DUP2 SSTORE PUSH1 0x1A SSTORE PUSH0 PUSH1 0x1B DUP2 SWAP1 SSTORE PUSH1 0x1C SSTORE PUSH3 0x48 PUSH1 0x9 PUSH1 0xA PUSH3 0x432 JUMP JUMPDEST PUSH3 0x58 SWAP1 PUSH4 0x3B9ACA00 PUSH3 0x449 JUMP JUMPDEST PUSH1 0x1D SSTORE PUSH3 0x69 PUSH1 0x9 PUSH1 0xA PUSH3 0x432 JUMP JUMPDEST PUSH3 0x78 SWAP1 PUSH3 0x989680 PUSH3 0x449 JUMP JUMPDEST PUSH1 0x1E SSTORE PUSH3 0x89 PUSH1 0x9 PUSH1 0xA PUSH3 0x432 JUMP JUMPDEST PUSH3 0x99 SWAP1 PUSH4 0x1312D00 PUSH3 0x449 JUMP JUMPDEST PUSH1 0x1F SSTORE PUSH3 0xAA PUSH1 0x9 PUSH1 0xA PUSH3 0x432 JUMP JUMPDEST PUSH3 0xB9 SWAP1 PUSH3 0xF4240 PUSH3 0x449 JUMP JUMPDEST PUSH1 0x20 SSTORE PUSH3 0xCA PUSH1 0x9 PUSH1 0xA PUSH3 0x432 JUMP JUMPDEST PUSH3 0xD9 SWAP1 PUSH3 0x989680 PUSH3 0x449 JUMP JUMPDEST PUSH1 0x21 SSTORE PUSH2 0x2710 PUSH1 0x22 SSTORE PUSH2 0x2710 PUSH1 0x23 SSTORE PUSH2 0x2710 PUSH1 0x24 SSTORE PUSH2 0x2710 PUSH1 0x25 SSTORE PUSH1 0x3 PUSH1 0x9 PUSH3 0x104 SWAP2 SWAP1 PUSH3 0x463 JUMP JUMPDEST PUSH3 0x111 SWAP1 PUSH1 0xA PUSH3 0x432 JUMP JUMPDEST PUSH3 0x11E SWAP1 PUSH1 0x2 PUSH3 0x449 JUMP JUMPDEST PUSH1 0x26 SSTORE PUSH0 PUSH1 0x27 SSTORE PUSH3 0x133 PUSH1 0x3 PUSH1 0x9 PUSH3 0x463 JUMP JUMPDEST PUSH3 0x140 SWAP1 PUSH1 0xA PUSH3 0x432 JUMP JUMPDEST PUSH3 0x14D SWAP1 PUSH1 0x2 PUSH3 0x449 JUMP JUMPDEST PUSH1 0x28 SSTORE PUSH0 PUSH1 0x29 SSTORE PUSH1 0x2B DUP1 SLOAD PUSH3 0xFFFFFF PUSH1 0xA8 SHL NOT AND PUSH1 0x1 PUSH1 0xB8 SHL OR SWAP1 SSTORE CALLVALUE DUP1 ISZERO PUSH3 0x175 JUMPI PUSH0 DUP1 REVERT JUMPDEST POP PUSH0 DUP1 SLOAD PUSH1 0x1 PUSH1 0x1 PUSH1 0xA0 SHL SUB NOT AND CALLER SWAP1 DUP2 OR DUP3 SSTORE PUSH1 0x40 MLOAD SWAP1 SWAP2 DUP3 SWAP2 PUSH32 0x8BE0079C531659141344CD1FD0A4F28419497F9722A3DAAFE3B4186F6B6457E0 SWAP1 DUP3 SWAP1 LOG3 POP CALLER PUSH1 0x12 DUP1 SLOAD PUSH1 0x1 PUSH1 0x1 PUSH1 0xA0 SHL SUB SWAP3 SWAP1 SWAP3 AND PUSH1 0x1 PUSH1 0x1 PUSH1 0xA0 SHL SUB NOT SWAP3 DUP4 AND OR SWAP1 SSTORE PUSH1 0x13 DUP1 SLOAD DUP3 AND PUSH20 0xD53C9795A9DAF24FBCAB45CF2DF0D37145F7E0E0 OR SWAP1 SSTORE PUSH1 0x11 DUP1 SLOAD DUP3 AND PUSH20 0x6F1F797F35EF003C3B89257971A80208C61F7976 OR SWAP1 SSTORE PUSH1 0x10 DUP1 SLOAD SWAP1 SWAP2 AND PUSH20 0x7034990879D4E4C0F9DADE892AD641BC45DEDBBF OR SWAP1 SSTORE PUSH1 0x1D SLOAD ADDRESS PUSH0 SWAP1 DUP2 MSTORE PUSH1 0x1 PUSH1 0x20 DUP2 SWAP1 MSTORE PUSH1 0x40 DUP3 KECCAK256 SWAP3 SWAP1 SWAP3 SSTORE PUSH1 0x3 SWAP1 PUSH3 0x25D PUSH0 SLOAD PUSH1 0x1 PUSH1 0x1 PUSH1 0xA0 SHL SUB AND SWAP1 JUMP JUMPDEST PUSH1 0x1 PUSH1 0x1 PUSH1 0xA0 SHL SUB SWAP1 DUP2 AND DUP3 MSTORE PUSH1 0x20 DUP1 DUP4 ADD SWAP4 SWAP1 SWAP4 MSTORE PUSH1 0x40 SWAP2 DUP3 ADD PUSH0 SWAP1 DUP2 KECCAK256 DUP1 SLOAD SWAP6 ISZERO ISZERO PUSH1 0xFF NOT SWAP7 DUP8 AND OR SWAP1 SSTORE ADDRESS DUP1 DUP3 MSTORE PUSH1 0x3 DUP6 MSTORE DUP4 DUP3 KECCAK256 DUP1 SLOAD DUP8 AND PUSH1 0x1 SWAP1 DUP2 OR SWAP1 SWAP2 SSTORE PUSH1 0x13 SLOAD DUP5 AND DUP4 MSTORE DUP5 DUP4 KECCAK256 DUP1 SLOAD DUP9 AND DUP3 OR SWAP1 SSTORE PUSH1 0x11 SLOAD DUP5 AND DUP4 MSTORE DUP5 DUP4 KECCAK256 DUP1 SLOAD DUP9 AND DUP3 OR SWAP1 SSTORE PUSH1 0x10 SLOAD SWAP1 SWAP4 AND DUP3 MSTORE DUP4 DUP3 KECCAK256 DUP1 SLOAD SWAP1 SWAP7 AND DUP4 OR SWAP1 SWAP6 SSTORE DUP5 DUP2 MSTORE SWAP3 MSTORE DUP1 DUP3 KECCAK256 SLOAD SWAP1 MLOAD PUSH32 0xDDF252AD1BE2C89B69C2B068FC378DAA952BA7F163C4A11628F55A4DF523B3EF SWAP2 PUSH3 0x315 SWAP2 SWAP1 DUP2 MSTORE PUSH1 0x20 ADD SWAP1 JUMP JUMPDEST PUSH1 0x40 MLOAD DUP1 SWAP2 SUB SWAP1 LOG3 PUSH3 0x47F JUMP JUMPDEST PUSH4 0x4E487B71 PUSH1 0xE0 SHL PUSH0 MSTORE PUSH1 0x11 PUSH1 0x4 MSTORE PUSH1 0x24 PUSH0 REVERT JUMPDEST PUSH1 0x1 DUP2 DUP2 JUMPDEST DUP1 DUP6 GT ISZERO PUSH3 0x377 JUMPI DUP2 PUSH0 NOT DIV DUP3 GT ISZERO PUSH3 0x35B JUMPI PUSH3 0x35B PUSH3 0x323 JUMP JUMPDEST DUP1 DUP6 AND ISZERO PUSH3 0x369 JUMPI SWAP2 DUP2 MUL SWAP2 JUMPDEST SWAP4 DUP5 SHR SWAP4 SWAP1 DUP1 MUL SWAP1 PUSH3 0x33C JUMP JUMPDEST POP SWAP3 POP SWAP3 SWAP1 POP JUMP JUMPDEST PUSH0 DUP3 PUSH3 0x38F JUMPI POP PUSH1 0x1 PUSH3 0x42C JUMP JUMPDEST DUP2 PUSH3 0x39D JUMPI POP PUSH0 PUSH3 0x42C JUMP JUMPDEST DUP2 PUSH1 0x1 DUP2 EQ PUSH3 0x3B6 JUMPI PUSH1 0x2 DUP2 EQ PUSH3 0x3C1 JUMPI PUSH3 0x3E1 JUMP JUMPDEST PUSH1 0x1 SWAP2 POP POP PUSH3 0x42C JUMP JUMPDEST PUSH1 0xFF DUP5 GT ISZERO PUSH3 0x3D5 JUMPI PUSH3 0x3D5 PUSH3 0x323 JUMP JUMPDEST POP POP PUSH1 0x1 DUP3 SHL PUSH3 0x42C JUMP JUMPDEST POP PUSH1 0x20 DUP4 LT PUSH2 0x133 DUP4 LT AND PUSH1 0x4E DUP5 LT PUSH1 0xB DUP5 LT AND OR ISZERO PUSH3 0x406 JUMPI POP DUP2 DUP2 EXP PUSH3 0x42C JUMP JUMPDEST PUSH3 0x412 DUP4 DUP4 PUSH3 0x337 JUMP JUMPDEST DUP1 PUSH0 NOT DIV DUP3 GT ISZERO PUSH3 0x428 JUMPI PUSH3 0x428 PUSH3 0x323 JUMP JUMPDEST MUL SWAP1 POP JUMPDEST SWAP3 SWAP2 POP POP JUMP JUMPDEST PUSH0 PUSH3 0x442 PUSH1 0xFF DUP5 AND DUP4 PUSH3 0x37F JUMP JUMPDEST SWAP4 SWAP3 POP POP POP JUMP JUMPDEST DUP1 DUP3 MUL DUP2 ISZERO DUP3 DUP3 DIV DUP5 EQ OR PUSH3 0x42C JUMPI PUSH3 0x42C PUSH3 0x323 JUMP JUMPDEST PUSH1 0xFF DUP3 DUP2 AND DUP3 DUP3 AND SUB SWAP1 DUP2 GT ISZERO PUSH3 0x42C JUMPI PUSH3 0x42C PUSH3 0x323 JUMP JUMPDEST PUSH2 0x35D2 DUP1 PUSH3 0x48D PUSH0 CODECOPY PUSH0 RETURN INVALID PUSH1 0x80 PUSH1 0x40 MSTORE PUSH1 0x4 CALLDATASIZE LT PUSH2 0x373 JUMPI PUSH0 CALLDATALOAD PUSH1 0xE0 SHR DUP1 PUSH4 0x715018A6 GT PUSH2 0x1C8 JUMPI DUP1 PUSH4 0xBF474BED GT PUSH2 0xFD JUMPI DUP1 PUSH4 0xDD62ED3E GT PUSH2 0x9D JUMPI DUP1 PUSH4 0xF2B4C325 GT PUSH2 0x6D JUMPI DUP1 PUSH4 0xF2B4C325 EQ PUSH2 0xAB9 JUMPI DUP1 PUSH4 0xF3A395FC EQ PUSH2 0xACE JUMPI DUP1 PUSH4 0xF4293890 EQ PUSH2 0xAFC JUMPI DUP1 PUSH4 0xF7685A02 EQ PUSH2 0xB10 JUMPI PUSH0 DUP1 REVERT JUMPDEST DUP1 PUSH4 0xDD62ED3E EQ PUSH2 0xA0A JUMPI DUP1 PUSH4 0xEB429BF8 EQ PUSH2 0xA4E JUMPI DUP1 PUSH4 0xEB77DBB1 EQ PUSH2 0xA79 JUMPI DUP1 PUSH4 0xF2A6227F EQ PUSH2 0xA8E JUMPI PUSH0 DUP1 REVERT JUMPDEST DUP1 PUSH4 0xC876D0B9 GT PUSH2 0xD8 JUMPI DUP1 PUSH4 0xC876D0B9 EQ PUSH2 0x98C JUMPI DUP1 PUSH4 0xC9567BF9 EQ PUSH2 0x9AC JUMPI DUP1 PUSH4 0xCE9DC805 EQ PUSH2 0x9C0 JUMPI DUP1 PUSH4 0xD677D03E EQ PUSH2 0x9DF JUMPI PUSH0 DUP1 REVERT JUMPDEST DUP1 PUSH4 0xBF474BED EQ PUSH2 0x91E JUMPI DUP1 PUSH4 0xC1AE5E72 EQ PUSH2 0x933 JUMPI DUP1 PUSH4 0xC232AE4D EQ PUSH2 0x961 JUMPI PUSH0 DUP1 REVERT JUMPDEST DUP1 PUSH4 0x95D89B41 GT PUSH2 0x168 JUMPI DUP1 PUSH4 0xA9059CBB GT PUSH2 0x143 JUMPI DUP1 PUSH4 0xA9059CBB EQ PUSH2 0x896 JUMPI DUP1 PUSH4 0xABB284E9 EQ PUSH2 0x8B5 JUMPI DUP1 PUSH4 0xBBAB0FF1 EQ PUSH2 0x8D4 JUMPI DUP1 PUSH4 0xBE68E027 EQ PUSH2 0x8F3 JUMPI PUSH0 DUP1 REVERT JUMPDEST DUP1 PUSH4 0x95D89B41 EQ PUSH2 0x837 JUMPI DUP1 PUSH4 0xA1780C18 EQ PUSH2 0x863 JUMPI DUP1 PUSH4 0xA233900F EQ PUSH2 0x877 JUMPI PUSH0 DUP1 REVERT JUMPDEST DUP1 PUSH4 0x81CD58E5 GT PUSH2 0x1A3 JUMPI DUP1 PUSH4 0x81CD58E5 EQ PUSH2 0x7C8 JUMPI DUP1 PUSH4 0x8DA5CB5B EQ PUSH2 0x7E7 JUMPI DUP1 PUSH4 0x8F9A55C0 EQ PUSH2 0x803 JUMPI DUP1 PUSH4 0x8FBD8F27 EQ PUSH2 0x818 JUMPI PUSH0 DUP1 REVERT JUMPDEST DUP1 PUSH4 0x715018A6 EQ PUSH2 0x78B JUMPI DUP1 PUSH4 0x751039FC EQ PUSH2 0x79F JUMPI DUP1 PUSH4 0x7D1DB4A5 EQ PUSH2 0x7B3 JUMPI PUSH0 DUP1 REVERT JUMPDEST DUP1 PUSH4 0x24AEDE52 GT PUSH2 0x2A9 JUMPI DUP1 PUSH4 0x51A2F687 GT PUSH2 0x249 JUMPI DUP1 PUSH4 0x66B6090F GT PUSH2 0x219 JUMPI DUP1 PUSH4 0x66B6090F EQ PUSH2 0x6F5 JUMPI DUP1 PUSH4 0x6A4D84F9 EQ PUSH2 0x70A JUMPI DUP1 PUSH4 0x6E2ED3C4 EQ PUSH2 0x729 JUMPI DUP1 PUSH4 0x70A08231 EQ PUSH2 0x757 JUMPI PUSH0 DUP1 REVERT JUMPDEST DUP1 PUSH4 0x51A2F687 EQ PUSH2 0x64F JUMPI DUP1 PUSH4 0x52D3C14E EQ PUSH2 0x66E JUMPI DUP1 PUSH4 0x54CA45D8 EQ PUSH2 0x699 JUMPI DUP1 PUSH4 0x580A155A EQ PUSH2 0x6C7 JUMPI PUSH0 DUP1 REVERT JUMPDEST DUP1 PUSH4 0x2D4BBB05 GT PUSH2 0x284 JUMPI DUP1 PUSH4 0x2D4BBB05 EQ PUSH2 0x5D4 JUMPI DUP1 PUSH4 0x313CE567 EQ PUSH2 0x5E7 JUMPI DUP1 PUSH4 0x37E294D5 EQ PUSH2 0x602 JUMPI DUP1 PUSH4 0x3B32EDD4 EQ PUSH2 0x621 JUMPI PUSH0 DUP1 REVERT JUMPDEST DUP1 PUSH4 0x24AEDE52 EQ PUSH2 0x57C JUMPI DUP1 PUSH4 0x298A8328 EQ PUSH2 0x591 JUMPI DUP1 PUSH4 0x2ACE2AF5 EQ PUSH2 0x5A6 JUMPI PUSH0 DUP1 REVERT JUMPDEST DUP1 PUSH4 0xDB6DFF7 GT PUSH2 0x314 JUMPI DUP1 PUSH4 0x18160DDD GT PUSH2 0x2EF JUMPI DUP1 PUSH4 0x18160DDD EQ PUSH2 0x51F JUMPI DUP1 PUSH4 0x19DDE7B7 EQ PUSH2 0x533 JUMPI DUP1 PUSH4 0x21E09B34 EQ PUSH2 0x548 JUMPI DUP1 PUSH4 0x23B872DD EQ PUSH2 0x55D JUMPI PUSH0 DUP1 REVERT JUMPDEST DUP1 PUSH4 0xDB6DFF7 EQ PUSH2 0x4B4 JUMPI DUP1 PUSH4 0xFAEE56F EQ PUSH2 0x4D3 JUMPI DUP1 PUSH4 0x11A63E17 EQ PUSH2 0x4E8 JUMPI PUSH0 DUP1 REVERT JUMPDEST DUP1 PUSH4 0x6FDDE03 GT PUSH2 0x34F JUMPI DUP1 PUSH4 0x6FDDE03 EQ PUSH2 0x401 JUMPI DUP1 PUSH4 0x95EA7B3 EQ PUSH2 0x43D JUMPI DUP1 PUSH4 0x9EADBF5 EQ PUSH2 0x45C JUMPI DUP1 PUSH4 0xD2D697A EQ PUSH2 0x47B JUMPI PUSH0 DUP1 REVERT JUMPDEST DUP1 PUSH3 0x8B8185 EQ PUSH2 0x37E JUMPI DUP1 PUSH4 0x39AA9CF EQ PUSH2 0x39F JUMPI DUP1 PUSH4 0x6B091F9 EQ PUSH2 0x3E2 JUMPI PUSH0 DUP1 REVERT JUMPDEST CALLDATASIZE PUSH2 0x37A JUMPI STOP JUMPDEST PUSH0 DUP1 REVERT JUMPDEST CALLVALUE DUP1 ISZERO PUSH2 0x389 JUMPI PUSH0 DUP1 REVERT JUMPDEST POP PUSH2 0x39D PUSH2 0x398 CALLDATASIZE PUSH1 0x4 PUSH2 0x2EA0 JUMP JUMPDEST PUSH2 0xB25 JUMP JUMPDEST STOP JUMPDEST CALLVALUE DUP1 ISZERO PUSH2 0x3AA JUMPI PUSH0 DUP1 REVERT JUMPDEST POP PUSH2 0x3CD PUSH2 0x3B9 CALLDATASIZE PUSH1 0x4 PUSH2 0x2EC0 JUMP JUMPDEST PUSH1 0x6 PUSH1 0x20 MSTORE PUSH0 SWAP1 DUP2 MSTORE PUSH1 0x40 SWAP1 KECCAK256 SLOAD PUSH1 0xFF AND DUP2 JUMP JUMPDEST PUSH1 0x40 MLOAD SWAP1 ISZERO ISZERO DUP2 MSTORE PUSH1 0x20 ADD JUMPDEST PUSH1 0x40 MLOAD DUP1 SWAP2 SUB SWAP1 RETURN JUMPDEST CALLVALUE DUP1 ISZERO PUSH2 0x3ED JUMPI PUSH0 DUP1 REVERT JUMPDEST POP PUSH2 0x39D PUSH2 0x3FC CALLDATASIZE PUSH1 0x4 PUSH2 0x2EEB JUMP JUMPDEST PUSH2 0xB68 JUMP JUMPDEST CALLVALUE DUP1 ISZERO PUSH2 0x40C JUMPI PUSH0 DUP1 REVERT JUMPDEST POP PUSH1 0x40 DUP1 MLOAD DUP1 DUP3 ADD SWAP1 SWAP2 MSTORE PUSH1 0xB DUP2 MSTORE PUSH11 0x48756E67657247616D6573 PUSH1 0xA8 SHL PUSH1 0x20 DUP3 ADD MSTORE JUMPDEST PUSH1 0x40 MLOAD PUSH2 0x3D9 SWAP2 SWAP1 PUSH2 0x2F62 JUMP JUMPDEST CALLVALUE DUP1 ISZERO PUSH2 0x448 JUMPI PUSH0 DUP1 REVERT JUMPDEST POP PUSH2 0x3CD PUSH2 0x457 CALLDATASIZE PUSH1 0x4 PUSH2 0x2EEB JUMP JUMPDEST PUSH2 0xC07 JUMP JUMPDEST CALLVALUE DUP1 ISZERO PUSH2 0x467 JUMPI PUSH0 DUP1 REVERT JUMPDEST POP PUSH2 0x39D PUSH2 0x476 CALLDATASIZE PUSH1 0x4 PUSH2 0x2EA0 JUMP JUMPDEST PUSH2 0xC1D JUMP JUMPDEST CALLVALUE DUP1 ISZERO PUSH2 0x486 JUMPI PUSH0 DUP1 REVERT JUMPDEST POP PUSH2 0x4A6 PUSH2 0x495 CALLDATASIZE PUSH1 0x4 PUSH2 0x2F74 JUMP JUMPDEST PUSH1 0x9 PUSH1 0x20 MSTORE PUSH0 SWAP1 DUP2 MSTORE PUSH1 0x40 SWAP1 KECCAK256 SLOAD DUP2 JUMP JUMPDEST PUSH1 0x40 MLOAD SWAP1 DUP2 MSTORE PUSH1 0x20 ADD PUSH2 0x3D9 JUMP JUMPDEST CALLVALUE DUP1 ISZERO PUSH2 0x4BF JUMPI PUSH0 DUP1 REVERT JUMPDEST POP PUSH2 0x39D PUSH2 0x4CE CALLDATASIZE PUSH1 0x4 PUSH2 0x2F74 JUMP JUMPDEST PUSH2 0xD40 JUMP JUMPDEST CALLVALUE DUP1 ISZERO PUSH2 0x4DE JUMPI PUSH0 DUP1 REVERT JUMPDEST POP PUSH2 0x4A6 PUSH1 0x21 SLOAD DUP2 JUMP JUMPDEST CALLVALUE DUP1 ISZERO PUSH2 0x4F3 JUMPI PUSH0 DUP1 REVERT JUMPDEST POP PUSH1 0x12 SLOAD PUSH2 0x507 SWAP1 PUSH1 0x1 PUSH1 0x1 PUSH1 0xA0 SHL SUB AND DUP2 JUMP JUMPDEST PUSH1 0x40 MLOAD PUSH1 0x1 PUSH1 0x1 PUSH1 0xA0 SHL SUB SWAP1 SWAP2 AND DUP2 MSTORE PUSH1 0x20 ADD PUSH2 0x3D9 JUMP JUMPDEST CALLVALUE DUP1 ISZERO PUSH2 0x52A JUMPI PUSH0 DUP1 REVERT JUMPDEST POP PUSH1 0x1D SLOAD PUSH2 0x4A6 JUMP JUMPDEST CALLVALUE DUP1 ISZERO PUSH2 0x53E JUMPI PUSH0 DUP1 REVERT JUMPDEST POP PUSH2 0x4A6 PUSH1 0x22 SLOAD DUP2 JUMP JUMPDEST CALLVALUE DUP1 ISZERO PUSH2 0x553 JUMPI PUSH0 DUP1 REVERT JUMPDEST POP PUSH2 0x4A6 PUSH1 0x29 SLOAD DUP2 JUMP JUMPDEST CALLVALUE DUP1 ISZERO PUSH2 0x568 JUMPI PUSH0 DUP1 REVERT JUMPDEST POP PUSH2 0x3CD PUSH2 0x577 CALLDATASIZE PUSH1 0x4 PUSH2 0x2F8F JUMP JUMPDEST PUSH2 0xD8B JUMP JUMPDEST CALLVALUE DUP1 ISZERO PUSH2 0x587 JUMPI PUSH0 DUP1 REVERT JUMPDEST POP PUSH2 0x4A6 PUSH1 0x26 SLOAD DUP2 JUMP JUMPDEST CALLVALUE DUP1 ISZERO PUSH2 0x59C JUMPI PUSH0 DUP1 REVERT JUMPDEST POP PUSH2 0x4A6 PUSH1 0x28 SLOAD DUP2 JUMP JUMPDEST CALLVALUE DUP1 ISZERO PUSH2 0x5B1 JUMPI PUSH0 DUP1 REVERT JUMPDEST POP PUSH2 0x3CD PUSH2 0x5C0 CALLDATASIZE PUSH1 0x4 PUSH2 0x2EC0 JUMP JUMPDEST PUSH0 SWAP1 DUP2 MSTORE PUSH1 0x4 PUSH1 0x20 MSTORE PUSH1 0x40 SWAP1 KECCAK256 SLOAD PUSH1 0xFF AND SWAP1 JUMP JUMPDEST PUSH2 0x39D PUSH2 0x5E2 CALLDATASIZE PUSH1 0x4 PUSH2 0x2EA0 JUMP JUMPDEST PUSH2 0xDF2 JUMP JUMPDEST CALLVALUE DUP1 ISZERO PUSH2 0x5F2 JUMPI PUSH0 DUP1 REVERT JUMPDEST POP PUSH1 0x40 MLOAD PUSH1 0x9 DUP2 MSTORE PUSH1 0x20 ADD PUSH2 0x3D9 JUMP JUMPDEST CALLVALUE DUP1 ISZERO PUSH2 0x60D JUMPI PUSH0 DUP1 REVERT JUMPDEST POP PUSH1 0x11 SLOAD PUSH2 0x507 SWAP1 PUSH1 0x1 PUSH1 0x1 PUSH1 0xA0 SHL SUB AND DUP2 JUMP JUMPDEST CALLVALUE DUP1 ISZERO PUSH2 0x62C JUMPI PUSH0 DUP1 REVERT JUMPDEST POP PUSH2 0x3CD PUSH2 0x63B CALLDATASIZE PUSH1 0x4 PUSH2 0x2EC0 JUMP JUMPDEST PUSH0 SWAP1 DUP2 MSTORE PUSH1 0x6 PUSH1 0x20 MSTORE PUSH1 0x40 SWAP1 KECCAK256 SLOAD PUSH1 0xFF AND SWAP1 JUMP JUMPDEST CALLVALUE DUP1 ISZERO PUSH2 0x65A JUMPI PUSH0 DUP1 REVERT JUMPDEST POP PUSH1 0x10 SLOAD PUSH2 0x507 SWAP1 PUSH1 0x1 PUSH1 0x1 PUSH1 0xA0 SHL SUB AND DUP2 JUMP JUMPDEST CALLVALUE DUP1 ISZERO PUSH2 0x679 JUMPI PUSH0 DUP1 REVERT JUMPDEST POP PUSH2 0x4A6 PUSH2 0x688 CALLDATASIZE PUSH1 0x4 PUSH2 0x2F74 JUMP JUMPDEST PUSH1 0xB PUSH1 0x20 MSTORE PUSH0 SWAP1 DUP2 MSTORE PUSH1 0x40 SWAP1 KECCAK256 SLOAD DUP2 JUMP JUMPDEST CALLVALUE DUP1 ISZERO PUSH2 0x6A4 JUMPI PUSH0 DUP1 REVERT JUMPDEST POP PUSH2 0x3CD PUSH2 0x6B3 CALLDATASIZE PUSH1 0x4 PUSH2 0x2EC0 JUMP JUMPDEST PUSH1 0x7 PUSH1 0x20 MSTORE PUSH0 SWAP1 DUP2 MSTORE PUSH1 0x40 SWAP1 KECCAK256 SLOAD PUSH1 0xFF AND DUP2 JUMP JUMPDEST CALLVALUE DUP1 ISZERO PUSH2 0x6D2 JUMPI PUSH0 DUP1 REVERT JUMPDEST POP PUSH2 0x3CD PUSH2 0x6E1 CALLDATASIZE PUSH1 0x4 PUSH2 0x2EC0 JUMP JUMPDEST PUSH1 0x5 PUSH1 0x20 MSTORE PUSH0 SWAP1 DUP2 MSTORE PUSH1 0x40 SWAP1 KECCAK256 SLOAD PUSH1 0xFF AND DUP2 JUMP JUMPDEST CALLVALUE DUP1 ISZERO PUSH2 0x700 JUMPI PUSH0 DUP1 REVERT JUMPDEST POP PUSH2 0x4A6 PUSH1 0x25 SLOAD DUP2 JUMP JUMPDEST CALLVALUE DUP1 ISZERO PUSH2 0x715 JUMPI PUSH0 DUP1 REVERT JUMPDEST POP PUSH2 0x39D PUSH2 0x724 CALLDATASIZE PUSH1 0x4 PUSH2 0x2EA0 JUMP JUMPDEST PUSH2 0xF9A JUMP JUMPDEST CALLVALUE DUP1 ISZERO PUSH2 0x734 JUMPI PUSH0 DUP1 REVERT JUMPDEST POP PUSH2 0x3CD PUSH2 0x743 CALLDATASIZE PUSH1 0x4 PUSH2 0x2EC0 JUMP JUMPDEST PUSH0 SWAP1 DUP2 MSTORE PUSH1 0x7 PUSH1 0x20 MSTORE PUSH1 0x40 SWAP1 KECCAK256 SLOAD PUSH1 0xFF AND SWAP1 JUMP JUMPDEST CALLVALUE DUP1 ISZERO PUSH2 0x762 JUMPI PUSH0 DUP1 REVERT JUMPDEST POP PUSH2 0x4A6 PUSH2 0x771 CALLDATASIZE PUSH1 0x4 PUSH2 0x2F74 JUMP JUMPDEST PUSH1 0x1 PUSH1 0x1 PUSH1 0xA0 SHL SUB AND PUSH0 SWAP1 DUP2 MSTORE PUSH1 0x1 PUSH1 0x20 MSTORE PUSH1 0x40 SWAP1 KECCAK256 SLOAD SWAP1 JUMP JUMPDEST CALLVALUE DUP1 ISZERO PUSH2 0x796 JUMPI PUSH0 DUP1 REVERT JUMPDEST POP PUSH2 0x39D PUSH2 0xFDD JUMP JUMPDEST CALLVALUE DUP1 ISZERO PUSH2 0x7AA JUMPI PUSH0 DUP1 REVERT JUMPDEST POP PUSH2 0x39D PUSH2 0x104E JUMP JUMPDEST CALLVALUE DUP1 ISZERO PUSH2 0x7BE JUMPI PUSH0 DUP1 REVERT JUMPDEST POP PUSH2 0x4A6 PUSH1 0x1E SLOAD DUP2 JUMP JUMPDEST CALLVALUE DUP1 ISZERO PUSH2 0x7D3 JUMPI PUSH0 DUP1 REVERT JUMPDEST POP PUSH2 0x39D PUSH2 0x7E2 CALLDATASIZE PUSH1 0x4 PUSH2 0x307E JUMP JUMPDEST PUSH2 0x1081 JUMP JUMPDEST CALLVALUE DUP1 ISZERO PUSH2 0x7F2 JUMPI PUSH0 DUP1 REVERT JUMPDEST POP PUSH0 SLOAD PUSH1 0x1 PUSH1 0x1 PUSH1 0xA0 SHL SUB AND PUSH2 0x507 JUMP JUMPDEST CALLVALUE DUP1 ISZERO PUSH2 0x80E JUMPI PUSH0 DUP1 REVERT JUMPDEST POP PUSH2 0x4A6 PUSH1 0x1F SLOAD DUP2 JUMP JUMPDEST CALLVALUE DUP1 ISZERO PUSH2 0x823 JUMPI PUSH0 DUP1 REVERT JUMPDEST POP PUSH2 0x39D PUSH2 0x832 CALLDATASIZE PUSH1 0x4 PUSH2 0x2EA0 JUMP JUMPDEST PUSH2 0x166F JUMP JUMPDEST CALLVALUE DUP1 ISZERO PUSH2 0x842 JUMPI PUSH0 DUP1 REVERT JUMPDEST POP PUSH1 0x40 DUP1 MLOAD DUP1 DUP3 ADD SWAP1 SWAP2 MSTORE PUSH1 0x4 DUP2 MSTORE PUSH4 0x48474D53 PUSH1 0xE0 SHL PUSH1 0x20 DUP3 ADD MSTORE PUSH2 0x430 JUMP JUMPDEST CALLVALUE DUP1 ISZERO PUSH2 0x86E JUMPI PUSH0 DUP1 REVERT JUMPDEST POP PUSH2 0x39D PUSH2 0x16B2 JUMP JUMPDEST CALLVALUE DUP1 ISZERO PUSH2 0x882 JUMPI PUSH0 DUP1 REVERT JUMPDEST POP PUSH2 0x39D PUSH2 0x891 CALLDATASIZE PUSH1 0x4 PUSH2 0x3153 JUMP JUMPDEST PUSH2 0x16FF JUMP JUMPDEST CALLVALUE DUP1 ISZERO PUSH2 0x8A1 JUMPI PUSH0 DUP1 REVERT JUMPDEST POP PUSH2 0x3CD PUSH2 0x8B0 CALLDATASIZE PUSH1 0x4 PUSH2 0x2EEB JUMP JUMPDEST PUSH2 0x1D56 JUMP JUMPDEST CALLVALUE DUP1 ISZERO PUSH2 0x8C0 JUMPI PUSH0 DUP1 REVERT JUMPDEST POP PUSH2 0x39D PUSH2 0x8CF CALLDATASIZE PUSH1 0x4 PUSH2 0x2EA0 JUMP JUMPDEST PUSH2 0x1D62 JUMP JUMPDEST CALLVALUE DUP1 ISZERO PUSH2 0x8DF JUMPI PUSH0 DUP1 REVERT JUMPDEST POP PUSH1 0x13 SLOAD PUSH2 0x507 SWAP1 PUSH1 0x1 PUSH1 0x1 PUSH1 0xA0 SHL SUB AND DUP2 JUMP JUMPDEST CALLVALUE DUP1 ISZERO PUSH2 0x8FE JUMPI PUSH0 DUP1 REVERT JUMPDEST POP PUSH2 0x4A6 PUSH2 0x90D CALLDATASIZE PUSH1 0x4 PUSH2 0x2F74 JUMP JUMPDEST PUSH1 0xA PUSH1 0x20 MSTORE PUSH0 SWAP1 DUP2 MSTORE PUSH1 0x40 SWAP1 KECCAK256 SLOAD DUP2 JUMP JUMPDEST CALLVALUE DUP1 ISZERO PUSH2 0x929 JUMPI PUSH0 DUP1 REVERT JUMPDEST POP PUSH2 0x4A6 PUSH1 0x20 SLOAD DUP2 JUMP JUMPDEST CALLVALUE DUP1 ISZERO PUSH2 0x93E JUMPI PUSH0 DUP1 REVERT JUMPDEST POP PUSH2 0x3CD PUSH2 0x94D CALLDATASIZE PUSH1 0x4 PUSH2 0x2EC0 JUMP JUMPDEST PUSH0 SWAP1 DUP2 MSTORE PUSH1 0x5 PUSH1 0x20 MSTORE PUSH1 0x40 SWAP1 KECCAK256 SLOAD PUSH1 0xFF AND SWAP1 JUMP JUMPDEST CALLVALUE DUP1 ISZERO PUSH2 0x96C JUMPI PUSH0 DUP1 REVERT JUMPDEST POP PUSH2 0x4A6 PUSH2 0x97B CALLDATASIZE PUSH1 0x4 PUSH2 0x2F74 JUMP JUMPDEST PUSH1 0xD PUSH1 0x20 MSTORE PUSH0 SWAP1 DUP2 MSTORE PUSH1 0x40 SWAP1 KECCAK256 SLOAD DUP2 JUMP JUMPDEST CALLVALUE DUP1 ISZERO PUSH2 0x997 JUMPI PUSH0 DUP1 REVERT JUMPDEST POP PUSH1 0x2B SLOAD PUSH2 0x3CD SWAP1 PUSH1 0x1 PUSH1 0xB8 SHL SWAP1 DIV PUSH1 0xFF AND DUP2 JUMP JUMPDEST CALLVALUE DUP1 ISZERO PUSH2 0x9B7 JUMPI PUSH0 DUP1 REVERT JUMPDEST POP PUSH2 0x39D PUSH2 0x1DA5 JUMP JUMPDEST CALLVALUE DUP1 ISZERO PUSH2 0x9CB JUMPI PUSH0 DUP1 REVERT JUMPDEST POP PUSH1 0x14 SLOAD PUSH2 0x507 SWAP1 PUSH1 0x1 PUSH1 0x1 PUSH1 0xA0 SHL SUB AND DUP2 JUMP JUMPDEST CALLVALUE DUP1 ISZERO PUSH2 0x9EA JUMPI PUSH0 DUP1 REVERT JUMPDEST POP PUSH2 0x4A6 PUSH2 0x9F9 CALLDATASIZE PUSH1 0x4 PUSH2 0x2F74 JUMP JUMPDEST PUSH1 0xC PUSH1 0x20 MSTORE PUSH0 SWAP1 DUP2 MSTORE PUSH1 0x40 SWAP1 KECCAK256 SLOAD DUP2 JUMP JUMPDEST CALLVALUE DUP1 ISZERO PUSH2 0xA15 JUMPI PUSH0 DUP1 REVERT JUMPDEST POP PUSH2 0x4A6 PUSH2 0xA24 CALLDATASIZE PUSH1 0x4 PUSH2 0x3198 JUMP JUMPDEST PUSH1 0x1 PUSH1 0x1 PUSH1 0xA0 SHL SUB SWAP2 DUP3 AND PUSH0 SWAP1 DUP2 MSTORE PUSH1 0x2 PUSH1 0x20 SWAP1 DUP2 MSTORE PUSH1 0x40 DUP1 DUP4 KECCAK256 SWAP4 SWAP1 SWAP5 AND DUP3 MSTORE SWAP2 SWAP1 SWAP2 MSTORE KECCAK256 SLOAD SWAP1 JUMP JUMPDEST CALLVALUE DUP1 ISZERO PUSH2 0xA59 JUMPI PUSH0 DUP1 REVERT JUMPDEST POP PUSH2 0x4A6 PUSH2 0xA68 CALLDATASIZE PUSH1 0x4 PUSH2 0x2EC0 JUMP JUMPDEST PUSH1 0xF PUSH1 0x20 MSTORE PUSH0 SWAP1 DUP2 MSTORE PUSH1 0x40 SWAP1 KECCAK256 SLOAD DUP2 JUMP JUMPDEST CALLVALUE DUP1 ISZERO PUSH2 0xA84 JUMPI PUSH0 DUP1 REVERT JUMPDEST POP PUSH2 0x4A6 PUSH1 0x24 SLOAD DUP2 JUMP JUMPDEST CALLVALUE DUP1 ISZERO PUSH2 0xA99 JUMPI PUSH0 DUP1 REVERT JUMPDEST POP PUSH2 0x4A6 PUSH2 0xAA8 CALLDATASIZE PUSH1 0x4 PUSH2 0x2F74 JUMP JUMPDEST PUSH1 0xE PUSH1 0x20 MSTORE PUSH0 SWAP1 DUP2 MSTORE PUSH1 0x40 SWAP1 KECCAK256 SLOAD DUP2 JUMP JUMPDEST CALLVALUE DUP1 ISZERO PUSH2 0xAC4 JUMPI PUSH0 DUP1 REVERT JUMPDEST POP PUSH2 0x4A6 PUSH1 0x27 SLOAD DUP2 JUMP JUMPDEST CALLVALUE DUP1 ISZERO PUSH2 0xAD9 JUMPI PUSH0 DUP1 REVERT JUMPDEST POP PUSH2 0x3CD PUSH2 0xAE8 CALLDATASIZE PUSH1 0x4 PUSH2 0x2EC0 JUMP JUMPDEST PUSH1 0x4 PUSH1 0x20 MSTORE PUSH0 SWAP1 DUP2 MSTORE PUSH1 0x40 SWAP1 KECCAK256 SLOAD PUSH1 0xFF AND DUP2 JUMP JUMPDEST CALLVALUE DUP1 ISZERO PUSH2 0xB07 JUMPI PUSH0 DUP1 REVERT JUMPDEST POP PUSH2 0x39D PUSH2 0x215F JUMP JUMPDEST CALLVALUE DUP1 ISZERO PUSH2 0xB1B JUMPI PUSH0 DUP1 REVERT JUMPDEST POP PUSH2 0x4A6 PUSH1 0x23 SLOAD DUP2 JUMP JUMPDEST PUSH1 0x10 SLOAD PUSH1 0x1 PUSH1 0x1 PUSH1 0xA0 SHL SUB AND CALLER EQ PUSH2 0xB3B JUMPI PUSH0 DUP1 REVERT JUMPDEST PUSH1 0x25 DUP3 SWAP1 SSTORE PUSH2 0xB4C PUSH1 0x3 PUSH1 0x9 PUSH2 0x31E3 JUMP JUMPDEST PUSH2 0xB57 SWAP1 PUSH1 0xA PUSH2 0x32DC JUMP JUMPDEST PUSH2 0xB61 SWAP1 DUP3 PUSH2 0x32EA JUMP JUMPDEST PUSH1 0x29 SSTORE POP POP JUMP JUMPDEST PUSH0 SLOAD PUSH1 0x1 PUSH1 0x1 PUSH1 0xA0 SHL SUB AND CALLER EQ PUSH2 0xB9A JUMPI PUSH1 0x40 MLOAD PUSH3 0x461BCD PUSH1 0xE5 SHL DUP2 MSTORE PUSH1 0x4 ADD PUSH2 0xB91 SWAP1 PUSH2 0x3301 JUMP JUMPDEST PUSH1 0x40 MLOAD DUP1 SWAP2 SUB SWAP1 REVERT JUMPDEST ADDRESS PUSH0 SWAP1 DUP2 MSTORE PUSH1 0x1 PUSH1 0x20 MSTORE PUSH1 0x40 SWAP1 KECCAK256 SLOAD DUP2 GT ISZERO PUSH2 0xBF8 JUMPI PUSH1 0x40 MLOAD PUSH3 0x461BCD PUSH1 0xE5 SHL DUP2 MSTORE PUSH1 0x20 PUSH1 0x4 DUP3 ADD MSTORE PUSH1 0x1D PUSH1 0x24 DUP3 ADD MSTORE PUSH32 0x4E6F7420656E6F75676820746F6B656E7320696E20636F6E7472616374000000 PUSH1 0x44 DUP3 ADD MSTORE PUSH1 0x64 ADD PUSH2 0xB91 JUMP JUMPDEST PUSH2 0xC03 ADDRESS DUP4 DUP4 PUSH2 0x219B JUMP JUMPDEST POP POP JUMP JUMPDEST PUSH0 PUSH2 0xC13 CALLER DUP5 DUP5 PUSH2 0x277E JUMP JUMPDEST POP PUSH1 0x1 JUMPDEST SWAP3 SWAP2 POP POP JUMP JUMPDEST PUSH1 0x14 SLOAD PUSH1 0x1 PUSH1 0x1 PUSH1 0xA0 SHL SUB AND CALLER EQ PUSH2 0xC8B JUMPI PUSH1 0x40 MLOAD PUSH3 0x461BCD PUSH1 0xE5 SHL DUP2 MSTORE PUSH1 0x20 PUSH1 0x4 DUP3 ADD MSTORE PUSH1 0x2B PUSH1 0x24 DUP3 ADD MSTORE PUSH32 0x4F6E6C792074686520626174746C6520636F6E74726163742063616E2072656D PUSH1 0x44 DUP3 ADD MSTORE PUSH11 0x6F766520706F74696F6E73 PUSH1 0xA8 SHL PUSH1 0x64 DUP3 ADD MSTORE PUSH1 0x84 ADD PUSH2 0xB91 JUMP JUMPDEST PUSH0 DUP3 DUP2 MSTORE PUSH1 0x4 PUSH1 0x20 DUP2 DUP2 MSTORE PUSH1 0x40 DUP1 DUP5 KECCAK256 DUP1 SLOAD PUSH1 0xFF NOT SWAP1 DUP2 AND SWAP1 SWAP2 SSTORE PUSH1 0x5 DUP1 DUP5 MSTORE DUP3 DUP7 KECCAK256 DUP1 SLOAD DUP4 AND SWAP1 SSTORE PUSH1 0x6 DUP1 DUP6 MSTORE DUP4 DUP8 KECCAK256 DUP1 SLOAD DUP5 AND SWAP1 SSTORE PUSH1 0x7 DUP1 DUP7 MSTORE DUP5 DUP9 KECCAK256 DUP1 SLOAD DUP6 AND SWAP1 SSTORE DUP9 DUP9 MSTORE SWAP6 DUP6 MSTORE DUP4 DUP8 KECCAK256 DUP1 SLOAD DUP5 AND SWAP1 SSTORE SWAP1 DUP5 MSTORE DUP3 DUP7 KECCAK256 DUP1 SLOAD DUP4 AND SWAP1 SSTORE DUP4 MSTORE DUP2 DUP6 KECCAK256 DUP1 SLOAD DUP3 AND SWAP1 SSTORE SWAP3 DUP3 MSTORE SWAP3 DUP4 SWAP1 KECCAK256 DUP1 SLOAD SWAP1 SWAP3 AND SWAP1 SWAP2 SSTORE DUP2 MLOAD DUP5 DUP2 MSTORE SWAP1 DUP2 ADD DUP4 SWAP1 MSTORE PUSH32 0x16552DC0EEAA5453189CA1B57F62BF76590B234053B60BD7120B6A49977D637F SWAP2 ADD JUMPDEST PUSH1 0x40 MLOAD DUP1 SWAP2 SUB SWAP1 LOG1 POP POP JUMP JUMPDEST PUSH0 SLOAD PUSH1 0x1 PUSH1 0x1 PUSH1 0xA0 SHL SUB AND CALLER EQ PUSH2 0xD69 JUMPI PUSH1 0x40 MLOAD PUSH3 0x461BCD PUSH1 0xE5 SHL DUP2 MSTORE PUSH1 0x4 ADD PUSH2 0xB91 SWAP1 PUSH2 0x3301 JUMP JUMPDEST PUSH1 0x14 DUP1 SLOAD PUSH1 0x1 PUSH1 0x1 PUSH1 0xA0 SHL SUB NOT AND PUSH1 0x1 PUSH1 0x1 PUSH1 0xA0 SHL SUB SWAP3 SWAP1 SWAP3 AND SWAP2 SWAP1 SWAP2 OR SWAP1 SSTORE JUMP JUMPDEST PUSH0 PUSH2 0xD97 DUP5 DUP5 DUP5 PUSH2 0x219B JUMP JUMPDEST PUSH2 0xDE8 DUP5 CALLER PUSH2 0xDE3 DUP6 PUSH1 0x40 MLOAD DUP1 PUSH1 0x60 ADD PUSH1 0x40 MSTORE DUP1 PUSH1 0x28 DUP2 MSTORE PUSH1 0x20 ADD PUSH2 0x3575 PUSH1 0x28 SWAP2 CODECOPY PUSH1 0x1 PUSH1 0x1 PUSH1 0xA0 SHL SUB DUP11 AND PUSH0 SWAP1 DUP2 MSTORE PUSH1 0x2 PUSH1 0x20 SWAP1 DUP2 MSTORE PUSH1 0x40 DUP1 DUP4 KECCAK256 CALLER DUP5 MSTORE SWAP1 SWAP2 MSTORE SWAP1 KECCAK256 SLOAD SWAP2 SWAP1 PUSH2 0x28A1 JUMP JUMPDEST PUSH2 0x277E JUMP JUMPDEST POP PUSH1 0x1 SWAP4 SWAP3 POP POP POP JUMP JUMPDEST PUSH0 DUP3 GT DUP1 PUSH2 0xDFF JUMPI POP PUSH0 DUP2 GT JUMPDEST PUSH2 0xE4B JUMPI PUSH1 0x40 MLOAD PUSH3 0x461BCD PUSH1 0xE5 SHL DUP2 MSTORE PUSH1 0x20 PUSH1 0x4 DUP3 ADD MSTORE PUSH1 0x1F PUSH1 0x24 DUP3 ADD MSTORE PUSH32 0x416D6F756E742073686F756C642062652067726561746572207468616E203000 PUSH1 0x44 DUP3 ADD MSTORE PUSH1 0x64 ADD PUSH2 0xB91 JUMP JUMPDEST PUSH2 0xE57 PUSH1 0x9 PUSH1 0xA PUSH2 0x32DC JUMP JUMPDEST PUSH2 0xE61 SWAP1 DUP3 PUSH2 0x32EA JUMP JUMPDEST CALLVALUE LT ISZERO PUSH2 0xEB0 JUMPI PUSH1 0x40 MLOAD PUSH3 0x461BCD PUSH1 0xE5 SHL DUP2 MSTORE PUSH1 0x20 PUSH1 0x4 DUP3 ADD MSTORE PUSH1 0x19 PUSH1 0x24 DUP3 ADD MSTORE PUSH32 0x496E636F72726563742045544820616D6F756E742073656E7400000000000000 PUSH1 0x44 DUP3 ADD MSTORE PUSH1 0x64 ADD PUSH2 0xB91 JUMP JUMPDEST DUP2 ISZERO PUSH2 0xF3B JUMPI CALLER PUSH0 SWAP1 DUP2 MSTORE PUSH1 0x1 PUSH1 0x20 MSTORE PUSH1 0x40 SWAP1 KECCAK256 SLOAD DUP3 GT ISZERO PUSH2 0xF0D JUMPI PUSH1 0x40 MLOAD PUSH3 0x461BCD PUSH1 0xE5 SHL DUP2 MSTORE PUSH1 0x20 PUSH1 0x4 DUP3 ADD MSTORE PUSH1 0x16 PUSH1 0x24 DUP3 ADD MSTORE PUSH22 0x4E6F7420656E6F7567682048474D5320746F6B656E73 PUSH1 0x50 SHL PUSH1 0x44 DUP3 ADD MSTORE PUSH1 0x64 ADD PUSH2 0xB91 JUMP JUMPDEST PUSH2 0xF17 CALLER DUP4 PUSH2 0x28D9 JUMP JUMPDEST CALLER PUSH0 SWAP1 DUP2 MSTORE PUSH1 0x9 PUSH1 0x20 MSTORE PUSH1 0x40 DUP2 KECCAK256 DUP1 SLOAD DUP5 SWAP3 SWAP1 PUSH2 0xF35 SWAP1 DUP5 SWAP1 PUSH2 0x3336 JUMP JUMPDEST SWAP1 SWAP2 SSTORE POP POP JUMPDEST DUP1 ISZERO PUSH2 0xF6E JUMPI CALLER PUSH0 SWAP1 DUP2 MSTORE PUSH1 0xA PUSH1 0x20 MSTORE PUSH1 0x40 DUP2 KECCAK256 DUP1 SLOAD DUP4 SWAP3 SWAP1 PUSH2 0xF5F SWAP1 DUP5 SWAP1 PUSH2 0x3336 JUMP JUMPDEST SWAP1 SWAP2 SSTORE POP PUSH2 0xF6E SWAP1 POP CALLVALUE PUSH2 0x2A54 JUMP JUMPDEST PUSH1 0x40 MLOAD PUSH32 0xED21248CB703B524CC0029BB8669DF941BACA560163A3BC6AD184E7E9C268070 SWAP1 PUSH0 SWAP1 LOG1 POP POP JUMP JUMPDEST PUSH1 0x10 SLOAD PUSH1 0x1 PUSH1 0x1 PUSH1 0xA0 SHL SUB AND CALLER EQ PUSH2 0xFB0 JUMPI PUSH0 DUP1 REVERT JUMPDEST PUSH1 0x23 DUP3 SWAP1 SSTORE PUSH2 0xFC1 PUSH1 0x3 PUSH1 0x9 PUSH2 0x31E3 JUMP JUMPDEST PUSH2 0xFCC SWAP1 PUSH1 0xA PUSH2 0x32DC JUMP JUMPDEST PUSH2 0xFD6 SWAP1 DUP3 PUSH2 0x32EA JUMP JUMPDEST PUSH1 0x27 SSTORE POP POP JUMP JUMPDEST PUSH0 SLOAD PUSH1 0x1 PUSH1 0x1 PUSH1 0xA0 SHL SUB AND CALLER EQ PUSH2 0x1006 JUMPI PUSH1 0x40 MLOAD PUSH3 0x461BCD PUSH1 0xE5 SHL DUP2 MSTORE PUSH1 0x4 ADD PUSH2 0xB91 SWAP1 PUSH2 0x3301 JUMP JUMPDEST PUSH0 DUP1 SLOAD PUSH1 0x40 MLOAD PUSH1 0x1 PUSH1 0x1 PUSH1 0xA0 SHL SUB SWAP1 SWAP2 AND SWAP1 PUSH32 0x8BE0079C531659141344CD1FD0A4F28419497F9722A3DAAFE3B4186F6B6457E0 SWAP1 DUP4 SWAP1 LOG3 PUSH0 DUP1 SLOAD PUSH1 0x1 PUSH1 0x1 PUSH1 0xA0 SHL SUB NOT AND SWAP1 SSTORE JUMP JUMPDEST PUSH0 SLOAD PUSH1 0x1 PUSH1 0x1 PUSH1 0xA0 SHL SUB AND CALLER EQ PUSH2 0x1077 JUMPI PUSH1 0x40 MLOAD PUSH3 0x461BCD PUSH1 0xE5 SHL DUP2 MSTORE PUSH1 0x4 ADD PUSH2 0xB91 SWAP1 PUSH2 0x3301 JUMP JUMPDEST PUSH2 0x107F PUSH2 0x2B13 JUMP JUMPDEST JUMP JUMPDEST PUSH1 0x10 SLOAD PUSH1 0x1 PUSH1 0x1 PUSH1 0xA0 SHL SUB AND CALLER EQ PUSH2 0x1097 JUMPI PUSH0 DUP1 REVERT JUMPDEST PUSH1 0x40 MLOAD PUSH4 0x58545241 PUSH1 0xE0 SHL PUSH1 0x20 DUP3 ADD MSTORE PUSH1 0x24 ADD PUSH1 0x40 MLOAD PUSH1 0x20 DUP2 DUP4 SUB SUB DUP2 MSTORE SWAP1 PUSH1 0x40 MSTORE DUP1 MLOAD SWAP1 PUSH1 0x20 ADD KECCAK256 DUP2 PUSH1 0x40 MLOAD PUSH1 0x20 ADD PUSH2 0x10D1 SWAP2 SWAP1 PUSH2 0x3349 JUMP JUMPDEST PUSH1 0x40 MLOAD PUSH1 0x20 DUP2 DUP4 SUB SUB DUP2 MSTORE SWAP1 PUSH1 0x40 MSTORE DUP1 MLOAD SWAP1 PUSH1 0x20 ADD KECCAK256 SUB PUSH2 0x1203 JUMPI DUP2 MLOAD PUSH1 0x1 PUSH1 0x1 PUSH1 0xA0 SHL SUB DUP5 AND PUSH0 SWAP1 DUP2 MSTORE PUSH1 0xB PUSH1 0x20 MSTORE PUSH1 0x40 SWAP1 KECCAK256 SLOAD LT ISZERO PUSH2 0x1124 JUMPI PUSH1 0x40 MLOAD PUSH3 0x461BCD PUSH1 0xE5 SHL DUP2 MSTORE PUSH1 0x4 ADD PUSH2 0xB91 SWAP1 PUSH2 0x3364 JUMP JUMPDEST PUSH0 JUMPDEST DUP3 MLOAD DUP2 LT ISZERO PUSH2 0x11FD JUMPI PUSH1 0x1 PUSH1 0x4 PUSH0 DUP6 DUP5 DUP2 MLOAD DUP2 LT PUSH2 0x1146 JUMPI PUSH2 0x1146 PUSH2 0x33A8 JUMP JUMPDEST PUSH1 0x20 MUL PUSH1 0x20 ADD ADD MLOAD DUP2 MSTORE PUSH1 0x20 ADD SWAP1 DUP2 MSTORE PUSH1 0x20 ADD PUSH0 KECCAK256 PUSH0 PUSH2 0x100 EXP DUP2 SLOAD DUP2 PUSH1 0xFF MUL NOT AND SWAP1 DUP4 ISZERO ISZERO MUL OR SWAP1 SSTORE POP PUSH1 0x1 PUSH1 0xB PUSH0 DUP7 PUSH1 0x1 PUSH1 0x1 PUSH1 0xA0 SHL SUB AND PUSH1 0x1 PUSH1 0x1 PUSH1 0xA0 SHL SUB AND DUP2 MSTORE PUSH1 0x20 ADD SWAP1 DUP2 MSTORE PUSH1 0x20 ADD PUSH0 KECCAK256 PUSH0 DUP3 DUP3 SLOAD PUSH2 0x11A4 SWAP2 SWAP1 PUSH2 0x33BC JUMP JUMPDEST SWAP3 POP POP DUP2 SWAP1 SSTORE POP PUSH1 0x1 PUSH1 0xF PUSH0 DUP6 DUP5 DUP2 MLOAD DUP2 LT PUSH2 0x11C2 JUMPI PUSH2 0x11C2 PUSH2 0x33A8 JUMP JUMPDEST PUSH1 0x20 MUL PUSH1 0x20 ADD ADD MLOAD DUP2 MSTORE PUSH1 0x20 ADD SWAP1 DUP2 MSTORE PUSH1 0x20 ADD PUSH0 KECCAK256 PUSH0 DUP3 DUP3 SLOAD PUSH2 0x11E5 SWAP2 SWAP1 PUSH2 0x3336 JUMP JUMPDEST SWAP1 SWAP2 SSTORE POP DUP2 SWAP1 POP PUSH2 0x11F5 DUP2 PUSH2 0x33CF JUMP JUMPDEST SWAP2 POP POP PUSH2 0x1126 JUMP JUMPDEST POP POP POP POP JUMP JUMPDEST PUSH1 0x40 MLOAD PUSH5 0x1093D3D4D5 PUSH1 0xDA SHL PUSH1 0x20 DUP3 ADD MSTORE PUSH1 0x25 ADD PUSH1 0x40 MLOAD PUSH1 0x20 DUP2 DUP4 SUB SUB DUP2 MSTORE SWAP1 PUSH1 0x40 MSTORE DUP1 MLOAD SWAP1 PUSH1 0x20 ADD KECCAK256 DUP2 PUSH1 0x40 MLOAD PUSH1 0x20 ADD PUSH2 0x123E SWAP2 SWAP1 PUSH2 0x3349 JUMP JUMPDEST PUSH1 0x40 MLOAD PUSH1 0x20 DUP2 DUP4 SUB SUB DUP2 MSTORE SWAP1 PUSH1 0x40 MSTORE DUP1 MLOAD SWAP1 PUSH1 0x20 ADD KECCAK256 SUB PUSH2 0x136A JUMPI DUP2 MLOAD PUSH1 0x1 PUSH1 0x1 PUSH1 0xA0 SHL SUB DUP5 AND PUSH0 SWAP1 DUP2 MSTORE PUSH1 0xC PUSH1 0x20 MSTORE PUSH1 0x40 SWAP1 KECCAK256 SLOAD LT ISZERO PUSH2 0x1291 JUMPI PUSH1 0x40 MLOAD PUSH3 0x461BCD PUSH1 0xE5 SHL DUP2 MSTORE PUSH1 0x4 ADD PUSH2 0xB91 SWAP1 PUSH2 0x3364 JUMP JUMPDEST PUSH0 JUMPDEST DUP3 MLOAD DUP2 LT ISZERO PUSH2 0x11FD JUMPI PUSH1 0x1 PUSH1 0x6 PUSH0 DUP6 DUP5 DUP2 MLOAD DUP2 LT PUSH2 0x12B3 JUMPI PUSH2 0x12B3 PUSH2 0x33A8 JUMP JUMPDEST PUSH1 0x20 MUL PUSH1 0x20 ADD ADD MLOAD DUP2 MSTORE PUSH1 0x20 ADD SWAP1 DUP2 MSTORE PUSH1 0x20 ADD PUSH0 KECCAK256 PUSH0 PUSH2 0x100 EXP DUP2 SLOAD DUP2 PUSH1 0xFF MUL NOT AND SWAP1 DUP4 ISZERO ISZERO MUL OR SWAP1 SSTORE POP PUSH1 0x1 PUSH1 0xC PUSH0 DUP7 PUSH1 0x1 PUSH1 0x1 PUSH1 0xA0 SHL SUB AND PUSH1 0x1 PUSH1 0x1 PUSH1 0xA0 SHL SUB AND DUP2 MSTORE PUSH1 0x20 ADD SWAP1 DUP2 MSTORE PUSH1 0x20 ADD PUSH0 KECCAK256 PUSH0 DUP3 DUP3 SLOAD PUSH2 0x1311 SWAP2 SWAP1 PUSH2 0x33BC JUMP JUMPDEST SWAP3 POP POP DUP2 SWAP1 SSTORE POP PUSH1 0x1 PUSH1 0xF PUSH0 DUP6 DUP5 DUP2 MLOAD DUP2 LT PUSH2 0x132F JUMPI PUSH2 0x132F PUSH2 0x33A8 JUMP JUMPDEST PUSH1 0x20 MUL PUSH1 0x20 ADD ADD MLOAD DUP2 MSTORE PUSH1 0x20 ADD SWAP1 DUP2 MSTORE PUSH1 0x20 ADD PUSH0 KECCAK256 PUSH0 DUP3 DUP3 SLOAD PUSH2 0x1352 SWAP2 SWAP1 PUSH2 0x3336 JUMP JUMPDEST SWAP1 SWAP2 SSTORE POP DUP2 SWAP1 POP PUSH2 0x1362 DUP2 PUSH2 0x33CF JUMP JUMPDEST SWAP2 POP POP PUSH2 0x1293 JUMP JUMPDEST PUSH1 0x40 MLOAD PUSH1 0x2B PUSH1 0xF9 SHL PUSH1 0x20 DUP3 ADD MSTORE PUSH1 0x21 ADD PUSH1 0x40 MLOAD PUSH1 0x20 DUP2 DUP4 SUB SUB DUP2 MSTORE SWAP1 PUSH1 0x40 MSTORE DUP1 MLOAD SWAP1 PUSH1 0x20 ADD KECCAK256 DUP2 PUSH1 0x40 MLOAD PUSH1 0x20 ADD PUSH2 0x13A1 SWAP2 SWAP1 PUSH2 0x3349 JUMP JUMPDEST PUSH1 0x40 MLOAD PUSH1 0x20 DUP2 DUP4 SUB SUB DUP2 MSTORE SWAP1 PUSH1 0x40 MSTORE DUP1 MLOAD SWAP1 PUSH1 0x20 ADD KECCAK256 SUB PUSH2 0x14CD JUMPI DUP2 MLOAD PUSH1 0x1 PUSH1 0x1 PUSH1 0xA0 SHL SUB DUP5 AND PUSH0 SWAP1 DUP2 MSTORE PUSH1 0xD PUSH1 0x20 MSTORE PUSH1 0x40 SWAP1 KECCAK256 SLOAD LT ISZERO PUSH2 0x13F4 JUMPI PUSH1 0x40 MLOAD PUSH3 0x461BCD PUSH1 0xE5 SHL DUP2 MSTORE PUSH1 0x4 ADD PUSH2 0xB91 SWAP1 PUSH2 0x3364 JUMP JUMPDEST PUSH0 JUMPDEST DUP3 MLOAD DUP2 LT ISZERO PUSH2 0x11FD JUMPI PUSH1 0x1 PUSH1 0x5 PUSH0 DUP6 DUP5 DUP2 MLOAD DUP2 LT PUSH2 0x1416 JUMPI PUSH2 0x1416 PUSH2 0x33A8 JUMP JUMPDEST PUSH1 0x20 MUL PUSH1 0x20 ADD ADD MLOAD DUP2 MSTORE PUSH1 0x20 ADD SWAP1 DUP2 MSTORE PUSH1 0x20 ADD PUSH0 KECCAK256 PUSH0 PUSH2 0x100 EXP DUP2 SLOAD DUP2 PUSH1 0xFF MUL NOT AND SWAP1 DUP4 ISZERO ISZERO MUL OR SWAP1 SSTORE POP PUSH1 0x1 PUSH1 0xD PUSH0 DUP7 PUSH1 0x1 PUSH1 0x1 PUSH1 0xA0 SHL SUB AND PUSH1 0x1 PUSH1 0x1 PUSH1 0xA0 SHL SUB AND DUP2 MSTORE PUSH1 0x20 ADD SWAP1 DUP2 MSTORE PUSH1 0x20 ADD PUSH0 KECCAK256 PUSH0 DUP3 DUP3 SLOAD PUSH2 0x1474 SWAP2 SWAP1 PUSH2 0x33BC JUMP JUMPDEST SWAP3 POP POP DUP2 SWAP1 SSTORE POP PUSH1 0x1 PUSH1 0xF PUSH0 DUP6 DUP5 DUP2 MLOAD DUP2 LT PUSH2 0x1492 JUMPI PUSH2 0x1492 PUSH2 0x33A8 JUMP JUMPDEST PUSH1 0x20 MUL PUSH1 0x20 ADD ADD MLOAD DUP2 MSTORE PUSH1 0x20 ADD SWAP1 DUP2 MSTORE PUSH1 0x20 ADD PUSH0 KECCAK256 PUSH0 DUP3 DUP3 SLOAD PUSH2 0x14B5 SWAP2 SWAP1 PUSH2 0x3336 JUMP JUMPDEST SWAP1 SWAP2 SSTORE POP DUP2 SWAP1 POP PUSH2 0x14C5 DUP2 PUSH2 0x33CF JUMP JUMPDEST SWAP2 POP POP PUSH2 0x13F6 JUMP JUMPDEST PUSH1 0x40 MLOAD PUSH4 0x534B495 PUSH1 0xE4 SHL PUSH1 0x20 DUP3 ADD MSTORE PUSH1 0x24 ADD PUSH1 0x40 MLOAD PUSH1 0x20 DUP2 DUP4 SUB SUB DUP2 MSTORE SWAP1 PUSH1 0x40 MSTORE DUP1 MLOAD SWAP1 PUSH1 0x20 ADD KECCAK256 DUP2 PUSH1 0x40 MLOAD PUSH1 0x20 ADD PUSH2 0x1507 SWAP2 SWAP1 PUSH2 0x3349 JUMP JUMPDEST PUSH1 0x40 MLOAD PUSH1 0x20 DUP2 DUP4 SUB SUB DUP2 MSTORE SWAP1 PUSH1 0x40 MSTORE DUP1 MLOAD SWAP1 PUSH1 0x20 ADD KECCAK256 SUB PUSH2 0x1633 JUMPI DUP2 MLOAD PUSH1 0x1 PUSH1 0x1 PUSH1 0xA0 SHL SUB DUP5 AND PUSH0 SWAP1 DUP2 MSTORE PUSH1 0xE PUSH1 0x20 MSTORE PUSH1 0x40 SWAP1 KECCAK256 SLOAD LT ISZERO PUSH2 0x155A JUMPI PUSH1 0x40 MLOAD PUSH3 0x461BCD PUSH1 0xE5 SHL DUP2 MSTORE PUSH1 0x4 ADD PUSH2 0xB91 SWAP1 PUSH2 0x3364 JUMP JUMPDEST PUSH0 JUMPDEST DUP3 MLOAD DUP2 LT ISZERO PUSH2 0x11FD JUMPI PUSH1 0x1 PUSH1 0x7 PUSH0 DUP6 DUP5 DUP2 MLOAD DUP2 LT PUSH2 0x157C JUMPI PUSH2 0x157C PUSH2 0x33A8 JUMP JUMPDEST PUSH1 0x20 MUL PUSH1 0x20 ADD ADD MLOAD DUP2 MSTORE PUSH1 0x20 ADD SWAP1 DUP2 MSTORE PUSH1 0x20 ADD PUSH0 KECCAK256 PUSH0 PUSH2 0x100 EXP DUP2 SLOAD DUP2 PUSH1 0xFF MUL NOT AND SWAP1 DUP4 ISZERO ISZERO MUL OR SWAP1 SSTORE POP PUSH1 0x1 PUSH1 0xE PUSH0 DUP7 PUSH1 0x1 PUSH1 0x1 PUSH1 0xA0 SHL SUB AND PUSH1 0x1 PUSH1 0x1 PUSH1 0xA0 SHL SUB AND DUP2 MSTORE PUSH1 0x20 ADD SWAP1 DUP2 MSTORE PUSH1 0x20 ADD PUSH0 KECCAK256 PUSH0 DUP3 DUP3 SLOAD PUSH2 0x15DA SWAP2 SWAP1 PUSH2 0x33BC JUMP JUMPDEST SWAP3 POP POP DUP2 SWAP1 SSTORE POP PUSH1 0x1 PUSH1 0xF PUSH0 DUP6 DUP5 DUP2 MLOAD DUP2 LT PUSH2 0x15F8 JUMPI PUSH2 0x15F8 PUSH2 0x33A8 JUMP JUMPDEST PUSH1 0x20 MUL PUSH1 0x20 ADD ADD MLOAD DUP2 MSTORE PUSH1 0x20 ADD SWAP1 DUP2 MSTORE PUSH1 0x20 ADD PUSH0 KECCAK256 PUSH0 DUP3 DUP3 SLOAD PUSH2 0x161B SWAP2 SWAP1 PUSH2 0x3336 JUMP JUMPDEST SWAP1 SWAP2 SSTORE POP DUP2 SWAP1 POP PUSH2 0x162B DUP2 PUSH2 0x33CF JUMP JUMPDEST SWAP2 POP POP PUSH2 0x155C JUMP JUMPDEST PUSH1 0x40 MLOAD PUSH3 0x461BCD PUSH1 0xE5 SHL DUP2 MSTORE PUSH1 0x20 PUSH1 0x4 DUP3 ADD MSTORE PUSH1 0x11 PUSH1 0x24 DUP3 ADD MSTORE PUSH17 0x57726F6E6720506F74696F6E204E616D65 PUSH1 0x78 SHL PUSH1 0x44 DUP3 ADD MSTORE PUSH1 0x64 ADD PUSH2 0xB91 JUMP JUMPDEST PUSH1 0x10 SLOAD PUSH1 0x1 PUSH1 0x1 PUSH1 0xA0 SHL SUB AND CALLER EQ PUSH2 0x1685 JUMPI PUSH0 DUP1 REVERT JUMPDEST PUSH1 0x22 DUP3 SWAP1 SSTORE PUSH2 0x1696 PUSH1 0x3 PUSH1 0x9 PUSH2 0x31E3 JUMP JUMPDEST PUSH2 0x16A1 SWAP1 PUSH1 0xA PUSH2 0x32DC JUMP JUMPDEST PUSH2 0x16AB SWAP1 DUP3 PUSH2 0x32EA JUMP JUMPDEST PUSH1 0x26 SSTORE POP POP JUMP JUMPDEST PUSH1 0x12 SLOAD PUSH1 0x1 PUSH1 0x1 PUSH1 0xA0 SHL SUB AND CALLER PUSH1 0x1 PUSH1 0x1 PUSH1 0xA0 SHL SUB AND EQ PUSH2 0x16D1 JUMPI PUSH0 DUP1 REVERT JUMPDEST ADDRESS PUSH0 SWAP1 DUP2 MSTORE PUSH1 0x1 PUSH1 0x20 MSTORE PUSH1 0x40 SWAP1 KECCAK256 SLOAD DUP1 ISZERO PUSH2 0x16EF JUMPI PUSH2 0x16EF DUP2 PUSH2 0x2B8B JUMP JUMPDEST SELFBALANCE DUP1 ISZERO PUSH2 0xC03 JUMPI PUSH2 0xC03 DUP2 PUSH2 0x2A54 JUMP JUMPDEST PUSH1 0x10 SLOAD PUSH1 0x1 PUSH1 0x1 PUSH1 0xA0 SHL SUB AND CALLER EQ PUSH2 0x1715 JUMPI PUSH0 DUP1 REVERT JUMPDEST PUSH1 0x40 MLOAD PUSH4 0x58545241 PUSH1 0xE0 SHL PUSH1 0x20 DUP3 ADD MSTORE PUSH1 0x24 ADD PUSH1 0x40 MLOAD PUSH1 0x20 DUP2 DUP4 SUB SUB DUP2 MSTORE SWAP1 PUSH1 0x40 MSTORE DUP1 MLOAD SWAP1 PUSH1 0x20 ADD KECCAK256 DUP4 PUSH1 0x40 MLOAD PUSH1 0x20 ADD PUSH2 0x174F SWAP2 SWAP1 PUSH2 0x3349 JUMP JUMPDEST PUSH1 0x40 MLOAD PUSH1 0x20 DUP2 DUP4 SUB SUB DUP2 MSTORE SWAP1 PUSH1 0x40 MSTORE DUP1 MLOAD SWAP1 PUSH1 0x20 ADD KECCAK256 SUB PUSH2 0x18D6 JUMPI PUSH1 0x22 SLOAD PUSH0 SWAP1 PUSH2 0x1779 SWAP1 DUP4 PUSH2 0x2CFB JUMP JUMPDEST SWAP1 POP PUSH0 PUSH2 0x1791 DUP4 PUSH1 0x26 SLOAD PUSH2 0x2CFB SWAP1 SWAP2 SWAP1 PUSH4 0xFFFFFFFF AND JUMP JUMPDEST PUSH1 0x1 PUSH1 0x1 PUSH1 0xA0 SHL SUB DUP6 AND PUSH0 SWAP1 DUP2 MSTORE PUSH1 0x9 PUSH1 0x20 MSTORE PUSH1 0x40 SWAP1 KECCAK256 SLOAD SWAP1 SWAP2 POP DUP3 GT ISZERO PUSH2 0x17CB JUMPI PUSH1 0x40 MLOAD PUSH3 0x461BCD PUSH1 0xE5 SHL DUP2 MSTORE PUSH1 0x4 ADD PUSH2 0xB91 SWAP1 PUSH2 0x33E7 JUMP JUMPDEST PUSH1 0x1 PUSH1 0x1 PUSH1 0xA0 SHL SUB DUP5 AND PUSH0 SWAP1 DUP2 MSTORE PUSH1 0xA PUSH1 0x20 MSTORE PUSH1 0x40 SWAP1 KECCAK256 SLOAD DUP2 GT ISZERO PUSH2 0x1802 JUMPI PUSH1 0x40 MLOAD PUSH3 0x461BCD PUSH1 0xE5 SHL DUP2 MSTORE PUSH1 0x4 ADD PUSH2 0xB91 SWAP1 PUSH2 0x3428 JUMP JUMPDEST PUSH1 0x1 PUSH1 0x1 PUSH1 0xA0 SHL SUB DUP5 AND PUSH0 SWAP1 DUP2 MSTORE PUSH1 0x9 PUSH1 0x20 MSTORE PUSH1 0x40 DUP2 KECCAK256 DUP1 SLOAD DUP5 SWAP3 SWAP1 PUSH2 0x1829 SWAP1 DUP5 SWAP1 PUSH2 0x33BC JUMP JUMPDEST SWAP1 SWAP2 SSTORE POP POP PUSH1 0x1 PUSH1 0x1 PUSH1 0xA0 SHL SUB DUP5 AND PUSH0 SWAP1 DUP2 MSTORE PUSH1 0xA PUSH1 0x20 MSTORE PUSH1 0x40 DUP2 KECCAK256 DUP1 SLOAD DUP4 SWAP3 SWAP1 PUSH2 0x1855 SWAP1 DUP5 SWAP1 PUSH2 0x33BC JUMP JUMPDEST SWAP1 SWAP2 SSTORE POP POP PUSH1 0x1 PUSH1 0x1 PUSH1 0xA0 SHL SUB DUP5 AND PUSH0 SWAP1 DUP2 MSTORE PUSH1 0xB PUSH1 0x20 MSTORE PUSH1 0x40 DUP2 KECCAK256 DUP1 SLOAD DUP6 SWAP3 SWAP1 PUSH2 0x1881 SWAP1 DUP5 SWAP1 PUSH2 0x3336 JUMP JUMPDEST SWAP1 SWAP2 SSTORE POP POP PUSH1 0x40 MLOAD PUSH1 0x1 PUSH1 0x1 PUSH1 0xA0 SHL SUB DUP6 AND SWAP1 CALLER SWAP1 PUSH32 0x3D57EEC5AB68AE7C8F1ED6299A36D8E6F61253E0F24AC6ABA38BC3FCBE7BC7AE SWAP1 PUSH2 0x18C7 SWAP1 DUP10 SWAP1 DUP7 SWAP1 DUP9 SWAP1 PUSH2 0x345D JUMP JUMPDEST PUSH1 0x40 MLOAD DUP1 SWAP2 SUB SWAP1 LOG3 POP POP POP POP POP JUMP JUMPDEST PUSH1 0x40 MLOAD PUSH5 0x1093D3D4D5 PUSH1 0xDA SHL PUSH1 0x20 DUP3 ADD MSTORE PUSH1 0x25 ADD PUSH1 0x40 MLOAD PUSH1 0x20 DUP2 DUP4 SUB SUB DUP2 MSTORE SWAP1 PUSH1 0x40 MSTORE DUP1 MLOAD SWAP1 PUSH1 0x20 ADD KECCAK256 DUP4 PUSH1 0x40 MLOAD PUSH1 0x20 ADD PUSH2 0x1911 SWAP2 SWAP1 PUSH2 0x3349 JUMP JUMPDEST PUSH1 0x40 MLOAD PUSH1 0x20 DUP2 DUP4 SUB SUB DUP2 MSTORE SWAP1 PUSH1 0x40 MSTORE DUP1 MLOAD SWAP1 PUSH1 0x20 ADD KECCAK256 SUB PUSH2 0x1A43 JUMPI PUSH1 0x23 SLOAD PUSH0 SWAP1 PUSH2 0x193B SWAP1 DUP4 PUSH2 0x2CFB JUMP JUMPDEST SWAP1 POP PUSH0 PUSH2 0x1953 DUP4 PUSH1 0x27 SLOAD PUSH2 0x2CFB SWAP1 SWAP2 SWAP1 PUSH4 0xFFFFFFFF AND JUMP JUMPDEST PUSH1 0x1 PUSH1 0x1 PUSH1 0xA0 SHL SUB DUP6 AND PUSH0 SWAP1 DUP2 MSTORE PUSH1 0x9 PUSH1 0x20 MSTORE PUSH1 0x40 SWAP1 KECCAK256 SLOAD SWAP1 SWAP2 POP DUP3 GT ISZERO PUSH2 0x198D JUMPI PUSH1 0x40 MLOAD PUSH3 0x461BCD PUSH1 0xE5 SHL DUP2 MSTORE PUSH1 0x4 ADD PUSH2 0xB91 SWAP1 PUSH2 0x33E7 JUMP JUMPDEST PUSH1 0x1 PUSH1 0x1 PUSH1 0xA0 SHL SUB DUP5 AND PUSH0 SWAP1 DUP2 MSTORE PUSH1 0xA PUSH1 0x20 MSTORE PUSH1 0x40 SWAP1 KECCAK256 SLOAD DUP2 GT ISZERO PUSH2 0x19C4 JUMPI PUSH1 0x40 MLOAD PUSH3 0x461BCD PUSH1 0xE5 SHL DUP2 MSTORE PUSH1 0x4 ADD PUSH2 0xB91 SWAP1 PUSH2 0x3428 JUMP JUMPDEST PUSH1 0x1 PUSH1 0x1 PUSH1 0xA0 SHL SUB DUP5 AND PUSH0 SWAP1 DUP2 MSTORE PUSH1 0x9 PUSH1 0x20 MSTORE PUSH1 0x40 DUP2 KECCAK256 DUP1 SLOAD DUP5 SWAP3 SWAP1 PUSH2 0x19EB SWAP1 DUP5 SWAP1 PUSH2 0x33BC JUMP JUMPDEST SWAP1 SWAP2 SSTORE POP POP PUSH1 0x1 PUSH1 0x1 PUSH1 0xA0 SHL SUB DUP5 AND PUSH0 SWAP1 DUP2 MSTORE PUSH1 0xA PUSH1 0x20 MSTORE PUSH1 0x40 DUP2 KECCAK256 DUP1 SLOAD DUP4 SWAP3 SWAP1 PUSH2 0x1A17 SWAP1 DUP5 SWAP1 PUSH2 0x33BC JUMP JUMPDEST SWAP1 SWAP2 SSTORE POP POP PUSH1 0x1 PUSH1 0x1 PUSH1 0xA0 SHL SUB DUP5 AND PUSH0 SWAP1 DUP2 MSTORE PUSH1 0xC PUSH1 0x20 MSTORE PUSH1 0x40 DUP2 KECCAK256 DUP1 SLOAD DUP6 SWAP3 SWAP1 PUSH2 0x1881 SWAP1 DUP5 SWAP1 PUSH2 0x3336 JUMP JUMPDEST PUSH1 0x40 MLOAD PUSH1 0x2B PUSH1 0xF9 SHL PUSH1 0x20 DUP3 ADD MSTORE PUSH1 0x21 ADD PUSH1 0x40 MLOAD PUSH1 0x20 DUP2 DUP4 SUB SUB DUP2 MSTORE SWAP1 PUSH1 0x40 MSTORE DUP1 MLOAD SWAP1 PUSH1 0x20 ADD KECCAK256 DUP4 PUSH1 0x40 MLOAD PUSH1 0x20 ADD PUSH2 0x1A7A SWAP2 SWAP1 PUSH2 0x3349 JUMP JUMPDEST PUSH1 0x40 MLOAD PUSH1 0x20 DUP2 DUP4 SUB SUB DUP2 MSTORE SWAP1 PUSH1 0x40 MSTORE DUP1 MLOAD SWAP1 PUSH1 0x20 ADD KECCAK256 SUB PUSH2 0x1BAC JUMPI PUSH1 0x24 SLOAD PUSH0 SWAP1 PUSH2 0x1AA4 SWAP1 DUP4 PUSH2 0x2CFB JUMP JUMPDEST SWAP1 POP PUSH0 PUSH2 0x1ABC DUP4 PUSH1 0x28 SLOAD PUSH2 0x2CFB SWAP1 SWAP2 SWAP1 PUSH4 0xFFFFFFFF AND JUMP JUMPDEST PUSH1 0x1 PUSH1 0x1 PUSH1 0xA0 SHL SUB DUP6 AND PUSH0 SWAP1 DUP2 MSTORE PUSH1 0x9 PUSH1 0x20 MSTORE PUSH1 0x40 SWAP1 KECCAK256 SLOAD SWAP1 SWAP2 POP DUP3 GT ISZERO PUSH2 0x1AF6 JUMPI PUSH1 0x40 MLOAD PUSH3 0x461BCD PUSH1 0xE5 SHL DUP2 MSTORE PUSH1 0x4 ADD PUSH2 0xB91 SWAP1 PUSH2 0x33E7 JUMP JUMPDEST PUSH1 0x1 PUSH1 0x1 PUSH1 0xA0 SHL SUB DUP5 AND PUSH0 SWAP1 DUP2 MSTORE PUSH1 0xA PUSH1 0x20 MSTORE PUSH1 0x40 SWAP1 KECCAK256 SLOAD DUP2 GT ISZERO PUSH2 0x1B2D JUMPI PUSH1 0x40 MLOAD PUSH3 0x461BCD PUSH1 0xE5 SHL DUP2 MSTORE PUSH1 0x4 ADD PUSH2 0xB91 SWAP1 PUSH2 0x3428 JUMP JUMPDEST PUSH1 0x1 PUSH1 0x1 PUSH1 0xA0 SHL SUB DUP5 AND PUSH0 SWAP1 DUP2 MSTORE PUSH1 0x9 PUSH1 0x20 MSTORE PUSH1 0x40 DUP2 KECCAK256 DUP1 SLOAD DUP5 SWAP3 SWAP1 PUSH2 0x1B54 SWAP1 DUP5 SWAP1 PUSH2 0x33BC JUMP JUMPDEST SWAP1 SWAP2 SSTORE POP POP PUSH1 0x1 PUSH1 0x1 PUSH1 0xA0 SHL SUB DUP5 AND PUSH0 SWAP1 DUP2 MSTORE PUSH1 0xA PUSH1 0x20 MSTORE PUSH1 0x40 DUP2 KECCAK256 DUP1 SLOAD DUP4 SWAP3 SWAP1 PUSH2 0x1B80 SWAP1 DUP5 SWAP1 PUSH2 0x33BC JUMP JUMPDEST SWAP1 SWAP2 SSTORE POP POP PUSH1 0x1 PUSH1 0x1 PUSH1 0xA0 SHL SUB DUP5 AND PUSH0 SWAP1 DUP2 MSTORE PUSH1 0xD PUSH1 0x20 MSTORE PUSH1 0x40 DUP2 KECCAK256 DUP1 SLOAD DUP6 SWAP3 SWAP1 PUSH2 0x1881 SWAP1 DUP5 SWAP1 PUSH2 0x3336 JUMP JUMPDEST PUSH1 0x40 MLOAD PUSH4 0x534B495 PUSH1 0xE4 SHL PUSH1 0x20 DUP3 ADD MSTORE PUSH1 0x24 ADD PUSH1 0x40 MLOAD PUSH1 0x20 DUP2 DUP4 SUB SUB DUP2 MSTORE SWAP1 PUSH1 0x40 MSTORE DUP1 MLOAD SWAP1 PUSH1 0x20 ADD KECCAK256 DUP4 PUSH1 0x40 MLOAD PUSH1 0x20 ADD PUSH2 0x1BE6 SWAP2 SWAP1 PUSH2 0x3349 JUMP JUMPDEST PUSH1 0x40 MLOAD PUSH1 0x20 DUP2 DUP4 SUB SUB DUP2 MSTORE SWAP1 PUSH1 0x40 MSTORE DUP1 MLOAD SWAP1 PUSH1 0x20 ADD KECCAK256 SUB PUSH2 0x1D18 JUMPI PUSH1 0x25 SLOAD PUSH0 SWAP1 PUSH2 0x1C10 SWAP1 DUP4 PUSH2 0x2CFB JUMP JUMPDEST SWAP1 POP PUSH0 PUSH2 0x1C28 DUP4 PUSH1 0x29 SLOAD PUSH2 0x2CFB SWAP1 SWAP2 SWAP1 PUSH4 0xFFFFFFFF AND JUMP JUMPDEST PUSH1 0x1 PUSH1 0x1 PUSH1 0xA0 SHL SUB DUP6 AND PUSH0 SWAP1 DUP2 MSTORE PUSH1 0x9 PUSH1 0x20 MSTORE PUSH1 0x40 SWAP1 KECCAK256 SLOAD SWAP1 SWAP2 POP DUP3 GT ISZERO PUSH2 0x1C62 JUMPI PUSH1 0x40 MLOAD PUSH3 0x461BCD PUSH1 0xE5 SHL DUP2 MSTORE PUSH1 0x4 ADD PUSH2 0xB91 SWAP1 PUSH2 0x33E7 JUMP JUMPDEST PUSH1 0x1 PUSH1 0x1 PUSH1 0xA0 SHL SUB DUP5 AND PUSH0 SWAP1 DUP2 MSTORE PUSH1 0xA PUSH1 0x20 MSTORE PUSH1 0x40 SWAP1 KECCAK256 SLOAD DUP2 GT ISZERO PUSH2 0x1C99 JUMPI PUSH1 0x40 MLOAD PUSH3 0x461BCD PUSH1 0xE5 SHL DUP2 MSTORE PUSH1 0x4 ADD PUSH2 0xB91 SWAP1 PUSH2 0x3428 JUMP JUMPDEST PUSH1 0x1 PUSH1 0x1 PUSH1 0xA0 SHL SUB DUP5 AND PUSH0 SWAP1 DUP2 MSTORE PUSH1 0x9 PUSH1 0x20 MSTORE PUSH1 0x40 DUP2 KECCAK256 DUP1 SLOAD DUP5 SWAP3 SWAP1 PUSH2 0x1CC0 SWAP1 DUP5 SWAP1 PUSH2 0x33BC JUMP JUMPDEST SWAP1 SWAP2 SSTORE POP POP PUSH1 0x1 PUSH1 0x1 PUSH1 0xA0 SHL SUB DUP5 AND PUSH0 SWAP1 DUP2 MSTORE PUSH1 0xA PUSH1 0x20 MSTORE PUSH1 0x40 DUP2 KECCAK256 DUP1 SLOAD DUP4 SWAP3 SWAP1 PUSH2 0x1CEC SWAP1 DUP5 SWAP1 PUSH2 0x33BC JUMP JUMPDEST SWAP1 SWAP2 SSTORE POP POP PUSH1 0x1 PUSH1 0x1 PUSH1 0xA0 SHL SUB DUP5 AND PUSH0 SWAP1 DUP2 MSTORE PUSH1 0xE PUSH1 0x20 MSTORE PUSH1 0x40 DUP2 KECCAK256 DUP1 SLOAD DUP6 SWAP3 SWAP1 PUSH2 0x1881 SWAP1 DUP5 SWAP1 PUSH2 0x3336 JUMP JUMPDEST PUSH1 0x40 MLOAD PUSH3 0x461BCD PUSH1 0xE5 SHL DUP2 MSTORE PUSH1 0x20 PUSH1 0x4 DUP3 ADD MSTORE PUSH1 0x13 PUSH1 0x24 DUP3 ADD MSTORE PUSH19 0x496E76616C696420506F74696F6E204E616D65 PUSH1 0x68 SHL PUSH1 0x44 DUP3 ADD MSTORE PUSH1 0x64 ADD PUSH2 0xB91 JUMP JUMPDEST PUSH0 PUSH2 0xC13 CALLER DUP5 DUP5 PUSH2 0x219B JUMP JUMPDEST PUSH1 0x10 SLOAD PUSH1 0x1 PUSH1 0x1 PUSH1 0xA0 SHL SUB AND CALLER EQ PUSH2 0x1D78 JUMPI PUSH0 DUP1 REVERT JUMPDEST PUSH1 0x24 DUP3 SWAP1 SSTORE PUSH2 0x1D89 PUSH1 0x3 PUSH1 0x9 PUSH2 0x31E3 JUMP JUMPDEST PUSH2 0x1D94 SWAP1 PUSH1 0xA PUSH2 0x32DC JUMP JUMPDEST PUSH2 0x1D9E SWAP1 DUP3 PUSH2 0x32EA JUMP JUMPDEST PUSH1 0x28 SSTORE POP POP JUMP JUMPDEST PUSH0 SLOAD PUSH1 0x1 PUSH1 0x1 PUSH1 0xA0 SHL SUB AND CALLER EQ PUSH2 0x1DCE JUMPI PUSH1 0x40 MLOAD PUSH3 0x461BCD PUSH1 0xE5 SHL DUP2 MSTORE PUSH1 0x4 ADD PUSH2 0xB91 SWAP1 PUSH2 0x3301 JUMP JUMPDEST PUSH1 0x2B SLOAD PUSH1 0x1 PUSH1 0xA0 SHL SWAP1 DIV PUSH1 0xFF AND ISZERO PUSH2 0x1E28 JUMPI PUSH1 0x40 MLOAD PUSH3 0x461BCD PUSH1 0xE5 SHL DUP2 MSTORE PUSH1 0x20 PUSH1 0x4 DUP3 ADD MSTORE PUSH1 0x17 PUSH1 0x24 DUP3 ADD MSTORE PUSH32 0x74726164696E6720697320616C7265616479206F70656E000000000000000000 PUSH1 0x44 DUP3 ADD MSTORE PUSH1 0x64 ADD PUSH2 0xB91 JUMP JUMPDEST PUSH1 0x2A DUP1 SLOAD PUSH1 0x1 PUSH1 0x1 PUSH1 0xA0 SHL SUB NOT AND PUSH20 0x7A250D5630B4CF539739DF2C5DACB4C659F2488D SWAP1 DUP2 OR SWAP1 SWAP2 SSTORE PUSH1 0x1D SLOAD PUSH2 0x1E5F SWAP2 ADDRESS SWAP2 PUSH2 0x277E JUMP JUMPDEST PUSH1 0x2A PUSH0 SWAP1 SLOAD SWAP1 PUSH2 0x100 EXP SWAP1 DIV PUSH1 0x1 PUSH1 0x1 PUSH1 0xA0 SHL SUB AND PUSH1 0x1 PUSH1 0x1 PUSH1 0xA0 SHL SUB AND PUSH4 0xC45A0155 PUSH1 0x40 MLOAD DUP2 PUSH4 0xFFFFFFFF AND PUSH1 0xE0 SHL DUP2 MSTORE PUSH1 0x4 ADD PUSH1 0x20 PUSH1 0x40 MLOAD DUP1 DUP4 SUB DUP2 DUP7 GAS STATICCALL ISZERO DUP1 ISZERO PUSH2 0x1EAF JUMPI RETURNDATASIZE PUSH0 DUP1 RETURNDATACOPY RETURNDATASIZE PUSH0 REVERT JUMPDEST POP POP POP POP PUSH1 0x40 MLOAD RETURNDATASIZE PUSH1 0x1F NOT PUSH1 0x1F DUP3 ADD AND DUP3 ADD DUP1 PUSH1 0x40 MSTORE POP DUP2 ADD SWAP1 PUSH2 0x1ED3 SWAP2 SWAP1 PUSH2 0x3481 JUMP JUMPDEST PUSH1 0x1 PUSH1 0x1 PUSH1 0xA0 SHL SUB AND PUSH4 0xC9C65396 ADDRESS PUSH1 0x2A PUSH0 SWAP1 SLOAD SWAP1 PUSH2 0x100 EXP SWAP1 DIV PUSH1 0x1 PUSH1 0x1 PUSH1 0xA0 SHL SUB AND PUSH1 0x1 PUSH1 0x1 PUSH1 0xA0 SHL SUB AND PUSH4 0xAD5C4648 PUSH1 0x40 MLOAD DUP2 PUSH4 0xFFFFFFFF AND PUSH1 0xE0 SHL DUP2 MSTORE PUSH1 0x4 ADD PUSH1 0x20 PUSH1 0x40 MLOAD DUP1 DUP4 SUB DUP2 DUP7 GAS STATICCALL ISZERO DUP1 ISZERO PUSH2 0x1F32 JUMPI RETURNDATASIZE PUSH0 DUP1 RETURNDATACOPY RETURNDATASIZE PUSH0 REVERT JUMPDEST POP POP POP POP PUSH1 0x40 MLOAD RETURNDATASIZE PUSH1 0x1F NOT PUSH1 0x1F DUP3 ADD AND DUP3 ADD DUP1 PUSH1 0x40 MSTORE POP DUP2 ADD SWAP1 PUSH2 0x1F56 SWAP2 SWAP1 PUSH2 0x3481 JUMP JUMPDEST PUSH1 0x40 MLOAD PUSH1 0x1 PUSH1 0x1 PUSH1 0xE0 SHL SUB NOT PUSH1 0xE0 DUP6 SWAP1 SHL AND DUP2 MSTORE PUSH1 0x1 PUSH1 0x1 PUSH1 0xA0 SHL SUB SWAP3 DUP4 AND PUSH1 0x4 DUP3 ADD MSTORE SWAP2 AND PUSH1 0x24 DUP3 ADD MSTORE PUSH1 0x44 ADD PUSH1 0x20 PUSH1 0x40 MLOAD DUP1 DUP4 SUB DUP2 PUSH0 DUP8 GAS CALL ISZERO DUP1 ISZERO PUSH2 0x1FA0 JUMPI RETURNDATASIZE PUSH0 DUP1 RETURNDATACOPY RETURNDATASIZE PUSH0 REVERT JUMPDEST POP POP POP POP PUSH1 0x40 MLOAD RETURNDATASIZE PUSH1 0x1F NOT PUSH1 0x1F DUP3 ADD AND DUP3 ADD DUP1 PUSH1 0x40 MSTORE POP DUP2 ADD SWAP1 PUSH2 0x1FC4 SWAP2 SWAP1 PUSH2 0x3481 JUMP JUMPDEST PUSH1 0x2B DUP1 SLOAD PUSH1 0x1 PUSH1 0x1 PUSH1 0xA0 SHL SUB SWAP3 DUP4 AND PUSH1 0x1 PUSH1 0x1 PUSH1 0xA0 SHL SUB NOT SWAP1 SWAP2 AND OR SWAP1 SSTORE PUSH1 0x2A SLOAD AND PUSH4 0xF305D719 SELFBALANCE ADDRESS PUSH2 0x200B DUP2 PUSH1 0x1 PUSH1 0x1 PUSH1 0xA0 SHL SUB AND PUSH0 SWAP1 DUP2 MSTORE PUSH1 0x1 PUSH1 0x20 MSTORE PUSH1 0x40 SWAP1 KECCAK256 SLOAD SWAP1 JUMP JUMPDEST PUSH0 DUP1 PUSH2 0x201E PUSH0 SLOAD PUSH1 0x1 PUSH1 0x1 PUSH1 0xA0 SHL SUB AND SWAP1 JUMP JUMPDEST PUSH1 0x40 MLOAD PUSH1 0xE0 DUP9 SWAP1 SHL PUSH1 0x1 PUSH1 0x1 PUSH1 0xE0 SHL SUB NOT AND DUP2 MSTORE PUSH1 0x1 PUSH1 0x1 PUSH1 0xA0 SHL SUB SWAP6 DUP7 AND PUSH1 0x4 DUP3 ADD MSTORE PUSH1 0x24 DUP2 ADD SWAP5 SWAP1 SWAP5 MSTORE PUSH1 0x44 DUP5 ADD SWAP3 SWAP1 SWAP3 MSTORE PUSH1 0x64 DUP4 ADD MSTORE SWAP1 SWAP2 AND PUSH1 0x84 DUP3 ADD MSTORE TIMESTAMP PUSH1 0xA4 DUP3 ADD MSTORE PUSH1 0xC4 ADD PUSH1 0x60 PUSH1 0x40 MLOAD DUP1 DUP4 SUB DUP2 DUP6 DUP9 GAS CALL ISZERO DUP1 ISZERO PUSH2 0x2084 JUMPI RETURNDATASIZE PUSH0 DUP1 RETURNDATACOPY RETURNDATASIZE PUSH0 REVERT JUMPDEST POP POP POP POP POP PUSH1 0x40 MLOAD RETURNDATASIZE PUSH1 0x1F NOT PUSH1 0x1F DUP3 ADD AND DUP3 ADD DUP1 PUSH1 0x40 MSTORE POP DUP2 ADD SWAP1 PUSH2 0x20A9 SWAP2 SWAP1 PUSH2 0x349C JUMP JUMPDEST POP POP PUSH1 0x2B SLOAD PUSH1 0x2A SLOAD PUSH1 0x40 MLOAD PUSH4 0x95EA7B3 PUSH1 0xE0 SHL DUP2 MSTORE PUSH1 0x1 PUSH1 0x1 PUSH1 0xA0 SHL SUB SWAP2 DUP3 AND PUSH1 0x4 DUP3 ADD MSTORE PUSH0 NOT PUSH1 0x24 DUP3 ADD MSTORE SWAP2 AND SWAP2 POP PUSH4 0x95EA7B3 SWAP1 PUSH1 0x44 ADD PUSH1 0x20 PUSH1 0x40 MLOAD DUP1 DUP4 SUB DUP2 PUSH0 DUP8 GAS CALL ISZERO DUP1 ISZERO PUSH2 0x20FE JUMPI RETURNDATASIZE PUSH0 DUP1 RETURNDATACOPY RETURNDATASIZE PUSH0 REVERT JUMPDEST POP POP POP POP PUSH1 0x40 MLOAD RETURNDATASIZE PUSH1 0x1F NOT PUSH1 0x1F DUP3 ADD AND DUP3 ADD DUP1 PUSH1 0x40 MSTORE POP DUP2 ADD SWAP1 PUSH2 0x2122 SWAP2 SWAP1 PUSH2 0x34C7 JUMP JUMPDEST POP PUSH1 0x2B DUP1 SLOAD PUSH3 0xFF00FF PUSH1 0xA0 SHL NOT AND PUSH3 0x10001 PUSH1 0xA0 SHL OR SWAP1 SSTORE PUSH1 0x12 SLOAD ADDRESS PUSH0 DUP2 DUP2 MSTORE PUSH1 0x1 PUSH1 0x20 MSTORE PUSH1 0x40 SWAP1 KECCAK256 SLOAD PUSH2 0x107F SWAP3 PUSH1 0x1 PUSH1 0x1 PUSH1 0xA0 SHL SUB AND SWAP1 PUSH2 0x219B JUMP JUMPDEST PUSH0 SLOAD PUSH1 0x1 PUSH1 0x1 PUSH1 0xA0 SHL SUB AND CALLER EQ PUSH2 0x2188 JUMPI PUSH1 0x40 MLOAD PUSH3 0x461BCD PUSH1 0xE5 SHL DUP2 MSTORE PUSH1 0x4 ADD PUSH2 0xB91 SWAP1 PUSH2 0x3301 JUMP JUMPDEST SELFBALANCE DUP1 ISZERO PUSH2 0x2198 JUMPI PUSH2 0x2198 DUP2 PUSH2 0x2A54 JUMP JUMPDEST POP JUMP JUMPDEST PUSH1 0x1 PUSH1 0x1 PUSH1 0xA0 SHL SUB DUP4 AND PUSH2 0x21FF JUMPI PUSH1 0x40 MLOAD PUSH3 0x461BCD PUSH1 0xE5 SHL DUP2 MSTORE PUSH1 0x20 PUSH1 0x4 DUP3 ADD MSTORE PUSH1 0x25 PUSH1 0x24 DUP3 ADD MSTORE PUSH32 0x45524332303A207472616E736665722066726F6D20746865207A65726F206164 PUSH1 0x44 DUP3 ADD MSTORE PUSH5 0x6472657373 PUSH1 0xD8 SHL PUSH1 0x64 DUP3 ADD MSTORE PUSH1 0x84 ADD PUSH2 0xB91 JUMP JUMPDEST PUSH1 0x1 PUSH1 0x1 PUSH1 0xA0 SHL SUB DUP3 AND PUSH2 0x2261 JUMPI PUSH1 0x40 MLOAD PUSH3 0x461BCD PUSH1 0xE5 SHL DUP2 MSTORE PUSH1 0x20 PUSH1 0x4 DUP3 ADD MSTORE PUSH1 0x23 PUSH1 0x24 DUP3 ADD MSTORE PUSH32 0x45524332303A207472616E7366657220746F20746865207A65726F2061646472 PUSH1 0x44 DUP3 ADD MSTORE PUSH3 0x657373 PUSH1 0xE8 SHL PUSH1 0x64 DUP3 ADD MSTORE PUSH1 0x84 ADD PUSH2 0xB91 JUMP JUMPDEST PUSH0 DUP2 GT PUSH2 0x22C2 JUMPI PUSH1 0x40 MLOAD PUSH3 0x461BCD PUSH1 0xE5 SHL DUP2 MSTORE PUSH1 0x20 PUSH1 0x4 DUP3 ADD MSTORE PUSH1 0x29 PUSH1 0x24 DUP3 ADD MSTORE PUSH32 0x5472616E7366657220616D6F756E74206D757374206265206772656174657220 PUSH1 0x44 DUP3 ADD MSTORE PUSH9 0x7468616E207A65726F PUSH1 0xB8 SHL PUSH1 0x64 DUP3 ADD MSTORE PUSH1 0x84 ADD PUSH2 0xB91 JUMP JUMPDEST PUSH0 DUP1 SLOAD PUSH1 0x1 PUSH1 0x1 PUSH1 0xA0 SHL SUB DUP6 DUP2 AND SWAP2 AND EQ DUP1 ISZERO SWAP1 PUSH2 0x22ED JUMPI POP PUSH0 SLOAD PUSH1 0x1 PUSH1 0x1 PUSH1 0xA0 SHL SUB DUP5 DUP2 AND SWAP2 AND EQ ISZERO JUMPDEST ISZERO PUSH2 0x2641 JUMPI PUSH2 0x231E PUSH1 0x64 PUSH2 0x2318 PUSH1 0x19 SLOAD PUSH1 0x1C SLOAD GT PUSH2 0x230D JUMPI PUSH1 0x15 SLOAD PUSH2 0x2311 JUMP JUMPDEST PUSH1 0x17 SLOAD JUMPDEST DUP6 SWAP1 PUSH2 0x2CFB JUMP JUMPDEST SWAP1 PUSH2 0x2D80 JUMP JUMPDEST PUSH1 0x2B SLOAD SWAP1 SWAP2 POP PUSH1 0x1 PUSH1 0xB8 SHL SWAP1 DIV PUSH1 0xFF AND ISZERO PUSH2 0x240B JUMPI PUSH1 0x2A SLOAD PUSH1 0x1 PUSH1 0x1 PUSH1 0xA0 SHL SUB DUP5 DUP2 AND SWAP2 AND EQ DUP1 ISZERO SWAP1 PUSH2 0x235F JUMPI POP PUSH1 0x2B SLOAD PUSH1 0x1 PUSH1 0x1 PUSH1 0xA0 SHL SUB DUP5 DUP2 AND SWAP2 AND EQ ISZERO JUMPDEST ISZERO PUSH2 0x240B JUMPI ORIGIN PUSH0 SWAP1 DUP2 MSTORE PUSH1 0x8 PUSH1 0x20 MSTORE PUSH1 0x40 SWAP1 KECCAK256 SLOAD NUMBER GT PUSH2 0x23F9 JUMPI PUSH1 0x40 MLOAD PUSH3 0x461BCD PUSH1 0xE5 SHL DUP2 MSTORE PUSH1 0x20 PUSH1 0x4 DUP3 ADD MSTORE PUSH1 0x49 PUSH1 0x24 DUP3 ADD MSTORE PUSH32 0x5F7472616E736665723A3A205472616E736665722044656C617920656E61626C PUSH1 0x44 DUP3 ADD MSTORE PUSH32 0x65642E20204F6E6C79206F6E652070757263686173652070657220626C6F636B PUSH1 0x64 DUP3 ADD MSTORE PUSH9 0x1030B63637BBB2B217 PUSH1 0xB9 SHL PUSH1 0x84 DUP3 ADD MSTORE PUSH1 0xA4 ADD PUSH2 0xB91 JUMP JUMPDEST ORIGIN PUSH0 SWAP1 DUP2 MSTORE PUSH1 0x8 PUSH1 0x20 MSTORE PUSH1 0x40 SWAP1 KECCAK256 NUMBER SWAP1 SSTORE JUMPDEST PUSH1 0x2B SLOAD PUSH1 0x1 PUSH1 0x1 PUSH1 0xA0 SHL SUB DUP6 DUP2 AND SWAP2 AND EQ DUP1 ISZERO PUSH2 0x2436 JUMPI POP PUSH1 0x2A SLOAD PUSH1 0x1 PUSH1 0x1 PUSH1 0xA0 SHL SUB DUP5 DUP2 AND SWAP2 AND EQ ISZERO JUMPDEST DUP1 ISZERO PUSH2 0x245A JUMPI POP PUSH1 0x1 PUSH1 0x1 PUSH1 0xA0 SHL SUB DUP4 AND PUSH0 SWAP1 DUP2 MSTORE PUSH1 0x3 PUSH1 0x20 MSTORE PUSH1 0x40 SWAP1 KECCAK256 SLOAD PUSH1 0xFF AND ISZERO JUMPDEST ISZERO PUSH2 0x2540 JUMPI PUSH1 0x1E SLOAD DUP3 GT ISZERO PUSH2 0x24B1 JUMPI PUSH1 0x40 MLOAD PUSH3 0x461BCD PUSH1 0xE5 SHL DUP2 MSTORE PUSH1 0x20 PUSH1 0x4 DUP3 ADD MSTORE PUSH1 0x19 PUSH1 0x24 DUP3 ADD MSTORE PUSH32 0x4578636565647320746865205F6D61785478416D6F756E742E00000000000000 PUSH1 0x44 DUP3 ADD MSTORE PUSH1 0x64 ADD PUSH2 0xB91 JUMP JUMPDEST PUSH1 0x1F SLOAD DUP3 PUSH2 0x24D3 DUP6 PUSH1 0x1 PUSH1 0x1 PUSH1 0xA0 SHL SUB AND PUSH0 SWAP1 DUP2 MSTORE PUSH1 0x1 PUSH1 0x20 MSTORE PUSH1 0x40 SWAP1 KECCAK256 SLOAD SWAP1 JUMP JUMPDEST PUSH2 0x24DD SWAP2 SWAP1 PUSH2 0x3336 JUMP JUMPDEST GT ISZERO PUSH2 0x252B JUMPI PUSH1 0x40 MLOAD PUSH3 0x461BCD PUSH1 0xE5 SHL DUP2 MSTORE PUSH1 0x20 PUSH1 0x4 DUP3 ADD MSTORE PUSH1 0x1A PUSH1 0x24 DUP3 ADD MSTORE PUSH32 0x4578636565647320746865206D617857616C6C657453697A652E000000000000 PUSH1 0x44 DUP3 ADD MSTORE PUSH1 0x64 ADD PUSH2 0xB91 JUMP JUMPDEST PUSH1 0x1C DUP1 SLOAD SWAP1 PUSH0 PUSH2 0x253A DUP4 PUSH2 0x33CF JUMP JUMPDEST SWAP2 SWAP1 POP SSTORE POP JUMPDEST PUSH1 0x2B SLOAD PUSH1 0x1 PUSH1 0x1 PUSH1 0xA0 SHL SUB DUP5 DUP2 AND SWAP2 AND EQ DUP1 ISZERO PUSH2 0x2566 JUMPI POP PUSH1 0x1 PUSH1 0x1 PUSH1 0xA0 SHL SUB DUP5 AND ADDRESS EQ ISZERO JUMPDEST ISZERO PUSH2 0x2593 JUMPI PUSH2 0x2590 PUSH1 0x64 PUSH2 0x2318 PUSH1 0x1A SLOAD PUSH1 0x1C SLOAD GT PUSH2 0x2586 JUMPI PUSH1 0x16 SLOAD PUSH2 0x2311 JUMP JUMPDEST PUSH1 0x18 SLOAD DUP6 SWAP1 PUSH2 0x2CFB JUMP JUMPDEST SWAP1 POP JUMPDEST ADDRESS PUSH0 SWAP1 DUP2 MSTORE PUSH1 0x1 PUSH1 0x20 MSTORE PUSH1 0x40 SWAP1 KECCAK256 SLOAD PUSH1 0x2B SLOAD PUSH1 0x1 PUSH1 0xA8 SHL SWAP1 DIV PUSH1 0xFF AND ISZERO DUP1 ISZERO PUSH2 0x25C9 JUMPI POP PUSH1 0x2B SLOAD PUSH1 0x1 PUSH1 0x1 PUSH1 0xA0 SHL SUB DUP6 DUP2 AND SWAP2 AND EQ JUMPDEST DUP1 ISZERO PUSH2 0x25DE JUMPI POP PUSH1 0x2B SLOAD PUSH1 0x1 PUSH1 0xB0 SHL SWAP1 DIV PUSH1 0xFF AND JUMPDEST DUP1 ISZERO PUSH2 0x25EB JUMPI POP PUSH1 0x20 SLOAD DUP2 GT JUMPDEST DUP1 ISZERO PUSH2 0x25FA JUMPI POP PUSH1 0x1B SLOAD PUSH1 0x1C SLOAD GT JUMPDEST ISZERO PUSH2 0x263F JUMPI PUSH0 SELFBALANCE SWAP1 POP PUSH2 0x2620 PUSH2 0x261B DUP6 PUSH2 0x2616 DUP6 PUSH1 0x21 SLOAD PUSH2 0x2DC1 JUMP JUMPDEST PUSH2 0x2DC1 JUMP JUMPDEST PUSH2 0x2B8B JUMP JUMPDEST PUSH0 PUSH2 0x262B SELFBALANCE DUP4 PUSH2 0x2DD5 JUMP JUMPDEST SWAP1 POP DUP1 ISZERO PUSH2 0x263C JUMPI PUSH2 0x263C DUP2 PUSH2 0x2A54 JUMP JUMPDEST POP POP JUMPDEST POP JUMPDEST DUP1 ISZERO PUSH2 0x26B9 JUMPI ADDRESS PUSH0 SWAP1 DUP2 MSTORE PUSH1 0x1 PUSH1 0x20 MSTORE PUSH1 0x40 SWAP1 KECCAK256 SLOAD PUSH2 0x2660 SWAP1 DUP3 PUSH2 0x2E16 JUMP JUMPDEST ADDRESS PUSH0 DUP2 DUP2 MSTORE PUSH1 0x1 PUSH1 0x20 MSTORE PUSH1 0x40 SWAP1 DUP2 SWAP1 KECCAK256 SWAP3 SWAP1 SWAP3 SSTORE SWAP1 MLOAD PUSH1 0x1 PUSH1 0x1 PUSH1 0xA0 SHL SUB DUP7 AND SWAP1 PUSH32 0xDDF252AD1BE2C89B69C2B068FC378DAA952BA7F163C4A11628F55A4DF523B3EF SWAP1 PUSH2 0x26B0 SWAP1 DUP6 DUP2 MSTORE PUSH1 0x20 ADD SWAP1 JUMP JUMPDEST PUSH1 0x40 MLOAD DUP1 SWAP2 SUB SWAP1 LOG3 JUMPDEST PUSH1 0x1 PUSH1 0x1 PUSH1 0xA0 SHL SUB DUP5 AND PUSH0 SWAP1 DUP2 MSTORE PUSH1 0x1 PUSH1 0x20 MSTORE PUSH1 0x40 SWAP1 KECCAK256 SLOAD PUSH2 0x26DB SWAP1 DUP4 PUSH2 0x2DD5 JUMP JUMPDEST PUSH1 0x1 PUSH1 0x1 PUSH1 0xA0 SHL SUB DUP6 AND PUSH0 SWAP1 DUP2 MSTORE PUSH1 0x1 PUSH1 0x20 MSTORE PUSH1 0x40 SWAP1 KECCAK256 SSTORE PUSH2 0x271E PUSH2 0x2700 DUP4 DUP4 PUSH2 0x2DD5 JUMP JUMPDEST PUSH1 0x1 PUSH1 0x1 PUSH1 0xA0 SHL SUB DUP6 AND PUSH0 SWAP1 DUP2 MSTORE PUSH1 0x1 PUSH1 0x20 MSTORE PUSH1 0x40 SWAP1 KECCAK256 SLOAD SWAP1 PUSH2 0x2E16 JUMP JUMPDEST PUSH1 0x1 PUSH1 0x1 PUSH1 0xA0 SHL SUB DUP1 DUP6 AND PUSH0 DUP2 DUP2 MSTORE PUSH1 0x1 PUSH1 0x20 MSTORE PUSH1 0x40 SWAP1 KECCAK256 SWAP3 SWAP1 SWAP3 SSTORE DUP6 AND PUSH32 0xDDF252AD1BE2C89B69C2B068FC378DAA952BA7F163C4A11628F55A4DF523B3EF PUSH2 0x2767 DUP6 DUP6 PUSH2 0x2DD5 JUMP JUMPDEST PUSH1 0x40 MLOAD SWAP1 DUP2 MSTORE PUSH1 0x20 ADD PUSH1 0x40 MLOAD DUP1 SWAP2 SUB SWAP1 LOG3 POP POP POP POP JUMP JUMPDEST PUSH1 0x1 PUSH1 0x1 PUSH1 0xA0 SHL SUB DUP4 AND PUSH2 0x27E0 JUMPI PUSH1 0x40 MLOAD PUSH3 0x461BCD PUSH1 0xE5 SHL DUP2 MSTORE PUSH1 0x20 PUSH1 0x4 DUP3 ADD MSTORE PUSH1 0x24 DUP1 DUP3 ADD MSTORE PUSH32 0x45524332303A20617070726F76652066726F6D20746865207A65726F20616464 PUSH1 0x44 DUP3 ADD MSTORE PUSH4 0x72657373 PUSH1 0xE0 SHL PUSH1 0x64 DUP3 ADD MSTORE PUSH1 0x84 ADD PUSH2 0xB91 JUMP JUMPDEST PUSH1 0x1 PUSH1 0x1 PUSH1 0xA0 SHL SUB DUP3 AND PUSH2 0x2841 JUMPI PUSH1 0x40 MLOAD PUSH3 0x461BCD PUSH1 0xE5 SHL DUP2 MSTORE PUSH1 0x20 PUSH1 0x4 DUP3 ADD MSTORE PUSH1 0x22 PUSH1 0x24 DUP3 ADD MSTORE PUSH32 0x45524332303A20617070726F766520746F20746865207A65726F206164647265 PUSH1 0x44 DUP3 ADD MSTORE PUSH2 0x7373 PUSH1 0xF0 SHL PUSH1 0x64 DUP3 ADD MSTORE PUSH1 0x84 ADD PUSH2 0xB91 JUMP JUMPDEST PUSH1 0x1 PUSH1 0x1 PUSH1 0xA0 SHL SUB DUP4 DUP2 AND PUSH0 DUP2 DUP2 MSTORE PUSH1 0x2 PUSH1 0x20 SWAP1 DUP2 MSTORE PUSH1 0x40 DUP1 DUP4 KECCAK256 SWAP5 DUP8 AND DUP1 DUP5 MSTORE SWAP5 DUP3 MSTORE SWAP2 DUP3 SWAP1 KECCAK256 DUP6 SWAP1 SSTORE SWAP1 MLOAD DUP5 DUP2 MSTORE PUSH32 0x8C5BE1E5EBEC7D5BD14F71427D1E84F3DD0314C0F7B2291E5B200AC8C7C3B925 SWAP2 ADD PUSH1 0x40 MLOAD DUP1 SWAP2 SUB SWAP1 LOG3 POP POP POP JUMP JUMPDEST PUSH0 DUP2 DUP5 DUP5 GT ISZERO PUSH2 0x28C4 JUMPI PUSH1 0x40 MLOAD PUSH3 0x461BCD PUSH1 0xE5 SHL DUP2 MSTORE PUSH1 0x4 ADD PUSH2 0xB91 SWAP2 SWAP1 PUSH2 0x2F62 JUMP JUMPDEST POP PUSH0 PUSH2 0x28D0 DUP5 DUP7 PUSH2 0x33BC JUMP JUMPDEST SWAP6 SWAP5 POP POP POP POP POP JUMP JUMPDEST PUSH1 0x1 PUSH1 0x1 PUSH1 0xA0 SHL SUB DUP3 AND PUSH2 0x2939 JUMPI PUSH1 0x40 MLOAD PUSH3 0x461BCD PUSH1 0xE5 SHL DUP2 MSTORE PUSH1 0x20 PUSH1 0x4 DUP3 ADD MSTORE PUSH1 0x21 PUSH1 0x24 DUP3 ADD MSTORE PUSH32 0x43616E6E6F74206275726E2066726F6D20746865207A65726F20616464726573 PUSH1 0x44 DUP3 ADD MSTORE PUSH1 0x73 PUSH1 0xF8 SHL PUSH1 0x64 DUP3 ADD MSTORE PUSH1 0x84 ADD PUSH2 0xB91 JUMP JUMPDEST PUSH2 0x2945 PUSH1 0x9 PUSH1 0xA PUSH2 0x32DC JUMP JUMPDEST PUSH2 0x294F SWAP1 DUP3 PUSH2 0x32EA JUMP JUMPDEST PUSH1 0x1 PUSH1 0x1 PUSH1 0xA0 SHL SUB DUP4 AND PUSH0 SWAP1 DUP2 MSTORE PUSH1 0x1 PUSH1 0x20 MSTORE PUSH1 0x40 DUP2 KECCAK256 DUP1 SLOAD SWAP3 SWAP4 POP DUP4 SWAP3 SWAP1 SWAP2 SWAP1 PUSH2 0x297B SWAP1 DUP5 SWAP1 PUSH2 0x33BC JUMP JUMPDEST SWAP3 POP POP DUP2 SWAP1 SSTORE POP DUP1 PUSH1 0x1D PUSH0 DUP3 DUP3 SLOAD PUSH2 0x2993 SWAP2 SWAP1 PUSH2 0x33BC JUMP JUMPDEST SWAP1 SWAP2 SSTORE POP POP PUSH1 0x1D SLOAD PUSH1 0x1E DUP2 SWAP1 SSTORE PUSH1 0x1F SSTORE PUSH1 0x40 MLOAD DUP2 DUP2 MSTORE PUSH1 0x1 PUSH1 0x1 PUSH1 0xA0 SHL SUB DUP4 AND SWAP1 PUSH32 0xCC16F5DBB4873280815C1EE09DBD06736CFFCC184412CF7A71A0FDB75D397CA5 SWAP1 PUSH1 0x20 ADD PUSH1 0x40 MLOAD DUP1 SWAP2 SUB SWAP1 LOG2 PUSH1 0x40 MLOAD DUP2 DUP2 MSTORE PUSH0 SWAP1 PUSH1 0x1 PUSH1 0x1 PUSH1 0xA0 SHL SUB DUP5 AND SWAP1 PUSH32 0xDDF252AD1BE2C89B69C2B068FC378DAA952BA7F163C4A11628F55A4DF523B3EF SWAP1 PUSH1 0x20 ADD PUSH1 0x40 MLOAD DUP1 SWAP2 SUB SWAP1 LOG3 PUSH32 0x947F344D56E1E8C70DC492FB94C4DDDDD490C016AAB685F5E7E47B2E85CB44CF PUSH1 0x1D SLOAD PUSH1 0x40 MLOAD PUSH2 0xD34 SWAP2 DUP2 MSTORE PUSH1 0x20 ADD SWAP1 JUMP JUMPDEST PUSH1 0x13 SLOAD PUSH1 0x1 PUSH1 0x1 PUSH1 0xA0 SHL SUB AND PUSH2 0x8FC PUSH2 0x2A6E PUSH1 0x5 DUP5 PUSH2 0x34E6 JUMP JUMPDEST PUSH1 0x40 MLOAD DUP2 ISZERO SWAP1 SWAP3 MUL SWAP2 PUSH0 DUP2 DUP2 DUP2 DUP6 DUP9 DUP9 CALL SWAP4 POP POP POP POP ISZERO DUP1 ISZERO PUSH2 0x2A93 JUMPI RETURNDATASIZE PUSH0 DUP1 RETURNDATACOPY RETURNDATASIZE PUSH0 REVERT JUMPDEST POP PUSH1 0x12 SLOAD PUSH1 0x1 PUSH1 0x1 PUSH1 0xA0 SHL SUB AND PUSH2 0x8FC PUSH2 0x2AAE PUSH1 0x5 DUP5 PUSH2 0x34E6 JUMP JUMPDEST PUSH1 0x40 MLOAD DUP2 ISZERO SWAP1 SWAP3 MUL SWAP2 PUSH0 DUP2 DUP2 DUP2 DUP6 DUP9 DUP9 CALL SWAP4 POP POP POP POP ISZERO DUP1 ISZERO PUSH2 0x2AD3 JUMPI RETURNDATASIZE PUSH0 DUP1 RETURNDATACOPY RETURNDATASIZE PUSH0 REVERT JUMPDEST POP PUSH1 0x10 SLOAD PUSH1 0x1 PUSH1 0x1 PUSH1 0xA0 SHL SUB AND PUSH2 0x8FC PUSH2 0x2AEE PUSH1 0x5 DUP5 PUSH2 0x34E6 JUMP JUMPDEST PUSH1 0x40 MLOAD DUP2 ISZERO SWAP1 SWAP3 MUL SWAP2 PUSH0 DUP2 DUP2 DUP2 DUP6 DUP9 DUP9 CALL SWAP4 POP POP POP POP ISZERO DUP1 ISZERO PUSH2 0xC03 JUMPI RETURNDATASIZE PUSH0 DUP1 RETURNDATACOPY RETURNDATASIZE PUSH0 REVERT JUMPDEST PUSH0 SLOAD PUSH1 0x1 PUSH1 0x1 PUSH1 0xA0 SHL SUB AND CALLER EQ PUSH2 0x2B3C JUMPI PUSH1 0x40 MLOAD PUSH3 0x461BCD PUSH1 0xE5 SHL DUP2 MSTORE PUSH1 0x4 ADD PUSH2 0xB91 SWAP1 PUSH2 0x3301 JUMP JUMPDEST PUSH1 0x1D SLOAD PUSH1 0x1E DUP2 SWAP1 SSTORE PUSH1 0x1F DUP2 SWAP1 SSTORE PUSH1 0x2B DUP1 SLOAD PUSH1 0xFF PUSH1 0xB8 SHL NOT AND SWAP1 SSTORE PUSH1 0x40 MLOAD SWAP1 DUP2 MSTORE PUSH32 0x947F344D56E1E8C70DC492FB94C4DDDDD490C016AAB685F5E7E47B2E85CB44CF SWAP1 PUSH1 0x20 ADD PUSH1 0x40 MLOAD DUP1 SWAP2 SUB SWAP1 LOG1 JUMP JUMPDEST PUSH1 0x2B DUP1 SLOAD PUSH1 0xFF PUSH1 0xA8 SHL NOT AND PUSH1 0x1 PUSH1 0xA8 SHL OR SWAP1 SSTORE PUSH1 0x40 DUP1 MLOAD PUSH1 0x2 DUP1 DUP3 MSTORE PUSH1 0x60 DUP3 ADD DUP4 MSTORE PUSH0 SWAP3 PUSH1 0x20 DUP4 ADD SWAP1 DUP1 CALLDATASIZE DUP4 CALLDATACOPY ADD SWAP1 POP POP SWAP1 POP ADDRESS DUP2 PUSH0 DUP2 MLOAD DUP2 LT PUSH2 0x2BD1 JUMPI PUSH2 0x2BD1 PUSH2 0x33A8 JUMP JUMPDEST PUSH1 0x1 PUSH1 0x1 PUSH1 0xA0 SHL SUB SWAP3 DUP4 AND PUSH1 0x20 SWAP2 DUP3 MUL SWAP3 SWAP1 SWAP3 ADD DUP2 ADD SWAP2 SWAP1 SWAP2 MSTORE PUSH1 0x2A SLOAD PUSH1 0x40 DUP1 MLOAD PUSH4 0x15AB88C9 PUSH1 0xE3 SHL DUP2 MSTORE SWAP1 MLOAD SWAP2 SWAP1 SWAP4 AND SWAP3 PUSH4 0xAD5C4648 SWAP3 PUSH1 0x4 DUP1 DUP4 ADD SWAP4 SWAP2 SWAP3 DUP3 SWAP1 SUB ADD DUP2 DUP7 GAS STATICCALL ISZERO DUP1 ISZERO PUSH2 0x2C28 JUMPI RETURNDATASIZE PUSH0 DUP1 RETURNDATACOPY RETURNDATASIZE PUSH0 REVERT JUMPDEST POP POP POP POP PUSH1 0x40 MLOAD RETURNDATASIZE PUSH1 0x1F NOT PUSH1 0x1F DUP3 ADD AND DUP3 ADD DUP1 PUSH1 0x40 MSTORE POP DUP2 ADD SWAP1 PUSH2 0x2C4C SWAP2 SWAP1 PUSH2 0x3481 JUMP JUMPDEST DUP2 PUSH1 0x1 DUP2 MLOAD DUP2 LT PUSH2 0x2C5F JUMPI PUSH2 0x2C5F PUSH2 0x33A8 JUMP JUMPDEST PUSH1 0x1 PUSH1 0x1 PUSH1 0xA0 SHL SUB SWAP3 DUP4 AND PUSH1 0x20 SWAP2 DUP3 MUL SWAP3 SWAP1 SWAP3 ADD ADD MSTORE PUSH1 0x2A SLOAD PUSH2 0x2C85 SWAP2 ADDRESS SWAP2 AND DUP5 PUSH2 0x277E JUMP JUMPDEST PUSH1 0x2A SLOAD PUSH1 0x40 MLOAD PUSH4 0x791AC947 PUSH1 0xE0 SHL DUP2 MSTORE PUSH1 0x1 PUSH1 0x1 PUSH1 0xA0 SHL SUB SWAP1 SWAP2 AND SWAP1 PUSH4 0x791AC947 SWAP1 PUSH2 0x2CBD SWAP1 DUP6 SWAP1 PUSH0 SWAP1 DUP7 SWAP1 ADDRESS SWAP1 TIMESTAMP SWAP1 PUSH1 0x4 ADD PUSH2 0x3505 JUMP JUMPDEST PUSH0 PUSH1 0x40 MLOAD DUP1 DUP4 SUB DUP2 PUSH0 DUP8 DUP1 EXTCODESIZE ISZERO DUP1 ISZERO PUSH2 0x2CD4 JUMPI PUSH0 DUP1 REVERT JUMPDEST POP GAS CALL ISZERO DUP1 ISZERO PUSH2 0x2CE6 JUMPI RETURNDATASIZE PUSH0 DUP1 RETURNDATACOPY RETURNDATASIZE PUSH0 REVERT JUMPDEST POP POP PUSH1 0x2B DUP1 SLOAD PUSH1 0xFF PUSH1 0xA8 SHL NOT AND SWAP1 SSTORE POP POP POP POP JUMP JUMPDEST PUSH0 DUP3 PUSH0 SUB PUSH2 0x2D0A JUMPI POP PUSH0 PUSH2 0xC17 JUMP JUMPDEST PUSH0 PUSH2 0x2D15 DUP4 DUP6 PUSH2 0x32EA JUMP JUMPDEST SWAP1 POP DUP3 PUSH2 0x2D22 DUP6 DUP4 PUSH2 0x34E6 JUMP JUMPDEST EQ PUSH2 0x2D79 JUMPI PUSH1 0x40 MLOAD PUSH3 0x461BCD PUSH1 0xE5 SHL DUP2 MSTORE PUSH1 0x20 PUSH1 0x4 DUP3 ADD MSTORE PUSH1 0x21 PUSH1 0x24 DUP3 ADD MSTORE PUSH32 0x536166654D6174683A206D756C7469706C69636174696F6E206F766572666C6F PUSH1 0x44 DUP3 ADD MSTORE PUSH1 0x77 PUSH1 0xF8 SHL PUSH1 0x64 DUP3 ADD MSTORE PUSH1 0x84 ADD PUSH2 0xB91 JUMP JUMPDEST SWAP4 SWAP3 POP POP POP JUMP JUMPDEST PUSH0 PUSH2 0x2D79 DUP4 DUP4 PUSH1 0x40 MLOAD DUP1 PUSH1 0x40 ADD PUSH1 0x40 MSTORE DUP1 PUSH1 0x1A DUP2 MSTORE PUSH1 0x20 ADD PUSH32 0x536166654D6174683A206469766973696F6E206279207A65726F000000000000 DUP2 MSTORE POP PUSH2 0x2E74 JUMP JUMPDEST PUSH0 DUP2 DUP4 GT PUSH2 0x2DCF JUMPI DUP3 PUSH2 0x2D79 JUMP JUMPDEST POP SWAP2 SWAP1 POP JUMP JUMPDEST PUSH0 PUSH2 0x2D79 DUP4 DUP4 PUSH1 0x40 MLOAD DUP1 PUSH1 0x40 ADD PUSH1 0x40 MSTORE DUP1 PUSH1 0x1E DUP2 MSTORE PUSH1 0x20 ADD PUSH32 0x536166654D6174683A207375627472616374696F6E206F766572666C6F770000 DUP2 MSTORE POP PUSH2 0x28A1 JUMP JUMPDEST PUSH0 DUP1 PUSH2 0x2E22 DUP4 DUP6 PUSH2 0x3336 JUMP JUMPDEST SWAP1 POP DUP4 DUP2 LT ISZERO PUSH2 0x2D79 JUMPI PUSH1 0x40 MLOAD PUSH3 0x461BCD PUSH1 0xE5 SHL DUP2 MSTORE PUSH1 0x20 PUSH1 0x4 DUP3 ADD MSTORE PUSH1 0x1B PUSH1 0x24 DUP3 ADD MSTORE PUSH32 0x536166654D6174683A206164646974696F6E206F766572666C6F770000000000 PUSH1 0x44 DUP3 ADD MSTORE PUSH1 0x64 ADD PUSH2 0xB91 JUMP JUMPDEST PUSH0 DUP2 DUP4 PUSH2 0x2E94 JUMPI PUSH1 0x40 MLOAD PUSH3 0x461BCD PUSH1 0xE5 SHL DUP2 MSTORE PUSH1 0x4 ADD PUSH2 0xB91 SWAP2 SWAP1 PUSH2 0x2F62 JUMP JUMPDEST POP PUSH0 PUSH2 0x28D0 DUP5 DUP7 PUSH2 0x34E6 JUMP JUMPDEST PUSH0 DUP1 PUSH1 0x40 DUP4 DUP6 SUB SLT ISZERO PUSH2 0x2EB1 JUMPI PUSH0 DUP1 REVERT JUMPDEST POP POP DUP1 CALLDATALOAD SWAP3 PUSH1 0x20 SWAP1 SWAP2 ADD CALLDATALOAD SWAP2 POP JUMP JUMPDEST PUSH0 PUSH1 0x20 DUP3 DUP5 SUB SLT ISZERO PUSH2 0x2ED0 JUMPI PUSH0 DUP1 REVERT JUMPDEST POP CALLDATALOAD SWAP2 SWAP1 POP JUMP JUMPDEST PUSH1 0x1 PUSH1 0x1 PUSH1 0xA0 SHL SUB DUP2 AND DUP2 EQ PUSH2 0x2198 JUMPI PUSH0 DUP1 REVERT JUMPDEST PUSH0 DUP1 PUSH1 0x40 DUP4 DUP6 SUB SLT ISZERO PUSH2 0x2EFC JUMPI PUSH0 DUP1 REVERT JUMPDEST DUP3 CALLDATALOAD PUSH2 0x2F07 DUP2 PUSH2 0x2ED7 JUMP JUMPDEST SWAP5 PUSH1 0x20 SWAP4 SWAP1 SWAP4 ADD CALLDATALOAD SWAP4 POP POP POP JUMP JUMPDEST PUSH0 JUMPDEST DUP4 DUP2 LT ISZERO PUSH2 0x2F2F JUMPI DUP2 DUP2 ADD MLOAD DUP4 DUP3 ADD MSTORE PUSH1 0x20 ADD PUSH2 0x2F17 JUMP JUMPDEST POP POP PUSH0 SWAP2 ADD MSTORE JUMP JUMPDEST PUSH0 DUP2 MLOAD DUP1 DUP5 MSTORE PUSH2 0x2F4E DUP2 PUSH1 0x20 DUP7 ADD PUSH1 0x20 DUP7 ADD PUSH2 0x2F15 JUMP JUMPDEST PUSH1 0x1F ADD PUSH1 0x1F NOT AND SWAP3 SWAP1 SWAP3 ADD PUSH1 0x20 ADD SWAP3 SWAP2 POP POP JUMP JUMPDEST PUSH1 0x20 DUP2 MSTORE PUSH0 PUSH2 0x2D79 PUSH1 0x20 DUP4 ADD DUP5 PUSH2 0x2F37 JUMP JUMPDEST PUSH0 PUSH1 0x20 DUP3 DUP5 SUB SLT ISZERO PUSH2 0x2F84 JUMPI PUSH0 DUP1 REVERT JUMPDEST DUP2 CALLDATALOAD PUSH2 0x2D79 DUP2 PUSH2 0x2ED7 JUMP JUMPDEST PUSH0 DUP1 PUSH0 PUSH1 0x60 DUP5 DUP7 SUB SLT ISZERO PUSH2 0x2FA1 JUMPI PUSH0 DUP1 REVERT JUMPDEST DUP4 CALLDATALOAD PUSH2 0x2FAC DUP2 PUSH2 0x2ED7 JUMP JUMPDEST SWAP3 POP PUSH1 0x20 DUP5 ADD CALLDATALOAD PUSH2 0x2FBC DUP2 PUSH2 0x2ED7 JUMP JUMPDEST SWAP3 SWAP6 SWAP3 SWAP5 POP POP POP PUSH1 0x40 SWAP2 SWAP1 SWAP2 ADD CALLDATALOAD SWAP1 JUMP JUMPDEST PUSH4 0x4E487B71 PUSH1 0xE0 SHL PUSH0 MSTORE PUSH1 0x41 PUSH1 0x4 MSTORE PUSH1 0x24 PUSH0 REVERT JUMPDEST PUSH1 0x40 MLOAD PUSH1 0x1F DUP3 ADD PUSH1 0x1F NOT AND DUP2 ADD PUSH8 0xFFFFFFFFFFFFFFFF DUP2 GT DUP3 DUP3 LT OR ISZERO PUSH2 0x300A JUMPI PUSH2 0x300A PUSH2 0x2FCD JUMP JUMPDEST PUSH1 0x40 MSTORE SWAP2 SWAP1 POP JUMP JUMPDEST PUSH0 DUP3 PUSH1 0x1F DUP4 ADD SLT PUSH2 0x3021 JUMPI PUSH0 DUP1 REVERT JUMPDEST DUP2 CALLDATALOAD PUSH8 0xFFFFFFFFFFFFFFFF DUP2 GT ISZERO PUSH2 0x303B JUMPI PUSH2 0x303B PUSH2 0x2FCD JUMP JUMPDEST PUSH2 0x304E PUSH1 0x1F DUP3 ADD PUSH1 0x1F NOT AND PUSH1 0x20 ADD PUSH2 0x2FE1 JUMP JUMPDEST DUP2 DUP2 MSTORE DUP5 PUSH1 0x20 DUP4 DUP7 ADD ADD GT ISZERO PUSH2 0x3062 JUMPI PUSH0 DUP1 REVERT JUMPDEST DUP2 PUSH1 0x20 DUP6 ADD PUSH1 0x20 DUP4 ADD CALLDATACOPY PUSH0 SWAP2 DUP2 ADD PUSH1 0x20 ADD SWAP2 SWAP1 SWAP2 MSTORE SWAP4 SWAP3 POP POP POP JUMP JUMPDEST PUSH0 DUP1 PUSH0 PUSH1 0x60 DUP5 DUP7 SUB SLT ISZERO PUSH2 0x3090 JUMPI PUSH0 DUP1 REVERT JUMPDEST DUP4 CALLDATALOAD PUSH2 0x309B DUP2 PUSH2 0x2ED7 JUMP JUMPDEST SWAP3 POP PUSH1 0x20 DUP5 DUP2 ADD CALLDATALOAD PUSH8 0xFFFFFFFFFFFFFFFF DUP1 DUP3 GT ISZERO PUSH2 0x30B8 JUMPI PUSH0 DUP1 REVERT JUMPDEST DUP2 DUP8 ADD SWAP2 POP DUP8 PUSH1 0x1F DUP4 ADD SLT PUSH2 0x30CB JUMPI PUSH0 DUP1 REVERT JUMPDEST DUP2 CALLDATALOAD DUP2 DUP2 GT ISZERO PUSH2 0x30DD JUMPI PUSH2 0x30DD PUSH2 0x2FCD JUMP JUMPDEST DUP1 PUSH1 0x5 SHL PUSH2 0x30EC DUP6 DUP3 ADD PUSH2 0x2FE1 JUMP JUMPDEST SWAP2 DUP3 MSTORE DUP4 DUP2 ADD DUP6 ADD SWAP2 DUP6 DUP2 ADD SWAP1 DUP12 DUP5 GT ISZERO PUSH2 0x3105 JUMPI PUSH0 DUP1 REVERT JUMPDEST SWAP5 DUP7 ADD SWAP5 JUMPDEST DUP4 DUP7 LT ISZERO PUSH2 0x3123 JUMPI DUP6 CALLDATALOAD DUP3 MSTORE SWAP5 DUP7 ADD SWAP5 SWAP1 DUP7 ADD SWAP1 PUSH2 0x310A JUMP JUMPDEST SWAP8 POP POP POP POP PUSH1 0x40 DUP8 ADD CALLDATALOAD SWAP3 POP DUP1 DUP4 GT ISZERO PUSH2 0x313B JUMPI PUSH0 DUP1 REVERT JUMPDEST POP POP PUSH2 0x3149 DUP7 DUP3 DUP8 ADD PUSH2 0x3012 JUMP JUMPDEST SWAP2 POP POP SWAP3 POP SWAP3 POP SWAP3 JUMP JUMPDEST PUSH0 DUP1 PUSH0 PUSH1 0x60 DUP5 DUP7 SUB SLT ISZERO PUSH2 0x3165 JUMPI PUSH0 DUP1 REVERT JUMPDEST DUP4 CALLDATALOAD PUSH8 0xFFFFFFFFFFFFFFFF DUP2 GT ISZERO PUSH2 0x317B JUMPI PUSH0 DUP1 REVERT JUMPDEST PUSH2 0x3187 DUP7 DUP3 DUP8 ADD PUSH2 0x3012 JUMP JUMPDEST SWAP4 POP POP PUSH1 0x20 DUP5 ADD CALLDATALOAD PUSH2 0x2FBC DUP2 PUSH2 0x2ED7 JUMP JUMPDEST PUSH0 DUP1 PUSH1 0x40 DUP4 DUP6 SUB SLT ISZERO PUSH2 0x31A9 JUMPI PUSH0 DUP1 REVERT JUMPDEST DUP3 CALLDATALOAD PUSH2 0x31B4 DUP2 PUSH2 0x2ED7 JUMP JUMPDEST SWAP2 POP PUSH1 0x20 DUP4 ADD CALLDATALOAD PUSH2 0x31C4 DUP2 PUSH2 0x2ED7 JUMP JUMPDEST DUP1 SWAP2 POP POP SWAP3 POP SWAP3 SWAP1 POP JUMP JUMPDEST PUSH4 0x4E487B71 PUSH1 0xE0 SHL PUSH0 MSTORE PUSH1 0x11 PUSH1 0x4 MSTORE PUSH1 0x24 PUSH0 REVERT JUMPDEST PUSH1 0xFF DUP3 DUP2 AND DUP3 DUP3 AND SUB SWAP1 DUP2 GT ISZERO PUSH2 0xC17 JUMPI PUSH2 0xC17 PUSH2 0x31CF JUMP JUMPDEST PUSH1 0x1 DUP2 DUP2 JUMPDEST DUP1 DUP6 GT ISZERO PUSH2 0x3236 JUMPI DUP2 PUSH0 NOT DIV DUP3 GT ISZERO PUSH2 0x321C JUMPI PUSH2 0x321C PUSH2 0x31CF JUMP JUMPDEST DUP1 DUP6 AND ISZERO PUSH2 0x3229 JUMPI SWAP2 DUP2 MUL SWAP2 JUMPDEST SWAP4 DUP5 SHR SWAP4 SWAP1 DUP1 MUL SWAP1 PUSH2 0x3201 JUMP JUMPDEST POP SWAP3 POP SWAP3 SWAP1 POP JUMP JUMPDEST PUSH0 DUP3 PUSH2 0x324C JUMPI POP PUSH1 0x1 PUSH2 0xC17 JUMP JUMPDEST DUP2 PUSH2 0x3258 JUMPI POP PUSH0 PUSH2 0xC17 JUMP JUMPDEST DUP2 PUSH1 0x1 DUP2 EQ PUSH2 0x326E JUMPI PUSH1 0x2 DUP2 EQ PUSH2 0x3278 JUMPI PUSH2 0x3294 JUMP JUMPDEST PUSH1 0x1 SWAP2 POP POP PUSH2 0xC17 JUMP JUMPDEST PUSH1 0xFF DUP5 GT ISZERO PUSH2 0x3289 JUMPI PUSH2 0x3289 PUSH2 0x31CF JUMP JUMPDEST POP POP PUSH1 0x1 DUP3 SHL PUSH2 0xC17 JUMP JUMPDEST POP PUSH1 0x20 DUP4 LT PUSH2 0x133 DUP4 LT AND PUSH1 0x4E DUP5 LT PUSH1 0xB DUP5 LT AND OR ISZERO PUSH2 0x32B7 JUMPI POP DUP2 DUP2 EXP PUSH2 0xC17 JUMP JUMPDEST PUSH2 0x32C1 DUP4 DUP4 PUSH2 0x31FC JUMP JUMPDEST DUP1 PUSH0 NOT DIV DUP3 GT ISZERO PUSH2 0x32D4 JUMPI PUSH2 0x32D4 PUSH2 0x31CF JUMP JUMPDEST MUL SWAP4 SWAP3 POP POP POP JUMP JUMPDEST PUSH0 PUSH2 0x2D79 PUSH1 0xFF DUP5 AND DUP4 PUSH2 0x323E JUMP JUMPDEST DUP1 DUP3 MUL DUP2 ISZERO DUP3 DUP3 DIV DUP5 EQ OR PUSH2 0xC17 JUMPI PUSH2 0xC17 PUSH2 0x31CF JUMP JUMPDEST PUSH1 0x20 DUP1 DUP3 MSTORE DUP2 DUP2 ADD MSTORE PUSH32 0x4F776E61626C653A2063616C6C6572206973206E6F7420746865206F776E6572 PUSH1 0x40 DUP3 ADD MSTORE PUSH1 0x60 ADD SWAP1 JUMP JUMPDEST DUP1 DUP3 ADD DUP1 DUP3 GT ISZERO PUSH2 0xC17 JUMPI PUSH2 0xC17 PUSH2 0x31CF JUMP JUMPDEST PUSH0 DUP3 MLOAD PUSH2 0x335A DUP2 DUP5 PUSH1 0x20 DUP8 ADD PUSH2 0x2F15 JUMP JUMPDEST SWAP2 SWAP1 SWAP2 ADD SWAP3 SWAP2 POP POP JUMP JUMPDEST PUSH1 0x20 DUP1 DUP3 MSTORE PUSH1 0x24 SWAP1 DUP3 ADD MSTORE PUSH32 0x42616C616E636520646F6573206E6F74206861766520656E6F75676820506F74 PUSH1 0x40 DUP3 ADD MSTORE PUSH4 0x696F6E73 PUSH1 0xE0 SHL PUSH1 0x60 DUP3 ADD MSTORE PUSH1 0x80 ADD SWAP1 JUMP JUMPDEST PUSH4 0x4E487B71 PUSH1 0xE0 SHL PUSH0 MSTORE PUSH1 0x32 PUSH1 0x4 MSTORE PUSH1 0x24 PUSH0 REVERT JUMPDEST DUP2 DUP2 SUB DUP2 DUP2 GT ISZERO PUSH2 0xC17 JUMPI PUSH2 0xC17 PUSH2 0x31CF JUMP JUMPDEST PUSH0 PUSH1 0x1 DUP3 ADD PUSH2 0x33E0 JUMPI PUSH2 0x33E0 PUSH2 0x31CF JUMP JUMPDEST POP PUSH1 0x1 ADD SWAP1 JUMP JUMPDEST PUSH1 0x20 DUP1 DUP3 MSTORE PUSH1 0x21 SWAP1 DUP3 ADD MSTORE PUSH32 0x42616C616E636520646F6573206E6F74206861766520656E6F7567682048474D PUSH1 0x40 DUP3 ADD MSTORE PUSH1 0x53 PUSH1 0xF8 SHL PUSH1 0x60 DUP3 ADD MSTORE PUSH1 0x80 ADD SWAP1 JUMP JUMPDEST PUSH1 0x20 DUP1 DUP3 MSTORE DUP2 DUP2 ADD MSTORE PUSH32 0x42616C616E636520646F6573206E6F74206861766520656E6F75676820455448 PUSH1 0x40 DUP3 ADD MSTORE PUSH1 0x60 ADD SWAP1 JUMP JUMPDEST PUSH1 0x60 DUP2 MSTORE PUSH0 PUSH2 0x346F PUSH1 0x60 DUP4 ADD DUP7 PUSH2 0x2F37 JUMP JUMPDEST PUSH1 0x20 DUP4 ADD SWAP5 SWAP1 SWAP5 MSTORE POP PUSH1 0x40 ADD MSTORE SWAP2 SWAP1 POP JUMP JUMPDEST PUSH0 PUSH1 0x20 DUP3 DUP5 SUB SLT ISZERO PUSH2 0x3491 JUMPI PUSH0 DUP1 REVERT JUMPDEST DUP2 MLOAD PUSH2 0x2D79 DUP2 PUSH2 0x2ED7 JUMP JUMPDEST PUSH0 DUP1 PUSH0 PUSH1 0x60 DUP5 DUP7 SUB SLT ISZERO PUSH2 0x34AE JUMPI PUSH0 DUP1 REVERT JUMPDEST DUP4 MLOAD SWAP3 POP PUSH1 0x20 DUP5 ADD MLOAD SWAP2 POP PUSH1 0x40 DUP5 ADD MLOAD SWAP1 POP SWAP3 POP SWAP3 POP SWAP3 JUMP JUMPDEST PUSH0 PUSH1 0x20 DUP3 DUP5 SUB SLT ISZERO PUSH2 0x34D7 JUMPI PUSH0 DUP1 REVERT JUMPDEST DUP2 MLOAD DUP1 ISZERO ISZERO DUP2 EQ PUSH2 0x2D79 JUMPI PUSH0 DUP1 REVERT JUMPDEST PUSH0 DUP3 PUSH2 0x3500 JUMPI PUSH4 0x4E487B71 PUSH1 0xE0 SHL PUSH0 MSTORE PUSH1 0x12 PUSH1 0x4 MSTORE PUSH1 0x24 PUSH0 REVERT JUMPDEST POP DIV SWAP1 JUMP JUMPDEST PUSH0 PUSH1 0xA0 DUP3 ADD DUP8 DUP4 MSTORE PUSH1 0x20 DUP8 DUP2 DUP6 ADD MSTORE PUSH1 0xA0 PUSH1 0x40 DUP6 ADD MSTORE DUP2 DUP8 MLOAD DUP1 DUP5 MSTORE PUSH1 0xC0 DUP7 ADD SWAP2 POP DUP3 DUP10 ADD SWAP4 POP PUSH0 JUMPDEST DUP2 DUP2 LT ISZERO PUSH2 0x3553 JUMPI DUP5 MLOAD PUSH1 0x1 PUSH1 0x1 PUSH1 0xA0 SHL SUB AND DUP4 MSTORE SWAP4 DUP4 ADD SWAP4 SWAP2 DUP4 ADD SWAP2 PUSH1 0x1 ADD PUSH2 0x352E JUMP JUMPDEST POP POP PUSH1 0x1 PUSH1 0x1 PUSH1 0xA0 SHL SUB SWAP7 SWAP1 SWAP7 AND PUSH1 0x60 DUP6 ADD MSTORE POP POP POP PUSH1 0x80 ADD MSTORE SWAP4 SWAP3 POP POP POP JUMP INVALID GASLIMIT MSTORE NUMBER ORIGIN ADDRESS GASPRICE KECCAK256 PUSH21 0x72616E7366657220616D6F756E7420657863656564 PUSH20 0x20616C6C6F77616E6365A2646970667358221220 0xE SAR CALLCODE 0x2C 0xBA 0xE9 PUSH29 0xBAC484F9286E6B9089DC7C2AECD3C8489EE60CFB4F9757257A64736F6C PUSH4 0x43000815 STOP CALLER "
		},
		"gasEstimates": {
			"creation": {
				"codeDepositCost": "2755600",
				"executionCost": "infinite",
				"totalCost": "infinite"
			},
			"external": {
				"BOOSTPriceETH()": "2360",
				"BOOSTPriceHGMS()": "2426",
				"BOOSTShopBalances(address)": "2643",
				"ManualSwap()": "infinite",
				"NFTBOOSTBalance(uint256)": "2528",
				"NFTSKIPBalance(uint256)": "2548",
				"NFTVBalance(uint256)": "2570",
				"NFTXTRABalance(uint256)": "2524",
				"SKIPPriceETH()": "2406",
				"SKIPPriceHGMS()": "2361",
				"SKIPShopBalances(address)": "2643",
				"VPriceETH()": "2385",
				"VPriceHGMS()": "2405",
				"VShopBalances(address)": "2622",
				"XTRAPriceETH()": "2363",
				"XTRAPriceHGMS()": "2384",
				"XTRAShopBalances(address)": "2600",
				"_battleContract()": "2447",
				"_devWallet()": "2449",
				"_maintenanceWallet()": "2404",
				"_marketWallet()": "2447",
				"_maxTaxSwap()": "2385",
				"_maxTxAmount()": "2407",
				"_maxWalletSize()": "2406",
				"_taxSwapThreshold()": "2362",
				"_teamWallet()": "2448",
				"allowance(address,address)": "infinite",
				"applyPotion(address,uint256[],string)": "infinite",
				"approve(address,uint256)": "24667",
				"balanceOf(address)": "2661",
				"buyPotion(string,address,uint256)": "infinite",
				"decimals()": "266",
				"depositToShop(uint256,uint256)": "infinite",
				"ethShopBalances(address)": "2643",
				"getNFTBOOSTBalance(uint256)": "2570",
				"getNFTSKIPBalance(uint256)": "2547",
				"getNFTVBalance(uint256)": "2526",
				"getNFTXTRABalance(uint256)": "2549",
				"hgmsShopBalances(address)": "2645",
				"manualSend()": "infinite",
				"name()": "infinite",
				"openTrading()": "infinite",
				"owner()": "2419",
				"potionsUsed(uint256)": "2524",
				"removeLimits()": "76138",
				"removePotions(uint256,uint256)": "198039",
				"renounceOwnership()": "30230",
				"setBOOSTPrice(uint256,uint256)": "infinite",
				"setBattleContract(address)": "26771",
				"setSKIPrice(uint256,uint256)": "infinite",
				"setVPrice(uint256,uint256)": "infinite",
				"setXTRAPrice(uint256,uint256)": "infinite",
				"symbol()": "infinite",
				"totalSupply()": "2359",
				"transfer(address,uint256)": "infinite",
				"transferDelayEnabled()": "2382",
				"transferFrom(address,address,uint256)": "infinite",
				"withdrawTokens(address,uint256)": "infinite"
			},
			"internal": {
				"_approve(address,address,uint256)": "infinite",
				"_burn(address,uint256)": "infinite",
				"_removeLimits()": "infinite",
				"_transfer(address,address,uint256)": "infinite",
				"min(uint256,uint256)": "60",
				"sendETHToFee(uint256)": "infinite",
				"swapTokensForEth(uint256)": "infinite"
			}
		},
		"methodIdentifiers": {
			"BOOSTPriceETH()": "f2b4c325",
			"BOOSTPriceHGMS()": "f7685a02",
			"BOOSTShopBalances(address)": "d677d03e",
			"ManualSwap()": "a1780c18",
			"NFTBOOSTBalance(uint256)": "039aa9cf",
			"NFTSKIPBalance(uint256)": "54ca45d8",
			"NFTVBalance(uint256)": "580a155a",
			"NFTXTRABalance(uint256)": "f3a395fc",
			"SKIPPriceETH()": "21e09b34",
			"SKIPPriceHGMS()": "66b6090f",
			"SKIPShopBalances(address)": "f2a6227f",
			"VPriceETH()": "298a8328",
			"VPriceHGMS()": "eb77dbb1",
			"VShopBalances(address)": "c232ae4d",
			"XTRAPriceETH()": "24aede52",
			"XTRAPriceHGMS()": "19dde7b7",
			"XTRAShopBalances(address)": "52d3c14e",
			"_battleContract()": "ce9dc805",
			"_devWallet()": "11a63e17",
			"_maintenanceWallet()": "51a2f687",
			"_marketWallet()": "bbab0ff1",
			"_maxTaxSwap()": "0faee56f",
			"_maxTxAmount()": "7d1db4a5",
			"_maxWalletSize()": "8f9a55c0",
			"_taxSwapThreshold()": "bf474bed",
			"_teamWallet()": "37e294d5",
			"allowance(address,address)": "dd62ed3e",
			"applyPotion(address,uint256[],string)": "81cd58e5",
			"approve(address,uint256)": "095ea7b3",
			"balanceOf(address)": "70a08231",
			"buyPotion(string,address,uint256)": "a233900f",
			"decimals()": "313ce567",
			"depositToShop(uint256,uint256)": "2d4bbb05",
			"ethShopBalances(address)": "be68e027",
			"getNFTBOOSTBalance(uint256)": "3b32edd4",
			"getNFTSKIPBalance(uint256)": "6e2ed3c4",
			"getNFTVBalance(uint256)": "c1ae5e72",
			"getNFTXTRABalance(uint256)": "2ace2af5",
			"hgmsShopBalances(address)": "0d2d697a",
			"manualSend()": "f4293890",
			"name()": "06fdde03",
			"openTrading()": "c9567bf9",
			"owner()": "8da5cb5b",
			"potionsUsed(uint256)": "eb429bf8",
			"removeLimits()": "751039fc",
			"removePotions(uint256,uint256)": "09eadbf5",
			"renounceOwnership()": "715018a6",
			"setBOOSTPrice(uint256,uint256)": "6a4d84f9",
			"setBattleContract(address)": "0db6dff7",
			"setSKIPrice(uint256,uint256)": "008b8185",
			"setVPrice(uint256,uint256)": "abb284e9",
			"setXTRAPrice(uint256,uint256)": "8fbd8f27",
			"symbol()": "95d89b41",
			"totalSupply()": "18160ddd",
			"transfer(address,uint256)": "a9059cbb",
			"transferDelayEnabled()": "c876d0b9",
			"transferFrom(address,address,uint256)": "23b872dd",
			"withdrawTokens(address,uint256)": "06b091f9"
		}
	},
	"abi": [
		{
			"inputs": [],
			"stateMutability": "nonpayable",
			"type": "constructor"
		},
		{
			"anonymous": false,
			"inputs": [
				{
					"indexed": true,
					"internalType": "address",
					"name": "owner",
					"type": "address"
				},
				{
					"indexed": true,
					"internalType": "address",
					"name": "spender",
					"type": "address"
				},
				{
					"indexed": false,
					"internalType": "uint256",
					"name": "value",
					"type": "uint256"
				}
			],
			"name": "Approval",
			"type": "event"
		},
		{
			"anonymous": false,
			"inputs": [
				{
					"indexed": true,
					"internalType": "address",
					"name": "account",
					"type": "address"
				},
				{
					"indexed": false,
					"internalType": "uint256",
					"name": "amount",
					"type": "uint256"
				}
			],
			"name": "Burn",
			"type": "event"
		},
		{
			"anonymous": false,
			"inputs": [],
			"name": "Deposit",
			"type": "event"
		},
		{
			"anonymous": false,
			"inputs": [
				{
					"indexed": false,
					"internalType": "uint256",
					"name": "_maxTxAmount",
					"type": "uint256"
				}
			],
			"name": "MaxTxAmountUpdated",
			"type": "event"
		},
		{
			"anonymous": false,
			"inputs": [
				{
					"indexed": true,
					"internalType": "address",
					"name": "previousOwner",
					"type": "address"
				},
				{
					"indexed": true,
					"internalType": "address",
					"name": "newOwner",
					"type": "address"
				}
			],
			"name": "OwnershipTransferred",
			"type": "event"
		},
		{
			"anonymous": false,
			"inputs": [
				{
					"indexed": true,
					"internalType": "address",
					"name": "buyer",
					"type": "address"
				},
				{
					"indexed": true,
					"internalType": "address",
					"name": "shopOwner",
					"type": "address"
				},
				{
					"indexed": false,
					"internalType": "string",
					"name": "potionName",
					"type": "string"
				},
				{
					"indexed": false,
					"internalType": "uint256",
					"name": "ethAmount",
					"type": "uint256"
				},
				{
					"indexed": false,
					"internalType": "uint256",
					"name": "hgmsAmount",
					"type": "uint256"
				}
			],
			"name": "PotionPurchased",
			"type": "event"
		},
		{
			"anonymous": false,
			"inputs": [
				{
					"indexed": false,
					"internalType": "uint256",
					"name": "nftId1",
					"type": "uint256"
				},
				{
					"indexed": false,
					"internalType": "uint256",
					"name": "nftId2",
					"type": "uint256"
				}
			],
			"name": "PotionsRemoved",
			"type": "event"
		},
		{
			"anonymous": false,
			"inputs": [
				{
					"indexed": true,
					"internalType": "address",
					"name": "from",
					"type": "address"
				},
				{
					"indexed": true,
					"internalType": "address",
					"name": "to",
					"type": "address"
				},
				{
					"indexed": false,
					"internalType": "uint256",
					"name": "value",
					"type": "uint256"
				}
			],
			"name": "Transfer",
			"type": "event"
		},
		{
			"inputs": [],
			"name": "BOOSTPriceETH",
			"outputs": [
				{
					"internalType": "uint256",
					"name": "",
					"type": "uint256"
				}
			],
			"stateMutability": "view",
			"type": "function"
		},
		{
			"inputs": [],
			"name": "BOOSTPriceHGMS",
			"outputs": [
				{
					"internalType": "uint256",
					"name": "",
					"type": "uint256"
				}
			],
			"stateMutability": "view",
			"type": "function"
		},
		{
			"inputs": [
				{
					"internalType": "address",
					"name": "",
					"type": "address"
				}
			],
			"name": "BOOSTShopBalances",
			"outputs": [
				{
					"internalType": "uint256",
					"name": "",
					"type": "uint256"
				}
			],
			"stateMutability": "view",
			"type": "function"
		},
		{
			"inputs": [],
			"name": "ManualSwap",
			"outputs": [],
			"stateMutability": "nonpayable",
			"type": "function"
		},
		{
			"inputs": [
				{
					"internalType": "uint256",
					"name": "",
					"type": "uint256"
				}
			],
			"name": "NFTBOOSTBalance",
			"outputs": [
				{
					"internalType": "bool",
					"name": "",
					"type": "bool"
				}
			],
			"stateMutability": "view",
			"type": "function"
		},
		{
			"inputs": [
				{
					"internalType": "uint256",
					"name": "",
					"type": "uint256"
				}
			],
			"name": "NFTSKIPBalance",
			"outputs": [
				{
					"internalType": "bool",
					"name": "",
					"type": "bool"
				}
			],
			"stateMutability": "view",
			"type": "function"
		},
		{
			"inputs": [
				{
					"internalType": "uint256",
					"name": "",
					"type": "uint256"
				}
			],
			"name": "NFTVBalance",
			"outputs": [
				{
					"internalType": "bool",
					"name": "",
					"type": "bool"
				}
			],
			"stateMutability": "view",
			"type": "function"
		},
		{
			"inputs": [
				{
					"internalType": "uint256",
					"name": "",
					"type": "uint256"
				}
			],
			"name": "NFTXTRABalance",
			"outputs": [
				{
					"internalType": "bool",
					"name": "",
					"type": "bool"
				}
			],
			"stateMutability": "view",
			"type": "function"
		},
		{
			"inputs": [],
			"name": "SKIPPriceETH",
			"outputs": [
				{
					"internalType": "uint256",
					"name": "",
					"type": "uint256"
				}
			],
			"stateMutability": "view",
			"type": "function"
		},
		{
			"inputs": [],
			"name": "SKIPPriceHGMS",
			"outputs": [
				{
					"internalType": "uint256",
					"name": "",
					"type": "uint256"
				}
			],
			"stateMutability": "view",
			"type": "function"
		},
		{
			"inputs": [
				{
					"internalType": "address",
					"name": "",
					"type": "address"
				}
			],
			"name": "SKIPShopBalances",
			"outputs": [
				{
					"internalType": "uint256",
					"name": "",
					"type": "uint256"
				}
			],
			"stateMutability": "view",
			"type": "function"
		},
		{
			"inputs": [],
			"name": "VPriceETH",
			"outputs": [
				{
					"internalType": "uint256",
					"name": "",
					"type": "uint256"
				}
			],
			"stateMutability": "view",
			"type": "function"
		},
		{
			"inputs": [],
			"name": "VPriceHGMS",
			"outputs": [
				{
					"internalType": "uint256",
					"name": "",
					"type": "uint256"
				}
			],
			"stateMutability": "view",
			"type": "function"
		},
		{
			"inputs": [
				{
					"internalType": "address",
					"name": "",
					"type": "address"
				}
			],
			"name": "VShopBalances",
			"outputs": [
				{
					"internalType": "uint256",
					"name": "",
					"type": "uint256"
				}
			],
			"stateMutability": "view",
			"type": "function"
		},
		{
			"inputs": [],
			"name": "XTRAPriceETH",
			"outputs": [
				{
					"internalType": "uint256",
					"name": "",
					"type": "uint256"
				}
			],
			"stateMutability": "view",
			"type": "function"
		},
		{
			"inputs": [],
			"name": "XTRAPriceHGMS",
			"outputs": [
				{
					"internalType": "uint256",
					"name": "",
					"type": "uint256"
				}
			],
			"stateMutability": "view",
			"type": "function"
		},
		{
			"inputs": [
				{
					"internalType": "address",
					"name": "",
					"type": "address"
				}
			],
			"name": "XTRAShopBalances",
			"outputs": [
				{
					"internalType": "uint256",
					"name": "",
					"type": "uint256"
				}
			],
			"stateMutability": "view",
			"type": "function"
		},
		{
			"inputs": [],
			"name": "_battleContract",
			"outputs": [
				{
					"internalType": "address",
					"name": "",
					"type": "address"
				}
			],
			"stateMutability": "view",
			"type": "function"
		},
		{
			"inputs": [],
			"name": "_devWallet",
			"outputs": [
				{
					"internalType": "address payable",
					"name": "",
					"type": "address"
				}
			],
			"stateMutability": "view",
			"type": "function"
		},
		{
			"inputs": [],
			"name": "_maintenanceWallet",
			"outputs": [
				{
					"internalType": "address payable",
					"name": "",
					"type": "address"
				}
			],
			"stateMutability": "view",
			"type": "function"
		},
		{
			"inputs": [],
			"name": "_marketWallet",
			"outputs": [
				{
					"internalType": "address payable",
					"name": "",
					"type": "address"
				}
			],
			"stateMutability": "view",
			"type": "function"
		},
		{
			"inputs": [],
			"name": "_maxTaxSwap",
			"outputs": [
				{
					"internalType": "uint256",
					"name": "",
					"type": "uint256"
				}
			],
			"stateMutability": "view",
			"type": "function"
		},
		{
			"inputs": [],
			"name": "_maxTxAmount",
			"outputs": [
				{
					"internalType": "uint256",
					"name": "",
					"type": "uint256"
				}
			],
			"stateMutability": "view",
			"type": "function"
		},
		{
			"inputs": [],
			"name": "_maxWalletSize",
			"outputs": [
				{
					"internalType": "uint256",
					"name": "",
					"type": "uint256"
				}
			],
			"stateMutability": "view",
			"type": "function"
		},
		{
			"inputs": [],
			"name": "_taxSwapThreshold",
			"outputs": [
				{
					"internalType": "uint256",
					"name": "",
					"type": "uint256"
				}
			],
			"stateMutability": "view",
			"type": "function"
		},
		{
			"inputs": [],
			"name": "_teamWallet",
			"outputs": [
				{
					"internalType": "address payable",
					"name": "",
					"type": "address"
				}
			],
			"stateMutability": "view",
			"type": "function"
		},
		{
			"inputs": [
				{
					"internalType": "address",
					"name": "owner",
					"type": "address"
				},
				{
					"internalType": "address",
					"name": "spender",
					"type": "address"
				}
			],
			"name": "allowance",
			"outputs": [
				{
					"internalType": "uint256",
					"name": "",
					"type": "uint256"
				}
			],
			"stateMutability": "view",
			"type": "function"
		},
		{
			"inputs": [
				{
					"internalType": "address",
					"name": "shopOwner",
					"type": "address"
				},
				{
					"internalType": "uint256[]",
					"name": "NFTId",
					"type": "uint256[]"
				},
				{
					"internalType": "string",
					"name": "potionName",
					"type": "string"
				}
			],
			"name": "applyPotion",
			"outputs": [],
			"stateMutability": "nonpayable",
			"type": "function"
		},
		{
			"inputs": [
				{
					"internalType": "address",
					"name": "spender",
					"type": "address"
				},
				{
					"internalType": "uint256",
					"name": "amount",
					"type": "uint256"
				}
			],
			"name": "approve",
			"outputs": [
				{
					"internalType": "bool",
					"name": "",
					"type": "bool"
				}
			],
			"stateMutability": "nonpayable",
			"type": "function"
		},
		{
			"inputs": [
				{
					"internalType": "address",
					"name": "account",
					"type": "address"
				}
			],
			"name": "balanceOf",
			"outputs": [
				{
					"internalType": "uint256",
					"name": "",
					"type": "uint256"
				}
			],
			"stateMutability": "view",
			"type": "function"
		},
		{
			"inputs": [
				{
					"internalType": "string",
					"name": "potionName",
					"type": "string"
				},
				{
					"internalType": "address",
					"name": "shopOwner",
					"type": "address"
				},
				{
					"internalType": "uint256",
					"name": "amount",
					"type": "uint256"
				}
			],
			"name": "buyPotion",
			"outputs": [],
			"stateMutability": "nonpayable",
			"type": "function"
		},
		{
			"inputs": [],
			"name": "decimals",
			"outputs": [
				{
					"internalType": "uint8",
					"name": "",
					"type": "uint8"
				}
			],
			"stateMutability": "pure",
			"type": "function"
		},
		{
			"inputs": [
				{
					"internalType": "uint256",
					"name": "hgmsAmount",
					"type": "uint256"
				},
				{
					"internalType": "uint256",
					"name": "ethAmount",
					"type": "uint256"
				}
			],
			"name": "depositToShop",
			"outputs": [],
			"stateMutability": "payable",
			"type": "function"
		},
		{
			"inputs": [
				{
					"internalType": "address",
					"name": "",
					"type": "address"
				}
			],
			"name": "ethShopBalances",
			"outputs": [
				{
					"internalType": "uint256",
					"name": "",
					"type": "uint256"
				}
			],
			"stateMutability": "view",
			"type": "function"
		},
		{
			"inputs": [
				{
					"internalType": "uint256",
					"name": "NFTId",
					"type": "uint256"
				}
			],
			"name": "getNFTBOOSTBalance",
			"outputs": [
				{
					"internalType": "bool",
					"name": "",
					"type": "bool"
				}
			],
			"stateMutability": "view",
			"type": "function"
		},
		{
			"inputs": [
				{
					"internalType": "uint256",
					"name": "NFTId",
					"type": "uint256"
				}
			],
			"name": "getNFTSKIPBalance",
			"outputs": [
				{
					"internalType": "bool",
					"name": "",
					"type": "bool"
				}
			],
			"stateMutability": "view",
			"type": "function"
		},
		{
			"inputs": [
				{
					"internalType": "uint256",
					"name": "NFTId",
					"type": "uint256"
				}
			],
			"name": "getNFTVBalance",
			"outputs": [
				{
					"internalType": "bool",
					"name": "",
					"type": "bool"
				}
			],
			"stateMutability": "view",
			"type": "function"
		},
		{
			"inputs": [
				{
					"internalType": "uint256",
					"name": "NFTId",
					"type": "uint256"
				}
			],
			"name": "getNFTXTRABalance",
			"outputs": [
				{
					"internalType": "bool",
					"name": "",
					"type": "bool"
				}
			],
			"stateMutability": "view",
			"type": "function"
		},
		{
			"inputs": [
				{
					"internalType": "address",
					"name": "",
					"type": "address"
				}
			],
			"name": "hgmsShopBalances",
			"outputs": [
				{
					"internalType": "uint256",
					"name": "",
					"type": "uint256"
				}
			],
			"stateMutability": "view",
			"type": "function"
		},
		{
			"inputs": [],
			"name": "manualSend",
			"outputs": [],
			"stateMutability": "nonpayable",
			"type": "function"
		},
		{
			"inputs": [],
			"name": "name",
			"outputs": [
				{
					"internalType": "string",
					"name": "",
					"type": "string"
				}
			],
			"stateMutability": "pure",
			"type": "function"
		},
		{
			"inputs": [],
			"name": "openTrading",
			"outputs": [],
			"stateMutability": "nonpayable",
			"type": "function"
		},
		{
			"inputs": [],
			"name": "owner",
			"outputs": [
				{
					"internalType": "address",
					"name": "",
					"type": "address"
				}
			],
			"stateMutability": "view",
			"type": "function"
		},
		{
			"inputs": [
				{
					"internalType": "uint256",
					"name": "",
					"type": "uint256"
				}
			],
			"name": "potionsUsed",
			"outputs": [
				{
					"internalType": "uint256",
					"name": "",
					"type": "uint256"
				}
			],
			"stateMutability": "view",
			"type": "function"
		},
		{
			"inputs": [],
			"name": "removeLimits",
			"outputs": [],
			"stateMutability": "nonpayable",
			"type": "function"
		},
		{
			"inputs": [
				{
					"internalType": "uint256",
					"name": "First",
					"type": "uint256"
				},
				{
					"internalType": "uint256",
					"name": "Second",
					"type": "uint256"
				}
			],
			"name": "removePotions",
			"outputs": [],
			"stateMutability": "nonpayable",
			"type": "function"
		},
		{
			"inputs": [],
			"name": "renounceOwnership",
			"outputs": [],
			"stateMutability": "nonpayable",
			"type": "function"
		},
		{
			"inputs": [
				{
					"internalType": "uint256",
					"name": "hgmsAmount",
					"type": "uint256"
				},
				{
					"internalType": "uint256",
					"name": "ethAmount",
					"type": "uint256"
				}
			],
			"name": "setBOOSTPrice",
			"outputs": [],
			"stateMutability": "nonpayable",
			"type": "function"
		},
		{
			"inputs": [
				{
					"internalType": "address",
					"name": "BattleContractAddress",
					"type": "address"
				}
			],
			"name": "setBattleContract",
			"outputs": [],
			"stateMutability": "nonpayable",
			"type": "function"
		},
		{
			"inputs": [
				{
					"internalType": "uint256",
					"name": "hgmsAmount",
					"type": "uint256"
				},
				{
					"internalType": "uint256",
					"name": "ethAmount",
					"type": "uint256"
				}
			],
			"name": "setSKIPrice",
			"outputs": [],
			"stateMutability": "nonpayable",
			"type": "function"
		},
		{
			"inputs": [
				{
					"internalType": "uint256",
					"name": "hgmsAmount",
					"type": "uint256"
				},
				{
					"internalType": "uint256",
					"name": "ethAmount",
					"type": "uint256"
				}
			],
			"name": "setVPrice",
			"outputs": [],
			"stateMutability": "nonpayable",
			"type": "function"
		},
		{
			"inputs": [
				{
					"internalType": "uint256",
					"name": "hgmsAmount",
					"type": "uint256"
				},
				{
					"internalType": "uint256",
					"name": "ethAmount",
					"type": "uint256"
				}
			],
			"name": "setXTRAPrice",
			"outputs": [],
			"stateMutability": "nonpayable",
			"type": "function"
		},
		{
			"inputs": [],
			"name": "symbol",
			"outputs": [
				{
					"internalType": "string",
					"name": "",
					"type": "string"
				}
			],
			"stateMutability": "pure",
			"type": "function"
		},
		{
			"inputs": [],
			"name": "totalSupply",
			"outputs": [
				{
					"internalType": "uint256",
					"name": "",
					"type": "uint256"
				}
			],
			"stateMutability": "view",
			"type": "function"
		},
		{
			"inputs": [
				{
					"internalType": "address",
					"name": "recipient",
					"type": "address"
				},
				{
					"internalType": "uint256",
					"name": "amount",
					"type": "uint256"
				}
			],
			"name": "transfer",
			"outputs": [
				{
					"internalType": "bool",
					"name": "",
					"type": "bool"
				}
			],
			"stateMutability": "nonpayable",
			"type": "function"
		},
		{
			"inputs": [],
			"name": "transferDelayEnabled",
			"outputs": [
				{
					"internalType": "bool",
					"name": "",
					"type": "bool"
				}
			],
			"stateMutability": "view",
			"type": "function"
		},
		{
			"inputs": [
				{
					"internalType": "address",
					"name": "sender",
					"type": "address"
				},
				{
					"internalType": "address",
					"name": "recipient",
					"type": "address"
				},
				{
					"internalType": "uint256",
					"name": "amount",
					"type": "uint256"
				}
			],
			"name": "transferFrom",
			"outputs": [
				{
					"internalType": "bool",
					"name": "",
					"type": "bool"
				}
			],
			"stateMutability": "nonpayable",
			"type": "function"
		},
		{
			"inputs": [
				{
					"internalType": "address",
					"name": "to",
					"type": "address"
				},
				{
					"internalType": "uint256",
					"name": "amount",
					"type": "uint256"
				}
			],
			"name": "withdrawTokens",
			"outputs": [],
			"stateMutability": "nonpayable",
			"type": "function"
		},
		{
			"stateMutability": "payable",
			"type": "receive"
		}
	]
}