{
	"data": {
		"bytecode": {
			"linkReferences": {},
			"object": "6080604052601480546001600160a01b0319169055601360158190556019601681905560056017819055601855908155601a819055601b555f601c55620000496009600a6200045a565b6200005990633b9aca0062000471565b601d556200006a6009600a6200045a565b62000079906298968062000471565b601e556200008a6009600a6200045a565b6200009a906301312d0062000471565b601f55620000ab6009600a6200045a565b620000ba90620f424062000471565b602055620000cb6009600a6200045a565b620000da906298968062000471565b60215561c35060225561c35060235561c35060245561c350602555600360096200010591906200048b565b6200011290600a6200045a565b6200011f90600462000471565b6026555f60275562000134600360096200048b565b6200014190600a6200045a565b6200014e90600262000471565b6028556200015f600360096200048b565b6200016c90600a6200045a565b6200017990600162000471565b602955602b805462ffffff60a81b1916600160b81b1790553480156200019d575f80fd5b505f80546001600160a01b031916339081178255604051909182917f8be0079c531659141344cd1fd0a4f28419497f9722a3daafe3b4186f6b6457e0908290a35033601280546001600160a01b03929092166001600160a01b031992831617905560138054821673d53c9795a9daf24fbcab45cf2df0d37145f7e0e0179055601180548216736f1f797f35ef003c3b89257971a80208c61f797617905560108054909116737034990879d4e4c0f9dade892ad641bc45dedbbf179055601d54305f908152600160208190526040822092909255600390620002855f546001600160a01b031690565b6001600160a01b03908116825260208083019390935260409182015f908120805495151560ff19968716179055308082526003855283822080548716600190811790915560135484168352848320805488168217905560115484168352848320805488168217905560105490931682528382208054909616831790955584815292528082205490517fddf252ad1be2c89b69c2b068fc378daa952ba7f163c4a11628f55a4df523b3ef916200033d9190815260200190565b60405180910390a3620004a7565b634e487b7160e01b5f52601160045260245ffd5b600181815b808511156200039f57815f19048211156200038357620003836200034b565b808516156200039157918102915b93841c939080029062000364565b509250929050565b5f82620003b75750600162000454565b81620003c557505f62000454565b8160018114620003de5760028114620003e95762000409565b600191505062000454565b60ff841115620003fd57620003fd6200034b565b50506001821b62000454565b5060208310610133831016604e8410600b84101617156200042e575081810a62000454565b6200043a83836200035f565b805f19048211156200045057620004506200034b565b0290505b92915050565b5f6200046a60ff841683620003a7565b9392505050565b80820281158282048414176200045457620004546200034b565b60ff82811682821603908111156200045457620004546200034b565b6140e480620004b55f395ff3fe608060405260043610610395575f3560e01c8063715018a6116101de578063c1ae5e7211610108578063eb429bf81161009d578063f3a395fc1161006d578063f3a395fc14610b23578063f429389014610b51578063f5648a4f14610b65578063f7685a0214610b79575f80fd5b8063eb429bf814610aa3578063eb77dbb114610ace578063f2a6227f14610ae3578063f2b4c32514610b0e575f80fd5b8063ce9dc805116100d8578063ce9dc805146109f6578063d677d03e14610a15578063dd62ed3e14610a40578063e19fa77114610a84575f80fd5b8063c1ae5e7214610969578063c232ae4d14610997578063c876d0b9146109c2578063c9567bf9146109e2575f80fd5b806395d89b411161017e578063af95d4d31161014e578063af95d4d3146108eb578063bbab0ff11461090a578063be68e02714610929578063bf474bed14610954575f80fd5b806395d89b411461086d578063a1780c1814610899578063a9059cbb146108ad578063abb284e9146108cc575f80fd5b806381cd58e5116101b957806381cd58e5146107fe5780638da5cb5b1461081d5780638f9a55c0146108395780638fbd8f271461084e575f80fd5b8063715018a6146107c1578063751039fc146107d55780637d1db4a5146107e9575f80fd5b806324aede52116102bf57806351a2f6871161025f57806366b6090f1161022f57806366b6090f1461072b5780636a4d84f9146107405780636e2ed3c41461075f57806370a082311461078d575f80fd5b806351a2f6871461068557806352d3c14e146106a457806354ca45d8146106cf578063580a155a146106fd575f80fd5b80632d4bbb051161029a5780632d4bbb051461060a578063313ce5671461061d57806337e294d5146106385780633b32edd414610657575f80fd5b806324aede52146105b2578063298a8328146105c75780632ace2af5146105dc575f80fd5b80630d2d697a1161033557806318160ddd1161030557806318160ddd1461055557806319dde7b71461056957806321e09b341461057e57806323b872dd14610593575f80fd5b80630d2d697a146104b15780630db6dff7146104ea5780630faee56f1461050957806311a63e171461051e575f80fd5b806306fdde031161037057806306fdde0314610418578063095ea7b31461045457806309eadbf5146104735780630c0e3d4a14610492575f80fd5b8063039aa9cf146103a05780630634087d146103e357806306b091f9146103f9575f80fd5b3661039c57005b5f80fd5b3480156103ab575f80fd5b506103ce6103ba3660046138bf565b60066020525f908152604090205460ff1681565b60405190151581526020015b60405180910390f35b3480156103ee575f80fd5b506103f7610b8e565b005b348015610404575f80fd5b506103f76104133660046138fa565b610bd0565b348015610423575f80fd5b5060408051808201909152600b81526a48756e67657247616d657360a81b60208201525b6040516103da9190613971565b34801561045f575f80fd5b506103ce61046e3660046138fa565b610c6f565b34801561047e575f80fd5b506103f761048d366004613983565b610c85565b34801561049d575f80fd5b506103f76104ac366004613983565b610da8565b3480156104bc575f80fd5b506104dc6104cb3660046139a3565b60096020525f908152604090205481565b6040519081526020016103da565b3480156104f5575f80fd5b506103f76105043660046139a3565b610deb565b348015610514575f80fd5b506104dc60215481565b348015610529575f80fd5b5060125461053d906001600160a01b031681565b6040516001600160a01b0390911681526020016103da565b348015610560575f80fd5b50601d546104dc565b348015610574575f80fd5b506104dc60225481565b348015610589575f80fd5b506104dc60295481565b34801561059e575f80fd5b506103ce6105ad3660046139be565b610e36565b3480156105bd575f80fd5b506104dc60265481565b3480156105d2575f80fd5b506104dc60285481565b3480156105e7575f80fd5b506103ce6105f63660046138bf565b5f9081526004602052604090205460ff1690565b6103f7610618366004613983565b610e9d565b348015610628575f80fd5b50604051600981526020016103da565b348015610643575f80fd5b5060115461053d906001600160a01b031681565b348015610662575f80fd5b506103ce6106713660046138bf565b5f9081526006602052604090205460ff1690565b348015610690575f80fd5b5060105461053d906001600160a01b031681565b3480156106af575f80fd5b506104dc6106be3660046139a3565b600b6020525f908152604090205481565b3480156106da575f80fd5b506103ce6106e93660046138bf565b60076020525f908152604090205460ff1681565b348015610708575f80fd5b506103ce6107173660046138bf565b60056020525f908152604090205460ff1681565b348015610736575f80fd5b506104dc60255481565b34801561074b575f80fd5b506103f761075a366004613983565b611045565b34801561076a575f80fd5b506103ce6107793660046138bf565b5f9081526007602052604090205460ff1690565b348015610798575f80fd5b506104dc6107a73660046139a3565b6001600160a01b03165f9081526001602052604090205490565b3480156107cc575f80fd5b506103f7611088565b3480156107e0575f80fd5b506103f76110f9565b3480156107f4575f80fd5b506104dc601e5481565b348015610809575f80fd5b506103f7610818366004613b38565b61112c565b348015610828575f80fd5b505f546001600160a01b031661053d565b348015610844575f80fd5b506104dc601f5481565b348015610859575f80fd5b506103f7610868366004613983565b6118f1565b348015610878575f80fd5b5060408051808201909152600481526348474d5360e01b6020820152610447565b3480156108a4575f80fd5b506103f7611934565b3480156108b8575f80fd5b506103ce6108c73660046138fa565b611981565b3480156108d7575f80fd5b506103f76108e6366004613983565b61198d565b3480156108f6575f80fd5b506103f76109053660046138fa565b6119d0565b348015610915575f80fd5b5060135461053d906001600160a01b031681565b348015610934575f80fd5b506104dc6109433660046139a3565b600a6020525f908152604090205481565b34801561095f575f80fd5b506104dc60205481565b348015610974575f80fd5b506103ce6109833660046138bf565b5f9081526005602052604090205460ff1690565b3480156109a2575f80fd5b506104dc6109b13660046139a3565b600d6020525f908152604090205481565b3480156109cd575f80fd5b50602b546103ce90600160b81b900460ff1681565b3480156109ed575f80fd5b506103f7611a63565b348015610a01575f80fd5b5060145461053d906001600160a01b031681565b348015610a20575f80fd5b506104dc610a2f3660046139a3565b600c6020525f908152604090205481565b348015610a4b575f80fd5b506104dc610a5a366004613ba9565b6001600160a01b039182165f90815260026020908152604080832093909416825291909152205490565b348015610a8f575f80fd5b506103f7610a9e366004613bf8565b611e1d565b348015610aae575f80fd5b506104dc610abd3660046138bf565b600f6020525f908152604090205481565b348015610ad9575f80fd5b506104dc60245481565b348015610aee575f80fd5b506104dc610afd3660046139a3565b600e6020525f908152604090205481565b348015610b19575f80fd5b506104dc60275481565b348015610b2e575f80fd5b506103ce610b3d3660046138bf565b60046020525f908152604090205460ff1681565b348015610b5c575f80fd5b506103f7612090565b348015610b70575f80fd5b506103f76120cc565b348015610b84575f80fd5b506104dc60235481565b6010546001600160a01b03163314610ba4575f80fd5b60198054905f610bb48380613cf9565b9091555050601a8054905f610bc98380613cf9565b9091555050565b5f546001600160a01b03163314610c025760405162461bcd60e51b8152600401610bf990613d0c565b60405180910390fd5b305f90815260016020526040902054811115610c605760405162461bcd60e51b815260206004820152601d60248201527f4e6f7420656e6f75676820746f6b656e7320696e20636f6e74726163740000006044820152606401610bf9565b610c6b308383612118565b5050565b5f610c7b3384846126fb565b5060015b92915050565b6014546001600160a01b03163314610cf35760405162461bcd60e51b815260206004820152602b60248201527f4f6e6c792074686520626174746c6520636f6e74726163742063616e2072656d60448201526a6f766520706f74696f6e7360a81b6064820152608401610bf9565b5f828152600460208181526040808420805460ff19908116909155600580845282862080548316905560068085528387208054841690556007808652848820805485169055888852958552838720805484169055908452828620805483169055835281852080548216905592825292839020805490921690915581518481529081018390527f16552dc0eeaa5453189ca1b57f62bf76590b234053b60bd7120b6a49977d637f91015b60405180910390a15050565b6010546001600160a01b03163314610dbe575f80fd5b6025829055610dcf60036009613d41565b610dda90600a613e3a565b610de49082613e48565b6029555050565b5f546001600160a01b03163314610e145760405162461bcd60e51b8152600401610bf990613d0c565b601480546001600160a01b0319166001600160a01b0392909216919091179055565b5f610e42848484612118565b610e938433610e8e85604051806060016040528060288152602001614087602891396001600160a01b038a165f908152600260209081526040808320338452909152902054919061281f565b6126fb565b5060019392505050565b5f821180610eaa57505f81115b610ef65760405162461bcd60e51b815260206004820152601f60248201527f416d6f756e742073686f756c642062652067726561746572207468616e2030006044820152606401610bf9565b610f026009600a613e3a565b610f0c9082613e48565b341015610f5b5760405162461bcd60e51b815260206004820152601960248201527f496e636f72726563742045544820616d6f756e742073656e74000000000000006044820152606401610bf9565b8115610fe657335f90815260016020526040902054821115610fb85760405162461bcd60e51b81526020600482015260166024820152754e6f7420656e6f7567682048474d5320746f6b656e7360501b6044820152606401610bf9565b610fc23383612857565b335f9081526009602052604081208054849290610fe0908490613e5f565b90915550505b801561101957335f908152600a60205260408120805483929061100a908490613e5f565b909155506110199050346129d2565b6040517fed21248cb703b524cc0029bb8669df941baca560163a3bc6ad184e7e9c268070905f90a15050565b6010546001600160a01b0316331461105b575f80fd5b602382905561106c60036009613d41565b61107790600a613e3a565b6110819082613e48565b6027555050565b5f546001600160a01b031633146110b15760405162461bcd60e51b8152600401610bf990613d0c565b5f80546040516001600160a01b03909116907f8be0079c531659141344cd1fd0a4f28419497f9722a3daafe3b4186f6b6457e0908390a35f80546001600160a01b0319169055565b5f546001600160a01b031633146111225760405162461bcd60e51b8152600401610bf990613d0c565b61112a612b25565b565b6010546001600160a01b03163314611142575f80fd5b604051635854524160e01b6020820152602401604051602081830303815290604052805190602001208160405160200161117c9190613e72565b60405160208183030381529060405280519060200120036113235781516001600160a01b0384165f908152600b602052604090205410156111cf5760405162461bcd60e51b8152600401610bf990613e8d565b5f5b825181101561131d5760045f8483815181106111ef576111ef613ed1565b60209081029190910181015182528101919091526040015f205460ff161561124f5760405162461bcd60e51b8152602060048201526013602482015272416c726561647920616374697665205854524160681b6044820152606401610bf9565b600160045f85848151811061126657611266613ed1565b602002602001015181526020019081526020015f205f6101000a81548160ff0219169083151502179055506001600b5f866001600160a01b03166001600160a01b031681526020019081526020015f205f8282546112c49190613cf9565b925050819055506001600f5f8584815181106112e2576112e2613ed1565b602002602001015181526020019081526020015f205f8282546113059190613e5f565b9091555081905061131581613ee5565b9150506111d1565b50505050565b604051641093d3d4d560da1b6020820152602501604051602081830303815290604052805190602001208160405160200161135e9190613e72565b60405160208183030381529060405280519060200120036115005781516001600160a01b0384165f908152600c602052604090205410156113b15760405162461bcd60e51b8152600401610bf990613e8d565b5f5b825181101561131d5760065f8483815181106113d1576113d1613ed1565b60209081029190910181015182528101919091526040015f205460ff16156114325760405162461bcd60e51b8152602060048201526014602482015273105b1c9958591e481858dd1a5d99481093d3d4d560621b6044820152606401610bf9565b600160065f85848151811061144957611449613ed1565b602002602001015181526020019081526020015f205f6101000a81548160ff0219169083151502179055506001600c5f866001600160a01b03166001600160a01b031681526020019081526020015f205f8282546114a79190613cf9565b925050819055506001600f5f8584815181106114c5576114c5613ed1565b602002602001015181526020019081526020015f205f8282546114e89190613e5f565b909155508190506114f881613ee5565b9150506113b3565b604051602b60f91b602082015260210160405160208183030381529060405280519060200120816040516020016115379190613e72565b60405160208183030381529060405280519060200120036116d55781516001600160a01b0384165f908152600d6020526040902054101561158a5760405162461bcd60e51b8152600401610bf990613e8d565b5f5b825181101561131d5760055f8483815181106115aa576115aa613ed1565b60209081029190910181015182528101919091526040015f205460ff16156116075760405162461bcd60e51b815260206004820152601060248201526f20b63932b0b23c9030b1ba34bb32902b60811b6044820152606401610bf9565b600160055f85848151811061161e5761161e613ed1565b602002602001015181526020019081526020015f205f6101000a81548160ff0219169083151502179055506001600d5f866001600160a01b03166001600160a01b031681526020019081526020015f205f82825461167c9190613cf9565b925050819055506001600f5f85848151811061169a5761169a613ed1565b602002602001015181526020019081526020015f205f8282546116bd9190613e5f565b909155508190506116cd81613ee5565b91505061158c565b604051630534b49560e41b6020820152602401604051602081830303815290604052805190602001208160405160200161170f9190613e72565b60405160208183030381529060405280519060200120036118b05781516001600160a01b0384165f908152600e602052604090205410156117625760405162461bcd60e51b8152600401610bf990613e8d565b5f5b825181101561131d5760075f84838151811061178257611782613ed1565b60209081029190910181015182528101919091526040015f205460ff16156117e25760405162461bcd60e51b81526020600482015260136024820152720416c72656164792061637469766520534b495606c1b6044820152606401610bf9565b600160075f8584815181106117f9576117f9613ed1565b602002602001015181526020019081526020015f205f6101000a81548160ff0219169083151502179055506001600e5f866001600160a01b03166001600160a01b031681526020019081526020015f205f8282546118579190613cf9565b925050819055506001600f5f85848151811061187557611875613ed1565b602002602001015181526020019081526020015f205f8282546118989190613e5f565b909155508190506118a881613ee5565b915050611764565b60405162461bcd60e51b815260206004820152601160248201527057726f6e6720506f74696f6e204e616d6560781b6044820152606401610bf9565b505050565b6010546001600160a01b03163314611907575f80fd5b602282905561191860036009613d41565b61192390600a613e3a565b61192d9082613e48565b6026555050565b6012546001600160a01b0316336001600160a01b031614611953575f80fd5b305f9081526001602052604090205480156119715761197181612b9d565b478015610c6b57610c6b816129d2565b5f610c7b338484612118565b6010546001600160a01b031633146119a3575f80fd5b60248290556119b460036009613d41565b6119bf90600a613e3a565b6119c99082613e48565b6028555050565b6014546001600160a01b03163314611a1b5760405162461bcd60e51b815260206004820152600e60248201526d139bdd08185d5d1a1bdc9a5e995960921b6044820152606401610bf9565b6001600160a01b0382166108fc611a3e611a376009600a613e3a565b8490612d0d565b6040518115909202915f818181858888f193505050501580156118ec573d5f803e3d5ffd5b5f546001600160a01b03163314611a8c5760405162461bcd60e51b8152600401610bf990613d0c565b602b54600160a01b900460ff1615611ae65760405162461bcd60e51b815260206004820152601760248201527f74726164696e6720697320616c7265616479206f70656e0000000000000000006044820152606401610bf9565b602a80546001600160a01b031916737a250d5630b4cf539739df2c5dacb4c659f2488d908117909155601d54611b1d9130916126fb565b602a5f9054906101000a90046001600160a01b03166001600160a01b031663c45a01556040518163ffffffff1660e01b8152600401602060405180830381865afa158015611b6d573d5f803e3d5ffd5b505050506040513d601f19601f82011682018060405250810190611b919190613efd565b6001600160a01b031663c9c6539630602a5f9054906101000a90046001600160a01b03166001600160a01b031663ad5c46486040518163ffffffff1660e01b8152600401602060405180830381865afa158015611bf0573d5f803e3d5ffd5b505050506040513d601f19601f82011682018060405250810190611c149190613efd565b6040516001600160e01b031960e085901b1681526001600160a01b039283166004820152911660248201526044016020604051808303815f875af1158015611c5e573d5f803e3d5ffd5b505050506040513d601f19601f82011682018060405250810190611c829190613efd565b602b80546001600160a01b039283166001600160a01b0319909116179055602a541663f305d7194730611cc9816001600160a01b03165f9081526001602052604090205490565b5f80611cdc5f546001600160a01b031690565b60405160e088901b6001600160e01b03191681526001600160a01b03958616600482015260248101949094526044840192909252606483015290911660848201524260a482015260c40160606040518083038185885af1158015611d42573d5f803e3d5ffd5b50505050506040513d601f19601f82011682018060405250810190611d679190613f18565b5050602b54602a5460405163095ea7b360e01b81526001600160a01b0391821660048201525f1960248201529116915063095ea7b3906044016020604051808303815f875af1158015611dbc573d5f803e3d5ffd5b505050506040513d601f19601f82011682018060405250810190611de09190613f43565b50602b805462ff00ff60a01b19166201000160a01b179055601254305f8181526001602052604090205461112a926001600160a01b031690612118565b6010546001600160a01b03163314611e8d5760405162461bcd60e51b815260206004820152602d60248201527f4f6e6c79206d61696e74656e616e636557616c6c65742063616e2063616c6c2060448201526c3a3434b990333ab731ba34b7b760991b6064820152608401610bf9565b8251845114611ef75760405162461bcd60e51b815260206004820152603060248201527f4d69736d61746368656420706f74696f6e4e616d657320616e6420616d6f756e60448201526f0e8e640c2e4e4c2f2e640d8cadccee8d60831b6064820152608401610bf9565b5f805f805f885190508515611f1457611f11600282613cf9565b90505b5f5b81811015611f7057611f5e8a8281518110611f3357611f33613ed1565b60200260200101518a8381518110611f4d57611f4d613ed1565b602002602001015188888888612d55565b80611f6881613ee5565b915050611f16565b508515611fd357805b8951811015611fd157611fbf8a8281518110611f9757611f97613ed1565b60200260200101518a8381518110611fb157611fb1613ed1565b60200260200101518a612eef565b80611fc981613ee5565b915050611f79565b505b841561200057612000604051806040016040528060048152602001635854524160e01b815250868961316d565b831561202e5761202e604051806040016040528060058152602001641093d3d4d560da1b815250858961316d565b821561205857612058604051806040016040528060018152602001602b60f91b815250848961316d565b811561208557612085604051806040016040528060048152602001630534b49560e41b815250838961316d565b505050505050505050565b5f546001600160a01b031633146120b95760405162461bcd60e51b8152600401610bf990613d0c565b4780156120c9576120c9816129d2565b50565b6010546001600160a01b031633146120e2575f80fd5b6012546040516001600160a01b03909116904780156108fc02915f818181858888f193505050501580156120c9573d5f803e3d5ffd5b6001600160a01b03831661217c5760405162461bcd60e51b815260206004820152602560248201527f45524332303a207472616e736665722066726f6d20746865207a65726f206164604482015264647265737360d81b6064820152608401610bf9565b6001600160a01b0382166121de5760405162461bcd60e51b815260206004820152602360248201527f45524332303a207472616e7366657220746f20746865207a65726f206164647260448201526265737360e81b6064820152608401610bf9565b5f811161223f5760405162461bcd60e51b815260206004820152602960248201527f5472616e7366657220616d6f756e74206d7573742062652067726561746572206044820152687468616e207a65726f60b81b6064820152608401610bf9565b5f80546001600160a01b0385811691161480159061226a57505f546001600160a01b03848116911614155b156125be5761229b6064612295601954601c541161228a5760155461228e565b6017545b8590613762565b90612d0d565b602b54909150600160b81b900460ff161561238857602a546001600160a01b038481169116148015906122dc5750602b546001600160a01b03848116911614155b1561238857325f9081526008602052604090205443116123765760405162461bcd60e51b815260206004820152604960248201527f5f7472616e736665723a3a205472616e736665722044656c617920656e61626c60448201527f65642e20204f6e6c79206f6e652070757263686173652070657220626c6f636b6064820152681030b63637bbb2b21760b91b608482015260a401610bf9565b325f9081526008602052604090204390555b602b546001600160a01b0385811691161480156123b35750602a546001600160a01b03848116911614155b80156123d757506001600160a01b0383165f9081526003602052604090205460ff16155b156124bd57601e5482111561242e5760405162461bcd60e51b815260206004820152601960248201527f4578636565647320746865205f6d61785478416d6f756e742e000000000000006044820152606401610bf9565b601f5482612450856001600160a01b03165f9081526001602052604090205490565b61245a9190613e5f565b11156124a85760405162461bcd60e51b815260206004820152601a60248201527f4578636565647320746865206d617857616c6c657453697a652e0000000000006044820152606401610bf9565b601c8054905f6124b783613ee5565b91905055505b602b546001600160a01b0384811691161480156124e357506001600160a01b0384163014155b156125105761250d6064612295601a54601c54116125035760165461228e565b6018548590613762565b90505b305f90815260016020526040902054602b54600160a81b900460ff161580156125465750602b546001600160a01b038581169116145b801561255b5750602b54600160b01b900460ff165b8015612568575060205481115b80156125775750601b54601c54115b156125bc575f47905061259d61259885612593856021546137e0565b6137e0565b612b9d565b5f6125a847836137f4565b905080156125b9576125b9816129d2565b50505b505b801561263657305f908152600160205260409020546125dd9082613835565b305f81815260016020526040908190209290925590516001600160a01b038616907fddf252ad1be2c89b69c2b068fc378daa952ba7f163c4a11628f55a4df523b3ef9061262d9085815260200190565b60405180910390a35b6001600160a01b0384165f9081526001602052604090205461265890836137f4565b6001600160a01b0385165f9081526001602052604090205561269b61267d83836137f4565b6001600160a01b0385165f9081526001602052604090205490613835565b6001600160a01b038085165f8181526001602052604090209290925585167fddf252ad1be2c89b69c2b068fc378daa952ba7f163c4a11628f55a4df523b3ef6126e485856137f4565b60405190815260200160405180910390a350505050565b6001600160a01b03831661275d5760405162461bcd60e51b8152602060048201526024808201527f45524332303a20617070726f76652066726f6d20746865207a65726f206164646044820152637265737360e01b6064820152608401610bf9565b6001600160a01b0382166127be5760405162461bcd60e51b815260206004820152602260248201527f45524332303a20617070726f766520746f20746865207a65726f206164647265604482015261737360f01b6064820152608401610bf9565b6001600160a01b038381165f8181526002602090815260408083209487168084529482529182902085905590518481527f8c5be1e5ebec7d5bd14f71427d1e84f3dd0314c0f7b2291e5b200ac8c7c3b92591015b60405180910390a3505050565b5f81848411156128425760405162461bcd60e51b8152600401610bf99190613971565b505f61284e8486613cf9565b95945050505050565b6001600160a01b0382166128b75760405162461bcd60e51b815260206004820152602160248201527f43616e6e6f74206275726e2066726f6d20746865207a65726f206164647265736044820152607360f81b6064820152608401610bf9565b6128c36009600a613e3a565b6128cd9082613e48565b6001600160a01b0383165f908152600160205260408120805492935083929091906128f9908490613cf9565b9250508190555080601d5f8282546129119190613cf9565b9091555050601d54601e819055601f556040518181526001600160a01b038316907fcc16f5dbb4873280815c1ee09dbd06736cffcc184412cf7a71a0fdb75d397ca59060200160405180910390a26040518181525f906001600160a01b038416907fddf252ad1be2c89b69c2b068fc378daa952ba7f163c4a11628f55a4df523b3ef9060200160405180910390a37f947f344d56e1e8c70dc492fb94c4ddddd490c016aab685f5e7e47b2e85cb44cf601d54604051610d9c91815260200190565b5f8111612a215760405162461bcd60e51b815260206004820181905260248201527f416d6f756e74206d7573742062652067726561746572207468616e207a65726f6044820152606401610bf9565b80471015612a715760405162461bcd60e51b815260206004820152601d60248201527f496e73756666696369656e7420636f6e74726163742062616c616e63650000006044820152606401610bf9565b5f612a7d600583613f5e565b6013546040519192506001600160a01b03169082156108fc029083905f818181858888f19350505050158015612ab5573d5f803e3d5ffd5b506011546040516001600160a01b039091169082156108fc029083905f818181858888f19350505050158015612aed573d5f803e3d5ffd5b506010546040516001600160a01b039091169082156108fc029083905f818181858888f193505050501580156118ec573d5f803e3d5ffd5b5f546001600160a01b03163314612b4e5760405162461bcd60e51b8152600401610bf990613d0c565b601d54601e819055601f819055602b805460ff60b81b191690556040519081527f947f344d56e1e8c70dc492fb94c4ddddd490c016aab685f5e7e47b2e85cb44cf9060200160405180910390a1565b602b805460ff60a81b1916600160a81b1790556040805160028082526060820183525f9260208301908036833701905050905030815f81518110612be357612be3613ed1565b6001600160a01b03928316602091820292909201810191909152602a54604080516315ab88c960e31b81529051919093169263ad5c46489260048083019391928290030181865afa158015612c3a573d5f803e3d5ffd5b505050506040513d601f19601f82011682018060405250810190612c5e9190613efd565b81600181518110612c7157612c71613ed1565b6001600160a01b039283166020918202929092010152602a54612c9791309116846126fb565b602a5460405163791ac94760e01b81526001600160a01b039091169063791ac94790612ccf9085905f90869030904290600401613f7d565b5f604051808303815f87803b158015612ce6575f80fd5b505af1158015612cf8573d5f803e3d5ffd5b5050602b805460ff60a81b1916905550505050565b5f612d4e83836040518060400160405280601a81526020017f536166654d6174683a206469766973696f6e206279207a65726f000000000000815250613893565b9392505050565b604051635854524160e01b60208201526024016040516020818303038152906040528051906020012086604051602001612d8f9190613e72565b6040516020818303038152906040528051906020012003612dbb57612db48585613e5f565b9350612ee7565b604051641093d3d4d560da1b60208201526025016040516020818303038152906040528051906020012086604051602001612df69190613e72565b6040516020818303038152906040528051906020012003612e2257612e1b8584613e5f565b9250612ee7565b604051602b60f91b60208201526021016040516020818303038152906040528051906020012086604051602001612e599190613e72565b6040516020818303038152906040528051906020012003612e8557612e7e8583613e5f565b9150612ee7565b604051630534b49560e41b60208201526024016040516020818303038152906040528051906020012086604051602001612ebf9190613e72565b6040516020818303038152906040528051906020012003612ee757612ee48582613e5f565b90505b505050505050565b604051635854524160e01b60208201526024016040516020818303038152906040528051906020012083604051602001612f299190613e72565b6040516020818303038152906040528051906020012003612f76576001600160a01b0381165f908152600b602052604081208054849290612f6b908490613e5f565b909155506131269050565b604051641093d3d4d560da1b60208201526025016040516020818303038152906040528051906020012083604051602001612fb19190613e72565b6040516020818303038152906040528051906020012003612ff3576001600160a01b0381165f908152600c602052604081208054849290612f6b908490613e5f565b604051602b60f91b6020820152602101604051602081830303815290604052805190602001208360405160200161302a9190613e72565b604051602081830303815290604052805190602001200361306c576001600160a01b0381165f908152600d602052604081208054849290612f6b908490613e5f565b604051630534b49560e41b602082015260240160405160208183030381529060405280519060200120836040516020016130a69190613e72565b60405160208183030381529060405280519060200120036130e8576001600160a01b0381165f908152600e602052604081208054849290612f6b908490613e5f565b60405162461bcd60e51b8152602060048201526013602482015272496e76616c696420506f74696f6e204e616d6560681b6044820152606401610bf9565b806001600160a01b0316336001600160a01b03167f3d57eec5ab68ae7c8f1ed6299a36d8e6f61253e0f24ac6aba38bc3fcbe7bc7ae855f8060405161281293929190613fec565b815f0361317957505050565b5f8060405160200161319590635854524160e01b815260040190565b60405160208183030381529060405280519060200120856040516020016131bc9190613e72565b6040516020818303038152906040528051906020012003613337576022546131e49085613762565b6026549092506131f49085613762565b6001600160a01b0384165f9081526009602052604090205490915082111561322e5760405162461bcd60e51b8152600401610bf990614010565b6001600160a01b0383165f908152600a60205260409020548111156132655760405162461bcd60e51b8152600401610bf990614051565b6001600160a01b0383165f908152600960205260408120805484929061328c908490613cf9565b90915550506001600160a01b0383165f908152600a6020526040812080548392906132b8908490613cf9565b90915550506001600160a01b0383165f908152600b6020526040812080548692906132e4908490613e5f565b90915550506040516001600160a01b0384169033907f3d57eec5ab68ae7c8f1ed6299a36d8e6f61253e0f24ac6aba38bc3fcbe7bc7ae9061332a90899086908890613fec565b60405180910390a361375b565b604051641093d3d4d560da1b602082015260250160405160208183030381529060405280519060200120856040516020016133729190613e72565b604051602081830303815290604052805190602001200361349a5760235461339a9085613762565b6027549092506133aa9085613762565b6001600160a01b0384165f908152600960205260409020549091508211156133e45760405162461bcd60e51b8152600401610bf990614010565b6001600160a01b0383165f908152600a602052604090205481111561341b5760405162461bcd60e51b8152600401610bf990614051565b6001600160a01b0383165f9081526009602052604081208054849290613442908490613cf9565b90915550506001600160a01b0383165f908152600a60205260408120805483929061346e908490613cf9565b90915550506001600160a01b0383165f908152600c6020526040812080548692906132e4908490613e5f565b604051602b60f91b602082015260210160405160208183030381529060405280519060200120856040516020016134d19190613e72565b60405160208183030381529060405280519060200120036135f9576024546134f99085613762565b6028549092506135099085613762565b6001600160a01b0384165f908152600960205260409020549091508211156135435760405162461bcd60e51b8152600401610bf990614010565b6001600160a01b0383165f908152600a602052604090205481111561357a5760405162461bcd60e51b8152600401610bf990614051565b6001600160a01b0383165f90815260096020526040812080548492906135a1908490613cf9565b90915550506001600160a01b0383165f908152600a6020526040812080548392906135cd908490613cf9565b90915550506001600160a01b0383165f908152600d6020526040812080548692906132e4908490613e5f565b604051630534b49560e41b602082015260240160405160208183030381529060405280519060200120856040516020016136339190613e72565b60405160208183030381529060405280519060200120036130e85760255461365b9085613762565b60295490925061366b9085613762565b6001600160a01b0384165f908152600960205260409020549091508211156136a55760405162461bcd60e51b8152600401610bf990614010565b6001600160a01b0383165f908152600a60205260409020548111156136dc5760405162461bcd60e51b8152600401610bf990614051565b6001600160a01b0383165f9081526009602052604081208054849290613703908490613cf9565b90915550506001600160a01b0383165f908152600a60205260408120805483929061372f908490613cf9565b90915550506001600160a01b0383165f908152600e6020526040812080548692906132e4908490613e5f565b5050505050565b5f825f0361377157505f610c7f565b5f61377c8385613e48565b9050826137898583613f5e565b14612d4e5760405162461bcd60e51b815260206004820152602160248201527f536166654d6174683a206d756c7469706c69636174696f6e206f766572666c6f6044820152607760f81b6064820152608401610bf9565b5f8183116137ee5782612d4e565b50919050565b5f612d4e83836040518060400160405280601e81526020017f536166654d6174683a207375627472616374696f6e206f766572666c6f77000081525061281f565b5f806138418385613e5f565b905083811015612d4e5760405162461bcd60e51b815260206004820152601b60248201527f536166654d6174683a206164646974696f6e206f766572666c6f7700000000006044820152606401610bf9565b5f81836138b35760405162461bcd60e51b8152600401610bf99190613971565b505f61284e8486613f5e565b5f602082840312156138cf575f80fd5b5035919050565b6001600160a01b03811681146120c9575f80fd5b80356138f5816138d6565b919050565b5f806040838503121561390b575f80fd5b8235613916816138d6565b946020939093013593505050565b5f5b8381101561393e578181015183820152602001613926565b50505f910152565b5f815180845261395d816020860160208601613924565b601f01601f19169290920160200192915050565b602081525f612d4e6020830184613946565b5f8060408385031215613994575f80fd5b50508035926020909101359150565b5f602082840312156139b3575f80fd5b8135612d4e816138d6565b5f805f606084860312156139d0575f80fd5b83356139db816138d6565b925060208401356139eb816138d6565b929592945050506040919091013590565b634e487b7160e01b5f52604160045260245ffd5b604051601f8201601f1916810167ffffffffffffffff81118282101715613a3957613a396139fc565b604052919050565b5f67ffffffffffffffff821115613a5a57613a5a6139fc565b5060051b60200190565b5f82601f830112613a73575f80fd5b81356020613a88613a8383613a41565b613a10565b82815260059290921b84018101918181019086841115613aa6575f80fd5b8286015b84811015613ac15780358352918301918301613aaa565b509695505050505050565b5f82601f830112613adb575f80fd5b813567ffffffffffffffff811115613af557613af56139fc565b613b08601f8201601f1916602001613a10565b818152846020838601011115613b1c575f80fd5b816020850160208301375f918101602001919091529392505050565b5f805f60608486031215613b4a575f80fd5b8335613b55816138d6565b9250602084013567ffffffffffffffff80821115613b71575f80fd5b613b7d87838801613a64565b93506040860135915080821115613b92575f80fd5b50613b9f86828701613acc565b9150509250925092565b5f8060408385031215613bba575f80fd5b8235613bc5816138d6565b91506020830135613bd5816138d6565b809150509250929050565b80151581146120c9575f80fd5b80356138f581613be0565b5f805f8060808587031215613c0b575f80fd5b843567ffffffffffffffff80821115613c22575f80fd5b818701915087601f830112613c35575f80fd5b81356020613c45613a8383613a41565b82815260059290921b8401810191818101908b841115613c63575f80fd5b8286015b84811015613c9a57803586811115613c7e575f8081fd5b613c8c8e86838b0101613acc565b845250918301918301613c67565b5098505088013592505080821115613cb0575f80fd5b50613cbd87828801613a64565b935050613ccc604086016138ea565b9150613cda60608601613bed565b905092959194509250565b634e487b7160e01b5f52601160045260245ffd5b81810381811115610c7f57610c7f613ce5565b6020808252818101527f4f776e61626c653a2063616c6c6572206973206e6f7420746865206f776e6572604082015260600190565b60ff8281168282160390811115610c7f57610c7f613ce5565b600181815b80851115613d9457815f1904821115613d7a57613d7a613ce5565b80851615613d8757918102915b93841c9390800290613d5f565b509250929050565b5f82613daa57506001610c7f565b81613db657505f610c7f565b8160018114613dcc5760028114613dd657613df2565b6001915050610c7f565b60ff841115613de757613de7613ce5565b50506001821b610c7f565b5060208310610133831016604e8410600b8410161715613e15575081810a610c7f565b613e1f8383613d5a565b805f1904821115613e3257613e32613ce5565b029392505050565b5f612d4e60ff841683613d9c565b8082028115828204841417610c7f57610c7f613ce5565b80820180821115610c7f57610c7f613ce5565b5f8251613e83818460208701613924565b9190910192915050565b60208082526024908201527f42616c616e636520646f6573206e6f74206861766520656e6f75676820506f74604082015263696f6e7360e01b606082015260800190565b634e487b7160e01b5f52603260045260245ffd5b5f60018201613ef657613ef6613ce5565b5060010190565b5f60208284031215613f0d575f80fd5b8151612d4e816138d6565b5f805f60608486031215613f2a575f80fd5b8351925060208401519150604084015190509250925092565b5f60208284031215613f53575f80fd5b8151612d4e81613be0565b5f82613f7857634e487b7160e01b5f52601260045260245ffd5b500490565b5f60a082018783526020878185015260a0604085015281875180845260c08601915082890193505f5b81811015613fcb5784516001600160a01b031683529383019391830191600101613fa6565b50506001600160a01b03969096166060850152505050608001529392505050565b606081525f613ffe6060830186613946565b60208301949094525060400152919050565b60208082526021908201527f42616c616e636520646f6573206e6f74206861766520656e6f7567682048474d6040820152605360f81b606082015260800190565b6020808252818101527f42616c616e636520646f6573206e6f74206861766520656e6f7567682045544860408201526060019056fe45524332303a207472616e7366657220616d6f756e74206578636565647320616c6c6f77616e6365a26469706673582212207ce33dafa120e040ae433889ebd4576792501d2ee79324ca732b17a343df2dd264736f6c63430008150033",
			"opcodes": "PUSH1 0x80 PUSH1 0x40 MSTORE PUSH1 0x14 DUP1 SLOAD PUSH1 0x1 PUSH1 0x1 PUSH1 0xA0 SHL SUB NOT AND SWAP1 SSTORE PUSH1 0x13 PUSH1 0x15 DUP2 SWAP1 SSTORE PUSH1 0x19 PUSH1 0x16 DUP2 SWAP1 SSTORE PUSH1 0x5 PUSH1 0x17 DUP2 SWAP1 SSTORE PUSH1 0x18 SSTORE SWAP1 DUP2 SSTORE PUSH1 0x1A DUP2 SWAP1 SSTORE PUSH1 0x1B SSTORE PUSH0 PUSH1 0x1C SSTORE PUSH3 0x49 PUSH1 0x9 PUSH1 0xA PUSH3 0x45A JUMP JUMPDEST PUSH3 0x59 SWAP1 PUSH4 0x3B9ACA00 PUSH3 0x471 JUMP JUMPDEST PUSH1 0x1D SSTORE PUSH3 0x6A PUSH1 0x9 PUSH1 0xA PUSH3 0x45A JUMP JUMPDEST PUSH3 0x79 SWAP1 PUSH3 0x989680 PUSH3 0x471 JUMP JUMPDEST PUSH1 0x1E SSTORE PUSH3 0x8A PUSH1 0x9 PUSH1 0xA PUSH3 0x45A JUMP JUMPDEST PUSH3 0x9A SWAP1 PUSH4 0x1312D00 PUSH3 0x471 JUMP JUMPDEST PUSH1 0x1F SSTORE PUSH3 0xAB PUSH1 0x9 PUSH1 0xA PUSH3 0x45A JUMP JUMPDEST PUSH3 0xBA SWAP1 PUSH3 0xF4240 PUSH3 0x471 JUMP JUMPDEST PUSH1 0x20 SSTORE PUSH3 0xCB PUSH1 0x9 PUSH1 0xA PUSH3 0x45A JUMP JUMPDEST PUSH3 0xDA SWAP1 PUSH3 0x989680 PUSH3 0x471 JUMP JUMPDEST PUSH1 0x21 SSTORE PUSH2 0xC350 PUSH1 0x22 SSTORE PUSH2 0xC350 PUSH1 0x23 SSTORE PUSH2 0xC350 PUSH1 0x24 SSTORE PUSH2 0xC350 PUSH1 0x25 SSTORE PUSH1 0x3 PUSH1 0x9 PUSH3 0x105 SWAP2 SWAP1 PUSH3 0x48B JUMP JUMPDEST PUSH3 0x112 SWAP1 PUSH1 0xA PUSH3 0x45A JUMP JUMPDEST PUSH3 0x11F SWAP1 PUSH1 0x4 PUSH3 0x471 JUMP JUMPDEST PUSH1 0x26 SSTORE PUSH0 PUSH1 0x27 SSTORE PUSH3 0x134 PUSH1 0x3 PUSH1 0x9 PUSH3 0x48B JUMP JUMPDEST PUSH3 0x141 SWAP1 PUSH1 0xA PUSH3 0x45A JUMP JUMPDEST PUSH3 0x14E SWAP1 PUSH1 0x2 PUSH3 0x471 JUMP JUMPDEST PUSH1 0x28 SSTORE PUSH3 0x15F PUSH1 0x3 PUSH1 0x9 PUSH3 0x48B JUMP JUMPDEST PUSH3 0x16C SWAP1 PUSH1 0xA PUSH3 0x45A JUMP JUMPDEST PUSH3 0x179 SWAP1 PUSH1 0x1 PUSH3 0x471 JUMP JUMPDEST PUSH1 0x29 SSTORE PUSH1 0x2B DUP1 SLOAD PUSH3 0xFFFFFF PUSH1 0xA8 SHL NOT AND PUSH1 0x1 PUSH1 0xB8 SHL OR SWAP1 SSTORE CALLVALUE DUP1 ISZERO PUSH3 0x19D JUMPI PUSH0 DUP1 REVERT JUMPDEST POP PUSH0 DUP1 SLOAD PUSH1 0x1 PUSH1 0x1 PUSH1 0xA0 SHL SUB NOT AND CALLER SWAP1 DUP2 OR DUP3 SSTORE PUSH1 0x40 MLOAD SWAP1 SWAP2 DUP3 SWAP2 PUSH32 0x8BE0079C531659141344CD1FD0A4F28419497F9722A3DAAFE3B4186F6B6457E0 SWAP1 DUP3 SWAP1 LOG3 POP CALLER PUSH1 0x12 DUP1 SLOAD PUSH1 0x1 PUSH1 0x1 PUSH1 0xA0 SHL SUB SWAP3 SWAP1 SWAP3 AND PUSH1 0x1 PUSH1 0x1 PUSH1 0xA0 SHL SUB NOT SWAP3 DUP4 AND OR SWAP1 SSTORE PUSH1 0x13 DUP1 SLOAD DUP3 AND PUSH20 0xD53C9795A9DAF24FBCAB45CF2DF0D37145F7E0E0 OR SWAP1 SSTORE PUSH1 0x11 DUP1 SLOAD DUP3 AND PUSH20 0x6F1F797F35EF003C3B89257971A80208C61F7976 OR SWAP1 SSTORE PUSH1 0x10 DUP1 SLOAD SWAP1 SWAP2 AND PUSH20 0x7034990879D4E4C0F9DADE892AD641BC45DEDBBF OR SWAP1 SSTORE PUSH1 0x1D SLOAD ADDRESS PUSH0 SWAP1 DUP2 MSTORE PUSH1 0x1 PUSH1 0x20 DUP2 SWAP1 MSTORE PUSH1 0x40 DUP3 KECCAK256 SWAP3 SWAP1 SWAP3 SSTORE PUSH1 0x3 SWAP1 PUSH3 0x285 PUSH0 SLOAD PUSH1 0x1 PUSH1 0x1 PUSH1 0xA0 SHL SUB AND SWAP1 JUMP JUMPDEST PUSH1 0x1 PUSH1 0x1 PUSH1 0xA0 SHL SUB SWAP1 DUP2 AND DUP3 MSTORE PUSH1 0x20 DUP1 DUP4 ADD SWAP4 SWAP1 SWAP4 MSTORE PUSH1 0x40 SWAP2 DUP3 ADD PUSH0 SWAP1 DUP2 KECCAK256 DUP1 SLOAD SWAP6 ISZERO ISZERO PUSH1 0xFF NOT SWAP7 DUP8 AND OR SWAP1 SSTORE ADDRESS DUP1 DUP3 MSTORE PUSH1 0x3 DUP6 MSTORE DUP4 DUP3 KECCAK256 DUP1 SLOAD DUP8 AND PUSH1 0x1 SWAP1 DUP2 OR SWAP1 SWAP2 SSTORE PUSH1 0x13 SLOAD DUP5 AND DUP4 MSTORE DUP5 DUP4 KECCAK256 DUP1 SLOAD DUP9 AND DUP3 OR SWAP1 SSTORE PUSH1 0x11 SLOAD DUP5 AND DUP4 MSTORE DUP5 DUP4 KECCAK256 DUP1 SLOAD DUP9 AND DUP3 OR SWAP1 SSTORE PUSH1 0x10 SLOAD SWAP1 SWAP4 AND DUP3 MSTORE DUP4 DUP3 KECCAK256 DUP1 SLOAD SWAP1 SWAP7 AND DUP4 OR SWAP1 SWAP6 SSTORE DUP5 DUP2 MSTORE SWAP3 MSTORE DUP1 DUP3 KECCAK256 SLOAD SWAP1 MLOAD PUSH32 0xDDF252AD1BE2C89B69C2B068FC378DAA952BA7F163C4A11628F55A4DF523B3EF SWAP2 PUSH3 0x33D SWAP2 SWAP1 DUP2 MSTORE PUSH1 0x20 ADD SWAP1 JUMP JUMPDEST PUSH1 0x40 MLOAD DUP1 SWAP2 SUB SWAP1 LOG3 PUSH3 0x4A7 JUMP JUMPDEST PUSH4 0x4E487B71 PUSH1 0xE0 SHL PUSH0 MSTORE PUSH1 0x11 PUSH1 0x4 MSTORE PUSH1 0x24 PUSH0 REVERT JUMPDEST PUSH1 0x1 DUP2 DUP2 JUMPDEST DUP1 DUP6 GT ISZERO PUSH3 0x39F JUMPI DUP2 PUSH0 NOT DIV DUP3 GT ISZERO PUSH3 0x383 JUMPI PUSH3 0x383 PUSH3 0x34B JUMP JUMPDEST DUP1 DUP6 AND ISZERO PUSH3 0x391 JUMPI SWAP2 DUP2 MUL SWAP2 JUMPDEST SWAP4 DUP5 SHR SWAP4 SWAP1 DUP1 MUL SWAP1 PUSH3 0x364 JUMP JUMPDEST POP SWAP3 POP SWAP3 SWAP1 POP JUMP JUMPDEST PUSH0 DUP3 PUSH3 0x3B7 JUMPI POP PUSH1 0x1 PUSH3 0x454 JUMP JUMPDEST DUP2 PUSH3 0x3C5 JUMPI POP PUSH0 PUSH3 0x454 JUMP JUMPDEST DUP2 PUSH1 0x1 DUP2 EQ PUSH3 0x3DE JUMPI PUSH1 0x2 DUP2 EQ PUSH3 0x3E9 JUMPI PUSH3 0x409 JUMP JUMPDEST PUSH1 0x1 SWAP2 POP POP PUSH3 0x454 JUMP JUMPDEST PUSH1 0xFF DUP5 GT ISZERO PUSH3 0x3FD JUMPI PUSH3 0x3FD PUSH3 0x34B JUMP JUMPDEST POP POP PUSH1 0x1 DUP3 SHL PUSH3 0x454 JUMP JUMPDEST POP PUSH1 0x20 DUP4 LT PUSH2 0x133 DUP4 LT AND PUSH1 0x4E DUP5 LT PUSH1 0xB DUP5 LT AND OR ISZERO PUSH3 0x42E JUMPI POP DUP2 DUP2 EXP PUSH3 0x454 JUMP JUMPDEST PUSH3 0x43A DUP4 DUP4 PUSH3 0x35F JUMP JUMPDEST DUP1 PUSH0 NOT DIV DUP3 GT ISZERO PUSH3 0x450 JUMPI PUSH3 0x450 PUSH3 0x34B JUMP JUMPDEST MUL SWAP1 POP JUMPDEST SWAP3 SWAP2 POP POP JUMP JUMPDEST PUSH0 PUSH3 0x46A PUSH1 0xFF DUP5 AND DUP4 PUSH3 0x3A7 JUMP JUMPDEST SWAP4 SWAP3 POP POP POP JUMP JUMPDEST DUP1 DUP3 MUL DUP2 ISZERO DUP3 DUP3 DIV DUP5 EQ OR PUSH3 0x454 JUMPI PUSH3 0x454 PUSH3 0x34B JUMP JUMPDEST PUSH1 0xFF DUP3 DUP2 AND DUP3 DUP3 AND SUB SWAP1 DUP2 GT ISZERO PUSH3 0x454 JUMPI PUSH3 0x454 PUSH3 0x34B JUMP JUMPDEST PUSH2 0x40E4 DUP1 PUSH3 0x4B5 PUSH0 CODECOPY PUSH0 RETURN INVALID PUSH1 0x80 PUSH1 0x40 MSTORE PUSH1 0x4 CALLDATASIZE LT PUSH2 0x395 JUMPI PUSH0 CALLDATALOAD PUSH1 0xE0 SHR DUP1 PUSH4 0x715018A6 GT PUSH2 0x1DE JUMPI DUP1 PUSH4 0xC1AE5E72 GT PUSH2 0x108 JUMPI DUP1 PUSH4 0xEB429BF8 GT PUSH2 0x9D JUMPI DUP1 PUSH4 0xF3A395FC GT PUSH2 0x6D JUMPI DUP1 PUSH4 0xF3A395FC EQ PUSH2 0xB23 JUMPI DUP1 PUSH4 0xF4293890 EQ PUSH2 0xB51 JUMPI DUP1 PUSH4 0xF5648A4F EQ PUSH2 0xB65 JUMPI DUP1 PUSH4 0xF7685A02 EQ PUSH2 0xB79 JUMPI PUSH0 DUP1 REVERT JUMPDEST DUP1 PUSH4 0xEB429BF8 EQ PUSH2 0xAA3 JUMPI DUP1 PUSH4 0xEB77DBB1 EQ PUSH2 0xACE JUMPI DUP1 PUSH4 0xF2A6227F EQ PUSH2 0xAE3 JUMPI DUP1 PUSH4 0xF2B4C325 EQ PUSH2 0xB0E JUMPI PUSH0 DUP1 REVERT JUMPDEST DUP1 PUSH4 0xCE9DC805 GT PUSH2 0xD8 JUMPI DUP1 PUSH4 0xCE9DC805 EQ PUSH2 0x9F6 JUMPI DUP1 PUSH4 0xD677D03E EQ PUSH2 0xA15 JUMPI DUP1 PUSH4 0xDD62ED3E EQ PUSH2 0xA40 JUMPI DUP1 PUSH4 0xE19FA771 EQ PUSH2 0xA84 JUMPI PUSH0 DUP1 REVERT JUMPDEST DUP1 PUSH4 0xC1AE5E72 EQ PUSH2 0x969 JUMPI DUP1 PUSH4 0xC232AE4D EQ PUSH2 0x997 JUMPI DUP1 PUSH4 0xC876D0B9 EQ PUSH2 0x9C2 JUMPI DUP1 PUSH4 0xC9567BF9 EQ PUSH2 0x9E2 JUMPI PUSH0 DUP1 REVERT JUMPDEST DUP1 PUSH4 0x95D89B41 GT PUSH2 0x17E JUMPI DUP1 PUSH4 0xAF95D4D3 GT PUSH2 0x14E JUMPI DUP1 PUSH4 0xAF95D4D3 EQ PUSH2 0x8EB JUMPI DUP1 PUSH4 0xBBAB0FF1 EQ PUSH2 0x90A JUMPI DUP1 PUSH4 0xBE68E027 EQ PUSH2 0x929 JUMPI DUP1 PUSH4 0xBF474BED EQ PUSH2 0x954 JUMPI PUSH0 DUP1 REVERT JUMPDEST DUP1 PUSH4 0x95D89B41 EQ PUSH2 0x86D JUMPI DUP1 PUSH4 0xA1780C18 EQ PUSH2 0x899 JUMPI DUP1 PUSH4 0xA9059CBB EQ PUSH2 0x8AD JUMPI DUP1 PUSH4 0xABB284E9 EQ PUSH2 0x8CC JUMPI PUSH0 DUP1 REVERT JUMPDEST DUP1 PUSH4 0x81CD58E5 GT PUSH2 0x1B9 JUMPI DUP1 PUSH4 0x81CD58E5 EQ PUSH2 0x7FE JUMPI DUP1 PUSH4 0x8DA5CB5B EQ PUSH2 0x81D JUMPI DUP1 PUSH4 0x8F9A55C0 EQ PUSH2 0x839 JUMPI DUP1 PUSH4 0x8FBD8F27 EQ PUSH2 0x84E JUMPI PUSH0 DUP1 REVERT JUMPDEST DUP1 PUSH4 0x715018A6 EQ PUSH2 0x7C1 JUMPI DUP1 PUSH4 0x751039FC EQ PUSH2 0x7D5 JUMPI DUP1 PUSH4 0x7D1DB4A5 EQ PUSH2 0x7E9 JUMPI PUSH0 DUP1 REVERT JUMPDEST DUP1 PUSH4 0x24AEDE52 GT PUSH2 0x2BF JUMPI DUP1 PUSH4 0x51A2F687 GT PUSH2 0x25F JUMPI DUP1 PUSH4 0x66B6090F GT PUSH2 0x22F JUMPI DUP1 PUSH4 0x66B6090F EQ PUSH2 0x72B JUMPI DUP1 PUSH4 0x6A4D84F9 EQ PUSH2 0x740 JUMPI DUP1 PUSH4 0x6E2ED3C4 EQ PUSH2 0x75F JUMPI DUP1 PUSH4 0x70A08231 EQ PUSH2 0x78D JUMPI PUSH0 DUP1 REVERT JUMPDEST DUP1 PUSH4 0x51A2F687 EQ PUSH2 0x685 JUMPI DUP1 PUSH4 0x52D3C14E EQ PUSH2 0x6A4 JUMPI DUP1 PUSH4 0x54CA45D8 EQ PUSH2 0x6CF JUMPI DUP1 PUSH4 0x580A155A EQ PUSH2 0x6FD JUMPI PUSH0 DUP1 REVERT JUMPDEST DUP1 PUSH4 0x2D4BBB05 GT PUSH2 0x29A JUMPI DUP1 PUSH4 0x2D4BBB05 EQ PUSH2 0x60A JUMPI DUP1 PUSH4 0x313CE567 EQ PUSH2 0x61D JUMPI DUP1 PUSH4 0x37E294D5 EQ PUSH2 0x638 JUMPI DUP1 PUSH4 0x3B32EDD4 EQ PUSH2 0x657 JUMPI PUSH0 DUP1 REVERT JUMPDEST DUP1 PUSH4 0x24AEDE52 EQ PUSH2 0x5B2 JUMPI DUP1 PUSH4 0x298A8328 EQ PUSH2 0x5C7 JUMPI DUP1 PUSH4 0x2ACE2AF5 EQ PUSH2 0x5DC JUMPI PUSH0 DUP1 REVERT JUMPDEST DUP1 PUSH4 0xD2D697A GT PUSH2 0x335 JUMPI DUP1 PUSH4 0x18160DDD GT PUSH2 0x305 JUMPI DUP1 PUSH4 0x18160DDD EQ PUSH2 0x555 JUMPI DUP1 PUSH4 0x19DDE7B7 EQ PUSH2 0x569 JUMPI DUP1 PUSH4 0x21E09B34 EQ PUSH2 0x57E JUMPI DUP1 PUSH4 0x23B872DD EQ PUSH2 0x593 JUMPI PUSH0 DUP1 REVERT JUMPDEST DUP1 PUSH4 0xD2D697A EQ PUSH2 0x4B1 JUMPI DUP1 PUSH4 0xDB6DFF7 EQ PUSH2 0x4EA JUMPI DUP1 PUSH4 0xFAEE56F EQ PUSH2 0x509 JUMPI DUP1 PUSH4 0x11A63E17 EQ PUSH2 0x51E JUMPI PUSH0 DUP1 REVERT JUMPDEST DUP1 PUSH4 0x6FDDE03 GT PUSH2 0x370 JUMPI DUP1 PUSH4 0x6FDDE03 EQ PUSH2 0x418 JUMPI DUP1 PUSH4 0x95EA7B3 EQ PUSH2 0x454 JUMPI DUP1 PUSH4 0x9EADBF5 EQ PUSH2 0x473 JUMPI DUP1 PUSH4 0xC0E3D4A EQ PUSH2 0x492 JUMPI PUSH0 DUP1 REVERT JUMPDEST DUP1 PUSH4 0x39AA9CF EQ PUSH2 0x3A0 JUMPI DUP1 PUSH4 0x634087D EQ PUSH2 0x3E3 JUMPI DUP1 PUSH4 0x6B091F9 EQ PUSH2 0x3F9 JUMPI PUSH0 DUP1 REVERT JUMPDEST CALLDATASIZE PUSH2 0x39C JUMPI STOP JUMPDEST PUSH0 DUP1 REVERT JUMPDEST CALLVALUE DUP1 ISZERO PUSH2 0x3AB JUMPI PUSH0 DUP1 REVERT JUMPDEST POP PUSH2 0x3CE PUSH2 0x3BA CALLDATASIZE PUSH1 0x4 PUSH2 0x38BF JUMP JUMPDEST PUSH1 0x6 PUSH1 0x20 MSTORE PUSH0 SWAP1 DUP2 MSTORE PUSH1 0x40 SWAP1 KECCAK256 SLOAD PUSH1 0xFF AND DUP2 JUMP JUMPDEST PUSH1 0x40 MLOAD SWAP1 ISZERO ISZERO DUP2 MSTORE PUSH1 0x20 ADD JUMPDEST PUSH1 0x40 MLOAD DUP1 SWAP2 SUB SWAP1 RETURN JUMPDEST CALLVALUE DUP1 ISZERO PUSH2 0x3EE JUMPI PUSH0 DUP1 REVERT JUMPDEST POP PUSH2 0x3F7 PUSH2 0xB8E JUMP JUMPDEST STOP JUMPDEST CALLVALUE DUP1 ISZERO PUSH2 0x404 JUMPI PUSH0 DUP1 REVERT JUMPDEST POP PUSH2 0x3F7 PUSH2 0x413 CALLDATASIZE PUSH1 0x4 PUSH2 0x38FA JUMP JUMPDEST PUSH2 0xBD0 JUMP JUMPDEST CALLVALUE DUP1 ISZERO PUSH2 0x423 JUMPI PUSH0 DUP1 REVERT JUMPDEST POP PUSH1 0x40 DUP1 MLOAD DUP1 DUP3 ADD SWAP1 SWAP2 MSTORE PUSH1 0xB DUP2 MSTORE PUSH11 0x48756E67657247616D6573 PUSH1 0xA8 SHL PUSH1 0x20 DUP3 ADD MSTORE JUMPDEST PUSH1 0x40 MLOAD PUSH2 0x3DA SWAP2 SWAP1 PUSH2 0x3971 JUMP JUMPDEST CALLVALUE DUP1 ISZERO PUSH2 0x45F JUMPI PUSH0 DUP1 REVERT JUMPDEST POP PUSH2 0x3CE PUSH2 0x46E CALLDATASIZE PUSH1 0x4 PUSH2 0x38FA JUMP JUMPDEST PUSH2 0xC6F JUMP JUMPDEST CALLVALUE DUP1 ISZERO PUSH2 0x47E JUMPI PUSH0 DUP1 REVERT JUMPDEST POP PUSH2 0x3F7 PUSH2 0x48D CALLDATASIZE PUSH1 0x4 PUSH2 0x3983 JUMP JUMPDEST PUSH2 0xC85 JUMP JUMPDEST CALLVALUE DUP1 ISZERO PUSH2 0x49D JUMPI PUSH0 DUP1 REVERT JUMPDEST POP PUSH2 0x3F7 PUSH2 0x4AC CALLDATASIZE PUSH1 0x4 PUSH2 0x3983 JUMP JUMPDEST PUSH2 0xDA8 JUMP JUMPDEST CALLVALUE DUP1 ISZERO PUSH2 0x4BC JUMPI PUSH0 DUP1 REVERT JUMPDEST POP PUSH2 0x4DC PUSH2 0x4CB CALLDATASIZE PUSH1 0x4 PUSH2 0x39A3 JUMP JUMPDEST PUSH1 0x9 PUSH1 0x20 MSTORE PUSH0 SWAP1 DUP2 MSTORE PUSH1 0x40 SWAP1 KECCAK256 SLOAD DUP2 JUMP JUMPDEST PUSH1 0x40 MLOAD SWAP1 DUP2 MSTORE PUSH1 0x20 ADD PUSH2 0x3DA JUMP JUMPDEST CALLVALUE DUP1 ISZERO PUSH2 0x4F5 JUMPI PUSH0 DUP1 REVERT JUMPDEST POP PUSH2 0x3F7 PUSH2 0x504 CALLDATASIZE PUSH1 0x4 PUSH2 0x39A3 JUMP JUMPDEST PUSH2 0xDEB JUMP JUMPDEST CALLVALUE DUP1 ISZERO PUSH2 0x514 JUMPI PUSH0 DUP1 REVERT JUMPDEST POP PUSH2 0x4DC PUSH1 0x21 SLOAD DUP2 JUMP JUMPDEST CALLVALUE DUP1 ISZERO PUSH2 0x529 JUMPI PUSH0 DUP1 REVERT JUMPDEST POP PUSH1 0x12 SLOAD PUSH2 0x53D SWAP1 PUSH1 0x1 PUSH1 0x1 PUSH1 0xA0 SHL SUB AND DUP2 JUMP JUMPDEST PUSH1 0x40 MLOAD PUSH1 0x1 PUSH1 0x1 PUSH1 0xA0 SHL SUB SWAP1 SWAP2 AND DUP2 MSTORE PUSH1 0x20 ADD PUSH2 0x3DA JUMP JUMPDEST CALLVALUE DUP1 ISZERO PUSH2 0x560 JUMPI PUSH0 DUP1 REVERT JUMPDEST POP PUSH1 0x1D SLOAD PUSH2 0x4DC JUMP JUMPDEST CALLVALUE DUP1 ISZERO PUSH2 0x574 JUMPI PUSH0 DUP1 REVERT JUMPDEST POP PUSH2 0x4DC PUSH1 0x22 SLOAD DUP2 JUMP JUMPDEST CALLVALUE DUP1 ISZERO PUSH2 0x589 JUMPI PUSH0 DUP1 REVERT JUMPDEST POP PUSH2 0x4DC PUSH1 0x29 SLOAD DUP2 JUMP JUMPDEST CALLVALUE DUP1 ISZERO PUSH2 0x59E JUMPI PUSH0 DUP1 REVERT JUMPDEST POP PUSH2 0x3CE PUSH2 0x5AD CALLDATASIZE PUSH1 0x4 PUSH2 0x39BE JUMP JUMPDEST PUSH2 0xE36 JUMP JUMPDEST CALLVALUE DUP1 ISZERO PUSH2 0x5BD JUMPI PUSH0 DUP1 REVERT JUMPDEST POP PUSH2 0x4DC PUSH1 0x26 SLOAD DUP2 JUMP JUMPDEST CALLVALUE DUP1 ISZERO PUSH2 0x5D2 JUMPI PUSH0 DUP1 REVERT JUMPDEST POP PUSH2 0x4DC PUSH1 0x28 SLOAD DUP2 JUMP JUMPDEST CALLVALUE DUP1 ISZERO PUSH2 0x5E7 JUMPI PUSH0 DUP1 REVERT JUMPDEST POP PUSH2 0x3CE PUSH2 0x5F6 CALLDATASIZE PUSH1 0x4 PUSH2 0x38BF JUMP JUMPDEST PUSH0 SWAP1 DUP2 MSTORE PUSH1 0x4 PUSH1 0x20 MSTORE PUSH1 0x40 SWAP1 KECCAK256 SLOAD PUSH1 0xFF AND SWAP1 JUMP JUMPDEST PUSH2 0x3F7 PUSH2 0x618 CALLDATASIZE PUSH1 0x4 PUSH2 0x3983 JUMP JUMPDEST PUSH2 0xE9D JUMP JUMPDEST CALLVALUE DUP1 ISZERO PUSH2 0x628 JUMPI PUSH0 DUP1 REVERT JUMPDEST POP PUSH1 0x40 MLOAD PUSH1 0x9 DUP2 MSTORE PUSH1 0x20 ADD PUSH2 0x3DA JUMP JUMPDEST CALLVALUE DUP1 ISZERO PUSH2 0x643 JUMPI PUSH0 DUP1 REVERT JUMPDEST POP PUSH1 0x11 SLOAD PUSH2 0x53D SWAP1 PUSH1 0x1 PUSH1 0x1 PUSH1 0xA0 SHL SUB AND DUP2 JUMP JUMPDEST CALLVALUE DUP1 ISZERO PUSH2 0x662 JUMPI PUSH0 DUP1 REVERT JUMPDEST POP PUSH2 0x3CE PUSH2 0x671 CALLDATASIZE PUSH1 0x4 PUSH2 0x38BF JUMP JUMPDEST PUSH0 SWAP1 DUP2 MSTORE PUSH1 0x6 PUSH1 0x20 MSTORE PUSH1 0x40 SWAP1 KECCAK256 SLOAD PUSH1 0xFF AND SWAP1 JUMP JUMPDEST CALLVALUE DUP1 ISZERO PUSH2 0x690 JUMPI PUSH0 DUP1 REVERT JUMPDEST POP PUSH1 0x10 SLOAD PUSH2 0x53D SWAP1 PUSH1 0x1 PUSH1 0x1 PUSH1 0xA0 SHL SUB AND DUP2 JUMP JUMPDEST CALLVALUE DUP1 ISZERO PUSH2 0x6AF JUMPI PUSH0 DUP1 REVERT JUMPDEST POP PUSH2 0x4DC PUSH2 0x6BE CALLDATASIZE PUSH1 0x4 PUSH2 0x39A3 JUMP JUMPDEST PUSH1 0xB PUSH1 0x20 MSTORE PUSH0 SWAP1 DUP2 MSTORE PUSH1 0x40 SWAP1 KECCAK256 SLOAD DUP2 JUMP JUMPDEST CALLVALUE DUP1 ISZERO PUSH2 0x6DA JUMPI PUSH0 DUP1 REVERT JUMPDEST POP PUSH2 0x3CE PUSH2 0x6E9 CALLDATASIZE PUSH1 0x4 PUSH2 0x38BF JUMP JUMPDEST PUSH1 0x7 PUSH1 0x20 MSTORE PUSH0 SWAP1 DUP2 MSTORE PUSH1 0x40 SWAP1 KECCAK256 SLOAD PUSH1 0xFF AND DUP2 JUMP JUMPDEST CALLVALUE DUP1 ISZERO PUSH2 0x708 JUMPI PUSH0 DUP1 REVERT JUMPDEST POP PUSH2 0x3CE PUSH2 0x717 CALLDATASIZE PUSH1 0x4 PUSH2 0x38BF JUMP JUMPDEST PUSH1 0x5 PUSH1 0x20 MSTORE PUSH0 SWAP1 DUP2 MSTORE PUSH1 0x40 SWAP1 KECCAK256 SLOAD PUSH1 0xFF AND DUP2 JUMP JUMPDEST CALLVALUE DUP1 ISZERO PUSH2 0x736 JUMPI PUSH0 DUP1 REVERT JUMPDEST POP PUSH2 0x4DC PUSH1 0x25 SLOAD DUP2 JUMP JUMPDEST CALLVALUE DUP1 ISZERO PUSH2 0x74B JUMPI PUSH0 DUP1 REVERT JUMPDEST POP PUSH2 0x3F7 PUSH2 0x75A CALLDATASIZE PUSH1 0x4 PUSH2 0x3983 JUMP JUMPDEST PUSH2 0x1045 JUMP JUMPDEST CALLVALUE DUP1 ISZERO PUSH2 0x76A JUMPI PUSH0 DUP1 REVERT JUMPDEST POP PUSH2 0x3CE PUSH2 0x779 CALLDATASIZE PUSH1 0x4 PUSH2 0x38BF JUMP JUMPDEST PUSH0 SWAP1 DUP2 MSTORE PUSH1 0x7 PUSH1 0x20 MSTORE PUSH1 0x40 SWAP1 KECCAK256 SLOAD PUSH1 0xFF AND SWAP1 JUMP JUMPDEST CALLVALUE DUP1 ISZERO PUSH2 0x798 JUMPI PUSH0 DUP1 REVERT JUMPDEST POP PUSH2 0x4DC PUSH2 0x7A7 CALLDATASIZE PUSH1 0x4 PUSH2 0x39A3 JUMP JUMPDEST PUSH1 0x1 PUSH1 0x1 PUSH1 0xA0 SHL SUB AND PUSH0 SWAP1 DUP2 MSTORE PUSH1 0x1 PUSH1 0x20 MSTORE PUSH1 0x40 SWAP1 KECCAK256 SLOAD SWAP1 JUMP JUMPDEST CALLVALUE DUP1 ISZERO PUSH2 0x7CC JUMPI PUSH0 DUP1 REVERT JUMPDEST POP PUSH2 0x3F7 PUSH2 0x1088 JUMP JUMPDEST CALLVALUE DUP1 ISZERO PUSH2 0x7E0 JUMPI PUSH0 DUP1 REVERT JUMPDEST POP PUSH2 0x3F7 PUSH2 0x10F9 JUMP JUMPDEST CALLVALUE DUP1 ISZERO PUSH2 0x7F4 JUMPI PUSH0 DUP1 REVERT JUMPDEST POP PUSH2 0x4DC PUSH1 0x1E SLOAD DUP2 JUMP JUMPDEST CALLVALUE DUP1 ISZERO PUSH2 0x809 JUMPI PUSH0 DUP1 REVERT JUMPDEST POP PUSH2 0x3F7 PUSH2 0x818 CALLDATASIZE PUSH1 0x4 PUSH2 0x3B38 JUMP JUMPDEST PUSH2 0x112C JUMP JUMPDEST CALLVALUE DUP1 ISZERO PUSH2 0x828 JUMPI PUSH0 DUP1 REVERT JUMPDEST POP PUSH0 SLOAD PUSH1 0x1 PUSH1 0x1 PUSH1 0xA0 SHL SUB AND PUSH2 0x53D JUMP JUMPDEST CALLVALUE DUP1 ISZERO PUSH2 0x844 JUMPI PUSH0 DUP1 REVERT JUMPDEST POP PUSH2 0x4DC PUSH1 0x1F SLOAD DUP2 JUMP JUMPDEST CALLVALUE DUP1 ISZERO PUSH2 0x859 JUMPI PUSH0 DUP1 REVERT JUMPDEST POP PUSH2 0x3F7 PUSH2 0x868 CALLDATASIZE PUSH1 0x4 PUSH2 0x3983 JUMP JUMPDEST PUSH2 0x18F1 JUMP JUMPDEST CALLVALUE DUP1 ISZERO PUSH2 0x878 JUMPI PUSH0 DUP1 REVERT JUMPDEST POP PUSH1 0x40 DUP1 MLOAD DUP1 DUP3 ADD SWAP1 SWAP2 MSTORE PUSH1 0x4 DUP2 MSTORE PUSH4 0x48474D53 PUSH1 0xE0 SHL PUSH1 0x20 DUP3 ADD MSTORE PUSH2 0x447 JUMP JUMPDEST CALLVALUE DUP1 ISZERO PUSH2 0x8A4 JUMPI PUSH0 DUP1 REVERT JUMPDEST POP PUSH2 0x3F7 PUSH2 0x1934 JUMP JUMPDEST CALLVALUE DUP1 ISZERO PUSH2 0x8B8 JUMPI PUSH0 DUP1 REVERT JUMPDEST POP PUSH2 0x3CE PUSH2 0x8C7 CALLDATASIZE PUSH1 0x4 PUSH2 0x38FA JUMP JUMPDEST PUSH2 0x1981 JUMP JUMPDEST CALLVALUE DUP1 ISZERO PUSH2 0x8D7 JUMPI PUSH0 DUP1 REVERT JUMPDEST POP PUSH2 0x3F7 PUSH2 0x8E6 CALLDATASIZE PUSH1 0x4 PUSH2 0x3983 JUMP JUMPDEST PUSH2 0x198D JUMP JUMPDEST CALLVALUE DUP1 ISZERO PUSH2 0x8F6 JUMPI PUSH0 DUP1 REVERT JUMPDEST POP PUSH2 0x3F7 PUSH2 0x905 CALLDATASIZE PUSH1 0x4 PUSH2 0x38FA JUMP JUMPDEST PUSH2 0x19D0 JUMP JUMPDEST CALLVALUE DUP1 ISZERO PUSH2 0x915 JUMPI PUSH0 DUP1 REVERT JUMPDEST POP PUSH1 0x13 SLOAD PUSH2 0x53D SWAP1 PUSH1 0x1 PUSH1 0x1 PUSH1 0xA0 SHL SUB AND DUP2 JUMP JUMPDEST CALLVALUE DUP1 ISZERO PUSH2 0x934 JUMPI PUSH0 DUP1 REVERT JUMPDEST POP PUSH2 0x4DC PUSH2 0x943 CALLDATASIZE PUSH1 0x4 PUSH2 0x39A3 JUMP JUMPDEST PUSH1 0xA PUSH1 0x20 MSTORE PUSH0 SWAP1 DUP2 MSTORE PUSH1 0x40 SWAP1 KECCAK256 SLOAD DUP2 JUMP JUMPDEST CALLVALUE DUP1 ISZERO PUSH2 0x95F JUMPI PUSH0 DUP1 REVERT JUMPDEST POP PUSH2 0x4DC PUSH1 0x20 SLOAD DUP2 JUMP JUMPDEST CALLVALUE DUP1 ISZERO PUSH2 0x974 JUMPI PUSH0 DUP1 REVERT JUMPDEST POP PUSH2 0x3CE PUSH2 0x983 CALLDATASIZE PUSH1 0x4 PUSH2 0x38BF JUMP JUMPDEST PUSH0 SWAP1 DUP2 MSTORE PUSH1 0x5 PUSH1 0x20 MSTORE PUSH1 0x40 SWAP1 KECCAK256 SLOAD PUSH1 0xFF AND SWAP1 JUMP JUMPDEST CALLVALUE DUP1 ISZERO PUSH2 0x9A2 JUMPI PUSH0 DUP1 REVERT JUMPDEST POP PUSH2 0x4DC PUSH2 0x9B1 CALLDATASIZE PUSH1 0x4 PUSH2 0x39A3 JUMP JUMPDEST PUSH1 0xD PUSH1 0x20 MSTORE PUSH0 SWAP1 DUP2 MSTORE PUSH1 0x40 SWAP1 KECCAK256 SLOAD DUP2 JUMP JUMPDEST CALLVALUE DUP1 ISZERO PUSH2 0x9CD JUMPI PUSH0 DUP1 REVERT JUMPDEST POP PUSH1 0x2B SLOAD PUSH2 0x3CE SWAP1 PUSH1 0x1 PUSH1 0xB8 SHL SWAP1 DIV PUSH1 0xFF AND DUP2 JUMP JUMPDEST CALLVALUE DUP1 ISZERO PUSH2 0x9ED JUMPI PUSH0 DUP1 REVERT JUMPDEST POP PUSH2 0x3F7 PUSH2 0x1A63 JUMP JUMPDEST CALLVALUE DUP1 ISZERO PUSH2 0xA01 JUMPI PUSH0 DUP1 REVERT JUMPDEST POP PUSH1 0x14 SLOAD PUSH2 0x53D SWAP1 PUSH1 0x1 PUSH1 0x1 PUSH1 0xA0 SHL SUB AND DUP2 JUMP JUMPDEST CALLVALUE DUP1 ISZERO PUSH2 0xA20 JUMPI PUSH0 DUP1 REVERT JUMPDEST POP PUSH2 0x4DC PUSH2 0xA2F CALLDATASIZE PUSH1 0x4 PUSH2 0x39A3 JUMP JUMPDEST PUSH1 0xC PUSH1 0x20 MSTORE PUSH0 SWAP1 DUP2 MSTORE PUSH1 0x40 SWAP1 KECCAK256 SLOAD DUP2 JUMP JUMPDEST CALLVALUE DUP1 ISZERO PUSH2 0xA4B JUMPI PUSH0 DUP1 REVERT JUMPDEST POP PUSH2 0x4DC PUSH2 0xA5A CALLDATASIZE PUSH1 0x4 PUSH2 0x3BA9 JUMP JUMPDEST PUSH1 0x1 PUSH1 0x1 PUSH1 0xA0 SHL SUB SWAP2 DUP3 AND PUSH0 SWAP1 DUP2 MSTORE PUSH1 0x2 PUSH1 0x20 SWAP1 DUP2 MSTORE PUSH1 0x40 DUP1 DUP4 KECCAK256 SWAP4 SWAP1 SWAP5 AND DUP3 MSTORE SWAP2 SWAP1 SWAP2 MSTORE KECCAK256 SLOAD SWAP1 JUMP JUMPDEST CALLVALUE DUP1 ISZERO PUSH2 0xA8F JUMPI PUSH0 DUP1 REVERT JUMPDEST POP PUSH2 0x3F7 PUSH2 0xA9E CALLDATASIZE PUSH1 0x4 PUSH2 0x3BF8 JUMP JUMPDEST PUSH2 0x1E1D JUMP JUMPDEST CALLVALUE DUP1 ISZERO PUSH2 0xAAE JUMPI PUSH0 DUP1 REVERT JUMPDEST POP PUSH2 0x4DC PUSH2 0xABD CALLDATASIZE PUSH1 0x4 PUSH2 0x38BF JUMP JUMPDEST PUSH1 0xF PUSH1 0x20 MSTORE PUSH0 SWAP1 DUP2 MSTORE PUSH1 0x40 SWAP1 KECCAK256 SLOAD DUP2 JUMP JUMPDEST CALLVALUE DUP1 ISZERO PUSH2 0xAD9 JUMPI PUSH0 DUP1 REVERT JUMPDEST POP PUSH2 0x4DC PUSH1 0x24 SLOAD DUP2 JUMP JUMPDEST CALLVALUE DUP1 ISZERO PUSH2 0xAEE JUMPI PUSH0 DUP1 REVERT JUMPDEST POP PUSH2 0x4DC PUSH2 0xAFD CALLDATASIZE PUSH1 0x4 PUSH2 0x39A3 JUMP JUMPDEST PUSH1 0xE PUSH1 0x20 MSTORE PUSH0 SWAP1 DUP2 MSTORE PUSH1 0x40 SWAP1 KECCAK256 SLOAD DUP2 JUMP JUMPDEST CALLVALUE DUP1 ISZERO PUSH2 0xB19 JUMPI PUSH0 DUP1 REVERT JUMPDEST POP PUSH2 0x4DC PUSH1 0x27 SLOAD DUP2 JUMP JUMPDEST CALLVALUE DUP1 ISZERO PUSH2 0xB2E JUMPI PUSH0 DUP1 REVERT JUMPDEST POP PUSH2 0x3CE PUSH2 0xB3D CALLDATASIZE PUSH1 0x4 PUSH2 0x38BF JUMP JUMPDEST PUSH1 0x4 PUSH1 0x20 MSTORE PUSH0 SWAP1 DUP2 MSTORE PUSH1 0x40 SWAP1 KECCAK256 SLOAD PUSH1 0xFF AND DUP2 JUMP JUMPDEST CALLVALUE DUP1 ISZERO PUSH2 0xB5C JUMPI PUSH0 DUP1 REVERT JUMPDEST POP PUSH2 0x3F7 PUSH2 0x2090 JUMP JUMPDEST CALLVALUE DUP1 ISZERO PUSH2 0xB70 JUMPI PUSH0 DUP1 REVERT JUMPDEST POP PUSH2 0x3F7 PUSH2 0x20CC JUMP JUMPDEST CALLVALUE DUP1 ISZERO PUSH2 0xB84 JUMPI PUSH0 DUP1 REVERT JUMPDEST POP PUSH2 0x4DC PUSH1 0x23 SLOAD DUP2 JUMP JUMPDEST PUSH1 0x10 SLOAD PUSH1 0x1 PUSH1 0x1 PUSH1 0xA0 SHL SUB AND CALLER EQ PUSH2 0xBA4 JUMPI PUSH0 DUP1 REVERT JUMPDEST PUSH1 0x19 DUP1 SLOAD SWAP1 PUSH0 PUSH2 0xBB4 DUP4 DUP1 PUSH2 0x3CF9 JUMP JUMPDEST SWAP1 SWAP2 SSTORE POP POP PUSH1 0x1A DUP1 SLOAD SWAP1 PUSH0 PUSH2 0xBC9 DUP4 DUP1 PUSH2 0x3CF9 JUMP JUMPDEST SWAP1 SWAP2 SSTORE POP POP JUMP JUMPDEST PUSH0 SLOAD PUSH1 0x1 PUSH1 0x1 PUSH1 0xA0 SHL SUB AND CALLER EQ PUSH2 0xC02 JUMPI PUSH1 0x40 MLOAD PUSH3 0x461BCD PUSH1 0xE5 SHL DUP2 MSTORE PUSH1 0x4 ADD PUSH2 0xBF9 SWAP1 PUSH2 0x3D0C JUMP JUMPDEST PUSH1 0x40 MLOAD DUP1 SWAP2 SUB SWAP1 REVERT JUMPDEST ADDRESS PUSH0 SWAP1 DUP2 MSTORE PUSH1 0x1 PUSH1 0x20 MSTORE PUSH1 0x40 SWAP1 KECCAK256 SLOAD DUP2 GT ISZERO PUSH2 0xC60 JUMPI PUSH1 0x40 MLOAD PUSH3 0x461BCD PUSH1 0xE5 SHL DUP2 MSTORE PUSH1 0x20 PUSH1 0x4 DUP3 ADD MSTORE PUSH1 0x1D PUSH1 0x24 DUP3 ADD MSTORE PUSH32 0x4E6F7420656E6F75676820746F6B656E7320696E20636F6E7472616374000000 PUSH1 0x44 DUP3 ADD MSTORE PUSH1 0x64 ADD PUSH2 0xBF9 JUMP JUMPDEST PUSH2 0xC6B ADDRESS DUP4 DUP4 PUSH2 0x2118 JUMP JUMPDEST POP POP JUMP JUMPDEST PUSH0 PUSH2 0xC7B CALLER DUP5 DUP5 PUSH2 0x26FB JUMP JUMPDEST POP PUSH1 0x1 JUMPDEST SWAP3 SWAP2 POP POP JUMP JUMPDEST PUSH1 0x14 SLOAD PUSH1 0x1 PUSH1 0x1 PUSH1 0xA0 SHL SUB AND CALLER EQ PUSH2 0xCF3 JUMPI PUSH1 0x40 MLOAD PUSH3 0x461BCD PUSH1 0xE5 SHL DUP2 MSTORE PUSH1 0x20 PUSH1 0x4 DUP3 ADD MSTORE PUSH1 0x2B PUSH1 0x24 DUP3 ADD MSTORE PUSH32 0x4F6E6C792074686520626174746C6520636F6E74726163742063616E2072656D PUSH1 0x44 DUP3 ADD MSTORE PUSH11 0x6F766520706F74696F6E73 PUSH1 0xA8 SHL PUSH1 0x64 DUP3 ADD MSTORE PUSH1 0x84 ADD PUSH2 0xBF9 JUMP JUMPDEST PUSH0 DUP3 DUP2 MSTORE PUSH1 0x4 PUSH1 0x20 DUP2 DUP2 MSTORE PUSH1 0x40 DUP1 DUP5 KECCAK256 DUP1 SLOAD PUSH1 0xFF NOT SWAP1 DUP2 AND SWAP1 SWAP2 SSTORE PUSH1 0x5 DUP1 DUP5 MSTORE DUP3 DUP7 KECCAK256 DUP1 SLOAD DUP4 AND SWAP1 SSTORE PUSH1 0x6 DUP1 DUP6 MSTORE DUP4 DUP8 KECCAK256 DUP1 SLOAD DUP5 AND SWAP1 SSTORE PUSH1 0x7 DUP1 DUP7 MSTORE DUP5 DUP9 KECCAK256 DUP1 SLOAD DUP6 AND SWAP1 SSTORE DUP9 DUP9 MSTORE SWAP6 DUP6 MSTORE DUP4 DUP8 KECCAK256 DUP1 SLOAD DUP5 AND SWAP1 SSTORE SWAP1 DUP5 MSTORE DUP3 DUP7 KECCAK256 DUP1 SLOAD DUP4 AND SWAP1 SSTORE DUP4 MSTORE DUP2 DUP6 KECCAK256 DUP1 SLOAD DUP3 AND SWAP1 SSTORE SWAP3 DUP3 MSTORE SWAP3 DUP4 SWAP1 KECCAK256 DUP1 SLOAD SWAP1 SWAP3 AND SWAP1 SWAP2 SSTORE DUP2 MLOAD DUP5 DUP2 MSTORE SWAP1 DUP2 ADD DUP4 SWAP1 MSTORE PUSH32 0x16552DC0EEAA5453189CA1B57F62BF76590B234053B60BD7120B6A49977D637F SWAP2 ADD JUMPDEST PUSH1 0x40 MLOAD DUP1 SWAP2 SUB SWAP1 LOG1 POP POP JUMP JUMPDEST PUSH1 0x10 SLOAD PUSH1 0x1 PUSH1 0x1 PUSH1 0xA0 SHL SUB AND CALLER EQ PUSH2 0xDBE JUMPI PUSH0 DUP1 REVERT JUMPDEST PUSH1 0x25 DUP3 SWAP1 SSTORE PUSH2 0xDCF PUSH1 0x3 PUSH1 0x9 PUSH2 0x3D41 JUMP JUMPDEST PUSH2 0xDDA SWAP1 PUSH1 0xA PUSH2 0x3E3A JUMP JUMPDEST PUSH2 0xDE4 SWAP1 DUP3 PUSH2 0x3E48 JUMP JUMPDEST PUSH1 0x29 SSTORE POP POP JUMP JUMPDEST PUSH0 SLOAD PUSH1 0x1 PUSH1 0x1 PUSH1 0xA0 SHL SUB AND CALLER EQ PUSH2 0xE14 JUMPI PUSH1 0x40 MLOAD PUSH3 0x461BCD PUSH1 0xE5 SHL DUP2 MSTORE PUSH1 0x4 ADD PUSH2 0xBF9 SWAP1 PUSH2 0x3D0C JUMP JUMPDEST PUSH1 0x14 DUP1 SLOAD PUSH1 0x1 PUSH1 0x1 PUSH1 0xA0 SHL SUB NOT AND PUSH1 0x1 PUSH1 0x1 PUSH1 0xA0 SHL SUB SWAP3 SWAP1 SWAP3 AND SWAP2 SWAP1 SWAP2 OR SWAP1 SSTORE JUMP JUMPDEST PUSH0 PUSH2 0xE42 DUP5 DUP5 DUP5 PUSH2 0x2118 JUMP JUMPDEST PUSH2 0xE93 DUP5 CALLER PUSH2 0xE8E DUP6 PUSH1 0x40 MLOAD DUP1 PUSH1 0x60 ADD PUSH1 0x40 MSTORE DUP1 PUSH1 0x28 DUP2 MSTORE PUSH1 0x20 ADD PUSH2 0x4087 PUSH1 0x28 SWAP2 CODECOPY PUSH1 0x1 PUSH1 0x1 PUSH1 0xA0 SHL SUB DUP11 AND PUSH0 SWAP1 DUP2 MSTORE PUSH1 0x2 PUSH1 0x20 SWAP1 DUP2 MSTORE PUSH1 0x40 DUP1 DUP4 KECCAK256 CALLER DUP5 MSTORE SWAP1 SWAP2 MSTORE SWAP1 KECCAK256 SLOAD SWAP2 SWAP1 PUSH2 0x281F JUMP JUMPDEST PUSH2 0x26FB JUMP JUMPDEST POP PUSH1 0x1 SWAP4 SWAP3 POP POP POP JUMP JUMPDEST PUSH0 DUP3 GT DUP1 PUSH2 0xEAA JUMPI POP PUSH0 DUP2 GT JUMPDEST PUSH2 0xEF6 JUMPI PUSH1 0x40 MLOAD PUSH3 0x461BCD PUSH1 0xE5 SHL DUP2 MSTORE PUSH1 0x20 PUSH1 0x4 DUP3 ADD MSTORE PUSH1 0x1F PUSH1 0x24 DUP3 ADD MSTORE PUSH32 0x416D6F756E742073686F756C642062652067726561746572207468616E203000 PUSH1 0x44 DUP3 ADD MSTORE PUSH1 0x64 ADD PUSH2 0xBF9 JUMP JUMPDEST PUSH2 0xF02 PUSH1 0x9 PUSH1 0xA PUSH2 0x3E3A JUMP JUMPDEST PUSH2 0xF0C SWAP1 DUP3 PUSH2 0x3E48 JUMP JUMPDEST CALLVALUE LT ISZERO PUSH2 0xF5B JUMPI PUSH1 0x40 MLOAD PUSH3 0x461BCD PUSH1 0xE5 SHL DUP2 MSTORE PUSH1 0x20 PUSH1 0x4 DUP3 ADD MSTORE PUSH1 0x19 PUSH1 0x24 DUP3 ADD MSTORE PUSH32 0x496E636F72726563742045544820616D6F756E742073656E7400000000000000 PUSH1 0x44 DUP3 ADD MSTORE PUSH1 0x64 ADD PUSH2 0xBF9 JUMP JUMPDEST DUP2 ISZERO PUSH2 0xFE6 JUMPI CALLER PUSH0 SWAP1 DUP2 MSTORE PUSH1 0x1 PUSH1 0x20 MSTORE PUSH1 0x40 SWAP1 KECCAK256 SLOAD DUP3 GT ISZERO PUSH2 0xFB8 JUMPI PUSH1 0x40 MLOAD PUSH3 0x461BCD PUSH1 0xE5 SHL DUP2 MSTORE PUSH1 0x20 PUSH1 0x4 DUP3 ADD MSTORE PUSH1 0x16 PUSH1 0x24 DUP3 ADD MSTORE PUSH22 0x4E6F7420656E6F7567682048474D5320746F6B656E73 PUSH1 0x50 SHL PUSH1 0x44 DUP3 ADD MSTORE PUSH1 0x64 ADD PUSH2 0xBF9 JUMP JUMPDEST PUSH2 0xFC2 CALLER DUP4 PUSH2 0x2857 JUMP JUMPDEST CALLER PUSH0 SWAP1 DUP2 MSTORE PUSH1 0x9 PUSH1 0x20 MSTORE PUSH1 0x40 DUP2 KECCAK256 DUP1 SLOAD DUP5 SWAP3 SWAP1 PUSH2 0xFE0 SWAP1 DUP5 SWAP1 PUSH2 0x3E5F JUMP JUMPDEST SWAP1 SWAP2 SSTORE POP POP JUMPDEST DUP1 ISZERO PUSH2 0x1019 JUMPI CALLER PUSH0 SWAP1 DUP2 MSTORE PUSH1 0xA PUSH1 0x20 MSTORE PUSH1 0x40 DUP2 KECCAK256 DUP1 SLOAD DUP4 SWAP3 SWAP1 PUSH2 0x100A SWAP1 DUP5 SWAP1 PUSH2 0x3E5F JUMP JUMPDEST SWAP1 SWAP2 SSTORE POP PUSH2 0x1019 SWAP1 POP CALLVALUE PUSH2 0x29D2 JUMP JUMPDEST PUSH1 0x40 MLOAD PUSH32 0xED21248CB703B524CC0029BB8669DF941BACA560163A3BC6AD184E7E9C268070 SWAP1 PUSH0 SWAP1 LOG1 POP POP JUMP JUMPDEST PUSH1 0x10 SLOAD PUSH1 0x1 PUSH1 0x1 PUSH1 0xA0 SHL SUB AND CALLER EQ PUSH2 0x105B JUMPI PUSH0 DUP1 REVERT JUMPDEST PUSH1 0x23 DUP3 SWAP1 SSTORE PUSH2 0x106C PUSH1 0x3 PUSH1 0x9 PUSH2 0x3D41 JUMP JUMPDEST PUSH2 0x1077 SWAP1 PUSH1 0xA PUSH2 0x3E3A JUMP JUMPDEST PUSH2 0x1081 SWAP1 DUP3 PUSH2 0x3E48 JUMP JUMPDEST PUSH1 0x27 SSTORE POP POP JUMP JUMPDEST PUSH0 SLOAD PUSH1 0x1 PUSH1 0x1 PUSH1 0xA0 SHL SUB AND CALLER EQ PUSH2 0x10B1 JUMPI PUSH1 0x40 MLOAD PUSH3 0x461BCD PUSH1 0xE5 SHL DUP2 MSTORE PUSH1 0x4 ADD PUSH2 0xBF9 SWAP1 PUSH2 0x3D0C JUMP JUMPDEST PUSH0 DUP1 SLOAD PUSH1 0x40 MLOAD PUSH1 0x1 PUSH1 0x1 PUSH1 0xA0 SHL SUB SWAP1 SWAP2 AND SWAP1 PUSH32 0x8BE0079C531659141344CD1FD0A4F28419497F9722A3DAAFE3B4186F6B6457E0 SWAP1 DUP4 SWAP1 LOG3 PUSH0 DUP1 SLOAD PUSH1 0x1 PUSH1 0x1 PUSH1 0xA0 SHL SUB NOT AND SWAP1 SSTORE JUMP JUMPDEST PUSH0 SLOAD PUSH1 0x1 PUSH1 0x1 PUSH1 0xA0 SHL SUB AND CALLER EQ PUSH2 0x1122 JUMPI PUSH1 0x40 MLOAD PUSH3 0x461BCD PUSH1 0xE5 SHL DUP2 MSTORE PUSH1 0x4 ADD PUSH2 0xBF9 SWAP1 PUSH2 0x3D0C JUMP JUMPDEST PUSH2 0x112A PUSH2 0x2B25 JUMP JUMPDEST JUMP JUMPDEST PUSH1 0x10 SLOAD PUSH1 0x1 PUSH1 0x1 PUSH1 0xA0 SHL SUB AND CALLER EQ PUSH2 0x1142 JUMPI PUSH0 DUP1 REVERT JUMPDEST PUSH1 0x40 MLOAD PUSH4 0x58545241 PUSH1 0xE0 SHL PUSH1 0x20 DUP3 ADD MSTORE PUSH1 0x24 ADD PUSH1 0x40 MLOAD PUSH1 0x20 DUP2 DUP4 SUB SUB DUP2 MSTORE SWAP1 PUSH1 0x40 MSTORE DUP1 MLOAD SWAP1 PUSH1 0x20 ADD KECCAK256 DUP2 PUSH1 0x40 MLOAD PUSH1 0x20 ADD PUSH2 0x117C SWAP2 SWAP1 PUSH2 0x3E72 JUMP JUMPDEST PUSH1 0x40 MLOAD PUSH1 0x20 DUP2 DUP4 SUB SUB DUP2 MSTORE SWAP1 PUSH1 0x40 MSTORE DUP1 MLOAD SWAP1 PUSH1 0x20 ADD KECCAK256 SUB PUSH2 0x1323 JUMPI DUP2 MLOAD PUSH1 0x1 PUSH1 0x1 PUSH1 0xA0 SHL SUB DUP5 AND PUSH0 SWAP1 DUP2 MSTORE PUSH1 0xB PUSH1 0x20 MSTORE PUSH1 0x40 SWAP1 KECCAK256 SLOAD LT ISZERO PUSH2 0x11CF JUMPI PUSH1 0x40 MLOAD PUSH3 0x461BCD PUSH1 0xE5 SHL DUP2 MSTORE PUSH1 0x4 ADD PUSH2 0xBF9 SWAP1 PUSH2 0x3E8D JUMP JUMPDEST PUSH0 JUMPDEST DUP3 MLOAD DUP2 LT ISZERO PUSH2 0x131D JUMPI PUSH1 0x4 PUSH0 DUP5 DUP4 DUP2 MLOAD DUP2 LT PUSH2 0x11EF JUMPI PUSH2 0x11EF PUSH2 0x3ED1 JUMP JUMPDEST PUSH1 0x20 SWAP1 DUP2 MUL SWAP2 SWAP1 SWAP2 ADD DUP2 ADD MLOAD DUP3 MSTORE DUP2 ADD SWAP2 SWAP1 SWAP2 MSTORE PUSH1 0x40 ADD PUSH0 KECCAK256 SLOAD PUSH1 0xFF AND ISZERO PUSH2 0x124F JUMPI PUSH1 0x40 MLOAD PUSH3 0x461BCD PUSH1 0xE5 SHL DUP2 MSTORE PUSH1 0x20 PUSH1 0x4 DUP3 ADD MSTORE PUSH1 0x13 PUSH1 0x24 DUP3 ADD MSTORE PUSH19 0x416C7265616479206163746976652058545241 PUSH1 0x68 SHL PUSH1 0x44 DUP3 ADD MSTORE PUSH1 0x64 ADD PUSH2 0xBF9 JUMP JUMPDEST PUSH1 0x1 PUSH1 0x4 PUSH0 DUP6 DUP5 DUP2 MLOAD DUP2 LT PUSH2 0x1266 JUMPI PUSH2 0x1266 PUSH2 0x3ED1 JUMP JUMPDEST PUSH1 0x20 MUL PUSH1 0x20 ADD ADD MLOAD DUP2 MSTORE PUSH1 0x20 ADD SWAP1 DUP2 MSTORE PUSH1 0x20 ADD PUSH0 KECCAK256 PUSH0 PUSH2 0x100 EXP DUP2 SLOAD DUP2 PUSH1 0xFF MUL NOT AND SWAP1 DUP4 ISZERO ISZERO MUL OR SWAP1 SSTORE POP PUSH1 0x1 PUSH1 0xB PUSH0 DUP7 PUSH1 0x1 PUSH1 0x1 PUSH1 0xA0 SHL SUB AND PUSH1 0x1 PUSH1 0x1 PUSH1 0xA0 SHL SUB AND DUP2 MSTORE PUSH1 0x20 ADD SWAP1 DUP2 MSTORE PUSH1 0x20 ADD PUSH0 KECCAK256 PUSH0 DUP3 DUP3 SLOAD PUSH2 0x12C4 SWAP2 SWAP1 PUSH2 0x3CF9 JUMP JUMPDEST SWAP3 POP POP DUP2 SWAP1 SSTORE POP PUSH1 0x1 PUSH1 0xF PUSH0 DUP6 DUP5 DUP2 MLOAD DUP2 LT PUSH2 0x12E2 JUMPI PUSH2 0x12E2 PUSH2 0x3ED1 JUMP JUMPDEST PUSH1 0x20 MUL PUSH1 0x20 ADD ADD MLOAD DUP2 MSTORE PUSH1 0x20 ADD SWAP1 DUP2 MSTORE PUSH1 0x20 ADD PUSH0 KECCAK256 PUSH0 DUP3 DUP3 SLOAD PUSH2 0x1305 SWAP2 SWAP1 PUSH2 0x3E5F JUMP JUMPDEST SWAP1 SWAP2 SSTORE POP DUP2 SWAP1 POP PUSH2 0x1315 DUP2 PUSH2 0x3EE5 JUMP JUMPDEST SWAP2 POP POP PUSH2 0x11D1 JUMP JUMPDEST POP POP POP POP JUMP JUMPDEST PUSH1 0x40 MLOAD PUSH5 0x1093D3D4D5 PUSH1 0xDA SHL PUSH1 0x20 DUP3 ADD MSTORE PUSH1 0x25 ADD PUSH1 0x40 MLOAD PUSH1 0x20 DUP2 DUP4 SUB SUB DUP2 MSTORE SWAP1 PUSH1 0x40 MSTORE DUP1 MLOAD SWAP1 PUSH1 0x20 ADD KECCAK256 DUP2 PUSH1 0x40 MLOAD PUSH1 0x20 ADD PUSH2 0x135E SWAP2 SWAP1 PUSH2 0x3E72 JUMP JUMPDEST PUSH1 0x40 MLOAD PUSH1 0x20 DUP2 DUP4 SUB SUB DUP2 MSTORE SWAP1 PUSH1 0x40 MSTORE DUP1 MLOAD SWAP1 PUSH1 0x20 ADD KECCAK256 SUB PUSH2 0x1500 JUMPI DUP2 MLOAD PUSH1 0x1 PUSH1 0x1 PUSH1 0xA0 SHL SUB DUP5 AND PUSH0 SWAP1 DUP2 MSTORE PUSH1 0xC PUSH1 0x20 MSTORE PUSH1 0x40 SWAP1 KECCAK256 SLOAD LT ISZERO PUSH2 0x13B1 JUMPI PUSH1 0x40 MLOAD PUSH3 0x461BCD PUSH1 0xE5 SHL DUP2 MSTORE PUSH1 0x4 ADD PUSH2 0xBF9 SWAP1 PUSH2 0x3E8D JUMP JUMPDEST PUSH0 JUMPDEST DUP3 MLOAD DUP2 LT ISZERO PUSH2 0x131D JUMPI PUSH1 0x6 PUSH0 DUP5 DUP4 DUP2 MLOAD DUP2 LT PUSH2 0x13D1 JUMPI PUSH2 0x13D1 PUSH2 0x3ED1 JUMP JUMPDEST PUSH1 0x20 SWAP1 DUP2 MUL SWAP2 SWAP1 SWAP2 ADD DUP2 ADD MLOAD DUP3 MSTORE DUP2 ADD SWAP2 SWAP1 SWAP2 MSTORE PUSH1 0x40 ADD PUSH0 KECCAK256 SLOAD PUSH1 0xFF AND ISZERO PUSH2 0x1432 JUMPI PUSH1 0x40 MLOAD PUSH3 0x461BCD PUSH1 0xE5 SHL DUP2 MSTORE PUSH1 0x20 PUSH1 0x4 DUP3 ADD MSTORE PUSH1 0x14 PUSH1 0x24 DUP3 ADD MSTORE PUSH20 0x105B1C9958591E481858DD1A5D99481093D3D4D5 PUSH1 0x62 SHL PUSH1 0x44 DUP3 ADD MSTORE PUSH1 0x64 ADD PUSH2 0xBF9 JUMP JUMPDEST PUSH1 0x1 PUSH1 0x6 PUSH0 DUP6 DUP5 DUP2 MLOAD DUP2 LT PUSH2 0x1449 JUMPI PUSH2 0x1449 PUSH2 0x3ED1 JUMP JUMPDEST PUSH1 0x20 MUL PUSH1 0x20 ADD ADD MLOAD DUP2 MSTORE PUSH1 0x20 ADD SWAP1 DUP2 MSTORE PUSH1 0x20 ADD PUSH0 KECCAK256 PUSH0 PUSH2 0x100 EXP DUP2 SLOAD DUP2 PUSH1 0xFF MUL NOT AND SWAP1 DUP4 ISZERO ISZERO MUL OR SWAP1 SSTORE POP PUSH1 0x1 PUSH1 0xC PUSH0 DUP7 PUSH1 0x1 PUSH1 0x1 PUSH1 0xA0 SHL SUB AND PUSH1 0x1 PUSH1 0x1 PUSH1 0xA0 SHL SUB AND DUP2 MSTORE PUSH1 0x20 ADD SWAP1 DUP2 MSTORE PUSH1 0x20 ADD PUSH0 KECCAK256 PUSH0 DUP3 DUP3 SLOAD PUSH2 0x14A7 SWAP2 SWAP1 PUSH2 0x3CF9 JUMP JUMPDEST SWAP3 POP POP DUP2 SWAP1 SSTORE POP PUSH1 0x1 PUSH1 0xF PUSH0 DUP6 DUP5 DUP2 MLOAD DUP2 LT PUSH2 0x14C5 JUMPI PUSH2 0x14C5 PUSH2 0x3ED1 JUMP JUMPDEST PUSH1 0x20 MUL PUSH1 0x20 ADD ADD MLOAD DUP2 MSTORE PUSH1 0x20 ADD SWAP1 DUP2 MSTORE PUSH1 0x20 ADD PUSH0 KECCAK256 PUSH0 DUP3 DUP3 SLOAD PUSH2 0x14E8 SWAP2 SWAP1 PUSH2 0x3E5F JUMP JUMPDEST SWAP1 SWAP2 SSTORE POP DUP2 SWAP1 POP PUSH2 0x14F8 DUP2 PUSH2 0x3EE5 JUMP JUMPDEST SWAP2 POP POP PUSH2 0x13B3 JUMP JUMPDEST PUSH1 0x40 MLOAD PUSH1 0x2B PUSH1 0xF9 SHL PUSH1 0x20 DUP3 ADD MSTORE PUSH1 0x21 ADD PUSH1 0x40 MLOAD PUSH1 0x20 DUP2 DUP4 SUB SUB DUP2 MSTORE SWAP1 PUSH1 0x40 MSTORE DUP1 MLOAD SWAP1 PUSH1 0x20 ADD KECCAK256 DUP2 PUSH1 0x40 MLOAD PUSH1 0x20 ADD PUSH2 0x1537 SWAP2 SWAP1 PUSH2 0x3E72 JUMP JUMPDEST PUSH1 0x40 MLOAD PUSH1 0x20 DUP2 DUP4 SUB SUB DUP2 MSTORE SWAP1 PUSH1 0x40 MSTORE DUP1 MLOAD SWAP1 PUSH1 0x20 ADD KECCAK256 SUB PUSH2 0x16D5 JUMPI DUP2 MLOAD PUSH1 0x1 PUSH1 0x1 PUSH1 0xA0 SHL SUB DUP5 AND PUSH0 SWAP1 DUP2 MSTORE PUSH1 0xD PUSH1 0x20 MSTORE PUSH1 0x40 SWAP1 KECCAK256 SLOAD LT ISZERO PUSH2 0x158A JUMPI PUSH1 0x40 MLOAD PUSH3 0x461BCD PUSH1 0xE5 SHL DUP2 MSTORE PUSH1 0x4 ADD PUSH2 0xBF9 SWAP1 PUSH2 0x3E8D JUMP JUMPDEST PUSH0 JUMPDEST DUP3 MLOAD DUP2 LT ISZERO PUSH2 0x131D JUMPI PUSH1 0x5 PUSH0 DUP5 DUP4 DUP2 MLOAD DUP2 LT PUSH2 0x15AA JUMPI PUSH2 0x15AA PUSH2 0x3ED1 JUMP JUMPDEST PUSH1 0x20 SWAP1 DUP2 MUL SWAP2 SWAP1 SWAP2 ADD DUP2 ADD MLOAD DUP3 MSTORE DUP2 ADD SWAP2 SWAP1 SWAP2 MSTORE PUSH1 0x40 ADD PUSH0 KECCAK256 SLOAD PUSH1 0xFF AND ISZERO PUSH2 0x1607 JUMPI PUSH1 0x40 MLOAD PUSH3 0x461BCD PUSH1 0xE5 SHL DUP2 MSTORE PUSH1 0x20 PUSH1 0x4 DUP3 ADD MSTORE PUSH1 0x10 PUSH1 0x24 DUP3 ADD MSTORE PUSH16 0x20B63932B0B23C9030B1BA34BB32902B PUSH1 0x81 SHL PUSH1 0x44 DUP3 ADD MSTORE PUSH1 0x64 ADD PUSH2 0xBF9 JUMP JUMPDEST PUSH1 0x1 PUSH1 0x5 PUSH0 DUP6 DUP5 DUP2 MLOAD DUP2 LT PUSH2 0x161E JUMPI PUSH2 0x161E PUSH2 0x3ED1 JUMP JUMPDEST PUSH1 0x20 MUL PUSH1 0x20 ADD ADD MLOAD DUP2 MSTORE PUSH1 0x20 ADD SWAP1 DUP2 MSTORE PUSH1 0x20 ADD PUSH0 KECCAK256 PUSH0 PUSH2 0x100 EXP DUP2 SLOAD DUP2 PUSH1 0xFF MUL NOT AND SWAP1 DUP4 ISZERO ISZERO MUL OR SWAP1 SSTORE POP PUSH1 0x1 PUSH1 0xD PUSH0 DUP7 PUSH1 0x1 PUSH1 0x1 PUSH1 0xA0 SHL SUB AND PUSH1 0x1 PUSH1 0x1 PUSH1 0xA0 SHL SUB AND DUP2 MSTORE PUSH1 0x20 ADD SWAP1 DUP2 MSTORE PUSH1 0x20 ADD PUSH0 KECCAK256 PUSH0 DUP3 DUP3 SLOAD PUSH2 0x167C SWAP2 SWAP1 PUSH2 0x3CF9 JUMP JUMPDEST SWAP3 POP POP DUP2 SWAP1 SSTORE POP PUSH1 0x1 PUSH1 0xF PUSH0 DUP6 DUP5 DUP2 MLOAD DUP2 LT PUSH2 0x169A JUMPI PUSH2 0x169A PUSH2 0x3ED1 JUMP JUMPDEST PUSH1 0x20 MUL PUSH1 0x20 ADD ADD MLOAD DUP2 MSTORE PUSH1 0x20 ADD SWAP1 DUP2 MSTORE PUSH1 0x20 ADD PUSH0 KECCAK256 PUSH0 DUP3 DUP3 SLOAD PUSH2 0x16BD SWAP2 SWAP1 PUSH2 0x3E5F JUMP JUMPDEST SWAP1 SWAP2 SSTORE POP DUP2 SWAP1 POP PUSH2 0x16CD DUP2 PUSH2 0x3EE5 JUMP JUMPDEST SWAP2 POP POP PUSH2 0x158C JUMP JUMPDEST PUSH1 0x40 MLOAD PUSH4 0x534B495 PUSH1 0xE4 SHL PUSH1 0x20 DUP3 ADD MSTORE PUSH1 0x24 ADD PUSH1 0x40 MLOAD PUSH1 0x20 DUP2 DUP4 SUB SUB DUP2 MSTORE SWAP1 PUSH1 0x40 MSTORE DUP1 MLOAD SWAP1 PUSH1 0x20 ADD KECCAK256 DUP2 PUSH1 0x40 MLOAD PUSH1 0x20 ADD PUSH2 0x170F SWAP2 SWAP1 PUSH2 0x3E72 JUMP JUMPDEST PUSH1 0x40 MLOAD PUSH1 0x20 DUP2 DUP4 SUB SUB DUP2 MSTORE SWAP1 PUSH1 0x40 MSTORE DUP1 MLOAD SWAP1 PUSH1 0x20 ADD KECCAK256 SUB PUSH2 0x18B0 JUMPI DUP2 MLOAD PUSH1 0x1 PUSH1 0x1 PUSH1 0xA0 SHL SUB DUP5 AND PUSH0 SWAP1 DUP2 MSTORE PUSH1 0xE PUSH1 0x20 MSTORE PUSH1 0x40 SWAP1 KECCAK256 SLOAD LT ISZERO PUSH2 0x1762 JUMPI PUSH1 0x40 MLOAD PUSH3 0x461BCD PUSH1 0xE5 SHL DUP2 MSTORE PUSH1 0x4 ADD PUSH2 0xBF9 SWAP1 PUSH2 0x3E8D JUMP JUMPDEST PUSH0 JUMPDEST DUP3 MLOAD DUP2 LT ISZERO PUSH2 0x131D JUMPI PUSH1 0x7 PUSH0 DUP5 DUP4 DUP2 MLOAD DUP2 LT PUSH2 0x1782 JUMPI PUSH2 0x1782 PUSH2 0x3ED1 JUMP JUMPDEST PUSH1 0x20 SWAP1 DUP2 MUL SWAP2 SWAP1 SWAP2 ADD DUP2 ADD MLOAD DUP3 MSTORE DUP2 ADD SWAP2 SWAP1 SWAP2 MSTORE PUSH1 0x40 ADD PUSH0 KECCAK256 SLOAD PUSH1 0xFF AND ISZERO PUSH2 0x17E2 JUMPI PUSH1 0x40 MLOAD PUSH3 0x461BCD PUSH1 0xE5 SHL DUP2 MSTORE PUSH1 0x20 PUSH1 0x4 DUP3 ADD MSTORE PUSH1 0x13 PUSH1 0x24 DUP3 ADD MSTORE PUSH19 0x416C72656164792061637469766520534B495 PUSH1 0x6C SHL PUSH1 0x44 DUP3 ADD MSTORE PUSH1 0x64 ADD PUSH2 0xBF9 JUMP JUMPDEST PUSH1 0x1 PUSH1 0x7 PUSH0 DUP6 DUP5 DUP2 MLOAD DUP2 LT PUSH2 0x17F9 JUMPI PUSH2 0x17F9 PUSH2 0x3ED1 JUMP JUMPDEST PUSH1 0x20 MUL PUSH1 0x20 ADD ADD MLOAD DUP2 MSTORE PUSH1 0x20 ADD SWAP1 DUP2 MSTORE PUSH1 0x20 ADD PUSH0 KECCAK256 PUSH0 PUSH2 0x100 EXP DUP2 SLOAD DUP2 PUSH1 0xFF MUL NOT AND SWAP1 DUP4 ISZERO ISZERO MUL OR SWAP1 SSTORE POP PUSH1 0x1 PUSH1 0xE PUSH0 DUP7 PUSH1 0x1 PUSH1 0x1 PUSH1 0xA0 SHL SUB AND PUSH1 0x1 PUSH1 0x1 PUSH1 0xA0 SHL SUB AND DUP2 MSTORE PUSH1 0x20 ADD SWAP1 DUP2 MSTORE PUSH1 0x20 ADD PUSH0 KECCAK256 PUSH0 DUP3 DUP3 SLOAD PUSH2 0x1857 SWAP2 SWAP1 PUSH2 0x3CF9 JUMP JUMPDEST SWAP3 POP POP DUP2 SWAP1 SSTORE POP PUSH1 0x1 PUSH1 0xF PUSH0 DUP6 DUP5 DUP2 MLOAD DUP2 LT PUSH2 0x1875 JUMPI PUSH2 0x1875 PUSH2 0x3ED1 JUMP JUMPDEST PUSH1 0x20 MUL PUSH1 0x20 ADD ADD MLOAD DUP2 MSTORE PUSH1 0x20 ADD SWAP1 DUP2 MSTORE PUSH1 0x20 ADD PUSH0 KECCAK256 PUSH0 DUP3 DUP3 SLOAD PUSH2 0x1898 SWAP2 SWAP1 PUSH2 0x3E5F JUMP JUMPDEST SWAP1 SWAP2 SSTORE POP DUP2 SWAP1 POP PUSH2 0x18A8 DUP2 PUSH2 0x3EE5 JUMP JUMPDEST SWAP2 POP POP PUSH2 0x1764 JUMP JUMPDEST PUSH1 0x40 MLOAD PUSH3 0x461BCD PUSH1 0xE5 SHL DUP2 MSTORE PUSH1 0x20 PUSH1 0x4 DUP3 ADD MSTORE PUSH1 0x11 PUSH1 0x24 DUP3 ADD MSTORE PUSH17 0x57726F6E6720506F74696F6E204E616D65 PUSH1 0x78 SHL PUSH1 0x44 DUP3 ADD MSTORE PUSH1 0x64 ADD PUSH2 0xBF9 JUMP JUMPDEST POP POP POP JUMP JUMPDEST PUSH1 0x10 SLOAD PUSH1 0x1 PUSH1 0x1 PUSH1 0xA0 SHL SUB AND CALLER EQ PUSH2 0x1907 JUMPI PUSH0 DUP1 REVERT JUMPDEST PUSH1 0x22 DUP3 SWAP1 SSTORE PUSH2 0x1918 PUSH1 0x3 PUSH1 0x9 PUSH2 0x3D41 JUMP JUMPDEST PUSH2 0x1923 SWAP1 PUSH1 0xA PUSH2 0x3E3A JUMP JUMPDEST PUSH2 0x192D SWAP1 DUP3 PUSH2 0x3E48 JUMP JUMPDEST PUSH1 0x26 SSTORE POP POP JUMP JUMPDEST PUSH1 0x12 SLOAD PUSH1 0x1 PUSH1 0x1 PUSH1 0xA0 SHL SUB AND CALLER PUSH1 0x1 PUSH1 0x1 PUSH1 0xA0 SHL SUB AND EQ PUSH2 0x1953 JUMPI PUSH0 DUP1 REVERT JUMPDEST ADDRESS PUSH0 SWAP1 DUP2 MSTORE PUSH1 0x1 PUSH1 0x20 MSTORE PUSH1 0x40 SWAP1 KECCAK256 SLOAD DUP1 ISZERO PUSH2 0x1971 JUMPI PUSH2 0x1971 DUP2 PUSH2 0x2B9D JUMP JUMPDEST SELFBALANCE DUP1 ISZERO PUSH2 0xC6B JUMPI PUSH2 0xC6B DUP2 PUSH2 0x29D2 JUMP JUMPDEST PUSH0 PUSH2 0xC7B CALLER DUP5 DUP5 PUSH2 0x2118 JUMP JUMPDEST PUSH1 0x10 SLOAD PUSH1 0x1 PUSH1 0x1 PUSH1 0xA0 SHL SUB AND CALLER EQ PUSH2 0x19A3 JUMPI PUSH0 DUP1 REVERT JUMPDEST PUSH1 0x24 DUP3 SWAP1 SSTORE PUSH2 0x19B4 PUSH1 0x3 PUSH1 0x9 PUSH2 0x3D41 JUMP JUMPDEST PUSH2 0x19BF SWAP1 PUSH1 0xA PUSH2 0x3E3A JUMP JUMPDEST PUSH2 0x19C9 SWAP1 DUP3 PUSH2 0x3E48 JUMP JUMPDEST PUSH1 0x28 SSTORE POP POP JUMP JUMPDEST PUSH1 0x14 SLOAD PUSH1 0x1 PUSH1 0x1 PUSH1 0xA0 SHL SUB AND CALLER EQ PUSH2 0x1A1B JUMPI PUSH1 0x40 MLOAD PUSH3 0x461BCD PUSH1 0xE5 SHL DUP2 MSTORE PUSH1 0x20 PUSH1 0x4 DUP3 ADD MSTORE PUSH1 0xE PUSH1 0x24 DUP3 ADD MSTORE PUSH14 0x139BDD08185D5D1A1BDC9A5E9959 PUSH1 0x92 SHL PUSH1 0x44 DUP3 ADD MSTORE PUSH1 0x64 ADD PUSH2 0xBF9 JUMP JUMPDEST PUSH1 0x1 PUSH1 0x1 PUSH1 0xA0 SHL SUB DUP3 AND PUSH2 0x8FC PUSH2 0x1A3E PUSH2 0x1A37 PUSH1 0x9 PUSH1 0xA PUSH2 0x3E3A JUMP JUMPDEST DUP5 SWAP1 PUSH2 0x2D0D JUMP JUMPDEST PUSH1 0x40 MLOAD DUP2 ISZERO SWAP1 SWAP3 MUL SWAP2 PUSH0 DUP2 DUP2 DUP2 DUP6 DUP9 DUP9 CALL SWAP4 POP POP POP POP ISZERO DUP1 ISZERO PUSH2 0x18EC JUMPI RETURNDATASIZE PUSH0 DUP1 RETURNDATACOPY RETURNDATASIZE PUSH0 REVERT JUMPDEST PUSH0 SLOAD PUSH1 0x1 PUSH1 0x1 PUSH1 0xA0 SHL SUB AND CALLER EQ PUSH2 0x1A8C JUMPI PUSH1 0x40 MLOAD PUSH3 0x461BCD PUSH1 0xE5 SHL DUP2 MSTORE PUSH1 0x4 ADD PUSH2 0xBF9 SWAP1 PUSH2 0x3D0C JUMP JUMPDEST PUSH1 0x2B SLOAD PUSH1 0x1 PUSH1 0xA0 SHL SWAP1 DIV PUSH1 0xFF AND ISZERO PUSH2 0x1AE6 JUMPI PUSH1 0x40 MLOAD PUSH3 0x461BCD PUSH1 0xE5 SHL DUP2 MSTORE PUSH1 0x20 PUSH1 0x4 DUP3 ADD MSTORE PUSH1 0x17 PUSH1 0x24 DUP3 ADD MSTORE PUSH32 0x74726164696E6720697320616C7265616479206F70656E000000000000000000 PUSH1 0x44 DUP3 ADD MSTORE PUSH1 0x64 ADD PUSH2 0xBF9 JUMP JUMPDEST PUSH1 0x2A DUP1 SLOAD PUSH1 0x1 PUSH1 0x1 PUSH1 0xA0 SHL SUB NOT AND PUSH20 0x7A250D5630B4CF539739DF2C5DACB4C659F2488D SWAP1 DUP2 OR SWAP1 SWAP2 SSTORE PUSH1 0x1D SLOAD PUSH2 0x1B1D SWAP2 ADDRESS SWAP2 PUSH2 0x26FB JUMP JUMPDEST PUSH1 0x2A PUSH0 SWAP1 SLOAD SWAP1 PUSH2 0x100 EXP SWAP1 DIV PUSH1 0x1 PUSH1 0x1 PUSH1 0xA0 SHL SUB AND PUSH1 0x1 PUSH1 0x1 PUSH1 0xA0 SHL SUB AND PUSH4 0xC45A0155 PUSH1 0x40 MLOAD DUP2 PUSH4 0xFFFFFFFF AND PUSH1 0xE0 SHL DUP2 MSTORE PUSH1 0x4 ADD PUSH1 0x20 PUSH1 0x40 MLOAD DUP1 DUP4 SUB DUP2 DUP7 GAS STATICCALL ISZERO DUP1 ISZERO PUSH2 0x1B6D JUMPI RETURNDATASIZE PUSH0 DUP1 RETURNDATACOPY RETURNDATASIZE PUSH0 REVERT JUMPDEST POP POP POP POP PUSH1 0x40 MLOAD RETURNDATASIZE PUSH1 0x1F NOT PUSH1 0x1F DUP3 ADD AND DUP3 ADD DUP1 PUSH1 0x40 MSTORE POP DUP2 ADD SWAP1 PUSH2 0x1B91 SWAP2 SWAP1 PUSH2 0x3EFD JUMP JUMPDEST PUSH1 0x1 PUSH1 0x1 PUSH1 0xA0 SHL SUB AND PUSH4 0xC9C65396 ADDRESS PUSH1 0x2A PUSH0 SWAP1 SLOAD SWAP1 PUSH2 0x100 EXP SWAP1 DIV PUSH1 0x1 PUSH1 0x1 PUSH1 0xA0 SHL SUB AND PUSH1 0x1 PUSH1 0x1 PUSH1 0xA0 SHL SUB AND PUSH4 0xAD5C4648 PUSH1 0x40 MLOAD DUP2 PUSH4 0xFFFFFFFF AND PUSH1 0xE0 SHL DUP2 MSTORE PUSH1 0x4 ADD PUSH1 0x20 PUSH1 0x40 MLOAD DUP1 DUP4 SUB DUP2 DUP7 GAS STATICCALL ISZERO DUP1 ISZERO PUSH2 0x1BF0 JUMPI RETURNDATASIZE PUSH0 DUP1 RETURNDATACOPY RETURNDATASIZE PUSH0 REVERT JUMPDEST POP POP POP POP PUSH1 0x40 MLOAD RETURNDATASIZE PUSH1 0x1F NOT PUSH1 0x1F DUP3 ADD AND DUP3 ADD DUP1 PUSH1 0x40 MSTORE POP DUP2 ADD SWAP1 PUSH2 0x1C14 SWAP2 SWAP1 PUSH2 0x3EFD JUMP JUMPDEST PUSH1 0x40 MLOAD PUSH1 0x1 PUSH1 0x1 PUSH1 0xE0 SHL SUB NOT PUSH1 0xE0 DUP6 SWAP1 SHL AND DUP2 MSTORE PUSH1 0x1 PUSH1 0x1 PUSH1 0xA0 SHL SUB SWAP3 DUP4 AND PUSH1 0x4 DUP3 ADD MSTORE SWAP2 AND PUSH1 0x24 DUP3 ADD MSTORE PUSH1 0x44 ADD PUSH1 0x20 PUSH1 0x40 MLOAD DUP1 DUP4 SUB DUP2 PUSH0 DUP8 GAS CALL ISZERO DUP1 ISZERO PUSH2 0x1C5E JUMPI RETURNDATASIZE PUSH0 DUP1 RETURNDATACOPY RETURNDATASIZE PUSH0 REVERT JUMPDEST POP POP POP POP PUSH1 0x40 MLOAD RETURNDATASIZE PUSH1 0x1F NOT PUSH1 0x1F DUP3 ADD AND DUP3 ADD DUP1 PUSH1 0x40 MSTORE POP DUP2 ADD SWAP1 PUSH2 0x1C82 SWAP2 SWAP1 PUSH2 0x3EFD JUMP JUMPDEST PUSH1 0x2B DUP1 SLOAD PUSH1 0x1 PUSH1 0x1 PUSH1 0xA0 SHL SUB SWAP3 DUP4 AND PUSH1 0x1 PUSH1 0x1 PUSH1 0xA0 SHL SUB NOT SWAP1 SWAP2 AND OR SWAP1 SSTORE PUSH1 0x2A SLOAD AND PUSH4 0xF305D719 SELFBALANCE ADDRESS PUSH2 0x1CC9 DUP2 PUSH1 0x1 PUSH1 0x1 PUSH1 0xA0 SHL SUB AND PUSH0 SWAP1 DUP2 MSTORE PUSH1 0x1 PUSH1 0x20 MSTORE PUSH1 0x40 SWAP1 KECCAK256 SLOAD SWAP1 JUMP JUMPDEST PUSH0 DUP1 PUSH2 0x1CDC PUSH0 SLOAD PUSH1 0x1 PUSH1 0x1 PUSH1 0xA0 SHL SUB AND SWAP1 JUMP JUMPDEST PUSH1 0x40 MLOAD PUSH1 0xE0 DUP9 SWAP1 SHL PUSH1 0x1 PUSH1 0x1 PUSH1 0xE0 SHL SUB NOT AND DUP2 MSTORE PUSH1 0x1 PUSH1 0x1 PUSH1 0xA0 SHL SUB SWAP6 DUP7 AND PUSH1 0x4 DUP3 ADD MSTORE PUSH1 0x24 DUP2 ADD SWAP5 SWAP1 SWAP5 MSTORE PUSH1 0x44 DUP5 ADD SWAP3 SWAP1 SWAP3 MSTORE PUSH1 0x64 DUP4 ADD MSTORE SWAP1 SWAP2 AND PUSH1 0x84 DUP3 ADD MSTORE TIMESTAMP PUSH1 0xA4 DUP3 ADD MSTORE PUSH1 0xC4 ADD PUSH1 0x60 PUSH1 0x40 MLOAD DUP1 DUP4 SUB DUP2 DUP6 DUP9 GAS CALL ISZERO DUP1 ISZERO PUSH2 0x1D42 JUMPI RETURNDATASIZE PUSH0 DUP1 RETURNDATACOPY RETURNDATASIZE PUSH0 REVERT JUMPDEST POP POP POP POP POP PUSH1 0x40 MLOAD RETURNDATASIZE PUSH1 0x1F NOT PUSH1 0x1F DUP3 ADD AND DUP3 ADD DUP1 PUSH1 0x40 MSTORE POP DUP2 ADD SWAP1 PUSH2 0x1D67 SWAP2 SWAP1 PUSH2 0x3F18 JUMP JUMPDEST POP POP PUSH1 0x2B SLOAD PUSH1 0x2A SLOAD PUSH1 0x40 MLOAD PUSH4 0x95EA7B3 PUSH1 0xE0 SHL DUP2 MSTORE PUSH1 0x1 PUSH1 0x1 PUSH1 0xA0 SHL SUB SWAP2 DUP3 AND PUSH1 0x4 DUP3 ADD MSTORE PUSH0 NOT PUSH1 0x24 DUP3 ADD MSTORE SWAP2 AND SWAP2 POP PUSH4 0x95EA7B3 SWAP1 PUSH1 0x44 ADD PUSH1 0x20 PUSH1 0x40 MLOAD DUP1 DUP4 SUB DUP2 PUSH0 DUP8 GAS CALL ISZERO DUP1 ISZERO PUSH2 0x1DBC JUMPI RETURNDATASIZE PUSH0 DUP1 RETURNDATACOPY RETURNDATASIZE PUSH0 REVERT JUMPDEST POP POP POP POP PUSH1 0x40 MLOAD RETURNDATASIZE PUSH1 0x1F NOT PUSH1 0x1F DUP3 ADD AND DUP3 ADD DUP1 PUSH1 0x40 MSTORE POP DUP2 ADD SWAP1 PUSH2 0x1DE0 SWAP2 SWAP1 PUSH2 0x3F43 JUMP JUMPDEST POP PUSH1 0x2B DUP1 SLOAD PUSH3 0xFF00FF PUSH1 0xA0 SHL NOT AND PUSH3 0x10001 PUSH1 0xA0 SHL OR SWAP1 SSTORE PUSH1 0x12 SLOAD ADDRESS PUSH0 DUP2 DUP2 MSTORE PUSH1 0x1 PUSH1 0x20 MSTORE PUSH1 0x40 SWAP1 KECCAK256 SLOAD PUSH2 0x112A SWAP3 PUSH1 0x1 PUSH1 0x1 PUSH1 0xA0 SHL SUB AND SWAP1 PUSH2 0x2118 JUMP JUMPDEST PUSH1 0x10 SLOAD PUSH1 0x1 PUSH1 0x1 PUSH1 0xA0 SHL SUB AND CALLER EQ PUSH2 0x1E8D JUMPI PUSH1 0x40 MLOAD PUSH3 0x461BCD PUSH1 0xE5 SHL DUP2 MSTORE PUSH1 0x20 PUSH1 0x4 DUP3 ADD MSTORE PUSH1 0x2D PUSH1 0x24 DUP3 ADD MSTORE PUSH32 0x4F6E6C79206D61696E74656E616E636557616C6C65742063616E2063616C6C20 PUSH1 0x44 DUP3 ADD MSTORE PUSH13 0x3A3434B990333AB731BA34B7B7 PUSH1 0x99 SHL PUSH1 0x64 DUP3 ADD MSTORE PUSH1 0x84 ADD PUSH2 0xBF9 JUMP JUMPDEST DUP3 MLOAD DUP5 MLOAD EQ PUSH2 0x1EF7 JUMPI PUSH1 0x40 MLOAD PUSH3 0x461BCD PUSH1 0xE5 SHL DUP2 MSTORE PUSH1 0x20 PUSH1 0x4 DUP3 ADD MSTORE PUSH1 0x30 PUSH1 0x24 DUP3 ADD MSTORE PUSH32 0x4D69736D61746368656420706F74696F6E4E616D657320616E6420616D6F756E PUSH1 0x44 DUP3 ADD MSTORE PUSH16 0xE8E640C2E4E4C2F2E640D8CADCCEE8D PUSH1 0x83 SHL PUSH1 0x64 DUP3 ADD MSTORE PUSH1 0x84 ADD PUSH2 0xBF9 JUMP JUMPDEST PUSH0 DUP1 PUSH0 DUP1 PUSH0 DUP9 MLOAD SWAP1 POP DUP6 ISZERO PUSH2 0x1F14 JUMPI PUSH2 0x1F11 PUSH1 0x2 DUP3 PUSH2 0x3CF9 JUMP JUMPDEST SWAP1 POP JUMPDEST PUSH0 JUMPDEST DUP2 DUP2 LT ISZERO PUSH2 0x1F70 JUMPI PUSH2 0x1F5E DUP11 DUP3 DUP2 MLOAD DUP2 LT PUSH2 0x1F33 JUMPI PUSH2 0x1F33 PUSH2 0x3ED1 JUMP JUMPDEST PUSH1 0x20 MUL PUSH1 0x20 ADD ADD MLOAD DUP11 DUP4 DUP2 MLOAD DUP2 LT PUSH2 0x1F4D JUMPI PUSH2 0x1F4D PUSH2 0x3ED1 JUMP JUMPDEST PUSH1 0x20 MUL PUSH1 0x20 ADD ADD MLOAD DUP9 DUP9 DUP9 DUP9 PUSH2 0x2D55 JUMP JUMPDEST DUP1 PUSH2 0x1F68 DUP2 PUSH2 0x3EE5 JUMP JUMPDEST SWAP2 POP POP PUSH2 0x1F16 JUMP JUMPDEST POP DUP6 ISZERO PUSH2 0x1FD3 JUMPI DUP1 JUMPDEST DUP10 MLOAD DUP2 LT ISZERO PUSH2 0x1FD1 JUMPI PUSH2 0x1FBF DUP11 DUP3 DUP2 MLOAD DUP2 LT PUSH2 0x1F97 JUMPI PUSH2 0x1F97 PUSH2 0x3ED1 JUMP JUMPDEST PUSH1 0x20 MUL PUSH1 0x20 ADD ADD MLOAD DUP11 DUP4 DUP2 MLOAD DUP2 LT PUSH2 0x1FB1 JUMPI PUSH2 0x1FB1 PUSH2 0x3ED1 JUMP JUMPDEST PUSH1 0x20 MUL PUSH1 0x20 ADD ADD MLOAD DUP11 PUSH2 0x2EEF JUMP JUMPDEST DUP1 PUSH2 0x1FC9 DUP2 PUSH2 0x3EE5 JUMP JUMPDEST SWAP2 POP POP PUSH2 0x1F79 JUMP JUMPDEST POP JUMPDEST DUP5 ISZERO PUSH2 0x2000 JUMPI PUSH2 0x2000 PUSH1 0x40 MLOAD DUP1 PUSH1 0x40 ADD PUSH1 0x40 MSTORE DUP1 PUSH1 0x4 DUP2 MSTORE PUSH1 0x20 ADD PUSH4 0x58545241 PUSH1 0xE0 SHL DUP2 MSTORE POP DUP7 DUP10 PUSH2 0x316D JUMP JUMPDEST DUP4 ISZERO PUSH2 0x202E JUMPI PUSH2 0x202E PUSH1 0x40 MLOAD DUP1 PUSH1 0x40 ADD PUSH1 0x40 MSTORE DUP1 PUSH1 0x5 DUP2 MSTORE PUSH1 0x20 ADD PUSH5 0x1093D3D4D5 PUSH1 0xDA SHL DUP2 MSTORE POP DUP6 DUP10 PUSH2 0x316D JUMP JUMPDEST DUP3 ISZERO PUSH2 0x2058 JUMPI PUSH2 0x2058 PUSH1 0x40 MLOAD DUP1 PUSH1 0x40 ADD PUSH1 0x40 MSTORE DUP1 PUSH1 0x1 DUP2 MSTORE PUSH1 0x20 ADD PUSH1 0x2B PUSH1 0xF9 SHL DUP2 MSTORE POP DUP5 DUP10 PUSH2 0x316D JUMP JUMPDEST DUP2 ISZERO PUSH2 0x2085 JUMPI PUSH2 0x2085 PUSH1 0x40 MLOAD DUP1 PUSH1 0x40 ADD PUSH1 0x40 MSTORE DUP1 PUSH1 0x4 DUP2 MSTORE PUSH1 0x20 ADD PUSH4 0x534B495 PUSH1 0xE4 SHL DUP2 MSTORE POP DUP4 DUP10 PUSH2 0x316D JUMP JUMPDEST POP POP POP POP POP POP POP POP POP JUMP JUMPDEST PUSH0 SLOAD PUSH1 0x1 PUSH1 0x1 PUSH1 0xA0 SHL SUB AND CALLER EQ PUSH2 0x20B9 JUMPI PUSH1 0x40 MLOAD PUSH3 0x461BCD PUSH1 0xE5 SHL DUP2 MSTORE PUSH1 0x4 ADD PUSH2 0xBF9 SWAP1 PUSH2 0x3D0C JUMP JUMPDEST SELFBALANCE DUP1 ISZERO PUSH2 0x20C9 JUMPI PUSH2 0x20C9 DUP2 PUSH2 0x29D2 JUMP JUMPDEST POP JUMP JUMPDEST PUSH1 0x10 SLOAD PUSH1 0x1 PUSH1 0x1 PUSH1 0xA0 SHL SUB AND CALLER EQ PUSH2 0x20E2 JUMPI PUSH0 DUP1 REVERT JUMPDEST PUSH1 0x12 SLOAD PUSH1 0x40 MLOAD PUSH1 0x1 PUSH1 0x1 PUSH1 0xA0 SHL SUB SWAP1 SWAP2 AND SWAP1 SELFBALANCE DUP1 ISZERO PUSH2 0x8FC MUL SWAP2 PUSH0 DUP2 DUP2 DUP2 DUP6 DUP9 DUP9 CALL SWAP4 POP POP POP POP ISZERO DUP1 ISZERO PUSH2 0x20C9 JUMPI RETURNDATASIZE PUSH0 DUP1 RETURNDATACOPY RETURNDATASIZE PUSH0 REVERT JUMPDEST PUSH1 0x1 PUSH1 0x1 PUSH1 0xA0 SHL SUB DUP4 AND PUSH2 0x217C JUMPI PUSH1 0x40 MLOAD PUSH3 0x461BCD PUSH1 0xE5 SHL DUP2 MSTORE PUSH1 0x20 PUSH1 0x4 DUP3 ADD MSTORE PUSH1 0x25 PUSH1 0x24 DUP3 ADD MSTORE PUSH32 0x45524332303A207472616E736665722066726F6D20746865207A65726F206164 PUSH1 0x44 DUP3 ADD MSTORE PUSH5 0x6472657373 PUSH1 0xD8 SHL PUSH1 0x64 DUP3 ADD MSTORE PUSH1 0x84 ADD PUSH2 0xBF9 JUMP JUMPDEST PUSH1 0x1 PUSH1 0x1 PUSH1 0xA0 SHL SUB DUP3 AND PUSH2 0x21DE JUMPI PUSH1 0x40 MLOAD PUSH3 0x461BCD PUSH1 0xE5 SHL DUP2 MSTORE PUSH1 0x20 PUSH1 0x4 DUP3 ADD MSTORE PUSH1 0x23 PUSH1 0x24 DUP3 ADD MSTORE PUSH32 0x45524332303A207472616E7366657220746F20746865207A65726F2061646472 PUSH1 0x44 DUP3 ADD MSTORE PUSH3 0x657373 PUSH1 0xE8 SHL PUSH1 0x64 DUP3 ADD MSTORE PUSH1 0x84 ADD PUSH2 0xBF9 JUMP JUMPDEST PUSH0 DUP2 GT PUSH2 0x223F JUMPI PUSH1 0x40 MLOAD PUSH3 0x461BCD PUSH1 0xE5 SHL DUP2 MSTORE PUSH1 0x20 PUSH1 0x4 DUP3 ADD MSTORE PUSH1 0x29 PUSH1 0x24 DUP3 ADD MSTORE PUSH32 0x5472616E7366657220616D6F756E74206D757374206265206772656174657220 PUSH1 0x44 DUP3 ADD MSTORE PUSH9 0x7468616E207A65726F PUSH1 0xB8 SHL PUSH1 0x64 DUP3 ADD MSTORE PUSH1 0x84 ADD PUSH2 0xBF9 JUMP JUMPDEST PUSH0 DUP1 SLOAD PUSH1 0x1 PUSH1 0x1 PUSH1 0xA0 SHL SUB DUP6 DUP2 AND SWAP2 AND EQ DUP1 ISZERO SWAP1 PUSH2 0x226A JUMPI POP PUSH0 SLOAD PUSH1 0x1 PUSH1 0x1 PUSH1 0xA0 SHL SUB DUP5 DUP2 AND SWAP2 AND EQ ISZERO JUMPDEST ISZERO PUSH2 0x25BE JUMPI PUSH2 0x229B PUSH1 0x64 PUSH2 0x2295 PUSH1 0x19 SLOAD PUSH1 0x1C SLOAD GT PUSH2 0x228A JUMPI PUSH1 0x15 SLOAD PUSH2 0x228E JUMP JUMPDEST PUSH1 0x17 SLOAD JUMPDEST DUP6 SWAP1 PUSH2 0x3762 JUMP JUMPDEST SWAP1 PUSH2 0x2D0D JUMP JUMPDEST PUSH1 0x2B SLOAD SWAP1 SWAP2 POP PUSH1 0x1 PUSH1 0xB8 SHL SWAP1 DIV PUSH1 0xFF AND ISZERO PUSH2 0x2388 JUMPI PUSH1 0x2A SLOAD PUSH1 0x1 PUSH1 0x1 PUSH1 0xA0 SHL SUB DUP5 DUP2 AND SWAP2 AND EQ DUP1 ISZERO SWAP1 PUSH2 0x22DC JUMPI POP PUSH1 0x2B SLOAD PUSH1 0x1 PUSH1 0x1 PUSH1 0xA0 SHL SUB DUP5 DUP2 AND SWAP2 AND EQ ISZERO JUMPDEST ISZERO PUSH2 0x2388 JUMPI ORIGIN PUSH0 SWAP1 DUP2 MSTORE PUSH1 0x8 PUSH1 0x20 MSTORE PUSH1 0x40 SWAP1 KECCAK256 SLOAD NUMBER GT PUSH2 0x2376 JUMPI PUSH1 0x40 MLOAD PUSH3 0x461BCD PUSH1 0xE5 SHL DUP2 MSTORE PUSH1 0x20 PUSH1 0x4 DUP3 ADD MSTORE PUSH1 0x49 PUSH1 0x24 DUP3 ADD MSTORE PUSH32 0x5F7472616E736665723A3A205472616E736665722044656C617920656E61626C PUSH1 0x44 DUP3 ADD MSTORE PUSH32 0x65642E20204F6E6C79206F6E652070757263686173652070657220626C6F636B PUSH1 0x64 DUP3 ADD MSTORE PUSH9 0x1030B63637BBB2B217 PUSH1 0xB9 SHL PUSH1 0x84 DUP3 ADD MSTORE PUSH1 0xA4 ADD PUSH2 0xBF9 JUMP JUMPDEST ORIGIN PUSH0 SWAP1 DUP2 MSTORE PUSH1 0x8 PUSH1 0x20 MSTORE PUSH1 0x40 SWAP1 KECCAK256 NUMBER SWAP1 SSTORE JUMPDEST PUSH1 0x2B SLOAD PUSH1 0x1 PUSH1 0x1 PUSH1 0xA0 SHL SUB DUP6 DUP2 AND SWAP2 AND EQ DUP1 ISZERO PUSH2 0x23B3 JUMPI POP PUSH1 0x2A SLOAD PUSH1 0x1 PUSH1 0x1 PUSH1 0xA0 SHL SUB DUP5 DUP2 AND SWAP2 AND EQ ISZERO JUMPDEST DUP1 ISZERO PUSH2 0x23D7 JUMPI POP PUSH1 0x1 PUSH1 0x1 PUSH1 0xA0 SHL SUB DUP4 AND PUSH0 SWAP1 DUP2 MSTORE PUSH1 0x3 PUSH1 0x20 MSTORE PUSH1 0x40 SWAP1 KECCAK256 SLOAD PUSH1 0xFF AND ISZERO JUMPDEST ISZERO PUSH2 0x24BD JUMPI PUSH1 0x1E SLOAD DUP3 GT ISZERO PUSH2 0x242E JUMPI PUSH1 0x40 MLOAD PUSH3 0x461BCD PUSH1 0xE5 SHL DUP2 MSTORE PUSH1 0x20 PUSH1 0x4 DUP3 ADD MSTORE PUSH1 0x19 PUSH1 0x24 DUP3 ADD MSTORE PUSH32 0x4578636565647320746865205F6D61785478416D6F756E742E00000000000000 PUSH1 0x44 DUP3 ADD MSTORE PUSH1 0x64 ADD PUSH2 0xBF9 JUMP JUMPDEST PUSH1 0x1F SLOAD DUP3 PUSH2 0x2450 DUP6 PUSH1 0x1 PUSH1 0x1 PUSH1 0xA0 SHL SUB AND PUSH0 SWAP1 DUP2 MSTORE PUSH1 0x1 PUSH1 0x20 MSTORE PUSH1 0x40 SWAP1 KECCAK256 SLOAD SWAP1 JUMP JUMPDEST PUSH2 0x245A SWAP2 SWAP1 PUSH2 0x3E5F JUMP JUMPDEST GT ISZERO PUSH2 0x24A8 JUMPI PUSH1 0x40 MLOAD PUSH3 0x461BCD PUSH1 0xE5 SHL DUP2 MSTORE PUSH1 0x20 PUSH1 0x4 DUP3 ADD MSTORE PUSH1 0x1A PUSH1 0x24 DUP3 ADD MSTORE PUSH32 0x4578636565647320746865206D617857616C6C657453697A652E000000000000 PUSH1 0x44 DUP3 ADD MSTORE PUSH1 0x64 ADD PUSH2 0xBF9 JUMP JUMPDEST PUSH1 0x1C DUP1 SLOAD SWAP1 PUSH0 PUSH2 0x24B7 DUP4 PUSH2 0x3EE5 JUMP JUMPDEST SWAP2 SWAP1 POP SSTORE POP JUMPDEST PUSH1 0x2B SLOAD PUSH1 0x1 PUSH1 0x1 PUSH1 0xA0 SHL SUB DUP5 DUP2 AND SWAP2 AND EQ DUP1 ISZERO PUSH2 0x24E3 JUMPI POP PUSH1 0x1 PUSH1 0x1 PUSH1 0xA0 SHL SUB DUP5 AND ADDRESS EQ ISZERO JUMPDEST ISZERO PUSH2 0x2510 JUMPI PUSH2 0x250D PUSH1 0x64 PUSH2 0x2295 PUSH1 0x1A SLOAD PUSH1 0x1C SLOAD GT PUSH2 0x2503 JUMPI PUSH1 0x16 SLOAD PUSH2 0x228E JUMP JUMPDEST PUSH1 0x18 SLOAD DUP6 SWAP1 PUSH2 0x3762 JUMP JUMPDEST SWAP1 POP JUMPDEST ADDRESS PUSH0 SWAP1 DUP2 MSTORE PUSH1 0x1 PUSH1 0x20 MSTORE PUSH1 0x40 SWAP1 KECCAK256 SLOAD PUSH1 0x2B SLOAD PUSH1 0x1 PUSH1 0xA8 SHL SWAP1 DIV PUSH1 0xFF AND ISZERO DUP1 ISZERO PUSH2 0x2546 JUMPI POP PUSH1 0x2B SLOAD PUSH1 0x1 PUSH1 0x1 PUSH1 0xA0 SHL SUB DUP6 DUP2 AND SWAP2 AND EQ JUMPDEST DUP1 ISZERO PUSH2 0x255B JUMPI POP PUSH1 0x2B SLOAD PUSH1 0x1 PUSH1 0xB0 SHL SWAP1 DIV PUSH1 0xFF AND JUMPDEST DUP1 ISZERO PUSH2 0x2568 JUMPI POP PUSH1 0x20 SLOAD DUP2 GT JUMPDEST DUP1 ISZERO PUSH2 0x2577 JUMPI POP PUSH1 0x1B SLOAD PUSH1 0x1C SLOAD GT JUMPDEST ISZERO PUSH2 0x25BC JUMPI PUSH0 SELFBALANCE SWAP1 POP PUSH2 0x259D PUSH2 0x2598 DUP6 PUSH2 0x2593 DUP6 PUSH1 0x21 SLOAD PUSH2 0x37E0 JUMP JUMPDEST PUSH2 0x37E0 JUMP JUMPDEST PUSH2 0x2B9D JUMP JUMPDEST PUSH0 PUSH2 0x25A8 SELFBALANCE DUP4 PUSH2 0x37F4 JUMP JUMPDEST SWAP1 POP DUP1 ISZERO PUSH2 0x25B9 JUMPI PUSH2 0x25B9 DUP2 PUSH2 0x29D2 JUMP JUMPDEST POP POP JUMPDEST POP JUMPDEST DUP1 ISZERO PUSH2 0x2636 JUMPI ADDRESS PUSH0 SWAP1 DUP2 MSTORE PUSH1 0x1 PUSH1 0x20 MSTORE PUSH1 0x40 SWAP1 KECCAK256 SLOAD PUSH2 0x25DD SWAP1 DUP3 PUSH2 0x3835 JUMP JUMPDEST ADDRESS PUSH0 DUP2 DUP2 MSTORE PUSH1 0x1 PUSH1 0x20 MSTORE PUSH1 0x40 SWAP1 DUP2 SWAP1 KECCAK256 SWAP3 SWAP1 SWAP3 SSTORE SWAP1 MLOAD PUSH1 0x1 PUSH1 0x1 PUSH1 0xA0 SHL SUB DUP7 AND SWAP1 PUSH32 0xDDF252AD1BE2C89B69C2B068FC378DAA952BA7F163C4A11628F55A4DF523B3EF SWAP1 PUSH2 0x262D SWAP1 DUP6 DUP2 MSTORE PUSH1 0x20 ADD SWAP1 JUMP JUMPDEST PUSH1 0x40 MLOAD DUP1 SWAP2 SUB SWAP1 LOG3 JUMPDEST PUSH1 0x1 PUSH1 0x1 PUSH1 0xA0 SHL SUB DUP5 AND PUSH0 SWAP1 DUP2 MSTORE PUSH1 0x1 PUSH1 0x20 MSTORE PUSH1 0x40 SWAP1 KECCAK256 SLOAD PUSH2 0x2658 SWAP1 DUP4 PUSH2 0x37F4 JUMP JUMPDEST PUSH1 0x1 PUSH1 0x1 PUSH1 0xA0 SHL SUB DUP6 AND PUSH0 SWAP1 DUP2 MSTORE PUSH1 0x1 PUSH1 0x20 MSTORE PUSH1 0x40 SWAP1 KECCAK256 SSTORE PUSH2 0x269B PUSH2 0x267D DUP4 DUP4 PUSH2 0x37F4 JUMP JUMPDEST PUSH1 0x1 PUSH1 0x1 PUSH1 0xA0 SHL SUB DUP6 AND PUSH0 SWAP1 DUP2 MSTORE PUSH1 0x1 PUSH1 0x20 MSTORE PUSH1 0x40 SWAP1 KECCAK256 SLOAD SWAP1 PUSH2 0x3835 JUMP JUMPDEST PUSH1 0x1 PUSH1 0x1 PUSH1 0xA0 SHL SUB DUP1 DUP6 AND PUSH0 DUP2 DUP2 MSTORE PUSH1 0x1 PUSH1 0x20 MSTORE PUSH1 0x40 SWAP1 KECCAK256 SWAP3 SWAP1 SWAP3 SSTORE DUP6 AND PUSH32 0xDDF252AD1BE2C89B69C2B068FC378DAA952BA7F163C4A11628F55A4DF523B3EF PUSH2 0x26E4 DUP6 DUP6 PUSH2 0x37F4 JUMP JUMPDEST PUSH1 0x40 MLOAD SWAP1 DUP2 MSTORE PUSH1 0x20 ADD PUSH1 0x40 MLOAD DUP1 SWAP2 SUB SWAP1 LOG3 POP POP POP POP JUMP JUMPDEST PUSH1 0x1 PUSH1 0x1 PUSH1 0xA0 SHL SUB DUP4 AND PUSH2 0x275D JUMPI PUSH1 0x40 MLOAD PUSH3 0x461BCD PUSH1 0xE5 SHL DUP2 MSTORE PUSH1 0x20 PUSH1 0x4 DUP3 ADD MSTORE PUSH1 0x24 DUP1 DUP3 ADD MSTORE PUSH32 0x45524332303A20617070726F76652066726F6D20746865207A65726F20616464 PUSH1 0x44 DUP3 ADD MSTORE PUSH4 0x72657373 PUSH1 0xE0 SHL PUSH1 0x64 DUP3 ADD MSTORE PUSH1 0x84 ADD PUSH2 0xBF9 JUMP JUMPDEST PUSH1 0x1 PUSH1 0x1 PUSH1 0xA0 SHL SUB DUP3 AND PUSH2 0x27BE JUMPI PUSH1 0x40 MLOAD PUSH3 0x461BCD PUSH1 0xE5 SHL DUP2 MSTORE PUSH1 0x20 PUSH1 0x4 DUP3 ADD MSTORE PUSH1 0x22 PUSH1 0x24 DUP3 ADD MSTORE PUSH32 0x45524332303A20617070726F766520746F20746865207A65726F206164647265 PUSH1 0x44 DUP3 ADD MSTORE PUSH2 0x7373 PUSH1 0xF0 SHL PUSH1 0x64 DUP3 ADD MSTORE PUSH1 0x84 ADD PUSH2 0xBF9 JUMP JUMPDEST PUSH1 0x1 PUSH1 0x1 PUSH1 0xA0 SHL SUB DUP4 DUP2 AND PUSH0 DUP2 DUP2 MSTORE PUSH1 0x2 PUSH1 0x20 SWAP1 DUP2 MSTORE PUSH1 0x40 DUP1 DUP4 KECCAK256 SWAP5 DUP8 AND DUP1 DUP5 MSTORE SWAP5 DUP3 MSTORE SWAP2 DUP3 SWAP1 KECCAK256 DUP6 SWAP1 SSTORE SWAP1 MLOAD DUP5 DUP2 MSTORE PUSH32 0x8C5BE1E5EBEC7D5BD14F71427D1E84F3DD0314C0F7B2291E5B200AC8C7C3B925 SWAP2 ADD JUMPDEST PUSH1 0x40 MLOAD DUP1 SWAP2 SUB SWAP1 LOG3 POP POP POP JUMP JUMPDEST PUSH0 DUP2 DUP5 DUP5 GT ISZERO PUSH2 0x2842 JUMPI PUSH1 0x40 MLOAD PUSH3 0x461BCD PUSH1 0xE5 SHL DUP2 MSTORE PUSH1 0x4 ADD PUSH2 0xBF9 SWAP2 SWAP1 PUSH2 0x3971 JUMP JUMPDEST POP PUSH0 PUSH2 0x284E DUP5 DUP7 PUSH2 0x3CF9 JUMP JUMPDEST SWAP6 SWAP5 POP POP POP POP POP JUMP JUMPDEST PUSH1 0x1 PUSH1 0x1 PUSH1 0xA0 SHL SUB DUP3 AND PUSH2 0x28B7 JUMPI PUSH1 0x40 MLOAD PUSH3 0x461BCD PUSH1 0xE5 SHL DUP2 MSTORE PUSH1 0x20 PUSH1 0x4 DUP3 ADD MSTORE PUSH1 0x21 PUSH1 0x24 DUP3 ADD MSTORE PUSH32 0x43616E6E6F74206275726E2066726F6D20746865207A65726F20616464726573 PUSH1 0x44 DUP3 ADD MSTORE PUSH1 0x73 PUSH1 0xF8 SHL PUSH1 0x64 DUP3 ADD MSTORE PUSH1 0x84 ADD PUSH2 0xBF9 JUMP JUMPDEST PUSH2 0x28C3 PUSH1 0x9 PUSH1 0xA PUSH2 0x3E3A JUMP JUMPDEST PUSH2 0x28CD SWAP1 DUP3 PUSH2 0x3E48 JUMP JUMPDEST PUSH1 0x1 PUSH1 0x1 PUSH1 0xA0 SHL SUB DUP4 AND PUSH0 SWAP1 DUP2 MSTORE PUSH1 0x1 PUSH1 0x20 MSTORE PUSH1 0x40 DUP2 KECCAK256 DUP1 SLOAD SWAP3 SWAP4 POP DUP4 SWAP3 SWAP1 SWAP2 SWAP1 PUSH2 0x28F9 SWAP1 DUP5 SWAP1 PUSH2 0x3CF9 JUMP JUMPDEST SWAP3 POP POP DUP2 SWAP1 SSTORE POP DUP1 PUSH1 0x1D PUSH0 DUP3 DUP3 SLOAD PUSH2 0x2911 SWAP2 SWAP1 PUSH2 0x3CF9 JUMP JUMPDEST SWAP1 SWAP2 SSTORE POP POP PUSH1 0x1D SLOAD PUSH1 0x1E DUP2 SWAP1 SSTORE PUSH1 0x1F SSTORE PUSH1 0x40 MLOAD DUP2 DUP2 MSTORE PUSH1 0x1 PUSH1 0x1 PUSH1 0xA0 SHL SUB DUP4 AND SWAP1 PUSH32 0xCC16F5DBB4873280815C1EE09DBD06736CFFCC184412CF7A71A0FDB75D397CA5 SWAP1 PUSH1 0x20 ADD PUSH1 0x40 MLOAD DUP1 SWAP2 SUB SWAP1 LOG2 PUSH1 0x40 MLOAD DUP2 DUP2 MSTORE PUSH0 SWAP1 PUSH1 0x1 PUSH1 0x1 PUSH1 0xA0 SHL SUB DUP5 AND SWAP1 PUSH32 0xDDF252AD1BE2C89B69C2B068FC378DAA952BA7F163C4A11628F55A4DF523B3EF SWAP1 PUSH1 0x20 ADD PUSH1 0x40 MLOAD DUP1 SWAP2 SUB SWAP1 LOG3 PUSH32 0x947F344D56E1E8C70DC492FB94C4DDDDD490C016AAB685F5E7E47B2E85CB44CF PUSH1 0x1D SLOAD PUSH1 0x40 MLOAD PUSH2 0xD9C SWAP2 DUP2 MSTORE PUSH1 0x20 ADD SWAP1 JUMP JUMPDEST PUSH0 DUP2 GT PUSH2 0x2A21 JUMPI PUSH1 0x40 MLOAD PUSH3 0x461BCD PUSH1 0xE5 SHL DUP2 MSTORE PUSH1 0x20 PUSH1 0x4 DUP3 ADD DUP2 SWAP1 MSTORE PUSH1 0x24 DUP3 ADD MSTORE PUSH32 0x416D6F756E74206D7573742062652067726561746572207468616E207A65726F PUSH1 0x44 DUP3 ADD MSTORE PUSH1 0x64 ADD PUSH2 0xBF9 JUMP JUMPDEST DUP1 SELFBALANCE LT ISZERO PUSH2 0x2A71 JUMPI PUSH1 0x40 MLOAD PUSH3 0x461BCD PUSH1 0xE5 SHL DUP2 MSTORE PUSH1 0x20 PUSH1 0x4 DUP3 ADD MSTORE PUSH1 0x1D PUSH1 0x24 DUP3 ADD MSTORE PUSH32 0x496E73756666696369656E7420636F6E74726163742062616C616E6365000000 PUSH1 0x44 DUP3 ADD MSTORE PUSH1 0x64 ADD PUSH2 0xBF9 JUMP JUMPDEST PUSH0 PUSH2 0x2A7D PUSH1 0x5 DUP4 PUSH2 0x3F5E JUMP JUMPDEST PUSH1 0x13 SLOAD PUSH1 0x40 MLOAD SWAP2 SWAP3 POP PUSH1 0x1 PUSH1 0x1 PUSH1 0xA0 SHL SUB AND SWAP1 DUP3 ISZERO PUSH2 0x8FC MUL SWAP1 DUP4 SWAP1 PUSH0 DUP2 DUP2 DUP2 DUP6 DUP9 DUP9 CALL SWAP4 POP POP POP POP ISZERO DUP1 ISZERO PUSH2 0x2AB5 JUMPI RETURNDATASIZE PUSH0 DUP1 RETURNDATACOPY RETURNDATASIZE PUSH0 REVERT JUMPDEST POP PUSH1 0x11 SLOAD PUSH1 0x40 MLOAD PUSH1 0x1 PUSH1 0x1 PUSH1 0xA0 SHL SUB SWAP1 SWAP2 AND SWAP1 DUP3 ISZERO PUSH2 0x8FC MUL SWAP1 DUP4 SWAP1 PUSH0 DUP2 DUP2 DUP2 DUP6 DUP9 DUP9 CALL SWAP4 POP POP POP POP ISZERO DUP1 ISZERO PUSH2 0x2AED JUMPI RETURNDATASIZE PUSH0 DUP1 RETURNDATACOPY RETURNDATASIZE PUSH0 REVERT JUMPDEST POP PUSH1 0x10 SLOAD PUSH1 0x40 MLOAD PUSH1 0x1 PUSH1 0x1 PUSH1 0xA0 SHL SUB SWAP1 SWAP2 AND SWAP1 DUP3 ISZERO PUSH2 0x8FC MUL SWAP1 DUP4 SWAP1 PUSH0 DUP2 DUP2 DUP2 DUP6 DUP9 DUP9 CALL SWAP4 POP POP POP POP ISZERO DUP1 ISZERO PUSH2 0x18EC JUMPI RETURNDATASIZE PUSH0 DUP1 RETURNDATACOPY RETURNDATASIZE PUSH0 REVERT JUMPDEST PUSH0 SLOAD PUSH1 0x1 PUSH1 0x1 PUSH1 0xA0 SHL SUB AND CALLER EQ PUSH2 0x2B4E JUMPI PUSH1 0x40 MLOAD PUSH3 0x461BCD PUSH1 0xE5 SHL DUP2 MSTORE PUSH1 0x4 ADD PUSH2 0xBF9 SWAP1 PUSH2 0x3D0C JUMP JUMPDEST PUSH1 0x1D SLOAD PUSH1 0x1E DUP2 SWAP1 SSTORE PUSH1 0x1F DUP2 SWAP1 SSTORE PUSH1 0x2B DUP1 SLOAD PUSH1 0xFF PUSH1 0xB8 SHL NOT AND SWAP1 SSTORE PUSH1 0x40 MLOAD SWAP1 DUP2 MSTORE PUSH32 0x947F344D56E1E8C70DC492FB94C4DDDDD490C016AAB685F5E7E47B2E85CB44CF SWAP1 PUSH1 0x20 ADD PUSH1 0x40 MLOAD DUP1 SWAP2 SUB SWAP1 LOG1 JUMP JUMPDEST PUSH1 0x2B DUP1 SLOAD PUSH1 0xFF PUSH1 0xA8 SHL NOT AND PUSH1 0x1 PUSH1 0xA8 SHL OR SWAP1 SSTORE PUSH1 0x40 DUP1 MLOAD PUSH1 0x2 DUP1 DUP3 MSTORE PUSH1 0x60 DUP3 ADD DUP4 MSTORE PUSH0 SWAP3 PUSH1 0x20 DUP4 ADD SWAP1 DUP1 CALLDATASIZE DUP4 CALLDATACOPY ADD SWAP1 POP POP SWAP1 POP ADDRESS DUP2 PUSH0 DUP2 MLOAD DUP2 LT PUSH2 0x2BE3 JUMPI PUSH2 0x2BE3 PUSH2 0x3ED1 JUMP JUMPDEST PUSH1 0x1 PUSH1 0x1 PUSH1 0xA0 SHL SUB SWAP3 DUP4 AND PUSH1 0x20 SWAP2 DUP3 MUL SWAP3 SWAP1 SWAP3 ADD DUP2 ADD SWAP2 SWAP1 SWAP2 MSTORE PUSH1 0x2A SLOAD PUSH1 0x40 DUP1 MLOAD PUSH4 0x15AB88C9 PUSH1 0xE3 SHL DUP2 MSTORE SWAP1 MLOAD SWAP2 SWAP1 SWAP4 AND SWAP3 PUSH4 0xAD5C4648 SWAP3 PUSH1 0x4 DUP1 DUP4 ADD SWAP4 SWAP2 SWAP3 DUP3 SWAP1 SUB ADD DUP2 DUP7 GAS STATICCALL ISZERO DUP1 ISZERO PUSH2 0x2C3A JUMPI RETURNDATASIZE PUSH0 DUP1 RETURNDATACOPY RETURNDATASIZE PUSH0 REVERT JUMPDEST POP POP POP POP PUSH1 0x40 MLOAD RETURNDATASIZE PUSH1 0x1F NOT PUSH1 0x1F DUP3 ADD AND DUP3 ADD DUP1 PUSH1 0x40 MSTORE POP DUP2 ADD SWAP1 PUSH2 0x2C5E SWAP2 SWAP1 PUSH2 0x3EFD JUMP JUMPDEST DUP2 PUSH1 0x1 DUP2 MLOAD DUP2 LT PUSH2 0x2C71 JUMPI PUSH2 0x2C71 PUSH2 0x3ED1 JUMP JUMPDEST PUSH1 0x1 PUSH1 0x1 PUSH1 0xA0 SHL SUB SWAP3 DUP4 AND PUSH1 0x20 SWAP2 DUP3 MUL SWAP3 SWAP1 SWAP3 ADD ADD MSTORE PUSH1 0x2A SLOAD PUSH2 0x2C97 SWAP2 ADDRESS SWAP2 AND DUP5 PUSH2 0x26FB JUMP JUMPDEST PUSH1 0x2A SLOAD PUSH1 0x40 MLOAD PUSH4 0x791AC947 PUSH1 0xE0 SHL DUP2 MSTORE PUSH1 0x1 PUSH1 0x1 PUSH1 0xA0 SHL SUB SWAP1 SWAP2 AND SWAP1 PUSH4 0x791AC947 SWAP1 PUSH2 0x2CCF SWAP1 DUP6 SWAP1 PUSH0 SWAP1 DUP7 SWAP1 ADDRESS SWAP1 TIMESTAMP SWAP1 PUSH1 0x4 ADD PUSH2 0x3F7D JUMP JUMPDEST PUSH0 PUSH1 0x40 MLOAD DUP1 DUP4 SUB DUP2 PUSH0 DUP8 DUP1 EXTCODESIZE ISZERO DUP1 ISZERO PUSH2 0x2CE6 JUMPI PUSH0 DUP1 REVERT JUMPDEST POP GAS CALL ISZERO DUP1 ISZERO PUSH2 0x2CF8 JUMPI RETURNDATASIZE PUSH0 DUP1 RETURNDATACOPY RETURNDATASIZE PUSH0 REVERT JUMPDEST POP POP PUSH1 0x2B DUP1 SLOAD PUSH1 0xFF PUSH1 0xA8 SHL NOT AND SWAP1 SSTORE POP POP POP POP JUMP JUMPDEST PUSH0 PUSH2 0x2D4E DUP4 DUP4 PUSH1 0x40 MLOAD DUP1 PUSH1 0x40 ADD PUSH1 0x40 MSTORE DUP1 PUSH1 0x1A DUP2 MSTORE PUSH1 0x20 ADD PUSH32 0x536166654D6174683A206469766973696F6E206279207A65726F000000000000 DUP2 MSTORE POP PUSH2 0x3893 JUMP JUMPDEST SWAP4 SWAP3 POP POP POP JUMP JUMPDEST PUSH1 0x40 MLOAD PUSH4 0x58545241 PUSH1 0xE0 SHL PUSH1 0x20 DUP3 ADD MSTORE PUSH1 0x24 ADD PUSH1 0x40 MLOAD PUSH1 0x20 DUP2 DUP4 SUB SUB DUP2 MSTORE SWAP1 PUSH1 0x40 MSTORE DUP1 MLOAD SWAP1 PUSH1 0x20 ADD KECCAK256 DUP7 PUSH1 0x40 MLOAD PUSH1 0x20 ADD PUSH2 0x2D8F SWAP2 SWAP1 PUSH2 0x3E72 JUMP JUMPDEST PUSH1 0x40 MLOAD PUSH1 0x20 DUP2 DUP4 SUB SUB DUP2 MSTORE SWAP1 PUSH1 0x40 MSTORE DUP1 MLOAD SWAP1 PUSH1 0x20 ADD KECCAK256 SUB PUSH2 0x2DBB JUMPI PUSH2 0x2DB4 DUP6 DUP6 PUSH2 0x3E5F JUMP JUMPDEST SWAP4 POP PUSH2 0x2EE7 JUMP JUMPDEST PUSH1 0x40 MLOAD PUSH5 0x1093D3D4D5 PUSH1 0xDA SHL PUSH1 0x20 DUP3 ADD MSTORE PUSH1 0x25 ADD PUSH1 0x40 MLOAD PUSH1 0x20 DUP2 DUP4 SUB SUB DUP2 MSTORE SWAP1 PUSH1 0x40 MSTORE DUP1 MLOAD SWAP1 PUSH1 0x20 ADD KECCAK256 DUP7 PUSH1 0x40 MLOAD PUSH1 0x20 ADD PUSH2 0x2DF6 SWAP2 SWAP1 PUSH2 0x3E72 JUMP JUMPDEST PUSH1 0x40 MLOAD PUSH1 0x20 DUP2 DUP4 SUB SUB DUP2 MSTORE SWAP1 PUSH1 0x40 MSTORE DUP1 MLOAD SWAP1 PUSH1 0x20 ADD KECCAK256 SUB PUSH2 0x2E22 JUMPI PUSH2 0x2E1B DUP6 DUP5 PUSH2 0x3E5F JUMP JUMPDEST SWAP3 POP PUSH2 0x2EE7 JUMP JUMPDEST PUSH1 0x40 MLOAD PUSH1 0x2B PUSH1 0xF9 SHL PUSH1 0x20 DUP3 ADD MSTORE PUSH1 0x21 ADD PUSH1 0x40 MLOAD PUSH1 0x20 DUP2 DUP4 SUB SUB DUP2 MSTORE SWAP1 PUSH1 0x40 MSTORE DUP1 MLOAD SWAP1 PUSH1 0x20 ADD KECCAK256 DUP7 PUSH1 0x40 MLOAD PUSH1 0x20 ADD PUSH2 0x2E59 SWAP2 SWAP1 PUSH2 0x3E72 JUMP JUMPDEST PUSH1 0x40 MLOAD PUSH1 0x20 DUP2 DUP4 SUB SUB DUP2 MSTORE SWAP1 PUSH1 0x40 MSTORE DUP1 MLOAD SWAP1 PUSH1 0x20 ADD KECCAK256 SUB PUSH2 0x2E85 JUMPI PUSH2 0x2E7E DUP6 DUP4 PUSH2 0x3E5F JUMP JUMPDEST SWAP2 POP PUSH2 0x2EE7 JUMP JUMPDEST PUSH1 0x40 MLOAD PUSH4 0x534B495 PUSH1 0xE4 SHL PUSH1 0x20 DUP3 ADD MSTORE PUSH1 0x24 ADD PUSH1 0x40 MLOAD PUSH1 0x20 DUP2 DUP4 SUB SUB DUP2 MSTORE SWAP1 PUSH1 0x40 MSTORE DUP1 MLOAD SWAP1 PUSH1 0x20 ADD KECCAK256 DUP7 PUSH1 0x40 MLOAD PUSH1 0x20 ADD PUSH2 0x2EBF SWAP2 SWAP1 PUSH2 0x3E72 JUMP JUMPDEST PUSH1 0x40 MLOAD PUSH1 0x20 DUP2 DUP4 SUB SUB DUP2 MSTORE SWAP1 PUSH1 0x40 MSTORE DUP1 MLOAD SWAP1 PUSH1 0x20 ADD KECCAK256 SUB PUSH2 0x2EE7 JUMPI PUSH2 0x2EE4 DUP6 DUP3 PUSH2 0x3E5F JUMP JUMPDEST SWAP1 POP JUMPDEST POP POP POP POP POP POP JUMP JUMPDEST PUSH1 0x40 MLOAD PUSH4 0x58545241 PUSH1 0xE0 SHL PUSH1 0x20 DUP3 ADD MSTORE PUSH1 0x24 ADD PUSH1 0x40 MLOAD PUSH1 0x20 DUP2 DUP4 SUB SUB DUP2 MSTORE SWAP1 PUSH1 0x40 MSTORE DUP1 MLOAD SWAP1 PUSH1 0x20 ADD KECCAK256 DUP4 PUSH1 0x40 MLOAD PUSH1 0x20 ADD PUSH2 0x2F29 SWAP2 SWAP1 PUSH2 0x3E72 JUMP JUMPDEST PUSH1 0x40 MLOAD PUSH1 0x20 DUP2 DUP4 SUB SUB DUP2 MSTORE SWAP1 PUSH1 0x40 MSTORE DUP1 MLOAD SWAP1 PUSH1 0x20 ADD KECCAK256 SUB PUSH2 0x2F76 JUMPI PUSH1 0x1 PUSH1 0x1 PUSH1 0xA0 SHL SUB DUP2 AND PUSH0 SWAP1 DUP2 MSTORE PUSH1 0xB PUSH1 0x20 MSTORE PUSH1 0x40 DUP2 KECCAK256 DUP1 SLOAD DUP5 SWAP3 SWAP1 PUSH2 0x2F6B SWAP1 DUP5 SWAP1 PUSH2 0x3E5F JUMP JUMPDEST SWAP1 SWAP2 SSTORE POP PUSH2 0x3126 SWAP1 POP JUMP JUMPDEST PUSH1 0x40 MLOAD PUSH5 0x1093D3D4D5 PUSH1 0xDA SHL PUSH1 0x20 DUP3 ADD MSTORE PUSH1 0x25 ADD PUSH1 0x40 MLOAD PUSH1 0x20 DUP2 DUP4 SUB SUB DUP2 MSTORE SWAP1 PUSH1 0x40 MSTORE DUP1 MLOAD SWAP1 PUSH1 0x20 ADD KECCAK256 DUP4 PUSH1 0x40 MLOAD PUSH1 0x20 ADD PUSH2 0x2FB1 SWAP2 SWAP1 PUSH2 0x3E72 JUMP JUMPDEST PUSH1 0x40 MLOAD PUSH1 0x20 DUP2 DUP4 SUB SUB DUP2 MSTORE SWAP1 PUSH1 0x40 MSTORE DUP1 MLOAD SWAP1 PUSH1 0x20 ADD KECCAK256 SUB PUSH2 0x2FF3 JUMPI PUSH1 0x1 PUSH1 0x1 PUSH1 0xA0 SHL SUB DUP2 AND PUSH0 SWAP1 DUP2 MSTORE PUSH1 0xC PUSH1 0x20 MSTORE PUSH1 0x40 DUP2 KECCAK256 DUP1 SLOAD DUP5 SWAP3 SWAP1 PUSH2 0x2F6B SWAP1 DUP5 SWAP1 PUSH2 0x3E5F JUMP JUMPDEST PUSH1 0x40 MLOAD PUSH1 0x2B PUSH1 0xF9 SHL PUSH1 0x20 DUP3 ADD MSTORE PUSH1 0x21 ADD PUSH1 0x40 MLOAD PUSH1 0x20 DUP2 DUP4 SUB SUB DUP2 MSTORE SWAP1 PUSH1 0x40 MSTORE DUP1 MLOAD SWAP1 PUSH1 0x20 ADD KECCAK256 DUP4 PUSH1 0x40 MLOAD PUSH1 0x20 ADD PUSH2 0x302A SWAP2 SWAP1 PUSH2 0x3E72 JUMP JUMPDEST PUSH1 0x40 MLOAD PUSH1 0x20 DUP2 DUP4 SUB SUB DUP2 MSTORE SWAP1 PUSH1 0x40 MSTORE DUP1 MLOAD SWAP1 PUSH1 0x20 ADD KECCAK256 SUB PUSH2 0x306C JUMPI PUSH1 0x1 PUSH1 0x1 PUSH1 0xA0 SHL SUB DUP2 AND PUSH0 SWAP1 DUP2 MSTORE PUSH1 0xD PUSH1 0x20 MSTORE PUSH1 0x40 DUP2 KECCAK256 DUP1 SLOAD DUP5 SWAP3 SWAP1 PUSH2 0x2F6B SWAP1 DUP5 SWAP1 PUSH2 0x3E5F JUMP JUMPDEST PUSH1 0x40 MLOAD PUSH4 0x534B495 PUSH1 0xE4 SHL PUSH1 0x20 DUP3 ADD MSTORE PUSH1 0x24 ADD PUSH1 0x40 MLOAD PUSH1 0x20 DUP2 DUP4 SUB SUB DUP2 MSTORE SWAP1 PUSH1 0x40 MSTORE DUP1 MLOAD SWAP1 PUSH1 0x20 ADD KECCAK256 DUP4 PUSH1 0x40 MLOAD PUSH1 0x20 ADD PUSH2 0x30A6 SWAP2 SWAP1 PUSH2 0x3E72 JUMP JUMPDEST PUSH1 0x40 MLOAD PUSH1 0x20 DUP2 DUP4 SUB SUB DUP2 MSTORE SWAP1 PUSH1 0x40 MSTORE DUP1 MLOAD SWAP1 PUSH1 0x20 ADD KECCAK256 SUB PUSH2 0x30E8 JUMPI PUSH1 0x1 PUSH1 0x1 PUSH1 0xA0 SHL SUB DUP2 AND PUSH0 SWAP1 DUP2 MSTORE PUSH1 0xE PUSH1 0x20 MSTORE PUSH1 0x40 DUP2 KECCAK256 DUP1 SLOAD DUP5 SWAP3 SWAP1 PUSH2 0x2F6B SWAP1 DUP5 SWAP1 PUSH2 0x3E5F JUMP JUMPDEST PUSH1 0x40 MLOAD PUSH3 0x461BCD PUSH1 0xE5 SHL DUP2 MSTORE PUSH1 0x20 PUSH1 0x4 DUP3 ADD MSTORE PUSH1 0x13 PUSH1 0x24 DUP3 ADD MSTORE PUSH19 0x496E76616C696420506F74696F6E204E616D65 PUSH1 0x68 SHL PUSH1 0x44 DUP3 ADD MSTORE PUSH1 0x64 ADD PUSH2 0xBF9 JUMP JUMPDEST DUP1 PUSH1 0x1 PUSH1 0x1 PUSH1 0xA0 SHL SUB AND CALLER PUSH1 0x1 PUSH1 0x1 PUSH1 0xA0 SHL SUB AND PUSH32 0x3D57EEC5AB68AE7C8F1ED6299A36D8E6F61253E0F24AC6ABA38BC3FCBE7BC7AE DUP6 PUSH0 DUP1 PUSH1 0x40 MLOAD PUSH2 0x2812 SWAP4 SWAP3 SWAP2 SWAP1 PUSH2 0x3FEC JUMP JUMPDEST DUP2 PUSH0 SUB PUSH2 0x3179 JUMPI POP POP POP JUMP JUMPDEST PUSH0 DUP1 PUSH1 0x40 MLOAD PUSH1 0x20 ADD PUSH2 0x3195 SWAP1 PUSH4 0x58545241 PUSH1 0xE0 SHL DUP2 MSTORE PUSH1 0x4 ADD SWAP1 JUMP JUMPDEST PUSH1 0x40 MLOAD PUSH1 0x20 DUP2 DUP4 SUB SUB DUP2 MSTORE SWAP1 PUSH1 0x40 MSTORE DUP1 MLOAD SWAP1 PUSH1 0x20 ADD KECCAK256 DUP6 PUSH1 0x40 MLOAD PUSH1 0x20 ADD PUSH2 0x31BC SWAP2 SWAP1 PUSH2 0x3E72 JUMP JUMPDEST PUSH1 0x40 MLOAD PUSH1 0x20 DUP2 DUP4 SUB SUB DUP2 MSTORE SWAP1 PUSH1 0x40 MSTORE DUP1 MLOAD SWAP1 PUSH1 0x20 ADD KECCAK256 SUB PUSH2 0x3337 JUMPI PUSH1 0x22 SLOAD PUSH2 0x31E4 SWAP1 DUP6 PUSH2 0x3762 JUMP JUMPDEST PUSH1 0x26 SLOAD SWAP1 SWAP3 POP PUSH2 0x31F4 SWAP1 DUP6 PUSH2 0x3762 JUMP JUMPDEST PUSH1 0x1 PUSH1 0x1 PUSH1 0xA0 SHL SUB DUP5 AND PUSH0 SWAP1 DUP2 MSTORE PUSH1 0x9 PUSH1 0x20 MSTORE PUSH1 0x40 SWAP1 KECCAK256 SLOAD SWAP1 SWAP2 POP DUP3 GT ISZERO PUSH2 0x322E JUMPI PUSH1 0x40 MLOAD PUSH3 0x461BCD PUSH1 0xE5 SHL DUP2 MSTORE PUSH1 0x4 ADD PUSH2 0xBF9 SWAP1 PUSH2 0x4010 JUMP JUMPDEST PUSH1 0x1 PUSH1 0x1 PUSH1 0xA0 SHL SUB DUP4 AND PUSH0 SWAP1 DUP2 MSTORE PUSH1 0xA PUSH1 0x20 MSTORE PUSH1 0x40 SWAP1 KECCAK256 SLOAD DUP2 GT ISZERO PUSH2 0x3265 JUMPI PUSH1 0x40 MLOAD PUSH3 0x461BCD PUSH1 0xE5 SHL DUP2 MSTORE PUSH1 0x4 ADD PUSH2 0xBF9 SWAP1 PUSH2 0x4051 JUMP JUMPDEST PUSH1 0x1 PUSH1 0x1 PUSH1 0xA0 SHL SUB DUP4 AND PUSH0 SWAP1 DUP2 MSTORE PUSH1 0x9 PUSH1 0x20 MSTORE PUSH1 0x40 DUP2 KECCAK256 DUP1 SLOAD DUP5 SWAP3 SWAP1 PUSH2 0x328C SWAP1 DUP5 SWAP1 PUSH2 0x3CF9 JUMP JUMPDEST SWAP1 SWAP2 SSTORE POP POP PUSH1 0x1 PUSH1 0x1 PUSH1 0xA0 SHL SUB DUP4 AND PUSH0 SWAP1 DUP2 MSTORE PUSH1 0xA PUSH1 0x20 MSTORE PUSH1 0x40 DUP2 KECCAK256 DUP1 SLOAD DUP4 SWAP3 SWAP1 PUSH2 0x32B8 SWAP1 DUP5 SWAP1 PUSH2 0x3CF9 JUMP JUMPDEST SWAP1 SWAP2 SSTORE POP POP PUSH1 0x1 PUSH1 0x1 PUSH1 0xA0 SHL SUB DUP4 AND PUSH0 SWAP1 DUP2 MSTORE PUSH1 0xB PUSH1 0x20 MSTORE PUSH1 0x40 DUP2 KECCAK256 DUP1 SLOAD DUP7 SWAP3 SWAP1 PUSH2 0x32E4 SWAP1 DUP5 SWAP1 PUSH2 0x3E5F JUMP JUMPDEST SWAP1 SWAP2 SSTORE POP POP PUSH1 0x40 MLOAD PUSH1 0x1 PUSH1 0x1 PUSH1 0xA0 SHL SUB DUP5 AND SWAP1 CALLER SWAP1 PUSH32 0x3D57EEC5AB68AE7C8F1ED6299A36D8E6F61253E0F24AC6ABA38BC3FCBE7BC7AE SWAP1 PUSH2 0x332A SWAP1 DUP10 SWAP1 DUP7 SWAP1 DUP9 SWAP1 PUSH2 0x3FEC JUMP JUMPDEST PUSH1 0x40 MLOAD DUP1 SWAP2 SUB SWAP1 LOG3 PUSH2 0x375B JUMP JUMPDEST PUSH1 0x40 MLOAD PUSH5 0x1093D3D4D5 PUSH1 0xDA SHL PUSH1 0x20 DUP3 ADD MSTORE PUSH1 0x25 ADD PUSH1 0x40 MLOAD PUSH1 0x20 DUP2 DUP4 SUB SUB DUP2 MSTORE SWAP1 PUSH1 0x40 MSTORE DUP1 MLOAD SWAP1 PUSH1 0x20 ADD KECCAK256 DUP6 PUSH1 0x40 MLOAD PUSH1 0x20 ADD PUSH2 0x3372 SWAP2 SWAP1 PUSH2 0x3E72 JUMP JUMPDEST PUSH1 0x40 MLOAD PUSH1 0x20 DUP2 DUP4 SUB SUB DUP2 MSTORE SWAP1 PUSH1 0x40 MSTORE DUP1 MLOAD SWAP1 PUSH1 0x20 ADD KECCAK256 SUB PUSH2 0x349A JUMPI PUSH1 0x23 SLOAD PUSH2 0x339A SWAP1 DUP6 PUSH2 0x3762 JUMP JUMPDEST PUSH1 0x27 SLOAD SWAP1 SWAP3 POP PUSH2 0x33AA SWAP1 DUP6 PUSH2 0x3762 JUMP JUMPDEST PUSH1 0x1 PUSH1 0x1 PUSH1 0xA0 SHL SUB DUP5 AND PUSH0 SWAP1 DUP2 MSTORE PUSH1 0x9 PUSH1 0x20 MSTORE PUSH1 0x40 SWAP1 KECCAK256 SLOAD SWAP1 SWAP2 POP DUP3 GT ISZERO PUSH2 0x33E4 JUMPI PUSH1 0x40 MLOAD PUSH3 0x461BCD PUSH1 0xE5 SHL DUP2 MSTORE PUSH1 0x4 ADD PUSH2 0xBF9 SWAP1 PUSH2 0x4010 JUMP JUMPDEST PUSH1 0x1 PUSH1 0x1 PUSH1 0xA0 SHL SUB DUP4 AND PUSH0 SWAP1 DUP2 MSTORE PUSH1 0xA PUSH1 0x20 MSTORE PUSH1 0x40 SWAP1 KECCAK256 SLOAD DUP2 GT ISZERO PUSH2 0x341B JUMPI PUSH1 0x40 MLOAD PUSH3 0x461BCD PUSH1 0xE5 SHL DUP2 MSTORE PUSH1 0x4 ADD PUSH2 0xBF9 SWAP1 PUSH2 0x4051 JUMP JUMPDEST PUSH1 0x1 PUSH1 0x1 PUSH1 0xA0 SHL SUB DUP4 AND PUSH0 SWAP1 DUP2 MSTORE PUSH1 0x9 PUSH1 0x20 MSTORE PUSH1 0x40 DUP2 KECCAK256 DUP1 SLOAD DUP5 SWAP3 SWAP1 PUSH2 0x3442 SWAP1 DUP5 SWAP1 PUSH2 0x3CF9 JUMP JUMPDEST SWAP1 SWAP2 SSTORE POP POP PUSH1 0x1 PUSH1 0x1 PUSH1 0xA0 SHL SUB DUP4 AND PUSH0 SWAP1 DUP2 MSTORE PUSH1 0xA PUSH1 0x20 MSTORE PUSH1 0x40 DUP2 KECCAK256 DUP1 SLOAD DUP4 SWAP3 SWAP1 PUSH2 0x346E SWAP1 DUP5 SWAP1 PUSH2 0x3CF9 JUMP JUMPDEST SWAP1 SWAP2 SSTORE POP POP PUSH1 0x1 PUSH1 0x1 PUSH1 0xA0 SHL SUB DUP4 AND PUSH0 SWAP1 DUP2 MSTORE PUSH1 0xC PUSH1 0x20 MSTORE PUSH1 0x40 DUP2 KECCAK256 DUP1 SLOAD DUP7 SWAP3 SWAP1 PUSH2 0x32E4 SWAP1 DUP5 SWAP1 PUSH2 0x3E5F JUMP JUMPDEST PUSH1 0x40 MLOAD PUSH1 0x2B PUSH1 0xF9 SHL PUSH1 0x20 DUP3 ADD MSTORE PUSH1 0x21 ADD PUSH1 0x40 MLOAD PUSH1 0x20 DUP2 DUP4 SUB SUB DUP2 MSTORE SWAP1 PUSH1 0x40 MSTORE DUP1 MLOAD SWAP1 PUSH1 0x20 ADD KECCAK256 DUP6 PUSH1 0x40 MLOAD PUSH1 0x20 ADD PUSH2 0x34D1 SWAP2 SWAP1 PUSH2 0x3E72 JUMP JUMPDEST PUSH1 0x40 MLOAD PUSH1 0x20 DUP2 DUP4 SUB SUB DUP2 MSTORE SWAP1 PUSH1 0x40 MSTORE DUP1 MLOAD SWAP1 PUSH1 0x20 ADD KECCAK256 SUB PUSH2 0x35F9 JUMPI PUSH1 0x24 SLOAD PUSH2 0x34F9 SWAP1 DUP6 PUSH2 0x3762 JUMP JUMPDEST PUSH1 0x28 SLOAD SWAP1 SWAP3 POP PUSH2 0x3509 SWAP1 DUP6 PUSH2 0x3762 JUMP JUMPDEST PUSH1 0x1 PUSH1 0x1 PUSH1 0xA0 SHL SUB DUP5 AND PUSH0 SWAP1 DUP2 MSTORE PUSH1 0x9 PUSH1 0x20 MSTORE PUSH1 0x40 SWAP1 KECCAK256 SLOAD SWAP1 SWAP2 POP DUP3 GT ISZERO PUSH2 0x3543 JUMPI PUSH1 0x40 MLOAD PUSH3 0x461BCD PUSH1 0xE5 SHL DUP2 MSTORE PUSH1 0x4 ADD PUSH2 0xBF9 SWAP1 PUSH2 0x4010 JUMP JUMPDEST PUSH1 0x1 PUSH1 0x1 PUSH1 0xA0 SHL SUB DUP4 AND PUSH0 SWAP1 DUP2 MSTORE PUSH1 0xA PUSH1 0x20 MSTORE PUSH1 0x40 SWAP1 KECCAK256 SLOAD DUP2 GT ISZERO PUSH2 0x357A JUMPI PUSH1 0x40 MLOAD PUSH3 0x461BCD PUSH1 0xE5 SHL DUP2 MSTORE PUSH1 0x4 ADD PUSH2 0xBF9 SWAP1 PUSH2 0x4051 JUMP JUMPDEST PUSH1 0x1 PUSH1 0x1 PUSH1 0xA0 SHL SUB DUP4 AND PUSH0 SWAP1 DUP2 MSTORE PUSH1 0x9 PUSH1 0x20 MSTORE PUSH1 0x40 DUP2 KECCAK256 DUP1 SLOAD DUP5 SWAP3 SWAP1 PUSH2 0x35A1 SWAP1 DUP5 SWAP1 PUSH2 0x3CF9 JUMP JUMPDEST SWAP1 SWAP2 SSTORE POP POP PUSH1 0x1 PUSH1 0x1 PUSH1 0xA0 SHL SUB DUP4 AND PUSH0 SWAP1 DUP2 MSTORE PUSH1 0xA PUSH1 0x20 MSTORE PUSH1 0x40 DUP2 KECCAK256 DUP1 SLOAD DUP4 SWAP3 SWAP1 PUSH2 0x35CD SWAP1 DUP5 SWAP1 PUSH2 0x3CF9 JUMP JUMPDEST SWAP1 SWAP2 SSTORE POP POP PUSH1 0x1 PUSH1 0x1 PUSH1 0xA0 SHL SUB DUP4 AND PUSH0 SWAP1 DUP2 MSTORE PUSH1 0xD PUSH1 0x20 MSTORE PUSH1 0x40 DUP2 KECCAK256 DUP1 SLOAD DUP7 SWAP3 SWAP1 PUSH2 0x32E4 SWAP1 DUP5 SWAP1 PUSH2 0x3E5F JUMP JUMPDEST PUSH1 0x40 MLOAD PUSH4 0x534B495 PUSH1 0xE4 SHL PUSH1 0x20 DUP3 ADD MSTORE PUSH1 0x24 ADD PUSH1 0x40 MLOAD PUSH1 0x20 DUP2 DUP4 SUB SUB DUP2 MSTORE SWAP1 PUSH1 0x40 MSTORE DUP1 MLOAD SWAP1 PUSH1 0x20 ADD KECCAK256 DUP6 PUSH1 0x40 MLOAD PUSH1 0x20 ADD PUSH2 0x3633 SWAP2 SWAP1 PUSH2 0x3E72 JUMP JUMPDEST PUSH1 0x40 MLOAD PUSH1 0x20 DUP2 DUP4 SUB SUB DUP2 MSTORE SWAP1 PUSH1 0x40 MSTORE DUP1 MLOAD SWAP1 PUSH1 0x20 ADD KECCAK256 SUB PUSH2 0x30E8 JUMPI PUSH1 0x25 SLOAD PUSH2 0x365B SWAP1 DUP6 PUSH2 0x3762 JUMP JUMPDEST PUSH1 0x29 SLOAD SWAP1 SWAP3 POP PUSH2 0x366B SWAP1 DUP6 PUSH2 0x3762 JUMP JUMPDEST PUSH1 0x1 PUSH1 0x1 PUSH1 0xA0 SHL SUB DUP5 AND PUSH0 SWAP1 DUP2 MSTORE PUSH1 0x9 PUSH1 0x20 MSTORE PUSH1 0x40 SWAP1 KECCAK256 SLOAD SWAP1 SWAP2 POP DUP3 GT ISZERO PUSH2 0x36A5 JUMPI PUSH1 0x40 MLOAD PUSH3 0x461BCD PUSH1 0xE5 SHL DUP2 MSTORE PUSH1 0x4 ADD PUSH2 0xBF9 SWAP1 PUSH2 0x4010 JUMP JUMPDEST PUSH1 0x1 PUSH1 0x1 PUSH1 0xA0 SHL SUB DUP4 AND PUSH0 SWAP1 DUP2 MSTORE PUSH1 0xA PUSH1 0x20 MSTORE PUSH1 0x40 SWAP1 KECCAK256 SLOAD DUP2 GT ISZERO PUSH2 0x36DC JUMPI PUSH1 0x40 MLOAD PUSH3 0x461BCD PUSH1 0xE5 SHL DUP2 MSTORE PUSH1 0x4 ADD PUSH2 0xBF9 SWAP1 PUSH2 0x4051 JUMP JUMPDEST PUSH1 0x1 PUSH1 0x1 PUSH1 0xA0 SHL SUB DUP4 AND PUSH0 SWAP1 DUP2 MSTORE PUSH1 0x9 PUSH1 0x20 MSTORE PUSH1 0x40 DUP2 KECCAK256 DUP1 SLOAD DUP5 SWAP3 SWAP1 PUSH2 0x3703 SWAP1 DUP5 SWAP1 PUSH2 0x3CF9 JUMP JUMPDEST SWAP1 SWAP2 SSTORE POP POP PUSH1 0x1 PUSH1 0x1 PUSH1 0xA0 SHL SUB DUP4 AND PUSH0 SWAP1 DUP2 MSTORE PUSH1 0xA PUSH1 0x20 MSTORE PUSH1 0x40 DUP2 KECCAK256 DUP1 SLOAD DUP4 SWAP3 SWAP1 PUSH2 0x372F SWAP1 DUP5 SWAP1 PUSH2 0x3CF9 JUMP JUMPDEST SWAP1 SWAP2 SSTORE POP POP PUSH1 0x1 PUSH1 0x1 PUSH1 0xA0 SHL SUB DUP4 AND PUSH0 SWAP1 DUP2 MSTORE PUSH1 0xE PUSH1 0x20 MSTORE PUSH1 0x40 DUP2 KECCAK256 DUP1 SLOAD DUP7 SWAP3 SWAP1 PUSH2 0x32E4 SWAP1 DUP5 SWAP1 PUSH2 0x3E5F JUMP JUMPDEST POP POP POP POP POP JUMP JUMPDEST PUSH0 DUP3 PUSH0 SUB PUSH2 0x3771 JUMPI POP PUSH0 PUSH2 0xC7F JUMP JUMPDEST PUSH0 PUSH2 0x377C DUP4 DUP6 PUSH2 0x3E48 JUMP JUMPDEST SWAP1 POP DUP3 PUSH2 0x3789 DUP6 DUP4 PUSH2 0x3F5E JUMP JUMPDEST EQ PUSH2 0x2D4E JUMPI PUSH1 0x40 MLOAD PUSH3 0x461BCD PUSH1 0xE5 SHL DUP2 MSTORE PUSH1 0x20 PUSH1 0x4 DUP3 ADD MSTORE PUSH1 0x21 PUSH1 0x24 DUP3 ADD MSTORE PUSH32 0x536166654D6174683A206D756C7469706C69636174696F6E206F766572666C6F PUSH1 0x44 DUP3 ADD MSTORE PUSH1 0x77 PUSH1 0xF8 SHL PUSH1 0x64 DUP3 ADD MSTORE PUSH1 0x84 ADD PUSH2 0xBF9 JUMP JUMPDEST PUSH0 DUP2 DUP4 GT PUSH2 0x37EE JUMPI DUP3 PUSH2 0x2D4E JUMP JUMPDEST POP SWAP2 SWAP1 POP JUMP JUMPDEST PUSH0 PUSH2 0x2D4E DUP4 DUP4 PUSH1 0x40 MLOAD DUP1 PUSH1 0x40 ADD PUSH1 0x40 MSTORE DUP1 PUSH1 0x1E DUP2 MSTORE PUSH1 0x20 ADD PUSH32 0x536166654D6174683A207375627472616374696F6E206F766572666C6F770000 DUP2 MSTORE POP PUSH2 0x281F JUMP JUMPDEST PUSH0 DUP1 PUSH2 0x3841 DUP4 DUP6 PUSH2 0x3E5F JUMP JUMPDEST SWAP1 POP DUP4 DUP2 LT ISZERO PUSH2 0x2D4E JUMPI PUSH1 0x40 MLOAD PUSH3 0x461BCD PUSH1 0xE5 SHL DUP2 MSTORE PUSH1 0x20 PUSH1 0x4 DUP3 ADD MSTORE PUSH1 0x1B PUSH1 0x24 DUP3 ADD MSTORE PUSH32 0x536166654D6174683A206164646974696F6E206F766572666C6F770000000000 PUSH1 0x44 DUP3 ADD MSTORE PUSH1 0x64 ADD PUSH2 0xBF9 JUMP JUMPDEST PUSH0 DUP2 DUP4 PUSH2 0x38B3 JUMPI PUSH1 0x40 MLOAD PUSH3 0x461BCD PUSH1 0xE5 SHL DUP2 MSTORE PUSH1 0x4 ADD PUSH2 0xBF9 SWAP2 SWAP1 PUSH2 0x3971 JUMP JUMPDEST POP PUSH0 PUSH2 0x284E DUP5 DUP7 PUSH2 0x3F5E JUMP JUMPDEST PUSH0 PUSH1 0x20 DUP3 DUP5 SUB SLT ISZERO PUSH2 0x38CF JUMPI PUSH0 DUP1 REVERT JUMPDEST POP CALLDATALOAD SWAP2 SWAP1 POP JUMP JUMPDEST PUSH1 0x1 PUSH1 0x1 PUSH1 0xA0 SHL SUB DUP2 AND DUP2 EQ PUSH2 0x20C9 JUMPI PUSH0 DUP1 REVERT JUMPDEST DUP1 CALLDATALOAD PUSH2 0x38F5 DUP2 PUSH2 0x38D6 JUMP JUMPDEST SWAP2 SWAP1 POP JUMP JUMPDEST PUSH0 DUP1 PUSH1 0x40 DUP4 DUP6 SUB SLT ISZERO PUSH2 0x390B JUMPI PUSH0 DUP1 REVERT JUMPDEST DUP3 CALLDATALOAD PUSH2 0x3916 DUP2 PUSH2 0x38D6 JUMP JUMPDEST SWAP5 PUSH1 0x20 SWAP4 SWAP1 SWAP4 ADD CALLDATALOAD SWAP4 POP POP POP JUMP JUMPDEST PUSH0 JUMPDEST DUP4 DUP2 LT ISZERO PUSH2 0x393E JUMPI DUP2 DUP2 ADD MLOAD DUP4 DUP3 ADD MSTORE PUSH1 0x20 ADD PUSH2 0x3926 JUMP JUMPDEST POP POP PUSH0 SWAP2 ADD MSTORE JUMP JUMPDEST PUSH0 DUP2 MLOAD DUP1 DUP5 MSTORE PUSH2 0x395D DUP2 PUSH1 0x20 DUP7 ADD PUSH1 0x20 DUP7 ADD PUSH2 0x3924 JUMP JUMPDEST PUSH1 0x1F ADD PUSH1 0x1F NOT AND SWAP3 SWAP1 SWAP3 ADD PUSH1 0x20 ADD SWAP3 SWAP2 POP POP JUMP JUMPDEST PUSH1 0x20 DUP2 MSTORE PUSH0 PUSH2 0x2D4E PUSH1 0x20 DUP4 ADD DUP5 PUSH2 0x3946 JUMP JUMPDEST PUSH0 DUP1 PUSH1 0x40 DUP4 DUP6 SUB SLT ISZERO PUSH2 0x3994 JUMPI PUSH0 DUP1 REVERT JUMPDEST POP POP DUP1 CALLDATALOAD SWAP3 PUSH1 0x20 SWAP1 SWAP2 ADD CALLDATALOAD SWAP2 POP JUMP JUMPDEST PUSH0 PUSH1 0x20 DUP3 DUP5 SUB SLT ISZERO PUSH2 0x39B3 JUMPI PUSH0 DUP1 REVERT JUMPDEST DUP2 CALLDATALOAD PUSH2 0x2D4E DUP2 PUSH2 0x38D6 JUMP JUMPDEST PUSH0 DUP1 PUSH0 PUSH1 0x60 DUP5 DUP7 SUB SLT ISZERO PUSH2 0x39D0 JUMPI PUSH0 DUP1 REVERT JUMPDEST DUP4 CALLDATALOAD PUSH2 0x39DB DUP2 PUSH2 0x38D6 JUMP JUMPDEST SWAP3 POP PUSH1 0x20 DUP5 ADD CALLDATALOAD PUSH2 0x39EB DUP2 PUSH2 0x38D6 JUMP JUMPDEST SWAP3 SWAP6 SWAP3 SWAP5 POP POP POP PUSH1 0x40 SWAP2 SWAP1 SWAP2 ADD CALLDATALOAD SWAP1 JUMP JUMPDEST PUSH4 0x4E487B71 PUSH1 0xE0 SHL PUSH0 MSTORE PUSH1 0x41 PUSH1 0x4 MSTORE PUSH1 0x24 PUSH0 REVERT JUMPDEST PUSH1 0x40 MLOAD PUSH1 0x1F DUP3 ADD PUSH1 0x1F NOT AND DUP2 ADD PUSH8 0xFFFFFFFFFFFFFFFF DUP2 GT DUP3 DUP3 LT OR ISZERO PUSH2 0x3A39 JUMPI PUSH2 0x3A39 PUSH2 0x39FC JUMP JUMPDEST PUSH1 0x40 MSTORE SWAP2 SWAP1 POP JUMP JUMPDEST PUSH0 PUSH8 0xFFFFFFFFFFFFFFFF DUP3 GT ISZERO PUSH2 0x3A5A JUMPI PUSH2 0x3A5A PUSH2 0x39FC JUMP JUMPDEST POP PUSH1 0x5 SHL PUSH1 0x20 ADD SWAP1 JUMP JUMPDEST PUSH0 DUP3 PUSH1 0x1F DUP4 ADD SLT PUSH2 0x3A73 JUMPI PUSH0 DUP1 REVERT JUMPDEST DUP2 CALLDATALOAD PUSH1 0x20 PUSH2 0x3A88 PUSH2 0x3A83 DUP4 PUSH2 0x3A41 JUMP JUMPDEST PUSH2 0x3A10 JUMP JUMPDEST DUP3 DUP2 MSTORE PUSH1 0x5 SWAP3 SWAP1 SWAP3 SHL DUP5 ADD DUP2 ADD SWAP2 DUP2 DUP2 ADD SWAP1 DUP7 DUP5 GT ISZERO PUSH2 0x3AA6 JUMPI PUSH0 DUP1 REVERT JUMPDEST DUP3 DUP7 ADD JUMPDEST DUP5 DUP2 LT ISZERO PUSH2 0x3AC1 JUMPI DUP1 CALLDATALOAD DUP4 MSTORE SWAP2 DUP4 ADD SWAP2 DUP4 ADD PUSH2 0x3AAA JUMP JUMPDEST POP SWAP7 SWAP6 POP POP POP POP POP POP JUMP JUMPDEST PUSH0 DUP3 PUSH1 0x1F DUP4 ADD SLT PUSH2 0x3ADB JUMPI PUSH0 DUP1 REVERT JUMPDEST DUP2 CALLDATALOAD PUSH8 0xFFFFFFFFFFFFFFFF DUP2 GT ISZERO PUSH2 0x3AF5 JUMPI PUSH2 0x3AF5 PUSH2 0x39FC JUMP JUMPDEST PUSH2 0x3B08 PUSH1 0x1F DUP3 ADD PUSH1 0x1F NOT AND PUSH1 0x20 ADD PUSH2 0x3A10 JUMP JUMPDEST DUP2 DUP2 MSTORE DUP5 PUSH1 0x20 DUP4 DUP7 ADD ADD GT ISZERO PUSH2 0x3B1C JUMPI PUSH0 DUP1 REVERT JUMPDEST DUP2 PUSH1 0x20 DUP6 ADD PUSH1 0x20 DUP4 ADD CALLDATACOPY PUSH0 SWAP2 DUP2 ADD PUSH1 0x20 ADD SWAP2 SWAP1 SWAP2 MSTORE SWAP4 SWAP3 POP POP POP JUMP JUMPDEST PUSH0 DUP1 PUSH0 PUSH1 0x60 DUP5 DUP7 SUB SLT ISZERO PUSH2 0x3B4A JUMPI PUSH0 DUP1 REVERT JUMPDEST DUP4 CALLDATALOAD PUSH2 0x3B55 DUP2 PUSH2 0x38D6 JUMP JUMPDEST SWAP3 POP PUSH1 0x20 DUP5 ADD CALLDATALOAD PUSH8 0xFFFFFFFFFFFFFFFF DUP1 DUP3 GT ISZERO PUSH2 0x3B71 JUMPI PUSH0 DUP1 REVERT JUMPDEST PUSH2 0x3B7D DUP8 DUP4 DUP9 ADD PUSH2 0x3A64 JUMP JUMPDEST SWAP4 POP PUSH1 0x40 DUP7 ADD CALLDATALOAD SWAP2 POP DUP1 DUP3 GT ISZERO PUSH2 0x3B92 JUMPI PUSH0 DUP1 REVERT JUMPDEST POP PUSH2 0x3B9F DUP7 DUP3 DUP8 ADD PUSH2 0x3ACC JUMP JUMPDEST SWAP2 POP POP SWAP3 POP SWAP3 POP SWAP3 JUMP JUMPDEST PUSH0 DUP1 PUSH1 0x40 DUP4 DUP6 SUB SLT ISZERO PUSH2 0x3BBA JUMPI PUSH0 DUP1 REVERT JUMPDEST DUP3 CALLDATALOAD PUSH2 0x3BC5 DUP2 PUSH2 0x38D6 JUMP JUMPDEST SWAP2 POP PUSH1 0x20 DUP4 ADD CALLDATALOAD PUSH2 0x3BD5 DUP2 PUSH2 0x38D6 JUMP JUMPDEST DUP1 SWAP2 POP POP SWAP3 POP SWAP3 SWAP1 POP JUMP JUMPDEST DUP1 ISZERO ISZERO DUP2 EQ PUSH2 0x20C9 JUMPI PUSH0 DUP1 REVERT JUMPDEST DUP1 CALLDATALOAD PUSH2 0x38F5 DUP2 PUSH2 0x3BE0 JUMP JUMPDEST PUSH0 DUP1 PUSH0 DUP1 PUSH1 0x80 DUP6 DUP8 SUB SLT ISZERO PUSH2 0x3C0B JUMPI PUSH0 DUP1 REVERT JUMPDEST DUP5 CALLDATALOAD PUSH8 0xFFFFFFFFFFFFFFFF DUP1 DUP3 GT ISZERO PUSH2 0x3C22 JUMPI PUSH0 DUP1 REVERT JUMPDEST DUP2 DUP8 ADD SWAP2 POP DUP8 PUSH1 0x1F DUP4 ADD SLT PUSH2 0x3C35 JUMPI PUSH0 DUP1 REVERT JUMPDEST DUP2 CALLDATALOAD PUSH1 0x20 PUSH2 0x3C45 PUSH2 0x3A83 DUP4 PUSH2 0x3A41 JUMP JUMPDEST DUP3 DUP2 MSTORE PUSH1 0x5 SWAP3 SWAP1 SWAP3 SHL DUP5 ADD DUP2 ADD SWAP2 DUP2 DUP2 ADD SWAP1 DUP12 DUP5 GT ISZERO PUSH2 0x3C63 JUMPI PUSH0 DUP1 REVERT JUMPDEST DUP3 DUP7 ADD JUMPDEST DUP5 DUP2 LT ISZERO PUSH2 0x3C9A JUMPI DUP1 CALLDATALOAD DUP7 DUP2 GT ISZERO PUSH2 0x3C7E JUMPI PUSH0 DUP1 DUP2 REVERT JUMPDEST PUSH2 0x3C8C DUP15 DUP7 DUP4 DUP12 ADD ADD PUSH2 0x3ACC JUMP JUMPDEST DUP5 MSTORE POP SWAP2 DUP4 ADD SWAP2 DUP4 ADD PUSH2 0x3C67 JUMP JUMPDEST POP SWAP9 POP POP DUP9 ADD CALLDATALOAD SWAP3 POP POP DUP1 DUP3 GT ISZERO PUSH2 0x3CB0 JUMPI PUSH0 DUP1 REVERT JUMPDEST POP PUSH2 0x3CBD DUP8 DUP3 DUP9 ADD PUSH2 0x3A64 JUMP JUMPDEST SWAP4 POP POP PUSH2 0x3CCC PUSH1 0x40 DUP7 ADD PUSH2 0x38EA JUMP JUMPDEST SWAP2 POP PUSH2 0x3CDA PUSH1 0x60 DUP7 ADD PUSH2 0x3BED JUMP JUMPDEST SWAP1 POP SWAP3 SWAP6 SWAP2 SWAP5 POP SWAP3 POP JUMP JUMPDEST PUSH4 0x4E487B71 PUSH1 0xE0 SHL PUSH0 MSTORE PUSH1 0x11 PUSH1 0x4 MSTORE PUSH1 0x24 PUSH0 REVERT JUMPDEST DUP2 DUP2 SUB DUP2 DUP2 GT ISZERO PUSH2 0xC7F JUMPI PUSH2 0xC7F PUSH2 0x3CE5 JUMP JUMPDEST PUSH1 0x20 DUP1 DUP3 MSTORE DUP2 DUP2 ADD MSTORE PUSH32 0x4F776E61626C653A2063616C6C6572206973206E6F7420746865206F776E6572 PUSH1 0x40 DUP3 ADD MSTORE PUSH1 0x60 ADD SWAP1 JUMP JUMPDEST PUSH1 0xFF DUP3 DUP2 AND DUP3 DUP3 AND SUB SWAP1 DUP2 GT ISZERO PUSH2 0xC7F JUMPI PUSH2 0xC7F PUSH2 0x3CE5 JUMP JUMPDEST PUSH1 0x1 DUP2 DUP2 JUMPDEST DUP1 DUP6 GT ISZERO PUSH2 0x3D94 JUMPI DUP2 PUSH0 NOT DIV DUP3 GT ISZERO PUSH2 0x3D7A JUMPI PUSH2 0x3D7A PUSH2 0x3CE5 JUMP JUMPDEST DUP1 DUP6 AND ISZERO PUSH2 0x3D87 JUMPI SWAP2 DUP2 MUL SWAP2 JUMPDEST SWAP4 DUP5 SHR SWAP4 SWAP1 DUP1 MUL SWAP1 PUSH2 0x3D5F JUMP JUMPDEST POP SWAP3 POP SWAP3 SWAP1 POP JUMP JUMPDEST PUSH0 DUP3 PUSH2 0x3DAA JUMPI POP PUSH1 0x1 PUSH2 0xC7F JUMP JUMPDEST DUP2 PUSH2 0x3DB6 JUMPI POP PUSH0 PUSH2 0xC7F JUMP JUMPDEST DUP2 PUSH1 0x1 DUP2 EQ PUSH2 0x3DCC JUMPI PUSH1 0x2 DUP2 EQ PUSH2 0x3DD6 JUMPI PUSH2 0x3DF2 JUMP JUMPDEST PUSH1 0x1 SWAP2 POP POP PUSH2 0xC7F JUMP JUMPDEST PUSH1 0xFF DUP5 GT ISZERO PUSH2 0x3DE7 JUMPI PUSH2 0x3DE7 PUSH2 0x3CE5 JUMP JUMPDEST POP POP PUSH1 0x1 DUP3 SHL PUSH2 0xC7F JUMP JUMPDEST POP PUSH1 0x20 DUP4 LT PUSH2 0x133 DUP4 LT AND PUSH1 0x4E DUP5 LT PUSH1 0xB DUP5 LT AND OR ISZERO PUSH2 0x3E15 JUMPI POP DUP2 DUP2 EXP PUSH2 0xC7F JUMP JUMPDEST PUSH2 0x3E1F DUP4 DUP4 PUSH2 0x3D5A JUMP JUMPDEST DUP1 PUSH0 NOT DIV DUP3 GT ISZERO PUSH2 0x3E32 JUMPI PUSH2 0x3E32 PUSH2 0x3CE5 JUMP JUMPDEST MUL SWAP4 SWAP3 POP POP POP JUMP JUMPDEST PUSH0 PUSH2 0x2D4E PUSH1 0xFF DUP5 AND DUP4 PUSH2 0x3D9C JUMP JUMPDEST DUP1 DUP3 MUL DUP2 ISZERO DUP3 DUP3 DIV DUP5 EQ OR PUSH2 0xC7F JUMPI PUSH2 0xC7F PUSH2 0x3CE5 JUMP JUMPDEST DUP1 DUP3 ADD DUP1 DUP3 GT ISZERO PUSH2 0xC7F JUMPI PUSH2 0xC7F PUSH2 0x3CE5 JUMP JUMPDEST PUSH0 DUP3 MLOAD PUSH2 0x3E83 DUP2 DUP5 PUSH1 0x20 DUP8 ADD PUSH2 0x3924 JUMP JUMPDEST SWAP2 SWAP1 SWAP2 ADD SWAP3 SWAP2 POP POP JUMP JUMPDEST PUSH1 0x20 DUP1 DUP3 MSTORE PUSH1 0x24 SWAP1 DUP3 ADD MSTORE PUSH32 0x42616C616E636520646F6573206E6F74206861766520656E6F75676820506F74 PUSH1 0x40 DUP3 ADD MSTORE PUSH4 0x696F6E73 PUSH1 0xE0 SHL PUSH1 0x60 DUP3 ADD MSTORE PUSH1 0x80 ADD SWAP1 JUMP JUMPDEST PUSH4 0x4E487B71 PUSH1 0xE0 SHL PUSH0 MSTORE PUSH1 0x32 PUSH1 0x4 MSTORE PUSH1 0x24 PUSH0 REVERT JUMPDEST PUSH0 PUSH1 0x1 DUP3 ADD PUSH2 0x3EF6 JUMPI PUSH2 0x3EF6 PUSH2 0x3CE5 JUMP JUMPDEST POP PUSH1 0x1 ADD SWAP1 JUMP JUMPDEST PUSH0 PUSH1 0x20 DUP3 DUP5 SUB SLT ISZERO PUSH2 0x3F0D JUMPI PUSH0 DUP1 REVERT JUMPDEST DUP2 MLOAD PUSH2 0x2D4E DUP2 PUSH2 0x38D6 JUMP JUMPDEST PUSH0 DUP1 PUSH0 PUSH1 0x60 DUP5 DUP7 SUB SLT ISZERO PUSH2 0x3F2A JUMPI PUSH0 DUP1 REVERT JUMPDEST DUP4 MLOAD SWAP3 POP PUSH1 0x20 DUP5 ADD MLOAD SWAP2 POP PUSH1 0x40 DUP5 ADD MLOAD SWAP1 POP SWAP3 POP SWAP3 POP SWAP3 JUMP JUMPDEST PUSH0 PUSH1 0x20 DUP3 DUP5 SUB SLT ISZERO PUSH2 0x3F53 JUMPI PUSH0 DUP1 REVERT JUMPDEST DUP2 MLOAD PUSH2 0x2D4E DUP2 PUSH2 0x3BE0 JUMP JUMPDEST PUSH0 DUP3 PUSH2 0x3F78 JUMPI PUSH4 0x4E487B71 PUSH1 0xE0 SHL PUSH0 MSTORE PUSH1 0x12 PUSH1 0x4 MSTORE PUSH1 0x24 PUSH0 REVERT JUMPDEST POP DIV SWAP1 JUMP JUMPDEST PUSH0 PUSH1 0xA0 DUP3 ADD DUP8 DUP4 MSTORE PUSH1 0x20 DUP8 DUP2 DUP6 ADD MSTORE PUSH1 0xA0 PUSH1 0x40 DUP6 ADD MSTORE DUP2 DUP8 MLOAD DUP1 DUP5 MSTORE PUSH1 0xC0 DUP7 ADD SWAP2 POP DUP3 DUP10 ADD SWAP4 POP PUSH0 JUMPDEST DUP2 DUP2 LT ISZERO PUSH2 0x3FCB JUMPI DUP5 MLOAD PUSH1 0x1 PUSH1 0x1 PUSH1 0xA0 SHL SUB AND DUP4 MSTORE SWAP4 DUP4 ADD SWAP4 SWAP2 DUP4 ADD SWAP2 PUSH1 0x1 ADD PUSH2 0x3FA6 JUMP JUMPDEST POP POP PUSH1 0x1 PUSH1 0x1 PUSH1 0xA0 SHL SUB SWAP7 SWAP1 SWAP7 AND PUSH1 0x60 DUP6 ADD MSTORE POP POP POP PUSH1 0x80 ADD MSTORE SWAP4 SWAP3 POP POP POP JUMP JUMPDEST PUSH1 0x60 DUP2 MSTORE PUSH0 PUSH2 0x3FFE PUSH1 0x60 DUP4 ADD DUP7 PUSH2 0x3946 JUMP JUMPDEST PUSH1 0x20 DUP4 ADD SWAP5 SWAP1 SWAP5 MSTORE POP PUSH1 0x40 ADD MSTORE SWAP2 SWAP1 POP JUMP JUMPDEST PUSH1 0x20 DUP1 DUP3 MSTORE PUSH1 0x21 SWAP1 DUP3 ADD MSTORE PUSH32 0x42616C616E636520646F6573206E6F74206861766520656E6F7567682048474D PUSH1 0x40 DUP3 ADD MSTORE PUSH1 0x53 PUSH1 0xF8 SHL PUSH1 0x60 DUP3 ADD MSTORE PUSH1 0x80 ADD SWAP1 JUMP JUMPDEST PUSH1 0x20 DUP1 DUP3 MSTORE DUP2 DUP2 ADD MSTORE PUSH32 0x42616C616E636520646F6573206E6F74206861766520656E6F75676820455448 PUSH1 0x40 DUP3 ADD MSTORE PUSH1 0x60 ADD SWAP1 JUMP INVALID GASLIMIT MSTORE NUMBER ORIGIN ADDRESS GASPRICE KECCAK256 PUSH21 0x72616E7366657220616D6F756E7420657863656564 PUSH20 0x20616C6C6F77616E6365A2646970667358221220 PUSH29 0xE33DAFA120E040AE433889EBD4576792501D2EE79324CA732B17A343DF 0x2D 0xD2 PUSH5 0x736F6C6343 STOP ADDMOD ISZERO STOP CALLER "
		},
		"gasEstimates": {
			"creation": {
				"codeDepositCost": "3322400",
				"executionCost": "infinite",
				"totalCost": "infinite"
			},
			"external": {
				"BOOSTPriceETH()": "2427",
				"BOOSTPriceHGMS()": "2426",
				"BOOSTShopBalances(address)": "2599",
				"ManualSwap()": "infinite",
				"NFTBOOSTBalance(uint256)": "2506",
				"NFTSKIPBalance(uint256)": "2548",
				"NFTVBalance(uint256)": "2570",
				"NFTXTRABalance(uint256)": "2502",
				"SKIPPriceETH()": "2406",
				"SKIPPriceHGMS()": "2361",
				"SKIPShopBalances(address)": "2621",
				"VPriceETH()": "2385",
				"VPriceHGMS()": "2383",
				"VShopBalances(address)": "2600",
				"XTRAPriceETH()": "2363",
				"XTRAPriceHGMS()": "2384",
				"XTRAShopBalances(address)": "2600",
				"_battleContract()": "2403",
				"_devWallet()": "2471",
				"_maintenanceWallet()": "2404",
				"_marketWallet()": "2425",
				"_maxTaxSwap()": "2407",
				"_maxTxAmount()": "2407",
				"_maxWalletSize()": "2406",
				"_taxSwapThreshold()": "2427",
				"_teamWallet()": "2448",
				"allowance(address,address)": "infinite",
				"applyPotion(address,uint256[],string)": "infinite",
				"approve(address,uint256)": "24668",
				"balanceOf(address)": "2661",
				"buyPotion(string[],uint256[],address,bool)": "infinite",
				"decimals()": "266",
				"depositToShop(uint256,uint256)": "infinite",
				"emergencyTaxAt()": "infinite",
				"ethShopBalances(address)": "2621",
				"getNFTBOOSTBalance(uint256)": "2570",
				"getNFTSKIPBalance(uint256)": "2547",
				"getNFTVBalance(uint256)": "2504",
				"getNFTXTRABalance(uint256)": "2549",
				"hgmsShopBalances(address)": "2579",
				"manualSend()": "infinite",
				"name()": "infinite",
				"openTrading()": "infinite",
				"owner()": "2419",
				"payoutWinners(address,uint256)": "infinite",
				"potionsUsed(uint256)": "2502",
				"removeLimits()": "76138",
				"removePotions(uint256,uint256)": "198039",
				"renounceOwnership()": "30230",
				"setBOOSTPrice(uint256,uint256)": "infinite",
				"setBattleContract(address)": "26793",
				"setSKIPPrice(uint256,uint256)": "infinite",
				"setVPrice(uint256,uint256)": "infinite",
				"setXTRAPrice(uint256,uint256)": "infinite",
				"symbol()": "infinite",
				"totalSupply()": "2359",
				"transfer(address,uint256)": "infinite",
				"transferDelayEnabled()": "2427",
				"transferFrom(address,address,uint256)": "infinite",
				"withdrawStuckETH()": "infinite",
				"withdrawTokens(address,uint256)": "infinite"
			},
			"internal": {
				"_approve(address,address,uint256)": "infinite",
				"_burn(address,uint256)": "infinite",
				"_removeLimits()": "infinite",
				"_transfer(address,address,uint256)": "infinite",
				"min(uint256,uint256)": "60",
				"processOrder(string memory,uint256,address)": "infinite",
				"processOrderWithoutCharges(string memory,uint256,address)": "infinite",
				"processPotionCounts(string memory,uint256,uint256,uint256,uint256,uint256)": "infinite",
				"sendETHToFee(uint256)": "infinite",
				"swapTokensForEth(uint256)": "infinite"
			}
		},
		"methodIdentifiers": {
			"BOOSTPriceETH()": "f2b4c325",
			"BOOSTPriceHGMS()": "f7685a02",
			"BOOSTShopBalances(address)": "d677d03e",
			"ManualSwap()": "a1780c18",
			"NFTBOOSTBalance(uint256)": "039aa9cf",
			"NFTSKIPBalance(uint256)": "54ca45d8",
			"NFTVBalance(uint256)": "580a155a",
			"NFTXTRABalance(uint256)": "f3a395fc",
			"SKIPPriceETH()": "21e09b34",
			"SKIPPriceHGMS()": "66b6090f",
			"SKIPShopBalances(address)": "f2a6227f",
			"VPriceETH()": "298a8328",
			"VPriceHGMS()": "eb77dbb1",
			"VShopBalances(address)": "c232ae4d",
			"XTRAPriceETH()": "24aede52",
			"XTRAPriceHGMS()": "19dde7b7",
			"XTRAShopBalances(address)": "52d3c14e",
			"_battleContract()": "ce9dc805",
			"_devWallet()": "11a63e17",
			"_maintenanceWallet()": "51a2f687",
			"_marketWallet()": "bbab0ff1",
			"_maxTaxSwap()": "0faee56f",
			"_maxTxAmount()": "7d1db4a5",
			"_maxWalletSize()": "8f9a55c0",
			"_taxSwapThreshold()": "bf474bed",
			"_teamWallet()": "37e294d5",
			"allowance(address,address)": "dd62ed3e",
			"applyPotion(address,uint256[],string)": "81cd58e5",
			"approve(address,uint256)": "095ea7b3",
			"balanceOf(address)": "70a08231",
			"buyPotion(string[],uint256[],address,bool)": "e19fa771",
			"decimals()": "313ce567",
			"depositToShop(uint256,uint256)": "2d4bbb05",
			"emergencyTaxAt()": "0634087d",
			"ethShopBalances(address)": "be68e027",
			"getNFTBOOSTBalance(uint256)": "3b32edd4",
			"getNFTSKIPBalance(uint256)": "6e2ed3c4",
			"getNFTVBalance(uint256)": "c1ae5e72",
			"getNFTXTRABalance(uint256)": "2ace2af5",
			"hgmsShopBalances(address)": "0d2d697a",
			"manualSend()": "f4293890",
			"name()": "06fdde03",
			"openTrading()": "c9567bf9",
			"owner()": "8da5cb5b",
			"payoutWinners(address,uint256)": "af95d4d3",
			"potionsUsed(uint256)": "eb429bf8",
			"removeLimits()": "751039fc",
			"removePotions(uint256,uint256)": "09eadbf5",
			"renounceOwnership()": "715018a6",
			"setBOOSTPrice(uint256,uint256)": "6a4d84f9",
			"setBattleContract(address)": "0db6dff7",
			"setSKIPPrice(uint256,uint256)": "0c0e3d4a",
			"setVPrice(uint256,uint256)": "abb284e9",
			"setXTRAPrice(uint256,uint256)": "8fbd8f27",
			"symbol()": "95d89b41",
			"totalSupply()": "18160ddd",
			"transfer(address,uint256)": "a9059cbb",
			"transferDelayEnabled()": "c876d0b9",
			"transferFrom(address,address,uint256)": "23b872dd",
			"withdrawStuckETH()": "f5648a4f",
			"withdrawTokens(address,uint256)": "06b091f9"
		}
	},
	"abi": [
		{
			"inputs": [],
			"stateMutability": "nonpayable",
			"type": "constructor"
		},
		{
			"anonymous": false,
			"inputs": [
				{
					"indexed": true,
					"internalType": "address",
					"name": "owner",
					"type": "address"
				},
				{
					"indexed": true,
					"internalType": "address",
					"name": "spender",
					"type": "address"
				},
				{
					"indexed": false,
					"internalType": "uint256",
					"name": "value",
					"type": "uint256"
				}
			],
			"name": "Approval",
			"type": "event"
		},
		{
			"anonymous": false,
			"inputs": [
				{
					"indexed": true,
					"internalType": "address",
					"name": "account",
					"type": "address"
				},
				{
					"indexed": false,
					"internalType": "uint256",
					"name": "amount",
					"type": "uint256"
				}
			],
			"name": "Burn",
			"type": "event"
		},
		{
			"anonymous": false,
			"inputs": [],
			"name": "Deposit",
			"type": "event"
		},
		{
			"anonymous": false,
			"inputs": [
				{
					"indexed": false,
					"internalType": "uint256",
					"name": "_maxTxAmount",
					"type": "uint256"
				}
			],
			"name": "MaxTxAmountUpdated",
			"type": "event"
		},
		{
			"anonymous": false,
			"inputs": [
				{
					"indexed": true,
					"internalType": "address",
					"name": "previousOwner",
					"type": "address"
				},
				{
					"indexed": true,
					"internalType": "address",
					"name": "newOwner",
					"type": "address"
				}
			],
			"name": "OwnershipTransferred",
			"type": "event"
		},
		{
			"anonymous": false,
			"inputs": [
				{
					"indexed": true,
					"internalType": "address",
					"name": "buyer",
					"type": "address"
				},
				{
					"indexed": true,
					"internalType": "address",
					"name": "shopOwner",
					"type": "address"
				},
				{
					"indexed": false,
					"internalType": "string",
					"name": "potionName",
					"type": "string"
				},
				{
					"indexed": false,
					"internalType": "uint256",
					"name": "ethAmount",
					"type": "uint256"
				},
				{
					"indexed": false,
					"internalType": "uint256",
					"name": "hgmsAmount",
					"type": "uint256"
				}
			],
			"name": "PotionPurchased",
			"type": "event"
		},
		{
			"anonymous": false,
			"inputs": [
				{
					"indexed": false,
					"internalType": "uint256",
					"name": "nftId1",
					"type": "uint256"
				},
				{
					"indexed": false,
					"internalType": "uint256",
					"name": "nftId2",
					"type": "uint256"
				}
			],
			"name": "PotionsRemoved",
			"type": "event"
		},
		{
			"anonymous": false,
			"inputs": [
				{
					"indexed": true,
					"internalType": "address",
					"name": "from",
					"type": "address"
				},
				{
					"indexed": true,
					"internalType": "address",
					"name": "to",
					"type": "address"
				},
				{
					"indexed": false,
					"internalType": "uint256",
					"name": "value",
					"type": "uint256"
				}
			],
			"name": "Transfer",
			"type": "event"
		},
		{
			"inputs": [],
			"name": "BOOSTPriceETH",
			"outputs": [
				{
					"internalType": "uint256",
					"name": "",
					"type": "uint256"
				}
			],
			"stateMutability": "view",
			"type": "function"
		},
		{
			"inputs": [],
			"name": "BOOSTPriceHGMS",
			"outputs": [
				{
					"internalType": "uint256",
					"name": "",
					"type": "uint256"
				}
			],
			"stateMutability": "view",
			"type": "function"
		},
		{
			"inputs": [
				{
					"internalType": "address",
					"name": "",
					"type": "address"
				}
			],
			"name": "BOOSTShopBalances",
			"outputs": [
				{
					"internalType": "uint256",
					"name": "",
					"type": "uint256"
				}
			],
			"stateMutability": "view",
			"type": "function"
		},
		{
			"inputs": [],
			"name": "ManualSwap",
			"outputs": [],
			"stateMutability": "nonpayable",
			"type": "function"
		},
		{
			"inputs": [
				{
					"internalType": "uint256",
					"name": "",
					"type": "uint256"
				}
			],
			"name": "NFTBOOSTBalance",
			"outputs": [
				{
					"internalType": "bool",
					"name": "",
					"type": "bool"
				}
			],
			"stateMutability": "view",
			"type": "function"
		},
		{
			"inputs": [
				{
					"internalType": "uint256",
					"name": "",
					"type": "uint256"
				}
			],
			"name": "NFTSKIPBalance",
			"outputs": [
				{
					"internalType": "bool",
					"name": "",
					"type": "bool"
				}
			],
			"stateMutability": "view",
			"type": "function"
		},
		{
			"inputs": [
				{
					"internalType": "uint256",
					"name": "",
					"type": "uint256"
				}
			],
			"name": "NFTVBalance",
			"outputs": [
				{
					"internalType": "bool",
					"name": "",
					"type": "bool"
				}
			],
			"stateMutability": "view",
			"type": "function"
		},
		{
			"inputs": [
				{
					"internalType": "uint256",
					"name": "",
					"type": "uint256"
				}
			],
			"name": "NFTXTRABalance",
			"outputs": [
				{
					"internalType": "bool",
					"name": "",
					"type": "bool"
				}
			],
			"stateMutability": "view",
			"type": "function"
		},
		{
			"inputs": [],
			"name": "SKIPPriceETH",
			"outputs": [
				{
					"internalType": "uint256",
					"name": "",
					"type": "uint256"
				}
			],
			"stateMutability": "view",
			"type": "function"
		},
		{
			"inputs": [],
			"name": "SKIPPriceHGMS",
			"outputs": [
				{
					"internalType": "uint256",
					"name": "",
					"type": "uint256"
				}
			],
			"stateMutability": "view",
			"type": "function"
		},
		{
			"inputs": [
				{
					"internalType": "address",
					"name": "",
					"type": "address"
				}
			],
			"name": "SKIPShopBalances",
			"outputs": [
				{
					"internalType": "uint256",
					"name": "",
					"type": "uint256"
				}
			],
			"stateMutability": "view",
			"type": "function"
		},
		{
			"inputs": [],
			"name": "VPriceETH",
			"outputs": [
				{
					"internalType": "uint256",
					"name": "",
					"type": "uint256"
				}
			],
			"stateMutability": "view",
			"type": "function"
		},
		{
			"inputs": [],
			"name": "VPriceHGMS",
			"outputs": [
				{
					"internalType": "uint256",
					"name": "",
					"type": "uint256"
				}
			],
			"stateMutability": "view",
			"type": "function"
		},
		{
			"inputs": [
				{
					"internalType": "address",
					"name": "",
					"type": "address"
				}
			],
			"name": "VShopBalances",
			"outputs": [
				{
					"internalType": "uint256",
					"name": "",
					"type": "uint256"
				}
			],
			"stateMutability": "view",
			"type": "function"
		},
		{
			"inputs": [],
			"name": "XTRAPriceETH",
			"outputs": [
				{
					"internalType": "uint256",
					"name": "",
					"type": "uint256"
				}
			],
			"stateMutability": "view",
			"type": "function"
		},
		{
			"inputs": [],
			"name": "XTRAPriceHGMS",
			"outputs": [
				{
					"internalType": "uint256",
					"name": "",
					"type": "uint256"
				}
			],
			"stateMutability": "view",
			"type": "function"
		},
		{
			"inputs": [
				{
					"internalType": "address",
					"name": "",
					"type": "address"
				}
			],
			"name": "XTRAShopBalances",
			"outputs": [
				{
					"internalType": "uint256",
					"name": "",
					"type": "uint256"
				}
			],
			"stateMutability": "view",
			"type": "function"
		},
		{
			"inputs": [],
			"name": "_battleContract",
			"outputs": [
				{
					"internalType": "address",
					"name": "",
					"type": "address"
				}
			],
			"stateMutability": "view",
			"type": "function"
		},
		{
			"inputs": [],
			"name": "_devWallet",
			"outputs": [
				{
					"internalType": "address payable",
					"name": "",
					"type": "address"
				}
			],
			"stateMutability": "view",
			"type": "function"
		},
		{
			"inputs": [],
			"name": "_maintenanceWallet",
			"outputs": [
				{
					"internalType": "address payable",
					"name": "",
					"type": "address"
				}
			],
			"stateMutability": "view",
			"type": "function"
		},
		{
			"inputs": [],
			"name": "_marketWallet",
			"outputs": [
				{
					"internalType": "address payable",
					"name": "",
					"type": "address"
				}
			],
			"stateMutability": "view",
			"type": "function"
		},
		{
			"inputs": [],
			"name": "_maxTaxSwap",
			"outputs": [
				{
					"internalType": "uint256",
					"name": "",
					"type": "uint256"
				}
			],
			"stateMutability": "view",
			"type": "function"
		},
		{
			"inputs": [],
			"name": "_maxTxAmount",
			"outputs": [
				{
					"internalType": "uint256",
					"name": "",
					"type": "uint256"
				}
			],
			"stateMutability": "view",
			"type": "function"
		},
		{
			"inputs": [],
			"name": "_maxWalletSize",
			"outputs": [
				{
					"internalType": "uint256",
					"name": "",
					"type": "uint256"
				}
			],
			"stateMutability": "view",
			"type": "function"
		},
		{
			"inputs": [],
			"name": "_taxSwapThreshold",
			"outputs": [
				{
					"internalType": "uint256",
					"name": "",
					"type": "uint256"
				}
			],
			"stateMutability": "view",
			"type": "function"
		},
		{
			"inputs": [],
			"name": "_teamWallet",
			"outputs": [
				{
					"internalType": "address payable",
					"name": "",
					"type": "address"
				}
			],
			"stateMutability": "view",
			"type": "function"
		},
		{
			"inputs": [
				{
					"internalType": "address",
					"name": "owner",
					"type": "address"
				},
				{
					"internalType": "address",
					"name": "spender",
					"type": "address"
				}
			],
			"name": "allowance",
			"outputs": [
				{
					"internalType": "uint256",
					"name": "",
					"type": "uint256"
				}
			],
			"stateMutability": "view",
			"type": "function"
		},
		{
			"inputs": [
				{
					"internalType": "address",
					"name": "shopOwner",
					"type": "address"
				},
				{
					"internalType": "uint256[]",
					"name": "NFTId",
					"type": "uint256[]"
				},
				{
					"internalType": "string",
					"name": "potionName",
					"type": "string"
				}
			],
			"name": "applyPotion",
			"outputs": [],
			"stateMutability": "nonpayable",
			"type": "function"
		},
		{
			"inputs": [
				{
					"internalType": "address",
					"name": "spender",
					"type": "address"
				},
				{
					"internalType": "uint256",
					"name": "amount",
					"type": "uint256"
				}
			],
			"name": "approve",
			"outputs": [
				{
					"internalType": "bool",
					"name": "",
					"type": "bool"
				}
			],
			"stateMutability": "nonpayable",
			"type": "function"
		},
		{
			"inputs": [
				{
					"internalType": "address",
					"name": "account",
					"type": "address"
				}
			],
			"name": "balanceOf",
			"outputs": [
				{
					"internalType": "uint256",
					"name": "",
					"type": "uint256"
				}
			],
			"stateMutability": "view",
			"type": "function"
		},
		{
			"inputs": [
				{
					"internalType": "string[]",
					"name": "potionNames",
					"type": "string[]"
				},
				{
					"internalType": "uint256[]",
					"name": "amounts",
					"type": "uint256[]"
				},
				{
					"internalType": "address",
					"name": "shopOwner",
					"type": "address"
				},
				{
					"internalType": "bool",
					"name": "bonus",
					"type": "bool"
				}
			],
			"name": "buyPotion",
			"outputs": [],
			"stateMutability": "nonpayable",
			"type": "function"
		},
		{
			"inputs": [],
			"name": "decimals",
			"outputs": [
				{
					"internalType": "uint8",
					"name": "",
					"type": "uint8"
				}
			],
			"stateMutability": "pure",
			"type": "function"
		},
		{
			"inputs": [
				{
					"internalType": "uint256",
					"name": "hgmsAmount",
					"type": "uint256"
				},
				{
					"internalType": "uint256",
					"name": "ethAmount",
					"type": "uint256"
				}
			],
			"name": "depositToShop",
			"outputs": [],
			"stateMutability": "payable",
			"type": "function"
		},
		{
			"inputs": [],
			"name": "emergencyTaxAt",
			"outputs": [],
			"stateMutability": "nonpayable",
			"type": "function"
		},
		{
			"inputs": [
				{
					"internalType": "address",
					"name": "",
					"type": "address"
				}
			],
			"name": "ethShopBalances",
			"outputs": [
				{
					"internalType": "uint256",
					"name": "",
					"type": "uint256"
				}
			],
			"stateMutability": "view",
			"type": "function"
		},
		{
			"inputs": [
				{
					"internalType": "uint256",
					"name": "NFTId",
					"type": "uint256"
				}
			],
			"name": "getNFTBOOSTBalance",
			"outputs": [
				{
					"internalType": "bool",
					"name": "",
					"type": "bool"
				}
			],
			"stateMutability": "view",
			"type": "function"
		},
		{
			"inputs": [
				{
					"internalType": "uint256",
					"name": "NFTId",
					"type": "uint256"
				}
			],
			"name": "getNFTSKIPBalance",
			"outputs": [
				{
					"internalType": "bool",
					"name": "",
					"type": "bool"
				}
			],
			"stateMutability": "view",
			"type": "function"
		},
		{
			"inputs": [
				{
					"internalType": "uint256",
					"name": "NFTId",
					"type": "uint256"
				}
			],
			"name": "getNFTVBalance",
			"outputs": [
				{
					"internalType": "bool",
					"name": "",
					"type": "bool"
				}
			],
			"stateMutability": "view",
			"type": "function"
		},
		{
			"inputs": [
				{
					"internalType": "uint256",
					"name": "NFTId",
					"type": "uint256"
				}
			],
			"name": "getNFTXTRABalance",
			"outputs": [
				{
					"internalType": "bool",
					"name": "",
					"type": "bool"
				}
			],
			"stateMutability": "view",
			"type": "function"
		},
		{
			"inputs": [
				{
					"internalType": "address",
					"name": "",
					"type": "address"
				}
			],
			"name": "hgmsShopBalances",
			"outputs": [
				{
					"internalType": "uint256",
					"name": "",
					"type": "uint256"
				}
			],
			"stateMutability": "view",
			"type": "function"
		},
		{
			"inputs": [],
			"name": "manualSend",
			"outputs": [],
			"stateMutability": "nonpayable",
			"type": "function"
		},
		{
			"inputs": [],
			"name": "name",
			"outputs": [
				{
					"internalType": "string",
					"name": "",
					"type": "string"
				}
			],
			"stateMutability": "pure",
			"type": "function"
		},
		{
			"inputs": [],
			"name": "openTrading",
			"outputs": [],
			"stateMutability": "nonpayable",
			"type": "function"
		},
		{
			"inputs": [],
			"name": "owner",
			"outputs": [
				{
					"internalType": "address",
					"name": "",
					"type": "address"
				}
			],
			"stateMutability": "view",
			"type": "function"
		},
		{
			"inputs": [
				{
					"internalType": "address payable",
					"name": "winner",
					"type": "address"
				},
				{
					"internalType": "uint256",
					"name": "share",
					"type": "uint256"
				}
			],
			"name": "payoutWinners",
			"outputs": [],
			"stateMutability": "nonpayable",
			"type": "function"
		},
		{
			"inputs": [
				{
					"internalType": "uint256",
					"name": "",
					"type": "uint256"
				}
			],
			"name": "potionsUsed",
			"outputs": [
				{
					"internalType": "uint256",
					"name": "",
					"type": "uint256"
				}
			],
			"stateMutability": "view",
			"type": "function"
		},
		{
			"inputs": [],
			"name": "removeLimits",
			"outputs": [],
			"stateMutability": "nonpayable",
			"type": "function"
		},
		{
			"inputs": [
				{
					"internalType": "uint256",
					"name": "First",
					"type": "uint256"
				},
				{
					"internalType": "uint256",
					"name": "Second",
					"type": "uint256"
				}
			],
			"name": "removePotions",
			"outputs": [],
			"stateMutability": "nonpayable",
			"type": "function"
		},
		{
			"inputs": [],
			"name": "renounceOwnership",
			"outputs": [],
			"stateMutability": "nonpayable",
			"type": "function"
		},
		{
			"inputs": [
				{
					"internalType": "uint256",
					"name": "hgmsAmount",
					"type": "uint256"
				},
				{
					"internalType": "uint256",
					"name": "ethAmount",
					"type": "uint256"
				}
			],
			"name": "setBOOSTPrice",
			"outputs": [],
			"stateMutability": "nonpayable",
			"type": "function"
		},
		{
			"inputs": [
				{
					"internalType": "address",
					"name": "BattleContractAddress",
					"type": "address"
				}
			],
			"name": "setBattleContract",
			"outputs": [],
			"stateMutability": "nonpayable",
			"type": "function"
		},
		{
			"inputs": [
				{
					"internalType": "uint256",
					"name": "hgmsAmount",
					"type": "uint256"
				},
				{
					"internalType": "uint256",
					"name": "ethAmount",
					"type": "uint256"
				}
			],
			"name": "setSKIPPrice",
			"outputs": [],
			"stateMutability": "nonpayable",
			"type": "function"
		},
		{
			"inputs": [
				{
					"internalType": "uint256",
					"name": "hgmsAmount",
					"type": "uint256"
				},
				{
					"internalType": "uint256",
					"name": "ethAmount",
					"type": "uint256"
				}
			],
			"name": "setVPrice",
			"outputs": [],
			"stateMutability": "nonpayable",
			"type": "function"
		},
		{
			"inputs": [
				{
					"internalType": "uint256",
					"name": "hgmsAmount",
					"type": "uint256"
				},
				{
					"internalType": "uint256",
					"name": "ethAmount",
					"type": "uint256"
				}
			],
			"name": "setXTRAPrice",
			"outputs": [],
			"stateMutability": "nonpayable",
			"type": "function"
		},
		{
			"inputs": [],
			"name": "symbol",
			"outputs": [
				{
					"internalType": "string",
					"name": "",
					"type": "string"
				}
			],
			"stateMutability": "pure",
			"type": "function"
		},
		{
			"inputs": [],
			"name": "totalSupply",
			"outputs": [
				{
					"internalType": "uint256",
					"name": "",
					"type": "uint256"
				}
			],
			"stateMutability": "view",
			"type": "function"
		},
		{
			"inputs": [
				{
					"internalType": "address",
					"name": "recipient",
					"type": "address"
				},
				{
					"internalType": "uint256",
					"name": "amount",
					"type": "uint256"
				}
			],
			"name": "transfer",
			"outputs": [
				{
					"internalType": "bool",
					"name": "",
					"type": "bool"
				}
			],
			"stateMutability": "nonpayable",
			"type": "function"
		},
		{
			"inputs": [],
			"name": "transferDelayEnabled",
			"outputs": [
				{
					"internalType": "bool",
					"name": "",
					"type": "bool"
				}
			],
			"stateMutability": "view",
			"type": "function"
		},
		{
			"inputs": [
				{
					"internalType": "address",
					"name": "sender",
					"type": "address"
				},
				{
					"internalType": "address",
					"name": "recipient",
					"type": "address"
				},
				{
					"internalType": "uint256",
					"name": "amount",
					"type": "uint256"
				}
			],
			"name": "transferFrom",
			"outputs": [
				{
					"internalType": "bool",
					"name": "",
					"type": "bool"
				}
			],
			"stateMutability": "nonpayable",
			"type": "function"
		},
		{
			"inputs": [],
			"name": "withdrawStuckETH",
			"outputs": [],
			"stateMutability": "nonpayable",
			"type": "function"
		},
		{
			"inputs": [
				{
					"internalType": "address",
					"name": "to",
					"type": "address"
				},
				{
					"internalType": "uint256",
					"name": "amount",
					"type": "uint256"
				}
			],
			"name": "withdrawTokens",
			"outputs": [],
			"stateMutability": "nonpayable",
			"type": "function"
		},
		{
			"stateMutability": "payable",
			"type": "receive"
		}
	]
}