{
	"data": {
		"bytecode": {
			"linkReferences": {},
			"object": "6080604052601480546001600160a01b0319169055601360158190556019601681905560056017819055601855908155601a819055601b555f601c55620000496009600a6200045a565b6200005990633b9aca0062000471565b601d556200006a6009600a6200045a565b62000079906298968062000471565b601e556200008a6009600a6200045a565b6200009a906301312d0062000471565b601f55620000ab6009600a6200045a565b620000ba90620f424062000471565b602055620000cb6009600a6200045a565b620000da906298968062000471565b60215561c35060225561c35060235561c35060245561c350602555600360096200010591906200048b565b6200011290600a6200045a565b6200011f90600462000471565b6026555f60275562000134600360096200048b565b6200014190600a6200045a565b6200014e90600262000471565b6028556200015f600360096200048b565b6200016c90600a6200045a565b6200017990600162000471565b602955602b805462ffffff60a81b1916600160b81b1790553480156200019d575f80fd5b505f80546001600160a01b031916339081178255604051909182917f8be0079c531659141344cd1fd0a4f28419497f9722a3daafe3b4186f6b6457e0908290a35033601280546001600160a01b03929092166001600160a01b031992831617905560138054821673d53c9795a9daf24fbcab45cf2df0d37145f7e0e0179055601180548216736f1f797f35ef003c3b89257971a80208c61f797617905560108054909116737034990879d4e4c0f9dade892ad641bc45dedbbf179055601d54305f908152600160208190526040822092909255600390620002855f546001600160a01b031690565b6001600160a01b03908116825260208083019390935260409182015f908120805495151560ff19968716179055308082526003855283822080548716600190811790915560135484168352848320805488168217905560115484168352848320805488168217905560105490931682528382208054909616831790955584815292528082205490517fddf252ad1be2c89b69c2b068fc378daa952ba7f163c4a11628f55a4df523b3ef916200033d9190815260200190565b60405180910390a3620004a7565b634e487b7160e01b5f52601160045260245ffd5b600181815b808511156200039f57815f19048211156200038357620003836200034b565b808516156200039157918102915b93841c939080029062000364565b509250929050565b5f82620003b75750600162000454565b81620003c557505f62000454565b8160018114620003de5760028114620003e95762000409565b600191505062000454565b60ff841115620003fd57620003fd6200034b565b50506001821b62000454565b5060208310610133831016604e8410600b84101617156200042e575081810a62000454565b6200043a83836200035f565b805f19048211156200045057620004506200034b565b0290505b92915050565b5f6200046a60ff841683620003a7565b9392505050565b80820281158282048414176200045457620004546200034b565b60ff82811682821603908111156200045457620004546200034b565b613e8a80620004b55f395ff3fe608060405260043610610395575f3560e01c8063715018a6116101de578063bf474bed11610108578063eb429bf81161009d578063f3a395fc1161006d578063f3a395fc14610b23578063f429389014610b51578063f5648a4f14610b65578063f7685a0214610b79575f80fd5b8063eb429bf814610aa3578063eb77dbb114610ace578063f2a6227f14610ae3578063f2b4c32514610b0e575f80fd5b8063c9567bf9116100d8578063c9567bf914610a01578063ce9dc80514610a15578063d677d03e14610a34578063dd62ed3e14610a5f575f80fd5b8063bf474bed14610973578063c1ae5e7214610988578063c232ae4d146109b6578063c876d0b9146109e1575f80fd5b806395d89b411161017e578063abb284e91161014e578063abb284e9146108eb578063af95d4d31461090a578063bbab0ff114610929578063be68e02714610948575f80fd5b806395d89b411461086d578063a09dfbd014610899578063a1780c18146108b8578063a9059cbb146108cc575f80fd5b806381cd58e5116101b957806381cd58e5146107fe5780638da5cb5b1461081d5780638f9a55c0146108395780638fbd8f271461084e575f80fd5b8063715018a6146107c1578063751039fc146107d55780637d1db4a5146107e9575f80fd5b806324aede52116102bf57806351a2f6871161025f57806366b6090f1161022f57806366b6090f1461072b5780636a4d84f9146107405780636e2ed3c41461075f57806370a082311461078d575f80fd5b806351a2f6871461068557806352d3c14e146106a457806354ca45d8146106cf578063580a155a146106fd575f80fd5b80632d4bbb051161029a5780632d4bbb051461060a578063313ce5671461061d57806337e294d5146106385780633b32edd414610657575f80fd5b806324aede52146105b2578063298a8328146105c75780632ace2af5146105dc575f80fd5b80630d2d697a1161033557806318160ddd1161030557806318160ddd1461055557806319dde7b71461056957806321e09b341461057e57806323b872dd14610593575f80fd5b80630d2d697a146104b15780630db6dff7146104ea5780630faee56f1461050957806311a63e171461051e575f80fd5b806306fdde031161037057806306fdde0314610418578063095ea7b31461045457806309eadbf5146104735780630c0e3d4a14610492575f80fd5b8063039aa9cf146103a05780630634087d146103e357806306b091f9146103f9575f80fd5b3661039c57005b5f80fd5b3480156103ab575f80fd5b506103ce6103ba36600461368a565b60066020525f908152604090205460ff1681565b60405190151581526020015b60405180910390f35b3480156103ee575f80fd5b506103f7610b8e565b005b348015610404575f80fd5b506103f76104133660046136c5565b610bd0565b348015610423575f80fd5b5060408051808201909152600b81526a48756e67657247616d657360a81b60208201525b6040516103da919061373c565b34801561045f575f80fd5b506103ce61046e3660046136c5565b610c6f565b34801561047e575f80fd5b506103f761048d36600461374e565b610c85565b34801561049d575f80fd5b506103f76104ac36600461374e565b610da8565b3480156104bc575f80fd5b506104dc6104cb36600461376e565b60096020525f908152604090205481565b6040519081526020016103da565b3480156104f5575f80fd5b506103f761050436600461376e565b610deb565b348015610514575f80fd5b506104dc60215481565b348015610529575f80fd5b5060125461053d906001600160a01b031681565b6040516001600160a01b0390911681526020016103da565b348015610560575f80fd5b50601d546104dc565b348015610574575f80fd5b506104dc60225481565b348015610589575f80fd5b506104dc60295481565b34801561059e575f80fd5b506103ce6105ad366004613789565b610e36565b3480156105bd575f80fd5b506104dc60265481565b3480156105d2575f80fd5b506104dc60285481565b3480156105e7575f80fd5b506103ce6105f636600461368a565b5f9081526004602052604090205460ff1690565b6103f761061836600461374e565b610e9d565b348015610628575f80fd5b50604051600981526020016103da565b348015610643575f80fd5b5060115461053d906001600160a01b031681565b348015610662575f80fd5b506103ce61067136600461368a565b5f9081526006602052604090205460ff1690565b348015610690575f80fd5b5060105461053d906001600160a01b031681565b3480156106af575f80fd5b506104dc6106be36600461376e565b600b6020525f908152604090205481565b3480156106da575f80fd5b506103ce6106e936600461368a565b60076020525f908152604090205460ff1681565b348015610708575f80fd5b506103ce61071736600461368a565b60056020525f908152604090205460ff1681565b348015610736575f80fd5b506104dc60255481565b34801561074b575f80fd5b506103f761075a36600461374e565b611045565b34801561076a575f80fd5b506103ce61077936600461368a565b5f9081526007602052604090205460ff1690565b348015610798575f80fd5b506104dc6107a736600461376e565b6001600160a01b03165f9081526001602052604090205490565b3480156107cc575f80fd5b506103f7611088565b3480156107e0575f80fd5b506103f76110f9565b3480156107f4575f80fd5b506104dc601e5481565b348015610809575f80fd5b506103f7610818366004613903565b61112c565b348015610828575f80fd5b505f546001600160a01b031661053d565b348015610844575f80fd5b506104dc601f5481565b348015610859575f80fd5b506103f761086836600461374e565b6118f1565b348015610878575f80fd5b5060408051808201909152600481526348474d5360e01b6020820152610447565b3480156108a4575f80fd5b506103f76108b3366004613974565b611934565b3480156108c3575f80fd5b506103f7611d4d565b3480156108d7575f80fd5b506103ce6108e63660046136c5565b611d9a565b3480156108f6575f80fd5b506103f761090536600461374e565b611da6565b348015610915575f80fd5b506103f76109243660046136c5565b611de9565b348015610934575f80fd5b5060135461053d906001600160a01b031681565b348015610953575f80fd5b506104dc61096236600461376e565b600a6020525f908152604090205481565b34801561097e575f80fd5b506104dc60205481565b348015610993575f80fd5b506103ce6109a236600461368a565b5f9081526005602052604090205460ff1690565b3480156109c1575f80fd5b506104dc6109d036600461376e565b600d6020525f908152604090205481565b3480156109ec575f80fd5b50602b546103ce90600160b81b900460ff1681565b348015610a0c575f80fd5b506103f7611e7c565b348015610a20575f80fd5b5060145461053d906001600160a01b031681565b348015610a3f575f80fd5b506104dc610a4e36600461376e565b600c6020525f908152604090205481565b348015610a6a575f80fd5b506104dc610a79366004613a50565b6001600160a01b039182165f90815260026020908152604080832093909416825291909152205490565b348015610aae575f80fd5b506104dc610abd36600461368a565b600f6020525f908152604090205481565b348015610ad9575f80fd5b506104dc60245481565b348015610aee575f80fd5b506104dc610afd36600461376e565b600e6020525f908152604090205481565b348015610b19575f80fd5b506104dc60275481565b348015610b2e575f80fd5b506103ce610b3d36600461368a565b60046020525f908152604090205460ff1681565b348015610b5c575f80fd5b506103f7612236565b348015610b70575f80fd5b506103f7612272565b348015610b84575f80fd5b506104dc60235481565b6010546001600160a01b03163314610ba4575f80fd5b60198054905f610bb48380613a9b565b9091555050601a8054905f610bc98380613a9b565b9091555050565b5f546001600160a01b03163314610c025760405162461bcd60e51b8152600401610bf990613aae565b60405180910390fd5b305f90815260016020526040902054811115610c605760405162461bcd60e51b815260206004820152601d60248201527f4e6f7420656e6f75676820746f6b656e7320696e20636f6e74726163740000006044820152606401610bf9565b610c6b3083836122be565b5050565b5f610c7b3384846128a1565b5060015b92915050565b6014546001600160a01b03163314610cf35760405162461bcd60e51b815260206004820152602b60248201527f4f6e6c792074686520626174746c6520636f6e74726163742063616e2072656d60448201526a6f766520706f74696f6e7360a81b6064820152608401610bf9565b5f828152600460208181526040808420805460ff19908116909155600580845282862080548316905560068085528387208054841690556007808652848820805485169055888852958552838720805484169055908452828620805483169055835281852080548216905592825292839020805490921690915581518481529081018390527f16552dc0eeaa5453189ca1b57f62bf76590b234053b60bd7120b6a49977d637f91015b60405180910390a15050565b6010546001600160a01b03163314610dbe575f80fd5b6025829055610dcf60036009613ae3565b610dda90600a613bdc565b610de49082613bea565b6029555050565b5f546001600160a01b03163314610e145760405162461bcd60e51b8152600401610bf990613aae565b601480546001600160a01b0319166001600160a01b0392909216919091179055565b5f610e428484846122be565b610e938433610e8e85604051806060016040528060288152602001613e2d602891396001600160a01b038a165f90815260026020908152604080832033845290915290205491906129c4565b6128a1565b5060019392505050565b5f821180610eaa57505f81115b610ef65760405162461bcd60e51b815260206004820152601f60248201527f416d6f756e742073686f756c642062652067726561746572207468616e2030006044820152606401610bf9565b610f026009600a613bdc565b610f0c9082613bea565b341015610f5b5760405162461bcd60e51b815260206004820152601960248201527f496e636f72726563742045544820616d6f756e742073656e74000000000000006044820152606401610bf9565b8115610fe657335f90815260016020526040902054821115610fb85760405162461bcd60e51b81526020600482015260166024820152754e6f7420656e6f7567682048474d5320746f6b656e7360501b6044820152606401610bf9565b610fc233836129fc565b335f9081526009602052604081208054849290610fe0908490613c01565b90915550505b801561101957335f908152600a60205260408120805483929061100a908490613c01565b90915550611019905034612b77565b6040517fed21248cb703b524cc0029bb8669df941baca560163a3bc6ad184e7e9c268070905f90a15050565b6010546001600160a01b0316331461105b575f80fd5b602382905561106c60036009613ae3565b61107790600a613bdc565b6110819082613bea565b6027555050565b5f546001600160a01b031633146110b15760405162461bcd60e51b8152600401610bf990613aae565b5f80546040516001600160a01b03909116907f8be0079c531659141344cd1fd0a4f28419497f9722a3daafe3b4186f6b6457e0908390a35f80546001600160a01b0319169055565b5f546001600160a01b031633146111225760405162461bcd60e51b8152600401610bf990613aae565b61112a612cca565b565b6010546001600160a01b03163314611142575f80fd5b604051635854524160e01b6020820152602401604051602081830303815290604052805190602001208160405160200161117c9190613c14565b60405160208183030381529060405280519060200120036113235781516001600160a01b0384165f908152600b602052604090205410156111cf5760405162461bcd60e51b8152600401610bf990613c2f565b5f5b825181101561131d5760045f8483815181106111ef576111ef613c73565b60209081029190910181015182528101919091526040015f205460ff161561124f5760405162461bcd60e51b8152602060048201526013602482015272416c726561647920616374697665205854524160681b6044820152606401610bf9565b600160045f85848151811061126657611266613c73565b602002602001015181526020019081526020015f205f6101000a81548160ff0219169083151502179055506001600b5f866001600160a01b03166001600160a01b031681526020019081526020015f205f8282546112c49190613a9b565b925050819055506001600f5f8584815181106112e2576112e2613c73565b602002602001015181526020019081526020015f205f8282546113059190613c01565b9091555081905061131581613c87565b9150506111d1565b50505050565b604051641093d3d4d560da1b6020820152602501604051602081830303815290604052805190602001208160405160200161135e9190613c14565b60405160208183030381529060405280519060200120036115005781516001600160a01b0384165f908152600c602052604090205410156113b15760405162461bcd60e51b8152600401610bf990613c2f565b5f5b825181101561131d5760065f8483815181106113d1576113d1613c73565b60209081029190910181015182528101919091526040015f205460ff16156114325760405162461bcd60e51b8152602060048201526014602482015273105b1c9958591e481858dd1a5d99481093d3d4d560621b6044820152606401610bf9565b600160065f85848151811061144957611449613c73565b602002602001015181526020019081526020015f205f6101000a81548160ff0219169083151502179055506001600c5f866001600160a01b03166001600160a01b031681526020019081526020015f205f8282546114a79190613a9b565b925050819055506001600f5f8584815181106114c5576114c5613c73565b602002602001015181526020019081526020015f205f8282546114e89190613c01565b909155508190506114f881613c87565b9150506113b3565b604051602b60f91b602082015260210160405160208183030381529060405280519060200120816040516020016115379190613c14565b60405160208183030381529060405280519060200120036116d55781516001600160a01b0384165f908152600d6020526040902054101561158a5760405162461bcd60e51b8152600401610bf990613c2f565b5f5b825181101561131d5760055f8483815181106115aa576115aa613c73565b60209081029190910181015182528101919091526040015f205460ff16156116075760405162461bcd60e51b815260206004820152601060248201526f20b63932b0b23c9030b1ba34bb32902b60811b6044820152606401610bf9565b600160055f85848151811061161e5761161e613c73565b602002602001015181526020019081526020015f205f6101000a81548160ff0219169083151502179055506001600d5f866001600160a01b03166001600160a01b031681526020019081526020015f205f82825461167c9190613a9b565b925050819055506001600f5f85848151811061169a5761169a613c73565b602002602001015181526020019081526020015f205f8282546116bd9190613c01565b909155508190506116cd81613c87565b91505061158c565b604051630534b49560e41b6020820152602401604051602081830303815290604052805190602001208160405160200161170f9190613c14565b60405160208183030381529060405280519060200120036118b05781516001600160a01b0384165f908152600e602052604090205410156117625760405162461bcd60e51b8152600401610bf990613c2f565b5f5b825181101561131d5760075f84838151811061178257611782613c73565b60209081029190910181015182528101919091526040015f205460ff16156117e25760405162461bcd60e51b81526020600482015260136024820152720416c72656164792061637469766520534b495606c1b6044820152606401610bf9565b600160075f8584815181106117f9576117f9613c73565b602002602001015181526020019081526020015f205f6101000a81548160ff0219169083151502179055506001600e5f866001600160a01b03166001600160a01b031681526020019081526020015f205f8282546118579190613a9b565b925050819055506001600f5f85848151811061187557611875613c73565b602002602001015181526020019081526020015f205f8282546118989190613c01565b909155508190506118a881613c87565b915050611764565b60405162461bcd60e51b815260206004820152601160248201527057726f6e6720506f74696f6e204e616d6560781b6044820152606401610bf9565b505050565b6010546001600160a01b03163314611907575f80fd5b602282905561191860036009613ae3565b61192390600a613bdc565b61192d9082613bea565b6026555050565b6010546001600160a01b031633146119a45760405162461bcd60e51b815260206004820152602d60248201527f4f6e6c79206d61696e74656e616e636557616c6c65742063616e2063616c6c2060448201526c3a3434b990333ab731ba34b7b760991b6064820152608401610bf9565b8151835114611a0e5760405162461bcd60e51b815260206004820152603060248201527f4d69736d61746368656420706f74696f6e4e616d657320616e6420616d6f756e60448201526f0e8e640c2e4e4c2f2e640d8cadccee8d60831b6064820152608401610bf9565b5f805f805f5b8751811015611c9157604051635854524160e01b602082015260240160405160208183030381529060405280519060200120888281518110611a5857611a58613c73565b6020026020010151604051602001611a709190613c14565b6040516020818303038152906040528051906020012003611ab757868181518110611a9d57611a9d613c73565b602002602001015185611ab09190613c01565b9450611c7f565b604051641093d3d4d560da1b602082015260250160405160208183030381529060405280519060200120888281518110611af357611af3613c73565b6020026020010151604051602001611b0b9190613c14565b6040516020818303038152906040528051906020012003611b5257868181518110611b3857611b38613c73565b602002602001015184611b4b9190613c01565b9350611c7f565b604051602b60f91b602082015260210160405160208183030381529060405280519060200120888281518110611b8a57611b8a613c73565b6020026020010151604051602001611ba29190613c14565b6040516020818303038152906040528051906020012003611be957868181518110611bcf57611bcf613c73565b602002602001015183611be29190613c01565b9250611c7f565b604051630534b49560e41b602082015260240160405160208183030381529060405280519060200120888281518110611c2457611c24613c73565b6020026020010151604051602001611c3c9190613c14565b6040516020818303038152906040528051906020012003611c7f57868181518110611c6957611c69613c73565b602002602001015182611c7c9190613c01565b91505b80611c8981613c87565b915050611a14565b508315611cbf57611cbf604051806040016040528060048152602001635854524160e01b8152508587612d42565b8215611ced57611ced604051806040016040528060058152602001641093d3d4d560da1b8152508487612d42565b8115611d1757611d17604051806040016040528060018152602001602b60f91b8152508387612d42565b8015611d4457611d44604051806040016040528060048152602001630534b49560e41b8152508287612d42565b50505050505050565b6012546001600160a01b0316336001600160a01b031614611d6c575f80fd5b305f908152600160205260409020548015611d8a57611d8a81613375565b478015610c6b57610c6b81612b77565b5f610c7b3384846122be565b6010546001600160a01b03163314611dbc575f80fd5b6024829055611dcd60036009613ae3565b611dd890600a613bdc565b611de29082613bea565b6028555050565b6014546001600160a01b03163314611e345760405162461bcd60e51b815260206004820152600e60248201526d139bdd08185d5d1a1bdc9a5e995960921b6044820152606401610bf9565b6001600160a01b0382166108fc611e57611e506009600a613bdc565b84906134e5565b6040518115909202915f818181858888f193505050501580156118ec573d5f803e3d5ffd5b5f546001600160a01b03163314611ea55760405162461bcd60e51b8152600401610bf990613aae565b602b54600160a01b900460ff1615611eff5760405162461bcd60e51b815260206004820152601760248201527f74726164696e6720697320616c7265616479206f70656e0000000000000000006044820152606401610bf9565b602a80546001600160a01b031916737a250d5630b4cf539739df2c5dacb4c659f2488d908117909155601d54611f369130916128a1565b602a5f9054906101000a90046001600160a01b03166001600160a01b031663c45a01556040518163ffffffff1660e01b8152600401602060405180830381865afa158015611f86573d5f803e3d5ffd5b505050506040513d601f19601f82011682018060405250810190611faa9190613c9f565b6001600160a01b031663c9c6539630602a5f9054906101000a90046001600160a01b03166001600160a01b031663ad5c46486040518163ffffffff1660e01b8152600401602060405180830381865afa158015612009573d5f803e3d5ffd5b505050506040513d601f19601f8201168201806040525081019061202d9190613c9f565b6040516001600160e01b031960e085901b1681526001600160a01b039283166004820152911660248201526044016020604051808303815f875af1158015612077573d5f803e3d5ffd5b505050506040513d601f19601f8201168201806040525081019061209b9190613c9f565b602b80546001600160a01b039283166001600160a01b0319909116179055602a541663f305d71947306120e2816001600160a01b03165f9081526001602052604090205490565b5f806120f55f546001600160a01b031690565b60405160e088901b6001600160e01b03191681526001600160a01b03958616600482015260248101949094526044840192909252606483015290911660848201524260a482015260c40160606040518083038185885af115801561215b573d5f803e3d5ffd5b50505050506040513d601f19601f820116820180604052508101906121809190613cba565b5050602b54602a5460405163095ea7b360e01b81526001600160a01b0391821660048201525f1960248201529116915063095ea7b3906044016020604051808303815f875af11580156121d5573d5f803e3d5ffd5b505050506040513d601f19601f820116820180604052508101906121f99190613ce5565b50602b805462ff00ff60a01b19166201000160a01b179055601254305f8181526001602052604090205461112a926001600160a01b0316906122be565b5f546001600160a01b0316331461225f5760405162461bcd60e51b8152600401610bf990613aae565b47801561226f5761226f81612b77565b50565b6010546001600160a01b03163314612288575f80fd5b6012546040516001600160a01b03909116904780156108fc02915f818181858888f1935050505015801561226f573d5f803e3d5ffd5b6001600160a01b0383166123225760405162461bcd60e51b815260206004820152602560248201527f45524332303a207472616e736665722066726f6d20746865207a65726f206164604482015264647265737360d81b6064820152608401610bf9565b6001600160a01b0382166123845760405162461bcd60e51b815260206004820152602360248201527f45524332303a207472616e7366657220746f20746865207a65726f206164647260448201526265737360e81b6064820152608401610bf9565b5f81116123e55760405162461bcd60e51b815260206004820152602960248201527f5472616e7366657220616d6f756e74206d7573742062652067726561746572206044820152687468616e207a65726f60b81b6064820152608401610bf9565b5f80546001600160a01b0385811691161480159061241057505f546001600160a01b03848116911614155b1561276457612441606461243b601954601c541161243057601554612434565b6017545b859061352d565b906134e5565b602b54909150600160b81b900460ff161561252e57602a546001600160a01b038481169116148015906124825750602b546001600160a01b03848116911614155b1561252e57325f90815260086020526040902054431161251c5760405162461bcd60e51b815260206004820152604960248201527f5f7472616e736665723a3a205472616e736665722044656c617920656e61626c60448201527f65642e20204f6e6c79206f6e652070757263686173652070657220626c6f636b6064820152681030b63637bbb2b21760b91b608482015260a401610bf9565b325f9081526008602052604090204390555b602b546001600160a01b0385811691161480156125595750602a546001600160a01b03848116911614155b801561257d57506001600160a01b0383165f9081526003602052604090205460ff16155b1561266357601e548211156125d45760405162461bcd60e51b815260206004820152601960248201527f4578636565647320746865205f6d61785478416d6f756e742e000000000000006044820152606401610bf9565b601f54826125f6856001600160a01b03165f9081526001602052604090205490565b6126009190613c01565b111561264e5760405162461bcd60e51b815260206004820152601a60248201527f4578636565647320746865206d617857616c6c657453697a652e0000000000006044820152606401610bf9565b601c8054905f61265d83613c87565b91905055505b602b546001600160a01b03848116911614801561268957506001600160a01b0384163014155b156126b6576126b3606461243b601a54601c54116126a957601654612434565b601854859061352d565b90505b305f90815260016020526040902054602b54600160a81b900460ff161580156126ec5750602b546001600160a01b038581169116145b80156127015750602b54600160b01b900460ff165b801561270e575060205481115b801561271d5750601b54601c54115b15612762575f47905061274361273e85612739856021546135ab565b6135ab565b613375565b5f61274e47836135bf565b9050801561275f5761275f81612b77565b50505b505b80156127dc57305f908152600160205260409020546127839082613600565b305f81815260016020526040908190209290925590516001600160a01b038616907fddf252ad1be2c89b69c2b068fc378daa952ba7f163c4a11628f55a4df523b3ef906127d39085815260200190565b60405180910390a35b6001600160a01b0384165f908152600160205260409020546127fe90836135bf565b6001600160a01b0385165f9081526001602052604090205561284161282383836135bf565b6001600160a01b0385165f9081526001602052604090205490613600565b6001600160a01b038085165f8181526001602052604090209290925585167fddf252ad1be2c89b69c2b068fc378daa952ba7f163c4a11628f55a4df523b3ef61288a85856135bf565b60405190815260200160405180910390a350505050565b6001600160a01b0383166129035760405162461bcd60e51b8152602060048201526024808201527f45524332303a20617070726f76652066726f6d20746865207a65726f206164646044820152637265737360e01b6064820152608401610bf9565b6001600160a01b0382166129645760405162461bcd60e51b815260206004820152602260248201527f45524332303a20617070726f766520746f20746865207a65726f206164647265604482015261737360f01b6064820152608401610bf9565b6001600160a01b038381165f8181526002602090815260408083209487168084529482529182902085905590518481527f8c5be1e5ebec7d5bd14f71427d1e84f3dd0314c0f7b2291e5b200ac8c7c3b925910160405180910390a3505050565b5f81848411156129e75760405162461bcd60e51b8152600401610bf9919061373c565b505f6129f38486613a9b565b95945050505050565b6001600160a01b038216612a5c5760405162461bcd60e51b815260206004820152602160248201527f43616e6e6f74206275726e2066726f6d20746865207a65726f206164647265736044820152607360f81b6064820152608401610bf9565b612a686009600a613bdc565b612a729082613bea565b6001600160a01b0383165f90815260016020526040812080549293508392909190612a9e908490613a9b565b9250508190555080601d5f828254612ab69190613a9b565b9091555050601d54601e819055601f556040518181526001600160a01b038316907fcc16f5dbb4873280815c1ee09dbd06736cffcc184412cf7a71a0fdb75d397ca59060200160405180910390a26040518181525f906001600160a01b038416907fddf252ad1be2c89b69c2b068fc378daa952ba7f163c4a11628f55a4df523b3ef9060200160405180910390a37f947f344d56e1e8c70dc492fb94c4ddddd490c016aab685f5e7e47b2e85cb44cf601d54604051610d9c91815260200190565b5f8111612bc65760405162461bcd60e51b815260206004820181905260248201527f416d6f756e74206d7573742062652067726561746572207468616e207a65726f6044820152606401610bf9565b80471015612c165760405162461bcd60e51b815260206004820152601d60248201527f496e73756666696369656e7420636f6e74726163742062616c616e63650000006044820152606401610bf9565b5f612c22600583613d04565b6013546040519192506001600160a01b03169082156108fc029083905f818181858888f19350505050158015612c5a573d5f803e3d5ffd5b506011546040516001600160a01b039091169082156108fc029083905f818181858888f19350505050158015612c92573d5f803e3d5ffd5b506010546040516001600160a01b039091169082156108fc029083905f818181858888f193505050501580156118ec573d5f803e3d5ffd5b5f546001600160a01b03163314612cf35760405162461bcd60e51b8152600401610bf990613aae565b601d54601e819055601f819055602b805460ff60b81b191690556040519081527f947f344d56e1e8c70dc492fb94c4ddddd490c016aab685f5e7e47b2e85cb44cf9060200160405180910390a1565b815f03612d4e57505050565b5f80604051602001612d6a90635854524160e01b815260040190565b6040516020818303038152906040528051906020012085604051602001612d919190613c14565b6040516020818303038152906040528051906020012003612f0c57602254612db9908561352d565b602654909250612dc9908561352d565b6001600160a01b0384165f90815260096020526040902054909150821115612e035760405162461bcd60e51b8152600401610bf990613d23565b6001600160a01b0383165f908152600a6020526040902054811115612e3a5760405162461bcd60e51b8152600401610bf990613d64565b6001600160a01b0383165f9081526009602052604081208054849290612e61908490613a9b565b90915550506001600160a01b0383165f908152600a602052604081208054839290612e8d908490613a9b565b90915550506001600160a01b0383165f908152600b602052604081208054869290612eb9908490613c01565b90915550506040516001600160a01b0384169033907f3d57eec5ab68ae7c8f1ed6299a36d8e6f61253e0f24ac6aba38bc3fcbe7bc7ae90612eff90899086908890613d99565b60405180910390a361336e565b604051641093d3d4d560da1b60208201526025016040516020818303038152906040528051906020012085604051602001612f479190613c14565b604051602081830303815290604052805190602001200361306f57602354612f6f908561352d565b602754909250612f7f908561352d565b6001600160a01b0384165f90815260096020526040902054909150821115612fb95760405162461bcd60e51b8152600401610bf990613d23565b6001600160a01b0383165f908152600a6020526040902054811115612ff05760405162461bcd60e51b8152600401610bf990613d64565b6001600160a01b0383165f9081526009602052604081208054849290613017908490613a9b565b90915550506001600160a01b0383165f908152600a602052604081208054839290613043908490613a9b565b90915550506001600160a01b0383165f908152600c602052604081208054869290612eb9908490613c01565b604051602b60f91b602082015260210160405160208183030381529060405280519060200120856040516020016130a69190613c14565b60405160208183030381529060405280519060200120036131ce576024546130ce908561352d565b6028549092506130de908561352d565b6001600160a01b0384165f908152600960205260409020549091508211156131185760405162461bcd60e51b8152600401610bf990613d23565b6001600160a01b0383165f908152600a602052604090205481111561314f5760405162461bcd60e51b8152600401610bf990613d64565b6001600160a01b0383165f9081526009602052604081208054849290613176908490613a9b565b90915550506001600160a01b0383165f908152600a6020526040812080548392906131a2908490613a9b565b90915550506001600160a01b0383165f908152600d602052604081208054869290612eb9908490613c01565b604051630534b49560e41b602082015260240160405160208183030381529060405280519060200120856040516020016132089190613c14565b604051602081830303815290604052805190602001200361333057602554613230908561352d565b602954909250613240908561352d565b6001600160a01b0384165f9081526009602052604090205490915082111561327a5760405162461bcd60e51b8152600401610bf990613d23565b6001600160a01b0383165f908152600a60205260409020548111156132b15760405162461bcd60e51b8152600401610bf990613d64565b6001600160a01b0383165f90815260096020526040812080548492906132d8908490613a9b565b90915550506001600160a01b0383165f908152600a602052604081208054839290613304908490613a9b565b90915550506001600160a01b0383165f908152600e602052604081208054869290612eb9908490613c01565b60405162461bcd60e51b8152602060048201526013602482015272496e76616c696420506f74696f6e204e616d6560681b6044820152606401610bf9565b5050505050565b602b805460ff60a81b1916600160a81b1790556040805160028082526060820183525f9260208301908036833701905050905030815f815181106133bb576133bb613c73565b6001600160a01b03928316602091820292909201810191909152602a54604080516315ab88c960e31b81529051919093169263ad5c46489260048083019391928290030181865afa158015613412573d5f803e3d5ffd5b505050506040513d601f19601f820116820180604052508101906134369190613c9f565b8160018151811061344957613449613c73565b6001600160a01b039283166020918202929092010152602a5461346f91309116846128a1565b602a5460405163791ac94760e01b81526001600160a01b039091169063791ac947906134a79085905f90869030904290600401613dbd565b5f604051808303815f87803b1580156134be575f80fd5b505af11580156134d0573d5f803e3d5ffd5b5050602b805460ff60a81b1916905550505050565b5f61352683836040518060400160405280601a81526020017f536166654d6174683a206469766973696f6e206279207a65726f00000000000081525061365e565b9392505050565b5f825f0361353c57505f610c7f565b5f6135478385613bea565b9050826135548583613d04565b146135265760405162461bcd60e51b815260206004820152602160248201527f536166654d6174683a206d756c7469706c69636174696f6e206f766572666c6f6044820152607760f81b6064820152608401610bf9565b5f8183116135b95782613526565b50919050565b5f61352683836040518060400160405280601e81526020017f536166654d6174683a207375627472616374696f6e206f766572666c6f7700008152506129c4565b5f8061360c8385613c01565b9050838110156135265760405162461bcd60e51b815260206004820152601b60248201527f536166654d6174683a206164646974696f6e206f766572666c6f7700000000006044820152606401610bf9565b5f818361367e5760405162461bcd60e51b8152600401610bf9919061373c565b505f6129f38486613d04565b5f6020828403121561369a575f80fd5b5035919050565b6001600160a01b038116811461226f575f80fd5b80356136c0816136a1565b919050565b5f80604083850312156136d6575f80fd5b82356136e1816136a1565b946020939093013593505050565b5f5b838110156137095781810151838201526020016136f1565b50505f910152565b5f81518084526137288160208601602086016136ef565b601f01601f19169290920160200192915050565b602081525f6135266020830184613711565b5f806040838503121561375f575f80fd5b50508035926020909101359150565b5f6020828403121561377e575f80fd5b8135613526816136a1565b5f805f6060848603121561379b575f80fd5b83356137a6816136a1565b925060208401356137b6816136a1565b929592945050506040919091013590565b634e487b7160e01b5f52604160045260245ffd5b604051601f8201601f1916810167ffffffffffffffff81118282101715613804576138046137c7565b604052919050565b5f67ffffffffffffffff821115613825576138256137c7565b5060051b60200190565b5f82601f83011261383e575f80fd5b8135602061385361384e8361380c565b6137db565b82815260059290921b84018101918181019086841115613871575f80fd5b8286015b8481101561388c5780358352918301918301613875565b509695505050505050565b5f82601f8301126138a6575f80fd5b813567ffffffffffffffff8111156138c0576138c06137c7565b6138d3601f8201601f19166020016137db565b8181528460208386010111156138e7575f80fd5b816020850160208301375f918101602001919091529392505050565b5f805f60608486031215613915575f80fd5b8335613920816136a1565b9250602084013567ffffffffffffffff8082111561393c575f80fd5b6139488783880161382f565b9350604086013591508082111561395d575f80fd5b5061396a86828701613897565b9150509250925092565b5f805f60608486031215613986575f80fd5b833567ffffffffffffffff8082111561399d575f80fd5b818601915086601f8301126139b0575f80fd5b813560206139c061384e8361380c565b82815260059290921b8401810191818101908a8411156139de575f80fd5b8286015b84811015613a15578035868111156139f9575f8081fd5b613a078d86838b0101613897565b8452509183019183016139e2565b5097505087013592505080821115613a2b575f80fd5b50613a388682870161382f565b925050613a47604085016136b5565b90509250925092565b5f8060408385031215613a61575f80fd5b8235613a6c816136a1565b91506020830135613a7c816136a1565b809150509250929050565b634e487b7160e01b5f52601160045260245ffd5b81810381811115610c7f57610c7f613a87565b6020808252818101527f4f776e61626c653a2063616c6c6572206973206e6f7420746865206f776e6572604082015260600190565b60ff8281168282160390811115610c7f57610c7f613a87565b600181815b80851115613b3657815f1904821115613b1c57613b1c613a87565b80851615613b2957918102915b93841c9390800290613b01565b509250929050565b5f82613b4c57506001610c7f565b81613b5857505f610c7f565b8160018114613b6e5760028114613b7857613b94565b6001915050610c7f565b60ff841115613b8957613b89613a87565b50506001821b610c7f565b5060208310610133831016604e8410600b8410161715613bb7575081810a610c7f565b613bc18383613afc565b805f1904821115613bd457613bd4613a87565b029392505050565b5f61352660ff841683613b3e565b8082028115828204841417610c7f57610c7f613a87565b80820180821115610c7f57610c7f613a87565b5f8251613c258184602087016136ef565b9190910192915050565b60208082526024908201527f42616c616e636520646f6573206e6f74206861766520656e6f75676820506f74604082015263696f6e7360e01b606082015260800190565b634e487b7160e01b5f52603260045260245ffd5b5f60018201613c9857613c98613a87565b5060010190565b5f60208284031215613caf575f80fd5b8151613526816136a1565b5f805f60608486031215613ccc575f80fd5b8351925060208401519150604084015190509250925092565b5f60208284031215613cf5575f80fd5b81518015158114613526575f80fd5b5f82613d1e57634e487b7160e01b5f52601260045260245ffd5b500490565b60208082526021908201527f42616c616e636520646f6573206e6f74206861766520656e6f7567682048474d6040820152605360f81b606082015260800190565b6020808252818101527f42616c616e636520646f6573206e6f74206861766520656e6f75676820455448604082015260600190565b606081525f613dab6060830186613711565b60208301949094525060400152919050565b5f60a082018783526020878185015260a0604085015281875180845260c08601915082890193505f5b81811015613e0b5784516001600160a01b031683529383019391830191600101613de6565b50506001600160a01b0396909616606085015250505060800152939250505056fe45524332303a207472616e7366657220616d6f756e74206578636565647320616c6c6f77616e6365a264697066735822122079a99a0faf8749a67af1008ddecd2a9e74500fb3c8b9468a3e5d8895191a6ab364736f6c63430008150033",
			"opcodes": "PUSH1 0x80 PUSH1 0x40 MSTORE PUSH1 0x14 DUP1 SLOAD PUSH1 0x1 PUSH1 0x1 PUSH1 0xA0 SHL SUB NOT AND SWAP1 SSTORE PUSH1 0x13 PUSH1 0x15 DUP2 SWAP1 SSTORE PUSH1 0x19 PUSH1 0x16 DUP2 SWAP1 SSTORE PUSH1 0x5 PUSH1 0x17 DUP2 SWAP1 SSTORE PUSH1 0x18 SSTORE SWAP1 DUP2 SSTORE PUSH1 0x1A DUP2 SWAP1 SSTORE PUSH1 0x1B SSTORE PUSH0 PUSH1 0x1C SSTORE PUSH3 0x49 PUSH1 0x9 PUSH1 0xA PUSH3 0x45A JUMP JUMPDEST PUSH3 0x59 SWAP1 PUSH4 0x3B9ACA00 PUSH3 0x471 JUMP JUMPDEST PUSH1 0x1D SSTORE PUSH3 0x6A PUSH1 0x9 PUSH1 0xA PUSH3 0x45A JUMP JUMPDEST PUSH3 0x79 SWAP1 PUSH3 0x989680 PUSH3 0x471 JUMP JUMPDEST PUSH1 0x1E SSTORE PUSH3 0x8A PUSH1 0x9 PUSH1 0xA PUSH3 0x45A JUMP JUMPDEST PUSH3 0x9A SWAP1 PUSH4 0x1312D00 PUSH3 0x471 JUMP JUMPDEST PUSH1 0x1F SSTORE PUSH3 0xAB PUSH1 0x9 PUSH1 0xA PUSH3 0x45A JUMP JUMPDEST PUSH3 0xBA SWAP1 PUSH3 0xF4240 PUSH3 0x471 JUMP JUMPDEST PUSH1 0x20 SSTORE PUSH3 0xCB PUSH1 0x9 PUSH1 0xA PUSH3 0x45A JUMP JUMPDEST PUSH3 0xDA SWAP1 PUSH3 0x989680 PUSH3 0x471 JUMP JUMPDEST PUSH1 0x21 SSTORE PUSH2 0xC350 PUSH1 0x22 SSTORE PUSH2 0xC350 PUSH1 0x23 SSTORE PUSH2 0xC350 PUSH1 0x24 SSTORE PUSH2 0xC350 PUSH1 0x25 SSTORE PUSH1 0x3 PUSH1 0x9 PUSH3 0x105 SWAP2 SWAP1 PUSH3 0x48B JUMP JUMPDEST PUSH3 0x112 SWAP1 PUSH1 0xA PUSH3 0x45A JUMP JUMPDEST PUSH3 0x11F SWAP1 PUSH1 0x4 PUSH3 0x471 JUMP JUMPDEST PUSH1 0x26 SSTORE PUSH0 PUSH1 0x27 SSTORE PUSH3 0x134 PUSH1 0x3 PUSH1 0x9 PUSH3 0x48B JUMP JUMPDEST PUSH3 0x141 SWAP1 PUSH1 0xA PUSH3 0x45A JUMP JUMPDEST PUSH3 0x14E SWAP1 PUSH1 0x2 PUSH3 0x471 JUMP JUMPDEST PUSH1 0x28 SSTORE PUSH3 0x15F PUSH1 0x3 PUSH1 0x9 PUSH3 0x48B JUMP JUMPDEST PUSH3 0x16C SWAP1 PUSH1 0xA PUSH3 0x45A JUMP JUMPDEST PUSH3 0x179 SWAP1 PUSH1 0x1 PUSH3 0x471 JUMP JUMPDEST PUSH1 0x29 SSTORE PUSH1 0x2B DUP1 SLOAD PUSH3 0xFFFFFF PUSH1 0xA8 SHL NOT AND PUSH1 0x1 PUSH1 0xB8 SHL OR SWAP1 SSTORE CALLVALUE DUP1 ISZERO PUSH3 0x19D JUMPI PUSH0 DUP1 REVERT JUMPDEST POP PUSH0 DUP1 SLOAD PUSH1 0x1 PUSH1 0x1 PUSH1 0xA0 SHL SUB NOT AND CALLER SWAP1 DUP2 OR DUP3 SSTORE PUSH1 0x40 MLOAD SWAP1 SWAP2 DUP3 SWAP2 PUSH32 0x8BE0079C531659141344CD1FD0A4F28419497F9722A3DAAFE3B4186F6B6457E0 SWAP1 DUP3 SWAP1 LOG3 POP CALLER PUSH1 0x12 DUP1 SLOAD PUSH1 0x1 PUSH1 0x1 PUSH1 0xA0 SHL SUB SWAP3 SWAP1 SWAP3 AND PUSH1 0x1 PUSH1 0x1 PUSH1 0xA0 SHL SUB NOT SWAP3 DUP4 AND OR SWAP1 SSTORE PUSH1 0x13 DUP1 SLOAD DUP3 AND PUSH20 0xD53C9795A9DAF24FBCAB45CF2DF0D37145F7E0E0 OR SWAP1 SSTORE PUSH1 0x11 DUP1 SLOAD DUP3 AND PUSH20 0x6F1F797F35EF003C3B89257971A80208C61F7976 OR SWAP1 SSTORE PUSH1 0x10 DUP1 SLOAD SWAP1 SWAP2 AND PUSH20 0x7034990879D4E4C0F9DADE892AD641BC45DEDBBF OR SWAP1 SSTORE PUSH1 0x1D SLOAD ADDRESS PUSH0 SWAP1 DUP2 MSTORE PUSH1 0x1 PUSH1 0x20 DUP2 SWAP1 MSTORE PUSH1 0x40 DUP3 KECCAK256 SWAP3 SWAP1 SWAP3 SSTORE PUSH1 0x3 SWAP1 PUSH3 0x285 PUSH0 SLOAD PUSH1 0x1 PUSH1 0x1 PUSH1 0xA0 SHL SUB AND SWAP1 JUMP JUMPDEST PUSH1 0x1 PUSH1 0x1 PUSH1 0xA0 SHL SUB SWAP1 DUP2 AND DUP3 MSTORE PUSH1 0x20 DUP1 DUP4 ADD SWAP4 SWAP1 SWAP4 MSTORE PUSH1 0x40 SWAP2 DUP3 ADD PUSH0 SWAP1 DUP2 KECCAK256 DUP1 SLOAD SWAP6 ISZERO ISZERO PUSH1 0xFF NOT SWAP7 DUP8 AND OR SWAP1 SSTORE ADDRESS DUP1 DUP3 MSTORE PUSH1 0x3 DUP6 MSTORE DUP4 DUP3 KECCAK256 DUP1 SLOAD DUP8 AND PUSH1 0x1 SWAP1 DUP2 OR SWAP1 SWAP2 SSTORE PUSH1 0x13 SLOAD DUP5 AND DUP4 MSTORE DUP5 DUP4 KECCAK256 DUP1 SLOAD DUP9 AND DUP3 OR SWAP1 SSTORE PUSH1 0x11 SLOAD DUP5 AND DUP4 MSTORE DUP5 DUP4 KECCAK256 DUP1 SLOAD DUP9 AND DUP3 OR SWAP1 SSTORE PUSH1 0x10 SLOAD SWAP1 SWAP4 AND DUP3 MSTORE DUP4 DUP3 KECCAK256 DUP1 SLOAD SWAP1 SWAP7 AND DUP4 OR SWAP1 SWAP6 SSTORE DUP5 DUP2 MSTORE SWAP3 MSTORE DUP1 DUP3 KECCAK256 SLOAD SWAP1 MLOAD PUSH32 0xDDF252AD1BE2C89B69C2B068FC378DAA952BA7F163C4A11628F55A4DF523B3EF SWAP2 PUSH3 0x33D SWAP2 SWAP1 DUP2 MSTORE PUSH1 0x20 ADD SWAP1 JUMP JUMPDEST PUSH1 0x40 MLOAD DUP1 SWAP2 SUB SWAP1 LOG3 PUSH3 0x4A7 JUMP JUMPDEST PUSH4 0x4E487B71 PUSH1 0xE0 SHL PUSH0 MSTORE PUSH1 0x11 PUSH1 0x4 MSTORE PUSH1 0x24 PUSH0 REVERT JUMPDEST PUSH1 0x1 DUP2 DUP2 JUMPDEST DUP1 DUP6 GT ISZERO PUSH3 0x39F JUMPI DUP2 PUSH0 NOT DIV DUP3 GT ISZERO PUSH3 0x383 JUMPI PUSH3 0x383 PUSH3 0x34B JUMP JUMPDEST DUP1 DUP6 AND ISZERO PUSH3 0x391 JUMPI SWAP2 DUP2 MUL SWAP2 JUMPDEST SWAP4 DUP5 SHR SWAP4 SWAP1 DUP1 MUL SWAP1 PUSH3 0x364 JUMP JUMPDEST POP SWAP3 POP SWAP3 SWAP1 POP JUMP JUMPDEST PUSH0 DUP3 PUSH3 0x3B7 JUMPI POP PUSH1 0x1 PUSH3 0x454 JUMP JUMPDEST DUP2 PUSH3 0x3C5 JUMPI POP PUSH0 PUSH3 0x454 JUMP JUMPDEST DUP2 PUSH1 0x1 DUP2 EQ PUSH3 0x3DE JUMPI PUSH1 0x2 DUP2 EQ PUSH3 0x3E9 JUMPI PUSH3 0x409 JUMP JUMPDEST PUSH1 0x1 SWAP2 POP POP PUSH3 0x454 JUMP JUMPDEST PUSH1 0xFF DUP5 GT ISZERO PUSH3 0x3FD JUMPI PUSH3 0x3FD PUSH3 0x34B JUMP JUMPDEST POP POP PUSH1 0x1 DUP3 SHL PUSH3 0x454 JUMP JUMPDEST POP PUSH1 0x20 DUP4 LT PUSH2 0x133 DUP4 LT AND PUSH1 0x4E DUP5 LT PUSH1 0xB DUP5 LT AND OR ISZERO PUSH3 0x42E JUMPI POP DUP2 DUP2 EXP PUSH3 0x454 JUMP JUMPDEST PUSH3 0x43A DUP4 DUP4 PUSH3 0x35F JUMP JUMPDEST DUP1 PUSH0 NOT DIV DUP3 GT ISZERO PUSH3 0x450 JUMPI PUSH3 0x450 PUSH3 0x34B JUMP JUMPDEST MUL SWAP1 POP JUMPDEST SWAP3 SWAP2 POP POP JUMP JUMPDEST PUSH0 PUSH3 0x46A PUSH1 0xFF DUP5 AND DUP4 PUSH3 0x3A7 JUMP JUMPDEST SWAP4 SWAP3 POP POP POP JUMP JUMPDEST DUP1 DUP3 MUL DUP2 ISZERO DUP3 DUP3 DIV DUP5 EQ OR PUSH3 0x454 JUMPI PUSH3 0x454 PUSH3 0x34B JUMP JUMPDEST PUSH1 0xFF DUP3 DUP2 AND DUP3 DUP3 AND SUB SWAP1 DUP2 GT ISZERO PUSH3 0x454 JUMPI PUSH3 0x454 PUSH3 0x34B JUMP JUMPDEST PUSH2 0x3E8A DUP1 PUSH3 0x4B5 PUSH0 CODECOPY PUSH0 RETURN INVALID PUSH1 0x80 PUSH1 0x40 MSTORE PUSH1 0x4 CALLDATASIZE LT PUSH2 0x395 JUMPI PUSH0 CALLDATALOAD PUSH1 0xE0 SHR DUP1 PUSH4 0x715018A6 GT PUSH2 0x1DE JUMPI DUP1 PUSH4 0xBF474BED GT PUSH2 0x108 JUMPI DUP1 PUSH4 0xEB429BF8 GT PUSH2 0x9D JUMPI DUP1 PUSH4 0xF3A395FC GT PUSH2 0x6D JUMPI DUP1 PUSH4 0xF3A395FC EQ PUSH2 0xB23 JUMPI DUP1 PUSH4 0xF4293890 EQ PUSH2 0xB51 JUMPI DUP1 PUSH4 0xF5648A4F EQ PUSH2 0xB65 JUMPI DUP1 PUSH4 0xF7685A02 EQ PUSH2 0xB79 JUMPI PUSH0 DUP1 REVERT JUMPDEST DUP1 PUSH4 0xEB429BF8 EQ PUSH2 0xAA3 JUMPI DUP1 PUSH4 0xEB77DBB1 EQ PUSH2 0xACE JUMPI DUP1 PUSH4 0xF2A6227F EQ PUSH2 0xAE3 JUMPI DUP1 PUSH4 0xF2B4C325 EQ PUSH2 0xB0E JUMPI PUSH0 DUP1 REVERT JUMPDEST DUP1 PUSH4 0xC9567BF9 GT PUSH2 0xD8 JUMPI DUP1 PUSH4 0xC9567BF9 EQ PUSH2 0xA01 JUMPI DUP1 PUSH4 0xCE9DC805 EQ PUSH2 0xA15 JUMPI DUP1 PUSH4 0xD677D03E EQ PUSH2 0xA34 JUMPI DUP1 PUSH4 0xDD62ED3E EQ PUSH2 0xA5F JUMPI PUSH0 DUP1 REVERT JUMPDEST DUP1 PUSH4 0xBF474BED EQ PUSH2 0x973 JUMPI DUP1 PUSH4 0xC1AE5E72 EQ PUSH2 0x988 JUMPI DUP1 PUSH4 0xC232AE4D EQ PUSH2 0x9B6 JUMPI DUP1 PUSH4 0xC876D0B9 EQ PUSH2 0x9E1 JUMPI PUSH0 DUP1 REVERT JUMPDEST DUP1 PUSH4 0x95D89B41 GT PUSH2 0x17E JUMPI DUP1 PUSH4 0xABB284E9 GT PUSH2 0x14E JUMPI DUP1 PUSH4 0xABB284E9 EQ PUSH2 0x8EB JUMPI DUP1 PUSH4 0xAF95D4D3 EQ PUSH2 0x90A JUMPI DUP1 PUSH4 0xBBAB0FF1 EQ PUSH2 0x929 JUMPI DUP1 PUSH4 0xBE68E027 EQ PUSH2 0x948 JUMPI PUSH0 DUP1 REVERT JUMPDEST DUP1 PUSH4 0x95D89B41 EQ PUSH2 0x86D JUMPI DUP1 PUSH4 0xA09DFBD0 EQ PUSH2 0x899 JUMPI DUP1 PUSH4 0xA1780C18 EQ PUSH2 0x8B8 JUMPI DUP1 PUSH4 0xA9059CBB EQ PUSH2 0x8CC JUMPI PUSH0 DUP1 REVERT JUMPDEST DUP1 PUSH4 0x81CD58E5 GT PUSH2 0x1B9 JUMPI DUP1 PUSH4 0x81CD58E5 EQ PUSH2 0x7FE JUMPI DUP1 PUSH4 0x8DA5CB5B EQ PUSH2 0x81D JUMPI DUP1 PUSH4 0x8F9A55C0 EQ PUSH2 0x839 JUMPI DUP1 PUSH4 0x8FBD8F27 EQ PUSH2 0x84E JUMPI PUSH0 DUP1 REVERT JUMPDEST DUP1 PUSH4 0x715018A6 EQ PUSH2 0x7C1 JUMPI DUP1 PUSH4 0x751039FC EQ PUSH2 0x7D5 JUMPI DUP1 PUSH4 0x7D1DB4A5 EQ PUSH2 0x7E9 JUMPI PUSH0 DUP1 REVERT JUMPDEST DUP1 PUSH4 0x24AEDE52 GT PUSH2 0x2BF JUMPI DUP1 PUSH4 0x51A2F687 GT PUSH2 0x25F JUMPI DUP1 PUSH4 0x66B6090F GT PUSH2 0x22F JUMPI DUP1 PUSH4 0x66B6090F EQ PUSH2 0x72B JUMPI DUP1 PUSH4 0x6A4D84F9 EQ PUSH2 0x740 JUMPI DUP1 PUSH4 0x6E2ED3C4 EQ PUSH2 0x75F JUMPI DUP1 PUSH4 0x70A08231 EQ PUSH2 0x78D JUMPI PUSH0 DUP1 REVERT JUMPDEST DUP1 PUSH4 0x51A2F687 EQ PUSH2 0x685 JUMPI DUP1 PUSH4 0x52D3C14E EQ PUSH2 0x6A4 JUMPI DUP1 PUSH4 0x54CA45D8 EQ PUSH2 0x6CF JUMPI DUP1 PUSH4 0x580A155A EQ PUSH2 0x6FD JUMPI PUSH0 DUP1 REVERT JUMPDEST DUP1 PUSH4 0x2D4BBB05 GT PUSH2 0x29A JUMPI DUP1 PUSH4 0x2D4BBB05 EQ PUSH2 0x60A JUMPI DUP1 PUSH4 0x313CE567 EQ PUSH2 0x61D JUMPI DUP1 PUSH4 0x37E294D5 EQ PUSH2 0x638 JUMPI DUP1 PUSH4 0x3B32EDD4 EQ PUSH2 0x657 JUMPI PUSH0 DUP1 REVERT JUMPDEST DUP1 PUSH4 0x24AEDE52 EQ PUSH2 0x5B2 JUMPI DUP1 PUSH4 0x298A8328 EQ PUSH2 0x5C7 JUMPI DUP1 PUSH4 0x2ACE2AF5 EQ PUSH2 0x5DC JUMPI PUSH0 DUP1 REVERT JUMPDEST DUP1 PUSH4 0xD2D697A GT PUSH2 0x335 JUMPI DUP1 PUSH4 0x18160DDD GT PUSH2 0x305 JUMPI DUP1 PUSH4 0x18160DDD EQ PUSH2 0x555 JUMPI DUP1 PUSH4 0x19DDE7B7 EQ PUSH2 0x569 JUMPI DUP1 PUSH4 0x21E09B34 EQ PUSH2 0x57E JUMPI DUP1 PUSH4 0x23B872DD EQ PUSH2 0x593 JUMPI PUSH0 DUP1 REVERT JUMPDEST DUP1 PUSH4 0xD2D697A EQ PUSH2 0x4B1 JUMPI DUP1 PUSH4 0xDB6DFF7 EQ PUSH2 0x4EA JUMPI DUP1 PUSH4 0xFAEE56F EQ PUSH2 0x509 JUMPI DUP1 PUSH4 0x11A63E17 EQ PUSH2 0x51E JUMPI PUSH0 DUP1 REVERT JUMPDEST DUP1 PUSH4 0x6FDDE03 GT PUSH2 0x370 JUMPI DUP1 PUSH4 0x6FDDE03 EQ PUSH2 0x418 JUMPI DUP1 PUSH4 0x95EA7B3 EQ PUSH2 0x454 JUMPI DUP1 PUSH4 0x9EADBF5 EQ PUSH2 0x473 JUMPI DUP1 PUSH4 0xC0E3D4A EQ PUSH2 0x492 JUMPI PUSH0 DUP1 REVERT JUMPDEST DUP1 PUSH4 0x39AA9CF EQ PUSH2 0x3A0 JUMPI DUP1 PUSH4 0x634087D EQ PUSH2 0x3E3 JUMPI DUP1 PUSH4 0x6B091F9 EQ PUSH2 0x3F9 JUMPI PUSH0 DUP1 REVERT JUMPDEST CALLDATASIZE PUSH2 0x39C JUMPI STOP JUMPDEST PUSH0 DUP1 REVERT JUMPDEST CALLVALUE DUP1 ISZERO PUSH2 0x3AB JUMPI PUSH0 DUP1 REVERT JUMPDEST POP PUSH2 0x3CE PUSH2 0x3BA CALLDATASIZE PUSH1 0x4 PUSH2 0x368A JUMP JUMPDEST PUSH1 0x6 PUSH1 0x20 MSTORE PUSH0 SWAP1 DUP2 MSTORE PUSH1 0x40 SWAP1 KECCAK256 SLOAD PUSH1 0xFF AND DUP2 JUMP JUMPDEST PUSH1 0x40 MLOAD SWAP1 ISZERO ISZERO DUP2 MSTORE PUSH1 0x20 ADD JUMPDEST PUSH1 0x40 MLOAD DUP1 SWAP2 SUB SWAP1 RETURN JUMPDEST CALLVALUE DUP1 ISZERO PUSH2 0x3EE JUMPI PUSH0 DUP1 REVERT JUMPDEST POP PUSH2 0x3F7 PUSH2 0xB8E JUMP JUMPDEST STOP JUMPDEST CALLVALUE DUP1 ISZERO PUSH2 0x404 JUMPI PUSH0 DUP1 REVERT JUMPDEST POP PUSH2 0x3F7 PUSH2 0x413 CALLDATASIZE PUSH1 0x4 PUSH2 0x36C5 JUMP JUMPDEST PUSH2 0xBD0 JUMP JUMPDEST CALLVALUE DUP1 ISZERO PUSH2 0x423 JUMPI PUSH0 DUP1 REVERT JUMPDEST POP PUSH1 0x40 DUP1 MLOAD DUP1 DUP3 ADD SWAP1 SWAP2 MSTORE PUSH1 0xB DUP2 MSTORE PUSH11 0x48756E67657247616D6573 PUSH1 0xA8 SHL PUSH1 0x20 DUP3 ADD MSTORE JUMPDEST PUSH1 0x40 MLOAD PUSH2 0x3DA SWAP2 SWAP1 PUSH2 0x373C JUMP JUMPDEST CALLVALUE DUP1 ISZERO PUSH2 0x45F JUMPI PUSH0 DUP1 REVERT JUMPDEST POP PUSH2 0x3CE PUSH2 0x46E CALLDATASIZE PUSH1 0x4 PUSH2 0x36C5 JUMP JUMPDEST PUSH2 0xC6F JUMP JUMPDEST CALLVALUE DUP1 ISZERO PUSH2 0x47E JUMPI PUSH0 DUP1 REVERT JUMPDEST POP PUSH2 0x3F7 PUSH2 0x48D CALLDATASIZE PUSH1 0x4 PUSH2 0x374E JUMP JUMPDEST PUSH2 0xC85 JUMP JUMPDEST CALLVALUE DUP1 ISZERO PUSH2 0x49D JUMPI PUSH0 DUP1 REVERT JUMPDEST POP PUSH2 0x3F7 PUSH2 0x4AC CALLDATASIZE PUSH1 0x4 PUSH2 0x374E JUMP JUMPDEST PUSH2 0xDA8 JUMP JUMPDEST CALLVALUE DUP1 ISZERO PUSH2 0x4BC JUMPI PUSH0 DUP1 REVERT JUMPDEST POP PUSH2 0x4DC PUSH2 0x4CB CALLDATASIZE PUSH1 0x4 PUSH2 0x376E JUMP JUMPDEST PUSH1 0x9 PUSH1 0x20 MSTORE PUSH0 SWAP1 DUP2 MSTORE PUSH1 0x40 SWAP1 KECCAK256 SLOAD DUP2 JUMP JUMPDEST PUSH1 0x40 MLOAD SWAP1 DUP2 MSTORE PUSH1 0x20 ADD PUSH2 0x3DA JUMP JUMPDEST CALLVALUE DUP1 ISZERO PUSH2 0x4F5 JUMPI PUSH0 DUP1 REVERT JUMPDEST POP PUSH2 0x3F7 PUSH2 0x504 CALLDATASIZE PUSH1 0x4 PUSH2 0x376E JUMP JUMPDEST PUSH2 0xDEB JUMP JUMPDEST CALLVALUE DUP1 ISZERO PUSH2 0x514 JUMPI PUSH0 DUP1 REVERT JUMPDEST POP PUSH2 0x4DC PUSH1 0x21 SLOAD DUP2 JUMP JUMPDEST CALLVALUE DUP1 ISZERO PUSH2 0x529 JUMPI PUSH0 DUP1 REVERT JUMPDEST POP PUSH1 0x12 SLOAD PUSH2 0x53D SWAP1 PUSH1 0x1 PUSH1 0x1 PUSH1 0xA0 SHL SUB AND DUP2 JUMP JUMPDEST PUSH1 0x40 MLOAD PUSH1 0x1 PUSH1 0x1 PUSH1 0xA0 SHL SUB SWAP1 SWAP2 AND DUP2 MSTORE PUSH1 0x20 ADD PUSH2 0x3DA JUMP JUMPDEST CALLVALUE DUP1 ISZERO PUSH2 0x560 JUMPI PUSH0 DUP1 REVERT JUMPDEST POP PUSH1 0x1D SLOAD PUSH2 0x4DC JUMP JUMPDEST CALLVALUE DUP1 ISZERO PUSH2 0x574 JUMPI PUSH0 DUP1 REVERT JUMPDEST POP PUSH2 0x4DC PUSH1 0x22 SLOAD DUP2 JUMP JUMPDEST CALLVALUE DUP1 ISZERO PUSH2 0x589 JUMPI PUSH0 DUP1 REVERT JUMPDEST POP PUSH2 0x4DC PUSH1 0x29 SLOAD DUP2 JUMP JUMPDEST CALLVALUE DUP1 ISZERO PUSH2 0x59E JUMPI PUSH0 DUP1 REVERT JUMPDEST POP PUSH2 0x3CE PUSH2 0x5AD CALLDATASIZE PUSH1 0x4 PUSH2 0x3789 JUMP JUMPDEST PUSH2 0xE36 JUMP JUMPDEST CALLVALUE DUP1 ISZERO PUSH2 0x5BD JUMPI PUSH0 DUP1 REVERT JUMPDEST POP PUSH2 0x4DC PUSH1 0x26 SLOAD DUP2 JUMP JUMPDEST CALLVALUE DUP1 ISZERO PUSH2 0x5D2 JUMPI PUSH0 DUP1 REVERT JUMPDEST POP PUSH2 0x4DC PUSH1 0x28 SLOAD DUP2 JUMP JUMPDEST CALLVALUE DUP1 ISZERO PUSH2 0x5E7 JUMPI PUSH0 DUP1 REVERT JUMPDEST POP PUSH2 0x3CE PUSH2 0x5F6 CALLDATASIZE PUSH1 0x4 PUSH2 0x368A JUMP JUMPDEST PUSH0 SWAP1 DUP2 MSTORE PUSH1 0x4 PUSH1 0x20 MSTORE PUSH1 0x40 SWAP1 KECCAK256 SLOAD PUSH1 0xFF AND SWAP1 JUMP JUMPDEST PUSH2 0x3F7 PUSH2 0x618 CALLDATASIZE PUSH1 0x4 PUSH2 0x374E JUMP JUMPDEST PUSH2 0xE9D JUMP JUMPDEST CALLVALUE DUP1 ISZERO PUSH2 0x628 JUMPI PUSH0 DUP1 REVERT JUMPDEST POP PUSH1 0x40 MLOAD PUSH1 0x9 DUP2 MSTORE PUSH1 0x20 ADD PUSH2 0x3DA JUMP JUMPDEST CALLVALUE DUP1 ISZERO PUSH2 0x643 JUMPI PUSH0 DUP1 REVERT JUMPDEST POP PUSH1 0x11 SLOAD PUSH2 0x53D SWAP1 PUSH1 0x1 PUSH1 0x1 PUSH1 0xA0 SHL SUB AND DUP2 JUMP JUMPDEST CALLVALUE DUP1 ISZERO PUSH2 0x662 JUMPI PUSH0 DUP1 REVERT JUMPDEST POP PUSH2 0x3CE PUSH2 0x671 CALLDATASIZE PUSH1 0x4 PUSH2 0x368A JUMP JUMPDEST PUSH0 SWAP1 DUP2 MSTORE PUSH1 0x6 PUSH1 0x20 MSTORE PUSH1 0x40 SWAP1 KECCAK256 SLOAD PUSH1 0xFF AND SWAP1 JUMP JUMPDEST CALLVALUE DUP1 ISZERO PUSH2 0x690 JUMPI PUSH0 DUP1 REVERT JUMPDEST POP PUSH1 0x10 SLOAD PUSH2 0x53D SWAP1 PUSH1 0x1 PUSH1 0x1 PUSH1 0xA0 SHL SUB AND DUP2 JUMP JUMPDEST CALLVALUE DUP1 ISZERO PUSH2 0x6AF JUMPI PUSH0 DUP1 REVERT JUMPDEST POP PUSH2 0x4DC PUSH2 0x6BE CALLDATASIZE PUSH1 0x4 PUSH2 0x376E JUMP JUMPDEST PUSH1 0xB PUSH1 0x20 MSTORE PUSH0 SWAP1 DUP2 MSTORE PUSH1 0x40 SWAP1 KECCAK256 SLOAD DUP2 JUMP JUMPDEST CALLVALUE DUP1 ISZERO PUSH2 0x6DA JUMPI PUSH0 DUP1 REVERT JUMPDEST POP PUSH2 0x3CE PUSH2 0x6E9 CALLDATASIZE PUSH1 0x4 PUSH2 0x368A JUMP JUMPDEST PUSH1 0x7 PUSH1 0x20 MSTORE PUSH0 SWAP1 DUP2 MSTORE PUSH1 0x40 SWAP1 KECCAK256 SLOAD PUSH1 0xFF AND DUP2 JUMP JUMPDEST CALLVALUE DUP1 ISZERO PUSH2 0x708 JUMPI PUSH0 DUP1 REVERT JUMPDEST POP PUSH2 0x3CE PUSH2 0x717 CALLDATASIZE PUSH1 0x4 PUSH2 0x368A JUMP JUMPDEST PUSH1 0x5 PUSH1 0x20 MSTORE PUSH0 SWAP1 DUP2 MSTORE PUSH1 0x40 SWAP1 KECCAK256 SLOAD PUSH1 0xFF AND DUP2 JUMP JUMPDEST CALLVALUE DUP1 ISZERO PUSH2 0x736 JUMPI PUSH0 DUP1 REVERT JUMPDEST POP PUSH2 0x4DC PUSH1 0x25 SLOAD DUP2 JUMP JUMPDEST CALLVALUE DUP1 ISZERO PUSH2 0x74B JUMPI PUSH0 DUP1 REVERT JUMPDEST POP PUSH2 0x3F7 PUSH2 0x75A CALLDATASIZE PUSH1 0x4 PUSH2 0x374E JUMP JUMPDEST PUSH2 0x1045 JUMP JUMPDEST CALLVALUE DUP1 ISZERO PUSH2 0x76A JUMPI PUSH0 DUP1 REVERT JUMPDEST POP PUSH2 0x3CE PUSH2 0x779 CALLDATASIZE PUSH1 0x4 PUSH2 0x368A JUMP JUMPDEST PUSH0 SWAP1 DUP2 MSTORE PUSH1 0x7 PUSH1 0x20 MSTORE PUSH1 0x40 SWAP1 KECCAK256 SLOAD PUSH1 0xFF AND SWAP1 JUMP JUMPDEST CALLVALUE DUP1 ISZERO PUSH2 0x798 JUMPI PUSH0 DUP1 REVERT JUMPDEST POP PUSH2 0x4DC PUSH2 0x7A7 CALLDATASIZE PUSH1 0x4 PUSH2 0x376E JUMP JUMPDEST PUSH1 0x1 PUSH1 0x1 PUSH1 0xA0 SHL SUB AND PUSH0 SWAP1 DUP2 MSTORE PUSH1 0x1 PUSH1 0x20 MSTORE PUSH1 0x40 SWAP1 KECCAK256 SLOAD SWAP1 JUMP JUMPDEST CALLVALUE DUP1 ISZERO PUSH2 0x7CC JUMPI PUSH0 DUP1 REVERT JUMPDEST POP PUSH2 0x3F7 PUSH2 0x1088 JUMP JUMPDEST CALLVALUE DUP1 ISZERO PUSH2 0x7E0 JUMPI PUSH0 DUP1 REVERT JUMPDEST POP PUSH2 0x3F7 PUSH2 0x10F9 JUMP JUMPDEST CALLVALUE DUP1 ISZERO PUSH2 0x7F4 JUMPI PUSH0 DUP1 REVERT JUMPDEST POP PUSH2 0x4DC PUSH1 0x1E SLOAD DUP2 JUMP JUMPDEST CALLVALUE DUP1 ISZERO PUSH2 0x809 JUMPI PUSH0 DUP1 REVERT JUMPDEST POP PUSH2 0x3F7 PUSH2 0x818 CALLDATASIZE PUSH1 0x4 PUSH2 0x3903 JUMP JUMPDEST PUSH2 0x112C JUMP JUMPDEST CALLVALUE DUP1 ISZERO PUSH2 0x828 JUMPI PUSH0 DUP1 REVERT JUMPDEST POP PUSH0 SLOAD PUSH1 0x1 PUSH1 0x1 PUSH1 0xA0 SHL SUB AND PUSH2 0x53D JUMP JUMPDEST CALLVALUE DUP1 ISZERO PUSH2 0x844 JUMPI PUSH0 DUP1 REVERT JUMPDEST POP PUSH2 0x4DC PUSH1 0x1F SLOAD DUP2 JUMP JUMPDEST CALLVALUE DUP1 ISZERO PUSH2 0x859 JUMPI PUSH0 DUP1 REVERT JUMPDEST POP PUSH2 0x3F7 PUSH2 0x868 CALLDATASIZE PUSH1 0x4 PUSH2 0x374E JUMP JUMPDEST PUSH2 0x18F1 JUMP JUMPDEST CALLVALUE DUP1 ISZERO PUSH2 0x878 JUMPI PUSH0 DUP1 REVERT JUMPDEST POP PUSH1 0x40 DUP1 MLOAD DUP1 DUP3 ADD SWAP1 SWAP2 MSTORE PUSH1 0x4 DUP2 MSTORE PUSH4 0x48474D53 PUSH1 0xE0 SHL PUSH1 0x20 DUP3 ADD MSTORE PUSH2 0x447 JUMP JUMPDEST CALLVALUE DUP1 ISZERO PUSH2 0x8A4 JUMPI PUSH0 DUP1 REVERT JUMPDEST POP PUSH2 0x3F7 PUSH2 0x8B3 CALLDATASIZE PUSH1 0x4 PUSH2 0x3974 JUMP JUMPDEST PUSH2 0x1934 JUMP JUMPDEST CALLVALUE DUP1 ISZERO PUSH2 0x8C3 JUMPI PUSH0 DUP1 REVERT JUMPDEST POP PUSH2 0x3F7 PUSH2 0x1D4D JUMP JUMPDEST CALLVALUE DUP1 ISZERO PUSH2 0x8D7 JUMPI PUSH0 DUP1 REVERT JUMPDEST POP PUSH2 0x3CE PUSH2 0x8E6 CALLDATASIZE PUSH1 0x4 PUSH2 0x36C5 JUMP JUMPDEST PUSH2 0x1D9A JUMP JUMPDEST CALLVALUE DUP1 ISZERO PUSH2 0x8F6 JUMPI PUSH0 DUP1 REVERT JUMPDEST POP PUSH2 0x3F7 PUSH2 0x905 CALLDATASIZE PUSH1 0x4 PUSH2 0x374E JUMP JUMPDEST PUSH2 0x1DA6 JUMP JUMPDEST CALLVALUE DUP1 ISZERO PUSH2 0x915 JUMPI PUSH0 DUP1 REVERT JUMPDEST POP PUSH2 0x3F7 PUSH2 0x924 CALLDATASIZE PUSH1 0x4 PUSH2 0x36C5 JUMP JUMPDEST PUSH2 0x1DE9 JUMP JUMPDEST CALLVALUE DUP1 ISZERO PUSH2 0x934 JUMPI PUSH0 DUP1 REVERT JUMPDEST POP PUSH1 0x13 SLOAD PUSH2 0x53D SWAP1 PUSH1 0x1 PUSH1 0x1 PUSH1 0xA0 SHL SUB AND DUP2 JUMP JUMPDEST CALLVALUE DUP1 ISZERO PUSH2 0x953 JUMPI PUSH0 DUP1 REVERT JUMPDEST POP PUSH2 0x4DC PUSH2 0x962 CALLDATASIZE PUSH1 0x4 PUSH2 0x376E JUMP JUMPDEST PUSH1 0xA PUSH1 0x20 MSTORE PUSH0 SWAP1 DUP2 MSTORE PUSH1 0x40 SWAP1 KECCAK256 SLOAD DUP2 JUMP JUMPDEST CALLVALUE DUP1 ISZERO PUSH2 0x97E JUMPI PUSH0 DUP1 REVERT JUMPDEST POP PUSH2 0x4DC PUSH1 0x20 SLOAD DUP2 JUMP JUMPDEST CALLVALUE DUP1 ISZERO PUSH2 0x993 JUMPI PUSH0 DUP1 REVERT JUMPDEST POP PUSH2 0x3CE PUSH2 0x9A2 CALLDATASIZE PUSH1 0x4 PUSH2 0x368A JUMP JUMPDEST PUSH0 SWAP1 DUP2 MSTORE PUSH1 0x5 PUSH1 0x20 MSTORE PUSH1 0x40 SWAP1 KECCAK256 SLOAD PUSH1 0xFF AND SWAP1 JUMP JUMPDEST CALLVALUE DUP1 ISZERO PUSH2 0x9C1 JUMPI PUSH0 DUP1 REVERT JUMPDEST POP PUSH2 0x4DC PUSH2 0x9D0 CALLDATASIZE PUSH1 0x4 PUSH2 0x376E JUMP JUMPDEST PUSH1 0xD PUSH1 0x20 MSTORE PUSH0 SWAP1 DUP2 MSTORE PUSH1 0x40 SWAP1 KECCAK256 SLOAD DUP2 JUMP JUMPDEST CALLVALUE DUP1 ISZERO PUSH2 0x9EC JUMPI PUSH0 DUP1 REVERT JUMPDEST POP PUSH1 0x2B SLOAD PUSH2 0x3CE SWAP1 PUSH1 0x1 PUSH1 0xB8 SHL SWAP1 DIV PUSH1 0xFF AND DUP2 JUMP JUMPDEST CALLVALUE DUP1 ISZERO PUSH2 0xA0C JUMPI PUSH0 DUP1 REVERT JUMPDEST POP PUSH2 0x3F7 PUSH2 0x1E7C JUMP JUMPDEST CALLVALUE DUP1 ISZERO PUSH2 0xA20 JUMPI PUSH0 DUP1 REVERT JUMPDEST POP PUSH1 0x14 SLOAD PUSH2 0x53D SWAP1 PUSH1 0x1 PUSH1 0x1 PUSH1 0xA0 SHL SUB AND DUP2 JUMP JUMPDEST CALLVALUE DUP1 ISZERO PUSH2 0xA3F JUMPI PUSH0 DUP1 REVERT JUMPDEST POP PUSH2 0x4DC PUSH2 0xA4E CALLDATASIZE PUSH1 0x4 PUSH2 0x376E JUMP JUMPDEST PUSH1 0xC PUSH1 0x20 MSTORE PUSH0 SWAP1 DUP2 MSTORE PUSH1 0x40 SWAP1 KECCAK256 SLOAD DUP2 JUMP JUMPDEST CALLVALUE DUP1 ISZERO PUSH2 0xA6A JUMPI PUSH0 DUP1 REVERT JUMPDEST POP PUSH2 0x4DC PUSH2 0xA79 CALLDATASIZE PUSH1 0x4 PUSH2 0x3A50 JUMP JUMPDEST PUSH1 0x1 PUSH1 0x1 PUSH1 0xA0 SHL SUB SWAP2 DUP3 AND PUSH0 SWAP1 DUP2 MSTORE PUSH1 0x2 PUSH1 0x20 SWAP1 DUP2 MSTORE PUSH1 0x40 DUP1 DUP4 KECCAK256 SWAP4 SWAP1 SWAP5 AND DUP3 MSTORE SWAP2 SWAP1 SWAP2 MSTORE KECCAK256 SLOAD SWAP1 JUMP JUMPDEST CALLVALUE DUP1 ISZERO PUSH2 0xAAE JUMPI PUSH0 DUP1 REVERT JUMPDEST POP PUSH2 0x4DC PUSH2 0xABD CALLDATASIZE PUSH1 0x4 PUSH2 0x368A JUMP JUMPDEST PUSH1 0xF PUSH1 0x20 MSTORE PUSH0 SWAP1 DUP2 MSTORE PUSH1 0x40 SWAP1 KECCAK256 SLOAD DUP2 JUMP JUMPDEST CALLVALUE DUP1 ISZERO PUSH2 0xAD9 JUMPI PUSH0 DUP1 REVERT JUMPDEST POP PUSH2 0x4DC PUSH1 0x24 SLOAD DUP2 JUMP JUMPDEST CALLVALUE DUP1 ISZERO PUSH2 0xAEE JUMPI PUSH0 DUP1 REVERT JUMPDEST POP PUSH2 0x4DC PUSH2 0xAFD CALLDATASIZE PUSH1 0x4 PUSH2 0x376E JUMP JUMPDEST PUSH1 0xE PUSH1 0x20 MSTORE PUSH0 SWAP1 DUP2 MSTORE PUSH1 0x40 SWAP1 KECCAK256 SLOAD DUP2 JUMP JUMPDEST CALLVALUE DUP1 ISZERO PUSH2 0xB19 JUMPI PUSH0 DUP1 REVERT JUMPDEST POP PUSH2 0x4DC PUSH1 0x27 SLOAD DUP2 JUMP JUMPDEST CALLVALUE DUP1 ISZERO PUSH2 0xB2E JUMPI PUSH0 DUP1 REVERT JUMPDEST POP PUSH2 0x3CE PUSH2 0xB3D CALLDATASIZE PUSH1 0x4 PUSH2 0x368A JUMP JUMPDEST PUSH1 0x4 PUSH1 0x20 MSTORE PUSH0 SWAP1 DUP2 MSTORE PUSH1 0x40 SWAP1 KECCAK256 SLOAD PUSH1 0xFF AND DUP2 JUMP JUMPDEST CALLVALUE DUP1 ISZERO PUSH2 0xB5C JUMPI PUSH0 DUP1 REVERT JUMPDEST POP PUSH2 0x3F7 PUSH2 0x2236 JUMP JUMPDEST CALLVALUE DUP1 ISZERO PUSH2 0xB70 JUMPI PUSH0 DUP1 REVERT JUMPDEST POP PUSH2 0x3F7 PUSH2 0x2272 JUMP JUMPDEST CALLVALUE DUP1 ISZERO PUSH2 0xB84 JUMPI PUSH0 DUP1 REVERT JUMPDEST POP PUSH2 0x4DC PUSH1 0x23 SLOAD DUP2 JUMP JUMPDEST PUSH1 0x10 SLOAD PUSH1 0x1 PUSH1 0x1 PUSH1 0xA0 SHL SUB AND CALLER EQ PUSH2 0xBA4 JUMPI PUSH0 DUP1 REVERT JUMPDEST PUSH1 0x19 DUP1 SLOAD SWAP1 PUSH0 PUSH2 0xBB4 DUP4 DUP1 PUSH2 0x3A9B JUMP JUMPDEST SWAP1 SWAP2 SSTORE POP POP PUSH1 0x1A DUP1 SLOAD SWAP1 PUSH0 PUSH2 0xBC9 DUP4 DUP1 PUSH2 0x3A9B JUMP JUMPDEST SWAP1 SWAP2 SSTORE POP POP JUMP JUMPDEST PUSH0 SLOAD PUSH1 0x1 PUSH1 0x1 PUSH1 0xA0 SHL SUB AND CALLER EQ PUSH2 0xC02 JUMPI PUSH1 0x40 MLOAD PUSH3 0x461BCD PUSH1 0xE5 SHL DUP2 MSTORE PUSH1 0x4 ADD PUSH2 0xBF9 SWAP1 PUSH2 0x3AAE JUMP JUMPDEST PUSH1 0x40 MLOAD DUP1 SWAP2 SUB SWAP1 REVERT JUMPDEST ADDRESS PUSH0 SWAP1 DUP2 MSTORE PUSH1 0x1 PUSH1 0x20 MSTORE PUSH1 0x40 SWAP1 KECCAK256 SLOAD DUP2 GT ISZERO PUSH2 0xC60 JUMPI PUSH1 0x40 MLOAD PUSH3 0x461BCD PUSH1 0xE5 SHL DUP2 MSTORE PUSH1 0x20 PUSH1 0x4 DUP3 ADD MSTORE PUSH1 0x1D PUSH1 0x24 DUP3 ADD MSTORE PUSH32 0x4E6F7420656E6F75676820746F6B656E7320696E20636F6E7472616374000000 PUSH1 0x44 DUP3 ADD MSTORE PUSH1 0x64 ADD PUSH2 0xBF9 JUMP JUMPDEST PUSH2 0xC6B ADDRESS DUP4 DUP4 PUSH2 0x22BE JUMP JUMPDEST POP POP JUMP JUMPDEST PUSH0 PUSH2 0xC7B CALLER DUP5 DUP5 PUSH2 0x28A1 JUMP JUMPDEST POP PUSH1 0x1 JUMPDEST SWAP3 SWAP2 POP POP JUMP JUMPDEST PUSH1 0x14 SLOAD PUSH1 0x1 PUSH1 0x1 PUSH1 0xA0 SHL SUB AND CALLER EQ PUSH2 0xCF3 JUMPI PUSH1 0x40 MLOAD PUSH3 0x461BCD PUSH1 0xE5 SHL DUP2 MSTORE PUSH1 0x20 PUSH1 0x4 DUP3 ADD MSTORE PUSH1 0x2B PUSH1 0x24 DUP3 ADD MSTORE PUSH32 0x4F6E6C792074686520626174746C6520636F6E74726163742063616E2072656D PUSH1 0x44 DUP3 ADD MSTORE PUSH11 0x6F766520706F74696F6E73 PUSH1 0xA8 SHL PUSH1 0x64 DUP3 ADD MSTORE PUSH1 0x84 ADD PUSH2 0xBF9 JUMP JUMPDEST PUSH0 DUP3 DUP2 MSTORE PUSH1 0x4 PUSH1 0x20 DUP2 DUP2 MSTORE PUSH1 0x40 DUP1 DUP5 KECCAK256 DUP1 SLOAD PUSH1 0xFF NOT SWAP1 DUP2 AND SWAP1 SWAP2 SSTORE PUSH1 0x5 DUP1 DUP5 MSTORE DUP3 DUP7 KECCAK256 DUP1 SLOAD DUP4 AND SWAP1 SSTORE PUSH1 0x6 DUP1 DUP6 MSTORE DUP4 DUP8 KECCAK256 DUP1 SLOAD DUP5 AND SWAP1 SSTORE PUSH1 0x7 DUP1 DUP7 MSTORE DUP5 DUP9 KECCAK256 DUP1 SLOAD DUP6 AND SWAP1 SSTORE DUP9 DUP9 MSTORE SWAP6 DUP6 MSTORE DUP4 DUP8 KECCAK256 DUP1 SLOAD DUP5 AND SWAP1 SSTORE SWAP1 DUP5 MSTORE DUP3 DUP7 KECCAK256 DUP1 SLOAD DUP4 AND SWAP1 SSTORE DUP4 MSTORE DUP2 DUP6 KECCAK256 DUP1 SLOAD DUP3 AND SWAP1 SSTORE SWAP3 DUP3 MSTORE SWAP3 DUP4 SWAP1 KECCAK256 DUP1 SLOAD SWAP1 SWAP3 AND SWAP1 SWAP2 SSTORE DUP2 MLOAD DUP5 DUP2 MSTORE SWAP1 DUP2 ADD DUP4 SWAP1 MSTORE PUSH32 0x16552DC0EEAA5453189CA1B57F62BF76590B234053B60BD7120B6A49977D637F SWAP2 ADD JUMPDEST PUSH1 0x40 MLOAD DUP1 SWAP2 SUB SWAP1 LOG1 POP POP JUMP JUMPDEST PUSH1 0x10 SLOAD PUSH1 0x1 PUSH1 0x1 PUSH1 0xA0 SHL SUB AND CALLER EQ PUSH2 0xDBE JUMPI PUSH0 DUP1 REVERT JUMPDEST PUSH1 0x25 DUP3 SWAP1 SSTORE PUSH2 0xDCF PUSH1 0x3 PUSH1 0x9 PUSH2 0x3AE3 JUMP JUMPDEST PUSH2 0xDDA SWAP1 PUSH1 0xA PUSH2 0x3BDC JUMP JUMPDEST PUSH2 0xDE4 SWAP1 DUP3 PUSH2 0x3BEA JUMP JUMPDEST PUSH1 0x29 SSTORE POP POP JUMP JUMPDEST PUSH0 SLOAD PUSH1 0x1 PUSH1 0x1 PUSH1 0xA0 SHL SUB AND CALLER EQ PUSH2 0xE14 JUMPI PUSH1 0x40 MLOAD PUSH3 0x461BCD PUSH1 0xE5 SHL DUP2 MSTORE PUSH1 0x4 ADD PUSH2 0xBF9 SWAP1 PUSH2 0x3AAE JUMP JUMPDEST PUSH1 0x14 DUP1 SLOAD PUSH1 0x1 PUSH1 0x1 PUSH1 0xA0 SHL SUB NOT AND PUSH1 0x1 PUSH1 0x1 PUSH1 0xA0 SHL SUB SWAP3 SWAP1 SWAP3 AND SWAP2 SWAP1 SWAP2 OR SWAP1 SSTORE JUMP JUMPDEST PUSH0 PUSH2 0xE42 DUP5 DUP5 DUP5 PUSH2 0x22BE JUMP JUMPDEST PUSH2 0xE93 DUP5 CALLER PUSH2 0xE8E DUP6 PUSH1 0x40 MLOAD DUP1 PUSH1 0x60 ADD PUSH1 0x40 MSTORE DUP1 PUSH1 0x28 DUP2 MSTORE PUSH1 0x20 ADD PUSH2 0x3E2D PUSH1 0x28 SWAP2 CODECOPY PUSH1 0x1 PUSH1 0x1 PUSH1 0xA0 SHL SUB DUP11 AND PUSH0 SWAP1 DUP2 MSTORE PUSH1 0x2 PUSH1 0x20 SWAP1 DUP2 MSTORE PUSH1 0x40 DUP1 DUP4 KECCAK256 CALLER DUP5 MSTORE SWAP1 SWAP2 MSTORE SWAP1 KECCAK256 SLOAD SWAP2 SWAP1 PUSH2 0x29C4 JUMP JUMPDEST PUSH2 0x28A1 JUMP JUMPDEST POP PUSH1 0x1 SWAP4 SWAP3 POP POP POP JUMP JUMPDEST PUSH0 DUP3 GT DUP1 PUSH2 0xEAA JUMPI POP PUSH0 DUP2 GT JUMPDEST PUSH2 0xEF6 JUMPI PUSH1 0x40 MLOAD PUSH3 0x461BCD PUSH1 0xE5 SHL DUP2 MSTORE PUSH1 0x20 PUSH1 0x4 DUP3 ADD MSTORE PUSH1 0x1F PUSH1 0x24 DUP3 ADD MSTORE PUSH32 0x416D6F756E742073686F756C642062652067726561746572207468616E203000 PUSH1 0x44 DUP3 ADD MSTORE PUSH1 0x64 ADD PUSH2 0xBF9 JUMP JUMPDEST PUSH2 0xF02 PUSH1 0x9 PUSH1 0xA PUSH2 0x3BDC JUMP JUMPDEST PUSH2 0xF0C SWAP1 DUP3 PUSH2 0x3BEA JUMP JUMPDEST CALLVALUE LT ISZERO PUSH2 0xF5B JUMPI PUSH1 0x40 MLOAD PUSH3 0x461BCD PUSH1 0xE5 SHL DUP2 MSTORE PUSH1 0x20 PUSH1 0x4 DUP3 ADD MSTORE PUSH1 0x19 PUSH1 0x24 DUP3 ADD MSTORE PUSH32 0x496E636F72726563742045544820616D6F756E742073656E7400000000000000 PUSH1 0x44 DUP3 ADD MSTORE PUSH1 0x64 ADD PUSH2 0xBF9 JUMP JUMPDEST DUP2 ISZERO PUSH2 0xFE6 JUMPI CALLER PUSH0 SWAP1 DUP2 MSTORE PUSH1 0x1 PUSH1 0x20 MSTORE PUSH1 0x40 SWAP1 KECCAK256 SLOAD DUP3 GT ISZERO PUSH2 0xFB8 JUMPI PUSH1 0x40 MLOAD PUSH3 0x461BCD PUSH1 0xE5 SHL DUP2 MSTORE PUSH1 0x20 PUSH1 0x4 DUP3 ADD MSTORE PUSH1 0x16 PUSH1 0x24 DUP3 ADD MSTORE PUSH22 0x4E6F7420656E6F7567682048474D5320746F6B656E73 PUSH1 0x50 SHL PUSH1 0x44 DUP3 ADD MSTORE PUSH1 0x64 ADD PUSH2 0xBF9 JUMP JUMPDEST PUSH2 0xFC2 CALLER DUP4 PUSH2 0x29FC JUMP JUMPDEST CALLER PUSH0 SWAP1 DUP2 MSTORE PUSH1 0x9 PUSH1 0x20 MSTORE PUSH1 0x40 DUP2 KECCAK256 DUP1 SLOAD DUP5 SWAP3 SWAP1 PUSH2 0xFE0 SWAP1 DUP5 SWAP1 PUSH2 0x3C01 JUMP JUMPDEST SWAP1 SWAP2 SSTORE POP POP JUMPDEST DUP1 ISZERO PUSH2 0x1019 JUMPI CALLER PUSH0 SWAP1 DUP2 MSTORE PUSH1 0xA PUSH1 0x20 MSTORE PUSH1 0x40 DUP2 KECCAK256 DUP1 SLOAD DUP4 SWAP3 SWAP1 PUSH2 0x100A SWAP1 DUP5 SWAP1 PUSH2 0x3C01 JUMP JUMPDEST SWAP1 SWAP2 SSTORE POP PUSH2 0x1019 SWAP1 POP CALLVALUE PUSH2 0x2B77 JUMP JUMPDEST PUSH1 0x40 MLOAD PUSH32 0xED21248CB703B524CC0029BB8669DF941BACA560163A3BC6AD184E7E9C268070 SWAP1 PUSH0 SWAP1 LOG1 POP POP JUMP JUMPDEST PUSH1 0x10 SLOAD PUSH1 0x1 PUSH1 0x1 PUSH1 0xA0 SHL SUB AND CALLER EQ PUSH2 0x105B JUMPI PUSH0 DUP1 REVERT JUMPDEST PUSH1 0x23 DUP3 SWAP1 SSTORE PUSH2 0x106C PUSH1 0x3 PUSH1 0x9 PUSH2 0x3AE3 JUMP JUMPDEST PUSH2 0x1077 SWAP1 PUSH1 0xA PUSH2 0x3BDC JUMP JUMPDEST PUSH2 0x1081 SWAP1 DUP3 PUSH2 0x3BEA JUMP JUMPDEST PUSH1 0x27 SSTORE POP POP JUMP JUMPDEST PUSH0 SLOAD PUSH1 0x1 PUSH1 0x1 PUSH1 0xA0 SHL SUB AND CALLER EQ PUSH2 0x10B1 JUMPI PUSH1 0x40 MLOAD PUSH3 0x461BCD PUSH1 0xE5 SHL DUP2 MSTORE PUSH1 0x4 ADD PUSH2 0xBF9 SWAP1 PUSH2 0x3AAE JUMP JUMPDEST PUSH0 DUP1 SLOAD PUSH1 0x40 MLOAD PUSH1 0x1 PUSH1 0x1 PUSH1 0xA0 SHL SUB SWAP1 SWAP2 AND SWAP1 PUSH32 0x8BE0079C531659141344CD1FD0A4F28419497F9722A3DAAFE3B4186F6B6457E0 SWAP1 DUP4 SWAP1 LOG3 PUSH0 DUP1 SLOAD PUSH1 0x1 PUSH1 0x1 PUSH1 0xA0 SHL SUB NOT AND SWAP1 SSTORE JUMP JUMPDEST PUSH0 SLOAD PUSH1 0x1 PUSH1 0x1 PUSH1 0xA0 SHL SUB AND CALLER EQ PUSH2 0x1122 JUMPI PUSH1 0x40 MLOAD PUSH3 0x461BCD PUSH1 0xE5 SHL DUP2 MSTORE PUSH1 0x4 ADD PUSH2 0xBF9 SWAP1 PUSH2 0x3AAE JUMP JUMPDEST PUSH2 0x112A PUSH2 0x2CCA JUMP JUMPDEST JUMP JUMPDEST PUSH1 0x10 SLOAD PUSH1 0x1 PUSH1 0x1 PUSH1 0xA0 SHL SUB AND CALLER EQ PUSH2 0x1142 JUMPI PUSH0 DUP1 REVERT JUMPDEST PUSH1 0x40 MLOAD PUSH4 0x58545241 PUSH1 0xE0 SHL PUSH1 0x20 DUP3 ADD MSTORE PUSH1 0x24 ADD PUSH1 0x40 MLOAD PUSH1 0x20 DUP2 DUP4 SUB SUB DUP2 MSTORE SWAP1 PUSH1 0x40 MSTORE DUP1 MLOAD SWAP1 PUSH1 0x20 ADD KECCAK256 DUP2 PUSH1 0x40 MLOAD PUSH1 0x20 ADD PUSH2 0x117C SWAP2 SWAP1 PUSH2 0x3C14 JUMP JUMPDEST PUSH1 0x40 MLOAD PUSH1 0x20 DUP2 DUP4 SUB SUB DUP2 MSTORE SWAP1 PUSH1 0x40 MSTORE DUP1 MLOAD SWAP1 PUSH1 0x20 ADD KECCAK256 SUB PUSH2 0x1323 JUMPI DUP2 MLOAD PUSH1 0x1 PUSH1 0x1 PUSH1 0xA0 SHL SUB DUP5 AND PUSH0 SWAP1 DUP2 MSTORE PUSH1 0xB PUSH1 0x20 MSTORE PUSH1 0x40 SWAP1 KECCAK256 SLOAD LT ISZERO PUSH2 0x11CF JUMPI PUSH1 0x40 MLOAD PUSH3 0x461BCD PUSH1 0xE5 SHL DUP2 MSTORE PUSH1 0x4 ADD PUSH2 0xBF9 SWAP1 PUSH2 0x3C2F JUMP JUMPDEST PUSH0 JUMPDEST DUP3 MLOAD DUP2 LT ISZERO PUSH2 0x131D JUMPI PUSH1 0x4 PUSH0 DUP5 DUP4 DUP2 MLOAD DUP2 LT PUSH2 0x11EF JUMPI PUSH2 0x11EF PUSH2 0x3C73 JUMP JUMPDEST PUSH1 0x20 SWAP1 DUP2 MUL SWAP2 SWAP1 SWAP2 ADD DUP2 ADD MLOAD DUP3 MSTORE DUP2 ADD SWAP2 SWAP1 SWAP2 MSTORE PUSH1 0x40 ADD PUSH0 KECCAK256 SLOAD PUSH1 0xFF AND ISZERO PUSH2 0x124F JUMPI PUSH1 0x40 MLOAD PUSH3 0x461BCD PUSH1 0xE5 SHL DUP2 MSTORE PUSH1 0x20 PUSH1 0x4 DUP3 ADD MSTORE PUSH1 0x13 PUSH1 0x24 DUP3 ADD MSTORE PUSH19 0x416C7265616479206163746976652058545241 PUSH1 0x68 SHL PUSH1 0x44 DUP3 ADD MSTORE PUSH1 0x64 ADD PUSH2 0xBF9 JUMP JUMPDEST PUSH1 0x1 PUSH1 0x4 PUSH0 DUP6 DUP5 DUP2 MLOAD DUP2 LT PUSH2 0x1266 JUMPI PUSH2 0x1266 PUSH2 0x3C73 JUMP JUMPDEST PUSH1 0x20 MUL PUSH1 0x20 ADD ADD MLOAD DUP2 MSTORE PUSH1 0x20 ADD SWAP1 DUP2 MSTORE PUSH1 0x20 ADD PUSH0 KECCAK256 PUSH0 PUSH2 0x100 EXP DUP2 SLOAD DUP2 PUSH1 0xFF MUL NOT AND SWAP1 DUP4 ISZERO ISZERO MUL OR SWAP1 SSTORE POP PUSH1 0x1 PUSH1 0xB PUSH0 DUP7 PUSH1 0x1 PUSH1 0x1 PUSH1 0xA0 SHL SUB AND PUSH1 0x1 PUSH1 0x1 PUSH1 0xA0 SHL SUB AND DUP2 MSTORE PUSH1 0x20 ADD SWAP1 DUP2 MSTORE PUSH1 0x20 ADD PUSH0 KECCAK256 PUSH0 DUP3 DUP3 SLOAD PUSH2 0x12C4 SWAP2 SWAP1 PUSH2 0x3A9B JUMP JUMPDEST SWAP3 POP POP DUP2 SWAP1 SSTORE POP PUSH1 0x1 PUSH1 0xF PUSH0 DUP6 DUP5 DUP2 MLOAD DUP2 LT PUSH2 0x12E2 JUMPI PUSH2 0x12E2 PUSH2 0x3C73 JUMP JUMPDEST PUSH1 0x20 MUL PUSH1 0x20 ADD ADD MLOAD DUP2 MSTORE PUSH1 0x20 ADD SWAP1 DUP2 MSTORE PUSH1 0x20 ADD PUSH0 KECCAK256 PUSH0 DUP3 DUP3 SLOAD PUSH2 0x1305 SWAP2 SWAP1 PUSH2 0x3C01 JUMP JUMPDEST SWAP1 SWAP2 SSTORE POP DUP2 SWAP1 POP PUSH2 0x1315 DUP2 PUSH2 0x3C87 JUMP JUMPDEST SWAP2 POP POP PUSH2 0x11D1 JUMP JUMPDEST POP POP POP POP JUMP JUMPDEST PUSH1 0x40 MLOAD PUSH5 0x1093D3D4D5 PUSH1 0xDA SHL PUSH1 0x20 DUP3 ADD MSTORE PUSH1 0x25 ADD PUSH1 0x40 MLOAD PUSH1 0x20 DUP2 DUP4 SUB SUB DUP2 MSTORE SWAP1 PUSH1 0x40 MSTORE DUP1 MLOAD SWAP1 PUSH1 0x20 ADD KECCAK256 DUP2 PUSH1 0x40 MLOAD PUSH1 0x20 ADD PUSH2 0x135E SWAP2 SWAP1 PUSH2 0x3C14 JUMP JUMPDEST PUSH1 0x40 MLOAD PUSH1 0x20 DUP2 DUP4 SUB SUB DUP2 MSTORE SWAP1 PUSH1 0x40 MSTORE DUP1 MLOAD SWAP1 PUSH1 0x20 ADD KECCAK256 SUB PUSH2 0x1500 JUMPI DUP2 MLOAD PUSH1 0x1 PUSH1 0x1 PUSH1 0xA0 SHL SUB DUP5 AND PUSH0 SWAP1 DUP2 MSTORE PUSH1 0xC PUSH1 0x20 MSTORE PUSH1 0x40 SWAP1 KECCAK256 SLOAD LT ISZERO PUSH2 0x13B1 JUMPI PUSH1 0x40 MLOAD PUSH3 0x461BCD PUSH1 0xE5 SHL DUP2 MSTORE PUSH1 0x4 ADD PUSH2 0xBF9 SWAP1 PUSH2 0x3C2F JUMP JUMPDEST PUSH0 JUMPDEST DUP3 MLOAD DUP2 LT ISZERO PUSH2 0x131D JUMPI PUSH1 0x6 PUSH0 DUP5 DUP4 DUP2 MLOAD DUP2 LT PUSH2 0x13D1 JUMPI PUSH2 0x13D1 PUSH2 0x3C73 JUMP JUMPDEST PUSH1 0x20 SWAP1 DUP2 MUL SWAP2 SWAP1 SWAP2 ADD DUP2 ADD MLOAD DUP3 MSTORE DUP2 ADD SWAP2 SWAP1 SWAP2 MSTORE PUSH1 0x40 ADD PUSH0 KECCAK256 SLOAD PUSH1 0xFF AND ISZERO PUSH2 0x1432 JUMPI PUSH1 0x40 MLOAD PUSH3 0x461BCD PUSH1 0xE5 SHL DUP2 MSTORE PUSH1 0x20 PUSH1 0x4 DUP3 ADD MSTORE PUSH1 0x14 PUSH1 0x24 DUP3 ADD MSTORE PUSH20 0x105B1C9958591E481858DD1A5D99481093D3D4D5 PUSH1 0x62 SHL PUSH1 0x44 DUP3 ADD MSTORE PUSH1 0x64 ADD PUSH2 0xBF9 JUMP JUMPDEST PUSH1 0x1 PUSH1 0x6 PUSH0 DUP6 DUP5 DUP2 MLOAD DUP2 LT PUSH2 0x1449 JUMPI PUSH2 0x1449 PUSH2 0x3C73 JUMP JUMPDEST PUSH1 0x20 MUL PUSH1 0x20 ADD ADD MLOAD DUP2 MSTORE PUSH1 0x20 ADD SWAP1 DUP2 MSTORE PUSH1 0x20 ADD PUSH0 KECCAK256 PUSH0 PUSH2 0x100 EXP DUP2 SLOAD DUP2 PUSH1 0xFF MUL NOT AND SWAP1 DUP4 ISZERO ISZERO MUL OR SWAP1 SSTORE POP PUSH1 0x1 PUSH1 0xC PUSH0 DUP7 PUSH1 0x1 PUSH1 0x1 PUSH1 0xA0 SHL SUB AND PUSH1 0x1 PUSH1 0x1 PUSH1 0xA0 SHL SUB AND DUP2 MSTORE PUSH1 0x20 ADD SWAP1 DUP2 MSTORE PUSH1 0x20 ADD PUSH0 KECCAK256 PUSH0 DUP3 DUP3 SLOAD PUSH2 0x14A7 SWAP2 SWAP1 PUSH2 0x3A9B JUMP JUMPDEST SWAP3 POP POP DUP2 SWAP1 SSTORE POP PUSH1 0x1 PUSH1 0xF PUSH0 DUP6 DUP5 DUP2 MLOAD DUP2 LT PUSH2 0x14C5 JUMPI PUSH2 0x14C5 PUSH2 0x3C73 JUMP JUMPDEST PUSH1 0x20 MUL PUSH1 0x20 ADD ADD MLOAD DUP2 MSTORE PUSH1 0x20 ADD SWAP1 DUP2 MSTORE PUSH1 0x20 ADD PUSH0 KECCAK256 PUSH0 DUP3 DUP3 SLOAD PUSH2 0x14E8 SWAP2 SWAP1 PUSH2 0x3C01 JUMP JUMPDEST SWAP1 SWAP2 SSTORE POP DUP2 SWAP1 POP PUSH2 0x14F8 DUP2 PUSH2 0x3C87 JUMP JUMPDEST SWAP2 POP POP PUSH2 0x13B3 JUMP JUMPDEST PUSH1 0x40 MLOAD PUSH1 0x2B PUSH1 0xF9 SHL PUSH1 0x20 DUP3 ADD MSTORE PUSH1 0x21 ADD PUSH1 0x40 MLOAD PUSH1 0x20 DUP2 DUP4 SUB SUB DUP2 MSTORE SWAP1 PUSH1 0x40 MSTORE DUP1 MLOAD SWAP1 PUSH1 0x20 ADD KECCAK256 DUP2 PUSH1 0x40 MLOAD PUSH1 0x20 ADD PUSH2 0x1537 SWAP2 SWAP1 PUSH2 0x3C14 JUMP JUMPDEST PUSH1 0x40 MLOAD PUSH1 0x20 DUP2 DUP4 SUB SUB DUP2 MSTORE SWAP1 PUSH1 0x40 MSTORE DUP1 MLOAD SWAP1 PUSH1 0x20 ADD KECCAK256 SUB PUSH2 0x16D5 JUMPI DUP2 MLOAD PUSH1 0x1 PUSH1 0x1 PUSH1 0xA0 SHL SUB DUP5 AND PUSH0 SWAP1 DUP2 MSTORE PUSH1 0xD PUSH1 0x20 MSTORE PUSH1 0x40 SWAP1 KECCAK256 SLOAD LT ISZERO PUSH2 0x158A JUMPI PUSH1 0x40 MLOAD PUSH3 0x461BCD PUSH1 0xE5 SHL DUP2 MSTORE PUSH1 0x4 ADD PUSH2 0xBF9 SWAP1 PUSH2 0x3C2F JUMP JUMPDEST PUSH0 JUMPDEST DUP3 MLOAD DUP2 LT ISZERO PUSH2 0x131D JUMPI PUSH1 0x5 PUSH0 DUP5 DUP4 DUP2 MLOAD DUP2 LT PUSH2 0x15AA JUMPI PUSH2 0x15AA PUSH2 0x3C73 JUMP JUMPDEST PUSH1 0x20 SWAP1 DUP2 MUL SWAP2 SWAP1 SWAP2 ADD DUP2 ADD MLOAD DUP3 MSTORE DUP2 ADD SWAP2 SWAP1 SWAP2 MSTORE PUSH1 0x40 ADD PUSH0 KECCAK256 SLOAD PUSH1 0xFF AND ISZERO PUSH2 0x1607 JUMPI PUSH1 0x40 MLOAD PUSH3 0x461BCD PUSH1 0xE5 SHL DUP2 MSTORE PUSH1 0x20 PUSH1 0x4 DUP3 ADD MSTORE PUSH1 0x10 PUSH1 0x24 DUP3 ADD MSTORE PUSH16 0x20B63932B0B23C9030B1BA34BB32902B PUSH1 0x81 SHL PUSH1 0x44 DUP3 ADD MSTORE PUSH1 0x64 ADD PUSH2 0xBF9 JUMP JUMPDEST PUSH1 0x1 PUSH1 0x5 PUSH0 DUP6 DUP5 DUP2 MLOAD DUP2 LT PUSH2 0x161E JUMPI PUSH2 0x161E PUSH2 0x3C73 JUMP JUMPDEST PUSH1 0x20 MUL PUSH1 0x20 ADD ADD MLOAD DUP2 MSTORE PUSH1 0x20 ADD SWAP1 DUP2 MSTORE PUSH1 0x20 ADD PUSH0 KECCAK256 PUSH0 PUSH2 0x100 EXP DUP2 SLOAD DUP2 PUSH1 0xFF MUL NOT AND SWAP1 DUP4 ISZERO ISZERO MUL OR SWAP1 SSTORE POP PUSH1 0x1 PUSH1 0xD PUSH0 DUP7 PUSH1 0x1 PUSH1 0x1 PUSH1 0xA0 SHL SUB AND PUSH1 0x1 PUSH1 0x1 PUSH1 0xA0 SHL SUB AND DUP2 MSTORE PUSH1 0x20 ADD SWAP1 DUP2 MSTORE PUSH1 0x20 ADD PUSH0 KECCAK256 PUSH0 DUP3 DUP3 SLOAD PUSH2 0x167C SWAP2 SWAP1 PUSH2 0x3A9B JUMP JUMPDEST SWAP3 POP POP DUP2 SWAP1 SSTORE POP PUSH1 0x1 PUSH1 0xF PUSH0 DUP6 DUP5 DUP2 MLOAD DUP2 LT PUSH2 0x169A JUMPI PUSH2 0x169A PUSH2 0x3C73 JUMP JUMPDEST PUSH1 0x20 MUL PUSH1 0x20 ADD ADD MLOAD DUP2 MSTORE PUSH1 0x20 ADD SWAP1 DUP2 MSTORE PUSH1 0x20 ADD PUSH0 KECCAK256 PUSH0 DUP3 DUP3 SLOAD PUSH2 0x16BD SWAP2 SWAP1 PUSH2 0x3C01 JUMP JUMPDEST SWAP1 SWAP2 SSTORE POP DUP2 SWAP1 POP PUSH2 0x16CD DUP2 PUSH2 0x3C87 JUMP JUMPDEST SWAP2 POP POP PUSH2 0x158C JUMP JUMPDEST PUSH1 0x40 MLOAD PUSH4 0x534B495 PUSH1 0xE4 SHL PUSH1 0x20 DUP3 ADD MSTORE PUSH1 0x24 ADD PUSH1 0x40 MLOAD PUSH1 0x20 DUP2 DUP4 SUB SUB DUP2 MSTORE SWAP1 PUSH1 0x40 MSTORE DUP1 MLOAD SWAP1 PUSH1 0x20 ADD KECCAK256 DUP2 PUSH1 0x40 MLOAD PUSH1 0x20 ADD PUSH2 0x170F SWAP2 SWAP1 PUSH2 0x3C14 JUMP JUMPDEST PUSH1 0x40 MLOAD PUSH1 0x20 DUP2 DUP4 SUB SUB DUP2 MSTORE SWAP1 PUSH1 0x40 MSTORE DUP1 MLOAD SWAP1 PUSH1 0x20 ADD KECCAK256 SUB PUSH2 0x18B0 JUMPI DUP2 MLOAD PUSH1 0x1 PUSH1 0x1 PUSH1 0xA0 SHL SUB DUP5 AND PUSH0 SWAP1 DUP2 MSTORE PUSH1 0xE PUSH1 0x20 MSTORE PUSH1 0x40 SWAP1 KECCAK256 SLOAD LT ISZERO PUSH2 0x1762 JUMPI PUSH1 0x40 MLOAD PUSH3 0x461BCD PUSH1 0xE5 SHL DUP2 MSTORE PUSH1 0x4 ADD PUSH2 0xBF9 SWAP1 PUSH2 0x3C2F JUMP JUMPDEST PUSH0 JUMPDEST DUP3 MLOAD DUP2 LT ISZERO PUSH2 0x131D JUMPI PUSH1 0x7 PUSH0 DUP5 DUP4 DUP2 MLOAD DUP2 LT PUSH2 0x1782 JUMPI PUSH2 0x1782 PUSH2 0x3C73 JUMP JUMPDEST PUSH1 0x20 SWAP1 DUP2 MUL SWAP2 SWAP1 SWAP2 ADD DUP2 ADD MLOAD DUP3 MSTORE DUP2 ADD SWAP2 SWAP1 SWAP2 MSTORE PUSH1 0x40 ADD PUSH0 KECCAK256 SLOAD PUSH1 0xFF AND ISZERO PUSH2 0x17E2 JUMPI PUSH1 0x40 MLOAD PUSH3 0x461BCD PUSH1 0xE5 SHL DUP2 MSTORE PUSH1 0x20 PUSH1 0x4 DUP3 ADD MSTORE PUSH1 0x13 PUSH1 0x24 DUP3 ADD MSTORE PUSH19 0x416C72656164792061637469766520534B495 PUSH1 0x6C SHL PUSH1 0x44 DUP3 ADD MSTORE PUSH1 0x64 ADD PUSH2 0xBF9 JUMP JUMPDEST PUSH1 0x1 PUSH1 0x7 PUSH0 DUP6 DUP5 DUP2 MLOAD DUP2 LT PUSH2 0x17F9 JUMPI PUSH2 0x17F9 PUSH2 0x3C73 JUMP JUMPDEST PUSH1 0x20 MUL PUSH1 0x20 ADD ADD MLOAD DUP2 MSTORE PUSH1 0x20 ADD SWAP1 DUP2 MSTORE PUSH1 0x20 ADD PUSH0 KECCAK256 PUSH0 PUSH2 0x100 EXP DUP2 SLOAD DUP2 PUSH1 0xFF MUL NOT AND SWAP1 DUP4 ISZERO ISZERO MUL OR SWAP1 SSTORE POP PUSH1 0x1 PUSH1 0xE PUSH0 DUP7 PUSH1 0x1 PUSH1 0x1 PUSH1 0xA0 SHL SUB AND PUSH1 0x1 PUSH1 0x1 PUSH1 0xA0 SHL SUB AND DUP2 MSTORE PUSH1 0x20 ADD SWAP1 DUP2 MSTORE PUSH1 0x20 ADD PUSH0 KECCAK256 PUSH0 DUP3 DUP3 SLOAD PUSH2 0x1857 SWAP2 SWAP1 PUSH2 0x3A9B JUMP JUMPDEST SWAP3 POP POP DUP2 SWAP1 SSTORE POP PUSH1 0x1 PUSH1 0xF PUSH0 DUP6 DUP5 DUP2 MLOAD DUP2 LT PUSH2 0x1875 JUMPI PUSH2 0x1875 PUSH2 0x3C73 JUMP JUMPDEST PUSH1 0x20 MUL PUSH1 0x20 ADD ADD MLOAD DUP2 MSTORE PUSH1 0x20 ADD SWAP1 DUP2 MSTORE PUSH1 0x20 ADD PUSH0 KECCAK256 PUSH0 DUP3 DUP3 SLOAD PUSH2 0x1898 SWAP2 SWAP1 PUSH2 0x3C01 JUMP JUMPDEST SWAP1 SWAP2 SSTORE POP DUP2 SWAP1 POP PUSH2 0x18A8 DUP2 PUSH2 0x3C87 JUMP JUMPDEST SWAP2 POP POP PUSH2 0x1764 JUMP JUMPDEST PUSH1 0x40 MLOAD PUSH3 0x461BCD PUSH1 0xE5 SHL DUP2 MSTORE PUSH1 0x20 PUSH1 0x4 DUP3 ADD MSTORE PUSH1 0x11 PUSH1 0x24 DUP3 ADD MSTORE PUSH17 0x57726F6E6720506F74696F6E204E616D65 PUSH1 0x78 SHL PUSH1 0x44 DUP3 ADD MSTORE PUSH1 0x64 ADD PUSH2 0xBF9 JUMP JUMPDEST POP POP POP JUMP JUMPDEST PUSH1 0x10 SLOAD PUSH1 0x1 PUSH1 0x1 PUSH1 0xA0 SHL SUB AND CALLER EQ PUSH2 0x1907 JUMPI PUSH0 DUP1 REVERT JUMPDEST PUSH1 0x22 DUP3 SWAP1 SSTORE PUSH2 0x1918 PUSH1 0x3 PUSH1 0x9 PUSH2 0x3AE3 JUMP JUMPDEST PUSH2 0x1923 SWAP1 PUSH1 0xA PUSH2 0x3BDC JUMP JUMPDEST PUSH2 0x192D SWAP1 DUP3 PUSH2 0x3BEA JUMP JUMPDEST PUSH1 0x26 SSTORE POP POP JUMP JUMPDEST PUSH1 0x10 SLOAD PUSH1 0x1 PUSH1 0x1 PUSH1 0xA0 SHL SUB AND CALLER EQ PUSH2 0x19A4 JUMPI PUSH1 0x40 MLOAD PUSH3 0x461BCD PUSH1 0xE5 SHL DUP2 MSTORE PUSH1 0x20 PUSH1 0x4 DUP3 ADD MSTORE PUSH1 0x2D PUSH1 0x24 DUP3 ADD MSTORE PUSH32 0x4F6E6C79206D61696E74656E616E636557616C6C65742063616E2063616C6C20 PUSH1 0x44 DUP3 ADD MSTORE PUSH13 0x3A3434B990333AB731BA34B7B7 PUSH1 0x99 SHL PUSH1 0x64 DUP3 ADD MSTORE PUSH1 0x84 ADD PUSH2 0xBF9 JUMP JUMPDEST DUP2 MLOAD DUP4 MLOAD EQ PUSH2 0x1A0E JUMPI PUSH1 0x40 MLOAD PUSH3 0x461BCD PUSH1 0xE5 SHL DUP2 MSTORE PUSH1 0x20 PUSH1 0x4 DUP3 ADD MSTORE PUSH1 0x30 PUSH1 0x24 DUP3 ADD MSTORE PUSH32 0x4D69736D61746368656420706F74696F6E4E616D657320616E6420616D6F756E PUSH1 0x44 DUP3 ADD MSTORE PUSH16 0xE8E640C2E4E4C2F2E640D8CADCCEE8D PUSH1 0x83 SHL PUSH1 0x64 DUP3 ADD MSTORE PUSH1 0x84 ADD PUSH2 0xBF9 JUMP JUMPDEST PUSH0 DUP1 PUSH0 DUP1 PUSH0 JUMPDEST DUP8 MLOAD DUP2 LT ISZERO PUSH2 0x1C91 JUMPI PUSH1 0x40 MLOAD PUSH4 0x58545241 PUSH1 0xE0 SHL PUSH1 0x20 DUP3 ADD MSTORE PUSH1 0x24 ADD PUSH1 0x40 MLOAD PUSH1 0x20 DUP2 DUP4 SUB SUB DUP2 MSTORE SWAP1 PUSH1 0x40 MSTORE DUP1 MLOAD SWAP1 PUSH1 0x20 ADD KECCAK256 DUP9 DUP3 DUP2 MLOAD DUP2 LT PUSH2 0x1A58 JUMPI PUSH2 0x1A58 PUSH2 0x3C73 JUMP JUMPDEST PUSH1 0x20 MUL PUSH1 0x20 ADD ADD MLOAD PUSH1 0x40 MLOAD PUSH1 0x20 ADD PUSH2 0x1A70 SWAP2 SWAP1 PUSH2 0x3C14 JUMP JUMPDEST PUSH1 0x40 MLOAD PUSH1 0x20 DUP2 DUP4 SUB SUB DUP2 MSTORE SWAP1 PUSH1 0x40 MSTORE DUP1 MLOAD SWAP1 PUSH1 0x20 ADD KECCAK256 SUB PUSH2 0x1AB7 JUMPI DUP7 DUP2 DUP2 MLOAD DUP2 LT PUSH2 0x1A9D JUMPI PUSH2 0x1A9D PUSH2 0x3C73 JUMP JUMPDEST PUSH1 0x20 MUL PUSH1 0x20 ADD ADD MLOAD DUP6 PUSH2 0x1AB0 SWAP2 SWAP1 PUSH2 0x3C01 JUMP JUMPDEST SWAP5 POP PUSH2 0x1C7F JUMP JUMPDEST PUSH1 0x40 MLOAD PUSH5 0x1093D3D4D5 PUSH1 0xDA SHL PUSH1 0x20 DUP3 ADD MSTORE PUSH1 0x25 ADD PUSH1 0x40 MLOAD PUSH1 0x20 DUP2 DUP4 SUB SUB DUP2 MSTORE SWAP1 PUSH1 0x40 MSTORE DUP1 MLOAD SWAP1 PUSH1 0x20 ADD KECCAK256 DUP9 DUP3 DUP2 MLOAD DUP2 LT PUSH2 0x1AF3 JUMPI PUSH2 0x1AF3 PUSH2 0x3C73 JUMP JUMPDEST PUSH1 0x20 MUL PUSH1 0x20 ADD ADD MLOAD PUSH1 0x40 MLOAD PUSH1 0x20 ADD PUSH2 0x1B0B SWAP2 SWAP1 PUSH2 0x3C14 JUMP JUMPDEST PUSH1 0x40 MLOAD PUSH1 0x20 DUP2 DUP4 SUB SUB DUP2 MSTORE SWAP1 PUSH1 0x40 MSTORE DUP1 MLOAD SWAP1 PUSH1 0x20 ADD KECCAK256 SUB PUSH2 0x1B52 JUMPI DUP7 DUP2 DUP2 MLOAD DUP2 LT PUSH2 0x1B38 JUMPI PUSH2 0x1B38 PUSH2 0x3C73 JUMP JUMPDEST PUSH1 0x20 MUL PUSH1 0x20 ADD ADD MLOAD DUP5 PUSH2 0x1B4B SWAP2 SWAP1 PUSH2 0x3C01 JUMP JUMPDEST SWAP4 POP PUSH2 0x1C7F JUMP JUMPDEST PUSH1 0x40 MLOAD PUSH1 0x2B PUSH1 0xF9 SHL PUSH1 0x20 DUP3 ADD MSTORE PUSH1 0x21 ADD PUSH1 0x40 MLOAD PUSH1 0x20 DUP2 DUP4 SUB SUB DUP2 MSTORE SWAP1 PUSH1 0x40 MSTORE DUP1 MLOAD SWAP1 PUSH1 0x20 ADD KECCAK256 DUP9 DUP3 DUP2 MLOAD DUP2 LT PUSH2 0x1B8A JUMPI PUSH2 0x1B8A PUSH2 0x3C73 JUMP JUMPDEST PUSH1 0x20 MUL PUSH1 0x20 ADD ADD MLOAD PUSH1 0x40 MLOAD PUSH1 0x20 ADD PUSH2 0x1BA2 SWAP2 SWAP1 PUSH2 0x3C14 JUMP JUMPDEST PUSH1 0x40 MLOAD PUSH1 0x20 DUP2 DUP4 SUB SUB DUP2 MSTORE SWAP1 PUSH1 0x40 MSTORE DUP1 MLOAD SWAP1 PUSH1 0x20 ADD KECCAK256 SUB PUSH2 0x1BE9 JUMPI DUP7 DUP2 DUP2 MLOAD DUP2 LT PUSH2 0x1BCF JUMPI PUSH2 0x1BCF PUSH2 0x3C73 JUMP JUMPDEST PUSH1 0x20 MUL PUSH1 0x20 ADD ADD MLOAD DUP4 PUSH2 0x1BE2 SWAP2 SWAP1 PUSH2 0x3C01 JUMP JUMPDEST SWAP3 POP PUSH2 0x1C7F JUMP JUMPDEST PUSH1 0x40 MLOAD PUSH4 0x534B495 PUSH1 0xE4 SHL PUSH1 0x20 DUP3 ADD MSTORE PUSH1 0x24 ADD PUSH1 0x40 MLOAD PUSH1 0x20 DUP2 DUP4 SUB SUB DUP2 MSTORE SWAP1 PUSH1 0x40 MSTORE DUP1 MLOAD SWAP1 PUSH1 0x20 ADD KECCAK256 DUP9 DUP3 DUP2 MLOAD DUP2 LT PUSH2 0x1C24 JUMPI PUSH2 0x1C24 PUSH2 0x3C73 JUMP JUMPDEST PUSH1 0x20 MUL PUSH1 0x20 ADD ADD MLOAD PUSH1 0x40 MLOAD PUSH1 0x20 ADD PUSH2 0x1C3C SWAP2 SWAP1 PUSH2 0x3C14 JUMP JUMPDEST PUSH1 0x40 MLOAD PUSH1 0x20 DUP2 DUP4 SUB SUB DUP2 MSTORE SWAP1 PUSH1 0x40 MSTORE DUP1 MLOAD SWAP1 PUSH1 0x20 ADD KECCAK256 SUB PUSH2 0x1C7F JUMPI DUP7 DUP2 DUP2 MLOAD DUP2 LT PUSH2 0x1C69 JUMPI PUSH2 0x1C69 PUSH2 0x3C73 JUMP JUMPDEST PUSH1 0x20 MUL PUSH1 0x20 ADD ADD MLOAD DUP3 PUSH2 0x1C7C SWAP2 SWAP1 PUSH2 0x3C01 JUMP JUMPDEST SWAP2 POP JUMPDEST DUP1 PUSH2 0x1C89 DUP2 PUSH2 0x3C87 JUMP JUMPDEST SWAP2 POP POP PUSH2 0x1A14 JUMP JUMPDEST POP DUP4 ISZERO PUSH2 0x1CBF JUMPI PUSH2 0x1CBF PUSH1 0x40 MLOAD DUP1 PUSH1 0x40 ADD PUSH1 0x40 MSTORE DUP1 PUSH1 0x4 DUP2 MSTORE PUSH1 0x20 ADD PUSH4 0x58545241 PUSH1 0xE0 SHL DUP2 MSTORE POP DUP6 DUP8 PUSH2 0x2D42 JUMP JUMPDEST DUP3 ISZERO PUSH2 0x1CED JUMPI PUSH2 0x1CED PUSH1 0x40 MLOAD DUP1 PUSH1 0x40 ADD PUSH1 0x40 MSTORE DUP1 PUSH1 0x5 DUP2 MSTORE PUSH1 0x20 ADD PUSH5 0x1093D3D4D5 PUSH1 0xDA SHL DUP2 MSTORE POP DUP5 DUP8 PUSH2 0x2D42 JUMP JUMPDEST DUP2 ISZERO PUSH2 0x1D17 JUMPI PUSH2 0x1D17 PUSH1 0x40 MLOAD DUP1 PUSH1 0x40 ADD PUSH1 0x40 MSTORE DUP1 PUSH1 0x1 DUP2 MSTORE PUSH1 0x20 ADD PUSH1 0x2B PUSH1 0xF9 SHL DUP2 MSTORE POP DUP4 DUP8 PUSH2 0x2D42 JUMP JUMPDEST DUP1 ISZERO PUSH2 0x1D44 JUMPI PUSH2 0x1D44 PUSH1 0x40 MLOAD DUP1 PUSH1 0x40 ADD PUSH1 0x40 MSTORE DUP1 PUSH1 0x4 DUP2 MSTORE PUSH1 0x20 ADD PUSH4 0x534B495 PUSH1 0xE4 SHL DUP2 MSTORE POP DUP3 DUP8 PUSH2 0x2D42 JUMP JUMPDEST POP POP POP POP POP POP POP JUMP JUMPDEST PUSH1 0x12 SLOAD PUSH1 0x1 PUSH1 0x1 PUSH1 0xA0 SHL SUB AND CALLER PUSH1 0x1 PUSH1 0x1 PUSH1 0xA0 SHL SUB AND EQ PUSH2 0x1D6C JUMPI PUSH0 DUP1 REVERT JUMPDEST ADDRESS PUSH0 SWAP1 DUP2 MSTORE PUSH1 0x1 PUSH1 0x20 MSTORE PUSH1 0x40 SWAP1 KECCAK256 SLOAD DUP1 ISZERO PUSH2 0x1D8A JUMPI PUSH2 0x1D8A DUP2 PUSH2 0x3375 JUMP JUMPDEST SELFBALANCE DUP1 ISZERO PUSH2 0xC6B JUMPI PUSH2 0xC6B DUP2 PUSH2 0x2B77 JUMP JUMPDEST PUSH0 PUSH2 0xC7B CALLER DUP5 DUP5 PUSH2 0x22BE JUMP JUMPDEST PUSH1 0x10 SLOAD PUSH1 0x1 PUSH1 0x1 PUSH1 0xA0 SHL SUB AND CALLER EQ PUSH2 0x1DBC JUMPI PUSH0 DUP1 REVERT JUMPDEST PUSH1 0x24 DUP3 SWAP1 SSTORE PUSH2 0x1DCD PUSH1 0x3 PUSH1 0x9 PUSH2 0x3AE3 JUMP JUMPDEST PUSH2 0x1DD8 SWAP1 PUSH1 0xA PUSH2 0x3BDC JUMP JUMPDEST PUSH2 0x1DE2 SWAP1 DUP3 PUSH2 0x3BEA JUMP JUMPDEST PUSH1 0x28 SSTORE POP POP JUMP JUMPDEST PUSH1 0x14 SLOAD PUSH1 0x1 PUSH1 0x1 PUSH1 0xA0 SHL SUB AND CALLER EQ PUSH2 0x1E34 JUMPI PUSH1 0x40 MLOAD PUSH3 0x461BCD PUSH1 0xE5 SHL DUP2 MSTORE PUSH1 0x20 PUSH1 0x4 DUP3 ADD MSTORE PUSH1 0xE PUSH1 0x24 DUP3 ADD MSTORE PUSH14 0x139BDD08185D5D1A1BDC9A5E9959 PUSH1 0x92 SHL PUSH1 0x44 DUP3 ADD MSTORE PUSH1 0x64 ADD PUSH2 0xBF9 JUMP JUMPDEST PUSH1 0x1 PUSH1 0x1 PUSH1 0xA0 SHL SUB DUP3 AND PUSH2 0x8FC PUSH2 0x1E57 PUSH2 0x1E50 PUSH1 0x9 PUSH1 0xA PUSH2 0x3BDC JUMP JUMPDEST DUP5 SWAP1 PUSH2 0x34E5 JUMP JUMPDEST PUSH1 0x40 MLOAD DUP2 ISZERO SWAP1 SWAP3 MUL SWAP2 PUSH0 DUP2 DUP2 DUP2 DUP6 DUP9 DUP9 CALL SWAP4 POP POP POP POP ISZERO DUP1 ISZERO PUSH2 0x18EC JUMPI RETURNDATASIZE PUSH0 DUP1 RETURNDATACOPY RETURNDATASIZE PUSH0 REVERT JUMPDEST PUSH0 SLOAD PUSH1 0x1 PUSH1 0x1 PUSH1 0xA0 SHL SUB AND CALLER EQ PUSH2 0x1EA5 JUMPI PUSH1 0x40 MLOAD PUSH3 0x461BCD PUSH1 0xE5 SHL DUP2 MSTORE PUSH1 0x4 ADD PUSH2 0xBF9 SWAP1 PUSH2 0x3AAE JUMP JUMPDEST PUSH1 0x2B SLOAD PUSH1 0x1 PUSH1 0xA0 SHL SWAP1 DIV PUSH1 0xFF AND ISZERO PUSH2 0x1EFF JUMPI PUSH1 0x40 MLOAD PUSH3 0x461BCD PUSH1 0xE5 SHL DUP2 MSTORE PUSH1 0x20 PUSH1 0x4 DUP3 ADD MSTORE PUSH1 0x17 PUSH1 0x24 DUP3 ADD MSTORE PUSH32 0x74726164696E6720697320616C7265616479206F70656E000000000000000000 PUSH1 0x44 DUP3 ADD MSTORE PUSH1 0x64 ADD PUSH2 0xBF9 JUMP JUMPDEST PUSH1 0x2A DUP1 SLOAD PUSH1 0x1 PUSH1 0x1 PUSH1 0xA0 SHL SUB NOT AND PUSH20 0x7A250D5630B4CF539739DF2C5DACB4C659F2488D SWAP1 DUP2 OR SWAP1 SWAP2 SSTORE PUSH1 0x1D SLOAD PUSH2 0x1F36 SWAP2 ADDRESS SWAP2 PUSH2 0x28A1 JUMP JUMPDEST PUSH1 0x2A PUSH0 SWAP1 SLOAD SWAP1 PUSH2 0x100 EXP SWAP1 DIV PUSH1 0x1 PUSH1 0x1 PUSH1 0xA0 SHL SUB AND PUSH1 0x1 PUSH1 0x1 PUSH1 0xA0 SHL SUB AND PUSH4 0xC45A0155 PUSH1 0x40 MLOAD DUP2 PUSH4 0xFFFFFFFF AND PUSH1 0xE0 SHL DUP2 MSTORE PUSH1 0x4 ADD PUSH1 0x20 PUSH1 0x40 MLOAD DUP1 DUP4 SUB DUP2 DUP7 GAS STATICCALL ISZERO DUP1 ISZERO PUSH2 0x1F86 JUMPI RETURNDATASIZE PUSH0 DUP1 RETURNDATACOPY RETURNDATASIZE PUSH0 REVERT JUMPDEST POP POP POP POP PUSH1 0x40 MLOAD RETURNDATASIZE PUSH1 0x1F NOT PUSH1 0x1F DUP3 ADD AND DUP3 ADD DUP1 PUSH1 0x40 MSTORE POP DUP2 ADD SWAP1 PUSH2 0x1FAA SWAP2 SWAP1 PUSH2 0x3C9F JUMP JUMPDEST PUSH1 0x1 PUSH1 0x1 PUSH1 0xA0 SHL SUB AND PUSH4 0xC9C65396 ADDRESS PUSH1 0x2A PUSH0 SWAP1 SLOAD SWAP1 PUSH2 0x100 EXP SWAP1 DIV PUSH1 0x1 PUSH1 0x1 PUSH1 0xA0 SHL SUB AND PUSH1 0x1 PUSH1 0x1 PUSH1 0xA0 SHL SUB AND PUSH4 0xAD5C4648 PUSH1 0x40 MLOAD DUP2 PUSH4 0xFFFFFFFF AND PUSH1 0xE0 SHL DUP2 MSTORE PUSH1 0x4 ADD PUSH1 0x20 PUSH1 0x40 MLOAD DUP1 DUP4 SUB DUP2 DUP7 GAS STATICCALL ISZERO DUP1 ISZERO PUSH2 0x2009 JUMPI RETURNDATASIZE PUSH0 DUP1 RETURNDATACOPY RETURNDATASIZE PUSH0 REVERT JUMPDEST POP POP POP POP PUSH1 0x40 MLOAD RETURNDATASIZE PUSH1 0x1F NOT PUSH1 0x1F DUP3 ADD AND DUP3 ADD DUP1 PUSH1 0x40 MSTORE POP DUP2 ADD SWAP1 PUSH2 0x202D SWAP2 SWAP1 PUSH2 0x3C9F JUMP JUMPDEST PUSH1 0x40 MLOAD PUSH1 0x1 PUSH1 0x1 PUSH1 0xE0 SHL SUB NOT PUSH1 0xE0 DUP6 SWAP1 SHL AND DUP2 MSTORE PUSH1 0x1 PUSH1 0x1 PUSH1 0xA0 SHL SUB SWAP3 DUP4 AND PUSH1 0x4 DUP3 ADD MSTORE SWAP2 AND PUSH1 0x24 DUP3 ADD MSTORE PUSH1 0x44 ADD PUSH1 0x20 PUSH1 0x40 MLOAD DUP1 DUP4 SUB DUP2 PUSH0 DUP8 GAS CALL ISZERO DUP1 ISZERO PUSH2 0x2077 JUMPI RETURNDATASIZE PUSH0 DUP1 RETURNDATACOPY RETURNDATASIZE PUSH0 REVERT JUMPDEST POP POP POP POP PUSH1 0x40 MLOAD RETURNDATASIZE PUSH1 0x1F NOT PUSH1 0x1F DUP3 ADD AND DUP3 ADD DUP1 PUSH1 0x40 MSTORE POP DUP2 ADD SWAP1 PUSH2 0x209B SWAP2 SWAP1 PUSH2 0x3C9F JUMP JUMPDEST PUSH1 0x2B DUP1 SLOAD PUSH1 0x1 PUSH1 0x1 PUSH1 0xA0 SHL SUB SWAP3 DUP4 AND PUSH1 0x1 PUSH1 0x1 PUSH1 0xA0 SHL SUB NOT SWAP1 SWAP2 AND OR SWAP1 SSTORE PUSH1 0x2A SLOAD AND PUSH4 0xF305D719 SELFBALANCE ADDRESS PUSH2 0x20E2 DUP2 PUSH1 0x1 PUSH1 0x1 PUSH1 0xA0 SHL SUB AND PUSH0 SWAP1 DUP2 MSTORE PUSH1 0x1 PUSH1 0x20 MSTORE PUSH1 0x40 SWAP1 KECCAK256 SLOAD SWAP1 JUMP JUMPDEST PUSH0 DUP1 PUSH2 0x20F5 PUSH0 SLOAD PUSH1 0x1 PUSH1 0x1 PUSH1 0xA0 SHL SUB AND SWAP1 JUMP JUMPDEST PUSH1 0x40 MLOAD PUSH1 0xE0 DUP9 SWAP1 SHL PUSH1 0x1 PUSH1 0x1 PUSH1 0xE0 SHL SUB NOT AND DUP2 MSTORE PUSH1 0x1 PUSH1 0x1 PUSH1 0xA0 SHL SUB SWAP6 DUP7 AND PUSH1 0x4 DUP3 ADD MSTORE PUSH1 0x24 DUP2 ADD SWAP5 SWAP1 SWAP5 MSTORE PUSH1 0x44 DUP5 ADD SWAP3 SWAP1 SWAP3 MSTORE PUSH1 0x64 DUP4 ADD MSTORE SWAP1 SWAP2 AND PUSH1 0x84 DUP3 ADD MSTORE TIMESTAMP PUSH1 0xA4 DUP3 ADD MSTORE PUSH1 0xC4 ADD PUSH1 0x60 PUSH1 0x40 MLOAD DUP1 DUP4 SUB DUP2 DUP6 DUP9 GAS CALL ISZERO DUP1 ISZERO PUSH2 0x215B JUMPI RETURNDATASIZE PUSH0 DUP1 RETURNDATACOPY RETURNDATASIZE PUSH0 REVERT JUMPDEST POP POP POP POP POP PUSH1 0x40 MLOAD RETURNDATASIZE PUSH1 0x1F NOT PUSH1 0x1F DUP3 ADD AND DUP3 ADD DUP1 PUSH1 0x40 MSTORE POP DUP2 ADD SWAP1 PUSH2 0x2180 SWAP2 SWAP1 PUSH2 0x3CBA JUMP JUMPDEST POP POP PUSH1 0x2B SLOAD PUSH1 0x2A SLOAD PUSH1 0x40 MLOAD PUSH4 0x95EA7B3 PUSH1 0xE0 SHL DUP2 MSTORE PUSH1 0x1 PUSH1 0x1 PUSH1 0xA0 SHL SUB SWAP2 DUP3 AND PUSH1 0x4 DUP3 ADD MSTORE PUSH0 NOT PUSH1 0x24 DUP3 ADD MSTORE SWAP2 AND SWAP2 POP PUSH4 0x95EA7B3 SWAP1 PUSH1 0x44 ADD PUSH1 0x20 PUSH1 0x40 MLOAD DUP1 DUP4 SUB DUP2 PUSH0 DUP8 GAS CALL ISZERO DUP1 ISZERO PUSH2 0x21D5 JUMPI RETURNDATASIZE PUSH0 DUP1 RETURNDATACOPY RETURNDATASIZE PUSH0 REVERT JUMPDEST POP POP POP POP PUSH1 0x40 MLOAD RETURNDATASIZE PUSH1 0x1F NOT PUSH1 0x1F DUP3 ADD AND DUP3 ADD DUP1 PUSH1 0x40 MSTORE POP DUP2 ADD SWAP1 PUSH2 0x21F9 SWAP2 SWAP1 PUSH2 0x3CE5 JUMP JUMPDEST POP PUSH1 0x2B DUP1 SLOAD PUSH3 0xFF00FF PUSH1 0xA0 SHL NOT AND PUSH3 0x10001 PUSH1 0xA0 SHL OR SWAP1 SSTORE PUSH1 0x12 SLOAD ADDRESS PUSH0 DUP2 DUP2 MSTORE PUSH1 0x1 PUSH1 0x20 MSTORE PUSH1 0x40 SWAP1 KECCAK256 SLOAD PUSH2 0x112A SWAP3 PUSH1 0x1 PUSH1 0x1 PUSH1 0xA0 SHL SUB AND SWAP1 PUSH2 0x22BE JUMP JUMPDEST PUSH0 SLOAD PUSH1 0x1 PUSH1 0x1 PUSH1 0xA0 SHL SUB AND CALLER EQ PUSH2 0x225F JUMPI PUSH1 0x40 MLOAD PUSH3 0x461BCD PUSH1 0xE5 SHL DUP2 MSTORE PUSH1 0x4 ADD PUSH2 0xBF9 SWAP1 PUSH2 0x3AAE JUMP JUMPDEST SELFBALANCE DUP1 ISZERO PUSH2 0x226F JUMPI PUSH2 0x226F DUP2 PUSH2 0x2B77 JUMP JUMPDEST POP JUMP JUMPDEST PUSH1 0x10 SLOAD PUSH1 0x1 PUSH1 0x1 PUSH1 0xA0 SHL SUB AND CALLER EQ PUSH2 0x2288 JUMPI PUSH0 DUP1 REVERT JUMPDEST PUSH1 0x12 SLOAD PUSH1 0x40 MLOAD PUSH1 0x1 PUSH1 0x1 PUSH1 0xA0 SHL SUB SWAP1 SWAP2 AND SWAP1 SELFBALANCE DUP1 ISZERO PUSH2 0x8FC MUL SWAP2 PUSH0 DUP2 DUP2 DUP2 DUP6 DUP9 DUP9 CALL SWAP4 POP POP POP POP ISZERO DUP1 ISZERO PUSH2 0x226F JUMPI RETURNDATASIZE PUSH0 DUP1 RETURNDATACOPY RETURNDATASIZE PUSH0 REVERT JUMPDEST PUSH1 0x1 PUSH1 0x1 PUSH1 0xA0 SHL SUB DUP4 AND PUSH2 0x2322 JUMPI PUSH1 0x40 MLOAD PUSH3 0x461BCD PUSH1 0xE5 SHL DUP2 MSTORE PUSH1 0x20 PUSH1 0x4 DUP3 ADD MSTORE PUSH1 0x25 PUSH1 0x24 DUP3 ADD MSTORE PUSH32 0x45524332303A207472616E736665722066726F6D20746865207A65726F206164 PUSH1 0x44 DUP3 ADD MSTORE PUSH5 0x6472657373 PUSH1 0xD8 SHL PUSH1 0x64 DUP3 ADD MSTORE PUSH1 0x84 ADD PUSH2 0xBF9 JUMP JUMPDEST PUSH1 0x1 PUSH1 0x1 PUSH1 0xA0 SHL SUB DUP3 AND PUSH2 0x2384 JUMPI PUSH1 0x40 MLOAD PUSH3 0x461BCD PUSH1 0xE5 SHL DUP2 MSTORE PUSH1 0x20 PUSH1 0x4 DUP3 ADD MSTORE PUSH1 0x23 PUSH1 0x24 DUP3 ADD MSTORE PUSH32 0x45524332303A207472616E7366657220746F20746865207A65726F2061646472 PUSH1 0x44 DUP3 ADD MSTORE PUSH3 0x657373 PUSH1 0xE8 SHL PUSH1 0x64 DUP3 ADD MSTORE PUSH1 0x84 ADD PUSH2 0xBF9 JUMP JUMPDEST PUSH0 DUP2 GT PUSH2 0x23E5 JUMPI PUSH1 0x40 MLOAD PUSH3 0x461BCD PUSH1 0xE5 SHL DUP2 MSTORE PUSH1 0x20 PUSH1 0x4 DUP3 ADD MSTORE PUSH1 0x29 PUSH1 0x24 DUP3 ADD MSTORE PUSH32 0x5472616E7366657220616D6F756E74206D757374206265206772656174657220 PUSH1 0x44 DUP3 ADD MSTORE PUSH9 0x7468616E207A65726F PUSH1 0xB8 SHL PUSH1 0x64 DUP3 ADD MSTORE PUSH1 0x84 ADD PUSH2 0xBF9 JUMP JUMPDEST PUSH0 DUP1 SLOAD PUSH1 0x1 PUSH1 0x1 PUSH1 0xA0 SHL SUB DUP6 DUP2 AND SWAP2 AND EQ DUP1 ISZERO SWAP1 PUSH2 0x2410 JUMPI POP PUSH0 SLOAD PUSH1 0x1 PUSH1 0x1 PUSH1 0xA0 SHL SUB DUP5 DUP2 AND SWAP2 AND EQ ISZERO JUMPDEST ISZERO PUSH2 0x2764 JUMPI PUSH2 0x2441 PUSH1 0x64 PUSH2 0x243B PUSH1 0x19 SLOAD PUSH1 0x1C SLOAD GT PUSH2 0x2430 JUMPI PUSH1 0x15 SLOAD PUSH2 0x2434 JUMP JUMPDEST PUSH1 0x17 SLOAD JUMPDEST DUP6 SWAP1 PUSH2 0x352D JUMP JUMPDEST SWAP1 PUSH2 0x34E5 JUMP JUMPDEST PUSH1 0x2B SLOAD SWAP1 SWAP2 POP PUSH1 0x1 PUSH1 0xB8 SHL SWAP1 DIV PUSH1 0xFF AND ISZERO PUSH2 0x252E JUMPI PUSH1 0x2A SLOAD PUSH1 0x1 PUSH1 0x1 PUSH1 0xA0 SHL SUB DUP5 DUP2 AND SWAP2 AND EQ DUP1 ISZERO SWAP1 PUSH2 0x2482 JUMPI POP PUSH1 0x2B SLOAD PUSH1 0x1 PUSH1 0x1 PUSH1 0xA0 SHL SUB DUP5 DUP2 AND SWAP2 AND EQ ISZERO JUMPDEST ISZERO PUSH2 0x252E JUMPI ORIGIN PUSH0 SWAP1 DUP2 MSTORE PUSH1 0x8 PUSH1 0x20 MSTORE PUSH1 0x40 SWAP1 KECCAK256 SLOAD NUMBER GT PUSH2 0x251C JUMPI PUSH1 0x40 MLOAD PUSH3 0x461BCD PUSH1 0xE5 SHL DUP2 MSTORE PUSH1 0x20 PUSH1 0x4 DUP3 ADD MSTORE PUSH1 0x49 PUSH1 0x24 DUP3 ADD MSTORE PUSH32 0x5F7472616E736665723A3A205472616E736665722044656C617920656E61626C PUSH1 0x44 DUP3 ADD MSTORE PUSH32 0x65642E20204F6E6C79206F6E652070757263686173652070657220626C6F636B PUSH1 0x64 DUP3 ADD MSTORE PUSH9 0x1030B63637BBB2B217 PUSH1 0xB9 SHL PUSH1 0x84 DUP3 ADD MSTORE PUSH1 0xA4 ADD PUSH2 0xBF9 JUMP JUMPDEST ORIGIN PUSH0 SWAP1 DUP2 MSTORE PUSH1 0x8 PUSH1 0x20 MSTORE PUSH1 0x40 SWAP1 KECCAK256 NUMBER SWAP1 SSTORE JUMPDEST PUSH1 0x2B SLOAD PUSH1 0x1 PUSH1 0x1 PUSH1 0xA0 SHL SUB DUP6 DUP2 AND SWAP2 AND EQ DUP1 ISZERO PUSH2 0x2559 JUMPI POP PUSH1 0x2A SLOAD PUSH1 0x1 PUSH1 0x1 PUSH1 0xA0 SHL SUB DUP5 DUP2 AND SWAP2 AND EQ ISZERO JUMPDEST DUP1 ISZERO PUSH2 0x257D JUMPI POP PUSH1 0x1 PUSH1 0x1 PUSH1 0xA0 SHL SUB DUP4 AND PUSH0 SWAP1 DUP2 MSTORE PUSH1 0x3 PUSH1 0x20 MSTORE PUSH1 0x40 SWAP1 KECCAK256 SLOAD PUSH1 0xFF AND ISZERO JUMPDEST ISZERO PUSH2 0x2663 JUMPI PUSH1 0x1E SLOAD DUP3 GT ISZERO PUSH2 0x25D4 JUMPI PUSH1 0x40 MLOAD PUSH3 0x461BCD PUSH1 0xE5 SHL DUP2 MSTORE PUSH1 0x20 PUSH1 0x4 DUP3 ADD MSTORE PUSH1 0x19 PUSH1 0x24 DUP3 ADD MSTORE PUSH32 0x4578636565647320746865205F6D61785478416D6F756E742E00000000000000 PUSH1 0x44 DUP3 ADD MSTORE PUSH1 0x64 ADD PUSH2 0xBF9 JUMP JUMPDEST PUSH1 0x1F SLOAD DUP3 PUSH2 0x25F6 DUP6 PUSH1 0x1 PUSH1 0x1 PUSH1 0xA0 SHL SUB AND PUSH0 SWAP1 DUP2 MSTORE PUSH1 0x1 PUSH1 0x20 MSTORE PUSH1 0x40 SWAP1 KECCAK256 SLOAD SWAP1 JUMP JUMPDEST PUSH2 0x2600 SWAP2 SWAP1 PUSH2 0x3C01 JUMP JUMPDEST GT ISZERO PUSH2 0x264E JUMPI PUSH1 0x40 MLOAD PUSH3 0x461BCD PUSH1 0xE5 SHL DUP2 MSTORE PUSH1 0x20 PUSH1 0x4 DUP3 ADD MSTORE PUSH1 0x1A PUSH1 0x24 DUP3 ADD MSTORE PUSH32 0x4578636565647320746865206D617857616C6C657453697A652E000000000000 PUSH1 0x44 DUP3 ADD MSTORE PUSH1 0x64 ADD PUSH2 0xBF9 JUMP JUMPDEST PUSH1 0x1C DUP1 SLOAD SWAP1 PUSH0 PUSH2 0x265D DUP4 PUSH2 0x3C87 JUMP JUMPDEST SWAP2 SWAP1 POP SSTORE POP JUMPDEST PUSH1 0x2B SLOAD PUSH1 0x1 PUSH1 0x1 PUSH1 0xA0 SHL SUB DUP5 DUP2 AND SWAP2 AND EQ DUP1 ISZERO PUSH2 0x2689 JUMPI POP PUSH1 0x1 PUSH1 0x1 PUSH1 0xA0 SHL SUB DUP5 AND ADDRESS EQ ISZERO JUMPDEST ISZERO PUSH2 0x26B6 JUMPI PUSH2 0x26B3 PUSH1 0x64 PUSH2 0x243B PUSH1 0x1A SLOAD PUSH1 0x1C SLOAD GT PUSH2 0x26A9 JUMPI PUSH1 0x16 SLOAD PUSH2 0x2434 JUMP JUMPDEST PUSH1 0x18 SLOAD DUP6 SWAP1 PUSH2 0x352D JUMP JUMPDEST SWAP1 POP JUMPDEST ADDRESS PUSH0 SWAP1 DUP2 MSTORE PUSH1 0x1 PUSH1 0x20 MSTORE PUSH1 0x40 SWAP1 KECCAK256 SLOAD PUSH1 0x2B SLOAD PUSH1 0x1 PUSH1 0xA8 SHL SWAP1 DIV PUSH1 0xFF AND ISZERO DUP1 ISZERO PUSH2 0x26EC JUMPI POP PUSH1 0x2B SLOAD PUSH1 0x1 PUSH1 0x1 PUSH1 0xA0 SHL SUB DUP6 DUP2 AND SWAP2 AND EQ JUMPDEST DUP1 ISZERO PUSH2 0x2701 JUMPI POP PUSH1 0x2B SLOAD PUSH1 0x1 PUSH1 0xB0 SHL SWAP1 DIV PUSH1 0xFF AND JUMPDEST DUP1 ISZERO PUSH2 0x270E JUMPI POP PUSH1 0x20 SLOAD DUP2 GT JUMPDEST DUP1 ISZERO PUSH2 0x271D JUMPI POP PUSH1 0x1B SLOAD PUSH1 0x1C SLOAD GT JUMPDEST ISZERO PUSH2 0x2762 JUMPI PUSH0 SELFBALANCE SWAP1 POP PUSH2 0x2743 PUSH2 0x273E DUP6 PUSH2 0x2739 DUP6 PUSH1 0x21 SLOAD PUSH2 0x35AB JUMP JUMPDEST PUSH2 0x35AB JUMP JUMPDEST PUSH2 0x3375 JUMP JUMPDEST PUSH0 PUSH2 0x274E SELFBALANCE DUP4 PUSH2 0x35BF JUMP JUMPDEST SWAP1 POP DUP1 ISZERO PUSH2 0x275F JUMPI PUSH2 0x275F DUP2 PUSH2 0x2B77 JUMP JUMPDEST POP POP JUMPDEST POP JUMPDEST DUP1 ISZERO PUSH2 0x27DC JUMPI ADDRESS PUSH0 SWAP1 DUP2 MSTORE PUSH1 0x1 PUSH1 0x20 MSTORE PUSH1 0x40 SWAP1 KECCAK256 SLOAD PUSH2 0x2783 SWAP1 DUP3 PUSH2 0x3600 JUMP JUMPDEST ADDRESS PUSH0 DUP2 DUP2 MSTORE PUSH1 0x1 PUSH1 0x20 MSTORE PUSH1 0x40 SWAP1 DUP2 SWAP1 KECCAK256 SWAP3 SWAP1 SWAP3 SSTORE SWAP1 MLOAD PUSH1 0x1 PUSH1 0x1 PUSH1 0xA0 SHL SUB DUP7 AND SWAP1 PUSH32 0xDDF252AD1BE2C89B69C2B068FC378DAA952BA7F163C4A11628F55A4DF523B3EF SWAP1 PUSH2 0x27D3 SWAP1 DUP6 DUP2 MSTORE PUSH1 0x20 ADD SWAP1 JUMP JUMPDEST PUSH1 0x40 MLOAD DUP1 SWAP2 SUB SWAP1 LOG3 JUMPDEST PUSH1 0x1 PUSH1 0x1 PUSH1 0xA0 SHL SUB DUP5 AND PUSH0 SWAP1 DUP2 MSTORE PUSH1 0x1 PUSH1 0x20 MSTORE PUSH1 0x40 SWAP1 KECCAK256 SLOAD PUSH2 0x27FE SWAP1 DUP4 PUSH2 0x35BF JUMP JUMPDEST PUSH1 0x1 PUSH1 0x1 PUSH1 0xA0 SHL SUB DUP6 AND PUSH0 SWAP1 DUP2 MSTORE PUSH1 0x1 PUSH1 0x20 MSTORE PUSH1 0x40 SWAP1 KECCAK256 SSTORE PUSH2 0x2841 PUSH2 0x2823 DUP4 DUP4 PUSH2 0x35BF JUMP JUMPDEST PUSH1 0x1 PUSH1 0x1 PUSH1 0xA0 SHL SUB DUP6 AND PUSH0 SWAP1 DUP2 MSTORE PUSH1 0x1 PUSH1 0x20 MSTORE PUSH1 0x40 SWAP1 KECCAK256 SLOAD SWAP1 PUSH2 0x3600 JUMP JUMPDEST PUSH1 0x1 PUSH1 0x1 PUSH1 0xA0 SHL SUB DUP1 DUP6 AND PUSH0 DUP2 DUP2 MSTORE PUSH1 0x1 PUSH1 0x20 MSTORE PUSH1 0x40 SWAP1 KECCAK256 SWAP3 SWAP1 SWAP3 SSTORE DUP6 AND PUSH32 0xDDF252AD1BE2C89B69C2B068FC378DAA952BA7F163C4A11628F55A4DF523B3EF PUSH2 0x288A DUP6 DUP6 PUSH2 0x35BF JUMP JUMPDEST PUSH1 0x40 MLOAD SWAP1 DUP2 MSTORE PUSH1 0x20 ADD PUSH1 0x40 MLOAD DUP1 SWAP2 SUB SWAP1 LOG3 POP POP POP POP JUMP JUMPDEST PUSH1 0x1 PUSH1 0x1 PUSH1 0xA0 SHL SUB DUP4 AND PUSH2 0x2903 JUMPI PUSH1 0x40 MLOAD PUSH3 0x461BCD PUSH1 0xE5 SHL DUP2 MSTORE PUSH1 0x20 PUSH1 0x4 DUP3 ADD MSTORE PUSH1 0x24 DUP1 DUP3 ADD MSTORE PUSH32 0x45524332303A20617070726F76652066726F6D20746865207A65726F20616464 PUSH1 0x44 DUP3 ADD MSTORE PUSH4 0x72657373 PUSH1 0xE0 SHL PUSH1 0x64 DUP3 ADD MSTORE PUSH1 0x84 ADD PUSH2 0xBF9 JUMP JUMPDEST PUSH1 0x1 PUSH1 0x1 PUSH1 0xA0 SHL SUB DUP3 AND PUSH2 0x2964 JUMPI PUSH1 0x40 MLOAD PUSH3 0x461BCD PUSH1 0xE5 SHL DUP2 MSTORE PUSH1 0x20 PUSH1 0x4 DUP3 ADD MSTORE PUSH1 0x22 PUSH1 0x24 DUP3 ADD MSTORE PUSH32 0x45524332303A20617070726F766520746F20746865207A65726F206164647265 PUSH1 0x44 DUP3 ADD MSTORE PUSH2 0x7373 PUSH1 0xF0 SHL PUSH1 0x64 DUP3 ADD MSTORE PUSH1 0x84 ADD PUSH2 0xBF9 JUMP JUMPDEST PUSH1 0x1 PUSH1 0x1 PUSH1 0xA0 SHL SUB DUP4 DUP2 AND PUSH0 DUP2 DUP2 MSTORE PUSH1 0x2 PUSH1 0x20 SWAP1 DUP2 MSTORE PUSH1 0x40 DUP1 DUP4 KECCAK256 SWAP5 DUP8 AND DUP1 DUP5 MSTORE SWAP5 DUP3 MSTORE SWAP2 DUP3 SWAP1 KECCAK256 DUP6 SWAP1 SSTORE SWAP1 MLOAD DUP5 DUP2 MSTORE PUSH32 0x8C5BE1E5EBEC7D5BD14F71427D1E84F3DD0314C0F7B2291E5B200AC8C7C3B925 SWAP2 ADD PUSH1 0x40 MLOAD DUP1 SWAP2 SUB SWAP1 LOG3 POP POP POP JUMP JUMPDEST PUSH0 DUP2 DUP5 DUP5 GT ISZERO PUSH2 0x29E7 JUMPI PUSH1 0x40 MLOAD PUSH3 0x461BCD PUSH1 0xE5 SHL DUP2 MSTORE PUSH1 0x4 ADD PUSH2 0xBF9 SWAP2 SWAP1 PUSH2 0x373C JUMP JUMPDEST POP PUSH0 PUSH2 0x29F3 DUP5 DUP7 PUSH2 0x3A9B JUMP JUMPDEST SWAP6 SWAP5 POP POP POP POP POP JUMP JUMPDEST PUSH1 0x1 PUSH1 0x1 PUSH1 0xA0 SHL SUB DUP3 AND PUSH2 0x2A5C JUMPI PUSH1 0x40 MLOAD PUSH3 0x461BCD PUSH1 0xE5 SHL DUP2 MSTORE PUSH1 0x20 PUSH1 0x4 DUP3 ADD MSTORE PUSH1 0x21 PUSH1 0x24 DUP3 ADD MSTORE PUSH32 0x43616E6E6F74206275726E2066726F6D20746865207A65726F20616464726573 PUSH1 0x44 DUP3 ADD MSTORE PUSH1 0x73 PUSH1 0xF8 SHL PUSH1 0x64 DUP3 ADD MSTORE PUSH1 0x84 ADD PUSH2 0xBF9 JUMP JUMPDEST PUSH2 0x2A68 PUSH1 0x9 PUSH1 0xA PUSH2 0x3BDC JUMP JUMPDEST PUSH2 0x2A72 SWAP1 DUP3 PUSH2 0x3BEA JUMP JUMPDEST PUSH1 0x1 PUSH1 0x1 PUSH1 0xA0 SHL SUB DUP4 AND PUSH0 SWAP1 DUP2 MSTORE PUSH1 0x1 PUSH1 0x20 MSTORE PUSH1 0x40 DUP2 KECCAK256 DUP1 SLOAD SWAP3 SWAP4 POP DUP4 SWAP3 SWAP1 SWAP2 SWAP1 PUSH2 0x2A9E SWAP1 DUP5 SWAP1 PUSH2 0x3A9B JUMP JUMPDEST SWAP3 POP POP DUP2 SWAP1 SSTORE POP DUP1 PUSH1 0x1D PUSH0 DUP3 DUP3 SLOAD PUSH2 0x2AB6 SWAP2 SWAP1 PUSH2 0x3A9B JUMP JUMPDEST SWAP1 SWAP2 SSTORE POP POP PUSH1 0x1D SLOAD PUSH1 0x1E DUP2 SWAP1 SSTORE PUSH1 0x1F SSTORE PUSH1 0x40 MLOAD DUP2 DUP2 MSTORE PUSH1 0x1 PUSH1 0x1 PUSH1 0xA0 SHL SUB DUP4 AND SWAP1 PUSH32 0xCC16F5DBB4873280815C1EE09DBD06736CFFCC184412CF7A71A0FDB75D397CA5 SWAP1 PUSH1 0x20 ADD PUSH1 0x40 MLOAD DUP1 SWAP2 SUB SWAP1 LOG2 PUSH1 0x40 MLOAD DUP2 DUP2 MSTORE PUSH0 SWAP1 PUSH1 0x1 PUSH1 0x1 PUSH1 0xA0 SHL SUB DUP5 AND SWAP1 PUSH32 0xDDF252AD1BE2C89B69C2B068FC378DAA952BA7F163C4A11628F55A4DF523B3EF SWAP1 PUSH1 0x20 ADD PUSH1 0x40 MLOAD DUP1 SWAP2 SUB SWAP1 LOG3 PUSH32 0x947F344D56E1E8C70DC492FB94C4DDDDD490C016AAB685F5E7E47B2E85CB44CF PUSH1 0x1D SLOAD PUSH1 0x40 MLOAD PUSH2 0xD9C SWAP2 DUP2 MSTORE PUSH1 0x20 ADD SWAP1 JUMP JUMPDEST PUSH0 DUP2 GT PUSH2 0x2BC6 JUMPI PUSH1 0x40 MLOAD PUSH3 0x461BCD PUSH1 0xE5 SHL DUP2 MSTORE PUSH1 0x20 PUSH1 0x4 DUP3 ADD DUP2 SWAP1 MSTORE PUSH1 0x24 DUP3 ADD MSTORE PUSH32 0x416D6F756E74206D7573742062652067726561746572207468616E207A65726F PUSH1 0x44 DUP3 ADD MSTORE PUSH1 0x64 ADD PUSH2 0xBF9 JUMP JUMPDEST DUP1 SELFBALANCE LT ISZERO PUSH2 0x2C16 JUMPI PUSH1 0x40 MLOAD PUSH3 0x461BCD PUSH1 0xE5 SHL DUP2 MSTORE PUSH1 0x20 PUSH1 0x4 DUP3 ADD MSTORE PUSH1 0x1D PUSH1 0x24 DUP3 ADD MSTORE PUSH32 0x496E73756666696369656E7420636F6E74726163742062616C616E6365000000 PUSH1 0x44 DUP3 ADD MSTORE PUSH1 0x64 ADD PUSH2 0xBF9 JUMP JUMPDEST PUSH0 PUSH2 0x2C22 PUSH1 0x5 DUP4 PUSH2 0x3D04 JUMP JUMPDEST PUSH1 0x13 SLOAD PUSH1 0x40 MLOAD SWAP2 SWAP3 POP PUSH1 0x1 PUSH1 0x1 PUSH1 0xA0 SHL SUB AND SWAP1 DUP3 ISZERO PUSH2 0x8FC MUL SWAP1 DUP4 SWAP1 PUSH0 DUP2 DUP2 DUP2 DUP6 DUP9 DUP9 CALL SWAP4 POP POP POP POP ISZERO DUP1 ISZERO PUSH2 0x2C5A JUMPI RETURNDATASIZE PUSH0 DUP1 RETURNDATACOPY RETURNDATASIZE PUSH0 REVERT JUMPDEST POP PUSH1 0x11 SLOAD PUSH1 0x40 MLOAD PUSH1 0x1 PUSH1 0x1 PUSH1 0xA0 SHL SUB SWAP1 SWAP2 AND SWAP1 DUP3 ISZERO PUSH2 0x8FC MUL SWAP1 DUP4 SWAP1 PUSH0 DUP2 DUP2 DUP2 DUP6 DUP9 DUP9 CALL SWAP4 POP POP POP POP ISZERO DUP1 ISZERO PUSH2 0x2C92 JUMPI RETURNDATASIZE PUSH0 DUP1 RETURNDATACOPY RETURNDATASIZE PUSH0 REVERT JUMPDEST POP PUSH1 0x10 SLOAD PUSH1 0x40 MLOAD PUSH1 0x1 PUSH1 0x1 PUSH1 0xA0 SHL SUB SWAP1 SWAP2 AND SWAP1 DUP3 ISZERO PUSH2 0x8FC MUL SWAP1 DUP4 SWAP1 PUSH0 DUP2 DUP2 DUP2 DUP6 DUP9 DUP9 CALL SWAP4 POP POP POP POP ISZERO DUP1 ISZERO PUSH2 0x18EC JUMPI RETURNDATASIZE PUSH0 DUP1 RETURNDATACOPY RETURNDATASIZE PUSH0 REVERT JUMPDEST PUSH0 SLOAD PUSH1 0x1 PUSH1 0x1 PUSH1 0xA0 SHL SUB AND CALLER EQ PUSH2 0x2CF3 JUMPI PUSH1 0x40 MLOAD PUSH3 0x461BCD PUSH1 0xE5 SHL DUP2 MSTORE PUSH1 0x4 ADD PUSH2 0xBF9 SWAP1 PUSH2 0x3AAE JUMP JUMPDEST PUSH1 0x1D SLOAD PUSH1 0x1E DUP2 SWAP1 SSTORE PUSH1 0x1F DUP2 SWAP1 SSTORE PUSH1 0x2B DUP1 SLOAD PUSH1 0xFF PUSH1 0xB8 SHL NOT AND SWAP1 SSTORE PUSH1 0x40 MLOAD SWAP1 DUP2 MSTORE PUSH32 0x947F344D56E1E8C70DC492FB94C4DDDDD490C016AAB685F5E7E47B2E85CB44CF SWAP1 PUSH1 0x20 ADD PUSH1 0x40 MLOAD DUP1 SWAP2 SUB SWAP1 LOG1 JUMP JUMPDEST DUP2 PUSH0 SUB PUSH2 0x2D4E JUMPI POP POP POP JUMP JUMPDEST PUSH0 DUP1 PUSH1 0x40 MLOAD PUSH1 0x20 ADD PUSH2 0x2D6A SWAP1 PUSH4 0x58545241 PUSH1 0xE0 SHL DUP2 MSTORE PUSH1 0x4 ADD SWAP1 JUMP JUMPDEST PUSH1 0x40 MLOAD PUSH1 0x20 DUP2 DUP4 SUB SUB DUP2 MSTORE SWAP1 PUSH1 0x40 MSTORE DUP1 MLOAD SWAP1 PUSH1 0x20 ADD KECCAK256 DUP6 PUSH1 0x40 MLOAD PUSH1 0x20 ADD PUSH2 0x2D91 SWAP2 SWAP1 PUSH2 0x3C14 JUMP JUMPDEST PUSH1 0x40 MLOAD PUSH1 0x20 DUP2 DUP4 SUB SUB DUP2 MSTORE SWAP1 PUSH1 0x40 MSTORE DUP1 MLOAD SWAP1 PUSH1 0x20 ADD KECCAK256 SUB PUSH2 0x2F0C JUMPI PUSH1 0x22 SLOAD PUSH2 0x2DB9 SWAP1 DUP6 PUSH2 0x352D JUMP JUMPDEST PUSH1 0x26 SLOAD SWAP1 SWAP3 POP PUSH2 0x2DC9 SWAP1 DUP6 PUSH2 0x352D JUMP JUMPDEST PUSH1 0x1 PUSH1 0x1 PUSH1 0xA0 SHL SUB DUP5 AND PUSH0 SWAP1 DUP2 MSTORE PUSH1 0x9 PUSH1 0x20 MSTORE PUSH1 0x40 SWAP1 KECCAK256 SLOAD SWAP1 SWAP2 POP DUP3 GT ISZERO PUSH2 0x2E03 JUMPI PUSH1 0x40 MLOAD PUSH3 0x461BCD PUSH1 0xE5 SHL DUP2 MSTORE PUSH1 0x4 ADD PUSH2 0xBF9 SWAP1 PUSH2 0x3D23 JUMP JUMPDEST PUSH1 0x1 PUSH1 0x1 PUSH1 0xA0 SHL SUB DUP4 AND PUSH0 SWAP1 DUP2 MSTORE PUSH1 0xA PUSH1 0x20 MSTORE PUSH1 0x40 SWAP1 KECCAK256 SLOAD DUP2 GT ISZERO PUSH2 0x2E3A JUMPI PUSH1 0x40 MLOAD PUSH3 0x461BCD PUSH1 0xE5 SHL DUP2 MSTORE PUSH1 0x4 ADD PUSH2 0xBF9 SWAP1 PUSH2 0x3D64 JUMP JUMPDEST PUSH1 0x1 PUSH1 0x1 PUSH1 0xA0 SHL SUB DUP4 AND PUSH0 SWAP1 DUP2 MSTORE PUSH1 0x9 PUSH1 0x20 MSTORE PUSH1 0x40 DUP2 KECCAK256 DUP1 SLOAD DUP5 SWAP3 SWAP1 PUSH2 0x2E61 SWAP1 DUP5 SWAP1 PUSH2 0x3A9B JUMP JUMPDEST SWAP1 SWAP2 SSTORE POP POP PUSH1 0x1 PUSH1 0x1 PUSH1 0xA0 SHL SUB DUP4 AND PUSH0 SWAP1 DUP2 MSTORE PUSH1 0xA PUSH1 0x20 MSTORE PUSH1 0x40 DUP2 KECCAK256 DUP1 SLOAD DUP4 SWAP3 SWAP1 PUSH2 0x2E8D SWAP1 DUP5 SWAP1 PUSH2 0x3A9B JUMP JUMPDEST SWAP1 SWAP2 SSTORE POP POP PUSH1 0x1 PUSH1 0x1 PUSH1 0xA0 SHL SUB DUP4 AND PUSH0 SWAP1 DUP2 MSTORE PUSH1 0xB PUSH1 0x20 MSTORE PUSH1 0x40 DUP2 KECCAK256 DUP1 SLOAD DUP7 SWAP3 SWAP1 PUSH2 0x2EB9 SWAP1 DUP5 SWAP1 PUSH2 0x3C01 JUMP JUMPDEST SWAP1 SWAP2 SSTORE POP POP PUSH1 0x40 MLOAD PUSH1 0x1 PUSH1 0x1 PUSH1 0xA0 SHL SUB DUP5 AND SWAP1 CALLER SWAP1 PUSH32 0x3D57EEC5AB68AE7C8F1ED6299A36D8E6F61253E0F24AC6ABA38BC3FCBE7BC7AE SWAP1 PUSH2 0x2EFF SWAP1 DUP10 SWAP1 DUP7 SWAP1 DUP9 SWAP1 PUSH2 0x3D99 JUMP JUMPDEST PUSH1 0x40 MLOAD DUP1 SWAP2 SUB SWAP1 LOG3 PUSH2 0x336E JUMP JUMPDEST PUSH1 0x40 MLOAD PUSH5 0x1093D3D4D5 PUSH1 0xDA SHL PUSH1 0x20 DUP3 ADD MSTORE PUSH1 0x25 ADD PUSH1 0x40 MLOAD PUSH1 0x20 DUP2 DUP4 SUB SUB DUP2 MSTORE SWAP1 PUSH1 0x40 MSTORE DUP1 MLOAD SWAP1 PUSH1 0x20 ADD KECCAK256 DUP6 PUSH1 0x40 MLOAD PUSH1 0x20 ADD PUSH2 0x2F47 SWAP2 SWAP1 PUSH2 0x3C14 JUMP JUMPDEST PUSH1 0x40 MLOAD PUSH1 0x20 DUP2 DUP4 SUB SUB DUP2 MSTORE SWAP1 PUSH1 0x40 MSTORE DUP1 MLOAD SWAP1 PUSH1 0x20 ADD KECCAK256 SUB PUSH2 0x306F JUMPI PUSH1 0x23 SLOAD PUSH2 0x2F6F SWAP1 DUP6 PUSH2 0x352D JUMP JUMPDEST PUSH1 0x27 SLOAD SWAP1 SWAP3 POP PUSH2 0x2F7F SWAP1 DUP6 PUSH2 0x352D JUMP JUMPDEST PUSH1 0x1 PUSH1 0x1 PUSH1 0xA0 SHL SUB DUP5 AND PUSH0 SWAP1 DUP2 MSTORE PUSH1 0x9 PUSH1 0x20 MSTORE PUSH1 0x40 SWAP1 KECCAK256 SLOAD SWAP1 SWAP2 POP DUP3 GT ISZERO PUSH2 0x2FB9 JUMPI PUSH1 0x40 MLOAD PUSH3 0x461BCD PUSH1 0xE5 SHL DUP2 MSTORE PUSH1 0x4 ADD PUSH2 0xBF9 SWAP1 PUSH2 0x3D23 JUMP JUMPDEST PUSH1 0x1 PUSH1 0x1 PUSH1 0xA0 SHL SUB DUP4 AND PUSH0 SWAP1 DUP2 MSTORE PUSH1 0xA PUSH1 0x20 MSTORE PUSH1 0x40 SWAP1 KECCAK256 SLOAD DUP2 GT ISZERO PUSH2 0x2FF0 JUMPI PUSH1 0x40 MLOAD PUSH3 0x461BCD PUSH1 0xE5 SHL DUP2 MSTORE PUSH1 0x4 ADD PUSH2 0xBF9 SWAP1 PUSH2 0x3D64 JUMP JUMPDEST PUSH1 0x1 PUSH1 0x1 PUSH1 0xA0 SHL SUB DUP4 AND PUSH0 SWAP1 DUP2 MSTORE PUSH1 0x9 PUSH1 0x20 MSTORE PUSH1 0x40 DUP2 KECCAK256 DUP1 SLOAD DUP5 SWAP3 SWAP1 PUSH2 0x3017 SWAP1 DUP5 SWAP1 PUSH2 0x3A9B JUMP JUMPDEST SWAP1 SWAP2 SSTORE POP POP PUSH1 0x1 PUSH1 0x1 PUSH1 0xA0 SHL SUB DUP4 AND PUSH0 SWAP1 DUP2 MSTORE PUSH1 0xA PUSH1 0x20 MSTORE PUSH1 0x40 DUP2 KECCAK256 DUP1 SLOAD DUP4 SWAP3 SWAP1 PUSH2 0x3043 SWAP1 DUP5 SWAP1 PUSH2 0x3A9B JUMP JUMPDEST SWAP1 SWAP2 SSTORE POP POP PUSH1 0x1 PUSH1 0x1 PUSH1 0xA0 SHL SUB DUP4 AND PUSH0 SWAP1 DUP2 MSTORE PUSH1 0xC PUSH1 0x20 MSTORE PUSH1 0x40 DUP2 KECCAK256 DUP1 SLOAD DUP7 SWAP3 SWAP1 PUSH2 0x2EB9 SWAP1 DUP5 SWAP1 PUSH2 0x3C01 JUMP JUMPDEST PUSH1 0x40 MLOAD PUSH1 0x2B PUSH1 0xF9 SHL PUSH1 0x20 DUP3 ADD MSTORE PUSH1 0x21 ADD PUSH1 0x40 MLOAD PUSH1 0x20 DUP2 DUP4 SUB SUB DUP2 MSTORE SWAP1 PUSH1 0x40 MSTORE DUP1 MLOAD SWAP1 PUSH1 0x20 ADD KECCAK256 DUP6 PUSH1 0x40 MLOAD PUSH1 0x20 ADD PUSH2 0x30A6 SWAP2 SWAP1 PUSH2 0x3C14 JUMP JUMPDEST PUSH1 0x40 MLOAD PUSH1 0x20 DUP2 DUP4 SUB SUB DUP2 MSTORE SWAP1 PUSH1 0x40 MSTORE DUP1 MLOAD SWAP1 PUSH1 0x20 ADD KECCAK256 SUB PUSH2 0x31CE JUMPI PUSH1 0x24 SLOAD PUSH2 0x30CE SWAP1 DUP6 PUSH2 0x352D JUMP JUMPDEST PUSH1 0x28 SLOAD SWAP1 SWAP3 POP PUSH2 0x30DE SWAP1 DUP6 PUSH2 0x352D JUMP JUMPDEST PUSH1 0x1 PUSH1 0x1 PUSH1 0xA0 SHL SUB DUP5 AND PUSH0 SWAP1 DUP2 MSTORE PUSH1 0x9 PUSH1 0x20 MSTORE PUSH1 0x40 SWAP1 KECCAK256 SLOAD SWAP1 SWAP2 POP DUP3 GT ISZERO PUSH2 0x3118 JUMPI PUSH1 0x40 MLOAD PUSH3 0x461BCD PUSH1 0xE5 SHL DUP2 MSTORE PUSH1 0x4 ADD PUSH2 0xBF9 SWAP1 PUSH2 0x3D23 JUMP JUMPDEST PUSH1 0x1 PUSH1 0x1 PUSH1 0xA0 SHL SUB DUP4 AND PUSH0 SWAP1 DUP2 MSTORE PUSH1 0xA PUSH1 0x20 MSTORE PUSH1 0x40 SWAP1 KECCAK256 SLOAD DUP2 GT ISZERO PUSH2 0x314F JUMPI PUSH1 0x40 MLOAD PUSH3 0x461BCD PUSH1 0xE5 SHL DUP2 MSTORE PUSH1 0x4 ADD PUSH2 0xBF9 SWAP1 PUSH2 0x3D64 JUMP JUMPDEST PUSH1 0x1 PUSH1 0x1 PUSH1 0xA0 SHL SUB DUP4 AND PUSH0 SWAP1 DUP2 MSTORE PUSH1 0x9 PUSH1 0x20 MSTORE PUSH1 0x40 DUP2 KECCAK256 DUP1 SLOAD DUP5 SWAP3 SWAP1 PUSH2 0x3176 SWAP1 DUP5 SWAP1 PUSH2 0x3A9B JUMP JUMPDEST SWAP1 SWAP2 SSTORE POP POP PUSH1 0x1 PUSH1 0x1 PUSH1 0xA0 SHL SUB DUP4 AND PUSH0 SWAP1 DUP2 MSTORE PUSH1 0xA PUSH1 0x20 MSTORE PUSH1 0x40 DUP2 KECCAK256 DUP1 SLOAD DUP4 SWAP3 SWAP1 PUSH2 0x31A2 SWAP1 DUP5 SWAP1 PUSH2 0x3A9B JUMP JUMPDEST SWAP1 SWAP2 SSTORE POP POP PUSH1 0x1 PUSH1 0x1 PUSH1 0xA0 SHL SUB DUP4 AND PUSH0 SWAP1 DUP2 MSTORE PUSH1 0xD PUSH1 0x20 MSTORE PUSH1 0x40 DUP2 KECCAK256 DUP1 SLOAD DUP7 SWAP3 SWAP1 PUSH2 0x2EB9 SWAP1 DUP5 SWAP1 PUSH2 0x3C01 JUMP JUMPDEST PUSH1 0x40 MLOAD PUSH4 0x534B495 PUSH1 0xE4 SHL PUSH1 0x20 DUP3 ADD MSTORE PUSH1 0x24 ADD PUSH1 0x40 MLOAD PUSH1 0x20 DUP2 DUP4 SUB SUB DUP2 MSTORE SWAP1 PUSH1 0x40 MSTORE DUP1 MLOAD SWAP1 PUSH1 0x20 ADD KECCAK256 DUP6 PUSH1 0x40 MLOAD PUSH1 0x20 ADD PUSH2 0x3208 SWAP2 SWAP1 PUSH2 0x3C14 JUMP JUMPDEST PUSH1 0x40 MLOAD PUSH1 0x20 DUP2 DUP4 SUB SUB DUP2 MSTORE SWAP1 PUSH1 0x40 MSTORE DUP1 MLOAD SWAP1 PUSH1 0x20 ADD KECCAK256 SUB PUSH2 0x3330 JUMPI PUSH1 0x25 SLOAD PUSH2 0x3230 SWAP1 DUP6 PUSH2 0x352D JUMP JUMPDEST PUSH1 0x29 SLOAD SWAP1 SWAP3 POP PUSH2 0x3240 SWAP1 DUP6 PUSH2 0x352D JUMP JUMPDEST PUSH1 0x1 PUSH1 0x1 PUSH1 0xA0 SHL SUB DUP5 AND PUSH0 SWAP1 DUP2 MSTORE PUSH1 0x9 PUSH1 0x20 MSTORE PUSH1 0x40 SWAP1 KECCAK256 SLOAD SWAP1 SWAP2 POP DUP3 GT ISZERO PUSH2 0x327A JUMPI PUSH1 0x40 MLOAD PUSH3 0x461BCD PUSH1 0xE5 SHL DUP2 MSTORE PUSH1 0x4 ADD PUSH2 0xBF9 SWAP1 PUSH2 0x3D23 JUMP JUMPDEST PUSH1 0x1 PUSH1 0x1 PUSH1 0xA0 SHL SUB DUP4 AND PUSH0 SWAP1 DUP2 MSTORE PUSH1 0xA PUSH1 0x20 MSTORE PUSH1 0x40 SWAP1 KECCAK256 SLOAD DUP2 GT ISZERO PUSH2 0x32B1 JUMPI PUSH1 0x40 MLOAD PUSH3 0x461BCD PUSH1 0xE5 SHL DUP2 MSTORE PUSH1 0x4 ADD PUSH2 0xBF9 SWAP1 PUSH2 0x3D64 JUMP JUMPDEST PUSH1 0x1 PUSH1 0x1 PUSH1 0xA0 SHL SUB DUP4 AND PUSH0 SWAP1 DUP2 MSTORE PUSH1 0x9 PUSH1 0x20 MSTORE PUSH1 0x40 DUP2 KECCAK256 DUP1 SLOAD DUP5 SWAP3 SWAP1 PUSH2 0x32D8 SWAP1 DUP5 SWAP1 PUSH2 0x3A9B JUMP JUMPDEST SWAP1 SWAP2 SSTORE POP POP PUSH1 0x1 PUSH1 0x1 PUSH1 0xA0 SHL SUB DUP4 AND PUSH0 SWAP1 DUP2 MSTORE PUSH1 0xA PUSH1 0x20 MSTORE PUSH1 0x40 DUP2 KECCAK256 DUP1 SLOAD DUP4 SWAP3 SWAP1 PUSH2 0x3304 SWAP1 DUP5 SWAP1 PUSH2 0x3A9B JUMP JUMPDEST SWAP1 SWAP2 SSTORE POP POP PUSH1 0x1 PUSH1 0x1 PUSH1 0xA0 SHL SUB DUP4 AND PUSH0 SWAP1 DUP2 MSTORE PUSH1 0xE PUSH1 0x20 MSTORE PUSH1 0x40 DUP2 KECCAK256 DUP1 SLOAD DUP7 SWAP3 SWAP1 PUSH2 0x2EB9 SWAP1 DUP5 SWAP1 PUSH2 0x3C01 JUMP JUMPDEST PUSH1 0x40 MLOAD PUSH3 0x461BCD PUSH1 0xE5 SHL DUP2 MSTORE PUSH1 0x20 PUSH1 0x4 DUP3 ADD MSTORE PUSH1 0x13 PUSH1 0x24 DUP3 ADD MSTORE PUSH19 0x496E76616C696420506F74696F6E204E616D65 PUSH1 0x68 SHL PUSH1 0x44 DUP3 ADD MSTORE PUSH1 0x64 ADD PUSH2 0xBF9 JUMP JUMPDEST POP POP POP POP POP JUMP JUMPDEST PUSH1 0x2B DUP1 SLOAD PUSH1 0xFF PUSH1 0xA8 SHL NOT AND PUSH1 0x1 PUSH1 0xA8 SHL OR SWAP1 SSTORE PUSH1 0x40 DUP1 MLOAD PUSH1 0x2 DUP1 DUP3 MSTORE PUSH1 0x60 DUP3 ADD DUP4 MSTORE PUSH0 SWAP3 PUSH1 0x20 DUP4 ADD SWAP1 DUP1 CALLDATASIZE DUP4 CALLDATACOPY ADD SWAP1 POP POP SWAP1 POP ADDRESS DUP2 PUSH0 DUP2 MLOAD DUP2 LT PUSH2 0x33BB JUMPI PUSH2 0x33BB PUSH2 0x3C73 JUMP JUMPDEST PUSH1 0x1 PUSH1 0x1 PUSH1 0xA0 SHL SUB SWAP3 DUP4 AND PUSH1 0x20 SWAP2 DUP3 MUL SWAP3 SWAP1 SWAP3 ADD DUP2 ADD SWAP2 SWAP1 SWAP2 MSTORE PUSH1 0x2A SLOAD PUSH1 0x40 DUP1 MLOAD PUSH4 0x15AB88C9 PUSH1 0xE3 SHL DUP2 MSTORE SWAP1 MLOAD SWAP2 SWAP1 SWAP4 AND SWAP3 PUSH4 0xAD5C4648 SWAP3 PUSH1 0x4 DUP1 DUP4 ADD SWAP4 SWAP2 SWAP3 DUP3 SWAP1 SUB ADD DUP2 DUP7 GAS STATICCALL ISZERO DUP1 ISZERO PUSH2 0x3412 JUMPI RETURNDATASIZE PUSH0 DUP1 RETURNDATACOPY RETURNDATASIZE PUSH0 REVERT JUMPDEST POP POP POP POP PUSH1 0x40 MLOAD RETURNDATASIZE PUSH1 0x1F NOT PUSH1 0x1F DUP3 ADD AND DUP3 ADD DUP1 PUSH1 0x40 MSTORE POP DUP2 ADD SWAP1 PUSH2 0x3436 SWAP2 SWAP1 PUSH2 0x3C9F JUMP JUMPDEST DUP2 PUSH1 0x1 DUP2 MLOAD DUP2 LT PUSH2 0x3449 JUMPI PUSH2 0x3449 PUSH2 0x3C73 JUMP JUMPDEST PUSH1 0x1 PUSH1 0x1 PUSH1 0xA0 SHL SUB SWAP3 DUP4 AND PUSH1 0x20 SWAP2 DUP3 MUL SWAP3 SWAP1 SWAP3 ADD ADD MSTORE PUSH1 0x2A SLOAD PUSH2 0x346F SWAP2 ADDRESS SWAP2 AND DUP5 PUSH2 0x28A1 JUMP JUMPDEST PUSH1 0x2A SLOAD PUSH1 0x40 MLOAD PUSH4 0x791AC947 PUSH1 0xE0 SHL DUP2 MSTORE PUSH1 0x1 PUSH1 0x1 PUSH1 0xA0 SHL SUB SWAP1 SWAP2 AND SWAP1 PUSH4 0x791AC947 SWAP1 PUSH2 0x34A7 SWAP1 DUP6 SWAP1 PUSH0 SWAP1 DUP7 SWAP1 ADDRESS SWAP1 TIMESTAMP SWAP1 PUSH1 0x4 ADD PUSH2 0x3DBD JUMP JUMPDEST PUSH0 PUSH1 0x40 MLOAD DUP1 DUP4 SUB DUP2 PUSH0 DUP8 DUP1 EXTCODESIZE ISZERO DUP1 ISZERO PUSH2 0x34BE JUMPI PUSH0 DUP1 REVERT JUMPDEST POP GAS CALL ISZERO DUP1 ISZERO PUSH2 0x34D0 JUMPI RETURNDATASIZE PUSH0 DUP1 RETURNDATACOPY RETURNDATASIZE PUSH0 REVERT JUMPDEST POP POP PUSH1 0x2B DUP1 SLOAD PUSH1 0xFF PUSH1 0xA8 SHL NOT AND SWAP1 SSTORE POP POP POP POP JUMP JUMPDEST PUSH0 PUSH2 0x3526 DUP4 DUP4 PUSH1 0x40 MLOAD DUP1 PUSH1 0x40 ADD PUSH1 0x40 MSTORE DUP1 PUSH1 0x1A DUP2 MSTORE PUSH1 0x20 ADD PUSH32 0x536166654D6174683A206469766973696F6E206279207A65726F000000000000 DUP2 MSTORE POP PUSH2 0x365E JUMP JUMPDEST SWAP4 SWAP3 POP POP POP JUMP JUMPDEST PUSH0 DUP3 PUSH0 SUB PUSH2 0x353C JUMPI POP PUSH0 PUSH2 0xC7F JUMP JUMPDEST PUSH0 PUSH2 0x3547 DUP4 DUP6 PUSH2 0x3BEA JUMP JUMPDEST SWAP1 POP DUP3 PUSH2 0x3554 DUP6 DUP4 PUSH2 0x3D04 JUMP JUMPDEST EQ PUSH2 0x3526 JUMPI PUSH1 0x40 MLOAD PUSH3 0x461BCD PUSH1 0xE5 SHL DUP2 MSTORE PUSH1 0x20 PUSH1 0x4 DUP3 ADD MSTORE PUSH1 0x21 PUSH1 0x24 DUP3 ADD MSTORE PUSH32 0x536166654D6174683A206D756C7469706C69636174696F6E206F766572666C6F PUSH1 0x44 DUP3 ADD MSTORE PUSH1 0x77 PUSH1 0xF8 SHL PUSH1 0x64 DUP3 ADD MSTORE PUSH1 0x84 ADD PUSH2 0xBF9 JUMP JUMPDEST PUSH0 DUP2 DUP4 GT PUSH2 0x35B9 JUMPI DUP3 PUSH2 0x3526 JUMP JUMPDEST POP SWAP2 SWAP1 POP JUMP JUMPDEST PUSH0 PUSH2 0x3526 DUP4 DUP4 PUSH1 0x40 MLOAD DUP1 PUSH1 0x40 ADD PUSH1 0x40 MSTORE DUP1 PUSH1 0x1E DUP2 MSTORE PUSH1 0x20 ADD PUSH32 0x536166654D6174683A207375627472616374696F6E206F766572666C6F770000 DUP2 MSTORE POP PUSH2 0x29C4 JUMP JUMPDEST PUSH0 DUP1 PUSH2 0x360C DUP4 DUP6 PUSH2 0x3C01 JUMP JUMPDEST SWAP1 POP DUP4 DUP2 LT ISZERO PUSH2 0x3526 JUMPI PUSH1 0x40 MLOAD PUSH3 0x461BCD PUSH1 0xE5 SHL DUP2 MSTORE PUSH1 0x20 PUSH1 0x4 DUP3 ADD MSTORE PUSH1 0x1B PUSH1 0x24 DUP3 ADD MSTORE PUSH32 0x536166654D6174683A206164646974696F6E206F766572666C6F770000000000 PUSH1 0x44 DUP3 ADD MSTORE PUSH1 0x64 ADD PUSH2 0xBF9 JUMP JUMPDEST PUSH0 DUP2 DUP4 PUSH2 0x367E JUMPI PUSH1 0x40 MLOAD PUSH3 0x461BCD PUSH1 0xE5 SHL DUP2 MSTORE PUSH1 0x4 ADD PUSH2 0xBF9 SWAP2 SWAP1 PUSH2 0x373C JUMP JUMPDEST POP PUSH0 PUSH2 0x29F3 DUP5 DUP7 PUSH2 0x3D04 JUMP JUMPDEST PUSH0 PUSH1 0x20 DUP3 DUP5 SUB SLT ISZERO PUSH2 0x369A JUMPI PUSH0 DUP1 REVERT JUMPDEST POP CALLDATALOAD SWAP2 SWAP1 POP JUMP JUMPDEST PUSH1 0x1 PUSH1 0x1 PUSH1 0xA0 SHL SUB DUP2 AND DUP2 EQ PUSH2 0x226F JUMPI PUSH0 DUP1 REVERT JUMPDEST DUP1 CALLDATALOAD PUSH2 0x36C0 DUP2 PUSH2 0x36A1 JUMP JUMPDEST SWAP2 SWAP1 POP JUMP JUMPDEST PUSH0 DUP1 PUSH1 0x40 DUP4 DUP6 SUB SLT ISZERO PUSH2 0x36D6 JUMPI PUSH0 DUP1 REVERT JUMPDEST DUP3 CALLDATALOAD PUSH2 0x36E1 DUP2 PUSH2 0x36A1 JUMP JUMPDEST SWAP5 PUSH1 0x20 SWAP4 SWAP1 SWAP4 ADD CALLDATALOAD SWAP4 POP POP POP JUMP JUMPDEST PUSH0 JUMPDEST DUP4 DUP2 LT ISZERO PUSH2 0x3709 JUMPI DUP2 DUP2 ADD MLOAD DUP4 DUP3 ADD MSTORE PUSH1 0x20 ADD PUSH2 0x36F1 JUMP JUMPDEST POP POP PUSH0 SWAP2 ADD MSTORE JUMP JUMPDEST PUSH0 DUP2 MLOAD DUP1 DUP5 MSTORE PUSH2 0x3728 DUP2 PUSH1 0x20 DUP7 ADD PUSH1 0x20 DUP7 ADD PUSH2 0x36EF JUMP JUMPDEST PUSH1 0x1F ADD PUSH1 0x1F NOT AND SWAP3 SWAP1 SWAP3 ADD PUSH1 0x20 ADD SWAP3 SWAP2 POP POP JUMP JUMPDEST PUSH1 0x20 DUP2 MSTORE PUSH0 PUSH2 0x3526 PUSH1 0x20 DUP4 ADD DUP5 PUSH2 0x3711 JUMP JUMPDEST PUSH0 DUP1 PUSH1 0x40 DUP4 DUP6 SUB SLT ISZERO PUSH2 0x375F JUMPI PUSH0 DUP1 REVERT JUMPDEST POP POP DUP1 CALLDATALOAD SWAP3 PUSH1 0x20 SWAP1 SWAP2 ADD CALLDATALOAD SWAP2 POP JUMP JUMPDEST PUSH0 PUSH1 0x20 DUP3 DUP5 SUB SLT ISZERO PUSH2 0x377E JUMPI PUSH0 DUP1 REVERT JUMPDEST DUP2 CALLDATALOAD PUSH2 0x3526 DUP2 PUSH2 0x36A1 JUMP JUMPDEST PUSH0 DUP1 PUSH0 PUSH1 0x60 DUP5 DUP7 SUB SLT ISZERO PUSH2 0x379B JUMPI PUSH0 DUP1 REVERT JUMPDEST DUP4 CALLDATALOAD PUSH2 0x37A6 DUP2 PUSH2 0x36A1 JUMP JUMPDEST SWAP3 POP PUSH1 0x20 DUP5 ADD CALLDATALOAD PUSH2 0x37B6 DUP2 PUSH2 0x36A1 JUMP JUMPDEST SWAP3 SWAP6 SWAP3 SWAP5 POP POP POP PUSH1 0x40 SWAP2 SWAP1 SWAP2 ADD CALLDATALOAD SWAP1 JUMP JUMPDEST PUSH4 0x4E487B71 PUSH1 0xE0 SHL PUSH0 MSTORE PUSH1 0x41 PUSH1 0x4 MSTORE PUSH1 0x24 PUSH0 REVERT JUMPDEST PUSH1 0x40 MLOAD PUSH1 0x1F DUP3 ADD PUSH1 0x1F NOT AND DUP2 ADD PUSH8 0xFFFFFFFFFFFFFFFF DUP2 GT DUP3 DUP3 LT OR ISZERO PUSH2 0x3804 JUMPI PUSH2 0x3804 PUSH2 0x37C7 JUMP JUMPDEST PUSH1 0x40 MSTORE SWAP2 SWAP1 POP JUMP JUMPDEST PUSH0 PUSH8 0xFFFFFFFFFFFFFFFF DUP3 GT ISZERO PUSH2 0x3825 JUMPI PUSH2 0x3825 PUSH2 0x37C7 JUMP JUMPDEST POP PUSH1 0x5 SHL PUSH1 0x20 ADD SWAP1 JUMP JUMPDEST PUSH0 DUP3 PUSH1 0x1F DUP4 ADD SLT PUSH2 0x383E JUMPI PUSH0 DUP1 REVERT JUMPDEST DUP2 CALLDATALOAD PUSH1 0x20 PUSH2 0x3853 PUSH2 0x384E DUP4 PUSH2 0x380C JUMP JUMPDEST PUSH2 0x37DB JUMP JUMPDEST DUP3 DUP2 MSTORE PUSH1 0x5 SWAP3 SWAP1 SWAP3 SHL DUP5 ADD DUP2 ADD SWAP2 DUP2 DUP2 ADD SWAP1 DUP7 DUP5 GT ISZERO PUSH2 0x3871 JUMPI PUSH0 DUP1 REVERT JUMPDEST DUP3 DUP7 ADD JUMPDEST DUP5 DUP2 LT ISZERO PUSH2 0x388C JUMPI DUP1 CALLDATALOAD DUP4 MSTORE SWAP2 DUP4 ADD SWAP2 DUP4 ADD PUSH2 0x3875 JUMP JUMPDEST POP SWAP7 SWAP6 POP POP POP POP POP POP JUMP JUMPDEST PUSH0 DUP3 PUSH1 0x1F DUP4 ADD SLT PUSH2 0x38A6 JUMPI PUSH0 DUP1 REVERT JUMPDEST DUP2 CALLDATALOAD PUSH8 0xFFFFFFFFFFFFFFFF DUP2 GT ISZERO PUSH2 0x38C0 JUMPI PUSH2 0x38C0 PUSH2 0x37C7 JUMP JUMPDEST PUSH2 0x38D3 PUSH1 0x1F DUP3 ADD PUSH1 0x1F NOT AND PUSH1 0x20 ADD PUSH2 0x37DB JUMP JUMPDEST DUP2 DUP2 MSTORE DUP5 PUSH1 0x20 DUP4 DUP7 ADD ADD GT ISZERO PUSH2 0x38E7 JUMPI PUSH0 DUP1 REVERT JUMPDEST DUP2 PUSH1 0x20 DUP6 ADD PUSH1 0x20 DUP4 ADD CALLDATACOPY PUSH0 SWAP2 DUP2 ADD PUSH1 0x20 ADD SWAP2 SWAP1 SWAP2 MSTORE SWAP4 SWAP3 POP POP POP JUMP JUMPDEST PUSH0 DUP1 PUSH0 PUSH1 0x60 DUP5 DUP7 SUB SLT ISZERO PUSH2 0x3915 JUMPI PUSH0 DUP1 REVERT JUMPDEST DUP4 CALLDATALOAD PUSH2 0x3920 DUP2 PUSH2 0x36A1 JUMP JUMPDEST SWAP3 POP PUSH1 0x20 DUP5 ADD CALLDATALOAD PUSH8 0xFFFFFFFFFFFFFFFF DUP1 DUP3 GT ISZERO PUSH2 0x393C JUMPI PUSH0 DUP1 REVERT JUMPDEST PUSH2 0x3948 DUP8 DUP4 DUP9 ADD PUSH2 0x382F JUMP JUMPDEST SWAP4 POP PUSH1 0x40 DUP7 ADD CALLDATALOAD SWAP2 POP DUP1 DUP3 GT ISZERO PUSH2 0x395D JUMPI PUSH0 DUP1 REVERT JUMPDEST POP PUSH2 0x396A DUP7 DUP3 DUP8 ADD PUSH2 0x3897 JUMP JUMPDEST SWAP2 POP POP SWAP3 POP SWAP3 POP SWAP3 JUMP JUMPDEST PUSH0 DUP1 PUSH0 PUSH1 0x60 DUP5 DUP7 SUB SLT ISZERO PUSH2 0x3986 JUMPI PUSH0 DUP1 REVERT JUMPDEST DUP4 CALLDATALOAD PUSH8 0xFFFFFFFFFFFFFFFF DUP1 DUP3 GT ISZERO PUSH2 0x399D JUMPI PUSH0 DUP1 REVERT JUMPDEST DUP2 DUP7 ADD SWAP2 POP DUP7 PUSH1 0x1F DUP4 ADD SLT PUSH2 0x39B0 JUMPI PUSH0 DUP1 REVERT JUMPDEST DUP2 CALLDATALOAD PUSH1 0x20 PUSH2 0x39C0 PUSH2 0x384E DUP4 PUSH2 0x380C JUMP JUMPDEST DUP3 DUP2 MSTORE PUSH1 0x5 SWAP3 SWAP1 SWAP3 SHL DUP5 ADD DUP2 ADD SWAP2 DUP2 DUP2 ADD SWAP1 DUP11 DUP5 GT ISZERO PUSH2 0x39DE JUMPI PUSH0 DUP1 REVERT JUMPDEST DUP3 DUP7 ADD JUMPDEST DUP5 DUP2 LT ISZERO PUSH2 0x3A15 JUMPI DUP1 CALLDATALOAD DUP7 DUP2 GT ISZERO PUSH2 0x39F9 JUMPI PUSH0 DUP1 DUP2 REVERT JUMPDEST PUSH2 0x3A07 DUP14 DUP7 DUP4 DUP12 ADD ADD PUSH2 0x3897 JUMP JUMPDEST DUP5 MSTORE POP SWAP2 DUP4 ADD SWAP2 DUP4 ADD PUSH2 0x39E2 JUMP JUMPDEST POP SWAP8 POP POP DUP8 ADD CALLDATALOAD SWAP3 POP POP DUP1 DUP3 GT ISZERO PUSH2 0x3A2B JUMPI PUSH0 DUP1 REVERT JUMPDEST POP PUSH2 0x3A38 DUP7 DUP3 DUP8 ADD PUSH2 0x382F JUMP JUMPDEST SWAP3 POP POP PUSH2 0x3A47 PUSH1 0x40 DUP6 ADD PUSH2 0x36B5 JUMP JUMPDEST SWAP1 POP SWAP3 POP SWAP3 POP SWAP3 JUMP JUMPDEST PUSH0 DUP1 PUSH1 0x40 DUP4 DUP6 SUB SLT ISZERO PUSH2 0x3A61 JUMPI PUSH0 DUP1 REVERT JUMPDEST DUP3 CALLDATALOAD PUSH2 0x3A6C DUP2 PUSH2 0x36A1 JUMP JUMPDEST SWAP2 POP PUSH1 0x20 DUP4 ADD CALLDATALOAD PUSH2 0x3A7C DUP2 PUSH2 0x36A1 JUMP JUMPDEST DUP1 SWAP2 POP POP SWAP3 POP SWAP3 SWAP1 POP JUMP JUMPDEST PUSH4 0x4E487B71 PUSH1 0xE0 SHL PUSH0 MSTORE PUSH1 0x11 PUSH1 0x4 MSTORE PUSH1 0x24 PUSH0 REVERT JUMPDEST DUP2 DUP2 SUB DUP2 DUP2 GT ISZERO PUSH2 0xC7F JUMPI PUSH2 0xC7F PUSH2 0x3A87 JUMP JUMPDEST PUSH1 0x20 DUP1 DUP3 MSTORE DUP2 DUP2 ADD MSTORE PUSH32 0x4F776E61626C653A2063616C6C6572206973206E6F7420746865206F776E6572 PUSH1 0x40 DUP3 ADD MSTORE PUSH1 0x60 ADD SWAP1 JUMP JUMPDEST PUSH1 0xFF DUP3 DUP2 AND DUP3 DUP3 AND SUB SWAP1 DUP2 GT ISZERO PUSH2 0xC7F JUMPI PUSH2 0xC7F PUSH2 0x3A87 JUMP JUMPDEST PUSH1 0x1 DUP2 DUP2 JUMPDEST DUP1 DUP6 GT ISZERO PUSH2 0x3B36 JUMPI DUP2 PUSH0 NOT DIV DUP3 GT ISZERO PUSH2 0x3B1C JUMPI PUSH2 0x3B1C PUSH2 0x3A87 JUMP JUMPDEST DUP1 DUP6 AND ISZERO PUSH2 0x3B29 JUMPI SWAP2 DUP2 MUL SWAP2 JUMPDEST SWAP4 DUP5 SHR SWAP4 SWAP1 DUP1 MUL SWAP1 PUSH2 0x3B01 JUMP JUMPDEST POP SWAP3 POP SWAP3 SWAP1 POP JUMP JUMPDEST PUSH0 DUP3 PUSH2 0x3B4C JUMPI POP PUSH1 0x1 PUSH2 0xC7F JUMP JUMPDEST DUP2 PUSH2 0x3B58 JUMPI POP PUSH0 PUSH2 0xC7F JUMP JUMPDEST DUP2 PUSH1 0x1 DUP2 EQ PUSH2 0x3B6E JUMPI PUSH1 0x2 DUP2 EQ PUSH2 0x3B78 JUMPI PUSH2 0x3B94 JUMP JUMPDEST PUSH1 0x1 SWAP2 POP POP PUSH2 0xC7F JUMP JUMPDEST PUSH1 0xFF DUP5 GT ISZERO PUSH2 0x3B89 JUMPI PUSH2 0x3B89 PUSH2 0x3A87 JUMP JUMPDEST POP POP PUSH1 0x1 DUP3 SHL PUSH2 0xC7F JUMP JUMPDEST POP PUSH1 0x20 DUP4 LT PUSH2 0x133 DUP4 LT AND PUSH1 0x4E DUP5 LT PUSH1 0xB DUP5 LT AND OR ISZERO PUSH2 0x3BB7 JUMPI POP DUP2 DUP2 EXP PUSH2 0xC7F JUMP JUMPDEST PUSH2 0x3BC1 DUP4 DUP4 PUSH2 0x3AFC JUMP JUMPDEST DUP1 PUSH0 NOT DIV DUP3 GT ISZERO PUSH2 0x3BD4 JUMPI PUSH2 0x3BD4 PUSH2 0x3A87 JUMP JUMPDEST MUL SWAP4 SWAP3 POP POP POP JUMP JUMPDEST PUSH0 PUSH2 0x3526 PUSH1 0xFF DUP5 AND DUP4 PUSH2 0x3B3E JUMP JUMPDEST DUP1 DUP3 MUL DUP2 ISZERO DUP3 DUP3 DIV DUP5 EQ OR PUSH2 0xC7F JUMPI PUSH2 0xC7F PUSH2 0x3A87 JUMP JUMPDEST DUP1 DUP3 ADD DUP1 DUP3 GT ISZERO PUSH2 0xC7F JUMPI PUSH2 0xC7F PUSH2 0x3A87 JUMP JUMPDEST PUSH0 DUP3 MLOAD PUSH2 0x3C25 DUP2 DUP5 PUSH1 0x20 DUP8 ADD PUSH2 0x36EF JUMP JUMPDEST SWAP2 SWAP1 SWAP2 ADD SWAP3 SWAP2 POP POP JUMP JUMPDEST PUSH1 0x20 DUP1 DUP3 MSTORE PUSH1 0x24 SWAP1 DUP3 ADD MSTORE PUSH32 0x42616C616E636520646F6573206E6F74206861766520656E6F75676820506F74 PUSH1 0x40 DUP3 ADD MSTORE PUSH4 0x696F6E73 PUSH1 0xE0 SHL PUSH1 0x60 DUP3 ADD MSTORE PUSH1 0x80 ADD SWAP1 JUMP JUMPDEST PUSH4 0x4E487B71 PUSH1 0xE0 SHL PUSH0 MSTORE PUSH1 0x32 PUSH1 0x4 MSTORE PUSH1 0x24 PUSH0 REVERT JUMPDEST PUSH0 PUSH1 0x1 DUP3 ADD PUSH2 0x3C98 JUMPI PUSH2 0x3C98 PUSH2 0x3A87 JUMP JUMPDEST POP PUSH1 0x1 ADD SWAP1 JUMP JUMPDEST PUSH0 PUSH1 0x20 DUP3 DUP5 SUB SLT ISZERO PUSH2 0x3CAF JUMPI PUSH0 DUP1 REVERT JUMPDEST DUP2 MLOAD PUSH2 0x3526 DUP2 PUSH2 0x36A1 JUMP JUMPDEST PUSH0 DUP1 PUSH0 PUSH1 0x60 DUP5 DUP7 SUB SLT ISZERO PUSH2 0x3CCC JUMPI PUSH0 DUP1 REVERT JUMPDEST DUP4 MLOAD SWAP3 POP PUSH1 0x20 DUP5 ADD MLOAD SWAP2 POP PUSH1 0x40 DUP5 ADD MLOAD SWAP1 POP SWAP3 POP SWAP3 POP SWAP3 JUMP JUMPDEST PUSH0 PUSH1 0x20 DUP3 DUP5 SUB SLT ISZERO PUSH2 0x3CF5 JUMPI PUSH0 DUP1 REVERT JUMPDEST DUP2 MLOAD DUP1 ISZERO ISZERO DUP2 EQ PUSH2 0x3526 JUMPI PUSH0 DUP1 REVERT JUMPDEST PUSH0 DUP3 PUSH2 0x3D1E JUMPI PUSH4 0x4E487B71 PUSH1 0xE0 SHL PUSH0 MSTORE PUSH1 0x12 PUSH1 0x4 MSTORE PUSH1 0x24 PUSH0 REVERT JUMPDEST POP DIV SWAP1 JUMP JUMPDEST PUSH1 0x20 DUP1 DUP3 MSTORE PUSH1 0x21 SWAP1 DUP3 ADD MSTORE PUSH32 0x42616C616E636520646F6573206E6F74206861766520656E6F7567682048474D PUSH1 0x40 DUP3 ADD MSTORE PUSH1 0x53 PUSH1 0xF8 SHL PUSH1 0x60 DUP3 ADD MSTORE PUSH1 0x80 ADD SWAP1 JUMP JUMPDEST PUSH1 0x20 DUP1 DUP3 MSTORE DUP2 DUP2 ADD MSTORE PUSH32 0x42616C616E636520646F6573206E6F74206861766520656E6F75676820455448 PUSH1 0x40 DUP3 ADD MSTORE PUSH1 0x60 ADD SWAP1 JUMP JUMPDEST PUSH1 0x60 DUP2 MSTORE PUSH0 PUSH2 0x3DAB PUSH1 0x60 DUP4 ADD DUP7 PUSH2 0x3711 JUMP JUMPDEST PUSH1 0x20 DUP4 ADD SWAP5 SWAP1 SWAP5 MSTORE POP PUSH1 0x40 ADD MSTORE SWAP2 SWAP1 POP JUMP JUMPDEST PUSH0 PUSH1 0xA0 DUP3 ADD DUP8 DUP4 MSTORE PUSH1 0x20 DUP8 DUP2 DUP6 ADD MSTORE PUSH1 0xA0 PUSH1 0x40 DUP6 ADD MSTORE DUP2 DUP8 MLOAD DUP1 DUP5 MSTORE PUSH1 0xC0 DUP7 ADD SWAP2 POP DUP3 DUP10 ADD SWAP4 POP PUSH0 JUMPDEST DUP2 DUP2 LT ISZERO PUSH2 0x3E0B JUMPI DUP5 MLOAD PUSH1 0x1 PUSH1 0x1 PUSH1 0xA0 SHL SUB AND DUP4 MSTORE SWAP4 DUP4 ADD SWAP4 SWAP2 DUP4 ADD SWAP2 PUSH1 0x1 ADD PUSH2 0x3DE6 JUMP JUMPDEST POP POP PUSH1 0x1 PUSH1 0x1 PUSH1 0xA0 SHL SUB SWAP7 SWAP1 SWAP7 AND PUSH1 0x60 DUP6 ADD MSTORE POP POP POP PUSH1 0x80 ADD MSTORE SWAP4 SWAP3 POP POP POP JUMP INVALID GASLIMIT MSTORE NUMBER ORIGIN ADDRESS GASPRICE KECCAK256 PUSH21 0x72616E7366657220616D6F756E7420657863656564 PUSH20 0x20616C6C6F77616E6365A2646970667358221220 PUSH26 0xA99A0FAF8749A67AF1008DDECD2A9E74500FB3C8B9468A3E5D88 SWAP6 NOT BYTE PUSH11 0xB364736F6C634300081500 CALLER "
		},
		"gasEstimates": {
			"creation": {
				"codeDepositCost": "3202000",
				"executionCost": "infinite",
				"totalCost": "infinite"
			},
			"external": {
				"BOOSTPriceETH()": "2427",
				"BOOSTPriceHGMS()": "2426",
				"BOOSTShopBalances(address)": "2621",
				"ManualSwap()": "infinite",
				"NFTBOOSTBalance(uint256)": "2506",
				"NFTSKIPBalance(uint256)": "2548",
				"NFTVBalance(uint256)": "2570",
				"NFTXTRABalance(uint256)": "2502",
				"SKIPPriceETH()": "2406",
				"SKIPPriceHGMS()": "2361",
				"SKIPShopBalances(address)": "2621",
				"VPriceETH()": "2385",
				"VPriceHGMS()": "2383",
				"VShopBalances(address)": "2622",
				"XTRAPriceETH()": "2363",
				"XTRAPriceHGMS()": "2384",
				"XTRAShopBalances(address)": "2600",
				"_battleContract()": "2425",
				"_devWallet()": "2471",
				"_maintenanceWallet()": "2404",
				"_marketWallet()": "2447",
				"_maxTaxSwap()": "2407",
				"_maxTxAmount()": "2407",
				"_maxWalletSize()": "2406",
				"_taxSwapThreshold()": "2362",
				"_teamWallet()": "2448",
				"allowance(address,address)": "infinite",
				"applyPotion(address,uint256[],string)": "infinite",
				"approve(address,uint256)": "24667",
				"balanceOf(address)": "2661",
				"buyPotion(string[],uint256[],address)": "infinite",
				"decimals()": "266",
				"depositToShop(uint256,uint256)": "infinite",
				"emergencyTaxAt()": "infinite",
				"ethShopBalances(address)": "2643",
				"getNFTBOOSTBalance(uint256)": "2570",
				"getNFTSKIPBalance(uint256)": "2547",
				"getNFTVBalance(uint256)": "2526",
				"getNFTXTRABalance(uint256)": "2549",
				"hgmsShopBalances(address)": "2579",
				"manualSend()": "infinite",
				"name()": "infinite",
				"openTrading()": "infinite",
				"owner()": "2419",
				"payoutWinners(address,uint256)": "infinite",
				"potionsUsed(uint256)": "2502",
				"removeLimits()": "76138",
				"removePotions(uint256,uint256)": "198039",
				"renounceOwnership()": "30230",
				"setBOOSTPrice(uint256,uint256)": "infinite",
				"setBattleContract(address)": "26793",
				"setSKIPPrice(uint256,uint256)": "infinite",
				"setVPrice(uint256,uint256)": "infinite",
				"setXTRAPrice(uint256,uint256)": "infinite",
				"symbol()": "infinite",
				"totalSupply()": "2359",
				"transfer(address,uint256)": "infinite",
				"transferDelayEnabled()": "2449",
				"transferFrom(address,address,uint256)": "infinite",
				"withdrawStuckETH()": "infinite",
				"withdrawTokens(address,uint256)": "infinite"
			},
			"internal": {
				"_approve(address,address,uint256)": "infinite",
				"_burn(address,uint256)": "infinite",
				"_removeLimits()": "infinite",
				"_transfer(address,address,uint256)": "infinite",
				"min(uint256,uint256)": "60",
				"processOrder(string memory,uint256,address)": "infinite",
				"sendETHToFee(uint256)": "infinite",
				"swapTokensForEth(uint256)": "infinite"
			}
		},
		"methodIdentifiers": {
			"BOOSTPriceETH()": "f2b4c325",
			"BOOSTPriceHGMS()": "f7685a02",
			"BOOSTShopBalances(address)": "d677d03e",
			"ManualSwap()": "a1780c18",
			"NFTBOOSTBalance(uint256)": "039aa9cf",
			"NFTSKIPBalance(uint256)": "54ca45d8",
			"NFTVBalance(uint256)": "580a155a",
			"NFTXTRABalance(uint256)": "f3a395fc",
			"SKIPPriceETH()": "21e09b34",
			"SKIPPriceHGMS()": "66b6090f",
			"SKIPShopBalances(address)": "f2a6227f",
			"VPriceETH()": "298a8328",
			"VPriceHGMS()": "eb77dbb1",
			"VShopBalances(address)": "c232ae4d",
			"XTRAPriceETH()": "24aede52",
			"XTRAPriceHGMS()": "19dde7b7",
			"XTRAShopBalances(address)": "52d3c14e",
			"_battleContract()": "ce9dc805",
			"_devWallet()": "11a63e17",
			"_maintenanceWallet()": "51a2f687",
			"_marketWallet()": "bbab0ff1",
			"_maxTaxSwap()": "0faee56f",
			"_maxTxAmount()": "7d1db4a5",
			"_maxWalletSize()": "8f9a55c0",
			"_taxSwapThreshold()": "bf474bed",
			"_teamWallet()": "37e294d5",
			"allowance(address,address)": "dd62ed3e",
			"applyPotion(address,uint256[],string)": "81cd58e5",
			"approve(address,uint256)": "095ea7b3",
			"balanceOf(address)": "70a08231",
			"buyPotion(string[],uint256[],address)": "a09dfbd0",
			"decimals()": "313ce567",
			"depositToShop(uint256,uint256)": "2d4bbb05",
			"emergencyTaxAt()": "0634087d",
			"ethShopBalances(address)": "be68e027",
			"getNFTBOOSTBalance(uint256)": "3b32edd4",
			"getNFTSKIPBalance(uint256)": "6e2ed3c4",
			"getNFTVBalance(uint256)": "c1ae5e72",
			"getNFTXTRABalance(uint256)": "2ace2af5",
			"hgmsShopBalances(address)": "0d2d697a",
			"manualSend()": "f4293890",
			"name()": "06fdde03",
			"openTrading()": "c9567bf9",
			"owner()": "8da5cb5b",
			"payoutWinners(address,uint256)": "af95d4d3",
			"potionsUsed(uint256)": "eb429bf8",
			"removeLimits()": "751039fc",
			"removePotions(uint256,uint256)": "09eadbf5",
			"renounceOwnership()": "715018a6",
			"setBOOSTPrice(uint256,uint256)": "6a4d84f9",
			"setBattleContract(address)": "0db6dff7",
			"setSKIPPrice(uint256,uint256)": "0c0e3d4a",
			"setVPrice(uint256,uint256)": "abb284e9",
			"setXTRAPrice(uint256,uint256)": "8fbd8f27",
			"symbol()": "95d89b41",
			"totalSupply()": "18160ddd",
			"transfer(address,uint256)": "a9059cbb",
			"transferDelayEnabled()": "c876d0b9",
			"transferFrom(address,address,uint256)": "23b872dd",
			"withdrawStuckETH()": "f5648a4f",
			"withdrawTokens(address,uint256)": "06b091f9"
		}
	},
	"abi": [
		{
			"inputs": [],
			"stateMutability": "nonpayable",
			"type": "constructor"
		},
		{
			"anonymous": false,
			"inputs": [
				{
					"indexed": true,
					"internalType": "address",
					"name": "owner",
					"type": "address"
				},
				{
					"indexed": true,
					"internalType": "address",
					"name": "spender",
					"type": "address"
				},
				{
					"indexed": false,
					"internalType": "uint256",
					"name": "value",
					"type": "uint256"
				}
			],
			"name": "Approval",
			"type": "event"
		},
		{
			"anonymous": false,
			"inputs": [
				{
					"indexed": true,
					"internalType": "address",
					"name": "account",
					"type": "address"
				},
				{
					"indexed": false,
					"internalType": "uint256",
					"name": "amount",
					"type": "uint256"
				}
			],
			"name": "Burn",
			"type": "event"
		},
		{
			"anonymous": false,
			"inputs": [],
			"name": "Deposit",
			"type": "event"
		},
		{
			"anonymous": false,
			"inputs": [
				{
					"indexed": false,
					"internalType": "uint256",
					"name": "_maxTxAmount",
					"type": "uint256"
				}
			],
			"name": "MaxTxAmountUpdated",
			"type": "event"
		},
		{
			"anonymous": false,
			"inputs": [
				{
					"indexed": true,
					"internalType": "address",
					"name": "previousOwner",
					"type": "address"
				},
				{
					"indexed": true,
					"internalType": "address",
					"name": "newOwner",
					"type": "address"
				}
			],
			"name": "OwnershipTransferred",
			"type": "event"
		},
		{
			"anonymous": false,
			"inputs": [
				{
					"indexed": true,
					"internalType": "address",
					"name": "buyer",
					"type": "address"
				},
				{
					"indexed": true,
					"internalType": "address",
					"name": "shopOwner",
					"type": "address"
				},
				{
					"indexed": false,
					"internalType": "string",
					"name": "potionName",
					"type": "string"
				},
				{
					"indexed": false,
					"internalType": "uint256",
					"name": "ethAmount",
					"type": "uint256"
				},
				{
					"indexed": false,
					"internalType": "uint256",
					"name": "hgmsAmount",
					"type": "uint256"
				}
			],
			"name": "PotionPurchased",
			"type": "event"
		},
		{
			"anonymous": false,
			"inputs": [
				{
					"indexed": false,
					"internalType": "uint256",
					"name": "nftId1",
					"type": "uint256"
				},
				{
					"indexed": false,
					"internalType": "uint256",
					"name": "nftId2",
					"type": "uint256"
				}
			],
			"name": "PotionsRemoved",
			"type": "event"
		},
		{
			"anonymous": false,
			"inputs": [
				{
					"indexed": true,
					"internalType": "address",
					"name": "from",
					"type": "address"
				},
				{
					"indexed": true,
					"internalType": "address",
					"name": "to",
					"type": "address"
				},
				{
					"indexed": false,
					"internalType": "uint256",
					"name": "value",
					"type": "uint256"
				}
			],
			"name": "Transfer",
			"type": "event"
		},
		{
			"inputs": [],
			"name": "BOOSTPriceETH",
			"outputs": [
				{
					"internalType": "uint256",
					"name": "",
					"type": "uint256"
				}
			],
			"stateMutability": "view",
			"type": "function"
		},
		{
			"inputs": [],
			"name": "BOOSTPriceHGMS",
			"outputs": [
				{
					"internalType": "uint256",
					"name": "",
					"type": "uint256"
				}
			],
			"stateMutability": "view",
			"type": "function"
		},
		{
			"inputs": [
				{
					"internalType": "address",
					"name": "",
					"type": "address"
				}
			],
			"name": "BOOSTShopBalances",
			"outputs": [
				{
					"internalType": "uint256",
					"name": "",
					"type": "uint256"
				}
			],
			"stateMutability": "view",
			"type": "function"
		},
		{
			"inputs": [],
			"name": "ManualSwap",
			"outputs": [],
			"stateMutability": "nonpayable",
			"type": "function"
		},
		{
			"inputs": [
				{
					"internalType": "uint256",
					"name": "",
					"type": "uint256"
				}
			],
			"name": "NFTBOOSTBalance",
			"outputs": [
				{
					"internalType": "bool",
					"name": "",
					"type": "bool"
				}
			],
			"stateMutability": "view",
			"type": "function"
		},
		{
			"inputs": [
				{
					"internalType": "uint256",
					"name": "",
					"type": "uint256"
				}
			],
			"name": "NFTSKIPBalance",
			"outputs": [
				{
					"internalType": "bool",
					"name": "",
					"type": "bool"
				}
			],
			"stateMutability": "view",
			"type": "function"
		},
		{
			"inputs": [
				{
					"internalType": "uint256",
					"name": "",
					"type": "uint256"
				}
			],
			"name": "NFTVBalance",
			"outputs": [
				{
					"internalType": "bool",
					"name": "",
					"type": "bool"
				}
			],
			"stateMutability": "view",
			"type": "function"
		},
		{
			"inputs": [
				{
					"internalType": "uint256",
					"name": "",
					"type": "uint256"
				}
			],
			"name": "NFTXTRABalance",
			"outputs": [
				{
					"internalType": "bool",
					"name": "",
					"type": "bool"
				}
			],
			"stateMutability": "view",
			"type": "function"
		},
		{
			"inputs": [],
			"name": "SKIPPriceETH",
			"outputs": [
				{
					"internalType": "uint256",
					"name": "",
					"type": "uint256"
				}
			],
			"stateMutability": "view",
			"type": "function"
		},
		{
			"inputs": [],
			"name": "SKIPPriceHGMS",
			"outputs": [
				{
					"internalType": "uint256",
					"name": "",
					"type": "uint256"
				}
			],
			"stateMutability": "view",
			"type": "function"
		},
		{
			"inputs": [
				{
					"internalType": "address",
					"name": "",
					"type": "address"
				}
			],
			"name": "SKIPShopBalances",
			"outputs": [
				{
					"internalType": "uint256",
					"name": "",
					"type": "uint256"
				}
			],
			"stateMutability": "view",
			"type": "function"
		},
		{
			"inputs": [],
			"name": "VPriceETH",
			"outputs": [
				{
					"internalType": "uint256",
					"name": "",
					"type": "uint256"
				}
			],
			"stateMutability": "view",
			"type": "function"
		},
		{
			"inputs": [],
			"name": "VPriceHGMS",
			"outputs": [
				{
					"internalType": "uint256",
					"name": "",
					"type": "uint256"
				}
			],
			"stateMutability": "view",
			"type": "function"
		},
		{
			"inputs": [
				{
					"internalType": "address",
					"name": "",
					"type": "address"
				}
			],
			"name": "VShopBalances",
			"outputs": [
				{
					"internalType": "uint256",
					"name": "",
					"type": "uint256"
				}
			],
			"stateMutability": "view",
			"type": "function"
		},
		{
			"inputs": [],
			"name": "XTRAPriceETH",
			"outputs": [
				{
					"internalType": "uint256",
					"name": "",
					"type": "uint256"
				}
			],
			"stateMutability": "view",
			"type": "function"
		},
		{
			"inputs": [],
			"name": "XTRAPriceHGMS",
			"outputs": [
				{
					"internalType": "uint256",
					"name": "",
					"type": "uint256"
				}
			],
			"stateMutability": "view",
			"type": "function"
		},
		{
			"inputs": [
				{
					"internalType": "address",
					"name": "",
					"type": "address"
				}
			],
			"name": "XTRAShopBalances",
			"outputs": [
				{
					"internalType": "uint256",
					"name": "",
					"type": "uint256"
				}
			],
			"stateMutability": "view",
			"type": "function"
		},
		{
			"inputs": [],
			"name": "_battleContract",
			"outputs": [
				{
					"internalType": "address",
					"name": "",
					"type": "address"
				}
			],
			"stateMutability": "view",
			"type": "function"
		},
		{
			"inputs": [],
			"name": "_devWallet",
			"outputs": [
				{
					"internalType": "address payable",
					"name": "",
					"type": "address"
				}
			],
			"stateMutability": "view",
			"type": "function"
		},
		{
			"inputs": [],
			"name": "_maintenanceWallet",
			"outputs": [
				{
					"internalType": "address payable",
					"name": "",
					"type": "address"
				}
			],
			"stateMutability": "view",
			"type": "function"
		},
		{
			"inputs": [],
			"name": "_marketWallet",
			"outputs": [
				{
					"internalType": "address payable",
					"name": "",
					"type": "address"
				}
			],
			"stateMutability": "view",
			"type": "function"
		},
		{
			"inputs": [],
			"name": "_maxTaxSwap",
			"outputs": [
				{
					"internalType": "uint256",
					"name": "",
					"type": "uint256"
				}
			],
			"stateMutability": "view",
			"type": "function"
		},
		{
			"inputs": [],
			"name": "_maxTxAmount",
			"outputs": [
				{
					"internalType": "uint256",
					"name": "",
					"type": "uint256"
				}
			],
			"stateMutability": "view",
			"type": "function"
		},
		{
			"inputs": [],
			"name": "_maxWalletSize",
			"outputs": [
				{
					"internalType": "uint256",
					"name": "",
					"type": "uint256"
				}
			],
			"stateMutability": "view",
			"type": "function"
		},
		{
			"inputs": [],
			"name": "_taxSwapThreshold",
			"outputs": [
				{
					"internalType": "uint256",
					"name": "",
					"type": "uint256"
				}
			],
			"stateMutability": "view",
			"type": "function"
		},
		{
			"inputs": [],
			"name": "_teamWallet",
			"outputs": [
				{
					"internalType": "address payable",
					"name": "",
					"type": "address"
				}
			],
			"stateMutability": "view",
			"type": "function"
		},
		{
			"inputs": [
				{
					"internalType": "address",
					"name": "owner",
					"type": "address"
				},
				{
					"internalType": "address",
					"name": "spender",
					"type": "address"
				}
			],
			"name": "allowance",
			"outputs": [
				{
					"internalType": "uint256",
					"name": "",
					"type": "uint256"
				}
			],
			"stateMutability": "view",
			"type": "function"
		},
		{
			"inputs": [
				{
					"internalType": "address",
					"name": "shopOwner",
					"type": "address"
				},
				{
					"internalType": "uint256[]",
					"name": "NFTId",
					"type": "uint256[]"
				},
				{
					"internalType": "string",
					"name": "potionName",
					"type": "string"
				}
			],
			"name": "applyPotion",
			"outputs": [],
			"stateMutability": "nonpayable",
			"type": "function"
		},
		{
			"inputs": [
				{
					"internalType": "address",
					"name": "spender",
					"type": "address"
				},
				{
					"internalType": "uint256",
					"name": "amount",
					"type": "uint256"
				}
			],
			"name": "approve",
			"outputs": [
				{
					"internalType": "bool",
					"name": "",
					"type": "bool"
				}
			],
			"stateMutability": "nonpayable",
			"type": "function"
		},
		{
			"inputs": [
				{
					"internalType": "address",
					"name": "account",
					"type": "address"
				}
			],
			"name": "balanceOf",
			"outputs": [
				{
					"internalType": "uint256",
					"name": "",
					"type": "uint256"
				}
			],
			"stateMutability": "view",
			"type": "function"
		},
		{
			"inputs": [
				{
					"internalType": "string[]",
					"name": "potionNames",
					"type": "string[]"
				},
				{
					"internalType": "uint256[]",
					"name": "amounts",
					"type": "uint256[]"
				},
				{
					"internalType": "address",
					"name": "shopOwner",
					"type": "address"
				}
			],
			"name": "buyPotion",
			"outputs": [],
			"stateMutability": "nonpayable",
			"type": "function"
		},
		{
			"inputs": [],
			"name": "decimals",
			"outputs": [
				{
					"internalType": "uint8",
					"name": "",
					"type": "uint8"
				}
			],
			"stateMutability": "pure",
			"type": "function"
		},
		{
			"inputs": [
				{
					"internalType": "uint256",
					"name": "hgmsAmount",
					"type": "uint256"
				},
				{
					"internalType": "uint256",
					"name": "ethAmount",
					"type": "uint256"
				}
			],
			"name": "depositToShop",
			"outputs": [],
			"stateMutability": "payable",
			"type": "function"
		},
		{
			"inputs": [],
			"name": "emergencyTaxAt",
			"outputs": [],
			"stateMutability": "nonpayable",
			"type": "function"
		},
		{
			"inputs": [
				{
					"internalType": "address",
					"name": "",
					"type": "address"
				}
			],
			"name": "ethShopBalances",
			"outputs": [
				{
					"internalType": "uint256",
					"name": "",
					"type": "uint256"
				}
			],
			"stateMutability": "view",
			"type": "function"
		},
		{
			"inputs": [
				{
					"internalType": "uint256",
					"name": "NFTId",
					"type": "uint256"
				}
			],
			"name": "getNFTBOOSTBalance",
			"outputs": [
				{
					"internalType": "bool",
					"name": "",
					"type": "bool"
				}
			],
			"stateMutability": "view",
			"type": "function"
		},
		{
			"inputs": [
				{
					"internalType": "uint256",
					"name": "NFTId",
					"type": "uint256"
				}
			],
			"name": "getNFTSKIPBalance",
			"outputs": [
				{
					"internalType": "bool",
					"name": "",
					"type": "bool"
				}
			],
			"stateMutability": "view",
			"type": "function"
		},
		{
			"inputs": [
				{
					"internalType": "uint256",
					"name": "NFTId",
					"type": "uint256"
				}
			],
			"name": "getNFTVBalance",
			"outputs": [
				{
					"internalType": "bool",
					"name": "",
					"type": "bool"
				}
			],
			"stateMutability": "view",
			"type": "function"
		},
		{
			"inputs": [
				{
					"internalType": "uint256",
					"name": "NFTId",
					"type": "uint256"
				}
			],
			"name": "getNFTXTRABalance",
			"outputs": [
				{
					"internalType": "bool",
					"name": "",
					"type": "bool"
				}
			],
			"stateMutability": "view",
			"type": "function"
		},
		{
			"inputs": [
				{
					"internalType": "address",
					"name": "",
					"type": "address"
				}
			],
			"name": "hgmsShopBalances",
			"outputs": [
				{
					"internalType": "uint256",
					"name": "",
					"type": "uint256"
				}
			],
			"stateMutability": "view",
			"type": "function"
		},
		{
			"inputs": [],
			"name": "manualSend",
			"outputs": [],
			"stateMutability": "nonpayable",
			"type": "function"
		},
		{
			"inputs": [],
			"name": "name",
			"outputs": [
				{
					"internalType": "string",
					"name": "",
					"type": "string"
				}
			],
			"stateMutability": "pure",
			"type": "function"
		},
		{
			"inputs": [],
			"name": "openTrading",
			"outputs": [],
			"stateMutability": "nonpayable",
			"type": "function"
		},
		{
			"inputs": [],
			"name": "owner",
			"outputs": [
				{
					"internalType": "address",
					"name": "",
					"type": "address"
				}
			],
			"stateMutability": "view",
			"type": "function"
		},
		{
			"inputs": [
				{
					"internalType": "address payable",
					"name": "winner",
					"type": "address"
				},
				{
					"internalType": "uint256",
					"name": "share",
					"type": "uint256"
				}
			],
			"name": "payoutWinners",
			"outputs": [],
			"stateMutability": "nonpayable",
			"type": "function"
		},
		{
			"inputs": [
				{
					"internalType": "uint256",
					"name": "",
					"type": "uint256"
				}
			],
			"name": "potionsUsed",
			"outputs": [
				{
					"internalType": "uint256",
					"name": "",
					"type": "uint256"
				}
			],
			"stateMutability": "view",
			"type": "function"
		},
		{
			"inputs": [],
			"name": "removeLimits",
			"outputs": [],
			"stateMutability": "nonpayable",
			"type": "function"
		},
		{
			"inputs": [
				{
					"internalType": "uint256",
					"name": "First",
					"type": "uint256"
				},
				{
					"internalType": "uint256",
					"name": "Second",
					"type": "uint256"
				}
			],
			"name": "removePotions",
			"outputs": [],
			"stateMutability": "nonpayable",
			"type": "function"
		},
		{
			"inputs": [],
			"name": "renounceOwnership",
			"outputs": [],
			"stateMutability": "nonpayable",
			"type": "function"
		},
		{
			"inputs": [
				{
					"internalType": "uint256",
					"name": "hgmsAmount",
					"type": "uint256"
				},
				{
					"internalType": "uint256",
					"name": "ethAmount",
					"type": "uint256"
				}
			],
			"name": "setBOOSTPrice",
			"outputs": [],
			"stateMutability": "nonpayable",
			"type": "function"
		},
		{
			"inputs": [
				{
					"internalType": "address",
					"name": "BattleContractAddress",
					"type": "address"
				}
			],
			"name": "setBattleContract",
			"outputs": [],
			"stateMutability": "nonpayable",
			"type": "function"
		},
		{
			"inputs": [
				{
					"internalType": "uint256",
					"name": "hgmsAmount",
					"type": "uint256"
				},
				{
					"internalType": "uint256",
					"name": "ethAmount",
					"type": "uint256"
				}
			],
			"name": "setSKIPPrice",
			"outputs": [],
			"stateMutability": "nonpayable",
			"type": "function"
		},
		{
			"inputs": [
				{
					"internalType": "uint256",
					"name": "hgmsAmount",
					"type": "uint256"
				},
				{
					"internalType": "uint256",
					"name": "ethAmount",
					"type": "uint256"
				}
			],
			"name": "setVPrice",
			"outputs": [],
			"stateMutability": "nonpayable",
			"type": "function"
		},
		{
			"inputs": [
				{
					"internalType": "uint256",
					"name": "hgmsAmount",
					"type": "uint256"
				},
				{
					"internalType": "uint256",
					"name": "ethAmount",
					"type": "uint256"
				}
			],
			"name": "setXTRAPrice",
			"outputs": [],
			"stateMutability": "nonpayable",
			"type": "function"
		},
		{
			"inputs": [],
			"name": "symbol",
			"outputs": [
				{
					"internalType": "string",
					"name": "",
					"type": "string"
				}
			],
			"stateMutability": "pure",
			"type": "function"
		},
		{
			"inputs": [],
			"name": "totalSupply",
			"outputs": [
				{
					"internalType": "uint256",
					"name": "",
					"type": "uint256"
				}
			],
			"stateMutability": "view",
			"type": "function"
		},
		{
			"inputs": [
				{
					"internalType": "address",
					"name": "recipient",
					"type": "address"
				},
				{
					"internalType": "uint256",
					"name": "amount",
					"type": "uint256"
				}
			],
			"name": "transfer",
			"outputs": [
				{
					"internalType": "bool",
					"name": "",
					"type": "bool"
				}
			],
			"stateMutability": "nonpayable",
			"type": "function"
		},
		{
			"inputs": [],
			"name": "transferDelayEnabled",
			"outputs": [
				{
					"internalType": "bool",
					"name": "",
					"type": "bool"
				}
			],
			"stateMutability": "view",
			"type": "function"
		},
		{
			"inputs": [
				{
					"internalType": "address",
					"name": "sender",
					"type": "address"
				},
				{
					"internalType": "address",
					"name": "recipient",
					"type": "address"
				},
				{
					"internalType": "uint256",
					"name": "amount",
					"type": "uint256"
				}
			],
			"name": "transferFrom",
			"outputs": [
				{
					"internalType": "bool",
					"name": "",
					"type": "bool"
				}
			],
			"stateMutability": "nonpayable",
			"type": "function"
		},
		{
			"inputs": [],
			"name": "withdrawStuckETH",
			"outputs": [],
			"stateMutability": "nonpayable",
			"type": "function"
		},
		{
			"inputs": [
				{
					"internalType": "address",
					"name": "to",
					"type": "address"
				},
				{
					"internalType": "uint256",
					"name": "amount",
					"type": "uint256"
				}
			],
			"name": "withdrawTokens",
			"outputs": [],
			"stateMutability": "nonpayable",
			"type": "function"
		},
		{
			"stateMutability": "payable",
			"type": "receive"
		}
	]
}