{
	"data": {
		"bytecode": {
			"linkReferences": {},
			"object": "6080604052601480546001600160a01b03191690556019601581905560276016556005601781905560185560238155601a555f601b819055601c55620000486009600a62000432565b6200005890633b9aca0062000449565b601d55620000696009600a62000432565b62000078906298968062000449565b601e55620000896009600a62000432565b62000099906301312d0062000449565b601f55620000aa6009600a62000432565b620000b990620f424062000449565b602055620000ca6009600a62000432565b620000d9906298968062000449565b6021556127106022556127106023556127106024556127106025556003600962000104919062000463565b6200011190600a62000432565b6200011e90600262000449565b6026555f602755620001336003600962000463565b6200014090600a62000432565b6200014d90600262000449565b6028555f602955602b805462ffffff60a81b1916600160b81b17905534801562000175575f80fd5b505f80546001600160a01b031916339081178255604051909182917f8be0079c531659141344cd1fd0a4f28419497f9722a3daafe3b4186f6b6457e0908290a35033601280546001600160a01b03929092166001600160a01b031992831617905560138054821673d53c9795a9daf24fbcab45cf2df0d37145f7e0e0179055601180548216736f1f797f35ef003c3b89257971a80208c61f797617905560108054909116737034990879d4e4c0f9dade892ad641bc45dedbbf179055601d54305f9081526001602081905260408220929092556003906200025d5f546001600160a01b031690565b6001600160a01b03908116825260208083019390935260409182015f908120805495151560ff19968716179055308082526003855283822080548716600190811790915560135484168352848320805488168217905560115484168352848320805488168217905560105490931682528382208054909616831790955584815292528082205490517fddf252ad1be2c89b69c2b068fc378daa952ba7f163c4a11628f55a4df523b3ef91620003159190815260200190565b60405180910390a36200047f565b634e487b7160e01b5f52601160045260245ffd5b600181815b808511156200037757815f19048211156200035b576200035b62000323565b808516156200036957918102915b93841c93908002906200033c565b509250929050565b5f826200038f575060016200042c565b816200039d57505f6200042c565b8160018114620003b65760028114620003c157620003e1565b60019150506200042c565b60ff841115620003d557620003d562000323565b50506001821b6200042c565b5060208310610133831016604e8410600b841016171562000406575081810a6200042c565b62000412838362000337565b805f190482111562000428576200042862000323565b0290505b92915050565b5f6200044260ff8416836200037f565b9392505050565b80820281158282048414176200042c576200042c62000323565b60ff82811682821603908111156200042c576200042c62000323565b613b60806200048d5f395ff3fe608060405260043610610394575f3560e01c8063751039fc116101de578063bf474bed11610108578063eb429bf81161009d578063f3a395fc1161006d578063f3a395fc14610b21578063f429389014610b4f578063f5648a4f14610b63578063f7685a0214610b77575f80fd5b8063eb429bf814610aa1578063eb77dbb114610acc578063f2a6227f14610ae1578063f2b4c32514610b0c575f80fd5b8063c9567bf9116100d8578063c9567bf9146109ff578063ce9dc80514610a13578063d677d03e14610a32578063dd62ed3e14610a5d575f80fd5b8063bf474bed14610971578063c1ae5e7214610986578063c232ae4d146109b4578063c876d0b9146109df575f80fd5b80639d3913001161017e578063abb284e91161014e578063abb284e9146108e9578063af95d4d314610908578063bbab0ff114610927578063be68e02714610946575f80fd5b80639d39130014610884578063a1780c1814610897578063a233900f146108ab578063a9059cbb146108ca575f80fd5b80638da5cb5b116101b95780638da5cb5b146108085780638f9a55c0146108245780638fbd8f271461083957806395d89b4114610858575f80fd5b8063751039fc146107c05780637d1db4a5146107d457806381cd58e5146107e9575f80fd5b8063298a8328116102bf57806352d3c14e1161025f5780636a4d84f91161022f5780636a4d84f91461072b5780636e2ed3c41461074a57806370a0823114610778578063715018a6146107ac575f80fd5b806352d3c14e1461068f57806354ca45d8146106ba578063580a155a146106e857806366b6090f14610716575f80fd5b8063313ce5671161029a578063313ce5671461060857806337e294d5146106235780633b32edd41461064257806351a2f68714610670575f80fd5b8063298a8328146105b25780632ace2af5146105c75780632d4bbb05146105f5575f80fd5b80630db6dff71161033557806319dde7b71161030557806319dde7b71461055457806321e09b341461056957806323b872dd1461057e57806324aede521461059d575f80fd5b80630db6dff7146104d55780630faee56f146104f457806311a63e171461050957806318160ddd14610540575f80fd5b806306fdde031161037057806306fdde0314610422578063095ea7b31461045e57806309eadbf51461047d5780630d2d697a1461049c575f80fd5b80628b81851461039f578063039aa9cf146103c057806306b091f914610403575f80fd5b3661039b57005b5f80fd5b3480156103aa575f80fd5b506103be6103b93660046133f8565b610b8c565b005b3480156103cb575f80fd5b506103ee6103da366004613418565b60066020525f908152604090205460ff1681565b60405190151581526020015b60405180910390f35b34801561040e575f80fd5b506103be61041d366004613443565b610bcf565b34801561042d575f80fd5b5060408051808201909152600b81526a48756e67657247616d657360a81b60208201525b6040516103fa91906134ba565b348015610469575f80fd5b506103ee610478366004613443565b610c6e565b348015610488575f80fd5b506103be6104973660046133f8565b610c84565b3480156104a7575f80fd5b506104c76104b63660046134cc565b60096020525f908152604090205481565b6040519081526020016103fa565b3480156104e0575f80fd5b506103be6104ef3660046134cc565b610da7565b3480156104ff575f80fd5b506104c760215481565b348015610514575f80fd5b50601254610528906001600160a01b031681565b6040516001600160a01b0390911681526020016103fa565b34801561054b575f80fd5b50601d546104c7565b34801561055f575f80fd5b506104c760225481565b348015610574575f80fd5b506104c760295481565b348015610589575f80fd5b506103ee6105983660046134e7565b610df2565b3480156105a8575f80fd5b506104c760265481565b3480156105bd575f80fd5b506104c760285481565b3480156105d2575f80fd5b506103ee6105e1366004613418565b5f9081526004602052604090205460ff1690565b6103be6106033660046133f8565b610e59565b348015610613575f80fd5b50604051600981526020016103fa565b34801561062e575f80fd5b50601154610528906001600160a01b031681565b34801561064d575f80fd5b506103ee61065c366004613418565b5f9081526006602052604090205460ff1690565b34801561067b575f80fd5b50601054610528906001600160a01b031681565b34801561069a575f80fd5b506104c76106a93660046134cc565b600b6020525f908152604090205481565b3480156106c5575f80fd5b506103ee6106d4366004613418565b60076020525f908152604090205460ff1681565b3480156106f3575f80fd5b506103ee610702366004613418565b60056020525f908152604090205460ff1681565b348015610721575f80fd5b506104c760255481565b348015610736575f80fd5b506103be6107453660046133f8565b610ffd565b348015610755575f80fd5b506103ee610764366004613418565b5f9081526007602052604090205460ff1690565b348015610783575f80fd5b506104c76107923660046134cc565b6001600160a01b03165f9081526001602052604090205490565b3480156107b7575f80fd5b506103be611040565b3480156107cb575f80fd5b506103be6110b1565b3480156107df575f80fd5b506104c7601e5481565b3480156107f4575f80fd5b506103be6108033660046135d6565b6110e4565b348015610813575f80fd5b505f546001600160a01b0316610528565b34801561082f575f80fd5b506104c7601f5481565b348015610844575f80fd5b506103be6108533660046133f8565b6118a9565b348015610863575f80fd5b5060408051808201909152600481526348474d5360e01b6020820152610451565b6103be6108923660046136ab565b6118ec565b3480156108a2575f80fd5b506103be611a97565b3480156108b6575f80fd5b506103be6108c53660046136e1565b611ae4565b3480156108d5575f80fd5b506103ee6108e4366004613443565b61213b565b3480156108f4575f80fd5b506103be6109033660046133f8565b612147565b348015610913575f80fd5b506103be610922366004613443565b61218a565b348015610932575f80fd5b50601354610528906001600160a01b031681565b348015610951575f80fd5b506104c76109603660046134cc565b600a6020525f908152604090205481565b34801561097c575f80fd5b506104c760205481565b348015610991575f80fd5b506103ee6109a0366004613418565b5f9081526005602052604090205460ff1690565b3480156109bf575f80fd5b506104c76109ce3660046134cc565b600d6020525f908152604090205481565b3480156109ea575f80fd5b50602b546103ee90600160b81b900460ff1681565b348015610a0a575f80fd5b506103be61221d565b348015610a1e575f80fd5b50601454610528906001600160a01b031681565b348015610a3d575f80fd5b506104c7610a4c3660046134cc565b600c6020525f908152604090205481565b348015610a68575f80fd5b506104c7610a77366004613726565b6001600160a01b039182165f90815260026020908152604080832093909416825291909152205490565b348015610aac575f80fd5b506104c7610abb366004613418565b600f6020525f908152604090205481565b348015610ad7575f80fd5b506104c760245481565b348015610aec575f80fd5b506104c7610afb3660046134cc565b600e6020525f908152604090205481565b348015610b17575f80fd5b506104c760275481565b348015610b2c575f80fd5b506103ee610b3b366004613418565b60046020525f908152604090205460ff1681565b348015610b5a575f80fd5b506103be6125d7565b348015610b6e575f80fd5b506103be612613565b348015610b82575f80fd5b506104c760235481565b6010546001600160a01b03163314610ba2575f80fd5b6025829055610bb360036009613771565b610bbe90600a61386a565b610bc89082613878565b6029555050565b5f546001600160a01b03163314610c015760405162461bcd60e51b8152600401610bf89061388f565b60405180910390fd5b305f90815260016020526040902054811115610c5f5760405162461bcd60e51b815260206004820152601d60248201527f4e6f7420656e6f75676820746f6b656e7320696e20636f6e74726163740000006044820152606401610bf8565b610c6a30838361265f565b5050565b5f610c7a338484612c42565b5060015b92915050565b6014546001600160a01b03163314610cf25760405162461bcd60e51b815260206004820152602b60248201527f4f6e6c792074686520626174746c6520636f6e74726163742063616e2072656d60448201526a6f766520706f74696f6e7360a81b6064820152608401610bf8565b5f828152600460208181526040808420805460ff19908116909155600580845282862080548316905560068085528387208054841690556007808652848820805485169055888852958552838720805484169055908452828620805483169055835281852080548216905592825292839020805490921690915581518481529081018390527f16552dc0eeaa5453189ca1b57f62bf76590b234053b60bd7120b6a49977d637f91015b60405180910390a15050565b5f546001600160a01b03163314610dd05760405162461bcd60e51b8152600401610bf89061388f565b601480546001600160a01b0319166001600160a01b0392909216919091179055565b5f610dfe84848461265f565b610e4f8433610e4a85604051806060016040528060288152602001613b03602891396001600160a01b038a165f9081526002602090815260408083203384529091529020549190612d65565b612c42565b5060019392505050565b5f821180610e6657505f81115b610eb25760405162461bcd60e51b815260206004820152601f60248201527f416d6f756e742073686f756c642062652067726561746572207468616e2030006044820152606401610bf8565b610ebe6009600a61386a565b610ec89082613878565b341015610f135760405162461bcd60e51b8152602060048201526019602482015278125b98dbdc9c9958dd0811551208185b5bdd5b9d081cd95b9d603a1b6044820152606401610bf8565b8115610f9e57335f90815260016020526040902054821115610f705760405162461bcd60e51b81526020600482015260166024820152754e6f7420656e6f7567682048474d5320746f6b656e7360501b6044820152606401610bf8565b610f7a3383612d9d565b335f9081526009602052604081208054849290610f989084906138c4565b90915550505b8015610fd157335f908152600a602052604081208054839290610fc29084906138c4565b90915550610fd1905034612f18565b6040517fed21248cb703b524cc0029bb8669df941baca560163a3bc6ad184e7e9c268070905f90a15050565b6010546001600160a01b03163314611013575f80fd5b602382905561102460036009613771565b61102f90600a61386a565b6110399082613878565b6027555050565b5f546001600160a01b031633146110695760405162461bcd60e51b8152600401610bf89061388f565b5f80546040516001600160a01b03909116907f8be0079c531659141344cd1fd0a4f28419497f9722a3daafe3b4186f6b6457e0908390a35f80546001600160a01b0319169055565b5f546001600160a01b031633146110da5760405162461bcd60e51b8152600401610bf89061388f565b6110e261306b565b565b6010546001600160a01b031633146110fa575f80fd5b604051635854524160e01b6020820152602401604051602081830303815290604052805190602001208160405160200161113491906138d7565b60405160208183030381529060405280519060200120036112db5781516001600160a01b0384165f908152600b602052604090205410156111875760405162461bcd60e51b8152600401610bf8906138f2565b5f5b82518110156112d55760045f8483815181106111a7576111a7613936565b60209081029190910181015182528101919091526040015f205460ff16156112075760405162461bcd60e51b8152602060048201526013602482015272416c726561647920616374697665205854524160681b6044820152606401610bf8565b600160045f85848151811061121e5761121e613936565b602002602001015181526020019081526020015f205f6101000a81548160ff0219169083151502179055506001600b5f866001600160a01b03166001600160a01b031681526020019081526020015f205f82825461127c919061394a565b925050819055506001600f5f85848151811061129a5761129a613936565b602002602001015181526020019081526020015f205f8282546112bd91906138c4565b909155508190506112cd8161395d565b915050611189565b50505050565b604051641093d3d4d560da1b6020820152602501604051602081830303815290604052805190602001208160405160200161131691906138d7565b60405160208183030381529060405280519060200120036114b85781516001600160a01b0384165f908152600c602052604090205410156113695760405162461bcd60e51b8152600401610bf8906138f2565b5f5b82518110156112d55760065f84838151811061138957611389613936565b60209081029190910181015182528101919091526040015f205460ff16156113ea5760405162461bcd60e51b8152602060048201526014602482015273105b1c9958591e481858dd1a5d99481093d3d4d560621b6044820152606401610bf8565b600160065f85848151811061140157611401613936565b602002602001015181526020019081526020015f205f6101000a81548160ff0219169083151502179055506001600c5f866001600160a01b03166001600160a01b031681526020019081526020015f205f82825461145f919061394a565b925050819055506001600f5f85848151811061147d5761147d613936565b602002602001015181526020019081526020015f205f8282546114a091906138c4565b909155508190506114b08161395d565b91505061136b565b604051602b60f91b602082015260210160405160208183030381529060405280519060200120816040516020016114ef91906138d7565b604051602081830303815290604052805190602001200361168d5781516001600160a01b0384165f908152600d602052604090205410156115425760405162461bcd60e51b8152600401610bf8906138f2565b5f5b82518110156112d55760055f84838151811061156257611562613936565b60209081029190910181015182528101919091526040015f205460ff16156115bf5760405162461bcd60e51b815260206004820152601060248201526f20b63932b0b23c9030b1ba34bb32902b60811b6044820152606401610bf8565b600160055f8584815181106115d6576115d6613936565b602002602001015181526020019081526020015f205f6101000a81548160ff0219169083151502179055506001600d5f866001600160a01b03166001600160a01b031681526020019081526020015f205f828254611634919061394a565b925050819055506001600f5f85848151811061165257611652613936565b602002602001015181526020019081526020015f205f82825461167591906138c4565b909155508190506116858161395d565b915050611544565b604051630534b49560e41b602082015260240160405160208183030381529060405280519060200120816040516020016116c791906138d7565b60405160208183030381529060405280519060200120036118685781516001600160a01b0384165f908152600e6020526040902054101561171a5760405162461bcd60e51b8152600401610bf8906138f2565b5f5b82518110156112d55760075f84838151811061173a5761173a613936565b60209081029190910181015182528101919091526040015f205460ff161561179a5760405162461bcd60e51b81526020600482015260136024820152720416c72656164792061637469766520534b495606c1b6044820152606401610bf8565b600160075f8584815181106117b1576117b1613936565b602002602001015181526020019081526020015f205f6101000a81548160ff0219169083151502179055506001600e5f866001600160a01b03166001600160a01b031681526020019081526020015f205f82825461180f919061394a565b925050819055506001600f5f85848151811061182d5761182d613936565b602002602001015181526020019081526020015f205f82825461185091906138c4565b909155508190506118608161395d565b91505061171c565b60405162461bcd60e51b815260206004820152601160248201527057726f6e6720506f74696f6e204e616d6560781b6044820152606401610bf8565b505050565b6010546001600160a01b031633146118bf575f80fd5b60228290556118d060036009613771565b6118db90600a61386a565b6118e59082613878565b6026555050565b5f8311806118f957505f82115b6119455760405162461bcd60e51b815260206004820152601f60248201527f416d6f756e742073686f756c642062652067726561746572207468616e2030006044820152606401610bf8565b813410156119915760405162461bcd60e51b8152602060048201526019602482015278125b98dbdc9c9958dd0811551208185b5bdd5b9d081cd95b9d603a1b6044820152606401610bf8565b8215611a2e576001600160a01b0381165f908152600160205260409020548311156119f75760405162461bcd60e51b81526020600482015260166024820152754e6f7420656e6f7567682048474d5320746f6b656e7360501b6044820152606401610bf8565b611a018184612d9d565b6001600160a01b0381165f9081526009602052604081208054859290611a289084906138c4565b90915550505b8115611a6a576001600160a01b0381165f908152600a602052604081208054849290611a5b9084906138c4565b90915550611a6a905034612f18565b6040517fed21248cb703b524cc0029bb8669df941baca560163a3bc6ad184e7e9c268070905f90a1505050565b6012546001600160a01b0316336001600160a01b031614611ab6575f80fd5b305f908152600160205260409020548015611ad457611ad4816130e3565b478015610c6a57610c6a81612f18565b6010546001600160a01b03163314611afa575f80fd5b604051635854524160e01b60208201526024016040516020818303038152906040528051906020012083604051602001611b3491906138d7565b6040516020818303038152906040528051906020012003611cbb576022545f90611b5e9083613253565b90505f611b768360265461325390919063ffffffff16565b6001600160a01b0385165f90815260096020526040902054909150821115611bb05760405162461bcd60e51b8152600401610bf890613975565b6001600160a01b0384165f908152600a6020526040902054811115611be75760405162461bcd60e51b8152600401610bf8906139b6565b6001600160a01b0384165f9081526009602052604081208054849290611c0e90849061394a565b90915550506001600160a01b0384165f908152600a602052604081208054839290611c3a90849061394a565b90915550506001600160a01b0384165f908152600b602052604081208054859290611c669084906138c4565b90915550506040516001600160a01b0385169033907f3d57eec5ab68ae7c8f1ed6299a36d8e6f61253e0f24ac6aba38bc3fcbe7bc7ae90611cac908990869088906139eb565b60405180910390a35050505050565b604051641093d3d4d560da1b60208201526025016040516020818303038152906040528051906020012083604051602001611cf691906138d7565b6040516020818303038152906040528051906020012003611e28576023545f90611d209083613253565b90505f611d388360275461325390919063ffffffff16565b6001600160a01b0385165f90815260096020526040902054909150821115611d725760405162461bcd60e51b8152600401610bf890613975565b6001600160a01b0384165f908152600a6020526040902054811115611da95760405162461bcd60e51b8152600401610bf8906139b6565b6001600160a01b0384165f9081526009602052604081208054849290611dd090849061394a565b90915550506001600160a01b0384165f908152600a602052604081208054839290611dfc90849061394a565b90915550506001600160a01b0384165f908152600c602052604081208054859290611c669084906138c4565b604051602b60f91b60208201526021016040516020818303038152906040528051906020012083604051602001611e5f91906138d7565b6040516020818303038152906040528051906020012003611f91576024545f90611e899083613253565b90505f611ea18360285461325390919063ffffffff16565b6001600160a01b0385165f90815260096020526040902054909150821115611edb5760405162461bcd60e51b8152600401610bf890613975565b6001600160a01b0384165f908152600a6020526040902054811115611f125760405162461bcd60e51b8152600401610bf8906139b6565b6001600160a01b0384165f9081526009602052604081208054849290611f3990849061394a565b90915550506001600160a01b0384165f908152600a602052604081208054839290611f6590849061394a565b90915550506001600160a01b0384165f908152600d602052604081208054859290611c669084906138c4565b604051630534b49560e41b60208201526024016040516020818303038152906040528051906020012083604051602001611fcb91906138d7565b60405160208183030381529060405280519060200120036120fd576025545f90611ff59083613253565b90505f61200d8360295461325390919063ffffffff16565b6001600160a01b0385165f908152600960205260409020549091508211156120475760405162461bcd60e51b8152600401610bf890613975565b6001600160a01b0384165f908152600a602052604090205481111561207e5760405162461bcd60e51b8152600401610bf8906139b6565b6001600160a01b0384165f90815260096020526040812080548492906120a590849061394a565b90915550506001600160a01b0384165f908152600a6020526040812080548392906120d190849061394a565b90915550506001600160a01b0384165f908152600e602052604081208054859290611c669084906138c4565b60405162461bcd60e51b8152602060048201526013602482015272496e76616c696420506f74696f6e204e616d6560681b6044820152606401610bf8565b5f610c7a33848461265f565b6010546001600160a01b0316331461215d575f80fd5b602482905561216e60036009613771565b61217990600a61386a565b6121839082613878565b6028555050565b6014546001600160a01b031633146121d55760405162461bcd60e51b815260206004820152600e60248201526d139bdd08185d5d1a1bdc9a5e995960921b6044820152606401610bf8565b6001600160a01b0382166108fc6121f86121f16009600a61386a565b84906132d8565b6040518115909202915f818181858888f193505050501580156118a4573d5f803e3d5ffd5b5f546001600160a01b031633146122465760405162461bcd60e51b8152600401610bf89061388f565b602b54600160a01b900460ff16156122a05760405162461bcd60e51b815260206004820152601760248201527f74726164696e6720697320616c7265616479206f70656e0000000000000000006044820152606401610bf8565b602a80546001600160a01b031916737a250d5630b4cf539739df2c5dacb4c659f2488d908117909155601d546122d7913091612c42565b602a5f9054906101000a90046001600160a01b03166001600160a01b031663c45a01556040518163ffffffff1660e01b8152600401602060405180830381865afa158015612327573d5f803e3d5ffd5b505050506040513d601f19601f8201168201806040525081019061234b9190613a0f565b6001600160a01b031663c9c6539630602a5f9054906101000a90046001600160a01b03166001600160a01b031663ad5c46486040518163ffffffff1660e01b8152600401602060405180830381865afa1580156123aa573d5f803e3d5ffd5b505050506040513d601f19601f820116820180604052508101906123ce9190613a0f565b6040516001600160e01b031960e085901b1681526001600160a01b039283166004820152911660248201526044016020604051808303815f875af1158015612418573d5f803e3d5ffd5b505050506040513d601f19601f8201168201806040525081019061243c9190613a0f565b602b80546001600160a01b039283166001600160a01b0319909116179055602a541663f305d7194730612483816001600160a01b03165f9081526001602052604090205490565b5f806124965f546001600160a01b031690565b60405160e088901b6001600160e01b03191681526001600160a01b03958616600482015260248101949094526044840192909252606483015290911660848201524260a482015260c40160606040518083038185885af11580156124fc573d5f803e3d5ffd5b50505050506040513d601f19601f820116820180604052508101906125219190613a2a565b5050602b54602a5460405163095ea7b360e01b81526001600160a01b0391821660048201525f1960248201529116915063095ea7b3906044016020604051808303815f875af1158015612576573d5f803e3d5ffd5b505050506040513d601f19601f8201168201806040525081019061259a9190613a55565b50602b805462ff00ff60a01b19166201000160a01b179055601254305f818152600160205260409020546110e2926001600160a01b03169061265f565b5f546001600160a01b031633146126005760405162461bcd60e51b8152600401610bf89061388f565b4780156126105761261081612f18565b50565b6010546001600160a01b03163314612629575f80fd5b6012546040516001600160a01b03909116904780156108fc02915f818181858888f19350505050158015612610573d5f803e3d5ffd5b6001600160a01b0383166126c35760405162461bcd60e51b815260206004820152602560248201527f45524332303a207472616e736665722066726f6d20746865207a65726f206164604482015264647265737360d81b6064820152608401610bf8565b6001600160a01b0382166127255760405162461bcd60e51b815260206004820152602360248201527f45524332303a207472616e7366657220746f20746865207a65726f206164647260448201526265737360e81b6064820152608401610bf8565b5f81116127865760405162461bcd60e51b815260206004820152602960248201527f5472616e7366657220616d6f756e74206d7573742062652067726561746572206044820152687468616e207a65726f60b81b6064820152608401610bf8565b5f80546001600160a01b038581169116148015906127b157505f546001600160a01b03848116911614155b15612b05576127e260646127dc601954601c54116127d1576015546127d5565b6017545b8590613253565b906132d8565b602b54909150600160b81b900460ff16156128cf57602a546001600160a01b038481169116148015906128235750602b546001600160a01b03848116911614155b156128cf57325f9081526008602052604090205443116128bd5760405162461bcd60e51b815260206004820152604960248201527f5f7472616e736665723a3a205472616e736665722044656c617920656e61626c60448201527f65642e20204f6e6c79206f6e652070757263686173652070657220626c6f636b6064820152681030b63637bbb2b21760b91b608482015260a401610bf8565b325f9081526008602052604090204390555b602b546001600160a01b0385811691161480156128fa5750602a546001600160a01b03848116911614155b801561291e57506001600160a01b0383165f9081526003602052604090205460ff16155b15612a0457601e548211156129755760405162461bcd60e51b815260206004820152601960248201527f4578636565647320746865205f6d61785478416d6f756e742e000000000000006044820152606401610bf8565b601f5482612997856001600160a01b03165f9081526001602052604090205490565b6129a191906138c4565b11156129ef5760405162461bcd60e51b815260206004820152601a60248201527f4578636565647320746865206d617857616c6c657453697a652e0000000000006044820152606401610bf8565b601c8054905f6129fe8361395d565b91905055505b602b546001600160a01b038481169116148015612a2a57506001600160a01b0384163014155b15612a5757612a5460646127dc601a54601c5411612a4a576016546127d5565b6018548590613253565b90505b305f90815260016020526040902054602b54600160a81b900460ff16158015612a8d5750602b546001600160a01b038581169116145b8015612aa25750602b54600160b01b900460ff165b8015612aaf575060205481115b8015612abe5750601b54601c54115b15612b03575f479050612ae4612adf85612ada85602154613319565b613319565b6130e3565b5f612aef478361332d565b90508015612b0057612b0081612f18565b50505b505b8015612b7d57305f90815260016020526040902054612b24908261336e565b305f81815260016020526040908190209290925590516001600160a01b038616907fddf252ad1be2c89b69c2b068fc378daa952ba7f163c4a11628f55a4df523b3ef90612b749085815260200190565b60405180910390a35b6001600160a01b0384165f90815260016020526040902054612b9f908361332d565b6001600160a01b0385165f90815260016020526040902055612be2612bc4838361332d565b6001600160a01b0385165f908152600160205260409020549061336e565b6001600160a01b038085165f8181526001602052604090209290925585167fddf252ad1be2c89b69c2b068fc378daa952ba7f163c4a11628f55a4df523b3ef612c2b858561332d565b60405190815260200160405180910390a350505050565b6001600160a01b038316612ca45760405162461bcd60e51b8152602060048201526024808201527f45524332303a20617070726f76652066726f6d20746865207a65726f206164646044820152637265737360e01b6064820152608401610bf8565b6001600160a01b038216612d055760405162461bcd60e51b815260206004820152602260248201527f45524332303a20617070726f766520746f20746865207a65726f206164647265604482015261737360f01b6064820152608401610bf8565b6001600160a01b038381165f8181526002602090815260408083209487168084529482529182902085905590518481527f8c5be1e5ebec7d5bd14f71427d1e84f3dd0314c0f7b2291e5b200ac8c7c3b925910160405180910390a3505050565b5f8184841115612d885760405162461bcd60e51b8152600401610bf891906134ba565b505f612d94848661394a565b95945050505050565b6001600160a01b038216612dfd5760405162461bcd60e51b815260206004820152602160248201527f43616e6e6f74206275726e2066726f6d20746865207a65726f206164647265736044820152607360f81b6064820152608401610bf8565b612e096009600a61386a565b612e139082613878565b6001600160a01b0383165f90815260016020526040812080549293508392909190612e3f90849061394a565b9250508190555080601d5f828254612e57919061394a565b9091555050601d54601e819055601f556040518181526001600160a01b038316907fcc16f5dbb4873280815c1ee09dbd06736cffcc184412cf7a71a0fdb75d397ca59060200160405180910390a26040518181525f906001600160a01b038416907fddf252ad1be2c89b69c2b068fc378daa952ba7f163c4a11628f55a4df523b3ef9060200160405180910390a37f947f344d56e1e8c70dc492fb94c4ddddd490c016aab685f5e7e47b2e85cb44cf601d54604051610d9b91815260200190565b5f8111612f675760405162461bcd60e51b815260206004820181905260248201527f416d6f756e74206d7573742062652067726561746572207468616e207a65726f6044820152606401610bf8565b80471015612fb75760405162461bcd60e51b815260206004820152601d60248201527f496e73756666696369656e7420636f6e74726163742062616c616e63650000006044820152606401610bf8565b5f612fc38260056132d8565b6013546040519192506001600160a01b03169082156108fc029083905f818181858888f19350505050158015612ffb573d5f803e3d5ffd5b506012546040516001600160a01b039091169082156108fc029083905f818181858888f19350505050158015613033573d5f803e3d5ffd5b506010546040516001600160a01b039091169082156108fc029083905f818181858888f193505050501580156118a4573d5f803e3d5ffd5b5f546001600160a01b031633146130945760405162461bcd60e51b8152600401610bf89061388f565b601d54601e819055601f819055602b805460ff60b81b191690556040519081527f947f344d56e1e8c70dc492fb94c4ddddd490c016aab685f5e7e47b2e85cb44cf9060200160405180910390a1565b602b805460ff60a81b1916600160a81b1790556040805160028082526060820183525f9260208301908036833701905050905030815f8151811061312957613129613936565b6001600160a01b03928316602091820292909201810191909152602a54604080516315ab88c960e31b81529051919093169263ad5c46489260048083019391928290030181865afa158015613180573d5f803e3d5ffd5b505050506040513d601f19601f820116820180604052508101906131a49190613a0f565b816001815181106131b7576131b7613936565b6001600160a01b039283166020918202929092010152602a546131dd9130911684612c42565b602a5460405163791ac94760e01b81526001600160a01b039091169063791ac947906132159085905f90869030904290600401613a74565b5f604051808303815f87803b15801561322c575f80fd5b505af115801561323e573d5f803e3d5ffd5b5050602b805460ff60a81b1916905550505050565b5f825f0361326257505f610c7e565b5f61326d8385613878565b90508261327a8583613ae3565b146132d15760405162461bcd60e51b815260206004820152602160248201527f536166654d6174683a206d756c7469706c69636174696f6e206f766572666c6f6044820152607760f81b6064820152608401610bf8565b9392505050565b5f6132d183836040518060400160405280601a81526020017f536166654d6174683a206469766973696f6e206279207a65726f0000000000008152506133cc565b5f81831161332757826132d1565b50919050565b5f6132d183836040518060400160405280601e81526020017f536166654d6174683a207375627472616374696f6e206f766572666c6f770000815250612d65565b5f8061337a83856138c4565b9050838110156132d15760405162461bcd60e51b815260206004820152601b60248201527f536166654d6174683a206164646974696f6e206f766572666c6f7700000000006044820152606401610bf8565b5f81836133ec5760405162461bcd60e51b8152600401610bf891906134ba565b505f612d948486613ae3565b5f8060408385031215613409575f80fd5b50508035926020909101359150565b5f60208284031215613428575f80fd5b5035919050565b6001600160a01b0381168114612610575f80fd5b5f8060408385031215613454575f80fd5b823561345f8161342f565b946020939093013593505050565b5f5b8381101561348757818101518382015260200161346f565b50505f910152565b5f81518084526134a681602086016020860161346d565b601f01601f19169290920160200192915050565b602081525f6132d1602083018461348f565b5f602082840312156134dc575f80fd5b81356132d18161342f565b5f805f606084860312156134f9575f80fd5b83356135048161342f565b925060208401356135148161342f565b929592945050506040919091013590565b634e487b7160e01b5f52604160045260245ffd5b604051601f8201601f1916810167ffffffffffffffff8111828210171561356257613562613525565b604052919050565b5f82601f830112613579575f80fd5b813567ffffffffffffffff81111561359357613593613525565b6135a6601f8201601f1916602001613539565b8181528460208386010111156135ba575f80fd5b816020850160208301375f918101602001919091529392505050565b5f805f606084860312156135e8575f80fd5b83356135f38161342f565b925060208481013567ffffffffffffffff80821115613610575f80fd5b818701915087601f830112613623575f80fd5b81358181111561363557613635613525565b8060051b613644858201613539565b918252838101850191858101908b84111561365d575f80fd5b948601945b8386101561367b57853582529486019490860190613662565b97505050506040870135925080831115613693575f80fd5b50506136a18682870161356a565b9150509250925092565b5f805f606084860312156136bd575f80fd5b833592506020840135915060408401356136d68161342f565b809150509250925092565b5f805f606084860312156136f3575f80fd5b833567ffffffffffffffff811115613709575f80fd5b6137158682870161356a565b93505060208401356135148161342f565b5f8060408385031215613737575f80fd5b82356137428161342f565b915060208301356137528161342f565b809150509250929050565b634e487b7160e01b5f52601160045260245ffd5b60ff8281168282160390811115610c7e57610c7e61375d565b600181815b808511156137c457815f19048211156137aa576137aa61375d565b808516156137b757918102915b93841c939080029061378f565b509250929050565b5f826137da57506001610c7e565b816137e657505f610c7e565b81600181146137fc576002811461380657613822565b6001915050610c7e565b60ff8411156138175761381761375d565b50506001821b610c7e565b5060208310610133831016604e8410600b8410161715613845575081810a610c7e565b61384f838361378a565b805f19048211156138625761386261375d565b029392505050565b5f6132d160ff8416836137cc565b8082028115828204841417610c7e57610c7e61375d565b6020808252818101527f4f776e61626c653a2063616c6c6572206973206e6f7420746865206f776e6572604082015260600190565b80820180821115610c7e57610c7e61375d565b5f82516138e881846020870161346d565b9190910192915050565b60208082526024908201527f42616c616e636520646f6573206e6f74206861766520656e6f75676820506f74604082015263696f6e7360e01b606082015260800190565b634e487b7160e01b5f52603260045260245ffd5b81810381811115610c7e57610c7e61375d565b5f6001820161396e5761396e61375d565b5060010190565b60208082526021908201527f42616c616e636520646f6573206e6f74206861766520656e6f7567682048474d6040820152605360f81b606082015260800190565b6020808252818101527f42616c616e636520646f6573206e6f74206861766520656e6f75676820455448604082015260600190565b606081525f6139fd606083018661348f565b60208301949094525060400152919050565b5f60208284031215613a1f575f80fd5b81516132d18161342f565b5f805f60608486031215613a3c575f80fd5b8351925060208401519150604084015190509250925092565b5f60208284031215613a65575f80fd5b815180151581146132d1575f80fd5b5f60a082018783526020878185015260a0604085015281875180845260c08601915082890193505f5b81811015613ac25784516001600160a01b031683529383019391830191600101613a9d565b50506001600160a01b03969096166060850152505050608001529392505050565b5f82613afd57634e487b7160e01b5f52601260045260245ffd5b50049056fe45524332303a207472616e7366657220616d6f756e74206578636565647320616c6c6f77616e6365a2646970667358221220d4de87ccd7f8ab8b4ff33a9d9a5b2c827dfdb3241ee4b74ff5dc9b865cf7ebe464736f6c63430008150033",
			"opcodes": "PUSH1 0x80 PUSH1 0x40 MSTORE PUSH1 0x14 DUP1 SLOAD PUSH1 0x1 PUSH1 0x1 PUSH1 0xA0 SHL SUB NOT AND SWAP1 SSTORE PUSH1 0x19 PUSH1 0x15 DUP2 SWAP1 SSTORE PUSH1 0x27 PUSH1 0x16 SSTORE PUSH1 0x5 PUSH1 0x17 DUP2 SWAP1 SSTORE PUSH1 0x18 SSTORE PUSH1 0x23 DUP2 SSTORE PUSH1 0x1A SSTORE PUSH0 PUSH1 0x1B DUP2 SWAP1 SSTORE PUSH1 0x1C SSTORE PUSH3 0x48 PUSH1 0x9 PUSH1 0xA PUSH3 0x432 JUMP JUMPDEST PUSH3 0x58 SWAP1 PUSH4 0x3B9ACA00 PUSH3 0x449 JUMP JUMPDEST PUSH1 0x1D SSTORE PUSH3 0x69 PUSH1 0x9 PUSH1 0xA PUSH3 0x432 JUMP JUMPDEST PUSH3 0x78 SWAP1 PUSH3 0x989680 PUSH3 0x449 JUMP JUMPDEST PUSH1 0x1E SSTORE PUSH3 0x89 PUSH1 0x9 PUSH1 0xA PUSH3 0x432 JUMP JUMPDEST PUSH3 0x99 SWAP1 PUSH4 0x1312D00 PUSH3 0x449 JUMP JUMPDEST PUSH1 0x1F SSTORE PUSH3 0xAA PUSH1 0x9 PUSH1 0xA PUSH3 0x432 JUMP JUMPDEST PUSH3 0xB9 SWAP1 PUSH3 0xF4240 PUSH3 0x449 JUMP JUMPDEST PUSH1 0x20 SSTORE PUSH3 0xCA PUSH1 0x9 PUSH1 0xA PUSH3 0x432 JUMP JUMPDEST PUSH3 0xD9 SWAP1 PUSH3 0x989680 PUSH3 0x449 JUMP JUMPDEST PUSH1 0x21 SSTORE PUSH2 0x2710 PUSH1 0x22 SSTORE PUSH2 0x2710 PUSH1 0x23 SSTORE PUSH2 0x2710 PUSH1 0x24 SSTORE PUSH2 0x2710 PUSH1 0x25 SSTORE PUSH1 0x3 PUSH1 0x9 PUSH3 0x104 SWAP2 SWAP1 PUSH3 0x463 JUMP JUMPDEST PUSH3 0x111 SWAP1 PUSH1 0xA PUSH3 0x432 JUMP JUMPDEST PUSH3 0x11E SWAP1 PUSH1 0x2 PUSH3 0x449 JUMP JUMPDEST PUSH1 0x26 SSTORE PUSH0 PUSH1 0x27 SSTORE PUSH3 0x133 PUSH1 0x3 PUSH1 0x9 PUSH3 0x463 JUMP JUMPDEST PUSH3 0x140 SWAP1 PUSH1 0xA PUSH3 0x432 JUMP JUMPDEST PUSH3 0x14D SWAP1 PUSH1 0x2 PUSH3 0x449 JUMP JUMPDEST PUSH1 0x28 SSTORE PUSH0 PUSH1 0x29 SSTORE PUSH1 0x2B DUP1 SLOAD PUSH3 0xFFFFFF PUSH1 0xA8 SHL NOT AND PUSH1 0x1 PUSH1 0xB8 SHL OR SWAP1 SSTORE CALLVALUE DUP1 ISZERO PUSH3 0x175 JUMPI PUSH0 DUP1 REVERT JUMPDEST POP PUSH0 DUP1 SLOAD PUSH1 0x1 PUSH1 0x1 PUSH1 0xA0 SHL SUB NOT AND CALLER SWAP1 DUP2 OR DUP3 SSTORE PUSH1 0x40 MLOAD SWAP1 SWAP2 DUP3 SWAP2 PUSH32 0x8BE0079C531659141344CD1FD0A4F28419497F9722A3DAAFE3B4186F6B6457E0 SWAP1 DUP3 SWAP1 LOG3 POP CALLER PUSH1 0x12 DUP1 SLOAD PUSH1 0x1 PUSH1 0x1 PUSH1 0xA0 SHL SUB SWAP3 SWAP1 SWAP3 AND PUSH1 0x1 PUSH1 0x1 PUSH1 0xA0 SHL SUB NOT SWAP3 DUP4 AND OR SWAP1 SSTORE PUSH1 0x13 DUP1 SLOAD DUP3 AND PUSH20 0xD53C9795A9DAF24FBCAB45CF2DF0D37145F7E0E0 OR SWAP1 SSTORE PUSH1 0x11 DUP1 SLOAD DUP3 AND PUSH20 0x6F1F797F35EF003C3B89257971A80208C61F7976 OR SWAP1 SSTORE PUSH1 0x10 DUP1 SLOAD SWAP1 SWAP2 AND PUSH20 0x7034990879D4E4C0F9DADE892AD641BC45DEDBBF OR SWAP1 SSTORE PUSH1 0x1D SLOAD ADDRESS PUSH0 SWAP1 DUP2 MSTORE PUSH1 0x1 PUSH1 0x20 DUP2 SWAP1 MSTORE PUSH1 0x40 DUP3 KECCAK256 SWAP3 SWAP1 SWAP3 SSTORE PUSH1 0x3 SWAP1 PUSH3 0x25D PUSH0 SLOAD PUSH1 0x1 PUSH1 0x1 PUSH1 0xA0 SHL SUB AND SWAP1 JUMP JUMPDEST PUSH1 0x1 PUSH1 0x1 PUSH1 0xA0 SHL SUB SWAP1 DUP2 AND DUP3 MSTORE PUSH1 0x20 DUP1 DUP4 ADD SWAP4 SWAP1 SWAP4 MSTORE PUSH1 0x40 SWAP2 DUP3 ADD PUSH0 SWAP1 DUP2 KECCAK256 DUP1 SLOAD SWAP6 ISZERO ISZERO PUSH1 0xFF NOT SWAP7 DUP8 AND OR SWAP1 SSTORE ADDRESS DUP1 DUP3 MSTORE PUSH1 0x3 DUP6 MSTORE DUP4 DUP3 KECCAK256 DUP1 SLOAD DUP8 AND PUSH1 0x1 SWAP1 DUP2 OR SWAP1 SWAP2 SSTORE PUSH1 0x13 SLOAD DUP5 AND DUP4 MSTORE DUP5 DUP4 KECCAK256 DUP1 SLOAD DUP9 AND DUP3 OR SWAP1 SSTORE PUSH1 0x11 SLOAD DUP5 AND DUP4 MSTORE DUP5 DUP4 KECCAK256 DUP1 SLOAD DUP9 AND DUP3 OR SWAP1 SSTORE PUSH1 0x10 SLOAD SWAP1 SWAP4 AND DUP3 MSTORE DUP4 DUP3 KECCAK256 DUP1 SLOAD SWAP1 SWAP7 AND DUP4 OR SWAP1 SWAP6 SSTORE DUP5 DUP2 MSTORE SWAP3 MSTORE DUP1 DUP3 KECCAK256 SLOAD SWAP1 MLOAD PUSH32 0xDDF252AD1BE2C89B69C2B068FC378DAA952BA7F163C4A11628F55A4DF523B3EF SWAP2 PUSH3 0x315 SWAP2 SWAP1 DUP2 MSTORE PUSH1 0x20 ADD SWAP1 JUMP JUMPDEST PUSH1 0x40 MLOAD DUP1 SWAP2 SUB SWAP1 LOG3 PUSH3 0x47F JUMP JUMPDEST PUSH4 0x4E487B71 PUSH1 0xE0 SHL PUSH0 MSTORE PUSH1 0x11 PUSH1 0x4 MSTORE PUSH1 0x24 PUSH0 REVERT JUMPDEST PUSH1 0x1 DUP2 DUP2 JUMPDEST DUP1 DUP6 GT ISZERO PUSH3 0x377 JUMPI DUP2 PUSH0 NOT DIV DUP3 GT ISZERO PUSH3 0x35B JUMPI PUSH3 0x35B PUSH3 0x323 JUMP JUMPDEST DUP1 DUP6 AND ISZERO PUSH3 0x369 JUMPI SWAP2 DUP2 MUL SWAP2 JUMPDEST SWAP4 DUP5 SHR SWAP4 SWAP1 DUP1 MUL SWAP1 PUSH3 0x33C JUMP JUMPDEST POP SWAP3 POP SWAP3 SWAP1 POP JUMP JUMPDEST PUSH0 DUP3 PUSH3 0x38F JUMPI POP PUSH1 0x1 PUSH3 0x42C JUMP JUMPDEST DUP2 PUSH3 0x39D JUMPI POP PUSH0 PUSH3 0x42C JUMP JUMPDEST DUP2 PUSH1 0x1 DUP2 EQ PUSH3 0x3B6 JUMPI PUSH1 0x2 DUP2 EQ PUSH3 0x3C1 JUMPI PUSH3 0x3E1 JUMP JUMPDEST PUSH1 0x1 SWAP2 POP POP PUSH3 0x42C JUMP JUMPDEST PUSH1 0xFF DUP5 GT ISZERO PUSH3 0x3D5 JUMPI PUSH3 0x3D5 PUSH3 0x323 JUMP JUMPDEST POP POP PUSH1 0x1 DUP3 SHL PUSH3 0x42C JUMP JUMPDEST POP PUSH1 0x20 DUP4 LT PUSH2 0x133 DUP4 LT AND PUSH1 0x4E DUP5 LT PUSH1 0xB DUP5 LT AND OR ISZERO PUSH3 0x406 JUMPI POP DUP2 DUP2 EXP PUSH3 0x42C JUMP JUMPDEST PUSH3 0x412 DUP4 DUP4 PUSH3 0x337 JUMP JUMPDEST DUP1 PUSH0 NOT DIV DUP3 GT ISZERO PUSH3 0x428 JUMPI PUSH3 0x428 PUSH3 0x323 JUMP JUMPDEST MUL SWAP1 POP JUMPDEST SWAP3 SWAP2 POP POP JUMP JUMPDEST PUSH0 PUSH3 0x442 PUSH1 0xFF DUP5 AND DUP4 PUSH3 0x37F JUMP JUMPDEST SWAP4 SWAP3 POP POP POP JUMP JUMPDEST DUP1 DUP3 MUL DUP2 ISZERO DUP3 DUP3 DIV DUP5 EQ OR PUSH3 0x42C JUMPI PUSH3 0x42C PUSH3 0x323 JUMP JUMPDEST PUSH1 0xFF DUP3 DUP2 AND DUP3 DUP3 AND SUB SWAP1 DUP2 GT ISZERO PUSH3 0x42C JUMPI PUSH3 0x42C PUSH3 0x323 JUMP JUMPDEST PUSH2 0x3B60 DUP1 PUSH3 0x48D PUSH0 CODECOPY PUSH0 RETURN INVALID PUSH1 0x80 PUSH1 0x40 MSTORE PUSH1 0x4 CALLDATASIZE LT PUSH2 0x394 JUMPI PUSH0 CALLDATALOAD PUSH1 0xE0 SHR DUP1 PUSH4 0x751039FC GT PUSH2 0x1DE JUMPI DUP1 PUSH4 0xBF474BED GT PUSH2 0x108 JUMPI DUP1 PUSH4 0xEB429BF8 GT PUSH2 0x9D JUMPI DUP1 PUSH4 0xF3A395FC GT PUSH2 0x6D JUMPI DUP1 PUSH4 0xF3A395FC EQ PUSH2 0xB21 JUMPI DUP1 PUSH4 0xF4293890 EQ PUSH2 0xB4F JUMPI DUP1 PUSH4 0xF5648A4F EQ PUSH2 0xB63 JUMPI DUP1 PUSH4 0xF7685A02 EQ PUSH2 0xB77 JUMPI PUSH0 DUP1 REVERT JUMPDEST DUP1 PUSH4 0xEB429BF8 EQ PUSH2 0xAA1 JUMPI DUP1 PUSH4 0xEB77DBB1 EQ PUSH2 0xACC JUMPI DUP1 PUSH4 0xF2A6227F EQ PUSH2 0xAE1 JUMPI DUP1 PUSH4 0xF2B4C325 EQ PUSH2 0xB0C JUMPI PUSH0 DUP1 REVERT JUMPDEST DUP1 PUSH4 0xC9567BF9 GT PUSH2 0xD8 JUMPI DUP1 PUSH4 0xC9567BF9 EQ PUSH2 0x9FF JUMPI DUP1 PUSH4 0xCE9DC805 EQ PUSH2 0xA13 JUMPI DUP1 PUSH4 0xD677D03E EQ PUSH2 0xA32 JUMPI DUP1 PUSH4 0xDD62ED3E EQ PUSH2 0xA5D JUMPI PUSH0 DUP1 REVERT JUMPDEST DUP1 PUSH4 0xBF474BED EQ PUSH2 0x971 JUMPI DUP1 PUSH4 0xC1AE5E72 EQ PUSH2 0x986 JUMPI DUP1 PUSH4 0xC232AE4D EQ PUSH2 0x9B4 JUMPI DUP1 PUSH4 0xC876D0B9 EQ PUSH2 0x9DF JUMPI PUSH0 DUP1 REVERT JUMPDEST DUP1 PUSH4 0x9D391300 GT PUSH2 0x17E JUMPI DUP1 PUSH4 0xABB284E9 GT PUSH2 0x14E JUMPI DUP1 PUSH4 0xABB284E9 EQ PUSH2 0x8E9 JUMPI DUP1 PUSH4 0xAF95D4D3 EQ PUSH2 0x908 JUMPI DUP1 PUSH4 0xBBAB0FF1 EQ PUSH2 0x927 JUMPI DUP1 PUSH4 0xBE68E027 EQ PUSH2 0x946 JUMPI PUSH0 DUP1 REVERT JUMPDEST DUP1 PUSH4 0x9D391300 EQ PUSH2 0x884 JUMPI DUP1 PUSH4 0xA1780C18 EQ PUSH2 0x897 JUMPI DUP1 PUSH4 0xA233900F EQ PUSH2 0x8AB JUMPI DUP1 PUSH4 0xA9059CBB EQ PUSH2 0x8CA JUMPI PUSH0 DUP1 REVERT JUMPDEST DUP1 PUSH4 0x8DA5CB5B GT PUSH2 0x1B9 JUMPI DUP1 PUSH4 0x8DA5CB5B EQ PUSH2 0x808 JUMPI DUP1 PUSH4 0x8F9A55C0 EQ PUSH2 0x824 JUMPI DUP1 PUSH4 0x8FBD8F27 EQ PUSH2 0x839 JUMPI DUP1 PUSH4 0x95D89B41 EQ PUSH2 0x858 JUMPI PUSH0 DUP1 REVERT JUMPDEST DUP1 PUSH4 0x751039FC EQ PUSH2 0x7C0 JUMPI DUP1 PUSH4 0x7D1DB4A5 EQ PUSH2 0x7D4 JUMPI DUP1 PUSH4 0x81CD58E5 EQ PUSH2 0x7E9 JUMPI PUSH0 DUP1 REVERT JUMPDEST DUP1 PUSH4 0x298A8328 GT PUSH2 0x2BF JUMPI DUP1 PUSH4 0x52D3C14E GT PUSH2 0x25F JUMPI DUP1 PUSH4 0x6A4D84F9 GT PUSH2 0x22F JUMPI DUP1 PUSH4 0x6A4D84F9 EQ PUSH2 0x72B JUMPI DUP1 PUSH4 0x6E2ED3C4 EQ PUSH2 0x74A JUMPI DUP1 PUSH4 0x70A08231 EQ PUSH2 0x778 JUMPI DUP1 PUSH4 0x715018A6 EQ PUSH2 0x7AC JUMPI PUSH0 DUP1 REVERT JUMPDEST DUP1 PUSH4 0x52D3C14E EQ PUSH2 0x68F JUMPI DUP1 PUSH4 0x54CA45D8 EQ PUSH2 0x6BA JUMPI DUP1 PUSH4 0x580A155A EQ PUSH2 0x6E8 JUMPI DUP1 PUSH4 0x66B6090F EQ PUSH2 0x716 JUMPI PUSH0 DUP1 REVERT JUMPDEST DUP1 PUSH4 0x313CE567 GT PUSH2 0x29A JUMPI DUP1 PUSH4 0x313CE567 EQ PUSH2 0x608 JUMPI DUP1 PUSH4 0x37E294D5 EQ PUSH2 0x623 JUMPI DUP1 PUSH4 0x3B32EDD4 EQ PUSH2 0x642 JUMPI DUP1 PUSH4 0x51A2F687 EQ PUSH2 0x670 JUMPI PUSH0 DUP1 REVERT JUMPDEST DUP1 PUSH4 0x298A8328 EQ PUSH2 0x5B2 JUMPI DUP1 PUSH4 0x2ACE2AF5 EQ PUSH2 0x5C7 JUMPI DUP1 PUSH4 0x2D4BBB05 EQ PUSH2 0x5F5 JUMPI PUSH0 DUP1 REVERT JUMPDEST DUP1 PUSH4 0xDB6DFF7 GT PUSH2 0x335 JUMPI DUP1 PUSH4 0x19DDE7B7 GT PUSH2 0x305 JUMPI DUP1 PUSH4 0x19DDE7B7 EQ PUSH2 0x554 JUMPI DUP1 PUSH4 0x21E09B34 EQ PUSH2 0x569 JUMPI DUP1 PUSH4 0x23B872DD EQ PUSH2 0x57E JUMPI DUP1 PUSH4 0x24AEDE52 EQ PUSH2 0x59D JUMPI PUSH0 DUP1 REVERT JUMPDEST DUP1 PUSH4 0xDB6DFF7 EQ PUSH2 0x4D5 JUMPI DUP1 PUSH4 0xFAEE56F EQ PUSH2 0x4F4 JUMPI DUP1 PUSH4 0x11A63E17 EQ PUSH2 0x509 JUMPI DUP1 PUSH4 0x18160DDD EQ PUSH2 0x540 JUMPI PUSH0 DUP1 REVERT JUMPDEST DUP1 PUSH4 0x6FDDE03 GT PUSH2 0x370 JUMPI DUP1 PUSH4 0x6FDDE03 EQ PUSH2 0x422 JUMPI DUP1 PUSH4 0x95EA7B3 EQ PUSH2 0x45E JUMPI DUP1 PUSH4 0x9EADBF5 EQ PUSH2 0x47D JUMPI DUP1 PUSH4 0xD2D697A EQ PUSH2 0x49C JUMPI PUSH0 DUP1 REVERT JUMPDEST DUP1 PUSH3 0x8B8185 EQ PUSH2 0x39F JUMPI DUP1 PUSH4 0x39AA9CF EQ PUSH2 0x3C0 JUMPI DUP1 PUSH4 0x6B091F9 EQ PUSH2 0x403 JUMPI PUSH0 DUP1 REVERT JUMPDEST CALLDATASIZE PUSH2 0x39B JUMPI STOP JUMPDEST PUSH0 DUP1 REVERT JUMPDEST CALLVALUE DUP1 ISZERO PUSH2 0x3AA JUMPI PUSH0 DUP1 REVERT JUMPDEST POP PUSH2 0x3BE PUSH2 0x3B9 CALLDATASIZE PUSH1 0x4 PUSH2 0x33F8 JUMP JUMPDEST PUSH2 0xB8C JUMP JUMPDEST STOP JUMPDEST CALLVALUE DUP1 ISZERO PUSH2 0x3CB JUMPI PUSH0 DUP1 REVERT JUMPDEST POP PUSH2 0x3EE PUSH2 0x3DA CALLDATASIZE PUSH1 0x4 PUSH2 0x3418 JUMP JUMPDEST PUSH1 0x6 PUSH1 0x20 MSTORE PUSH0 SWAP1 DUP2 MSTORE PUSH1 0x40 SWAP1 KECCAK256 SLOAD PUSH1 0xFF AND DUP2 JUMP JUMPDEST PUSH1 0x40 MLOAD SWAP1 ISZERO ISZERO DUP2 MSTORE PUSH1 0x20 ADD JUMPDEST PUSH1 0x40 MLOAD DUP1 SWAP2 SUB SWAP1 RETURN JUMPDEST CALLVALUE DUP1 ISZERO PUSH2 0x40E JUMPI PUSH0 DUP1 REVERT JUMPDEST POP PUSH2 0x3BE PUSH2 0x41D CALLDATASIZE PUSH1 0x4 PUSH2 0x3443 JUMP JUMPDEST PUSH2 0xBCF JUMP JUMPDEST CALLVALUE DUP1 ISZERO PUSH2 0x42D JUMPI PUSH0 DUP1 REVERT JUMPDEST POP PUSH1 0x40 DUP1 MLOAD DUP1 DUP3 ADD SWAP1 SWAP2 MSTORE PUSH1 0xB DUP2 MSTORE PUSH11 0x48756E67657247616D6573 PUSH1 0xA8 SHL PUSH1 0x20 DUP3 ADD MSTORE JUMPDEST PUSH1 0x40 MLOAD PUSH2 0x3FA SWAP2 SWAP1 PUSH2 0x34BA JUMP JUMPDEST CALLVALUE DUP1 ISZERO PUSH2 0x469 JUMPI PUSH0 DUP1 REVERT JUMPDEST POP PUSH2 0x3EE PUSH2 0x478 CALLDATASIZE PUSH1 0x4 PUSH2 0x3443 JUMP JUMPDEST PUSH2 0xC6E JUMP JUMPDEST CALLVALUE DUP1 ISZERO PUSH2 0x488 JUMPI PUSH0 DUP1 REVERT JUMPDEST POP PUSH2 0x3BE PUSH2 0x497 CALLDATASIZE PUSH1 0x4 PUSH2 0x33F8 JUMP JUMPDEST PUSH2 0xC84 JUMP JUMPDEST CALLVALUE DUP1 ISZERO PUSH2 0x4A7 JUMPI PUSH0 DUP1 REVERT JUMPDEST POP PUSH2 0x4C7 PUSH2 0x4B6 CALLDATASIZE PUSH1 0x4 PUSH2 0x34CC JUMP JUMPDEST PUSH1 0x9 PUSH1 0x20 MSTORE PUSH0 SWAP1 DUP2 MSTORE PUSH1 0x40 SWAP1 KECCAK256 SLOAD DUP2 JUMP JUMPDEST PUSH1 0x40 MLOAD SWAP1 DUP2 MSTORE PUSH1 0x20 ADD PUSH2 0x3FA JUMP JUMPDEST CALLVALUE DUP1 ISZERO PUSH2 0x4E0 JUMPI PUSH0 DUP1 REVERT JUMPDEST POP PUSH2 0x3BE PUSH2 0x4EF CALLDATASIZE PUSH1 0x4 PUSH2 0x34CC JUMP JUMPDEST PUSH2 0xDA7 JUMP JUMPDEST CALLVALUE DUP1 ISZERO PUSH2 0x4FF JUMPI PUSH0 DUP1 REVERT JUMPDEST POP PUSH2 0x4C7 PUSH1 0x21 SLOAD DUP2 JUMP JUMPDEST CALLVALUE DUP1 ISZERO PUSH2 0x514 JUMPI PUSH0 DUP1 REVERT JUMPDEST POP PUSH1 0x12 SLOAD PUSH2 0x528 SWAP1 PUSH1 0x1 PUSH1 0x1 PUSH1 0xA0 SHL SUB AND DUP2 JUMP JUMPDEST PUSH1 0x40 MLOAD PUSH1 0x1 PUSH1 0x1 PUSH1 0xA0 SHL SUB SWAP1 SWAP2 AND DUP2 MSTORE PUSH1 0x20 ADD PUSH2 0x3FA JUMP JUMPDEST CALLVALUE DUP1 ISZERO PUSH2 0x54B JUMPI PUSH0 DUP1 REVERT JUMPDEST POP PUSH1 0x1D SLOAD PUSH2 0x4C7 JUMP JUMPDEST CALLVALUE DUP1 ISZERO PUSH2 0x55F JUMPI PUSH0 DUP1 REVERT JUMPDEST POP PUSH2 0x4C7 PUSH1 0x22 SLOAD DUP2 JUMP JUMPDEST CALLVALUE DUP1 ISZERO PUSH2 0x574 JUMPI PUSH0 DUP1 REVERT JUMPDEST POP PUSH2 0x4C7 PUSH1 0x29 SLOAD DUP2 JUMP JUMPDEST CALLVALUE DUP1 ISZERO PUSH2 0x589 JUMPI PUSH0 DUP1 REVERT JUMPDEST POP PUSH2 0x3EE PUSH2 0x598 CALLDATASIZE PUSH1 0x4 PUSH2 0x34E7 JUMP JUMPDEST PUSH2 0xDF2 JUMP JUMPDEST CALLVALUE DUP1 ISZERO PUSH2 0x5A8 JUMPI PUSH0 DUP1 REVERT JUMPDEST POP PUSH2 0x4C7 PUSH1 0x26 SLOAD DUP2 JUMP JUMPDEST CALLVALUE DUP1 ISZERO PUSH2 0x5BD JUMPI PUSH0 DUP1 REVERT JUMPDEST POP PUSH2 0x4C7 PUSH1 0x28 SLOAD DUP2 JUMP JUMPDEST CALLVALUE DUP1 ISZERO PUSH2 0x5D2 JUMPI PUSH0 DUP1 REVERT JUMPDEST POP PUSH2 0x3EE PUSH2 0x5E1 CALLDATASIZE PUSH1 0x4 PUSH2 0x3418 JUMP JUMPDEST PUSH0 SWAP1 DUP2 MSTORE PUSH1 0x4 PUSH1 0x20 MSTORE PUSH1 0x40 SWAP1 KECCAK256 SLOAD PUSH1 0xFF AND SWAP1 JUMP JUMPDEST PUSH2 0x3BE PUSH2 0x603 CALLDATASIZE PUSH1 0x4 PUSH2 0x33F8 JUMP JUMPDEST PUSH2 0xE59 JUMP JUMPDEST CALLVALUE DUP1 ISZERO PUSH2 0x613 JUMPI PUSH0 DUP1 REVERT JUMPDEST POP PUSH1 0x40 MLOAD PUSH1 0x9 DUP2 MSTORE PUSH1 0x20 ADD PUSH2 0x3FA JUMP JUMPDEST CALLVALUE DUP1 ISZERO PUSH2 0x62E JUMPI PUSH0 DUP1 REVERT JUMPDEST POP PUSH1 0x11 SLOAD PUSH2 0x528 SWAP1 PUSH1 0x1 PUSH1 0x1 PUSH1 0xA0 SHL SUB AND DUP2 JUMP JUMPDEST CALLVALUE DUP1 ISZERO PUSH2 0x64D JUMPI PUSH0 DUP1 REVERT JUMPDEST POP PUSH2 0x3EE PUSH2 0x65C CALLDATASIZE PUSH1 0x4 PUSH2 0x3418 JUMP JUMPDEST PUSH0 SWAP1 DUP2 MSTORE PUSH1 0x6 PUSH1 0x20 MSTORE PUSH1 0x40 SWAP1 KECCAK256 SLOAD PUSH1 0xFF AND SWAP1 JUMP JUMPDEST CALLVALUE DUP1 ISZERO PUSH2 0x67B JUMPI PUSH0 DUP1 REVERT JUMPDEST POP PUSH1 0x10 SLOAD PUSH2 0x528 SWAP1 PUSH1 0x1 PUSH1 0x1 PUSH1 0xA0 SHL SUB AND DUP2 JUMP JUMPDEST CALLVALUE DUP1 ISZERO PUSH2 0x69A JUMPI PUSH0 DUP1 REVERT JUMPDEST POP PUSH2 0x4C7 PUSH2 0x6A9 CALLDATASIZE PUSH1 0x4 PUSH2 0x34CC JUMP JUMPDEST PUSH1 0xB PUSH1 0x20 MSTORE PUSH0 SWAP1 DUP2 MSTORE PUSH1 0x40 SWAP1 KECCAK256 SLOAD DUP2 JUMP JUMPDEST CALLVALUE DUP1 ISZERO PUSH2 0x6C5 JUMPI PUSH0 DUP1 REVERT JUMPDEST POP PUSH2 0x3EE PUSH2 0x6D4 CALLDATASIZE PUSH1 0x4 PUSH2 0x3418 JUMP JUMPDEST PUSH1 0x7 PUSH1 0x20 MSTORE PUSH0 SWAP1 DUP2 MSTORE PUSH1 0x40 SWAP1 KECCAK256 SLOAD PUSH1 0xFF AND DUP2 JUMP JUMPDEST CALLVALUE DUP1 ISZERO PUSH2 0x6F3 JUMPI PUSH0 DUP1 REVERT JUMPDEST POP PUSH2 0x3EE PUSH2 0x702 CALLDATASIZE PUSH1 0x4 PUSH2 0x3418 JUMP JUMPDEST PUSH1 0x5 PUSH1 0x20 MSTORE PUSH0 SWAP1 DUP2 MSTORE PUSH1 0x40 SWAP1 KECCAK256 SLOAD PUSH1 0xFF AND DUP2 JUMP JUMPDEST CALLVALUE DUP1 ISZERO PUSH2 0x721 JUMPI PUSH0 DUP1 REVERT JUMPDEST POP PUSH2 0x4C7 PUSH1 0x25 SLOAD DUP2 JUMP JUMPDEST CALLVALUE DUP1 ISZERO PUSH2 0x736 JUMPI PUSH0 DUP1 REVERT JUMPDEST POP PUSH2 0x3BE PUSH2 0x745 CALLDATASIZE PUSH1 0x4 PUSH2 0x33F8 JUMP JUMPDEST PUSH2 0xFFD JUMP JUMPDEST CALLVALUE DUP1 ISZERO PUSH2 0x755 JUMPI PUSH0 DUP1 REVERT JUMPDEST POP PUSH2 0x3EE PUSH2 0x764 CALLDATASIZE PUSH1 0x4 PUSH2 0x3418 JUMP JUMPDEST PUSH0 SWAP1 DUP2 MSTORE PUSH1 0x7 PUSH1 0x20 MSTORE PUSH1 0x40 SWAP1 KECCAK256 SLOAD PUSH1 0xFF AND SWAP1 JUMP JUMPDEST CALLVALUE DUP1 ISZERO PUSH2 0x783 JUMPI PUSH0 DUP1 REVERT JUMPDEST POP PUSH2 0x4C7 PUSH2 0x792 CALLDATASIZE PUSH1 0x4 PUSH2 0x34CC JUMP JUMPDEST PUSH1 0x1 PUSH1 0x1 PUSH1 0xA0 SHL SUB AND PUSH0 SWAP1 DUP2 MSTORE PUSH1 0x1 PUSH1 0x20 MSTORE PUSH1 0x40 SWAP1 KECCAK256 SLOAD SWAP1 JUMP JUMPDEST CALLVALUE DUP1 ISZERO PUSH2 0x7B7 JUMPI PUSH0 DUP1 REVERT JUMPDEST POP PUSH2 0x3BE PUSH2 0x1040 JUMP JUMPDEST CALLVALUE DUP1 ISZERO PUSH2 0x7CB JUMPI PUSH0 DUP1 REVERT JUMPDEST POP PUSH2 0x3BE PUSH2 0x10B1 JUMP JUMPDEST CALLVALUE DUP1 ISZERO PUSH2 0x7DF JUMPI PUSH0 DUP1 REVERT JUMPDEST POP PUSH2 0x4C7 PUSH1 0x1E SLOAD DUP2 JUMP JUMPDEST CALLVALUE DUP1 ISZERO PUSH2 0x7F4 JUMPI PUSH0 DUP1 REVERT JUMPDEST POP PUSH2 0x3BE PUSH2 0x803 CALLDATASIZE PUSH1 0x4 PUSH2 0x35D6 JUMP JUMPDEST PUSH2 0x10E4 JUMP JUMPDEST CALLVALUE DUP1 ISZERO PUSH2 0x813 JUMPI PUSH0 DUP1 REVERT JUMPDEST POP PUSH0 SLOAD PUSH1 0x1 PUSH1 0x1 PUSH1 0xA0 SHL SUB AND PUSH2 0x528 JUMP JUMPDEST CALLVALUE DUP1 ISZERO PUSH2 0x82F JUMPI PUSH0 DUP1 REVERT JUMPDEST POP PUSH2 0x4C7 PUSH1 0x1F SLOAD DUP2 JUMP JUMPDEST CALLVALUE DUP1 ISZERO PUSH2 0x844 JUMPI PUSH0 DUP1 REVERT JUMPDEST POP PUSH2 0x3BE PUSH2 0x853 CALLDATASIZE PUSH1 0x4 PUSH2 0x33F8 JUMP JUMPDEST PUSH2 0x18A9 JUMP JUMPDEST CALLVALUE DUP1 ISZERO PUSH2 0x863 JUMPI PUSH0 DUP1 REVERT JUMPDEST POP PUSH1 0x40 DUP1 MLOAD DUP1 DUP3 ADD SWAP1 SWAP2 MSTORE PUSH1 0x4 DUP2 MSTORE PUSH4 0x48474D53 PUSH1 0xE0 SHL PUSH1 0x20 DUP3 ADD MSTORE PUSH2 0x451 JUMP JUMPDEST PUSH2 0x3BE PUSH2 0x892 CALLDATASIZE PUSH1 0x4 PUSH2 0x36AB JUMP JUMPDEST PUSH2 0x18EC JUMP JUMPDEST CALLVALUE DUP1 ISZERO PUSH2 0x8A2 JUMPI PUSH0 DUP1 REVERT JUMPDEST POP PUSH2 0x3BE PUSH2 0x1A97 JUMP JUMPDEST CALLVALUE DUP1 ISZERO PUSH2 0x8B6 JUMPI PUSH0 DUP1 REVERT JUMPDEST POP PUSH2 0x3BE PUSH2 0x8C5 CALLDATASIZE PUSH1 0x4 PUSH2 0x36E1 JUMP JUMPDEST PUSH2 0x1AE4 JUMP JUMPDEST CALLVALUE DUP1 ISZERO PUSH2 0x8D5 JUMPI PUSH0 DUP1 REVERT JUMPDEST POP PUSH2 0x3EE PUSH2 0x8E4 CALLDATASIZE PUSH1 0x4 PUSH2 0x3443 JUMP JUMPDEST PUSH2 0x213B JUMP JUMPDEST CALLVALUE DUP1 ISZERO PUSH2 0x8F4 JUMPI PUSH0 DUP1 REVERT JUMPDEST POP PUSH2 0x3BE PUSH2 0x903 CALLDATASIZE PUSH1 0x4 PUSH2 0x33F8 JUMP JUMPDEST PUSH2 0x2147 JUMP JUMPDEST CALLVALUE DUP1 ISZERO PUSH2 0x913 JUMPI PUSH0 DUP1 REVERT JUMPDEST POP PUSH2 0x3BE PUSH2 0x922 CALLDATASIZE PUSH1 0x4 PUSH2 0x3443 JUMP JUMPDEST PUSH2 0x218A JUMP JUMPDEST CALLVALUE DUP1 ISZERO PUSH2 0x932 JUMPI PUSH0 DUP1 REVERT JUMPDEST POP PUSH1 0x13 SLOAD PUSH2 0x528 SWAP1 PUSH1 0x1 PUSH1 0x1 PUSH1 0xA0 SHL SUB AND DUP2 JUMP JUMPDEST CALLVALUE DUP1 ISZERO PUSH2 0x951 JUMPI PUSH0 DUP1 REVERT JUMPDEST POP PUSH2 0x4C7 PUSH2 0x960 CALLDATASIZE PUSH1 0x4 PUSH2 0x34CC JUMP JUMPDEST PUSH1 0xA PUSH1 0x20 MSTORE PUSH0 SWAP1 DUP2 MSTORE PUSH1 0x40 SWAP1 KECCAK256 SLOAD DUP2 JUMP JUMPDEST CALLVALUE DUP1 ISZERO PUSH2 0x97C JUMPI PUSH0 DUP1 REVERT JUMPDEST POP PUSH2 0x4C7 PUSH1 0x20 SLOAD DUP2 JUMP JUMPDEST CALLVALUE DUP1 ISZERO PUSH2 0x991 JUMPI PUSH0 DUP1 REVERT JUMPDEST POP PUSH2 0x3EE PUSH2 0x9A0 CALLDATASIZE PUSH1 0x4 PUSH2 0x3418 JUMP JUMPDEST PUSH0 SWAP1 DUP2 MSTORE PUSH1 0x5 PUSH1 0x20 MSTORE PUSH1 0x40 SWAP1 KECCAK256 SLOAD PUSH1 0xFF AND SWAP1 JUMP JUMPDEST CALLVALUE DUP1 ISZERO PUSH2 0x9BF JUMPI PUSH0 DUP1 REVERT JUMPDEST POP PUSH2 0x4C7 PUSH2 0x9CE CALLDATASIZE PUSH1 0x4 PUSH2 0x34CC JUMP JUMPDEST PUSH1 0xD PUSH1 0x20 MSTORE PUSH0 SWAP1 DUP2 MSTORE PUSH1 0x40 SWAP1 KECCAK256 SLOAD DUP2 JUMP JUMPDEST CALLVALUE DUP1 ISZERO PUSH2 0x9EA JUMPI PUSH0 DUP1 REVERT JUMPDEST POP PUSH1 0x2B SLOAD PUSH2 0x3EE SWAP1 PUSH1 0x1 PUSH1 0xB8 SHL SWAP1 DIV PUSH1 0xFF AND DUP2 JUMP JUMPDEST CALLVALUE DUP1 ISZERO PUSH2 0xA0A JUMPI PUSH0 DUP1 REVERT JUMPDEST POP PUSH2 0x3BE PUSH2 0x221D JUMP JUMPDEST CALLVALUE DUP1 ISZERO PUSH2 0xA1E JUMPI PUSH0 DUP1 REVERT JUMPDEST POP PUSH1 0x14 SLOAD PUSH2 0x528 SWAP1 PUSH1 0x1 PUSH1 0x1 PUSH1 0xA0 SHL SUB AND DUP2 JUMP JUMPDEST CALLVALUE DUP1 ISZERO PUSH2 0xA3D JUMPI PUSH0 DUP1 REVERT JUMPDEST POP PUSH2 0x4C7 PUSH2 0xA4C CALLDATASIZE PUSH1 0x4 PUSH2 0x34CC JUMP JUMPDEST PUSH1 0xC PUSH1 0x20 MSTORE PUSH0 SWAP1 DUP2 MSTORE PUSH1 0x40 SWAP1 KECCAK256 SLOAD DUP2 JUMP JUMPDEST CALLVALUE DUP1 ISZERO PUSH2 0xA68 JUMPI PUSH0 DUP1 REVERT JUMPDEST POP PUSH2 0x4C7 PUSH2 0xA77 CALLDATASIZE PUSH1 0x4 PUSH2 0x3726 JUMP JUMPDEST PUSH1 0x1 PUSH1 0x1 PUSH1 0xA0 SHL SUB SWAP2 DUP3 AND PUSH0 SWAP1 DUP2 MSTORE PUSH1 0x2 PUSH1 0x20 SWAP1 DUP2 MSTORE PUSH1 0x40 DUP1 DUP4 KECCAK256 SWAP4 SWAP1 SWAP5 AND DUP3 MSTORE SWAP2 SWAP1 SWAP2 MSTORE KECCAK256 SLOAD SWAP1 JUMP JUMPDEST CALLVALUE DUP1 ISZERO PUSH2 0xAAC JUMPI PUSH0 DUP1 REVERT JUMPDEST POP PUSH2 0x4C7 PUSH2 0xABB CALLDATASIZE PUSH1 0x4 PUSH2 0x3418 JUMP JUMPDEST PUSH1 0xF PUSH1 0x20 MSTORE PUSH0 SWAP1 DUP2 MSTORE PUSH1 0x40 SWAP1 KECCAK256 SLOAD DUP2 JUMP JUMPDEST CALLVALUE DUP1 ISZERO PUSH2 0xAD7 JUMPI PUSH0 DUP1 REVERT JUMPDEST POP PUSH2 0x4C7 PUSH1 0x24 SLOAD DUP2 JUMP JUMPDEST CALLVALUE DUP1 ISZERO PUSH2 0xAEC JUMPI PUSH0 DUP1 REVERT JUMPDEST POP PUSH2 0x4C7 PUSH2 0xAFB CALLDATASIZE PUSH1 0x4 PUSH2 0x34CC JUMP JUMPDEST PUSH1 0xE PUSH1 0x20 MSTORE PUSH0 SWAP1 DUP2 MSTORE PUSH1 0x40 SWAP1 KECCAK256 SLOAD DUP2 JUMP JUMPDEST CALLVALUE DUP1 ISZERO PUSH2 0xB17 JUMPI PUSH0 DUP1 REVERT JUMPDEST POP PUSH2 0x4C7 PUSH1 0x27 SLOAD DUP2 JUMP JUMPDEST CALLVALUE DUP1 ISZERO PUSH2 0xB2C JUMPI PUSH0 DUP1 REVERT JUMPDEST POP PUSH2 0x3EE PUSH2 0xB3B CALLDATASIZE PUSH1 0x4 PUSH2 0x3418 JUMP JUMPDEST PUSH1 0x4 PUSH1 0x20 MSTORE PUSH0 SWAP1 DUP2 MSTORE PUSH1 0x40 SWAP1 KECCAK256 SLOAD PUSH1 0xFF AND DUP2 JUMP JUMPDEST CALLVALUE DUP1 ISZERO PUSH2 0xB5A JUMPI PUSH0 DUP1 REVERT JUMPDEST POP PUSH2 0x3BE PUSH2 0x25D7 JUMP JUMPDEST CALLVALUE DUP1 ISZERO PUSH2 0xB6E JUMPI PUSH0 DUP1 REVERT JUMPDEST POP PUSH2 0x3BE PUSH2 0x2613 JUMP JUMPDEST CALLVALUE DUP1 ISZERO PUSH2 0xB82 JUMPI PUSH0 DUP1 REVERT JUMPDEST POP PUSH2 0x4C7 PUSH1 0x23 SLOAD DUP2 JUMP JUMPDEST PUSH1 0x10 SLOAD PUSH1 0x1 PUSH1 0x1 PUSH1 0xA0 SHL SUB AND CALLER EQ PUSH2 0xBA2 JUMPI PUSH0 DUP1 REVERT JUMPDEST PUSH1 0x25 DUP3 SWAP1 SSTORE PUSH2 0xBB3 PUSH1 0x3 PUSH1 0x9 PUSH2 0x3771 JUMP JUMPDEST PUSH2 0xBBE SWAP1 PUSH1 0xA PUSH2 0x386A JUMP JUMPDEST PUSH2 0xBC8 SWAP1 DUP3 PUSH2 0x3878 JUMP JUMPDEST PUSH1 0x29 SSTORE POP POP JUMP JUMPDEST PUSH0 SLOAD PUSH1 0x1 PUSH1 0x1 PUSH1 0xA0 SHL SUB AND CALLER EQ PUSH2 0xC01 JUMPI PUSH1 0x40 MLOAD PUSH3 0x461BCD PUSH1 0xE5 SHL DUP2 MSTORE PUSH1 0x4 ADD PUSH2 0xBF8 SWAP1 PUSH2 0x388F JUMP JUMPDEST PUSH1 0x40 MLOAD DUP1 SWAP2 SUB SWAP1 REVERT JUMPDEST ADDRESS PUSH0 SWAP1 DUP2 MSTORE PUSH1 0x1 PUSH1 0x20 MSTORE PUSH1 0x40 SWAP1 KECCAK256 SLOAD DUP2 GT ISZERO PUSH2 0xC5F JUMPI PUSH1 0x40 MLOAD PUSH3 0x461BCD PUSH1 0xE5 SHL DUP2 MSTORE PUSH1 0x20 PUSH1 0x4 DUP3 ADD MSTORE PUSH1 0x1D PUSH1 0x24 DUP3 ADD MSTORE PUSH32 0x4E6F7420656E6F75676820746F6B656E7320696E20636F6E7472616374000000 PUSH1 0x44 DUP3 ADD MSTORE PUSH1 0x64 ADD PUSH2 0xBF8 JUMP JUMPDEST PUSH2 0xC6A ADDRESS DUP4 DUP4 PUSH2 0x265F JUMP JUMPDEST POP POP JUMP JUMPDEST PUSH0 PUSH2 0xC7A CALLER DUP5 DUP5 PUSH2 0x2C42 JUMP JUMPDEST POP PUSH1 0x1 JUMPDEST SWAP3 SWAP2 POP POP JUMP JUMPDEST PUSH1 0x14 SLOAD PUSH1 0x1 PUSH1 0x1 PUSH1 0xA0 SHL SUB AND CALLER EQ PUSH2 0xCF2 JUMPI PUSH1 0x40 MLOAD PUSH3 0x461BCD PUSH1 0xE5 SHL DUP2 MSTORE PUSH1 0x20 PUSH1 0x4 DUP3 ADD MSTORE PUSH1 0x2B PUSH1 0x24 DUP3 ADD MSTORE PUSH32 0x4F6E6C792074686520626174746C6520636F6E74726163742063616E2072656D PUSH1 0x44 DUP3 ADD MSTORE PUSH11 0x6F766520706F74696F6E73 PUSH1 0xA8 SHL PUSH1 0x64 DUP3 ADD MSTORE PUSH1 0x84 ADD PUSH2 0xBF8 JUMP JUMPDEST PUSH0 DUP3 DUP2 MSTORE PUSH1 0x4 PUSH1 0x20 DUP2 DUP2 MSTORE PUSH1 0x40 DUP1 DUP5 KECCAK256 DUP1 SLOAD PUSH1 0xFF NOT SWAP1 DUP2 AND SWAP1 SWAP2 SSTORE PUSH1 0x5 DUP1 DUP5 MSTORE DUP3 DUP7 KECCAK256 DUP1 SLOAD DUP4 AND SWAP1 SSTORE PUSH1 0x6 DUP1 DUP6 MSTORE DUP4 DUP8 KECCAK256 DUP1 SLOAD DUP5 AND SWAP1 SSTORE PUSH1 0x7 DUP1 DUP7 MSTORE DUP5 DUP9 KECCAK256 DUP1 SLOAD DUP6 AND SWAP1 SSTORE DUP9 DUP9 MSTORE SWAP6 DUP6 MSTORE DUP4 DUP8 KECCAK256 DUP1 SLOAD DUP5 AND SWAP1 SSTORE SWAP1 DUP5 MSTORE DUP3 DUP7 KECCAK256 DUP1 SLOAD DUP4 AND SWAP1 SSTORE DUP4 MSTORE DUP2 DUP6 KECCAK256 DUP1 SLOAD DUP3 AND SWAP1 SSTORE SWAP3 DUP3 MSTORE SWAP3 DUP4 SWAP1 KECCAK256 DUP1 SLOAD SWAP1 SWAP3 AND SWAP1 SWAP2 SSTORE DUP2 MLOAD DUP5 DUP2 MSTORE SWAP1 DUP2 ADD DUP4 SWAP1 MSTORE PUSH32 0x16552DC0EEAA5453189CA1B57F62BF76590B234053B60BD7120B6A49977D637F SWAP2 ADD JUMPDEST PUSH1 0x40 MLOAD DUP1 SWAP2 SUB SWAP1 LOG1 POP POP JUMP JUMPDEST PUSH0 SLOAD PUSH1 0x1 PUSH1 0x1 PUSH1 0xA0 SHL SUB AND CALLER EQ PUSH2 0xDD0 JUMPI PUSH1 0x40 MLOAD PUSH3 0x461BCD PUSH1 0xE5 SHL DUP2 MSTORE PUSH1 0x4 ADD PUSH2 0xBF8 SWAP1 PUSH2 0x388F JUMP JUMPDEST PUSH1 0x14 DUP1 SLOAD PUSH1 0x1 PUSH1 0x1 PUSH1 0xA0 SHL SUB NOT AND PUSH1 0x1 PUSH1 0x1 PUSH1 0xA0 SHL SUB SWAP3 SWAP1 SWAP3 AND SWAP2 SWAP1 SWAP2 OR SWAP1 SSTORE JUMP JUMPDEST PUSH0 PUSH2 0xDFE DUP5 DUP5 DUP5 PUSH2 0x265F JUMP JUMPDEST PUSH2 0xE4F DUP5 CALLER PUSH2 0xE4A DUP6 PUSH1 0x40 MLOAD DUP1 PUSH1 0x60 ADD PUSH1 0x40 MSTORE DUP1 PUSH1 0x28 DUP2 MSTORE PUSH1 0x20 ADD PUSH2 0x3B03 PUSH1 0x28 SWAP2 CODECOPY PUSH1 0x1 PUSH1 0x1 PUSH1 0xA0 SHL SUB DUP11 AND PUSH0 SWAP1 DUP2 MSTORE PUSH1 0x2 PUSH1 0x20 SWAP1 DUP2 MSTORE PUSH1 0x40 DUP1 DUP4 KECCAK256 CALLER DUP5 MSTORE SWAP1 SWAP2 MSTORE SWAP1 KECCAK256 SLOAD SWAP2 SWAP1 PUSH2 0x2D65 JUMP JUMPDEST PUSH2 0x2C42 JUMP JUMPDEST POP PUSH1 0x1 SWAP4 SWAP3 POP POP POP JUMP JUMPDEST PUSH0 DUP3 GT DUP1 PUSH2 0xE66 JUMPI POP PUSH0 DUP2 GT JUMPDEST PUSH2 0xEB2 JUMPI PUSH1 0x40 MLOAD PUSH3 0x461BCD PUSH1 0xE5 SHL DUP2 MSTORE PUSH1 0x20 PUSH1 0x4 DUP3 ADD MSTORE PUSH1 0x1F PUSH1 0x24 DUP3 ADD MSTORE PUSH32 0x416D6F756E742073686F756C642062652067726561746572207468616E203000 PUSH1 0x44 DUP3 ADD MSTORE PUSH1 0x64 ADD PUSH2 0xBF8 JUMP JUMPDEST PUSH2 0xEBE PUSH1 0x9 PUSH1 0xA PUSH2 0x386A JUMP JUMPDEST PUSH2 0xEC8 SWAP1 DUP3 PUSH2 0x3878 JUMP JUMPDEST CALLVALUE LT ISZERO PUSH2 0xF13 JUMPI PUSH1 0x40 MLOAD PUSH3 0x461BCD PUSH1 0xE5 SHL DUP2 MSTORE PUSH1 0x20 PUSH1 0x4 DUP3 ADD MSTORE PUSH1 0x19 PUSH1 0x24 DUP3 ADD MSTORE PUSH25 0x125B98DBDC9C9958DD0811551208185B5BDD5B9D081CD95B9D PUSH1 0x3A SHL PUSH1 0x44 DUP3 ADD MSTORE PUSH1 0x64 ADD PUSH2 0xBF8 JUMP JUMPDEST DUP2 ISZERO PUSH2 0xF9E JUMPI CALLER PUSH0 SWAP1 DUP2 MSTORE PUSH1 0x1 PUSH1 0x20 MSTORE PUSH1 0x40 SWAP1 KECCAK256 SLOAD DUP3 GT ISZERO PUSH2 0xF70 JUMPI PUSH1 0x40 MLOAD PUSH3 0x461BCD PUSH1 0xE5 SHL DUP2 MSTORE PUSH1 0x20 PUSH1 0x4 DUP3 ADD MSTORE PUSH1 0x16 PUSH1 0x24 DUP3 ADD MSTORE PUSH22 0x4E6F7420656E6F7567682048474D5320746F6B656E73 PUSH1 0x50 SHL PUSH1 0x44 DUP3 ADD MSTORE PUSH1 0x64 ADD PUSH2 0xBF8 JUMP JUMPDEST PUSH2 0xF7A CALLER DUP4 PUSH2 0x2D9D JUMP JUMPDEST CALLER PUSH0 SWAP1 DUP2 MSTORE PUSH1 0x9 PUSH1 0x20 MSTORE PUSH1 0x40 DUP2 KECCAK256 DUP1 SLOAD DUP5 SWAP3 SWAP1 PUSH2 0xF98 SWAP1 DUP5 SWAP1 PUSH2 0x38C4 JUMP JUMPDEST SWAP1 SWAP2 SSTORE POP POP JUMPDEST DUP1 ISZERO PUSH2 0xFD1 JUMPI CALLER PUSH0 SWAP1 DUP2 MSTORE PUSH1 0xA PUSH1 0x20 MSTORE PUSH1 0x40 DUP2 KECCAK256 DUP1 SLOAD DUP4 SWAP3 SWAP1 PUSH2 0xFC2 SWAP1 DUP5 SWAP1 PUSH2 0x38C4 JUMP JUMPDEST SWAP1 SWAP2 SSTORE POP PUSH2 0xFD1 SWAP1 POP CALLVALUE PUSH2 0x2F18 JUMP JUMPDEST PUSH1 0x40 MLOAD PUSH32 0xED21248CB703B524CC0029BB8669DF941BACA560163A3BC6AD184E7E9C268070 SWAP1 PUSH0 SWAP1 LOG1 POP POP JUMP JUMPDEST PUSH1 0x10 SLOAD PUSH1 0x1 PUSH1 0x1 PUSH1 0xA0 SHL SUB AND CALLER EQ PUSH2 0x1013 JUMPI PUSH0 DUP1 REVERT JUMPDEST PUSH1 0x23 DUP3 SWAP1 SSTORE PUSH2 0x1024 PUSH1 0x3 PUSH1 0x9 PUSH2 0x3771 JUMP JUMPDEST PUSH2 0x102F SWAP1 PUSH1 0xA PUSH2 0x386A JUMP JUMPDEST PUSH2 0x1039 SWAP1 DUP3 PUSH2 0x3878 JUMP JUMPDEST PUSH1 0x27 SSTORE POP POP JUMP JUMPDEST PUSH0 SLOAD PUSH1 0x1 PUSH1 0x1 PUSH1 0xA0 SHL SUB AND CALLER EQ PUSH2 0x1069 JUMPI PUSH1 0x40 MLOAD PUSH3 0x461BCD PUSH1 0xE5 SHL DUP2 MSTORE PUSH1 0x4 ADD PUSH2 0xBF8 SWAP1 PUSH2 0x388F JUMP JUMPDEST PUSH0 DUP1 SLOAD PUSH1 0x40 MLOAD PUSH1 0x1 PUSH1 0x1 PUSH1 0xA0 SHL SUB SWAP1 SWAP2 AND SWAP1 PUSH32 0x8BE0079C531659141344CD1FD0A4F28419497F9722A3DAAFE3B4186F6B6457E0 SWAP1 DUP4 SWAP1 LOG3 PUSH0 DUP1 SLOAD PUSH1 0x1 PUSH1 0x1 PUSH1 0xA0 SHL SUB NOT AND SWAP1 SSTORE JUMP JUMPDEST PUSH0 SLOAD PUSH1 0x1 PUSH1 0x1 PUSH1 0xA0 SHL SUB AND CALLER EQ PUSH2 0x10DA JUMPI PUSH1 0x40 MLOAD PUSH3 0x461BCD PUSH1 0xE5 SHL DUP2 MSTORE PUSH1 0x4 ADD PUSH2 0xBF8 SWAP1 PUSH2 0x388F JUMP JUMPDEST PUSH2 0x10E2 PUSH2 0x306B JUMP JUMPDEST JUMP JUMPDEST PUSH1 0x10 SLOAD PUSH1 0x1 PUSH1 0x1 PUSH1 0xA0 SHL SUB AND CALLER EQ PUSH2 0x10FA JUMPI PUSH0 DUP1 REVERT JUMPDEST PUSH1 0x40 MLOAD PUSH4 0x58545241 PUSH1 0xE0 SHL PUSH1 0x20 DUP3 ADD MSTORE PUSH1 0x24 ADD PUSH1 0x40 MLOAD PUSH1 0x20 DUP2 DUP4 SUB SUB DUP2 MSTORE SWAP1 PUSH1 0x40 MSTORE DUP1 MLOAD SWAP1 PUSH1 0x20 ADD KECCAK256 DUP2 PUSH1 0x40 MLOAD PUSH1 0x20 ADD PUSH2 0x1134 SWAP2 SWAP1 PUSH2 0x38D7 JUMP JUMPDEST PUSH1 0x40 MLOAD PUSH1 0x20 DUP2 DUP4 SUB SUB DUP2 MSTORE SWAP1 PUSH1 0x40 MSTORE DUP1 MLOAD SWAP1 PUSH1 0x20 ADD KECCAK256 SUB PUSH2 0x12DB JUMPI DUP2 MLOAD PUSH1 0x1 PUSH1 0x1 PUSH1 0xA0 SHL SUB DUP5 AND PUSH0 SWAP1 DUP2 MSTORE PUSH1 0xB PUSH1 0x20 MSTORE PUSH1 0x40 SWAP1 KECCAK256 SLOAD LT ISZERO PUSH2 0x1187 JUMPI PUSH1 0x40 MLOAD PUSH3 0x461BCD PUSH1 0xE5 SHL DUP2 MSTORE PUSH1 0x4 ADD PUSH2 0xBF8 SWAP1 PUSH2 0x38F2 JUMP JUMPDEST PUSH0 JUMPDEST DUP3 MLOAD DUP2 LT ISZERO PUSH2 0x12D5 JUMPI PUSH1 0x4 PUSH0 DUP5 DUP4 DUP2 MLOAD DUP2 LT PUSH2 0x11A7 JUMPI PUSH2 0x11A7 PUSH2 0x3936 JUMP JUMPDEST PUSH1 0x20 SWAP1 DUP2 MUL SWAP2 SWAP1 SWAP2 ADD DUP2 ADD MLOAD DUP3 MSTORE DUP2 ADD SWAP2 SWAP1 SWAP2 MSTORE PUSH1 0x40 ADD PUSH0 KECCAK256 SLOAD PUSH1 0xFF AND ISZERO PUSH2 0x1207 JUMPI PUSH1 0x40 MLOAD PUSH3 0x461BCD PUSH1 0xE5 SHL DUP2 MSTORE PUSH1 0x20 PUSH1 0x4 DUP3 ADD MSTORE PUSH1 0x13 PUSH1 0x24 DUP3 ADD MSTORE PUSH19 0x416C7265616479206163746976652058545241 PUSH1 0x68 SHL PUSH1 0x44 DUP3 ADD MSTORE PUSH1 0x64 ADD PUSH2 0xBF8 JUMP JUMPDEST PUSH1 0x1 PUSH1 0x4 PUSH0 DUP6 DUP5 DUP2 MLOAD DUP2 LT PUSH2 0x121E JUMPI PUSH2 0x121E PUSH2 0x3936 JUMP JUMPDEST PUSH1 0x20 MUL PUSH1 0x20 ADD ADD MLOAD DUP2 MSTORE PUSH1 0x20 ADD SWAP1 DUP2 MSTORE PUSH1 0x20 ADD PUSH0 KECCAK256 PUSH0 PUSH2 0x100 EXP DUP2 SLOAD DUP2 PUSH1 0xFF MUL NOT AND SWAP1 DUP4 ISZERO ISZERO MUL OR SWAP1 SSTORE POP PUSH1 0x1 PUSH1 0xB PUSH0 DUP7 PUSH1 0x1 PUSH1 0x1 PUSH1 0xA0 SHL SUB AND PUSH1 0x1 PUSH1 0x1 PUSH1 0xA0 SHL SUB AND DUP2 MSTORE PUSH1 0x20 ADD SWAP1 DUP2 MSTORE PUSH1 0x20 ADD PUSH0 KECCAK256 PUSH0 DUP3 DUP3 SLOAD PUSH2 0x127C SWAP2 SWAP1 PUSH2 0x394A JUMP JUMPDEST SWAP3 POP POP DUP2 SWAP1 SSTORE POP PUSH1 0x1 PUSH1 0xF PUSH0 DUP6 DUP5 DUP2 MLOAD DUP2 LT PUSH2 0x129A JUMPI PUSH2 0x129A PUSH2 0x3936 JUMP JUMPDEST PUSH1 0x20 MUL PUSH1 0x20 ADD ADD MLOAD DUP2 MSTORE PUSH1 0x20 ADD SWAP1 DUP2 MSTORE PUSH1 0x20 ADD PUSH0 KECCAK256 PUSH0 DUP3 DUP3 SLOAD PUSH2 0x12BD SWAP2 SWAP1 PUSH2 0x38C4 JUMP JUMPDEST SWAP1 SWAP2 SSTORE POP DUP2 SWAP1 POP PUSH2 0x12CD DUP2 PUSH2 0x395D JUMP JUMPDEST SWAP2 POP POP PUSH2 0x1189 JUMP JUMPDEST POP POP POP POP JUMP JUMPDEST PUSH1 0x40 MLOAD PUSH5 0x1093D3D4D5 PUSH1 0xDA SHL PUSH1 0x20 DUP3 ADD MSTORE PUSH1 0x25 ADD PUSH1 0x40 MLOAD PUSH1 0x20 DUP2 DUP4 SUB SUB DUP2 MSTORE SWAP1 PUSH1 0x40 MSTORE DUP1 MLOAD SWAP1 PUSH1 0x20 ADD KECCAK256 DUP2 PUSH1 0x40 MLOAD PUSH1 0x20 ADD PUSH2 0x1316 SWAP2 SWAP1 PUSH2 0x38D7 JUMP JUMPDEST PUSH1 0x40 MLOAD PUSH1 0x20 DUP2 DUP4 SUB SUB DUP2 MSTORE SWAP1 PUSH1 0x40 MSTORE DUP1 MLOAD SWAP1 PUSH1 0x20 ADD KECCAK256 SUB PUSH2 0x14B8 JUMPI DUP2 MLOAD PUSH1 0x1 PUSH1 0x1 PUSH1 0xA0 SHL SUB DUP5 AND PUSH0 SWAP1 DUP2 MSTORE PUSH1 0xC PUSH1 0x20 MSTORE PUSH1 0x40 SWAP1 KECCAK256 SLOAD LT ISZERO PUSH2 0x1369 JUMPI PUSH1 0x40 MLOAD PUSH3 0x461BCD PUSH1 0xE5 SHL DUP2 MSTORE PUSH1 0x4 ADD PUSH2 0xBF8 SWAP1 PUSH2 0x38F2 JUMP JUMPDEST PUSH0 JUMPDEST DUP3 MLOAD DUP2 LT ISZERO PUSH2 0x12D5 JUMPI PUSH1 0x6 PUSH0 DUP5 DUP4 DUP2 MLOAD DUP2 LT PUSH2 0x1389 JUMPI PUSH2 0x1389 PUSH2 0x3936 JUMP JUMPDEST PUSH1 0x20 SWAP1 DUP2 MUL SWAP2 SWAP1 SWAP2 ADD DUP2 ADD MLOAD DUP3 MSTORE DUP2 ADD SWAP2 SWAP1 SWAP2 MSTORE PUSH1 0x40 ADD PUSH0 KECCAK256 SLOAD PUSH1 0xFF AND ISZERO PUSH2 0x13EA JUMPI PUSH1 0x40 MLOAD PUSH3 0x461BCD PUSH1 0xE5 SHL DUP2 MSTORE PUSH1 0x20 PUSH1 0x4 DUP3 ADD MSTORE PUSH1 0x14 PUSH1 0x24 DUP3 ADD MSTORE PUSH20 0x105B1C9958591E481858DD1A5D99481093D3D4D5 PUSH1 0x62 SHL PUSH1 0x44 DUP3 ADD MSTORE PUSH1 0x64 ADD PUSH2 0xBF8 JUMP JUMPDEST PUSH1 0x1 PUSH1 0x6 PUSH0 DUP6 DUP5 DUP2 MLOAD DUP2 LT PUSH2 0x1401 JUMPI PUSH2 0x1401 PUSH2 0x3936 JUMP JUMPDEST PUSH1 0x20 MUL PUSH1 0x20 ADD ADD MLOAD DUP2 MSTORE PUSH1 0x20 ADD SWAP1 DUP2 MSTORE PUSH1 0x20 ADD PUSH0 KECCAK256 PUSH0 PUSH2 0x100 EXP DUP2 SLOAD DUP2 PUSH1 0xFF MUL NOT AND SWAP1 DUP4 ISZERO ISZERO MUL OR SWAP1 SSTORE POP PUSH1 0x1 PUSH1 0xC PUSH0 DUP7 PUSH1 0x1 PUSH1 0x1 PUSH1 0xA0 SHL SUB AND PUSH1 0x1 PUSH1 0x1 PUSH1 0xA0 SHL SUB AND DUP2 MSTORE PUSH1 0x20 ADD SWAP1 DUP2 MSTORE PUSH1 0x20 ADD PUSH0 KECCAK256 PUSH0 DUP3 DUP3 SLOAD PUSH2 0x145F SWAP2 SWAP1 PUSH2 0x394A JUMP JUMPDEST SWAP3 POP POP DUP2 SWAP1 SSTORE POP PUSH1 0x1 PUSH1 0xF PUSH0 DUP6 DUP5 DUP2 MLOAD DUP2 LT PUSH2 0x147D JUMPI PUSH2 0x147D PUSH2 0x3936 JUMP JUMPDEST PUSH1 0x20 MUL PUSH1 0x20 ADD ADD MLOAD DUP2 MSTORE PUSH1 0x20 ADD SWAP1 DUP2 MSTORE PUSH1 0x20 ADD PUSH0 KECCAK256 PUSH0 DUP3 DUP3 SLOAD PUSH2 0x14A0 SWAP2 SWAP1 PUSH2 0x38C4 JUMP JUMPDEST SWAP1 SWAP2 SSTORE POP DUP2 SWAP1 POP PUSH2 0x14B0 DUP2 PUSH2 0x395D JUMP JUMPDEST SWAP2 POP POP PUSH2 0x136B JUMP JUMPDEST PUSH1 0x40 MLOAD PUSH1 0x2B PUSH1 0xF9 SHL PUSH1 0x20 DUP3 ADD MSTORE PUSH1 0x21 ADD PUSH1 0x40 MLOAD PUSH1 0x20 DUP2 DUP4 SUB SUB DUP2 MSTORE SWAP1 PUSH1 0x40 MSTORE DUP1 MLOAD SWAP1 PUSH1 0x20 ADD KECCAK256 DUP2 PUSH1 0x40 MLOAD PUSH1 0x20 ADD PUSH2 0x14EF SWAP2 SWAP1 PUSH2 0x38D7 JUMP JUMPDEST PUSH1 0x40 MLOAD PUSH1 0x20 DUP2 DUP4 SUB SUB DUP2 MSTORE SWAP1 PUSH1 0x40 MSTORE DUP1 MLOAD SWAP1 PUSH1 0x20 ADD KECCAK256 SUB PUSH2 0x168D JUMPI DUP2 MLOAD PUSH1 0x1 PUSH1 0x1 PUSH1 0xA0 SHL SUB DUP5 AND PUSH0 SWAP1 DUP2 MSTORE PUSH1 0xD PUSH1 0x20 MSTORE PUSH1 0x40 SWAP1 KECCAK256 SLOAD LT ISZERO PUSH2 0x1542 JUMPI PUSH1 0x40 MLOAD PUSH3 0x461BCD PUSH1 0xE5 SHL DUP2 MSTORE PUSH1 0x4 ADD PUSH2 0xBF8 SWAP1 PUSH2 0x38F2 JUMP JUMPDEST PUSH0 JUMPDEST DUP3 MLOAD DUP2 LT ISZERO PUSH2 0x12D5 JUMPI PUSH1 0x5 PUSH0 DUP5 DUP4 DUP2 MLOAD DUP2 LT PUSH2 0x1562 JUMPI PUSH2 0x1562 PUSH2 0x3936 JUMP JUMPDEST PUSH1 0x20 SWAP1 DUP2 MUL SWAP2 SWAP1 SWAP2 ADD DUP2 ADD MLOAD DUP3 MSTORE DUP2 ADD SWAP2 SWAP1 SWAP2 MSTORE PUSH1 0x40 ADD PUSH0 KECCAK256 SLOAD PUSH1 0xFF AND ISZERO PUSH2 0x15BF JUMPI PUSH1 0x40 MLOAD PUSH3 0x461BCD PUSH1 0xE5 SHL DUP2 MSTORE PUSH1 0x20 PUSH1 0x4 DUP3 ADD MSTORE PUSH1 0x10 PUSH1 0x24 DUP3 ADD MSTORE PUSH16 0x20B63932B0B23C9030B1BA34BB32902B PUSH1 0x81 SHL PUSH1 0x44 DUP3 ADD MSTORE PUSH1 0x64 ADD PUSH2 0xBF8 JUMP JUMPDEST PUSH1 0x1 PUSH1 0x5 PUSH0 DUP6 DUP5 DUP2 MLOAD DUP2 LT PUSH2 0x15D6 JUMPI PUSH2 0x15D6 PUSH2 0x3936 JUMP JUMPDEST PUSH1 0x20 MUL PUSH1 0x20 ADD ADD MLOAD DUP2 MSTORE PUSH1 0x20 ADD SWAP1 DUP2 MSTORE PUSH1 0x20 ADD PUSH0 KECCAK256 PUSH0 PUSH2 0x100 EXP DUP2 SLOAD DUP2 PUSH1 0xFF MUL NOT AND SWAP1 DUP4 ISZERO ISZERO MUL OR SWAP1 SSTORE POP PUSH1 0x1 PUSH1 0xD PUSH0 DUP7 PUSH1 0x1 PUSH1 0x1 PUSH1 0xA0 SHL SUB AND PUSH1 0x1 PUSH1 0x1 PUSH1 0xA0 SHL SUB AND DUP2 MSTORE PUSH1 0x20 ADD SWAP1 DUP2 MSTORE PUSH1 0x20 ADD PUSH0 KECCAK256 PUSH0 DUP3 DUP3 SLOAD PUSH2 0x1634 SWAP2 SWAP1 PUSH2 0x394A JUMP JUMPDEST SWAP3 POP POP DUP2 SWAP1 SSTORE POP PUSH1 0x1 PUSH1 0xF PUSH0 DUP6 DUP5 DUP2 MLOAD DUP2 LT PUSH2 0x1652 JUMPI PUSH2 0x1652 PUSH2 0x3936 JUMP JUMPDEST PUSH1 0x20 MUL PUSH1 0x20 ADD ADD MLOAD DUP2 MSTORE PUSH1 0x20 ADD SWAP1 DUP2 MSTORE PUSH1 0x20 ADD PUSH0 KECCAK256 PUSH0 DUP3 DUP3 SLOAD PUSH2 0x1675 SWAP2 SWAP1 PUSH2 0x38C4 JUMP JUMPDEST SWAP1 SWAP2 SSTORE POP DUP2 SWAP1 POP PUSH2 0x1685 DUP2 PUSH2 0x395D JUMP JUMPDEST SWAP2 POP POP PUSH2 0x1544 JUMP JUMPDEST PUSH1 0x40 MLOAD PUSH4 0x534B495 PUSH1 0xE4 SHL PUSH1 0x20 DUP3 ADD MSTORE PUSH1 0x24 ADD PUSH1 0x40 MLOAD PUSH1 0x20 DUP2 DUP4 SUB SUB DUP2 MSTORE SWAP1 PUSH1 0x40 MSTORE DUP1 MLOAD SWAP1 PUSH1 0x20 ADD KECCAK256 DUP2 PUSH1 0x40 MLOAD PUSH1 0x20 ADD PUSH2 0x16C7 SWAP2 SWAP1 PUSH2 0x38D7 JUMP JUMPDEST PUSH1 0x40 MLOAD PUSH1 0x20 DUP2 DUP4 SUB SUB DUP2 MSTORE SWAP1 PUSH1 0x40 MSTORE DUP1 MLOAD SWAP1 PUSH1 0x20 ADD KECCAK256 SUB PUSH2 0x1868 JUMPI DUP2 MLOAD PUSH1 0x1 PUSH1 0x1 PUSH1 0xA0 SHL SUB DUP5 AND PUSH0 SWAP1 DUP2 MSTORE PUSH1 0xE PUSH1 0x20 MSTORE PUSH1 0x40 SWAP1 KECCAK256 SLOAD LT ISZERO PUSH2 0x171A JUMPI PUSH1 0x40 MLOAD PUSH3 0x461BCD PUSH1 0xE5 SHL DUP2 MSTORE PUSH1 0x4 ADD PUSH2 0xBF8 SWAP1 PUSH2 0x38F2 JUMP JUMPDEST PUSH0 JUMPDEST DUP3 MLOAD DUP2 LT ISZERO PUSH2 0x12D5 JUMPI PUSH1 0x7 PUSH0 DUP5 DUP4 DUP2 MLOAD DUP2 LT PUSH2 0x173A JUMPI PUSH2 0x173A PUSH2 0x3936 JUMP JUMPDEST PUSH1 0x20 SWAP1 DUP2 MUL SWAP2 SWAP1 SWAP2 ADD DUP2 ADD MLOAD DUP3 MSTORE DUP2 ADD SWAP2 SWAP1 SWAP2 MSTORE PUSH1 0x40 ADD PUSH0 KECCAK256 SLOAD PUSH1 0xFF AND ISZERO PUSH2 0x179A JUMPI PUSH1 0x40 MLOAD PUSH3 0x461BCD PUSH1 0xE5 SHL DUP2 MSTORE PUSH1 0x20 PUSH1 0x4 DUP3 ADD MSTORE PUSH1 0x13 PUSH1 0x24 DUP3 ADD MSTORE PUSH19 0x416C72656164792061637469766520534B495 PUSH1 0x6C SHL PUSH1 0x44 DUP3 ADD MSTORE PUSH1 0x64 ADD PUSH2 0xBF8 JUMP JUMPDEST PUSH1 0x1 PUSH1 0x7 PUSH0 DUP6 DUP5 DUP2 MLOAD DUP2 LT PUSH2 0x17B1 JUMPI PUSH2 0x17B1 PUSH2 0x3936 JUMP JUMPDEST PUSH1 0x20 MUL PUSH1 0x20 ADD ADD MLOAD DUP2 MSTORE PUSH1 0x20 ADD SWAP1 DUP2 MSTORE PUSH1 0x20 ADD PUSH0 KECCAK256 PUSH0 PUSH2 0x100 EXP DUP2 SLOAD DUP2 PUSH1 0xFF MUL NOT AND SWAP1 DUP4 ISZERO ISZERO MUL OR SWAP1 SSTORE POP PUSH1 0x1 PUSH1 0xE PUSH0 DUP7 PUSH1 0x1 PUSH1 0x1 PUSH1 0xA0 SHL SUB AND PUSH1 0x1 PUSH1 0x1 PUSH1 0xA0 SHL SUB AND DUP2 MSTORE PUSH1 0x20 ADD SWAP1 DUP2 MSTORE PUSH1 0x20 ADD PUSH0 KECCAK256 PUSH0 DUP3 DUP3 SLOAD PUSH2 0x180F SWAP2 SWAP1 PUSH2 0x394A JUMP JUMPDEST SWAP3 POP POP DUP2 SWAP1 SSTORE POP PUSH1 0x1 PUSH1 0xF PUSH0 DUP6 DUP5 DUP2 MLOAD DUP2 LT PUSH2 0x182D JUMPI PUSH2 0x182D PUSH2 0x3936 JUMP JUMPDEST PUSH1 0x20 MUL PUSH1 0x20 ADD ADD MLOAD DUP2 MSTORE PUSH1 0x20 ADD SWAP1 DUP2 MSTORE PUSH1 0x20 ADD PUSH0 KECCAK256 PUSH0 DUP3 DUP3 SLOAD PUSH2 0x1850 SWAP2 SWAP1 PUSH2 0x38C4 JUMP JUMPDEST SWAP1 SWAP2 SSTORE POP DUP2 SWAP1 POP PUSH2 0x1860 DUP2 PUSH2 0x395D JUMP JUMPDEST SWAP2 POP POP PUSH2 0x171C JUMP JUMPDEST PUSH1 0x40 MLOAD PUSH3 0x461BCD PUSH1 0xE5 SHL DUP2 MSTORE PUSH1 0x20 PUSH1 0x4 DUP3 ADD MSTORE PUSH1 0x11 PUSH1 0x24 DUP3 ADD MSTORE PUSH17 0x57726F6E6720506F74696F6E204E616D65 PUSH1 0x78 SHL PUSH1 0x44 DUP3 ADD MSTORE PUSH1 0x64 ADD PUSH2 0xBF8 JUMP JUMPDEST POP POP POP JUMP JUMPDEST PUSH1 0x10 SLOAD PUSH1 0x1 PUSH1 0x1 PUSH1 0xA0 SHL SUB AND CALLER EQ PUSH2 0x18BF JUMPI PUSH0 DUP1 REVERT JUMPDEST PUSH1 0x22 DUP3 SWAP1 SSTORE PUSH2 0x18D0 PUSH1 0x3 PUSH1 0x9 PUSH2 0x3771 JUMP JUMPDEST PUSH2 0x18DB SWAP1 PUSH1 0xA PUSH2 0x386A JUMP JUMPDEST PUSH2 0x18E5 SWAP1 DUP3 PUSH2 0x3878 JUMP JUMPDEST PUSH1 0x26 SSTORE POP POP JUMP JUMPDEST PUSH0 DUP4 GT DUP1 PUSH2 0x18F9 JUMPI POP PUSH0 DUP3 GT JUMPDEST PUSH2 0x1945 JUMPI PUSH1 0x40 MLOAD PUSH3 0x461BCD PUSH1 0xE5 SHL DUP2 MSTORE PUSH1 0x20 PUSH1 0x4 DUP3 ADD MSTORE PUSH1 0x1F PUSH1 0x24 DUP3 ADD MSTORE PUSH32 0x416D6F756E742073686F756C642062652067726561746572207468616E203000 PUSH1 0x44 DUP3 ADD MSTORE PUSH1 0x64 ADD PUSH2 0xBF8 JUMP JUMPDEST DUP2 CALLVALUE LT ISZERO PUSH2 0x1991 JUMPI PUSH1 0x40 MLOAD PUSH3 0x461BCD PUSH1 0xE5 SHL DUP2 MSTORE PUSH1 0x20 PUSH1 0x4 DUP3 ADD MSTORE PUSH1 0x19 PUSH1 0x24 DUP3 ADD MSTORE PUSH25 0x125B98DBDC9C9958DD0811551208185B5BDD5B9D081CD95B9D PUSH1 0x3A SHL PUSH1 0x44 DUP3 ADD MSTORE PUSH1 0x64 ADD PUSH2 0xBF8 JUMP JUMPDEST DUP3 ISZERO PUSH2 0x1A2E JUMPI PUSH1 0x1 PUSH1 0x1 PUSH1 0xA0 SHL SUB DUP2 AND PUSH0 SWAP1 DUP2 MSTORE PUSH1 0x1 PUSH1 0x20 MSTORE PUSH1 0x40 SWAP1 KECCAK256 SLOAD DUP4 GT ISZERO PUSH2 0x19F7 JUMPI PUSH1 0x40 MLOAD PUSH3 0x461BCD PUSH1 0xE5 SHL DUP2 MSTORE PUSH1 0x20 PUSH1 0x4 DUP3 ADD MSTORE PUSH1 0x16 PUSH1 0x24 DUP3 ADD MSTORE PUSH22 0x4E6F7420656E6F7567682048474D5320746F6B656E73 PUSH1 0x50 SHL PUSH1 0x44 DUP3 ADD MSTORE PUSH1 0x64 ADD PUSH2 0xBF8 JUMP JUMPDEST PUSH2 0x1A01 DUP2 DUP5 PUSH2 0x2D9D JUMP JUMPDEST PUSH1 0x1 PUSH1 0x1 PUSH1 0xA0 SHL SUB DUP2 AND PUSH0 SWAP1 DUP2 MSTORE PUSH1 0x9 PUSH1 0x20 MSTORE PUSH1 0x40 DUP2 KECCAK256 DUP1 SLOAD DUP6 SWAP3 SWAP1 PUSH2 0x1A28 SWAP1 DUP5 SWAP1 PUSH2 0x38C4 JUMP JUMPDEST SWAP1 SWAP2 SSTORE POP POP JUMPDEST DUP2 ISZERO PUSH2 0x1A6A JUMPI PUSH1 0x1 PUSH1 0x1 PUSH1 0xA0 SHL SUB DUP2 AND PUSH0 SWAP1 DUP2 MSTORE PUSH1 0xA PUSH1 0x20 MSTORE PUSH1 0x40 DUP2 KECCAK256 DUP1 SLOAD DUP5 SWAP3 SWAP1 PUSH2 0x1A5B SWAP1 DUP5 SWAP1 PUSH2 0x38C4 JUMP JUMPDEST SWAP1 SWAP2 SSTORE POP PUSH2 0x1A6A SWAP1 POP CALLVALUE PUSH2 0x2F18 JUMP JUMPDEST PUSH1 0x40 MLOAD PUSH32 0xED21248CB703B524CC0029BB8669DF941BACA560163A3BC6AD184E7E9C268070 SWAP1 PUSH0 SWAP1 LOG1 POP POP POP JUMP JUMPDEST PUSH1 0x12 SLOAD PUSH1 0x1 PUSH1 0x1 PUSH1 0xA0 SHL SUB AND CALLER PUSH1 0x1 PUSH1 0x1 PUSH1 0xA0 SHL SUB AND EQ PUSH2 0x1AB6 JUMPI PUSH0 DUP1 REVERT JUMPDEST ADDRESS PUSH0 SWAP1 DUP2 MSTORE PUSH1 0x1 PUSH1 0x20 MSTORE PUSH1 0x40 SWAP1 KECCAK256 SLOAD DUP1 ISZERO PUSH2 0x1AD4 JUMPI PUSH2 0x1AD4 DUP2 PUSH2 0x30E3 JUMP JUMPDEST SELFBALANCE DUP1 ISZERO PUSH2 0xC6A JUMPI PUSH2 0xC6A DUP2 PUSH2 0x2F18 JUMP JUMPDEST PUSH1 0x10 SLOAD PUSH1 0x1 PUSH1 0x1 PUSH1 0xA0 SHL SUB AND CALLER EQ PUSH2 0x1AFA JUMPI PUSH0 DUP1 REVERT JUMPDEST PUSH1 0x40 MLOAD PUSH4 0x58545241 PUSH1 0xE0 SHL PUSH1 0x20 DUP3 ADD MSTORE PUSH1 0x24 ADD PUSH1 0x40 MLOAD PUSH1 0x20 DUP2 DUP4 SUB SUB DUP2 MSTORE SWAP1 PUSH1 0x40 MSTORE DUP1 MLOAD SWAP1 PUSH1 0x20 ADD KECCAK256 DUP4 PUSH1 0x40 MLOAD PUSH1 0x20 ADD PUSH2 0x1B34 SWAP2 SWAP1 PUSH2 0x38D7 JUMP JUMPDEST PUSH1 0x40 MLOAD PUSH1 0x20 DUP2 DUP4 SUB SUB DUP2 MSTORE SWAP1 PUSH1 0x40 MSTORE DUP1 MLOAD SWAP1 PUSH1 0x20 ADD KECCAK256 SUB PUSH2 0x1CBB JUMPI PUSH1 0x22 SLOAD PUSH0 SWAP1 PUSH2 0x1B5E SWAP1 DUP4 PUSH2 0x3253 JUMP JUMPDEST SWAP1 POP PUSH0 PUSH2 0x1B76 DUP4 PUSH1 0x26 SLOAD PUSH2 0x3253 SWAP1 SWAP2 SWAP1 PUSH4 0xFFFFFFFF AND JUMP JUMPDEST PUSH1 0x1 PUSH1 0x1 PUSH1 0xA0 SHL SUB DUP6 AND PUSH0 SWAP1 DUP2 MSTORE PUSH1 0x9 PUSH1 0x20 MSTORE PUSH1 0x40 SWAP1 KECCAK256 SLOAD SWAP1 SWAP2 POP DUP3 GT ISZERO PUSH2 0x1BB0 JUMPI PUSH1 0x40 MLOAD PUSH3 0x461BCD PUSH1 0xE5 SHL DUP2 MSTORE PUSH1 0x4 ADD PUSH2 0xBF8 SWAP1 PUSH2 0x3975 JUMP JUMPDEST PUSH1 0x1 PUSH1 0x1 PUSH1 0xA0 SHL SUB DUP5 AND PUSH0 SWAP1 DUP2 MSTORE PUSH1 0xA PUSH1 0x20 MSTORE PUSH1 0x40 SWAP1 KECCAK256 SLOAD DUP2 GT ISZERO PUSH2 0x1BE7 JUMPI PUSH1 0x40 MLOAD PUSH3 0x461BCD PUSH1 0xE5 SHL DUP2 MSTORE PUSH1 0x4 ADD PUSH2 0xBF8 SWAP1 PUSH2 0x39B6 JUMP JUMPDEST PUSH1 0x1 PUSH1 0x1 PUSH1 0xA0 SHL SUB DUP5 AND PUSH0 SWAP1 DUP2 MSTORE PUSH1 0x9 PUSH1 0x20 MSTORE PUSH1 0x40 DUP2 KECCAK256 DUP1 SLOAD DUP5 SWAP3 SWAP1 PUSH2 0x1C0E SWAP1 DUP5 SWAP1 PUSH2 0x394A JUMP JUMPDEST SWAP1 SWAP2 SSTORE POP POP PUSH1 0x1 PUSH1 0x1 PUSH1 0xA0 SHL SUB DUP5 AND PUSH0 SWAP1 DUP2 MSTORE PUSH1 0xA PUSH1 0x20 MSTORE PUSH1 0x40 DUP2 KECCAK256 DUP1 SLOAD DUP4 SWAP3 SWAP1 PUSH2 0x1C3A SWAP1 DUP5 SWAP1 PUSH2 0x394A JUMP JUMPDEST SWAP1 SWAP2 SSTORE POP POP PUSH1 0x1 PUSH1 0x1 PUSH1 0xA0 SHL SUB DUP5 AND PUSH0 SWAP1 DUP2 MSTORE PUSH1 0xB PUSH1 0x20 MSTORE PUSH1 0x40 DUP2 KECCAK256 DUP1 SLOAD DUP6 SWAP3 SWAP1 PUSH2 0x1C66 SWAP1 DUP5 SWAP1 PUSH2 0x38C4 JUMP JUMPDEST SWAP1 SWAP2 SSTORE POP POP PUSH1 0x40 MLOAD PUSH1 0x1 PUSH1 0x1 PUSH1 0xA0 SHL SUB DUP6 AND SWAP1 CALLER SWAP1 PUSH32 0x3D57EEC5AB68AE7C8F1ED6299A36D8E6F61253E0F24AC6ABA38BC3FCBE7BC7AE SWAP1 PUSH2 0x1CAC SWAP1 DUP10 SWAP1 DUP7 SWAP1 DUP9 SWAP1 PUSH2 0x39EB JUMP JUMPDEST PUSH1 0x40 MLOAD DUP1 SWAP2 SUB SWAP1 LOG3 POP POP POP POP POP JUMP JUMPDEST PUSH1 0x40 MLOAD PUSH5 0x1093D3D4D5 PUSH1 0xDA SHL PUSH1 0x20 DUP3 ADD MSTORE PUSH1 0x25 ADD PUSH1 0x40 MLOAD PUSH1 0x20 DUP2 DUP4 SUB SUB DUP2 MSTORE SWAP1 PUSH1 0x40 MSTORE DUP1 MLOAD SWAP1 PUSH1 0x20 ADD KECCAK256 DUP4 PUSH1 0x40 MLOAD PUSH1 0x20 ADD PUSH2 0x1CF6 SWAP2 SWAP1 PUSH2 0x38D7 JUMP JUMPDEST PUSH1 0x40 MLOAD PUSH1 0x20 DUP2 DUP4 SUB SUB DUP2 MSTORE SWAP1 PUSH1 0x40 MSTORE DUP1 MLOAD SWAP1 PUSH1 0x20 ADD KECCAK256 SUB PUSH2 0x1E28 JUMPI PUSH1 0x23 SLOAD PUSH0 SWAP1 PUSH2 0x1D20 SWAP1 DUP4 PUSH2 0x3253 JUMP JUMPDEST SWAP1 POP PUSH0 PUSH2 0x1D38 DUP4 PUSH1 0x27 SLOAD PUSH2 0x3253 SWAP1 SWAP2 SWAP1 PUSH4 0xFFFFFFFF AND JUMP JUMPDEST PUSH1 0x1 PUSH1 0x1 PUSH1 0xA0 SHL SUB DUP6 AND PUSH0 SWAP1 DUP2 MSTORE PUSH1 0x9 PUSH1 0x20 MSTORE PUSH1 0x40 SWAP1 KECCAK256 SLOAD SWAP1 SWAP2 POP DUP3 GT ISZERO PUSH2 0x1D72 JUMPI PUSH1 0x40 MLOAD PUSH3 0x461BCD PUSH1 0xE5 SHL DUP2 MSTORE PUSH1 0x4 ADD PUSH2 0xBF8 SWAP1 PUSH2 0x3975 JUMP JUMPDEST PUSH1 0x1 PUSH1 0x1 PUSH1 0xA0 SHL SUB DUP5 AND PUSH0 SWAP1 DUP2 MSTORE PUSH1 0xA PUSH1 0x20 MSTORE PUSH1 0x40 SWAP1 KECCAK256 SLOAD DUP2 GT ISZERO PUSH2 0x1DA9 JUMPI PUSH1 0x40 MLOAD PUSH3 0x461BCD PUSH1 0xE5 SHL DUP2 MSTORE PUSH1 0x4 ADD PUSH2 0xBF8 SWAP1 PUSH2 0x39B6 JUMP JUMPDEST PUSH1 0x1 PUSH1 0x1 PUSH1 0xA0 SHL SUB DUP5 AND PUSH0 SWAP1 DUP2 MSTORE PUSH1 0x9 PUSH1 0x20 MSTORE PUSH1 0x40 DUP2 KECCAK256 DUP1 SLOAD DUP5 SWAP3 SWAP1 PUSH2 0x1DD0 SWAP1 DUP5 SWAP1 PUSH2 0x394A JUMP JUMPDEST SWAP1 SWAP2 SSTORE POP POP PUSH1 0x1 PUSH1 0x1 PUSH1 0xA0 SHL SUB DUP5 AND PUSH0 SWAP1 DUP2 MSTORE PUSH1 0xA PUSH1 0x20 MSTORE PUSH1 0x40 DUP2 KECCAK256 DUP1 SLOAD DUP4 SWAP3 SWAP1 PUSH2 0x1DFC SWAP1 DUP5 SWAP1 PUSH2 0x394A JUMP JUMPDEST SWAP1 SWAP2 SSTORE POP POP PUSH1 0x1 PUSH1 0x1 PUSH1 0xA0 SHL SUB DUP5 AND PUSH0 SWAP1 DUP2 MSTORE PUSH1 0xC PUSH1 0x20 MSTORE PUSH1 0x40 DUP2 KECCAK256 DUP1 SLOAD DUP6 SWAP3 SWAP1 PUSH2 0x1C66 SWAP1 DUP5 SWAP1 PUSH2 0x38C4 JUMP JUMPDEST PUSH1 0x40 MLOAD PUSH1 0x2B PUSH1 0xF9 SHL PUSH1 0x20 DUP3 ADD MSTORE PUSH1 0x21 ADD PUSH1 0x40 MLOAD PUSH1 0x20 DUP2 DUP4 SUB SUB DUP2 MSTORE SWAP1 PUSH1 0x40 MSTORE DUP1 MLOAD SWAP1 PUSH1 0x20 ADD KECCAK256 DUP4 PUSH1 0x40 MLOAD PUSH1 0x20 ADD PUSH2 0x1E5F SWAP2 SWAP1 PUSH2 0x38D7 JUMP JUMPDEST PUSH1 0x40 MLOAD PUSH1 0x20 DUP2 DUP4 SUB SUB DUP2 MSTORE SWAP1 PUSH1 0x40 MSTORE DUP1 MLOAD SWAP1 PUSH1 0x20 ADD KECCAK256 SUB PUSH2 0x1F91 JUMPI PUSH1 0x24 SLOAD PUSH0 SWAP1 PUSH2 0x1E89 SWAP1 DUP4 PUSH2 0x3253 JUMP JUMPDEST SWAP1 POP PUSH0 PUSH2 0x1EA1 DUP4 PUSH1 0x28 SLOAD PUSH2 0x3253 SWAP1 SWAP2 SWAP1 PUSH4 0xFFFFFFFF AND JUMP JUMPDEST PUSH1 0x1 PUSH1 0x1 PUSH1 0xA0 SHL SUB DUP6 AND PUSH0 SWAP1 DUP2 MSTORE PUSH1 0x9 PUSH1 0x20 MSTORE PUSH1 0x40 SWAP1 KECCAK256 SLOAD SWAP1 SWAP2 POP DUP3 GT ISZERO PUSH2 0x1EDB JUMPI PUSH1 0x40 MLOAD PUSH3 0x461BCD PUSH1 0xE5 SHL DUP2 MSTORE PUSH1 0x4 ADD PUSH2 0xBF8 SWAP1 PUSH2 0x3975 JUMP JUMPDEST PUSH1 0x1 PUSH1 0x1 PUSH1 0xA0 SHL SUB DUP5 AND PUSH0 SWAP1 DUP2 MSTORE PUSH1 0xA PUSH1 0x20 MSTORE PUSH1 0x40 SWAP1 KECCAK256 SLOAD DUP2 GT ISZERO PUSH2 0x1F12 JUMPI PUSH1 0x40 MLOAD PUSH3 0x461BCD PUSH1 0xE5 SHL DUP2 MSTORE PUSH1 0x4 ADD PUSH2 0xBF8 SWAP1 PUSH2 0x39B6 JUMP JUMPDEST PUSH1 0x1 PUSH1 0x1 PUSH1 0xA0 SHL SUB DUP5 AND PUSH0 SWAP1 DUP2 MSTORE PUSH1 0x9 PUSH1 0x20 MSTORE PUSH1 0x40 DUP2 KECCAK256 DUP1 SLOAD DUP5 SWAP3 SWAP1 PUSH2 0x1F39 SWAP1 DUP5 SWAP1 PUSH2 0x394A JUMP JUMPDEST SWAP1 SWAP2 SSTORE POP POP PUSH1 0x1 PUSH1 0x1 PUSH1 0xA0 SHL SUB DUP5 AND PUSH0 SWAP1 DUP2 MSTORE PUSH1 0xA PUSH1 0x20 MSTORE PUSH1 0x40 DUP2 KECCAK256 DUP1 SLOAD DUP4 SWAP3 SWAP1 PUSH2 0x1F65 SWAP1 DUP5 SWAP1 PUSH2 0x394A JUMP JUMPDEST SWAP1 SWAP2 SSTORE POP POP PUSH1 0x1 PUSH1 0x1 PUSH1 0xA0 SHL SUB DUP5 AND PUSH0 SWAP1 DUP2 MSTORE PUSH1 0xD PUSH1 0x20 MSTORE PUSH1 0x40 DUP2 KECCAK256 DUP1 SLOAD DUP6 SWAP3 SWAP1 PUSH2 0x1C66 SWAP1 DUP5 SWAP1 PUSH2 0x38C4 JUMP JUMPDEST PUSH1 0x40 MLOAD PUSH4 0x534B495 PUSH1 0xE4 SHL PUSH1 0x20 DUP3 ADD MSTORE PUSH1 0x24 ADD PUSH1 0x40 MLOAD PUSH1 0x20 DUP2 DUP4 SUB SUB DUP2 MSTORE SWAP1 PUSH1 0x40 MSTORE DUP1 MLOAD SWAP1 PUSH1 0x20 ADD KECCAK256 DUP4 PUSH1 0x40 MLOAD PUSH1 0x20 ADD PUSH2 0x1FCB SWAP2 SWAP1 PUSH2 0x38D7 JUMP JUMPDEST PUSH1 0x40 MLOAD PUSH1 0x20 DUP2 DUP4 SUB SUB DUP2 MSTORE SWAP1 PUSH1 0x40 MSTORE DUP1 MLOAD SWAP1 PUSH1 0x20 ADD KECCAK256 SUB PUSH2 0x20FD JUMPI PUSH1 0x25 SLOAD PUSH0 SWAP1 PUSH2 0x1FF5 SWAP1 DUP4 PUSH2 0x3253 JUMP JUMPDEST SWAP1 POP PUSH0 PUSH2 0x200D DUP4 PUSH1 0x29 SLOAD PUSH2 0x3253 SWAP1 SWAP2 SWAP1 PUSH4 0xFFFFFFFF AND JUMP JUMPDEST PUSH1 0x1 PUSH1 0x1 PUSH1 0xA0 SHL SUB DUP6 AND PUSH0 SWAP1 DUP2 MSTORE PUSH1 0x9 PUSH1 0x20 MSTORE PUSH1 0x40 SWAP1 KECCAK256 SLOAD SWAP1 SWAP2 POP DUP3 GT ISZERO PUSH2 0x2047 JUMPI PUSH1 0x40 MLOAD PUSH3 0x461BCD PUSH1 0xE5 SHL DUP2 MSTORE PUSH1 0x4 ADD PUSH2 0xBF8 SWAP1 PUSH2 0x3975 JUMP JUMPDEST PUSH1 0x1 PUSH1 0x1 PUSH1 0xA0 SHL SUB DUP5 AND PUSH0 SWAP1 DUP2 MSTORE PUSH1 0xA PUSH1 0x20 MSTORE PUSH1 0x40 SWAP1 KECCAK256 SLOAD DUP2 GT ISZERO PUSH2 0x207E JUMPI PUSH1 0x40 MLOAD PUSH3 0x461BCD PUSH1 0xE5 SHL DUP2 MSTORE PUSH1 0x4 ADD PUSH2 0xBF8 SWAP1 PUSH2 0x39B6 JUMP JUMPDEST PUSH1 0x1 PUSH1 0x1 PUSH1 0xA0 SHL SUB DUP5 AND PUSH0 SWAP1 DUP2 MSTORE PUSH1 0x9 PUSH1 0x20 MSTORE PUSH1 0x40 DUP2 KECCAK256 DUP1 SLOAD DUP5 SWAP3 SWAP1 PUSH2 0x20A5 SWAP1 DUP5 SWAP1 PUSH2 0x394A JUMP JUMPDEST SWAP1 SWAP2 SSTORE POP POP PUSH1 0x1 PUSH1 0x1 PUSH1 0xA0 SHL SUB DUP5 AND PUSH0 SWAP1 DUP2 MSTORE PUSH1 0xA PUSH1 0x20 MSTORE PUSH1 0x40 DUP2 KECCAK256 DUP1 SLOAD DUP4 SWAP3 SWAP1 PUSH2 0x20D1 SWAP1 DUP5 SWAP1 PUSH2 0x394A JUMP JUMPDEST SWAP1 SWAP2 SSTORE POP POP PUSH1 0x1 PUSH1 0x1 PUSH1 0xA0 SHL SUB DUP5 AND PUSH0 SWAP1 DUP2 MSTORE PUSH1 0xE PUSH1 0x20 MSTORE PUSH1 0x40 DUP2 KECCAK256 DUP1 SLOAD DUP6 SWAP3 SWAP1 PUSH2 0x1C66 SWAP1 DUP5 SWAP1 PUSH2 0x38C4 JUMP JUMPDEST PUSH1 0x40 MLOAD PUSH3 0x461BCD PUSH1 0xE5 SHL DUP2 MSTORE PUSH1 0x20 PUSH1 0x4 DUP3 ADD MSTORE PUSH1 0x13 PUSH1 0x24 DUP3 ADD MSTORE PUSH19 0x496E76616C696420506F74696F6E204E616D65 PUSH1 0x68 SHL PUSH1 0x44 DUP3 ADD MSTORE PUSH1 0x64 ADD PUSH2 0xBF8 JUMP JUMPDEST PUSH0 PUSH2 0xC7A CALLER DUP5 DUP5 PUSH2 0x265F JUMP JUMPDEST PUSH1 0x10 SLOAD PUSH1 0x1 PUSH1 0x1 PUSH1 0xA0 SHL SUB AND CALLER EQ PUSH2 0x215D JUMPI PUSH0 DUP1 REVERT JUMPDEST PUSH1 0x24 DUP3 SWAP1 SSTORE PUSH2 0x216E PUSH1 0x3 PUSH1 0x9 PUSH2 0x3771 JUMP JUMPDEST PUSH2 0x2179 SWAP1 PUSH1 0xA PUSH2 0x386A JUMP JUMPDEST PUSH2 0x2183 SWAP1 DUP3 PUSH2 0x3878 JUMP JUMPDEST PUSH1 0x28 SSTORE POP POP JUMP JUMPDEST PUSH1 0x14 SLOAD PUSH1 0x1 PUSH1 0x1 PUSH1 0xA0 SHL SUB AND CALLER EQ PUSH2 0x21D5 JUMPI PUSH1 0x40 MLOAD PUSH3 0x461BCD PUSH1 0xE5 SHL DUP2 MSTORE PUSH1 0x20 PUSH1 0x4 DUP3 ADD MSTORE PUSH1 0xE PUSH1 0x24 DUP3 ADD MSTORE PUSH14 0x139BDD08185D5D1A1BDC9A5E9959 PUSH1 0x92 SHL PUSH1 0x44 DUP3 ADD MSTORE PUSH1 0x64 ADD PUSH2 0xBF8 JUMP JUMPDEST PUSH1 0x1 PUSH1 0x1 PUSH1 0xA0 SHL SUB DUP3 AND PUSH2 0x8FC PUSH2 0x21F8 PUSH2 0x21F1 PUSH1 0x9 PUSH1 0xA PUSH2 0x386A JUMP JUMPDEST DUP5 SWAP1 PUSH2 0x32D8 JUMP JUMPDEST PUSH1 0x40 MLOAD DUP2 ISZERO SWAP1 SWAP3 MUL SWAP2 PUSH0 DUP2 DUP2 DUP2 DUP6 DUP9 DUP9 CALL SWAP4 POP POP POP POP ISZERO DUP1 ISZERO PUSH2 0x18A4 JUMPI RETURNDATASIZE PUSH0 DUP1 RETURNDATACOPY RETURNDATASIZE PUSH0 REVERT JUMPDEST PUSH0 SLOAD PUSH1 0x1 PUSH1 0x1 PUSH1 0xA0 SHL SUB AND CALLER EQ PUSH2 0x2246 JUMPI PUSH1 0x40 MLOAD PUSH3 0x461BCD PUSH1 0xE5 SHL DUP2 MSTORE PUSH1 0x4 ADD PUSH2 0xBF8 SWAP1 PUSH2 0x388F JUMP JUMPDEST PUSH1 0x2B SLOAD PUSH1 0x1 PUSH1 0xA0 SHL SWAP1 DIV PUSH1 0xFF AND ISZERO PUSH2 0x22A0 JUMPI PUSH1 0x40 MLOAD PUSH3 0x461BCD PUSH1 0xE5 SHL DUP2 MSTORE PUSH1 0x20 PUSH1 0x4 DUP3 ADD MSTORE PUSH1 0x17 PUSH1 0x24 DUP3 ADD MSTORE PUSH32 0x74726164696E6720697320616C7265616479206F70656E000000000000000000 PUSH1 0x44 DUP3 ADD MSTORE PUSH1 0x64 ADD PUSH2 0xBF8 JUMP JUMPDEST PUSH1 0x2A DUP1 SLOAD PUSH1 0x1 PUSH1 0x1 PUSH1 0xA0 SHL SUB NOT AND PUSH20 0x7A250D5630B4CF539739DF2C5DACB4C659F2488D SWAP1 DUP2 OR SWAP1 SWAP2 SSTORE PUSH1 0x1D SLOAD PUSH2 0x22D7 SWAP2 ADDRESS SWAP2 PUSH2 0x2C42 JUMP JUMPDEST PUSH1 0x2A PUSH0 SWAP1 SLOAD SWAP1 PUSH2 0x100 EXP SWAP1 DIV PUSH1 0x1 PUSH1 0x1 PUSH1 0xA0 SHL SUB AND PUSH1 0x1 PUSH1 0x1 PUSH1 0xA0 SHL SUB AND PUSH4 0xC45A0155 PUSH1 0x40 MLOAD DUP2 PUSH4 0xFFFFFFFF AND PUSH1 0xE0 SHL DUP2 MSTORE PUSH1 0x4 ADD PUSH1 0x20 PUSH1 0x40 MLOAD DUP1 DUP4 SUB DUP2 DUP7 GAS STATICCALL ISZERO DUP1 ISZERO PUSH2 0x2327 JUMPI RETURNDATASIZE PUSH0 DUP1 RETURNDATACOPY RETURNDATASIZE PUSH0 REVERT JUMPDEST POP POP POP POP PUSH1 0x40 MLOAD RETURNDATASIZE PUSH1 0x1F NOT PUSH1 0x1F DUP3 ADD AND DUP3 ADD DUP1 PUSH1 0x40 MSTORE POP DUP2 ADD SWAP1 PUSH2 0x234B SWAP2 SWAP1 PUSH2 0x3A0F JUMP JUMPDEST PUSH1 0x1 PUSH1 0x1 PUSH1 0xA0 SHL SUB AND PUSH4 0xC9C65396 ADDRESS PUSH1 0x2A PUSH0 SWAP1 SLOAD SWAP1 PUSH2 0x100 EXP SWAP1 DIV PUSH1 0x1 PUSH1 0x1 PUSH1 0xA0 SHL SUB AND PUSH1 0x1 PUSH1 0x1 PUSH1 0xA0 SHL SUB AND PUSH4 0xAD5C4648 PUSH1 0x40 MLOAD DUP2 PUSH4 0xFFFFFFFF AND PUSH1 0xE0 SHL DUP2 MSTORE PUSH1 0x4 ADD PUSH1 0x20 PUSH1 0x40 MLOAD DUP1 DUP4 SUB DUP2 DUP7 GAS STATICCALL ISZERO DUP1 ISZERO PUSH2 0x23AA JUMPI RETURNDATASIZE PUSH0 DUP1 RETURNDATACOPY RETURNDATASIZE PUSH0 REVERT JUMPDEST POP POP POP POP PUSH1 0x40 MLOAD RETURNDATASIZE PUSH1 0x1F NOT PUSH1 0x1F DUP3 ADD AND DUP3 ADD DUP1 PUSH1 0x40 MSTORE POP DUP2 ADD SWAP1 PUSH2 0x23CE SWAP2 SWAP1 PUSH2 0x3A0F JUMP JUMPDEST PUSH1 0x40 MLOAD PUSH1 0x1 PUSH1 0x1 PUSH1 0xE0 SHL SUB NOT PUSH1 0xE0 DUP6 SWAP1 SHL AND DUP2 MSTORE PUSH1 0x1 PUSH1 0x1 PUSH1 0xA0 SHL SUB SWAP3 DUP4 AND PUSH1 0x4 DUP3 ADD MSTORE SWAP2 AND PUSH1 0x24 DUP3 ADD MSTORE PUSH1 0x44 ADD PUSH1 0x20 PUSH1 0x40 MLOAD DUP1 DUP4 SUB DUP2 PUSH0 DUP8 GAS CALL ISZERO DUP1 ISZERO PUSH2 0x2418 JUMPI RETURNDATASIZE PUSH0 DUP1 RETURNDATACOPY RETURNDATASIZE PUSH0 REVERT JUMPDEST POP POP POP POP PUSH1 0x40 MLOAD RETURNDATASIZE PUSH1 0x1F NOT PUSH1 0x1F DUP3 ADD AND DUP3 ADD DUP1 PUSH1 0x40 MSTORE POP DUP2 ADD SWAP1 PUSH2 0x243C SWAP2 SWAP1 PUSH2 0x3A0F JUMP JUMPDEST PUSH1 0x2B DUP1 SLOAD PUSH1 0x1 PUSH1 0x1 PUSH1 0xA0 SHL SUB SWAP3 DUP4 AND PUSH1 0x1 PUSH1 0x1 PUSH1 0xA0 SHL SUB NOT SWAP1 SWAP2 AND OR SWAP1 SSTORE PUSH1 0x2A SLOAD AND PUSH4 0xF305D719 SELFBALANCE ADDRESS PUSH2 0x2483 DUP2 PUSH1 0x1 PUSH1 0x1 PUSH1 0xA0 SHL SUB AND PUSH0 SWAP1 DUP2 MSTORE PUSH1 0x1 PUSH1 0x20 MSTORE PUSH1 0x40 SWAP1 KECCAK256 SLOAD SWAP1 JUMP JUMPDEST PUSH0 DUP1 PUSH2 0x2496 PUSH0 SLOAD PUSH1 0x1 PUSH1 0x1 PUSH1 0xA0 SHL SUB AND SWAP1 JUMP JUMPDEST PUSH1 0x40 MLOAD PUSH1 0xE0 DUP9 SWAP1 SHL PUSH1 0x1 PUSH1 0x1 PUSH1 0xE0 SHL SUB NOT AND DUP2 MSTORE PUSH1 0x1 PUSH1 0x1 PUSH1 0xA0 SHL SUB SWAP6 DUP7 AND PUSH1 0x4 DUP3 ADD MSTORE PUSH1 0x24 DUP2 ADD SWAP5 SWAP1 SWAP5 MSTORE PUSH1 0x44 DUP5 ADD SWAP3 SWAP1 SWAP3 MSTORE PUSH1 0x64 DUP4 ADD MSTORE SWAP1 SWAP2 AND PUSH1 0x84 DUP3 ADD MSTORE TIMESTAMP PUSH1 0xA4 DUP3 ADD MSTORE PUSH1 0xC4 ADD PUSH1 0x60 PUSH1 0x40 MLOAD DUP1 DUP4 SUB DUP2 DUP6 DUP9 GAS CALL ISZERO DUP1 ISZERO PUSH2 0x24FC JUMPI RETURNDATASIZE PUSH0 DUP1 RETURNDATACOPY RETURNDATASIZE PUSH0 REVERT JUMPDEST POP POP POP POP POP PUSH1 0x40 MLOAD RETURNDATASIZE PUSH1 0x1F NOT PUSH1 0x1F DUP3 ADD AND DUP3 ADD DUP1 PUSH1 0x40 MSTORE POP DUP2 ADD SWAP1 PUSH2 0x2521 SWAP2 SWAP1 PUSH2 0x3A2A JUMP JUMPDEST POP POP PUSH1 0x2B SLOAD PUSH1 0x2A SLOAD PUSH1 0x40 MLOAD PUSH4 0x95EA7B3 PUSH1 0xE0 SHL DUP2 MSTORE PUSH1 0x1 PUSH1 0x1 PUSH1 0xA0 SHL SUB SWAP2 DUP3 AND PUSH1 0x4 DUP3 ADD MSTORE PUSH0 NOT PUSH1 0x24 DUP3 ADD MSTORE SWAP2 AND SWAP2 POP PUSH4 0x95EA7B3 SWAP1 PUSH1 0x44 ADD PUSH1 0x20 PUSH1 0x40 MLOAD DUP1 DUP4 SUB DUP2 PUSH0 DUP8 GAS CALL ISZERO DUP1 ISZERO PUSH2 0x2576 JUMPI RETURNDATASIZE PUSH0 DUP1 RETURNDATACOPY RETURNDATASIZE PUSH0 REVERT JUMPDEST POP POP POP POP PUSH1 0x40 MLOAD RETURNDATASIZE PUSH1 0x1F NOT PUSH1 0x1F DUP3 ADD AND DUP3 ADD DUP1 PUSH1 0x40 MSTORE POP DUP2 ADD SWAP1 PUSH2 0x259A SWAP2 SWAP1 PUSH2 0x3A55 JUMP JUMPDEST POP PUSH1 0x2B DUP1 SLOAD PUSH3 0xFF00FF PUSH1 0xA0 SHL NOT AND PUSH3 0x10001 PUSH1 0xA0 SHL OR SWAP1 SSTORE PUSH1 0x12 SLOAD ADDRESS PUSH0 DUP2 DUP2 MSTORE PUSH1 0x1 PUSH1 0x20 MSTORE PUSH1 0x40 SWAP1 KECCAK256 SLOAD PUSH2 0x10E2 SWAP3 PUSH1 0x1 PUSH1 0x1 PUSH1 0xA0 SHL SUB AND SWAP1 PUSH2 0x265F JUMP JUMPDEST PUSH0 SLOAD PUSH1 0x1 PUSH1 0x1 PUSH1 0xA0 SHL SUB AND CALLER EQ PUSH2 0x2600 JUMPI PUSH1 0x40 MLOAD PUSH3 0x461BCD PUSH1 0xE5 SHL DUP2 MSTORE PUSH1 0x4 ADD PUSH2 0xBF8 SWAP1 PUSH2 0x388F JUMP JUMPDEST SELFBALANCE DUP1 ISZERO PUSH2 0x2610 JUMPI PUSH2 0x2610 DUP2 PUSH2 0x2F18 JUMP JUMPDEST POP JUMP JUMPDEST PUSH1 0x10 SLOAD PUSH1 0x1 PUSH1 0x1 PUSH1 0xA0 SHL SUB AND CALLER EQ PUSH2 0x2629 JUMPI PUSH0 DUP1 REVERT JUMPDEST PUSH1 0x12 SLOAD PUSH1 0x40 MLOAD PUSH1 0x1 PUSH1 0x1 PUSH1 0xA0 SHL SUB SWAP1 SWAP2 AND SWAP1 SELFBALANCE DUP1 ISZERO PUSH2 0x8FC MUL SWAP2 PUSH0 DUP2 DUP2 DUP2 DUP6 DUP9 DUP9 CALL SWAP4 POP POP POP POP ISZERO DUP1 ISZERO PUSH2 0x2610 JUMPI RETURNDATASIZE PUSH0 DUP1 RETURNDATACOPY RETURNDATASIZE PUSH0 REVERT JUMPDEST PUSH1 0x1 PUSH1 0x1 PUSH1 0xA0 SHL SUB DUP4 AND PUSH2 0x26C3 JUMPI PUSH1 0x40 MLOAD PUSH3 0x461BCD PUSH1 0xE5 SHL DUP2 MSTORE PUSH1 0x20 PUSH1 0x4 DUP3 ADD MSTORE PUSH1 0x25 PUSH1 0x24 DUP3 ADD MSTORE PUSH32 0x45524332303A207472616E736665722066726F6D20746865207A65726F206164 PUSH1 0x44 DUP3 ADD MSTORE PUSH5 0x6472657373 PUSH1 0xD8 SHL PUSH1 0x64 DUP3 ADD MSTORE PUSH1 0x84 ADD PUSH2 0xBF8 JUMP JUMPDEST PUSH1 0x1 PUSH1 0x1 PUSH1 0xA0 SHL SUB DUP3 AND PUSH2 0x2725 JUMPI PUSH1 0x40 MLOAD PUSH3 0x461BCD PUSH1 0xE5 SHL DUP2 MSTORE PUSH1 0x20 PUSH1 0x4 DUP3 ADD MSTORE PUSH1 0x23 PUSH1 0x24 DUP3 ADD MSTORE PUSH32 0x45524332303A207472616E7366657220746F20746865207A65726F2061646472 PUSH1 0x44 DUP3 ADD MSTORE PUSH3 0x657373 PUSH1 0xE8 SHL PUSH1 0x64 DUP3 ADD MSTORE PUSH1 0x84 ADD PUSH2 0xBF8 JUMP JUMPDEST PUSH0 DUP2 GT PUSH2 0x2786 JUMPI PUSH1 0x40 MLOAD PUSH3 0x461BCD PUSH1 0xE5 SHL DUP2 MSTORE PUSH1 0x20 PUSH1 0x4 DUP3 ADD MSTORE PUSH1 0x29 PUSH1 0x24 DUP3 ADD MSTORE PUSH32 0x5472616E7366657220616D6F756E74206D757374206265206772656174657220 PUSH1 0x44 DUP3 ADD MSTORE PUSH9 0x7468616E207A65726F PUSH1 0xB8 SHL PUSH1 0x64 DUP3 ADD MSTORE PUSH1 0x84 ADD PUSH2 0xBF8 JUMP JUMPDEST PUSH0 DUP1 SLOAD PUSH1 0x1 PUSH1 0x1 PUSH1 0xA0 SHL SUB DUP6 DUP2 AND SWAP2 AND EQ DUP1 ISZERO SWAP1 PUSH2 0x27B1 JUMPI POP PUSH0 SLOAD PUSH1 0x1 PUSH1 0x1 PUSH1 0xA0 SHL SUB DUP5 DUP2 AND SWAP2 AND EQ ISZERO JUMPDEST ISZERO PUSH2 0x2B05 JUMPI PUSH2 0x27E2 PUSH1 0x64 PUSH2 0x27DC PUSH1 0x19 SLOAD PUSH1 0x1C SLOAD GT PUSH2 0x27D1 JUMPI PUSH1 0x15 SLOAD PUSH2 0x27D5 JUMP JUMPDEST PUSH1 0x17 SLOAD JUMPDEST DUP6 SWAP1 PUSH2 0x3253 JUMP JUMPDEST SWAP1 PUSH2 0x32D8 JUMP JUMPDEST PUSH1 0x2B SLOAD SWAP1 SWAP2 POP PUSH1 0x1 PUSH1 0xB8 SHL SWAP1 DIV PUSH1 0xFF AND ISZERO PUSH2 0x28CF JUMPI PUSH1 0x2A SLOAD PUSH1 0x1 PUSH1 0x1 PUSH1 0xA0 SHL SUB DUP5 DUP2 AND SWAP2 AND EQ DUP1 ISZERO SWAP1 PUSH2 0x2823 JUMPI POP PUSH1 0x2B SLOAD PUSH1 0x1 PUSH1 0x1 PUSH1 0xA0 SHL SUB DUP5 DUP2 AND SWAP2 AND EQ ISZERO JUMPDEST ISZERO PUSH2 0x28CF JUMPI ORIGIN PUSH0 SWAP1 DUP2 MSTORE PUSH1 0x8 PUSH1 0x20 MSTORE PUSH1 0x40 SWAP1 KECCAK256 SLOAD NUMBER GT PUSH2 0x28BD JUMPI PUSH1 0x40 MLOAD PUSH3 0x461BCD PUSH1 0xE5 SHL DUP2 MSTORE PUSH1 0x20 PUSH1 0x4 DUP3 ADD MSTORE PUSH1 0x49 PUSH1 0x24 DUP3 ADD MSTORE PUSH32 0x5F7472616E736665723A3A205472616E736665722044656C617920656E61626C PUSH1 0x44 DUP3 ADD MSTORE PUSH32 0x65642E20204F6E6C79206F6E652070757263686173652070657220626C6F636B PUSH1 0x64 DUP3 ADD MSTORE PUSH9 0x1030B63637BBB2B217 PUSH1 0xB9 SHL PUSH1 0x84 DUP3 ADD MSTORE PUSH1 0xA4 ADD PUSH2 0xBF8 JUMP JUMPDEST ORIGIN PUSH0 SWAP1 DUP2 MSTORE PUSH1 0x8 PUSH1 0x20 MSTORE PUSH1 0x40 SWAP1 KECCAK256 NUMBER SWAP1 SSTORE JUMPDEST PUSH1 0x2B SLOAD PUSH1 0x1 PUSH1 0x1 PUSH1 0xA0 SHL SUB DUP6 DUP2 AND SWAP2 AND EQ DUP1 ISZERO PUSH2 0x28FA JUMPI POP PUSH1 0x2A SLOAD PUSH1 0x1 PUSH1 0x1 PUSH1 0xA0 SHL SUB DUP5 DUP2 AND SWAP2 AND EQ ISZERO JUMPDEST DUP1 ISZERO PUSH2 0x291E JUMPI POP PUSH1 0x1 PUSH1 0x1 PUSH1 0xA0 SHL SUB DUP4 AND PUSH0 SWAP1 DUP2 MSTORE PUSH1 0x3 PUSH1 0x20 MSTORE PUSH1 0x40 SWAP1 KECCAK256 SLOAD PUSH1 0xFF AND ISZERO JUMPDEST ISZERO PUSH2 0x2A04 JUMPI PUSH1 0x1E SLOAD DUP3 GT ISZERO PUSH2 0x2975 JUMPI PUSH1 0x40 MLOAD PUSH3 0x461BCD PUSH1 0xE5 SHL DUP2 MSTORE PUSH1 0x20 PUSH1 0x4 DUP3 ADD MSTORE PUSH1 0x19 PUSH1 0x24 DUP3 ADD MSTORE PUSH32 0x4578636565647320746865205F6D61785478416D6F756E742E00000000000000 PUSH1 0x44 DUP3 ADD MSTORE PUSH1 0x64 ADD PUSH2 0xBF8 JUMP JUMPDEST PUSH1 0x1F SLOAD DUP3 PUSH2 0x2997 DUP6 PUSH1 0x1 PUSH1 0x1 PUSH1 0xA0 SHL SUB AND PUSH0 SWAP1 DUP2 MSTORE PUSH1 0x1 PUSH1 0x20 MSTORE PUSH1 0x40 SWAP1 KECCAK256 SLOAD SWAP1 JUMP JUMPDEST PUSH2 0x29A1 SWAP2 SWAP1 PUSH2 0x38C4 JUMP JUMPDEST GT ISZERO PUSH2 0x29EF JUMPI PUSH1 0x40 MLOAD PUSH3 0x461BCD PUSH1 0xE5 SHL DUP2 MSTORE PUSH1 0x20 PUSH1 0x4 DUP3 ADD MSTORE PUSH1 0x1A PUSH1 0x24 DUP3 ADD MSTORE PUSH32 0x4578636565647320746865206D617857616C6C657453697A652E000000000000 PUSH1 0x44 DUP3 ADD MSTORE PUSH1 0x64 ADD PUSH2 0xBF8 JUMP JUMPDEST PUSH1 0x1C DUP1 SLOAD SWAP1 PUSH0 PUSH2 0x29FE DUP4 PUSH2 0x395D JUMP JUMPDEST SWAP2 SWAP1 POP SSTORE POP JUMPDEST PUSH1 0x2B SLOAD PUSH1 0x1 PUSH1 0x1 PUSH1 0xA0 SHL SUB DUP5 DUP2 AND SWAP2 AND EQ DUP1 ISZERO PUSH2 0x2A2A JUMPI POP PUSH1 0x1 PUSH1 0x1 PUSH1 0xA0 SHL SUB DUP5 AND ADDRESS EQ ISZERO JUMPDEST ISZERO PUSH2 0x2A57 JUMPI PUSH2 0x2A54 PUSH1 0x64 PUSH2 0x27DC PUSH1 0x1A SLOAD PUSH1 0x1C SLOAD GT PUSH2 0x2A4A JUMPI PUSH1 0x16 SLOAD PUSH2 0x27D5 JUMP JUMPDEST PUSH1 0x18 SLOAD DUP6 SWAP1 PUSH2 0x3253 JUMP JUMPDEST SWAP1 POP JUMPDEST ADDRESS PUSH0 SWAP1 DUP2 MSTORE PUSH1 0x1 PUSH1 0x20 MSTORE PUSH1 0x40 SWAP1 KECCAK256 SLOAD PUSH1 0x2B SLOAD PUSH1 0x1 PUSH1 0xA8 SHL SWAP1 DIV PUSH1 0xFF AND ISZERO DUP1 ISZERO PUSH2 0x2A8D JUMPI POP PUSH1 0x2B SLOAD PUSH1 0x1 PUSH1 0x1 PUSH1 0xA0 SHL SUB DUP6 DUP2 AND SWAP2 AND EQ JUMPDEST DUP1 ISZERO PUSH2 0x2AA2 JUMPI POP PUSH1 0x2B SLOAD PUSH1 0x1 PUSH1 0xB0 SHL SWAP1 DIV PUSH1 0xFF AND JUMPDEST DUP1 ISZERO PUSH2 0x2AAF JUMPI POP PUSH1 0x20 SLOAD DUP2 GT JUMPDEST DUP1 ISZERO PUSH2 0x2ABE JUMPI POP PUSH1 0x1B SLOAD PUSH1 0x1C SLOAD GT JUMPDEST ISZERO PUSH2 0x2B03 JUMPI PUSH0 SELFBALANCE SWAP1 POP PUSH2 0x2AE4 PUSH2 0x2ADF DUP6 PUSH2 0x2ADA DUP6 PUSH1 0x21 SLOAD PUSH2 0x3319 JUMP JUMPDEST PUSH2 0x3319 JUMP JUMPDEST PUSH2 0x30E3 JUMP JUMPDEST PUSH0 PUSH2 0x2AEF SELFBALANCE DUP4 PUSH2 0x332D JUMP JUMPDEST SWAP1 POP DUP1 ISZERO PUSH2 0x2B00 JUMPI PUSH2 0x2B00 DUP2 PUSH2 0x2F18 JUMP JUMPDEST POP POP JUMPDEST POP JUMPDEST DUP1 ISZERO PUSH2 0x2B7D JUMPI ADDRESS PUSH0 SWAP1 DUP2 MSTORE PUSH1 0x1 PUSH1 0x20 MSTORE PUSH1 0x40 SWAP1 KECCAK256 SLOAD PUSH2 0x2B24 SWAP1 DUP3 PUSH2 0x336E JUMP JUMPDEST ADDRESS PUSH0 DUP2 DUP2 MSTORE PUSH1 0x1 PUSH1 0x20 MSTORE PUSH1 0x40 SWAP1 DUP2 SWAP1 KECCAK256 SWAP3 SWAP1 SWAP3 SSTORE SWAP1 MLOAD PUSH1 0x1 PUSH1 0x1 PUSH1 0xA0 SHL SUB DUP7 AND SWAP1 PUSH32 0xDDF252AD1BE2C89B69C2B068FC378DAA952BA7F163C4A11628F55A4DF523B3EF SWAP1 PUSH2 0x2B74 SWAP1 DUP6 DUP2 MSTORE PUSH1 0x20 ADD SWAP1 JUMP JUMPDEST PUSH1 0x40 MLOAD DUP1 SWAP2 SUB SWAP1 LOG3 JUMPDEST PUSH1 0x1 PUSH1 0x1 PUSH1 0xA0 SHL SUB DUP5 AND PUSH0 SWAP1 DUP2 MSTORE PUSH1 0x1 PUSH1 0x20 MSTORE PUSH1 0x40 SWAP1 KECCAK256 SLOAD PUSH2 0x2B9F SWAP1 DUP4 PUSH2 0x332D JUMP JUMPDEST PUSH1 0x1 PUSH1 0x1 PUSH1 0xA0 SHL SUB DUP6 AND PUSH0 SWAP1 DUP2 MSTORE PUSH1 0x1 PUSH1 0x20 MSTORE PUSH1 0x40 SWAP1 KECCAK256 SSTORE PUSH2 0x2BE2 PUSH2 0x2BC4 DUP4 DUP4 PUSH2 0x332D JUMP JUMPDEST PUSH1 0x1 PUSH1 0x1 PUSH1 0xA0 SHL SUB DUP6 AND PUSH0 SWAP1 DUP2 MSTORE PUSH1 0x1 PUSH1 0x20 MSTORE PUSH1 0x40 SWAP1 KECCAK256 SLOAD SWAP1 PUSH2 0x336E JUMP JUMPDEST PUSH1 0x1 PUSH1 0x1 PUSH1 0xA0 SHL SUB DUP1 DUP6 AND PUSH0 DUP2 DUP2 MSTORE PUSH1 0x1 PUSH1 0x20 MSTORE PUSH1 0x40 SWAP1 KECCAK256 SWAP3 SWAP1 SWAP3 SSTORE DUP6 AND PUSH32 0xDDF252AD1BE2C89B69C2B068FC378DAA952BA7F163C4A11628F55A4DF523B3EF PUSH2 0x2C2B DUP6 DUP6 PUSH2 0x332D JUMP JUMPDEST PUSH1 0x40 MLOAD SWAP1 DUP2 MSTORE PUSH1 0x20 ADD PUSH1 0x40 MLOAD DUP1 SWAP2 SUB SWAP1 LOG3 POP POP POP POP JUMP JUMPDEST PUSH1 0x1 PUSH1 0x1 PUSH1 0xA0 SHL SUB DUP4 AND PUSH2 0x2CA4 JUMPI PUSH1 0x40 MLOAD PUSH3 0x461BCD PUSH1 0xE5 SHL DUP2 MSTORE PUSH1 0x20 PUSH1 0x4 DUP3 ADD MSTORE PUSH1 0x24 DUP1 DUP3 ADD MSTORE PUSH32 0x45524332303A20617070726F76652066726F6D20746865207A65726F20616464 PUSH1 0x44 DUP3 ADD MSTORE PUSH4 0x72657373 PUSH1 0xE0 SHL PUSH1 0x64 DUP3 ADD MSTORE PUSH1 0x84 ADD PUSH2 0xBF8 JUMP JUMPDEST PUSH1 0x1 PUSH1 0x1 PUSH1 0xA0 SHL SUB DUP3 AND PUSH2 0x2D05 JUMPI PUSH1 0x40 MLOAD PUSH3 0x461BCD PUSH1 0xE5 SHL DUP2 MSTORE PUSH1 0x20 PUSH1 0x4 DUP3 ADD MSTORE PUSH1 0x22 PUSH1 0x24 DUP3 ADD MSTORE PUSH32 0x45524332303A20617070726F766520746F20746865207A65726F206164647265 PUSH1 0x44 DUP3 ADD MSTORE PUSH2 0x7373 PUSH1 0xF0 SHL PUSH1 0x64 DUP3 ADD MSTORE PUSH1 0x84 ADD PUSH2 0xBF8 JUMP JUMPDEST PUSH1 0x1 PUSH1 0x1 PUSH1 0xA0 SHL SUB DUP4 DUP2 AND PUSH0 DUP2 DUP2 MSTORE PUSH1 0x2 PUSH1 0x20 SWAP1 DUP2 MSTORE PUSH1 0x40 DUP1 DUP4 KECCAK256 SWAP5 DUP8 AND DUP1 DUP5 MSTORE SWAP5 DUP3 MSTORE SWAP2 DUP3 SWAP1 KECCAK256 DUP6 SWAP1 SSTORE SWAP1 MLOAD DUP5 DUP2 MSTORE PUSH32 0x8C5BE1E5EBEC7D5BD14F71427D1E84F3DD0314C0F7B2291E5B200AC8C7C3B925 SWAP2 ADD PUSH1 0x40 MLOAD DUP1 SWAP2 SUB SWAP1 LOG3 POP POP POP JUMP JUMPDEST PUSH0 DUP2 DUP5 DUP5 GT ISZERO PUSH2 0x2D88 JUMPI PUSH1 0x40 MLOAD PUSH3 0x461BCD PUSH1 0xE5 SHL DUP2 MSTORE PUSH1 0x4 ADD PUSH2 0xBF8 SWAP2 SWAP1 PUSH2 0x34BA JUMP JUMPDEST POP PUSH0 PUSH2 0x2D94 DUP5 DUP7 PUSH2 0x394A JUMP JUMPDEST SWAP6 SWAP5 POP POP POP POP POP JUMP JUMPDEST PUSH1 0x1 PUSH1 0x1 PUSH1 0xA0 SHL SUB DUP3 AND PUSH2 0x2DFD JUMPI PUSH1 0x40 MLOAD PUSH3 0x461BCD PUSH1 0xE5 SHL DUP2 MSTORE PUSH1 0x20 PUSH1 0x4 DUP3 ADD MSTORE PUSH1 0x21 PUSH1 0x24 DUP3 ADD MSTORE PUSH32 0x43616E6E6F74206275726E2066726F6D20746865207A65726F20616464726573 PUSH1 0x44 DUP3 ADD MSTORE PUSH1 0x73 PUSH1 0xF8 SHL PUSH1 0x64 DUP3 ADD MSTORE PUSH1 0x84 ADD PUSH2 0xBF8 JUMP JUMPDEST PUSH2 0x2E09 PUSH1 0x9 PUSH1 0xA PUSH2 0x386A JUMP JUMPDEST PUSH2 0x2E13 SWAP1 DUP3 PUSH2 0x3878 JUMP JUMPDEST PUSH1 0x1 PUSH1 0x1 PUSH1 0xA0 SHL SUB DUP4 AND PUSH0 SWAP1 DUP2 MSTORE PUSH1 0x1 PUSH1 0x20 MSTORE PUSH1 0x40 DUP2 KECCAK256 DUP1 SLOAD SWAP3 SWAP4 POP DUP4 SWAP3 SWAP1 SWAP2 SWAP1 PUSH2 0x2E3F SWAP1 DUP5 SWAP1 PUSH2 0x394A JUMP JUMPDEST SWAP3 POP POP DUP2 SWAP1 SSTORE POP DUP1 PUSH1 0x1D PUSH0 DUP3 DUP3 SLOAD PUSH2 0x2E57 SWAP2 SWAP1 PUSH2 0x394A JUMP JUMPDEST SWAP1 SWAP2 SSTORE POP POP PUSH1 0x1D SLOAD PUSH1 0x1E DUP2 SWAP1 SSTORE PUSH1 0x1F SSTORE PUSH1 0x40 MLOAD DUP2 DUP2 MSTORE PUSH1 0x1 PUSH1 0x1 PUSH1 0xA0 SHL SUB DUP4 AND SWAP1 PUSH32 0xCC16F5DBB4873280815C1EE09DBD06736CFFCC184412CF7A71A0FDB75D397CA5 SWAP1 PUSH1 0x20 ADD PUSH1 0x40 MLOAD DUP1 SWAP2 SUB SWAP1 LOG2 PUSH1 0x40 MLOAD DUP2 DUP2 MSTORE PUSH0 SWAP1 PUSH1 0x1 PUSH1 0x1 PUSH1 0xA0 SHL SUB DUP5 AND SWAP1 PUSH32 0xDDF252AD1BE2C89B69C2B068FC378DAA952BA7F163C4A11628F55A4DF523B3EF SWAP1 PUSH1 0x20 ADD PUSH1 0x40 MLOAD DUP1 SWAP2 SUB SWAP1 LOG3 PUSH32 0x947F344D56E1E8C70DC492FB94C4DDDDD490C016AAB685F5E7E47B2E85CB44CF PUSH1 0x1D SLOAD PUSH1 0x40 MLOAD PUSH2 0xD9B SWAP2 DUP2 MSTORE PUSH1 0x20 ADD SWAP1 JUMP JUMPDEST PUSH0 DUP2 GT PUSH2 0x2F67 JUMPI PUSH1 0x40 MLOAD PUSH3 0x461BCD PUSH1 0xE5 SHL DUP2 MSTORE PUSH1 0x20 PUSH1 0x4 DUP3 ADD DUP2 SWAP1 MSTORE PUSH1 0x24 DUP3 ADD MSTORE PUSH32 0x416D6F756E74206D7573742062652067726561746572207468616E207A65726F PUSH1 0x44 DUP3 ADD MSTORE PUSH1 0x64 ADD PUSH2 0xBF8 JUMP JUMPDEST DUP1 SELFBALANCE LT ISZERO PUSH2 0x2FB7 JUMPI PUSH1 0x40 MLOAD PUSH3 0x461BCD PUSH1 0xE5 SHL DUP2 MSTORE PUSH1 0x20 PUSH1 0x4 DUP3 ADD MSTORE PUSH1 0x1D PUSH1 0x24 DUP3 ADD MSTORE PUSH32 0x496E73756666696369656E7420636F6E74726163742062616C616E6365000000 PUSH1 0x44 DUP3 ADD MSTORE PUSH1 0x64 ADD PUSH2 0xBF8 JUMP JUMPDEST PUSH0 PUSH2 0x2FC3 DUP3 PUSH1 0x5 PUSH2 0x32D8 JUMP JUMPDEST PUSH1 0x13 SLOAD PUSH1 0x40 MLOAD SWAP2 SWAP3 POP PUSH1 0x1 PUSH1 0x1 PUSH1 0xA0 SHL SUB AND SWAP1 DUP3 ISZERO PUSH2 0x8FC MUL SWAP1 DUP4 SWAP1 PUSH0 DUP2 DUP2 DUP2 DUP6 DUP9 DUP9 CALL SWAP4 POP POP POP POP ISZERO DUP1 ISZERO PUSH2 0x2FFB JUMPI RETURNDATASIZE PUSH0 DUP1 RETURNDATACOPY RETURNDATASIZE PUSH0 REVERT JUMPDEST POP PUSH1 0x12 SLOAD PUSH1 0x40 MLOAD PUSH1 0x1 PUSH1 0x1 PUSH1 0xA0 SHL SUB SWAP1 SWAP2 AND SWAP1 DUP3 ISZERO PUSH2 0x8FC MUL SWAP1 DUP4 SWAP1 PUSH0 DUP2 DUP2 DUP2 DUP6 DUP9 DUP9 CALL SWAP4 POP POP POP POP ISZERO DUP1 ISZERO PUSH2 0x3033 JUMPI RETURNDATASIZE PUSH0 DUP1 RETURNDATACOPY RETURNDATASIZE PUSH0 REVERT JUMPDEST POP PUSH1 0x10 SLOAD PUSH1 0x40 MLOAD PUSH1 0x1 PUSH1 0x1 PUSH1 0xA0 SHL SUB SWAP1 SWAP2 AND SWAP1 DUP3 ISZERO PUSH2 0x8FC MUL SWAP1 DUP4 SWAP1 PUSH0 DUP2 DUP2 DUP2 DUP6 DUP9 DUP9 CALL SWAP4 POP POP POP POP ISZERO DUP1 ISZERO PUSH2 0x18A4 JUMPI RETURNDATASIZE PUSH0 DUP1 RETURNDATACOPY RETURNDATASIZE PUSH0 REVERT JUMPDEST PUSH0 SLOAD PUSH1 0x1 PUSH1 0x1 PUSH1 0xA0 SHL SUB AND CALLER EQ PUSH2 0x3094 JUMPI PUSH1 0x40 MLOAD PUSH3 0x461BCD PUSH1 0xE5 SHL DUP2 MSTORE PUSH1 0x4 ADD PUSH2 0xBF8 SWAP1 PUSH2 0x388F JUMP JUMPDEST PUSH1 0x1D SLOAD PUSH1 0x1E DUP2 SWAP1 SSTORE PUSH1 0x1F DUP2 SWAP1 SSTORE PUSH1 0x2B DUP1 SLOAD PUSH1 0xFF PUSH1 0xB8 SHL NOT AND SWAP1 SSTORE PUSH1 0x40 MLOAD SWAP1 DUP2 MSTORE PUSH32 0x947F344D56E1E8C70DC492FB94C4DDDDD490C016AAB685F5E7E47B2E85CB44CF SWAP1 PUSH1 0x20 ADD PUSH1 0x40 MLOAD DUP1 SWAP2 SUB SWAP1 LOG1 JUMP JUMPDEST PUSH1 0x2B DUP1 SLOAD PUSH1 0xFF PUSH1 0xA8 SHL NOT AND PUSH1 0x1 PUSH1 0xA8 SHL OR SWAP1 SSTORE PUSH1 0x40 DUP1 MLOAD PUSH1 0x2 DUP1 DUP3 MSTORE PUSH1 0x60 DUP3 ADD DUP4 MSTORE PUSH0 SWAP3 PUSH1 0x20 DUP4 ADD SWAP1 DUP1 CALLDATASIZE DUP4 CALLDATACOPY ADD SWAP1 POP POP SWAP1 POP ADDRESS DUP2 PUSH0 DUP2 MLOAD DUP2 LT PUSH2 0x3129 JUMPI PUSH2 0x3129 PUSH2 0x3936 JUMP JUMPDEST PUSH1 0x1 PUSH1 0x1 PUSH1 0xA0 SHL SUB SWAP3 DUP4 AND PUSH1 0x20 SWAP2 DUP3 MUL SWAP3 SWAP1 SWAP3 ADD DUP2 ADD SWAP2 SWAP1 SWAP2 MSTORE PUSH1 0x2A SLOAD PUSH1 0x40 DUP1 MLOAD PUSH4 0x15AB88C9 PUSH1 0xE3 SHL DUP2 MSTORE SWAP1 MLOAD SWAP2 SWAP1 SWAP4 AND SWAP3 PUSH4 0xAD5C4648 SWAP3 PUSH1 0x4 DUP1 DUP4 ADD SWAP4 SWAP2 SWAP3 DUP3 SWAP1 SUB ADD DUP2 DUP7 GAS STATICCALL ISZERO DUP1 ISZERO PUSH2 0x3180 JUMPI RETURNDATASIZE PUSH0 DUP1 RETURNDATACOPY RETURNDATASIZE PUSH0 REVERT JUMPDEST POP POP POP POP PUSH1 0x40 MLOAD RETURNDATASIZE PUSH1 0x1F NOT PUSH1 0x1F DUP3 ADD AND DUP3 ADD DUP1 PUSH1 0x40 MSTORE POP DUP2 ADD SWAP1 PUSH2 0x31A4 SWAP2 SWAP1 PUSH2 0x3A0F JUMP JUMPDEST DUP2 PUSH1 0x1 DUP2 MLOAD DUP2 LT PUSH2 0x31B7 JUMPI PUSH2 0x31B7 PUSH2 0x3936 JUMP JUMPDEST PUSH1 0x1 PUSH1 0x1 PUSH1 0xA0 SHL SUB SWAP3 DUP4 AND PUSH1 0x20 SWAP2 DUP3 MUL SWAP3 SWAP1 SWAP3 ADD ADD MSTORE PUSH1 0x2A SLOAD PUSH2 0x31DD SWAP2 ADDRESS SWAP2 AND DUP5 PUSH2 0x2C42 JUMP JUMPDEST PUSH1 0x2A SLOAD PUSH1 0x40 MLOAD PUSH4 0x791AC947 PUSH1 0xE0 SHL DUP2 MSTORE PUSH1 0x1 PUSH1 0x1 PUSH1 0xA0 SHL SUB SWAP1 SWAP2 AND SWAP1 PUSH4 0x791AC947 SWAP1 PUSH2 0x3215 SWAP1 DUP6 SWAP1 PUSH0 SWAP1 DUP7 SWAP1 ADDRESS SWAP1 TIMESTAMP SWAP1 PUSH1 0x4 ADD PUSH2 0x3A74 JUMP JUMPDEST PUSH0 PUSH1 0x40 MLOAD DUP1 DUP4 SUB DUP2 PUSH0 DUP8 DUP1 EXTCODESIZE ISZERO DUP1 ISZERO PUSH2 0x322C JUMPI PUSH0 DUP1 REVERT JUMPDEST POP GAS CALL ISZERO DUP1 ISZERO PUSH2 0x323E JUMPI RETURNDATASIZE PUSH0 DUP1 RETURNDATACOPY RETURNDATASIZE PUSH0 REVERT JUMPDEST POP POP PUSH1 0x2B DUP1 SLOAD PUSH1 0xFF PUSH1 0xA8 SHL NOT AND SWAP1 SSTORE POP POP POP POP JUMP JUMPDEST PUSH0 DUP3 PUSH0 SUB PUSH2 0x3262 JUMPI POP PUSH0 PUSH2 0xC7E JUMP JUMPDEST PUSH0 PUSH2 0x326D DUP4 DUP6 PUSH2 0x3878 JUMP JUMPDEST SWAP1 POP DUP3 PUSH2 0x327A DUP6 DUP4 PUSH2 0x3AE3 JUMP JUMPDEST EQ PUSH2 0x32D1 JUMPI PUSH1 0x40 MLOAD PUSH3 0x461BCD PUSH1 0xE5 SHL DUP2 MSTORE PUSH1 0x20 PUSH1 0x4 DUP3 ADD MSTORE PUSH1 0x21 PUSH1 0x24 DUP3 ADD MSTORE PUSH32 0x536166654D6174683A206D756C7469706C69636174696F6E206F766572666C6F PUSH1 0x44 DUP3 ADD MSTORE PUSH1 0x77 PUSH1 0xF8 SHL PUSH1 0x64 DUP3 ADD MSTORE PUSH1 0x84 ADD PUSH2 0xBF8 JUMP JUMPDEST SWAP4 SWAP3 POP POP POP JUMP JUMPDEST PUSH0 PUSH2 0x32D1 DUP4 DUP4 PUSH1 0x40 MLOAD DUP1 PUSH1 0x40 ADD PUSH1 0x40 MSTORE DUP1 PUSH1 0x1A DUP2 MSTORE PUSH1 0x20 ADD PUSH32 0x536166654D6174683A206469766973696F6E206279207A65726F000000000000 DUP2 MSTORE POP PUSH2 0x33CC JUMP JUMPDEST PUSH0 DUP2 DUP4 GT PUSH2 0x3327 JUMPI DUP3 PUSH2 0x32D1 JUMP JUMPDEST POP SWAP2 SWAP1 POP JUMP JUMPDEST PUSH0 PUSH2 0x32D1 DUP4 DUP4 PUSH1 0x40 MLOAD DUP1 PUSH1 0x40 ADD PUSH1 0x40 MSTORE DUP1 PUSH1 0x1E DUP2 MSTORE PUSH1 0x20 ADD PUSH32 0x536166654D6174683A207375627472616374696F6E206F766572666C6F770000 DUP2 MSTORE POP PUSH2 0x2D65 JUMP JUMPDEST PUSH0 DUP1 PUSH2 0x337A DUP4 DUP6 PUSH2 0x38C4 JUMP JUMPDEST SWAP1 POP DUP4 DUP2 LT ISZERO PUSH2 0x32D1 JUMPI PUSH1 0x40 MLOAD PUSH3 0x461BCD PUSH1 0xE5 SHL DUP2 MSTORE PUSH1 0x20 PUSH1 0x4 DUP3 ADD MSTORE PUSH1 0x1B PUSH1 0x24 DUP3 ADD MSTORE PUSH32 0x536166654D6174683A206164646974696F6E206F766572666C6F770000000000 PUSH1 0x44 DUP3 ADD MSTORE PUSH1 0x64 ADD PUSH2 0xBF8 JUMP JUMPDEST PUSH0 DUP2 DUP4 PUSH2 0x33EC JUMPI PUSH1 0x40 MLOAD PUSH3 0x461BCD PUSH1 0xE5 SHL DUP2 MSTORE PUSH1 0x4 ADD PUSH2 0xBF8 SWAP2 SWAP1 PUSH2 0x34BA JUMP JUMPDEST POP PUSH0 PUSH2 0x2D94 DUP5 DUP7 PUSH2 0x3AE3 JUMP JUMPDEST PUSH0 DUP1 PUSH1 0x40 DUP4 DUP6 SUB SLT ISZERO PUSH2 0x3409 JUMPI PUSH0 DUP1 REVERT JUMPDEST POP POP DUP1 CALLDATALOAD SWAP3 PUSH1 0x20 SWAP1 SWAP2 ADD CALLDATALOAD SWAP2 POP JUMP JUMPDEST PUSH0 PUSH1 0x20 DUP3 DUP5 SUB SLT ISZERO PUSH2 0x3428 JUMPI PUSH0 DUP1 REVERT JUMPDEST POP CALLDATALOAD SWAP2 SWAP1 POP JUMP JUMPDEST PUSH1 0x1 PUSH1 0x1 PUSH1 0xA0 SHL SUB DUP2 AND DUP2 EQ PUSH2 0x2610 JUMPI PUSH0 DUP1 REVERT JUMPDEST PUSH0 DUP1 PUSH1 0x40 DUP4 DUP6 SUB SLT ISZERO PUSH2 0x3454 JUMPI PUSH0 DUP1 REVERT JUMPDEST DUP3 CALLDATALOAD PUSH2 0x345F DUP2 PUSH2 0x342F JUMP JUMPDEST SWAP5 PUSH1 0x20 SWAP4 SWAP1 SWAP4 ADD CALLDATALOAD SWAP4 POP POP POP JUMP JUMPDEST PUSH0 JUMPDEST DUP4 DUP2 LT ISZERO PUSH2 0x3487 JUMPI DUP2 DUP2 ADD MLOAD DUP4 DUP3 ADD MSTORE PUSH1 0x20 ADD PUSH2 0x346F JUMP JUMPDEST POP POP PUSH0 SWAP2 ADD MSTORE JUMP JUMPDEST PUSH0 DUP2 MLOAD DUP1 DUP5 MSTORE PUSH2 0x34A6 DUP2 PUSH1 0x20 DUP7 ADD PUSH1 0x20 DUP7 ADD PUSH2 0x346D JUMP JUMPDEST PUSH1 0x1F ADD PUSH1 0x1F NOT AND SWAP3 SWAP1 SWAP3 ADD PUSH1 0x20 ADD SWAP3 SWAP2 POP POP JUMP JUMPDEST PUSH1 0x20 DUP2 MSTORE PUSH0 PUSH2 0x32D1 PUSH1 0x20 DUP4 ADD DUP5 PUSH2 0x348F JUMP JUMPDEST PUSH0 PUSH1 0x20 DUP3 DUP5 SUB SLT ISZERO PUSH2 0x34DC JUMPI PUSH0 DUP1 REVERT JUMPDEST DUP2 CALLDATALOAD PUSH2 0x32D1 DUP2 PUSH2 0x342F JUMP JUMPDEST PUSH0 DUP1 PUSH0 PUSH1 0x60 DUP5 DUP7 SUB SLT ISZERO PUSH2 0x34F9 JUMPI PUSH0 DUP1 REVERT JUMPDEST DUP4 CALLDATALOAD PUSH2 0x3504 DUP2 PUSH2 0x342F JUMP JUMPDEST SWAP3 POP PUSH1 0x20 DUP5 ADD CALLDATALOAD PUSH2 0x3514 DUP2 PUSH2 0x342F JUMP JUMPDEST SWAP3 SWAP6 SWAP3 SWAP5 POP POP POP PUSH1 0x40 SWAP2 SWAP1 SWAP2 ADD CALLDATALOAD SWAP1 JUMP JUMPDEST PUSH4 0x4E487B71 PUSH1 0xE0 SHL PUSH0 MSTORE PUSH1 0x41 PUSH1 0x4 MSTORE PUSH1 0x24 PUSH0 REVERT JUMPDEST PUSH1 0x40 MLOAD PUSH1 0x1F DUP3 ADD PUSH1 0x1F NOT AND DUP2 ADD PUSH8 0xFFFFFFFFFFFFFFFF DUP2 GT DUP3 DUP3 LT OR ISZERO PUSH2 0x3562 JUMPI PUSH2 0x3562 PUSH2 0x3525 JUMP JUMPDEST PUSH1 0x40 MSTORE SWAP2 SWAP1 POP JUMP JUMPDEST PUSH0 DUP3 PUSH1 0x1F DUP4 ADD SLT PUSH2 0x3579 JUMPI PUSH0 DUP1 REVERT JUMPDEST DUP2 CALLDATALOAD PUSH8 0xFFFFFFFFFFFFFFFF DUP2 GT ISZERO PUSH2 0x3593 JUMPI PUSH2 0x3593 PUSH2 0x3525 JUMP JUMPDEST PUSH2 0x35A6 PUSH1 0x1F DUP3 ADD PUSH1 0x1F NOT AND PUSH1 0x20 ADD PUSH2 0x3539 JUMP JUMPDEST DUP2 DUP2 MSTORE DUP5 PUSH1 0x20 DUP4 DUP7 ADD ADD GT ISZERO PUSH2 0x35BA JUMPI PUSH0 DUP1 REVERT JUMPDEST DUP2 PUSH1 0x20 DUP6 ADD PUSH1 0x20 DUP4 ADD CALLDATACOPY PUSH0 SWAP2 DUP2 ADD PUSH1 0x20 ADD SWAP2 SWAP1 SWAP2 MSTORE SWAP4 SWAP3 POP POP POP JUMP JUMPDEST PUSH0 DUP1 PUSH0 PUSH1 0x60 DUP5 DUP7 SUB SLT ISZERO PUSH2 0x35E8 JUMPI PUSH0 DUP1 REVERT JUMPDEST DUP4 CALLDATALOAD PUSH2 0x35F3 DUP2 PUSH2 0x342F JUMP JUMPDEST SWAP3 POP PUSH1 0x20 DUP5 DUP2 ADD CALLDATALOAD PUSH8 0xFFFFFFFFFFFFFFFF DUP1 DUP3 GT ISZERO PUSH2 0x3610 JUMPI PUSH0 DUP1 REVERT JUMPDEST DUP2 DUP8 ADD SWAP2 POP DUP8 PUSH1 0x1F DUP4 ADD SLT PUSH2 0x3623 JUMPI PUSH0 DUP1 REVERT JUMPDEST DUP2 CALLDATALOAD DUP2 DUP2 GT ISZERO PUSH2 0x3635 JUMPI PUSH2 0x3635 PUSH2 0x3525 JUMP JUMPDEST DUP1 PUSH1 0x5 SHL PUSH2 0x3644 DUP6 DUP3 ADD PUSH2 0x3539 JUMP JUMPDEST SWAP2 DUP3 MSTORE DUP4 DUP2 ADD DUP6 ADD SWAP2 DUP6 DUP2 ADD SWAP1 DUP12 DUP5 GT ISZERO PUSH2 0x365D JUMPI PUSH0 DUP1 REVERT JUMPDEST SWAP5 DUP7 ADD SWAP5 JUMPDEST DUP4 DUP7 LT ISZERO PUSH2 0x367B JUMPI DUP6 CALLDATALOAD DUP3 MSTORE SWAP5 DUP7 ADD SWAP5 SWAP1 DUP7 ADD SWAP1 PUSH2 0x3662 JUMP JUMPDEST SWAP8 POP POP POP POP PUSH1 0x40 DUP8 ADD CALLDATALOAD SWAP3 POP DUP1 DUP4 GT ISZERO PUSH2 0x3693 JUMPI PUSH0 DUP1 REVERT JUMPDEST POP POP PUSH2 0x36A1 DUP7 DUP3 DUP8 ADD PUSH2 0x356A JUMP JUMPDEST SWAP2 POP POP SWAP3 POP SWAP3 POP SWAP3 JUMP JUMPDEST PUSH0 DUP1 PUSH0 PUSH1 0x60 DUP5 DUP7 SUB SLT ISZERO PUSH2 0x36BD JUMPI PUSH0 DUP1 REVERT JUMPDEST DUP4 CALLDATALOAD SWAP3 POP PUSH1 0x20 DUP5 ADD CALLDATALOAD SWAP2 POP PUSH1 0x40 DUP5 ADD CALLDATALOAD PUSH2 0x36D6 DUP2 PUSH2 0x342F JUMP JUMPDEST DUP1 SWAP2 POP POP SWAP3 POP SWAP3 POP SWAP3 JUMP JUMPDEST PUSH0 DUP1 PUSH0 PUSH1 0x60 DUP5 DUP7 SUB SLT ISZERO PUSH2 0x36F3 JUMPI PUSH0 DUP1 REVERT JUMPDEST DUP4 CALLDATALOAD PUSH8 0xFFFFFFFFFFFFFFFF DUP2 GT ISZERO PUSH2 0x3709 JUMPI PUSH0 DUP1 REVERT JUMPDEST PUSH2 0x3715 DUP7 DUP3 DUP8 ADD PUSH2 0x356A JUMP JUMPDEST SWAP4 POP POP PUSH1 0x20 DUP5 ADD CALLDATALOAD PUSH2 0x3514 DUP2 PUSH2 0x342F JUMP JUMPDEST PUSH0 DUP1 PUSH1 0x40 DUP4 DUP6 SUB SLT ISZERO PUSH2 0x3737 JUMPI PUSH0 DUP1 REVERT JUMPDEST DUP3 CALLDATALOAD PUSH2 0x3742 DUP2 PUSH2 0x342F JUMP JUMPDEST SWAP2 POP PUSH1 0x20 DUP4 ADD CALLDATALOAD PUSH2 0x3752 DUP2 PUSH2 0x342F JUMP JUMPDEST DUP1 SWAP2 POP POP SWAP3 POP SWAP3 SWAP1 POP JUMP JUMPDEST PUSH4 0x4E487B71 PUSH1 0xE0 SHL PUSH0 MSTORE PUSH1 0x11 PUSH1 0x4 MSTORE PUSH1 0x24 PUSH0 REVERT JUMPDEST PUSH1 0xFF DUP3 DUP2 AND DUP3 DUP3 AND SUB SWAP1 DUP2 GT ISZERO PUSH2 0xC7E JUMPI PUSH2 0xC7E PUSH2 0x375D JUMP JUMPDEST PUSH1 0x1 DUP2 DUP2 JUMPDEST DUP1 DUP6 GT ISZERO PUSH2 0x37C4 JUMPI DUP2 PUSH0 NOT DIV DUP3 GT ISZERO PUSH2 0x37AA JUMPI PUSH2 0x37AA PUSH2 0x375D JUMP JUMPDEST DUP1 DUP6 AND ISZERO PUSH2 0x37B7 JUMPI SWAP2 DUP2 MUL SWAP2 JUMPDEST SWAP4 DUP5 SHR SWAP4 SWAP1 DUP1 MUL SWAP1 PUSH2 0x378F JUMP JUMPDEST POP SWAP3 POP SWAP3 SWAP1 POP JUMP JUMPDEST PUSH0 DUP3 PUSH2 0x37DA JUMPI POP PUSH1 0x1 PUSH2 0xC7E JUMP JUMPDEST DUP2 PUSH2 0x37E6 JUMPI POP PUSH0 PUSH2 0xC7E JUMP JUMPDEST DUP2 PUSH1 0x1 DUP2 EQ PUSH2 0x37FC JUMPI PUSH1 0x2 DUP2 EQ PUSH2 0x3806 JUMPI PUSH2 0x3822 JUMP JUMPDEST PUSH1 0x1 SWAP2 POP POP PUSH2 0xC7E JUMP JUMPDEST PUSH1 0xFF DUP5 GT ISZERO PUSH2 0x3817 JUMPI PUSH2 0x3817 PUSH2 0x375D JUMP JUMPDEST POP POP PUSH1 0x1 DUP3 SHL PUSH2 0xC7E JUMP JUMPDEST POP PUSH1 0x20 DUP4 LT PUSH2 0x133 DUP4 LT AND PUSH1 0x4E DUP5 LT PUSH1 0xB DUP5 LT AND OR ISZERO PUSH2 0x3845 JUMPI POP DUP2 DUP2 EXP PUSH2 0xC7E JUMP JUMPDEST PUSH2 0x384F DUP4 DUP4 PUSH2 0x378A JUMP JUMPDEST DUP1 PUSH0 NOT DIV DUP3 GT ISZERO PUSH2 0x3862 JUMPI PUSH2 0x3862 PUSH2 0x375D JUMP JUMPDEST MUL SWAP4 SWAP3 POP POP POP JUMP JUMPDEST PUSH0 PUSH2 0x32D1 PUSH1 0xFF DUP5 AND DUP4 PUSH2 0x37CC JUMP JUMPDEST DUP1 DUP3 MUL DUP2 ISZERO DUP3 DUP3 DIV DUP5 EQ OR PUSH2 0xC7E JUMPI PUSH2 0xC7E PUSH2 0x375D JUMP JUMPDEST PUSH1 0x20 DUP1 DUP3 MSTORE DUP2 DUP2 ADD MSTORE PUSH32 0x4F776E61626C653A2063616C6C6572206973206E6F7420746865206F776E6572 PUSH1 0x40 DUP3 ADD MSTORE PUSH1 0x60 ADD SWAP1 JUMP JUMPDEST DUP1 DUP3 ADD DUP1 DUP3 GT ISZERO PUSH2 0xC7E JUMPI PUSH2 0xC7E PUSH2 0x375D JUMP JUMPDEST PUSH0 DUP3 MLOAD PUSH2 0x38E8 DUP2 DUP5 PUSH1 0x20 DUP8 ADD PUSH2 0x346D JUMP JUMPDEST SWAP2 SWAP1 SWAP2 ADD SWAP3 SWAP2 POP POP JUMP JUMPDEST PUSH1 0x20 DUP1 DUP3 MSTORE PUSH1 0x24 SWAP1 DUP3 ADD MSTORE PUSH32 0x42616C616E636520646F6573206E6F74206861766520656E6F75676820506F74 PUSH1 0x40 DUP3 ADD MSTORE PUSH4 0x696F6E73 PUSH1 0xE0 SHL PUSH1 0x60 DUP3 ADD MSTORE PUSH1 0x80 ADD SWAP1 JUMP JUMPDEST PUSH4 0x4E487B71 PUSH1 0xE0 SHL PUSH0 MSTORE PUSH1 0x32 PUSH1 0x4 MSTORE PUSH1 0x24 PUSH0 REVERT JUMPDEST DUP2 DUP2 SUB DUP2 DUP2 GT ISZERO PUSH2 0xC7E JUMPI PUSH2 0xC7E PUSH2 0x375D JUMP JUMPDEST PUSH0 PUSH1 0x1 DUP3 ADD PUSH2 0x396E JUMPI PUSH2 0x396E PUSH2 0x375D JUMP JUMPDEST POP PUSH1 0x1 ADD SWAP1 JUMP JUMPDEST PUSH1 0x20 DUP1 DUP3 MSTORE PUSH1 0x21 SWAP1 DUP3 ADD MSTORE PUSH32 0x42616C616E636520646F6573206E6F74206861766520656E6F7567682048474D PUSH1 0x40 DUP3 ADD MSTORE PUSH1 0x53 PUSH1 0xF8 SHL PUSH1 0x60 DUP3 ADD MSTORE PUSH1 0x80 ADD SWAP1 JUMP JUMPDEST PUSH1 0x20 DUP1 DUP3 MSTORE DUP2 DUP2 ADD MSTORE PUSH32 0x42616C616E636520646F6573206E6F74206861766520656E6F75676820455448 PUSH1 0x40 DUP3 ADD MSTORE PUSH1 0x60 ADD SWAP1 JUMP JUMPDEST PUSH1 0x60 DUP2 MSTORE PUSH0 PUSH2 0x39FD PUSH1 0x60 DUP4 ADD DUP7 PUSH2 0x348F JUMP JUMPDEST PUSH1 0x20 DUP4 ADD SWAP5 SWAP1 SWAP5 MSTORE POP PUSH1 0x40 ADD MSTORE SWAP2 SWAP1 POP JUMP JUMPDEST PUSH0 PUSH1 0x20 DUP3 DUP5 SUB SLT ISZERO PUSH2 0x3A1F JUMPI PUSH0 DUP1 REVERT JUMPDEST DUP2 MLOAD PUSH2 0x32D1 DUP2 PUSH2 0x342F JUMP JUMPDEST PUSH0 DUP1 PUSH0 PUSH1 0x60 DUP5 DUP7 SUB SLT ISZERO PUSH2 0x3A3C JUMPI PUSH0 DUP1 REVERT JUMPDEST DUP4 MLOAD SWAP3 POP PUSH1 0x20 DUP5 ADD MLOAD SWAP2 POP PUSH1 0x40 DUP5 ADD MLOAD SWAP1 POP SWAP3 POP SWAP3 POP SWAP3 JUMP JUMPDEST PUSH0 PUSH1 0x20 DUP3 DUP5 SUB SLT ISZERO PUSH2 0x3A65 JUMPI PUSH0 DUP1 REVERT JUMPDEST DUP2 MLOAD DUP1 ISZERO ISZERO DUP2 EQ PUSH2 0x32D1 JUMPI PUSH0 DUP1 REVERT JUMPDEST PUSH0 PUSH1 0xA0 DUP3 ADD DUP8 DUP4 MSTORE PUSH1 0x20 DUP8 DUP2 DUP6 ADD MSTORE PUSH1 0xA0 PUSH1 0x40 DUP6 ADD MSTORE DUP2 DUP8 MLOAD DUP1 DUP5 MSTORE PUSH1 0xC0 DUP7 ADD SWAP2 POP DUP3 DUP10 ADD SWAP4 POP PUSH0 JUMPDEST DUP2 DUP2 LT ISZERO PUSH2 0x3AC2 JUMPI DUP5 MLOAD PUSH1 0x1 PUSH1 0x1 PUSH1 0xA0 SHL SUB AND DUP4 MSTORE SWAP4 DUP4 ADD SWAP4 SWAP2 DUP4 ADD SWAP2 PUSH1 0x1 ADD PUSH2 0x3A9D JUMP JUMPDEST POP POP PUSH1 0x1 PUSH1 0x1 PUSH1 0xA0 SHL SUB SWAP7 SWAP1 SWAP7 AND PUSH1 0x60 DUP6 ADD MSTORE POP POP POP PUSH1 0x80 ADD MSTORE SWAP4 SWAP3 POP POP POP JUMP JUMPDEST PUSH0 DUP3 PUSH2 0x3AFD JUMPI PUSH4 0x4E487B71 PUSH1 0xE0 SHL PUSH0 MSTORE PUSH1 0x12 PUSH1 0x4 MSTORE PUSH1 0x24 PUSH0 REVERT JUMPDEST POP DIV SWAP1 JUMP INVALID GASLIMIT MSTORE NUMBER ORIGIN ADDRESS GASPRICE KECCAK256 PUSH21 0x72616E7366657220616D6F756E7420657863656564 PUSH20 0x20616C6C6F77616E6365A2646970667358221220 0xD4 0xDE DUP8 0xCC 0xD7 0xF8 0xAB DUP12 0x4F RETURN GASPRICE SWAP14 SWAP11 JUMPDEST 0x2C DUP3 PUSH30 0xFDB3241EE4B74FF5DC9B865CF7EBE464736F6C6343000815003300000000 "
		},
		"gasEstimates": {
			"creation": {
				"codeDepositCost": "3040000",
				"executionCost": "infinite",
				"totalCost": "infinite"
			},
			"external": {
				"BOOSTPriceETH()": "2427",
				"BOOSTPriceHGMS()": "2426",
				"BOOSTShopBalances(address)": "2621",
				"ManualSwap()": "infinite",
				"NFTBOOSTBalance(uint256)": "2528",
				"NFTSKIPBalance(uint256)": "2526",
				"NFTVBalance(uint256)": "2548",
				"NFTXTRABalance(uint256)": "2502",
				"SKIPPriceETH()": "2384",
				"SKIPPriceHGMS()": "2428",
				"SKIPShopBalances(address)": "2621",
				"VPriceETH()": "2363",
				"VPriceHGMS()": "2383",
				"VShopBalances(address)": "2622",
				"XTRAPriceETH()": "2428",
				"XTRAPriceHGMS()": "2362",
				"XTRAShopBalances(address)": "2578",
				"_battleContract()": "2425",
				"_devWallet()": "2449",
				"_maintenanceWallet()": "2470",
				"_marketWallet()": "2447",
				"_maxTaxSwap()": "2385",
				"_maxTxAmount()": "2385",
				"_maxWalletSize()": "2384",
				"_taxSwapThreshold()": "2362",
				"_teamWallet()": "2426",
				"allowance(address,address)": "infinite",
				"applyPotion(address,uint256[],string)": "infinite",
				"approve(address,uint256)": "24667",
				"balanceOf(address)": "2639",
				"buyPotion(string,address,uint256)": "infinite",
				"decimals()": "244",
				"depositToShop(uint256,uint256)": "infinite",
				"depositToShopTelegram(uint256,uint256,address)": "infinite",
				"ethShopBalances(address)": "2643",
				"getNFTBOOSTBalance(uint256)": "2548",
				"getNFTSKIPBalance(uint256)": "2525",
				"getNFTVBalance(uint256)": "2526",
				"getNFTXTRABalance(uint256)": "2527",
				"hgmsShopBalances(address)": "2645",
				"manualSend()": "infinite",
				"name()": "infinite",
				"openTrading()": "infinite",
				"owner()": "2397",
				"payoutWinners(address,uint256)": "infinite",
				"potionsUsed(uint256)": "2502",
				"removeLimits()": "76116",
				"removePotions(uint256,uint256)": "198039",
				"renounceOwnership()": "30294",
				"setBOOSTPrice(uint256,uint256)": "infinite",
				"setBattleContract(address)": "26771",
				"setSKIPrice(uint256,uint256)": "infinite",
				"setVPrice(uint256,uint256)": "infinite",
				"setXTRAPrice(uint256,uint256)": "infinite",
				"symbol()": "infinite",
				"totalSupply()": "2426",
				"transfer(address,uint256)": "infinite",
				"transferDelayEnabled()": "2449",
				"transferFrom(address,address,uint256)": "infinite",
				"withdrawStuckETH()": "infinite",
				"withdrawTokens(address,uint256)": "infinite"
			},
			"internal": {
				"_approve(address,address,uint256)": "infinite",
				"_burn(address,uint256)": "infinite",
				"_removeLimits()": "infinite",
				"_transfer(address,address,uint256)": "infinite",
				"min(uint256,uint256)": "60",
				"sendETHToFee(uint256)": "infinite",
				"swapTokensForEth(uint256)": "infinite"
			}
		},
		"methodIdentifiers": {
			"BOOSTPriceETH()": "f2b4c325",
			"BOOSTPriceHGMS()": "f7685a02",
			"BOOSTShopBalances(address)": "d677d03e",
			"ManualSwap()": "a1780c18",
			"NFTBOOSTBalance(uint256)": "039aa9cf",
			"NFTSKIPBalance(uint256)": "54ca45d8",
			"NFTVBalance(uint256)": "580a155a",
			"NFTXTRABalance(uint256)": "f3a395fc",
			"SKIPPriceETH()": "21e09b34",
			"SKIPPriceHGMS()": "66b6090f",
			"SKIPShopBalances(address)": "f2a6227f",
			"VPriceETH()": "298a8328",
			"VPriceHGMS()": "eb77dbb1",
			"VShopBalances(address)": "c232ae4d",
			"XTRAPriceETH()": "24aede52",
			"XTRAPriceHGMS()": "19dde7b7",
			"XTRAShopBalances(address)": "52d3c14e",
			"_battleContract()": "ce9dc805",
			"_devWallet()": "11a63e17",
			"_maintenanceWallet()": "51a2f687",
			"_marketWallet()": "bbab0ff1",
			"_maxTaxSwap()": "0faee56f",
			"_maxTxAmount()": "7d1db4a5",
			"_maxWalletSize()": "8f9a55c0",
			"_taxSwapThreshold()": "bf474bed",
			"_teamWallet()": "37e294d5",
			"allowance(address,address)": "dd62ed3e",
			"applyPotion(address,uint256[],string)": "81cd58e5",
			"approve(address,uint256)": "095ea7b3",
			"balanceOf(address)": "70a08231",
			"buyPotion(string,address,uint256)": "a233900f",
			"decimals()": "313ce567",
			"depositToShop(uint256,uint256)": "2d4bbb05",
			"depositToShopTelegram(uint256,uint256,address)": "9d391300",
			"ethShopBalances(address)": "be68e027",
			"getNFTBOOSTBalance(uint256)": "3b32edd4",
			"getNFTSKIPBalance(uint256)": "6e2ed3c4",
			"getNFTVBalance(uint256)": "c1ae5e72",
			"getNFTXTRABalance(uint256)": "2ace2af5",
			"hgmsShopBalances(address)": "0d2d697a",
			"manualSend()": "f4293890",
			"name()": "06fdde03",
			"openTrading()": "c9567bf9",
			"owner()": "8da5cb5b",
			"payoutWinners(address,uint256)": "af95d4d3",
			"potionsUsed(uint256)": "eb429bf8",
			"removeLimits()": "751039fc",
			"removePotions(uint256,uint256)": "09eadbf5",
			"renounceOwnership()": "715018a6",
			"setBOOSTPrice(uint256,uint256)": "6a4d84f9",
			"setBattleContract(address)": "0db6dff7",
			"setSKIPrice(uint256,uint256)": "008b8185",
			"setVPrice(uint256,uint256)": "abb284e9",
			"setXTRAPrice(uint256,uint256)": "8fbd8f27",
			"symbol()": "95d89b41",
			"totalSupply()": "18160ddd",
			"transfer(address,uint256)": "a9059cbb",
			"transferDelayEnabled()": "c876d0b9",
			"transferFrom(address,address,uint256)": "23b872dd",
			"withdrawStuckETH()": "f5648a4f",
			"withdrawTokens(address,uint256)": "06b091f9"
		}
	},
	"abi": [
		{
			"inputs": [],
			"stateMutability": "nonpayable",
			"type": "constructor"
		},
		{
			"anonymous": false,
			"inputs": [
				{
					"indexed": true,
					"internalType": "address",
					"name": "owner",
					"type": "address"
				},
				{
					"indexed": true,
					"internalType": "address",
					"name": "spender",
					"type": "address"
				},
				{
					"indexed": false,
					"internalType": "uint256",
					"name": "value",
					"type": "uint256"
				}
			],
			"name": "Approval",
			"type": "event"
		},
		{
			"anonymous": false,
			"inputs": [
				{
					"indexed": true,
					"internalType": "address",
					"name": "account",
					"type": "address"
				},
				{
					"indexed": false,
					"internalType": "uint256",
					"name": "amount",
					"type": "uint256"
				}
			],
			"name": "Burn",
			"type": "event"
		},
		{
			"anonymous": false,
			"inputs": [],
			"name": "Deposit",
			"type": "event"
		},
		{
			"anonymous": false,
			"inputs": [
				{
					"indexed": false,
					"internalType": "uint256",
					"name": "_maxTxAmount",
					"type": "uint256"
				}
			],
			"name": "MaxTxAmountUpdated",
			"type": "event"
		},
		{
			"anonymous": false,
			"inputs": [
				{
					"indexed": true,
					"internalType": "address",
					"name": "previousOwner",
					"type": "address"
				},
				{
					"indexed": true,
					"internalType": "address",
					"name": "newOwner",
					"type": "address"
				}
			],
			"name": "OwnershipTransferred",
			"type": "event"
		},
		{
			"anonymous": false,
			"inputs": [
				{
					"indexed": true,
					"internalType": "address",
					"name": "buyer",
					"type": "address"
				},
				{
					"indexed": true,
					"internalType": "address",
					"name": "shopOwner",
					"type": "address"
				},
				{
					"indexed": false,
					"internalType": "string",
					"name": "potionName",
					"type": "string"
				},
				{
					"indexed": false,
					"internalType": "uint256",
					"name": "ethAmount",
					"type": "uint256"
				},
				{
					"indexed": false,
					"internalType": "uint256",
					"name": "hgmsAmount",
					"type": "uint256"
				}
			],
			"name": "PotionPurchased",
			"type": "event"
		},
		{
			"anonymous": false,
			"inputs": [
				{
					"indexed": false,
					"internalType": "uint256",
					"name": "nftId1",
					"type": "uint256"
				},
				{
					"indexed": false,
					"internalType": "uint256",
					"name": "nftId2",
					"type": "uint256"
				}
			],
			"name": "PotionsRemoved",
			"type": "event"
		},
		{
			"anonymous": false,
			"inputs": [
				{
					"indexed": true,
					"internalType": "address",
					"name": "from",
					"type": "address"
				},
				{
					"indexed": true,
					"internalType": "address",
					"name": "to",
					"type": "address"
				},
				{
					"indexed": false,
					"internalType": "uint256",
					"name": "value",
					"type": "uint256"
				}
			],
			"name": "Transfer",
			"type": "event"
		},
		{
			"inputs": [],
			"name": "BOOSTPriceETH",
			"outputs": [
				{
					"internalType": "uint256",
					"name": "",
					"type": "uint256"
				}
			],
			"stateMutability": "view",
			"type": "function"
		},
		{
			"inputs": [],
			"name": "BOOSTPriceHGMS",
			"outputs": [
				{
					"internalType": "uint256",
					"name": "",
					"type": "uint256"
				}
			],
			"stateMutability": "view",
			"type": "function"
		},
		{
			"inputs": [
				{
					"internalType": "address",
					"name": "",
					"type": "address"
				}
			],
			"name": "BOOSTShopBalances",
			"outputs": [
				{
					"internalType": "uint256",
					"name": "",
					"type": "uint256"
				}
			],
			"stateMutability": "view",
			"type": "function"
		},
		{
			"inputs": [],
			"name": "ManualSwap",
			"outputs": [],
			"stateMutability": "nonpayable",
			"type": "function"
		},
		{
			"inputs": [
				{
					"internalType": "uint256",
					"name": "",
					"type": "uint256"
				}
			],
			"name": "NFTBOOSTBalance",
			"outputs": [
				{
					"internalType": "bool",
					"name": "",
					"type": "bool"
				}
			],
			"stateMutability": "view",
			"type": "function"
		},
		{
			"inputs": [
				{
					"internalType": "uint256",
					"name": "",
					"type": "uint256"
				}
			],
			"name": "NFTSKIPBalance",
			"outputs": [
				{
					"internalType": "bool",
					"name": "",
					"type": "bool"
				}
			],
			"stateMutability": "view",
			"type": "function"
		},
		{
			"inputs": [
				{
					"internalType": "uint256",
					"name": "",
					"type": "uint256"
				}
			],
			"name": "NFTVBalance",
			"outputs": [
				{
					"internalType": "bool",
					"name": "",
					"type": "bool"
				}
			],
			"stateMutability": "view",
			"type": "function"
		},
		{
			"inputs": [
				{
					"internalType": "uint256",
					"name": "",
					"type": "uint256"
				}
			],
			"name": "NFTXTRABalance",
			"outputs": [
				{
					"internalType": "bool",
					"name": "",
					"type": "bool"
				}
			],
			"stateMutability": "view",
			"type": "function"
		},
		{
			"inputs": [],
			"name": "SKIPPriceETH",
			"outputs": [
				{
					"internalType": "uint256",
					"name": "",
					"type": "uint256"
				}
			],
			"stateMutability": "view",
			"type": "function"
		},
		{
			"inputs": [],
			"name": "SKIPPriceHGMS",
			"outputs": [
				{
					"internalType": "uint256",
					"name": "",
					"type": "uint256"
				}
			],
			"stateMutability": "view",
			"type": "function"
		},
		{
			"inputs": [
				{
					"internalType": "address",
					"name": "",
					"type": "address"
				}
			],
			"name": "SKIPShopBalances",
			"outputs": [
				{
					"internalType": "uint256",
					"name": "",
					"type": "uint256"
				}
			],
			"stateMutability": "view",
			"type": "function"
		},
		{
			"inputs": [],
			"name": "VPriceETH",
			"outputs": [
				{
					"internalType": "uint256",
					"name": "",
					"type": "uint256"
				}
			],
			"stateMutability": "view",
			"type": "function"
		},
		{
			"inputs": [],
			"name": "VPriceHGMS",
			"outputs": [
				{
					"internalType": "uint256",
					"name": "",
					"type": "uint256"
				}
			],
			"stateMutability": "view",
			"type": "function"
		},
		{
			"inputs": [
				{
					"internalType": "address",
					"name": "",
					"type": "address"
				}
			],
			"name": "VShopBalances",
			"outputs": [
				{
					"internalType": "uint256",
					"name": "",
					"type": "uint256"
				}
			],
			"stateMutability": "view",
			"type": "function"
		},
		{
			"inputs": [],
			"name": "XTRAPriceETH",
			"outputs": [
				{
					"internalType": "uint256",
					"name": "",
					"type": "uint256"
				}
			],
			"stateMutability": "view",
			"type": "function"
		},
		{
			"inputs": [],
			"name": "XTRAPriceHGMS",
			"outputs": [
				{
					"internalType": "uint256",
					"name": "",
					"type": "uint256"
				}
			],
			"stateMutability": "view",
			"type": "function"
		},
		{
			"inputs": [
				{
					"internalType": "address",
					"name": "",
					"type": "address"
				}
			],
			"name": "XTRAShopBalances",
			"outputs": [
				{
					"internalType": "uint256",
					"name": "",
					"type": "uint256"
				}
			],
			"stateMutability": "view",
			"type": "function"
		},
		{
			"inputs": [],
			"name": "_battleContract",
			"outputs": [
				{
					"internalType": "address",
					"name": "",
					"type": "address"
				}
			],
			"stateMutability": "view",
			"type": "function"
		},
		{
			"inputs": [],
			"name": "_devWallet",
			"outputs": [
				{
					"internalType": "address payable",
					"name": "",
					"type": "address"
				}
			],
			"stateMutability": "view",
			"type": "function"
		},
		{
			"inputs": [],
			"name": "_maintenanceWallet",
			"outputs": [
				{
					"internalType": "address payable",
					"name": "",
					"type": "address"
				}
			],
			"stateMutability": "view",
			"type": "function"
		},
		{
			"inputs": [],
			"name": "_marketWallet",
			"outputs": [
				{
					"internalType": "address payable",
					"name": "",
					"type": "address"
				}
			],
			"stateMutability": "view",
			"type": "function"
		},
		{
			"inputs": [],
			"name": "_maxTaxSwap",
			"outputs": [
				{
					"internalType": "uint256",
					"name": "",
					"type": "uint256"
				}
			],
			"stateMutability": "view",
			"type": "function"
		},
		{
			"inputs": [],
			"name": "_maxTxAmount",
			"outputs": [
				{
					"internalType": "uint256",
					"name": "",
					"type": "uint256"
				}
			],
			"stateMutability": "view",
			"type": "function"
		},
		{
			"inputs": [],
			"name": "_maxWalletSize",
			"outputs": [
				{
					"internalType": "uint256",
					"name": "",
					"type": "uint256"
				}
			],
			"stateMutability": "view",
			"type": "function"
		},
		{
			"inputs": [],
			"name": "_taxSwapThreshold",
			"outputs": [
				{
					"internalType": "uint256",
					"name": "",
					"type": "uint256"
				}
			],
			"stateMutability": "view",
			"type": "function"
		},
		{
			"inputs": [],
			"name": "_teamWallet",
			"outputs": [
				{
					"internalType": "address payable",
					"name": "",
					"type": "address"
				}
			],
			"stateMutability": "view",
			"type": "function"
		},
		{
			"inputs": [
				{
					"internalType": "address",
					"name": "owner",
					"type": "address"
				},
				{
					"internalType": "address",
					"name": "spender",
					"type": "address"
				}
			],
			"name": "allowance",
			"outputs": [
				{
					"internalType": "uint256",
					"name": "",
					"type": "uint256"
				}
			],
			"stateMutability": "view",
			"type": "function"
		},
		{
			"inputs": [
				{
					"internalType": "address",
					"name": "shopOwner",
					"type": "address"
				},
				{
					"internalType": "uint256[]",
					"name": "NFTId",
					"type": "uint256[]"
				},
				{
					"internalType": "string",
					"name": "potionName",
					"type": "string"
				}
			],
			"name": "applyPotion",
			"outputs": [],
			"stateMutability": "nonpayable",
			"type": "function"
		},
		{
			"inputs": [
				{
					"internalType": "address",
					"name": "spender",
					"type": "address"
				},
				{
					"internalType": "uint256",
					"name": "amount",
					"type": "uint256"
				}
			],
			"name": "approve",
			"outputs": [
				{
					"internalType": "bool",
					"name": "",
					"type": "bool"
				}
			],
			"stateMutability": "nonpayable",
			"type": "function"
		},
		{
			"inputs": [
				{
					"internalType": "address",
					"name": "account",
					"type": "address"
				}
			],
			"name": "balanceOf",
			"outputs": [
				{
					"internalType": "uint256",
					"name": "",
					"type": "uint256"
				}
			],
			"stateMutability": "view",
			"type": "function"
		},
		{
			"inputs": [
				{
					"internalType": "string",
					"name": "potionName",
					"type": "string"
				},
				{
					"internalType": "address",
					"name": "shopOwner",
					"type": "address"
				},
				{
					"internalType": "uint256",
					"name": "amount",
					"type": "uint256"
				}
			],
			"name": "buyPotion",
			"outputs": [],
			"stateMutability": "nonpayable",
			"type": "function"
		},
		{
			"inputs": [],
			"name": "decimals",
			"outputs": [
				{
					"internalType": "uint8",
					"name": "",
					"type": "uint8"
				}
			],
			"stateMutability": "pure",
			"type": "function"
		},
		{
			"inputs": [
				{
					"internalType": "uint256",
					"name": "hgmsAmount",
					"type": "uint256"
				},
				{
					"internalType": "uint256",
					"name": "ethAmount",
					"type": "uint256"
				}
			],
			"name": "depositToShop",
			"outputs": [],
			"stateMutability": "payable",
			"type": "function"
		},
		{
			"inputs": [
				{
					"internalType": "uint256",
					"name": "hgmsAmount",
					"type": "uint256"
				},
				{
					"internalType": "uint256",
					"name": "ethAmount",
					"type": "uint256"
				},
				{
					"internalType": "address",
					"name": "shopOwner",
					"type": "address"
				}
			],
			"name": "depositToShopTelegram",
			"outputs": [],
			"stateMutability": "payable",
			"type": "function"
		},
		{
			"inputs": [
				{
					"internalType": "address",
					"name": "",
					"type": "address"
				}
			],
			"name": "ethShopBalances",
			"outputs": [
				{
					"internalType": "uint256",
					"name": "",
					"type": "uint256"
				}
			],
			"stateMutability": "view",
			"type": "function"
		},
		{
			"inputs": [
				{
					"internalType": "uint256",
					"name": "NFTId",
					"type": "uint256"
				}
			],
			"name": "getNFTBOOSTBalance",
			"outputs": [
				{
					"internalType": "bool",
					"name": "",
					"type": "bool"
				}
			],
			"stateMutability": "view",
			"type": "function"
		},
		{
			"inputs": [
				{
					"internalType": "uint256",
					"name": "NFTId",
					"type": "uint256"
				}
			],
			"name": "getNFTSKIPBalance",
			"outputs": [
				{
					"internalType": "bool",
					"name": "",
					"type": "bool"
				}
			],
			"stateMutability": "view",
			"type": "function"
		},
		{
			"inputs": [
				{
					"internalType": "uint256",
					"name": "NFTId",
					"type": "uint256"
				}
			],
			"name": "getNFTVBalance",
			"outputs": [
				{
					"internalType": "bool",
					"name": "",
					"type": "bool"
				}
			],
			"stateMutability": "view",
			"type": "function"
		},
		{
			"inputs": [
				{
					"internalType": "uint256",
					"name": "NFTId",
					"type": "uint256"
				}
			],
			"name": "getNFTXTRABalance",
			"outputs": [
				{
					"internalType": "bool",
					"name": "",
					"type": "bool"
				}
			],
			"stateMutability": "view",
			"type": "function"
		},
		{
			"inputs": [
				{
					"internalType": "address",
					"name": "",
					"type": "address"
				}
			],
			"name": "hgmsShopBalances",
			"outputs": [
				{
					"internalType": "uint256",
					"name": "",
					"type": "uint256"
				}
			],
			"stateMutability": "view",
			"type": "function"
		},
		{
			"inputs": [],
			"name": "manualSend",
			"outputs": [],
			"stateMutability": "nonpayable",
			"type": "function"
		},
		{
			"inputs": [],
			"name": "name",
			"outputs": [
				{
					"internalType": "string",
					"name": "",
					"type": "string"
				}
			],
			"stateMutability": "pure",
			"type": "function"
		},
		{
			"inputs": [],
			"name": "openTrading",
			"outputs": [],
			"stateMutability": "nonpayable",
			"type": "function"
		},
		{
			"inputs": [],
			"name": "owner",
			"outputs": [
				{
					"internalType": "address",
					"name": "",
					"type": "address"
				}
			],
			"stateMutability": "view",
			"type": "function"
		},
		{
			"inputs": [
				{
					"internalType": "address payable",
					"name": "winner",
					"type": "address"
				},
				{
					"internalType": "uint256",
					"name": "share",
					"type": "uint256"
				}
			],
			"name": "payoutWinners",
			"outputs": [],
			"stateMutability": "nonpayable",
			"type": "function"
		},
		{
			"inputs": [
				{
					"internalType": "uint256",
					"name": "",
					"type": "uint256"
				}
			],
			"name": "potionsUsed",
			"outputs": [
				{
					"internalType": "uint256",
					"name": "",
					"type": "uint256"
				}
			],
			"stateMutability": "view",
			"type": "function"
		},
		{
			"inputs": [],
			"name": "removeLimits",
			"outputs": [],
			"stateMutability": "nonpayable",
			"type": "function"
		},
		{
			"inputs": [
				{
					"internalType": "uint256",
					"name": "First",
					"type": "uint256"
				},
				{
					"internalType": "uint256",
					"name": "Second",
					"type": "uint256"
				}
			],
			"name": "removePotions",
			"outputs": [],
			"stateMutability": "nonpayable",
			"type": "function"
		},
		{
			"inputs": [],
			"name": "renounceOwnership",
			"outputs": [],
			"stateMutability": "nonpayable",
			"type": "function"
		},
		{
			"inputs": [
				{
					"internalType": "uint256",
					"name": "hgmsAmount",
					"type": "uint256"
				},
				{
					"internalType": "uint256",
					"name": "ethAmount",
					"type": "uint256"
				}
			],
			"name": "setBOOSTPrice",
			"outputs": [],
			"stateMutability": "nonpayable",
			"type": "function"
		},
		{
			"inputs": [
				{
					"internalType": "address",
					"name": "BattleContractAddress",
					"type": "address"
				}
			],
			"name": "setBattleContract",
			"outputs": [],
			"stateMutability": "nonpayable",
			"type": "function"
		},
		{
			"inputs": [
				{
					"internalType": "uint256",
					"name": "hgmsAmount",
					"type": "uint256"
				},
				{
					"internalType": "uint256",
					"name": "ethAmount",
					"type": "uint256"
				}
			],
			"name": "setSKIPrice",
			"outputs": [],
			"stateMutability": "nonpayable",
			"type": "function"
		},
		{
			"inputs": [
				{
					"internalType": "uint256",
					"name": "hgmsAmount",
					"type": "uint256"
				},
				{
					"internalType": "uint256",
					"name": "ethAmount",
					"type": "uint256"
				}
			],
			"name": "setVPrice",
			"outputs": [],
			"stateMutability": "nonpayable",
			"type": "function"
		},
		{
			"inputs": [
				{
					"internalType": "uint256",
					"name": "hgmsAmount",
					"type": "uint256"
				},
				{
					"internalType": "uint256",
					"name": "ethAmount",
					"type": "uint256"
				}
			],
			"name": "setXTRAPrice",
			"outputs": [],
			"stateMutability": "nonpayable",
			"type": "function"
		},
		{
			"inputs": [],
			"name": "symbol",
			"outputs": [
				{
					"internalType": "string",
					"name": "",
					"type": "string"
				}
			],
			"stateMutability": "pure",
			"type": "function"
		},
		{
			"inputs": [],
			"name": "totalSupply",
			"outputs": [
				{
					"internalType": "uint256",
					"name": "",
					"type": "uint256"
				}
			],
			"stateMutability": "view",
			"type": "function"
		},
		{
			"inputs": [
				{
					"internalType": "address",
					"name": "recipient",
					"type": "address"
				},
				{
					"internalType": "uint256",
					"name": "amount",
					"type": "uint256"
				}
			],
			"name": "transfer",
			"outputs": [
				{
					"internalType": "bool",
					"name": "",
					"type": "bool"
				}
			],
			"stateMutability": "nonpayable",
			"type": "function"
		},
		{
			"inputs": [],
			"name": "transferDelayEnabled",
			"outputs": [
				{
					"internalType": "bool",
					"name": "",
					"type": "bool"
				}
			],
			"stateMutability": "view",
			"type": "function"
		},
		{
			"inputs": [
				{
					"internalType": "address",
					"name": "sender",
					"type": "address"
				},
				{
					"internalType": "address",
					"name": "recipient",
					"type": "address"
				},
				{
					"internalType": "uint256",
					"name": "amount",
					"type": "uint256"
				}
			],
			"name": "transferFrom",
			"outputs": [
				{
					"internalType": "bool",
					"name": "",
					"type": "bool"
				}
			],
			"stateMutability": "nonpayable",
			"type": "function"
		},
		{
			"inputs": [],
			"name": "withdrawStuckETH",
			"outputs": [],
			"stateMutability": "nonpayable",
			"type": "function"
		},
		{
			"inputs": [
				{
					"internalType": "address",
					"name": "to",
					"type": "address"
				},
				{
					"internalType": "uint256",
					"name": "amount",
					"type": "uint256"
				}
			],
			"name": "withdrawTokens",
			"outputs": [],
			"stateMutability": "nonpayable",
			"type": "function"
		},
		{
			"stateMutability": "payable",
			"type": "receive"
		}
	]
}